ARM GAS  /tmp/cc2EPMER.s 			page 1


   1              		.syntax unified
   2              		.cpu cortex-m4
   3              		.fpu softvfp
   4              		.eabi_attribute 20, 1
   5              		.eabi_attribute 21, 1
   6              		.eabi_attribute 23, 3
   7              		.eabi_attribute 24, 1
   8              		.eabi_attribute 25, 1
   9              		.eabi_attribute 26, 1
  10              		.eabi_attribute 30, 2
  11              		.eabi_attribute 34, 1
  12              		.eabi_attribute 18, 4
  13              		.thumb
  14              		.syntax unified
  15              		.file	"chschd.c"
  16              		.text
  17              	.Ltext0:
  18              		.section	.gnu.lto_.profile.5c3a872a074d49ef,"",%progbits
  19 0000 789C6361 		.ascii	"x\234ca`d`c`\000\222\007\231n2\002\000\005Q\001\252"
  19      60646063 
  19      60009207 
  19      996E3202 
  19      00055101 
  20              		.text
  21              		.section	.gnu.lto_.icf.5c3a872a074d49ef,"",%progbits
  22 0000 789C6361 		.ascii	"x\234ca`d\000\201P\006\004\340c\330~k\3736n\306;\217"
  22      60640081 
  22      500604E0 
  22      63D87E6B 
  22      FB366EC6 
  23 0016 E6747031 		.ascii	"\346tp1]\236\276G\226\271\177\352\226\263\274,o\216"
  23      5D9EBE47 
  23      96B97FEA 
  23      96B3BC2C 
  23      6F8E
  24 0028 ADBCC2C5 		.ascii	"\255\274\302\305\012&\331v?^\266\230\227}\316\353\377"
  24      0A26D976 
  24      3F5EB698 
  24      977DCEEB 
  24      FF
  25 0039 7F183966 		.ascii	"\177\0309f\315\333~\236\213\363O\357\335\205<\\\033"
  25      CDDB7E9E 
  25      8BF34FEF 
  25      DD853C5C 
  25      1B
  26 004a 9FDD9ACF 		.ascii	"\237\335\232\317\305\015&y\246\277\371\275\226\207\027"
  26      C50D2679 
  26      A6BFF9BD 
  26      968717
  27 0059 CC660000 		.ascii	"\314f\000\000/\204*\367"
  27      2F842AF7 
  28              		.text
  29              		.section	.gnu.lto_.jmpfuncs.5c3a872a074d49ef,"",%progbits
  30 0000 789C458E 		.ascii	"x\234E\216;\016\302@\014D\307^C\226\237\304\001\270"
  30      3B0EC240 
  30      0C44C75E 
  30      43969FC4 
ARM GAS  /tmp/cc2EPMER.s 			page 2


  30      01B8
  31 0012 682A6F13 		.ascii	"h*o\023\304M\340\0004\351\221r\010\256@I\033\205\235"
  31      C44DE000 
  31      34E99172 
  31      08AE4049 
  31      1B859D
  32 0025 4D36B818 		.ascii	"M6\270\030y,?{\014\002\326\200\177\235 \"\256E\264\345"
  32      792C3F7B 
  32      0C02D680 
  32      7F9D2022 
  32      AE45B4E5 
  33 0039 240046BB 		.ascii	"$\000F\273\241l)\226w\222\216*\317\327p\215_\355\002"
  33      A16C2996 
  33      77928E2A 
  33      CFD7708D 
  33      5FED02
  34 004c A1BB5CB8 		.ascii	"\241\273\\\270\336d6h\205\025\020\303b\342lZ~\225\214"
  34      DE643668 
  34      851510C3 
  34      62E26C5A 
  34      7E958C
  35 005f F7FDE7DD 		.ascii	"\367\375\347\335\370\230n)\235\273 \223r\376\020/A\""
  35      F8986E29 
  35      9DBB2093 
  35      72FE102F 
  35      4122
  36 0071 EFB81B51 		.ascii	"\357\270\033Q\276\253\367w\300>'\232\323\036\326\356"
  36      BEABF777 
  36      C03E279A 
  36      D31ED6EE 
  37 0081 58B25787 		.ascii	"X\262W\207\037\306\222\032H"
  37      1FC6921A 
  37      48
  38              		.text
  39              		.section	.gnu.lto_.inline.5c3a872a074d49ef,"",%progbits
  40 0000 789C6361 		.ascii	"x\234ca`d\000\201[\020\012\014x\031\030\370\0160022"
  40      60640081 
  40      5B100A0C 
  40      781918F8 
  40      0E303032 
  41 0015 28303230 		.ascii	"(020;\260\010\235hac\340\370\240\307\304\300\370<\214"
  41      3BB0089D 
  41      686163E0 
  41      F8A0C7C4 
  41      C0F83C8C 
  42 0029 05428294 		.ascii	"\005B\202\22411(\212120\031tt32\360u80\201\305\270\031"
  42      3131288A 
  42      31323019 
  42      74743332 
  42      F0753830 
  43 0041 181827F8 		.ascii	"\030\030'\37013p\260\003\245\270&\3701\260-\220\007"
  43      313370B0 
  43      03A5B826 
  43      F831B02D 
  43      9007
  44 0053 CBB0A098 		.ascii	"\313\260\240\230)\370\340\017+\003\347\0153t3Y\211R"
  44      29F8E00F 
ARM GAS  /tmp/cc2EPMER.s 			page 3


  44      2B03E70D 
  44      33743359 
  44      8952
  45 0065 C5C6C007 		.ascii	"\305\306\300\007\262Y\240\241\026n<3\017\320\362\011"
  45      B259A0A1 
  45      166E3C33 
  45      0FD0F209 
  46 0075 7E13FCD8 		.ascii	"~\023\374\330E\304T\030\231\031\025\262\37721\336=\261"
  46      45C45418 
  46      991915B2 
  46      FF3231DE 
  46      3DB1
  47 0087 7235F317 		.ascii	"r5\363\027\246Vf&\306\377@\300\317\270\234Q\206\201"
  47      A6566626 
  47      C6FF40C0 
  47      CFB89C51 
  47      8681
  48 0099 51210B4A 		.ascii	"Q!\013J\003\275\314\302\262@\036b\006\220!\300\300\361"
  48      03BDCCC2 
  48      B2401E62 
  48      069021C0 
  48      C0F1
  49 00ab 438705EA 		.ascii	"C\207\005\352\015\016\220?\2004\0130\200 \324\004?V"
  49      0D0E903F 
  49      80340B30 
  49      8020D404 
  49      3F56
  50 00bd 3E20CDC2 		.ascii	"> \315\302\000\364\325\004?\016\006\245\203\010\227"
  50      00F4D504 
  50      3F0E06A5 
  50      830897
  51 00cc 1AEEB8C5 		.ascii	"\032\356\270\305\306\300\015v\351\013v\026\010\211\342"
  51      C6C00D76 
  51      E90B7616 
  51      0889E2
  52 00db 2C4ECC10 		.ascii	",N\314\020\341b\220\270\0142\\e\332z\016L\177p\343\225"
  52      E16290B8 
  52      0C325C65 
  52      DA7A0E4C 
  52      7F70E395 
  53 00ef E561E0E2 		.ascii	"\345a\340\342\001J\362<\210\205\3131r\201\243\016\237"
  53      014AF23C 
  53      8885CB31 
  53      7281A30E 
  53      9F
  54 0100 2E0600FB 		.ascii	".\006\000\373\270L\240"
  54      B84CA0
  55              		.text
  56              		.section	.gnu.lto_.pureconst.5c3a872a074d49ef,"",%progbits
  57 0000 789C6361 		.ascii	"x\234ca`d\220e``\340e\330\305\310\264\213\221Y\212E"
  57      60649065 
  57      6060E065 
  57      D8C5C8B4 
  57      8B91598A 
  58 0015 8A558A4D 		.ascii	"\212U\212M\212]\222C\212\223\225K\212[\212G\222W\012"
  58      8A5D9243 
  58      8A93954B 
ARM GAS  /tmp/cc2EPMER.s 			page 4


  58      8A5B8A47 
  58      92570A
  59 0028 003A4403 		.ascii	"\000:D\003\007"
  59      07
  60              		.text
  61              		.section	.gnu.lto_wakeup.part.2.5c3a872a074d49ef,"",%progbits
  62 0000 789C9D55 		.ascii	"x\234\235U]L\034U\024\276\347\336\331\331\205]\2207"
  62      5D4C1C55 
  62      14BEE7DE 
  62      D9D9855D 
  62      9037
  63 0012 7DC00089 		.ascii	"}\300\000\211\2044\261\214>5\372\326\360\324\007\324"
  63      8434B18C 
  63      3E35FAD6 
  63      F0D407D4 
  64 0022 C083F1A9 		.ascii	"\300\203\361\251\352@\004\323\355\342.\2326\232p\027"
  64      EA4004D3 
  64      EDE22E9A 
  64      369A7017 
  65 0032 76B42535 		.ascii	"v\264%5b\014\004l\233Mm\260`\345\267V[Z`K+\010\362\323"
  65      620C046C 
  65      9B4D6DB0 
  65      60E5B756 
  65      5B5A604B 
  66 004a 8205AB46 		.ascii	"\202\005\253F\371\021HLU \324\237T\026\317\271\263%"
  66      F911484C 
  66      5520D49F 
  66      5416CFB9 
  66      B325
  67 005c B0AC54BD 		.ascii	"\260\254T\275\331\335\231;\347\234\357;\347;w\316j\014"
  67      D9DD993B 
  67      E79CEF3B 
  67      E73B77CE 
  67      6A0C
  68 006e 18AD1E27 		.ascii	"\030\255\036'c\023x}\012\277\340d\240\327\214\342\215"
  68      6313787D 
  68      0ABFE064 
  68      A0D78CE2 
  68      8D
  69 007f 0E5C5D39 		.ascii	"\016\\]9\027\307\006\030\223\311Z\310\311\244G\330\217"
  69      17C70618 
  69      93C95AC8 
  69      C9A447D8 
  69      8F
  70 0090 F76AE0A0 		.ascii	"\367j\340\240k\320\345\000\240\033\351\002V\241s\241"
  70      6BD0E500 
  70      A01BE902 
  70      56A173A1 
  71 00a0 39A08273 		.ascii	"9\240\202sf\257;|\215C\337[\013\027\371\2563\022\327"
  71      66AF3B7C 
  71      8D43DF5B 
  71      0B17F9AE 
  71      3312D7
  72 00b3 F47CEFCB 		.ascii	"\364|\357\313Ai=d\011\306\326cNp\006v\241\327\215P\373"
  72      41693D64 
  72      09C6D663 
  72      4E700676 
ARM GAS  /tmp/cc2EPMER.s 			page 5


  72      A1D78D50 
  73 00c8 09B1CA2D 		.ascii	"\011\261\312-\001\240\341vy\344\375\271T\332r\310\304"
  73      01A0E176 
  73      79E4FDB9 
  73      54DA72C8 
  73      C4
  74 00d9 ED70E468 		.ascii	"\355p\344h[\262\310\000\206\367\323\341\256\221\244"
  74      5BB2C800 
  74      86F7D3E1 
  74      AE91A4
  75 00e8 9C46292B 		.ascii	"\234F)+\245\274S$\223,!\340#\020\210\007\315\220\016"
  75      A5BC5324 
  75      932C21E0 
  75      23108807 
  75      CD900E
  76 00fb 4D90CEF0 		.ascii	"M\220\316\360\021\203\263\220C\356\327\346\377\032w"
  76      1183B390 
  76      43EED7E6 
  76      FF1A77
  77 010a 8B2C151A 		.ascii	"\213,\025\032<{\374\204'\3734\205F\336\235Lm\220\221"
  77      3C7BFC84 
  77      27FB3485 
  77      46DE9D4C 
  77      6D9091
  78 011d 50A62534 		.ascii	"P\246%4\370xk8-\364\236\355\210\326\246\350!J<\023Z"
  78      F8786B38 
  78      2DF49EED 
  78      88D6A6E8 
  78      214A3C13 
  79 0132 20DB4E19 		.ascii	" \333N\031ZQ\032\306(\311\211\305\272n\227xDA\327\376"
  79      5A511AC6 
  79      28C989C5 
  79      BA6E9778 
  79      4441D7FE 
  80 0146 DA5F0B31 		.ascii	"\332_\0131\350\337F=\262&\350\"\344\266\355\310\320"
  80      E8DF463D 
  80      B226E822 
  80      E4B6EDC8 
  80      D0
  81 0157 0ED91870 		.ascii	"\016\331\030p\354\355\265\325\007(\240ZF\242\023\236"
  81      ECEDB5D5 
  81      0728A05A 
  81      46A2139E 
  82 0167 6A3B806D 		.ascii	"j;\200m\363\356\210\367\226\235\327%\250\274\267;wB"
  82      F3EE88F7 
  82      969DD725 
  82      A8BCB73B 
  82      7742
  83 0179 3665DA56 		.ascii	"6e\332V \345\372z\225\2549\235\013)\240\030\271\372"
  83      20E5FA7A 
  83      95AC399D 
  83      0B29A018 
  83      B9FA
  84 018b 15288D43 		.ascii	"\025(\215C\003\322\306A\267:#\030\266\204\205aw\227"
  84      03D2C641 
  84      B73A2318 
  84      B6848561 
ARM GAS  /tmp/cc2EPMER.s 			page 6


  84      7797
  85 019d B88E17B1 		.ascii	"\270\216\027\261\214\375\303\226\212Y\250LSQU\002\330"
  85      8CFDC396 
  85      8A59A84C 
  85      53515502 
  85      D8
  86 01ae 02547675 		.ascii	"\002Tvu,V\2118\025\327'\376\203\212\362n\213\200s($"
  86      2C568938 
  86      15D727FE 
  86      838AF26E 
  86      8B807328 
  87 01c3 69B8CE61 		.ascii	"i\270\316a\233\310\355d\373\004t\254\344<\350U\202\216"
  87      9BC8ED64 
  87      FB0474AC 
  87      E43CE855 
  87      828E
  88 01d5 4F9DD537 		.ascii	"O\235\3257\346\244\223\240)\377\337\007\206\216x\302"
  88      E6A493A0 
  88      29FFDF07 
  88      868E78C2 
  89 01e5 70328801 		.ascii	"p2\210\001i\226@'\200O\211\015m\215?V\266:\215\026\302"
  89      69964027 
  89      804F890D 
  89      6D8D3F56 
  89      B63A8D16 
  90 01fa 8A9C7C27 		.ascii	"\212\234|'\325\022N\370\014\302\020\305\352\024*\265"
  90      D5124EF8 
  90      0CC210C5 
  90      EA142AB5 
  91 020a AC46D683 		.ascii	"\254F\326\203\355\"\237%\314\013`D1\023e\207\213`0\254"
  91      ED229F25 
  91      CC0B6044 
  91      31136587 
  91      8B6030AC 
  92 021e 5A3E4EF4 		.ascii	"Z>N\364v\345\\U\276\2748'\354\224D\302\034x\\\016\273"
  92      76E55C55 
  92      BEBC3827 
  92      EC9444C2 
  92      1C785C0E 
  93 0233 2DE1822E 		.ascii	"-\341\202.\305\315c\330\227\020\233\240N=l\0039\022"
  93      C5CD63D8 
  93      97109BA0 
  93      4E3D6C03 
  93      3912
  94 0245 02698980 		.ascii	"\002i\211\200.o\001\352F\240\031\010\335\252J\215e\204"
  94      2E6F01EA 
  94      46A01908 
  94      DDAA4A8D 
  94      6584
  95 0257 58A4F50A 		.ascii	"X\244\365\012\000&\"n\377\371<FO\005\247fcuF\032\306"
  95      0026226E 
  95      FFF93C46 
  95      4F05A766 
  95      6375461A 
  96 026c 1EB444D2 		.ascii	"\036\264D\322Q\301\242\\l\010\3219\322p<5&\304\353\244"
  96      51C1A25C 
  96      6C08D139 
ARM GAS  /tmp/cc2EPMER.s 			page 7


  96      D2703C35 
  96      26C4EBA4 
  97 0280 540F09A1 		.ascii	"T\017\011\241m\330\307\307><P\261&\217\240\3719K$C/"
  97      6DD8C7C7 
  97      3E3C50B1 
  97      268FA0F9 
  97      394B2443 
  98 0295 18367D04 		.ascii	"\0306}\004*\364\022<*\202\341X\300\263\242\321\221\301"
  98      2AF4123C 
  98      2A82E158 
  98      C0B3A2D1 
  98      91C1
  99 02a7 C2EA966F 		.ascii	"\302\352\226o\3179)\243\177U\227M\354&\342+;\264\350"
  99      CF3929A3 
  99      7F55974D 
  99      EC26E22B 
  99      3BB4E8
 100 02ba 096A51DF 		.ascii	"\011jQ\337\346\026]\005\343^S:~~\317mK\220\2303\276"
 100      E6165D05 
 100      E35E533A 
 100      7E7ECF6D 
 100      4B909833 
 101 02cf 2936642D 		.ascii	")6d-\020\351\265\035H\317\001\261~N\254\216\030k\277"
 101      10E9B51D 
 101      48CF01B1 
 101      7E4EAC8E 
 101      186BBF
 102 02e2 DDBCBA53 		.ascii	"\335\274\272S\031\377\247\302\201\373U\370\305f\256"
 102      19FFA7C2 
 102      81FB55F8 
 102      C566AE
 103 02f1 41AA5027 		.ascii	"A\252P'\272\361\352\357\273\337\370GB=!a!\021\016\355"
 103      BAF1EAEF 
 103      BBDFF847 
 103      423D2161 
 103      21110EED 
 104 0305 40F80A11 		.ascii	"@\370\012\021~\271Y\322a\"\324l\302\205\035\010\023"
 104      7EB959D2 
 104      6122D46C 
 104      C2851D08 
 104      13
 105 0316 EBA92A1C 		.ascii	"\353\251*\034\271_\205\243\233+\034\263\011\361M\213"
 105      B95F85A3 
 105      9B2B1CB3 
 105      09F14D8B 
 106 0326 AC4D821A 		.ascii	"\254M\202\032\2504\025\360\001W\233v{\203\323\207\270"
 106      A83415F0 
 106      01579B76 
 106      7B83D387 
 106      B8
 107 0337 86C67BDD 		.ascii	"\206\306{\335\"G\275\374\253\365\035MI\366\344\231\356"
 107      2247BDFC 
 107      ABF51D4D 
 107      49F6E499 
 107      EE
 108 0348 6D7EFA4A 		.ascii	"m~\372J\343\233\366\234u\303\365\004s\366\206\232\234"
 108      E39BF69C 
ARM GAS  /tmp/cc2EPMER.s 			page 8


 108      75C3F504 
 108      73F6869A 
 108      9C
 109 0359 1BF3C38D 		.ascii	"\033\363\303\215\365\216\243m\021*g\357\366\377\262"
 109      F58EA36D 
 109      112A67EF 
 109      F6FFB2
 110 0368 67EBF089 		.ascii	"g\353\360\211\014\376\340\210\315%\0367\227\"3\265\203"
 110      0CFEE088 
 110      CD251E37 
 110      972233B5 
 110      83
 111 0379 94F60419 		.ascii	"\224\366\004\031E\274qm\245\031\020\371+2j\361\003\357"
 111      45BC716D 
 111      A51910F9 
 111      2B326AF1 
 111      03EF
 112 038b FC18501A 		.ascii	"\374\030P\032\014n\222\331\021?\360\030L\252a7E\177"
 112      0C6E92D9 
 112      113FF018 
 112      4CAA6137 
 112      457F
 113 039d 29C02E00 		.ascii	")\300.\000\332?\010w\376\221\2345\010aY\217S\325C!-"
 113      DA3F0877 
 113      FE919C35 
 113      0861598F 
 113      53D54321 
 114 03b2 7397A44B 		.ascii	"s\227\244K#y\277\206,\325\200hx\246\307\215O\340\026"
 114      2379BF86 
 114      2CD58068 
 114      78A6C78D 
 114      4FE016
 115 03c5 68AA2806 		.ascii	"h\252(\006\337\250\377\315\246\236\253\363\236\254\341"
 115      DFA8FFCD 
 115      A69EABF3 
 115      9EACE1
 116 03d4 58740AF9 		.ascii	"Xt\012\371\256\264v\336t\253\350o)\032\276\003\222\236"
 116      AEB476DE 
 116      74ABE86F 
 116      291ABE03 
 116      929E
 117 03e6 2B7D48A7 		.ascii	"+}H\247e\314\013_\341\237Ho\265\226\360d\204\234\030"
 117      65CC0B5F 
 117      E19F486F 
 117      B596F064 
 117      849C18
 118 03f9 909E9B6B 		.ascii	"\220\236\233k\330\037_\300\360\227\033\001\277i\230"
 118      D81F5FC0 
 118      F0971B01 
 118      BF6998
 119 0408 2501B3A4 		.ascii	"%\001\263\244(\327dP\306\313\313\270Y\346|\361\205@"
 119      28D76450 
 119      C6CBCBB8 
 119      59E67CF1 
 119      8540
 120 041a F133FED2 		.ascii	"\3613\376\322\335\233\235M\237\327\353;h\224\371\374"
 120      DD9B9D4D 
ARM GAS  /tmp/cc2EPMER.s 			page 9


 120      9FD7EB3B 
 120      6894F9FC 
 121 042a E501636F 		.ascii	"\345\001coA~^\376!\2144}\376\342\375\257\355\361\346"
 121      417E5EFE 
 121      218C347D 
 121      FEE2FDAF 
 121      EDF1E6
 122 043d 96B02713 		.ascii	"\226\260'\023x\027\037*'_#/\277p_\241\221\207\316\306"
 122      78171F2A 
 122      275F232F 
 122      BF705FA1 
 122      9187CEC6 
 123 0451 BE83E681 		.ascii	"\276\203\346\201W\213\212\015\323\033(\015\354\177\311"
 123      578B8A0D 
 123      D31B280D 
 123      EC7FC9
 124 0460 34313423 		.ascii	"414#.\253\322{>%\201\303\001\264\247\345\027\026dRR"
 124      2EABD27B 
 124      3E2581C3 
 124      01B4A7E5 
 124      17166452 
 125 0475 65FED247 		.ascii	"e\376\322G3\263\037c\334\317\234\336b\257\317\177\230"
 125      33B31F63 
 125      DCCF9CDE 
 125      62AFCF7F 
 125      98
 126 0486 FD0D73C7 		.ascii	"\375\015s\307\320\207"
 126      D087
 127              		.text
 128              		.section	.gnu.lto_wakeup.5c3a872a074d49ef,"",%progbits
 129 0000 789C9556 		.ascii	"x\234\225V[l\024e\024\376\317\374\263;\263\335^\026"
 129      5B6C1465 
 129      14FECFFC 
 129      B33BB3DD 
 129      5E16
 130 0012 959B21A1 		.ascii	"\225\233!\241$6\004\202\214\306D\2247\303\203\341\241"
 130      24360482 
 130      8CC64494 
 130      37C383E1 
 130      A1
 131 0023 11213CF8 		.ascii	"\021!<\370Dti,\306\322\322E\305\370\320\351e(\020\303"
 131      4474692C 
 131      C6D2D245 
 131      C5F8D0E9 
 131      652810C3 
 132 0037 456D2D02 		.ascii	"Em-\002)B\011\345\336\002\025Z,\254\225\213\\{A(\025"
 132      294209E5 
 132      DE02155A 
 132      2CAC958B 
 132      5C7B4128 
 133 004c 2FE552A0 		.ascii	"/\345R\240\200Hk+\"\264\3539gf\313v\333mu\323\374\235"
 133      80486B2B 
 133      22B4EB39 
 133      6766CB76 
 133      DB6D75D3 
 134 0062 99FF9CF3 		.ascii	"\231\377\234\363\235\357\234\357\277\250\002\004\375"
 134      9DEF9CEF 
ARM GAS  /tmp/cc2EPMER.s 			page 10


 134      BFA80204 
 134      FD
 135 006f 5E4A1062 		.ascii	"^J\020b4>.\304g\360\010PV\237\023\"WW\\ZC\2220u\311"
 135      343E2EC4 
 135      67F00850 
 135      569F1322 
 135      57575C5A 
 136 0088 A3CAA39B 		.ascii	"\243\312\243\233G\227\375\035t\333P\005\315~p\201\333"
 136      4797FD1D 
 136      74DB5005 
 136      CD7E7081 
 136      DB
 137 0099 7E7087BF 		.ascii	"~p\207\277h\266\015\350\000\364\337\324A\344(Ru\271"
 137      68B60DE8 
 137      00F4DFD4 
 137      41E42852 
 137      75B9
 138 00ab 351D7294 		.ascii	"5\035r\224\234n\245G\201\272\302\033\325\312\244\255"
 138      9C6EA547 
 138      81BAC21B 
 138      D5CAA4AD 
 139 00bb 26FE5ADB 		.ascii	"&\376Z\333\216\274\227kZc,)DH\341\344\004l\205Ih\325"
 139      8EBC976B 
 139      5A632C29 
 139      4448E1E4 
 139      046C8549 
 140 00d1 5850B15E 		.ascii	"XP\261^v)\226\004P\361\265\343\354W\327\022\351U\201"
 140      76299604 
 140      50F1B5E3 
 140      EC57D712 
 140      E95581
 141 00e4 647C3D13 		.ascii	"d|=\023\\\276'N\216\007\201\317\255\2455g=\023\267\230"
 141      5CBE274E 
 141      8E0781CF 
 141      ADA53567 
 141      3D13B798 
 142 00f8 669E6976 		.ascii	"f\236iv\3177=\226\224\260\035$\306\203m0\016\312a\234"
 142      CF373D96 
 142      94B01D24 
 142      C6836D30 
 142      0ECA619C 
 143 010c C04F0276 		.ascii	"\300O\002v\300D2?\332\366\270\311+'\260k\356\216u\353"
 143      C044323F 
 143      DAF6B8C9 
 143      2B27B06B 
 143      EE8E75EB 
 144 0120 E3533693 		.ascii	"\343S6\223kp\315\305\304\265f\260 \331\222*\354\354"
 144      6B70CDC5 
 144      C4B566B0 
 144      20D9922A 
 144      ECEC
 145 0132 EF4E3FB4 		.ascii	"\357N?\264\276Z\331[\224\340.\240\304\223a\027\244\330"
 145      BE5AD95B 
 145      94E02EA0 
 145      C4936117 
 145      A4D8
 146 0144 29C36E70 		.ascii	")\303npS]\367\314\016\232\241P\276\031\014=][\322\031"
ARM GAS  /tmp/cc2EPMER.s 			page 11


 146      535DF7CC 
 146      0E9AA150 
 146      BE190C3D 
 146      5D5BD219 
 147 0158 371A1347 		.ascii	"7\032\023GD\027b\273\3348\2705z\322q\320\342p\320\275"
 147      441762BB 
 147      DC38B835 
 147      7AD271D0 
 147      E270D0BD 
 148 016c 38A83E1A 		.ascii	"8\250>\032F\320 \304}\014\326\246\213\016E\301\177\362"
 148      46D020C4 
 148      7D0CD6A6 
 148      8B0E45C1 
 148      7FF2
 149 017e 2AE45146 		.ascii	"*\344QF\034\034\241\362\221\000~\362Q\032[N5\035\361"
 149      1C1CA1F2 
 149      91007EF2 
 149      511A5B4E 
 149      351DF1
 150 0191 CAE79840 		.ascii	"\312\347\230@WIe\271\307&\320Z\335\236\372\335\226\245"
 150      574965B9 
 150      C726D05A 
 150      DD9EFADD 
 150      96A5
 151 01a3 E6EA5CDD 		.ascii	"\346\352\\\335\222\036\3303\220\002T@\012\372\024\266"
 151      921ED833 
 151      90025440 
 151      0AFA14B6 
 152 01b3 9BB52A95 		.ascii	"\233\265*\225\322\003\311P\211s7!\357j\367\361{\323"
 152      D203C950 
 152      89733721 
 152      EF6AF7F1 
 152      7BD3
 153 01c5 FA530C2E 		.ascii	"\372S\014.?\346br!\005\242\330\007\253\212\326\201["
 153      3FE66272 
 153      2105A2D8 
 153      07AB8AD6 
 153      815B
 154 01d7 C05E9A54 		.ascii	"\300^\232T\242';~*\007\020\260\217&e\324\244\271\355"
 154      A2273B7E 
 154      2A0710B0 
 154      8F2665D4 
 154      A4B9ED
 155 01ea 1C501A02 		.ascii	"\034P\032\002\366\323\264\032]V\001U\030X\3007TS\020"
 155      F6D3B41A 
 155      5D560155 
 155      1858C037 
 155      545310
 156 01fd 5580F39B 		.ascii	"U\200\363\233J\367\376\0357\3418\224\232%\330\2348r"
 156      4AF7FE1D 
 156      37E13894 
 156      9A25D89C 
 156      3872
 157 020f D975ED10 		.ascii	"\331u\355\020*\024\013\006\007`\002\367\346\376\335"
 157      2A140B06 
 157      076002F7 
 157      E6FEDD
ARM GAS  /tmp/cc2EPMER.s 			page 12


 158 021e 1F2F2BF8 		.ascii	"\037/+\370\005\016\202\312\244\004T\263p\312\017\177"
 158      050E82CA 
 158      A40454B3 
 158      70CA0F7F 
 159 022e DF163FE1 		.ascii	"\337\026?\341\244\343\355%\333\316\335{/x\331\273\206"
 159      A4E3ED25 
 159      DBCEDD7B 
 159      2F78D9BB 
 159      86
 160 023f BCE110A8 		.ascii	"\274\341\020\250X\\\205\353#\304\015\310\253\251n\271"
 160      585C85EB 
 160      23C40DC8 
 160      ABA96EB9 
 161 024f 349DA8E7 		.ascii	"4\235\250\347K7\332\027[u\365\032\025L\345B<8qjY|)l"
 161      4B37DA17 
 161      5B75F51A 
 161      154CE542 
 161      3C38716A 
 162 0267 004BC663 		.ascii	"\000K\306c_\340[B\243\276\\\317\333\255\031\317[2\001"
 162      5FE05B42 
 162      A3BE5CCF 
 162      DBAD19CF 
 162      5B3201
 163 027a 6AA1147A 		.ascii	"j\241\024zY\317p\030\014\321\006\205\246\026\021\257"
 163      59CF7018 
 163      0CD10685 
 163      A61611AF 
 164 028a A5EC966B 		.ascii	"\245\354\226k\015\254\312E\316\301\316Q$~aJ\266>\002"
 164      0DACCA45 
 164      CEC1CE51 
 164      247E614A 
 164      B63E02
 165 029d 6B88F29E 		.ascii	"k\210\362\236\273\325\017\023\010\321\315\210=M\353"
 165      BBD50F13 
 165      08D1CD88 
 165      3D4DEB
 166 02ac 2D3DEC50 		.ascii	"-=\354PB\016\020DPS\222\356\340;\333\247\256\263bk\274"
 166      420E1044 
 166      505392EE 
 166      E03BDBA7 
 166      AEB3626B 
 167 02c1 ED23F1B5 		.ascii	"\355#\361\265\341a\331v%\354\263\227}\352\330\2075\373"
 167      E161D976 
 167      25ECB397 
 167      7DEAD887 
 167      35FB
 168 02d3 BDEDD3B7 		.ascii	"\275\355\323\267\310\334\\\253\246\342P(>\354\323\304"
 168      C8DC5CAB 
 168      A6E25028 
 168      3EECD3C4 
 169 02e3 3E47D987 		.ascii	">G\331\207\222\203c\266\317\311\262\232\307\016\216"
 169      928363B6 
 169      CFC9B29A 
 169      C70E8E
 170 02f2 0B5F3754 		.ascii	"\013_7T|\321\232\024\366\251a\237\343\354\243\222\317"
 170      7CD19A14 
 170      F6A9619F 
ARM GAS  /tmp/cc2EPMER.s 			page 13


 170      E3ECA392 
 170      CF
 171 0303 09DBA76B 		.ascii	"\011\333\247k\205\365\300\301\321h\331m\350-\353\303"
 171      85F5C0C1 
 171      D168D96D 
 171      E82DEBC3 
 172 0313 B9C43E3F 		.ascii	"\271\304>?<\3019\211>\370\277\003\305s\005\344u\310"
 172      3CC13989 
 172      3EF8BF03 
 172      C57305E4 
 172      75C8
 173 0325 F531D3B0 		.ascii	"\3651\323\260\374\373I~\333\033\303H\376\024K\276\257"
 173      FCFB497E 
 173      DB1BC348 
 173      FE144BBE 
 173      AF
 174 0336 831E54D5 		.ascii	"\203\036T\325\351\330\222?}b\256#yW\264\252\017\024"
 174      E9D8923F 
 174      7D62AE23 
 174      7957B4AA 
 174      0F14
 175 0348 9D849705 		.ascii	"\235\204\227\005\234\241I\367\000\311wn#\311\237\245"
 175      9CA149F7 
 175      00C9776E 
 175      23C99FA5 
 176 0358 492D5AF2 		.ascii	"I-Z\362U\365@i\0108\027C\362\365,\371\206\010\311\367"
 176      55F54069 
 176      08381743 
 176      F2F52CF9 
 176      8608C9F7 
 177 036c 965E39EC 		.ascii	"\226^9\354\015\253\3714\253\271\221;\024-\335\246\260"
 177      0DABF934 
 177      ABB9913B 
 177      142DDDA6 
 177      B0
 178 037d 7409808B 		.ascii	"t\011\200\213\246\206\213F<\250\333\254\347\306\226"
 178      A6868B46 
 178      3CA8DBAC 
 178      E7C696
 179 038c 976DFDE9 		.ascii	"\227m\375\351\021\002\316%\374\027E,\031'\302y\2261"
 179      1102CE25 
 179      FC17452C 
 179      1927C279 
 179      9631
 180 039e D8BBDFF9 		.ascii	"\330\273\337\371\325f\011\030\273\230\3224\334\305\340"
 180      D5660918 
 180      BB98D234 
 180      DCC5E0
 181 03ad 47307A15 		.ascii	"G0z\025V\323\005\3248\302tm\034I \221\365\326\372\255"
 181      56D305D4 
 181      38C2746D 
 181      1C492091 
 181      F5D6FAAD 
 182 03c1 1806F45A 		.ascii	"\030\006\364Z2\011\363\200\213L\253\031!\"\035\222\260"
 182      3209F380 
 182      8B4CAB19 
 182      21221D92 
ARM GAS  /tmp/cc2EPMER.s 			page 14


 182      B0
 183 03d2 0697B879 		.ascii	"\006\227\270y\035\330\203~TT\246RY_\345,\245\270\350"
 183      1DD8837E 
 183      5454A652 
 183      595FE52C 
 183      A5B8E8
 184 03e5 C88B86A0 		.ascii	"\310\213\206\240\322\022\213\312G\270\027\303OD\205"
 184      D2128BCA 
 184      47B817C3 
 184      4F4485
 185 03f4 C57719A9 		.ascii	"\305w\031\251\240\322L\257\303\244y\323\341\317\023"
 185      A0D24CAF 
 185      C3A479D3 
 185      E1CF13
 186 0403 27977397 		.ascii	"'\227s\227C7\364\265\033Qi>\341\234T?\303dL\243O\231"
 186      4337F4B5 
 186      1B51693E 
 186      E19C543F 
 186      C3644CA3 
 187 0419 9FED6C68 		.ascii	"\237\355lhv\313F`\316M\007V\235p\216\226\326\226\225"
 187      76CB4660 
 187      CE4D0756 
 187      9D708E96 
 187      D69695
 188 042c AFD78565 		.ascii	"\257\327\205e\352\203_\006\221\351\257\220B\321l\206"
 188      EA835F06 
 188      91E9AF90 
 188      42D16C86 
 189 043c 676747EF 		.ascii	"ggG\357\304\365.\262p\244\251\017T\320o\254\240V\252"
 189      C4F52EB2 
 189      70A4A90F 
 189      54D06FAC 
 189      A056AA
 190 044f 0AADAF15 		.ascii	"\012\255\257\025\3774\257\324\251\232#\200\372\335X"
 190      FF34AFD4 
 190      A99A2380 
 190      FADD58
 191 045e BBA938C9 		.ascii	"\273\2518\311)\222\317\222Oa\316p\205\253\177\025\253"
 191      2992CF92 
 191      4F61CE70 
 191      85AB7F15 
 191      AB
 192 046f 8298F9C5 		.ascii	"\202\230\371\305Ko\326\354_\221`Gp\331A\252\012\317"
 192      4B6FD6EC 
 192      5F916047 
 192      70D941AA 
 192      0ACF
 193 0481 54C65190 		.ascii	"T\306Q\220\247\000\340\032\232cn\305@&C\206\274\216"
 193      A700E01A 
 193      9A636EC5 
 193      40264386 
 193      BC8E
 194 0493 21310637 		.ascii	"!1\0067\320-\352dD\003\355#\314)l\304\321K\267\2005"
 194      D02DEA64 
 194      4403ED23 
 194      CC296CC4 
 194      D14BB780 
ARM GAS  /tmp/cc2EPMER.s 			page 15


 195 04a8 F9E60FA6 		.ascii	"\371\346\017\246\032\343\354\2056\373\004d)\377\265"
 195      1AE3EC85 
 195      36FB0464 
 195      29FFB5
 196 04b7 B9766962 		.ascii	"\271vib\364\272m\236K6N\201<\003\013t\203\013t\223\350"
 196      F4BA6D9E 
 196      4B364E81 
 196      3C030B74 
 196      830B7493 
 197 04cc 79A364E3 		.ascii	"y\243d\343\033T4,\216\326K\253>\030k\311\247\341\026"
 197      1B54342C 
 197      8ED64BAB 
 197      3E186BC9 
 197      A7E116
 198 04df AB47B5E3 		.ascii	"\253G\265\343D\011\350UJ\272\235\004\344\262\347\341"
 198      4409E855 
 198      4ABA9D04 
 198      E4B2E7E1 
 199 04ef B6BD1C6A 		.ascii	"\266\275\034j\256L\261\021}\377\035\321,\002\302\273"
 199      AE4CB111 
 199      7DFF1DD1 
 199      2C02C2BB 
 200 04ff 3304DE3E 		.ascii	"3\004\336> \300\273\004\350v\000\177\267\001\213\277"
 200      20C0BB04 
 200      E876007F 
 200      B7018BBF 
 201 050f 1E4F8083 		.ascii	"\036O\200\203\242y\007E\233C`\367\206\000[DX\177Db\335"
 201      A2790745 
 201      9B4360F7 
 201      86005B44 
 201      587F4462 
 202 0524 07031931 		.ascii	"\007\003\0311\277\216\356\265\257\330\014G\374\017\206"
 202      BF8EEEB5 
 202      AFD80C47 
 202      FC0F86
 203 0533 5EC2EC18 		.ascii	"^\302\354\030\256\240\235\221\230\177\016\317oDl~]\303"
 203      AEA09D91 
 203      987F0ECF 
 203      6F446C7E 
 203      5DC3
 204 0545 F1EB8E6C 		.ascii	"\361\353\216l\336_\304\317\313\362\325D\201\026>\177"
 204      DE5FC4CF 
 204      CBF2D544 
 204      81163E7F 
 205 0555 F85ED075 		.ascii	"\370^\320u\260\375\362,G\277\321{Z\254\215\347A\254"
 205      B0FDF22C 
 205      47BFD17B 
 205      5AAC8DE7 
 205      41AC
 206 0567 8DE7454B 		.ascii	"\215\347EK>\003\177\023\264F\022\177\010\006\035nw:"
 206      3E037F13 
 206      B446127F 
 206      08061D6E 
 206      773A
 207 0579 1EF3C1EF 		.ascii	"\036\363\301\357\202\034\370\007\243\321^\364\346\300"
 207      821CF807 
 207      A3D15EF4 
ARM GAS  /tmp/cc2EPMER.s 			page 16


 207      E6C0
 208 0587 25130C9D 		.ascii	"%\023\014\235\037\362\266\012\217\372VLWC\233\214:\221"
 208      1FF2B60A 
 208      8FFA564C 
 208      57439B8C 
 208      3A91
 209 0599 1EED9264 		.ascii	"\036\355\222d\340,\027\276Q\235\277Y\\\253\313\"\373"
 209      E02C17BE 
 209      519DBF59 
 209      5CABCB22 
 209      FB
 210 05aa AA57F4C7 		.ascii	"\252W\364\307\361\"p\200\036\234{\002\3243\374\265\270"
 210      F1227080 
 210      1E9C7B02 
 210      D433FCB5 
 210      B8
 211 05bb 97C23EE6 		.ascii	"\227\302>\346\325\026\212\321\252Ae\021\374\262^\241"
 211      D5168AD1 
 211      AA416511 
 211      FCB25EA1 
 212 05cb 9B93A9D8 		.ascii	"\233\223\251\3307'\216\001\271\212\3017\035\272\015"
 212      37278E01 
 212      B98AC137 
 212      1DBA0D
 213 05da AF5D2529 		.ascii	"\257]%)$!D\036\030#9\343\352\352\273\227\265\234\036"
 213      2421441E 
 213      182339E3 
 213      EAEABB97 
 213      B59C1E
 214 05ed 7319838C 		.ascii	"s\031\203\214\\N\033\020~\276}\346\302\321\270'\340"
 214      5C4E1B10 
 214      7EBE7DE6 
 214      C2D1B827 
 214      E0
 215 05fe A3205FC9 		.ascii	"\243 _\311\201<\305F_y\260b\271\3564c\236%GC\001c\353"
 215      813CC546 
 215      5F79B062 
 215      B9EE3463 
 215      9E254743 
 216 0615 36361A1C 		.ascii	"66\032\034\373\264\261,l\360\011)\311R\260[\236\276"
 216      FBB4B12C 
 216      6CF00929 
 216      C952B05B 
 216      9EBE
 217 0627 F9F61EAB 		.ascii	"\371\366\036\253\016lP\363-K\216\201\245\230.\347]\250"
 217      0E6C50F3 
 217      2D4B8E81 
 217      A5982EE7 
 217      5DA8
 218 0639 E4885B50 		.ascii	"\344\210[P\300{\335\300\364\306\206\024\024\030,C#\254"
 218      C07BDDC0 
 218      F4C68614 
 218      14182C43 
 218      23AC
 219 064b 86259F65 		.ascii	"\206%\237e\265\351t\355\277MG\011\377\356c+\332t\254"
 219      B5E974ED 
 219      BF4D4709 
ARM GAS  /tmp/cc2EPMER.s 			page 17


 219      FFEE632B 
 219      DA74AC
 220 065e C4B8A953 		.ascii	"\304\270\251S\015\373/3`d/6\002\331~\303\237\036\360"
 220      0DFB2F33 
 220      60642F36 
 220      02D97EC3 
 220      9F1EF0
 221 0671 A7CF9FEA 		.ascii	"\247\317\237\352\027\220\245,\316\322\336y;\2206+{\301"
 221      1790A52C 
 221      CED2DE79 
 221      3B90362B 
 221      7BC1
 222 0683 F39196FE 		.ascii	"\363\221\226\376\314\214\214\314\205FVf\366\342\200"
 222      CC8C8CCC 
 222      85465666 
 222      F6E280
 223 0692 F1DAECD4 		.ascii	"\361\332\354\324\031\251K\320\315\237\231\2356\357\303"
 223      19A94BD0 
 223      CD9F999D 
 223      36EFC3
 224 06a1 691953D3 		.ascii	"i\031S\323\305\364A\254\323\226,&[cF\352\234\231s\214"
 224      C5F441AC 
 224      D3962C26 
 224      5B6346EA 
 224      9C99738C 
 225 06b5 19686CCC 		.ascii	"\031hl\314\\\350\177\377\203\371i\206?#\260 0\357]\277"
 225      5CE87FFF 
 225      83F96986 
 225      3F23B020 
 225      30EF5DBF 
 226 06c9 1F5DC747 		.ascii	"\037]\307G\245\264 l\223\036\3708\200\363\276\3249\263"
 226      A5B4206C 
 226      931EF838 
 226      80F3BED4 
 226      39B3
 227 06db 9329A9AC 		.ascii	"\223)\251\254\354\005S\222S^\020J\266\3202\32222\263"
 227      EC055392 
 227      535E104A 
 227      B6D032D2 
 227      3232B3
 228 06ee 3F164A20 		.ascii	"?\026J k\010\3674\312,9\366<\261N\027\212?\353_,\373"
 228      6B08F734 
 228      CA2C39F6 
 228      3CB14E17 
 228      8A3FEB5F 
 229 0704 CD8E     		.ascii	"\315\216"
 230              		.text
 231              		.section	.gnu.lto__scheduler_init.5c3a872a074d49ef,"",%progbits
 232 0000 789C9594 		.ascii	"x\234\225\224KL\023Q\024\206\357\177o\351\024\010\204"
 232      4B4C1351 
 232      1486EF7F 
 232      6FE91408 
 232      84
 233 0011 853B496C 		.ascii	"\205;IlbX\260ap\345\302\245\321\2706\356\215)&\230\030"
 233      6258B061 
 233      70E5C2A5 
 233      D1B836EE 
ARM GAS  /tmp/cc2EPMER.s 			page 18


 233      8D292698 
 234 0026 1F50D7BD 		.ascii	"\037P\327\275TF$\032\225\030EP\303B\011\370@Z\361A\005"
 234      5446241A 
 234      95184550 
 234      C34209F8 
 234      405AF141 
 235 003b 7128501F 		.ascii	"q(P\037\274U|\307\220\032I$\230@\202&\220\320z\317L"
 235      BC557CC7 
 235      901A4924 
 235      98408226 
 235      90D07ACF 
 236 0050 3128303A 		.ascii	"1(0:7m\246\367\2363\347\374\337?g\352a`\264\266y\031"
 236      376DA6F7 
 236      9E33E7FC 
 236      DF3F67EA 
 236      6160B4B6 
 237 0066 DBAEAE1B 		.ascii	"\333\256\256\033\325\027\202\201\237\033a\254\312\307"
 237      D5178281 
 237      9F1B61AC 
 237      CAC7
 238 0074 01FA217D 		.ascii	"\001\372!}`!\216\020~\360%\216x\315T\214\027\267H\265"
 238      60218E10 
 238      7EF0258E 
 238      78CD548C 
 238      17B748B5 
 239 0088 269B93A5 		.ascii	"&\233\223\245\262\325\204!\030Ks\253\022C\013\212\231"
 239      B2D58421 
 239      184B73AB 
 239      12430B8A 
 239      99
 240 0099 4A4B4653 		.ascii	"JKFS\027\362\274\325\224\346\267\203h\205\227\332\265"
 240      17F2BCD5 
 240      94E6B783 
 240      688597DA 
 240      B5
 241 00aa EF36653A 		.ascii	"\3576e:}\\\312\205\322\206\315\032c\263*Hm\3468\247"
 241      7D5CCA85 
 241      D286CD1A 
 241      63B32A48 
 241      6DE638A7 
 242 00be AB48225C 		.ascii	"\253H\"\\@\025\306\253#W\304<7\004\340Q\333\271\341"
 242      4015C6AB 
 242      2357C43C 
 242      3704E051 
 242      DBB9E1
 243 00d1 C62FF9B4 		.ascii	"\306/\371\264\345\360\253\355\247\313\237S\331b\023"
 243      E5F0ABED 
 243      A7CB9F53 
 243      D96213
 244 00e0 28B3CFE8 		.ascii	"(\263\317\350\015kE\327\244\014K\363\374\011\321 \315"
 244      0D6B45D7 
 244      A40C4BF3 
 244      FC09D120 
 244      CD
 245 00f1 6ABF2104 		.ascii	"j\277!\004nA\250\316\270\211B\334@\241-\3576\212\324"
 245      6E41A8CE 
 245      B88942DC 
ARM GAS  /tmp/cc2EPMER.s 			page 19


 245      40A12DEF 
 245      368AD4
 246 0104 1D178DF8 		.ascii	"\035\027\215\370\250F\305<V\201Xl\346\243\026Z\222'"
 246      A846C53C 
 246      5681586C 
 246      E6A3165A 
 246      9227
 247 0116 A52C5067 		.ascii	"\245,Pg\265\212\207\216\247\207&\372s\232p\265JZ\347"
 247      B58A878E 
 247      A78726FA 
 247      739A70B5 
 247      4A5AE7
 248 0129 59B8A34C 		.ascii	"Y\270\243Lh\243J*x\2463R\353\323\333\010\320\254Ol0"
 248      68A34A2A 
 248      78A63352 
 248      EBD3DB08 
 248      D0AC4F6C 
 249 013e 8417ED68 		.ascii	"\204\027\355hB\312\362A\305\007N\217_\317\304\345^C"
 249      42CAF241 
 249      C5074E8F 
 249      5FCFC4E5 
 249      5E43
 250 0150 6888404F 		.ascii	"h\210@Oq\330\301oKF\034vC\251\221\324(t\362\207\341"
 250      71D8C16F 
 250      4B461C76 
 250      43A991D4 
 250      2874F287 
 251 0165 2E426C0A 		.ascii	".Bl\012\341\306\205\346\256h\360O\037\315\301\201-\244"
 251      E1C685E6 
 251      AE68F04F 
 251      1FCDC181 
 251      2DA4
 252 0177 DF7232CD 		.ascii	"\337r2\315\261\312ft\250\012\014\367\340]\211(\\ jx"
 252      B1CA6674 
 252      A80A0CF7 
 252      E05D8928 
 252      5C206A78 
 253 018b A010EFAF 		.ascii	"\240\020\357\257F\234\254\377\276c\237!|xh1r\273\027"
 253      469CACFF 
 253      BE639F21 
 253      7C786831 
 253      72BB17
 254 019e 3AA1BBB0 		.ascii	":\241\273\260/\266\266}\223_\223\2738\371\367\310\321"
 254      2FB6B67D 
 254      935F93BB 
 254      38F9F7C8 
 254      D1
 255 01af BF2E27FF 		.ascii	"\277.'\377\272\227\375{\374\333\277\356h0c\305\377\262"
 255      BA97FD7B 
 255      FCDBBFEE 
 255      683063C5 
 255      FFB2
 256 01c1 F7ACCD2E 		.ascii	"\367\254\315.\363\010\374\211%Nd\300MW\340\275\377\000"
 256      F308FC89 
 256      254E64C0 
 256      4D57E0BD 
 256      FF00
ARM GAS  /tmp/cc2EPMER.s 			page 20


 257 01d3 8F3B82F7 		.ascii	"\217;\202\3679\201\367/\203\017(\360$\270\365\226\321"
 257      3981F72F 
 257      830F28F0 
 257      24B8F596 
 257      D1
 258 01e4 90900BF3 		.ascii	"\220\220\013\363\221D]\026\235\270\320\232X[\253\314"
 258      91445D16 
 258      9DB8D09A 
 258      585BABCC 
 259 01f4 25A14FD7 		.ascii	"%\241O\327\023\272\325\020\331xFB=\364\226=\267\354"
 259      13BAD510 
 259      D9784642 
 259      3DF4963D 
 259      B7EC
 260 0206 699F892D 		.ascii	"i\237\211-\344\321\010\346\200\341\205\252\251$-\326"
 260      E4D108E6 
 260      80E185AA 
 260      A9242DD6 
 261 0216 FCBCB4C7 		.ascii	"\374\274\264\307\245\244A'IC\016\222|\030&IY$i\304\325"
 261      A5A44127 
 261      49430E92 
 261      7C182649 
 261      592469C4 
 262 022b 131B5DA7 		.ascii	"\023\033]\247e=\250\347\330\312\236\247\306z\316\346"
 262      653DA8E7 
 262      D8CA9EA7 
 262      C67ACEE6 
 263 023b 671E499D 		.ascii	"g\036I\235\012\347b\034\272j\370\322\236\304\305\232"
 263      0AE7621C 
 263      BA6AF8D2 
 263      9EC4C59A 
 264 024b 946BE057 		.ascii	"\224k\340WN\300\257\035\201'\010\330K\300o\\\001\277"
 264      4EC0AF1D 
 264      812708D8 
 264      4BC06F5C 
 264      01BF
 265 025d 75047EE7 		.ascii	"u\004~\347\014\374\336\002\376\240\200\247\0216;vZ\023"
 265      0CFCDE02 
 265      FEA080A7 
 265      11363B76 
 265      5A13
 266 026f 496B56CD 		.ascii	"IkV\315\255\372OWw\026\226\224\350\366\347p\245^\021"
 266      ADFA4F57 
 266      77169694 
 266      E8F6E770 
 266      A55E11
 267 0282 D42B2B02 		.ascii	"\324++\002z\240\2742P^V\022`\"x\364\210\377\257\204"
 267      7AA0BC32 
 267      505E5612 
 267      602278F4 
 267      88FFAF84 
 268 0296 03870207 		.ascii	"\003\207\002\007\217\225\355_N*g\277\000\243\333O8"
 268      8F95ED5F 
 268      4E2A67BF 
 268      00A3DB4F 
 268      38
 269              		.text
ARM GAS  /tmp/cc2EPMER.s 			page 21


 270              		.section	.gnu.lto_chSchReadyI.5c3a872a074d49ef,"",%progbits
 271 0000 789C9554 		.ascii	"x\234\225TIL\024A\024\255W5==3\300\304\233\027\014\304"
 271      494C1441 
 271      14AD5735 
 271      3D3D33C0 
 271      C49B170C 
 272 0015 488C07E9 		.ascii	"H\214\007\351x\364\350\305x\326\203\361\244\311h\302"
 272      78F4E8C5 
 272      78D683F1 
 272      A4C968C2 
 273 0025 C1C4056F 		.ascii	"\301\304\005o\036(\230\351D\022\343\022\002\221\305"
 273      1E2898E9 
 273      4412E312 
 273      0291C5
 274 0034 10A2883B 		.ascii	"\020\242\210;\214;(:*\210\033 \020c\214\027\004\225"
 274      8C3B283A 
 274      2A881B20 
 274      10638C17 
 274      0495
 275 0046 48401997 		.ascii	"H@\031\227 \211\200\377W\017\343(K\2642\335\325]U\377"
 275      208980FF 
 275      570FE328 
 275      4BB432DD 
 275      D55D55FF 
 276 005a BFF7DFFB 		.ascii	"\277\367\337\373\323>\001\301\343\253%\304*\2327\322"
 276      D33E01C1 
 276      E3AB25C4 
 276      2A9A37D2 
 277 006a 05BF803C 		.ascii	"\005\277\200<\326#Di@By\017JZ\207\273\204\320!_\314"
 277      D6234469 
 277      4042790F 
 277      4A5A87BB 
 277      84D0215F 
 278 007f 163ADBF2 		.ascii	"\026:\333\362\3267\370\000\236u\000\242D*\313\007\272"
 278      D637F800 
 278      9E7500A2 
 278      442ACB07 
 278      BA
 279 0090 0B6F7C97 		.ascii	"\013o|\227\323\022}\261\226:\365M\272J\300G\257\311"
 279      D3127DB1 
 279      963AF54D 
 279      BA4AC047 
 279      AFC9
 280 00a2 EE9AE130 		.ascii	"\356\232\3410\277\002\371\364Z\253\373\313\3555MZ\227"
 280      BF02F9F4 
 280      5AABFBCB 
 280      ED354D5A 
 280      97
 281 00b3 E9C1CE4F 		.ascii	"\351\301\316O\333\216G\335M\256\222bV\012\234E.\232"
 281      DB8E47DD 
 281      4DAE9262 
 281      560A9C45 
 281      2E9A
 282 00c5 90CB6CCE 		.ascii	"\220\313l\316a\015\235\355x\377\263?K\345A\320s]\323"
 282      610D9DED 
 282      78FFB33F 
 282      4BE541D0 
ARM GAS  /tmp/cc2EPMER.s 			page 22


 282      735DD3
 283 00d8 E0E9E0EA 		.ascii	"\340\351\340\352F\216\323\025\273t\220\202p\036*3\216"
 283      468ED315 
 283      BB749082 
 283      701E2A33 
 283      8E
 284 00e9 F3E00256 		.ascii	"\363\340\002V\363\361\201\221\252\366\200ZiB+??\252"
 284      F3F18191 
 284      AAF6805A 
 284      69422B3F 
 284      3FAA
 285 00fb 44C1290E 		.ascii	"D\301)\016ML\366\204\253u\"\226\317\341\027\377\014"
 285      4D4CF684 
 285      AB752296 
 285      CFE117FF 
 285      0C
 286 010c E741A787 		.ascii	"\347A\247\207\3423\2259\376\230\246\221\217K((\247\342"
 286      E2339539 
 286      FE98A691 
 286      8F4B2828 
 286      A7E2
 287 011e E81891BA 		.ascii	"\350\030\221\272\014?\011\007^l\336\234\320\263\263"
 287      0C3F0907 
 287      5E6CDE9C 
 287      D0B3B3
 288 012d 519DF81E 		.ascii	"Q\235\370\036\356\3761\031\314\201\340U*\221\340-\363"
 288      EEFE3119 
 288      CC81E055 
 288      2A91E02D 
 288      F3
 289 013e EC273ACA 		.ascii	"\354':\312\346[\320\020\023\023t\221\216I)iR\037P\366"
 289      E65BD010 
 289      13137491 
 289      8E492969 
 289      521F50F6 
 290 0152 6DE2FD80 		.ascii	"m\342\375\200\342\244\004Z\345>\350\265Y$i\030Ov==\224"
 290      E2A4045A 
 290      E53EE8B5 
 290      59246918 
 290      4F763D3D 
 291 0167 5D8F93A5 		.ascii	"]\217\223\245\314\"\313U\276\250Rhf\216\264\331\370"
 291      CC22CB55 
 291      BEA85268 
 291      668EB4D9 
 291      F8
 292 0178 AEECB2ED 		.ascii	"\256\354\262\355\254u\225\205\026\324c\206\271\011\304"
 292      AC759585 
 292      16D46386 
 292      B909C4
 293 0187 E1D05EF3 		.ascii	"\341\320^\363X\353T\016\347!\246\270B\001C(KT\03750"
 293      58EB540E 
 293      E721A6B8 
 293      42014328 
 293      4B541F35 
 294 019c CC2A13CA 		.ascii	"\314*\023\3126P\255\255co\354\222i}H\353e\264V\256`"
 294      3650ADAD 
 294      636FEC92 
ARM GAS  /tmp/cc2EPMER.s 			page 23


 294      697D48EB 
 294      65B456AE 
 295 01b1 40469FBF 		.ascii	"@F\237\277\354\010\245\030\320z\000\327P\202\253)\006"
 295      EC08A518 
 295      D07A00D7 
 295      5082AB29 
 295      06
 296 01c2 476EB594 		.ascii	"Gn\265\224\007\234KLNowU\020\327\015\017x\002v\036\356"
 296      079C4B4C 
 296      4E6F7755 
 296      10D70D0F 
 296      7802761E 
 297 01d7 3B3DB77B 		.ascii	";=\267{\320U!\334\2003#\245\267\371q\332}\000\017No"
 297      D05521DC 
 297      803323A5 
 297      B7F971DA 
 297      7D000F4E 
 298 01ec 7355166E 		.ascii	"sU\026n\302!\366\267PB\373Ij$j-E\244\227\031\021\243"
 298      C221F6B7 
 298      5042FB49 
 298      6A246A2D 
 298      45A49719 
 299 0202 C486946A 		.ascii	"\304\206\224j\213\217DM\011Qe\375\255\316za\344\301"
 299      8B8F444D 
 299      095165FD 
 299      ADCE7A61 
 299      E4C1
 300 0214 7C794268 		.ascii	"|yBh5\264\224\207<pL\237@\212\326V\026\272\215i\371"
 300      35B49487 
 300      3C704C9F 
 300      408AD656 
 300      16BA8D69 
 301 0229 58BBDBC4 		.ascii	"X\273\333\304\2010\365\2729\231\010\307\340&G\206S\270"
 301      8130F5BA 
 301      399908C7 
 301      E0264786 
 301      53B8
 302 023b FE0C5C18 		.ascii	"\376\014\\\030Dk>b6\356\030D\213\223\266SR\316\321\260"
 302      446B3E62 
 302      36EE1844 
 302      8B93B653 
 302      52CED1B0 
 303 024f C2CB60CF 		.ascii	"\302\313`\317\313\260\200\245\331\270\373;\303=\312"
 303      CBB080A5 
 303      D9B8FB3B 
 303      C33DCA
 304 025e F016B1D7 		.ascii	"\360\026\261\327\321p\212\003%a\257\277\000\024\363"
 304      D1708A03 
 304      2561AFBF 
 304      0014F3
 305 026d AAF4D550 		.ascii	"\252\364\325P\252\236Du\357r\262\201\274K\233p\245\273"
 305      AA9E4475 
 305      EF72B281 
 305      BC4B9B70 
 305      A5BB
 306 027f BA369C69 		.ascii	"\2726\234iB\"\303\204\376\3363\2733=\270o< _d\021\325"
 306      4222C384 
ARM GAS  /tmp/cc2EPMER.s 			page 24


 306      FEDE33BB 
 306      333DB86F 
 306      3C205F64 
 307 0295 658D4DED 		.ascii	"e\215M\355\240n\265\004\375\371\221$\205\274v\255J\216"
 307      A06EB504 
 307      FDF99124 
 307      85BC76AD 
 307      4A8E
 308 02a7 0DDBA976 		.ascii	"\015\333\251v\375\267\376\014\341\341b\006\254g\003"
 308      FDB7FE0C 
 308      E1E16206 
 308      AC6703
 309 02b6 3AD20674 		.ascii	":\322\006t\302\231\223<>^\221\345\225\033\374\033\250"
 309      C299933C 
 309      3E5E91E5 
 309      951BFC1B 
 309      A8
 310 02c7 126231E5 		.ascii	"\022b1\345Cx\264\030\324U0V\027c\371\031\353\261\347"
 310      4378B418 
 310      D4553056 
 310      1763F919 
 310      EBB1E7
 311 02da 4B5543DE 		.ascii	"KUC\336\177\026\363d\311b\236\246\001\236q1A\306\250"
 311      7F16F364 
 311      C9629EA6 
 311      019E7131 
 311      41C6A8
 312 02ed 498E2F2C 		.ascii	"I\216/,\331\026\257\220\340B0\317\027\203\331\3070\335"
 312      D916AF90 
 312      E04230CF 
 312      1783D9C7 
 312      30DD
 313 02ff 69CD7A18 		.ascii	"i\315z\030F\031\230\370\247\245\234YP\256\336%\213y"
 313      461998F8 
 313      A7A59C59 
 313      50AEDE25 
 313      8B79
 314 0311 912EA6CF 		.ascii	"\221.\246\317C\031\245\317H\373\321\034\317\030\363"
 314      4319A5CF 
 314      48FBD11C 
 314      CF18F3
 315 0320 B59FA04E 		.ascii	"\265\237\240N\213\331\324P\271\205\205\216\367\333S"
 315      8BD9D450 
 315      B985858E 
 315      F7DB53
 316 032f ECEC3FE0 		.ascii	"\354\354?\340\024\357\2178\221\242\342H\321\316\302"
 316      14EF8F38 
 316      91A2E248 
 316      D1CEC2
 317 033e 889007F6 		.ascii	"\210\220\007\366\312\310\336_\305\002\001\011"
 317      CAC8DE5F 
 317      C5020109 
 318              		.text
 319              		.section	.gnu.lto_chSchReadyAheadI.5c3a872a074d49ef,"",%progbits
 320 0000 789C9554 		.ascii	"x\234\225TKLSA\024\2353\323\327\327\017\020\342\306"
 320      4B4C5341 
 320      149D33D3 
ARM GAS  /tmp/cc2EPMER.s 			page 25


 320      D7D70F10 
 320      E2C6
 321 0012 0D89C468 		.ascii	"\015\211\304h\214\013yq\351\322\215q\255\013\243\033"
 321      8C0B7971 
 321      E9D28D71 
 321      AD0BA31B 
 322 0022 63AA090B 		.ascii	"c\252\011\013\023Q\334\271`\240}\011$\304\250X\3427"
 322      1351DCB9 
 322      60A07D09 
 322      24C4A858 
 322      E237
 323 0034 C60FA2A2 		.ascii	"\306\017\242\242BEE\374VE\360\007H\301h\304\005\"j4"
 323      424545FC 
 323      5645F007 
 323      48C168C4 
 323      05226A34 
 324 0048 265A3F31 		.ascii	"&Z?1&\002\336;\257\324*\324\350\244\357\315{3s\3579"
 324      2602DE3B 
 324      AFD42AD4 
 324      E8A4EFCD 
 324      7B3373EF 
 325 005d F79CDBE7 		.ascii	"\367\234\333\347\023\020<>[B\314\243y\031]\360\013\310"
 325      13103C3E 
 325      5B42CCA3 
 325      79195DF0 
 325      0BC8
 326 006f 1D7D4254 		.ascii	"\035}BT\007$\224\367\240\244U\337#\204\016\371b\266"
 326      072494F7 
 326      A0A455DF 
 326      23840EF9 
 326      62B6
 327 0081 D00596B7 		.ascii	"\320\005\226\267\276\324\007\360\254\003\020URY>\320"
 327      BED407F0 
 327      AC031055 
 327      52593ED0 
 328 0091 5D78E3AB 		.ascii	"]x\343\253\034\227\030\210\265\035P_\244\253\004|\364"
 328      1C971888 
 328      B51D505F 
 328      A4AB047C 
 328      F4
 329 00a2 9AEEDDF7 		.ascii	"\232\356\335\367\262\210_\201Rz\335\257Su\366\302f\255"
 329      B2885F81 
 329      527ADDAF 
 329      5375F6C2 
 329      66AD
 330 00b4 6BF448D3 		.ascii	"k\364H\323\2215;\243\356rWI1)\005N\240\004\315(a6'\261"
 330      91353BA3 
 330      EE725749 
 330      3129054E 
 330      A004CD28 
 331 00cc 90CE76BD 		.ascii	"\220\316v\275\372\221\012\2539\020\364|\240y\344XpA"
 331      FA910AAB 
 331      3910F47C 
 331      A079E458 
 331      7041
 332 00de 13C7E983 		.ascii	"\023\307\351\203\033t\220\202p\012*7\216\363\240\005"
 332      1B749082 
ARM GAS  /tmp/cc2EPMER.s 			page 26


 332      700A2A37 
 332      8EF3A005 
 333 00ee 0BF8F8E0 		.ascii	"\013\370\370\340\233\306k\0015\327\204\306?t\3071\377"
 333      9BC66B01 
 333      35D784C6 
 333      3F74C731 
 333      FF
 334 00ff 288726E3 		.ascii	"(\207&\343\251\242\275:\031+\345\360\323\277\207\363"
 334      A9A2BD3A 
 334      192BE5F0 
 334      D3BF87F3 
 335 010f A0D3A389 		.ascii	"\240\323\243\211\211x\241?\246i\224\342\014\346\327"
 335      8978A13F 
 335      A66994E2 
 335      0CE6D7
 336 011e 5171748C 		.ascii	"Qqt\214H\235\205\237\204\003/\266\256H\352\311\311\250"
 336      489D859F 
 336      84032FB6 
 336      AE48EAC9 
 336      C9A8
 337 0130 4E36CC7A 		.ascii	"N6\314z\366\264%T\010\301\253T\"\301[\346\331Ot\224"
 337      F6B42554 
 337      08C1AB54 
 337      22C15BE6 
 337      D94F7494 
 338 0144 CDB7A021 		.ascii	"\315\267\240!&>\322E:\246\245\244I\275F\315\227\266"
 338      263ED245 
 338      3AA6A5A4 
 338      49BD46CD 
 338      97B6
 339 0156 DE21C549 		.ascii	"\336!\305I\011\264\321\275\325o\263H\3220\376\326s\277"
 339      09B4D1BD 
 339      D56FB348 
 339      D230FED6 
 339      73BF
 340 0168 B6E0100E 		.ascii	"\266\340\020\016V3\213\260\253|Q\245\320\312\034i\263"
 340      56338BB0 
 340      AB7C51A5 
 340      D0CA1C69 
 340      B3
 341 0179 69ACE6AC 		.ascii	"i\254\346\254\355,r\225\2056\034\302\004s\023H\300\241"
 341      ED2C7295 
 341      85361CC2 
 341      04731348 
 341      C0A1
 342 018b BDD6F79D 		.ascii	"\275\326\367\235\337\0139\0171\3059\012\030EM\262c\227"
 342      DF0B390F 
 342      31C5390A 
 342      18454DB2 
 342      6397
 343 019d 816156B9 		.ascii	"\201aV\271P\266\201\352\354|?lW\215\353Z\255\213i\255"
 343      50B681EA 
 343      EC7C3F6C 
 343      578DEB5A 
 343      AD8B69AD 
 344 01b1 4EC180BC 		.ascii	"N\301\200\274{\370\270+\224a@\353\001\234G\025\3323"
 344      7BF8B82B 
ARM GAS  /tmp/cc2EPMER.s 			page 27


 344      946140EB 
 344      019C4715 
 344      DA33
 345 01c3 0CB65F6A 		.ascii	"\014\266_j\253\0138g\230\234^\353\252 .\030\036\360"
 345      AB0B3867 
 345      989C5EEB 
 345      AA202E18 
 345      1EF0
 346 01d5 04BC533F 		.ascii	"\004\274S?pljw\233\253B\270\010gBJo\363\355\270{\013"
 346      706C6A77 
 346      9BAB42B8 
 346      0867424A 
 346      6FF3EDB8 
 347 01eb 1E9C5EED 		.ascii	"\036\234^\355\2520:\340\020\373K\250\242\37545\022\265"
 347      AA303AE0 
 347      10FB4BA8 
 347      A2FD3435 
 347      12B5
 348 01fd 9622D2C5 		.ascii	"\226\"\322\305F\304(\261!\245.\247\373b\246\204\250"
 348      46C428B1 
 348      21A52EA7 
 348      FB62A684 
 348      A8
 349 020e B2FE5467 		.ascii	"\262\376Tg\2110\362`\272<!t\032Z\312C\036\334\241\367"
 349      8930F260 
 349      BA3C2174 
 349      1A5ACA43 
 349      1EDCA1F7 
 350 0222 20436B15 		.ascii	" Ck\025\013}\231i\371X\273+\304\2010\365\342)\231\010"
 350      0B7D9969 
 350      F958BB2B 
 350      C48130F5 
 350      E2299908 
 351 0236 C7E026FA 		.ascii	"\307\340&\372\3072\270\376\034\\\030Dk:b\001\256\032"
 351      C732B8FE 
 351      1C5C1844 
 351      6B3A6201 
 351      AE1A
 352 0248 448B935E 		.ascii	"D\213\223^\243\244\234\343E\211\227\301\236\226a\006"
 352      A3A49CE3 
 352      458997C1 
 352      9E966106 
 353 0258 4B0B70FD 		.ascii	"K\013p\375W\206\033\224\341\005bO\243E\031\016\224\204"
 353      57861B94 
 353      E105624F 
 353      A345190E 
 353      9484
 354 026a BDFE0450 		.ascii	"\275\376\004P\314\223\352'\243\231z\222\035\251\331"
 354      CC93EA27 
 354      A3997A92 
 354      1DA9D9
 355 0279 64037997 		.ascii	"d\003y\2275\341\\\357\336\375E\271&$sLH\365\037\337"
 355      35E15CEF 
 355      DEFD45B9 
 355      2624734C 
 355      48F51FDF 
 356 028d 98EBC14D 		.ascii	"\230\353\301M\343\001\371\"\313\251.\353y\303:\352V"
ARM GAS  /tmp/cc2EPMER.s 			page 28


 356      E301F922 
 356      CBA92EEB 
 356      79C33AEA 
 356      56
 357 029e 4BD09F1F 		.ascii	"K\320\237\037iR\310k\327\306\304\320\230\235i\327\177"
 357      6952C86B 
 357      D7C6C4D0 
 357      989D69D7 
 357      7F
 358 02af EBCF106E 		.ascii	"\353\317\020n\3473`\011\033\320\2255\340\016\234)\311"
 358      E7336009 
 358      1BD09535 
 358      E00E9C29 
 358      C9
 359 02c0 D343BBC3 		.ascii	"\323C\273\303^\271\301?\201\342\020\371\224\017\241"
 359      5EB9C13F 
 359      81E210F9 
 359      940FA1
 360 02cf 3B1F543B 		.ascii	";\037T;\030\253\207\261\374\214u\327\363\245\361\360"
 360      18AB87B1 
 360      FC8C75D7 
 360      F3A5F1F0 
 361 02df 9CFF2CE6 		.ascii	"\234\377,\346\336_\213\271\237\005x\300\305\004\031"
 361      DE5F8BB9 
 361      9F0578C0 
 361      C50419
 362 02ee 635FE2F1 		.ascii	"c_\342\361\314\222\255\364\012\011\316\004\3630\037"
 362      CC92ADF4 
 362      0A09CE04 
 362      F3301F
 363 02fd CC6686E9 		.ascii	"\314f\206\351\315j\326\3070\312\300\244\363\300\204"
 363      CD6AD6C7 
 363      30CAC0A4 
 363      F3C084
 364 030c F3CBD5FF 		.ascii	"\363\313\325\377\327b\036e\213\031\360P\336\321gdxW"
 364      D7621E65 
 364      8B19F050 
 364      DED16764 
 364      7857
 365 031e A1678CF9 		.ascii	"\241g\214\371\332\177\244N\213\331\324P%ee\216\367\333"
 365      DA7FA44E 
 365      8BD9D450 
 365      2565658E 
 365      F7DB
 366 0330 54E96CD9 		.ascii	"T\351l\331\352Tn\2118\221\362\312H\371\372\262\210\220"
 366      EA546E89 
 366      3891F2CA 
 366      48F9FAB2 
 366      8890
 367 0342 5B2B64A4 		.ascii	"[+d\244\342'r\377\376\307"
 367      E22772FF 
 367      FEC7
 368              		.text
 369              		.section	.gnu.lto_chSchGoSleepS.5c3a872a074d49ef,"",%progbits
 370 0000 789C9554 		.ascii	"x\234\225TOL\024W\030\177\277\367f\331\331\005\214\367"
 370      4F4C1457 
 370      187FBFF7 
ARM GAS  /tmp/cc2EPMER.s 			page 29


 370      66D9D905 
 370      8CF7
 371 0012 6E520E25 		.ascii	"nR\016%\326\244eZ{h\032\323K\357&M=x\351\245YIh\322"
 371      D6A4655A 
 371      7B681AD3 
 371      4BEF264D 
 371      3D78E9A5 
 372 002a 28856D7A 		.ascii	"(\205mz\350\201\307\302\264R\033kC0\"\032MZ\202\255"
 372      E881C7C2 
 372      B4521B6B 
 372      4330221A 
 372      4D5A82AD 
 373 003e 554069EB 		.ascii	"U@i\353\322V\306\025\213\265\250]\320\376\243QD\240"
 373      D256C615 
 373      8BB5A85D 
 373      D0FEA351 
 373      44A0
 374 0050 D5F60071 		.ascii	"\325\366\000q\2111\272\254\337\367f@aW\"\223\335\354"
 374      8931BAAC 
 374      DFF76640 
 374      61572293 
 374      DDEC
 375 0062 CECCF7BE 		.ascii	"\316\314\367\276\337\237\357\367\236% \370\262\302B"
 375      DF9FEFF7 
 375      9E2520F8 
 375      B2C242
 376 0071 6CA6DFA7 		.ascii	"l\246\337\247\350\013% w_\024\242\321\226\000\377\321"
 376      E80B2520 
 376      775F14A2 
 376      D19600FF 
 376      D1
 377 0082 36448344 		.ascii	"6D\203D\003\346dN\"\375\321tJ\256\357\322t\215w\036"
 377      03E6644E 
 377      22FDD174 
 377      4AAEEFD2 
 377      748D771E 
 378 0096 DFA00F7B 		.ascii	"\337\240\017{p\225\020yi:\011ta=U]\277\231\277V\252"
 378      70951079 
 378      693A0974 
 378      613D555D 
 378      BF99BF56 
 379 00ab 9E86A0FF 		.ascii	"\236\206\240\377\207\346\272\333B\353:\265Nj}\357M\255"
 379      87E6BADB 
 379      42EB3AB5 
 379      4E6A7DEF 
 379      4DAD
 380 00bd 5C051C86 		.ascii	"\\\005\034\206\242\025x)\206\027b\202\036\010|\211u"
 380      A2157829 
 380      86176282 
 380      1E087C89 
 380      75
 381 00ce 5C9C69EE 		.ascii	"\\\234i\356\331\257\262\322U\022\026\335\316^\330wc"
 381      D9AFB2D2 
 381      551216DD 
 381      CE5ED877 
 381      63
 382 00df 0DDF2A54 		.ascii	"\015\337*T\320\355\375\216O\323\266z\326\264\275=6\235"
ARM GAS  /tmp/cc2EPMER.s 			page 30


 382      D0EDFD8E 
 382      4FD3B67A 
 382      D6B4BD3D 
 382      369D
 383 00f1 B22B3FE7 		.ascii	"\262+?\347\266^\333\350\232v\3555W\270\312\302\327~"
 383      B65EDBE8 
 383      9A76ED35 
 383      57B8CAC2 
 383      D77E
 384 0103 EB2388E1 		.ascii	"\353#\210\341+\304\014)\252\236\350\235o+/if\332\025"
 384      2BC40C29 
 384      AA9EE89D 
 384      6F2B2F69 
 384      66DA15
 385 0116 388A4A9F 		.ascii	"8\212J\2370\216\241\204,\220\374\204\212\006\247\356"
 385      308EA184 
 385      2C90FC84 
 385      8A06A7EE 
 386 0126 8F94AAE7 		.ascii	"\217\224\252\347L\373\306#\035\373\313\374\366\343\247"
 386      4CFBC623 
 386      1DFBCBFC 
 386      F6E3A7
 387 0135 729B3E6B 		.ascii	"r\233>k\322\347\264\305\375\273\013\373\243\007\225"
 387      D2E7B4C5 
 387      FDBB0BFB 
 387      A30795
 388 0144 DD6F783A 		.ascii	"\335ox:\237o\"S6d[\376\353B\031\325PW\322J\312\"\246"
 388      9F6F2253 
 388      36645BFE 
 388      EB4219D5 
 388      5057D24A 
 389 015b 244A4A2D 		.ascii	"$JJ-!f\010\231}\235\225\222\177\3254\222\375\275S\227"
 389      21660899 
 389      7D9D9592 
 389      7FD53492 
 389      FDBD5397 
 390 016f 15936952 		.ascii	"\025\223iR\354\361\0367})\314\252C\206J*\365\377X\270"
 390      ECF11E37 
 390      7D29CCAA 
 390      43864A2A 
 390      F5FF58B8 
 391 0183 21A77768 		.ascii	"!\247wh\275\226\236\265(_\322\255\341+\203\321\2038"
 391      BD969EB5 
 391      285FD2AD 
 391      E12B83D1 
 391      8338
 392 0195 D0A8CDF3 		.ascii	"\320\250\315\363\022\034\247\031\3652%z\271\353dO\213"
 392      121CA719 
 392      F532257A 
 392      B9EB644F 
 392      8B
 393 01a6 ED1C65BD 		.ascii	"\355\034e\275z\213\253\3028\201\203\230\227\201\033"
 393      7A8BABC2 
 393      38818398 
 393      97811B
 394 01b5 673FC97C 		.ascii	"g?\311|a;\317\263\234>8\363\222c\200o\340\210\011$\365"
 394      613BCFB3 
ARM GAS  /tmp/cc2EPMER.s 			page 31


 394      9C3E38F3 
 394      9263806F 
 394      E0880924 
 395 01ca 46E30A71 		.ascii	"F\343\012q'2\202\310\355\233\375g\322\220{\224\231e"
 395      273282C8 
 395      ED9BFD67 
 395      D2907B94 
 395      9965
 396 01dc 98DD193A 		.ascii	"\230\335\031:\277\243,\240\240\313]e\323\022|\033P\350"
 396      BFA32CA0 
 396      A0CB5D65 
 396      D3127C1B 
 396      50E8
 397 01ee 9C4C1E0B 		.ascii	"\234L\036\0133\010\360\235\0017\216\237\204\323\244"
 397      3308F09D 
 397      01378E9F 
 397      84D3A4
 398 01fd 94017A35 		.ascii	"\224\001z5h\372w\307\325\371\210z\335t<\343\236N\206"
 398      68FA77C7 
 398      D5F9887A 
 398      DD743CE3 
 398      9E4E86
 399 0210 83A9B6B6 		.ascii	"\203\251\266\266\252`\252\021\244\212\270\336o\206\366"
 399      AA60AA11 
 399      A48AB8DE 
 399      6F86F6
 400 021f A4EE7C5F 		.ascii	"\244\356|_\334\035/\323\372\014\373\363C\241?\276{\007"
 400      DC1D2FD3 
 400      FA0CFBF3 
 400      43A13FBE 
 400      7B07
 401 0231 28DF51FC 		.ascii	"(\337Q\374\3106\005\255o\346\3344|D\3752\223;\005\207"
 401      C83605AD 
 401      6FE6DC34 
 401      7C44FD32 
 401      933B0587 
 402 0245 A5080CA0 		.ascii	"\245\010\014\240\201\035\353\277\333=p\"\2614u\336\316"
 402      811DEBBF 
 402      DB3D7022 
 402      B13475DE 
 402      CE
 403 0256 6C1FC09C 		.ascii	"l\037\300\234M\352\362\022\005\261\354\341w\036\365"
 403      4DEAF212 
 403      05B1ECE1 
 403      771EF5
 404 0265 1138CD51 		.ascii	"\0218\315Q\210<jxd\025Q\210\342\014\211M\027\212\035"
 404      883C6A78 
 404      64155188 
 404      E20C894D 
 404      178A1D
 405 0278 1FC86DCA 		.ascii	"\037\310m\312\204xz\203F\256\345\343\341\354\342\350"
 405      84787A83 
 405      46AEE5E3 
 405      E1ECE2E8 
 406 0288 09987910 		.ascii	"\011\230y\020\270\0212;\331\276\027>\233\350\262y\257"
 406      B811323B 
 406      D9BE173E 
ARM GAS  /tmp/cc2EPMER.s 			page 32


 406      9BE8B279 
 406      AF
 407 0299 35E38E2C 		.ascii	"5\343\216,\033\267\357\331\007\314\341'\003\021\362"
 407      1BB7EFD9 
 407      07CCE127 
 407      0311F2
 408 02a8 21A86074 		.ascii	"!\250`t\267\336\213\240\240\035Lb\210M]\340p\2168\020"
 408      B7DE8BA0 
 408      A01D4C62 
 408      884D5DE0 
 408      708E3810 
 409 02bc E49EEB31 		.ascii	"\344\236\3531\306[\205\326\237\213k\345<Z8\277D\347"
 409      C65B85D6 
 409      9F8B6BE5 
 409      3C5A38BF 
 409      44E7
 410 02ce 2F1CBEA8 		.ascii	"/\034\276\250\011u\357T{]\000T\250*ZT\325+\2146\274"
 410      0975EF54 
 410      7B5D0054 
 410      A82A5A54 
 410      D52B8C36 
 411 02e3 82AA2D8C 		.ascii	"\202\252-\214x\201E\225\004\200\027\341\254\"\242\227"
 411      78814595 
 411      048017E1 
 411      AC22A297 
 412 02f3 8A4774DC 		.ascii	"\212Gt\334\355\177\315\342\214\376\272rF3+etd!\243\243"
 412      ED7FCDE2 
 412      8CFEBA72 
 412      46332B65 
 412      746421A3 
 413 0308 94D10948 		.ascii	"\224\321\011H\263\3119\215\2137\034?\266f\344\343a\004"
 413      B3C9398D 
 413      8B371C3F 
 413      B666E4E3 
 413      6104
 414 031a 3BF34989 		.ascii	";\363I\211_~\314\311\023f\326W\036s\362\374\266x\362"
 414      5F7ECCC9 
 414      1366D657 
 414      1E73F2FC 
 414      B678F2
 415 032d FCCE6331 		.ascii	"\374\316c1\201\313\316d\233C\001\370\222\303\345EQ4"
 415      81CBCE64 
 415      9B4301F8 
 415      92C3E545 
 415      5134
 416 033f 6EE674F9 		.ascii	"n\346t\371\343\341\351\362\247\361\273op\350C\2337M"
 416      E3E1E9F2 
 416      A7F1BB6F 
 416      70E8439B 
 416      374D
 417 0351 29EDB8BF 		.ascii	")\355\270\277h\301\277p\275\333\243FU\341.*\313\363"
 417      68C1BF70 
 417      BDDBA346 
 417      55E12E2A 
 417      CBF3
 418 0363 5A8C912F 		.ascii	"Z\214\221/\004@'\230\253\312\305-$\275\271\315f\001"
 418      04402798 
ARM GAS  /tmp/cc2EPMER.s 			page 33


 418      ABCAC52D 
 418      24BDB9CD 
 418      6601
 419 0375 5F334494 		.ascii	"_3D\224\316j\252\213UU9\376g{\275S\227p\352\353\342"
 419      CE6AAA8B 
 419      555539FE 
 419      677BBD53 
 419      9770EAEB 
 420 038a 4EBCA63E 		.ascii	"N\274\246>^\263\265*.\354m\325\357\327'\336JT\253\355"
 420      5EB3B52A 
 420      2EEC6DD5 
 420      EFD727DE 
 420      4A54ABED 
 421 039e 895A99A8 		.ascii	"\211Z\231\250\255XV\374\366\266\370;\357m\255^XP#T\342"
 421      AD5856FC 
 421      F6B6F83B 
 421      EF6DAD5E 
 421      58502354 
 422 03b3 DDDA07C4 		.ascii	"\335\332\007\304H}\220"
 422      487D90
 423              		.text
 424              		.section	.gnu.lto_chSchGoSleepTimeoutS.5c3a872a074d49ef,"",%progbits
 425 0000 789C9554 		.ascii	"x\234\225T[L\\U\024=\373\234\373\032f\030PK\351\307"
 425      5B4C5C55 
 425      143DFB9C 
 425      FB1A6618 
 425      504BE9C7 
 426 0014 C4F2D360 		.ascii	"\304\362\323`\033eH\032\023bb\364\333O\223\246_~\230"
 426      1B65481A 
 426      136262F4 
 426      DB4F93A6 
 426      5F7E98
 427 0027 E92434D1 		.ascii	"\351$4\321\266)\003\375j\34603\227\202\032\202b\265"
 427      B62903FD 
 427      6AE63033 
 427      97821A82 
 427      62B5
 428 0039 880DA44A 		.ascii	"\210\015\244J\241\266\024\250m)\325\342\025\246\322"
 428      A1B614A8 
 428      6D29D5E2 
 428      15A6D2
 429 0048 077D90C6 		.ascii	"\007}\220\306\020\241\206\207\200\332\370\350\230\022"
 429      10A18687 
 429      80DAF8E8 
 429      9812
 430 0056 6311AE7B 		.ascii	"c\021\256{\237;`\251\360\341\311\314\275\347\261\367"
 430      9F3B60A9 
 430      F0E1C9CC 
 430      BDE7B1F7 
 431 0066 5E6BEFBD 		.ascii	"^k\357\275\316\325\0300\032\275:c;\360\275\023\377`"
 431      CED51830 
 431      1ABD3A63 
 431      3BF0BD13 
 431      FF60
 432 0078 31E00D37 		.ascii	"1\340\0157\031\253\2668\027-eL\346\030\231\002&\003"
 432      19ABB638 
 432      172D654C 
ARM GAS  /tmp/cc2EPMER.s 			page 34


 432      E6189902 
 432      2603
 433 008a 826BCD2F 		.ascii	"\202k\315/\342J\237\317\307\225\006\272g\244\203\351"
 433      E24A9FCF 
 433      C79506BA 
 433      67A483E9 
 434 009a 4D8CE589 		.ascii	"M\214\345\211\011@\023i\001\213s\241\351\206\011q\230"
 434      09401369 
 434      018B73A1 
 434      E9860971 
 434      98
 435 00ab E78B1C46 		.ascii	"\347\213\034FR\335\037\213\007\334\026\0144\\fn|\364"
 435      52DD1F8B 
 435      07DC160C 
 435      345C666E 
 435      7CF4
 436 00bd 43909600 		.ascii	"C\220\226\000E\270\234\351\253\371U\333\332.qL\316."
 436      45B89CE9 
 436      ABF955DB 
 436      DA2E714C 
 436      CE2E
 437 00cf BCD0D4E1 		.ascii	"\274\320\324\341h\266\340\314\345\014: \004\355\020"
 437      68B6E0CC 
 437      E50C3A20 
 437      04ED10
 438 00de 227A2760 		.ascii	"\"z'`+\332N\375\354N\370\305f`8o\235\357:\254\027\267"
 438      2BDA4EFD 
 438      EC4EF8C5 
 438      6660386F 
 438      9DEF3AAC 
 439 00f4 499990B2 		.ascii	"I\231\220\262\3715)l!\3403\020\344\267=\004\245!\206"
 439      F935296C 
 439      21E03310 
 439      E4B73D04 
 439      A52186
 440 0107 1B0C4E42 		.ascii	"\033\014NB1\332\336\255\177\1776(\236Q~\177\364\377"
 440      31DADEAD 
 440      7F7F3628 
 440      9E517E7F 
 440      F4FF
 441 0119 566365FD 		.ascii	"Vce\375\026\242\322g\013\015Ny~\313x\270\305\240\023"
 441      16A2D267 
 441      0B0D4E79 
 441      7ECB78B8 
 441      C5A013
 442 012c 8AC97CBA 		.ascii	"\212\311|\272g\351p\256\221\"zED\012\271\234\006\003"
 442      67E970AE 
 442      91227A45 
 442      440AB99C 
 442      0603
 443 013e 0B0894CA 		.ascii	"\013\010\224\312\337G{}^f\033p\2718\321\320`z\231\265"
 443      DF477B7D 
 443      5E661B70 
 443      B938D1D0 
 443      607A99B5 
 444 0152 D2F18374 		.ascii	"\322\361\203tf\301'J\025\354\221\331\267\322\326\226"
 444      66C1274A 
ARM GAS  /tmp/cc2EPMER.s 			page 35


 444      15EC91D9 
 444      B7D2D696 
 445 0162 4FA423A5 		.ascii	"O\244#\245\363\327\350\306j\351\244\212l\241C\217\007"
 445      F3D7E8C6 
 445      6AE9A48A 
 445      6CA1438F 
 445      07
 446 0173 DD8DD05D 		.ascii	"\335\215\320]*U\214|\006\266t\275\352H\327MJg\242\260"
 446      2A558C7C 
 446      06B674BD 
 446      EA48D74D 
 446      4A67A2B0 
 447 0187 3EF9E359 		.ascii	">\371\343Y\310\303\230\310HGnXXJ+@\323\\|\360 >L\306"
 447      C8C398C8 
 447      48476E58 
 447      584A2B40 
 447      D35C7CF0 
 448 019f EE2339EA 		.ascii	"\356#9\352@\206sz\213)H\215'\177\3572\210oR\010\344"
 448      4086737A 
 448      8B29488D 
 448      277FEF32 
 448      886F5208 
 449 01b4 F0FD9513 		.ascii	"\360\375\225\023'U#,pq\344\301\347Y\304\014\027\254"
 449      2755232C 
 449      7071E4C1 
 449      E759C40C 
 449      17AC
 450 01c6 A54CCC41 		.ascii	"\245L\314A\342b\217;\353{,m\342\243\262Fjg)\226\216"
 450      E2628F3B 
 450      EB7B2C6D 
 450      E2A3B246 
 450      6A672996 
 451 01db 061FD803 		.ascii	"\006\037\330\003\267T\256>\225^_\337/\343f|Q\326J\231"
 451      B754AE3E 
 451      955E5FDF 
 451      2FE3667C 
 451      51D64A99 
 452 01ef 8F7B7502 		.ascii	"\217{u\002\243\342\366\275\341o\3239-p\264Z\252\375"
 452      A3E2F6BD 
 452      E16FD339 
 452      2D70B45A 
 452      AAFD
 453 0201 1C388FA2 		.ascii	"\0348\217\2428G\250xX\177\241\273\316\012?g\013?\364"
 453      3847A878 
 453      587FA1BB 
 453      CE0A3F67 
 453      0B3FF4
 454 0214 420B2C51 		.ascii	"B\013,Qqi\377\362;#\237\252}\003.@x\211\223Z\241\017"
 454      7169FFF2 
 454      3B239FAA 
 454      7D032E40 
 454      7889935A 
 455 022a C2EC2738 		.ascii	"\302\354'8$\375D\341\277\210\001\227\314\340\"\304\351"
 455      24FD44E1 
 455      BF880197 
 455      CCE022C4 
 455      E9
ARM GAS  /tmp/cc2EPMER.s 			page 36


 456 023b AC73C8FD 		.ascii	"\254s\310\375\320\212\037\264E.qW\036\360\005\304\275"
 456      D08A1FB4 
 456      452E7157 
 456      1EF005C4 
 456      BD
 457 024c 2A2C3B5A 		.ascii	"*,;Z\266\010\272\234{\247_\322\251n\213<\004I9K\205"
 457      B608BA9C 
 457      7BA75FD2 
 457      A96E8B3C 
 457      0449394B 
 458 0261 6BA3E4BB 		.ascii	"k\243\344\273X(\006\227\020%)L[<\301\260d\017_\301E"
 458      58280697 
 458      1025294C 
 458      5B3CC1B0 
 458      640F5FC1 
 459 0276 106D9383 		.ascii	"\020m\223\203\337\365XT\222'!\260BbQz\251+&*\275\344"
 459      DFF55854 
 459      922721B0 
 459      4262517A 
 459      A92B262A 
 460 028c 9D87AE3F 		.ascii	"\235\207\256?[\023\347\3351\352\243\011_a]\372Q\003"
 460      5B13E7DD 
 460      31EAA309 
 460      5F615DFA 
 460      5103
 461 029e 8A8C83D5 		.ascii	"\212\214\203\325`\323\240\250\241\303\350\261\376\306"
 461      60D3A0A8 
 461      A1C3E8B1 
 461      FEC6
 462 02ac E0B60E0A 		.ascii	"\340\266\016\012\344\270sVS+2\177\212y\003\276\206m"
 462      E4B87356 
 462      532B327F 
 462      8A7903BE 
 462      866D
 463 02be ABB128E4 		.ascii	"\253\261(\344\252\304\007\220\3554$\362\011\273}fn\324"
 463      AAC40790 
 463      ED3424F2 
 463      09BB7D66 
 463      6ED4
 464 02d0 14DB55CB 		.ascii	"\024\333U\313n\217\037j\364\243\"\361\"LN\264m>uF\312"
 464      6E8F1F6A 
 464      F4A322F1 
 464      224C4EB4 
 464      6D3E7546 
 465 02e5 BA973132 		.ascii	"\272\22712\014\256\276\015\012&\215\321\020\212\221"
 465      0CAEBE0D 
 465      0A268DD1 
 465      108A91
 466 02f4 A806DF4E 		.ascii	"\250\006\337N\327\010O\011\301G\225\260\001\030\\^Q"
 466      D7084F09 
 466      C14795B0 
 466      01185C5E 
 466      51
 467 0305 94C66A9F 		.ascii	"\224\306j\237\025T\314\3061\261v5\013\\4b\360\315\372"
 467      1554CCC6 
 467      31B17635 
 467      0B5C3462 
ARM GAS  /tmp/cc2EPMER.s 			page 37


 467      F0CDFA
 468 0318 3D1B82B8 		.ascii	"=\033\202\270-6\252p\272'\320\201\273:\035\221\011\372"
 468      2D36AA70 
 468      BA27D081 
 468      BB3A1D91 
 468      09FA
 469 032a 344D3AEF 		.ascii	"4M:\357\351e\347e-\340Ubp\005\312\224\255\3012\005\012"
 469      E965E765 
 469      2DE05562 
 469      7005CA94 
 469      ADC13205 
 470 033f BA798C2B 		.ascii	"\272y\214+\335\256\327\310\253\3776\222\374Luo\324-"
 470      DDAED7C8 
 470      ABFF3692 
 470      FC4C756F 
 470      D42D
 471 0351 183E2EBC 		.ascii	"\030>.\274{\023\370\037\342\276\266\266\270\257\257"
 471      7B13F81F 
 471      E2BEB6B6 
 471      B8AFAF
 472 0360 23EEE115 		.ascii	"#\356\341\025q\337@q\023,x\230\271\217V\325P\315\372"
 472      71DF4071 
 472      132C7898 
 472      B98F56D5 
 472      50CDFA
 473 0373 73E85A6D 		.ascii	"s\350Zm \213%_B\311\024\"5\270\231\005k\233I\2346)\350"
 473      208B255F 
 473      42C91422 
 473      35B89905 
 473      6B9B499C 
 474 038a 26B8A5C0 		.ascii	"&\270\245\300\270\007v\247A\036\201p'\371\310\035\370"
 474      B80776A7 
 474      411E8170 
 474      27F9C81D 
 474      F8
 475 039b A580DB04 		.ascii	"\245\200\333\004I\364a\004!\357AB>\237\205$z\367\221"
 475      49F46104 
 475      21EF4142 
 475      3E9F8524 
 475      7AF791
 476 03ae 0D56009D 		.ascii	"\015V\000\235C%%a\357\267\267\"\274?\026\256\330\037"
 476      43252561 
 476      EFB7B722 
 476      BC3F16AE 
 476      D81F
 477 03c0 0947CA2B 		.ascii	"\011G\312+\"\345\273J\"\314\332\023=P\021{=\0265c\273"
 477      22E5BB4A 
 477      22CCDA13 
 477      3D50117B 
 477      3D163563 
 478 03d5 DF8CEEAD 		.ascii	"\337\214\356\255\214\361\252\230\250\212\355{\3721\247"
 478      8CF1AA98 
 478      A88AED7B 
 478      FA31A7
 479 03e4 DD7B226F 		.ascii	"\335{\"oT\356\212\242cU\254\244\234\375\003\233\213"
 479      54EE8AA2 
 479      6355ACA4 
ARM GAS  /tmp/cc2EPMER.s 			page 38


 479      9CFD039B 
 479      8B
 480 03f5 0F18     		.ascii	"\017\030"
 481              		.text
 482              		.section	.gnu.lto_chSchWakeupS.5c3a872a074d49ef,"",%progbits
 483 0000 789C9D57 		.ascii	"x\234\235W[lTE\030\236\177fw\317\331K\267\333\322\204"
 483      5B6C5445 
 483      189E7F66 
 483      77CFD94B 
 483      B7DBD284 
 484 0014 481A2131 		.ascii	"H\032!1\244!\306\256\204'\342\023o>\353\0031>hR\214"
 484      A421C6AE 
 484      8427E213 
 484      6F3EEB03 
 484      313E6852 
 485 0029 3CA854DA 		.ascii	"<\250T\3327\037\366\264\273\013\255\022!\221V[0\304"
 485      371FF6B4 
 485      BB0BAD12 
 485      2191565B 
 485      30C4
 486 003b 2837B9F4 		.ascii	"(7\271\364\206@Qd-\205*\026*\024(RAh\331\226K\201.\224"
 486      86405164 
 486      2D852A16 
 486      2A142852 
 486      4168D996 
 487 0053 4BED65FD 		.ascii	"K\355e\375\377\231\263\335Szv[8iww\346\314\374\337\367"
 487      FF99B3DD 
 487      537A765B 
 487      38697777 
 487      E6CCFCDF 
 488 0068 7FF3CF77 		.ascii	"\177\363\317w\3468\0300\272\336\314e\354u\374\336\214"
 488      E6381830 
 488      BADECC65 
 488      EC75FCDE 
 488      8C
 489 0079 FFE063C0 		.ascii	"\377\340c\3007\235a\254B\347\\T\0251\303\343\242O\237"
 489      379D61AC 
 489      42E75C54 
 489      1531C3E3 
 489      A24F9F
 490 008c 0087EA76 		.ascii	"\000\207\352vp\317\206\016\206\375\316\210\206\375\036"
 490      70CF860E 
 490      86FDCE88 
 490      86FD1E
 491 009b D5BFC209 		.ascii	"\325\277\302\011nu\337\005\232\372\241q\257\032\250"
 491      6E75DF05 
 491      9AFAA171 
 491      AF1AA8
 492 00aa CB815ED5 		.ascii	"\313\201^\325\277BO\015t\003\320\017C\007\026\342\302"
 492      BF424F0D 
 492      7403D00F 
 492      430716E2 
 492      C2
 493 00bb E171BA34 		.ascii	"\341q\2724/v\206\204\203\251K3\277\037\361\011\016m"
 493      2F768684 
 493      83A94B33 
 493      BF1FF109 
ARM GAS  /tmp/cc2EPMER.s 			page 39


 493      0E6D
 494 00cd EB075AF9 		.ascii	"\353\007Z\371\222\235\006^\327\242\015\313\214]1\210"
 494      929D065E 
 494      D7A20DCB 
 494      8C5D3188 
 495 00dd 0AC6925C 		.ascii	"\012\306\222\\\215\201\235\260\004G\235\2154n\025#<"
 495      8D819DB0 
 495      04479D8D 
 495      346E1523 
 495      3C
 496 00ee 2A001CD8 		.ascii	"*\000\034\330L\234\256\357\367S\223\303\"l^:\277\177"
 496      4C9CAEEF 
 496      F75393C3 
 496      226C5E3A 
 496      BF7F
 497 0100 B7572C04 		.ascii	"\267W,\004\206\277#\235{\303\276\242\355\206Qi\030c"
 497      86BF239D 
 497      7BC3BEA2 
 497      ED865169 
 497      1863
 498 0112 AB0C7754 		.ascii	"\253\014wT\010\370\021\004\306\203\335P\010\273\240"
 498      08F81104 
 498      C683DD50 
 498      08BBA0
 499 0121 90611783 		.ascii	"\220a\027\203=P\204\243;\033[{\034\342\0259s\363\235"
 499      3D5084A3 
 499      3B1B5B7B 
 499      1CE21539 
 499      73F39D
 500 0134 C14BB934 		.ascii	"\301K\2714\023\257\246\017h\246\003\366>;\323\301`\037"
 500      13AFA60F 
 500      68A603F6 
 500      3E3BD3C1 
 500      601F
 501 0146 14D1F0F1 		.ascii	"\024\321\360\361-\033\333tQ$\247>\354\035h\325\027\177"
 501      2D1BDB74 
 501      5124A73E 
 501      EC1D68D5 
 501      177F
 502 0158 4FA0B1B1 		.ascii	"O\240\261\261\313\376:#\026YD\300\373\247O\247\013G"
 502      CBFE3A23 
 502      165944C0 
 502      FBA74FA7 
 502      0B47
 503 016a F7354DD6 		.ascii	"\3675M\326\344\270\"\204\263\010\032`qu*_h\004\027."
 503      E4B82284 
 503      B3081A60 
 503      71752A5F 
 503      6804172E 
 504 017e 9DA04E1C 		.ascii	"\235\240N\034\327=X{T\027\257J\204\232\373'k\300Dx|"
 504      D73D587B 
 504      5417AF4A 
 504      849AFB27 
 504      6BC04478 
 505 0193 C6676CAA 		.ascii	"\306gl\252\320\011\240i&\0004\313\311\226\011F\263a"
 505      D009A069 
 505      260034CB 
ARM GAS  /tmp/cc2EPMER.s 			page 40


 505      C9960946 
 505      B361
 506 01a5 80226437 		.ascii	"\200\"d7\276\005\0267\274\0253\222\311\260\021\033]"
 506      BE051637 
 506      BC153392 
 506      C9B0111B 
 506      5D
 507 01b6 70E5E931 		.ascii	"p\345\3511\357\313\250\017Rp\000\251\344\004\312X\303"
 507      EFCBA80F 
 507      527000A9 
 507      E404CA58 
 507      C3
 508 01c7 DC9D3A7D 		.ascii	"\334\235:}\270\345\014\277\304\311\225\237\001\352\316"
 508      B8E50CBF 
 508      C4C9959F 
 508      01EACE
 509 01d6 2359F3E5 		.ascii	"#Y\363\345\275y\324.\2202\263a\314\253\312\317\022\234"
 509      BD79D42E 
 509      9032B361 
 509      CCABCACF 
 509      129C
 510 01e8 E3971880 		.ascii	"\343\227\030\200\312#\211\253\027\005%\032\026\002i"
 510      CA2389AB 
 510      1705251A 
 510      160269
 511 01f7 D646DBBA 		.ascii	"\326F\333\2724ZI\227L\263\265u\250W\013M\030U\206\021"
 511      345A4997 
 511      4CB3B575 
 511      A8570B4D 
 511      18558611 
 512 020b C0BE6A01 		.ascii	"\300\276j\001R\261\333\235\027\332=\333\340\333\012"
 512      52B1DB9D 
 512      17DA3DDB 
 512      E0DB0A
 513 021a 43F66BF0 		.ascii	"C\366k\360\023\204\340\000%\2007\277<\334X\255\007\367"
 513      1384E000 
 513      258037BF 
 513      3CDC58AD 
 513      07F7
 514 022c C9755B19 		.ascii	"\311u[\031\025:\034\204m0\311M\261Ol8\373\203\036|\215"
 514      153A1C84 
 514      6D30C94D 
 514      B14F6C38 
 514      FB831E7C 
 515 0241 923F04C1 		.ascii	"\222?\004\301IN[\003\016C\220\365A\245\361\206T\034"
 515      494E5B03 
 515      0E4390F5 
 515      41A5F186 
 515      541C
 516 0253 5345320C 		.ascii	"SE2\014\311\325'\006k\235\324ge&$\263'\035\247\252|"
 516      C9D52706 
 516      6B9DD467 
 516      652624B3 
 516      271DA7AA 
 517 0268 26052327 		.ascii	"&\005#'*\334a,\217V\223\302\366\033\225\3735\002\361"
 517      2ADC612C 
 517      8F5693C2 
ARM GAS  /tmp/cc2EPMER.s 			page 41


 517      F61B95FB 
 517      3502F1
 518 027b C01109CE 		.ascii	"\300\021\011\316\025x\367&\343\0330\251-\243z\372\231"
 518      1578F726 
 518      E31B30A9 
 518      2DA37AFA 
 518      99
 519 028c 2808A2F0 		.ascii	"(\010\242\360\013\004\303\302\311\244\"\367v\230\212"
 519      0B04C3C2 
 519      C9A422F7 
 519      76988A
 520 029b 681620C8 		.ascii	"h\026 \310\204\341\205\243\022\203\266\023\374\212\231"
 520      84E185A3 
 520      1283B613 
 520      FC8A99
 521 02aa 508CEBF3 		.ascii	"P\214\353\363U\004}F\004a\027\341X:B\014#\\\207HWx\201"
 521      55047D46 
 521      046117E1 
 521      583A420C 
 521      235C8748 
 522 02c1 C90183C8 		.ascii	"\311\001\203\310\302H \321\210&P\247\000\315n\217\217"
 522      C24820D1 
 522      882650A7 
 522      00CD6E8F 
 522      8F
 523 02d2 9FF38A62 		.ascii	"\237\363\212b)F\305\236-[}f5>\275<U\215\277\331TW\033"
 523      2946C59E 
 523      2D5B7D66 
 523      353EBD3C 
 523      558DBFD9 
 524 02e9 89EB208E 		.ascii	"\211\353 \216#\303\361n1\275\374\215\261\203N\032!+"
 524      23C3F16E 
 524      31BDFC8D 
 524      B1834E1A 
 524      212B
 525 02fb 3FC961C6 		.ascii	"?\311a\306\356h\246{\307\301\205\201\332\345\252X\227"
 525      EE68A67B 
 525      C7C18581 
 525      DAE5AA58 
 525      97
 526 030c 2160AB90 		.ascii	"!`\253\220T;V\233\033\025>8!\323t\252\020p\022\2028"
 526      543B569B 
 526      1B153E38 
 526      21D374AA 
 526      10701282 
 527 0321 AA61A875 		.ascii	"\252a\250u4\207\3265\007\030t\340TL0V\267Q\020\200\271"
 527      3487D635 
 527      071874E0 
 527      544C3056 
 527      B7511080 
 528 0336 77E65A85 		.ascii	"w\346Z\205\277g\250\302\367\250\012\3770\253PbO\025"
 528      BF67A8C2 
 528      F7A80AFF 
 528      30AB5062 
 528      4F15
 529 0348 A21AF059 		.ascii	"\242\032\360YT\370\341\024\325\202k\352\376\255\211"
 529      54F8E114 
ARM GAS  /tmp/cc2EPMER.s 			page 42


 529      D5826BEA 
 529      FEAD89
 530 0357 681B2850 		.ascii	"h\033(P\343\235\250\310\205?!\250xwBH.\207\203\241\257"
 530      E39DA8C8 
 530      853F21A8 
 530      78774248 
 530      2E8783A1 
 531 036c AAF520A2 		.ascii	"\252\365 \242a\341\227K\3374\030\226\344\303\"\327V"
 531      61E1974B 
 531      DF341896 
 531      E4C322D7 
 531      56
 532 037d 20BF9D40 		.ascii	" \277\235@\306r\242pZr\324\2468X\353u%\255\350\031\342"
 532      C672A270 
 532      5A72D4A6 
 532      3858EB75 
 532      25ADE819 
 533 0392 A89BFA75 		.ascii	"\250\233\372u\231\273fiJ*DT\005<\330o2\010\3302\310"
 533      99BB6669 
 533      4A2A4454 
 533      053CD86F 
 533      3208D832 
 534 03a7 B52BC1BF 		.ascii	"\265+\301\277\314\022T\261\317\246\252\320\257\002a"
 534      CC1254B1 
 534      CFA6AAD0 
 534      AF0261
 535 03b6 1506A87E 		.ascii	"\025\006\250~\036\200\037\247\365T\364\364\231\274b"
 535      1E801FA7 
 535      F554F4F4 
 535      99BC62
 536 03c5 755DF351 		.ascii	"u]\363Q^\\\023\253\270\315\247\353\266\370\255\342\236"
 536      5E5C13AB 
 536      B8CDA7EB 
 536      B6F8ADE2 
 536      9E
 537 03d6 9B2EEEB9 		.ascii	"\233.\356\271\256\035\037Y\265\355Ni{\036\237K\253\221"
 537      AE1D1F59 
 537      B5ED4E69 
 537      7B1E9F4B 
 537      AB91
 538 03e8 A16768F4 		.ascii	"\241gh\364}4+\017\303G\033$\260d\260\3621\265\332\304"
 538      7D342B0F 
 538      C3471B24 
 538      B064B0F2 
 538      31B5DAC4 
 539 03fc 50BFF67C 		.ascii	"P\277\366|\245gx\011\377B\026e\227\223\262\027\255\312"
 539      A5677809 
 539      FF421665 
 539      9793B217 
 539      ADCA
 540 040e F6901928 		.ascii	"\366\220\031(-\233\356~\345U\022\344\315IK\025\262\006"
 540      2D9BEE7E 
 540      E55512E4 
 540      CD494B15 
 540      B206
 541 0420 08F45216 		.ascii	"\010\364R\026\320\026 \324\277\011\325m\242^V\336Q\373"
 541      D01620D4 
ARM GAS  /tmp/cc2EPMER.s 			page 43


 541      BF09D56D 
 541      A25E56DE 
 541      51FB
 542 0432 DDC217C9 		.ascii	"\335\302\027\311\260w\266\014\377\261b]\241\014\363"
 542      B077B60C 
 542      FFB1625D 
 542      A10CF3
 543 0441 94C7DECD 		.ascii	"\224\307\336\315\"i\236-\340\333\004x5\013\340\247\004"
 543      22699E2D 
 543      E0DB0478 
 543      350BE0A7 
 543      04
 544 0452 F8AF55D2 		.ascii	"\370\257U\322k\004(}\247\276\351^\026@{=e\206\327g\313"
 544      6B04287D 
 544      A7BEE95E 
 544      16407B3D 
 544      6586D767 
 545 0467 B0CF9A61 		.ascii	"\260\317\232a\277\002\244\215\352\262\372\246\325+G"
 545      BF02A48D 
 545      EAB2FAA6 
 545      D52B47
 546 0476 EBC5D4D9 		.ascii	"\353\305\324\331\300\316,oL=\211\354\314r\347\241\227"
 546      C0CE2C6F 
 546      4C3D89EC 
 546      CC72E7A1 
 546      97
 547 0487 684446B3 		.ascii	"hDF\263l\241{qi\226\003\031\262}\366a\240\266\324\327"
 547      6CA17B71 
 547      69960319 
 547      B27DF661 
 547      A0B6D4D7 
 548 049b 5D9CDC72 		.ascii	"]\234\334r0\345\226\024\003n\342\026\261\332#\206$\204"
 548      30E59614 
 548      036EE216 
 548      B1DA2386 
 548      2484
 549 04ad E7B0C75B 		.ascii	"\347\260\307[\331\354\361v\312\036\343\031\354\361\216"
 549      D9ECF176 
 549      CA1EE319 
 549      ECF18E
 550 04bc B983E319 		.ascii	"\271\203\343\031\354q\010\371I\242wM{\324,\366\330B"
 550      EC7108F9 
 550      49A2774D 
 550      7BD42CF6 
 550      D842
 551 04ce 42BAD3F6 		.ascii	"B\272\323\3668@\033*\337V\022wf{\274\227*\200x\006{"
 551      38401B2A 
 551      DF561277 
 551      667BBC97 
 551      2A807806 
 552 04e3 BC6F569C 		.ascii	"\274oV\234\3441<e\217\246T\210\230\266G\311`\236-\203"
 552      E4313C65 
 552      8FA65488 
 552      98B647C9 
 552      609E2D83 
 553 04f7 7C3B7B4C 		.ascii	"|;{L\244\354Q\306~\220\266G\031H\307X\312\036\335Y\355"
 553      A4EC51C6 
ARM GAS  /tmp/cc2EPMER.s 			page 44


 553      7E90B647 
 553      1948C758 
 553      CA1EDD59 
 554 050c 319EC11E 		.ascii	"1\236\301\036\037N\027\367Y{\034Ii\373\010B.\264\307"
 554      1F4E17F7 
 554      597B1C49 
 554      69FB0842 
 554      2EB4C7
 555 051f 7CAFB247 		.ascii	"|\257\262G\257i\217\3724{|\256bS[\353q\026e\345\326"
 555      AF698FFA 
 555      347B7CAE 
 555      62535BEB 
 555      711665E5 
 556 0534 7A6255F6 		.ascii	"zbU\366)m\255\374\264=J\011\012\346\244\245\325\036"
 556      296DADFC 
 556      B43D4A09 
 556      0AE6A4A5 
 556      D51E
 557 0546 47B3802A 		.ascii	"G\263\200*{\374\317\334\320\022u,m\217/\220\341\370"
 557      7BFCCFDC 
 557      D012752C 
 557      6D8F2F90 
 557      E1F8
 558 0558 6C194E58 		.ascii	"l\031NX\261&)\303\202\264=f\002,\310l\217\311,\200\322"
 558      B12629C3 
 558      82B43D66 
 558      022CC86C 
 558      8FC92C80 
 559 056d 1E0D6E91 		.ascii	"\036\015n\221\264\202\007Sg^i\217\231\000\355\365\224"
 559      B4820753 
 559      675E698F 
 559      9900EDF5 
 559      94
 560 057e 1956F259 		.ascii	"\031V\362Y2\014sK\206\021\005Hn\322\335\353\223\347"
 560      320C734B 
 560      86110548 
 560      6ED2DDEB 
 560      93E7
 561 0590 6EF232EC 		.ascii	"n\3622\354\340\262\321bm4PC\2121~P\230\347\361\271\272"
 561      E0B2D162 
 561      6D345043 
 561      8A317E50 
 561      98E7F1B9 
 562 05a5 4E94DBBB 		.ascii	"N\224\333\273\216\227\\g\035\267\1775X\317S\257\006"
 562      8E975C67 
 562      1DB77F35 
 562      58CF53AF 
 562      06
 563 05b6 553CF5DC 		.ascii	"U<\365\334\030i\234X\227z\031\230v\372_\3122\035\315"
 563      18699C58 
 563      977A1998 
 563      76FA5FCA 
 563      321DCD
 564 05c9 7D50CD95 		.ascii	"}P\315\225\207b\244\3179\0357\017\264w\254\323\325q"
 564      8762A4CF 
 564      391D370F 
 564      B477ACD3 
ARM GAS  /tmp/cc2EPMER.s 			page 45


 564      D571
 565 05db 13E00B5E 		.ascii	"\023\340\013^\310nB46\326+\363\234\371\306\023H\322"
 565      C86E4234 
 565      36D62BF3 
 565      9CF9C613 
 565      48D2
 566 05ed AB036CE0 		.ascii	"\253\003l\340!\206\000(X\024\037\232dnnz}\272\215\342"
 566      21860028 
 566      58141F9A 
 566      646E6E7A 
 566      7DBA8DE2 
 567 0601 25DF9533 		.ascii	"%\337\2253\351\032F\306U~\034_X\\\034T\177k\312\202"
 567      E91A46C6 
 567      557E1C5F 
 567      585C1C54 
 567      7F6BCA82 
 568 0615 6BCB8365 		.ascii	"k\313\203ekK\202%\253\313JV\257*.a\342\223\362R\361"
 568      6B4B8225 
 568      ABCB4A56 
 568      AF2A2E61 
 568      E293F252 
 569 062a 71D98762 		.ascii	"q\331\207bMy)/)\345\345\245\377\003)\231(\014"
 569      4D79292F 
 569      29E5E5A5 
 569      FF032999 
 569      280C
 570              		.text
 571              		.section	.gnu.lto_chSchIsPreemptionRequired.5c3a872a074d49ef,"",%progbits
 572 0000 789C9592 		.ascii	"x\234\225\222\315k\023Q\024\305\337yo\222\214\261)\356"
 572      CD6B1351 
 572      14C5DF79 
 572      6F928CB1 
 572      29EE
 573 0012 0D1AC42C 		.ascii	"\015\032\304,\2620\243\255\340\337\241[\227q\321\235"
 573      B230A3AD 
 573      E0DFA15B 
 573      9771D19D 
 574 0022 A5719F97 		.ascii	"\245q\237\227\217\241-\224\032\020\225\212\322\205\225"
 574      8FA12D94 
 574      1A10958A 
 574      D28595
 575 0031 56AB6DE2 		.ascii	"V\253m\342gS\265\006Q\024k#]\010\202\213h\255\225\026"
 575      6753B506 
 575      51146B23 
 575      5D08828B 
 575      68AD9516 
 576 0045 21069480 		.ascii	"!\006\224\200\220\304{\337\244~\224l\034\022\346\275"
 576      90C47BDF 
 576      A47E946C 
 576      1C12E6BD 
 577 0055 93774FCE 		.ascii	"\223wO\316\357\314X\002\202\257\230\022\342 \335\367"
 577      EFCC5802 
 577      82AF9812 
 577      E220DDF7 
 578 0065 D2174A40 		.ascii	"\322\027J@\346+B\244m\011\360B\333\020)\211\024~\310"
 578      E62B42A4 
 578      6D09F042 
ARM GAS  /tmp/cc2EPMER.s 			page 46


 578      DB102989 
 578      147EC8
 579 0078 A6C472E3 		.ascii	"\246\304r\343\345X06\255uF\177\370\\\353\2778S\206K"
 579      E5583036 
 579      AD75467F 
 579      F85CEBBF 
 579      3853864B 
 580 008c E36D29D0 		.ascii	"\343m)\320\037\306\3410[L#&\350\350j\256pY}\227\256"
 580      1FC6E130 
 580      5B4C2326 
 580      E8E86AAE 
 580      70597D97 
 581 00a1 022CDAD6 		.ascii	"\002,\332\326W.}\352\345\255D\204\266g\227\307+A\265"
 581      572E7DEA 
 581      E5AD4484 
 581      B66797C7 
 581      2B41B5
 582 00b4 1F7C727C 		.ascii	"\037|r|\245\330\010E\257\262i\371\\54\241\313\271\210"
 582      A5D80845 
 582      AFB269F9 
 582      5C3534A1 
 582      CBB988
 583 00c7 AB146E40 		.ascii	"\253\024n@\261\361u\2041\203\260\311J\247\2476\227j"
 583      B1F17584 
 583      3183B0C9 
 583      4AA7A736 
 583      976A
 584 00d9 BDEA8099 		.ascii	"\275\352\200\231\254n>Y\332\236\314W{t>m\363\340\315"
 584      AC6E3E59 
 584      DA9ECC57 
 584      7B743E6D 
 584      F3E0CD
 585 00ec AE836BC5 		.ascii	"\256\203k\305\326\371\220?\247\351\212\340\026\242\230"
 585      D6F9903F 
 585      A7E98AE0 
 585      16A298
 586 00fb 45949353 		.ascii	"E\224\223S\3449\370\251\013\271\255\316\237(\353v;\253"
 586      E439F8A9 
 586      0BB9ADCE 
 586      9F28EB76 
 586      3BAB
 587 010d CBED7D95 		.ascii	"\313\355}\225w\215\335\001)\\eQ3\364\263\305K\237\340"
 587      778DDD01 
 587      295C6551 
 587      33F4B3C5 
 587      4B9FE0
 588 0120 537EC1E8 		.ascii	"S~\301\350\342\0339pQu)\371\2566\220Y,\256\017\373\330"
 588      E21B3970 
 588      517529F9 
 588      AE369059 
 588      2CAE0FFB 
 589 0135 34ABB8B4 		.ascii	"4\253\270\264\013\356\3237\001F\367\231\320\245\322"
 589      0BEED337 
 589      0146F799 
 589      D0A5D2
 590 0144 D7F78154 		.ascii	"\327\367\201TS\217h\275\207\264Q\345\305\333z\375\366"
 590      538F68BD 
ARM GAS  /tmp/cc2EPMER.s 			page 47


 590      87B451E5 
 590      C5DB7AFD 
 590      F6
 591 0155 59701257 		.ascii	"Yp\022W\322\332\350~\024\250\364y\216\317\025-\024F"
 591      D2DAE87E 
 591      14A8F479 
 591      8ECF152D 
 591      1446
 592 0167 6DE790AB 		.ascii	"m\347\220\253\002(b\022-\331az>\266:et\033\267\341\264"
 592      02286212 
 592      2DD9617A 
 592      3EB63A65 
 592      741BB7E1 
 593 017c 243CB9F6 		.ascii	"$<\271\366\345g\037\253\026\356\260j\030\357\302\021"
 593      E5671FAB 
 593      16EEB06A 
 593      18EFC211 
 594 018c 9CED63C8 		.ascii	"\234\355c\310K\246\376Nf\231d\215\027\257Fz:\021\364"
 594      4BA6FE4E 
 594      6699648D 
 594      17AF467A 
 594      3A11F4
 595 019f 71C2DB45 		.ascii	"q\302\333E\000\270\327\311pm=3\027`W\205\373&\003\007"
 595      00B8D7C9 
 595      706D3D33 
 595      17605785 
 595      FB260307 
 596 01b3 C703B25D 		.ascii	"\307\003\262]CF\0373%RC\344l\376\247\376\273\003\353"
 596      43461F33 
 596      255243E4 
 596      6CFEA7FE 
 596      BB03EB
 597 01c6 3FA017BA 		.ascii	"?\240\027\272C\227\272B[Xd<\213s<\334\201\347\333\311"
 597      4397BA42 
 597      5B58643C 
 597      8B733CDC 
 597      81E7DBC9 
 598 01da 73D2E3B1 		.ascii	"s\322\343\261\272\361<\372\303\363\370\037\236Y\346"
 598      BAF13CFA 
 598      C3F3F81F 
 598      9E59E6
 599 01e9 F19171B6 		.ascii	"\361\221q\2660\274\321<\352Ysy\254nAv\004a\336\003\360"
 599      30BCD13C 
 599      EA597379 
 599      AC6E4176 
 599      0461DE03 
 600 01fe F3A790E1 		.ascii	"\363\247\220\341x\334\361>\247\223\316\320\031'9\224"
 600      78DCF13E 
 600      A793CED0 
 600      19273994 
 601 020e 701203C9 		.ascii	"p\022\003\311\304\300\251xB\310\301>9x\344\027\305\037"
 601      C4C0A978 
 601      42C8C13E 
 601      3978E417 
 601      C51F
 602 0220 0E09     		.ascii	"\016\011"
 603              		.text
ARM GAS  /tmp/cc2EPMER.s 			page 48


 604              		.section	.gnu.lto_chSchDoRescheduleBehind.5c3a872a074d49ef,"",%progbits
 605 0000 789C9D57 		.ascii	"x\234\235W]l\024U\024\276g\356\376L\273\273\025\023"
 605      5D6C1455 
 605      14BE67EE 
 605      FE4CBBBB 
 605      1513
 606 0012 137DA8A1 		.ascii	"\023}\250\241\211b\302\203l\210\017JLL\214\211\017&"
 606      8962C283 
 606      6C880F4A 
 606      4C4C8C89 
 606      0F26
 607 0024 24461F88 		.ascii	"$F\037\210O\232\024\223\232\020ii}\362\241\267\335\256"
 607      4F9A1493 
 607      9A106969 
 607      7DF2A1B7 
 607      DDAE
 608 0036 82218231 		.ascii	"\202!\2021-,\2054\304\037P\240t)\012[D\226R(\362\323"
 608      2D2C8534 
 608      C41F50A0 
 608      74290A5B 
 608      44965228 
 609 004c D256AC05 		.ascii	"\322V\254\005\204v\333m\241\026\350B\241V\331]\317\271"
 609      8476DB6D 
 609      A116E842 
 609      A156D95D 
 609      CFB9
 610 005e F76E9DB2 		.ascii	"\367n\235\262\263K\353\244\235\351\314\334{\276\363"
 610      B34BEBA4 
 610      9DE9CCDC 
 610      7BBEF3
 611 006d 9DEFBBE7 		.ascii	"\235\357\273\347N\035\014\030\035\025^\306V\342\365"
 611      4E1D0C18 
 611      1D155EC6 
 611      56E2F5
 612 007c 75FC0517 		.ascii	"u\374\005\027\003cs\027c5\246\001\\\375\301\015\347"
 612      03637317 
 612      6335A601 
 612      5CFDC10D 
 612      E7
 613 008d C64EC644 		.ascii	"\306N\306D\241\243\316\315\204\327\251\236\277\352\000"
 613      A1A3CECD 
 613      84D7A99E 
 613      BFEA00
 614 009c A0AB3081 		.ascii	"\240\2530\201U\033\334\351\000<3u\3343\222\006\264\177"
 614      551BDCE9 
 614      003C3375 
 614      DC339206 
 614      B47F
 615 00ae 3A1A3196 		.ascii	":\0321\226\356\022x\014\306S/\210\335Q\010\342\200\264"
 615      EE12780C 
 615      C6532F88 
 615      DD5108E2 
 615      80B4
 616 00c0 A1C6C02E 		.ascii	"\241\306\300.X\312pXO]\313v>e\0049\200\003o\023\347"
 616      58CA7058 
 616      4F5DCB76 
 616      3E650439 
ARM GAS  /tmp/cc2EPMER.s 			page 49


 616      80036F13 
 617 00d5 B70D17D1 		.ascii	"\267\015\027\321\255\001%x\373\240qS\273\311\027\003"
 617      AD012578 
 617      FBA07153 
 617      BBC91703 
 618 00e5 8DBC7B79 		.ascii	"\215\274{y4b.\371J\210Z\021\235\271V\024\022\321\272"
 618      34622EF9 
 618      4A885A11 
 618      9DB95614 
 618      12D1BA
 619 00f8 9220E7F0 		.ascii	"\222 \347\360=p\014\012\337A1\354\206b\031\034G\307"
 619      3D700C0A 
 619      DF4131EC 
 619      8662191C 
 619      47C7
 620 010a C2A97A9F 		.ascii	"\302\251z\237\253\216\340K`\017,Q\300\260\027\\\310"
 620      AB8EE04B 
 620      600F2C51 
 620      C0B0175C 
 620      C8
 621 011b 9AD3131C 		.ascii	"\232\323\023\034\3247\326p\324\344\317\310\360\365\267"
 621      D437D670 
 621      D4E4CFC8 
 621      F0F5B7
 622 012a 4FD5830E 		.ascii	"O\325\203\016\177\277\313+6\327\230\024}_vth\226\223"
 622      7FBFCB2B 
 622      36D79814 
 622      7D5F7674 
 622      689693
 623 013d 3BE20F7A 		.ascii	";\342\017z=\37499\271fO\343v\257\232<x \271\362\213"
 623      3DFC3939 
 623      B9664FE3 
 623      76AF9A3C 
 623      7820B9F2 
 624 0152 80382D1C 		.ascii	"\2008-\0344}\277\315\364\026X\262\377\255\250H\247\003"
 624      347DBFCD 
 624      F41658B2 
 624      FFADA848 
 624      A703
 625 0164 5899573A 		.ascii	"X\231W:7\354:\371\370\0238\006Sr\311\227\246D(\220\347"
 625      37EC3AF9 
 625      F8133806 
 625      5372C997 
 625      A6442890 
 626 0179 4216E40E 		.ascii	"B\026\344\016\017\235\274x\342>:16\211\\P\214\204a\340"
 626      0F9DBC78 
 626      E23E3A31 
 626      36895C50 
 626      8C8461E0 
 627 018d 858F426D 		.ascii	"\205\217Bm[8\325\317\211\\\200S\355\033\202\355\335"
 627      5B38D5CF 
 627      895C8053 
 627      ED1B82ED 
 627      DD
 628 019e 6EAAA253 		.ascii	"n\252\242Sf\027\211L\\vW'\305z!\026\341\263\015\\\225"
 628      6617894C 
 628      5C765727 
ARM GAS  /tmp/cc2EPMER.s 			page 50


 628      C57A2116 
 628      E1B30D5C 
 629 01b3 68FCDCC5 		.ascii	"h\374\334\305\216\302&\330Q#\344s\027\034\200j\010S"
 629      8EC226D8 
 629      5123E473 
 629      171C806A 
 629      0853
 630 01c5 96F8F2F3 		.ascii	"\226\370\362\363\303-\033L\377>\252\237X\025\344nh\205"
 630      C32D1B4C 
 630      FF3EAA9F 
 630      5815E46E 
 630      6885
 631 01d7 264819BA 		.ascii	"&H\031\272\272'7\366|m\372\237'\206\007\301\2372\310"
 631      BA2737F6 
 631      7C6DFA9F 
 631      278607C1 
 631      9F32C8
 632 01ea 49F003F8 		.ascii	"I\360\003\370Y\014j\305\313\262\312H\007\223\301\007"
 632      590C6AC5 
 632      CBB2CA48 
 632      0793C107 
 633 01fa 06DDE29C 		.ascii	"\006\335\342\234+\215WS\005\374\015\231\321\211\340"
 633      2B8D5753 
 633      05FC0D99 
 633      D189E0
 634 0209 F15AB72E 		.ascii	"\361Z\267.\366t\023\327Z\232\360\243M\271\016\311j\317"
 634      F67413D7 
 634      5A9AF0A3 
 634      4DB90EC9 
 634      6ACF
 635 021b 97C3617B 		.ascii	"\227\303a{\016\321t\323\263\304\"\222\315Bq\334\201"
 635      0ED174D3 
 635      B3C42292 
 635      CD4271DC 
 635      81
 636 022c EE2C8036 		.ascii	"\356,\2006\"c\250\2677\222\301vP\210\342EJ\356\010\370"
 636      2263A8B7 
 636      3792C176 
 636      5088E245 
 636      4AEE08F8 
 637 0240 890A839F 		.ascii	"\211\012\203\237\240\232Q\321g\366\036k\255\232\353"
 637      A09A51D1 
 637      67F61E6B 
 637      AD9AEB
 638 024f B5E8D9F4 		.ascii	"\265\350\331\364!\000\312Yz-m@\226\031[\350\335Q\214"
 638      2100CA59 
 638      7A2D6D40 
 638      96195BE8 
 638      DD518C
 639 0262 C3E06712 		.ascii	"\303\340g\022\314e\025\314\\\200`\005\020E\262\307\262"
 639      CC6515CC 
 639      5C806005 
 639      1045B2C7 
 639      B2
 640 0273 C90EB626 		.ascii	"\311\016\266&W\3668I\234\343\222.Wx\320>+\020\002S\036"
 640      57F63849 
 640      9CE3922E 
ARM GAS  /tmp/cc2EPMER.s 			page 51


 640      5778D03E 
 640      2B100253 
 641 0288 082E8924 		.ascii	"\010.\211$FB[Ae\343\263f\303e6\323\235g\326{\377\203"
 641      46425B41 
 641      65E3B366 
 641      C36536D3 
 641      9D67D67B 
 642 029e 2DC45970 		.ascii	"-\304YpB\243~3R\333\354\326%\374\230R\352\220\210\016"
 642      42A37E33 
 642      52DBECD6 
 642      25FC9852 
 642      EA90880E 
 643 02b2 85484B6C 		.ascii	"\205HKl\263\330\012z@\010(\344I\252q&\245S\230\022f"
 643      B3D80A7A 
 643      400828E4 
 643      49AA7126 
 643      A5539812 
 644 02c7 D030544C 		.ascii	"\3200TL\360\013\240\336iO]\370\010\342\364\034\332\277"
 644      F00BA0DE 
 644      694F5DF8 
 644      08E2F41C 
 644      DABF
 645 02d9 801F7911 		.ascii	"\200\037y\021\314\266p<\264N\003e\263\362\331\262ZA"
 645      CCB6703C 
 645      B44E0365 
 645      B3F2D9B2 
 645      5A41
 646 02eb 6867F2B0 		.ascii	"hg\362\260ZE\210g\211\224S\003\236\003\377\002\034{"
 646      5A458867 
 646      89945303 
 646      9E03FF02 
 646      1C7B
 647 02fd DEDEB183 		.ascii	"\336\336\261\203\361\364k\016\262lW~\313v\347\263\354"
 647      F1F46B0E 
 647      B26C577E 
 647      CB76E7B3 
 647      EC
 648 030e 858C657B 		.ascii	"\205\214e{\320\262z)Js\316\336\220\033\2514\275\237"
 648      D0B27A29 
 648      4A73CEDE 
 648      901BA934 
 648      BD9F
 649 0320 9D03BD50 		.ascii	"\235\003\275P\347\233xo\216v\341\246\254\373r\264\213"
 649      E79B786F 
 649      8E76E1A6 
 649      ACFB72B4 
 649      8B
 650 0331 5F67DBC5 		.ascii	"_g\333\305E\222E\372o\252\245c\353\233\032\334*\213"
 650      459245FA 
 650      6FAAA563 
 650      EB9B1ADC 
 650      2A8B
 651 0343 58CE6CED 		.ascii	"X\316l\355\206\201<\360\233\004pQ\244~Y\357\203\035"
 651      86813CF0 
 651      9B047051 
 651      A47E59EF 
 651      831D
ARM GAS  /tmp/cc2EPMER.s 			page 52


 652 0355 9D9F98E4 		.ascii	"\235\237\230\344Z/.\300\337q\002Z=\272%v!C\313\322\243"
 652      5A2F2EC0 
 652      DF71025A 
 652      3DBA2576 
 652      2143CBD2 
 653 036a 2D3DC7BE 		.ascii	"-=\307\276E\017\250\346E\271M\306\373\370\334%,\246"
 653      450FA8E6 
 653      45B94DC6 
 653      FBF8DC25 
 653      2CA6
 654 037c 3B2A6884 		.ascii	";*h\204^\341F\326\012o\246w\227\344\012\277\234\303"
 654      5EE146D6 
 654      0A6FA677 
 654      97E40ABF 
 654      9CC3
 655 038e 6B869DD7 		.ascii	"k\206\235\327\242[\272\015\242vES\2231\340\017\311n"
 655      A25BBA0D 
 655      A2764553 
 655      9331E00F 
 655      C96E
 656 03a0 FF4464C6 		.ascii	"\377Dd\306\247\3301\270\252\331\2056qB\320\033\322|"
 656      A7D831B8 
 656      AAD98536 
 656      7142D01B 
 656      D27C
 657 03b2 75BB9643 		.ascii	"u\273\226C\267wI\267A\255\233\304~\310pr\201\017)\277"
 657      B77749B7 
 657      41AD9BC4 
 657      7EC87072 
 657      810F29BF 
 658 03c6 65DE5B2D 		.ascii	"e\336[-\367\016Y.\206\226\223y\017\243\345\030\356Q"
 658      F70E592E 
 658      86969379 
 658      0FA3E518 
 658      EE51
 659 03d8 9CE17702 		.ascii	"\234\341w\002\307t\027\311\035-\300M\331s\302c\001\231"
 659      C77417C9 
 659      1D2DC04D 
 659      D973C263 
 659      0199
 660 03ea 7C8017D8 		.ascii	"|\200\027\330V\310\314\275\032G2\253\361R\216\325\030"
 660      56C8CCBD 
 660      1A4732AB 
 660      F1528ED5 
 660      18
 661 03fb D72D46E6 		.ascii	"\327-F\3461\252\273\336\362L\251\020Qu\275\261a\235"
 661      31AABBDE 
 661      F24CA910 
 661      5175BDB1 
 661      619D
 662 040d 41A16D06 		.ascii	"A\241m\006\005\331\266\363\301\230\304v\353\330\327"
 662      05D9B6F3 
 662      C198C476 
 662      EBD8D7
 663 041c 55FB6ADB 		.ascii	"U\373j\333\371\264\012\344\231\227\3302\320\2159\201"
 663      F9B40AE4 
 663      9997D832 
ARM GAS  /tmp/cc2EPMER.s 			page 53


 663      D08D3981 
 664 042c C631D010 		.ascii	"\3061\320\020\324\015\004\212tF\030\213\234x\007L\234"
 664      D40D048A 
 664      7446188B 
 664      9C78074C 
 664      9C
 665 043d D65FD31F 		.ascii	"\326_\323\037\323\004\243\241\356'Q'\024\327\252\322"
 665      D304A3A1 
 665      EE275127 
 665      14D7AAD2 
 666 044d 81F3A1C6 		.ascii	"\201\363\241\306\"\253J\177\316U\251\267\373\3335V\221"
 666      22AB4A7F 
 666      CE55A9B7 
 666      FBDB3556 
 666      91
 667 045e 263222DD 		.ascii	"&2\"\335\304\317\2662\244\352\234\230y\017?+\234\014"
 667      C4CFB632 
 667      A4EA9C98 
 667      790F3F2B 
 667      9C0C
 668 0470 3FF52081 		.ascii	"?\365 \201\265U\337\025\015\211\211a\367\302L,<\204"
 668      B555DF15 
 668      0D898961 
 668      F7C24C2C 
 668      3C84
 669 0482 7F2B8F44 		.ascii	"\177+\217D+H\242\333V\211&\251\025(Q\3027\277\364\250"
 669      2B48A2DB 
 669      568926A9 
 669      152851C2 
 669      37BFF4A8 
 670 0496 1278E725 		.ascii	"\022x\347%\212\012Y/[a\"\017h\253\334{\356\3506-Q\357"
 670      8A0A592F 
 670      5B61220F 
 670      68ABDC7B 
 670      EEE8362D 
 671 04ac EABD67E7 		.ascii	"\352\275g\347\342\377\303p\352Q\014\357Y\261\356\023"
 671      E2FFC370 
 671      EA510CEF 
 671      59B1EE13 
 672 04bc 43AFDC83 		.ascii	"C\257\334\203\0227\363\224\324k\013\3706\001N\347\001"
 672      1237F394 
 672      D46B0BF8 
 672      36014EE7 
 672      01
 673 04cd AC20C0BF 		.ascii	"\254 \300\277\254%\235!@Cmz\267\362\000\332\327S2\374"
 673      AC259D21 
 673      40436D7A 
 673      B7F200DA 
 673      D75332FC 
 674 04e1 FB510CFF 		.ascii	"\373Q\014\377\2612|\240\000\251-\035\211\275$\367\226"
 674      B1327CA0 
 674      00A92D1D 
 674      89BD24F7 
 674      96
 675 04f2 01EB46D3 		.ascii	"\001\353F\323l\275\241\017rv\035\202\321\236\330Sr\203"
 675      6CBDA10F 
 675      72761D82 
ARM GAS  /tmp/cc2EPMER.s 			page 54


 675      D19ED853 
 675      7283
 676 0504 CA6A5F45 		.ascii	"\312j_Ei\372w\002\222\330Dp\003\300\310A\376\030\033"
 676      69FA7702 
 676      92D84470 
 676      03C0C841 
 676      FE181B
 677 0517 C7E07D31 		.ascii	"\307\340}1S\316\240c\022w\222:7\256\203\342e\313\374"
 677      53CEA063 
 677      1277923A 
 677      37AE83E2 
 677      65CBFC
 678 052a EA676DA5 		.ascii	"\352gm\245\177]\225\277r]\251\277\264\254\262\264l\365"
 678      7F5D95BF 
 678      725DA9BF 
 678      B4ACB2B4 
 678      6CF5
 679 053c B252C6D7 		.ascii	"\262R\306\327V\225\033\245\345FUy\311C\303>\370\260"
 679      56951BA5 
 679      E5465579 
 679      C943C33E 
 679      F8B0
 680 054e 74CD47AB 		.ascii	"t\315G\253\337\317\014-c\274\252\242\374_q:Q\302"
 680      DFCF0C2D 
 680      63BCAAA2 
 680      FC5F713A 
 680      51C2
 681              		.text
 682              		.section	.gnu.lto_chSchDoRescheduleAhead.5c3a872a074d49ef,"",%progbits
 683 0000 789C9D57 		.ascii	"x\234\235W]L\034U\024\276g\356\376\014\260\213}0\221"
 683      5D4C1C55 
 683      14BE67EE 
 683      FE0CB08B 
 683      7D3091
 684 0013 44929218 		.ascii	"D\222\222\030L\372 k\237\264\372\242/\306\230\220\030"
 684      4CFA206B 
 684      9FB4FAA2 
 684      2FC69890 
 684      18
 685 0024 7D687C32 		.ascii	"}h|2\206\232`\322X(\370\344\003\027\330\251\2556J\265"
 685      869A60D2 
 685      5828F8E4 
 685      0317D8A9 
 685      AD364AB5 
 686 0038 107EDA34 		.ascii	"\020~\3324\306\237\252m\371m\245K\255\335R\012\265\362"
 686      C69FAA6D 
 686      F96DA54B 
 686      ADDD520A 
 686      B5F2
 687 004a 53B6206D 		.ascii	"S\266 mA\004v\201\026\261e[j\305\362\3439\367\316\322"
 687      41047681 
 687      16B1655B 
 687      6AC5F2E3 
 687      39F7CED2 
 688 005e A13B6CC1 		.ascii	"\241;l\301\011\31403\367\236\357\373\316\371\356\271"
 688      09CC3033 
 688      F79EEFFB 
ARM GAS  /tmp/cc2EPMER.s 			page 55


 688      CEF9EEB9 
 689 006e 838301A3 		.ascii	"\203\203\001\243\243\300\303X6^_\301_p1\320\312\272"
 689      A3C0C358 
 689      365E5FC1 
 689      5F7031D0 
 689      CABA
 690 0080 192BD635 		.ascii	"\031+\3265\340\352\017\2569\367v0&\222\035~7\023\036"
 690      E0EA0FAE 
 690      39F77630 
 690      26921D7E 
 690      37131E
 691 0093 A77AFEB2 		.ascii	"\247z\376\262\003\200\256B\007V\244q\247\003\360\314"
 691      0380AE42 
 691      0756A471 
 691      A703F0CC 
 692 00a3 D471575B 		.ascii	"\324qW[\320\240\365\243\211\200\266\351\260\300c\304"
 692      D0A0F5A3 
 692      8980B6E9 
 692      B0C063C4 
 693 00b3 A8F3EC12 		.ascii	"\250\363\354\022F\232\201\003\22645\006\016\303&\206"
 693      469A8103 
 693      96343506 
 693      0EC32686 
 694 00c3 C37AFDF5 		.ascii	"\303z\375\365\007\370\254fp\000\007\336F\273\252\303"
 694      07F8AC66 
 694      700007DE 
 694      46BBAAC3 
 695 00d3 A974AB41 		.ascii	"\251t\253A\006\336\316\327|\326\252\363\215@#\357\014"
 695      06DECED7 
 695      7CD6AAF3 
 695      8D4023EF 
 695      0C
 696 00e4 4E04F4CC 		.ascii	"N\004\364\314\257\204(\021\301\373c\271\373J\305\005"
 696      AF842811 
 696      C1FB63B9 
 696      FB4AC505 
 697 00f4 E1303887 		.ascii	"\34108\207\037\200cT\370\036\322\341;H\227\321q\370"
 697      1F806354 
 697      F81ED2E1 
 697      3B4897D1 
 697      71F8
 698 0106 58C362B9 		.ascii	"X\303b\271\327\345'\374\0148\002\231\012\031\216\202"
 698      D7E527FC 
 698      0C380299 
 698      0A198E82 
 699 0116 0B65737A 		.ascii	"\013esz\202\203.OV\234\326\371S2~\371\255\366r0\343"
 699      82832E4F 
 699      569CD6F9 
 699      53327EF9 
 699      ADF67230 
 700 012b EF0F7944 		.ascii	"\357\017yDY\261N\321\217\305G\207Z9\271m|>\224\302\237"
 700      59B14ED1 
 700      8FC54787 
 700      5A39B96D 
 700      7C3E94C2 
 701 0140 96938B8F 		.ascii	"\226\223\213\217\324\034\360\250\311#\215\013\331\017"
 701      D41CF0A8 
ARM GAS  /tmp/cc2EPMER.s 			page 56


 701      C9238D0B 
 701      D90F
 702 014e C8D5D94C 		.ascii	"\310\325\331L\257\207\314\2727\202bi\251\024S\343\253"
 702      AF87CCBA 
 702      37826269 
 702      A91453E3 
 702      AB
 703 015f AC88DEAC 		.ascii	"\254\210\336\254\324\036\307A\310\311%\337\352\022\""
 703      D41EC741 
 703      C8C925DF 
 703      EA1222
 704 016e 499E9399 		.ascii	"I\236\223\231\301\035)t\362\340\211{\351\304\330\014"
 704      C11D2974 
 704      F2E0897B 
 704      E9C4D80C 
 705 017e 8AC17244 		.ascii	"\212\301rD5\015/|\002JZ\242\303\225/\220\272RN\331\257"
 705      350D2F7C 
 705      024A5AA2 
 705      C3952F90 
 705      BA524ED9 
 706 0193 305A7BDC 		.ascii	"0Z{\334\224G\247\244\027\010L\017\272\213\026\304n!"
 706      9447A7A4 
 706      17084C0F 
 706      BA8B16C4 
 706      6E21
 707 01a5 36E0B33D 		.ascii	"6\340\263=\\\345h\252\263\277-\371\020\034,\026\362"
 707      5CE568AA 
 707      B3BF2DF9 
 707      101C2C16 
 707      F2
 708 01b6 B90B1AA1 		.ascii	"\271\013\032\241\010\032\210&\276\374\364d\375\036\335"
 708      081A8826 
 708      BEFCF464 
 708      FD1EDD
 709 01c5 778C1228 		.ascii	"w\214\022(\266\032\334\015Mp\010\02653\275\347\367\366"
 709      B61ADC0D 
 709      4D700816 
 709      3533BDE7 
 709      F7F6
 710 01d7 7EADFB9E 		.ascii	"~\255\373\236!\211\307\301\267\250\221\227\340\004\370"
 710      2189C7C1 
 710      B7A89197 
 710      E004F8
 711 01e6 D8189488 		.ascii	"\330\030\224\210\027e\232Q\016\222\301\007\032\335\342"
 711      17659A51 
 711      0E92C107 
 711      1ADDE2
 712 01f5 9CA19AE1 		.ascii	"\234\241\232\341\305$\376\232dt\3168[\3426\263=7\366"
 712      C524FE9A 
 712      6474CE38 
 712      5BE236B3 
 712      3D37F6
 713 0208 6C9508FA 		.ascii	"l\225\010\3723\014\256\303\2176\371j\226\351^\253\206"
 713      330CAEC3 
 713      8F36F96A 
 713      96E95EAB 
 713      86
ARM GAS  /tmp/cc2EPMER.s 			page 57


 714 0219 93F61A82 		.ascii	"\223\366\032\202\373\302/9HF ^\206\022y\020\014\236"
 714      FBC22F39 
 714      4846205E 
 714      86127910 
 714      0C9E
 715 022b 042DA446 		.ascii	"\004-\244FSoo,\030\255\240 \305s\304\356\024\370H\013"
 715      536F6F2C 
 715      18ADA020 
 715      C573C4EE 
 715      14F8480B 
 716 023f 839FA088 		.ascii	"\203\237\240\210Q\326\347\216\236i*\\\351\266\340'\221"
 716      51D6E78E 
 716      9E692A5C 
 716      E9B6E027 
 716      91
 717 0250 B42789B3 		.ascii	"\264'\211\2634\333\222\006qn\254\247w\2471\014\203\237"
 717      34DB9206 
 717      716EACA7 
 717      77A7310C 
 717      839F
 718 0262 A9602E6B 		.ascii	"\251`.k\301\364u\024,\011\202(\366L\274\330\221\246"
 718      C1F47514 
 718      2C098228 
 718      F64CBCD8 
 718      91A6
 719 0274 85EC5E27 		.ascii	"\205\354^'\025\347\254T\313\025\036\264.\027\010\201"
 719      15E7AC54 
 719      CB151EB4 
 719      2E170881 
 720 0284 8907824B 		.ascii	"\211\007\202K\035\321HU%(6^+\033.\331\334\353\270\270"
 720      1DD14855 
 720      2528365E 
 720      2B1B2ED9 
 720      DCEBB8B8 
 721 0298 DBF30036 		.ascii	"\333\363\0006\031g\3019\023\365\233HI\255\333\314\340"
 721      1967C139 
 721      13F59B48 
 721      49ADDBCC 
 721      E0
 722 02a9 8744A94D 		.ascii	"\207D\251M\":\024\"\255\2612Q\011\346\200*\240\220\347"
 722      223A1422 
 722      ADB13251 
 722      09E6802A 
 722      A090E7
 723 02bc 29C5314A 		.ascii	")\3051J\355H\011\031T\214\246\023\374:\244w\330K\027"
 723      ED480919 
 723      548CA613 
 723      FC3AA477 
 723      D84B17
 724 02cf 5E82B8B0 		.ascii	"^\202\270\260B\366/\340C]\004S\3350^\265\323\004\212"
 724      42F62FE0 
 724      435D0453 
 724      DD305EB5 
 724      D3048A
 725 02e2 57E5B555 		.ascii	"W\345\265U\265\205\320.&P\265\225\020\177%QN\023\260"
 725      B585D02E 
 725      2650B595 
ARM GAS  /tmp/cc2EPMER.s 			page 58


 725      107F2551 
 725      4E13B0
 726 02f5 137CEB70 		.ascii	"\023|\353pl\227\275cG\214F\317\253\344\330\356\304\216"
 726      6C97BD63 
 726      478C46CF 
 726      ABE4D8EE 
 726      C48E
 727 0307 ED49E4D8 		.ascii	"\355I\344\330K1\307\366\242c\315\245(\315\271|Cn\244"
 727      4B31C7F6 
 727      A263CDA5 
 727      28CDB97C 
 727      436EA4
 728 031a D4843EEE 		.ascii	"\324\204>\356\004s\241\256\225xh\225v\341&\326\227W"
 728      0473A1AE 
 728      95786895 
 728      76E126D6 
 728      9757
 729 032c 69177DCB 		.ascii	"i\027}\313\355\242\237\312\"\3757;\023\251|\335\004"
 729      EDA29FCA 
 729      22FD373B 
 729      13A97CDD 
 729      04
 730 033d B796456C 		.ascii	"\267\226Elf\266v\303@)\360\233\004pQ\244\001\231\357"
 730      66B676C3 
 730      4029F09B 
 730      047051A4 
 730      0199EF
 731 0350 E36D1DBB 		.ascii	"\343m\035\273tr\255\007\000\256\340\004\264z\260*|)"
 731      7472AD07 
 731      00AEE004 
 731      B47AB02A 
 731      7C29
 732 0362 26CBD2A4 		.ascii	"&\313\322\244-=\307\276G_U\315\213\270\325w\365\361"
 732      2D3DC7BE 
 732      475F55CD 
 732      8BB8D577 
 732      F5F1
 733 0374 954B584C 		.ascii	"\225KXL\266\347\323\010s\205kq+\274\226\336]\223+|p"
 733      B6E7D308 
 733      73856B71 
 733      2BBC96DE 
 733      5D932B7C 
 734 0389 15AF6976 		.ascii	"\025\257iv^\013\236\010i$m\310\224&c\300\357R]\335t"
 734      5E0B9E08 
 734      69246DC8 
 734      942663C0 
 734      EF525DDD 
 735 039e 60CEABD4 		.ascii	"`\316\253\3241\0306\3255\177\316\011\301\334\221\326"
 735      311836D5 
 735      357FCE09 
 735      C1DC91D6 
 736 03ae 5AB73F56 		.ascii	"Z\267?V\251\333\333T\267\021\263n\022\373!\303\311\005"
 736      A9DBDB54 
 736      B711B36E 
 736      12FB21C3 
 736      C905
 737 03c0 3EAAFC16 		.ascii	">\252\374\026{o\265\334[d\2711\264\234\344\035F\313"
ARM GAS  /tmp/cc2EPMER.s 			page 59


 737      7B6FB5DC 
 737      5B64B931 
 737      B49CE41D 
 737      46CB
 738 03d2 31DCA338 		.ascii	"1\334\2438\303/\005\216t7\310\035\255\224\353\252\347"
 738      C32F058E 
 738      7437C81D 
 738      AD94EBAA 
 738      E7
 739 03e3 74FB25F9 		.ascii	"t\373%\371R\236d\233!}\365\325\030\211\255\306k\253"
 739      529E649B 
 739      217DF5D5 
 739      1889ADC6 
 739      6BAB
 740 03f5 ACC671B3 		.ascii	"\254\306q\263\305H\036\023f\327\333\034K\025\"J\006"
 740      C5481E13 
 740      66D7DB1C 
 740      4B15224A 
 740      06
 741 0406 0D3D1193 		.ascii	"\015=\021\223A\262-\203\244x\333yaRb\273\315\330\327"
 741      41B22D83 
 741      A478DB79 
 741      615262BB 
 741      CDD8D7
 742 0419 55FB6AC1 		.ascii	"U\373j\301\366%\003\245\254\251\3302\320\215\025\201"
 742      F62503A5 
 742      ACA9D832 
 742      D08D1581 
 743 0429 A630D028 		.ascii	"\2460\320(\370\257\224\246\232\2140\0269\3616\3508m"
 743      F8AF94A6 
 743      9A8C3016 
 743      39F136E8 
 743      386D
 744 043b A07860CC 		.ascii	"\240x`\314\024\030l\016=\201u\302\342Z\253\324\330U"
 744      14186C0E 
 744      3D8175C2 
 744      E25AABD4 
 744      D855
 745 044d 55936AAD 		.ascii	"U\223j\255\322\237+\253\024\352\371v\273\265H\323\261"
 745      D29F2BAB 
 745      14EAF976 
 745      BBB548D3 
 745      B1
 746 045e 22FD851F 		.ascii	"\"\375\205\037n\271(\3259\364\305;\370Y\341d\370\261"
 746      6EB928D5 
 746      39F4C53B 
 746      F859E164 
 746      F8B1
 747 0470 0751CCAD 		.ascii	"\007Q\314\255\372\256\250h\350\213\270\327gb\221B\370"
 747      FAAEA868 
 747      E88BB8D7 
 747      67629142 
 747      F8
 748 0481 37139468 		.ascii	"7\023\224h\013\225\350\226\265D3\324\012TQ\242}\373"
 748      0B95E896 
 748      B54433D4 
 748      0A5451A2 
ARM GAS  /tmp/cc2EPMER.s 			page 60


 748      7DFB
 749 0493 53540A3C 		.ascii	"ST\012<k*\212\012Y.[a4\001h\223\334{n\233mZ\242\336"
 749      6B2A8A0A 
 749      592E5B61 
 749      34016893 
 749      DC7B6E9B 
 750 04ab 31F79E2F 		.ascii	"1\367\236/7\376\037\205\263\217Rx\327\212\3657)\364"
 750      37FE1F85 
 750      B38F5278 
 750      D78AF537 
 750      29F4
 751 04bd A83DA83F 		.ascii	"\250=\250?AJ=\266\200o\022\340\275\004\200\371\004\370"
 751      414A3DB6 
 751      806F12E0 
 751      BD0480F9 
 751      04F8
 752 04cf 8F35A573 		.ascii	"\2175\245s\004(;Xu4\021\240}>\245\302\177\037\245\360"
 752      04283B58 
 752      753411A0 
 752      7D3EA5C2 
 752      7F1FA5F0 
 753 04e3 BE55E1BC 		.ascii	"\276U\341\274\002\244\266\324\024~^\356-W\255\033M\255"
 753      02A4B6D4 
 753      147E5EEE 
 753      2D57AD1B 
 753      4DAD
 754 04f5 F586BEC8 		.ascii	"\365\206\276\310\331u0\202\201p\232\334\240\342\332"
 754      D9753082 
 754      81709ADC 
 754      A0E2DA
 755 0504 57EA12FD 		.ascii	"W\352\022\375C\001\013\330Dp\003\300\310\006\177\214"
 755      43010BD8 
 755      447003C0 
 755      C8067F8C 
 756 0514 4D61F053 		.ascii	"Ma\360Sa]\316\240c\006w\022\277\033\327AzV\226O\375"
 756      615DCEA0 
 756      63067712 
 756      BF1BD741 
 756      7A56964F 
 757 0529 EC28F0ED 		.ascii	"\354(\360\355,\364\025\354\314\361\345\344\026\344\344"
 757      2CF415EC 
 757      CCF1E5E4 
 757      16E4E4
 758 0538 6ECBCA61 		.ascii	"n\313\312a|Ga\236\226\223\247\025\346e<4\354\275\367"
 758      7C47619E 
 758      9693A715 
 758      E6653C34 
 758      ECBDF7
 759 054b 73B67FB0 		.ascii	"s\266\177\260\355\335\330\320\\\306\013\363\363\376"
 759      EDDDD8D0 
 759      5CC60BF3 
 759      F3FE
 760 0559 036C4950 		.ascii	"\003lIPP"
 760      50
 761              		.text
 762              		.section	.gnu.lto_chSchRescheduleS.5c3a872a074d49ef,"",%progbits
 763 0000 789C9552 		.ascii	"x\234\225RMk\023A\030~\237\231\315\356\032*\370\003"
ARM GAS  /tmp/cc2EPMER.s 			page 61


 763      4D6B1341 
 763      187E9F99 
 763      CDEE1A2A 
 763      F803
 764 0012 4AE94D7A 		.ascii	"J\351MzhV\324\273\377A<{\331\212\021D\241Q<f\232t\261"
 764      6856D4BB 
 764      FF413C7B 
 764      D98A1144 
 764      A1513C66 
 765 0029 A5225E14 		.ascii	"\245\"^\024/\022\012J\353G\277\324j\023\017.U\021D\""
 765      2F120A4A 
 765      EB47BFD4 
 765      6A130F2E 
 765      55114422 
 766 003d 1E144190 		.ascii	"\036\024A\220\266H\224\"\330\202\"*\315\372\276\263"
 766      B6489422 
 766      D882222A 
 766      CDFABEB3 
 767 004d 5BB4A61E 		.ascii	"[\264\246\036\034v\230\341}\336y>v\306!\220\214\025"
 767      1C7698E1 
 767      7DDE793E 
 767      76C62190 
 767      8C15
 768 005f 457480D7 		.ascii	"Et\200\327\375<\221#\250\013M\242!_)\335\350!\223w^"
 768      FD3C9123 
 768      A80B4DA2 
 768      215F29DD 
 768      E8219377 
 769 0074 0764BA34 		.ascii	"\007d\2724\234\264\354\000\2621>\250\254\264\2032\276"
 769      9CB4EC00 
 769      B2313EA8 
 769      ACB48332 
 769      BE
 770 0085 AA0D85C5 		.ascii	"\252\015\205\305\263\255\272\352\2330<\226\242\326>"
 770      B3ADBAEA 
 770      9B303C96 
 770      A2D63E
 771 0094 331923D2 		.ascii	"3\031#\322D\211\262\022\204\011\364\021\267\255\314"
 771      4489B212 
 771      8409F411 
 771      B7ADCC
 772 00a3 B52FEE74 		.ascii	"\265/\356t\207\245\2557\0051\011W|\314\034\214M\222"
 772      87A5AD37 
 772      05310957 
 772      7CCC1C8C 
 772      4D92
 773 00b5 548DF9B9 		.ascii	"T\215\371\271\247\026\370\232\"\315^\"\255\\\331y\262"
 773      A716F89A 
 773      22CD5E22 
 773      AD5CD979 
 773      B2
 774 00c6 235AE329 		.ascii	"#Z\343)\342\353J\311\252[\2504\276\327.\317\027\267"
 774      E2EB4AC9 
 774      AA5BA834 
 774      BED72ECF 
 774      17B7
 775 00d8 32C763CD 		.ascii	"2\307c\3153\2267Q\350\020\305u\270\254z\003nUk\006/"
ARM GAS  /tmp/cc2EPMER.s 			page 62


 775      33963751 
 775      E810C575 
 775      B8AC7A03 
 775      6E556B06 
 776 00ed 458B2FBC 		.ascii	"E\213/\274/*\322\332\366\326\353\237\336z\345\0153b"
 776      2F2AD2DA 
 776      F6D6EB9F 
 776      DE7AE50D 
 776      3362
 777 00ff CC2EAE8D 		.ascii	"\314.\256\215r\006)\257>\177\3658_\303\225!c\353\016"
 777      720629AF 
 777      3E7FF538 
 777      5FC39521 
 777      63EB0E
 778 0112 6E71F09B 		.ascii	"nq\360\233\350\266\340\371\205\331Q?\230\262\331\223"
 778      E8B6E0F9 
 778      85D9513F 
 778      98B2D993 
 779 0122 A543E33A 		.ascii	"\245C\343:\3229L\241\2066\373\265z\334\364\344\334\313"
 779      D2394CA1 
 779      8636FBB5 
 779      7ADCF4E4 
 779      DCCB
 780 0134 AB7ED01F 		.ascii	"\253~\320\037i\027\323\010\332\354l\023\371\374\341"
 780      6917D308 
 780      DAEC6C13 
 780      F9FCE1
 781 0143 C75E0180 		.ascii	"\307^\001\200\031\001T\012`\026\001I@\244^s\177z\205"
 781      1901540A 
 781      60160149 
 781      40A45E73 
 781      7F7A85
 782 0156 F5FAEDE9 		.ascii	"\365\372\355\351\263\221\256\337\246<\016\204\271\314"
 782      B391AEDF 
 782      A63C0E84 
 782      B9CC
 783 0164 D3B5F795 		.ascii	"\323\265\367\225iOX}\334\266NtF{'\243]\336\235\362\272"
 783      694F587D 
 783      DCB64E74 
 783      467B27A3 
 783      5DDE9DF2 
 784 0179 FF11FA6E 		.ascii	"\377\021\372nG\350~\211:\377\257\250\300=I\344d\322"
 784      47E87E89 
 784      3AFFAFA8 
 784      C03D49E4 
 784      64D2
 785 018b F733E9F1 		.ascii	"\3673\351\361B*\355m\233\301\335.\303\302\226\014u&"
 785      422AED6D 
 785      9BC1DD2E 
 785      C3C2960C 
 785      7526
 786 019d 5AC6F09B 		.ascii	"Z\306\360\233Gc\315\243r\317\374w\230\315>\264unj\364"
 786      4763CDA3 
 786      72CFFC77 
 786      98CD3EB4 
 786      756E6AF4 
 787 01b1 E88FA8C6 		.ascii	"\350\217\250\306\017\336)\001;ouG\242\304m\003e~Vy{"
ARM GAS  /tmp/cc2EPMER.s 			page 63


 787      0FDE2901 
 787      3B6F7547 
 787      A2C46D03 
 787      657E5679 
 788 01c6 C8B1EF69 		.ascii	"\310\261\357i\025\225\370\341a{H\306\032_\022\227\271"
 788      1595F8E1 
 788      617B48C6 
 788      1A5F1297 
 788      B9
 789 01d7 B7BB5008 		.ascii	"\267\273P\010\322\357d)\030<\025\224\006\303 ,\226\302"
 789      D2EF6429 
 789      183C1594 
 789      06C3202C 
 789      96C2
 790 01e9 E24021A4 		.ascii	"\342@!\244\336\277\300c'\302\343\247\007\216l6\024\351"
 790      DEBFC063 
 790      27C2E3A7 
 790      078E6C36 
 790      14E9
 791 01fb 17CBC80A 		.ascii	"\027\313\310\012\213"
 791      8B
 792              		.text
 793              		.section	.gnu.lto_chSchDoReschedule.5c3a872a074d49ef,"",%progbits
 794 0000 789C9D57 		.ascii	"x\234\235W]l\024U\024\276g\356\376\314vw+\017&\222\330"
 794      5D6C1455 
 794      14BE67EE 
 794      FECC7677 
 794      2B0F2692 
 795 0015 84260613 		.ascii	"\204&\006\023\036d\345I\321\304\350\2131&M\214>\020"
 795      1E64E549 
 795      D1C4E88B 
 795      31264D8C 
 795      3E10
 796 0027 9F8C594C 		.ascii	"\237\214YLjB\244\264\365\311\207\336vw\020\224(*m\272"
 796      6A42A4B4 
 796      F5C987DE 
 796      76771094 
 796      282A6DBA 
 797 003b 2D84187F 		.ascii	"-\204\030\177P\201\376\202\245U\350RZ\212\330R\272\024"
 797      5081FE82 
 797      A555E852 
 797      5A8AD852 
 797      BA14
 798 004d 0B14A1B4 		.ascii	"\013\024\241\264e\371U\272@\255\325n\327s\356\235\205"
 798      65F955BA 
 798      40ADD56E 
 798      D773EE9D 
 798      85
 799 005e 293BBBB4 		.ascii	");\273\264N\332\231\316\314\275\347\373\276s\276{\356"
 799      4EDA99CE 
 799      CCBDE7FB 
 799      BE73BE7B 
 799      EE
 800 006f D4C180D1 		.ascii	"\324\301\200\321Q\346c\254\010\257/\343/\270\030h[O"
 800      51E663AC 
 800      08AF2FE3 
 800      2FB81868 
ARM GAS  /tmp/cc2EPMER.s 			page 64


 800      5B4F
 801 0081 3056A96B 		.ascii	"0V\251k\300\325\037\\sn\351eL\3449\302n&|N\365\374%"
 801      C0D51F5C 
 801      736EE965 
 801      4CE439C2 
 801      6E267C4E 
 802 0098 07005D85 		.ascii	"\007\000]\205\016\254B\343N\007\340\231\251cJKj\320"
 802      0EAC42E3 
 802      4E07E099 
 802      A9634A4B 
 802      6AD0
 803 00aa F561BC5D 		.ascii	"\365a\274][\261K\3401\332s\310\267Q\030K\015\034\220"
 803      5BB14BE0 
 803      31DA73C8 
 803      B751184B 
 803      0D1C90
 804 00bd D2D418D8 		.ascii	"\322\324\030\330\005+\030\016\033\0147m\347w5\203\003"
 804      052B180E 
 804      1B0C376D 
 804      E7773583 
 804      03
 805 00ce 38F036D1 		.ascii	"8\3606\321_7\236O\267\032\024\342\355l\375\247]:_\006"
 805      5F379E4F 
 805      B71A14E2 
 805      ED6CFDA7 
 805      5D3A5F06 
 806 00e2 34F2CE48 		.ascii	"4\362\316H\274]_\376\225\020U\":=^\374YH\034\023\016"
 806      BC5D5FFE 
 806      95105522 
 806      3A3D5EFC 
 806      59481C13 
 807 00f7 8373F801 		.ascii	"\203s\370\0018F\205\357\241\000\276\203\002\031\035"
 807      384685EF 
 807      A100BE83 
 807      02191D
 808 0106 878F35CF 		.ascii	"\207\2175\317U\373]a\302/\204\335\260\\!\303\036p\241"
 808      55FB5D61 
 808      C22F84DD 
 808      B05C21C3 
 808      1E70A1
 809 0119 6C4E4F70 		.ascii	"lNOp\320\251+5\007u\376\204\214_}\353h5\230\361\267"
 809      D0A92B35 
 809      0775FE84 
 809      8C5F7DEB 
 809      683598F1 
 810 012e C57C626B 		.ascii	"\305|bk\245N\321\367fF\207\0069\271\373\362l\314\313"
 810      A54ED1F7 
 810      66468706 
 810      39B9FBF2 
 810      6CCCCB
 811 0141 9F94932B 		.ascii	"\237\224\223+w\327o\367\251\311\243-\311\242\373\344"
 811      77D76FF7 
 811      A9C9A32D 
 811      C9A2FBE4 
 812 0151 1A6DA637 		.ascii	"\032m\2467\301\362\306\327\243\"\225\012aj^\250\235"
 812      C1F2C6D7 
 812      A322950A 
ARM GAS  /tmp/cc2EPMER.s 			page 65


 812      616A5EA8 
 812      9D
 813 0162 9DBC18D1 		.ascii	"\235\274\030\321\036\305A\310\311%\337\352\022\302#"
 813      1EC541C8 
 813      C925DFEA 
 813      12C223
 814 0171 CF79CCE0 		.ascii	"\317y\314\340\016/\235|x\342~:16\211b\260\034\011M\303"
 814      0E2F9D7C 
 814      78E27E3A 
 814      31368962 
 814      B01C094D 
 815 0186 0B8F4355 		.ascii	"\013\217CUG\"Y\373\034\251\013q\312~\215\3215\340\246"
 815      472259FB 
 815      1CA90B71 
 815      CA7E8DD1 
 815      35E0A6
 816 0199 3C3A25BD 		.ascii	"<:%\275\366\366\233#\356\212\244\330$\304\022|\266\231"
 816      F6F69B23 
 816      EE8AA4D8 
 816      24C4127C 
 816      B699
 817 01ab AB1C5DEF 		.ascii	"\253\034]\357;\335\235\267\023vT\012\371\334\005-P\001"
 817      3BDD9DB7 
 817      1376540A 
 817      F9DC052D 
 817      5001
 818 01bd CD44135F 		.ascii	"\315D\023_~r\240i\263\036\330K\011\024k\014\356\206"
 818      7E72A069 
 818      B31ED84B 
 818      09146B0C 
 818      EE86
 819 01cf 56D80973 		.ascii	"V\330\011s\232\231\336\236-\203_\353\201\247H\342>\010"
 819      9A99DE9E 
 819      2D835FEB 
 819      81A748E2 
 819      3E08
 820 01e1 CC69E425 		.ascii	"\314i\344%\330\017\0016\006U\342y\231f\224\203d\360"
 820      D80F0136 
 820      0655E279 
 820      99669483 
 820      64F0
 821 01f3 8146B738 		.ascii	"\201F\2678\347|\375\2059\017\177U2:b\034\256r\233\331"
 821      E77CFD85 
 821      390F7F55 
 821      323A621C 
 821      AE729BD9 
 822 0207 9E1A7F3A 		.ascii	"\236\032\177:\"\242\341B\203\353\360\243M\276\332d\272"
 822      22A2E142 
 822      83EBF0A3 
 822      4DBEDA64 
 822      BA
 823 0218 17AAE180 		.ascii	"\027\252\341\200\275\206hr\374E\007\311h\317\224\241"
 823      BD866872 
 823      FC4507C9 
 823      68CF94A1 
 824 0228 44EE0083 		.ascii	"D\356\000\203{\240\203\324h\352\355\265\244\321\005"
 824      7BA083D4 
ARM GAS  /tmp/cc2EPMER.s 			page 66


 824      68EAEDB5 
 824      A4D105
 825 0237 0A523C43 		.ascii	"\012R<C\354~\202\000ia\3603T0\312\372\314\236\316\326"
 825      EC7E8200 
 825      6961F033 
 825      5430CAFA 
 825      CC9ECED6 
 826 024b F2F96E8B 		.ascii	"\362\371n\213~\234Z\3728q\226fKi\220\341\306&zw\020"
 826      7E9C5AFA 
 826      38719666 
 826      4B6990E1 
 826      C6267A77 
 827 0260 C3303844 		.ascii	"\30308D\005sY\013\246/\242`\036\210\242\330\316L\261"
 827      0573590B 
 827      A62FA260 
 827      1E88A2D8 
 827      CE4CB1
 828 0273 A3ADC9A2 		.ascii	"\243\255\311\242A'\025\347\260T\313\025\036t\335+\020"
 828      412715E7 
 828      B054CB15 
 828      1E74DD2B 
 828      10
 829 0284 02130F04 		.ascii	"\002\023\017\004\227:\022\023\221ZPl\374V6\\\262\231"
 829      973A1213 
 829      915A506C 
 829      FC56365C 
 829      B299
 830 0296 EE3DBEC9 		.ascii	"\356=\276\311w\0376\017g\301\021\023\365\233\211\252"
 830      771F360F 
 830      67C11113 
 830      F59B89AA 
 831 02a6 06B799C1 		.ascii	"\006\267\231\301\017\210R\267Dt(DZc[E-\230\003\"@!{"
 831      0F8852B7 
 831      44742844 
 831      5A635B45 
 831      2D980322 
 832 02bd 28C5694A 		.ascii	"(\305iJG\221\0222\250\271T@\360\213\220\336k/]\370\011"
 832      47911232 
 832      A8B95440 
 832      F08B90DE 
 832      6B2F5DF8 
 833 02d2 E2D83CD9 		.ascii	"\342\330<\331\277@\000u\021L]\363\345H\251\011\224\251"
 833      BF400075 
 833      114C5DF3 
 833      E548A909 
 833      94A9
 834 02e4 CA6FAB6A 		.ascii	"\312o\253j5\241\035\317\241j\015!\376J\242\234&`\037"
 834      35A11DCF 
 834      A16A0D21 
 834      FE4AA29C 
 834      26601F
 835 02f7 0416E1D8 		.ascii	"\004\026\341\330~{\307\216\366t\372^!\307\236\310\355"
 835      7E7BC78E 
 835      F674FA5E 
 835      21C79EC8 
 835      ED
 836 0308 D8815C8E 		.ascii	"\330\201\\\216=\231v\354 :\326\\\212\322\234\367n\310"
ARM GAS  /tmp/cc2EPMER.s 			page 67


 836      3D9976EC 
 836      203AD65C 
 836      8AD29CF7 
 836      6EC8
 837 031a 8D949AD8 		.ascii	"\215\224\232\330G}`.\324\205\022\217ei\027nb}*K\273"
 837      477D602E 
 837      D485128F 
 837      6569176E 
 837      627D2A4B 
 838 032f 18BAD72E 		.ascii	"\030\272\327.NSY\244\377\356N\246j_3\301\255e\021\253"
 838      4E5359A4 
 838      FFEE4EA6 
 838      6A5F33C1 
 838      AD6511AB 
 839 0343 98ADDD30 		.ascii	"\230\255\3350\220\027~\223\000.\2124,\363\275\257\273"
 839      90177E93 
 839      002E8A34 
 839      2CF3BDAF 
 839      BB
 840 0354 77A34EAE 		.ascii	"w\243N\256\365\001\300\031\234\200V\217V\307O\246eY"
 840      F501C019 
 840      9C80568F 
 840      56C74FA6 
 840      6559
 841 0366 9AB4A5E7 		.ascii	"\232\264\245\347\330\367\350\263\252y\021\267\246\376"
 841      D8F7E8B3 
 841      AA7911B7 
 841      A6FE
 842 0374 213E7F09 		.ascii	"!>\177\011\213\033\375\033h\204\271\302\265\214\025"
 842      8B1BFD1B 
 842      6884B9C2 
 842      B58C15
 843 0383 DE40EFCE 		.ascii	"\336@\357\316\311\025>\222\305k\232\235\327\242\373"
 843      C9153E92 
 843      C56B9A9D 
 843      D7A2FB
 844 0392 631A493B 		.ascii	"c\032I;oJ\2231\340w\251\256\361f\373\214_\251cp\301"
 844      6F4A9331 
 844      E077A9AE 
 844      F166FB8C 
 844      5FA96370 
 845 03a7 54D7F639 		.ascii	"T\327\3669'\004sGZh\335.f\251\333[T\267Q\263n\022\373"
 845      27047347 
 845      5A68DD2E 
 845      66A9DB5B 
 845      54B751B3 
 846 03be 01C3C905 		.ascii	"\001\303\311\005~I\371-\375\336j\2717\311rch9\311{\034"
 846      7E49F92D 
 846      FDDE6AB9 
 846      37C97263 
 846      6839C97B 
 847 03d3 2DC7708F 		.ascii	"-\307p\217\342\014\277\0248\322]\"w\264\020\327U\317"
 847      E20CBF14 
 847      38D25D22 
 847      77B410D7 
 847      55CF
 848 03e5 391196E4 		.ascii	"9\021\226\344C\334c\233!=\373j\234H\257\306sYV\343e"
ARM GAS  /tmp/cc2EPMER.s 			page 68


 848      43DC639B 
 848      213DFB6A 
 848      9C48AFC6 
 848      735956E3 
 849 03fa B3C5481E 		.ascii	"\263\305H\036q\263\353\255J\247\012\021%\203\346\201"
 849      71B3EBAD 
 849      4AA70A11 
 849      2583E681 
 850 040a 0993419E 		.ascii	"\011\223A\236-\003O\246\355\374pEb\273\315\330WU\373"
 850      2D034FA6 
 850      EDFC7045 
 850      62BBCDD8 
 850      5755FB
 851 041d EAC0F625 		.ascii	"\352\300\366%\003y\027Tl\031\350\332\274@\3271\320%"
 851      03791754 
 851      6C19E8DA 
 851      BC40D731 
 851      D025
 852 042f 089F09E5 		.ascii	"\010\237\011\345\233\2140\0269\3616\3508m\270rx\314"
 852      9B8C3016 
 852      39F136E8 
 852      386DB872 
 852      78CC
 853 0441 14186D8B 		.ascii	"\024\030m\213=\206u\302\342Z\253\324\322\037\251\317"
 853      3D8675C2 
 853      E25AABD4 
 853      D21FA9CF 
 854 0451 B756E9C6 		.ascii	"\267V\351\306\374*\305\006\276]g-\322\315t\221\376\300"
 854      FC2AC506 
 854      BE5D672D 
 854      D2CD7491 
 854      FEC0
 855 0463 0FB76294 		.ascii	"\017\267b\224\352<\377\305\333\370Y\341d\370\261\007"
 855      EA3CFFC5 
 855      DBF859E1 
 855      64F8B107 
 856 0473 09CCADFA 		.ascii	"\011\314\255\372\256\250i\036\232p/\316\304\302K\370"
 856      AEA8691E 
 856      9A702FCE 
 856      C4C24BF8 
 857 0483 7FE628D1 		.ascii	"\177\346(\321j*\321-k\211&\251\025\250\242$\206\266"
 857      6A2AD12D 
 857      6B8926A9 
 857      15A8A224 
 857      86B6
 858 0495 79550A7C 		.ascii	"yU\012|\013*\212\012Y-[a\"\007h\253\334{n\233mZ\242"
 858      0B2A8A0A 
 858      592D5B61 
 858      220768AB 
 858      DC7B6E9B 
 859 04ac DE31F79E 		.ascii	"\3361\367\236/\227\375\037\205w\037\246p\312\212\365"
 859      2F97FD1F 
 859      85771FA6 
 859      70CA8AF5 
 860 04bc 1729F4A9 		.ascii	"\027)\364\251=\350t\216\224\372l\001\337 \300\351\034"
 860      3DE8748E 
 860      94FA6C01 
ARM GAS  /tmp/cc2EPMER.s 			page 69


 860      DF20C0E9 
 860      1C
 861 04cd 801B08F0 		.ascii	"\200\033\010\360okJg\010Pv\260\272D.@\373|J\205\377"
 861      6F6B4A67 
 861      085076B0 
 861      BA442E40 
 861      FB7C4A85 
 862 04e2 3C4CE1BF 		.ascii	"<L\341\277V\205\263\012\220\332\322T\374Y\271\267\234"
 862      5685B30A 
 862      90DAD254 
 862      FC59B9B7 
 862      9C
 863 04f3 B56E340D 		.ascii	"\265n4\015\326\033\372\"gW\301\210&\343K\345\006\225"
 863      D61BFA22 
 863      6757C188 
 863      26E34BE5 
 863      0695
 864 0505 D1BEF253 		.ascii	"\321\276\362S\364\017\005$\261\211\340\006\200\221\015"
 864      F40F0524 
 864      B189E006 
 864      80910D
 865 0514 FE08BB8E 		.ascii	"\376\010\273\216\301Sq]\316\240c\022w\222\260\033\327"
 865      C153715D 
 865      CEA06312 
 865      7792B01B 
 865      D7
 866 0525 41C1CA95 		.ascii	"A\301\312\225\001\365\263\276,PZ\036(+\015\006\202\305"
 866      01F5B3BE 
 866      2C505A1E 
 866      282B0D06 
 866      82C5
 867 0537 65C1E2B5 		.ascii	"e\301\342\265+\203\214\257//\321\202%ZyI\341\003\303"
 867      2B838CAF 
 867      2F2FD182 
 867      255A7949 
 867      E103C3
 868 054a DE7D2FB8 		.ascii	"\336}/\270\356\375\265\357\244\207\0263^\276\241\344"
 868      EEFDB5EF 
 868      A4871633 
 868      5EBEA1E4 
 869 055a 3FD13853 		.ascii	"?\3218S'"
 869      27
 870              		.text
 871              		.section	.gnu.lto_.symbol_nodes.5c3a872a074d49ef,"",%progbits
 872 0000 789C55CF 		.ascii	"x\234U\317\273J\003a\024\004\340\371\347lvc6\331\210"
 872      BB4A0361 
 872      1404E0F9 
 872      E76C7663 
 872      36D988
 873 0013 9585A0BE 		.ascii	"\225\205\240\276\203\3577\177Tb\251XX\033\021\357\327"
 873      83EF377F 
 873      5462A958 
 873      581B11EF 
 873      D7
 874 0024 4012B5B0 		.ascii	"@\022\265\260\020k\237 \225li\235J\301]\215\340\251"
 874      106B9F20 
 874      956C699D 
ARM GAS  /tmp/cc2EPMER.s 			page 70


 874      4AC15D8D 
 874      E0A9
 875 0036 86F9E634 		.ascii	"\206\371\3464'A\300V\000\300g*`\357\015\020\302c\034"
 875      2741C056 
 875      00C0672A 
 875      60EF0D10 
 875      C2631C
 876 0049 C435A071 		.ascii	"\3045\240qB\364\226\352\361\222\302|\304\303\341 Ze"
 876      42F496EA 
 876      F192C27C 
 876      C4C3E120 
 876      5A65
 877 005b A714FFEC 		.ascii	"\247\024\377\354)\256WrF\231\227s*\361rA5\274\\Q\251"
 877      29AE5772 
 877      46999773 
 877      2AF17241 
 877      35BC5C51 
 878 0070 976B2AF3 		.ascii	"\227k*\363rK5\275\334Q\013^\356\251\226\227\033*\367"
 878      724B35BD 
 878      DC510B5E 
 878      EEA99697 
 878      1B2AF7
 879 0083 32A4DA4E 		.ascii	"2\244\332N\302\210\352\374\010\020\353\237\303\204*"
 879      C288EAFC 
 879      0810EB9F 
 879      C3842A
 880 0092 1C8CA9EE 		.ascii	"\034\214\251\356\1770\002G\373\345\212\245\005^w>V-"
 880      7F300247 
 880      FBE58AA5 
 880      055E773E 
 880      562D
 881 00a4 5B44F939 		.ascii	"[D\3719\015\226\245\330\374\252\263\213\343\376l\271"
 881      0D96A5D8 
 881      FCAAB38B 
 881      E3FE6CB9 
 882 00b4 EEEFFD69 		.ascii	"\356\357\375ib\315\002\333\007\263\314Z\005\312\335"
 882      62CD02DB 
 882      07B3CC5A 
 882      05CADD
 883 00c3 EA3E9F67 		.ascii	"\352>\237g;\307\313h\303:\277\025\337h\245cN"
 883      3BC7CB68 
 883      C33ABF15 
 883      DF68A563 
 883      4E
 884              		.text
 885              		.section	.gnu.lto_.refs.5c3a872a074d49ef,"",%progbits
 886 0000 789C658C 		.ascii	"x\234e\214A\022\304 \010\004\351AQ\023\267j\217yA>\236"
 886      4112C420 
 886      0804E941 
 886      5113B76A 
 886      8F79413E 
 887 0015 8F2EBAC7 		.ascii	"\217.\272\307\\\206\251n\240\030\366\230e\012\206\203"
 887      5C86A96E 
 887      A018F698 
 887      650A8683 
 888 0025 443617D9 		.ascii	"D6\027\331+\204\010h\242Q\026\253\0315\014l\331.\006"
 888      2B840868 
ARM GAS  /tmp/cc2EPMER.s 			page 71


 888      A25116AB 
 888      19350C6C 
 888      D92E06
 889 0038 4C6F9677 		.ascii	"Lo\226wrc\226\236N\034\342\202[co\2268\376s\177\352"
 889      7263969E 
 889      4E1CE282 
 889      5B636F96 
 889      38FE737F 
 890 004d 708A6F9C 		.ascii	"p\212o\234o\246\271\231\307\347\355\354\007\017-\002"
 890      6FA6B999 
 890      C7E7EDEC 
 890      070F2D02 
 891 005d D1       		.ascii	"\321"
 892              		.text
 893              		.section	.gnu.lto_.decls.5c3a872a074d49ef,"",%progbits
 894 0000 789CBD7B 		.ascii	"x\234\275{iX\024Y\226h\336\270\311\226$`\253SS\375\015"
 894      69581459 
 894      9668DEB8 
 894      C9962460 
 894      AB5353FD 
 895 0015 3D53AFDA 		.ascii	"=S\257\332\236\342}\337Sj\353\352\232\231\367\346Uu"
 895      9EE27DDF 
 895      536AEBEA 
 895      9A99F7E6 
 895      5575
 896 0027 F57497F3 		.ascii	"\365t\227\363\275\236\257\246\354\252\327\325\257k\262"
 896      BD9EAFA6 
 896      ECAAD7D5 
 896      AF6BB2
 897 0036 5248852E 		.ascii	"RH\205.\266J\022-\177\3147)\240\010.\200 \010\210\""
 897      B64A122D 
 897      7FCC3729 
 897      A0082E80 
 897      20088822 
 898 004a E0828020 		.ascii	"\340\202\200 \213(\213\246\210\200\342\202\202(\"\233"
 898      8B288BA6 
 898      8880E282 
 898      8228229B 
 899 005a B2080A88 		.ascii	"\262\010\012\210 \250l\357\334%2\"\223H\313\371\321"
 899      20A86CEF 
 899      DC253222 
 899      9348CBF9 
 899      D1
 900 006b 831E224E 		.ascii	"\203\036\"N\304\271g?'\356\275\021\250UHE~\014\377\240"
 900      C4B9673F 
 900      27EEBD11 
 900      A8554845 
 900      7E0CFFA0 
 901 007f 52FD8DAB 		.ascii	"R\375\215\253J\325\354\242R-\300\217'\\\373\022\000"
 901      4AD5ECA2 
 901      522DC08F 
 901      275CFB12 
 901      00
 902 0090 03780314 		.ascii	"\003x\003\024\000\274\245b?K\000\212\000J\001N\002\354"
 902      00BCA562 
 902      3F4B008A 
 902      004A014E 
ARM GAS  /tmp/cc2EPMER.s 			page 72


 902      02EC
 903 00a2 0016BB00 		.ascii	"\000\026\273\000v\003\244\003\034\0008\002\220\007\220"
 903      7603A403 
 903      1C003802 
 903      900790
 904 00b1 0F500850 		.ascii	"\017P\010P\004P\006p\031\240\005\200H}]P\331\374\020"
 904      04500670 
 904      19A00580 
 904      487D5D50 
 904      D9FC10
 905 00c4 7EA2DCA5 		.ascii	"~\242\334\245\000\313\001\276\000\370\0121\331\177\200"
 905      00CB01BE 
 905      00F80A31 
 905      D97F80
 906 00d3 E31F01EA 		.ascii	"\343\037\001\352\340\034\301\330\037\003\324\022\375"
 906      E01CC1D8 
 906      1F03D412 
 906      FD
 907 00e0 E0F8DF00 		.ascii	"\340\370\337\000\234\341<\032\356\353\000\242\000<\341"
 907      9CE13C1A 
 907      EEEB00A2 
 907      003CE1
 908 00ef DA33387E 		.ascii	"\33238~\215\330\275R\256\353O\341\372\317\000\336\002"
 908      8DD8BD52 
 908      AEEB4FE1 
 908      FACF00DE 
 908      02
 909 0100 582928EB 		.ascii	"X)(\353B\354\373+\007\2728s\237\230\340<\030\331\352"
 909      42ECFB2B 
 909      07BA3873 
 909      9F98E03C 
 909      18D9EA
 910 0113 4074F404 		.ascii	"@t\364\004\010\004\210\000x\007\256\275\013\360H\305"
 910      08048800 
 910      7807AEBD 
 910      0BF048C5 
 911 0123 749F80E3 		.ascii	"t\237\200\343{\200\377\245 \331\360>@\011\\\327\000"
 911      7B80FFA5 
 911      20D9F03E 
 911      40095CD7 
 911      00
 912 0134 FC3BD004 		.ascii	"\374;\320\004\000\204\003\004!f\317\327\334\246M2\233"
 912      00840304 
 912      2166CFD7 
 912      DCA64D32 
 912      9B
 913 0145 B45CC70F 		.ascii	"\264\\\307\017\000\377\020\340\357\271-r\333\376\021"
 913      00FF10E0 
 913      EFB92D72 
 913      DBFE11
 914 0154 E02381D9 		.ascii	"\340#\201\331Ll'z\177\014\370/\001>\001\370\025\300"
 914      4C6C277A 
 914      7F0CF82F 
 914      013E01F8 
 914      15C0
 915 0166 3F098B6D 		.ascii	"?\011\213m'1\325\332\331N\364\224\353Ml\371\212\307"
 915      2731D5DA 
ARM GAS  /tmp/cc2EPMER.s 			page 73


 915      D94EF494 
 915      EB4D6CF9 
 915      8AC7
 916 0178 82C4E6D7 		.ascii	"\202\304\346\327p\315E%\351\247\343z\277\000\230\007"
 916      70CD4525 
 916      E9A7E37A 
 916      BF009807 
 917 0188 98031038 		.ascii	"\230\003\0208\357\177v\340s\242\247\207L\246<\356\304"
 917      EF7F76E0 
 917      73A2A787 
 917      4CA63CEE 
 917      C4
 918 0199 A7DEAAC5 		.ascii	"\247\336\252\305:\020\275\210\016.\334w\242|y\036|\315"
 918      3A10BD88 
 918      0E2EDC77 
 918      A27C791E 
 918      7CCD
 919 01ab F36D07D7 		.ascii	"\363m\007\327\341_\025l\336\365g\226\275\213\313\376"
 919      E15F156C 
 919      DEF56796 
 919      BD8BCBFE 
 920 01bb BD826C52 		.ascii	"\275\202lR7b\336\023Yr\035\3442\377\300e\376\221\353"
 920      3762DE13 
 920      59721DE4 
 920      32FFC065 
 920      FE91EB
 921 01ce F3159C97 		.ascii	"\363\025\234\227\"\311\357\323\210\351!\372_\314\035"
 921      22C9EFD3 
 921      88E921FA 
 921      5FCC1D
 922 01dd CC657C2D 		.ascii	"\314e|-\260\032T\362=\251\333\037\313\354\237\340\272"
 922      B01A54F2 
 922      3DA9DB1F 
 922      CBEC9FE0 
 922      BA
 923 01ee A400D4F3 		.ascii	"\244\000\324\363X\377\233\300|\"\327IG|\200X\177\270"
 923      58FF9BC0 
 923      7C22D749 
 923      477C8058 
 923      7FB8
 924 0200 01C76F00 		.ascii	"\001\307o\000O\204\243\036\216~\000\376\000\006\200"
 924      4F84A31E 
 924      8E7E00FE 
 924      000680
 925 020f 26C4F427 		.ascii	"&\304\364'u\241\226\351\033\300\363\332\211\353@zC\021"
 925      75A196E9 
 925      1BC0F3DA 
 925      89EB407A 
 925      4311
 926 0221 D7F7B203 		.ascii	"\327\367\262\003]\017p\037\311\363\363+^[\366\372\211"
 926      5D0F701F 
 926      C9F3F32B 
 926      5E5BF6FA 
 926      89
 927 0232 32EB5452 		.ascii	"2\353TR\034\305\330\211\376\323(\350\023%\363\245\030"
 927      1CC5D889 
 927      FED328E8 
ARM GAS  /tmp/cc2EPMER.s 			page 74


 927      1325F3A5 
 927      18
 928 0243 4FD19744 		.ascii	"O\321\227D\376\016\336\317\210jA\0121=\302\371f\313"
 928      FE0EDECF 
 928      886A410A 
 928      313DC2F9 
 928      66CB
 929 0255 E259A710 		.ascii	"\342Y\247\020\323?r\2778\331\325\016\221?\315\355?\342"
 929      D33F72BF 
 929      38D9D50E 
 929      913FCDED 
 929      3FE2
 930 0267 C00FA4BF 		.ascii	"\300\017\244\277.Q\360\203\275\017~,\223#\372\240N\226"
 930      2E51F083 
 930      BD0F7E2C 
 930      9323FAA0 
 930      4E96
 931 0279 3FAE32FB 		.ascii	"?\2562\373\355s\347\337\271.j.\357kA\262]I\247\374\377"
 931      ED73E7DF 
 931      B92E6A2E 
 931      EF6B41B2 
 931      5D49A7FC 
 932 028e 629DF2B9 		.ascii	"b\235\362\271N\273^\242\023y\376\270s\235\224t\021\365"
 932      4EBB5EA2 
 932      1379FEB8 
 932      739D9474 
 932      11F5
 933 02a0 20F28301 		.ascii	" \362\203\001/W9\216\007\346\374B\005&[I^\321\177\261"
 933      2F57398E 
 933      07E6FC42 
 933      05265B49 
 933      5ED17FB1 
 934 02b4 0F8A5EC1 		.ascii	"\017\212^\301\007s\002\352~~\364\327\253\012\314\360"
 934      077302EA 
 934      7E7EF4D7 
 934      AB0ACCF0 
 935 02c4 9360360B 		.ascii	"\223`6\013\202t\343zt\361><)\240\245\032\244\006t\374"
 935      8274E37A 
 935      74F13E3C 
 935      29A0A51A 
 935      A40674FC 
 936 02d8 4AFA7D4F 		.ascii	"J\372}O@\227k\320\033\200\036/\230)\326\250\211\312"
 936      40976BD0 
 936      1B801E2F 
 936      9829D6A8 
 936      89CA
 937 02ea 5F68D15A 		.ascii	"_h\321Z5\031p{K\353~\341\365\024\312*\312\374\206\032"
 937      3519707B 
 937      4BEB7EE1 
 937      F514CA2A 
 937      CAFC861A 
 938 02fe 7DF91ACA 		.ascii	"}\371\032\312C\336\350(\002\023P>z\035~\037Cj\306\335"
 938      43DEE828 
 938      0213503E 
 938      7A1D7E1F 
 938      436AC6DD 
 939 0312 7CC01C2F 		.ascii	"|\300\034/h\343\314\346HB\274\264\321\223\020\310\310"
ARM GAS  /tmp/cc2EPMER.s 			page 75


 939      68E3CCE6 
 939      4842BCB4 
 939      D19310C8 
 939      C8
 940 0323 0B90161D 		.ascii	"\013\220\026\035A\253T\354\024\006\324\264\314\\Uw\240"
 940      41AB54EC 
 940      1406D4B4 
 940      CC5C5577 
 940      A0
 941 0334 76E222B4 		.ascii	"v\342\"\264\204*\211\020\373\215(\250\030P\224z\222"
 941      842A8910 
 941      FB8D28A8 
 941      1850947A 
 941      92
 942 0345 DB2C5E42 		.ascii	"\333,^B\"!\307\005\361TeeF\377\363\361t\276C\177(\023"
 942      2221C705 
 942      F1546565 
 942      46FFF3F1 
 942      74BE437F 
 943 035b 893BE283 		.ascii	"\211;\342\203\030\316\007\253\020\307\005I\000b\250"
 943      18CE07AB 
 943      10C70549 
 943      0062A8
 944 036a 3840C68F 		.ascii	"8@\306\217\251\313\331I:[mBb\014\342\306g\032\234\261"
 944      A9CBD949 
 944      3A5B6D42 
 944      620CE2C6 
 944      671A9CB1 
 945 037e 3B22E74D 		.ascii	";\"\347Mi9\227\234\336\3142[\212\315=7g\337\312,1\233"
 945      6939979C 
 945      DECC325B 
 945      8ACD3D37 
 945      67DFCA2C 
 946 0394 63C17D6A 		.ascii	"c\301}j\352\270\343\010\213\356\202Sr(D\035\300\264"
 946      EAB8E308 
 946      8BEE8253 
 946      7228441D 
 946      C0B4
 947 03a6 08BD0943 		.ascii	"\010\275\011C\017N&\215{b_\312\346?\035\270\022\032"
 947      0F4E268D 
 947      7B625FCA 
 947      E63F1DB8 
 947      121A
 948 03b8 B81362E0 		.ascii	"\270\023b\340\316\231c2\271\032\346\022\213\031E\303"
 948      CE996332 
 948      B91AE612 
 948      8B1945C3 
 949 03c8 284C8850 		.ascii	"(L\210P\261\244C\261\\\207R\252C}LW\205\032\377/\252"
 949      B1A443B1 
 949      5C8752AA 
 949      437D4C57 
 949      851AFF2F 
 950 03dd C3DCC58C 		.ascii	"\303\334\305\214t\307\002\313\251\300\265\\\336\341"
 950      74C702CB 
 950      A9C0B55C 
 950      DEE1
 951 03eb DAA73108 		.ascii	"\332\2471\010\344e\025\233-I[q\232\331B$\012\204\012"
ARM GAS  /tmp/cc2EPMER.s 			page 76


 951      E465159B 
 951      2D495B71 
 951      9AD94224 
 951      0A840A
 952 03fe 954912CB 		.ascii	"\225I\022\313\344\022OR\211\327\315\226\005\214\177"
 952      E4124F52 
 952      89D7CD96 
 952      058C7F
 953 040d 4B25568C 		.ascii	"K%V\214\346Wx\260d\266\020\374\350\300\276]Z\206\177"
 953      E65778B0 
 953      64B610FC 
 953      E8C0BE5D 
 953      5A867F
 954 0420 08686B73 		.ascii	"\010hks\327!\214\277\242\244\235\215y\371$\357\337\322"
 954      D7218CBF 
 954      A2A49D8D 
 954      79F924EF 
 954      DFD2
 955 0432 20122D2F 		.ascii	" \022-/\270T\364\350\364s\017v\211P\334\210\177\222"
 955      B854F4E8 
 955      F4730F76 
 955      8950DC88 
 955      7F92
 956 0444 EB82D792 		.ascii	"\353\202\327\222s\241~gi\211;\362\321\034&\306dU5x\233"
 956      73A17E67 
 956      69893BF2 
 956      D11C26C6 
 956      64553578 
 957 0459 CDAEE82C 		.ascii	"\315\256\350,\322\240\032I\267\267H\313\337&\245\272"
 957      D2A01A49 
 957      B7B748CB 
 957      DF26A5BA 
 958 0469 CA6A2C3A 		.ascii	"\312j,:\203|\010WB\210\252\341b\025\\\004\011y\271\211"
 958      837C0857 
 958      4288AAE1 
 958      62155C04 
 958      0979B989 
 959 047d D9CEB803 		.ascii	"\331\316\270\003Q\021ie\307\2465\242\210\236\264\370"
 959      51116965 
 959      C7A635A2 
 959      889EB4F8 
 960 048d F7A15A97 		.ascii	"\367\241Z\227\240Z\220a\221d\200H\207B\316)\0131'\317"
 960      A05A9061 
 960      91648048 
 960      8742CE29 
 960      0B3127CF 
 961 04a1 1CF0C00D 		.ascii	"\034\360\300\015\002\025\222\221z\266\306\011i|\224"
 961      02159291 
 961      7AB6C609 
 961      697C94
 962 04b0 395C50E0 		.ascii	"9\\P\340\300\3249\233\342[C\324\251\003u\316K\352\324"
 962      C0D4399B 
 962      E25B43D4 
 962      A90375CE 
 962      4BEAD4
 963 04c3 527540C8 		.ascii	"Ru@\310\335\322\235\347]\3616L\035\227^5y\311\211y\335"
 963      DDD29DE7 
ARM GAS  /tmp/cc2EPMER.s 			page 77


 963      5DF1364C 
 963      1D975E35 
 963      79C98979 
 964 04d8 15D084BB 		.ascii	"\025\320\204\273\317\253\335q\002\273\227?\035]\356"
 964      CFABDD71 
 964      02BB973F 
 964      1D5DEE
 965 04e7 85F7609B 		.ascii	"\205\367`\233p-\347\341z\221t\272\334\035g\260\233u"
 965      702DE7E1 
 965      7A9174BA 
 965      DC1D67B0 
 965      9B75
 966 04f9 F75B1A9D 		.ascii	"\367[\032\235\360A\206d\325\366\256\304%\354\274rO\365"
 966      F0418664 
 966      D5F6AEC4 
 966      25ECBC72 
 966      4FF5
 967 050b 882BAE60 		.ascii	"\210+\256`\310\271\271\366}\032\334\300\220\033\217"
 967      C8B9B9F6 
 967      7D1ADCC0 
 967      901B8F
 968 051a 2F67BA33 		.ascii	"/g\2723\301K\000=9p\261^\303\330\233\021\340\263\207"
 968      C14B003D 
 968      3970B15E 
 968      C3D89B11 
 968      E0B387
 969 052d AEDD76C5 		.ascii	"\256\335v\305\327\030mUEu=W\362m@\243\3722{=\361mv\257"
 969      D7186D55 
 969      45753D57 
 969      F26D40A3 
 969      FA327B3D 
 970 0545 3E3E7A87 		.ascii	">>z\207\006\367RD(\031\310\310t\023\343b\271\201\226"
 970      06F75244 
 970      2819C8C8 
 970      7413E362 
 970      B98196
 971 0558 A05BE084 		.ascii	"\240[\340\204\233\366NP\366h\233rL2&:\207\334\230p\037"
 971      9BF64E50 
 971      F6689B72 
 971      4C32263A 
 971      87DC9870 
 972 056d 92079513 		.ascii	"\222\007\225\023\207\234\361\010\023~oa\376Ox\212\235"
 972      879CF108 
 972      137E6F61 
 972      FE4F788A 
 972      9D
 973 057e C716C4D6 		.ascii	"\307\026\304\326{\342y\206d\237\255z\344\202w\251)\""
 973      7BE27986 
 973      649FAD7A 
 973      E48277A9 
 973      2922
 974 0590 F6E9A5AC 		.ascii	"\366\351\245\254O\037\035\356\236\3058\223\335\353\275"
 974      4F1F1DEE 
 974      9EC53893 
 974      DDEBBD
 975 059f DB50EC89 		.ascii	"\333P\354\211\0170\244j:\243\312\013\037f\310\225\373"
 975      0F30A46A 
ARM GAS  /tmp/cc2EPMER.s 			page 78


 975      3AA3CA0B 
 975      1F66C895 
 975      FB
 976 05b0 0B4F34B8 		.ascii	"\013O4\270\220!\025\351\363\0265.c\310\226\235\205\251"
 976      902115E9 
 976      F316352E 
 976      63C8969D 
 976      85A9
 977 05c2 C457CEAC 		.ascii	"\304W\316\254\034\\\340R\337\343\027'\325\354\0221\375"
 977      1C5CE052 
 977      DFE31727 
 977      D5EC1231 
 977      FD
 978 05d3 7BB89499 		.ascii	"{\270\224\231v\367\204'>E\207\010g\247\213\352]\255"
 978      76F78427 
 978      3E458708 
 978      67A78BEA 
 978      5DAD
 979 05e5 095BD5F0 		.ascii	"\011[\325\360\277O\221\014\031\004\347\364K\316q\346"
 979      BF4F910C 
 979      1904E7F4 
 979      4BCE71E6 
 980 05f5 BE312FF6 		.ascii	"\2761/\366\315\000\370\306\231\373\246\017.\336g\276"
 980      CD00F8C6 
 980      99FBA60F 
 980      2EDE67BE 
 981 0605 79F2FC71 		.ascii	"y\362\374q\231\032\3272\0315q\217j\334dE\261*\237\310"
 981      991AD732 
 981      1935718F 
 981      6ADC6445 
 981      B12A9FC8 
 982 0619 1806190F 		.ascii	"\030\006\031\017$\031\203\310\261\220!e!\275\346\231"
 982      241983C8 
 982      B1902165 
 982      21BDE699 
 983 0629 342DBEC4 		.ascii	"4-\276\304\204T\305uv\252YQ(p\030Q\340\300\213\242\355"
 983      8454C575 
 983      76AA5951 
 983      28701851 
 983      E0C08BA2 
 984 063e E7B4281E 		.ascii	"\347\264(\036\201:\017%u\206\305\242\330\276g\344\260"
 984      813A0F25 
 984      7586C5A2 
 984      D8BE67E4 
 984      B0
 985 064f 276E660E 		.ascii	"'nf\016\236y\220\334\216X\300\310s.\262\252=\321\213"
 985      9E7990DC 
 985      8E58C0C8 
 985      732EB2AA 
 985      3DD18B
 986 0662 E5660F4D 		.ascii	"\345f\017M\335\027\333\346\325\270\223\321\336\332\321"
 986      DD17DBE6 
 986      D5B893D1 
 986      DEDAD1
 987 0671 D2E18CFB 		.ascii	"\322\341\214\373\231v%\261\355iN\016\265\233t\244\235"
 987      997625B1 
 987      ED694E0E 
ARM GAS  /tmp/cc2EPMER.s 			page 79


 987      B59B74A4 
 987      9D
 988 0682 E50C64EA 		.ascii	"\345\014d\352\004h\366DA\263\372kY\023\256\370!\223"
 988      0468F644 
 988      41B3FA6B 
 988      5913AEF8 
 988      2193
 989 0694 763A7137 		.ascii	"v:q7\324\3238C\272\366n\257r\307\321N\0249\023\377\344"
 989      D4D33843 
 989      BAF66EAF 
 989      72C7D14E 
 989      143913FF 
 990 06a9 941BDECE 		.ascii	"\224\033\336\316\220\230g\367\212\275p\262\223M\245"
 990      909867F7 
 990      8ABD70B2 
 990      934DA5
 991 06b8 2D679536 		.ascii	"-g\2256\034e\351U\343\014v\257hK_\236+\334\363\206T"
 991      1C65E955 
 991      E30C76AF 
 991      684B5F9E 
 991      2BDCF386 
 992 06cd 42B2B6EA 		.ascii	"B\262\266\352\315\332j\231e\242P\215\263(\255p\275\264"
 992      CDDA6A99 
 992      65A2508D 
 992      B328AD70 
 992      BDB4
 993 06df FD829B2C 		.ascii	"\375\202\233,\207\376\232\346\220Y\320\240yImok}=\316"
 993      87FE9AE6 
 993      9059D0A0 
 993      79496D6F 
 993      6B7D3DCE 
 994 06f3 363BBFAE 		.ascii	"6;\277\256B\357y\243\267\301\366\005\260\335\233\333"
 994      42EF79A3 
 994      B7C1F605 
 994      B0DD9BDB 
 995 0703 3E07B6CF 		.ascii	">\007\266\317\362\256z\340h\235\007>\306\004\214$?\204"
 995      F2AE7AE0 
 995      689D073E 
 995      C6048C24 
 995      3F84
 996 0715 AE242590 		.ascii	"\256$%\2207M\240(\020\260Y\260\012\000y\312\022\"\005"
 996      374DA028 
 996      10B059B0 
 996      0A0079CA 
 996      122205
 997 0728 45099149 		.ascii	"E\011\221I-\005n\270\204IH.,\314\227\312\340l\312*\232"
 997      2D056EB8 
 997      8449482E 
 997      2CCC97CA 
 997      E06CCA2A 
 998 073d 135B4142 		.ascii	"\023[AB\264$!\312\221\204-\312\022\366\244\017\274\216"
 998      B42421CA 
 998      91842DCA 
 998      12F6A40F 
 998      BC8E
 999 074f 2B993FB7 		.ascii	"+\231?\267\357\230/\302\330\302\244M\327\344\224I\335"
 999      EF982FC2 
ARM GAS  /tmp/cc2EPMER.s 			page 80


 999      D8C2A44D 
 999      D7E49449 
 999      DD
 1000 0760 A80C621C 		.ascii	"\250\014b\034\007\222\266\275\202\244XeI\235\231c\023"
 1000      0792B6BD 
 1000      82A45865 
 1000      499D9963 
 1000      13
 1001 0771 6ADCC844 		.ascii	"j\334\310D\345\236/\272\356\202\2572Qs\335#\025\236"
 1001      E59E2FBA 
 1001      EE82AF32 
 1001      5173DD23 
 1001      159E
 1002 0783 56512741 		.ascii	"VQ'A\324.\020\265\343\025D\355T\0265\032\335\337\303"
 1002      D42E10B5 
 1002      E31544ED 
 1002      5416351A 
 1002      DDDFC3
 1003 0796 DBF3EBA4 		.ascii	"\333\363\353\244\333'\357}\017\337b\202G\016]-!\015"
 1003      DB27EF7D 
 1003      0FDF6282 
 1003      470E5D2D 
 1003      210D
 1004 07a8 D14783FE 		.ascii	"\321G\203\376C\2262>,e\366%\336Ku\303]L\255=y\317\262"
 1004      4396323E 
 1004      2C65F625 
 1004      DE4B75C3 
 1004      5D4CAD3D 
 1005 07bf 05F11196 		.ascii	"\005\361\021\226\025e~s\363\011\020y\011\3044\220\202"
 1005      15657E73 
 1005      F3091079 
 1005      09C43490 
 1005      82
 1006 07d0 D803B27D 		.ascii	"\330\003\262}\270\354\335\2027J\024\304r\255j\370:1"
 1006      B8ECDD82 
 1006      374A14C4 
 1006      72AD6AF8 
 1006      3A31
 1007 07e2 86CC2992 		.ascii	"\206\314)\222\301\214$\311\014\037^\0241\321G\343\335"
 1007      C18C24C9 
 1007      0C1F5E14 
 1007      31D147E3 
 1007      DD
 1008 07f3 F11093B2 		.ascii	"\361\020\223\262?q\252J\343X\312^\207R\322\342\377\221"
 1008      3F71AA4A 
 1008      E358CA5E 
 1008      8752D2E2 
 1008      FF91
 1009 0805 3EB85341 		.ascii	">\270SAH\212$$Y\340R\272\212:\352\324\370\011\223R{"
 1009      488A2424 
 1009      59E052BA 
 1009      8A3AEAD4 
 1009      F8099352 
 1010 081a B27DDCD9 		.ascii	"\262}\334\331\261\224\014\207Rf\306\0022[\315\3467P"
 1010      B1940C87 
 1010      5266C602 
 1010      325BCDE6 
ARM GAS  /tmp/cc2EPMER.s 			page 81


 1010      3750
 1011 082c 3A884993 		.ascii	":\210I\223\304\244\212b\016_\177\264\333v\342M(\245"
 1011      C4A48A62 
 1011      0E5F7FB4 
 1011      DB76E24D 
 1011      28A5
 1012 083e D9D73E41 		.ascii	"\331\327>A\313'\237\221\367N\266!|\304\231z\372\346"
 1012      CB279F91 
 1012      F74EB621 
 1012      7CC4997A 
 1012      FAE6
 1013 0850 B39A175A 		.ascii	"\263\232\027Z\\@\021uid\367AH\000o\004\243\020K\003"
 1013      5C401175 
 1013      6964F741 
 1013      48006F04 
 1013      A3104B03 
 1014 0864 B27850A1 		.ascii	"\262xP\241l`\265_\300\342\362\"\335\014\372?\376\017"
 1014      6C60B55F 
 1014      C0E2F222 
 1014      DD0CFA3F 
 1014      FE0F
 1015 0876 7219CE5D 		.ascii	"r\031\316]\351Q!+\016\2005\344\226\012\035\004[\262"
 1015      E951212B 
 1015      0E8035E4 
 1015      960A1D04 
 1015      5BB2
 1016 0888 049A1377 		.ascii	"\004\232\023w\032.G;k8u\302\017Q?\314\037h\363\264\261"
 1016      1A2E473B 
 1016      6B3875C2 
 1016      0F513FCC 
 1016      1F68F3B4 
 1017 089d 2AC7C6AA 		.ascii	"*\307\306\252\\\253U\347\256D\345\271\343\023\314\252"
 1017      5CAB55E7 
 1017      AE44E5B9 
 1017      E313CCAA 
 1018 08ad 7B7307FB 		.ascii	"{s\007\373\\p\005C\236\355\275\230\353\201k\030\262"
 1018      5C700543 
 1018      9EEDBD98 
 1018      EB816B18 
 1018      B2
 1019 08be BBA0F996 		.ascii	"\273\240\371\2263>\307\220\256\343\363\325\316\270\216"
 1019      333EC790 
 1019      AEE3F3D5 
 1019      CEB88E
 1020 08cd 2107EE8E 		.ascii	"!\007\356\216\027\272\340\006\212\010\203\211\207K\241"
 1020      17BAE006 
 1020      8A088389 
 1020      874BA1
 1021 08dc 6FFBC825 		.ascii	"o\373\310%\313&\263\250\000\224\375B\\\311\260z\311"
 1021      CB26B3A8 
 1021      0094FD42 
 1021      5CC9B07A 
 1021      C9
 1022 08ed 68F02273 		.ascii	"h\360\"s\304|A\213\216I\361\371B\313\324\353\211\254"
 1022      C47C418B 
 1022      8E49F1F9 
 1022      42CBD4EB 
ARM GAS  /tmp/cc2EPMER.s 			page 82


 1022      89AC
 1023 08ff 6F71C5CD 		.ascii	"oq\305\315L\324\370h\353\254\007ne\210\371\371\231;"
 1023      4CD4F868 
 1023      EBAC076E 
 1023      6588F9F9 
 1023      993B
 1024 0911 CEF83643 		.ascii	"\316\3706C:\366<\353q\303\035\014i\274\271\375\254\032"
 1024      3AF63CEB 
 1024      71C31D0C 
 1024      69BCB9FD 
 1024      AC1A
 1025 0923 7731E448 		.ascii	"w1\344HS\217\331\011\3672\244:\256i\326\025\3671$\275"
 1025      538FD909 
 1025      F732A43A 
 1025      AE69D615 
 1025      F73124BD 
 1026 0937 32265283 		.ascii	"2&R\203\007\031\222\2770\021\257\305\303\334\362\352"
 1026      071992BF 
 1026      3011AFC5 
 1026      C3DCF2EA 
 1027 0947 EBD902AB 		.ascii	"\353\331\002\253\277\025\200\036\263lo\304\254\207g"
 1027      BF15801E 
 1027      B36C6FC4 
 1027      AC8767
 1028 0956 097382FB 		.ascii	"\011s\202\373\216\226\266\375\002ZA\177\226\371\300"
 1028      8E96B6FD 
 1028      025A417F 
 1028      96F9C0
 1029 0965 AF6C626D 		.ascii	"\257lbmO\347\3647]7\372\314\346\335ZjL\036\030sFX&\331"
 1029      4FE7F437 
 1029      5D37FACC 
 1029      E6DD5A6A 
 1029      4C1E1873 
 1030 097d DE493DFF 		.ascii	"\336I=\377\016Y\277\322\001\2263\267\264\346\004=%>"
 1030      0E59BFD2 
 1030      019633B7 
 1030      B4E6043D 
 1030      253E
 1031 098f 614FDC40 		.ascii	"aO\334@\211\363\220D\335*Q\037\267\247\216\027\354X"
 1031      89F39044 
 1031      DD2A511F 
 1031      B7A78E17 
 1031      EC58
 1032 09a1 B749C485 		.ascii	"\267I\304\205\312\304r\326\225\022u\251=\265\257=\361"
 1032      CAC472D6 
 1032      951275A9 
 1032      3DB5AF3D 
 1032      F1
 1033 09b2 0D89B8C8 		.ascii	"\015\211\270\310\236\270Y\246u\"/\00332\251P\005\244"
 1033      9EB859A6 
 1033      75222F03 
 1033      3332A950 
 1033      05A4
 1034 09c4 E649908B 		.ascii	"\346I\220\213\312\371\020\0103:\013\311`\021V\240j\200"
 1034      CAF91008 
 1034      333A0BC9 
 1034      601156A0 
ARM GAS  /tmp/cc2EPMER.s 			page 83


 1034      6A80
 1035 09d6 5A80D300 		.ascii	"Z\200\323\000\347\000j\000*\001\252\000N\011+h\351\260"
 1035      E7006A00 
 1035      2A01AA00 
 1035      4E092B68 
 1035      E9B0
 1036 09e8 5C9948D1 		.ascii	"\\\231H\321\222\\\001\006*\236(*\253^\247o-'\213!L5"
 1036      925C0106 
 1036      2A9E282A 
 1036      AB5EA76F 
 1036      2D278B21 
 1037 09fe 2B533443 		.ascii	"+S4C\346\240f\311\212be+d\304\325\022q\211r\240(1Y\225"
 1037      E6A066C9 
 1037      8A62652B 
 1037      64C4D512 
 1037      718972A0 
 1038 0a16 3F4B4F72 		.ascii	"?KOr\263\251;9\261\012\235\267\326]Wu\366\264\007\316"
 1038      B3A93B39 
 1038      B10A9DB7 
 1038      D65D5775 
 1038      F6B407CE 
 1039 0a2a 75210987 		.ascii	"u!\011\207\323\012\272\247\334\320\012\237e,\223f\306"
 1039      D30ABAA7 
 1039      DCD00A9F 
 1039      652C9366 
 1039      C6
 1040 0a3b 3ECBEB62 		.ascii	">\313\353b\231\004\003\320Q\220\331\240l\014sKi\034"
 1040      990403D0 
 1040      5190D9A0 
 1040      6C0C734B 
 1040      691C
 1041 0a4d 754B83AD 		.ascii	"uK\203\255[\022\371<\210\006\300:\266\2163#\001\250"
 1041      5B12F93C 
 1041      8806C03A 
 1041      B68E3323 
 1041      01A8
 1042 0a5f 87005CE0 		.ascii	"\207\000\\\340\016&5\02098\202\361\011\252\022z8\220"
 1042      0E263510 
 1042      393882F1 
 1042      09AA127A 
 1042      3890
 1043 0a71 DF26E093 		.ascii	"\337&\340\223\014\331\327]\333\305\247\341u\004?\331"
 1043      0CD9D75D 
 1043      DBC5A7E1 
 1043      75043FD9 
 1044 0a81 9D1CABE5 		.ascii	"\235\034\253\345\025A6C\006\247\246\332\234\261\205"
 1044      15413643 
 1044      06A7A6DA 
 1044      9CB185
 1045 0a90 11972EE4 		.ascii	"\021\227.\344m\305\270\236\"\377\363\305P\364\230\007"
 1045      6DC5B89E 
 1045      22FFF3C5 
 1045      50F49807 
 1046 0aa0 5AB10CAA 		.ascii	"Z\261\014\252D\273\214\377'\377||\310\001~/gwV@\035"
 1046      44BB8CFF 
 1046      27FF7C7C 
 1046      C8017E2F 
ARM GAS  /tmp/cc2EPMER.s 			page 84


 1046      67775640 
 1047 0ab5 69B5A498 		.ascii	"i\265\244\230|VX\177\340\266\217\017s\311\331\371o."
 1047      7C56587F 
 1047      E0B68F0F 
 1047      73C9D9F9 
 1047      6F2E
 1048 0ac7 3D612E21 		.ascii	"=a.!\253\212V\230\364\\\223\273\244\305Q\3465A\346]"
 1048      AB8A5698 
 1048      F45C93BB 
 1048      A4C551E6 
 1048      3541E65D 
 1049 0adb 22997751 		.ascii	"\"\231wQ`C\210\341[\260\017\212\306+P\024@$\300f\000"
 1049      604388E1 
 1049      5BB00F8A 
 1049      C62B5014 
 1049      4024C066 
 1050 0af0 33C00264 		.ascii	"3\300\002d\334<\300\034\300,\300\014\300\003\200{\000"
 1050      DC3CC01C 
 1050      C02CC00C 
 1050      C003807B 
 1050      00
 1051 0b01 1D005701 		.ascii	"\035\000W\001n\000\\\007h\346\216c)\222\231\364\023"
 1051      6E005C07 
 1051      68E68E63 
 1051      299299F4 
 1051      13
 1052 0b12 967DD0DD 		.ascii	"\226}\320\335.\013v\312\235\262O\250\205\033\336\214"
 1052      2E0B76CA 
 1052      9DB24FA8 
 1052      851BDE8C 
 1053 0b22 9A2C132B 		.ascii	"\232,\023+\355m9\275\250\366\247ws\356-\220\016\365"
 1053      ED6D39BD 
 1053      A8F6A777 
 1053      73EE2D90 
 1053      0EF5
 1054 0b34 CAF494BD 		.ascii	"\312\364\224\275<\363Zm2\257\205e\236\215o\256\303]"
 1054      3CF35A6D 
 1054      32AF8565 
 1054      9E8D6FAE 
 1054      C35D
 1055 0b46 92ECE806 		.ascii	"\222\354\350\006\260l\345\276\331\006\276\211\001_\334"
 1055      B06CE5BE 
 1055      D906BE89 
 1055      015FDC
 1056 0b55 061B6FCA 		.ascii	"\006\033o\312m\354i^\010K\21527\276\215\332@\213F>D"
 1056      6DEC695E 
 1056      084B8D32 
 1056      37BE8DDA 
 1056      408B463E 
 1057 0b6a B163C9D5 		.ascii	"\261c\311\325\270e\243F\333\313\324\210\005\321?\250"
 1057      B865A346 
 1057      DBCBD488 
 1057      05D13FA8 
 1058 0b7a 86E599C1 		.ascii	"\206\345\231\301\034\353\214\332A\207\213\312:,\362"
 1058      1CEB8CDA 
 1058      41878BCA 
 1058      3A2CF2
ARM GAS  /tmp/cc2EPMER.s 			page 85


 1059 0b89 C41D1B15 		.ascii	"\304\035\033\025\310HV%\312\211\262\025$\377\231\022"
 1059      C8485625 
 1059      CA89B215 
 1059      24FF9912 
 1060 0b99 85CC7BE7 		.ascii	"\205\314{\347\303.>\211\246\211|\027\204\264\363`Z\247"
 1060      C32E3E89 
 1060      A6897C17 
 1060      84B4F360 
 1060      5AA7
 1061 0bab 32B71D25 		.ascii	"2\267\035%\262\225\242\027\252\266\213\353\327\003\347"
 1061      B295A217 
 1061      AAB68BEB 
 1061      D703E7
 1062 0bba DD20A3D3 		.ascii	"\335 \243\323\306C\031q<]\210\251W@B\227\203\216\316"
 1062      C6431971 
 1062      3C5D88A9 
 1062      57404297 
 1062      838ECE
 1063 0bcd 0458EC04 		.ascii	"\004X\354\004\\\346#\034\013\330{\2116\304v\236\007"
 1063      5CE6231C 
 1063      0BD87B89 
 1063      36C4769E 
 1063      07
 1064 0bde 8BD9CB9A 		.ascii	"\213\331\313\232S*kN]\266\315\211\315\316\256g\007\356"
 1064      532A6B4E 
 1064      5DB6CD89 
 1064      CDCEAE67 
 1064      07EE
 1065 0bf0 DDBD1966 		.ascii	"\335\275\031fg\304\025W\245\205\014!\226\034\366\321"
 1065      67C41557 
 1065      A5850C21 
 1065      961CF6D1 
 1066 0c00 455EF9F7 		.ascii	"E^\371\367\201\352\216}\366\337\226b\256\334\361\006"
 1066      81EA8E7D 
 1066      F6DF9662 
 1066      AEDCF106 
 1067 0c10 C1847E6E 		.ascii	"\301\204~n\316\000\234\367\331\2302\023#\363\0251\246"
 1067      CE009CF7 
 1067      D9983213 
 1067      23F31531 
 1067      A6
 1068 0c21 5FD91865 		.ascii	"_\331\030e\336\035|\200=of\372\363\030jz\277\262\351"
 1068      DE1D7C80 
 1068      3D6F66FA 
 1068      F3186A7A 
 1068      BFB2E9
 1069 0c34 DFC5C492 		.ascii	"\337\305\304\222I61\352\256dz\277\215\351\277o\344\246"
 1069      493631EA 
 1069      AE647ABF 
 1069      8DE9BF6F 
 1069      E4A6
 1070 0c46 0F09CB51 		.ascii	"\017\011\313Q\227\275\351\235\262\\\331\255\244\237"
 1070      97BDE99D 
 1070      B25CD9AD 
 1070      A49F
 1071 0c54 8A8E23CA 		.ascii	"\212\216#\312\275\000\345\236C\034\237\001L\003L\000"
 1071      BD00E59E 
ARM GAS  /tmp/cc2EPMER.s 			page 86


 1071      431C9F01 
 1071      4C034C00 
 1072 0c64 3C017804 		.ascii	"<\001x\004\360\020`\330\306)\273o\320\370\222N\333\015"
 1072      F01060D8 
 1072      C629BB6F 
 1072      D0F8924E 
 1072      DB0D
 1073 0c76 42091387 		.ascii	"B\011\023\207O\322\211xYo\352\371!\352\346k\224\363"
 1073      4FD28978 
 1073      596FEAF9 
 1073      21EAE66B 
 1073      94F3
 1074 0c88 08D0F63A 		.ascii	"\010\320\366:\246\225\027\357\250M\361\216(\364\217"
 1074      A69517EF 
 1074      A84DF18E 
 1074      28F48F
 1075 0c97 C770778C 		.ascii	"\307pw\2140\030\005\216\243<\032\343`\360c0l\314\246"
 1075      3018058E 
 1075      A33C1AE3 
 1075      60F06330 
 1075      6CCCA6
 1076 0caa FA3A7236 		.ascii	"\372:r6\245\034\331J4 {\021\3678\275R\377\240\364\226"
 1076      A51CD94A 
 1076      34207B11 
 1076      F738BD52 
 1076      FFA0F496 
 1077 0cbe 3B4EA4D7 		.ascii	";N\244\327\220\354l\342\264\326*\261\317\363\366\203"
 1077      90EC6CE2 
 1077      B4D62AB1 
 1077      CFF3F683 
 1078 0cce 88047B74 		.ascii	"\210\004{t\321\334\204\006\362\373j\036H\262\3230\376"
 1078      D1DC8406 
 1078      F2FB6A1E 
 1078      48B2D330 
 1078      FE
 1079 0cdf 435EDA23 		.ascii	"C^\332#\372t\022\374\364\364\325\374\364\224\3149\255"
 1079      FA7412FC 
 1079      F4F4D5FC 
 1079      F494CC39 
 1079      AD
 1080 0cf0 7E9A647E 		.ascii	"~\232d~r\324\005\321\024\270Gj\204bJ\256n\330BR\222"
 1080      72D405D1 
 1080      14B8476A 
 1080      84624AAE 
 1080      6ED84252 
 1081 0d05 B09A9252 		.ascii	"\260\232\222R\262\235\362\022\237\303\277\257\232d\226"
 1081      B29DF212 
 1081      9FC3BFAF 
 1081      9A6496
 1082 0d14 C0936EFA 		.ascii	"\300\223n\372\245\206\020\247\\\345\017:b\366\263\037"
 1082      A58610A7 
 1082      5CE50F3A 
 1082      62F6B31F 
 1083 0d24 A2AEBC4A 		.ascii	"\242\256\274J\223\203\320>wL\313\334\235y\225\272\033"
 1083      9383D03E 
 1083      774CCBDC 
 1083      9D7995BA 
ARM GAS  /tmp/cc2EPMER.s 			page 87


 1083      1B
 1084 0d35 68164F05 		.ascii	"h\026O\005o6y\247\232-\2331\335\\\230\341U\303\227K"
 1084      6F3679A7 
 1084      9A2D9B31 
 1084      DD5C98E1 
 1084      55C3974B 
 1085 0d49 AC665EC8 		.ascii	"\254f^\310g\277M\356\346\342o\350\366@\214\240@\373"
 1085      67BF4DEE 
 1085      E6E26FE8 
 1085      F6408CA0 
 1085      40FB
 1086 0d5b 9E445AC2 		.ascii	"\236DZ\302H\311\362~\273\022\251,\204i\333y\010a\001"
 1086      48C9F27E 
 1086      BB12A92C 
 1086      8469DB79 
 1086      086101
 1087 0d6e 8912EC67 		.ascii	"\211\022\354g\004\213\347\340S\254\245\302\302\014e"
 1087      048BE7E0 
 1087      53ACA5C2 
 1087      C20C65
 1088 0d7d 2A53CB98 		.ascii	"*S\313\230\337\226\372\357!{b\371\034\234/\006$\352"
 1088      DF96FAEF 
 1088      217B62F9 
 1088      1C9C2F06 
 1088      24EA
 1089 0d8f C3CAD4B2 		.ascii	"\303\312\324\262\030\264\\\342\021\243\223D{\362\305"
 1089      18B45CE2 
 1089      11A39344 
 1089      7BF2C5
 1090 0d9e CB9266C6 		.ascii	"\313\222f\306\234Ld\032\225\251e\314\317\3743\241\025"
 1090      9C4C641A 
 1090      95A965CC 
 1090      CFFC33A1 
 1090      15
 1091 0daf CBE9DACB 		.ascii	"\313\351\332\313\312\251\206=6\256)\367N\375a\272AA"
 1091      CAA9863D 
 1091      36AE29F7 
 1091      4EFD61BA 
 1091      4141
 1092 0dc1 52FA8AB4 		.ascii	"R\372\212\264h\274&\353\235\327\027>K=b\226\213k}\231"
 1092      68BC26EB 
 1092      9DD7173E 
 1092      4B3D6296 
 1092      8B6B7D99 
 1093 0dd5 B8093D91 		.ascii	"\270\011=\221\326\252 \315\322\336O3\215\314c\256IE"
 1093      D6AA20CD 
 1093      D2DE4F33 
 1093      8DCC63AE 
 1093      4945
 1094 0de7 D14A6591 		.ascii	"\321Je\221\335\220\364\301B5}\201D\034\314\336 ]\256"
 1094      DD90F4C1 
 1094      42357D81 
 1094      441CCCDE 
 1094      205DAE
 1095 0dfa 9CBFE026 		.ascii	"\234\277\340&\177\241\323nS\234\3331y\243\023\207\371"
 1095      7FA1D36E 
 1095      539CDB31 
ARM GAS  /tmp/cc2EPMER.s 			page 88


 1095      79A31387 
 1095      F9
 1096 0e0b 2B9DFAE4 		.ascii	"+\235\372\344\336/\337\3142\367\220\027Y\017~\222a}"
 1096      DE2FDFCC 
 1096      32F79017 
 1096      590F7E92 
 1096      617D
 1097 0e1d 910564A8 		.ascii	"\221\005d\250B\222X!\177\245\263\003\223W:\027\252R"
 1097      42925821 
 1097      7FA5B303 
 1097      93573A17 
 1097      AA52
 1098 0e2f F6BBE19B 		.ascii	"\366\273\341\233\256t\336\275\371b\353m\027\306\207"
 1098      AE74DEBD 
 1098      F962EB6D 
 1098      17C687
 1099 0e3e 35F0CDE6 		.ascii	"5\360\315\346\254\217(\223\235\330\312\004N%&\273(\223"
 1099      AC8F2893 
 1099      9DD8CA04 
 1099      4E2526BB 
 1099      2893
 1100 0e50 EB2335D5 		.ascii	"\353#5\325\356x\2001i\212;5\210\2505$\311\2315\003\373"
 1100      EE788031 
 1100      698A3B35 
 1100      88A83524 
 1100      C9993503 
 1101 0e65 637A3C1C 		.ascii	"cz<\034\276\236J\244\306$\210\306\324\235\2318\343\311"
 1101      BE9E4AA4 
 1101      C62488C6 
 1101      D49D9938 
 1101      E3C9
 1102 0e77 B5484A92 		.ascii	"\265HJ\222\336O\001\031\212\227\364\210\227\353\261"
 1102      DE4F0119 
 1102      8A97F488 
 1102      97EBB1
 1103 0e86 9BEA513F 		.ascii	"\233\352Q?`\311s\306\223L\217\251\213\251\371\0368\326"
 1103      60C973C6 
 1103      934C8FA9 
 1103      8BA9F91E 
 1103      38D6
 1104 0e98 8DEE2AE4 		.ascii	"\215\356*\344\356\036\263X_*\365t\037[}\200n\351\244"
 1104      EE1EB358 
 1104      5F2AF574 
 1104      1F5B7D80 
 1104      6EE9A4
 1105 0eab 600D4AC6 		.ascii	"`\015J\306\257\364za\017V|\275p\242qf\227\013\265\226"
 1105      AFF47A61 
 1105      0F567CBD 
 1105      70A27166 
 1105      970BB596 
 1106 0ebf F062D63E 		.ascii	"\360b\326>\036}\362\255\325\001\251\230^\233\236\355"
 1106      1E7DF2AD 
 1106      D501A998 
 1106      5E9B9EED 
 1107 0ecf 6B47720F 		.ascii	"kGr\017\220\026%\271 \215\272`\257\350\202\326\261\301"
 1107      901625B9 
 1107      208DBA60 
ARM GAS  /tmp/cc2EPMER.s 			page 89


 1107      AFE882D6 
 1107      B1C1
 1108 0ee1 063731A0 		.ascii	"\00671\240\325\276d\316l&\372\002\031J\222\364M\222"
 1108      D5BE64CE 
 1108      6C26FA02 
 1108      194A92F4 
 1108      4D92
 1109 0ef3 BB209DBA 		.ascii	"\273 \235\272`{Q\301\200\006\237\242V\243\324\336\261"
 1109      607B51C1 
 1109      80069FA2 
 1109      56A3D4DE 
 1109      B1
 1110 0f04 87CE5413 		.ascii	"\207\316T\023\"\215)\327]\231\035\351dM\266}L\273\272"
 1110      228D29D7 
 1110      5D991DE9 
 1110      644DB67D 
 1110      4CBBBA
 1111 0f17 9AFEFB5E 		.ascii	"\232\376\373^\016\343\263\237*\227)*\367x<\376\210\007"
 1111      0EE3B39F 
 1111      2A97292A 
 1111      F7783CFE 
 1111      8807
 1112 0f29 8FCFF374 		.ascii	"\217\317\363t)>@\2062$\3452\344\312\035\240\312e\355"
 1112      293E4086 
 1112      3224E532 
 1112      E4CA1DA0 
 1112      CA65ED
 1113 0f3c 9D1A72C6 		.ascii	"\235\032r\306\027\230rW.\264\354u\301\335\024Q\367\035"
 1113      17987257 
 1113      2EB4EC75 
 1113      C1DD1451 
 1113      F71D
 1114 0f4e 2F6BC3C8 		.ascii	"/k\303\310\215\355\177\371\304\320=\252\310\2547\276"
 1114      8DED7FF9 
 1114      C4D03DAA 
 1114      C8AC37BE 
 1115 0f5e B3EE511D 		.ascii	"\263\356Q\035\002\367gc7`\230\203\275Q.\366f\333_p\205"
 1115      02F76763 
 1115      37609883 
 1115      BD512EF6 
 1115      66DB5F70 
 1116 0f73 6E892DA1 		.ascii	"n\211-\241\247\362}3\354\206\016b\353\276\031\310k\031"
 1116      A7F27D33 
 1116      EC860E62 
 1116      EBBE19C8 
 1116      6B19
 1117 0f85 BD6F7192 		.ascii	"\275oq\222\333HH$#\017c\371;\322\350\302\315q\342;\322"
 1117      DB484824 
 1117      230F63F9 
 1117      3BD2E8C2 
 1117      CD71E23B 
 1118 0f9a F92E5A09 		.ascii	"\371.Z\011f\213"
 1118      668B
 1119 0fa0 9A10A12C 		.ascii	"\232\020\241,\311\304,\271\211G\250\211\221\265O\313"
 1119      C9C42CB9 
 1119      8947A889 
 1119      91B54FCB 
ARM GAS  /tmp/cc2EPMER.s 			page 90


 1120 0fb0 9C703F33 		.ascii	"\234p?313&\277\314\213{j\252\233q\371\210\276g=*19*"
 1120      313326BF 
 1120      CC8B7B6A 
 1120      AA9B71F9 
 1120      88BE673D 
 1121 0fc8 67924799 		.ascii	"g\222G\231<L\356<\352\204\347\030\223\262\303}\251\242"
 1121      3C4CEE3C 
 1121      EA84E718 
 1121      93B2C37D 
 1121      A9A2
 1122 0fda BB9FADB5 		.ascii	"\273\237\255\265y[{L\342rL\316%\237r\311M\236\375\027"
 1122      795B7B4C 
 1122      E2724CCE 
 1122      259F72C9 
 1122      4D9EFD17 
 1123 0fee 9CCCB675 		.ascii	"\234\314\266u\367\334>\321+jR\334%\327\244@\342Q"
 1123      F7DC3ED1 
 1123      2B6A52DC 
 1123      25D7A440 
 1123      E251
 1124 1000 20E75148 		.ascii	" \347QHy\034\251\331\221\211\360!\306d\313\326\202\\"
 1124      791CA9D9 
 1124      9189F021 
 1124      C664CBD6 
 1124      825C
 1125 1012 67EE9449 		.ascii	"g\356\224I?\033M\216K\\\216\313\271\024Q.\233\253\343"
 1125      3F1B4D8E 
 1125      4B5C8ECB 
 1125      B914512E 
 1125      9BABE3
 1126 1025 CAD4B882 		.ascii	"\312\324\270\202qQ\352v\003\363\317\022\245\244<\301"
 1126      7151EA76 
 1126      03F3CF12 
 1126      A5A43CC1 
 1127 1035 92F26651 		.ascii	"\222\362fQW\237\343\246QJ\343U\"&evb[\214;1\320L\266"
 1127      579FE3A6 
 1127      514AE355 
 1127      22266576 
 1127      625B8C3B 
 1128 104d D17E3F5F 		.ascii	"\321~?_\334g\336\266\224R\241bI\267b\236\021\250\214"
 1128      DC67DEB6 
 1128      9452A162 
 1128      49B7629E 
 1128      11A88C
 1129 1060 EA75EF41 		.ascii	"\352u\357A\315\260+\256cz\365\026\324\306:\343\353\014"
 1129      CDB02BAE 
 1129      637AF516 
 1129      D4C63AE3 
 1129      EB0C
 1130 1072 395A919C 		.ascii	"9Z\221\234\357\216\333(\"\354\252\312:\347\206|\264"
 1130      EF8EDB28 
 1130      22ECAACA 
 1130      3AE7867C 
 1130      B4
 1131 1083 D6394E7A 		.ascii	"\3269Nz3)\306\323X\213*d\336CZ\273\351\222\374\373\013"
 1131      3329C6D3 
 1131      588B2A64 
ARM GAS  /tmp/cc2EPMER.s 			page 91


 1131      DE435ABB 
 1131      E992FCFB 
 1132 1098 740A1258 		.ascii	"t\012\022X\372\004\003D<h\234\352w\305\335L\236\245"
 1132      FA040344 
 1132      3C689CEA 
 1132      77C5DD4C 
 1132      9EA5
 1133 10aa ACB2548B 		.ascii	"\254\262T\213\373\0312>\233Y\301\367J\226\003:\327\235"
 1133      FB19323E 
 1133      9B59C1F7 
 1133      4A96033A 
 1133      D79D
 1134 10bc 90E0C2B7 		.ascii	"\220\340\302\267J\310K\236\302\254\211L\214\247\370"
 1134      4AC84B9E 
 1134      C2AC894C 
 1134      8CA7F8
 1135 10cb C099531D 		.ascii	"\300\231S\035Z\374\202\"\232S\355\207\374\020\331O\324"
 1135      5AFC8222 
 1135      9A53ED87 
 1135      FC10D94F 
 1135      D4
 1136 10dc 92FD9115 		.ascii	"\222\375\221\0256S\334\032(\233j(\033T\005*[0\233\342"
 1136      3653DC1A 
 1136      289B6A28 
 1136      1B54052A 
 1136      5B309BE2 
 1137 10f0 368252B5 		.ascii	"6\202R\265\260\030m\0008\017p\021\340\002\226/@:\353"
 1137      B0186D00 
 1137      380F7011 
 1137      E002962F 
 1137      403AEB
 1138 1103 57904757 		.ascii	"W\220GW=\0148+\331\012\343e\363\271\317\256\361\371"
 1138      3D0C382B 
 1138      D90AE365 
 1138      F3B9CFAE 
 1138      F1F9
 1139 1115 5C1D660B 		.ascii	"\\\035f\013 \302\336\341\314\364y\013\237\036\220\206"
 1139      20C2DEE1 
 1139      CCF4790B 
 1139      9F1E9086 
 1140 1125 5989EDA8 		.ascii	"Y\211\355\250\035\254\277\353\261|\012\017r\244\251"
 1140      1DACBFEB 
 1140      B17C0A0F 
 1140      72A4A9
 1141 1134 DA826CDF 		.ascii	"\332\202l\337\344\214=;\331\344D\331\033\347\300\003"
 1141      E48C3D3B 
 1141      D9E444D9 
 1141      1BE7C003 
 1142 1144 AFE20D3E 		.ascii	"\257\342\015>\305jaS\025\314\026\305\213\355d\363\032"
 1142      C56A6153 
 1142      15CC16C5 
 1142      8BED64F3 
 1142      1A
 1143 1155 3E2148A2 		.ascii	">!H\242\363\017\342\253E\363\313\031\321\011$\211N*"
 1143      F30FE2AB 
 1143      45F3CB19 
 1143      D1092489 
ARM GAS  /tmp/cc2EPMER.s 			page 92


 1143      4E2A
 1144 1167 3B81F122 		.ascii	";\201\361\"/\3233\247\263Yu\020\301\254b\2567ev\271"
 1144      2FD333A7 
 1144      B3597510 
 1144      C1AC62AE 
 1144      376576B9 
 1145 117b 392C8E26 		.ascii	"9,\216&Z\034\227\304\342\030\030\236\257\026\213\243"
 1145      5A1C97C4 
 1145      E218189E 
 1145      AF168BA3 
 1146 118b BC32308D 		.ascii	"\27420\215\027\007P\241r)\250\345bq\\\246\305Q\\\023"
 1146      170750A1 
 1146      7229A8E5 
 1146      62715CA6 
 1146      C5515C13 
 1147 119f 7DCD05E7 		.ascii	"}\315\005\347\271;\372\306%>\367\374E\017z\211\330p"
 1147      B93BFAC6 
 1147      253EF7FC 
 1147      450F7A89 
 1147      D870
 1148 11b1 95D56C6E 		.ascii	"\225\325ln\345\363=\310\3728\274\306.\356\233*\331\251"
 1148      E5F33DC8 
 1148      FA38BCC6 
 1148      2EEE9B2A 
 1148      D9A9
 1149 11c3 B6EADFCC 		.ascii	"\266\352\337\314.\226\335\336]\347\351\320\200\033\324"
 1149      2E96DDDE 
 1149      5DE7E9D0 
 1149      801BD4
 1150 11d2 80EBA201 		.ascii	"\200\353\242\001Q\035's]\230\001\226\223\365ZK\002\""
 1150      511D2773 
 1150      5D980196 
 1150      93F55A4B 
 1150      0222
 1151 11e4 14E88AA4 		.ascii	"\024\350\212\244\374\025Q\371\026\252\374\255\311\351"
 1151      FC1551F9 
 1151      16AAFCAD 
 1151      C9E9
 1152 11f2 5A0D2E63 		.ascii	"Z\015.c\312o\353\215i\321\260zzFw)sf\246\235\370\267"
 1152      CA6FEB8D 
 1152      69D1B07A 
 1152      7A467729 
 1152      7366A69D 
 1153 1208 10E4EDFB 		.ascii	"\020\344\355\373\302P{\016\257\267\307\344~\312\300"
 1153      C2507B0E 
 1153      AFB7C7E4 
 1153      7ECAC0
 1154 1217 95276EB8 		.ascii	"\225'n\270\202\015\036\353\215\312\365\302\265\014\311"
 1154      820D1EEB 
 1154      8DCAF5C2 
 1154      B50CC9
 1155 1226 6ADA76D5 		.ascii	"j\332v\325\015\3273\2448a\363f\214\333\030\022i~\030"
 1155      0DD733A4 
 1155      3861F366 
 1155      8CDB1812 
 1155      697E18
 1156 1239 EF44B66D 		.ascii	"\357D\266m\243~\340u\011\036k\316\325\220\"U\336\016"
ARM GAS  /tmp/cc2EPMER.s 			page 93


 1156      A37EE075 
 1156      091E6BCE 
 1156      D5902255 
 1156      DE0E
 1157 124b B8032675 		.ascii	"\270\003&u\362|\354\202|\354\226Wc\317\231\371\217\272"
 1157      F27CEC82 
 1157      7CEC9657 
 1157      63CF99F9 
 1157      8FBA
 1158 125d C8C3AED3 		.ascii	"\310\303\256\323>\247\242\243\314\226\361\324\277e9"
 1158      3EA7A2A3 
 1158      CC96F1D4 
 1158      BF6539
 1159 126c 7517BCDC 		.ascii	"u\027\274\334\301\371(\224!\351u\261O\213\324\270\207"
 1159      C1F92894 
 1159      21E975B1 
 1159      4F8BD4B8 
 1159      87
 1160 127d AA2E343C 		.ascii	"\252.4<y1\353\212|\226\211\355\355\343}\011dC\345\036"
 1160      7931EB8A 
 1160      7C9689ED 
 1160      EDE37D09 
 1160      6443E51E 
 1161 1291 8CEE911C 		.ascii	"\214\356\221\034\334IK^Y\351^PTIi\220\364|\357P\254"
 1161      DC494B5E 
 1161      59E95E50 
 1161      54496990 
 1161      F47CEF50 
 1162 12a6 071E634E 		.ascii	"\007\036cN:tn\312\242\301S\014\231-)\234u\306;\265\024"
 1162      3A746ECA 
 1162      A2C1530C 
 1162      992D299C 
 1162      75C63BB5 
 1163 12bb 892FEF98 		.ascii	"\211/\357\230\365\302)\024\021\026\246\006\3125\016"
 1163      F5C22914 
 1163      1116A606 
 1163      CA350E
 1164 12ca BF9C79A0 		.ascii	"\277\234y\2400\021\023\247u\201\354M\335 \344\336\200"
 1164      301113A7 
 1164      7581EC4D 
 1164      DD20E4DE 
 1164      80
 1165 12db FDB46E4E 		.ascii	"\375\264nNp\276\021y%\305\015\321\035\342eb\363\012"
 1165      70BE1179 
 1165      25C50DD1 
 1165      1DE26562 
 1165      F30A
 1166 12ed 6BE7CB6A 		.ascii	"k\347\313j\261\035\215:hG\254p\313Sx\267\021{\335\350"
 1166      B11D8D3A 
 1166      6847AC70 
 1166      CB5378B7 
 1166      117BDDE8 
 1167 1301 CB7ADDA9 		.ascii	"\313z\335\2516\233~\261\230V\336/J\331\253\211Q\245"
 1167      369B7EB1 
 1167      9856DE2F 
 1167      4AD9AB89 
 1167      51A5
ARM GAS  /tmp/cc2EPMER.s 			page 94


 1168 1313 7ED1D9C6 		.ascii	"~\321\331\306\373\0051\255_YK\205\035?\353\276h\037"
 1168      FB0531AD 
 1168      5F594B85 
 1168      1D3FEBBE 
 1168      681F
 1169 1325 1F4222F4 		.ascii	"\037B\"\364\010\0348\014\255\355!\300\020\300\210\024"
 1169      081C380C 
 1169      ADED21C0 
 1169      10C08814 
 1170 1335 ADA44B25 		.ascii	"\255\244K%\303.8\213\205\301\234\221\320\340!\313\213"
 1170      C32E388B 
 1170      85C19C91 
 1170      D0E021CB 
 1170      8B
 1171 1346 AF328A49 		.ascii	"\2572\212I^\214\003\2331\311\271\243\262\274\260\227"
 1171      5E8C039B 
 1171      31C9B9A3 
 1171      B2BCB097 
 1172 1356 FA1824BD 		.ascii	"\372\030$\275\202\324S5#\357\262\362\363\006\254\262"
 1172      82D45335 
 1172      23EFB2F2 
 1172      F306ACB2 
 1173 1366 73DCC2BF 		.ascii	"s\334\302\277w\350!\217\273\342\253\273\366y\340\223"
 1173      77E8218F 
 1173      BBE2ABBB 
 1173      F679E093 
 1174 1376 2C4F0A13 		.ascii	",O\012\0237'\011\270\232!\3551\223\227\234\360%\212"
 1174      372709B8 
 1174      9A21ED31 
 1174      93979CF0 
 1174      258A
 1175 1388 B81EC9BC 		.ascii	"\270\036\311\274p\205\306\226\276P\023\243\373i'\177"
 1175      7085C696 
 1175      BE5013A3 
 1175      FB69277F 
 1176 1398 349179C5 		.ascii	"4\221y\305\024h=\203\035\256\212!\004\013m\336\233Y"
 1176      14683D83 
 1176      1DAE8A21 
 1176      040B6DDE 
 1176      9B59
 1177 13aa 09F1151F 		.ascii	"\011\361\025\037!WX\3611\352d\366RG\\\346\3168\012\011"
 1177      215758F1 
 1177      31EA64F6 
 1177      52475CE6 
 1177      CE380A09 
 1178 13be 0B61C22D 		.ascii	"\013a\302-\233e\256\002\365\342\307\324\004<\246\236"
 1178      9B65AE02 
 1178      F5E2C7D4 
 1178      043CA69E 
 1179 13ce 90C7D453 		.ascii	"\220\307\324S\256:\361\344,x\362\031x\360\005\300s\200"
 1179      AE3AF1E4 
 1179      2C78F219 
 1179      78F005C0 
 1179      7380
 1180 13e0 79803980 		.ascii	"y\2009\200i\233\007\367\034\313\246\031\245l\312L\225"
 1180      699B07F7 
 1180      1CCBA619 
ARM GAS  /tmp/cc2EPMER.s 			page 95


 1180      A56CCA4C 
 1180      95
 1181 13f1 ED581EB2 		.ascii	"\355X\036\262Wf\361\362?\375\226\315\362_\201Zl,}c)"
 1181      5766F1F2 
 1181      3FFD96CD 
 1181      F25F815A 
 1181      6C2C7D63 
 1182 1406 436A7C83 		.ascii	"Cj|\203%\320\205\301\253\037\310\362G\2376K\212s\263"
 1182      25D085C1 
 1182      AB1FC8F2 
 1182      479F364B 
 1182      8A73B3
 1183 1419 7A195A90 		.ascii	"z\031Z\220\362gfq\376X\2556\253}^\331j\020\336<\231"
 1183      F2676671 
 1183      FE58AD36 
 1183      AB7D5ED9 
 1183      6A10DE3C 
 1184 142e 0333B86E 		.ascii	"\0033\270n\226\034\265Y\225?\301C\354|2\351N\267'~\304"
 1184      961CB559 
 1184      953FC143 
 1184      EC7C32E9 
 1184      4EB7277E 
 1185 1443 90A1C296 		.ascii	"\220\241\302\226\026\214'\230\212\273\033\307\336s\330"
 1185      168C2798 
 1185      8ABB1BC7 
 1185      DE73D8
 1186 1452 6962D40E 		.ascii	"ib\324\016\277\321k{\213}z\242\326\240-\352E\215\006"
 1186      BFD16B7B 
 1186      8B7D7AA2 
 1186      D6A02DEA 
 1186      458D06
 1187 1465 5F8B2EBB 		.ascii	"_\213.\273\217\020\314\301\024\373\245\012mS3\243\342"
 1187      8F10CCC1 
 1187      14FBA50A 
 1187      6D5333A3 
 1187      E2
 1188 1476 4042AC5A 		.ascii	"@B\254Z\376\206dzP\237\312\266\027\011\357h\340Mh\035"
 1188      FE86647A 
 1188      509FCAB6 
 1188      1709EF68 
 1188      E04D681D 
 1189 148a EE618D1B 		.ascii	"\356a\215\033H\220\201D\036d2\205\314yp\323\031\247"
 1189      48908144 
 1189      1E643285 
 1189      CC7970D3 
 1189      19A7
 1190 149c 7BB0CF9A 		.ascii	"{\260\317\232\232\247\363\260\030\010\313\214\007\314"
 1190      9AA7F3B0 
 1190      1808CB8C 
 1190      07CC
 1191 14aa D97702D3 		.ascii	"\331w\002\323\355\222\342\204\201\243\346\276\003tT"
 1191      ED92E284 
 1191      81A3E6BE 
 1191      037454
 1192 14b9 D2774E70 		.ascii	"\322wNp\271rbs\024\2539\326P\351>\3457\303\374\345\004"
 1192      B9726273 
 1192      14AB39D6 
ARM GAS  /tmp/cc2EPMER.s 			page 96


 1192      50E93EE5 
 1192      37C3FCE5 
 1193 14ce 09F42404 		.ascii	"\011\364$\004:\031\216\326\220\332\327Pz\007M-\242O"
 1193      3A198ED6 
 1193      90DAD750 
 1193      7A074D2D 
 1193      A24F
 1194 14e0 949AD15A 		.ascii	"\224\232\321Z%\337\3026\211\010\324\011\377\217\020"
 1194      25DFC236 
 1194      8908D409 
 1194      FF8F10
 1195 14ef 933D9BDB 		.ascii	"\223=\233\333\234\261\365\235K\213\375N\321\343?\020"
 1195      9CB1F59D 
 1195      4B8BFD4E 
 1195      D1E33F10 
 1196 14ff 5AD2ADEE 		.ascii	"Z\322\255\356sZk_\222\357\2351\247\\O\247\325\222\254"
 1196      735A6B5F 
 1196      92EF9D31 
 1196      A75C4FA7 
 1196      D592AC
 1197 1512 5EBCF56A 		.ascii	"^\274\365jy~\207\367^\362Dl\307vJ:|\333\322\006&\337"
 1197      797E87F7 
 1197      5EF2446C 
 1197      C7764A3A 
 1197      7CDBD206 
 1198 1528 24264772 		.ascii	"$&Gr\273\210\003w\203\003w\251W\240D\200$\200\004\200"
 1198      BB880377 
 1198      830377A9 
 1198      57A04480 
 1198      24800480 
 1199 153c 78AB4351 		.ascii	"x\253CQ\315\226\350)\017\234\317\302\326y\342^\216\274"
 1199      CD96E829 
 1199      0F9CCFC2 
 1199      D679E25E 
 1199      8EBC
 1200 154e FF06EE9B 		.ascii	"\377\006\356\233$\365\223\012\254\366H\241KV/\252\037"
 1200      24F5930A 
 1200      ACF648A1 
 1200      4B562FAA 
 1200      1F
 1201 155f ABE41490 		.ascii	"\253\344\024\220\366\212\222S.\317\334\321\374,\307"
 1201      F68A9253 
 1201      2ECFDCD1 
 1201      FC2CC7
 1202 156e DC9345B6 		.ascii	"\334\223E\266\220\376\004\374>\245\222ZY\245Zy\252\310"
 1202      90FE04FC 
 1202      3EA5925A 
 1202      59A55A79 
 1202      AAC8
 1203 1580 15B255A1 		.ascii	"\025\262U\241\376\031\371\244d\370\376\264\355\247/"
 1203      FE19F9A4 
 1203      64F8FEB4 
 1203      EDA72F
 1204 158f 776DF6DA 		.ascii	"wm\366\332\323\324t\326C\216@]\236\331\266\337]#\373"
 1204      D3D474D6 
 1204      438E405D 
 1204      9ED9B6DF 
ARM GAS  /tmp/cc2EPMER.s 			page 97


 1204      5D23FB
 1205 15a2 B88EB47C 		.ascii	"\270\216\264|\2118]M>A\361\245\353}\2623\2650m\361b"
 1205      89385D4D 
 1205      3E41F1A5 
 1205      EB7DB233 
 1205      B5306DF1 
 1206 15b7 8F0501D0 		.ascii	"\217\005\001\320\333\323\335\323\036K\023\350`\013\254"
 1206      DBD3DDD3 
 1206      1E4B13E8 
 1206      600BAC
 1207 15c6 5DE99731 		.ascii	"]\351\2271/`p\206\232\014\336\247^*\262\240\010\351"
 1207      2F607086 
 1207      9A0CDEA7 
 1207      5E2AB2A0 
 1207      08E9
 1208 15d8 45338595 		.ascii	"E3\205\225\374\273Mg2\221\273?}\317\325\261\364\375"
 1208      FCBB4D67 
 1208      3291BB3F 
 1208      7DCFD5B1 
 1208      F4FD
 1209 15ea A2F44C35 		.ascii	"\242\364L5\025?\031\267e\232\177\254O\346\210\342\347"
 1209      153F19B7 
 1209      659A7FAC 
 1209      4FE688E2 
 1209      E7
 1210 15fb CDCBD9E7 		.ascii	"\315\313\331\347\315[\263R\306\334\2716fQ\233,\2657"
 1210      CD5BB352 
 1210      C6DCB936 
 1210      66519B2C 
 1210      B537
 1211 160d 3A40B539 		.ascii	":@\2659H\265\331\317\2649H\265I>\324\020\013k`\017\366"
 1211      48B5D9CF 
 1211      B43948B5 
 1211      493ED410 
 1211      0B6B600F 
 1212 1622 B1C9C4CE 		.ascii	"\261\311\304\316&\304\277</\037\015|x\233<\244\314\346"
 1212      26C4BF3C 
 1212      2F1F0D7C 
 1212      789B3CA4 
 1212      CCE6
 1213 1634 68A4A6AB 		.ascii	"h\244\246\253\351l)\274p\252\262\256\246s\324dn{\261"
 1213      E96C29BC 
 1213      70AAB2AE 
 1213      A673D464 
 1213      6E7BB1
 1214 1647 AFB0D613 		.ascii	"\257\260\326\023\0173NM\007\237[DNw\247\277\311\313"
 1214      0F334E4D 
 1214      079F5B44 
 1214      4E77A7BF 
 1214      C9CB
 1215 1659 D94A77ED 		.ascii	"\331Jw\355>\245\037}\243\\\211Q\256\234\321!\312\250"
 1215      3EA51F7D 
 1215      A35C8951 
 1215      AE9CD121 
 1215      CAA8
 1216 166b E7C06092 		.ascii	"\347\300`\222\007^`\214bw>|\314\277B\267\264\256g\213"
 1216      075E608C 
ARM GAS  /tmp/cc2EPMER.s 			page 98


 1216      62773E7C 
 1216      CCBF42B7 
 1216      B4AE678B 
 1217 167f FB836C71 		.ascii	"\373\203lq\177X\342rX\316\345\010\345rk\240\326\037"
 1217      7F58E272 
 1217      58CEE508 
 1217      E5726BA0 
 1217      D61F
 1218 1691 6FF7A44C 		.ascii	"o\367\244L\216\025\356/\366\304i\014\331^{~\037\331"
 1218      8E15EE2F 
 1218      F6C4690C 
 1218      D95E7B7E 
 1218      1FD9
 1219 16a3 7D427974 		.ascii	"}Byt\020Y\372?\312m\023\350B\240\326\272\037\325\336"
 1219      1059FA3F 
 1219      CA6D13E8 
 1219      42A0D6BA 
 1219      1FD5DE
 1220 16b6 96FD9EC3 		.ascii	"\226\375\236\303e@\201\232,\003\362\325|\031p\367\321"
 1220      6540819A 
 1220      2C03F2D5 
 1220      7C1970F7 
 1220      D1
 1221 16c7 C4881B37 		.ascii	"\304\210\0337\366\300\304WsS\242\333\226\023JtT\324"
 1221      F6C0C457 
 1221      7353A2DB 
 1221      96134A74 
 1221      54D4
 1222 16d9 131D53AB 		.ascii	"\023\035S\253\011&\251ZHUm\211\355\331\351\216\357Q"
 1222      0926A95A 
 1222      48556D89 
 1222      EDD9E98E 
 1222      EF51
 1223 16eb F5846317 		.ascii	"\365\204c\027\037\315X\273bOG\316\307\025\244\243\027"
 1223      1FCD58BB 
 1223      624F47CE 
 1223      C715A4A3 
 1223      17
 1224 16fc 43CE1F97 		.ascii	"C\316\037\227\354\035\025\026U\227\365]Q\021T\224\243"
 1224      EC1D1516 
 1224      5597F55D 
 1224      51115494 
 1224      A3
 1225 170d 774564CB 		.ascii	"wEd\313%{&\323\311\2466\212\325\362\3328\301k\343\004"
 1225      257B26D3 
 1225      C9A6368A 
 1225      D5F2DA38 
 1225      C16BE304 
 1226 1721 AD8DC843 		.ascii	"\255\215\310C\271\247\2646\324\217l6\010K8u\011\245"
 1226      B9A7B436 
 1226      D48F6C36 
 1226      084B3875 
 1226      09A5
 1227 1733 DE51D278 		.ascii	"\336Q\322x\302\366\343\254T\033\336\245\234\272\224"
 1227      C2F6E3AC 
 1227      541BDEA5 
 1227      9CBA94
ARM GAS  /tmp/cc2EPMER.s 			page 99


 1228 1742 522FFECB 		.ascii	"R/\376\313\220\022\233\277\014)\343\324e\224\372\361"
 1228      90129BBF 
 1228      0C29E3D4 
 1228      6594FAF1 
 1229 1752 545322C6 		.ascii	"TS\"\306\243,\206\325\321U\011.\326D]=d\227\250\345"
 1229      A32C86D5 
 1229      D155092E 
 1229      D6445D3D 
 1229      6497A8E5 
 1230 1766 92A7CAE5 		.ascii	"\222\247\312\345\356>I\335}~\252\255\320\005/0N\013"
 1230      EE3E49DD 
 1230      7D7EAAAD 
 1230      D0052F30 
 1230      4E0B
 1231 1778 270ECCBA 		.ascii	"'\016\314\272Z\023\365\323\243\266\211Z!1\252\2203:"
 1231      5A13F5D3 
 1231      A3B6895A 
 1231      2131AA90 
 1231      333A
 1232 178a 45191D9E 		.ascii	"E\031\035\236~\266\335\023\357\366\242\214\236\354\277"
 1232      7EB6DD13 
 1232      EFF6A28C 
 1232      9EECBF
 1233 1799 B417F344 		.ascii	"\264\027\363D\235\\g\223\250\247%.\247\345\\*)\227\344"
 1233      9D5C6793 
 1233      A8A7252E 
 1233      A7E55C2A 
 1233      2997E4
 1234 17ac 93FBD33C 		.ascii	"\223\373\323<\360>\306\245\376y\312\013\2665\012\376"
 1234      F03EC6A5 
 1234      FE79CA0B 
 1234      B6350AFE 
 1235 17bc E7A998D6 		.ascii	"\347\251\230\326\334x\305\361\222\264\206\346b\265\230"
 1235      DC78C5F1 
 1235      92B486E6 
 1235      62B598
 1236 17cb 8B693163 		.ascii	"\213i1c\343"
 1236      E3
 1237 17d0 A267EEE4 		.ascii	"\242g\356\344|w\224\355\271\327\252\011\035\252\222"
 1237      7C7794ED 
 1237      B9D7AA09 
 1237      1DAA92
 1238 17df 14A9922B 		.ascii	"\024\251\222+r\206*R\234y\366\200\026\0272E\032\223"
 1238      72862A52 
 1238      9C79F680 
 1238      16173245 
 1238      1A93
 1239 17f1 9EF68A7E 		.ascii	"\236\366\212~9;\377\321\376\234\253;\314Y\221\346\217"
 1239      393BFFD1 
 1239      FE9CAB3B 
 1239      CC5991E6 
 1239      8F
 1240 1802 3EA5FBEE 		.ascii	">\245\373\356g%Fg\345\214,\224\321\271\344;=N?=\310"
 1240      67254667 
 1240      E58C2C94 
 1240      D1B9E43B 
 1240      3D4E3F3D 
ARM GAS  /tmp/cc2EPMER.s 			page 100


 1241 1817 B2330E2A 		.ascii	"\2623\016*\355\313\327\350\037\250\260\225\3609\365"
 1241      EDCBD7E8 
 1241      1FA8B095 
 1241      F039F5
 1242 1826 4F49E3BA 		.ascii	"OI\343\272\331\220\203\034\322\324R\232\331\250\207"
 1242      D990831C 
 1242      D2D4529A 
 1242      D9A887
 1243 1835 DB348CA6 		.ascii	"\3334\214\246\347f\337\377\2102oA\266d\347)YZ\317\241"
 1243      E766DFFF 
 1243      88326F41 
 1243      B664E729 
 1243      595ACFA1 
 1244 1849 342ECE72 		.ascii	"4.\316r\343\2658\301\226\246\216\322\034zqlD\244\251"
 1244      E3B538C1 
 1244      96A68ED2 
 1244      1C7A716C 
 1244      44A4A9
 1245 185c 5C447381 		.ascii	"\\Ds\201\322$\327\036[p\261\311\307\3156\331[\317\363"
 1245      D224D71E 
 1245      5B70B1C9 
 1245      C7CD36D9 
 1245      5BCFF3
 1246 186f B19EE663 		.ascii	"\261\236\346c\362\320\360>\214\253\230\267\212n\245"
 1246      F2D0F03E 
 1246      8CAB98B7 
 1246      8A6EA5
 1247 187e 27B1FD85 		.ascii	"'\261\375\2054k\330\"K\306\022\035\357\023^\244ak\264"
 1247      346BD822 
 1247      4BC6121D 
 1247      EF135EA4 
 1247      616BB4
 1248 1891 866D7078 		.ascii	"\206mpx\277\213\325\335\237n\217j\022\335\015\204\250"
 1248      BF8BD5DD 
 1248      9F6E8F6A 
 1248      12DD0D84 
 1248      A8
 1249 18a2 41727783 		.ascii	"Arw\203\334\335\227\250\273\247\367\235\256\363\300"
 1249      DCDD97A8 
 1249      BBA7F79D 
 1249      AEF3C0
 1250 18b1 F54C9383 		.ascii	"\365L\223\203W&R4\270\225!\267\332\243O\363/\316\335"
 1250      57265234 
 1250      B89521B7 
 1250      DAA34FF3 
 1250      2FCEDD
 1251 18c4 E976C57C 		.ascii	"\351v\305|\255\227\343G\315U\361Qs\205=j\242\3141s\310"
 1251      AD97E347 
 1251      CD55F151 
 1251      73853D6A 
 1251      A2CC3173 
 1252 18d9 FE6122B6 		.ascii	"\376a\"\266\031\025\272F\037&t\020]-\355,\250q\226S"
 1252      1915BA46 
 1252      1F267410 
 1252      5D2DED2C 
 1252      A8719653 
 1253 18ed E7BC8CBA 		.ascii	"\347\274\214\272#\365q>\202\347z3y\256?\373I\2229z\257"
ARM GAS  /tmp/cc2EPMER.s 			page 101


 1253      23F5713E 
 1253      82E77A33 
 1253      79AE3FFB 
 1253      4992397A 
 1254 1902 598D9AD5 		.ascii	"Y\215\232\325K\321e\260u\007~S6\264\011\256\374\016"
 1254      4BD165B0 
 1254      75077E53 
 1254      36B409AE 
 1254      FC0E
 1255 1914 32E43A7D 		.ascii	"2\344:}\266\337=\362\264_\213;\231\201\333\032\272n"
 1255      B6DF3DF2 
 1255      B45F8B3B 
 1255      9981DB1A 
 1255      BA6E
 1256 1926 72037F04 		.ascii	"r\003\177\004h\301\225\206\273\374{\306md\215\226n\336"
 1256      68C19586 
 1256      BBFC7BC6 
 1256      6D648D96 
 1256      6EDE
 1257 1938 7A1C3B36 		.ascii	"z\034;6\370\246hp3{irn\357\343)O{\203[\341\351\331B"
 1257      F8A66870 
 1257      337B6972 
 1257      6EEFE329 
 1257      4F7B835B 
 1258 1950 9F9E6DD4 		.ascii	"\237\236m\324\204\233\242\011W\243;.y\331\033\354\220"
 1258      849BA209 
 1258      57A33B2E 
 1258      79D91BEC 
 1258      90
 1259 1961 FA4C694D 		.ascii	"\372LiM\206+3\330\222\376\371\266b\362\336\215[\273"
 1259      862B33D8 
 1259      92FEF9B6 
 1259      62F2DE8D 
 1259      5BBB
 1260 1973 0BAC95C6 		.ascii	"\013\254\225\306\335\340\326\336\246\326\226\247\365"
 1260      DDE0D6DE 
 1260      A6D696A7 
 1260      F5
 1261 1980 4FD8F648 		.ascii	"O\330\366H\262u,\373\344\207\347d;\315\311\315\365G"
 1261      B2752CFB 
 1261      E487E764 
 1261      3BCDC9CD 
 1261      F547
 1262 1992 A25CF043 		.ascii	"\242\\\360C\3079Y3\336\274\305\331\361\353\273\2734"
 1262      C7395933 
 1262      DEBCC5D9 
 1262      F1EBBBBB 
 1262      34
 1263 19a3 293BC4A4 		.ascii	");\304\244\314\213=8'X\2232,C\352\001@\210\356HIyG\236"
 1263      CC8B3D38 
 1263      27589332 
 1263      2C43EA01 
 1263      4088EE48 
 1264 19bb 949D3429 		.ascii	"\224\2354)k\016VEz\211\212'\274\364\317\376\272\250"
 1264      6B0E5645 
 1264      7A898A27 
 1264      BCF4CFFE 
ARM GAS  /tmp/cc2EPMER.s 			page 102


 1264      BAA8
 1265 19cd EED9E3BB 		.ascii	"\356\331\343\273zl?0\274aci7\267\264\233R\237\352\334"
 1265      7A6C3F30 
 1265      BC616369 
 1265      37B7B49B 
 1265      529FEADC 
 1266 19e1 1A6BEB97 		.ascii	"\032k\353\227D\033\352\036N\335C\251\233&\217\237\361"
 1266      441BEA1E 
 1266      4EDD43A9 
 1266      9B268F9F 
 1266      F1
 1267 19f2 B2A126E2 		.ascii	"\262\241&\342%\352^N\335K\251w^\274\363@\263\214?\\"
 1267      25EA5E4E 
 1267      DD4BA977 
 1267      5EBCF340 
 1267      B38C3F5C 
 1268 1a06 2D0EF765 		.ascii	"-\016\367eU\0167e\311\263\255\246)Jc#\361\236M/\271"
 1268      550E3765 
 1268      C9B3ADA6 
 1268      294A6323 
 1268      F19E4D2F 
 1269 1a1b CF25DEA7 		.ascii	"\317%\336\247\022\343:e\237j/r\226\335\036=\352\243"
 1269      12E33A65 
 1269      9F6A2F72 
 1269      96DD1E3D 
 1269      EAA3
 1270 1a2d 634AA307 		.ascii	"cJ\243\007g=l$4\331x\240\237K\350\247\324\327\232Z\312"
 1270      673D6C24 
 1270      34D978A0 
 1270      9F4BE8A7 
 1270      D4D79A5A 
 1271 1a42 3DF01CCB 		.ascii	"=\360\034\313\214\234\341\323\347\371\037>y\220\212"
 1271      8C9CE1D3 
 1271      E7F91F3E 
 1271      79908A
 1272 1a51 CA4E3EA4 		.ascii	"\312N>\244fU\363\200\334\336\272\267\276\302\315q\325"
 1272      6655F380 
 1272      DCDEBAB7 
 1272      BEC2CD71 
 1272      D5
 1273 1a62 0C895533 		.ascii	"\014\211U3\306\252f\262\253\177\205}\321<\200t\036\244"
 1273      C6AA66B2 
 1273      AB7F857D 
 1273      D13C8074 
 1273      1EA4
 1274 1a74 E93C4CCB 		.ascii	"\351<L\313`H,\203\252\312\273\355N\366E\343\220\372"
 1274      60482C83 
 1274      AACABBED 
 1274      4EF645E3 
 1274      90FA
 1275 1a86 F6D3BC4A 		.ascii	"\366\323\274J\255\330%r?\340]\342!\257\233\003P7\322"
 1275      ADD82572 
 1275      3FE05DE2 
 1275      21AF9B03 
 1275      5037D2
 1276 1a99 D0015E37 		.ascii	"\320\001^7\217h\335\314\364\027\015\332\316[\312m\322"
 1276      8F68DDCC 
ARM GAS  /tmp/cc2EPMER.s 			page 103


 1276      F4170DDA 
 1276      CE5BCA6D 
 1276      D2
 1277 1aaa 6F847B67 		.ascii	"o\204{g\204z\347|t\345\202\027\336\276\204}\020\276"
 1277      847AE77C 
 1277      74E58217 
 1277      DEBE847D 
 1277      10BE
 1278 1abc 7768C2C9 		.ascii	"wh\302\311\232\365\337\034\025[q#{\3176*\233\205\311"
 1278      9AF5DF1C 
 1278      155B7123 
 1278      7BCF362A 
 1278      9B85C9
 1279 1acf D37E4CFD 		.ascii	"\323~L\375\246\312\3657\377\362\305\033\237\274\363"
 1279      A6CAF537 
 1279      FFF2C51B 
 1279      9FBCF3
 1280 1ade 8ECA79A3 		.ascii	"\216\312y\243\376[CD\230\367\252U\276\354\177h\270\257"
 1280      FE5B4344 
 1280      98F7AA55 
 1280      BEEC7F68 
 1280      B8AF
 1281 1af0 D1E41B6E 		.ascii	"\321\344\033n\364\363\365\013\010\367\013\360_\345\247"
 1281      F4F3F50B 
 1281      08F70BF0 
 1281      5FE5A7
 1282 1aff F26034AB 		.ascii	"\362`4\253\302\364F\323\252w\275tp\331\340\037\021d"
 1282      C2F446D3 
 1282      AA77BD74 
 1282      70D9E01F 
 1282      1164
 1283 1b11 30EA0243 		.ascii	"0\352\002C\002M\356~\001k\374\002>7\350\3757\255v5\032"
 1283      024DEE7E 
 1283      016BFC02 
 1283      3E37E8FD 
 1283      37AD7635 
 1284 1b26 F44161C6 		.ascii	"\364Aa\306\300P\215N\027\021\030bz\357]\235)\3307 4"
 1284      C0508D4E 
 1284      17111862 
 1284      7AEF5D9D 
 1284      29D83720 
 1285 1b3b D8E0AB0F 		.ascii	"\330\340\253\017\321\373\376*\324/\"\330\020b\012\007"
 1285      D1FBFE2A 
 1285      D42F22D8 
 1285      10620A07 
 1286 1b4b DE81612B 		.ascii	"\336\201a+\303\214\241+\303\341\376z?\277\225zc\360"
 1286      C38CA12B 
 1286      C3E1FE7A 
 1286      3FBF957A 
 1286      63F0
 1287 1b5d CA90D010 		.ascii	"\312\220\320\020\303J\203~m\340\312\237\353\336_\371"
 1287      C34A837E 
 1287      6DE0CA9F 
 1287      EBDE5FF9 
 1288 1b6d EEDBEF7C 		.ascii	"\356\333\357|\360\335{\27667|\003C\374\202\"\374\015"
 1288      F0DD7BBE 
 1288      36377C03 
ARM GAS  /tmp/cc2EPMER.s 			page 104


 1288      43FC8222 
 1288      FC0D
 1289 1b7f BEC17AE0 		.ascii	"\276\301z\340\020b\360\325\371\033\326\351#\202L:\323"
 1289      1062F0D5 
 1289      F91BD6E9 
 1289      23824C3A 
 1289      D3
 1290 1b90 A63043F8 		.ascii	"\2460C\370\252\000\225\253(v\355\237Cl\370\246p_]\270"
 1290      AA0095AB 
 1290      2876ED9F 
 1290      436CF8A6 
 1290      705F5DB8 
 1291 1ba4 C91F6480 		.ascii	"\311\037d\200,\027\0231Ug\372P\356<\277\320\340\340"
 1291      2C171331 
 1291      5567FA50 
 1291      EE3CBFD0 
 1291      E0E0
 1292 1bb6 D010DFB0 		.ascii	"\320\020\337\260P#\310\373\370\363\337~\362\333\357"
 1292      5023C8FB 
 1292      F8F3DF7E 
 1292      F2DBEF
 1293 1bc5 C9B5B040 		.ascii	"\311\265\260@\360W\270\357o>\371\004\224\020\225u\011"
 1293      F057B8EF 
 1293      6F3EF904 
 1293      94109575 
 1293      09
 1294 1bd6 367D1F14 		.ascii	"6}\037\024\030nR\207\030\27679\205n\0141\030\235\276"
 1294      186E5287 
 1294      18BE3739 
 1294      856E0C31 
 1294      189DBE
 1295 1be9 8B304418 		.ascii	"\2130D\030\226\370\005\350L\001\340L\377p\035\275\240"
 1295      96F805E8 
 1295      4C01E04C 
 1295      FF701DBD 
 1295      A0
 1296 1bfa 0E331A36 		.ascii	"\0163\0326x\331\\\322\231\\\202#L\206\357u&W\240\246"
 1296      78D95CD2 
 1296      995C8223 
 1296      4C86EF75 
 1296      2657A0A6 
 1297 1c0e A7AE8630 		.ascii	"\247\256\2060C\010(\267\336\335\260\001\354\015\326"
 1297      430828B7 
 1297      DEDDB001 
 1297      EC0DD6
 1298 1c1d 877F0B77 		.ascii	"\207\177\013w\203\303\327\323\001.\033\365\201&\270"
 1298      83C3D7D3 
 1298      012E1BF5 
 1298      8126B8
 1299 1c2c E925634E 		.ascii	"\351%cN\244{\312\021\235\011E8\0336\222\241\316\033"
 1299      A47BCA11 
 1299      9D094538 
 1299      1B3692A1 
 1299      CE1B
 1300 1c3e 4DA05F18 		.ascii	"M\240_\030\034\302\015\301a\330/\304\344\246\323q\357"
 1300      1CC20DC1 
 1300      61D82FC4 
ARM GAS  /tmp/cc2EPMER.s 			page 105


 1300      E4A6D371 
 1300      EF
 1301 1c4f BAF0A313 		.ascii	"\272\360\243\023\\\325\231\264\300\021h\364a\001\241"
 1301      5CD599B4 
 1301      C01168F4 
