ARM GAS  /tmp/ccQFqzWI.s 			page 1


   1              		.syntax unified
   2              		.cpu cortex-m4
   3              		.fpu softvfp
   4              		.eabi_attribute 20, 1
   5              		.eabi_attribute 21, 1
   6              		.eabi_attribute 23, 3
   7              		.eabi_attribute 24, 1
   8              		.eabi_attribute 25, 1
   9              		.eabi_attribute 26, 1
  10              		.eabi_attribute 30, 2
  11              		.eabi_attribute 34, 1
  12              		.eabi_attribute 18, 4
  13              		.thumb
  14              		.syntax unified
  15              		.file	"rt_test_sequence_002.c"
  16              		.text
  17              	.Ltext0:
  18              		.section	.gnu.lto_.profile.b7cd81840c4257b8,"",%progbits
  19 0000 789C6361 		.ascii	"x\234ca`d`c`\000\222G\231\272\030\001\004\303\001_"
  19      60646063 
  19      60009247 
  19      99BA1801 
  19      04C3015F 
  20              		.text
  21              		.section	.gnu.lto_.icf.b7cd81840c4257b8,"",%progbits
  22 0000 789C6361 		.ascii	"x\234ca`d\000\001?\006\004\340ex\373z\2070S\377\371"
  22      60640001 
  22      3F0604E0 
  22      6578FB7A 
  22      873053FF 
  23 0015 9DAF3899 		.ascii	"\235\2578\231\277o\275\263\222\211\345\366\302\356W"
  23      BF6FBDB3 
  23      9289E5F6 
  23      C2EE57
  24 0024 8CAC0B7A 		.ascii	"\214\254\013z\3376\260\260\3656\367u\260\263\037Zp\371"
  24      DF36B0B0 
  24      F536F775 
  24      B0B31F5A 
  24      70F9
  25 0036 2E2747CF 		.ascii	".'G\317\267-\337\3319W\265\274r\341z\270\365\351wn\356"
  25      B72DDFD9 
  25      3957B5BC 
  25      72E17AB8 
  25      F5E9776E 
  26 004b 19BB7AF7 		.ascii	"\031\273z\367\361\362\374\235z\353\025\037\357\334c"
  26      F1F2FC9D 
  26      7AEB151F 
  26      EFDC63
  27 005a 0BE77030 		.ascii	"\013\347p0\000\000\363\011&6"
  27      0000F309 
  27      2636
  28              		.text
  29              		.section	.gnu.lto_.jmpfuncs.b7cd81840c4257b8,"",%progbits
  30 0000 789C6D90 		.ascii	"x\234m\220\313J\303P\020\206gN\3226\266\240\".\004]"
  30      CB4AC350 
  30      1086674E 
  30      D236B6A0 
ARM GAS  /tmp/ccQFqzWI.s 			page 2


  30      222E045D 
  31 0014 242F20BE 		.ascii	"$/ \276\206\217\021l\324`\212\222F\241\253\026\264\352"
  31      868F116C 
  31      D4608A92 
  31      46A1AB16 
  31      B4EA
  32 0026 42105715 		.ascii	"B\020W\025\251\250+o\325^\274\0267.\024QTp!.\304\265"
  32      A9A82B6F 
  32      D55EBC16 
  32      372E1451 
  32      5470212E 
  33 003c 14143701 		.ascii	"\024\0247\001)^\347\234C5\202\003\231\303\231\177\376"
  33      295EE79C 
  33      43358203 
  33      99C3997F 
  33      FE
  34 004d 2F7FA202 		.ascii	"/\177\242\002\002\257\016\0060\016\262\"\364\320UA\024"
  34      02AF0E06 
  34      300EB222 
  34      F4D05541 
  34      14
  35 005e 2780AA22 		.ascii	"'\200\252\"UK\232\232\306R|\302R(:\023]\341\235\004"
  35      554B9A9A 
  35      C6527CC2 
  35      52283A13 
  35      5DE19D04 
  36 0072 9A85689B 		.ascii	"\232\205h\233n\370\301\360y\316\277c\006.e\346\365,"
  36      6EF8C1F0 
  36      79CEBF63 
  36      062E65E6 
  36      F52C
  37 0084 6DD0A45E 		.ascii	"m\320\244^y\230T\323\037\231\371L\2465K\370U4hu\015"
  37      799854D3 
  37      1F99F94C 
  37      A6354BF8 
  37      55346875 
  38 0099 D3802A30 		.ascii	"\323\200*0\356\271Z)\\\207}\226U\030Fq\035\273\0004"
  38      EEB95A29 
  38      5C877D96 
  38      55184671 
  38      1DBB0034 
  39 00ad E022D7F6 		.ascii	"\340\"\327\366\246.\313Q\251!np\215O\253\325\247\373"
  39      A62ECB51 
  39      A9216E70 
  39      8D4FABD5 
  39      A7FB
  40 00bf 0831A705 		.ascii	"\0101\247\005S\371\342\211p\223\220\200\330\335\005"
  40      53F9E289 
  40      70939080 
  40      D8DD05
  41 00ce A8C94F10 		.ascii	"\250\311O\020-\014\362-7\023\245\274\302I*\252X\340"
  41      2D0CF22D 
  41      3713A5BC 
  41      C2492AAA 
  41      58E0
  42 00e0 A446E6C5 		.ascii	"\244F\346\305\334\347\231j\264\313\314!\236y\346\326"
  42      DCE7996A 
ARM GAS  /tmp/ccQFqzWI.s 			page 3


  42      B4CBCC21 
  42      9E79E6D6 
  43 00f0 CFC57E32 		.ascii	"\317\305~2\207qKd\336\016d^8\362/B\222\246a1H\313]\276"
  43      87714B64 
  43      DE0E645E 
  43      38F22F42 
  43      92A66131 
  44 0108 CD6A468F 		.ascii	"\315jF\217\244E8\355\261\230\2577\377\3204,\011ZY\322"
  44      A44538ED 
  44      B198AF37 
  44      FFD0342C 
  44      095A59D2 
  45 011c F87F6F58 		.ascii	"\370\177oXk\317\265<\032\275\322\332\304\255/\357\347"
  45      6BCFB53C 
  45      1ABDD2DA 
  45      C4AD2FEF 
  45      E7
  46 012d B5DF2051 		.ascii	"\265\337 Q\254\010\353N \310\351\327\353q\213\014\302"
  46      AC08EB4E 
  46      20C8E9D7 
  46      EB718B0C 
  46      C2
  47 013e 703718A4 		.ascii	"p7\030\244\266\272|\0303\206\002A\374j\336\011\344\330"
  47      B6BA7C18 
  47      33860241 
  47      FC6ADE09 
  47      E4D8
  48 0150 13B0FD00 		.ascii	"\023\260\375\000l\367\344lR\2230\304\003\016\2036\317"
  48      6CF7E46C 
  48      529330C4 
  48      030E8336 
  48      CF
  49 0161 4E58AE9E 		.ascii	"NX\256\236\364l\307\321M7a\305\241\323\265\006\354\244"
  49      F46CC7D1 
  49      4D3761C5 
  49      A1D3B506 
  49      ECA4
  50 0173 E7A67487 		.ascii	"\347\246t\207\016\275o\320\352\033\322\373M\333!\255"
  50      0EBD6FD0 
  50      EA1BD2FB 
  50      4DDB21AD 
  51 0183 6364D8F5 		.ascii	"cd\330\365t\307L\221\347\217`\214\331\2567j:\272\340"
  51      74C74C91 
  51      E78F608C 
  51      D9AE376A 
  51      3ABAE0
  52 0196 25FFB3BA 		.ascii	"%\377\263\272\226\031\377\217\371\015\247\371\271\017"
  52      9619FF8F 
  52      F90DA7F9 
  52      B90F
  53              		.text
  54              		.section	.gnu.lto_.inline.b7cd81840c4257b8,"",%progbits
  55 0000 789C6361 		.ascii	"x\234ca`d\000\001q\010\005\006\354\014\014\334\\\214"
  55      60640001 
  55      71080506 
  55      EC0C0CDC 
  55      5C8C
ARM GAS  /tmp/ccQFqzWI.s 			page 4


  56 0012 0C4C020D 		.ascii	"\014L\002\015\265\014l\013\344\231@bL\014\034\252@!"
  56      B50C6C0B 
  56      E4994062 
  56      4C0C1CAA 
  56      4021
  57 0024 AEAE152C 		.ascii	"\256\256\025,p1f\006n\031\240\030\307\001;\2042n\006"
  57      70316606 
  57      6E19A018 
  57      C7013B84 
  57      326E06
  58 0037 06C6097E 		.ascii	"\006\306\011~ \212\201\205\201\027$\315\332\241\316"
  58      208A8185 
  58      811724CD 
  58      DAA1CE
  59 0046 C0DEA10E 		.ascii	"\300\336\241\016\226f\345\003\012O\360\203@\250ZV\021"
  59      9666E503 
  59      0A4FF083 
  59      40A85A56 
  59      11
  60 0057 D38F4047 		.ascii	"\323\217@G09\354\271\306\2140\232\007h\326\004?\210"
  60      3039ECB9 
  60      C68C309A 
  60      0768D604 
  60      3F88
  61 0069 79106DE8 		.ascii	"y\020m\350\306#\263\331\030\244t\200F\210t\224\241\230"
  61      C623B3D9 
  61      18A47480 
  61      46887494 
  61      A198
  62 007b C0C8C0C2 		.ascii	"\300\310\300\302\0131\007\302\203\231\312\316 \247\017"
  62      0B3107C2 
  62      8399CACE 
  62      20A70F
  63 008a 542E31A7 		.ascii	"T.1\247\211\021\256\236\221\013\344d\024\345\250<\006"
  63      8911AE9E 
  63      910BE464 
  63      14E5A83C 
  63      06
  64 009b 0008911C 		.ascii	"\000\010\221\034\302"
  64      C2
  65              		.text
  66              		.section	.gnu.lto_.pureconst.b7cd81840c4257b8,"",%progbits
  67 0000 789C6361 		.ascii	"x\234ca`d\020a```g\330\305\310$\305\274\213\221E\222"
  67      60641061 
  67      60606067 
  67      D8C5C824 
  67      C5BC8B91 
  68 0016 751723DB 		.ascii	"u\027#\333.F\366]\214\000(\003\004\026"
  68      2E46F65D 
  68      8C002803 
  68      0416
  69              		.text
  70              		.section	.gnu.lto_rt_test_002_003_execute.b7cd81840c4257b8,"",%progbits
  71 0000 789C8594 		.ascii	"x\234\205\224[L\023A\024\206\347\314.m\0015<\232\250"
  71      5B4C1341 
  71      1486E7CC 
  71      2E6D0135 
ARM GAS  /tmp/ccQFqzWI.s 			page 5


  71      3C9AA8
  72 0013 B13C1063 		.ascii	"\261<\020c\242,\336B\342\233\341\311\007\022\003\211"
  72      A22CDE42 
  72      E29BE1C9 
  72      07120389 
  73 0023 AF55D78D 		.ascii	"\257U\327\2154\261\024\273\305\350\023\323jE\343\213"
  73      34B114BB 
  73      C5E813D3 
  73      6A45E38B 
  74 0033 9A68D468 		.ascii	"\232h\324h\0325D\274!\340\265\"X\301Z\024\265\212x\013"
  74      1A3544BC 
  74      21E0B522 
  74      58C15A14 
  74      B58A780B 
  75 0047 5E10BCC4 		.ascii	"^\020\274\304k\320`\342\013\326s\246\226\324\226\322"
  75      6BD060E2 
  75      0BD673A6 
  75      96D496D2 
  76 0057 4DDBDD99 		.ascii	"M\333\335\231s\316\234\177\276\371\273*\003F\327\034"
  76      73CE9C7F 
  76      BEF9BB2A 
  76      0346D71C 
  77 0067 0B63BFF0 		.ascii	"\013c\277\360>\013\277\2400\340{\0360\346\263q\000z"
  77      3E0BBFA0 
  77      30E07B1E 
  77      30E6B371 
  77      007A
  78 0079 1036600D 		.ascii	"\0206`\015\034\032\340\027\037\347\320\335\370!\304"
  78      1C1AE017 
  78      1FE7D0DD 
  78      F821C4
  79 0088 E79F1478 		.ascii	"\347\237\024x\015E\2768}\"03\2400\026\347r%\006'a>\303"
  79      0D45BE38 
  79      7D223033 
  79      A03016E7 
  79      72250627 
  80 009f B4E1B63F 		.ascii	"\264\341\266?\373\247[\266S\232=\021\204f\260P\273\363"
  80      FBA75BB6 
  80      539A3D11 
  80      8466B050 
  80      BBF3
  81 00b1 5561118F 		.ascii	"Ua\021\217o\023\342\312\242;\363\012\030\033\305 \265"
  81      6F13E2CA 
  81      A23BF30A 
  81      181BC520 
  81      B5
  82 00c2 F9C139DD 		.ascii	"\371\3019\335\225\017\340\037k}\265\204\322q\235\003"
  82      950FE01F 
  82      6B7DB584 
  82      D2719D03 
  83 00d2 81EE9875 		.ascii	"\201\356\230u\214\007\024\000Z6\024\372:hm\030\027;"
  83      8C071400 
  83      5A3614FA 
  83      3A686D18 
  83      173B
  84 00e4 8528C2B9 		.ascii	"\205(\302\271]\330\231\246w\217\016\\(\010\302Q\237"
  84      5DD899A6 
ARM GAS  /tmp/ccQFqzWI.s 			page 6


  84      778F0E5C 
  84      2808C251 
  84      9F
  85 00f5 90F31C4E 		.ascii	"\220\363\034N\243\334S0\033\273\236\201 `\306\305[\321"
  85      A3DC5330 
  85      1BBB9E81 
  85      2060C6C5 
  85      5BD1
  86 0107 1D365A07 		.ascii	"\0356Z\0077\005g12\014\376\"*}\264\275\365\210B\001"
  86      37056731 
  86      320CFE22 
  86      2A7DB4BD 
  86      F5884201 
  87 011b 05541CFE 		.ascii	"\005T\034\376\270\177xd\006\015U\260\343\260\351n\377"
  87      B87F7864 
  87      060D55B0 
  87      E3B0E96E 
  87      FF
  88 012c 8D42A55C 		.ascii	"\215B\245\\\366\036;\330\326\234_rB\010\277\030\212"
  88      F61E3BD8 
  88      D69C5F72 
  88      4208BF18 
  88      8A
  89 013d 1F5B7DB3 		.ascii	"\037[}\263i\207\330\343\263\005\224<8\017\012n\021Z"
  89      6987D8E3 
  89      B305943C 
  89      380F0A6E 
  89      115A
  90 014f 60369CA3 		.ascii	"`6\234\243\246\264\333V(\301\232\306O\242S\245\345\362"
  90      A6B4DB56 
  90      28C19AC6 
  90      4FA253A5 
  90      E5F2
  91 0161 C00E6D18 		.ascii	"\300\016m\030\373\010\376\341\216\350\367\362\377\021"
  91      FB08FEE1 
  91      8EE8F7F2 
  91      FF11
  92 016f 8577BFAE 		.ascii	"\205w\277\256\226\200\342\034\322\350\205G\016\034\202"
  92      9680E21C 
  92      D2E88547 
  92      0E1C82
  93 017e 650CDA29 		.ascii	"e\014\332)\310\323\203\343\203gq?\330\213\301\005JP"
  93      C8D383E3 
  93      8367713F 
  93      D88BC105 
  93      4A50
  94 0190 32D8C345 		.ascii	"2\330\303E\300\323\205K\004\037X/\2618\036l\377]P\374"
  94      C0D3854B 
  94      041F582F 
  94      B1381E6C 
  94      FF5D50FC 
  95 01a4 0282E2A0 		.ascii	"\002\202\342\240=\240X\250\344\334H\207\260\251x\022"
  95      3DA058A8 
  95      E4DC4887 
  95      B0A97812 
  96 01b4 70198A25 		.ascii	"p\031\212%\322\321\257\003\203\034g\340\012\250R9\203"
  96      D2D1AF03 
ARM GAS  /tmp/ccQFqzWI.s 			page 7


  96      831C67E0 
  96      0AA85239 
  96      83
  97 01c5 AB925073 		.ascii	"\253\222PsW\317\373i\305/\377U[)\367gK\373\223BY\035"
  97      57CFFB69 
  97      C52FFF55 
  97      5B29F767 
  97      4BFB9342 
  98 01db A26AB806 		.ascii	"\242j\270\006*\362\345\022\002\303-\373\206\257E#<]"
  98      2AF2E512 
  98      02C32DFB 
  98      86AF4523 
  98      3C5D
  99 01ed FA084AFF 		.ascii	"\372\010J\377'[\315\224\335!e_\227\277\354\035\344j"
  99      275BCD94 
  99      DD21655F 
  99      97BFEC1D 
  99      E46A
 100 01ff DC291B77 		.ascii	"\334)\033wac\331\2561\226\336\256o\202p^&\341\337\260"
 100      6163D9AE 
 100      3196DEAE 
 100      6F82705E 
 100      26E1DFB0 
 101 0213 94C10D0A 		.ascii	"\224\301\015\012Z2\010\367\234!\231a\012Z3e\336\224"
 101      5A3208F7 
 101      9C219961 
 101      0A5A3365 
 101      DE94
 102 0225 02BB1332 		.ascii	"\002\273\0232\277\345\224\331#e\336\222|\022\376KqU"
 102      BFE594D9 
 102      2365DE92 
 102      7C12FE4B 
 102      7155
 103 0237 78EF9735 		.ascii	"x\357\2275\373\266\211^\241f3U\004J\246t\321\233\\."
 103      FBB6895E 
 103      A1663355 
 103      044AA674 
 103      D19B5C2E 
 104 024b BA3D858B 		.ascii	"\272=\205\213\"\344\242h\026\027\365\312\035\336Iq\321"
 104      22E4A268 
 104      1617F5CA 
 104      1DDE4971 
 104      D1
 105 025c 2406B92B 		.ascii	"$\006\271+\015\222\356\206\276\244\033\"\271\335\020"
 105      0D92EE86 
 105      BEA41B22 
 105      B9DD10
 106 026b CDE2867B 		.ascii	"\315\342\206{\262\375\375\0247\244\037\375\203,L;s1"
 106      B2FDFD14 
 106      37A41FFD 
 106      832C4C3B 
 106      7331
 107 027d 8DC93FEA 		.ascii	"\215\311?\352\304{&\017U<\314\216\270o\002\261-\023"
 107      C47B260F 
 107      553CCC8E 
 107      B86F02B1 
 107      2D13
ARM GAS  /tmp/ccQFqzWI.s 			page 8


 108 028f 7188103F 		.ascii	"q\210\020?\242`~\006\342\276\026D\034#\304\375Y\020"
 108      A2607E06 
 108      E2BE1644 
 108      1C23C4FD 
 108      5910
 109 02a1 3F96BB1B 		.ascii	"?\226\273\033HA\374'\370\266\2530\211\370\241D\374d"
 109      4841FC27 
 109      F8B6AB30 
 109      89F8A144 
 109      FC64
 110 02b3 52C44F93 		.ascii	"R\304O\223\210cS!\036l!\304\375Y\020?\223\355\237O\201"
 110      88635321 
 110      1E6C21C4 
 110      FD59103F 
 110      93ED9F4F 
 111 02c8 F80576F9 		.ascii	"\370\005v\371\014\376\241\246\237\371\204@\342\033E"
 111      0CFEA1A6 
 111      9FF98440 
 111      E21B45
 112 02d7 ABE15B1B 		.ascii	"\253\341[\033\223\226\226\226j\211\217\3270\275\232"
 112      93969696 
 112      6A898FD7 
 112      30BD9A
 113 02e6 C7AB99EE 		.ascii	"\307\253\231\356z\217n$\207\016\272;LcS\275Q\253\033"
 113      7A8F6E24 
 113      870EBA3B 
 113      4C6353BD 
 113      51AB1B
 114 02f9 8EB2B2C5 		.ascii	"\216\262\262\305\245:\263\256[k\032\253<\316\205\023"
 114      A53AB3AE 
 114      5B6B1AAB 
 114      3CCE8513 
 115 0309 C56E53D3 		.ascii	"\305nS\323\335.\227\273V\253s{\274\246\266\242\252\262"
 115      DD2E97BB 
 115      56AB737B 
 115      BCA6B6A2 
 115      AAB2
 116 031b A2728BA6 		.ascii	"\242r\213\246\327\350n\217\341\330\\\356*\255a\313'"
 116      D7E86E8F 
 116      E1D85CEE 
 116      2AAD61CB 
 116      27
 117 032c C936B678 		.ascii	"\3116\266x)W\253\250\254^Y\255U`\262\266\262V\337X\277"
 117      2957ABA8 
 117      AC5E59AD 
 117      5560B2B6 
 117      B256DF58 
 118 0341 DED07497 		.ascii	"\336\320t\227\3514\035\033t\035K\347\246\226\242Fg2"
 118      E9341D1B 
 118      741D4BE7 
 118      A696A246 
 118      6732
 119 0353 A7C6DC6A 		.ascii	"\247\306\334jb\274\250\262\272\312N\242\352<\316\005"
 119      62BCA8B2 
 119      BACA4EA2 
 119      EA3CCE05 
 120 0363 F69232C6 		.ascii	"\366\2222\306=\314\3522\\n\317Vf\323\353L\247aw&\036"
ARM GAS  /tmp/ccQFqzWI.s 			page 9


 120      3DCCEA32 
 120      5C6ECF56 
 120      66D3EB4C 
 120      A7617726 
 121 0378 D6E3C35F 		.ascii	"\326\343\303_\303\356n\330"
 121      C3EE6ED8 
 122              		.text
 123              		.section	.gnu.lto_rt_test_002_004_execute.b7cd81840c4257b8,"",%progbits
 124 0000 789C9D53 		.ascii	"x\234\235SKkSA\024\236o\346\346APq#\270(\322M\027\335"
 124      4B6B5341 
 124      149E6FE6 
 124      E6415071 
 124      23B828D2 
 125 0017 E4F6E11F 		.ascii	"\344\366\341\037\250\212Ph6\265\373 \351\205\026\323"
 125      A88A5068 
 125      36B5FB20 
 125      E98516D3 
 126 0027 4693B4E8 		.ascii	"F\223\264\350\252\2234W\255\025T\360\001\242\024\351"
 126      AA933457 
 126      AD1554F0 
 126      01A214E9 
 127 0037 A2DA9A3E 		.ascii	"\242\332\232>lmM\325\032\372\240BiEpe\027\326\012]H"
 127      6C6D4DD5 
 127      1AFAA042 
 127      69457065 
 127      17D60A5D 
 128 004c 1709D647 		.ascii	"\027\011\326G\221$\236\271\327\352EQ\301!\271\223s\276"
 128      91249EB9 
 128      D7EA4551 
 128      C121B993 
 128      73BE
 129 005e 6FCE39DF 		.ascii	"o\3169\33777\032\003S\353\220`l\206\366\243\364\205"
 129      37371A03 
 129      53EB9060 
 129      6C86F6A3 
 129      F485
 130 0070 9B815F5E 		.ascii	"\233\201_^a,\341\345\020\366\017\301]\027\027\031\223"
 130      612CE1E5 
 130      10F60FC1 
 130      5D171719 
 130      93
 131 0081 3E2DE561 		.ascii	">-\345ar\227\313\316\327i\200\332\245\027\254\213\013"
 131      7297CBCE 
 131      D76980DA 
 131      A517AC8B 
 131      0B
 132 0092 97067A32 		.ascii	"\227\006z2{}\344\005\216\331s\033\031^9 i\255-|mMHs"
 132      7B7DE405 
 132      8ED9731B 
 132      195E3920 
 132      69AD2D7C 
 133 00aa BF498412 		.ascii	"\277I\204\022\2679\030@%#\332\372X\361\332nwJ\321\312"
 133      B7391840 
 133      2523DAFA 
 133      58F1DA6E 
 133      774AD1CA 
 134 00be 6D1077E1 		.ascii	"m\020w\341V\223\2154fe\251\324-\345Tuo\245[c\246\200"
ARM GAS  /tmp/ccQFqzWI.s 			page 10


 134      56938D34 
 134      6665A9D4 
 134      2DE55475 
 134      6FA55B63 
 135 00d4 4B3D18CB 		.ascii	"K=\030\313\021\215f\311sN\233\330@rk\264P\253\216Q\275"
 135      118D66C9 
 135      734E9BD8 
 135      40726BB4 
 135      50AB8E51 
 136 00e9 EBE6EC0B 		.ascii	"\353\346\354\013\317\0267\005\207*\237\311l\256z\272"
 136      CF163705 
 136      872A9FC9 
 136      6CAE7ABA 
 137 00f9 0AF2BC94 		.ascii	"\012\362\274\224{)\327\243F\244to\356\325\270\257\017"
 137      7B29D7A3 
 137      46A4746F 
 137      EED5B8AF 
 137      0F
 138 010a B713D2CA 		.ascii	"\267\023\322\312\013\014\242\013\367PF\335\207\320\007"
 138      0B0CA20B 
 138      F75046DD 
 138      87D007
 139 0119 624CCC2F 		.ascii	"bL\314/\236\365\252:\002\300}B60;\275=5\264\240\232"
 139      9EF5AA3A 
 139      02C07D42 
 139      36303BBD 
 139      3D35B4A0 
 140 012e BC4C8DDE 		.ascii	"\274L\215\336\022\012\324\240Q\230_\276\371n\217\012"
 140      120AD4A0 
 140      51985FBE 
 140      F96E8F0A 
 141 013e 5D28A7B0 		.ascii	"](\247\260'{a\336'NX\375\373\006'7Q\321/eR\256\231\245"
 141      277B61DE 
 141      274E58FD 
 141      FB062737 
 141      51D12F65 
 142 0156 3357BAE5 		.ascii	"3W\272\345s\251\221\010\214@\220Z\014\243\014i\325\327"
 142      73A99108 
 142      8C40905A 
 142      0CA30C69 
 142      D5D7
 143 0168 9ECBE906 		.ascii	"\236\313\351\006FQa\231\341@4\2061\270K\2666\0079\333"
 143      46516199 
 143      E1403486 
 143      31B84BB6 
 143      360739DB 
 144 017c 7FE90BEE 		.ascii	"\177\351\013\356\010\206\007\012\345\277\242\205\253"
 144      0886070A 
 144      E5BFA285 
 144      AB
 145 0189 AB00C3B8 		.ascii	"\253\000\303\270\002\305o\256cB\365\300C\270\273\205"
 145      02C56FAE 
 145      6342F5C0 
 145      43B8BB85 
 146 0199 CB69A1DB 		.ascii	"\313i\241\333j\263\222\376\234\363\331\241\342+\301"
 146      6AB392FE 
 146      9CF3D9A1 
ARM GAS  /tmp/ccQFqzWI.s 			page 11


 146      E22BC1
 147 01a8 FDC39F16 		.ascii	"\375\303\237\026\275?\355\363`\212dL*\031\004\016.o"
 147      BD3FEDF3 
 147      608A644C 
 147      2A19040E 
 147      2E6F
 148 01ba 7DF0E869 		.ascii	"}\360\350i\231J\310\2657\351}\365\246\360\342\021\231"
 148      994AC8B5 
 148      37E97DF5 
 148      A6F0E211 
 148      99
 149 01cb 5AA45BB3 		.ascii	"Z\244[\263Z!\003\235\255#I\206lC\351\261\224\322\312"
 149      5A21039D 
 149      AD234986 
 149      6C43E9B1 
 149      94D2CA
 150 01de D370F44E 		.ascii	"\323p\364N\011\247\325N\031K\3059\360\17790\3757\007"
 150      09A7D54E 
 150      194BC539 
 150      F07F3930 
 150      FD3707
 151 01f1 1EFFC181 		.ascii	"\036\377\301\201'\226\003O\225\003\377\245ofG\237*\204"
 151      2796034F 
 151      9503FFA5 
 151      6F66479F 
 151      2A84
 152 0203 67A4EF2D 		.ascii	"g\244\357-R\257\347\226\212\343B\215KU\311Z\353\222"
 152      52AFE796 
 152      8AE3428D 
 152      4B55C95A 
 152      EB92
 153 0215 73DCC5E8 		.ascii	"s\334\305\350\357\204<\327\324\313\373\036\311\354\215"
 153      EF843CD7 
 153      D4CBFB1E 
 153      C9EC8D
 154 0224 46FB962D 		.ascii	"F\373\226-\024\224\245B\007\375~\335\376\304\215X\\"
 154      1494A542 
 154      07FD7EDD 
 154      FEC48D58 
 154      5C
 155 0235 8FC6F558 		.ascii	"\217\306\365X\244#\0322v\302\240\332\2031\343T\207\321"
 155      A4231A32 
 155      76C2A0DA 
 155      8331E354 
 155      87D1
 156 0247 1E328255 		.ascii	"\0362\202UU5\376\020\253\375q(\022\323[\216\207\365"
 156      5535FE10 
 156      ABFD7128 
 156      12D35B8E 
 156      87F5
 157 0259 9391683C 		.ascii	"\223\221h<\246\037k\012\324\326\350\015\015G\364\246"
 157      A61F6B0A 
 157      D4D6E80D 
 157      0D47F4A6 
 158 0269 FA4067B5 		.ascii	"\372@g\265B\202t8\034n\366\2670-\336\332f\034p\036\244"
 158      42827438 
 158      1C6EF6B7 
ARM GAS  /tmp/ccQFqzWI.s 			page 12


 158      302DDEDA 
 158      661C701E 
 159 027e 5EADEDA1 		.ascii	"^\255\355\241pG\263\241\207Z:\343\304\321\235p(\322"
 159      7047B3A1 
 159      875A3AE3 
 159      C4D19D70 
 159      28D2
 160 0290 D61669FF 		.ascii	"\326\026i\377^\272\2561p8p\232x\241H\324\010\252RQ\342"
 160      5EBAAE31 
 160      7038709A 
 160      78A148D4 
 160      08AA5251 
 161 02a5 7F03AF04 		.ascii	"\177\003\257\004l\261"
 161      6CB1
 162              		.text
 163              		.section	.gnu.lto_vtcb.b7cd81840c4257b8,"",%progbits
 164 0000 789C8594 		.ascii	"x\234\205\224]L\024W\024\307\317\271w\330\017\250\312"
 164      5D4C1457 
 164      14C7CFB9 
 164      77D80FA8 
 164      CA
 165 0011 B39AB83C 		.ascii	"\263\232\270<l\214Ie\2101\331\324D\023\303\223\017$"
 165      6C8C4965 
 165      8831D9D4 
 165      4413C393 
 165      0F24
 166 0023 0D3C37DB 		.ascii	"\015<7\333v\234\024\022\227\305\235\305\350\023W`\375"
 166      769C1412 
 166      97C59DC5 
 166      E8135760 
 166      FD
 167 0034 48FBD098 		.ascii	"H\373\320\230h\2656\222\2641b[EhiE\005\247PDT\240\240"
 167      68B53692 
 167      B431625B 
 167      45686945 
 167      05A75044 
 168 004b A8D168B7 		.ascii	"\250\321h\267\353\2671\015\0305\372\200\3539\227n\203"
 168      EBB7310D 
 168      1835FA80 
 168      EB39976E 
 168      83
 169 005c CBEE72B3 		.ascii	"\313\356r\263\233\231{\317\377\177\347?\277\234;\006"
 169      9B997BCF 
 169      FF7FE73F 
 169      BF9C3B06 
 170 006c 20F00879 		.ascii	" \360\010y\000\236\320u\031\375Q\002\212\257G\001v\372"
 170      009ED075 
 170      19FD5102 
 170      8AAF4701 
 170      76FA
 171 007e 0422DF28 		.ascii	"\004\"\337(\037B\223\300&|)f\004\366\357~\330#V\035"
 171      1F4293C0 
 171      267C2966 
 171      04F6EF7E 
 171      D823561D 
 172 0092 53349289 		.ascii	"S4\222\211[\213U\273\213\011\011\220\026z'\300c\270"
 172      5B8B55BB 
ARM GAS  /tmp/ccQFqzWI.s 			page 13


 172      8B090990 
 172      167A27C0 
 172      63B8
 173 00a4 8A54E3AD 		.ascii	"\212T\343\255\247\276\223/DB\"\0324\235\036\371\366"
 173      A7BE932F 
 173      4442221A 
 173      349D1EF9 
 173      F6
 174 00b5 DE629E0A 		.ascii	"\336b\236\012\014\320\364\212\273\267\243X\206\020\350"
 174      0CD0F48A 
 174      BBB7A358 
 174      8610E8
 175 00c4 3ED97666 		.ascii	">\331vf\304\277\362\250R\315JMoV\376\204\224\370#J\332"
 175      C4BFF2A8 
 175      52CD4A4D 
 175      6F56FE84 
 175      94F8234A 
 176 00d9 0F8FE372 		.ascii	"\017\217\343rl\307\345@K\200?\341J\226\337\374\346\316"
 176      6CC7E540 
 176      4B803FE1 
 176      4A96DFFC 
 176      E6CE
 177 00eb 84577EA4 		.ascii	"\204W~\244\255G\006^\315,\011\376\300V\367\352\326C"
 177      AD47065E 
 177      CD2C09FE 
 177      C056F7EA 
 177      D643
 178 00fd CA6D0D24 		.ascii	"\312m\015$\244\201?\277\357\346A\342T\347\333\375\213"
 178      A4813FBF 
 178      EFE641E2 
 178      54E7DBFD 
 178      8B
 179 010e 3CAD9C3B 		.ascii	"<\255\234;\200'08\233\030O\242\207\030 \257tT\273*\235"
 179      80273038 
 179      9B184FA2 
 179      871820AF 
 179      7454BB2A 
 180 0123 6E51EEF8 		.ascii	"nQ\356\370\352\201\231\"\277\007\264\014\246H\307\030"
 180      EA819922 
 180      BF07B40C 
 180      A648C718 
 181 0133 A685E0AB 		.ascii	"\246\205\340\253Las)ox\364\322\304\371\022\271^'yq\260"
 181      4C617329 
 181      6F78F4D2 
 181      C4F912B9 
 181      5E277971 
 182 0148 B3DD3F9B 		.ascii	"\263\335?\233$yx\327'\207n\336Wj\237\"0E\3301?\015\236"
 182      247978D7 
 182      27876EDE 
 182      576A9F22 
 182      3045D831 
 183 015f C2209976 		.ascii	"\302 \231v?Q\275\006C)\302\000vR\355\0216\247n\014\375"
 183      3F51BD06 
 183      4329C200 
 183      7652ED11 
 183      36A76E0C 
 184 0174 1B7A3FAD 		.ascii	"\033z?\255\2737\244c\246\005f\275\207\373\346\300a\244"
ARM GAS  /tmp/ccQFqzWI.s 			page 14


 184      BB37A463 
 184      A60566BD 
 184      87FBE6C0 
 184      61A4
 185 0186 985D5C14 		.ascii	"\230]\\\024\331\305\356\257\276\304\245\200\277pQf\025"
 185      D9C5EEAF 
 185      BEC4A580 
 185      BF705166 
 185      15
 186 0197 D5F151E4 		.ascii	"\325\361Q\344\024\200\277r\331\310\006\004\330M\033"
 186      1480BF72 
 186      D9C80604 
 186      D84D1B
 187 01a6 03FEC674 		.ascii	"\003\376\306t\020F\221\352\337\267u\275..\373\033\333"
 187      104691EA 
 187      DFB775BD 
 187      2E2EFB1B 
 187      DB
 188 01b7 D441C2EC 		.ascii	"\324A\302\354a\313\211{g\225\317 >\370;\226i\312S\317"
 188      61CB897B 
 188      6795CF20 
 188      3EF83B96 
 188      69CA53CF 
 189 01cb AEDD16B4 		.ascii	"\256\335\026\264\202\247\321\320\357\004\330\243;\240"
 189      82A7D1D0 
 189      EF04D8A3 
 189      3BA0
 190 01d9 BD6FE0C1 		.ascii	"\275o\340\301\007e\251\377\334^\326>?\3315Y\242\335"
 190      0765A9FF 
 190      DC5ED63E 
 190      3FD93559 
 190      A2DD
 191 01eb 67D88D67 		.ascii	"g\330\215g\321\200\024\012\215\007 \203y\016Zw\362\321"
 191      D180140A 
 191      8D072083 
 191      790E5A77 
 191      F2D1
 192 01fd A7FB5AD4 		.ascii	"\247\373Z\324Ee\344\003{N\203=\220\350\037\363\316\202"
 192      4565E403 
 192      7B4E833D 
 192      90E81FF3 
 192      CE82
 193 020f 05ECCD0F 		.ascii	"\005\354\315\017v8\003\266h>\330a\006\333\307E\317|"
 193      763803B6 
 193      683ED861 
 193      06DBC745 
 193      CF7C
 194 0221 B04718EC 		.ascii	"\260G\030\354y.z\263\301v\217!\247\000t\363\200\375"
 194      792E7AB3 
 194      C1768F21 
 194      A70074F3 
 194      80FD
 195 0233 4383ED9F 		.ascii	"C\203\355\237\003\366m\333?}%\031f\275\232\331\200f"
 195      03F66DDB 
 195      3F7D2519 
 195      66BD9AD9 
 195      8066
ARM GAS  /tmp/ccQFqzWI.s 			page 15


 196 0245 960DE8CF 		.ascii	"\226\015\350\317\014\240s\371\000\275|\270\000\240A"
 196      0CA073F9 
 196      00BD7CB8 
 196      00A041
 197 0254 0C166CB5 		.ascii	"\014\026l\265\365\013\264\332\205B\2556\224\267\325"
 197      F50BB4DA 
 197      8542AD36 
 197      94B7D5
 198 0263 0699C8C5 		.ascii	"\006\231\310\305<D\2065\221Ks\210\344\350\242\3139\211"
 198      3C448635 
 198      914B7388 
 198      E4E8A2CB 
 198      3989
 199 0275 5CC910E1 		.ascii	"\\\311\020\341\007\300clI>\270+\371\015Z\244\207\344"
 199      07C0636C 
 199      493EB82B 
 199      F90D5AA4 
 199      87E4
 200 0287 3D3DCF6E 		.ascii	"==\317n{\233f\324\036\245J\023\322\227\026>\362\214"
 200      7B9B66D4 
 200      1EA54A13 
 200      D297163E 
 200      F28C
 201 0299 60137D51 		.ascii	"`\023}Q\374\354\323\247\237\0169\251\311\334\352\276"
 201      FCECD3A7 
 201      9F0E39A9 
 201      C9DCEABE 
 202 02a9 59C42B30 		.ascii	"Y\304+0\317Y\234\026~r\216\222\223\244\011Y\222\013"
 202      CF599C16 
 202      7E728E92 
 202      93A40959 
 202      920B
 203 02bb 3E1DFCC6 		.ascii	">\035\374\306\205\016\376\030\341/\324\220\033\026h"
 203      850EFE18 
 203      E12FD490 
 203      1B1668
 204 02ca C8BF0A35 		.ascii	"\310\277\0125\344x\336\206\034c\374\023y\360_\325\370"
 204      E478DE86 
 204      1C63FC13 
 204      79F05FD5 
 204      F8
 205 02db AF156EC8 		.ascii	"\257\025n\310\311\234\370\257g\360\363\003\340)6'\007"
 205      C99CF8AF 
 205      67F0F303 
 205      E0293627 
 205      07
 206 02ec C39A208F 		.ascii	"\303\232 \217)j\"\372^\222zmy\2719\373\213\333N\334"
 206      296A22FA 
 206      5E927A6D 
 206      79B939FB 
 206      8BDB4EDC 
 207 0300 8CC54D27 		.ascii	"\214\305M'\332\030\263\354\3144\314\327\260com\264\353"
 207      DA18B3EC 
 207      CC34CCD7 
 207      B0636F6D 
 207      B4EB
 208 0312 2D3B5C51 		.ascii	"-;\\Q\261\246\334\002l\220N\334\361~\376\231c\177\034"
ARM GAS  /tmp/ccQFqzWI.s 			page 16


 208      B1A6DC02 
 208      6C904EDC 
 208      F17EFE99 
 208      637F1C
 209 0325 AB5BFDFF 		.ascii	"\253[\375\377\026Q\307\264\242\221H\264\336l\210\306"
 209      1651C7B4 
 209      A29148B4 
 209      DE6C88C6 
 210 0335 E28EB9B1 		.ascii	"\342\216\271\261\272\252\262j\273i\325Z\321\230\035"
 210      BAAAB26A 
 210      BB69D55A 
 210      D1981D
 211 0344 DE168A94 		.ascii	"\336\026\212\224\327\302\272\034j{{\234\265feU\315\246"
 211      D7C2BA1C 
 211      6A7B7B9C 
 211      B5666555 
 211      CDA6
 212 0356 1AB392C4 		.ascii	"\032\263\222\304\346\246zkK\343f\333\264\"N\235\023"
 212      E6A67A6B 
 212      4BE366DB 
 212      B4224E9D 
 212      13
 213 0367 FEC2B2C8 		.ascii	"\376\302\262\310\272b\256\225\222\326e4\265\316\016"
 213      BA62AE95 
 213      92D66534 
 213      B5CE0E
 214 0376 87EAA555 		.ascii	"\207\352\245U5\325\001\016\325\020\253\3730\020\254"
 214      35D5010E 
 214      D510ABFB 
 214      3010AC
 215 0385 0011036F 		.ascii	"\000\021\003o\304\216Dc;\340\0359Rh\332"
 215      C48E4463 
 215      3BE01D39 
 215      5268DA
 216              		.text
 217              		.section	.gnu.lto_chVTSetI.b7cd81840c4257b8,"",%progbits
 218 0000 789C6D52 		.ascii	"x\234mRKO\023Q\024\276\347\336\351\364A)\254\210\013"
 218      4B4F1351 
 218      14BEE7DE 
 218      E9F44129 
 218      AC880B
 219 0013 6270511B 		.ascii	"bpQ\033 i\221\260\345\017\270t\341\226\3242\006\015"
 219      206991B0 
 219      E50FB874 
 219      E196D432 
 219      060D
 220 0025 E1D596C4 		.ascii	"\341\325\226\304U/\235N\352N\224H\202\225@\320\006P"
 220      552F9D4E 
 220      EA4E9448 
 220      829540D0 
 220      0650
 221 0037 90978855 		.ascii	"\220\227\210U\304\011F\243\013\037\020#\001b\202`\010"
 221      C40946A3 
 221      0B1F1023 
 221      01628260 
 221      08
 222 0048 312CA8C8 		.ascii	"1,\250\310\206\004\353\271w\212\011\217\233\231\334"
ARM GAS  /tmp/ccQFqzWI.s 			page 17


 222      8604EBB9 
 222      778A098F 
 222      9B99DC
 223 0057 7B66CEF7 		.ascii	"{f\316\367\235\363}\347*\004\210X\255\214\220\353\270"
 223      9DF37DE7 
 223      2A048858 
 223      AD8C90EB 
 223      B8
 224 0068 D7E00B36 		.ascii	"\327\340\0136\002\264\363\023!\035\016JY\252\226p\227"
 224      02B4F313 
 224      211D0E4A 
 224      59AA9670 
 224      97
 225 0079 B2574CB8 		.ascii	"\262WL\270\233\201b}V\000\304\201;\200\304(S \006{\364"
 225      9B81627D 
 225      5600C481 
 225      3B80C428 
 225      5320067B 
 226 008e 80C27C72 		.ascii	"\200\302|r3C\313\0079\2565c\343J\234\033g\014\344\315"
 226      3343CB07 
 226      39AE3563 
 226      E34A9C1B 
 226      670CE4CD 
 227 00a2 515982C0 		.ascii	"QY\202\300 \224c\326Bb\374>\373C\015\006\240`\230\375"
 227      209463D6 
 227      4262FC3E 
 227      FB430D06 
 227      A06098FD 
 228 00b6 786FC323 		.ascii	"xo\303#B\012e\030\016\376\334\\\262\263s@\360<<\227"
 228      420A6518 
 228      0EFEDC5C 
 228      B2B37340 
 228      F03C3C97 
 229 00ca 79EBF4A5 		.ascii	"y\353\364\2459\217s\376J\343N\2031x\004\014\371`\030"
 229      398F73FE 
 229      4AE34E83 
 229      3178040C 
 229      F96018
 230 00dd 4A61084A 		.ascii	"Ja\010J\011~\"\360\030|\230\255On\317\272\230W\"o\365"
 230      097E22F0 
 230      187C98AD 
 230      4F6ECFBA 
 230      9857226F 
 231 00f2 9B939E3C 		.ascii	"\233\223\236<\262\353\235\233w\202\201m\216\034\307"
 231      B2EB9D9B 
 231      7782816D 
 231      8E1CC7
 232 0101 2A044625 		.ascii	"*\004F%6\365\373\341J\021\253\224\330\201\017_\215\""
 232      36F5FBE1 
 232      4A11AB94 
 232      D8810F5F 
 232      8D22
 233 0113 0B6BA6BA 		.ascii	"\013k\246\272}=\334T\014f\203'\307\301\350\322\230\004"
 233      7D3DDC54 
 233      0C668327 
 233      C7C1E8D2 
 233      9804
ARM GAS  /tmp/ccQFqzWI.s 			page 18


 234 0125 8FF6EFF6 		.ascii	"\217\366\357\3662V-\301\3233\311\316<\230/\313\226U"
 234      32562DC1 
 234      D333C9CE 
 234      3C982FCB 
 234      9655
 235 0137 183F8E54 		.ascii	"\030?\216T\011L\200O\244\257O\374\275[\250&\204ce\226"
 235      094C804F 
 235      A4AF4FFC 
 235      BD5BA826 
 235      84636596 
 236 014b 4F3009AA 		.ascii	"O0\011\252\030\311\330%\223\347r:\347\273\027z*]\024"
 236      18C9D825 
 236      93E7723A 
 236      E7BB177A 
 236      2A5D14
 237 015e 8448B41D 		.ascii	"\204H\264\035\333\265\201\250\253\202\340p \233\235"
 237      DBB581A8 
 237      AB82E070 
 237      209B9D
 238 016d 901D448A 		.ascii	"\220\035D\212\201d)\025;[\207x\261\240\377\262\232\354"
 238      81642915 
 238      3B5B8778 
 238      B1A0FFB2 
 238      9AEC
 239 017f 2AF03E90 		.ascii	"*\360>\220Rz\272KPJ\242\354\024\023\345p\246\300\253"
 239      527ABA4B 
 239      504AA2EC 
 239      1413E570 
 239      A6C0AB
 240 0192 334A3621 		.ascii	"3J6!\276\177\221\350\314!\034}\263<\341\020\243q\200"
 240      BE7F91E8 
 240      CC211C7D 
 240      B33CE110 
 240      A37180
 241 01a5 1BC3DEB9 		.ascii	"\033\303\336\271\205`\037\364v`\263\305X\026\263\341"
 241      85601FF4 
 241      7660B3C5 
 241      5816B3E1 
 242 01b5 A940C334 		.ascii	"\251@\3034\364\001\301\232fv\221\035\025\305_\2170\301"
 242      F401C19A 
 242      6676911D 
 242      15C55F8F 
 242      30C1
 243 01c7 2C65E528 		.ascii	",e\345(\234\320\014\317@E\206\031P\361\317\322\300\\"
 243      9CD00CCF 
 243      40458619 
 243      50F1CFD2 
 243      C05C
 244 01d9 97A76248 		.ascii	"\227\247bH\336\237\357\351\363\267\365\004\216\315I"
 244      DE9FEFE9 
 244      F3B7F504 
 244      8ECD49
 245 01e8 F2B7E739 		.ascii	"\362\267\3479T\210\006O\321\266\226\336\017\336\321"
 245      5488064F 
 245      D1B696DE 
 245      0FDED1
 246 01f7 F97B8E83 		.ascii	"\371{\216\203rZ\342\340\250\270\014x\005\236\374\200"
ARM GAS  /tmp/ccQFqzWI.s 			page 19


 246      725AE2E0 
 246      A8B80C78 
 246      059EFC80 
 247 0207 C4AABE91 		.ascii	"\304\252\276\221VEAKc\2671\377\331.4\272\200\300\213"
 247      5645414B 
 247      63B731FF 
 247      D92E34BA 
 247      80C08B
 248 021a 7C7E9632 		.ascii	"|~\2262\222\252e[\2200w\027\251H\026\0253\231\355U{"
 248      92AA655B 
 248      90307717 
 248      A9481615 
 248      3399ED55 
 249 022f EC80DF94 		.ascii	"\354\200\337\224\372\013r\224\312\356\341%\304\3200"
 249      FA0B7294 
 249      CAEEE125 
 249      C4D030
 250 023e A4704BA8 		.ascii	"\244pK\250r8\002\263\357\033\310q\012\003\310\026$\315"
 250      723802B3 
 250      EF1BC871 
 250      0A03C816 
 250      24CD
 251 0250 F112119F 		.ascii	"\361\022\021\237\344*\314aA\002\263\026\221\316\024"
 251      E42ACC61 
 251      4102B316 
 251      91CE14
 252 025f 9DD974A6 		.ascii	"\235\331t\246\032\314C~!\317\324e\011\023k\007=Dz\234"
 252      1ACC437E 
 252      21CFD465 
 252      09136B07 
 252      3D447A9C 
 253 0273 F759BF3F 		.ascii	"\367Y\277?`=\315\341@[$p\255)\324\030\255\327\002\241"
 253      603DCDE1 
 253      405B2470 
 253      AD29D418 
 253      ADD702A1 
 254 0287 86F688BF 		.ascii	"\206\366\210\277\201\260\366H\213\255^k\014\336P\333"
 254      81B0F648 
 254      8BAD5E6B 
 254      0CDE50DB 
 255 0297 2357A34D 		.ascii	"#W\243M!\326\022l\253\371\217\211h\341\210@\205\233"
 255      21D6126C 
 255      ABF98F89 
 255      68E18840 
 255      859B
 256 02a9 A36D21ED 		.ascii	"\243m!\3550\254\023{]Xk\215jM!\255\256\252\252\332\037"
 256      30AC137B 
 256      5D586B8D 
 256      6A4D21AD 
 256      AEAAAADA 
 257 02be 22FF0000 		.ascii	"\"\377\000\000\000D\272"
 257      0044BA
 258              		.text
 259              		.section	.gnu.lto_rt_test_002_002_execute.b7cd81840c4257b8,"",%progbits
 260 0000 789CAD59 		.ascii	"x\234\255YiLTY\026~\347\276\2426Pl\227\036m\031\033"
 260      694C5459 
 260      167EE7BE 
ARM GAS  /tmp/ccQFqzWI.s 			page 20


 260      A236506C 
 260      971E6D19 
 261 0015 263146D3 		.ascii	"&1F\323M\231\236\231\230t2?&f&\351I\214\023M\346\257"
 261      4D999E99 
 261      9874323F 
 261      266626E9 
 261      498C134D 
 262 002b B1B17A24 		.ascii	"\261\261z$\021\321\252\322\264?&<(\012l\351\266\265"
 262      11D1AAD2 
 262      B43F263C 
 262      280A6CE9 
 262      B6B5
 263 003d 1D51DB05 		.ascii	"\035Q\333\005\367}aQQQ,\005\254\026\334@lE\\\020\004"
 263      F77D6151 
 263      51512C05 
 263      AC16DC40 
 263      6C455C10 
 264 0052 57101517 		.ascii	"W\020\025\027\004\2549\347\276zE-\357=\324\351\012)"
 264      04AC39E7 
 264      BE7A452D 
 264      EF3DD4E9 
 264      0A29
 265 0064 B8DB39F7 		.ascii	"\270\3339\367~\337w\316\271\357a\020@\240\317\177\306"
 265      7EDF77CE 
 265      B9EF6110 
 265      40A0CF7F 
 265      C6
 266 0075 08C254FC 		.ascii	"\010\302T\3743\003\377\206X\001\330\262\013\202\220"
 266      3303FF86 
 266      5801D8B2 
 266      0B8290
 267 0084 69664C5C 		.ascii	"ifL\\<N\220\254\006\372\216\023\301 w\033X\014\3576"
 267      3C4E90AC 
 267      06FA8E13 
 267      C120771B 
 267      580CEF36 
 268 0098 F2EE1830 		.ascii	"\362\356\0300\312\335Ff\342\335f\336m\002\263\334mf"
 268      CADD4666 
 268      E2DD66DE 
 268      6D02B3DC 
 268      6D66
 269 00aa 967A1B76 		.ascii	"\226z\033v[\217\217\301n\013X\345n+\000\375!\231A\310"
 269      5B8F8FC1 
 269      6E0B58E5 
 269      6E2B00FD 
 269      219941C8 
 270 00be 60A221C6 		.ascii	"`\242!\306h2[\254\220\001/X\037\203\323\271mG\331\370"
 270      68325BAC 
 270      90012F58 
 270      1F83D3B9 
 270      6D47D9F8 
 271 00d2 1D127E9A 		.ascii	"\035\022~\232Zw\247fJ\236\221\036Q\020\374\214\357V"
 271      5A77A766 
 271      4A9E911E 
 271      5110FC8C 
 271      EF56
 272 00e4 801D305E 		.ascii	"\200\0350^\300iO{\327\227Z\272\230G\004\030\216\315"
ARM GAS  /tmp/ccQFqzWI.s 			page 21


 272      C0694F7B 
 272      D7975ABA 
 272      98470418 
 272      8ECD
 273 00f6 BEDBCB96 		.ascii	"\276\333\313\226\231\250\311`#`\273\253\362i\217E\234"
 273      99A8C960 
 273      2360BBAB 
 273      F2698F45 
 273      9C
 274 0107 04347575 		.ascii	"\0044uu\353\222J\363\330-\222W\222\274\215\325#2%ov"
 274      EB924AF3 
 274      D82D9257 
 274      92BC8DD5 
 274      2332256F 
 275 011c A2471461 		.ascii	"\242G\024a7\210h\025vA\002\354\204\004n\035g\327f\027"
 275      37886815 
 275      764102EC 
 275      84046E1D 
 275      67D76617 
 276 0130 AE1365C3 		.ascii	"\256\023e\303\006\362s\376\347\226\301\262\341Dl^[u"
 276      06F273FE 
 276      E796C1B2 
 276      E1446C5E 
 276      5B75
 277 0142 B3CE247E 		.ascii	"\263\316$~\311\355n\250x\331\027\217v\245,\311\333\260"
 277      C9ED6EA8 
 277      78D9178F 
 277      76A52CC9 
 277      DBB0
 278 0154 64F01AD9 		.ascii	"d\360\032\331\256\001\366\313v\367\241\335\275\375v"
 278      AE01F6CB 
 278      76F7A1DD 
 278      BDFD76
 279 0163 9B8BDEAE 		.ascii	"\233\213\336\256\034d\314\246s%\302\001\030\013{`\254"
 279      1C64CCA6 
 279      7325C201 
 279      180B7B60 
 279      AC
 280 0174 7C2A2804 		.ascii	"|*(\004#\022`Tz\303M7\365\276\370\373r\267\364\213d"
 280      23126054 
 280      7AC34D37 
 280      F5BEF8FB 
 280      72B7F48B 
 281 0189 D0B00D45 		.ascii	"\320\260\015E\221K\244bI\002\315\275@\361{\316/y\317"
 281      914BA462 
 281      4902CDBD 
 281      40F17BCE 
 281      2F79CF
 282 019c F90761EC 		.ascii	"\371\007a\354\201i^\311\357w#\203\023\212\363\366\254"
 282      81695EC9 
 282      EF772383 
 282      138AF3F6 
 282      AC
 283 01ad 83710681 		.ascii	"\203q\006\201Ng\341\337\203\371\224xnx\030\337\316\010"
 283      4E67E1DF 
 283      83F99478 
 283      6E7818DF 
ARM GAS  /tmp/ccQFqzWI.s 			page 22


 283      CE08
 284 01bf 7E885182 		.ascii	"~\210Q\202G\214\031\215_FA\350D`H#O\031\243\337b\033"
 284      478C198D 
 284      5F4641E8 
 284      44604823 
 284      4F19A3DF 
 285 01d5 647575DE 		.ascii	"duu\336\370\202\240\302\275\344{N_\344l\2338\021G\217"
 285      F882A0C2 
 285      BDE47B4E 
 285      5FE46C9B 
 285      3811478F 
 286 01e9 3E6E3465 		.ascii	">n4e\364I\213%i\010\366}'\312\210\347u\326\227X\013"
 286      F4498B25 
 286      6908F67D 
 286      27CA88E7 
 286      75D69758 
 287 01fe 607DA6C4 		.ascii	"`}\246\304\373\315p\0305v\210v\011\245P@*9X\351\313"
 287      FBCD7018 
 287      35768876 
 287      09A55040 
 287      2A3958E9 
 288 0213 31931D33 		.ascii	"1\223\0353\000\034\301\221\373\340\366\276\252\216#"
 288      001CC191 
 288      FBE0F6BE 
 288      AA8E23
 289 0222 376ED110 		.ascii	"7n\321\020e\332\342gH\024\034\205\014\334\245Uh\006"
 289      65DAE267 
 289      48141C85 
 289      0CDCA555 
 289      6806
 290 0234 C6B9C333 		.ascii	"\306\271\3033\341l\\\234\355\355\256\346]\321\273\212"
 290      E16C5C9C 
 290      EDEDAEE6 
 290      5DD1BB8A 
 291 0244 F5E34904 		.ascii	"\365\343I\0048\206Kq\256G\214\023\370\221\356*Gz\327"
 291      38864B71 
 291      AE478C13 
 291      F891EE2A 
 291      477AD7
 292 0257 339405CF 		.ascii	"3\224\005\317p\\>C\225\377\2257^>\003\203\0238\322\014"
 292      705C3E43 
 292      95FF9537 
 292      5E3E0383 
 292      1338D20C 
 293 026b 594368E9 		.ascii	"YCh\351\266\352\272\223\261\342\034\216P\327\352\242"
 293      B6EABA93 
 293      B1E21C8E 
 293      50D7EAA2 
 294 027b 9D96809E 		.ascii	"\235\226\200\236\372\036L9\265-GZ\226i\366\210\203\240"
 294      FA1E4C39 
 294      B52D475A 
 294      9669F688 
 294      83A0
 295 028d 5C85C093 		.ascii	"\\\205\300\223\234\360\334\007\322\011\003\031\036\004"
 295      9CF0DC07 
 295      D2090319 
 295      1E04
ARM GAS  /tmp/ccQFqzWI.s 			page 23


 296 029b 89E0C5B1 		.ascii	"\211\340\305\261{\220\325\334\340\353\230\024.foM\353"
 296      7B90D5DC 
 296      E0EB9814 
 296      2E666F4D 
 296      EB
 297 02ac 342E613F 		.ascii	"4.a?\023#t\356\365\347\327\300\237\0058E\203\206\310"
 297      132374EE 
 297      F5E7D7C0 
 297      9F053845 
 297      8386C8
 298 02bf C1EECBEB 		.ascii	"\301\356\313\353\020u\364%\300i\232\020\023\031%\002"
 298      1075F425 
 298      C0699A10 
 298      13192502 
 299 02cf 54209202 		.ascii	"T \222\002TRx\200p\221N\273\271\240\370\2655\251\011"
 299      54527880 
 299      70914EBB 
 299      B9A0F8B5 
 299      35A909
 300 02e2 0AA4D5A8 		.ascii	"\012\244\325\250\277\301\264d_K\231\204y\011'VA\022"
 300      BFC1B464 
 300      5F4B9984 
 300      79092756 
 300      4112
 301 02f4 07ADF371 		.ascii	"\007\255\363q}#\303\0368\003\006\276s\001|<\230w\226"
 301      7D23C31E 
 301      380306BE 
 301      73017C3C 
 301      987796
 302 0307 57B4C625 		.ascii	"W\264\306%\265\004V\307\323\334g\373\213\257\304\362"
 302      B50456C7 
 302      D3DC67FB 
 302      8BAFC4F2 
 303 0317 D5BFD06A 		.ascii	"\325\277\320j8\013\006\342\225\203 \220\036\232<%gA"
 303      380B06E2 
 303      95832090 
 303      1E9A3C25 
 303      6741
 304 0329 1684454B 		.ascii	"\026\204EK\020\325j\202\260pA\254\255\321\027D\015\027"
 304      10D56A82 
 304      B07041AC 
 304      ADD11744 
 304      0D17
 305 033b 848504A1 		.ascii	"\204\205\004\241\020\027F\326\256\251\003\220u\216\223"
 305      101746D6 
 305      AEA90390 
 305      758E93
 306 034a 158C8841 		.ascii	"\025\214\210A\010\325ym\262\362\356)d\031\243\341\276"
 306      08D5796D 
 306      B2F2EE29 
 306      6419A3E1 
 306      BE
 307 035b 40704751 		.ascii	"@pGQ\370\206(\274HKLQ\024>\332\200\024\236#\012/iPX"
 307      F88628BC 
 307      484B4C51 
 307      143EDA80 
 307      149E230A 
ARM GAS  /tmp/ccQFqzWI.s 			page 24


 308 0373 CB29AC0B 		.ascii	"\313)\254\013\241\360m\301\235\362X\205\235\363\234"
 308      A1F06DC1 
 308      9DF25885 
 308      9DF39C
 309 0382 9DCB9C9D 		.ascii	"\235\313\234\235H*\352\025*\310\001\017\227\325\265"
 309      482AEA15 
 309      2AC8010F 
 309      97D5B5
 310 0391 9FBF67B8 		.ascii	"\237\277g\270\\\011\206\313\257r\270\234~V\270#N\016"
 310      5C0986CB 
 310      AF72B89C 
 310      7E56B823 
 310      4E0E
 311 03a3 1711AE72 		.ascii	"\027\021\256r\2402\233\257\371\352M\221@u(@\231\243"
 311      A0329BAF 
 311      F9EA4D91 
 311      40752840 
 311      99A3
 312 03b5 0F754D15 		.ascii	"\017uM\025\250\233\260P\200\006Zb\211J\370\007\011\243"
 312      A89BB050 
 312      80065A62 
 312      894AF807 
 312      09A3
 313 03c7 EB2ACBBA 		.ascii	"\353*\313\272+\226\002B\323H\313\2544\330\226WUn\022"
 313      2B960242 
 313      D348CBAC 
 313      34D89657 
 313      556E12
 314 03da 1F018FDB 		.ascii	"\037\001\217\333\263\275?\264(u\240\3017\325\267%(\205"
 314      B3BD3FB4 
 314      2875A0C1 
 314      37D5B725 
 314      2885
 315 03ec 9B031799 		.ascii	"\233\003\027\231[\344\363\006\307\3776~\243P\237\021"
 315      5BE4F306 
 315      C7FF367E 
 315      A3509F11 
 316 03fc 02F94BF3 		.ascii	"\002\371K\363\013\014In&\007\001W\\_\263\247\305\302"
 316      0B0C496E 
 316      26070157 
 316      5C5FB3A7 
 316      C5C2
 317 040e 916F0A84 		.ascii	"\221o\012\204\320\231\346\222cF\"\351\016\030\334\030"
 317      D099E692 
 317      634622E9 
 317      0E18DC18 
 318 041e 67023473 		.ascii	"g\0024s6\262\274\227o\001\231#\3534\200]M}\233|\363"
 318      36B2BC97 
 318      6F019923 
 318      EB34805D 
 318      4D7D9B7C 
 319 0433 E904DC23 		.ascii	"\351\004\334#\017\002j\034\224\033YM\3455\035F\302E"
 319      0F026A1C 
 319      941B594D 
 319      E5351D46 
 319      C245
 320 0445 E961D488 		.ascii	"\351a\324\210\250\237\245k?\016\257\237\346p\225\267"
ARM GAS  /tmp/ccQFqzWI.s 			page 25


 320      A89FA56B 
 320      3F0EAF9F 
 320      E67095B7 
 321 0455 048C79CB 		.ascii	"\004\214y\313\032En\213w\334\201\354\353\356O\250\215"
 321      1A456E8B 
 321      77DC81EC 
 321      EBEE4FA8 
 321      8D
 322 0466 5B418B07 		.ascii	"[A\213\007\036\037\355\036D\344~\204\220\336\015\254"
 322      1E1FED1E 
 322      44E47E84 
 322      90DE0DAC 
 323 0476 7D8A7969 		.ascii	"}\212yi\3618Q5\272\006L\205\255X\222ur\237?\377\026"
 323      F1385135 
 323      BA064C85 
 323      AD589275 
 323      729F3FFF 
 324 048b FC2B407A 		.ascii	"\374+@zd\366\223\016\354\027\005h\323\311}\255D\320"
 324      64F6930E 
 324      EC170568 
 324      D3C97DAD 
 324      44D0
 325 049d 3D8DC0B9 		.ascii	"=\215\300\271\317\211{\020\0228*i\355\241j\340<R\002"
 325      CF897B10 
 325      12382A69 
 325      EDA16AE0 
 325      3C5202
 326 04b0 871C7004 		.ascii	"\207\034p\004\014\274\210\022\031\236\322\361<Eq.H\373"
 326      0CBC8812 
 326      199ED2F1 
 326      3C45712E 
 326      48FB
 327 04c2 0DBEFAA8 		.ascii	"\015\276\372\250\214\256\247\375\307\332\332oW\327~"
 327      8CAEA7FD 
 327      C7DADA6F 
 327      57D77E
 328 04d1 091DB343 		.ascii	"\011\035\263C[\373O\202\332\377\277\344\376\224\334"
 328      5BFB4F82 
 328      DAFFBFE4 
 328      FE94DC
 329 04e0 7472D49E 		.ascii	"tr\324\236\205\310=\\\311\3618\372<D\3118\223\026\322"
 329      85C83D5C 
 329      C9F138FA 
 329      3C44C938 
 329      9316D2
 330 04f3 4050C94F 		.ascii	"@P\311O\344>Y\252\324(\011Sr{\177\017\343\215\226\250"
 330      E43E59AA 
 330      D4280953 
 330      727B7F0F 
 330      E38D96A8 
 331 0507 464097ED 		.ascii	"F@\227\355\244\313\370\020!\306|\270\020\273\336I\210"
 331      A4CBF810 
 331      21C67CB8 
 331      10BBDE49 
 331      88
 332 0518 EDDA427C 		.ascii	"\355\332B|\241#\304.\202\356\245\206\020_qH_\353\013"
 332      A123C42E 
ARM GAS  /tmp/ccQFqzWI.s 			page 26


 332      82EEA586 
 332      105F7148 
 332      5FEB0B
 333 052b B15B5588 		.ascii	"\261[U\210o\024!v)B4\006\205\270- D\005\334\017(}=\210"
 333      6F142176 
 333      29423406 
 333      85B82D20 
 333      4405DC0F 
 334 0543 895EAD7B 		.ascii	"\211^\255{\242S\353z\265k]\237N\255\353!\244\336j \345"
 334      A253EB7A 
 334      B56B5D9F 
 334      4EADEB21 
 334      A4DE6A20 
 335 0558 E748494C 		.ascii	"\347HIL\267\326e25\244\262X\000\251\236\376Z\227\374"
 335      B7D66532 
 335      35A4B258 
 335      00A99EFE 
 335      5A97FC
 336 056b 9EB5CECD 		.ascii	"\236\265\316\315\224Z\227\315x\255\013>\312\230\321"
 336      945A97CD 
 336      78AD0B3E 
 336      CA98D1
 337 057a BB8725A8 		.ascii	"\273\207%\250\303<\240\364r\230\256\364\362^\016t\377"
 337      C33CA0F4 
 337      7298AEF4 
 337      F25E0E74 
 337      FF
 338 058b CB65DAD2 		.ascii	"\313e\332\322C\343\002,f\352\200~\307\010\320%LWzy\252"
 338      43E3022C 
 338      66EA807E 
 338      C708D025 
 338      4C577A79 
 339 05a0 807EAF00 		.ascii	"\200~\257\000J\016\264\212|Mp\353\261\321\316\177`j"
 339      4A0EB48A 
 339      7C4D70EB 
 339      B1D1CE7F 
 339      606A
 340 05b2 0AE9811C 		.ascii	"\012\351\201\034\014\246\245L5\323\025\223:~TY\327\203"
 340      0CA6A54C 
 340      35D31593 
 340      3A7E5459 
 340      D783
 341 05c4 996EBE00 		.ascii	"\231n\276\000\313\330o\222\351~\"\314\226slV0\255L7"
 341      CBD86F92 
 341      E97E22CC 
 341      96736C56 
 341      30AD4C37 
 342 05d8 0C47FFCB 		.ascii	"\014G\377\313\3723\035\316\244\2054\020\314t\313\344"
 342      FA331DCE 
 342      A4853410 
 342      CC74CBE4 
 343 05e8 3E397B51 		.ascii	">9{Q\243X\311t'k\372rD:\246\322\305\250\021Q\264\237"
 343      A358C974 
 343      276BFA72 
 343      443AA6D2 
 343      C5A81151 
 344 05fe 4716EDD8 		.ascii	"G\026\355\330p\341\254d\201\242\375jm\034\267\305;0"
ARM GAS  /tmp/ccQFqzWI.s 			page 27


 344      70E1AC64 
 344      81A2FD6A 
 344      6D1CB7C5 
 344      3B30
 345 0610 39366272 		.ascii	"96br\3046\356%$9\2324\223\343\200\211 \237\351&\002"
 345      C436EE25 
 345      24399A34 
 345      93E38089 
 345      209FE926 
 346 0625 7F7E2F25 		.ascii	"\177~/%GN\232J*X\025M\230\364\350\000\262\274\232i'"
 346      474E9A4A 
 346      2A58154D 
 346      98F4E800 
 346      B2BC9A69 
 347 063a 827CE260 		.ascii	"\202|\342`\215\206n\177\346\334\254\325O\004\353Tu\273"
 347      8D866E7F 
 347      E6DCACD5 
 347      4F04EB54 
 347      75BB
 348 064c 5ED12D39 		.ascii	"^\321-9\340\270\230\373Sf\231\2342\213ujw\336+\035I"
 348      E0B898FB 
 348      5366999C 
 348      328B756A 
 348      77DE2B1D 
 349 0661 6FD09174 		.ascii	"o\320\221t\201\272\244\213H\322\033\265%\275\351\267"
 349      81BAA48B 
 349      48D21BB5 
 349      25BDE9B7 
 350 0671 91F41682 		.ascii	"\221\364\026\202s3\207m\253\246\244G\340\350\266\020"
 350      7333876D 
 350      ABA6A447 
 350      E0E8B610 
 351 0681 49E34C5A 		.ascii	"I\343LZH\003AIo\222\373d\311R\243(\\\322\005\375]\214"
 351      48034149 
 351      6F92FB64 
 351      C952A328 
 351      5CD205FD 
 352 0697 3756B2C8 		.ascii	"7V\262\310F@\240\005$\320\021!\002\265\010\365\266\017"
 352      4640A005 
 352      24D01121 
 352      02B508F5 
 352      B60F
 353 06a9 14E8F677 		.ascii	"\024\350\366w\022h\201\206@wh\011t\247\216@\267\023"
 353      12688186 
 353      40776809 
 353      74A78E40 
 353      B713
 354 06bb A2BB3404 		.ascii	"\242\2734\004\272\233#\275G_\240{U\005\272O\021\350"
 354      BA9B23BD 
 354      475FA07B 
 354      5505BA4F 
 354      11E8
 355 06cd 7645A0D6 		.ascii	"vE\240\326\240@\253\002\002-R\212Xa\337\373\276\337"
 355      A040AB02 
 355      022D528A 
 355      5861DFFB 
 355      BEDF
ARM GAS  /tmp/ccQFqzWI.s 			page 28


 356 06df D81F2C62 		.ascii	"\330\037,b\007\344\"vv\353\261\336\300\003[\014\024"
 356      07E42276 
 356      76EBB1DE 
 356      C0035B0C 
 356      14
 357 06f0 CA45CCDB 		.ascii	"\312E\314\333-?U\343\360\325\315\345+\006O\330\311\017"
 357      2D3F55E3 
 357      F0D5CDE5 
 357      2B064FD8 
 357      C90F
 358 0702 BE62FA9A 		.ascii	"\276b\372\232\215H\301P!\360\252\260\210M\240\367\003"
 358      8D48C150 
 358      21F0AAB0 
 358      884DA0F7 
 358      03
 359 0713 3EFF2A33 		.ascii	">\377*3z\346\320\324\240\241\241\364\222\215?\224C1"
 359      7AE6D0D4 
 359      A0A1A1F4 
 359      928D3F94 
 359      4331
 360 0725 CB0816C5 		.ascii	"\313\010\026\305\035w\333\256\232\304\\\306\037\274"
 360      1D77DBAE 
 360      9AC45CC6 
 360      1FBC
 361 0733 2E35E6AE 		.ascii	".5\346\256\210\015\320[Z7+H\357P(a*o\274\220^t&\277"
 361      880DD05B 
 361      5A372B48 
 361      EF502861 
 361      2A6FBC90 
 362 074b D269AD15 		.ascii	"\322i\255\025#c\362\3554\232\022\210\313\270h:\016q"
 362      2363F2ED 
 362      349A1288 
 362      CBB8683A 
 362      0E71
 363 075d 3A0EF304 		.ascii	":\016\363\004\353\256h(\342\357\244\206A\\\370\356\207"
 363      EBAE6828 
 363      E2EFA486 
 363      415CF8EE 
 363      87
 364 076e 04B6CE81 		.ascii	"\004\266\316\201s_~\343\217\355\007n8\034A\340J\031"
 364      735F7EE3 
 364      8FED076E 
 364      381C41E0 
 364      4A19
 365 0780 01775406 		.ascii	"\001wT\006.\370J`8\222|\214\003\247\200\026r:\357\325"
 365      2EF84A60 
 365      38927C8C 
 365      03A78016 
 365      723AEFD5 
 366 0794 6AE5CDA5 		.ascii	"j\345\315\245\372\331\312\330\330\010\020{\"@<.\203"
 366      FAD9CAD8 
 366      D808107B 
 366      22403C2E 
 366      83
 367 07a5 E87D1D1B 		.ascii	"\350}\035\0330\357.~|\334*\356\226\221|}\247\345L|\224"
 367      30EF2E7E 
 367      7CDC2AEE 
ARM GAS  /tmp/ccQFqzWI.s 			page 29


 367      96917C7D 
 367      A7E54C7C 
 368 07ba AF117042 		.ascii	"\257\021pB\305W9\367u(\367\\\221\2256>\202\336\017E"
 368      C55739F7 
 368      7528F75C 
 368      9195363E 
 368      82DE0F45 
 369 07ce 31BE     		.ascii	"1\276"
 370 07d0 F6D9D6EB 		.ascii	"\366\331\326\353\361b\241l\375\3733\017<\326(\353\303"
 370      F162A16C 
 370      FDFB330F 
 370      3CD628EB 
 370      C3
 371 07e1 C1AB62FD 		.ascii	"\301\253b\375\024\267\036\"D\371$\037\373\331 \371 "
 371      14B71E22 
 371      44F9241F 
 371      FBD920F9 
 371      20
 372 07f2 A7230FB2 		.ascii	"\247#\017\262o\343\363\365\242X*\273:r\247\367\260%"
 372      6FE3F3F5 
 372      A2582ABB 
 372      3A72A7F7 
 372      B025
 373 0804 CAD5EFA0 		.ascii	"\312\325\357\240B\305U%\012\"\371C\357[U\372\367\255"
 373      42C55525 
 373      0A22F943 
 373      EF5B55FA 
 373      F7AD
 374 0816 1A5413D9 		.ascii	"\032T\023\331\307\343\020`DP@Y\203\243\225uF%s?\331"
 374      C7E31060 
 374      44504059 
 374      83A39575 
 374      4625733F 
 375 082b 7A8E6E65 		.ascii	"z\216ne>\246ve\353\303+[\014\306\272\316\225\255\212"
 375      3EA67665 
 375      EBC32B5B 
 375      0CC6BACE 
 375      95AD8A
 376 083e 1C9ED5C8 		.ascii	"\034\236\325\310,\325\\\3125\372W\266s\252\231\345\274"
 376      2CD55CCA 
 376      35FA57B6 
 376      73AA99E5 
 376      BC
 377 084f 9259C881 		.ascii	"\222Y\310\201p\037r\233\016\327\265\305\320>\243\337"
 377      701F729B 
 377      0ED7B5C5 
 377      D03EA3DF 
 378 085f 9E8DF4B3 		.ascii	"\236\215\364\263x~8\270\200\244\205\013\264i\333\311"
 378      787E38B8 
 378      80A4850B 
 378      B469DBC9 
 379 086f F16102BD 		.ascii	"\361a\002\275\210\241\201:\0121b\016\245\375\022\016"
 379      88A1813A 
 379      0A31620E 
 379      A5FD120E 
 380 087f 272778C4 		.ascii	"''x\304Q\037\370\030R\253\237\334\333\267^ D}\032\311"
 380      511FF818 
ARM GAS  /tmp/ccQFqzWI.s 			page 30


 380      52AB9FDC 
 380      DBB75E20 
 380      447D1AC9 
 381 0893 BD4E85A1 		.ascii	"\275N\205\241>|\020\301%\227u\322{-\221P\257A\302\025"
 381      3E7C10C1 
 381      259775D2 
 381      7B2D9150 
 381      AF41C215 
 382 08a7 4EC2AFFA 		.ascii	"N\302\257\372\351\375\252*\011\327\024\022j\003\227"
 382      E9FDAA2A 
 382      09D71412 
 382      6A0397
 383 08b6 37429327 		.ascii	"7B\223'\3652\245PR\243<\264q*\264Q)\223\227\355\355"
 383      F532A550 
 383      52A33CB4 
 383      712AB451 
 383      299397ED 
 384 08cb 8D557FF1 		.ascii	"\215U\177\361\371\211\237\015AG\0152o\3477\355\275`"
 384      F9899F0D 
 384      41470D32 
 384      6FE737ED 
 384      BD60
 385 08dd 9483DD0A 		.ascii	"\224\203\335\012\327\031\3220z\300D\225\240\232\250"
 385      D719D230 
 385      7AC04495 
 385      A09AA8
 386 08ec 1AA312D5 		.ascii	"\032\243\022\325\362\013\341\211\352FH\266\177\277\220"
 386      F20BE189 
 386      EA4648B6 
 386      7FBF90
 387 08fb BC39C023 		.ascii	"\2749\300#P\345tr\037\010\303\217\310\376\272\234\335"
 387      50E57472 
 387      1F08C38F 
 387      C8FEBA9C 
 387      DD
 388 090c ADA25826 		.ascii	"\255\242X&\247\216\252\336\006\2375XM\376\226\335\342"
 388      A78EAADE 
 388      069F3558 
 388      4DFE96DD 
 388      E2
 389 091d 910A4983 		.ascii	"\221\012I\2031p[>\310\037\023`\242\372\305\250\211\314"
 389      31705B3E 
 389      C81F1360 
 389      A2FAC5A8 
 389      89CC
 390 092f DE52B900 		.ascii	"\336R\271\000\224n\305\013\300\035\275\030n\326\211"
 390      946EC50B 
 390      C01DBD18 
 390      6ED689
 391 093e E19B64B6 		.ascii	"\341\233d\266EC>w\271|Z\365c\270MU>\367\024\371\220"
 391      45433E77 
 391      B97C5AF5 
 391      63B84D55 
 391      3EF714F9 
 392 0953 03AA876F 		.ascii	"\003\252\207o\376!\270\305\321\241u\355\367\221u\255"
 392      FE21B8C5 
 392      D1A175ED 
ARM GAS  /tmp/ccQFqzWI.s 			page 31


 392      F79175AD 
 393 0963 C9D31C16 		.ascii	"\311\323\034\026\257\321\325\315\010\0170F\357\363\352"
 393      AFD1D5CD 
 393      080F3046 
 393      EFF3EA
 394 0972 F610AB1B 		.ascii	"\366\020\253\033\327\345\341\237|\006\002 \374\022\320"
 394      D7E5E19F 
 394      7C060220 
 394      FC12D0
 395 0981 B4ADD8CA 		.ascii	"\264\255\330\312o\001\011\312-\340Q\324- R\027\217C"
 395      6F0109CA 
 395      2DE051D4 
 395      2D205217 
 395      8F43
 396 0993 74115EF8 		.ascii	"t\021^\370]\025\212.\3245\327\216\272@\373\274j\254"
 396      5D158A2E 
 396      D435D78E 
 396      BA40FBBC 
 396      6AAC
 397 09a5 AF63B41D 		.ascii	"\257c\264\035\316\330\007f\222\216\2012\311\217`\010"
 397      CED80766 
 397      928E8132 
 397      C98F6008 
 398 09b5 90AE9249 		.ascii	"\220\256\222I\236hg\222N\235L\322ARx\252!\205g\\\012"
 398      9E686792 
 398      4E9D4CD2 
 398      415278AA 
 398      2185675C 
 399 09ca CFF53349 		.ascii	"\317\3653I\227\252\024^(R\350P2\011\362\314SD\243\254"
 399      97AA145E 
 399      2852E850 
 399      3209F2CC 
 399      5344A3AC 
 400 09de 0DF74193 		.ascii	"\015\367A\223\374\177\225Q\262B\202\027\2261\350\354"
 400      FC7F9551 
 400      B2428217 
 400      9631E8EC 
 401 09ee 25A3FFC6 		.ascii	"%\243\377\306\305\250\247\220O\375\014/y\360\212\321"
 401      C5A8A790 
 401      4FFD0C2F 
 401      79F08AD1 
 402 09fe FF4E46E1 		.ascii	"\377NF\341p\373\362\256\253,\351D\340\235v\"\255\350"
 402      70FBF2AE 
 402      AB2CE944 
 402      E09D7622 
 402      ADE8
 403 0a10 2EBE9963 		.ascii	".\276\231c\300\025#=b\022\274fI2\325\335,\303#\376A"
 403      C015233D 
 403      6212BC66 
 403      4932D5DD 
 403      2CC323FE 
 404 0a25 7848F4F0 		.ascii	"xH\364\360O'F(^_q\333\177JN\266\311?.\273\323es\270"
 404      4F274628 
 404      5E5F71DB 
 404      7F4A4EB6 
 404      C93F2EBB 
 405 0a3d 6CCEF405 		.ascii	"l\316\364\005\216\024\273\322\234A\277g8\355\363\027"
ARM GAS  /tmp/ccQFqzWI.s 			page 32


 405      8E14BBD2 
 405      9C41BF67 
 405      38EDF317 
 406 0a4d D8E7A6D8 		.ascii	"\330\347\246\330gL\234\370Er\212\300\026\272D\247\313"
 406      674C9CF8 
 406      45728AC0 
 406      16BA44A7 
 406      CB
 407 0a5e F979706D 		.ascii	"\371ypm\272\323\226\222\236\226\226>\3276/\335\341r"
 407      BAD39692 
 407      9E96963E 
 407      D7362FDD 
 407      E172
 408 0a70 DAFE3A6D 		.ascii	"\332\376:m\312\344)\337\332Rf\247\244;\3543\026NJK\236"
 408      CAE429DF 
 408      DA5266A7 
 408      A43BEC33 
 408      164E4A4B 
 409 0a85 2D98BE9E 		.ascii	"-\230\276\236\351\264\377\323\221\372\245\312*\373\267"
 409      E9B4FFD3 
 409      91FAA5CA 
 409      2AFBB7
 410 0a94 2E5A639B 		.ascii	".Zc\233<e\372W\323m\223q\221\355\253\271)s\026\314\262"
 410      3C65FA57 
 410      D36D9371 
 410      91EDABB9 
 410      297316CC 
 411 0aa9 DB52D29C 		.ascii	"\333R\322\234\251\316\031\377NIA\023\237\206.\305\255"
 411      A9CE19FF 
 411      4E494113 
 411      9F862EC5 
 411      AD
 412 0aba A62A7366 		.ascii	"\246*sf;\0279q|\310\224\351\323\022\311\315<G\352g\211"
 412      3B173971 
 412      7CC894E9 
 412      D312C9CD 
 412      3C47EA67 
 413 0acf 63270ACC 		.ascii	"c'\012\314!\230\322\354i\351\216E\202\321aw.\230\343"
 413      2198D2EC 
 413      69E98E45 
 413      82D16177 
 413      2E98E3
 414 0ae2 1A3265DA 		.ascii	"\0322e\332t\034\371L\231&\210\177q\010\342B\327\274"
 414      741CF94C 
 414      9926887F 
 414      7108E242 
 414      D7BC
 415 0af4 319AB617 		.ascii	"1\232\266\027\272\320t\314,\373\234\231\213\214\013"
 415      BAD074CC 
 415      2CFB9C99 
 415      8B8C0B
 416 0b03 5DDF2C98 		.ascii	"]\337,\230\233\"\316\233\351\200\257\207\272R\323\354"
 416      9B22CE9B 
 416      E980AF87 
 416      BA52D3EC 
 417 0b13 8E44A72B 		.ascii	"\216D\247+u\316\234\304\231\2164\373,\341\177O\374\343"
 417      75CE9CC4 
ARM GAS  /tmp/ccQFqzWI.s 			page 33


 417      998E34FB 
 417      2CE17F4F 
 417      FCE3
 418 0b25 9C       		.ascii	"\234"
 419              		.text
 420              		.section	.gnu.lto_rt_test_002_001_execute.part.2.b7cd81840c4257b8,"",%progbits
 421 0000 789C9D55 		.ascii	"x\234\235U[L\034U\030>\377\231\331K\201R\342S\215\244"
 421      5B4C1C55 
 421      183EFF99 
 421      D94B8152 
 421      E2538DA4 
 422 0014 DD7DE0A1 		.ascii	"\335}\340\241\2112x\013\2111&\206\247>\220(<\033\202"
 422      8932780B 
 422      89312686 
 422      A73E9028 
 422      3C1B82
 423 0027 D3B16C64 		.ascii	"\323\261ld\331:\263\230\362\304@YPibc\322R\233\022\022"
 423      D93AB398 
 423      F2C44059 
 423      50696263 
 423      D2529B12 
 424 003c 9B06BCB4 		.ascii	"\233\006\274\264\\\252V\300\002R+\026Z\260\025J\021"
 424      5CAA56C0 
 424      02522B16 
 424      5AB0154A 
 424      11
 425 004d AD0B58A8 		.ascii	"\255\013X\250\225\326\245\241V\333\224\365\377\317\354"
 425      95D6A5A1 
 425      56DB94F5 
 425      FFCFEC
 426 005c 5060D9C5 		.ascii	"P`\331\3058\331\354\271\374\227\363\237\357\373\277"
 426      38D9ECB9 
 426      FC97F39F 
 426      EFFBBF
 427 006b 199901A3 		.ascii	"\031\231\001\243g\324\305\330v\234\276\210sp2p\034\030"
 427      67D4C5D8 
 427      769CBE88 
 427      73703270 
 427      1C18
 428 007d C68903B8 		.ascii	"\306\211\003\270\0309\227\257(\314L\221\272\26613M\002"
 428      183997AF 
 428      28CC4C91 
 428      BAB63133 
 428      4D02
 429 008f 9976ABDC 		.ascii	"\231v\253\3342\000ML7\260J\007\227d\250\204\273\374"
 429      32004D4C 
 429      37B04A07 
 429      9764A884 
 429      BBFC
 430 00a1 2187FEBA 		.ascii	"!\207\376\272\331N\276\243\331\304'|\375fI\225\031\332"
 430      D94EBEA3 
 430      D9C4277C 
 430      FD664995 
 430      19DA
 431 00b3 1A92188B 		.ascii	"\032\222\030\213rq\024\203f\330\301\320m\266\376\\\217"
 431      72711483 
 431      66D8C1D0 
ARM GAS  /tmp/ccQFqzWI.s 			page 34


 431      6DB6FE5C 
 431      8F
 432 00c4 4BCA059A 		.ascii	"K\312\005\232\237>?\374\236#\353\230iV\233}\023\265"
 432      9F3E3FFC 
 432      9E23EB98 
 432      69569B7D 
 432      13B5
 433 00d6 690D665F 		.ascii	"i\015f_\225'$\001\264\200\204a\360l&\344d\212`\364\235"
 433      95272401 
 433      B4808461 
 433      F06C26E4 
 433      648A60F4 
 434 00eb 6E5F3AB8 		.ascii	"n_:\270\331YC\351=\3601dY\211\341\023p\342\005\200v"
 434      D95943E9 
 434      3DF03164 
 434      5989E113 
 434      70E20580 
 435 0100 5A0B4C33 		.ascii	"Z\013L3\032\335g\036\230\333\002\217\001\243-\3160\235"
 435      1ADD671E 
 435      98DB028F 
 435      01A32DCE 
 435      309D
 436 0112 447FB258 		.ascii	"D\177\262X;h\312X\004C\351\016\021\356\240QZ\340\\\214"
 436      3B68CA58 
 436      0443E90E 
 436      11EEA051 
 436      5AE05C8C 
 437 0126 B350BD18 		.ascii	"\263P\275\030\231\177\232\222\342\211\207B\375#\256"
 437      997F9A92 
 437      E2898742 
 437      FD23AE
 438 0135 451E92B8 		.ascii	"E\036\222\270(\266\263s~\322U\371\320|\30743p\357]\311"
 438      28B6B373 
 438      7ED255F9 
 438      D07CC734 
 438      3370EF5D 
 439 014a AAAB3E32 		.ascii	"\252\253>2z*\245\011\032\253L\261/\301g\010\310\247"
 439      7A2AA509 
 439      1AAB4CB1 
 439      2FC16708 
 439      C8A7
 440 015c 8075C309 		.ascii	"\200u\303\011h\002\002\346N[s\032\345\301R\340$Z\246"
 440      680202E6 
 440      4E5B731A 
 440      E5C152E0 
 440      245AA6
 441 016f A13A8342 		.ascii	"\241:\203B/\325\264\035\225\310 \203\214\313\205\213"
 441      2FD5B41D 
 441      95C82083 
 441      8CCB858B 
 442 017f 4766D269 		.ascii	"Gf\322i\351\000\017.\217\017^\356M\225^\022g/\036no"
 442      E9000F2E 
 442      8F0F5EEE 
 442      4D955E12 
 442      672F1E6E 
 443 0194 D9640115 		.ascii	"\331d\001\025n\254}\355\303\253\277\231\346\007&\204"
 443      6EAC7DED 
ARM GAS  /tmp/ccQFqzWI.s 			page 35


 443      C3ABBF99 
 443      E6072684 
 444 01a4 2427B45B 		.ascii	"$'\264[X\265A&\264\202\205\026t@\026\006\325\375n\236"
 444      58B54126 
 444      B4828516 
 444      74401606 
 444      D5FD6E9E 
 445 01b8 91299F13 		.ascii	"\221)\237\023<p\012msP==1p;w5\232}C\267^\0258F\255{"
 445      3C700A6D 
 445      73503D3D 
 445      31703B77 
 445      359A7D43 
 446 01d3 AE34450F 		.ascii	"\2564E\017\015\301\363\014>'#_k\354\334?\010\217\323"
 446      0DC1F30C 
 446      3E27235F 
 446      6BECDC3F 
 446      088FD3
 447 01e6 590CBE20 		.ascii	"Y\014\276 \007i-M\014\276\304\256bp\2328\0026B`|\324"
 447      07692D4D 
 447      0CBEC4AE 
 447      62709A38 
 447      02364260 
 448 01fc D4F1778A 		.ascii	"\324\361w\2127\014M\346a\244\332E!'f\272M\267\214\224"
 448      370C4DE6 
 448      61A4DA45 
 448      212766BA 
 448      4DB78C94 
 449 0210 C057E015 		.ascii	"\300W\340\025\230F\346G'9\356@'\310\242r\006]\002\242"
 449      9846E647 
 449      2739EE40 
 449      27C8A272 
 449      065D02A2 
 450 0224 969EB3D7 		.ascii	"\226\236\263\327\323\2743\261h7\371\3369\3311\226*\242"
 450      D3BC33B1 
 450      6837F9DE 
 450      39D93196 
 450      2AA2
 451 0236 BB291ABE 		.ascii	"\273)\032\276F\252\247\201\013\020\030\273\0015\341"
 451      46AAA781 
 451      0B1018BB 
 451      0135E1
 452 0245 D0BD30D0 		.ascii	"\320\2750\320\375\366I\020G\343\246(\2271\350\014T\256"
 452      FDF64910 
 452      47E3A628 
 452      9731E80C 
 452      54AE
 453 0257 2204FB05 		.ascii	"\"\004\373\005z 3$\245P.\321d\330=\230`\231\273\325"
 453      7A203324 
 453      A5502ED1 
 453      64D83D98 
 453      6099BBD5 
 454 026b 8C946FC4 		.ascii	"\214\224o\304H\257`d\271\243\010\217\276$\214\334\266"
 454      48AF6064 
 454      B9A3088F 
 454      BE248CDC 
 454      B6
 455 027c 1971C463 		.ascii	"\031q\304c\372\015a\032\307\323}\342\251\237B\234\361"
ARM GAS  /tmp/ccQFqzWI.s 			page 36


 455      FA0D611A 
 455      C7D37DE2 
 455      A99F429C 
 455      F1
 456 028d 3CDD429E 		.ascii	"<\335B\236z\211\247\263\011x\372V\360tn\005OKMS=\251"
 456      7A89A7B3 
 456      0978FA56 
 456      F0746E05 
 456      4F4B4D53 
 457 02a3 36057D82 		.ascii	"6\005}\202\202\357\004\005k\361\036\260\361\246\003"
 457      82EF0405 
 457      6BF11EB0 
 457      F1A603
 458 02b2 182A68A9 		.ascii	"\030*h\251\266\341\332\261\030\340\234 \273\201o\024"
 458      B6E1DAB1 
 458      18E09C20 
 458      BB816F14 
 459 02c2 B192E2E0 		.ascii	"\261\222\342\340O\215r|\005\301\367\010?:\243\271\261"
 459      4F8D727C 
 459      05C1F708 
 459      3F3AA3B9 
 459      B1
 460 02d3 616940F6 		.ascii	"ai@\366\376\021#8\215*\335?\266\330\220\212\021\370"
 460      FE112338 
 460      8D2ADD3F 
 460      B6D8908A 
 460      11F8
 461 02e5 36D90CE7 		.ascii	"6\331\014\347\301K\271\030\014BeHJgSP3)=\312\276\014"
 461      C14BB918 
 461      0C426548 
 461      4A675350 
 461      33293DCA 
 462 02fb 30E04586 		.ascii	"0\340E\206b\340/\340\215\273\266\011q\267\335\265\305"
 462      62E02FE0 
 462      8DBBB609 
 462      71B7DDB5 
 462      C5
 463 030c FD5FD57C 		.ascii	"\375_\325|aY\315\027Q\315\324\024\011Z`CQ\016CV2\025"
 463      6159CD17 
 463      51CDD414 
 463      095A6043 
 463      510E4356 
 464 0322 D6FFB591 		.ascii	"\326\377\265\221\012G\222\250p\230\330\375!\001\273"
 464      0A4792A8 
 464      7098D8FD 
 464      2101BB
 465 0331 9704BB97 		.ascii	"\227\004\273\227W\260\273\216\300~\\\227\335Q\233\335"
 465      57B0BB8E 
 465      C07E5C97 
 465      DD519BDD 
 466 0341 615B4DC7 		.ascii	"a[M\307\037\330j\222\023\251i\314R\323\221\356\305A"
 466      1FD86A92 
 466      13A969CC 
 466      52D391EE 
 466      C541
 467 0353 87A52637 		.ascii	"\207\245&7\\YGM\362\377U\3238B\231D>\365\367\222\310"
 467      5C59474D 
ARM GAS  /tmp/ccQFqzWI.s 			page 37


 467      F2FF55D3 
 467      38429944 
 467      3EF5F792 
 468 0368 E76A62F9 		.ascii	"\347jb\371L$\221\3178\001\374S\002\200'\005\300?'\227"
 468      4C2491CF 
 468      3801FC53 
 468      02802705 
 468      C03F2797 
 469 037c CF2FEB02 		.ascii	"\317/\353\002|\315\006x\374\221|\376\264\345\343 \214"
 469      7CCD0678 
 469      FC917CFE 
 469      B4E5E320 
 469      8C
 470 038d 62F289FF 		.ascii	"b\362\211\377\004\305\304\363\253\020\217\003\315\015"
 470      04C5C4F3 
 470      AB108F03 
 470      CD0D
 471 039b 171EBCEF 		.ascii	"\027\036\274\357\366\326qK<[(b\256\365\350?\351\226"
 471      F6D6714B 
 471      3C5B2862 
 471      AEF5E83F 
 471      E996
 472 03ad 7832206C 		.ascii	"x2 l\213g\312\022\017IC\026\037\276\233\304\203x\"\330"
 472      8B67CA12 
 472      0F494316 
 472      1FBE9BC4 
 472      837822D8 
 473 03c1 7EB88305 		.ascii	"~\270\203\005>\227\235\255X\277\240f\004\025=\250\030"
 473      3E979DAD 
 473      58BFA066 
 473      04153DA8 
 473      18
 474 03d2 81725DD5 		.ascii	"\201r]\325\354e\021\215E\206\366V\271V\246jE99\317d"
 474      EC65118D 
 474      4586F656 
 474      B956A66A 
 474      453939CF 
 475 03e7 ABCCA96B 		.ascii	"\253\314\251kFyi\320\365z\261\241\275\242\373\236Z\316"
 475      467969D0 
 475      F57AB1A1 
 475      BDA2FB9E 
 475      5ACE
 476 03f9 11301435 		.ascii	"\0210\0245\340\367\007\312\224=\001=h(/\027\344\347"
 476      E0F707CA 
 476      943D013D 
 476      68282F17 
 476      E4E7
 477 040b E5EF55D4 		.ascii	"\345\357U\324\0225\240kEo\347\372\263K\330\013\353x"
 477      1235A06B 
 477      456FE7FA 
 477      B34BD80B 
 477      EB78
 478 041d 6B7B83E4 		.ascii	"k{\203\344\253\344\345\027\356,T\362\320Y\331Y\246\226"
 478      ABE4E517 
 478      EE2C54F2 
 478      D059D959 
 478      A696
ARM GAS  /tmp/ccQFqzWI.s 			page 38


 479 042f 96EFD214 		.ascii	"\226\357\322\024\325o\370\214\242\335\252\212\241\333"
 479      D56FF88C 
 479      A2DDAA8A 
 479      A1DB
 480 043d 578662A9 		.ascii	"W\206b\251>\333\247\304\2500\320\236\221_X\340\241\242"
 480      3EDBA7C4 
 480      A830D09E 
 480      915F58E0 
 480      A1A2
 481 044f F6E8BE27 		.ascii	"\366\350\276'=Y9\214\353\314\345\327\374\001\275\202"
 481      3D59398C 
 481      EBCCE5D7 
 481      FC01BD82 
 482 045f 3DA16BBB 		.ascii	"=\241k\273}FP\257\360\224\342\340QK4\365M\317\033\305"
 482      7D4650AF 
 482      F094E2E0 
 482      514B34F5 
 482      4DCF1BC5 
 483 0473 BE526D17 		.ascii	"\276Rm\027\333J\325zJ\213+4}\265\341_\230Y\007\227"
 483      DB4AD57A 
 483      4A8B2B34 
 483      7DB5E15F 
 483      98590797 
 484              		.text
 485              		.section	.gnu.lto_rt_test_002_001_execute.b7cd81840c4257b8,"",%progbits
 486 0000 789C9D96 		.ascii	"x\234\235\226[L\034U\030\307\31773{)\273\245h|\250\011"
 486      5B4C1C55 
 486      18C7CF37 
 486      337B29BB 
 486      A5687CA8 
 487 0015 A9BB0F3C 		.ascii	"\251\273\017<4Q\006o!\361\301Dy\352\003\211\302\263"
 487      3451066F 
 487      21F1C144 
 487      79EA0389 
 487      C2B3
 488 0027 21388CB2 		.ascii	"!8\214\262q\227\2553\273Myb\270,U\361\301\230\330VC"
 488      7197AD33 
 488      BB4D7962 
 488      B82C55F1 
 488      C198D856 
 489 003c 83B131E0 		.ascii	"\203\2611\340\245-\320j\331^`\245E\004\004l\245P\244"
 489      A52DD06A 
 489      D95E60A5 
 489      4504046C 
 489      A550A4
 490 004f D5050A42 		.ascii	"\325\005\012B\355\005\032\214\306X\326\357;\313l\267"
 490      ED051A8C 
 490      C658D6EF 
 490      3BCB6CB7 
 491 005f ECA5EA64 		.ascii	"\354\245\352d\2633\347\234\357\373\3169\377\377\371"
 491      B333E79C 
 491      EFFBCE39 
 491      FFFFF9
 492 006e CDAEC480 		.ascii	"\315\256\304\200\321\345\2603V\200\217/\3423X\031\010"
 492      D1E5B033 
 492      56808F2F 
 492      E2335819 
ARM GAS  /tmp/ccQFqzWI.s 			page 39


 492      08
 493 007f EF8D3156 		.ascii	"\357\2151Vo\027\004\313\244\314\214\034\361\324\016"
 493      6F1704CB 
 493      A4CC8C1C 
 493      F1D40E
 494 008e 6638C58D 		.ascii	"f8\305\215\226\304[\022X(\010,\000t7\354\300\352\004"
 494      96C45B12 
 494      5828082C 
 494      007437EC 
 494      C0EA04
 495 00a1 51B2401D 		.ascii	"Q\262@\035\374.\334\025\240\177\337bX\330\331n\340\025"
 495      FC2EDC15 
 495      A07FDF62 
 495      58D8D96E 
 495      E015
 496 00b3 5DB85E5D 		.ascii	"]\270^]o\204\266\207D\306b\002\237\220A;\354d\030\266"
 496      6F84B687 
 496      44C66202 
 496      9F90413B 
 496      EC6418B6 
 497 00c7 D832D06B 		.ascii	"\3302\320k\023\213\201\236O\016\215\275c)8l\030\015"
 497      138B819E 
 497      4F0E8DBD 
 497      6329386C 
 497      180D
 498 00d9 4664BAD9 		.ascii	"Fd\272\331y\300\210\324\273B\"@\007\210\230\006O\347"
 498      79C088D4 
 498      BB422240 
 498      07889806 
 498      4FE7
 499 00eb 43513E4F 		.ascii	"CQ>O\306\330\271\256\365\017\266Z\233\250\274\013>\203"
 499      C6D8B9AE 
 499      F50FB65A 
 499      9BA8BC0B 
 499      3E83
 500 00fd 827861F8 		.ascii	"\202xa\370\034\254\270\015\240\236ce\021#\026k4\"S\326"
 500      1CACB80D 
 500      A09E6365 
 500      1123166B 
 500      342253D6 
 501 0111 999E75FB 		.ascii	"\231\236u\373#\022\243^\013\303\2126\372r\360\266\223"
 501      2312A35E 
 501      0BC38A36 
 501      FA72F0B6 
 501      93
 502 0122 1E73E98B 		.ascii	"\036s\351\213\261\025,A{Y\025\004\272\213\213\320\260"
 502      B1152C41 
 502      7B591504 
 502      BA8B8BD0 
 502      B0
 503 0133 B632F524 		.ascii	"\2662\365$\025\305\031\367\207\372\307mkBH\024\370b"
 503      15C519F7 
 503      87FAC76D 
 503      6B424814 
 503      F862
 504 0145 C3E11B33 		.ascii	"\303\341\0333\266\272\273\306[\206\221\207}o\213\361"
 504      B6BABBC6 
ARM GAS  /tmp/ccQFqzWI.s 			page 40


 504      5B869187 
 504      7D6F8BF1 
 505 0155 75B5AC4C 		.ascii	"u\265\254L\034\317i\203C\365\006\357\027\341K\024\344"
 505      1CCF6983 
 505      43F506EF 
 505      17E14B14 
 505      E4
 506 0166 0BC075C3 		.ascii	"\013\300u\303\021h\003\2148q~\260\331Nupgp\024G\346"
 506      1168038C 
 506      38717EB0 
 506      D94E7570 
 506      67701447 
 507 017b A0218F52 		.ascii	"\240!\217R/4u\266\2124 \201\204\315\325\321\217\346"
 507      2F3475B6 
 507      8A342081 
 507      84CDD5D1 
 507      8FE6
 508 018d 73A96901 		.ascii	"s\251i\001\0276?\035\276\330\347\020\237\347s\257\035"
 508      17363F1D 
 508      BED8E710 
 508      9FE773AF 
 508      1D
 509 019e ECEAD812 		.ascii	"\354\352\330\022\027*z\250\371\225\017/_3\214\367\015"
 509      172A7AA8 
 509      F9950F2F 
 509      5F338CF7 
 509      0D
 510 01af 088956E8 		.ascii	"\010\211V\350\212k\325\011\371p\014\342jA7\024`\322"
 510      8A6BD509 
 510      F9700CE2 
 510      6A413714 
 510      60D2
 511 01c1 BE65E3AC 		.ascii	"\276e\343\254D\365\254\340\202\3438\366+4\314M\017\336"
 511      44F5ACE0 
 511      82E338F6 
 511      2B34CC4D 
 511      0FDE
 512 01d3 2ABE5FCD 		.ascii	"*\276_\315\310\310\225\227\271\216\261\370>\223\207"
 512      C8C89597 
 512      B98EB1F8 
 512      3E9387
 513 01e2 62FB47E0 		.ascii	"b\373G\340Y\006'hP\330<\030~w\030\036\245\271\030|E"
 513      59062768 
 513      50D83C18 
 513      7E77181E 
 513      A5B9187C 
 514 01f7 01E2669B 		.ascii	"\001\342f\233\030|\215g\213\301I\362\010\3308\211\361"
 514      187C8D67 
 514      8BC149F2 
 514      08D83889 
 514      F1
 515 0208 495BF79F 		.ascii	"I[\367\2379\356(\264\031\007\321j\033\245\034\231?m"
 515      39EE28B4 
 515      1907D16A 
 515      1BA51C99 
 515      3F6D
 516 021a D825B402 		.ascii	"\330%\264\002z\300\3155]\27111#`\017\204A\342+gp\212"
ARM GAS  /tmp/ccQFqzWI.s 			page 41


 516      7AC0CD35 
 516      5DB93131 
 516      23600F84 
 516      41E22B67 
 517 0230 4BD4D17B 		.ascii	"K\324\321{n\301\351\236\337\310\266S\354\235\243\335"
 517      6EC1E99E 
 517      DFC8B653 
 517      EC9DA3DD 
 518 0240 971C3CFB 		.ascii	"\227\034<\3734e\303\031\220P`\201\213\300\330\0224E"
 518      3465C319 
 518      90506081 
 518      8BC0D812 
 518      3445
 519 0252 076E4581 		.ascii	"\007nE\201\366\327(J)6n\211\011\022&\235\205:F\326\204"
 519      F6D7284A 
 519      29366E89 
 519      0912269D 
 519      853A46D6 
 520 0267 C41C4AE6 		.ascii	"\304\034J\346\247\012\317\012f$\314\272\337\202\340"
 520      A70ACF0A 
 520      6624CCBA 
 520      DF82E0
 521 0276 832CE8E5 		.ascii	"\203,\350\345\026$\216\020\011\320\227\305\202\253\246"
 521      16248E10 
 521      09D097C5 
 521      82ABA6
 522 0285 05965411 		.ascii	"\005\226T\021#$b\2121\177\2211\337P\2125\325\230\233"
 522      2324628A 
 522      317F9131 
 522      DF508A35 
 522      D5989B
 523 0298 684C2F19 		.ascii	"hL/\031\323\237\301\230s\334\230\363I\306\254\267\315"
 523      D39FC198 
 523      73DC98F3 
 523      49C6ACB7 
 523      CD
 524 02a9 F63A4CCD 		.ascii	"\366:L\315\373\270\346\003\\\363\315\002\177k\012L\023"
 524      FBB8E603 
 524      5CF3CD02 
 524      7F6B0A4C 
 524      13
 525 02ba 304466BD 		.ascii	"0Df\275\371\300\231\303\033\012[H\262%|G\360\226-Eo"
 525      F9C099C3 
 525      1B0A5B48 
 525      B2257C47 
 525      F0962D45 
 526 02cf 474CB061 		.ascii	"GL\260a\215A\324\033\203qx\271\375\343\036\207\373\267"
 526      8D41D41B 
 526      837178B9 
 526      FDE31E87 
 526      FBB7
 527 02e1 0D479D5C 		.ascii	"\015G\235\\\351p\253\027\023\360\355\261\025\276\003"
 527      E970AB17 
 527      13F0EDB1 
 527      15BE03
 528 02f0 37956230 		.ascii	"7\225b0\004u!1\227\315B\323\214x\257xB_\300}\014oh\277"
 528      04752131 
ARM GAS  /tmp/ccQFqzWI.s 			page 42


 528      97CD42D3 
 528      8C78AF78 
 528      425FC07D 
 529 0308 8A1B3EB5 		.ascii	"\212\033>\265\203\303\334y\315\204\371\337\322;\222"
 529      83C3DC79 
 529      CD84F9DF 
 529      D23B92
 530 0317 A0F7FB38 		.ascii	"\240\367\3738\275\003\261?\"\333\342\364\0120\232D\357"
 530      BD03B13F 
 530      22DBE2F4 
 530      0A309A44 
 530      EF
 531 0328 7F64720C 		.ascii	"\177dr\014\012\262A\330\262\360 \010\307\263@8F^\377"
 531      0AB241D8 
 531      B2F02008 
 531      C7B34038 
 531      465EFF
 532 033b 90C1EB0B 		.ascii	"\220\301\353\013\334\353\213I^\247\341\353\307\264^"
 532      DCEB8B49 
 532      5EA7E1EB 
 532      C7B45E
 533 034a 4F985E8F 		.ascii	"O\230^\217\2310-\3341ard\202\351\022\3014\232\006&\307"
 533      99302DDC 
 533      31617264 
 533      82E912C1 
 533      349A0626 
 534 035f FF856912 		.ascii	"\377\205i\022\265\313BO\313b\026z\2462\323s9\013=\223"
 534      B5CB424F 
 534      CB62167A 
 534      A632D373 
 534      390B3D93 
 535 0373 A4E87406 		.ascii	"\244\350t\006E\177\342\212\316d\247\347JZE\257\232\212"
 535      457FE28A 
 535      CE64A7E7 
 535      4A5A45AF 
 535      9A8A
 536 0385 4EDEA367 		.ascii	"N\336\243g\324\244\307I\032%\350\311\315D\317\317\234"
 536      D4A4C749 
 536      1A25E8C9 
 536      CD44CFCF 
 536      9C
 537 0396 1E27D173 		.ascii	"\036'\321ss\271\025\334MB\234\236m\264\322\333\177\017"
 537      73B915DC 
 537      4D429C9E 
 537      6DB4D2DB 
 537      7F0F
 538 03a8 2D3BE2F8 		.ascii	"-;\342\370\344\301/&>\321\024|r\223x\221\330m\207\270"
 538      E4C12F26 
 538      3ED1147C 
 538      72937891 
 538      D86D87B8 
 539 03bc 048D793C 		.ascii	"\004\215y<8e\332\207b\002\376]\200Y\2346$>\3143,\374"
 539      3865DA87 
 539      6202FE5D 
 539      80599C36 
 539      243ECC33 
 540 03d2 F7F23AD9 		.ascii	"\367\362:\331\311\257\025<\266\330\203\373|\246\260"
ARM GAS  /tmp/ccQFqzWI.s 			page 43


 540      C9AF153C 
 540      B6D883FB 
 540      7CA6B0
 541 03e1 508E7F02 		.ascii	"P\216\177\002\252\036\220\265\200\254\373\203\232\242"
 541      AA1E90B5 
 541      80ACFB83 
 541      9AA2
 542 03ef 9ACD0ABA 		.ascii	"\232\315\012\272W\350\352\233A\265FQ+\212\212\236*T"
 542      57E8EA9B 
 542      41B54651 
 542      2B8A8A9E 
 542      2A54
 543 0401 985553F5 		.ascii	"\230US\365\2407`{\265RW_\322<O$j\370uY\361\373|\376"
 543      A037607B 
 543      B552575F 
 543      D23C4F24 
 543      6AF87559 
 544 0419 1A79B75F 		.ascii	"\032y\267_\013\350\362\013e\245%\245{e\245Z\361kj\305"
 544      0BE8F20B 
 544      65A525A5 
 544      7B65A55A 
 544      F16B6AC5 
 545 042d 9E625F61 		.ascii	"\236b_a5{.M\264\2727@\261rIi\371\256r\271\004\203\345"
 545      357B2E4D 
 545      B4BA3740 
 545      B1724969 
 545      F9AE72B9 
 546 0444 5D358A37 		.ascii	"]5\2127X\245\312\212O\367\350\025\257+\012\246>\226"
 546      58A5CA8A 
 546      4FF7E815 
 546      AF2B0AA6 
 546      3E96
 547 0456 9C8A4BF5 		.ascii	"\234\212K\365\2301\325z\255\216\343y\245\345e.Z\324"
 547      9831D57A 
 547      AD8EE379 
 547      A5E5652E 
 547      5AD4
 548 0468 6ECDF3B8 		.ascii	"n\315\363\270\253\240\210\011\032\263\371T\237_\253"
 548      ABA08809 
 548      1AB3F954 
 548      9F5FAB
 549 0477 65DB35B5 		.ascii	"e\3335\265\262\252\326\345\365\350\001\227R\255*o\270"
 549      B2AAD6E5 
 549      F5E80197 
 549      52AD2A6F 
 549      B8
 550 0488 5EABF478 		.ascii	"^\253\364x\325*\346\336\343\321\002\301J\257+\340\361"
 550      D52AE6DE 
 550      E3D102C1 
 550      4AAF2BE0 
 550      F1
 551 0499 A99A9E26 		.ascii	"\251\232\236&\342\037\325\370\033\334"
 551      E21FD5F8 
 551      1BDC
 552              		.text
 553              		.section	.gnu.lto_rt_test_sequence_002.b7cd81840c4257b8,"",%progbits
 554 0000 789C6361 		.ascii	"x\234ca`d\000\201l \016g\200\200\277L\214\315\277\366"
ARM GAS  /tmp/ccQFqzWI.s 			page 44


 554      60640081 
 554      6C200E67 
 554      8080BF4C 
 554      8CCDBFF6 
 555 0014 7FE6ABFF 		.ascii	"\177\346\253\377\3330\243\241\341A\353&\251Vf\206Nf"
 555      DB30A3A1 
 555      E141EB26 
 555      A9566686 
 555      4E66
 556 0026 88CC82AE 		.ascii	"\210\314\202\256\203\237\271\025\315\3477\314Phef\004"
 556      839FB915 
 556      CDE737CC 
 556      50686566 
 556      04
 557 0037 897CFDFF 		.ascii	"\211|\375\377g:/D\355\201\177B\255\314L\214+\030\025"
 557      673A2F44 
 557      ED817F42 
 557      ADCC4C8C 
 557      2B1815
 558 004a C16A77BD 		.ascii	"\301jw\275\234\264\233\317b[C\307\202\006\240b\346\177"
 558      9CB49BCF 
 558      625B43C7 
 558      8206A062 
 558      E67F
 559 005c 4C0C8C2B 		.ascii	"L\014\214+\031\353\377112.g\254g`\\\305h\301`\242\247"
 559      19EBFF31 
 559      31322E67 
 559      AC67605C 
 559      C568C160 
 560 0072 A70F4125 		.ascii	"\247\017A%\251\305%\372E%\372\305\371\245E\311\2510"
 560      A9C525FA 
 560      4525FAC5 
 560      F9A545C9 
 560      A930
 561 0084 6E3C888E 		.ascii	"n<\210\216/N-,M\315KN\215700\322KfP\010\256,.I\315U"
 561      2F4E2D2C 
 561      4DCD4B4E 
 561      8D373030 
 561      D24B6650 
 562 009f C849AC4C 		.ascii	"\310I\254L-RH\314KQ(\310/*Q\310\314+I-JKLNe\000\000"
 562      2D5248CC 
 562      4B5128C8 
 562      2F2A51C8 
 562      CC2B492D 
 563 00ba 6BB34874 		.ascii	"k\263Ht"
 564              		.text
 565              		.section	.gnu.lto_rt_test_sequence_002_array.b7cd81840c4257b8,"",%progbits
 566 0000 789C6361 		.ascii	"x\234ca`d\000\201{@l\306\000\001\177\231\030\247\265"
 566      60640081 
 566      7B406CC6 
 566      00017F99 
 566      18A7B5
 567 0013 1E3ACFFE 		.ascii	"\036:\317\376\205\251\225\031(\015\344^l\3310\207\031"
 567      85A99519 
 567      280DE45E 
 567      6CD93087 
 567      19
ARM GAS  /tmp/ccQFqzWI.s 			page 45


 568 0024 C4656464 		.ascii	"\304edd\001r\233\177\355\377\314W\377\267aFC\303\203"
 568      01729B7F 
 568      EDFFCC57 
 568      FFB76146 
 568      43C383
 569 0037 A7ABA580 		.ascii	"\247\253\245\200\252:\231!\372\016}\332\260\234\007"
 569      AA3A9921 
 569      FA0E7DDA 
 569      B09C07
 570 0046 A2901955 		.ascii	"\242\220\031U\341\201;B`u\214`uG\377\177?\300\017Q\307"
 570      E1813B42 
 570      60758C60 
 570      7547FF7F 
 570      3FC00F51 
 571 005b 84A6EE16 		.ascii	"\204\246\356\026D\035\023X\035\262\304\015\210\0043"
 571      441D1358 
 571      1DB2C40D 
 571      880433
 572 006a 5862FEEC 		.ascii	"Xb\376\354\251\3378,\2665t,h\010hefb4\224a\\\307X\317"
 572      A9DF382C 
 572      B635742C 
 572      68086865 
 572      66623494 
 573 0083 6824C3B8 		.ascii	"h$\303\270\026H\255a\224a\\\015\244W\001\351\225@z\005"
 573      1648AD61 
 573      94615C0D 
 573      A45701E9 
 573      95407A05 
 574 0097 905ECE28 		.ascii	"\220^\316(\303\300\270\236\321\202\301DOO\037\202JR"
 574      C3C0B89E 
 574      D182C144 
 574      4F4F1F82 
 574      4A52
 575 00a9 8B4BF48B 		.ascii	"\213K\364\213J\364\213\363K\213\222Sa\334x\020\035_"
 575      4AF48BF3 
 575      4B8B9253 
 575      61DC7810 
 575      1D5F
 576 00bb 9C5A589A 		.ascii	"\234ZX\232\232\227\234\032o``\244\227\314\000\000\016"
 576      9A979C1A 
 576      6F6060A4 
 576      97CC0000 
 576      0E
 577 00cc 39651C   		.ascii	"9e\034"
 578              		.text
 579              		.section	.gnu.lto_rt_test_002_001.b7cd81840c4257b8,"",%progbits
 580 0000 789C6361 		.ascii	"x\234ca`d\000\201\016 \016c\200\200\277L\214;w\276\271"
 580      60640081 
 580      0E200E63 
 580      8080BF4C 
 580      8C3B77BE 
 581 0015 CD5EFFB7 		.ascii	"\315^\377\267\241\243\241\341\301\323\377\022\255\314"
 581      A1A3A1E1 
 581      C1D3FF12 
 581      ADCC
 582 0023 0CFF9920 		.ascii	"\014\377\231 2\323Z\017\235g\377\302\004\024a\004q\367"
 582      32D35A0F 
ARM GAS  /tmp/ccQFqzWI.s 			page 46


 582      9D67FFC2 
 582      04146104 
 582      71F7
 583 0035 2F3FF095 		.ascii	"/?\360\225K\321|~\303\014\205Vf\260\310\365\211\207"
 583      4BD17C7E 
 583      C30C8556 
 583      66B0C8F5 
 583      8987
 584 0047 CFF302B5 		.ascii	"\317\363\002\265\316hh8\360\203\275\225\231\211q%\243"
 584      CE686838 
 584      F083BD95 
 584      99897125 
 584      A3
 585 0058 2258EBC4 		.ascii	"\"X\353\304\246\205\0138-\2665t,hphef\376\307\304\300"
 585      A6850B38 
 585      2DB63574 
 585      2C687068 
 585      6566FEC7 
 586 006e B88AB1FE 		.ascii	"\270\212\261\376\037\023#\343\012F\231\177LL\020\212"
 586      1F1323E3 
 586      0A46997F 
 586      4C4C108A 
 587 007e 99713963 		.ascii	"\231q9c=\003\343jF\013\006\023==}\010*I-.\321/*\321"
 587      3D03E36A 
 587      460B0613 
 587      3D3D7D08 
 587      2A492D2E 
 588 0096 2FCE2F2D 		.ascii	"/\316/-JN\205q\343At|qjaij^rj\274\201\201\221^2\203"
 588      4A4E8571 
 588      E341747C 
 588      716A6169 
 588      6A5E726A 
 589 00b1 7C706571 		.ascii	"|peqIj\256Bf^IjzQfI\245BZi^rIf~^b\016\220\307\000\000"
 589      496AAE42 
 589      665E496A 
 589      7A516649 
 589      A5425A69 
 590 00d1 E22A51E7 		.ascii	"\342*Q\347"
 591              		.text
 592              		.section	.gnu.lto_rt_test_002_002.b7cd81840c4257b8,"",%progbits
 593 0000 789C6361 		.ascii	"x\234ca`d\000\201\016 \016a\200\200\277L\214;w\276\271"
 593      60640081 
 593      0E200E61 
 593      8080BF4C 
 593      8C3B77BE 
 594 0015 CD5EFFB7 		.ascii	"\315^\377\267\241\243\241\341A\3533\311Vf\206\377L\020"
 594      A1A3A1E1 
 594      41EB33C9 
 594      566686FF 
 594      4C10
 595 0027 9969AD87 		.ascii	"\231i\255\207\316\263\177a\002\2120\202\270\273\356"
 595      CEB37F61 
 595      028A3082 
 595      B8BBEE
 596 0036 BF3EC6AF 		.ascii	"\277>\306\257h>\277a\206B+3X\344\307\351e?\271\201Z"
 596      683EBF61 
 596      86422B33 
ARM GAS  /tmp/ccQFqzWI.s 			page 47


 596      58E4C7E9 
 596      653FB981 
 597 004b 6734341C 		.ascii	"g44\034\230\305\327\312\314\304\270\222Q\021\254u\352"
 597      98C5D7CA 
 597      CCC4B892 
 597      5111AC75 
 597      EA
 598 005c C4A97338 		.ascii	"\304\251s8,\2665t,hphef\376\307\304\300\270\212\261"
 598      2CB63574 
 598      2C687068 
 598      6566FEC7 
 598      C4C0B88A 
 599 0071 FE1F1323 		.ascii	"\376\037\023#\343\012F\231\177LL\020\212\231q9c=\003"
 599      E30A4699 
 599      7F4C4C10 
 599      8A997139 
 599      633D03
 600 0084 E36A460B 		.ascii	"\343jF\013\006\023==}\010*I-.\321/*\321/\316/-JN\205"
 600      06133D3D 
 600      7D082A49 
 600      2D2ED12F 
 600      2AD12FCE 
 601 009d 71E34174 		.ascii	"q\343At|qjaij^rj\274\201\201\221^2\203\254sQfIfrb\216"
 601      7C716A61 
 601      696A5E72 
 601      6ABC8181 
 601      915E3283 
 602 00ba 42557E5E 		.ascii	"BU~^j\261BZi^rIf~^bNfI%\003\000\010\340P\246"
 602      6AB1425A 
 602      695E7249 
 602      667E5E62 
 602      4E664925 
 603              		.text
 604              		.section	.gnu.lto_rt_test_002_003.b7cd81840c4257b8,"",%progbits
 605 0000 789C6361 		.ascii	"x\234ca`d\000\201\016 \216d\200\200\277L\214;w\276\271"
 605      60640081 
 605      0E208E64 
 605      8080BF4C 
 605      8C3B77BE 
 606 0015 CD5EFFB7 		.ascii	"\315^\377\267\241\243\241\341\301\323\317\222\255\314"
 606      A1A3A1E1 
 606      C1D3CF92 
 606      ADCC
 607 0023 0CFF9920 		.ascii	"\014\377\231 2\323Z\017\235g\377\302\004\024a\004q\333"
 607      32D35A0F 
 607      9D67FFC2 
 607      04146104 
 607      71DB
 608 0035 1E2CDDCA 		.ascii	"\036,\335\312\241h>\277a\206B+3Xdk\363\256\235,@\255"
 608      A1683EBF 
 608      6186422B 
 608      3358646B 
 608      F3AE9D2C 
 609 004b 331A1A0E 		.ascii	"3\032\032\016\314\340oefb\\\311\250\010\326\372ek\367"
 609      CCE06F65 
 609      66625CC9 
 609      A808D6FA 
ARM GAS  /tmp/ccQFqzWI.s 			page 48


 609      656BF7
 610 005e 53668B6D 		.ascii	"Sf\213m\015\035\013\032\034Z\231\231\377110\256b\254"
 610      0D1D0B1A 
 610      1C5A9999 
 610      FF313130 
 610      AE62AC
 611 0071 FFC7C4C8 		.ascii	"\377\307\304\310\270\202Q\346\037\023\023\204bf\\\316"
 611      B88251E6 
 611      1F131384 
 611      62665CCE 
 612 0081 58CFC0B8 		.ascii	"X\317\300\270\232\321\202\301DOO\037\202JR\213K\364"
 612      9AD182C1 
 612      444F4F1F 
 612      824A528B 
 612      4BF4
 613 0093 8B4AF48B 		.ascii	"\213J\364\213\363K\213\222Sa\334x\020\035_\234ZX\232"
 613      F34B8B92 
 613      5361DC78 
 613      101D5F9C 
 613      5A589A
 614 00a6 9A979C1A 		.ascii	"\232\227\234\032o``\244\227\314\240\344\231W\222ZTT"
 614      6F6060A4 
 614      97CCA0E4 
 614      9957925A 
 614      5454
 615 00b8 5A5052AC 		.ascii	"ZPR\254\220\221\230\227\222\223\231\227\256\220V\232"
 615      90919897 
 615      92939997 
 615      AE90569A 
 616 00c8 975C9299 		.ascii	"\227\\\222\231\237\227\230\223YR\311\000\000\215\324"
 616      9F979893 
 616      5952C900 
 616      008DD4
 617 00d7 52B5     		.ascii	"R\265"
 618              		.text
 619              		.section	.gnu.lto_rt_test_002_004.b7cd81840c4257b8,"",%progbits
 620 0000 789C6361 		.ascii	"x\234ca`d\000\201\016 \216d\200\200\277L\214;w\276\271"
 620      60640081 
 620      0E208E64 
 620      8080BF4C 
 620      8C3B77BE 
 621 0015 CD5EFFB7 		.ascii	"\315^\377\267\241\243\241\341\301\322eR\255\314\014"
 621      A1A3A1E1 
 621      C1D26552 
 621      ADCC0C
 622 0024 FF992032 		.ascii	"\377\231 2\323Z\017\235g\377\302\004\024a\004q\027\234"
 622      D35A0F9D 
 622      67FFC204 
 622      14610471 
 622      179C
 623 0036 3CFC9343 		.ascii	"<\374\223C\321|~\303\014\205Vf\260\310\365\343\323'"
 623      D17C7EC3 
 623      0C855666 
 623      B0C8F5E3 
 623      D327
 624 0048 F101B5CE 		.ascii	"\361\001\265\316hh80G\250\225\231\211q%\243\"X\353\311"
 624      68683830 
ARM GAS  /tmp/ccQFqzWI.s 			page 49


 624      47A89599 
 624      897125A3 
 624      2258EBC9 
 625 005c 95FFF7B2 		.ascii	"\225\377\367\262Zlk\350X\320\340\320\312\314\374\217"
 625      5A6C6BE8 
 625      58D0E0D0 
 625      CACCFC8F 
 626 006c 89817115 		.ascii	"\211\201q\025c\375?&F\306\025\2142\377\230\230 \024"
 626      63FD3F26 
 626      46C6158C 
 626      32FF9898 
 626      2014
 627 007e 33E372C6 		.ascii	"3\343r\306z\006\306\325\214\026\014&zz\372\020T\222"
 627      7A06C6D5 
 627      8C160C26 
 627      7A7AFA10 
 627      5492
 628 0090 5A5CA25F 		.ascii	"Z\\\242_T\242_\234_Z\224\234\012\343\306\203\350\370"
 628      54A25F9C 
 628      5F5A949C 
 628      0AE3C683 
 628      E8F8
 629 00a2 E2D4C2D2 		.ascii	"\342\324\302\322\324\274\344\324x\003\003#\275d\006"
 629      D4BCE4D4 
 629      78030323 
 629      BD6406
 630 00b1 A5E0CAE2 		.ascii	"\245\340\312\342\222\324\\\205\220\314\344l\005\347"
 630      92D45C85 
 630      90CCE46C 
 630      05E7
 631 00bf FCD2BC92 		.ascii	"\374\322\274\222\324\"\205\264\322\274\344\222\314\374"
 631      D42285B4 
 631      D2BCE492 
 631      CCFC
 632 00cd BCC49CCC 		.ascii	"\274\304\234\314\222J\006\000~\024R]"
 632      924A0600 
 632      7E14525D 
 633              		.text
 634              		.section	.gnu.lto_.symbol_nodes.b7cd81840c4257b8,"",%progbits
 635 0000 789C5D8E 		.ascii	"x\234]\216\311N\303@\020Dk\252gl\326\004\014w\370\323"
 635      C94EC340 
 635      10446BAA 
 635      676CD604 
 635      0C77F8D3 
 636 0014 36920557 		.ascii	"6\222\005W>\201\240|\004\334\020\262\200$`\366\365\004"
 636      3E81A07C 
 636      04DC10B2 
 636      802460F6 
 636      F504
 637 0026 92C50121 		.ascii	"\222\305\001!\216\234\010b\306v$\354SU\277\352\315\302"
 637      8E9C0862 
 637      C67624EC 
 637      5355BFEA 
 637      CDC2
 638 0038 E0DD00E0 		.ascii	"\340\335\000\3409\325`\267\000\0248\330\033\244\002"
 638      39D560B7 
 638      001438D8 
ARM GAS  /tmp/ccQFqzWI.s 			page 50


 638      1BA402
 639 0047 B81B6233 		.ascii	"\270\033b3d\005\225\235\214\247\364E\207\215\214\312"
 639      6405959D 
 639      8CA7F445 
 639      878D8CCA 
 640 0057 8C1DA635 		.ascii	"\214\035\2465\033Sm\267\357\207\352\032fB\237?\3023"
 640      1B536DB7 
 640      EF87EA1A 
 640      66429F3F 
 640      C233
 641 0069 6AD4BD7F 		.ascii	"j\324\275\177M\263\225\370\007\334\025Y\233\021%\365"
 641      4DB395F8 
 641      07DC1559 
 641      9B1125F5 
 642 0079 46DC84B6 		.ascii	"F\334\204\2666\027t\265\271dT\031sG\215\253M@\032V\233"
 642      361774B5 
 642      B9645419 
 642      73478DAB 
 642      4D401A56 
 643 008e 5BEA5C0B 		.ascii	"[\352\\\013<Q\347[\340\231\272\320\002\017\324\305\026"
 643      3C51E75B 
 643      E099BAD0 
 643      020FD4C5 
 643      16
 644 009f B8A72EB5 		.ascii	"\270\247.\265\300\013u\371?\020\351#\337\376\334\020"
 644      C00B75F9 
 644      3F10E923 
 644      DFFEDC10 
 645 00af E921DBF1 		.ascii	"\351!\333\361jW\221OK#v\005Y\340\316\347\257\277F\234"
 645      6A57914F 
 645      4B237605 
 645      59E0CEE7 
 645      AFBF469C 
 646 00c3 CFDF82F6 		.ascii	"\317\337\202\3661\254x\017e\245\026\307\037GS\021\267"
 646      31AC780F 
 646      65A516C7 
 646      1F475311 
 646      B7
 647 00d4 86FCAB32 		.ascii	"\206\374\2532\011\262\357`\242\004\345\344$\222h\035"
 647      09B2EF60 
 647      A204E5E4 
 647      2492681D 
 648 00e4 C371D0A4 		.ascii	"\303q\320\244\036\011uX\025\317\264\341q\323\0277sq"
 648      1E097558 
 648      15CFB4E1 
 648      71D31737 
 648      7371
 649 00f6 84FDE291 		.ascii	"\204\375\342\221\370\003\334\037\201\276"
 649      F803DC1F 
 649      81BE
 650              		.text
 651              		.section	.gnu.lto_.refs.b7cd81840c4257b8,"",%progbits
 652 0000 789C258A 		.ascii	"x\234%\212\311\015\2000\020\003\355!\011\344\022\205"
 652      C90D8030 
 652      1003ED21 
 652      09E41285 
 653 0010 500C65F3 		.ascii	"P\014e\363\247\"\026\260\344C#'Y\247\024\351\020\341"
ARM GAS  /tmp/ccQFqzWI.s 			page 51


 653      A72216B0 
 653      E4432327 
 653      59A714E9 
 653      10E1
 654 0022 92DFE5C8 		.ascii	"\222\337\345\310\335>\354K,\267(\037\235\254\177{\243"
 654      DD3EEC4B 
 654      2CB7281F 
 654      9DAC7F7B 
 654      A3
 655 0033 A64AA333 		.ascii	"\246J\2433\230n\301;\331\003\305\007=\227P\003&"
 655      986EC13B 
 655      D903C507 
 655      3D975003 
 655      26
 656              		.text
 657              		.section	.gnu.lto_.decls.b7cd81840c4257b8,"",%progbits
 658 0000 789CB55A 		.ascii	"x\234\265ZkTTW\226\256sO\361. \215\256\304\325C\322"
 658      6B545457 
 658      96AE734F 
 658      F12E208D 
 658      AEC4D543 
 659 0015 E934E9F0 		.ascii	"\3514\351\360G\211\232\236\35153?bH:\272&&Yhz\245\377"
 659      47899A9E 
 659      E935333F 
 659      62483ABA 
 659      26265968 
 660 002c 4C354225 		.ascii	"L5B%0\315\303P\245\235\2545\275\246x\250@\242\242(\276"
 660      30CDC350 
 660      A59DAC35 
 660      BDA678A8 
 660      40A2A228 
 661 0041 40114150 		.ascii	"@\021AP\004\301\027* %H\011\002\"O\2217\210\200\342"
 661      04C1172A 
 661      20254809 
 661      02224F91 
 661      378880E2 
 662 0055 03017908 		.ascii	"\003\001y\010\310\354\363\270u\357-\253\354\314\254"
 662      C8ECF3B8 
 662      75EF2DAB 
 662      ECCCAC
 663 0064 D5B5D8D4 		.ascii	"\325\265\330\324\335\347\356\363\355o\357\363\270\347"
 663      DDE7EEF3 
 663      ED6FEFF3 
 663      B8E7
 664 0072 9C5B6A15 		.ascii	"\234[j\025R\221O\212\237J\025\355\244R\215:\250T\013"
 664      52914F8A 
 664      9F4A15ED 
 664      A4528D3A 
 664      A8540B
 665 0085 F0F180B2 		.ascii	"\360\361\200\262?\202\270\201\234\0019\013R\006R\016"
 665      3F82B881 
 665      9C01390B 
 665      5206520E 
 666 0095 F205C875 		.ascii	"\362\005\310u\220*\220:\220\233 M \315*\366!uo\203\264"
 666      902A903A 
 666      909B204D 
 666      20CD2AF6 
ARM GAS  /tmp/ccQFqzWI.s 			page 52


 666      21756F83 
 667 00aa 837482CC 		.ascii	"\203t\202\314\202\314\223\033\340J\000q\001\321\200"
 667      82CC931B 
 667      E04A0071 
 667      01D180
 668 00b9 78807881 		.ascii	"x\200x\201\274\005\362\016\310oA\200\202\312\027\276"
 668      BC05F20E 
 668      C86F4180 
 668      82CA17BE 
 669 00c9 3F05F90C 		.ascii	"?\005\371\014\344s\220/A\002@\326#\225\342C\360\235"
 669      E473902F 
 669      410240D6 
 669      2395E243 
 669      F09D
 670 00db 39CFAF10 		.ascii	"9\317\257\020\343\345\005\262\030\244\004\344OP\366"
 670      E3E505B2 
 670      18A404E4 
 670      4F50F6
 671 00ea 9FBC8E2B 		.ascii	"\237\274\216+\267\3773\350\033@B@\376\002\022\016\022"
 671      B7FF33E8 
 671      1B404240 
 671      FE02120E 
 671      12
 672 00fb 09120562 		.ascii	"\011\022\005b\000\331\214(M\312A\376!q\270p_\337\243"
 672      00D98C28 
 672      4DCA41FE 
 672      2171B870 
 672      5FDFA3
 673 010e 97FD5D00 		.ascii	"\227\375]\000\375\034\310\337x\375\323\360O\315\353"
 673      FD1CC8DF 
 673      78FDD3F0 
 673      4FCDEB
 674 011d 5D82EB62 		.ascii	"]\202\353b\220R;\330$W\032\216-\342}\005\342\210\224"
 674      90523BD8 
 674      24571A8E 
 674      2DE27D05 
 674      E28894
 675 0130 715C0171 		.ascii	"q\\\001q\003)\003q\226\305E\352_\005\275\002\244\222"
 675      03290371 
 675      96C545EA 
 675      5F05BD02 
 675      A492
 676 0142 C7761DA4 		.ascii	"\307v\035\244\032\244\206\347\332\305\312\247\212\267"
 676      1AA486E7 
 676      DAC5CAA7 
 676      8AB7
 677 0150 8BA795DF 		.ascii	"\213\247\225\337q\336\316}\234C-\324\253\003\251\007"
 677      71DECE7D 
 677      9C432DD4 
 677      AB03A907 
 678 0160 B905D200 		.ascii	"\271\005\322\000\362\013\220F\220\347\034G\315\261\232"
 678      F20B9046 
 678      90E71C47 
 678      CDB19A
 679 016f 797B7AD8 		.ascii	"y{z\330\360E\332\3777V\276\236\361\030\227 \346G\314"
 679      F045DAFF 
 679      3756BE9E 
ARM GAS  /tmp/ccQFqzWI.s 			page 53


 679      F1189720 
 679      E647CC
 680 0182 A9759CF2 		.ascii	"\251u\234\362\034\334\006y\217\363lC\214\247\330/\011"
 680      1CDC0679 
 680      8FF36C43 
 680      8CA7D82F 
 680      09
 681 0193 5F91D71D 		.ascii	"_\221\327\035\370\3765\347]\307\271\267#\251/\277\311"
 681      F8FE35E7 
 681      5DC7B9B7 
 681      23A92FBF 
 681      C9
 682 01a4 392EE2DC 		.ascii	"9.\342\334\304\034u\312r\330\315\363\327\013\322\017"
 682      C41C75CA 
 682      72D8CDF3 
 682      D70BD20F 
 683 01b4 3208320C 		.ascii	"2\0102\014\362\000\261\234?D,n\322wGy?\266\325\276\244"
 683      F200B19C 
 683      3F442C6E 
 683      D2774779 
 683      3FB6D5BE 
 684 01c9 F0173CF6 		.ascii	"\360\027<\366%6\372\216<\276\247 \357r\256\342\030#"
 684      2536FA8E 
 684      3CBEA720 
 684      EF72AEE2 
 684      1823
 685 01db 5CC57146 		.ascii	"\\\305qF>\316\034S\316\365\2672\276\366x\220\261\267"
 685      3ECE1C53 
 685      CEF5B732 
 685      BEF67890 
 685      B1B7
 686 01ed E8FFC143 		.ascii	"\350\377\301C\364Mx\210\343|\014\256\0278\256\013\307"
 686      F44D7888 
 686      E37C0CAE 
 686      1738AE0B 
 686      C7
 687 01fe 7E151F95 		.ascii	"~\025\037\225\035N\237\362q2\016\337S \323 \177\000"
 687      1D4E9FF2 
 687      71320EDF 
 687      5320D320 
 687      7F00
 688 0210 11A0EC43 		.ascii	"\021\240\354C\370\376\010YRH\347\003\371\207\350\030"
 688      F8FE0859 
 688      5248E703 
 688      F987E818 
 689 0220 BEFF1D31 		.ascii	"\276\377\0351\376\377!\273O0\311|A\346\0152\177|nU\367"
 689      FEFF21BB 
 689      4F30C97C 
 689      41E60D32 
 689      7F7C6E55 
 690 0235 73EE7719 		.ascii	"s\356w\031|\317\201\314\203\374\033/\373\000\276W\202"
 690      7CCF81CC 
 690      83FC1B2F 
 690      FB00BE57 
 690      82
 691 0246 AC00F91D 		.ascii	"\254\000\371\035\347-\330\350\323_\3120\004 \214\205"
 691      E72DD8E8 
ARM GAS  /tmp/ccQFqzWI.s 			page 54


 691      D35FCA30 
 691      04208C85 
 692 0256 5763CCBF 		.ascii	"Wc\314\277\014A\371\211\030NP\337\371\357`\264\333\300"
 692      0C41F989 
 692      184E50DF 
 692      F9EF60B4 
 692      DBC0
 693 0268 58FF7FC4 		.ascii	"X\377\177\304\350\264\2011/\240\370\353\335-hB@^\256"
 693      E8B48131 
 693      2FA0F8EB 
 693      DD2D6842 
 693      405EAE
 694 027b E817A036 		.ascii	"\350\027\2406\304\025\244b\246\252A}Zw\360\256\007\250"
 694      C415A462 
 694      A6AA417D 
 694      5A77F0AE 
 694      07A8
 695 028d 8B5DD1DB 		.ascii	"\213]\321\333\240V\327\226ty\272\306\033\341\223\024"
 695      A056D796 
 695      7479BAC6 
 695      1BE19314 
 696 029d 6BF4AAF2 		.ascii	"k\364\252\362 v'\2207\312A\336\340\345$\202\211\011"
 696      20762790 
 696      37CA41DE 
 696      E0E52482 
 696      8909
 697 02af F979A36C 		.ascii	"\371y\243lP\301\274\260w\256D\315\300\274@\035\277\226"
 697      50C1BCB0 
 697      77AE44CD 
 697      C0BC401D 
 697      BF96
 698 02c1 33EEC9C0 		.ascii	"3\356\311\300\222\020\350-\323\245\3175\030r</\250\317"
 698      9210E82D 
 698      D3A5CF35 
 698      18723C2F 
 698      A8CF
 699 02d3 C6F41CF5 		.ascii	"\306\364\034\365@\276\336\010\300\220\353q\352\301h"
 699      40BEDE08 
 699      C090EB71 
 699      EAC168
 700 02e2 1454A810 		.ascii	"\024T\250\020\271\242<\204E\306\007\215\340}\364\177"
 700      B9A23C84 
 700      45C6078D 
 700      E07DF47F 
 701 02f2 48315C3B 		.ascii	"H1\\;\323o(\2111\216f\030\035\227\250\320Jo\364\276"
 701      D36F2889 
 701      318E6618 
 701      1D97A8D0 
 701      4A6FF4BE 
 702 0306 B70AE523 		.ascii	"\267\012\345#_zK\205\012\000\3604\243\3634\363\3409"
 702      5F7A4B85 
 702      0A00F034 
 702      A3F334F3 
 702      E039
 703 0318 47AF248E 		.ascii	"G\257$\216\375!\242\330\247\340~.e\177\006y\2111P\005"
 703      FD21A2D8 
 703      A7E07E2E 
ARM GAS  /tmp/ccQFqzWI.s 			page 55


 703      657F0679 
 703      89315005 
 704 032c 6A6498F2 		.ascii	"jd\230\362/\270j\022\011>\217\027\312e\001\237E\032"
 704      2FB86A12 
 704      093E8F17 
 704      CA65019F 
 704      451A
 705 033e DA4DE11B 		.ascii	"\332M\341\033\254\273\252N\344\222\334\275\347\212\310"
 705      ACBBAA4E 
 705      E492DCBD 
 705      E78AC8
 706 034d C3D4138A 		.ascii	"\303\324\023\212N?\2744\343\316\212\010\203\236\231"
 706      4E3FBC34 
 706      E3CE8A08 
 706      839E99
 707 035c 9C3F2C3B 		.ascii	"\234?,;%\006\347$\265B\343\316\261L'\374\0321\022\314"
 707      2506E724 
 707      B542E3CE 
 707      B14C27FC 
 707      1A3112CC 
 708 0370 DBCF9E71 		.ascii	"\333\317\236qC\276,\011\275S\231\232KF\343k\350\022"
 708      43BE2C09 
 708      BD53999A 
 708      4B46E36B 
 708      E812
 709 0382 702D4218 		.ascii	"p-B\030]@\313\210\307\367\010\313x\211\230\312\302\012"
 709      5D40CB88 
 709      C7F708CB 
 709      788998CA 
 709      C20A
 710 0394 5D84D8C1 		.ascii	"]\204\330\301\0371D\347\241\360\034\213\376D\346\256"
 710      1F3144E7 
 710      A1F01C8B 
 710      FE44E6AE 
 711 03a4 0C479C80 		.ascii	"\014G\234\200\250\217\003\347NN\271Z|\264$~p\212\370"
 711      A88F03E7 
 711      4E4EB95A 
 711      7CB4247E 
 711      708AF8
 712 03b7 28011F97 		.ascii	"(\001\037\227%\037\227\220}'\305\266\235LV\357\313u"
 712      251F9790 
 712      7D27C5B6 
 712      9D4C56EF 
 712      CB75
 713 03c9 C7CF9893 		.ascii	"\307\317\230\223\314\335OLR \373\032\377\373\350\026"
 713      CCDD4F4C 
 713      5220FB1A 
 713      FFFBE816 
 714 03d9 881A9581 		.ascii	"\210\032\225\201\227R\311K\311+\274\\\261\341\205\324"
 714      9752C94B 
 714      C92BBC5C 
 714      B1E185D4 
 715 03e9 074FF9A7 		.ascii	"\007O\371\247f\013\\\325\320\347\321W\032\264AM\234"
 715      660B5CD5 
 715      D0E7D157 
 715      1AB4414D 
 715      9C
ARM GAS  /tmp/ccQFqzWI.s 			page 56


 716 03fa B76D693E 		.ascii	"\267mi>,,I\341\275\363m5\372\343\353\262\266\272\212"
 716      2C2C49E1 
 716      BDF36D35 
 716      FAE3EBB2 
 716      B6BA8A
 717 040d 96C07F13 		.ascii	"\226\300\177\023R\263\214\033\217\030w\012\212\246\005"
 717      52B38C1B 
 717      8F18770A 
 717      8AA605
 718 041c 03997939 		.ascii	"\003\231y9\322\210\014\313i\353\016\015\035\335\243"
 718      D2880CCB 
 718      69EB0E0D 
 718      1DDDA3
 719 042b 619DF997 		.ascii	"a\235\371\227$\322\212\344+j\373C\341\2328\024*Xbr*"
 719      24D28AE4 
 719      2B6AFB43 
 719      E19A3814 
 719      2A586272 
 720 0440 CB8BF830 		.ascii	"\313\213\3700\373'P\317m=R\347\306\206B\033\031\012"
 720      FB2750CF 
 720      6D3D52E7 
 720      C686421B 
 720      190A
 721 0452 C3656339 		.ascii	"\303ec9\330\272k\232\001\255\222\242]\247]\363\032\353"
 721      D8BA6B9A 
 721      01AD92A2 
 721      5DA75DF3 
 721      1AEB
 722 0464 9AD769D7 		.ascii	"\232\327i\327,8V\236\240\344\177]\3215\253x\327\254"
 722      2C38569E 
 722      A0E47F5D 
 722      D135AB78 
 722      D7AC
 723 0476 A2E4C7F7 		.ascii	"\242\344\307\367mIpf\356\337\000\2655+=K\260O\376\206"
 723      6D497066 
 723      EEDF00B5 
 723      352B3D4B 
 723      B04FFE86 
 724 048a 48BE9A91 		.ascii	"H\276\232\221\177\034w\257\327\215\325^B\\\227\304="
 724      7F1C77AF 
 724      D78DD55E 
 724      425C97C4 
 724      3D
 725 049b E2938289 		.ascii	"\342\223\202\211\220\317\331\267\357\256\2735\371Z@"
 725      90CFD9B7 
 725      EFAEBB35 
 725      F95A40
 726 04aa ABA16875 		.ascii	"\253\241hu\224\374\015F\276\216\222\357\252\233NqT\220"
 726      94FC0D46 
 726      BE8E92EF 
 726      AA9B4E71 
 726      5490
 727 04bc AF5390BF 		.ascii	"\257S\220\277\311\311\337\244\344\305I\310\213MB{ww"
 727      C9C9DFA4 
 727      E4C549C8 
 727      8B4D427B 
 727      7777
ARM GAS  /tmp/ccQFqzWI.s 			page 57


 728 04ce 9D40F6C9 		.ascii	"\235@\366\311\337\022\311\3273\362\361\035\017'x\273"
 728      DF12C9D7 
 728      33F2F11D 
 728      0F2778BB 
 729 04de FD1AD48A 		.ascii	"\375\032\324\212\301\351\021gF>^\000\275\331\\\025\343"
 729      C1E91167 
 729      463E5E00 
 729      BDD95C15 
 729      E3
 730 04ef 694DBE11 		.ascii	"iM\276\021\320\032(Z\023%\177\213\221o\242\344'\247"
 730      D01A285A 
 730      13257F8B 
 730      916FA2E4 
 730      27A7
 731 0501 CDFB5C14 		.ascii	"\315\373\\\024\344\233\024\344\2339\371fJ\276\264i\366"
 731      E49B14E4 
 731      9B39F966 
 731      4ABEB469 
 731      F6
 732 0512 A6BA03DD 		.ascii	"\246\272\003\335A\244\253\276F\307;B\354?\242\242bB"
 732      41A4ABBE 
 732      46C73B42 
 732      EC3FA2A2 
 732      6242
 733 0524 55B810C4 		.ascii	"U\270\020\304g\246X\204DC\256\013\342\245\312\002F\377"
 733      67A65884 
 733      4443AE0B 
 733      E2A5CA02 
 733      46FF
 734 0536 787DBA8E 		.ascii	"x}\272\216\247\037\366\374\265\240#^\211\351\274\262"
 734      A71FF6FC 
 734      B5A0235E 
 734      89E9BCB2 
 735 0546 0A715D90 		.ascii	"\012q]\220\034 \246\212\025dx\214.\207\2238[bB\342t"
 735      1C20A68A 
 735      1564788C 
 735      2E879338 
 735      5B6242E2 
 736 055b 56DD15FB 		.ascii	"V\335\025\373\304\021g\322\251\035\335\274\272\375\261"
 736      C41167D2 
 736      A91DDDBC 
 736      BAFDB1
 737 056a CB3BE946 		.ascii	"\313;\351FS\201\261\367l\362\007ig\214\306\004\310\266"
 737      5381B1F7 
 737      6CF20769 
 737      678CC604 
 737      C8B6
 738 057c 9A0EB856 		.ascii	"\232\016\270Vi\"h\245\263<jA\035\200z\033\275\003U\237"
 738      692268A5 
 738      B33C6A41 
 738      1D807A1B 
 738      BD03559F 
 739 0590 D796C5B8 		.ascii	"\327\226\305\270\341n\2063_}\350\240\375\341}\207\016"
 739      E16E8633 
 739      5F7DE8A0 
 739      FDE17D87 
 739      0E
ARM GAS  /tmp/ccQFqzWI.s 			page 58


 740 05a1 EF0D7C74 		.ascii	"\357\015|tW?\310=\345\316|\232:oj\214I\321\244m\301"
 740      573FC83D 
 740      E5CE7C9A 
 740      3A6F6A8C 
 740      49D1A46D 
 741 05b6 06869BC5 		.ascii	"\006\206\233\305a\233\334a;ux\256\266\350\221\023\236"
 741      619BDC61 
 741      3B7578AE 
 741      B6E89113 
 741      9E
 742 05c7 640E5BA6 		.ascii	"d\016[\246\207\232<E\220z9H\207\004\322!\007\351\244"
 742      879A3C45 
 742      907A3948 
 742      8704D221 
 742      07E9A4
 743 05da 20D9F3CD 		.ascii	" \331\363\315\375\356x\007\246 6\346\251\234\242=\271"
 743      FDEE7807 
 743      A62036E6 
 743      A99CA23D 
 743      B9
 744 05eb 6E781FBD 		.ascii	"nx\037\275/\354(N\277\352\202|5l\222\334\325\261>\232"
 744      2FEC284E 
 744      BFEA827C 
 744      356C92DC 
 744      D5B13E9A 
 745 05ff 4E927D30 		.ascii	"N\222}0\375\364H^\312i\237\2627[\241^\230'\245\011\013"
 745      FDF4485E 
 745      CA699FB2 
 745      375BA15E 
 745      9827A509 
 746 0614 5CECCCAC 		.ascii	"\\\354\314\254\250v\247^\011P7\242~3/\317\354E\264\220"
 746      A876A75E 
 746      095037A2 
 746      7E332FCF 
 746      EC45B490 
 747 0628 4CC1FDAC 		.ascii	"L\301\375\254\260q\2646\215\217\355\327@=X<q\303\201"
 747      B071B436 
 747      8D8FEDD7 
 747      403D583C 
 747      71C381
 748 063b A9CEA0F6 		.ascii	"\251\316\240\366\235*Op\304\225,\224\341\252\311{\316"
 748      9D2A4F70 
 748      C4952C94 
 748      E1AAC97B 
 748      CE
 749 064c F80653D2 		.ascii	"\370\006S\322\313\373\226\342[\354:\251s\246\304\015"
 749      CBFB96E2 
 749      5BEC3AA9 
 749      73A6C40D 
 750 065c B730C574 		.ascii	"\2670\305t\356\362Y\015ng\312\323\271\264\"\027\006"
 750      EEF2590D 
 750      6E67CAD3 
 750      B9B42217 
 750      06
 751 066d B7983461 		.ascii	"\267\2304aOR\222\023\033|\351d\346\310K\037O\303x\204"
 751      4F529213 
 751      1B7CE964 
ARM GAS  /tmp/ccQFqzWI.s 			page 59


 751      E6C84B1F 
 751      4FC37884 
 752 0681 579CBDD8 		.ascii	"W\234\275\330\241\301O\250\342z\361NV\020Z\344\353\343"
 752      A1C14FA8 
 752      E27AF14E 
 752      56105AE4 
 752      EBE3
 753 0693 A3F159E4 		.ascii	"\243\361Y\344\343\353\263\213\217O#2\250\320C\010{\204"
 753      E3EBB38B 
 753      8F4F2332 
 753      A8D04308 
 753      7B84
 754 06a5 84FD0012 		.ascii	"\204\375\000\022\364\004-\"a\243)H\301S\344\203&A\306"
 754      F4042D22 
 754      61A32948 
 754      C153E483 
 754      2641C6
 755 06b8 40A64126 		.ascii	"@\246A&\220\017\355\2214\267\246.\263\217\021V\014\317"
 755      900FED91 
 755      34B7A62E 
 755      B38F1156 
 755      0CCF
 756 06ca A0C26329 		.ascii	"\240\302c)\263P\037\2762Hf{\027\216\374-3{\2531)\020"
 756      B3501FBE 
 756      3248667B 
 756      178EFC2D 
 756      337BAB31 
 757 06e0 8D43D6EE 		.ascii	"\215C\326\356stK\226\375H?[\356-\232\233f\232\274\017"
 757      73744B96 
 757      FD483F5B 
 757      EE2D9A9B 
 757      669ABC0F 
 758 06f4 184D7198 		.ascii	"\030Mq\230\246s\310\332\372\036\262\230\313\333\355"
 758      A673C8DA 
 758      FA1EB298 
 758      CBDBED
 759 0703 99CC4645 		.ascii	"\231\314FE\374\250,x\013\311o2<\350)\217\254\341\006"
 759      FCA82C78 
 759      0BC96F32 
 759      3CE8298F 
 759      ACE106
 760 0716 2438DBC9 		.ascii	"$8\333\311\030\205\004\374\234d0_\223M\0321\316a\233"
 760      188504FC 
 760      9C64305F 
 760      934D1A31 
 760      CE619B
 761 0729 719E20FE 		.ascii	"q\236 \376x\346\306\2235$s$U<m\022\320\254\230\004\322"
 761      78E6C693 
 761      35247324 
 761      553C6D12 
 761      D0AC9804 
 762 073e D1066D27 		.ascii	"\321\006m'\201aA\023\247N\236\331\256\246=\2208\276"
 762      81614113 
 762      A74E9ED9 
 762      AEA63D90 
 762      38BE
 763 0750 CB7AE0B9 		.ascii	"\313z\340\271\266\335\327<\354\216\353\347t\\\317\210"
ARM GAS  /tmp/ccQFqzWI.s 			page 60


 763      B6DDD73C 
 763      EC8EEBE7 
 763      745CCF88 
 764 0760 8FEDCC4B 		.ascii	"\217\355\314K{\314N|2\331u\367\317mm\003F\343n\222\012"
 764      7BCC4E7C 
 764      32D975F7 
 764      CF6D6D03 
 764      46E36E92 
 765 0775 35B1445D 		.ascii	"5\261D]R\303v\311\007\346,\035\230\367\247\206s=p\231"
 765      52C376C9 
 765      07E62C1D 
 765      98F7A786 
 765      733D7099 
 766 0789 9A76B794 		.ascii	"\232v\267\224\037\307;,\323R\323W\215\307\266\262\001"
 766      1FC73B2C 
 766      D352D357 
 766      8DC7B6B2 
 766      01
 767 079a 4EA71234 		.ascii	"N\247\0224'\001\315\311\201\346)P\2671\273\333\021\337"
 767      2701CDC9 
 767      81E62950 
 767      B731BBDB 
 767      11DF
 768 07ac 56FF8C79 		.ascii	"V\377\214yiA1/]\353\331\326\257\346SJ\253Y\023O<\376"
 768      6941312F 
 768      5DEBD9D6 
 768      AFE6534A 
 768      AB59134F 
 769 07c2 99D8A017 		.ascii	"\231\330\240\027\222\303\027r\207F\2018,<"
 769      92C31772 
 769      87468138 
 769      2C3C
 770 07d0 3634E389 		.ascii	"64\343\211'\231\303\232\350\272\203\002\0031\302d\212"
 770      2799C39A 
 770      E8BA8302 
 770      0331C264 
 770      8A
 771 07e1 E28CC668 		.ascii	"\342\214\306h\201\262\216\026, p)\201\304P\220C\346"
 771      81B28E16 
 771      2C207029 
 771      81C45090 
 771      43E6
 772 07f3 DE348477 		.ascii	"\3364\204w8P\220\241\372\230\012\027\234A\025\341Z\333"
 772      385090A1 
 772      FA980A17 
 772      9C4115E1 
 772      5ADB
 773 0805 A93969A5 		.ascii	"\2519i\245V4\262\272e\033\231\204\266\012\256(N\370"
 773      5634B2BA 
 773      651B9984 
 773      B60AAE28 
 773      4EF8
 774 0817 592BB52D 		.ascii	"Y+\265-\202\315\365`\346%s\2073mp\202\305\246?s\342"
 774      82CDF560 
 774      E6257387 
 774      336D7082 
 774      C5A63F73 
ARM GAS  /tmp/ccQFqzWI.s 			page 61


 775 082c 5CAAB3DD 		.ascii	"\\\252\263\335|\305\013$_\333\004\236\260\370'y\371"
 775      7CC50B24 
 775      5FDB049E 
 775      B0F82779 
 775      F9
 776 083d 1A88B517 		.ascii	"\032\210\265\027x\035x\262\272\266`\300\030\357E\255"
 776      781D78B2 
 776      BAB660C0 
 776      18EF45AD 
 777 084d 50ACC42C 		.ascii	"P\254\304,V`\033\004\224@\003=\220^\224\352\211\343"
 777      56601B04 
 777      9440033D 
 777      905E94EA 
 777      89E3
 778 085f 1C69A0FD 		.ascii	"\034i\240\375#\327\222]\345\356\010\023\311\337\217"
 778      23D7925D 
 778      E5EE0813 
 778      C9DF8F
 779 086e 82BC7D6A 		.ascii	"\202\274}jb*\2621sg\332\225\354q\300X\256&\026(Q\362"
 779      622AB231 
 779      7367DA95 
 779      EC71C058 
 779      AE261628 
 780 0884 9528FAFA 		.ascii	"\225(\372\372\211\372*(\215\253w\302\207\230\257\330"
 780      89FA2A28 
 780      8DAB77C2 
 780      8798AFD8 
 781 0894 8E0B994E 		.ascii	"\216\013\231N\234\355\256\273_\037\340lI\317\334.!l"
 781      9CEDAEBB 
 781      5F1FE06C 
 781      49CFDC2E 
 781      216C
 782 08a6 17117650 		.ascii	"\027\021vP\204\376\341\322\007\316\3708C\230K\233\312"
 782      84FEE1D2 
 782      07CEF838 
 782      43984B9B 
 782      CA
 783 08b7 70B08C10 		.ascii	"p\260\214\020\226\260\206\232\264n\027\273\011\333E"
 783      96B0869A 
 783      B46E17BB 
 783      09DB45
 784 08c6 03481213 		.ascii	"\003H\022\0236\370\340E\211\033\217\340\262YcJB\304"
 784      36F8E045 
 784      891B8FE0 
 784      B259634A 
 784      42C4
 785 08d8 02ED94DC 		.ascii	"\002\355\224\334\357\024\335\357\246\356\257\014\234"
 785      EF14DDEF 
 785      A6EEAF0C 
 785      9C
 786 08e5 DCA9C167 		.ascii	"\334\251\301g\231\373\366\353\265q\216\256|C\225\364"
 786      99FBF6EB 
 786      B5718EAE 
 786      7C4395F4 
 787 08f5 F7365423 		.ascii	"\3676T#\271\203\255\036\212\225\320\036En\367\012\032"
 787      B983AD1E 
 787      8A95D01E 
ARM GAS  /tmp/ccQFqzWI.s 			page 62


 787      456EF70A 
 787      1A
 788 0906 71415051 		.ascii	"qAPQ\023\203iXP\306\303\252\253l\332\357\204M\324\261"
 788      13836958 
 788      50C6C3AA 
 788      AB6CDAEF 
 788      844DD4B1 
 789 091a 7A20FF5C 		.ascii	"z \377\\+F.l\377\347\273\215\022\210I\177\373;\013\201"
 789      2B462E6C 
 789      FFE7BB8D 
 789      1288497F 
 789      FB3B0B81 
 790 092e 43D0C1F6 		.ascii	"C\320\301\366\013.\200p@\360F\007\005o\272\375#%tK\370"
 790      0B2E8070 
 790      40F04607 
 790      056FBAFD 
 790      2325744B 
 791 0943 1ABD94ED 		.ascii	"\032\275\224\355\033AE\373\004\313\276\021\374\2354"
 791      1B4145FB 
 791      04CBBE11 
 791      FC9D34
 792 0952 9767B3C7 		.ascii	"\227g\263\307\037\271\227\"P\022O\352\373N9\311sK\356"
 792      1FB99722 
 792      50124FEA 
 792      FB4E39C9 
 792      734BEE
 793 0965 4911A4D1 		.ascii	"I\021\244\321\344\246\212\311]h\030\235\025{c\352\344"
 793      E4A68AC9 
 793      5D68189D 
 793      157B63EA 
 793      E4
 794 0976 9717CF18 		.ascii	"\227\027\317\030\343\\\210\015J\226\322\233,\246\367"
 794      E35C880D 
 794      4A96D29B 
 794      2CA6F7
 795 0985 304DEFC1 		.ascii	"0M\357\301\244\204*\017|\227\245\267\260jv\207\223\345"
 795      A4842A0F 
 795      7C97A5B7 
 795      B06A7687 
 795      93E5
 796 0997 09CCD270 		.ascii	"\011\314\322p>\353\351M\373\255{\224\022H\027\011\304"
 796      3EEBE94D 
 796      FBAD7B94 
 796      12481709 
 796      C4
 797 09a8 CEB5F5F2 		.ascii	"\316\265\365\362\376\331[2\025RF\011\200\015:\"\021"
 797      FED95B32 
 797      15524609 
 797      800D3A22 
 797      11
 798 09b9 382212C8 		.ascii	"8\"\022\310\240\004vU\036:\347\210w;Y\255F\276\020\375"
 798      A0047655 
 798      1E3AE788 
 798      773B59AD 
 798      46BE10FD 
 799 09cd 3F6E8E9D 		.ascii	"?n\216\235G\3663\220E\011dZ2P|?M\314\300\376'\033k("
 799      47F63390 
ARM GAS  /tmp/ccQFqzWI.s 			page 63


 799      4509645A 
 799      32507C3F 
 799      4DCCC0FE 
 800 09e5 01B041C7 		.ascii	"\001\260A\307$\002\307D\002\307)\201\316\203\325\345"
 800      2402C744 
 800      02C72981 
 800      CE83D5E5 
 801 09f5 08673302 		.ascii	"\010g3\002\017\316\307\235p{\367\2301\035\036\267i\223"
 801      0FCEC79D 
 801      707BF798 
 801      311D1EB7 
 801      6993
 802 0a07 5F9E6E24 		.ascii	"_\236n$#\204\220\311f\365e\236\263\011\014\312\021\336"
 802      238490C9 
 802      66F5659E 
 802      B3090CCA 
 802      11DE
 803 0a19 856A65D1 		.ascii	"\205je\321y{\035p!\303(z\234[\344\316\367\037D\217\351"
 803      797B1D70 
 803      21C3287A 
 803      9C5BE4CE 
 803      F71F448F 
 804 0a2e BF006B47 		.ascii	"\277\000kG3\273\231\235;\272\307\001\3270e\244\245a"
 804      33BB999D 
 804      3BBAC701 
 804      D73065A4 
 804      A561
 805 0a40 D8193730 		.ascii	"\330\03170e\366\336\351!\215\242\267\336Q\354\370\362"
 805      65F6DEE9 
 805      218DA2B7 
 805      DE51ECF8 
 805      F2
 806 0a51 2DBD755F 		.ascii	"-\275u_]\302E\001\267\263j\027\006\253\315\256\314\233"
 806      5DC24501 
 806      B7B36A17 
 806      06ABCDAE 
 806      CC9B
 807 0a63 919E5ABC 		.ascii	"\221\236Z\274\310\252\361\300\275\364\246\343\366\241"
 807      C8AAF1C0 
 807      BDF4A6E3 
 807      F6A1
 808 0a71 AB1DCEC8 		.ascii	"\253\035\316\310\007>\276\213\330\363\360\310Vw\366"
 808      073EBE8B 
 808      D8F3F0C8 
 808      5677F6
 809 0a80 3C043894 		.ascii	"<\0048\224\007A\025\011\266\027\005\314<\325L\237\303"
 809      07411509 
 809      B61705CC 
 809      3CD54C9F 
 809      C3
 810 0a91 C4F8B4B5 		.ascii	"\304\370\264\265\261\3549\314\214\017\231=\0316\031"
 810      B1EC39CC 
 810      8C0F993D 
 810      193619
 811 0aa0 44B936CD 		.ascii	"D\2716\315e\320\205r&\205\266\231\310\237\362\007\314"
 811      65D08572 
 811      2685B699 
ARM GAS  /tmp/ccQFqzWI.s 			page 64


 811      C89FF207 
 811      CC
 812 0ab1 F4290F56 		.ascii	"\364)\017V\362\247\274b\261Q\000C\217-D\010\026i\256"
 812      F2A7BC62 
 812      B1510043 
 812      8F2D4408 
 812      1669AE
 813 0ac4 0B302CCF 		.ascii	"\0130,\317\011>\350,\310\031\220\363\202\2178\336\356"
 813      093EE82C 
 813      C81990F3 
 813      828F38DE 
 813      EE
 814 0ad5 E4B40D60 		.ascii	"\344\264\015`<L\023%\324?o\256\360@\276\213\230\253"
 814      3C4C1325 
 814      D43F6FAE 
 814      F040BE8B 
 814      98AB
 815 0ae7 B366445C 		.ascii	"\263fD\\]\006\220\213R\277!\236\3558D\227\300\317\317"
 815      5D06908B 
 815      52BF219E 
 815      ED384497 
 815      C0CFCF
 816 0afa F0D9F0AC 		.ascii	"\360\331\360\254\245\336i\021\2070\331\205P\331\253"
 816      A5DE6911 
 816      8730D985 
 816      50D9AB
 817 0b09 9FFBD3C9 		.ascii	"\237\373\323\311\033\312\031\255X\220\257\327J,}\244"
 817      1BCA19AD 
 817      5890AFD7 
 817      4A2C7DA4 
 818 0b19 7432A7C1 		.ascii	"t2\247\301I\264Lz\225ew\341\340\001O\005f)4\210dyE\264"
 818      49B44C7A 
 818      956577E1 
 818      E0014F05 
 818      66293488 
 819 0b31 54F79A67 		.ascii	"T\367\232g\323\035\220\264\3365\261$\234\204\010Xs\225"
 819      D31D90B4 
 819      DE35B124 
 819      9C840858 
 819      7395
 820 0b43 F10C5C85 		.ascii	"\361\014\\\205PL\300\274\\\220\257\351\312\266\276\241"
 820      504CC0BC 
 820      5C90AFE9 
 820      CAB6BEA1 
 821 0b53 EC1E65B6 		.ascii	"\354\036e\266\273\007k\203R\326\334e\202\215E]\303\326"
 821      BB076B83 
 821      52D6DC65 
 821      828D455D 
 821      C3D6
 822 0b65 5F3124E0 		.ascii	"_1$\340\206N\331D\262\254\351\236\236N\254\367\304\343"
 822      864ED944 
 822      B2ACE99E 
 822      9E4EACF7 
 822      C4E3
 823 0b77 AC994B7B 		.ascii	"\254\231K{\013s\334-\315\334\304\232\271\022*WH\315"
 823      0B73DC2D 
 823      CDDCC49A 
ARM GAS  /tmp/ccQFqzWI.s 			page 65


 823      B9122A57 
 823      48CD
 824 0b89 5C266B66 		.ascii	"\\&kf\253\010\3215\010\314^\220\344\030#\375\301aO\336"
 824      AB08D135 
 824      08CC5E90 
 824      E41823FD 
 824      C1614FDE 
 825 0b9d BC2693DD 		.ascii	"\274&\223\335\252*\353z\263q\307&\334a\326)H'[P\355"
 825      AA2AEB7A 
 825      B371C726 
 825      DC61D629 
 825      48275B50 
 826 0bb2 4016D447 		.ascii	"@\026\324G\310L\202\342\323\216\224cR\262\036\036 \327"
 826      C84C82E2 
 826      D38E9463 
 826      52B21E1E 
 826      20D7
 827 0bc4 E9C4B36D 		.ascii	"\351\304\263m\344\360\264\032\3078\263\343\273\202\302"
 827      E4F0B41A 
 827      C738B3E3 
 827      BB82C2
 828 0bd3 2907FB27 		.ascii	")\007\373'\017\325\002?y\310a\217\307\264\003iuH:Z0"
 828      0FD5023F 
 828      79C8618F 
 828      C7B40369 
 828      75483A5A 
 829 0be8 903E6159 		.ascii	"\220>aY\257\253\320\015\301K\254D\254\257LLUc\271u\351"
 829      AFABD00D 
 829      C14BAC44 
 829      ACAF4C4C 
 829      5563B975 
 830 0bfd ABAC131F 		.ascii	"\253\254\023\037\033\373< \242QX\006\336\336\375f\264"
 830      1BFB3C20 
 830      A2515806 
 830      DEDEFD66 
 830      B4
 831 0c0e D1A44635 		.ascii	"\321\244F5\202\027\252\342\361H\025\253x<\2654\236\353"
 831      8217AAE2 
 831      F14815AB 
 831      783CB534 
 831      9EEB
 832 0c20 6DF3E96E 		.ascii	"m\363\351n8\215\30537\330\030\347\002 \267\000d\352"
 832      388DC533 
 832      37D818E7 
 832      0220B700 
 832      64EA
 833 0c32 BA370521 		.ascii	"\2727\005!\275\270\216\203H\303\275\216\203\334\244"
 833      BDB88E83 
 833      48C3BD8E 
 833      83DCA4
 834 0c41 207B9BCC 		.ascii	" {\233\314\307\034p\036\003\251=\375p\301\223\203\354"
 834      C71C701E 
 834      03A93DFD 
 834      70C19383 
 834      EC
 835 0c52 FF9CE495 		.ascii	"\377\234\344\225@\324\277\004Q\317!nQ\210\307\373\366"
 835      40D4BF04 
ARM GAS  /tmp/ccQFqzWI.s 			page 66


 835      51CF216E 
 835      5188C7FB 
 835      F6
 836 0c63 A779E252 		.ascii	"\247y\342R\006a\314O\352\0248D\312\027\"D\303K\020\015"
 836      0661CC4F 
 836      EA143844 
 836      CA172244 
 836      C34B100D 
 837 0c77 1CA29142 		.ascii	"\034\242\221B\214\237\270\334\256\301u\014\242\260\246"
 837      8C9FB8DC 
 837      AEC1750C 
 837      A2B0A6
 838 0c86 25D38343 		.ascii	"%\323\203C\034\014\020!\232^\202h\342\020\315\024b\356"
 838      1C0C1021 
 838      9A5E8268 
 838      E210CD14 
 838      62EE
 839 0c98 79F71D37 		.ascii	"y\367\0357\305\320\374B\336\240-ld\222o\362\240Nk=\354"
 839      C5D0FC42 
 839      DEA02D6C 
 839      64926FF2 
 839      A04E6B3D 
 840 0cad 66BFF55B 		.ascii	"f\277\365[\305\326\177\2376~\345\302\224\311\223\355"
 840      C5D67F9F 
 840      367EE5C2 
 840      94C993ED 
 841 0cbd 7C05D936 		.ascii	"|\005\3316{1\333f\267M\365L\211Gf&\361\324\251\015X"
 841      7B31DB66 
 841      B74DF54C 
 841      89476626 
 841      F1D4A90D 
 842 0cd2 DE16E861 		.ascii	"\336\026\350a\006ml\212H\025\25010\233w\231\037\202"
 842      066D6C8A 
 842      4815A831 
 842      309B7799 
 842      1F82
 843 0ce4 399275CB 		.ascii	"9\222u\313\335\251~g\373d:D2\355\002e3\221\270e\212"
 843      DDA97E67 
 843      FB643A44 
 843      32ED0265 
 843      3391B865 
 844 0cf9 1FEB3B91 		.ascii	"\037\353;\221\023\210\301\324\035\032\306\346\367\240"
 844      1388C1D4 
 844      1D1AC6E6 
 844      F7A0
 845 0d07 6E4D4F79 		.ascii	"nMOy\342f}\006\326\005l:)\233n\312\246\203\261\351\246"
 845      E2667D06 
 845      D6056C3A 
 845      299B6ECA 
 845      A683B1E9 
 846 0d1c 6CE252F6 		.ascii	"l\342R\366\335\361\300],\367\317\366\\\352\346\373\021"
 846      DDF1C05D 
 846      2CF7CFF6 
 846      5CEAE6FB 
 846      11
 847 0d2d 58A37F2F 		.ascii	"X\243\177/\356\311\342`OF\236\260=\322\320\357\221o"
 847      EEC9E260 
ARM GAS  /tmp/ccQFqzWI.s 			page 67


 847      4F469EB0 
 847      3DD2D0EF 
 847      916F
 848 0d3f 4A7AE9EA 		.ascii	"Jz\351\352\340I\334\324\240\033~\300\220\026\332\207"
 848      E049DCD4 
 848      A01B7EC0 
 848      9016DA87 
 849 0d4f E39C3952 		.ascii	"\343\2349Rw\366\252SlO\226\276\232\355\311\372$\240"
 849      77F6AA53 
 849      6C4F96BE 
 849      9AEDC9FA 
 849      24A0
 850 0d61 3E39503F 		.ascii	">9P?\005\272=X\036\214\263\\(\316\311\274\303\005\036"
 850      05BA3D58 
 850      1E8CB35C 
 850      28CEC9BC 
 850      C3051E
 851 0d74 F82C537E 		.ascii	"\370,S~,\257Hu\2045\017\032\240\225\310\240~\230\331"
 851      2CAF4875 
 851      84350F1A 
 851      A095C8A0 
 851      7E98D9
 852 0d87 2AD05550 		.ascii	"*\320UP\211e\031v\2475c\245\335U\330\020]\004\015\212"
 852      89651976 
 852      A73563A5 
 852      DD55D810 
 852      5D040D8A 
 853 0d9b 8BA0CE87 		.ascii	"\213\240\316\207\343\217\304\255cr\376\237\346'\305"
 853      E38FC4AD 
 853      6372FE9F 
 853      E627C5
 854 0daa 8017134B 		.ascii	"\200\027\023KtW\344\211\356\011j\242IT\207)\325\354"
 854      7457E489 
 854      EE096AA2 
 854      49548729 
 854      D5EC
 855 0dbc BE1D994E 		.ascii	"\276\035\231Nx\316\036\275\231\346\211\024\276\3075"
 855      78CE1EBD 
 855      99E68914 
 855      BEC735
 856 0dcb EDBE41CF 		.ascii	"\355\276A\317\235\322\253\330\006\357\276\005\372\001"
 856      9DD2ABD8 
 856      06EFBE05 
 856      FA01
 857 0dd9 40DF9743 		.ascii	"@\337\227C\217P\350\001ca1\302\011\354uC\365\334x\241"
 857      8F50E801 
 857      636131C2 
 857      09EC7543 
 857      F5DC78A1 
 858 0ded A3A56136 		.ascii	"\243\245a6\336\264j\230\207R>\037\312\221\036Q\244\330"
 858      DEB46A98 
 858      87523E1F 
 858      CA911E51 
 858      A4D8
 859 0dff A1895B0E 		.ascii	"\241\211[\0168\205!e\345\317&;X\032\346\273\223\312"
 859      38852165 
 859      E5CF263B 
ARM GAS  /tmp/ccQFqzWI.s 			page 68


 859      581AE6BB 
 859      93CA
 860 0e11 86792C01 		.ascii	"\206y,\001=\226\003=\241@\023\321\311\247\235\3611W"
 860      3D96033D 
 860      A14013D1 
 860      C9A79DF1 
 860      3157
 861 0e23 3BD1963C 		.ascii	";\321\226<7\235\226\222\031xB\226L\202=j\211\370)D<"
 861      379D9692 
 861      19784296 
 861      4C823D6A 
 861      89F82944 
 862 0e38 2A871FA3 		.ascii	"*\207\037\243\360M\207\317\304\270\343B\006\237\233"
 862      F04D87CF 
 862      C4B8E342 
 862      069F9B
 863 0e47 DC168DA5 		.ascii	"\334\026\215\245\210\333\255\"\036\227\210\216\313\221"
 863      88DBAD22 
 863      1E97888E 
 863      CB91
 864 0e55 26D852DD 		.ascii	"&\330R\335\274\343\035\\\312\200f\312+\215\202\024p"
 864      BCE31D5C 
 864      CA8066CA 
 864      2B8D8214 
 864      70
 865 0e66 9E32E067 		.ascii	"\2362\340g\022\31639\316$\305\331y\276c\316\023WS a"
 865      12CE3339 
 865      CE24C5D9 
 865      79BE63CE 
 865      13575320 
 866 0e7b 6172F0BC 		.ascii	"ar\360\274+r\365\265\275m\236\261\261m\026_\227D\260"
 866      2B72F5B5 
 866      BD6D9EB1 
 866      B16D165F 
 866      9744B0
 867 0e8e D725D3B0 		.ascii	"\327%\323\260\245\232\262\336\204\223R\262\022\356\333"
 867      A59AB2DE 
 867      849352B2 
 867      12EEDB
 868 0e9d 5BC68FD7 		.ascii	"[\306\217\327\332\010\353\246\301\243q\374\254\373\026"
 868      DA08EBA6 
 868      C1A371FC 
 868      ACFB16
 869 0eac D12B5AAF 		.ascii	"\321+Z\257\217\252q\023\013\351Vv\374-L\246\214\330"
 869      8FAA7113 
 869      0BE95676 
 869      FC2D4CA6 
 869      8CD8
 870 0ebe 9FFD3AA7 		.ascii	"\237\375:\247\266v\266\316\001\337\341MWy\336\314\347"
 870      B676B6CE 
 870      01DFE14D 
 870      5779DECC 
 870      E7
 871 0ecf 902AA2EF 		.ascii	"\220*\242\357\271\\Q\354\206;\331\315\273\211\375\025"
 871      B95C51EC 
 871      863BD9CD 
 871      BB89FD15 
ARM GAS  /tmp/ccQFqzWI.s 			page 69


 872 0edf 8EB8CF55 		.ascii	"\216\270\317U\261@\367\342\013\364#\035\317n |\217\335"
 872      B140F7E2 
 872      0BF4231D 
 872      CF6E207C 
 872      8FDD
 873 0ef1 2C2E2A31 		.ascii	",.*1\363\023\306\367\311:\252\261\363C\374\200\335*"
 873      F313C6F7 
 873      C93AAAB1 
 873      F343FC80 
 873      DD2A
 874 0f03 1F2BC8E6 		.ascii	"\037+\310\346\3641\231\032\2462\022^1\307m\303|\216"
 874      F431991A 
 874      A632125E 
 874      31C76DC3 
 874      7C8E
 875 0f15 DB8A29D9 		.ascii	"\333\212)\331mi=g\035\024\217[\030\334\322\314\037\217"
 875      6D693D67 
 875      1D148F5B 
 875      18DCD2CC 
 875      1F8F
 876 0f27 BDC44A74 		.ascii	"\275\304JtU6\227Z\251x\334\316\013\257\260\316?\226"
 876      5536975A 
 876      A978DCCE 
 876      0BAFB0CE 
 876      3F96
 877 0f39 B5CF153F 		.ascii	"\265\317\025?f4\017\215w\335\347Y\367\005\365\370dq"
 877      66340F8D 
 877      77DDE759 
 877      F705F5F8 
 877      6471
 878 0f4b AC331E63 		.ascii	"\2543\036c\367\222\257\244\3259\341I\246\304\334\376"
 878      F792AFA4 
 878      D539E149 
 878      A6C4DCFE 
 879 0f5b 083F6797 		.ascii	"\010?g\227e\273vw!\374\202){kF\336\303\261n\364\372"
 879      65BB7677 
 879      21FC8229 
 879      7B6B46DE 
 879      C3B16EF4 
 880 0f70 4555C57B 		.ascii	"EU\305{8\201]\233/\344d#\274\223)c\007\315#\2568\231"
 880      38815D9B 
 880      2FE46423 
 880      BC932963 
 880      07CD23AE 
 881 0f86 29E98DA9 		.ascii	")\351\215\251\027\235q\012S\216O\247\034\327\340CLi"
 881      179D710A 
 881      538E4FA7 
 881      1CD7E043 
 881      4C69
 882 0f98 BED412EF 		.ascii	"\276\324\022\357\206\323\231\022"
 882      86D39912 
 883 0fa0 5F58B8DF 		.ascii	"_X\270\337\015g2%\246\370\316.\376\004\352%\372@\326"
 883      0D673225 
 883      A6F8CE2E 
 883      FE04EA25 
 883      FA40D6
 884 0fb3 40BA0BDF 		.ascii	"@\272\013\337\310\220GHbc\355\024\3029\314\370\320\235"
ARM GAS  /tmp/ccQFqzWI.s 			page 70


 884      C8904748 
 884      6263ED14 
 884      C239CCF8 
 884      D09D
 885 0fc5 17059ED2 		.ascii	"\027\005\236\322\003\211%OZ\024\035\302\322\003\011"
 885      0389254F 
 885      5A141DC2 
 885      D20309
 886 0fd4 ACCF2467 		.ascii	"\254\317$g\231\235\345\326$y\366\254_\257\352\031\310"
 886      999DE5D6 
 886      2479F6AC 
 886      5FAFEA19 
 886      C8
 887 0fe5 77A19B24 		.ascii	"w\241\233$\371\307\327\307g\221\217O\2061.\326\330["
 887      F9C7D7C7 
 887      67918F4F 
 887      86312ED6 
 887      D85B
 888 0ff7 5CBC2AE1 		.ascii	"\\\274*\341\330\315\237\214\351"
 888      D8CD9F8C 
 888      E9
 889 1000 E58842CD 		.ascii	"\345\210B\315A\177/\300\262%\347\254 \337\013A\025\323"
 889      417F2FC0 
 889      B225E7AC 
 889      20DF0B41 
 889      15D3
 890 1012 F31EBA71 		.ascii	"\363\036\272q\"\326I\330\312\272\006Y[\217J\326{\255"
 890      22D649D8 
 890      CABA0659 
 890      5B8F4AD6 
 890      7BAD
 891 1024 AD157B32 		.ascii	"\255\025{2b<'\031\357\2646\256\2676\336\277\201\255"
 891      623C2719 
 891      EFB436AE 
 891      B736DEBF 
 891      81AD
 892 1036 948975AC 		.ascii	"\224\211u\254\265u\014\266&\262Gf\236hm\036\207\255"
 892      B5750CB6 
 892      26B24766 
 892      9E686D1E 
 892      87AD
 893 1048 C0C72426 		.ascii	"\300\307$&{l\323\226c\247\312\260\215\326\346\013\312"
 893      7B6CD396 
 893      63A7CAB0 
 893      8DD6E60B 
 893      CA
 894 1059 0CC25AEF 		.ascii	"\014\302Z\357\314\206hj\236\212\275\320AnnYM?\027\254"
 894      CC86686A 
 894      9E8ABDD0 
 894      416E6E59 
 894      4D3F17AC 
 895 106d A8744A54 		.ascii	"\250tJT\366Yc\373Y\331\036\224\021\211\266MDf\235$\263"
 895      F65963FB 
 895      59D91E94 
 895      1189B64D 
 895      44669D24 
 896 1082 DE6E6DFD 		.ascii	"\336nm\375\243uJ\246%\036\273l\267\273\314\370\260\014"
ARM GAS  /tmp/ccQFqzWI.s 			page 71


 896      A3754AA6 
 896      251EBB6C 
 896      B7BBCCF8 
 896      B00C
 897 1094 FA85ED3E 		.ascii	"\372\205\355>\265\\JH\012OH\002$d\013\307\266\354\036"
 897      B55C4A48 
 897      0A4F4802 
 897      24640BC7 
 897      B6EC1E
 898 10a7 E35E6ACA 		.ascii	"\343^j\312\011\211I\2625\023\331i=\333\012u\364\320"
 898      098949B2 
 898      3513D969 
 898      3DDB0A75 
 898      F4D0
 899 10b9 DD161829 		.ascii	"\335\026\030)w[\004(\271\177ur\254\261\352}\012\365"
 899      775B0428 
 899      B97F7572 
 899      ACB1EA7D 
 899      0AF5
 900 10cb 93ED0CC8 		.ascii	"\223\355\014\310\035\277\220\034\357\260\335?\231\265"
 900      1DBF901C 
 900      EFB0DD3F 
 900      99B5
 901 10d9 62277D00 		.ascii	"b'}\000{\243\375\024\212\330\223Eq\036\366E\3071l\201"
 901      7BA3FD14 
 901      8AD89345 
 901      711EF645 
 901      C7316C81 
 902 10ed 418E801C 		.ascii	"A\216\200\034\0039\005R\010r\002\3440H:\310i\220\034"
 902      03390552 
 902      087202E4 
 902      30483AC8 
 902      69901C
 903 1100 907C900C 		.ascii	"\220|\220\014\220\\\220\243 \331 \231 'A\322@\262\260"
 903      905C90A3 
 903      20D92099 
 903      202741D2 
 903      40B2B0
 904 1113 8F2CA849 		.ascii	"\217,\250I\211\344n\333\331\221\207\324-Y\247\330\354"
 904      89E46EDB 
 904      D99187D4 
 904      2D59A7D8 
 904      EC
 905 1124 5D96ED66 		.ascii	"]\226\355fWmk\216\007\356\245\263\226\320\034\233w\002"
 905      576D6B8E 
 905      07EEA5B3 
 905      96D01C9B 
 905      7702
 906 1136 A145BE36 		.ascii	"\241E\2766#E\347!\300\177t\260\254u\317\367/!\255{\016"
 906      2345E721 
 906      C07F74B0 
 906      AC75CFF7 
 906      2F21AD7B 
 907 114b 9C9DC596 		.ascii	"\234\235\305\226G5il\366[\203-\007n+O\025\316a\371Y"
 907      4735696C 
 907      F65B832D 
 907      076E2B4F 
ARM GAS  /tmp/ccQFqzWI.s 			page 72


 907      15CE61F9 
 908 1160 C105CCF6 		.ascii	"\301\005\314\366\031\360\015\326\303\351\321\365\036"
 908      19F00DD6 
 908      C3E9D1F5 
 908      1E
 909 116d F8219B97 		.ascii	"\370!\233\227\257-\334lQ\234ON+NX/b\371\351\365\302"
 909      AF2DDC6C 
 909      519C4F4E 
 909      2B4E582F 
 909      62F9E9F5 
 910 1182 A1DE5EE9 		.ascii	"\241\336^\351\345\310\327\207\307\244\325\017\030\242"
 910      E5C8D787 
 910      C7A4D50F 
 910      18A2
 911 1190 22891A5C 		.ascii	"\"\211\032\\J\253\226K\230\254Z\306\016\\\030r\307\013"
 911      4AAB964B 
 911      98AC5AC6 
 911      0E5C1872 
 911      C70B
 912 11a2 CCEDA9BC 		.ascii	"\314\355\251\274\234{\256\034\251\265\177\015\177g["
 912      9C7BAE1C 
 912      A9B57F0D 
 912      7F675B
 913 11b1 CE702E4B 		.ascii	"\316p.K8\227\3458\305\024g\346\310\3119w\\\241\2418"
 913      3897E538 
 913      C51467E6 
 913      C8C93977 
 913      5CA1A138 
 914 11c5 277A3BEF 		.ascii	"'z;\357\363\367\035\275\235\203kN*pJ$\234\0229N)\305"
 914      F3F71DBD 
 914      9D836B4E 
 914      2A704A24 
 914      9C12394E 
 915 11db 49CC1B29 		.ascii	"I\314\033)@\212\244\221\203x\331\261\011O\332\025\232"
 915      408AA491 
 915      8378D9B1 
 915      094FDA15 
 915      9A
 916 11ec B41D5B17 		.ascii	"\264\035[\027\364\012\343x\205q\0317.\243\306\243\223"
 916      F40AE378 
 916      85711937 
 916      2EA3C6A3 
 916      93
 917 11fd 35307724 		.ascii	"50w$\272S\212%q\305IN\226%\343\352\373VKF\223D\322$"
 917      BA538A25 
 917      71C5494E 
 917      9625E3EA 
 917      FB564B46 
 918 1215 27799592 		.ascii	"'y\225\222\254\230l\315s\302\207\030\322B\341\2219i"
 918      AC986CCD 
 918      73C28718 
 918      D242E191 
 918      3969
 919 1227 F7B22647 		.ascii	"\367\262&G\271f,\227\200\312\345@\025\024\350\370\324"
 919      B9662C97 
 919      80CAE540 
 919      1514E8F8 
ARM GAS  /tmp/ccQFqzWI.s 			page 73


 919      D4
 920 1238 F48F1E38 		.ascii	"\364\217\0368\237\001\215\035\276\261\237\257bM\023"
 920      9F018D1D 
 920      BEB19FAF 
 920      624D13
 921 1247 DF9029CC 		.ascii	"\337\220)\314h<\3126\000\327$\224kr\224J\212\262'\353"
 921      683CCA36 
 921      00D72494 
 921      6B72944A 
 921      8AB227EB 
 922 125b 7A821A5F 		.ascii	"z\202\032_d(\035\343\333k\020\247\263\377I\310\210%"
 922      64281DE3 
 922      DB6B10A7 
 922      B3FF49C8 
 922      8825
 923 126d F704C72C 		.ascii	"\367\004\307,\341\230\3458\327)N\365@^\271\007\256a"
 923      E198E538 
 923      D7294EF5 
 923      405EB907 
 923      AE61
 924 127f 38354767 		.ascii	"85GgL\310\022V\340\011eXU\022P\225\034\250\232\002\365"
 924      4CC81256 
 924      E0096558 
 924      55125095 
 924      1CA89A02 
 925 1294 1E194A76 		.ascii	"\036\031Jv\307\275\014(a\373\310(\337D\230\232\277U"
 925      C7BD0C28 
 925      61FBC828 
 925      DF44989A 
 925      BF55
 926 12a6 84754342 		.ascii	"\204uCB\271!G\251\241(\245G\213c<\025gmv\177\253SK\033"
 926      B92147A9 
 926      A128A547 
 926      8B633C15 
 926      676D767F 
 927 12be B86622FF 		.ascii	"\270f\"\377\212\362\310\215\230H\025\352xw\250\243\326"
 927      8AF2C88D 
 927      984815EA 
 927      7877A8A3 
 927      D6
 928 12cf DBABDB87 		.ascii	"\333\253\333\207]\225\207\206\266\336\252\252\354\276"
 928      5D958786 
 928      B6DEAAAA 
 928      ECBE
 929 12dd 522543BC 		.ascii	"R%C\274\264&V\371K\261\233\212!^\317=\326S\217\211]"
 929      B42656F9 
 929      4BB19B8A 
 929      215ECF3D 
 929      D6538F89 
 930 12f2 0F770B76 		.ascii	"\017w\013v\003\262z\235\217n\321:g\343\206\346\334\025"
 930      03B27A9D 
 930      8F6ED13A 
 930      67E386E6 
 930      DC15
 931 1304 1E7629BA 		.ascii	"\036v)\272x\003\367\320@\2553\236\356\350U\376H\345"
 931      7803F7D0 
 931      40AD339E 
ARM GAS  /tmp/ccQFqzWI.s 			page 74


 931      EEE855FE 
 931      48E5
 932 1316 B922658D 		.ascii	"\271\"e\215\334\272\221Z7O^*p\302\017Y3\231\313\213"
 932      DCBA915A 
 932      374F5E2A 
 932      70C20F59 
 932      3399CB8B 
 933 132a FAF9CF1E 		.ascii	"\372\371\317\036z\223\356n\274a\3517\304_\223\324PM"
 933      7A93EE6E 
 933      BC61E937 
 933      C45F93D4 
 933      504D
 934 133c F2866AA6 		.ascii	"\362\206j\246\015\265o\364V\243\253\375\025{\213\270"
 934      0DB56FF4 
 934      56A3ABFD 
 934      157B8BB8 
 935 134c 62BF2D28 		.ascii	"b\277-(~W\264\230\375\256(c\357t\037\262>\206h\305l"
 935      7E57B498 
 935      FDAE2863 
 935      EF741FB2 
 935      3E8668C5 
 936 1361 81AF42B7 		.ascii	"\201\257B\267\351\252\222bP\205,\342o\376\230\346\240"
 936      E9AA9262 
 936      50852CE2 
 936      6FFE98E6 
 936      A0
 937 1372 88B24FD1 		.ascii	"\210\262O\321\316m<\3126\032\345\310\334\265\353\312"
 937      CE6D3CCA 
 937      361AE5C8 
 937      DCB5EBCA 
 938 1382 D39EA38A 		.ascii	"\323\236\243\212\014\336\341\326w\250u\303\305\253\305"
 938      0CDEE1D6 
 938      77A875C3 
 938      C5ABC5
 939 1391 CAF9274D 		.ascii	"\312\371'Ma\335\316\255\333\251\365O[NF;\341)\226\301"
 939      61DDCEAD 
 939      DBA9F54F 
 939      5B4E463B 
 939      E12996C1 
 940 13a5 67F77B26 		.ascii	"g\367{&<,#ou\247b\344uH\031\354\220g\260\223f\360\326"
 940      3C2C236F 
 940      75A762E4 
 940      754819EC 
 940      9067B093 
 941 13bc E3E29FDC 		.ascii	"\343\342\237\334p\264\007\333\261\315W\325\211o\213"
 941      70B407DB 
 941      B1CD57D5 
 941      896F8B
 942 13cb 2FDF6607 		.ascii	"/\337f\007\001\253)H\227\004\322%\007\351\246 )\315"
 942      01AB2948 
 942      9704D225 
 942      07E9A620 
 942      29CD
 943 13dd 336BF176 		.ascii	"3k\361v\206q\354x\313,\337\310\232.t\3101z$\214\036"
 943      8671EC78 
 943      CB2CDFC8 
 943      9A2E74C8 
ARM GAS  /tmp/ccQFqzWI.s 			page 75


 943      317A248C 
 944 13f2 39462FC5 		.ascii	"9F/\305\3108\363h\273\032g2\220\351\242m~<\236\236\354"
 944      C838F368 
 944      BB1A6732 
 944      90E9A26D 
 944      7E3C9E9E 
 945 1407 C0EDB164 		.ascii	"\300\355\261d\251\036c\374p5\235\222\373$\234>9N?\305"
 945      A91E63FC 
 945      70359D92 
 945      FB249C3E 
 945      394E3FC5 
 946 141b 49785198 		.ascii	"IxQ\230\353\202/z\330\331\375\027G_\360\224?\336\310"
 946      EB822F7A 
 946      D8D9FD17 
 946      475FF094 
 946      3FDEC8
 947 142e B643CAF1 		.ascii	"\266C\312\361=\305\343moaW\264\207\345\244 t\346\205"
 947      3DC5E36D 
 947      6F6157B4 
 947      87E5A420 
 947      74E685
 948 1441 74520086 		.ascii	"tR\000\206\350\256\310\003\015`5\321$*\203,\267\225"
 948      E8AEC803 
 948      0D6035D1 
 948      242A832C 
 948      B795
 949 1453 E71B5DB1 		.ascii	"\347\033]\261\231Q\2111^\254\225\316FV?\261\232\366"
 949      99518931 
 949      5EAC95CE 
 949      46563FB1 
 949      9AF6
 950 1465 87A4A086 		.ascii	"\207\244\240\206\344H\303\024)\272mo\262\007\356aHq"
 950      E448C314 
 950      29BA6D6F 
 950      B207EE61 
 950      4871
 951 1477 E7CA4F0B 		.ascii	"\347\312O\013\226\361\262:U1^\356K8\367\3458\017(\316"
 951      96F1B23A 
 951      55315EEE 
 951      4B38F7E5 
 951      380F28CE 
 952 148b E8A9EA12 		.ascii	"\350\251\352\022\015~\314pz\214\317\022\305\337,\355"
 952      0D7ECC70 
 952      7A8CCF12 
 952      C5DF2CED 
 953 149b B6B43619 		.ascii	"\266\2646\031\266#\022\310\210\034\344!\0059?\236\262"
 953      B62312C8 
 953      881CE421 
 953      05393F9E 
 953      B2
 954 14ac 43C0930C 		.ascii	"C\300\223\014\244\352\352O}\354%'\3144\374h+\265\241"
 954      A4EAEA4F 
 954      7DEC2527 
 954      CC34FC68 
 954      2BB5A1
 955 14bf B2CED9FE 		.ascii	"\262\316\331\376\033\276'4\311\2171\317\362\311[\307"
 955      1BBE2734 
ARM GAS  /tmp/ccQFqzWI.s 			page 76


 955      C98F31CF 
 955      F2C95BC7 
 956 14cf 8C3C31A6 		.ascii	"\214<1\246=\215\"\0150B\217$\032\217\3444F)\215\361"
 956      3D8D220D 
 956      30428F24 
 956      1A8FE434 
 956      46298DF1 
 957 14e3 99E841E5 		.ascii	"\231\350A\345\234\233\245\030/O\371xyJ\307\313\313/"
 957      9C9BA518 
 957      2F4FF978 
 957      794AC7CB 
 957      CB2F
 958 14f5 E31614F3 		.ascii	"\343\026\024\363\323\030\267\036\243\326M\333Z:\261"
 958      D318B71E 
 958      A3D64DDB 
 958      5A3AB1
 959 1504 C29A9C75 		.ascii	"\302\232\234u\313~F\303\255\307\251urf\376%~\374\360"
 959      CB7E46C3 
 959      ADC7A975 
 959      7266FE25 
 959      7EFCF0
 960 1517 2B72AA60 		.ascii	"+r\252`\032[e\177Nz&\316I\023\354\024!\177\270,U|\335"
 960      1A5B657F 
 960      4E7A26CE 
 960      4913EC14 
 960      217FB82C 
 961 152e 470E6E63 		.ascii	"G\016nc\237\236>\363\322\357\003'\2617_iO\321I\351\031"
 961      9F9E3EF3 
 961      D2EF0327 
 961      B1375F69 
 961      4FD149E9 
 962 1543 9B94A6E8 		.ascii	"\233\224\246\350\244T\332\231\363\300YA\026\312e\036"
 962      A454DA99 
 962      F3C05941 
 962      16CA651E 
 963 1553 A739D969 		.ascii	"\2479\331iJ\366rln\001'\373\0269\016\250\274pFc\237"
 963      4AF6726C 
 963      6E0127FB 
 963      16390EA8 
 963      BC704663 
 964 1568 ED7391ED 		.ascii	"\355s\221\355\014c\373\324\270}\033?\310\235&/'\257"
 964      0C63FBD4 
 964      B87D1B3F 
 964      C89D262F 
 964      27AF
 965 157a 6EC94B7A 		.ascii	"n\311Kzi\012\235\305,:\025\232\243l\2373\266s\224m{"
 965      690A9DC5 
 965      2C3A159A 
 965      A36C9F33 
 965      B673946D 
 966 158f D3F88072 		.ascii	"\323\370\200rR\234S\260\235\347l\347)\333\213\245\217"
 966      529C53B0 
 966      9DE76CE7 
 966      29DB8BA5 
 966      8F
 967 15a0 5630B2DE 		.ascii	"V0\262\336\240\345\215\354z\317>\327\005\221\353\013"
 967      A0E58DEC 
ARM GAS  /tmp/ccQFqzWI.s 			page 77


 967      7ACF3ED7 
 967      0591EB0B 
 968 15b0 C63563B8 		.ascii	"\3065c\270\256\232\037\374\274\011jK\362\303\035\210"
 968      AE9A1FFC 
 968      BC096A4B 
 968      F2C31D88 
 969 15c0 511F26D4 		.ascii	"Q\037&\324\223\252\313K_\372\011l\264\332\033\031\325"
 969      93AACB4B 
 969      5FFA096C 
 969      B4DA1B19 
 969      D5
 970 15d1 042D46ED 		.ascii	"\004-F\355%bR\005j\230b\243\377\252`\016\3052\377\261"
 970      25625205 
 970      6A9862A3 
 970      FFAA600E 
 970      C532FFB1 
 971 15e5 6AC61CBE 		.ascii	"j\306\034\276If\366\327v\271\333'\033\247\346d\033\330"
 971      4966F6D7 
 971      76B9DB27 
 971      1BA7E664 
 971      1BD8
 972 15f7 C9D7EE1D 		.ascii	"\311\327\356\035E\273\005F\226t\356\342\243g\362\371"
 972      45BB0546 
 972      9674EEE2 
 972      A367F2F9 
 973 1607 2BE724D2 		.ascii	"+\347$\322+.\346\375X-X\223\335\012d\267P\262\333(Y"
 973      2B2EE6FD 
 973      582D5893 
 973      DD0A64B7 
 973      50B2DB28 
 974 161c 8A4915D2 		.ascii	"\212I\025\322\316\255\211S\312\007\3626\005\333x\316"
 974      CEAD8953 
 974      CA07F236 
 974      05DB78CE 
 975 162c 967CAB83 		.ascii	"\226|\253\203B\002\243\234?\375\374\253\267\375\227"
 975      4202A39C 
 975      3FFDFCAB 
 975      B7FD97
 976 163b 2F57B96A 		.ascii	"/W\271j\265\233B#\014+Wh\015\341~!\221\341:\277\300"
 976      B59B4223 
 976      0C2B5768 
 976      0DE17E21 
 976      91E13ABF 
 977 1650 8840BF8F 		.ascii	"\210@\277\217#\2036\205\353\"\014z\277\240\220\320\215"
 977      23833685 
 977      EB220C7A 
 977      BFA090D0 
 977      8D
 978 1661 4B374645 		.ascii	"K7FE.\325\303\375o\203\202\226\006F\205/\215\210\214"
 978      2ED5C3FD 
 978      6F838296 
 978      0646852F 
 978      8D888C
 979 1674 D02DD505 		.ascii	"\320-\325\005n\010]\372;\355\007KW\274\277\374\237\277"
 979      6E085DFA 
 979      3BED074B 
 979      57BCBFFC 
ARM GAS  /tmp/ccQFqzWI.s 			page 78


 979      9FBF
 980 1686 5BE9A7B8 		.ascii	"[\351\247\270\341\027\032\021\024\266)X\347\027\036"
 980      E1171A11 
 980      14B62958 
 980      E7171E
 981 1695 0808113A 		.ascii	"\010\010\021:?m\260\356\233\300Ma\006\255\341\207\215"
 981      3F6DB0EE 
 981      9BC04D61 
 981      06ADE187 
 981      8D
 982 16a6 3AFDB210 		.ascii	":\375\262\020\225\263\350v\303?\302\255\376\007\275"
 982      95B3E876 
 982      C33FC2AD 
 982      FE07BD
 983 16b5 9F566F08 		.ascii	"\237Vo\010\006\037\340\313\035T\270\322Em\016\014\323"
 983      061FE0CB 
 983      1D54B8D2 
 983      456D0E0C 
 983      D3
 984 16c6 1ADE5EB6 		.ascii	"\032\336^\266\314\217\375E\352\375\242\014\226:A!\206"
 984      CC8FFD45 
 984      EAFDA20C 
 984      963A4121 
 984      86
 985 16d7 D0701D98 		.ascii	"\320p\035\230\2537\033\2026|`\2612\350\364\006b\247"
 985      AB371B82 
 985      367C60B1 
 985      32E8F406 
 985      62A7
 986 16e9 8FDC1415 		.ascii	"\217\334\024\025\244\023U-\371\326\352u\337m\322E\004"
 986      A413552D 
 986      F9D6EA75 
 986      DF6DD245 
 986      04
 987 16fa E9B4EFBF 		.ascii	"\351\264\357\277\277bY\220\352\015\261\034T\220\225"
 987      BF625990 
 987      EA0DB11C 
 987      549095
 988 1709 5ADDF7BA 		.ascii	"Z\335\367\272\240M\006\235U\371\007b\271sP\310\037\327"
 988      A04D069D 
 988      55F90762 
 988      B97350C8 
 988      1FD7
 989 171b AFD319D6 		.ascii	"\257\323\031\3268o6|\263)\"Hk\360\261K\016b\020s\247"
 989      386F367C 
 989      B3292248 
 989      6BF0B14B 
 989      0E621073 
 990 1730 26B60EC1 		.ascii	"&\266\016\301\2720C\240zc\224n\263:B\367\275\341\265"
 990      BA3043A0 
 990      7A63946E 
 990      B33A42F7 
 990      BDE1B5
 991 1743 A010EDE6 		.ascii	"\240\020\355\346\320(\303&\022#\004\022\2057\006Fy*"
 991      D028C326 
 991      12230412 
 991      85370646 
ARM GAS  /tmp/ccQFqzWI.s 			page 79


 991      792A
 992 1755 4A5E15BB 		.ascii	"J^\025\273>($\030\240\337\262k\260\231d\322*\220\025"
 992      3E282418 
 992      A0DFB26B 
 992      B09964D2 
 992      2A9015
 993 1768 62206F29 		.ascii	"b o)\313\227\213\345\313\200\203a\331\2127\354\334^"
 993      CB978BE5 
 993      CB808361 
 993      D98A37EC 
 993      DC5E
 994 177a 1414B2EE 		.ascii	"\024\024\262\356\007}\000\334\211\214\322\2553\004\032"
 994      077D00DC 
 994      898CD2AD 
 994      33041A
 995 1789 36E9BF76 		.ascii	"6\351\277v\206@\365\006\275\326\360{9\225\240\310\360"
 995      8640F506 
 995      BDD6F07B 
 995      3995A0C8 
 995      F0
 996 179a F0C808BF 		.ascii	"\360\310\010\277\215\221Q\320;V\005\254\365_\373=)\333"
 996      8D9151D0 
 996      3B5605AC 
 996      F55FFB3D 
 996      29DB
 997 17ac 181AA68B 		.ascii	"\030\032\246\213\322\373}\352\357O\232\217\247\347W"
 997      D2FB7DEA 
 997      EF4F9A8F 
 997      A7E757
 998 17bb AFCA21DC 		.ascii	"\257\312!\334\177\235z\375Tg`\036WE\004\177\026\031"
 998      7F9D7AFD 
 998      5467601E 
 998      5745047F 
 998      1619
 999 17cd F497AF   		.ascii	"\364\227\257"
 1000 17d0 5D49637C 		.ascii	"]Ic|\034I\232C\303.\201\030Q\030\365@\275^\027ep\320"
 1000      1C499A43 
 1000      C32E8118 
 1000      5118F540 
 1000      BD5E1765 
 1001 17e6 7E141919 		.ascii	"~\024\031\031\346\255\354\034a\241\033\000\234\232\001"
 1001      E6ADEC1C 
 1001      61A11B00 
 1001      9C9A01
 1002 17f5 3CE0AC0F 		.ascii	"<\340\254\017\011^\027\246\323m\374\215\375\256\026"
 1002      095E17A6 
 1002      D36DFC8D 
 1002      FDAE16
 1003 1804 12A50B0C 		.ascii	"\022\245\013\014&l\026S6k\240{~\033\025j\370\301?D\027"
 1003      266C1653 
 1003      366BA07B 
 1003      7E1B156A 
 1003      F8C13F44 
 1004 1819 F497352E 		.ascii	"\364\2275.\254w\031t\033\027\333\352j\352\210\300p\235"
 1004      AC771974 
 1004      1B17DBEA 
 1004      6AEA88C0 
ARM GAS  /tmp/ccQFqzWI.s 			page 80


 1004      709D
 1005 182b 4350A05E 		.ascii	"CP\240^\247w6\350\002\243\202#\377\032\341\000\\7mt"
 1005      A77736E8 
 1005      02A38223 
 1005      FF1AE100 
 1005      5C376D74 
 1006 183f E2997525 		.ascii	"\342\231u%u\210\201\326\340A.-\265\015\277\264\005\250"
 1006      758881D6 
 1006      E0412E2D 
 1006      B50DBFB4 
 1006      05A8
 1007 1851 0D8C8A0A 		.ascii	"\015\214\212\012\374\301\323\252\231\254\364\025V\372"
 1007      FCC1D3AA 
 1007      99ACF415 
 1007      56FA
 1008 185f 4A2BFD03 		.ascii	"J+\375\003\015\015e\335&\375F]D\260\206\264\225V\317"
 1008      0D0D65DD 
 1008      26FD465D 
 1008      44B086B4 
 1008      9556CF
 1009 1872 94A57FB7 		.ascii	"\224\245\177\267-C\202\240\013h7\377K8\031\257Z g\320"
 1009      2D4382A0 
 1009      0B6837FF 
 1009      4B3819AF 
 1009      5A2067D0 
 1010 1886 7EB46ADD 		.ascii	"~\264j\335'_\006\254q\017\014\373k\340\017zmhD\030\314"
 1010      275F06AC 
 1010      710F0CFB 
 1010      6BE00F7A 
 1010      6D684418 
 1011 189b 24FF6A03 		.ascii	"$\377j\003\011z?\301\361\363_\273n\315:?\177\000\362"
 1011      097A3FC1 
 1011      F1F35FBB 
 1011      6ECD3A3F 
 1011      7F00F2
 1012 18ae 5B23663A 		.ascii	"[#f:\\\037\252\327\302\014\002\260\032\255V\027\021"
 1012      5C1FAAD7 
 1012      C20C02B0 
 1012      1AAD5617 
 1012      11
 1013 18bf B8214CA7 		.ascii	"\270!L\247\015\215\372\216q\3758TO\012\030\327`\246"
 1013      0D8DFA8E 
 1013      71FD3854 
 1013      4F0A18D7 
 1013      60A6
 1014 18d1 80777E45 		.ascii	"\200w~E\354\334\250\335'\264\236\0335c\030.d<\302\240"
 1014      ECDCA8DD 
 1014      27B49E1B 
 1014      3563182E 
 1014      643CC2A0 
 1015 18e5 D21A1CFC 		.ascii	"\322\032\034\374\375\327\006\254\024\276\010P\177\274"
 1015      FDD706AC 
 1015      14BE0850 
 1015      7FBC
 1016 18f3 765500FE 		.ascii	"vU\000\376\330?@\375\321\307\353\003\260\277\177\000"
 1016      D83F40FD 
 1016      D1C7EB03 
ARM GAS  /tmp/ccQFqzWI.s 			page 81


 1016      B0BF7F00 
 1017 1903 0E005915 		.ascii	"\016\000Y\025\020\200\277\\\347\217\375?_\257\366\367"
 1017      1080BF5C 
 1017      E78FFD3F 
 1017      5FAFF6F7 
 1018 1913 FF2480DA 		.ascii	"\377$\200\332\257\240\377\227\343O>\015\020\326A\315"
 1018      AFA0FF97 
 1018      E34F3E0D 
 1018      10D641CD 
 1019 1923 359F04A8 		.ascii	"5\237\004\250\327\255\005k\377\200\025 \313\301\362"
 1019      D7AD056B 
 1019      FF801520 
 1019      CBC1F2
 1020 1932 EB8015F2 		.ascii	"\353\200\025\362XC\002\303x\312\326\255_\273r\205\337"
 1020      584302C3 
 1020      78CAD6AD 
 1020      5FBB7285 
 1020      DF
 1021 1943 679F7DEC 		.ascii	"g\237}\354\267~\315\332\315\313\375`\216$\023i(I\235"
 1021      B77ECDDA 
 1021      CDCBFD60 
 1021      8E241369 
 1021      28499D
 1022 1956 9B45D11A 		.ascii	"\233E\321\032\274H/&\335\034\230\352\302\327\003\331"
 1022      BC482F26 
 1022      DD1C98EA 
 1022      C2D703D9 
 1023 1966 AF17D108 		.ascii	"\257\027\321\010\330d\360\255\216]\371\375\314\266\241"
 1023      D864F0AD 
 1023      8E5DF9FD 
 1023      CCB6A1
 1024 1975 B5C08517 		.ascii	"\265\300\205\0274xXX0\255\037\024\271\211\314\253+\177"
 1024      34785858 
 1024      30AD1F14 
 1024      B989CCAB 
 1024      2B7F
 1025 1987 1E51B8A3 		.ascii	"\036Q\270\243e\225\001\3465\232X2\362\376\020\025\031"
 1025      659501E6 
 1025      359A5832 
 1025      F2FE1015 
 1025      19
 1026 1998 BE665D80 		.ascii	"\276f]\200\027\345\026\006\005\332o\240D\033\252\217"
 1026      17E51606 
 1026      05DA6FA0 
 1026      441BAA8F 
 1027 19a8 72B11479 		.ascii	"r\261\024yQ\353\257\"\302$\373\305\364\346\246\010E"
 1027      51EBAF22 
 1027      C224FBC5 
 1027      F4E6A608 
 1027      45
 1028 19b9 0D375921 		.ascii	"\0157Y!\035\320l\014\273X\234\271\311\200^\347\327A"
 1028      1DD06C0C 
 1028      BB589CB9 
 1028      C9805EE7 
 1028      D741
 1029 19cb 9111C1A1 		.ascii	"\221\021\301\241\206\320\310\210\3000b\302\222D\302"
 1029      86D0C888 
ARM GAS  /tmp/ccQFqzWI.s 			page 82


 1029      C03062C2 
 1029      9244C2
 1030 19da 83F607C2 		.ascii	"\203\366\007\302d\222\200N\361\255\324%\227\274\\\221"
 1030      6492804E 
 1030      F1ADD425 
 1030      97BC5C91 
 1031 19ea 217A1097 		.ascii	"!z\020\227_l\370/]\220aMD\250\301\211\317\357n\344{"
 1031      5F6CF82F 
 1031      5D90614D 
 1031      44A8C189 
 1031      CFEF6EE4 
 1032 19ff 8D7E5554 		.ascii	"\215~UT\270.\370\177\001\357kT\333"
 1032      B82EF87F 
 1032      01EF6B54 
 1032      DB
 1033              		.text
 1034              		.section	.gnu.lto_.symtab.b7cd81840c4257b8,"",%progbits
 1035 0000 72745F74 		.ascii	"rt_test_sequence_002\000"
 1035      6573745F 
 1035      73657175 
 1035      656E6365 
 1035      5F303032 
 1036 0015 00       		.ascii	"\000"
 1037 0016 00       		.ascii	"\000"
 1038 0017 00       		.ascii	"\000"
 1039 0018 00000000 		.ascii	"\000\000\000\000\000\000\000\000"
 1039      00000000 
 1040 0020 47010000 		.ascii	"G\001\000\000"
 1041 0024 72745F74 		.ascii	"rt_test_sequence_002_array\000"
 1041      6573745F 
 1041      73657175 
 1041      656E6365 
 1041      5F303032 
 1042 003f 00       		.ascii	"\000"
 1043 0040 00       		.ascii	"\000"
 1044 0041 00       		.ascii	"\000"
 1045 0042 00000000 		.ascii	"\000\000\000\000\000\000\000\000"
 1045      00000000 
 1046 004a 4C010000 		.ascii	"L\001\000\000"
 1047 004e 74657374 		.ascii	"test_step\000"
 1047      5F737465 
 1047      7000
 1048 0058 00       		.ascii	"\000"
 1049 0059 02       		.ascii	"\002"
 1050 005a 00       		.ascii	"\000"
 1051 005b 00000000 		.ascii	"\000\000\000\000\000\000\000\000"
 1051      00000000 
 1052 0063 28010000 		.ascii	"(\001\000\000"
 1053 0067 63685379 		.ascii	"chSysRestoreStatusX\000"
 1053      73526573 
 1053      746F7265 
 1053      53746174 
 1053      75735800 
 1054 007b 00       		.ascii	"\000"
 1055 007c 02       		.ascii	"\002"
 1056 007d 00       		.ascii	"\000"
 1057 007e 00000000 		.ascii	"\000\000\000\000\000\000\000\000"
ARM GAS  /tmp/ccQFqzWI.s 			page 83


 1057      00000000 
 1058 0086 09010000 		.ascii	"\011\001\000\000"
 1059 008a 63685379 		.ascii	"chSysGetStatusAndLockX\000"
 1059      73476574 
 1059      53746174 
 1059      7573416E 
 1059      644C6F63 
 1060 00a1 00       		.ascii	"\000"
 1061 00a2 02       		.ascii	"\002"
 1062 00a3 00       		.ascii	"\000"
 1063 00a4 00000000 		.ascii	"\000\000\000\000\000\000\000\000"
 1063      00000000 
 1064 00ac 0C010000 		.ascii	"\014\001\000\000"
 1065 00b0 63685654 		.ascii	"chVTDoSetI\000"
 1065      446F5365 
 1065      744900
 1066 00bb 00       		.ascii	"\000"
 1067 00bc 02       		.ascii	"\002"
 1068 00bd 00       		.ascii	"\000"
 1069 00be 00000000 		.ascii	"\000\000\000\000\000\000\000\000"
 1069      00000000 
 1070 00c6 0E010000 		.ascii	"\016\001\000\000"
 1071 00ca 63685654 		.ascii	"chVTDoResetI\000"
 1071      446F5265 
 1071      73657449 
 1071      00
 1072 00d7 00       		.ascii	"\000"
 1073 00d8 02       		.ascii	"\002"
 1074 00d9 00       		.ascii	"\000"
 1075 00da 00000000 		.ascii	"\000\000\000\000\000\000\000\000"
 1075      00000000 
 1076 00e2 12010000 		.ascii	"\022\001\000\000"
 1077 00e6 5F746573 		.ascii	"_test_assert\000"
 1077      745F6173 
 1077      73657274 
 1077      00
 1078 00f3 00       		.ascii	"\000"
 1079 00f4 02       		.ascii	"\002"
 1080 00f5 00       		.ascii	"\000"
 1081 00f6 00000000 		.ascii	"\000\000\000\000\000\000\000\000"
 1081      00000000 
 1082 00fe 1E010000 		.ascii	"\036\001\000\000"
 1083 0102 63685468 		.ascii	"chThdSleep\000"
 1083      64536C65 
 1083      657000
 1084 010d 00       		.ascii	"\000"
 1085 010e 02       		.ascii	"\002"
 1086 010f 00       		.ascii	"\000"
 1087 0110 00000000 		.ascii	"\000\000\000\000\000\000\000\000"
 1087      00000000 
 1088 0118 22010000 		.ascii	"\"\001\000\000"
 1089 011c 63685379 		.ascii	"chSysIntegrityCheckI\000"
 1089      73496E74 
 1089      65677269 
 1089      74794368 
 1089      65636B49 
 1090 0131 00       		.ascii	"\000"
ARM GAS  /tmp/ccQFqzWI.s 			page 84


 1091 0132 02       		.ascii	"\002"
 1092 0133 00       		.ascii	"\000"
 1093 0134 00000000 		.ascii	"\000\000\000\000\000\000\000\000"
 1093      00000000 
 1094 013c 26010000 		.ascii	"&\001\000\000"
 1095              		.text
 1096              		.section	.gnu.lto_.opts,"",%progbits
 1097 0000 272D666D 		.ascii	"'-fmath-errno' '-fsigned-zeros' '-ftrapping-math' '"
 1097      6174682D 
 1097      6572726E 
 1097      6F272027 
 1097      2D667369 
 1098 0033 2D666E6F 		.ascii	"-fno-trapv' '-fno-openmp' '-fno-openacc' '-mcpu=cor"
 1098      2D747261 
 1098      70762720 
 1098      272D666E 
 1098      6F2D6F70 
 1099 0066 7465782D 		.ascii	"tex-m4' '-mthumb' '-ggdb' '-O2' '-fomit-frame-point"
 1099      6D342720 
 1099      272D6D74 
 1099      68756D62 
 1099      2720272D 
 1100 0099 65722720 		.ascii	"er' '-falign-functions=16' '-ffunction-sections' '-"
 1100      272D6661 
 1100      6C69676E 
 1100      2D66756E 
 1100      6374696F 
 1101 00cc 66646174 		.ascii	"fdata-sections' '-fno-common' '-flto'\000"
 1101      612D7365 
 1101      6374696F 
 1101      6E732720 
 1101      272D666E 
 1102              		.text
 1103              		.comm	__gnu_lto_v1,1,1
 1104              		.comm	__gnu_lto_slim,1,1
 1105              		.ident	"GCC: (GNU Tools for ARM Embedded Processors) 5.4.1 20160919 (release) [ARM/embedded-5-bran
ARM GAS  /tmp/ccQFqzWI.s 			page 85


DEFINED SYMBOLS
                            *ABS*:00000000 rt_test_sequence_002.c
                            *COM*:00000001 __gnu_lto_v1
                            *COM*:00000001 __gnu_lto_slim

NO UNDEFINED SYMBOLS
