ARM GAS  /tmp/cclTcGoe.s 			page 1


   1              		.cpu cortex-m4
   2              		.eabi_attribute 20, 1
   3              		.eabi_attribute 21, 1
   4              		.eabi_attribute 23, 3
   5              		.eabi_attribute 24, 1
   6              		.eabi_attribute 25, 1
   7              		.eabi_attribute 26, 1
   8              		.eabi_attribute 30, 2
   9              		.eabi_attribute 34, 1
  10              		.eabi_attribute 18, 4
  11              		.file	"chfactory.c"
  12              		.text
  13              	.Ltext0:
  14              		.section	.gnu.lto_.profile.c5db887e79e5134d,"",%progbits
  15 0000 789C6365 		.ascii	"x\234ce`b`c```d\370\305\321\313\014\000\005\313\001"
  15      60626063 
  15      60606064 
  15      F8C5D1CB 
  15      0C0005CB 
  16 0015 A1       		.ascii	"\241"
  17              		.text
  18              		.section	.gnu.lto_.icf.c5db887e79e5134d,"",%progbits
  19 0000 789C6365 		.ascii	"x\234ce`b\330\304\200\000r\014\017\177n\374\305\303"
  19      6062D8C4 
  19      8000720C 
  19      0F7F6EFC 
  19      C5C3
  20 0012 B8ED46F7 		.ascii	"\270\355F\367\027\016\246\351\235=\347\370\230\327\177"
  20      170EA6E9 
  20      9D3DE7F8 
  20      98D77F
  21 0021 EF5DC6C8 		.ascii	"\357]\306\310\322{\350\3522~\326kG\317~af{t\342[3\013"
  21      D27BE8EA 
  21      327ED66B 
  21      47CF7E61 
  21      667B74E2 
  22 0038 FBCA65A7 		.ascii	"\373\312e\247[\2708\266\336\350p\342|\267ec>\327\351"
  22      5BB838B6 
  22      DEE870E2 
  22      7CB76563 
  22      3ED7E9
  23 004b 6BF7CFB2 		.ascii	"k\367\317\262q/\330\266\3531;\317\335-G\226r\363\036"
  23      712FD8B6 
  23      EB313BCF 
  23      DD2D4796 
  23      72F31E
  24 005e DC59CAF7 		.ascii	"\334Y\312\367\354\364\275\363,\374\377\257\337\273\314"
  24      ECF4BDF3 
  24      2CFCFFAF 
  24      DFBBCC
  25 006d 26001615 		.ascii	"&\000\026\025\334z\343\310\031F\241\276\373\337\016"
  25      DC7AE3C8 
  25      1946A1BE 
  25      FBDF0E
  26 007c 730A8345 		.ascii	"s\012\203ED\300jD\337\036\331q\232[\014,\"\016V#\261"
  26      44C06A44 
  26      DF1ED971 
ARM GAS  /tmp/cclTcGoe.s 			page 2


  26      9A5B0C2C 
  26      220E5623 
  27 0091 76EEE679 		.ascii	"v\356\346y\334\222`\021)\260\210\364\272S+_\361\311"
  27      DC926011 
  27      29B088F4 
  27      BA532B5F 
  27      F1C9
  28 00a3 804564C1 		.ascii	"\200Ed\301\"\014\000\231\207]\003"
  28      220C0099 
  28      875D03
  29              		.text
  30              		.section	.gnu.lto_.jmpfuncs.c5db887e79e5134d,"",%progbits
  31 0000 789C9597 		.ascii	"x\234\225\227gS\024A\020\206\267g\367\002e@\024\363"
  31      67531441 
  31      1086B767 
  31      F7026540 
  31      14F3
  32 0012 F107ACB2 		.ascii	"\361\007\254\262\254\362\007\350\007\177\025\237\026"
  32      ACF207E8 
  32      077F159F 
  32      16
  33 001f B3A2A2A0 		.ascii	"\263\242\242\240\202(p*\230\003\250\240\"\346,\006\304"
  33      8228702A 
  33      9803A8A0 
  33      22E62C06 
  33      C4
  34 0030 8459C4AC 		.ascii	"\204Y\304\254`\216\210a\346\355\345\224b\216\335\276"
  34      608E8861 
  34      E6EDE594 
  34      628EDDBE 
  35 0040 0F5B75B3 		.ascii	"\017[u\263\375t\277\335\367\316\354m\314Q\316\214<'"
  35      FD74BFDD 
  35      F7CEEC6D 
  35      CC51CE8C 
  35      3C27
  36 0052 F3297014 		.ascii	"\363)p\024\221K\024W\205\346\253*$}\245\012\227\352"
  36      914B1457 
  36      85E6AB2A 
  36      247DA50A 
  36      97EA
  37 0064 BB9B7F8C 		.ascii	"\273\233\177\214(q\323\256C\016m\241\224^E\244\037G"
  37      2871D3AE 
  37      430E6DA1 
  37      945E45A4 
  37      1F47
  38 0076 985E4558 		.ascii	"\230^EXqoGI\322\204\021%i\253\011Sq\302g\246o\000\212"
  38      716F4749 
  38      D2841125 
  38      69AB0953 
  38      71C267A6 
  39 008d BB9DC499 		.ascii	"\273\235\304\231c\270*}\215\273\016/y\003\226\250\277"
  39      63B82A7D 
  39      8DBB0E2F 
  39      790396A8 
  39      BF
  40 009e BE2A3401 		.ascii	"\276*4\001\256\316I\011\322it\210^\016\012\033}\\\311"
  40      AECE4909 
ARM GAS  /tmp/cclTcGoe.s 			page 3


  40      D2697488 
  40      5E0E0A1B 
  40      7D5CC9
  41 00b1 4380F221 		.ascii	"C\200\362!\236a\\\377\013\246Lp\014\301\276O\036\027"
  41      9E615CFF 
  41      0BA64C70 
  41      0CC1BE4F 
  41      1E17
  42 00c3 44CDA040 		.ascii	"D\315\240@\334tR>\377d[\302t\242q\332\246\021J\006\332"
  42      DC74523E 
  42      FF645BC2 
  42      74A271DA 
  42      A6114A06 
  43 00d8 CCDDB52D 		.ascii	"\314\335\265-\237[c<\216$m7\011\007\311Id\223\343X\344"
  43      9F5B633C 
  43      8E246D37 
  43      0907C949 
  43      6493E358 
  44 00ed 24CD307D 		.ascii	"$\3150}\337\334\313\321\337L\211\216\331\035]4mj\332"
  44      DFDCCBD1 
  44      DF4C898E 
  44      D91D5D34 
  44      6D6ADA
  45 0100 756B5D67 		.ascii	"uk]g\015F\244Wk\312\352\212r\375_E\311\264\353\321\016"
  45      0D46A457 
  45      6BCAEA8A 
  45      72FD5F45 
  45      C9B4EBD1 
  46 0115 9AA633EC 		.ascii	"\232\2463\354$_\321\361?\301g\000\032\003J\203\3208"
  46      245FD1F1 
  46      3FC16700 
  46      1A034A83 
  46      D038
  47 0127 ED02BA9B 		.ascii	"\355\002\272\233\374\316!@e\001\353\0016\3501y\230\304"
  47      FCCE2140 
  47      6501EB01 
  47      36E83179 
  47      98C4
  48 0139 C1233DD3 		.ascii	"\301#=\323y\020)\332\003_\350\305\366y\015U.\257z\264"
  48      791029DA 
  48      035FE8C5 
  48      F6790D55 
  48      2EAF7AB4 
  49 014d B77FB5B9 		.ascii	"\267\177\265\271\271\373^\202\363$*MC\264\217|{\267"
  49      B9FB5E82 
  49      F3242A4D 
  49      43B48F7C 
  49      7BB7
  50 015f AEA5DB46 		.ascii	"\256\245\333FTn\322\225i(\321\236E\364~\240\0072\242"
  50      546ED295 
  50      6928D19E 
  50      45F47EA0 
  50      0732A2
  51 0172 3FF4551F 		.ascii	"?\364U\037\310a}\371t\020\372\206\222\331ld\252\001"
  51      C8617DF9 
  51      7410FA86 
  51      92D96C64 
ARM GAS  /tmp/cclTcGoe.s 			page 4


  51      AA01
  52 0184 B592A815 		.ascii	"\265\222\250\025\033T+\207\016\241V\213Ft\261a\274I"
  52      1B542B87 
  52      0EA1568B 
  52      4674B161 
  52      BC49
  53 0196 A2B287C1 		.ascii	"\242\262\207\301\036a6\330\203\021[<\012\364\030\243"
  53      1E6136D8 
  53      83115B3C 
  53      0AF418A3 
  54 01a6 11277A1C 		.ascii	"\021'z\034\314\011f\242j<\011\350\024C\303\315\326\216"
  54      CC0966A2 
  54      6A3C09E8 
  54      1443C3CD 
  54      D68E
  55 01b8 4A9E0679 		.ascii	"J\236\006y\206IO\324\335Y\240\347dJ\317\003\272\300"
  55      86494FD4 
  55      DD59A0E7 
  55      644ACF03 
  55      BAC0
  56 01ca D0082D34 		.ascii	"\320\010-4\362\357\320\012\362\242\254\334%@\227e\320"
  56      F2EFD00A 
  56      F2A2ACDC 
  56      25409765 
  56      D0
  57 01db 15406D0C 		.ascii	"\025@m\014\215\224h\274\012\262=\360\012\037\241\021"
  57      8D9468BC 
  57      0AB23DF0 
  57      0A1FA111 
  58 01eb A7790DE8 		.ascii	"\247y\015\350u\221Wn\200\271)\353\356\026\240\016\206"
  58      7591576E 
  58      80B929EB 
  58      EE16A00E 
  58      86
  59 01fc 72B11754 		.ascii	"r\261\027TT\3666\330;A\1778W\247\244\372\037\011\331"
  59      54F636D8 
  59      3B417F38 
  59      57A7A4FA 
  59      1F09D9
  60 020f F786EDB0 		.ascii	"\367\206\355\260\273\213T\367\002\355\374L\211\250\342"
  60      BB8B54F7 
  60      02EDFC4C 
  60      89A8E2
  61 021e 3ED0078C 		.ascii	">\320\007\214\216\222\270\375!\310Gan\267\351\355\004"
  61      8E92B8FD 
  61      21C84761 
  61      6EB7E9ED 
  61      04
  62 022f FA5836EB 		.ascii	"\372X6\353.@O\030\312\2238\351)\310g\201\322\254N\262"
  62      2E404F18 
  62      CA9338E9 
  62      29C86781 
  62      D2AC4EB2 
  63 0243 297D0EF4 		.ascii	")}\016\364\205L\351K@\257\030\032\315\1778\242\262\257"
  63      854CE94B 
  63      40AF181A 
  63      CD7F38A2 
ARM GAS  /tmp/cclTcGoe.s 			page 5


  63      B2AF
  64 0255 C1BE09B4 		.ascii	"\301\276\011\264:\341~\260=\303\272\221\244'\253\377"
  64      3AE17EB0 
  64      3DC3BA91 
  64      A427ABFF 
  65 0265 6DCFDAB7 		.ascii	"m\317\332\267`\336\311:}\017\350\003Cc$\356\371\010"
  65      60DEC93A 
  65      7D0FE803 
  65      436324EE 
  65      F908
  66 0277 F253987B 		.ascii	"\362S\230{l\335}\006\372E\246\364+\240o\014\345K\334"
  66      6CDD7D06 
  66      FA45A6F4 
  66      2BA06F0C 
  66      E54BDC
  67 028a F31DE48F 		.ascii	"\363\035\344\217\260s\310\246\264\027\350O\321\357\320"
  67      B073C8A6 
  67      B417E84F 
  67      D1EFD0
  68 0299 07E697AC 		.ascii	"\007\346\227\254\273\337\200\37604V\366L.R\206\235\255"
  68      BBDF80FE 
  68      303456F6 
  68      4C2E5286 
  68      9DAD
  69 02ab 32E75004 		.ascii	"2\347P\004\323\305-\315\316A\236\271\234Gp\002\315\003"
  69      D3C52DCD 
  69      CE419EB9 
  69      9C477002 
  69      CD03
  70 02bd 379FB971 		.ascii	"7\237\271q\022\017-\000\271P\205x\310&v\021\320\305"
  70      120F2D00 
  70      B9508578 
  70      C8267611 
  70      D0C5
  71 02cf 4A34E562 		.ascii	"J4\345b@K\030\032/\361\320R\220\313T\310\011dSZ\002"
  71      404B181A 
  71      2FF1D052 
  71      90CB54C8 
  71      0964535A 
  72 02e4 74B94CE9 		.ascii	"t\271L\351\012@\245\014M\360\314Ps\311\367#O\266\014"
  72      0A40A50C 
  72      4DF0CC50 
  72      73C9F723 
  72      4FB60C
  73 02f7 FC4AE687 		.ascii	"\374J\346\207;\377^TT\346u%x\247\310:\365\204\245\227"
  73      3BFF5E54 
  73      54E67525 
  73      78A7C83A 
  73      F584A597 
  74 030b 5548BB5A 		.ascii	"UH\273Zl\221rp\025\314M\224Xd\015\310\3120\213\330\304"
  74      6C917270 
  74      15CC4D94 
  74      58640DC8 
  74      CA308BD8 
  75 0320 AE05BA4E 		.ascii	"\256\005\272N6\370*@\325\014M\222X\244\006d:\314\"6"
  75      36F82A40 
  75      D50C4D92 
ARM GAS  /tmp/cclTcGoe.s 			page 6


  75      58A40664 
  75      3ACC2236 
  76 0334 A5EB816E 		.ascii	"\245\353\201n\220)\335\010\250\226\241\311\262#\243"
  76      9029DD08 
  76      A896A1C9 
  76      B223A3
  77 0343 0EEC26D1 		.ascii	"\016\354&\321\221\221\264\010\337\214<[\002\341\263"
  77      9191B408 
  77      DF8C3C5B 
  77      02E1B3
  78 0352 F4ED392D 		.ascii	"\364\3559-wJs\371\305\245\323\241\255*E\321]\262\015"
  78      774A73F9 
  78      C5A5D3A1 
  78      AD2A45D1 
  78      5DB20D
  79 0365 D9B673B6 		.ascii	"\331\266s\266\224\304%;@\356\014s\211\255\205]@w\313"
  79      94C4253B 
  79      40EE0C73 
  79      89AD855D 
  79      4077CB
  80 0378 665F0FA8 		.ascii	"f_\017\250\201\241\002\211K\366\200\334\033\346\022"
  80      81A10289 
  80      4BF680DC 
  80      1BE612
  81 0387 9BD27D40 		.ascii	"\233\322}@\033eJ\233\000\355\017v\354_\206q!\236"
  81      1B654A9B 
  81      00ED0F76 
  81      EC5F8671 
  81      219E
  82              		.text
  83              		.section	.gnu.lto_.inline.c5db887e79e5134d,"",%progbits
  84 0000 789C9D92 		.ascii	"x\234\235\222\273N\303@\020E\357\256\327\017\210\023"
  84      BB4EC340 
  84      1045EFAE 
  84      D70F8813 
  85 0010 3BB10304 		.ascii	";\261\003\004\210\202\"QP\020\304\243\200\206\037@\362"
  85      88822251 
  85      5010C4A3 
  85      80861F40 
  85      F2
  86 0021 1FF04F2E 		.ascii	"\037\360O.h\240\012\022\005u>\000QAK\205\204DAI\007"
  86      68A00A12 
  86      05753E00 
  86      51414B85 
  86      84444149 
  87 0036 1D0D05B3 		.ascii	"\035\015\005\263^{c;\026\330\270\330\347\235\231\343"
  87      5E7B633B 
  87      16D8B8D8 
  87      E79D99E3 
  88 0046 3B6B82E3 		.ascii	";k\202\343\330\204\376\206\200\3433:\004\254\351HN0"
  88      D884FE86 
  88      80E3333A 
  88      04ACE948 
  88      4E30
  89 0058 3B801147 		.ascii	";\200\021Gq\004\206\340\231\321\267\305`@\204w\327\266"
  89      710486E0 
  89      99D1B7C5 
ARM GAS  /tmp/cclTcGoe.s 			page 7


  89      60408477 
  89      D7B6
  90 006a 12B1775B 		.ascii	"\022\261w[\250Q\351\231\324_\332\224\305\333a\014$/"
  90      A851E999 
  90      D45FDA94 
  90      C5DB610C 
  90      242F
  91 007c 2414ED34 		.ascii	"$\024\3554a\034U/\015\370\024\303\227\277\317\340\\"
  91      611C552F 
  91      0DF814C3 
  91      97BFCFE0 
  91      5C
  92 008d 4C9218C3 		.ascii	"L\222\030\303\005XN\004\201\376\313\234\2453\373\262"
  92      05584E04 
  92      81FECB9C 
  92      A533FBB2 
  93 009d AA5974D2 		.ascii	"\252Yt\3229\226\211\366#\024\027\205\272\263\017\035"
  93      399689F6 
  93      23141785 
  93      BAB30F1D 
  94 00ad 6A083566 		.ascii	"j\0105f\025\271\014\264\320\033\227h\222\264\220\024"
  94      15B90CB4 
  94      D01B9768 
  94      92B49014 
  95 00bd 9AC7FE3F 		.ascii	"\232\307\376?\217\003\367\341o\036\336J\034XB\177\217"
  95      8F03F7E1 
  95      6F1EDE4A 
  95      1C58427F 
  95      8F
  96 00ce 68DCB7F3 		.ascii	"h\334\267\363B\203Da\221h\321\222\366\203[7\273Z\252"
  96      42834461 
  96      9168D192 
  96      F6835B37 
  96      BB5AAA
  97 00e1 2E528A6C 		.ascii	".R\212l\353\242\265]l\271:\227?G\016\244\2736\202W\232"
  97      EBA2B55D 
  97      6CB93A97 
  97      3F470EA4 
  97      BB368257 
  98 00f6 787875EB 		.ascii	"xxu\353\224\204\371\261\003\177\234\365\334\271?\205"
  98      9484F9B1 
  98      037F9CF5 
  98      DCB93F85 
  99 0106 F33929A5 		.ascii	"\3639)\245\314U\366\320;\240@1\035U\224\226:iS\266R"
  99      CC55F6D0 
  99      3BA04031 
  99      1D559496 
  99      3A6953B6 
 100 011b 377E2DD8 		.ascii	"7~-\330.\274_(\322\326\246\273\036\272\373\225\020\372"
 100      2EBC5F28 
 100      D2D6A6BB 
 100      1EBAFB95 
 100      10FA
 101 012d 0594FC0A 		.ascii	"\005\224\374\012j!\204M\214\350#<R\217\007\206\006\241"
 101      6A21844D 
 101      8CE8233C 
 101      528F0786 
ARM GAS  /tmp/cclTcGoe.s 			page 8


 101      06A1
 102 013f 855888C8 		.ascii	"\205X\210\310\363d\236\254\324\002Zm\340\311\032\006"
 102      F3649EAC 
 102      D4025A6D 
 102      E0C91A06 
 103 014f 278C73A9 		.ascii	"'\214s\251M\240D\021\212\006w\036j\373TX\221U\363\015"
 103      4DA04411 
 103      8A06771E 
 103      6AFB5458 
 103      9155F30D 
 104 0163 6AF1AD37 		.ascii	"j\361\2557\340\333@p\270\340\027\177\362\352\371\265"
 104      E0DB4070 
 104      B8E0177F 
 104      F2EAF9B5 
 105 0173 598B67D8 		.ascii	"Y\213g\330\200\007?m%\216B"
 105      80073F6D 
 105      258E42
 106              		.text
 107              		.section	.gnu.lto_.pureconst.c5db887e79e5134d,"",%progbits
 108 0000 789C05C1 		.ascii	"x\234\005\301\207\021\2000\000\0031SB9z7\017\031$\307"
 108      87118030 
 108      00033153 
 108      42397A37 
 108      0F1924C7 
 109 0014 FE7B2105 		.ascii	"\376{!\005\345\372$E9#wA\231\002\025ujh\351\350=02y"
 109      E5FA2445 
 109      39237741 
 109      99021575 
 109      6A68E9E8 
 110 002c F6C2EACD 		.ascii	"\366\302\352\315;\207O_\330\267\341\361\353\310\017"
 110      3B874F5F 
 110      D8B7E1F1 
 110      EBC80F
 111 003b 96A8051F 		.ascii	"\226\250\005\037"
 112              		.text
 113              		.section	.gnu.lto_chCoreAllocAlignedI.c5db887e79e5134d,"",%progbits
 114 0000 789C5D50 		.ascii	"x\234]PM/CQ\020\235\363\346\275*\322\256\205.,D\323"
 114      4D2F4351 
 114      109DF3E6 
 114      BD2AD2AE 
 114      852E2C44 
 115 0015 CDEBC22F 		.ascii	"\315\353\302/\242\032^\264$\304\306\346\335\226\220"
 115      A21A5EB4 
 115      24C4C6E6 
 115      DD9690
 116 0024 90608186 		.ascii	"\220`\201\206\250\207\204\372\252b\327\205\350\302N"
 116      A88784FA 
 116      AA62D785 
 116      E8C24E
 117 0033 08121B36 		.ascii	"\010\022\0336\302B|-$6\342snu!\222\271\2713\367\236"
 117      C2427C2D 
 117      2436E273 
 117      6E752192 
 117      B9B933F7 
 118 0048 7366CE58 		.ascii	"sf\316XdP\027\210Z\210\250A\016\230`L\236\020\245\374"
 118      64501788 
 118      5A88A841 
ARM GAS  /tmp/cclTcGoe.s 			page 9


 118      0E98604C 
 118      9E10A5FC 
 119 005c 06A013E5 		.ascii	"\006\240\023\345\007\271\006\\Lp\206q6\2643\317\343"
 119      07B9065C 
 119      4C708671 
 119      36B433CF 
 119      E3
 120 006d EC09CC94 		.ascii	"\354\011\314\224\362\345x\3566\250K\240Q\377>\334\015"
 120      F2E578EE 
 120      36A84BA0 
 120      51FF3EDC 
 120      0D
 121 007e D546724A 		.ascii	"\325FrJ\245U)\263P\223\337;U\325\036\0334+\3605\204"
 121      A55529B3 
 121      5093DF3B 
 121      55D51E1B 
 121      342BF035 
 122 0093 904348F7 		.ascii	"\220CH\367XGD\300\313\251\213\243\000G@\222\217\344"
 122      584744C0 
 122      CBA98BA3 
 122      00474092 
 122      8FE4
 123 00a5 F7EF83E1 		.ascii	"\367\357\203\341\2252\361p\206U\223\307\214\015\360"
 123      9532F170 
 123      865593C7 
 123      8C0DF0
 124 00b4 5FA23C11 		.ascii	"_\242<\0216\021\026\370\344\373\347u\025\333e\352\340"
 124      361116F8 
 124      E4FBE775 
 124      15DB65EA 
 124      E0
 125 00c5 D2E58159 		.ascii	"\322\345\201Y\241~d\312T\023[\377\251&!\217\260\306"
 125      A17E64CA 
 125      54135BFF 
 125      A926218F 
 125      B0C6
 126 00d7 DFEC7E4D 		.ascii	"\337\354~M\007|\246\236IF\331\206O\334S\341\034%\365"
 126      077CA69E 
 126      4946D986 
 126      4FDC53E1 
 126      1C25F5
 127 00ea F53DA24A 		.ascii	"\365=\242J\257u\227\253\325>\361.\235\304\225\220,\322"
 127      AF7597AB 
 127      D53EF12E 
 127      9DC49590 
 127      2CD2
 128 00fc 166854F0 		.ascii	"\026hT\360z\037cR\310\315\217\030^\274\233\252\327\012"
 128      7A1F6352 
 128      C8CD8F18 
 128      5EBC9BAA 
 128      D70A
 129 010e 59B644B8 		.ascii	"Y\266D\270X|\272\252r?\225\337ck\226E\025\005\270\224"
 129      587CBAAA 
 129      723F95DF 
 129      636B9645 
 129      1505B894 
 130 0122 6523CB7A 		.ascii	"e#\313zs\205\247\342[@\257\312\004a\007!\217}\364\214"
ARM GAS  /tmp/cclTcGoe.s 			page 10


 130      7385A7E2 
 130      5B40AFCA 
 130      04610721 
 130      8F7DF48C 
 131 0136 74634540 		.ascii	"tcE@\206\220\026\320\322\322\254\331\266\243\277\321"
 131      869016D0 
 131      D2D2ACD9 
 131      B6A3BFD1 
 132 0146 D3279170 		.ascii	"\323'\221p\332\242Nw,\321\337\036\217\306:\223\361d"
 132      DAA24E77 
 132      2CD1DF1E 
 132      8FC63A93 
 132      F164
 133 0158 ACA7376E 		.ascii	"\254\2477nw\222\331\347\014\304\255\326\204\323\321"
 133      7792D9E7 
 133      0CC4ADD6 
 133      84D3D1
 134 0167 FD03917E 		.ascii	"\375\003\221~\201\256"
 134      81AE
 135              		.text
 136              		.section	.gnu.lto_dyn_find_object.c5db887e79e5134d,"",%progbits
 137 0000 789C8D54 		.ascii	"x\234\215T\337O\034U\024\276\337\334\231;\263?y\361"
 137      DF4F1C55 
 137      14BEDFDC 
 137      993BB33F 
 137      79F1
 138 0012 C12821C4 		.ascii	"\301(!\304\270!\355\003\233\324\027\215\177MK\333\250"
 138      B821ED03 
 138      9BD4178D 
 138      7F4D4BDB 
 138      A8
 139 0023 A9165B13 		.ascii	"\251\026[\023\343\023\303\026\273\002i5\032A\026\327"
 139      E313C316 
 139      BB026935 
 139      1A4116D7 
 140 0033 D9046A2B 		.ascii	"\331\004j+J\027\260?d\241\272\260\375AH\213\210\261"
 140      4A17B03F 
 140      64A1BAB0 
 140      FD41488B 
 140      88B1
 141 0045 46303E50 		.ascii	"F0>P\324\254\324\272\266\021\023\222\242\347\334;Z~"
 141      D4ACD4BA 
 141      B6111392 
 141      A2E7DC3B 
 141      5A7E
 142 0057 34D1C9EE 		.ascii	"4\321\311\356\354=\347~\337\371\316\371\346\316:\302"
 142      EC3DE77E 
 142      DFF9CEF9 
 142      E6CE3AC2 
 143 0067 12671C21 		.ascii	"\022g\034!\236\022B\274L_D\004\254\267\346\204h\367"
 143      9E1242BC 
 143      4C5F4404 
 143      ACB7E684 
 143      68F7
 144 0079 2C386621 		.ascii	",8f!-5-\205\037\265\347f\205\360\343\266\311Oy\216%"
 144      2D352D85 
 144      1FB5E766 
ARM GAS  /tmp/cclTcGoe.s 			page 11


 144      85F0E3B6 
 144      C94F798E 
 145 008e 7526AAB7 		.ascii	"u&\252\267\343\312rsW9\364\326\\\012]x\206\356\001\274"
 145      E3CA7273 
 145      5739F4D6 
 145      5C0A5D78 
 145      86EE01BC 
 146 00a2 F03D8836 		.ascii	"\360=\2106K\332\216r=\264Y\244\251\2577e\257\304W\035"
 146      4BDA8E72 
 146      3DB459A4 
 146      A9AF3765 
 146      AFC4571D 
 147 00b6 23EFCB93 		.ascii	"#\357\313\2232\220\0026\205\277\337\310\335Jr\0104R"
 147      32900236 
 147      85BFDFC8 
 147      DD4A7208 
 147      3452
 148 00c8 D8EF2F74 		.ascii	"\330\357/t\272\273N\373~\306/\367\256'\213c\363~$\220"
 148      BABB4EFB 
 148      7EC62FF7 
 148      AE278B63 
 148      F37E2490 
 149 00dc 96E823F8 		.ascii	"\226\350#\370\031\324\3434\352\271\363\217\260\213\300"
 149      19D4E334 
 149      EAB9F38F 
 149      B08BC0
 150 00eb 99E50B37 		.ascii	"\231\345\0137!S\020\264.|Sx\265\351\224\346}\337#\375"
 150      215310B4 
 150      2E7C5378 
 150      B5E994E6 
 150      7DDF23FD 
 151 00ff 27032931 		.ascii	"'\003)1\004\271\231G)\201\217\321D\350\354;\213\263"
 151      04B99947 
 151      29818FD1 
 151      44E8EC3B 
 151      8BB3
 152 0111 09B95B33 		.ascii	"\011\271[3GfV\257\330!\365\366\243}~\331\016\244\215"
 152      476656AF 
 152      D821F5F6 
 152      A37D7ED9 
 152      0EA48D
 153 0124 4FB6736D 		.ascii	"O\266sm\201a41a\245\274\272\234\220\315\232\334\331"
 153      81613431 
 153      61A5BCBA 
 153      9C90CD9A 
 153      DCD9
 154 0136 7E226FA7 		.ascii	"~\"o\247\0064ym\342\221\267\217\3713>\361-\234\335\312"
 154      0634796D 
 154      E291B78F 
 154      F9333EF1 
 154      2D9CDDCA 
 155 014a E78BE0CB 		.ascii	"\347\213\340\313\243\033\357&\224\215\"R\003R\360T4"
 155      A31BEF26 
 155      948D2252 
 155      0352F054 
 155      34
 156 015b CC0814E8 		.ascii	"\314\010\024\350\207\266\257\227;\213Q\271GW\336X\250"
ARM GAS  /tmp/cclTcGoe.s 			page 12


 156      87B6AF97 
 156      3B8B51B9 
 156      4757DE58 
 156      A8
 157 016c D69CB0F2 		.ascii	"\326\234\260\362\362\343\324VG#\327\035\335Y\027cH\025"
 157      F2E3D456 
 157      4723D71D 
 157      DD591763 
 157      4815
 158 017e 1750F637 		.ascii	"\027P\3667\376\312\372\345;\317\346*7/YI2\224f\265\301"
 158      FECAFAE5 
 158      3BCFE62A 
 158      372F5949 
 158      329466B5 
 159 0193 5D3B1AA3 		.ascii	"];\032\243h\012\307\345[D\307QZ\252\030\335\334\270"
 159      680AC7E5 
 159      5B44C751 
 159      5AAA18DD 
 159      DCB8
 160 01a5 8E13829D 		.ascii	"\216\023\202\235\026]\324TM\211nZ\327\224\374\021\026"
 160      165DD454 
 160      4D896E5A 
 160      D794FC11 
 160      16
 161 01b6 77F35DFF 		.ascii	"w\363]\377J\315\015\273\2713\321\360\317\234;<\326\375"
 161      4ACD0DBB 
 161      B933D1F0 
 161      CF9C3B3C 
 161      D6FD
 162 01c8 7C8A549E 		.ascii	"|\212T\236\274\016\251\003_\227~\251\013\2513\320\264"
 162      BC0EA903 
 162      5F977EA9 
 162      0BA933D0 
 162      B4
 163 01d9 1DF66ADA 		.ascii	"\035\366j\3329\246\331\242\212L\251:Y\211\376kW\207"
 163      39A6D9A2 
 163      8A4CA93A 
 163      5989FE6B 
 163      5787
 164 01eb 4F57F987 		.ascii	"OW\371\207\311$#\270\270\266\254Ob\263\243c\234>\017"
 164      C92423B8 
 164      B8B6AC4F 
 164      62B3A363 
 164      9C3E0F
 165 01fe 45752E40 		.ascii	"Eu.@\345\245C{=\257O\177\351\362\331\2625\364\317k\263"
 165      E5A5437B 
 165      3DAF4F7F 
 165      E9F2D9B2 
 165      35F4CF6B 
 166 0213 6FC403E4 		.ascii	"o\304\003\344\021H\217\204p\221\205)\177j%s\326M\017"
 166      11488F84 
 166      70918529 
 166      7F6A2573 
 166      D64D0F
 167 0226 B34AE1DE 		.ascii	"\263J\341\336\211g\330\345\317\020\340=\362AW\3048\322"
 167      8967D8E5 
 167      CF10E03D 
ARM GAS  /tmp/cclTcGoe.s 			page 13


 167      F24157C4 
 167      38D2
 168 0238 344CA630 		.ascii	"4L\2460\004\256\315RT\237:\356\246!\351\255\220\324"
 168      04AECD52 
 168      549F3AEE 
 168      A621E9AD 
 168      90D4
 169 024a F17AF6FE 		.ascii	"\361z\366\376\305A\030\351\350fik\273t$/#(=Dz\2106\243"
 169      C54118E9 
 169      E866696B 
 169      BB74242F 
 169      23283D44 
 170 0262 98D0CA30 		.ascii	"\230\320\3120\312\204X\032\234\032\214\265\335\327\210"
 170      CA84581A 
 170      9C1A8CB5 
 170      DDD788
 171 0271 0F09A130 		.ascii	"\017\011\2410\211\264i\353\022\332\304*\216\027\016"
 171      89B469EB 
 171      12DAC42A 
 171      8E170E
 172 0280 1AD918A1 		.ascii	"\032\331\030\241\307\307o/\271\204\366\002\031\353#"
 172      C7C76F2F 
 172      B984F602 
 172      19EB23
 173 028f 6D8DFB9C 		.ascii	"m\215\373\234p\324\025=\022Bt\255\177{\322\343\306\342"
 173      70D4153D 
 173      124274AD 
 173      7F7BD2E3 
 173      C6E2
 174 02a1 F0F005EA 		.ascii	"\360\360\005\352\003\231\020+\350X\254\\\016\273\217"
 174      0399102B 
 174      E858AC5C 
 174      0EBB8F
 175 02b0 61B7791E 		.ascii	"a\267y\036\335\364,\012\327\364t\245\352\354\255p;\376"
 175      DDF42C0A 
 175      D7F474A5 
 175      EAECAD70 
 175      3BFE
 176 02c2 3FA77921 		.ascii	"?\247y!\220I\224\3650Vh\343Thc\303\003\027\343Z\307"
 176      904994F5 
 176      305668E3 
 176      546863C3 
 176      0317E35A 
 177 02d7 11F4A7A1 		.ascii	"\021\364\247\241O\232\311F\270\243\245\312Z\377\036"
 177      4F9AC946 
 177      B8A3A5CA 
 177      5AFF1E
 178 02e6 A369738A 		.ascii	"\243is\212\256?@r\216\225\373m\336\"\252\275x\367i\""
 178      AE3F4072 
 178      8E95FB6D 
 178      DE22AABD 
 178      78F76922 
 179 02fa 2B734A33 		.ascii	"+sJ3\205\341\006\375&\361\371`\231F\035\235\333\022"
 179      85E106FD 
 179      26F1F960 
 179      99461D9D 
 179      DB12
ARM GAS  /tmp/cclTcGoe.s 			page 14


 180 030c 8D6D898A 		.ascii	"\215m\211\212\034i\245\237&\343\234\311\313\204\231"
 180      1C69A59F 
 180      26E39CC9 
 180      CB8499
 181 031b 85A51224 		.ascii	"\205\245\022$*swk\340\224S\2727\017\022sE\2572\206\314"
 181      2A73776B 
 181      E09453BA 
 181      370F1273 
 181      45AF3286 
 182 0330 6595A1A8 		.ascii	"e\225\241\250M\206\264\323\344\215\332\224\304\303L"
 182      4D86B4D3 
 182      E48DDA94 
 182      C4C34C
 183 033f A1AD3A4C 		.ascii	"\241\255:LkO\364\213_!C\2528\326s\274*M-\327\224;\237"
 183      6B4FF48B 
 183      5F2143AA 
 183      38D673BC 
 183      2A4D2DD7 
 184 0356 BD3E1AE5 		.ascii	"\275>\032\345gT\007\3402\325!\305\236\010C\266i\025"
 184      675407E0 
 184      32D521C5 
 184      9E0843B6 
 184      6915
 185 0368 F689FF50 		.ascii	"\366\211\377P\273\362@\355*\322\244\240\015\367\330"
 185      BBF240ED 
 185      2AD2A4A0 
 185      0DF7D8
 186 0377 B35FC9B3 		.ascii	"\263_\311\263\237?x,\034\234\207\356\242sWS\364\027"
 186      9F3F782C 
 186      1C9C87EE 
 186      A2735753 
 186      F417
 187 0389 F0447373 		.ascii	"\360Dss\332|\016\037\245\317\241\347\367\245\217\036"
 187      DA7C0E1F 
 187      A5CFA1E7 
 187      F7A58F1E 
 188 0399 6949B73C 		.ascii	"iI\267<wpo\313+\207\217\274\326\334\"\354\227\366\276"
 188      77706FCB 
 188      2B878FBC 
 188      D6DC22EC 
 188      97F6BE
 189 03ac 7840EE3F 		.ascii	"x@\356?\324*\367\037hE\353\337\014\252\325 "
 189      D42AF71F 
 189      6845EBDF 
 189      0CAAD520 
 190              		.text
 191              		.section	.gnu.lto_chFifoObjectInitAligned.c5db887e79e5134d,"",%progbits
 192 0000 789C7D92 		.ascii	"x\234}\222\317O\023A\024\307\347\273\263\355\366'\376"
 192      CF4F1341 
 192      14C7E7BB 
 192      B3EDF627 
 192      FE
 193 0011 08311289 		.ascii	"\0101\022\211\341`\322\340\241\275y\361\352\301\304"
 193      E160D2E0 
 193      A1BD79F1 
 193      EAC1C4
 194 0020 93F12FB0 		.ascii	"\223\361/\260H\241\006\251I\303\305K\227*\0261\321\232"
ARM GAS  /tmp/cclTcGoe.s 			page 15


 194      48A106A9 
 194      49C3C54B 
 194      972A1631 
 194      D19A
 195 0032 68B1EA66 		.ascii	"h\261\352f\233\000R\220\337R\244U\264\020\023\225\010"
 195      9B005290 
 195      DF52A455 
 195      B4101395 
 195      08
 196 0043 8A315E9A 		.ascii	"\2121^\232h\242 !\312\301\3703\030\3217\323r\251\350"
 196      68A22021 
 196      CAC1F833 
 196      18D137D3 
 196      72A9E8
 197 0056 64776766 		.ascii	"dwgf\337\373\274\367\2763\317\302\024\326\305\031;\314"
 197      DFFBBCF7 
 197      BE33CFC2 
 197      14D6C519 
 197      3BCC
 198 0068 18DB452F 		.ascii	"\030\333E/8\203\022\237g\254\325\246\000b\241\333\300"
 198      3883129F 
 198      67ACD5A6 
 198      0062A1DB 
 198      C0
 199 0079 220A22B8 		.ascii	"\"\012\"\270\310;9fb\357\263Jm\257N#\337\031w\014\350"
 199      C83B3966 
 199      62EFB34A 
 199      6DAF4E23 
 199      DF19770C 
 200 008e CF756E12 		.ascii	"\317un\022\237\244W\014\364\242\226\334\026\316\214"
 200      9FA4570C 
 200      F4A296DC 
 200      16CE8C
 201 009d DCE017C8 		.ascii	"\334\340\027\310\002\250\264\3754w\355]\205\330*\250"
 201      02A8B4FD 
 201      3477ED5D 
 201      85D82AA8 
 202 00ad A1AD3199 		.ascii	"\241\2551\231{\354\346{\301h}\256\020\273\356\366\364"
 202      7BECE67B 
 202      C1687DAE 
 202      10BBEEF6 
 202      F4
 203 00be E87A54CF 		.ascii	"\350zT\317/vr}\217\3119\372\301) \372P\2154\252\031"
 203      2F76727D 
 203      8FC939FA 
 203      C12920FA 
 203      508D34AA 
 204 00d3 FD62B805 		.ascii	"\375b\270\005\017\271/-\025\022\340^\211\276\3711\033"
 204      0FB92F2D 
 204      1512E05E 
 204      89BEF931 
 204      1B
 205 00e4 47097D58 		.ascii	"G\011}X\225\324\363\252\311U\014\224\263*\303\240dg"
 205      95D4F3AA 
 205      C9550C94 
 205      B32AC3A0 
 205      6467
ARM GAS  /tmp/cclTcGoe.s 			page 16


 206 00f6 DBBFE5C0 		.ascii	"\333\277\345\300\367I6\236\371\371\304^b\347\323;\022"
 206      F749369E 
 206      F9F9C45E 
 206      62E7D33B 
 206      12
 207 0107 A7F58302 		.ascii	"\247\365\203\002\036\332\004\036\226\360\362\347\345"
 207      1EDA041E 
 207      96F0F2E7 
 207      E5
 208 0114 0507DF2F 		.ascii	"\005\007\337/\341\216\261\376/\256\022\374rg1\261\005"
 208      E18EB1FE 
 208      2FAE12FC 
 208      726731B1 
 208      05
 209 0125 23E5AC85 		.ascii	"#\345\254\205aT\262+\231\364\270\235\037\220l\356\365"
 209      6154B22B 
 209      99F4B89D 
 209      1F906CEE 
 209      F5
 210 0136 C4EE12FA 		.ascii	"\304\356\022\372*]Y\314k\305X9ke\270-\331\271\257\231"
 210      2A5D59CC 
 210      6BC55839 
 210      6B65B82D 
 210      D9B9AF99 
 211 014a 69951F92 		.ascii	"i\225\037\222l\337\360\245\265\215\263zZ\312\253a\274"
 211      6CDFF0A5 
 211      B58DB37A 
 211      5ACAAB61 
 211      BC
 212 015b 9CD51832 		.ascii	"\234\325\0302\360\010\340\355\350\372\025\267U\355\332"
 212      F008E0ED 
 212      E8FA15B7 
 212      55EDDA
 213 016a B8204CC0 		.ascii	"\270 L\300\012\232\207_ \257\257\377\216Q\230\252\334"
 213      0A9A875F 
 213      20AFAFFF 
 213      8E5198AA 
 213      DC
 214 017b 4DBB1B10 		.ascii	"M\273\033\020\307\253\020kS!N\313\002Q\272\006Q\204"
 214      C7AB106B 
 214      53214ECB 
 214      0251BA06 
 214      5184
 215 018d 0DE2081C 		.ascii	"\015\342\010\034d\264;!#\263\016\012&z\343<W\304\314"
 215      64B43B21 
 215      23B30E0A 
 215      267AE33C 
 215      57C4CC
 216 01a0 57105D8B 		.ascii	"W\020]\213\255.\270D|\203+\2249\3216\363L\0237\316e"
 216      AD2EB844 
 216      7C832B94 
 216      39D136F3 
 216      4C1337CE 
 217 01b5 E5DF1FCD 		.ascii	"\345\337\037\315\266\273L\030\255\3247\251\234H\344"
 217      B6BB4C18 
 217      ADD437A9 
 217      9C48E4
ARM GAS  /tmp/cclTcGoe.s 			page 17


 218 01c4 30A837EE 		.ascii	"0\2507\356P\275\302\334\263\030\035\322|\203\242\253"
 218      50BDC2DC 
 218      B3181DD2 
 218      7C83A2AB 
 219 01d4 6A4CEEC4 		.ascii	"jL\356\304$L\\\225\035E\306B\367t\2673\362K\030S\025"
 219      244C5C95 
 219      1D45C642 
 219      F774B733 
 219      F24B1853 
 220 01e9 5421B2F0 		.ascii	"T!\262\360\221\224\034\"\354\003\316\326\210\234\302"
 220      91941C22 
 220      EC03CED6 
 220      889CC2
 221 01f8 2D9BFD58 		.ascii	"-\233\375X\320\310\315frW\222\2622\334%\017\252\306"
 221      D0C8CD66 
 221      725792B2 
 221      32DC250F 
 221      AAC6
 222 020a E0AAC12D 		.ascii	"\340\252\301-&w\013\367\324T\345&@E\222\2040\334\333"
 222      26770BF7 
 222      D454E526 
 222      40459284 
 222      30DCDB
 223 021d 003483D3 		.ascii	"\0004\203\323\337-L\352j;R\224\345\370K\007\376\257"
 223      DF2D4CEA 
 223      6A3B5294 
 223      E5F84B07 
 223      FEAF
 224 022f 632BA6A4 		.ascii	"c+\246\244\016l\252\303\216\373R\307\203\177\353\330"
 224      0E6CAAC3 
 224      8EFB52C7 
 224      837FEBD8 
 225 023f 96A4C667 		.ascii	"\226\244\306g\310\313\262(\221S\226\265\235\255\"\232"
 225      C8CBB228 
 225      915396B5 
 225      9DAD229A 
 226 024f 5ABE0C49 		.ascii	"Z\276\014I\210\321A)\350\032H\202\307\353\365\025\237"
 226      88D14129 
 226      E81A4882 
 226      C7EBF515 
 226      9F
 227 0260 50989EA6 		.ascii	"P\230\236\246\240\337\027l\256kj9V\357\253k\014\371"
 227      A0DF176C 
 227      AE6B6A39 
 227      56EFAB6B 
 227      0CF9
 228 0272 8F078281 		.ascii	"\217\007\202\201P\330\333\310x(pR\243}8x\252^\245\271"
 228      50D8DBC8 
 228      78287052 
 228      A37D3878 
 228      AA5EA5B9 
 229 0286 D9469FA3 		.ascii	"\331F\237\243M\301\206f+-\374-\001\353\211p\003M\177"
 229      4DC18666 
 229      2B2DFC2D 
 229      01EB8970 
 229      034D7F
 230 0299 00314C3E 		.ascii	"\0001L>b"
ARM GAS  /tmp/cclTcGoe.s 			page 18


 230      62
 231              		.text
 232              		.section	.gnu.lto_dyn_create_object_pool.part.0.c5db887e79e5134d,"",%progbits
 233 0000 789C9553 		.ascii	"x\234\225S[KTQ\024\336\337^g\346L\336*\352\3114$\032"
 233      5B4B5451 
 233      14DEDF5E 
 233      67E64CDE 
 233      2AEAC934 
 234 0016 A420871E 		.ascii	"\244 \207\036\352\255\367\376\206\251Q`%\025D\275\270"
 234      EAADF7FE 
 234      86A95160 
 234      251544BD 
 234      B8
 235 0027 1B2D53D3 		.ascii	"\033-S\323\302\250i\254\341\014\224\330M\307\356i\267"
 235      C2A869AC 
 235      E10C94D8 
 235      4DC7EE69 
 235      B7
 236 0038 E9A6255D 		.ascii	"\351\246%]\245\013\324K\231\211b7\303\010\204\254\265"
 236      A50BD44B 
 236      99896237 
 236      C30884AC 
 236      B5
 237 0049 F60CA459 		.ascii	"\366\014\244YP\2073\263\367^{}\337\376\276\265\327\361"
 237      508733B3 
 237      F75E7B7D 
 237      DFFEBEB5 
 237      D7F1
 238 005b 29ADE28E 		.ascii	")\255\342\216R\313\225R+\370\007\277\202o\357C\236\370"
 238      52CB9552 
 238      2BF807BF 
 238      826FEF43 
 238      9EF8
 239 006d A0EDA8B5 		.ascii	"\240\355\250\265\323K\312dPw\257R&\213\340Hx{\300\001"
 239      D34BCA64 
 239      5077AF52 
 239      268BE048 
 239      787BC001 
 240 0081 64620250 		.ascii	"db\002P\225>M\016*\261\207\"\204'\325\035\207\251\221"
 240      953E4D0E 
 240      2AB18722 
 240      8427D51D 
 240      87A991
 241 0094 3C527078 		.ascii	"<Rpx9\372\240\371m\216,\201\002^\0362}\265\356\242V"
 241      39FAA0F9 
 241      6D8E2C81 
 241      025E1E32 
 241      7DB5EEA2 
 242 00a9 63C22619 		.ascii	"c\302&\031\351\312L\234ylfx\244U\224\323\217!\017\255"
 242      E9CA4C9C 
 242      796C6678 
 242      A45594D3 
 242      8F210FAD 
 243 00bd C81315C7 		.ascii	"\310\023\025\307\261\210\223\303\375\027\236\203\202"
 243      B18893C3 
 243      FD179E83 
 243      82
ARM GAS  /tmp/cclTcGoe.s 			page 19


 244 00ca 503C8F3F 		.ascii	"P<\217?\213o)l\261\270\247\0212\013=\"\234\000M\306"
 244      8B6F296C 
 244      B1B8A711 
 244      320B3D22 
 244      9C004DC6 
 245 00de 7148E124 		.ascii	"qH\341$\0129\273f\337\313\336lZl\221\035wG\3568i\350"
 245      0A39BB66 
 245      DFCBDE6C 
 245      5A6C911D 
 245      7747EE38 
 246 00f4 97255193 		.ascii	"\227%Q\223t<V{\352w\254\243\320f\261C\227\272w\005\250"
 246      743C567B 
 246      EA77ACA3 
 246      D066B143 
 246      97BA7705 
 247 0109 C862DFBC 		.ascii	"\310b\337\274\036\315OC'\332r#Uf\245G>\264\377\216\365"
 247      1ECD4F43 
 247      27DA7223 
 247      5566A547 
 247      3EB4FF8E 
 248 011e 29245028 		.ascii	")$P(\200\201\344H\1776-\265\340\332\355\0151'x\304\242"
 248      8081E448 
 248      7F362DB5 
 248      E0DAED0D 
 248      312778C4 
 249 0133 BBDBE736 		.ascii	"\273\333\3476U\231\273\206\317\326\350\230\212\227\207"
 249      5599BB86 
 249      CFD6E898 
 249      8A9787
 250 0142 D3FB4F4F 		.ascii	"\323\373OO\354\317\366;8\215\240\224\203\253p\006~("
 250      ECCFF63B 
 250      388DA094 
 250      83AB7006 
 250      7E28
 251 0154 E51C21D9 		.ascii	"\345\034!\331\276\237\254Md\3202\313<\3217\374\331\227"
 251      BE9FAC4D 
 251      64D032CB 
 251      3CD137FC 
 251      D997
 252 0166 66EE9FC7 		.ascii	"f\356\237\307\226\252\013\204\367\354t^\234C\220\001"
 252      96AA0B84 
 252      F7EC745E 
 252      9C439001 
 253 0176 BB1BBE8F 		.ascii	"\273\033\276\217\315\024@\223I~l\233\337T\265#%EM\313"
 253      CD144093 
 253      497E6C9B 
 253      DF54B523 
 253      25454DCB 
 254 018a 3F8FA028 		.ascii	"?\217\240(H\364\301\230\211\0375\3064\027\316\231\011"
 254      48F4C198 
 254      891F35C6 
 254      3417CE99 
 254      09
 255 019b 883FAD64 		.ascii	"\210?\255d\207\330/\253\224B\373 %\363s@\273\362\247"
 255      87D82FAB 
 255      9442FB20 
 255      25F37340 
ARM GAS  /tmp/cclTcGoe.s 			page 20


 255      BBF2A7
 256 01ae 541DEB96 		.ascii	"T\035\353\226\256\250\343\222\360H\365\034\224q\004"
 256      AEA8E392 
 256      F048F51C 
 256      947104
 257 01bd D5F14F11 		.ascii	"\325\361O\021W\034\305H\263\240\316\316\367\257\334"
 257      571CC548 
 257      B3A0CECE 
 257      F7AFDC
 258 01cc CAEF26E0 		.ascii	"\312\357&\340\221\033%v\211\013\250T1\202G\001\365\016"
 258      911B2576 
 258      890BA854 
 258      31824701 
 258      F50E
 259 01de E1026B9E 		.ascii	"\341\002k\236\217\343t5\200\352\227\267\006\023Y\277"
 259      8FE37435 
 259      80EA97B7 
 259      061359BF 
 260 01ee E00776DC 		.ascii	"\340\007v\334|\344JWi(\\Lk\257\347\373\347&\245a\204"
 260      7CE44A57 
 260      69285C4C 
 260      6BAFE7FB 
 260      E726A561 
 261 0203 C76BAE8E 		.ascii	"\307k\256\216\226\247\322\245'\277\365\364\356\312\362"
 261      96A7D2A5 
 261      27BFF5F4 
 261      EECAF2
 262 0212 1063F619 		.ascii	"\020c\366\031L\220Bp\274e \334\356\206\332\014?\361"
 262      4C904270 
 262      BC6520DC 
 262      EE86DA0C 
 262      3FF1
 263 0224 6D1E65E0 		.ascii	"m\036e\340\022<\034\244\364\205\274:z\343h&k\224\335"
 263      123C1CA4 
 263      F485BC3A 
 263      7AE36826 
 263      6B94DD
 264 0237 F56C1A9D 		.ascii	"\365l\032\235\010\261\320.\026:\202\235\361\034\341"
 264      08B1D02E 
 264      163A829D 
 264      F11CE1
 265 0246 5753BD64 		.ascii	"WS\275dF\245\012\270l\275P\214\344\013\250\033\177\321"
 265      46A50AB8 
 265      6CBD508C 
 265      E40BA81B 
 265      7FD1
 266 0258 1810AD59 		.ascii	"\030\020\255Y\010\340\012\362<\312V,ql\250\241\325\026"
 266      08E00AF2 
 266      3CCA562C 
 266      716CA8A1 
 266      D516
 267 026a E41FF5E5 		.ascii	"\344\037\365\345z\224\203\253V\037\344\242\256!\304"
 267      7A9483AB 
 267      561FE4A2 
 267      AE21C4
 268 0279 19E76EF7 		.ascii	"\031\347n\367\354\264\344rG\327\031\306\314]\303\215"
 268      ECB4E472 
ARM GAS  /tmp/cclTcGoe.s 			page 21


 268      47D719C6 
 268      CC5DC38D 
 269 0289 3D1929F3 		.ascii	"=\031)\363\376\311\265rl\357L:kV\214\23399\375,\333"
 269      FEC9B572 
 269      6CEF4C3A 
 269      6B568C9B 
 269      3939FD2C 
 270 029e 4C37EC51 		.ascii	"L7\354QZ\216\272\311\276\231\367\300\275\374\377\323"
 270      5A8EBAC9 
 270      BE99F7C0 
 270      BDFCFFD3 
 271 02ae 3B1BB72C 		.ascii	";\033\267,\211m\346\333\010\261\036\3133\034\375\223"
 271      896DE6DB 
 271      08B11ECB 
 271      331CFD93 
 272 02be F3BFA911 		.ascii	"\363\277\251\021&\215;\277\344t\013\223\266\027\356"
 272      268D3BBF 
 272      E4740B93 
 272      B617EE
 273 02cd D8EEFA00 		.ascii	"\330\356\372\000\315\345v9\362\025\256\210\321]\327"
 273      CDE57639 
 273      F215AE88 
 273      D15DD7
 274 02dc DF807368 		.ascii	"\337\200sh|\360\011\270\031!i\214XPT\024J\275\0336\361"
 274      7CF009B8 
 274      1921698C 
 274      58505414 
 274      4ABD1B36 
 275 02f1 5BBE7655 		.ascii	"[\276vUh\323\306\222P\311\232\325\305%\2337l\334ZT\242"
 275      68D3C692 
 275      50C99AD5 
 275      C5259B37 
 275      6CDC5A54 
 276 0306 9CF5C5EB 		.ascii	"\234\365\305\353\312\250\264\274B\257\253\240\322\262"
 276      CAA8B4BC 
 276      42AFABA0 
 276      D2B2
 277 0314 0A54FC04 		.ascii	"\012T\374\004\235'\203X"
 277      9D278358 
 278              		.text
 279              		.section	.gnu.lto_dyn_create_object_pool.c5db887e79e5134d,"",%progbits
 280 0000 789C8D54 		.ascii	"x\234\215TmO\034U\024\276\317=\363\266\257\370\301\304"
 280      6D4F1C55 
 280      14BECF3D 
 280      F3B6AFF8 
 280      C1C4
 281 0012 44911023 		.ascii	"D\221\020#!mR6\232h\364\037\3707*-Q\323\012iM\214\237"
 281      216D5236 
 281      9A68F41F 
 281      F8372A2D 
 281      51D30A69 
 282 0029 986EB194 		.ascii	"\230n\261\224\222V\243Q\\p3\233@\255\242,\320RZ\266"
 282      9256A351 
 282      5C70339B 
 282      40ADA22C 
 282      D0525AB6 
 283 003d 5517B6B6 		.ascii	"U\027\266\266\204\324\212\324\227\0101\261\024\215\210"
ARM GAS  /tmp/cclTcGoe.s 			page 22


 283      84D48AD4 
 283      970831B1 
 283      148D88
 284 004c D62D8D9A 		.ascii	"\326-\215\232\220\024=\347\316\250\274\370\301\311\354"
 284      90143DE7 
 284      CEA8BCF8 
 284      C1C9EC
 285 005b CC9C739F 		.ascii	"\314\234s\237\347<\347\345\336\265\225V-\266R\217+\245"
 285      E73CE7E5 
 285      DEB59556 
 285      2DB6528F 
 285      2BA5
 286 006d 5AF98798 		.ascii	"Z\371\207\230\202~\365\232R\207<\015;\374 \355L\221"
 286      827EF59A 
 286      52873C0D 
 286      3BFC20ED 
 286      4C91
 287 007f F2E3D6B5 		.ascii	"\362\343\326\265\031\245\374\244\025\372'=[\223\361"
 287      19A5FCA4 
 287      15FA273D 
 287      5B93F1
 288 008e C4CD72D2 		.ascii	"\304\315r\322\321\336\231\014[\356\267ul\271\360\004"
 288      D1DE990C 
 288      5BEEB775 
 288      6CB9F004 
 289 009e 050F90B7 		.ascii	"\005\017\220\267\357A\265k\262l\307\365\320\256Y\321"
 289      EF41B56B 
 289      B26CC7F5 
 289      D0AE59D1 
 290 00ae 5CAF500F 		.ascii	"\\\257P\017\341\363\216\221\267\351\004\005\244`\261"
 290      E1F38E91 
 290      B7E90405 
 290      A460B1
 291 00bd 79FBD3DE 		.ascii	"y\373\323\336\233i1\201z6\373\374\271.w\307)\337\317"
 291      9B693181 
 291      7A36FBFC 
 291      B92E77C7 
 291      29DFCF
 292 00d0 FAE59E52 		.ascii	"\372\345\236Rb\370\364\254\037\013H\253\034\303\337"
 292      62F8F4AC 
 292      1F0B48AB 
 292      1CC3DF
 293 00df 452D4EA1 		.ascii	"E-N\241V\362~\017;\030\234]\034\377\012\324\000\305"
 293      56F27E0F 
 293      3B189C5D 
 293      1CFF0AD4 
 293      00C5
 294 00f1 DF852F0B 		.ascii	"\337\205/\013/6\2364\274/z\310\1778 \302 h#\217]\012"
 294      2F369E34 
 294      BC2F7AC8 
 294      7F3820C2 
 294      2068238F 
 295 0107 EFA391D1 		.ascii	"\357\243\221\321\235\257\317\317\244h\247a\216L\257"
 295      9DAFCFCF 
 295      A468A761 
 295      8E4CAF
 296 0116 7C6245D4 		.ascii	"|bE\324\325]9\277l\005d\341\203\255\\Ka\310p\177<\177"
ARM GAS  /tmp/cclTcGoe.s 			page 23


 296      D55D39BF 
 296      6C0564E1 
 296      83AD5C4B 
 296      61C8707F 
 297 012c F9A8474D 		.ascii	"\371\250GM\206{\343\273\333\017F\324\365\241\373{\016"
 297      867BE3BB 
 297      DB0F46D4 
 297      F5A1FB7B 
 297      0E
 298 013d FB4F0564 		.ascii	"\373O\005d\243\270\225k+\014\243Q\010K\345\225\305\024"
 298      A3B8956B 
 298      2B0CA351 
 298      084BE595 
 298      C514
 299 014f 3D62C85D 		.ascii	"=b\310]\207\216\347\255\206~\303\276\\\274\367\265\303"
 299      878EE7AD 
 299      867EC3BE 
 299      5CBCF7B5 
 299      C3
 300 0160 FEB4CFDA 		.ascii	"\376\264\317\332\032#\233\371r1|qt\375\215\224ca\024"
 300      1A239BF9 
 300      72317C71 
 300      74FD8D94 
 300      636114
 301 0173 0DFDA4A4 		.ascii	"\015\375\244\244#\334\210\323p\300/^\276Z\356\032\216"
 301      23DC88D3 
 301      70C02F5E 
 301      BE5AEE1A 
 301      8E
 302 0184 D36326F2 		.ascii	"\323c&\362\372\334r\325\216\"/>\300%u\324K\3343\333"
 302      FADC72D5 
 302      8E222F3E 
 302      C02575D4 
 302      4BDC33DB 
 303 0198 E3620C0D 		.ascii	"\343b\014\015\303s(\373\353\177vr\015\273\272*?L\350"
 303      C37328FB 
 303      EB7F7672 
 303      0DBBBA2A 
 303      3F4CE8
 304 01ab 1A70CE9A 		.ascii	"\032p\316\232'\302\315\262 e\333\006\310\323\3452b\346"
 304      27C2CDB2 
 304      2065DB06 
 304      C8D3E532 
 304      62E6
 305 01bd 3BCE1027 		.ascii	";\316\020'\301\0177i\354\224P\322\362P\352\030\247V"
 305      C10F3769 
 305      EC9450D2 
 305      F250EA18 
 305      A756
 306 01cf 7554377F 		.ascii	"uT7\177W\035\372\036Zr\372\246o\251\352F9\335\032\252"
 306      571DFA1E 
 306      5A72FAA6 
 306      6FA9EA46 
 306      39DD1AAA 
 307 01e3 FBBBDA6D 		.ascii	"\373\273\332mS2Y\235EC\236\247\025Q\373\257\227~\252"
 307      5332599D 
 307      45439EA7 
ARM GAS  /tmp/cclTcGoe.s 			page 24


 307      1551FBAF 
 307      977EAA
 308 01f6 89A8D330 		.ascii	"\211\250\3230\264m\0032\264q\241Yj\031\331\322\362\305"
 308      B46D0332 
 308      B471A159 
 308      6A19D9D2 
 308      F2C5
 309 0208 4AFC9FA6 		.ascii	"J\374\237\246u\370|\225o\025\323\202\220\340\246q9\302"
 309      75F87C95 
 309      6F15D382 
 309      90E0A671 
 309      39C2
 310 021a C6BE8E89 		.ascii	"\306\276\216\211\373\034\034\216s\036N\236l^{\363\345"
 310      FB1C1C8E 
 310      731E4E9E 
 310      6C5E7BF3 
 310      E5
 311 022b A9CF5CD9 		.ascii	"\251\317\\\331\235\226\201\376qe\346h2@\036\001y,\204"
 311      9D9681FE 
 311      7165E668 
 311      32401E01 
 311      792C84
 312 023e 091166FF 		.ascii	"\011\021f\377\311\245l\321\315\014\211J\341\316\361"
 312      C9A56CD1 
 312      CD0C894A 
 312      E1CEF1
 313 024d 27A5D725 		.ascii	"'\245\327%\004x\213\373`\"\342\0022\\L\2660\010\211"
 313      04788BFB 
 313      6022E202 
 313      325C4CB6 
 313      300889
 314 0260 2D521C9F 		.ascii	"-R\034\2373\356\346\"\371T\021g\274\326y\367\334\000"
 314      33EEE622 
 314      F9541167 
 314      BCD679F7 
 314      DC00
 315 0272 42E9F846 		.ascii	"B\351\370Fi\275U:\226\247\030.\376\207\364 /\306\361"
 315      69BD553A 
 315      96A7182E 
 315      FE87F420 
 315      2FC6F1
 316 0285 A15146A8 		.ascii	"\241QF\250\314\210\205\201\311\201D\373]\203x\207\021"
 316      CC888581 
 316      C98144FB 
 316      5D837887 
 316      11
 317 0296 0E3E4226 		.ascii	"\016>B&L\353c\264\253\025\034)\264\204\262\011FOL\374"
 317      4CEB63B4 
 317      AB151C29 
 317      B484B209 
 317      464F4CFC 
 318 02aa BCE032DA 		.ascii	"\274\3402\332\013(\221cm\203+3\216\263\342\2210\342"
 318      0B289163 
 318      6D832B33 
 318      8EB3E291 
 318      30E2
 319 02bc D8DAD727 		.ascii	"\330\332\327'<I,\311\307}\022\265\001\245\324\022:\346"
ARM GAS  /tmp/cclTcGoe.s 			page 25


 319      3C492CC9 
 319      C77D12B5 
 319      01A5D412 
 319      3AE6
 320 02ce 2B97A2EC 		.ascii	"+\227\242\354\023\330\031\316\243\233gQ\270b\252+-\317"
 320      13D819CE 
 320      A39B6751 
 320      B862AA2B 
 320      2DCF
 321 02e0 DC8C9693 		.ascii	"\334\214\226\223\377\263\232\347\002Jc\312\024\243\243"
 321      FFB39AE7 
 321      024A63CA 
 321      14A3A3
 322 02ef 3656A236 		.ascii	"6V\2426\326\375\333\305\244\321\261\025\377\355\230"
 322      D6FDDBC5 
 322      A4D1B115 
 322      FFED98
 323 02fe 9D167A63 		.ascii	"\235\026zc\222\321B\345\367\276GCMK\\|\375\006\226\263"
 323      92D142E5 
 323      F7BE4743 
 323      4D4B5C7C 
 323      FD0696B3 
 324 0312 75EFAFB3 		.ascii	"u\357\257\263\232\251\326\374\352\023Lv\302]\232-\234"
 324      9AA9D6FC 
 324      EA134C76 
 324      C25D9A2D 
 324      9C
 325 0323 BDCF9C27 		.ascii	"\275\317\234'\331\037\"So\254\361M\326\330&kT\254P\251"
 325      D91F2253 
 325      6FACF14D 
 325      D6D8266B 
 325      54AC50A9 
 326 0337 98144F9E 		.ascii	"\230\024O\236Ra-\"\225bQ\352]\255B\\v\351\316,X\314"
 326      52612D22 
 326      956251EA 
 326      5DAD425C 
 326      76E9CE2C 
 327 034d 55F39A56 		.ascii	"U\363\232V\230k\320\351\315\035\257\311\221l\231K\246"
 327      986BD0E9 
 327      CD1DAFC9 
 327      916C994B 
 327      A6
 328 035e DD64D266 		.ascii	"\335d\322f\357=\246DO\262\374\205+\314\363l%\274\011"
 328      EF3DA644 
 328      4FB2FC85 
 328      2BCCF36C 
 328      25BC09
 329 0371 EBAC5DB8 		.ascii	"\353\254]\270\001\216\343\312\251\003C\370\370=\324"
 329      018EE3CA 
 329      A90343F8 
 329      F83DD4
 330 0380 D49409EF 		.ascii	"\324\224\011\357\326\203|\357{\366\351\314\301\003\315"
 330      D6837CEF 
 330      7BF6E9CC 
 330      C103CD
 331 038f 99E6675A 		.ascii	"\231\346gZv7\277\320z\340\245\246fe=\277{\377^\332\263"
 331      7637BFD0 
ARM GAS  /tmp/cclTcGoe.s 			page 26


 331      7AE0A5A6 
 331      66653DBF 
 331      7BFF5EDA 
 332 03a4 AF4DEF6F 		.ascii	"\257M\357o\243={\333\320\366\027?\343\274\240"
 332      A33D7BDB 
 332      D0F6173F 
 332      E3BCA0
 333              		.text
 334              		.section	.gnu.lto_dyn_release_object_pool.part.1.c5db887e79e5134d,"",%progbits
 335 0000 789C8D53 		.ascii	"x\234\215S\333o\014q\024>\337\234\271m\323\255\004\017"
 335      DB6F0C71 
 335      143EDF9C 
 335      B96DD3AD 
 335      040F
 336 0012 08492336 		.ascii	"\010I#6M%\272^\274y\361\346\337\240]!)\252D\342\251"
 336      4D25BA5E 
 336      BC79F1E6 
 336      DFA05D21 
 336      29AA44E2 
 337 0027 3FBDA4A2 		.ascii	"?\275\244\242\356\242\325\306d7i\304\275\352n\227\262"
 337      EEA2D5C6 
 337      643769C4 
 337      BDEA6E97 
 337      B2
 338 0038 69836A5C 		.ascii	"i\203j\\\212\304CE\202\226\240\204\206V\202.\347\367"
 338      8AC44345 
 338      8296A084 
 338      8656822E 
 338      E7F7
 339 004a 9B25563D 		.ascii	"\233%V=\230\314\356\3149s\276o\276\363\2353\016Y\324"
 339      98CCEECC 
 339      3973BE6F 
 339      BEF39D33 
 339      0E59D4
 340 005d 64132D25 		.ascii	"d\023-%\242\015\362C\021!\262\347\236\334X\226\335\313"
 340      A20DF243 
 340      1121B2E7 
 340      9EDC5896 
 340      DDCB
 341 006f A48AF8DE 		.ascii	"\244\212\370\336\000\221*f\270:\275\314\206\247\257"
 341      00912A66 
 341      B83ABDCC 
 341      86A7AF
 342 007e 5BFD081C 		.ascii	"[\375\010\034S\347\204\017\340Z\226\251,\3624\254\330"
 342      53E7840F 
 342      E05A96A9 
 342      2CF234AC 
 342      D8
 343 008f 831FD6F9 		.ascii	"\203\037\326\371\200\276Q>\250\316b;\342\270\236\217"
 343      80BE513E 
 343      A8CE623B 
 343      E2B89E8F 
 344 009f 3ACBA5F0 		.ascii	":\313\245\360\330\315m\214\336\346Wi\253\374\210\222"
 344      D8CD6D8C 
 344      DEE65769 
 344      ABFC8892 
 345 00af 23DB76B5 		.ascii	"#\333v\265$P\203\212\223L\324\316a\021\216\240\\\312"
ARM GAS  /tmp/cclTcGoe.s 			page 27


 345      2450838A 
 345      934CD4CE 
 345      61118EA0 
 345      5CCA
 346 00c1 1E34761F 		.ascii	"\0364v\037\342]\362\004\260%\034\273\3331\\\242C\013"
 346      E25DF204 
 346      B0251CBB 
 346      DB315CA2 
 346      430B
 347 00d3 A5128E64 		.ascii	"\245\022\216dG_D9\006\222\373\311W\317n\330e\207\225"
 347      475F4439 
 347      0692FBC9 
 347      57CF6ED8 
 347      658795
 348 00e6 AA57D991 		.ascii	"\252W\331\221VV\013\222\3148\016\026B\034\303\\\034"
 348      56560B92 
 348      CC380E16 
 348      421CC35C 
 348      1C
 349 00f7 C55C9214 		.ascii	"\305\\\222\024\341\004\312\244\274y\377\320@\224\313"
 349      E104CAA4 
 349      BC79FFD0 
 349      4094CB
 350 0106 0DB4BB7F 		.ascii	"\015\264\273\177\36474\227\236\336\332\240\226'\331"
 350      F4373497 
 350      9EDEDAA0 
 350      9627D9
 351 0115 C6C9BFC1 		.ascii	"\306\311\277\3016\341\224\001\277\276|s\233\317\213"
 351      36E19401 
 351      BFBE7C73 
 351      9BCF8B
 352 0124 0CF8F9B3 		.ascii	"\014\370\371\263\261yy\354\315\314\254\020\353\240\353"
 352      B17979EC 
 352      CDCCAC10 
 352      EBA0EB
 353 0133 6FAC4338 		.ascii	"o\254C8\2152\015xq&w \352\332a\247\350\206\013\"\356"
 353      8D320D78 
 353      71267720 
 353      EADA61A7 
 353      E8860B22 
 354 0148 64FD28D5 		.ascii	"d\375(\325\373|\021/6\264;>\364|\267c\235\206\367q0"
 354      FB7C112F 
 354      36B43B3E 
 354      F47CB763 
 354      9D86F771 
 355 015d 735F83EA 		.ascii	"s_\203\352W\266n\351L!\263\361\352,b\032\262s\362\363"
 355      57B66EE9 
 355      4C21B3F1 
 355      EA2C621A 
 355      B273F2F3 
 356 0171 340DD9A7 		.ascii	"4\015\331\247\262\023\3519{\033\232B\010M\251?\207\330"
 356      B213E939 
 356      7B1B9A42 
 356      084DA93F 
 356      87D8
 357 0183 E987502A 		.ascii	"\351\207P*\367\243Y\251\241\212\031Q@\333b\211N\227"
 357      F7A359A9 
ARM GAS  /tmp/cclTcGoe.s 			page 28


 357      A18A1951 
 357      40DB6289 
 357      4E97
 358 0195 F59F6D38 		.ascii	"\365\237m8\035\350~]h\345\2366\3177i\242\355\"\375\243"
 358      1DE87E5D 
 358      68E59E36 
 358      CF3769A2 
 358      ED22FDA3 
 359 01a9 4B2D6C91 		.ascii	"K-l\221,\000\217\240q\250o\"X,\032>\253Oc>/1-\2145\367"
 359      2C008FA0 
 359      71A86F22 
 359      582C1A3E 
 359      AB4F633E 
 360 01c3 7C88E65B 		.ascii	"|\210\346[0z~\265p~j\013R\336\371(\363vZ\276\274\037"
 360      307A7EB5 
 360      707E6A0B 
 360      52DEF928 
 360      F3765ABE 
 361 01d9 A674CA0C 		.ascii	"\246t\312\014\362\245\241\205\215fyr\231\351\300E\304"
 361      F2A5A185 
 361      8D667972 
 361      99E9C045 
 361      C4
 362 01ea 70419469 		.ascii	"pA\224i;\333\031\177\330l\004\343\022d\371p\031n\300"
 362      3BDB197F 
 362      D86C04E3 
 362      1264F970 
 362      196EC0
 363 01fd 0844B53E 		.ascii	"\010D\265>\266\2133\251[\304-2\327.\3467\250\317\274"
 363      B68B33A9 
 363      5BC42D32 
 363      D72EE637 
 363      A8CFBC
 364 0210 793D5C12 		.ascii	"y=\\\022V\351\025mm\352\275\357\351e\013\011\277\334"
 364      56E9156D 
 364      6DEABDEF 
 364      E9650B09 
 364      BFDC
 365 0222 1AD8569C 		.ascii	"\032\330V\234D\200${B\203\264\326#\371\303#\365]^\374"
 365      4480247B 
 365      4283B4D6 
 365      23F9C323 
 365      F55D5EFC 
 366 0236 9416532A 		.ascii	"\224\026S*\326!\203$\016\212A\346\245\270\2028\011u"
 366      D6218324 
 366      0E8A41E6 
 366      A5B88238 
 366      0975
 367 0248 EBED859A 		.ascii	"\353\355\205\232x\012\215\375/\232\324:\315s\265\200"
 367      780A8DFD 
 367      2F9AD43A 
 367      CD73B580 
 368 0258 A7077151 		.ascii	"\247\007qQedG\304{Q\355\350\013\215\303\017\330\211"
 368      656447C4 
 368      7B51EDE8 
 368      0B8DC30F 
 368      D889
ARM GAS  /tmp/cclTcGoe.s 			page 29


 369 026a 0C4D0C5A 		.ascii	"\014M\014Z2\017\227\344\303\343\227\260\314\240\204"
 369      320F97E4 
 369      C3E397B0 
 369      CCA084
 370 0279 9E4C5B4F 		.ascii	"\236L[O\373\274\260-\353\377\004\230>\256\025\274\377"
 370      FBBCB02D 
 370      EBFF0498 
 370      3EAE15BC 
 370      FF
 371 028a BAF42173 		.ascii	"\272\364!s~\322w\007y*y\255\266q\034\266\004\234\371"
 371      7ED27707 
 371      792A79AD 
 371      B6711CB6 
 371      049CF9
 372 029d 3628CEFA 		.ascii	"6(\316\372\222jaO+{\211\372\324\365`\266Yp=\032\222"
 372      926A614F 
 372      2B7B89FA 
 372      D4F560B6 
 372      59703D1A 
 373 02b2 44A9892E 		.ascii	"D\251\211.\026Dg\013\"\331B\242Q4\245\206\003G'\264"
 373      1644670B 
 373      22D942A2 
 373      5134A586 
 373      034727B4 
 374 02c6 B074FADD 		.ascii	"\260t\372\335\023\257nR\371I\366\333\365\360\220E\035"
 374      13AF6E52 
 374      F949F6DB 
 374      F5F09045 
 374      1D
 375 02d7 052C22BC 		.ascii	"\005,\"\274\244\270!\022\364@\354\314\327\217f*nGn\020"
 375      A4B82112 
 375      F440ECCC 
 375      D78F662A 
 375      6E476E10 
 376 02eb 22C3D732 		.ascii	"\"\303\3272\336\213\214\321\000\206+\234:$-$\363+*\342"
 376      DE8B8CD1 
 376      00862B9C 
 376      3A242D24 
 376      F32B2AE2 
 377 02ff E1B97EA3 		.ascii	"\341\271~\243\234\325kV\3067\326V\306+W\257ZQ\271i}"
 377      9CD56B56 
 377      C637D656 
 377      C62B57AF 
 377      5A51B969 
 378 0314 ED968A4A 		.ascii	"\355\226\212J\342\252D\015WU\327Xkk\354\232\332\304"
 378      E2AA440D 
 378      5755D758 
 378      6B6BEC9A 
 378      DAC4
 379 0326 662F519D 		.ascii	"f/Q\235X\233X\267\351'\013\013~\305"
 379      589B58B7 
 379      E9270B0B 
 379      7EC5
 380              		.text
 381              		.section	.gnu.lto_dyn_create_object_heap.part.2.c5db887e79e5134d,"",%progbits
 382 0000 789C9554 		.ascii	"x\234\225T\337O[e\030\376\236\363\236\323S:~\350\364"
 382      DF4F5B65 
ARM GAS  /tmp/cclTcGoe.s 			page 30


 382      18FE9EF3 
 382      9ED3533A 
 382      7EE8F4
 383 0013 6A4125C6 		.ascii	"jA%\306\206l\027\355\205\027\306\013\357\3757\260\353"
 383      866C17ED 
 383      8517C60B 
 383      EFFD37B0 
 383      EB
 384 0024 0209B066 		.ascii	"\002\011\260fh\214\273\341\243\2601\230C\203\021\326"
 384      688CBBE1 
 384      A3B03198 
 384      438311D6 
 385 0034 CDE61037 		.ascii	"\315\346\0207\202\323\025\030\316\011lh7\306`\335\017"
 385      82D31518 
 385      CE096C68 
 385      37C660DD 
 385      0F
 386 0045 37225BC2 		.ascii	"7\"[\302n\024qYE\0275\250\204d\235\357\373\265n\205"
 386      6E147159 
 386      451735A8 
 386      84649DEF 
 386      FBB56E85 
 387 0059 CE449BF6 		.ascii	"\316D\233\366\234\363}\347}\236\367y\336\367\375\352"
 387      9CF37DE7 
 387      7D9EF779 
 387      DEF7FDEA 
 388 0069 284B651C 		.ascii	"(Ke\034\245v)\245^\343\037|\012\316\373\327\371\301"
 388      A57629A5 
 388      5EE31F7C 
 388      0ACEFBD7 
 388      F9C1
 389 007b 8165EE96 		.ascii	"\201e\356\226egH\351\000]\312(\245\313\011\266l\267"
 389      656748E9 
 389      005DCA28 
 389      A5CB09B6 
 389      6CB7
 390 008d F96D401E 		.ascii	"\371m@\036\264\037\252\325\261\310F+\336\243~\302\315"
 390      B41FAAD5 
 390      B1C8462B 
 390      DEA37EC2 
 390      CD
 391 009e 8ED18FA8 		.ascii	"\216\321\217\250\207<R\260y\371\333\265#?T\312\022\250"
 391      873C52B0 
 391      79F9DBB5 
 391      233F54CA 
 391      12A8
 392 00b0 E1E5513D 		.ascii	"\341\345Q=\337\345n\037\322:\256\323\375k\356\310\330"
 392      DFE56E1F 
 392      D23AAED3 
 392      FD6BEEC8 
 392      D8
 393 00c1 0D5DE691 		.ascii	"\015]\346\221\245\022\034\376\011\2521\204jQq\002\333"
 393      A5121CFE 
 393      09AA3184 
 393      6A517102 
 393      DB
 394 00d2 3938BE74 		.ascii	"98\276t\346\026(\010\305\317\003\013\003o\327\016\032"
ARM GAS  /tmp/cclTcGoe.s 			page 31


 394      E6162808 
 394      C5CF030B 
 394      036FD70E 
 394      1A
 395 00e3 DCB7FDA4 		.ascii	"\334\267\375\244_\362\210\360)\250\030\307[\012\237"
 395      5FF288F0 
 395      29A818C7 
 395      5B0A9F
 396 00f2 A196A33B 		.ascii	"\241\226\243;?X\314T\320\016\203\034\235[\231\261\013"
 396      3F58CC54 
 396      D00E831C 
 396      9D5B99B1 
 396      0B
 397 0103 D09F5E48 		.ascii	"\320\237^H\350\264\355\261\332\223\233\261\266B\312"
 397      E8B4EDB1 
 397      DA939BB1 
 397      B642CA
 398 0112 603F6E5B 		.ascii	"`?n[\270RA!\203\355LMe+\013\330?\275m}\355\372u\217"
 398      B8524121 
 398      83ED4C4D 
 398      652B0BD8 
 398      3FBD6D7D 
 399 012a 1C0C6F06 		.ascii	"\034\014o\006;\012#\250\025\304rze\251\202^6\350\256"
 399      3B0A23A8 
 399      15C4727A 
 399      65A9825E 
 399      36E8AE
 400 013d B643493B 		.ascii	"\266CI;x\314\240s\336\263\275\355zNsr\013\243\033\361"
 400      78CCA073 
 400      DEB3BDED 
 400      7A4E7372 
 400      0BA31BF1 
 401 0151 F2E1F0A5 		.ascii	"\362\341\360\245S\271\017+|6N!(\365\3402\214\301\007"
 401      53B90F2B 
 401      7C364E21 
 401      28F5E032 
 401      8CC107
 402 0164 A59C6324 		.ascii	"\245\234c$\257oL\365\234\013\010[\257N\337\365\236\357"
 402      AF6F4CF5 
 402      9C0B085B 
 402      AF4EDFF5 
 402      9EEF
 403 0176 6DDF67D8 		.ascii	"m\337g\330|j3\025>G\220\343\257\246\273F\002\364\212"
 403      7C6A3315 
 403      3E4790E3 
 403      AFA6BB46 
 403      02F48A
 404 0189 51929BCF 		.ascii	"Q\222\233\317\376\352\024\224\334=Z\244\344t\251\022"
 404      FEEA1494 
 404      DC3D5AA4 
 404      E474A912 
 405 0199 7C61E0EF 		.ascii	"|a\340\357\036z\260ZU\232ns\2538\376\014\202\242yd\036"
 405      1E7AB05A 
 405      559A6E73 
 405      AB38FE0C 
 405      82A27964 
 406 01ae 5AE71E76 		.ascii	"Z\347\036vj\275\036\332Z\005HE,\256\215\217\370\342"
ARM GAS  /tmp/cclTcGoe.s 			page 32


 406      6ABD1EDA 
 406      5A054845 
 406      2CAE8D8F 
 406      F8E2
 407 01c0 F2B8706B 		.ascii	"\362\270pk\034H\221}\274a\271rQ\252\233\215\312\034"
 407      1C48917D 
 407      BC61B972 
 407      51AA9B8D 
 407      CA1C
 408 01d2 75730DF9 		.ascii	"us\015\371N\007yS\356?\302\022\341\247\357\037\376\275"
 408      4E077953 
 408      EE3FC212 
 408      E1A7EF1F 
 408      FEBD
 409 01e4 8C5E3526 		.ascii	"\214^5&\306\322\211\265\300?&DQ\336\204\037_>\301\304"
 409      C6D289B5 
 409      C03F2644 
 409      51DE841F 
 409      5F3EC1C4 
 410 01f8 B831D1B7 		.ascii	"\2701\321\267\357\3027\256L\037O)&\370]\201\266\357"
 410      EFC237AE 
 410      4C1F4F29 
 410      26F85D81 
 410      B6EF
 411 020a DE5ACE2D 		.ascii	"\336Z\316-P\315\301\320\224t\325\320L\"\230$\250\025"
 411      50CDC1D0 
 411      9474D5D0 
 411      4C229824 
 411      A815
 412 021c ECFFEEE1 		.ascii	"\354\377\356\341\364\355\372G]\352\320\374I\367\217"
 412      F4EDFA47 
 412      5DEAD0FC 
 412      49F78F
 413 022b 075C0991 		.ascii	"\007\\\011\221l\246[\011BQ'\025\316\362yR8\007_\222"
 413      6CA65B09 
 413      42512715 
 413      CEF27952 
 413      38075F92 
 414 023f 2CDE9F98 		.ascii	",\336\237\230\370\371\216\333\372@\373=*Kp\365\3455"
 414      F8F98EDB 
 414      FA40FB3D 
 414      2A4B70F5 
 414      E535
 415 0251 A6D06AB4 		.ascii	"\246\320j\264q\036\0169rv5\343\210\342\000\374\370\012"
 415      711E0E39 
 415      727635E3 
 415      88E200FC 
 415      F80A
 416 0263 D51E6D61 		.ascii	"\325\036ma\321\361\0323\013\222\346\361jr\303J\246F"
 416      D1F11A33 
 416      0B92E6F1 
 416      6A72C34A 
 416      A646
 417 0275 2DA36371 		.ascii	"-\243cq\372\376\211r\331\311\247|T\001\213+\360u\301"
 417      FAFE8972 
 417      D9C9A77C 
 417      54018B2B 
ARM GAS  /tmp/cclTcGoe.s 			page 33


 417      F075C1
 418 0288 D6413E29 		.ascii	"\326A>)|\234)\213\370zgj\2411\037.\247\367\257\331\314"
 418      7C9C298B 
 418      F87A676A 
 418      A1311F2E 
 418      A7F7AFD9 
 419 029d 81720F49 		.ascii	"\201r\017IxT\316\004y\004\357\017.\307\207\335pJ\\\017"
 419      7854CE04 
 419      7904EF0F 
 419      2EC787DD 
 419      704A5C0F 
 420 02b1 ECF5A802 		.ascii	"\354\365\250\002ix8L\205\311\275s\374\374\361-\354K"
 420      6978384C 
 420      85C9BD73 
 420      FCFCF12D 
 420      EC4B
 421 02c3 DE3673B3 		.ascii	"\3366s\263q\036a\366}\201\235q\345\006*\205_m\364_\231"
 421      711E61F6 
 421      7D819D71 
 421      E5062A85 
 421      5F6DF45F 
 422 02d8 600D0AD3 		.ascii	"`\015\012\323\034\302\231\223$\377\025\335\353\267{"
 422      1CC29993 
 422      24FF15DD 
 422      EBB77B
 423 02e7 FCA2D561 		.ascii	"\374\242\325a\357\027\305{\225b\211\253\367N\016\272"
 423      EF17C57B 
 423      956289AB 
 423      F74E0EBA 
 424 02f7 42F11FF5 		.ascii	"B\361\037\365m\363\350)\314\030}\220\036^BX&\351\342"
 424      6DF3E829 
 424      CC187D90 
 424      1E5E4258 
 424      26E9E2
 425 030a EC7E43FE 		.ascii	"\354~C\3764\217\346,\303\230y2\233\232\011\344\315\373"
 425      348FE62C 
 425      C3987932 
 425      9B9A09E4 
 425      CDFB
 426 031c 8A6B659B 		.ascii	"\212ke\233.\026\345\332\232dMs\245\271j\244\256\227"
 426      2E16E5DA 
 426      9A644D73 
 426      A5B96AA4 
 426      AE97
 427 032e 4D2A4B52 		.ascii	"M*KRe\3307\363\366]~\356\377\351}\006W\014\2119\365"
 427      65D837F3 
 427      F65D7EEE 
 427      FFE97D06 
 427      570C8939 
 428 0343 5711663D 		.ascii	"W\021f=\206';\376$\347\377\246F\230,\\{,\347\2720Y\246"
 428      86273BFE 
 428      24E7FFA6 
 428      46982C5C 
 428      7B2CE7BA 
 429 035a E1B63955 		.ascii	"\341\2669U\277\360\370'\311\345\235?\340\212\030kq\350"
 429      BFF0F827 
 429      C9E59D3F 
ARM GAS  /tmp/cclTcGoe.s 			page 34


 429      E08A186B 
 429      71E8
 430 036c 7B700C2D 		.ascii	"{p\014-\016\337\004\037BH\030#^\014\205\302\371\357"
 430      0EDF041F 
 430      42481823 
 430      5E0C85C2 
 430      F9EF
 431 037e EE16FE36 		.ascii	"\356\026\37666\274\021n\331\023\011G\352w\325E\336\334"
 431      36BC116E 
 431      D9130947 
 431      EA77D545 
 431      DEDC
 432 0390 BDE79D50 		.ascii	"\275\347\235PD\331\315uMQ\332\331\030\263[\032\366\362"
 432      44D9CD75 
 432      4D51DAD9 
 432      18B35B1A 
 432      F6F2
 433 03a2 43348698 		.ascii	"C4\206\230S\037\255\213\305jK\301\015\315\221\306\267"
 433      531FAD8B 
 433      C56A4BC1 
 433      0DCD91C6 
 433      B7
 434 03b3 764699A0 		.ascii	"vF\231\240)\332$A-\241z\3657\333\264\355\334"
 434      29DA2441 
 434      2DA17AF5 
 434      37DBB4ED 
 434      DC
 435              		.text
 436              		.section	.gnu.lto_dyn_create_object_heap.c5db887e79e5134d,"",%progbits
 437 0000 789C8D54 		.ascii	"x\234\215T[O\\U\024\336\337^\373\\\346Jb\372T\011%\306"
 437      5B4F5C55 
 437      14DEDF5E 
 437      FB5CE64A 
 437      62FA5409 
 438 0016 09691F98 		.ascii	"\011i\037\230D\037\254\377\300\277\321b\2115UH11\372"
 438      441FACFF 
 438      C0BFD162 
 438      89355548 
 438      3131FA
 439 0029 C2618A22 		.ascii	"\302a\212\"%\255F\323\322\201N\316D\250E\224\002-R\031"
 439      25AD46D3 
 439      D2814ECE 
 439      44A84594 
 439      022D5219 
 440 003d A90E5053 		.ascii	"\251\016PSB\265\"Z\215C\372 \305&S\264\235^55\245\256"
 440      42B5225A 
 440      8D43FA20 
 440      C52653B4 
 440      9D5E3535 
 441 0053 BDCF51B9 		.ascii	"\275\317Q\271\370\340\311\314\231\275\326\376\276\365"
 441      F8E0C9CC 
 441      99BDD6FE 
 441      BEF5
 442 0061 ADCBDE63 		.ascii	"\255\313\336c\011)\032-!v\012!\232\370\213\210\200|"
 442      09291A2D 
 442      21760A21 
 442      9AF88B88 
ARM GAS  /tmp/cclTcGoe.s 			page 35


 442      807C
 443 0073 E792106D 		.ascii	"\347\222\020m\256\204\025,H\332\323$\274\250\2724'\204"
 443      AE84152C 
 443      48DAD324 
 443      BCA8BA34 
 443      2784
 444 0085 1757817F 		.ascii	"\027W\201\177\312\265$\031O\324l\307m\351\236I\263\345"
 444      CAB52419 
 444      4FD46CC7 
 444      6DE99E49 
 444      B3E5
 445 0097 5CA961CB 		.ascii	"\\\251a\313\201\253Qp\001\375\353\271\020\255\222\224"
 445      81AB5170 
 445      01FDEBB9 
 445      10AD9294 
 446 00a7 653B2E5A 		.ascii	"e;.Z%+\232\347m\352&|\333>r\234\016\223O\002\212\315"
 446      252B9AE7 
 446      6DEA267C 
 446      DB3E729C 
 446      0E934F02 
 447 00bd 5B5FF75C 		.ascii	"[_\367\\Mj\023\250e\263\327[\350t\266\237\364\274\214"
 447      4D6A13A8 
 447      65B3D75B 
 447      E874B69F 
 447      F4BC8C
 448 00d0 57ECFEC3 		.ascii	"W\354\376\303\031>=\357E|\222\"\313\360\001T\343$\252"
 448      193E3DEF 
 448      457C9222 
 448      CBF00154 
 448      E324AA
 449 00e3 75DE1F62 		.ascii	"u\336\037b;\2033K\343?\200R\020\274\316_\316\277Zw\302"
 449      3B83334B 
 449      E33F8052 
 449      10BCCE5F 
 449      CEBF5A77 
 450 00f8 F0BEEF26 		.ascii	"\360\276\357&\357I\237\010\203\240\265<v\011|\204:F"
 450      EF499F08 
 450      83A0B53C 
 450      76097C84 
 450      3A46
 451 010a 77BC579A 		.ascii	"w\274W\232K\320\016\303\034\231]\371R\205\324\353\333"
 451      4BD00EC3 
 451      1C995DF9 
 451      5285D4EB 
 451      DB
 452 011b B25E51F9 		.ascii	"\262^Q\371\244\360\361F\256\022\0302\334\367\333._L"
 452      A4F0F146 
 452      AE121832 
 452      DCF7DB2E 
 452      5F4C
 453 012d 50BDE176 		.ascii	"P\275\341v\014\235+'C\356}\177\353\321\003\336s>Y8\265"
 453      0C9D2B27 
 453      43EE7D7F 
 453      EBD103DE 
 453      733E5938 
 454 0142 916C090C 		.ascii	"\221l\011\014\243N3\226\213+K\011z\332\260;\333\016"
 454      A34E3396 
ARM GAS  /tmp/cclTcGoe.s 			page 36


 454      8B2B4B09 
 454      7ADAB03B 
 454      DB0E
 455 0154 E554AACF 		.ascii	"\345T\252\317\260W\375-\357\036\360f=\026\227\030Y\317"
 455      B057FD2D 
 455      EF1EF066 
 455      3D169718 
 455      59CF
 456 0166 D70FC397 		.ascii	"\327\017\303\227FW\217$l\205Q\244\372H\350\226p'N\303"
 456      46578F24 
 456      6C8551A4 
 456      FA48E896 
 456      70274EC3 
 457 017a 06FFF0F6 		.ascii	"\006\377\360\366W\305\316\341(=c\"\257.\224+V\030y\351"
 457      57C5CEE1 
 457      283D6322 
 457      AF2E942B 
 457      561879E9 
 458 018e 71AEA9BD 		.ascii	"q\256\251\275V\307=\2639.\306\220\032^@\321[}\324\301"
 458      56C73DB3 
 458      392EC690 
 458      1A5E40D1 
 458      5B7DD4C1 
 459 01a2 356CFBF3 		.ascii	"5l\373\363\356\225\307\252\300)K\236\0107KA\227m\031"
 459      EE95C7AA 
 459      C0294B9E 
 459      08374B41 
 459      976D19
 460 01b5 1C4F97AB 		.ascii	"\034O\227\253\210\230u\224!v\214_N\334\330\011MI\352"
 460      88987594 
 460      21768C5F 
 460      4EDCD809 
 460      4D49EA
 461 01c8 97100739 		.ascii	"\227\020\0079\263\212-\272x]\261\351\027H\235\322O\275"
 461      B38A2DBA 
 461      785DB1E9 
 461      17489DD2 
 461      4FBD
 462 01da CB15274C 		.ascii	"\313\025'L\351\232_\363w\261\233\246d\222\372\004\251"
 462      E99A5FF3 
 462      77B19BA6 
 462      6492FA04 
 462      A9
 463 01eb 1C4F2BA4 		.ascii	"\034O+\244\366}W\270^\025Rgah\233\006dh\343\232\246"
 463      F67D57B8 
 463      5E155267 
 463      61689B06 
 463      6468E39A 
 464 0200 44199942 		.ascii	"D\031\231Byr&\372O\317\332=~\212\327\006\222\032\241"
 464      797226FA 
 464      4FCFDA3D 
 464      7E8AD706 
 464      921AA1
 465 0213 839BBE65 		.ascii	"\203\233\276e\011k\333:\246\335gas\234Oa\347\310\342"
 465      096BDB3A 
 465      A6DD6761 
 465      739C4F61 
ARM GAS  /tmp/cclTcGoe.s 			page 37


 465      E7C8E2
 466 0226 BDA36F4C 		.ascii	"\275\243oL\177\343\350\323\251\014\364\367\013so\305"
 466      7FE3E8D3 
 466      A90CF4F7 
 466      0B736FC5 
 467 0236 7DE4E093 		.ascii	"}\344\340\223\313B\230\320\302\354?\261\2349\345\244"
 467      CB4298D0 
 467      C2EC3FB1 
 467      9C39E5A4 
 468 0246 87B44AFE 		.ascii	"\207\264J\376\316\241gu\253\013\360q\214\373`\"\342"
 468      CEA16775 
 468      AB0BF071 
 468      8CFB6022 
 468      E2
 469 0257 33A4B998 		.ascii	"3\244\271\230L~\020:\266\226\342\370\234q\027\027\311"
 469      4C7E103A 
 469      B696E2F8 
 469      9C711717 
 469      C9
 470 0268 B78A38E3 		.ascii	"\267\2128\343\007\035\017\317\366#\220\216\256\225\226"
 470      071D0FCF 
 470      F623908E 
 470      AE9596
 471 0277 1BA52339 		.ascii	"\033\245#9\212`\362?\244\007y3\212sF\031\2012#\026\373"
 471      8A60F23F 
 471      A4077933 
 471      8A734619 
 471      81322316 
 472 028c A7FA63AD 		.ascii	"\247\372c\255\017\015\342\003F\330\370\034\351 \255"
 472      0F0DE203 
 472      46D8F81C 
 472      E920AD
 473 029b 2FD02A56 		.ascii	"/\320*V\360f\2761\220\2151zb\342\327E\207\321\256O\261"
 473      F066BE31 
 473      908D317A 
 473      62E2D745 
 473      87D1AE4F 
 474 02b0 2C6B1B5C 		.ascii	",k\033\\\221q\234\025\217\204\021\007\037\374x\330\325"
 474      91719C15 
 474      8F841107 
 474      1FFC78D8 
 474      D5
 475 02c1 89597CDD 		.ascii	"\211Y|\335\247P\355S\\,\243\2754s>\314>\206\035\301"
 475      A750ED53 
 475      5C2CA3BD 
 475      34733ECC 
 475      3E861DC1 
 476 02d5 3CBA7816 		.ascii	"<\272x\026\371\013\246\272By\356j\270\035\377\237\325"
 476      F90BA6BA 
 476      4279EE6A 
 476      B81DFF9F 
 476      D5
 477 02e6 BCE85302 		.ascii	"\274\350S\002\323\246\030\031\266q&lc\315\277]\214\033"
 477      D3A61819 
 477      B671266C 
 477      63CDBF5D 
 477      8C1B
ARM GAS  /tmp/cclTcGoe.s 			page 38


 478 02f8 1D4BF0DF 		.ascii	"\035K\360\337\2169i\2017\2423Z\234\271\337\373T\240"
 478      8E396981 
 478      37A2335A 
 478      9CB9DFFB 
 478      54A0
 479 030a A9B48B9F 		.ascii	"\251\264\213\237{`9K\366\334\234\227LU\245\333;\231"
 479      7B60394B 
 479      F6DC9C97 
 479      4C55A5DB 
 479      3B99
 480 031c 6C07A734 		.ascii	"l\007\2474\223\037\335b\256\223>\037Z\246\326X\343\353"
 480      931FDD62 
 480      AE933E1F 
 480      5AA6D658 
 480      E3EB
 481 032e ACB175D6 		.ascii	"\254\261u\326\250\266\214\322\215\201\270\366\3448\345"
 481      A8B68CD2 
 481      8D81B8F6 
 481      E438E5
 482 033d C9E034DE 		.ascii	"\311\3404\336C\202E\251\347v\005\332e\025\356\314\203"
 482      438245A9 
 482      E77605DA 
 482      6515EECC 
 482      83
 483 034e C51C5192 		.ascii	"\305\034Q\222\264\302\\\203N\256\357x2K\372\310\234"
 483      B4C25C83 
 483      4EAEEF78 
 483      324BFAC8 
 483      9C
 484 035f 37ED2693 		.ascii	"7\355&\2236{\253L\211\256\316\3627\2560\307\263\325"
 484      367BAB4C 
 484      89AECEF2 
 484      37AE30C7 
 484      B3D5
 485 0371 E14D58BB 		.ascii	"\341MX\273\324\36738\216\243o\035\030\302\327\357\211"
 485      D4F73338 
 485      8EA36F1D 
 485      18C2D7EF 
 485      89
 486 0382 FAFA74F0 		.ascii	"\372\372t\360ij\341\317\276\275\273\323-\373\033\322"
 486      696AE1CF 
 486      BEBDBBD3 
 486      2DFB1BD2 
 487 0392 0D2F34EE 		.ascii	"\015/4\356jx\245i\377k\365\015B\275\274\353\245=\364"
 487      6A78A569 
 487      FF6BF50D 
 487      42BDBCEB 
 487      A53DF4
 488 03a5 FCBE66D5 		.ascii	"\374\276f\325\262\367u^\354iF\363_.\310\275\016"
 488      B2F7755E 
 488      EC6946F3 
 488      5F2EC8BD 
 488      0E
 489              		.text
 490              		.section	.gnu.lto_dyn_release_object_heap.part.3.c5db887e79e5134d,"",%progbits
 491 0000 789C8D53 		.ascii	"x\234\215S[KTQ\024^\337Y\3476\342\005\244\227\242\007"
 491      5B4B5451 
ARM GAS  /tmp/cclTcGoe.s 			page 39


 491      145EDF59 
 491      E736E205 
 491      A497A207 
 492 0014 890631C8 		.ascii	"\211\0061\310\211\036\202\336\352\255\277Q:Q`e\026A"
 492      891E82DE 
 492      EAADBF51 
 492      3A516065 
 492      1641
 493 0026 4FEEBC30 		.ascii	"O\356\2740\221\335\243)\245a\006$\272Xf\367\234\262"
 493      91DDA329 
 493      A5610624 
 493      BA5866F7 
 493      9CB2
 494 0038 44894CCA 		.ascii	"D\211L\312\254\240\007%\350b\226Y\251\224\006\226\326"
 494      ACA00725 
 494      E8629659 
 494      A9940696 
 494      D6
 495 0049 DAFB4CD1 		.ascii	"\332\373L\321d\017m\316\314\331k\355o}\373[\227\343"
 495      640F6DCE 
 495      CCD96BED 
 495      6F7DFB5B 
 495      97E3
 496 005b 9045AB6C 		.ascii	"\220E\253l\242\225D\264U~\310!\204\016\366\311\306\262"
 496      A29544B4 
 496      557EC821 
 496      840EF6C9 
 496      C6B2
 497 006d EC2E2695 		.ascii	"\354.&\225\303}\275D*\227\341j\367j\033\236~\357\362"
 497      C37DBD44 
 497      2A97E16A 
 497      F76A1B9E 
 497      7EEFF2
 498 0080 43700CCE 		.ascii	"Cp\014\316\011\016\340Z\226A\346x:,\327\203\037\340"
 498      090EE05A 
 498      9641E678 
 498      3A2CD783 
 498      1FE0
 499 0092 7C406F94 		.ascii	"|@o\224\017\252\266\330\0169\256\347\243\332r)X\007"
 499      0FAAB6D8 
 499      0E39AEE7 
 499      A3DA7229 
 499      5807
 500 00a4 F818A32B 		.ascii	"\370\030\243+6\334n\225\234R\262:\217M\347$T\277\342"
 500      36DC6E95 
 500      9C52B23A 
 500      8F4DE724 
 500      54BFE2
 501 00b7 24133572 		.ascii	"$\0235r\000\302)\224\010\354q]\333\011\336/'\200-\346"
 501      00C22994 
 501      08EC715D 
 501      DB09DE2F 
 501      27802DE6 
 502 00cb C4C3A6D7 		.ascii	"\304\303\246\327\371\332\264P$\346P\347\350\253<\016"
 502      F9DAB450 
 502      24E650E7 
 502      E8AB3C0E 
ARM GAS  /tmp/cclTcGoe.s 			page 40


 503 00db 83643F33 		.ascii	"\203d?3\374\342\256]|R\251\032\3259\024g\2658\311\214"
 503      FCE2AE5D 
 503      7C52A91A 
 503      D5391467 
 503      B538C98C 
 504 00ef B36021C4 		.ascii	"\263`!\304\031,\304i,$q\021ZP,\360\330\221\201\336<"
 504      192CC469 
 504      2C247111 
 504      5A502CF0 
 504      D89181DE 
 505 0104 2E31A16D 		.ascii	".1\241m=\243\277C\247Z\012\343\265jM\222m\234\373;\330"
 505      3DA3BF43 
 505      A75A0AE3 
 505      B56A4D92 
 505      6D9CFB3B 
 506 0119 269C47B1 		.ascii	"&\234G\261\216xuq\366h\236k\007j\321\012\027D\334\314"
 506      8E787571 
 506      F6689E6B 
 506      076AD10A 
 506      1744DCCC 
 507 012d FA28D5F5 		.ascii	"\372(\325\365r)/5\274{\307:\276\333\341f\303\373,1\357"
 507      72292F35 
 507      BC7BC73A 
 507      BEDBE166 
 507      C3FB2C31 
 508 0142 70ADEA51 		.ascii	"p\255\352Q\266\226u!\233\331\344\333\206\260\016\331"
 508      B6967521 
 508      9BD9E4DB 
 508      86B00ED9 
 509 0152 37F3A540 		.ascii	"7\363\245@\207\034V\235\237Z\026\034\252\255\017Bh\016"
 509      871C569D 
 509      9F5A161C 
 509      AAAD0F42 
 509      680E
 510 0164 FE22C217 		.ascii	"\376\"\302\027\236@\251\331\0371\245\322+\012s\001\235"
 510      9E40A9D9 
 510      1F31A5D2 
 510      2B0A7301 
 510      9D
 511 0175 9A253A1D 		.ascii	"\232%:\035\326\177\266\341t\2405\273:u\3178\210\366"
 511      D67FB6E1 
 511      74A035BB 
 511      3A75CF38 
 511      88F6
 512 0187 88E87197 		.ascii	"\210\350q\227\032\330\"i\037\017\241n\240{*\261Ln\377"
 512      1AD82269 
 512      1F0FA16E 
 512      A07B2AB1 
 512      4C6EFF
 513 019a A23E4FF8 		.ascii	"\242>O\370\274\334\210\237\210u\214\345e\304\033%\277"
 513      BCDC889F 
 513      88758CE5 
 513      65C41B25 
 513      BF
 514 01ab C45F9A2B 		.ascii	"\304_\232+^\340\315O\323\357\0132\360\036\030\350\234"
 514      5EE0CD4F 
 514      D3EF0B32 
ARM GAS  /tmp/cclTcGoe.s 			page 41


 514      F01E18E8 
 514      9C
 515 01bc 0A66A041 		.ascii	"\012f\240A\361\352L\353\247\316\025\002W\020\306eQ\246"
 515      F1EA4CEB 
 515      A7CE1502 
 515      5710C665 
 515      51A6
 516 01ce 0BD9C8F8 		.ascii	"\013\331\310\370\243\300F0\256BF\007\327\340&\030\011"
 516      A3C04630 
 516      AE424607 
 516      D7E02618 
 516      09
 517 01df 51ADD71E 		.ascii	"Q\255\327\036\251I\352\036q\203t\245\225y\0045\351\221"
 517      A949EA1E 
 517      718374A5 
 517      95790435 
 517      E991
 518 01f1 77AFF303 		.ascii	"w\257\363\003\224\036\260x}\327#O\217J@\370\365^\357"
 518      941EB078 
 518      7DD7234F 
 518      8F4A40F8 
 518      F55EEF
 519 0204 EEDC2412 		.ascii	"\356\334$\022H\262\246\301u\255G\374'\207jZ\275\310"
 519      48B2A6C1 
 519      75AD47FC 
 519      27876A5A 
 519      BDC8
 520 0216 792DA648 		.ascii	"y-\246H\212\206\033H\342\270\024\310\\\212vDH\250\343"
 520      8A861B48 
 520      E2B814C8 
 520      5C8A7644 
 520      48A8E3
 521 0229 F79768E2 		.ascii	"\367\227h\34294\366\277hR\2335O:\213\347&\"\242\312"
 521      3934F6BF 
 521      68529B35 
 521      4F3A8BE7 
 521      2622A2CA 
 522 023d C80E49ED 		.ascii	"\310\016I\355E\265\243_4\011/\301Nh`\252\337\222~\270"
 522      45B5A35F 
 522      34092FC1 
 522      4E6860AA 
 522      DF927EB8 
 523 0251 249F0DBF 		.ascii	"$\237\015\277\201e\032%\364d\322z\336\355\005iY\377"
 523      81651A25 
 523      F464D27A 
 523      DEED0569 
 523      59FF
 524 0263 27C0E471 		.ascii	"'\300\344q+\353\376\016\311C\372<\330\375\000\031*\271"
 524      2BEBFE0E 
 524      C943FA3C 
 524      D8FD0019 
 524      2AB9
 525 0275 56977112 		.ascii	"V\227q\022\266\030\234\376\326/\225\365\304\325 c\""
 525      B6189CFE 
 525      D62F95F5 
 525      C4D52063 
 525      22
ARM GAS  /tmp/cclTcGoe.s 			page 42


 526 0286 CADEA026 		.ascii	"\312\336\240&u3>\337\214\266n\015\211\243\310XW\262"
 526      75333EDF 
 526      8CB66E0D 
 526      89A3C858 
 526      57B2
 527 0298 ACB62C4B 		.ascii	"\254\266,K\346\217h\024u\251;qG;\264\260\366\366\017"
 527      E68F6814 
 527      75A93B71 
 527      473BB4B0 
 527      F6F60F
 528 02ab 835EF58C 		.ascii	"\203^\365\214\362\223\3545\352\346\3416\252)\301n\222"
 528      F293EC35 
 528      EAE6E136 
 528      AA29C16E 
 528      92
 529 02bc 7D7DBFEE 		.ascii	"}}\277\356\206\235\236\0367-q\233f\373!\032|\255\341"
 529      869D9E1E 
 529      372D719B 
 529      66FB211A 
 529      7CADE1
 530 02cf A368781B 		.ascii	"\243hx\033\207!\012Z\016q\013\303\242\322\322H\360l"
 530      87210A5A 
 530      0E710BC3 
 530      A2D2D248 
 530      F06C
 531 02e1 D9264FC5 		.ascii	"\331&O\305\306u\221mUe\221\262\015\353\327\226m\337"
 531      C675916D 
 531      556591B2 
 531      0DEBD796 
 531      6DDF
 532 02f3 52B5B3B4 		.ascii	"R\265\263\264\214\270<Z\311\345\025\225veUt\207\027"
 532      8CB83C5A 
 532      C9E51595 
 532      76655574 
 532      8717
 533 0305 AD886E8A 		.ascii	"\255\210n\212n\336\376\023\221\313h\002"
 533      6EDEFE13 
 533      91CB6802 
 534              		.text
 535              		.section	.gnu.lto__factory_init.c5db887e79e5134d,"",%progbits
 536 0000 789CA597 		.ascii	"x\234\245\227\3573\\W\034\306\357\367\234\265\273~\256"
 536      EF335C57 
 536      1CC6EFF7 
 536      9CB5BB7E 
 536      AE
 537 0011 A67DD199 		.ascii	"\246}\321\231\232\251\351\304\264f:v\332\327\231\351"
 537      9AA9E9C4 
 537      B4663A76 
 537      DAD799E9 
 538 0021 FFD0FF20 		.ascii	"\377\320\377 E'f(\245\355L\373\306\022B\250\037\255"
 538      45276628 
 538      A5ED4CFB 
 538      C61242A8 
 538      1FAD
 539 0033 84AC862B 		.ascii	"\204\254\206+\226\240\210U\025$\305F\020A$\2044\241"
 539      96A08855 
 539      1524C546 
ARM GAS  /tmp/cclTcGoe.s 			page 43


 539      10412484 
 539      34A1
 540 0045 49936CA9 		.ascii	"I\223l\251\037\241\021\251D\310\3529\347\336\323\356"
 540      1FA111A9 
 540      44C8EA39 
 540      E7DED3EE 
 541 0055 B2E7E6AA 		.ascii	"\262\347\346\252\235\335\341\336\263\367\234\347\373"
 541      9DDDE1DE 
 541      B3F79CE7 
 541      FB
 542 0062 7CCE79BE 		.ascii	"|\316y\276\004HH\362\204K\322aI\222\336\"\037\300\022"
 542      044848F2 
 542      844BD261 
 542      4992DE22 
 542      1FC012
 543 0075 A0E23149 		.ascii	"\240\3421I\3120#\000\372\213\315\014R:\202t(\302e\030"
 543      CA302300 
 543      FA8BCD0C 
 543      523A8274 
 543      28C26518 
 544 0089 FA72E6BA 		.ascii	"\372r\346\272Pt\235\215\274\\e\323\226c\266\3547e,I"
 544      50749D8D 
 544      BC5C65D3 
 544      9663B6EC 
 544      37652C49 
 545 009d 76F2A12F 		.ascii	"v\362\241/\250\203h\211|\355a\253\347d\250\321\240\334"
 545      A8836889 
 545      7CED61AB 
 545      E764A8D1 
 545      A0DC
 546 00af 877A3002 		.ascii	"\207z0\002\371\3312\001.\233g;\307\346\232t\300\314"
 546      F9D93201 
 546      2E9B673B 
 546      C7E69A74 
 546      C0CC
 547 00c1 C7C19294 		.ascii	"\307\301\222\224G\206\351\032\371\030\321\237x\011\262"
 547      4786E91A 
 547      F918D19F 
 547      7809B2
 548 00d0 AADC32A6 		.ascii	"\252\3342\246\017\320Y\272\272\036\315\230\322_\332"
 548      0FD059BA 
 548      BA1ECD98 
 548      D25FDA
 549 00df CCE4961D 		.ascii	"\314\344\226\035\223)\240\001\322\351@iv\337uS!\226"
 549      9329A001 
 549      D2E94069 
 549      76DF7553 
 549      2196
 550 00f1 31821DDF 		.ascii	"1\202\035\337C\016\272\"\271\2678:\325\037$C\005\310"
 550      430EBA22 
 550      B9B7383A 
 550      D51F2443 
 550      05C8
 551 0103 18432391 		.ascii	"\030C#\221\377#D\260\201\302N\347q\263\265\231VP\365"
 551      FF2344B0 
 551      81C24EE7 
 551      71B3B599 
ARM GAS  /tmp/cclTcGoe.s 			page 44


 551      5650F5
 552 0116 828C1AA0 		.ascii	"\202\214\032\240\011d8\305\012 \303\3717z\212\302\310"
 552      096438C5 
 552      0A20C3F9 
 552      377A8AC2 
 552      C8
 553 0127 5CB96438 		.ascii	"\\\271d8L\306\001\320\014V\246\007\316A\272\214\215"
 553      4CC601D0 
 553      0C56A607 
 553      CE41BA8C 
 553      8D
 554 0138 D22C6446 		.ascii	"\322,dF\322\033\344\273\343Y\316\323\230\3120\201\201"
 554      D21BE4BB 
 554      E359CED3 
 554      98CA3081 
 554      81
 555 0149 5CAE5E2B 		.ascii	"\\\256^+w\207\321K3D\222\313\234\222\351\341P\034\305"
 555      7787D14B 
 555      334492CB 
 555      9C92E9E1 
 555      501CC5
 556 015c 143A6E5E 		.ascii	"\024:n^X\264D9l\266L\233k\245'\304nseE\3128\020Z\001"
 556      58B44439 
 556      6CB64C9B 
 556      6BA527C4 
 556      6E736545 
 557 0175 138BC009 		.ascii	"\023\213\300\011\021\320B\365Q\267~\202(=5\265\011j"
 557      11D042F5 
 557      51B77E82 
 557      283D35B5 
 557      096A
 558 0187 DA940FC9 		.ascii	"\332\224\017\3118\010~fE\201\337\242\002\241\235\027"
 558      38087E66 
 558      4581DFA2 
 558      02A19D17 
 559 0197 759E18BA 		.ascii	"u\236\030\272\000\231\345\013\235\016\323\277\334\262"
 559      0099E50B 
 559      9D0ED3BF 
 559      DCB2
 560 01a5 18DEF55E 		.ascii	"\030\336\365^#\325\302\360\331\011 /\254\320A\236\225"
 560      23D5C2F0 
 560      D909202F 
 560      ACD0419E 
 560      95
 561 01b6 A093B970 		.ascii	"\240\223\271pqmk\004\321\262\003!\\ \374\314\371\276"
 561      716D6B04 
 561      D1B20321 
 561      5C20FCCC 
 561      F9BE
 562 01c8 66A4080F 		.ascii	"f\244\010\017\202\013Dx\227*\374\322\362\203\3540U\270"
 562      820B4478 
 562      972AFCD2 
 562      F283EC30 
 562      55B8
 563 01da BBC028E3 		.ascii	"\273\300(\343`\270\310\204#e\015\370\005\254z\314\350"
 563      60B8C884 
 563      23650DF8 
ARM GAS  /tmp/cclTcGoe.s 			page 45


 563      05AC7ACC 
 563      E8
 564 01eb D636A347 		.ascii	"\3266\243G\323\214^n\206\213\230\301\361\262\322\275"
 564      D38C5E6E 
 564      868B98C1 
 564      F1B2D2BD 
 565 01fb 61CF770E 		.ascii	"a\317w\016\346\232q4\303\331\223[U\026\260\013g\010"
 565      E69A7134 
 565      C3D9935B 
 565      5516B00B 
 565      6708
 566 020d 5CF283B3 		.ascii	"\\\362\203\263O\037\316\313\202\012\266\345\217d\034"
 566      4F1FCECB 
 566      820AB6E5 
 566      8F641C
 567 021c 0AFDAC02 		.ascii	"\012\375\254\002\354\267\202\020\030\340\025\014*\025"
 567      ECB78210 
 567      18E0150C 
 567      2A15
 568 022a 546DBCAD 		.ascii	"Tm\274\255\252\256\316\230\032\011\305\3573\325\245"
 568      AAAECE98 
 568      1A09C5EF 
 568      33D5A5
 569 0239 F3CF3DA6 		.ascii	"\363\317=\246]\252\303\340\212\037\325CL\365\352VEG"
 569      5DAAC3E0 
 569      8A1FD543 
 569      4CF5EA56 
 569      4547
 570 024b 20456B81 		.ascii	" Ek\2017\340*\031\243so*\007\224\014\317T\016.\204\340"
 570      37E02A19 
 570      A3736F2A 
 570      07940CCF 
 570      540E2E84 
 571 0260 0FD8E413 		.ascii	"\017\330\344\023\355\271\033\306]\223\207\303\260\237"
 571      EDB91BC6 
 571      5D9387C3 
 571      B09F
 572 026e C9477C2C 		.ascii	"\311G|,\311eU\222E^\263c\345\350\303()c\011r\356/\224"
 572      C9655592 
 572      455EB363 
 572      E5E8C328 
 572      29630972 
 573 0285 7CBE6353 		.ascii	"|\276cS\226x,\364q\252\217:\253nN\203\317\346\274\306"
 573      96782CF4 
 573      71AA8F3A 
 573      AB6E4E83 
 573      CFE6BCC6 
 574 0299 36E7D8AE 		.ascii	"6\347\330\256\0149`'\307\231\016\302u%F^\011\345\206"
 574      0C396027 
 574      C7990EC2 
 574      7525465E 
 574      09E586
 575 02ac 008A0728 		.ascii	"\000\212\007(\223qM&\023\234\311M2\011\361\316;/,`\200"
 575      93714D26 
 575      139CC94D 
 575      3209F1CE 
 575      3B2F2C60 
ARM GAS  /tmp/cclTcGoe.s 			page 46


 576 02c1 4976CBCB 		.ascii	"Iv\313\313\204Ho\007\246h\330\274\376\337n\354\363\336"
 576      84486F07 
 576      A668D8BC 
 576      FEDF6EEC 
 576      F3DE
 577 02d3 8DB47AAF 		.ascii	"\215\264z\257\253\221\035;u/asK\337\356\374U`D[\015"
 577      AB911D3B 
 577      752F6173 
 577      4BDFEEFC 
 577      5560445B 
 578 02e8 3B5FB799 		.ascii	";_\267\231\023\006\301\371\272\303\235\230\026\207\315"
 578      1306C1F9 
 578      BAC39D98 
 578      1687CD
 579 02f7 DC90916A 		.ascii	"\334\220\221j\361\03363\214\347o\254\266+\217\235\366"
 579      F11B3633 
 579      8CE76FAC 
 579      B62B8F9D 
 579      F6
 580 0308 30256C0E 		.ascii	"0%l\016\012\204\327n\324\017\030x\330\334#\302\357\252"
 580      0A84D76E 
 580      D40F1878 
 580      D8DC23C2 
 580      EFAA
 581 031a C26B276E 		.ascii	"\302k'n\267\231|\303\346w\0366t\015\270\257/l\036h\233"
 581      B7997CC3 
 581      E6771E36 
 581      740DB8AF 
 581      2F6C1E68 
 582 032f F150D30C 		.ascii	"\361P\323\01477\343\017\357\260\271\265\017\204\263"
 582      3737E30F 
 582      EFB0B9B5 
 582      0F84B3
 583 033e FA10CE09 		.ascii	"\372\020\316\011T\367*\252\377d\252\003\004\252\347"
 583      54F72AAA 
 583      FF64AA03 
 583      04AAE7
 584 034d B9EA0531 		.ascii	"\271\352\0051B\017A8+@\270\310\020.\261\332\332G\\\323"
 584      420F4138 
 584      2B40B8C8 
 584      102EB1DA 
 584      DA475CD3 
 585 0361 2605E17B 		.ascii	"&\005\341{\002\341\365[\353\215!\034\3412\021\376H\025"
 585      02E1F55B 
 585      EB8D211C 
 585      E13211FE 
 585      4815
 586 0373 7EB6A9CF 		.ascii	"~\266\251\317i\361E\270\302\021\3225\340/}\010\037k"
 586      69F145B8 
 586      C211D235 
 586      E02F7D08 
 586      1F6B
 587 0385 9BB1AA69 		.ascii	"\233\261\252i\306\023n\306\2327\302\331\035\010\367"
 587      C6136EC6 
 587      9A37C2D9 
 587      1D08F7
 588 0394 D2239EEA 		.ascii	"\322#\236\352C\370\267@\265\273\206\365\210u\246\332"
ARM GAS  /tmp/cclTcGoe.s 			page 47


 588      43F8B740 
 588      B5BB86F5 
 588      8875A6DA 
 589 03a4 28C8A367 		.ascii	"(\310\243g\\\365s\265Gt\037T\225\356\245/l0\245\235"
 589      5CF573B5 
 589      47741F54 
 589      95EEA52F 
 589      6C30A59D 
 590 03b8 DDCB1F2A 		.ascii	"\335\313\037*9\026\001/\324\266\320[\303\333\302^Z\301"
 590      3916012F 
 590      D4B6D05B 
 590      C3DBC25E 
 590      5AC1
 591 03ca E6AE56E0 		.ascii	"\346\256V\340\256\361i\005[\342V\340<@\037\247\222\250"
 591      AEF16905 
 591      5BE256E0 
 591      3C401FA7 
 591      92A8
 592 03dc 817E5BC1 		.ascii	"\201~[\301K\266\357<\376[\001\035\204m\235\255\300\206"
 592      4BB6EF3C 
 592      FE5B011D 
 592      846D9DAD 
 592      C086
 593 03ee B45A4106 		.ascii	"\264ZA\006\322\262>\023\251\326\037%\223\020\277^\221"
 593      D2B23E13 
 593      A9D61F25 
 593      9310BF5E 
 593      91
 594 03ff FD59C837 		.ascii	"\375Y\3107\373\237\372\244\375\206\317\325\346>\202"
 594      FB9FFAA4 
 594      FD86CFD5 
 594      E63E82
 595 040e 231BE9DA 		.ascii	"#\033\351\332u\307\004\225?S\316J\016+\335$8+\271\274"
 595      75C70495 
 595      3F53CE4A 
 595      0E2BDD24 
 595      382BB9BC 
 596 0422 F4E34818 		.ascii	"\364\343H\030\034+W\215T\213\337\340\310C\024`>\242"
 596      1C2B578D 
 596      548BDFE0 
 596      C8431460 
 596      3EA2
 597 0434 B50DDEED 		.ascii	"\265\015\336\355(S\377\320<$\020\236\2351\276\206yp"
 597      2853FFD0 
 597      3C24109E 
 597      9D31BE86 
 597      7970
 598 0446 1410E1DF 		.ascii	"\024\020\341\337\"Exe\373\344\023\243op\024\"58\350"
 598      22457865 
 598      FBE413A3 
 598      6F701422 
 598      3538E8
 599 0459 1A508474 		.ascii	"\032P\204t\005G\261\266\031\337i\232\361=7\243\004y"
 599      0547B1B6 
 599      19DF699A 
 599      F13D37A3 
 599      0479
ARM GAS  /tmp/cclTcGoe.s 			page 48


 600 046b 05072DFD 		.ascii	"\005\007-\375\377\"<\241\017\341I\201jG-S]\312T\233"
 600      FF223CA1 
 600      0FE14981 
 600      6A472D53 
 600      5DCA549B 
 601 047f 05AACBB8 		.ascii	"\005\252\313\270\352Sb\204\203\303F\252\305/B;CX\316"
 601      EA536284 
 601      83C346AA 
 601      C52F423B 
 601      4358CE
 602 0492 1056AF1F 		.ascii	"\020V\257\037-\010V\020\272D\307n\253\272t5\2303<M\224"
 602      2D085610 
 602      BA44C76E 
 602      ABBA7435 
 602      98333C4D 
 603 04a7 FFA0326C 		.ascii	"\377\2402l^)h@\276\014+8C\272\010T\352c(k\273Q\245\351"
 603      5E296840 
 603      BE0C2B38 
 603      43BA0854 
 603      EA63286B 
 604 04bf C619EE46 		.ascii	"\306\031\356F\2657\303\023\373`\350\320\307\260F\240"
 604      B537C313 
 604      FB60E8D0 
 604      C7B046A0 
 605 04cf BA45515D 		.ascii	"\272EQ]\313T\007\012T\237\345\252\353\304\014\357\021"
 605      CB54070A 
 605      549FE5AA 
 605      EBC40CEF 
 605      11
 606 04e0 860E01C3 		.ascii	"\206\016\001\303z\306\260\2011\034(h\033U\031\366\213"
 606      7AC6B081 
 606      311C2868 
 606      1B5519F6 
 606      8B
 607 04f1 183ACAD7 		.ascii	"\030:\312\327\312,\234a#U\2562\\\032\272\263\363o\260"
 607      CA2C9C61 
 607      2355AE32 
 607      5C1ABAB3 
 607      F36FB0
 608 0504 26CE902E 		.ascii	"&\316\220.\002\315\372\030\236\323v\243E\323\015'w\243"
 608      02CDFA18 
 608      9ED376A3 
 608      45D30D27 
 608      77A3
 609 0516 D59B21AD 		.ascii	"\325\233!\255]Z&\235\254\243\026\3300}\345\221\377\032"
 609      5D5A269D 
 609      ACA316D8 
 609      307DE591 
 609      FF1A
 610 0528 8BC72424 		.ascii	"\213\307$$I\357\304\304X\225wr\032y'&|bMK\215\265\306"
 610      49EFC4C4 
 610      58957772 
 610      1A792726 
 610      7C624D4B 
 611 053f 1EF9F470 		.ascii	"\036\371\364p\354\027\311\251_\307\304J8.1\005%\245"
 611      EC17C9A9 
 611      5FC7C44A 
ARM GAS  /tmp/cclTcGoe.s 			page 49


 611      382E3105 
 611      25A5
 612 0551 18D212BE 		.ascii	"\030\322\022\276\2117\247\244&\177\225\020\027\237\372"
 612      8937A7A4 
 612      267F9510 
 612      179FFA
 613 0560 EEEEE712 		.ascii	"\356\356\347\022>\213M\3742.\236<\233\024\237\224\222"
 613      3E8B4DFC 
 613      322E9E3C 
 613      9B149F94 
 613      92
 614 0571 9C9C9816 		.ascii	"\234\234\230\026sD\372\007\277z\266\346"
 614      7344FA07 
 614      BF7AB6E6 
 615              		.text
 616              		.section	.gnu.lto_chFactoryRegisterObject.c5db887e79e5134d,"",%progbits
 617 0000 789C8D53 		.ascii	"x\234\215S]K\024a\024~\2379\343\316\272\255\037Q\027"
 617      5D4B1461 
 617      147E9F39 
 617      E3CEBAAD 
 617      1F5117
 618 0013 11121289 		.ascii	"\021\022\022\211\330\205\013A\377\241\013\377\204.E"
 618      D8850B41 
 618      FFA10BFF 
 618      842E45
 619 0022 45B5A241 		.ascii	"E\265\242At\265\257\353V\253\202\012\221\246\271\314"
 619      74B5AFEB 
 619      56AB820A 
 619      91A6B9CC 
 620 0032 82E4F6E5 		.ascii	"\202\344\366\345wm~gj\032\241e\226\336H]h]l\326E\031"
 620      776D7E67 
 620      6A1AA165 
 620      96DE485D 
 620      685D6CD6 
 621 0048 0A455BE7 		.ascii	"\012E[\347\235Y--\315a\206\231\367=\3479\347y\237\363"
 621      9D592D2D 
 621      CD618699 
 621      F73DE739 
 621      E7799FF3 
 622 005c 4C8AD044 		.ascii	"L\212\320D\201.\304\021!\304Q~\220\"\240\325>\027\242"
 622      812EC411 
 622      21C4517E 
 622      9022A0D5 
 622      3E17A2
 623 006f CCA969D4 		.ascii	"\314\251i\3248.\204t\351+\206\220n\202n\357\353\200"
 623      382E8474 
 623      E92B8690 
 623      6E826EEF 
 623      EB80
 624 0081 FA904E08 		.ascii	"\372\220N\010\277F:\374\250\241z\302\313`G\023U\223"
 624      BF463AFC 
 624      A8A17AC2 
 624      CB604713 
 624      5593
 625 0093 49023A2F 		.ascii	"I\002:/?O5.\246\253%\220\315\313\033r\246\302\310\213"
 625      3F4F352E 
 625      A6AB2590 
ARM GAS  /tmp/cclTcGoe.s 			page 50


 625      CDCB1B72 
 625      A6C2C88B 
 626 00a7 4A1990C3 		.ascii	"J\031\220\303\365M{\332\272\246e\252I\232h\340\364["
 626      F54D7BDA 
 626      BAA665AA 
 626      499A68E0 
 626      F45B
 627 00b9 C8421459 		.ascii	"\310B\024Y\252\373m\344qr`!6\007\312\201\340\357\310"
 627      AAFB6DE4 
 627      71726021 
 627      3607CA81 
 627      E0EFC8
 628 00cc 6CE442EE 		.ascii	"l\344B\356M\013\367\272\236\344!\223\010w@\177\342x"
 628      4D0BF7BA 
 628      9EE42193 
 628      0877407F 
 628      E278
 629 00de 4BE02E72 		.ascii	"K\340.r9;\036\254\015e\320a\0139\027~;\340JB\023\223"
 629      393B1EAC 
 629      0D65D061 
 629      0B39177E 
 629      3BE04A42 
 630 00f4 FBEACAE5 		.ascii	"\373\352\312\3451\223\351\336\333\014\326\005Z\221\253"
 630      3193E9DE 
 630      DB0CD605 
 630      5A91AB
 631 0103 10B150DF 		.ascii	"\020\261P\3372\310c\241W\276\214\274\322r\232-\364\370"
 631      32C863A1 
 631      57BE8CBC 
 631      D2729A2D 
 631      F4F8
 632 0115 54E6D572 		.ascii	"T\346\325r\371T\352\314\030m\033\361\352\342\364\205"
 632      F954EACC 
 632      186D1BF1 
 632      EAE2F485 
 633 0125 CEC4B534 		.ascii	"\316\304\2654\207\216v\344\2503\361Q:\340\000\277\324"
 633      878E76E4 
 633      A833F151 
 633      3AE000BF 
 633      D4
 634 0136 4EFB0C86 		.ascii	"N\373\014\206e\342\347\025\346Q\360\355\353\352^\027"
 634      65E2E715 
 634      E651F0ED 
 634      EBEA5E17 
 635 0146 4BC87C1D 		.ascii	"K\310|\035B\005\015X\355E%\243\224\256U\254\012\277"
 635      42050D58 
 635      ED4525A3 
 635      94AE55AC 
 635      0ABF
 636 0158 6909C1C8 		.ascii	"i\011\301\310R\013\251:\252Ao\357\307y\303\377C:MJi"
 636      520BA93A 
 636      AA416FEF 
 636      C779C3FF 
 636      433A4D4A 
 637 016d 2055B913 		.ascii	" U\271\023~\025\250\2734\362\302PB;\260)\317\321L6\271"
 637      7E15A8BB 
 637      34F2C250 
ARM GAS  /tmp/cclTcGoe.s 			page 51


 637      423BB029 
 637      CFD14C36 
 638 0182 0F93B363 		.ascii	"\017\223\263c.\023a\230d\240\233\007\326\245\210s\240"
 638      2E136198 
 638      64A09B07 
 638      D6A58873 
 638      A0
 639 0193 BAA7A3C2 		.ascii	"\272\247\243\302\351i\225|e\233\344\304}\230\270N\311"
 639      E969957C 
 639      659BE4C4 
 639      7D98B84E 
 639      C9
 640 01a4 23554D0F 		.ascii	"#UM\017\325\244s\245\220\025L\305\003x,2\210\301o\222"
 640      D5A473A5 
 640      90154CC5 
 640      03782C32 
 640      88C16F92 
 641 01b8 4B2CE172 		.ascii	"K,\341rd\271\305P{arll\275\253\201O!\360\220)\206I\337"
 641      64B9C550 
 641      7B61726C 
 641      6CBDAB81 
 641      4F21F090 
 642 01d0 09AD9E7F 		.ascii	"\011\255\236\177\323\212\254\266T\202\023\334\350\265"
 642      D38AACB6 
 642      548213DC 
 642      E8B5
 643 01de B8E12F6E 		.ascii	"\270\341/n\314\201\347\232\206\2765z\375\360\357\244"
 643      CC81E79A 
 643      86BE357A 
 643      FDF0EFA4 
 644 01ee E1C0160D 		.ascii	"\341\300\026\015\277\333\015\3231h5\324\266h\230\201"
 644      BFDB0DD3 
 644      316835D4 
 644      B6689881 
 645 01fe A1B5868F 		.ascii	"\241\265\206\217\224\036\231\342=\002\221\003\326\330"
 645      941E99E2 
 645      3D029103 
 645      D6D8
 646 020c 79AAAC88 		.ascii	"y\252\254\210x\207\340\374hb\312\375[\241\365Yi\020"
 646      7887E0FC 
 646      6862CAFD 
 646      5BA1F559 
 646      6910
 647 021e 184EBAA7 		.ascii	"\030N\272\247\212\355\313?\032\305\021h\214\307\343"
 647      8AEDCB3F 
 647      1AC51168 
 647      8CC7E3
 648 022d 96A09CBB 		.ascii	"\226\240\234\273:\361,\344f\262e\212T\021\373t7\327"
 648      3AF12CE4 
 648      66B2658A 
 648      5411FB74 
 648      37D7
 649 023f B0411C7D 		.ascii	"\260A\034}3\270\030\243\365\311\351xl\221\265\2147\002"
 649      33B818A3 
 649      F5C9E978 
 649      6C91B58C 
 649      3702
ARM GAS  /tmp/cclTcGoe.s 			page 52


 650 0251 4F980CAB 		.ascii	"O\230\014\253\260\276\356\244\356\350\026Nb\010Fm'\375"
 650      B0BEEEA4 
 650      EEE8164E 
 650      6208466D 
 650      27FD
 651 0263 57B2B16D 		.ascii	"W\262\261m\254\363d;\353\214\257I5a[\347\023K\325\037"
 651      ACF3643B 
 651      EB8CAF49 
 651      35615BE7 
 651      134BD51F 
 652 0277 DD9F1446 		.ascii	"\335\237\024F\201*y\262\314\225\325>\230\237\357\261"
 652      812A79B2 
 652      CC95D53E 
 652      989FEFB1 
 653 0287 6F5F29DF 		.ascii	"o_)\337gN\025yJK\274\036\357\311\023\205\336\363\276"
 653      674E1579 
 653      4A4BBC1E 
 653      EFC91385 
 653      DEF3BE
 654 029a 928BF95E 		.ascii	"\222\213\371^\241\237+<{\\\367\025\235.\246\022_\361"
 654      A19F2B3C 
 654      7B5CF715 
 654      9D2EA612 
 654      5FF1
 655 02ac 2F3F237A 		.ascii	"/?#zn"
 655      6E
 656              		.text
 657              		.section	.gnu.lto_chFactoryFindObject.c5db887e79e5134d,"",%progbits
 658 0000 789C8D91 		.ascii	"x\234\215\221\333KTQ\024\306\327w\326\2319G\033\245"
 658      DB4B5451 
 658      14C6D777 
 658      D6993947 
 658      1BA5
 659 0012 977A2809 		.ascii	"\227z(\011\211\0061h\316\277\323\253\015EA51\006\321"
 659      89063168 
 659      CEBFD3AB 
 659      0D454135 
 659      3106D1
 660 0025 D3D94D4A 		.ascii	"\323\331MJ^@\203H\233r\330\207\244\3542\352h69V2H\017"
 660      5E408348 
 660      9B72D887 
 660      A4EC32EA 
 660      68363956 
 661 003c 3D7431CB 		.ascii	"=t1\313\010z3\"\310\"\272`/5\266\366\031\205\354bm\366"
 661      087A3322 
 661      C822BA60 
 661      2F35B6F6 
 661      1985EC62 
 662 0052 61DFBEB5 		.ascii	"a\337\276\265\326o}'B\026\305\230h\027\021m\225\017"
 662      D66F7D27 
 662      4216C598 
 662      6817116D 
 662      950F
 663 0064 4CB04E3F 		.ascii	"L\260N?\":\341Z\200\331(\027\344[\360\321\313\375\214"
 663      223AE15A 
 663      80D92817 
 663      E45BF0D1 
ARM GAS  /tmp/cclTcGoe.s 			page 53


 663      CBFD8C
 664 0077 276D8501 		.ascii	"'m\205\001\356a-2[\216\037\037\236\177Uo\216@\243\034"
 664      EE612D32 
 664      5B8E1F1F 
 664      9E7F556F 
 664      8E40A31C 
 665 008b 2FA8B94E 		.ascii	"/\250\271N\247yH\251\214*\367\017l\036\031\237U5\232"
 665      A77948A9 
 665      8C2AF70F 
 665      6C1E199F 
 665      55359A
 666 009e 2DCA8AFC 		.ascii	"-\312\212\374\012\0320\204\006S\343*\232E\234Y(>\007"
 666      0A1A3084 
 666      0653E32A 
 666      9A459C59 
 666      283E07
 667 00b1 C741B20F 		.ascii	"\307A\262\017\346\203cM\227\302\270/}\254vhf\\\003\377"
 667      E683634D 
 667      97C2B82F 
 667      7DAC7668 
 667      665C03FF 
 668 00c5 1C275784 		.ascii	"\034'W\204\353h2\362b\307\324g\360\3160t\351\323\314"
 668      EB6832F2 
 668      62C7D467 
 668      F0CE3074 
 668      E9D3CC
 669 00d8 532B3E18 		.ascii	"S+>\030\306V^l<sR\335W\266\024E~m\274\031\"_\030\253"
 669      C6565E6C 
 669      3C7352DD 
 669      57B61445 
 669      7E6DBC19 
 670 00f0 9CAD8BDA 		.ascii	"\234\255\213\332\030F\334`\011\315\010\242\220\305\334"
 670      1846DC60 
 670      09CD08A2 
 670      90C5DC
 671 00ff 8CCEA1AC 		.ascii	"\214\316\241\254*\313\247Tyi\367\267\211g\233\034\351"
 671      2ACBA754 
 671      7969F7B7 
 671      89679B1C 
 671      E9
 672 0110 4B4A4628 		.ascii	"KJF(\224S\227\350\215%\335\322\222\254\274\210\266\340"
 672      945397E8 
 672      8D25DDD2 
 672      92ACBC88 
 672      B6E0
 673 0122 4D9E4D06 		.ascii	"M\236M\006\223\272Tz\367\322\361\277+W\263\235e\223"
 673      93BA547A 
 673      F7D2F1BF 
 673      2B57B39D 
 673      6593
 674 0134 7314BE79 		.ascii	"s\024\276y\350k\237y\354\030\227\"\370E\027\031\344"
 674      E86B9F79 
 674      EC189722 
 674      F8451719 
 674      E4
 675 0145 2AD6DB07 		.ascii	"*\326\333\007\363\367j5r\320\034\305\230\270]0\310\362"
 675      F3F76A35 
ARM GAS  /tmp/cclTcGoe.s 			page 54


 675      72D01CC5 
 675      98B85D30 
 675      C8F2
 676 0157 D03359E8 		.ascii	"\3203Y\350t\275a%\243Q\263\203qh\234\343\225f\272g\247"
 676      74BD6125 
 676      A351B383 
 676      71689CE3 
 676      9566BA67 
 677 016c 7BEB2553 		.ascii	"{\353%SG\370\350\342\006\274\020\006\023\3605\327\320"
 677      47F8E8E2 
 677      06BC1006 
 677      13F035D7 
 677      D0
 678 017d 22DA830F 		.ascii	"\"\332\203\017y\307\334\3458\262\266tmV\272 \334\024"
 678      79C7DCE5 
 678      38B2B674 
 678      6D56BA20 
 678      DC14
 679 018f C41CF3FF 		.ascii	"\304\034\363\377`\025\377\214\025\\\216i\336\200[!\030"
 679      6015FF8C 
 679      155C8E69 
 679      DE805B21 
 679      18
 680 01a0 7E030B2E 		.ascii	"~\003\013.Z\232c\230\\E+\031\264:z\215L\260-\364^\254"
 680      5A9A6398 
 680      5C452B19 
 680      B43A7A8D 
 680      4CB02DF4 
 681 01b6 15383266 		.ascii	"\02582f~\375\233\231\202\203\251\252\231\377\304\274"
 681      7EFD9B99 
 681      8283A9AA 
 681      99FFC4BC 
 682 01c6 BD8E7B77 		.ascii	"\275\216{w\326s\357\356*\342t\325\275\367\202\270\234"
 682      D673EFEE 
 682      2AE274D5 
 682      BDF782B8 
 682      9C
 683 01d7 DFB2E29E 		.ascii	"\337\262\342\236\011\352\222\376\344\307\213o\333\023"
 683      09EA92FE 
 683      E4C78B6F 
 683      DB13
 684 01e5 09AF3A53 		.ascii	"\011\257:S\2552\017\036\330\343\265\246\223^r\377\276"
 684      AD320F1E 
 684      D8E3B5A6 
 684      935E72FF 
 684      BE
 685 01f6 96E4D154 		.ascii	"\226\344\321T\372x\"I\366\341\226C{9\235:\362\003\226"
 685      FA782249 
 685      F6E19643 
 685      7B399D3A 
 685      F20396
 686 0209 280A58   		.ascii	"(\012X"
 687              		.text
 688              		.section	.gnu.lto_chFactoryFindObjectByPointer.c5db887e79e5134d,"",%progbits
 689 0000 789C9554 		.ascii	"x\234\225TIO\024A\024\256\257^o\323\214\200\007=y0F"
 689      494F1441 
 689      14AEAF5E 
ARM GAS  /tmp/cclTcGoe.s 			page 55


 689      6FD38C80 
 689      073D7930 
 690 0015 623491F9 		.ascii	"b4\221\371AzQ\022\343\226`\300\213\247i\021\025\034"
 690      417A5112 
 690      E39660C0 
 690      8BA76911 
 690      151C
 691 0027 A3244640 		.ascii	"\243$F@t\322\223\270\213\216\240\210\200\033\016(\210"
 691      74D293B8 
 691      8B8EA088 
 691      801B0E28 
 691      88
 692 0038 802CD183 		.ascii	"\200,\321\203\333\001\344\200K\242\030$!q\360U\365\260"
 692      DB01E480 
 692      4BA21824 
 692      2171F055 
 692      F5B0
 693 004a 4860C4CE 		.ascii	"H`\304\316,\325\257\336\253\357\253\357{U\246\220b\237"
 693      2CD5AFDE 
 693      ABEFABEF 
 693      7B55A690 
 693      629F
 694 005c 25C45621 		.ascii	"%\304V!\304>\376\"$ \253\372\2058\354HX\301\200\244"
 694      C43EFE22 
 694      2420ABFA 
 694      8538EC48 
 694      58C180A4 
 695 0070 9122E1B9 		.ascii	"\221\"\341\271f\177\217\020^\330\200\023\304\315 \341"
 695      667F8F10 
 695      5ED88013 
 695      C4CD20E1 
 696 0080 A96349D2 		.ascii	"\251cI\322S\256\255\362\302\366l\202\003\250\201\347"
 696      53AEADF2 
 696      C2F66C82 
 696      03A881E7 
 697 0090 40442519 		.ascii	"@D%\031\246e;\210JF\323\317i\252!\014\2267\\\240S\344"
 697      A6653B88 
 697      4A46D3CF 
 697      69AA210C 
 697      96375CA0 
 698 00a6 9380C1AF 		.ascii	"\223\200\301\257?\372\352Fs\325+\260\236_\317{C\225"
 698      3FFAEA46 
 698      73D52BB0 
 698      9E5FCF7B 
 698      4395
 699 00b8 F6E6AB9E 		.ascii	"\366\346\253\236W\346\265\327\244\327&\357\014x!\237"
 699      57E6B5D7 
 699      A4D726EF 
 699      0C78219F 
 700 00c8 A438C7E9 		.ascii	"\2448\307\351\327\260\016W\261Nq\276\216\315\234<^^"
 700      D7B00E57 
 700      B14E71BE 
 700      8ECD9C3C 
 700      5E5E
 701 00da 55914705 		.ascii	"U\221G\005\020<~\023\377\370\320\335tY\027\366\326\220"
 701      103C7E13 
 701      FFF8D0DD 
ARM GAS  /tmp/cclTcGoe.s 			page 56


 701      745917F6 
 701      D690
 702 00ec B7D127C2 		.ascii	"\267\321'\302\015\320\302B\016\011\324c\223\312o\256"
 702      0DD0C242 
 702      0E09D463 
 702      93CA6FAE 
 703 00fc 68FB09DA 		.ascii	"h\373\011\332\242k\177M\244\206e\301E]\373\374}\376"
 703      A26B7F4D 
 703      A48665C1 
 703      455DFBFC 
 703      7DFE
 704 010e 99235EB7 		.ascii	"\231#^\267g0*n\376]\257\036N\037iL\237]e\031\270\205"
 704      67302A6E 
 704      FE5DAF1E 
 704      4E1F694C 
 704      9F5D6519 
 705 0124 02C58BE9 		.ascii	"\002\305\213\351$a\201\377T\344\366\020\332\275\364"
 705      246181FF 
 705      54E4F610 
 705      DABDF4
 706 0133 CC71AF3D 		.ascii	"\314q\257=\275m\246irM\036\204\012K\006\227\246\036"
 706      BD6DA669 
 706      724D1E84 
 706      0A4B0697 
 706      A61E
 707 0145 DA8A070B 		.ascii	"\332\212\007\013\305DB:\340r\300\310Q?B\234\340\365"
 707      C544423A 
 707      E072C0C8 
 707      513F429C 
 707      E0F5
 708 0157 BE5B22C6 		.ascii	"\276[\"\306[\376n\3218\312\332\306\273c\271\012 N&c"
 708      5BFE6ED1 
 708      38CADAC6 
 708      BB63B90A 
 708      204E2663 
 709 016b 571F4DBD 		.ascii	"W\037M\275\262\225\\\246f\336\332\372\365\235\035\375"
 709      B2955CA6 
 709      66DEDAFA 
 709      F59D1DFD 
 710 017b ED391CB8 		.ascii	"\3559\034\270H\001\275\317\275\257;]\037q\370d\241\001"
 710      4801BDCF 
 710      BDAF3B5D 
 710      1F71F864 
 710      A101
 711 018d 51DC56D4 		.ascii	"Q\334V\324y\342TKC\245\023\271\345\361\223H\363\022"
 711      79E2544B 
 711      43A513B9 
 711      E5F19348 
 711      F312
 712 019f 361AE1A3 		.ascii	"6\032\341\243\2262\333zvr\360\322\354\364H\330g\212"
 712      9632DB7A 
 712      7672F0D2 
 712      ECF448D8 
 712      678A
 713 01b1 7710A925 		.ascii	"w\020\251%\250\015\336ED\214\241,1\002\275W&\315t\304"
 713      A80DDE45 
 713      448CA12C 
ARM GAS  /tmp/cclTcGoe.s 			page 57


 713      3102BD57 
 713      26CD74C4 
 714 01c5 179427EA 		.ascii	"\027\224'\352\223\244B\213\310\204\316\251:4!\272\""
 714      93A4428B 
 714      C884CEA9 
 714      3A3421BA 
 714      22
 715 01d6 96F79666 		.ascii	"\226\367\226f\271\336'\027\315\232\243\014\252b\003"
 715      B9DE2717 
 715      CD9AA30C 
 715      AA6203
 716 01e5 8F4FE7F2 		.ascii	"\217O\347\362J\025z2\007\367\021\321\350hA\324\2470"
 716      4A157A32 
 716      07F711D1 
 716      E86841D4 
 716      A730
 717 01f7 27C5D863 		.ascii	"'\305\330cn\315@\272\276\230\035Hg/\224Nj\351\246\272"
 717      6ECD40BA 
 717      BE981D48 
 717      672F944E 
 717      6AE9A6BA 
 718 020b 7A2AC24C 		.ascii	"z*\302L\340p\000\264*\316\035\330\232\341\360\341\321"
 718      E07000B4 
 718      2ACE1DD8 
 718      9AE1F0E1 
 718      D1
 719 021c 6833CD71 		.ascii	"h3\315q \264i\016\332\352\007\254\304'\224\277\355\350"
 719      20B4690E 
 719      DAEA07AC 
 719      C42794BF 
 719      EDE8
 720 022e 4466E938 		.ascii	"Df\35189\2723b\354_\222\002\340\376/n0\353.BJ\354\025"
 720      39BA3362 
 720      EC5F9202 
 720      E0FE2F6E 
 720      30EB2E42 
 721 0245 8BB02E7F 		.ascii	"\213\260.\177*K\332sX\271x\250\261\214`\277\303U^-2"
 721      2A4BDA73 
 721      58B978A8 
 721      B18C60BF 
 721      C3555E2D 
 722 025a 9E2459AA 		.ascii	"\236$Y\252<<R\236\230\212\311cf2\216#\325\307*3\233"
 722      3C3C529E 
 722      988AC963 
 722      66328E23 
 722      D5C72A33 
 723 026f CC09E0EE 		.ascii	"\314\011\340\356\035\357mt\325>\363\000<a\024fT\035"
 723      1DEF6D74 
 723      D53EF300 
 723      3C611466 
 723      541D
 724 0281 5229FFCD 		.ascii	"R)\377\315\245=;\227\247s\\R\2100\276n\210\321\244\275"
 724      A53D3B97 
 724      A7735C52 
 724      8830BE6E 
 724      88D1A4BD 
 725 0295 7443B085 		.ascii	"tC\260\205\350XaCtfi\210g\331\032\342\371lCt\3157\204"
ARM GAS  /tmp/cclTcGoe.s 			page 58


 725      E8586143 
 725      74666988 
 725      67D91AE2 
 725      F96C4374 
 726 02ac 29125D99 		.ascii	")\022]\231\206x_o\005Z\205\026k\321,\377%F\367rbLK\237"
 726      86785F6F 
 726      055A8516 
 726      6BD12CFF 
 726      2546F772 
 727 02c4 F2F14289 		.ascii	"\362\361B\211\241n:\364d\016\313\256\371\263\022\322"
 727      A16E3AF4 
 727      640ECBAE 
 727      F9B312D2 
 728 02d4 442CC197 		.ascii	"D,\301\227#\215A\212 \012\325I\357:F\266\007\234\260"
 728      238D418A 
 728      200AD549 
 728      EF3A46B6 
 728      079CB0
 729 02e7 12655E2E 		.ascii	"\022e^.s\240'\244:\320\275\013\017\364\002m\022Wxz5"
 729      73A027A4 
 729      3AD0BD0B 
 729      0FF4026D 
 729      1257787A 
 730 02fc FA989940 		.ascii	"\372\230\231@?\233\300\317$\300\207X\326M\244\210\011"
 730      3F9BC0CF 
 730      24C08758 
 730      D64DA488 
 730      09
 731 030d 9A75533D 		.ascii	"\232uS=`\216\266H\021)\037g\226;\330\312\307W+\364q"
 731      608EB648 
 731      11291F67 
 731      963BD8CA 
 731      C7572BF4 
 732 0322 208B8F83 		.ascii	" \213\217\203\331|\034\232\365qx\336GG]\211\337X\275"
 732      D97C1C9A 
 732      F57178DE 
 732      47475D89 
 732      DF58BD
 733 0335 B8AE9A84 		.ascii	"\270\256\232\204d\315\214\267\277&\264gv\333\364\020"
 733      64CD8CB7 
 733      BF26B467 
 733      76DBF410 
 734 0345 F8FE0467 		.ascii	"\370\376\004g\361\364\206\302\302H\360).\345\317\376"
 734      F1F486C2 
 734      C248F029 
 734      2EE5CFFE 
 735 0355 3D3B23A5 		.ascii	"=;#\245%E\221\242\335\273v\024\035,.9TX$\214\342\235"
 735      254591A2 
 735      DDBB7614 
 735      1D2C2E39 
 735      5458248C 
 736 036b 7B0F5049 		.ascii	"{\017PI\361\201?\010\235#\313"
 736      F1813F08 
 736      9D23CB
 737              		.text
 738              		.section	.gnu.lto_chFactoryReleaseObject.c5db887e79e5134d,"",%progbits
 739 0000 789C8D54 		.ascii	"x\234\215T[oLQ\030\335\353|g.\275LKy\020\021iD#}\320"
ARM GAS  /tmp/cclTcGoe.s 			page 59


 739      5B6F4C51 
 739      18DDEB7C 
 739      672EBD4C 
 739      4B791011 
 740 0019 89C483F8 		.ascii	"\211\304\203\370\021~\2007\212\220\2206%\022OsZS\035"
 740      117E8037 
 740      8A909036 
 740      25124F73 
 740      5A531D
 741 002c 4A09D11A 		.ascii	"J\011\321\03219\223\324\235RZ\332\016j\024-u\255K\321"
 741      313993D4 
 741      9D525ADA 
 741      0E6A142D 
 741      75AD4BD1 
 742 0040 F2408B56 		.ascii	"\362@\213V\211\270E\"\224\357\333\247\323L\365zr\316"
 742      89B84522 
 742      94EFDBA7 
 742      D34CF57A 
 742      72CE
 743 0052 CCD967EF 		.ascii	"\314\331g\357\275\326\332k\257\375\271\224\241R<J-Q"
 743      BDD6DA6B 
 743      AFFDB994 
 743      A1523C4A 
 743      2D51
 744 0064 4A2DE607 		.ascii	"J-\346\007.\005c\317}\245\212\275\206A\261\271\312J"
 744      2E0563CF 
 744      7DA58ABD 
 744      8641B1B9 
 744      CA4A
 745 0076 353BFDCA 		.ascii	"5;\375\312J'\230\316g\023\220\027\313\013\0250\310D"
 745      4A2798CE 
 745      67139017 
 745      CB0B1530 
 745      C844
 746 0088 00BBA98A 		.ascii	"\000\273\251\212\320R\366\256\311\310=f\361\025\257"
 746      D052F6AE 
 746      C9C83D66 
 746      F115AF
 747 0097 DA337B9B 		.ascii	"\3323{\233U:\313&\245\302\374\310\205c\310\345Q\035"
 747      553ACB26 
 747      A5C2FCC8 
 747      8563C8E5 
 747      511D
 748 00a9 C1DA4354 		.ascii	"\301\332CTA6\001&7\277\334;\330\223!M\003\331\334\274"
 748      41360126 
 748      37BFDC3B 
 748      D893214D 
 748      03D9DCBC 
 749 00bd 188A7D03 		.ascii	"\030\212}\003\345@\361{o\361\217>,8bY%V\374I%Y\363m"
 749      E540F17B 
 749      6FF18F3E 
 749      2C386259 
 749      2556FC49 
 750 00d5 229C0431 		.ascii	"\"\234\0041 N`\016\216c\216\342O\012\247\260@\306\277"
 750      204E600E 
 750      8E638EE2 
 750      4F0AA7B0 
ARM GAS  /tmp/cclTcGoe.s 			page 60


 750      40C6BF
 751 00e8 3937B8DF 		.ascii	"97\270\337\3476\035B\234\206\033\374\177\366\021\342"
 751      E7361D42 
 751      9C861BFC 
 751      7FF611E2 
 752 00f8 D6E0DF32 		.ascii	"\326\340\3372+\376\375(\352\226\2471-\0177y\242\351"
 752      2BFEFD28 
 752      EA96A731 
 752      2D0F3779 
 752      A2E9
 753 010a E61F9747 		.ascii	"\346\037\227G~\224\332\301sdM\345d\310?\015 \030=UO"
 753      7E94DAC1 
 753      73644DE5 
 753      64C83F0D 
 753      20183D55 
 754 011f 8222D04D 		.ascii	"\202\"\320MM\037\273=\201?\226\327&w\230\030\0275\010"
 754      4D1FBB3D 
 754      813F96D7 
 754      26779818 
 754      173508
 755 0132 48476569 		.ascii	"HGei\313\003\217\310\367\340\277q\236j\221\301\337>"
 755      CB038FC8 
 755      F7E0BF71 
 755      9E6A91C1 
 755      DF3E
 756 0144 DC7D7A23 		.ascii	"\334}z#\325F\0046yq\226\315:\303\272\245\243\242\261"
 756      D5460436 
 756      797196CD 
 756      3AC3BAA5 
 756      A3A2B1
 757 0157 76BBD75F 		.ascii	"v\273\327_#~e\333\224\202Z\3308\240\315\342\316\362"
 757      237E65DB 
 757      94825AD8 
 757      38A0CDE2 
 757      CEF2
 758 0169 87CDBB33 		.ascii	"\207\315\2733\030)\244;Sq\016~-\006\347\021\260)M\365"
 758      1829A43B 
 758      53710E7E 
 758      2D06E711 
 758      B0294DF5 
 759 017d A3E457D9 		.ascii	"\243\344W\331\315\016\310\307\010\231\311RHK\371\331"
 759      CD0EC8C7 
 759      0899C952 
 759      484BF9D9 
 760 018d D61E4A67 		.ascii	"\326\036Jg\332b\206\217\016\202\227\231\036\341\256"
 760      DA62868F 
 760      0E829799 
 760      1EE1AE
 761 019c BA21F223 		.ascii	"\272!\362#\275%g<\303\344>\324kr8\344\335\207\257\035"
 761      BD25673C 
 761      C3E43ED4 
 761      6B7238E4 
 761      DD87AF1D 
 762 01b0 4E637299 		.ascii	"Ncr\231\232\301N\341\002\374\274\346\213\274\346\267"
 762      9AC14EE1 
 762      02FCBCE6 
 762      8BBCE6B7 
ARM GAS  /tmp/cclTcGoe.s 			page 61


 763 01c0 28C9164E 		.ascii	"(\311\026N\331\237\370\300\033\037\345j\266\355\305"
 763      D99FF8C0 
 763      1B1FE56A 
 763      B6EDC5
 764 01cf BB22664E 		.ascii	"\273\"fN\265\336\253\326\276\364\260\025\017f\313\304"
 764      B5DEABD6 
 764      BEF4B015 
 764      0F66CBC4 
 765 01df 8691DBA5 		.ascii	"\206\221\333\245s\320\210\034V,H\321:\307b\006(\333"
 765      73D0881C 
 765      562C48D1 
 765      3AC76206 
 765      28DB
 766 01f1 D7D5EEA3 		.ascii	"\327\325\356\243\205\032\254\372q\354C\346(\260\014"
 766      851AACFA 
 766      71EC43E6 
 766      28B00C
 767 0200 348D0116 		.ascii	"4\215\001\026C\316T|\2774\266\357\321\206\372e6e\342"
 767      43CE547C 
 767      BF34B6EF 
 767      D186FA65 
 767      3665E2
 768 0213 B25EBD31 		.ascii	"\262^\2751\312z\021(\314W\022\3567\217\264\240\257\261"
 768      CA7A1128 
 768      CC5712EE 
 768      378FB4A0 
 768      AFB1
 769 0225 35E4A545 		.ascii	"5\344\245EZus(Z\345\032\245z\032\256\216\241:>5\325"
 769      5A757328 
 769      5AE51AA5 
 769      7A1AAE8E 
 769      A13A3E35 
 770 023a D7C6517D 		.ascii	"\327\306Q}ITOG\213VM\343\250\236\206\353\011\3257X5"
 770      49544F47 
 770      8B564DE3 
 770      A89E86EB 
 770      09D53758 
 771 024f 0726D65F 		.ascii	"\007&\326_\323\206\341\203\022\324\007\365]\237[\324"
 771      D386E183 
 771      12D407F5 
 771      5D9F5BD4 
 772 025f 888FB231 		.ascii	"\210\217\2621\372\334\204\331\211\244\363\204\233\214"
 772      FADC84D9 
 772      89A4F384 
 772      9B8C
 773 026d A1D02A41 		.ascii	"\241\320*As'\007\315\034\0214V\354\223\204\265\215N"
 773      732707CD 
 773      1C113456 
 773      EC9384B5 
 773      8D4E
 774 027f 58B421E2 		.ascii	"X\264!\342\266)\013\267\264\340!D\334\346P\365ck\345"
 774      B6290BB7 
 774      B4E02144 
 774      DCE650F5 
 774      636BE5
 775 0292 B6DBE480 		.ascii	"\266\333\344\200{\034\374\201\313\265\317]\202\237\205"
 775      7B1CFC81 
ARM GAS  /tmp/cclTcGoe.s 			page 62


 775      CBB5CF5D 
 775      829F85
 776 02a1 BF7C65A2 		.ascii	"\277|e\242\235\021Y~e\212\014\233\"\343l\231~g\004\337"
 776      9D11597E 
 776      658A0C9B 
 776      22E36C99 
 776      7E6704DF 
 777 02b5 5DF89943 		.ascii	"]\370\231C\365\"\330u\375\353\322!\312\344\365dA\341"
 777      F522D875 
 777      FDEBD221 
 777      CAE4F564 
 777      41E1
 778 02c7 DED01695 		.ascii	"\336\320\026\225\263\257\261\271\\\007\3342\360\277"
 778      B3AFB1B9 
 778      5C07DC32 
 778      F0BF
 779 02d5 B33D23CC 		.ascii	"\263=#\314\254\032\363>;\353\034\277I7\363\301\304\021"
 779      AC1AF33E 
 779      3BEB1CBF 
 779      4937F3C1 
 779      C411
 780 02e7 7C384904 		.ascii	"|8I\004;\022\233\371\010\201\251\320=\2368;O&\311\316"
 780      3B129BF9 
 780      0881A9D0 
 780      3D9E383B 
 780      4F26C9CE 
 781 02fb D3045DA7 		.ascii	"\323\004]\247\324\233\231\332\021S\227\306D\374u\\\206"
 781      D49B99DA 
 781      115397C6 
 781      44FC755C 
 781      86
 782 030c 0F830428 		.ascii	"\017\203\004(\251\025On1C\264\345\365BZ\254\363\262"
 782      A9154F6E 
 782      3143B4E5 
 782      F5425AAC 
 782      F3B2
 783 031e F3F395DF 		.ascii	"\363\363\225\337\211R\321\031\231\271w\253u\3132%L\317"
 783      8952D119 
 783      99B977AB 
 783      75CB3225 
 783      4CCF
 784 0330 C63828CF 		.ascii	"\3068(\317\005G\212q\317x\305\330\344Q/\234b<\251']"
 784      05478A71 
 784      CF78C5D8 
 784      E4512F9C 
 784      623CA927 
 785 0345 1354DFEE 		.ascii	"\023T\337\356\211\252\357\313\204\033\257\234\352\373"
 785      89AAEFCB 
 785      841BAF9C 
 785      EAFB
 786 0353 896BD7FB 		.ascii	"\211k\327\373z]|\265\316\035\\9\331\033\336\275yyy~"
 786      7A5D7CB5 
 786      CE1D5C39 
 786      D91BDEBD 
 786      7979797E 
 787 0367 E72ED8C8 		.ascii	"\347.\330\310\367\372u+\375\033\213\362\375\371k\327"
 787      F7FA752B 
ARM GAS  /tmp/cclTcGoe.s 			page 63


 787      FD1B8BF2 
 787      FDF96BD7 
 788 0377 ACC8DF54 		.ascii	"\254\310\337TP\264%/_QQA!\255Z\315\317\372BcC\241YX"
 788      50B4252F 
 788      5F515141 
 788      21AD5ACD 
 788      CFFA4263 
 789 038f B47AF33F 		.ascii	"\264z\363?G\354ZQ"
 789      47EC5A51 
 790              		.text
 791              		.section	.gnu.lto_chFactoryCreateBuffer.c5db887e79e5134d,"",%progbits
 792 0000 789C8D93 		.ascii	"x\234\215\223\355K\024Q\024\306\3573g\326\031u\335\314"
 792      ED4B1451 
 792      14C6EF33 
 792      67D61975 
 792      DDCC
 793 0012 A00F2221 		.ascii	"\240\017\"!\221\210\006\016D_\372\340\037\243\233\221"
 793      9188060E 
 793      445FFAE0 
 793      1FA39B91 
 794 0022 F4626810 		.ascii	"\364bh\020\325\207\0357k})\215 m\263e\226T\254\314\327"
 794      D5871D37 
 794      6B7D298D 
 794      206DB365 
 794      9654ACCC 
 795 0037 72D3525B 		.ascii	"r\323R[_\242(+\023\014\302/af\230Z\004E\021\244\235"
 795      5FA2282B 
 795      130CC22F 
 795      6166985A 
 795      044511A4 
 796 004c 3BB35A9A 		.ascii	";\263Z\232Y\303\0143\367\336\363\334\373;\3179\343\022"
 796      59C30C33 
 796      F7DEF3DC 
 796      FB3BCF39 
 796      E312
 797 005e 8AD8A90A 		.ascii	"\212\330\251\012\261K\010\261\233\037\270\004\224\363"
 797      B14B08B1 
 797      9B1FB804 
 797      94F3
 798 006c CF8428D5 		.ascii	"\317\204(\325\025\205\352s\205\231\240~I\026\246\233"
 798      1585EA73 
 798      8599A07E 
 798      4916A69B 
 799 007c A03AD32A 		.ascii	"\240:\323* ?L\035\302\247\220\012\037j\250\216\360\242"
 799      203F4C1D 
 799      C2A7900A 
 799      1F6AA88E 
 799      F0A2
 800 008e ACE30A55 		.ascii	"\254\343\012U\223E\002*\017?=\275\374\306#\207@:\017"
 800      9345022A 
 800      0F3F3DBD 
 800      FCC62387 
 800      403A0F
 801 00a1 EBCDF10A 		.ascii	"\353\315\361\012-\253\3314\375f\264\356[\252\3255f\306"
 801      2DABD934 
 801      FD66B4EE 
 801      5BAAD535 
ARM GAS  /tmp/cclTcGoe.s 			page 64


 801      66C6
 802 00b3 5BA48820 		.ascii	"[\244\210 \207_C\032\232\221&\017\277\216,\016\366O"
 802      875F431A 
 802      9A91260F 
 802      BF8E2C0E 
 802      F64F
 803 00c5 455E8232 		.ascii	"E^\2022 \370;<\021>\226\331d\353Fk\311\334a\021\341"
 803      20F83B3C 
 803      113E96D9 
 803      64EB466B 
 803      C9DC6111 
 804 00da 06E8771D 		.ascii	"\006\350w\035O\011\264 \223\243\257\226N<I\242l[\031"
 804      4F09B420 
 804      93A3AF96 
 804      4E3C49A2 
 804      6C5B19
 805 00ed 68ED9FF5 		.ascii	"h\355\237\365\304\244\237\353l\251\212\233k\245\252"
 805      C4A49FEB 
 805      6CA98A9B 
 805      6BA5AA
 806 00fc 402B3265 		.ascii	"@+2e|u\345\271\327\361d\330\332h\240\261O\313h\260\265"
 806      7C75E5B9 
 806      D7F164D8 
 806      DA68A0B1 
 806      4FCB68B0 
 807 0111 1FE6522E 		.ascii	"\037\346R.\2342\037\231*\363\242m\265^^\034>\325\271"
 807      9C321F99 
 807      2AF3A26D 
 807      B55E5E1C 
 807      3ED5B9
 808 0124 7831294E 		.ascii	"x1)NE;2dF\234H\007\342\300/9\323>\216\250\271\270\024"
 808      453B3264 
 808      469C4807 
 808      E2C02F39 
 808      D33E8EA8 
 809 013b 30A33307 		.ascii	"0\2433\007\316\016\317,(\211\354 \343\272 O\326\204"
 809      CE0ECF2C 
 809      2889EC20 
 809      E3BA204F 
 809      D684
 810 014d 8CD199C4 		.ascii	"\214\321\231\304%D%k\245\267U\354\014\277i\016e\341"
 810      2544256B 
 810      A5B755EC 
 810      0CBF690E 
 810      65E1
 811 015f A56E92BB 		.ascii	"\245n\222\273\311cz{\347'5\337\017S\267(.Hr\377N\370"
 811      C9637A7B 
 811      E72735DF 
 811      0F53B728 
 811      2E4872FF 
 812 0175 E442EDE9 		.ascii	"\344B\355\351\241\347\2324[\303\2328\255\201\034\304"
 812      A1E79A34 
 812      5BC39A38 
 812      AD811CC4 
 813 0185 F7A31323 		.ascii	"\367\243\023#\011\026B\260H\307-.Z\227\304\227i\367"
 813      091642B0 
 813      48C72D2E 
ARM GAS  /tmp/cclTcGoe.s 			page 65


 813      5A97C497 
 813      69F7
 814 0197 7454E846 		.ascii	"tT\350F\253\311W\272E\361\270\015\013\227(\226X\325"
 814      ABC957BA 
 814      45F1B80D 
 814      0B972896 
 814      58D5
 815 01a9 D8408D87 		.ascii	"\330@\215\207w*\267\027\023\320\015\303\206A\004>\213"
 815      772AB717 
 815      13D00DC3 
 815      8641043E 
 815      8B
 816 01ba 12C51CCE 		.ascii	"\022\305\034\316\204\233#\232\234\013\221\266\372hw"
 816      849B239A 
 816      9C0B91B6 
 816      FA6877
 817 01c9 90B310B8 		.ascii	"\220\263\020\270\303\210!R\377\007\253g}\254pK\344\244"
 817      C3882152 
 817      FF07AB67 
 817      7DAC704B 
 817      E4A4
 818 01db 4549E8B5 		.ascii	"EI\350\265\311\360\007\031\023\354\261\310\203\273\313"
 818      C9F00719 
 818      13ECB1C8 
 818      83BBCB
 819 01ea 70F7E00B 		.ascii	"p\367\340\013\221\313\242M\342-\374\341mv1\330d&\024"
 819      91CBA24D 
 819      E22DFCE1 
 819      6D7631D8 
 819      642614
 820 01fd D3289B1C 		.ascii	"\323(\233\034\236\231w\377\"^\361N\201@_\254\246U\334"
 820      9E9977FF 
 820      225EF14E 
 820      81405FAC 
 820      A655DC
 821 0210 52F5B934 		.ascii	"R\365\2714\013\377\367\300\302\253N8\341:\207\177}\370"
 821      0BFFF7C0 
 821      C2AB4E38 
 821      E13A877F 
 821      7DF8
 822 0222 B8DCCDC0 		.ascii	"\270\334\315\300\245\022l\000\\\267d\336\307\021\362"
 822      A5126C00 
 822      5CB764DE 
 822      C711F2
 823 0231 72D3B4BF 		.ascii	"r\323\264\277M[qs3\372mf\305a\236l\034lLdf)\355\342"
 823      4D5B7173 
 823      33FA6D66 
 823      C5619E6C 
 823      1C6C4C64 
 824 0249 8C5D1880 		.ascii	"\214]\030\200\301\026\335g\213\244\223[\327)tJ\220Q"
 824      C116DD67 
 824      8BA4935B 
 824      D729744A 
 824      9051
 825 025b 04A2B68B 		.ascii	"\004\242\266\213:\262\323\354\314\266\330\214\352J\223"
 825      3AB2D3EC 
 825      CCB6D88C 
ARM GAS  /tmp/cclTcGoe.s 			page 66


 825      EA4A93
 826 026a BC8BFCA5 		.ascii	"\274\213\374\245I\370\317\306\240\323$\377\264\177h"
 826      49F8CFC6 
 826      A0D324FF 
 826      B47F68
 827 0279 83AE18DE 		.ascii	"\203\256\030\336\250+F\226\215\177\340t\305\002\273"
 827      A82B4696 
 827      8D7FE074 
 827      C502BB
 828 0288 FE31921A 		.ascii	"\3761\222\032\363X\212*\271l\314\312>l\317\3111\234"
 828      F3588A2A 
 828      B96CCCCA 
 828      3E6CCFC9 
 828      319C
 829 029a BBA884EF 		.ascii	"\273\250\204\357\203\205\371FI\261\327\360\356\337\227"
 829      8385F946 
 829      49B1D7F0 
 829      EEDF97
 830 02a9 E73D5A54 		.ascii	"\347=ZT|<\307+\324\303y\207\012\324\222\302\023\005"
 830      7C3CC72B 
 830      D4C37987 
 830      0AD492C2 
 830      1305
 831 02bb B437FFC8 		.ascii	"\2647\377\310Oe\306ii"
 831      4F65C669 
 831      69
 832              		.text
 833              		.section	.gnu.lto_chFactoryFindBuffer.c5db887e79e5134d,"",%progbits
 834 0000 789C8D91 		.ascii	"x\234\215\221\337K\024Q\024\307\317w\316\354\316\254"
 834      DF4B1451 
 834      14C7CF77 
 834      CEECCEAC 
 835 0010 A90FBD04 		.ascii	"\251\017\275\004)!\321\"\006\355\374M\272\025\005\325"
 835      2921D122 
 835      06EDFC4D 
 835      BA1505D5 
 836 0020 8606D1D3 		.ascii	"\206\006\321\323\3346\305\\I#0\333j\271\003[X\231\271"
 836      DC36C55C 
 836      492330DB 
 836      6AB9035B 
 836      5899B9
 837 0033 6AA95B93 		.ascii	"j\251[\223,\021\321C?L\260\227 \302\310\007M\"\210^"
 837      2C11D143 
 837      3F4CB097 
 837      20C2C807 
 837      4D22885E 
 838 0047 2AEBDC59 		.ascii	"*\353\334Y\205\354\207u\271\303\375\365=\347|\316wb"
 838      85EC8775 
 838      B9C3FDF5 
 838      3DE77CCE 
 838      7762
 839 0059 64512D13 		.ascii	"dQ-\023\355!\242\006\371\300\004\353\3543\242\223\256"
 839      ED21A206 
 839      F9C004EB 
 839      EC33A293 
 839      AE
 840 006a 05988D72 		.ascii	"\005\230\215rA\276\005\037\375<\310x\321Y\272\314}\254"
ARM GAS  /tmp/cclTcGoe.s 			page 67


 840      41BE051F 
 840      FD3CC878 
 840      D159BACC 
 840      7DAC
 841 007c 4566CBF1 		.ascii	"Ef\313\361\343\323\213o\353\315\021h\222\343%5\327\343"
 841      E3D38B6F 
 841      EBCD1168 
 841      92E32535 
 841      D7E3
 842 008e B40C2995 		.ascii	"\264\014)\225U\225\301\317\015z|V%4[\224\027\37154b"
 842      5595C1CF 
 842      0D7A7C56 
 842      25345B94 
 842      17F93534 
 843 00a3 088DA6C6 		.ascii	"\010\215\246\306u\264\2108\2730\371\022\234\004\311"
 843      75B48838 
 843      BB30F912 
 843      9C04C9
 844 00b2 3E980F8E 		.ascii	">\230\017\2167_\215\342\276\016\260\332\245\231q\003"
 844      375F8DE2 
 844      BE0EB0DA 
 844      A5997103 
 845 00c2 FC739C5C 		.ascii	"\374s\234\\\021\206\321l\344}\2713o\022\274;\012\255"
 845      1186D16C 
 845      E47DB933 
 845      6F12BC3B 
 845      0AAD
 846 00d4 745F099D 		.ascii	"t_\011\235d1\212]\374\260\365\334)\365X\331R\02477\306"
 846      64318A5D 
 846      FCB0F5DC 
 846      29F558D9 
 846      52143737 
 847 00e9 9B21F285 		.ascii	"\233!\362\205\261\325\201\272\270\215\021$\015\226\320"
 847      B1D581BA 
 847      B88D1124 
 847      0D96D0
 848 00f8 DC421CB2 		.ascii	"\334B\034\262\230\233\3219T\324\352\367nUy\235Y\371"
 848      989BD139 
 848      54D4EAF7 
 848      6E55799D 
 848      59F9
 849 010a F4689B23 		.ascii	"\364h\233#}I\311\030Er\312\211\336X\322+-\311\312\313"
 849      7D49C918 
 849      4572CA89 
 849      DE58D22B 
 849      2DC9CACB 
 850 011e E80CBE4C 		.ascii	"\350\014\276L\261\311`R\227\313\357_9\3767\345j\266"
 850      B1C96052 
 850      97CBEF5F 
 850      39FE37E5 
 850      6AB6
 851 0130 F36C728E 		.ascii	"\363lr\216\3027\017\347\273\036<w\214K1\374\242\213"
 851      C2370FE7 
 851      BB1E3C77 
 851      8C4B31FC 
 851      A28B
 852 0142 15B98AB5 		.ascii	"\025\271\212\265\364d\376a\215F\001\232\343\030\023"
ARM GAS  /tmp/cclTcGoe.s 			page 68


 852      F464FE61 
 852      8D46019A 
 852      E31813
 853 0151 B74B06D9 		.ascii	"\267K\006\331\264:]\352q\275\021%\243I\263\203qh\\\340"
 853      B43A5DEA 
 853      71BD1125 
 853      A349B383 
 853      71685CE0 
 854 0165 B5667A67 		.ascii	"\265fzgg\372\353%\323\351\350\321\305\004\274\010\006"
 854      67FAEB25 
 854      D3E9E8D1 
 854      C504BC08 
 854      06
 855 0176 B7E16B4E 		.ascii	"\267\341kN\3202\272\202b\350\230\273\002\3076\226\256"
 855      D032BA82 
 855      62E898BB 
 855      02C73696 
 855      AE
 856 0187 C94B1784 		.ascii	"\311K\027\204;\202X`\376\037\254\311?c\005K\322\331"
 856      3B825860 
 856      FE1FACC9 
 856      3F63054B 
 856      D2D9
 857 0199 164C4560 		.ascii	"\026LE`\370\015,X\224\340ZL\257\243\225\015Z\035\275"
 857      F80D2C58 
 857      94E05A4C 
 857      AFA3950D 
 857      5A1DBD
 858 01ac 4336D811 		.ascii	"C6\330\021y/\326\012\034\0313\207\303\277\230)8\270"
 858      792FD60A 
 858      1C193387 
 858      C3BF9829 
 858      38B8
 859 01be 5B35F39F 		.ascii	"[5\363\237\230\3676q/\334\314\275\373\353\2103U\367"
 859      98F73671 
 859      2FDCCCBD 
 859      FBEB8833 
 859      55F7
 860 01d0 56047122 		.ascii	"V\004q\"\334\276\346\236\011\312I\177\362\343\305\267"
 860      DCBEE69E 
 860      09CA497F 
 860      F2E3C5B7 
 861 01e0 9DA99457 		.ascii	"\235\251\224W\235\231\016\231\207\016\266y\035\355i"
 861      9D990E99 
 861      870EB679 
 861      1DED69
 862 01ef 2F7D607F 		.ascii	"/}`\177k\372X\246\375D*M\366\221\326\303\373xo\333\321"
 862      6BFA58A6 
 862      FD442A4D 
 862      F691D6C3 
 862      FB786FDB 
 863 0204 1FF8BD09 		.ascii	"\037\370\275\011r"
 863      72
 864              		.text
 865              		.section	.gnu.lto_chFactoryReleaseBuffer.c5db887e79e5134d,"",%progbits
 866 0000 789C8D54 		.ascii	"x\234\215TkKTQ\024=\353\356;\017\0373Z\364!BD\"\011"
 866      6B4B5451 
ARM GAS  /tmp/cclTcGoe.s 			page 69


 866      143DEBEE 
 866      3B0F1F33 
 866      5AF42142 
 867 0017 A11C82FA 		.ascii	"\241\034\202\372;A\231Q`$\026A\237\346jS\226\246E\241"
 867      3B419951 
 867      60241641 
 867      9FE66A53 
 867      96A645A1 
 868 002b 35D17007 		.ascii	"5\321p\007\324\354\345\243\247:iMf/\363\035Eh\037zX"
 868      D4ECE5A3 
 868      A73A694D 
 868      662FF31D 
 868      45681F7A 
 869 0040 A0F6C00F 		.ascii	"\240\366\300\017\021HY{\237\353\310\230f]\356\373\354"
 869      1148597B 
 869      9FEBC898 
 869      665DEEFB 
 869      EC
 870 0051 B3D6DE6B 		.ascii	"\263\326\336k\355s\\\312P\003.\245\266(\2456\363\005"
 870      ED735CCA 
 870      50032EA5 
 870      B628A536 
 870      F305
 871 0063 97827172 		.ascii	"\227\202qr@\251R\257aP,[Y\251\346\313\200\262\322\011"
 871      40A952AF 
 871      61502C5B 
 871      59A9E6CB 
 871      80B2D209 
 872 0077 A6F3DB04 		.ascii	"\246\363\333\004\344\305\362B\005\0152\021\304\011:"
 872      E4C5F242 
 872      050D3211 
 872      C4093A
 873 0086 43E82EFF 		.ascii	"C\350.\377\330a\3445Z|\304\317\214d\037\261\016\257"
 873      D861E435 
 873      5A7CC4CF 
 873      8C641FB1 
 873      0EAF
 874 0098 B649A930 		.ascii	"\266I\2510_r\240\021y\0345\034j=O\325d\023`\362\347"
 874      5F72A011 
 874      791C351C 
 874      6A3D4FD5 
 874      641360F2 
 875 00ad 74FFB9F7 		.ascii	"t\377\271\367~\3714\220\303\237\325\025UoR(\027\212"
 875      7EF93490 
 875      C39FD515 
 875      556F5228 
 875      178A
 876 00bf DF9B7B3F 		.ascii	"\337\233{?\2347\3277XV\231\025\177]C\326:\233\010\227"
 876      9C37D737 
 876      58569915 
 876      7F5D43D6 
 876      3A9B0897 
 877 00d3 410C884B 		.ascii	"A\014\210K\310\302Ed)\376\245p\005\353%\376\335\265"
 877      C8C24564 
 877      29FEA570 
 877      05EB25FE 
 877      DDB5
ARM GAS  /tmp/cclTcGoe.s 			page 70


 878 00e5 D91A9FDB 		.ascii	"\331\032\237\333t\010q\025n\360\263e\004qk\366W\271"
 878      74087115 
 878      6EF0B365 
 878      04716BF6 
 878      57B9
 879 00f7 15EFB980 		.ascii	"\025\357\271\200\351\255iL\313\341&O4\335|sy\344\246"
 879      E9AD694C 
 879      CBE1264F 
 879      34DD7C73 
 879      79E4A6
 880 010a 5405CF91 		.ascii	"T\005\317\221\232*\311\220'M!\024m\351\"A\021\350\216"
 880      9A2AC990 
 880      274D2114 
 880      6DE92241 
 880      11E88E
 881 011d 8E4F639E 		.ascii	"\216Oc\236\340O\313k\223;L\214\213&\004e\240\366p\367"
 881      E04FCB6B 
 881      933B4C8C 
 881      8B260465 
 881      A0F670F7 
 882 0131 A047D2F7 		.ascii	"\240G\322\367\340\2178O\235\244\301\377&\373^\364\244"
 882      E08F384F 
 882      9DA4C1FF 
 882      26FB5EF4 
 882      A4
 883 0142 DA88C026 		.ascii	"\332\210\300&/ZX\254f\316[\006\252\333[\217y\003M\242"
 883      2F5A58AC 
 883      66CE5B06 
 883      AADB5B8F 
 883      79034DA2 
 884 0156 578E4D29 		.ascii	"W\216M)h\205\215\263Z,\036\254\034\272{\302\317HG\365"
 884      68858DB3 
 884      5A2C1EAC 
 884      1CBA7BC2 
 884      CF4847F5 
 885 016a 602AAE21 		.ascii	"`*\256!\240\223\301u\004mJS\023(\233)\177\361\015\362"
 885      A093C175 
 885      046D4A53 
 885      13289B29 
 885      7FF10DF2 
 886 017e 33426672 		.ascii	"3Bfr*\244S\371\376\270\367h:\323\2262|t\026\\fz\204"
 886      2AA453F9 
 886      FEB8F768 
 886      3AD39632 
 886      7C74165C 
 887 0195 876ECC91 		.ascii	"\207n\314\2217\214\2275{\346\311}\270\251\311\341\220"
 887      378C9735 
 887      7BE6C97D 
 887      B8A9C9E1 
 887      90
 888 01a6 8FD5DFAF 		.ascii	"\217\325\337\257Ocr\231\352g\245p\013\001\256\3716\327"
 888      4F637299 
 888      EA67A570 
 888      0B01AEF9 
 888      36D7
 889 01b8 FC016539 		.ascii	"\374\001e9\302\311Q\343\361\251w>\312\323l\307J\253"
 889      C2C951E3 
ARM GAS  /tmp/cclTcGoe.s 			page 71


 889      F1A9773E 
 889      CAD36CC7 
 889      4AAB
 890 01ca 22666E9D 		.ascii	"\"fn\235\366j`&=l\305C92\261m\241]\272\017\332\221\313"
 890      F66A6026 
 890      3D6CC543 
 890      3932B16D 
 890      A15DBA0F 
 891 01e1 190B52B4 		.ascii	"\031\013R\264\315\221\230\001\312O\217\366\372h\243"
 891      CD919801 
 891      CA4F8FF6 
 891      FA68A3
 892 01f0 06AB7B1E 		.ascii	"\006\253{\036\233\314X\004\346G\307\022`1\344\376\217"
 892      9BCC5804 
 892      E647C712 
 892      6031E4FE 
 892      8F
 893 0201 EE7796D6 		.ascii	"\356w\226\326\235\023\330cS\006:u\365\306\"\351\245"
 893      9D13D863 
 893      53063A75 
 893      F5C622E9 
 893      A5
 894 0212 7A3FBA12 		.ascii	"z?\272\022\332\337e\001X\370\330D\337C\3147\\H7\374"
 894      DADF6501 
 894      58F8D844 
 894      DF43CC37 
 894      5C4837FC 
 895 0226 9719B7E4 		.ascii	"\227\031\267\344\"\305\351\336\0133ZRO\342\036\317W"
 895      22C5E9DE 
 895      0B335A52 
 895      4FE21ECF 
 895      57
 896 0237 888B59EE 		.ascii	"\210\213Y\356d\263\314\005fq\256>q\351\376b\227\242"
 896      64B3CC05 
 896      6671AE3E 
 896      71E9FE62 
 896      97A2
 897 0249 376ADD36 		.ascii	"7j\3356e\242[\247J\016\"\036\2601\0238T{\344)9\340\036"
 897      65A25BA7 
 897      4A0E221E 
 897      B0311338 
 897      547BE429 
 898 0260 077FAAB3 		.ascii	"\007\177\252\263\365\225K\3603\361\213\217\014\3640"
 898      F5954BF0 
 898      33F18B8F 
 898      0CF430
 899 026f 22A75E9B 		.ascii	"\"\247^\233\"a\377\311\270F\246?\\\300\367\010\001\346"
 899      2261FFC9 
 899      B846A63F 
 899      5CC0F708 
 899      01E6
 900 0281 50E3088D 		.ascii	"P\343\010\215>\230\3340G\231\\O&\024\036\317\231S\311"
 900      3E98DC30 
 900      47995C4F 
 900      26141ECF 
 900      9953C9
 901 0294 D362D9BC 		.ascii	"\323b\331\274\226\\\022\370\307\372X\021fV\215\371\204"
ARM GAS  /tmp/cclTcGoe.s 			page 72


 901      965C12F8 
 901      C7FA5811 
 901      66568DF9 
 901      84
 902 02a5 55755AF8 		.ascii	"UuZ\370\2376>]\336\306\336em|\226\260\261O\226\320J"
 902      9F363E5D 
 902      DEC6DE65 
 902      6D7C96B0 
 902      B14F96D0 
 903 02ba 9DA0A957 		.ascii	"\235\240\251W{\242\251\265{\363-.~\252\344\206\217v"
 903      7BA2A9B5 
 903      7BF32D2E 
 903      7EAAE486 
 903      8F76
 904 02cc BFDD489B 		.ascii	"\277\335H\233\264a\307\277v\375H\364\373\313\310\252"
 904      B461C7BF 
 904      76FD48F4 
 904      FBCBC8AA 
 905 02dc 5387AC27 		.ascii	"S\207\254'\226)n\366/\321\243\003\202#;\312\275\277"
 905      96296EF6 
 905      2FD1A303 
 905      82233BCA 
 905      BDBF
 906 02ee ED282647 		.ascii	"\355(&G\015:;\312?5\030Zf\013\031^n\013\031I\324\377"
 906      0D3A3BCA 
 906      3F35185A 
 906      660B195E 
 906      6E0B1949 
 907 0304 DCD9423E 		.ascii	"\334\331B>\363\002|\337\245w\020\235g\005/\177V\203"
 907      F3027CDF 
 907      A577109D 
 907      67052F7F 
 907      5683
 908 0316 E55B9B9F 		.ascii	"\345[\233\237\037p\316\275\373\370,\332\275=\260\257"
 908      1F70CEBD 
 908      FBF82CDA 
 908      BD3DB0AF 
 909 0326 A42050B0 		.ascii	"\244 P\260k\347\266\202\375{K\016\346\027(\332\261\275"
 909      6BE7B682 
 909      FD7B4B0E 
 909      E61728DA 
 909      B1BD
 910 0338 987614F2 		.ascii	"\230v\024\362UTl\026\227\024\036\370\015\256\027\357"
 910      55546C16 
 910      97141EF8 
 910      0DAE17EF 
 911 0348 FD       		.ascii	"\375"
 912              		.text
 913              		.section	.gnu.lto_chFactoryCreateSemaphore.c5db887e79e5134d,"",%progbits
 914 0000 789C8D54 		.ascii	"x\234\215T[KTQ\024\336\337Y\3079\243\216\223]\014\011"
 914      5B4B5451 
 914      14DEDF59 
 914      C739A38E 
 914      935D0C09 
 915 0014 2989448C 		.ascii	")\211D\214p^z\314\037cSQP\032\032D\0175\333I\363\006"
 915      705E7ACC 
 915      1F635351 
ARM GAS  /tmp/cclTcGoe.s 			page 73


 915      501A1A44 
 915      0F35DB49 
 916 002a 1A52DA38 		.ascii	"\032R\3328\015g@\305\322\274V\246]f\306KY\321\305\004"
 916      0D6740C5 
 916      D2BC56A6 
 916      5D66C64B 
 916      59D1C504 
 917 003e 7BD17C50 		.ascii	"{\321|P\023\312\"z\210\240\032m\3553jij\016g8g\357\265"
 917      13CA227A 
 917      88A01A6D 
 917      ED336A69 
 917      6A0E6738 
 918 0055 BEBDBEF5 		.ascii	"\276\275\276\365\255\357\2348\241\211\032]\010\227\020"
 918      ADEF9C38 
 918      A1891A5D 
 918      089710
 919 0064 E220FF11 		.ascii	"\342 \377\021'\240]~%D\221]\323\310\237#d\202\376-Y"
 919      27A05D7E 
 919      2544915D 
 919      D3C89F23 
 919      6482FE2D 
 920 0079 4807418F 		.ascii	"H\007A\217m\353\200z\220v\010\217F:<\250\246:\302\233"
 920      6DEB807A 
 920      9076088F 
 920      463A3CA8 
 920      A63AC29B 
 921 008d E2CEEB54 		.ascii	"\342\316\353TE&\011\350\274\374\372\262~\332\251\226"
 921      452609E8 
 921      BCFCFAB2 
 921      7EDAA996 
 922 009d 403A2FFD 		.ascii	"@:/\375r\264\334\310j\226\322+#u={Z\272Gd\274I\232\360"
 922      72B4DCC8 
 922      6A96D22B 
 922      23753D7B 
 922      5ABA4764 
 923 00b5 71FA0DA4 		.ascii	"q\372\015\244\241\031i\252\370Mdq\262w\252\347-(\003"
 923      A11969AA 
 923      F84D6471 
 923      B277AAE7 
 923      2D2803
 924 00c8 829F8363 		.ascii	"\202\237\203c\301\263\231M\026\356W-\311}&\021Z@\177"
 924      C1B3994D 
 924      16EE572D 
 924      C97D2611 
 924      5A407F
 925 00db E3784BA0 		.ascii	"\343xK\240\025\231\234\035\225Wj\235\264\337B\016~\231"
 925      15999C1D 
 925      95576A9D 
 925      B4DF420E 
 925      7E99
 926 00ed 083B1554 		.ascii	"\010;\025T\312\310D\252OFt\223\331\336Z\215\325\005"
 926      CAC844AA 
 926      4F467493 
 926      D9DE5A8D 
 926      D505
 927 00ff DA90A900 		.ascii	"\332\220\251\000\221\311P\275A\007,po\231\337o\313h"
 927      91C950BD 
ARM GAS  /tmp/cclTcGoe.s 			page 74


 927      41072C70 
 927      6F99DF6F 
 927      CB68
 928 0111 B0EACE46 		.ascii	"\260\352\316FSk.\312\247\222\361\032\332W\342\325\217"
 928      536B2ECA 
 928      A792F11A 
 928      DA57E2D5 
 928      8F
 929 0122 D3A7BAE6 		.ascii	"\323\247\272\346\257&\331tt C\265\304\235t\302\006\276"
 929      AF26D974 
 929      742043B5 
 929      C49D74C2 
 929      06BE
 930 0134 A99D8E51 		.ascii	"\251\235\216QD\344\374B\251\214L\236\257\032\234\\\320"
 930      44E4FC42 
 930      A98C4C9E 
 930      AF1A9C5C 
 930      D0
 931 0145 125942E6 		.ascii	"\022YB\346k\023*j0\2078;,\022\242\202\261J\334J\226"
 931      6B132A6A 
 931      3087383B 
 931      2C12A282 
 931      B14ADC4A 
 932 015a 86EF3487 		.ascii	"\206\3574\207\342\340\317\020\251\323T\231\276\276O"
 932      E2E0CF10 
 932      A9D35499 
 932      BEBE4F
 933 0169 E386272A 		.ascii	"\343\206'*\355&\331|\244\316\357\202G\005jK\006^\033"
 933      ED26D97C 
 933      A4CEEF82 
 933      47056A4B 
 933      065E1B
 934 017c 4A6D03AB 		.ascii	"Jm\003\253\362\214\006\212Q\374\370bl(\301D\000&\331"
 934      F28C068A 
 934      51FCF862 
 934      6C28C144 
 934      0026D9
 935 018f 719BA7D6 		.ascii	"q\233\247\326\255\350s\240\252\267\263\334\356jS:\245"
 935      ADE873A0 
 935      AAB7B3DC 
 935      EE6A533A 
 935      A5
 936 01a0 9B148F3B 		.ascii	"\233\024\217;0q\215\026\033\253\034\011U;\371\2442+"
 936      30718D16 
 936      1BAB1C09 
 936      553BF9A4 
 936      322B
 937 01b2 9880BB70 		.ascii	"\230\200\273pYd\320\003\217I\211b\016\227\202\015aC"
 937      5964D003 
 937      8F498962 
 937      0E97820D 
 937      6143
 938 01c4 ED05C8B6 		.ascii	"\355\005\310\266\262\264\303\307]\010\334c\212\001\322"
 938      B2B4C3C7 
 938      5D08DC63 
 938      8A01D2
 939 01d3 3743AB77 		.ascii	"7C\253wmZ\301\346\360\005\223\222\320g1\303?\314\230"
ARM GAS  /tmp/cclTcGoe.s 			page 75


 939      6D5AC1E6 
 939      F0059392 
 939      D06731C3 
 939      3FCC98
 940 01e6 C121939C 		.ascii	"\301!\223\234\270\277D\356\001<\233)\367p\235r\255\252"
 940      B8BF44EE 
 940      013C9B29 
 940      F7709D72 
 940      ADAA
 941 01f8 DC163CB2 		.ascii	"\334\026<\262\312i\353\224KFh\251\\Xi\261U\274\2077"
 941      CA69EB94 
 941      4B4668A9 
 941      5C5869B1 
 941      55BC8737 
 942 020c B8DB1A3C 		.ascii	"\270\333\032<\217\225\325\0203(\036\037\234\234w\374"
 942      8F95D510 
 942      33281E1F 
 942      9C9C77FC 
 943 021c 5167794E 		.ascii	"QgyN\032\004\"\213\376\251d\377\372s\350\003\274?J\337"
 943      1A04228B 
 943      FEA964FF 
 943      FA73E803 
 943      BC3F4ADF 
 944 0230 455362D9 		.ascii	"ESb\331\006g\177\037~^\346`\262E\212\324,\330(\333\370"
 944      06677F1F 
 944      7E5EE660 
 944      B2458AD4 
 944      2CD828DB 
 945 0245 98188EC3 		.ascii	"\230\030\216\303M3\336vcyp\333\321o\361]lt\274\261\277"
 945      4D33DE76 
 945      637970DB 
 945      D16FF15D 
 945      6C74BCB1 
 946 025a 3191F92A 		.ascii	"1\221\371*\350Nv\030\006\300\2578\006y\030s(I_\303Q"
 946      E84E7618 
 946      06C0AF38 
 946      06791873 
 946      28495FC3 
 947 026f 3B7C0A8B 		.ascii	";|\012\213!k\\F\200x+\305b\247/[q:\274\216\025\371\003"
 947      216B5C46 
 947      80782BC5 
 947      62A72F5B 
 947      713ABC8E 
 948 0286 82C7312B 		.ascii	"\202\3071+\376W\365'\033xox#\357=]\322\373Y\314{\237"
 948      FE57F527 
 948      1B786F78 
 948      23EF3D5D 
 948      D2FB59CC 
 949 029c 59EFB9F0 		.ascii	"Y\357\271\360\256Eu\025\250\202\315\301\\yd{\263\263"
 949      AE457515 
 949      A882CDC1 
 949      5C79647B 
 949      B3B3
 950 02ae 5DB12BBF 		.ascii	"]\261+\277\220\257\223'\016\273\012\013\334.\367\361"
 950      90AF9327 
 950      0EBB0A0B 
 950      DC2EF7F1 
ARM GAS  /tmp/cclTcGoe.s 			page 76


 951 02be 63B9EE33 		.ascii	"c\271\3563\371\005\347\262\335B\317\313=u\024yt\244"
 951      F905E7B2 
 951      DD42CFCB 
 951      3D751479 
 951      74A4
 952 02d0 F0F46F94 		.ascii	"\360\364o\224*\216\270"
 952      2A8EB8
 953              		.text
 954              		.section	.gnu.lto_chFactoryFindSemaphore.c5db887e79e5134d,"",%progbits
 955 0000 789C8D91 		.ascii	"x\234\215\221\313O\023Q\024\306\3177\247\323\031Q\210"
 955      CB4F1351 
 955      14C6CF37 
 955      A7D31951 
 955      88
 956 0011 7B892168 		.ascii	"{\211!hC0\261\023\377\003\377\025\254\032MT\224\232"
 956      4330B113 
 956      FF03FF15 
 956      AC1A4D54 
 956      949A
 957 0023 1857736D 		.ascii	"\030Wsm@iI\200\215`\251\315\014!\244>\300\266\210\330"
 957      40694980 
 957      8D60A9CD 
 957      0C21A43E 
 957      C0B688D8 
 958 0037 FA681A53 		.ascii	"\372h\032Sv*J\002\033\023\026\030X\010.d\241+\301s\247"
 958      762A4A02 
 958      1B131618 
 958      58082E64 
 958      A12BC173 
 959 004c 90880FF4 		.ascii	"\220\210\017\364\346N\356\353|\347\374\3167&\031t\220"
 959      E64EEEEB 
 959      7CE7FCCE 
 959      37261974 
 959      90
 960 005d 898E13D1 		.ascii	"\211\216\023\321!\371\300\004c\360-\321\015\333\000"
 960      21F9C004 
 960      63F02DD1 
 960      0DDB00
 961 006c F446D920 		.ascii	"\364F\331 \327\200\213\001\036f\274\357.\334\345~\366"
 961      D7808B01 
 961      1E66BCEF 
 961      2EDCE57E 
 961      F6
 962 007d 242C24C7 		.ascii	"$,$\307/oF>6\351#\320\"\307\214\232OZ\3559\245\022\252"
 962      2F6F463E 
 962      36E923D0 
 962      22C78C9A 
 962      4F5AED39 
 963 0094 3A3CDD3A 		.ascii	":<\335::~35\010\217\015JK\374=4#\207f]\344>\332%:\261"
 963      3A7E3335 
 963      088F0D4A 
 963      4BFC3D34 
 963      2387665D 
 964 00ae 3CB3088E 		.ascii	"<\263\010\216\200d\357/\370\327\332\306\003\341\372"
 964      8064EF2F 
 964      F8D7DAC6 
 964      03E1FA
ARM GAS  /tmp/cclTcGoe.s 			page 77


 965 00bd 10ABA31E 		.ascii	"\020\253\243\0363\036\200\177\326\311\025\341!\332t"
 965      331E807F 
 965      D6C915E1 
 965      21DA74
 966 00cc 7875A932 		.ascii	"xu\2512b\361\261@Z\352\315d\302\221\261@\273\224\344"
 966      62F1B140 
 966      5AEACD64 
 966      C291B140 
 966      BB94E4
 967 00df 8929A592 		.ascii	"\211)\245\222'\245(&v\353\365\220\360\345\342\346\355"
 967      27A52826 
 967      76EBF590 
 967      F0E5E2E6 
 967      ED
 968 00f0 C6700893 		.ascii	"\306p\010\223\210h,\241y\2040d\3217\371yT\325\346\326"
 968      88682CA1 
 968      79843064 
 968      D137F979 
 968      54D5E6D6 
 969 0104 2D555D4C 		.ascii	"-U]L\2428\267\232:bIkR\324\244@@)QhW\372\244)Yy\015"
 969      A238B79A 
 969      3A62496B 
 969      52D4A440 
 969      40295168 
 970 011f DDFEB7DA 		.ascii	"\335\376\267\332\011\235C'/\227\327?X\356we{\034J\263"
 970      099D4327 
 970      2F97D73F 
 970      58EE7765 
 970      7B1C4AB3 
 971 0133 CE9A87AB 		.ascii	"\316\232\207\253\037\206z^\315Y\332(\023\277\304\231"
 971      1F867A5E 
 971      CD59DA28 
 971      13BFC499 
 972 0143 635C07FB 		.ascii	"c\\\007\373\364z\241\326\340!+\206\205Q\024\303\013"
 972      F47AA1D6 
 972      E0212B86 
 972      855114C3 
 972      0B
 973 0154 1A5A1EFA 		.ascii	"\032Z\036\372K\205\244\355L*\031-\036[\230\202\207;"
 973      4B85A4ED 
 973      4C2A192D 
 973      1E5B9882 
 973      873B
 974 0166 BCDD4EDF 		.ascii	"\274\335N\337\273\312@\223d\352\015\036m<\206\023\300"
 974      BBCA4093 
 974      64EA0D1E 
 974      6D3C8613 
 974      C0
 975 0177 601AAEC7 		.ascii	"`\032\256\307\373h\015=\376V\355\212\276\313\262\271"
 975      FB680D3D 
 975      FE56ED8A 
 975      BECBB2B9 
 976 0187 BB74435A 		.ascii	"\273tCZ\272 <\021\304,\363\377`\315\374\031\313\377"
 976      BA203C11 
 976      C42CF3FF 
 976      60CDFC19 
 976      CBFF
ARM GAS  /tmp/cclTcGoe.s 			page 78


 977 0199 2A9DEDC7 		.ascii	"*\235\355\307\323\000\014\277\201\371\033\">\200\322"
 977      D3000CBF 
 977      81F91B22 
 977      3E80D2
 978 01a8 0E5A59A3 		.ascii	"\016ZY\2435\322\012\022\376\341\300}\261V\340H\233\231"
 978      35D20A12 
 978      FEE1C07D 
 978      B156E048 
 978      9B99
 979 01ba 9BFD8B99 		.ascii	"\233\375\213\231\202\203gu3\377\211\371|\017\367^\354"
 979      82836775 
 979      33FF89F9 
 979      7C0FF75E 
 979      EC
 980 01cb E5DECB1D 		.ascii	"\345\336\313\035\304J\335\275\317\202\230\237\035\345"
 980      C44ADDBD 
 980      CF82989F 
 980      1DE5
 981 01d9 6DFBB42A 		.ascii	"m\373\264*%\015\312\237\027\343Z\243Q\247>;\3432/\234"
 981      250DCA9F 
 981      17E35AA3 
 981      51A73E3B 
 981      E3322F9C 
 982 01ed 3FE5C4BB 		.ascii	"?\345\304\273bN\354\334\331\216\330\325\316\256\353"
 982      624EECDC 
 982      D98ED8D5 
 982      CEAEEB
 983 01fc D118852E 		.ascii	"\321\030\205.u\\<\303\247\343\227\177\000\260\362\013"
 983      755C3CC3 
 983      A7E3977F 
 983      00B0F20B 
 984 020c C7       		.ascii	"\307"
 985              		.text
 986              		.section	.gnu.lto_chFactoryReleaseSemaphore.c5db887e79e5134d,"",%progbits
 987 0000 789C8D54 		.ascii	"x\234\215TkKTQ\024=\353\236;s'u\264,\010\"D*\011?\350"
 987      6B4B5451 
 987      143DEB9E 
 987      3B732775 
 987      B42C0822 
 988 0019 20F421FA 		.ascii	" \364!\3727eEA\241h\004}\232\253Yj\232J\321\330D\303"
 988      37654541 
 988      A168047D 
 988      9AAB596A 
 988      9A4AD1D8 
 989 002f 1DB07759 		.ascii	"\035\260wY\226\225\316T6Y\215eZ\226e\245\025\230f\251"
 989      9695CE54 
 989      36598D65 
 989      5A9665A5 
 989      159866A9 
 990 0043 450F8220 		.ascii	"E\017\202 \312\332\373\\G\306\324\306\313}\235\327Z"
 990      CADAFB5C 
 990      47C6D4C6 
 990      CB7D9DD7 
 990      5A
 991 0054 EBACB3F7 		.ascii	"\353\254\263\367v\010M,5\204X+\204XC\017\034\002Z\335"
 991      76084D2C 
 991      3584582B 
ARM GAS  /tmp/cclTcGoe.s 			page 79


 991      8458430F 
 991      1C025ADD 
 992 0068 43214A5C 		.ascii	"C!J\\\232&\303\031\302L\322\373<\302L\221\320\355n\035"
 992      9A26C319 
 992      C24CD2FB 
 992      3CC24C91 
 992      D0ED6E1D 
 993 007c E01FD305 		.ascii	"\340\037\323\005\341\325\244\016/je\275D{\371HH\313"
 993      E1D5A40E 
 993      2F6A65BD 
 993      447BF948 
 993      48CB
 994 008e 3E69D215 		.ascii	">i\322\025\251\257[9h\366\230\322\222B\370\351\341\013"
 994      A9AF5B39 
 994      68F698D2 
 994      9242F8E9 
 994      E10B
 995 00a0 27914DD3 		.ascii	"'\221M\323\036\2275\035\22554\002\350\324\374\332}d"
 995      1E97351D 
 995      95353402 
 995      E8D4FCDA 
 995      7D64
 996 00b2 28959B1A 		.ascii	"(\225\233\0322\251\031y\323v\304\220Y\020\364\377\245"
 996      32A91979 
 996      D376C490 
 996      5910F4FF 
 996      A5
 997 00c3 3B54E958 		.ascii	";T\351X}\3344K\315H\227O\232\253,)q\006\222\000q\032"
 997      7DDC344B 
 997      CD48974F 
 997      9AAB2C29 
 997      71069200 
 998 00d9 CB710ACB 		.ascii	"\313q\012\313\005u\011\234\305j\236\377\366\342\304"
 998      0575099C 
 998      C56A9EFF 
 998      F6E2C4
 999 00e8 21B753B7 		.ascii	"!\267S\267\011q\016N\320\367\302\023D\314\211?\345f"
 999      09710E4E 
 999      D0F7C213 
 999      44CC893F 
 999      E566
 1000 00fa E4FB0934 		.ascii	"\344\373\0114\017\271\222\211\227\346\353\264Rw\322"
 1000      0FB99289 
 1000      97E6EBB4 
 1000      5277D2
 1001 0109 CB61F04B 		.ascii	"\313a\360K\210}\264\210wU%5\376\312q\224\005\317F\363"
 1001      887DB488 
 1001      77552535 
 1001      FECA7194 
 1001      05CF46F3 
 1002 011d 1886B143 		.ascii	"\030\206\261C\241\217\003\206\367\267\351\262\244\323"
 1002      A18F0386 
 1002      F7B7E9B2 
 1002      A4D3
 1003 012b 2F09188D 		.ascii	"/\011\030\215\360\362\200oO\373#\203\365\033\370g\236"
 1003      F0F2806F 
 1003      4FFB2383 
ARM GAS  /tmp/cclTcGoe.s 			page 80


 1003      F51BF867 
 1003      9E
 1004 013c D1C03AA8 		.ascii	"\321\300:\250o\254\353\331\235$\013\001X\322\205\013"
 1004      6FACEBD9 
 1004      9D240B01 
 1004      58D2850B 
 1005 014c 64D77912 		.ascii	"d\327y\022\316\0035\255M\225.O#;\226i\311\005h\202\205"
 1005      CE0335AD 
 1005      4D952E4F 
 1005      233B9669 
 1005      C9056882 
 1006 0161 C3CA2D1A 		.ascii	"\303\312-\032\254\352i\253M%\244\0125\230\204\213\360"
 1006      ACEA69AB 
 1006      4D25A40A 
 1006      3598848B 
 1006      F0
 1007 0172 2831B804 		.ascii	"(1\270\004\257%\223\305(J\177\226\337\365;\2713 \365"
 1007      AF2593C5 
 1007      284A7F96 
 1007      DFF53BB9 
 1007      3320F5
 1008 0185 78295249 		.ascii	"x)RI\371\321\321Y\221B\264%\004\037\234\000m3%@C\315"
 1008      F9D1D159 
 1008      9142B425 
 1008      041F9C00 
 1008      6D332540 
 1009 019b 93E4C787 		.ascii	"\223\344\307\207K\317\033S\344n\\V\344\260\311\007\216"
 1009      4BCF1B53 
 1009      E46E5C56 
 1009      E4B0C907 
 1009      8E
 1010 01ac DD3A964C 		.ascii	"\335:\226L\344\2744\225\234\302\025xh\317Wi\317\357"
 1010      E4BC3495 
 1010      9CC21578 
 1010      68CF5769 
 1010      CFEF
 1011 01be 509AC99C 		.ascii	"P\232\311\2344k82\376\326-\263\025[e\311\376\200\236"
 1011      346B3832 
 1011      FED62DB3 
 1011      155B65C9 
 1011      FE809E
 1012 01d1 D5A00E2B 		.ascii	"\325\240\016+Z-}\273\315{\246\316+[\246\037\230\212"
 1012      5A2D7DBB 
 1012      CD7BA6CE 
 1012      2B5BA61F 
 1012      988A
 1013 01e3 84566491 		.ascii	"\204Vd\221d\206\0126\333\036\023B\371\301\376N\267\314"
 1013      64860A36 
 1013      DB1E1342 
 1013      F9C1FE4E 
 1013      B7CC
 1014 01f5 51680DBD 		.ascii	"Qh\015\275\341\261\264\231h\251\010\315\202\026F\326"
 1014      E1B1B499 
 1014      68A908CD 
 1014      821646D6 
 1015 0205 7C9CBF36 		.ascii	"|\234\2776\273\363\301\226\350 \010;\015\327\225\003"
 1015      BBF3C196 
ARM GAS  /tmp/cclTcGoe.s 			page 81


 1015      E820083B 
 1015      0DD79503 
 1016 0215 DA0CFB59 		.ascii	"\332\014\373Y#s\337\210\235@\333t\033>\264F+\\2O\011"
 1016      2373DF88 
 1016      9D40DB74 
 1016      1B3EB446 
 1016      2B5C324F 
 1017 022a 6FAB08D6 		.ascii	"o\253\010\326;f\012_\210\233\263\010\217\314O\370\255"
 1017      3B660A5F 
 1017      889BB308 
 1017      8FCC4FF8 
 1017      AD
 1018 023b 39845FB3 		.ascii	"9\204_\263\205/B\273\022.\347\020\276\020\267c\302\357"
 1018      852F42BB 
 1018      122EE710 
 1018      BE10B763 
 1018      C2EF
 1019 024d 90708A9B 		.ascii	"\220p\212\233\360hc\007\246\022\246Le\354H5\305\006"
 1019      F0686307 
 1019      A612A64C 
 1019      65EC4835 
 1019      C506
 1020 025f 096237F9 		.ascii	"\011b7\371|T\002\371\311\215\270\304\302]\002\021\210"
 1020      7C5402F9 
 1020      C98DB8C4 
 1020      C25D0211 
 1020      88
 1021 0270 72C039E3 		.ascii	"r\3009\343\003N\237\026p$\332\315\221\32613\322\202"
 1021      034E9F16 
 1021      7024DACD 
 1021      91D63133 
 1021      D282
 1022 0282 2D01A725 		.ascii	"-\001\247%\323qO)\236D\304}\012\256Q\354\366\355\275"
 1022      D3714F29 
 1022      9E44C47D 
 1022      0AAE51EC 
 1022      F6EDBD
 1023 0295 2F6D70C3 		.ascii	"/mp\303\306\037\277\336\364\302\301\370\351\370CW\032"
 1023      C61FBFDE 
 1023      F4C2C1F8 
 1023      E9F84357 
 1023      1A
 1024 02a6 3A0991F4 		.ascii	":\011\221\364\373\026\360\264y2.\343\345\017\246\361"
 1024      FB16F0B4 
 1024      79322EE3 
 1024      E50FA6F1 
 1025 02b6 75C1431C 		.ascii	"u\301C\034b\030e\375\267\277\255\233\244\214\337O:\004"
 1025      621865FD 
 1025      B7BFAD9B 
 1025      A48CDF4F 
 1025      3A04
 1026 02c8 BA274FA9 		.ascii	"\272'O\251\212\214\015gP=p\362\304\177r|\261\237X\025"
 1026      8A8C0D67 
 1026      503D70F2 
 1026      C47F727C 
 1026      B19F5815 
 1027 02dc E643B2D6 		.ascii	"\346C\262\326N\303\204\347\371(Q \366$\010\304\307\261"
ARM GAS  /tmp/cclTcGoe.s 			page 82


 1027      4EC384E7 
 1027      F9285120 
 1027      F62408C4 
 1027      C7B1
 1028 02ee F37C02EF 		.ascii	"\363|\002\357|\010{\023\005\320\323\004\001\364,F\330"
 1028      7C087B13 
 1028      05D0D304 
 1028      01F42C46 
 1028      D8
 1029 02ff C7B56789 		.ascii	"\307\265g\211rEWe2\226\006*d\246\222\202\203(\256\025"
 1029      72455765 
 1029      3296062A 
 1029      64A69282 
 1029      8328AE15 
 1030 0313 896F1143 		.ascii	"\211o\021C\260}0G\256Q1S\375\371\306\257X\331\350\013"
 1030      B07D3047 
 1030      AE513153 
 1030      FDF9C6AF 
 1030      58D9E80B 
 1031 0327 2C393055 		.ascii	",90U6\236\317\222//\030\207\013\363\320\\\205Y\247Y"
 1031      369ECF92 
 1031      2F2F1887 
 1031      0BF3D05C 
 1031      8559A759 
 1032 033b 2FEDC29C 		.ascii	"/\355\302\234\320\225\376\377T\342\201\377U\342W17^"
 1032      D095FEFF 
 1032      54E281FF 
 1032      55E25731 
 1032      375E
 1033 034d DB95F813 		.ascii	"\333\225\370\023\225\261\367\321E\252\217\257}TE\311"
 1033      95B1F7D1 
 1033      45AA8FAF 
 1033      7D5445C9 
 1034 035d 1B3ABF15 		.ascii	"\033:\277\025\271\271\036\373.(\246{\333\326\015\236"
 1034      B9B91EFB 
 1034      2E28A67B 
 1034      DBD60D9E 
 1035 036d E2A27C4F 		.ascii	"\342\242|O\376\226\315\353\363w\024\024\355\312\315"
 1035      FE96CDEB 
 1035      F3771414 
 1035      EDCACD
 1036 037c 17726371 		.ascii	"\027rcq\241\334\270\211\236m\205\332\366B\275\260h\323"
 1036      A1DCB889 
 1036      9E6D85DA 
 1036      F642BDB0 
 1036      68D3
 1037 038e CEBF2048 		.ascii	"\316\277 H_\316"
 1037      5FCE
 1038              		.text
 1039              		.section	.gnu.lto_chFactoryCreateMailbox.c5db887e79e5134d,"",%progbits
 1040 0000 789C8D54 		.ascii	"x\234\215TYO\023a\024\375\316\334)S\012T\334\210\017"
 1040      594F1361 
 1040      14FDCEDC 
 1040      29530A54 
 1040      DC880F
 1041 0013 68884A08 		.ascii	"h\210J\010\306\320\230\370J\342_A\324h\"`\300\304\370"
 1041      C6D098F8 
ARM GAS  /tmp/cclTcGoe.s 			page 83


 1041      4AE25F41 
 1041      D4682260 
 1041      C0C4F8
 1042 0026 D469C5B2 		.ascii	"\324i\305\262%\300\203,\005\233)\001\202\202,\005Ap"
 1042      25C0832C 
 1042      059B2901 
 1042      82822C05 
 1042      4170
 1043 0038 C1B2084A 		.ascii	"\301\262\010J\352F\202/\360\204hD\224\304(qI\000\357"
 1043      EA46822F 
 1043      F0846844 
 1043      94C42871 
 1043      4900EF
 1044 004b 3703C826 		.ascii	"7\003\310&\332Lg\371\276s\346\234{\357imB\021\013\252"
 1044      DA4C67F9 
 1044      BE73E69C 
 1044      7BEF696D 
 1044      42110BAA 
 1045 005f 102E21C4 		.ascii	"\020.!\304I\376\302&\240\224\277\020\302cW\024\252M"
 1045      49FEC226 
 1045      A094BF10 
 1045      C2635714 
 1045      AA4D
 1046 0071 17BA435D 		.ascii	"\027\272C]\210\027z,A\265\226U@\336\350v\010\267B*\334"
 1046      88177A2C 
 1046      41B59655 
 1046      40DEE876 
 1046      08B7422A 
 1047 0086 28A32AC2 		.ascii	"(\243*\302\353\374\216\233TJ\006\011\250\374\370\345"
 1047      EBFC8E9B 
 1047      544A0609 
 1047      A8FCF8E5 
 1048 0096 79CD5BA7 		.ascii	"y\315[\247|\004\222\370\261V\037/\322R\233t\335\253"
 1048      7C0492F8 
 1048      B1561F2F 
 1048      D2529B74 
 1048      DDAB
 1049 00a8 87AB7E1C 		.ascii	"\207\253~\034\3614\372\212\313a\220\"\374\214\277\205"
 1049      F134FA8A 
 1049      CB619022 
 1049      FC8CBF85 
 1050 00b8 44342151 		.ascii	"D4!Q\252\337F*\243\275\323=o@\311\020|\037\234\010^"
 1050      AADF462A 
 1050      A3BDD33D 
 1050      6F40C910 
 1050      7C1F9C08 
 1051 00cd 49693489 		.ascii	"Ii4\211S\225\244\0375\210\320\014Z\317\343%\201\026"
 1051      5395A41F 
 1051      3588D00C 
 1051      5ACFE325 
 1051      8116
 1052 00df A4307A51 		.ascii	"\2440zQ\277Q\351\244c&\323?X1\031\267B\035>\340\327"
 1052      BF51E9A4 
 1052      6326D33F 
 1052      583119B7 
 1052      421D3EE0 
 1053 00f4 C3AAC176 		.ascii	"\303\252\301v\357l\346\252\002\255H\221\204p\355rP\241"
ARM GAS  /tmp/cclTcGoe.s 			page 84


 1053      EF6CE6AA 
 1053      02AD4891 
 1053      8470ED72 
 1053      50A1
 1054 0106 E326B9BB 		.ascii	"\343&\271\273\360\333\250#\271\336$\317\227Qs\247\256"
 1054      F0DBA823 
 1054      B9DE24CF 
 1054      975173A7 
 1054      AE
 1055 0117 179D62C3 		.ascii	"\027\235b\303h\333\310\227\037\206O\207\226*\342\242"
 1055      68DBC897 
 1055      1F864F87 
 1055      962AE2A2 
 1056 0127 54B42359 		.ascii	"T\264#Y\226\304\225t \012|\221+\355\343\010\353K\313"
 1056      96C49574 
 1056      200A7C91 
 1056      2BEDE308 
 1056      EB4BCB
 1057 013a 057AF87D 		.ascii	"\005z\370}\031B\241\017\201.\325\311]dU\033\353\333"
 1057      1942A10F 
 1057      812ED5C9 
 1057      5D64551B 
 1057      EBDB
 1058 014c A2E44983 		.ascii	"\242\344I\203\254 ZH\274\203\027\242b\370\244\011Q\314"
 1058      AC205A48 
 1058      BC8317A2 
 1058      62F8A409 
 1058      51CC
 1059 015e 2F93ED2E 		.ascii	"/\223\355.\341^\361\225\346\220\037\\\036=!_/u\373\372"
 1059      E15EF195 
 1059      E6901F5C 
 1059      1E3D215F 
 1059      2F75FBFA 
 1060 0172 3E4D6AEE 		.ascii	">Mj\356E\335n\220\335OR0\004\267\334\250\274>\370R\223"
 1060      45DD6E90 
 1060      DD4F5230 
 1060      04B7DCA8 
 1060      BC3EF852 
 1061 0187 FD8FC626 		.ascii	"\375\217\306&\\t=Y\236?F&\206\035\006\002<\007\007\272"
 1061      5C743D59 
 1061      9E3F4626 
 1061      861D0602 
 1061      3C0707BA 
 1062 019b 788E9DB2 		.ascii	"x\216\235\262\036\336(\355\355(\262\273Zu\376$\031\024"
 1062      1EDE28ED 
 1062      ED28B2BB 
 1062      5A75FE24 
 1062      1914
 1063 01ad 83BB3050 		.ascii	"\203\2730PM+\225\226\274\352/s\362\233\012\315\315X"
 1063      4D2B9596 
 1063      BCEA2F73 
 1063      F29B0ACD 
 1063      CD58
 1064 01bf 74C3659A 		.ascii	"t\303e\232A\017\334\006\305\211Y\\\253\364\005B\276"
 1064      410FDC06 
 1064      C589595C 
 1064      ABF40542 
ARM GAS  /tmp/cclTcGoe.s 			page 85


 1064      BE
 1065 01d0 83723540 		.ascii	"\203r5@\266\000\3118,Ny\226\024i\307\006'\356\261\016"
 1065      B600C938 
 1065      2C4E7996 
 1065      1469C706 
 1065      27EEB10E 
 1066 01e4 C36A7CB0 		.ascii	"\303j|\2600\022\266>A6\250\350e\314\034|\301C\026$z"
 1066      3012B63E 
 1066      4136A8E8 
 1066      65CC1C7C 
 1066      C1431624 
 1067 01f9 630D4E3F 		.ascii	"c\015N?\267C\240\217k\015\220\366?\365\335\337\276\276"
 1067      B743A08F 
 1067      6B0D90F6 
 1067      3FF5DDDF 
 1067      BEBE
 1068 020b 604B6400 		.ascii	"`Kd\000\232A\273\360\300,\022[\212\0146E\352\300\246"
 1068      9A41BBF0 
 1068      C02C125B 
 1068      8A0C3645 
 1068      EAC0A6
 1069 021e E2F170B5 		.ascii	"\342\361p\265\322Gp\263i\203v\213w\360Z\016\345\330"
 1069      D24770B3 
 1069      6983768B 
 1069      77F05A0E 
 1069      E5D8
 1070 0230 D8A59841 		.ascii	"\330\245\230A\376\344\320|\365\020\376\330^\233\204"
 1070      FEE4D07C 
 1070      F510FED8 
 1070      5E9B84
 1071 023f 0281FE95 		.ascii	"\002\201\376\225\310\224pdk\323i\026\336_\005\213\241"
 1071      C8947064 
 1071      6BD36916 
 1071      DE5F058B 
 1071      A1
 1072 0250 11C5823B 		.ascii	"\021\305\202;\030\376}t\2540\226]{\244\273ip\012\366"
 1072      18FE7D74 
 1072      AC30965D 
 1072      7BA4BB69 
 1072      700AF6
 1073 0263 F07B2C22 		.ascii	"\360{,\"o7\316x\333\264\265\331\354\305c\323\266b\331"
 1073      6F37CE78 
 1073      DBB4B5D9 
 1073      ECC563D3 
 1073      B662D9
 1074 0276 9E6C1868 		.ascii	"\236l\030h\210a\333\222\232\300\031B\030\374\273\306"
 1074      8861DB92 
 1074      9AC01942 
 1074      18FCBBC6 
 1075 0286 00B7C954 		.ascii	"\000\267\311T\372\251Y:1\233u\232\225\235u\366a\320"
 1075      FAA9593A 
 1075      319B759A 
 1075      959D75F6 
 1075      61D0
 1076 0298 D4A1AD3A 		.ascii	"\324\241\255:K\334^\015C\246\3200\013\311\241%l\023"
 1076      4BDC5E0D 
 1076      43A6D030 
ARM GAS  /tmp/cclTcGoe.s 			page 86


 1076      0BC9A125 
 1076      6C13
 1077 02aa CFFD7EC9 		.ascii	"\317\375~\311\306\023sd\016\366\300\3010(\301\354\205"
 1077      C6137364 
 1077      0EF6C0C1 
 1077      3028C1EC 
 1077      85
 1078 02bb BA16EDB9 		.ascii	"\272\026\355\271\310_\242\315\177Q\030\261\242\375\317"
 1078      C85FA2CD 
 1078      7F5118B1 
 1078      A2FDCF
 1079 02ca 598FEE90 		.ascii	"Y\217\356\220\345\247;e\371\331\352\204\307\254,\177"
 1079      E5A73B65 
 1079      F9D9EA84 
 1079      C7AC2C7F 
 1080 02da E6F17E8D 		.ascii	"\346\361~\215\324\321\3120%\253\230#\302f\271\341\207"
 1080      D4D1CA30 
 1080      25AB9823 
 1080      C266B9E1 
 1080      87
 1081 02eb D3D25CD6 		.ascii	"\323\322\\\326\221\223\307\307\305\013\247]y\271\231"
 1081      9193C7C7 
 1081      C50BA75D 
 1081      79B999
 1082 02fa AECCF3E7 		.ascii	"\256\314\363\34722/\347\344^M\313\024jvF\326Yd\323\231"
 1082      32322FE7 
 1082      E45E4DCB 
 1082      146A7646 
 1082      D65964D3 
 1083 030f AC4BBF01 		.ascii	"\254K\277\001\232 \251/"
 1083      9A20A92F 
 1084              		.text
 1085              		.section	.gnu.lto_chFactoryFindMailbox.c5db887e79e5134d,"",%progbits
 1086 0000 789C8D91 		.ascii	"x\234\215\221\335K\024a\024\306\3173ggg\332R\272OB\252"
 1086      DD4B1461 
 1086      14C6CF33 
 1086      676767DA 
 1086      52BA4F42 
 1087 0015 4D0CDAA1 		.ascii	"M\014\332\241\377\240\177\305\266\242 \2634\210\256"
 1087      FFA07FC5 
 1087      B6A220B3 
 1087      3488AE
 1088 0024 E675D172 		.ascii	"\346u\321rWPo\324\326u\231\011\221-\313v\265\374\330"
 1088      57506FD4 
 1088      D6759909 
 1088      912DCB76 
 1088      B5FCD8
 1089 0037 3E6489A0 		.ascii	">d\211\240\033\335J\260\233\356\014\275\320\022\202"
 1089      1BDD4AB0 
 1089      9BEE0CBD 
 1089      D01282
 1090 0046 886E723D 		.ascii	"\210nr=\357\254BVZ/\357\360~\235\347\234\337y\306$\203"
 1090      EFAC4256 
 1090      5A2FEFF0 
 1090      7E9DE79C 
 1090      DF79C624 
 1091 005b 0E33D169 		.ascii	"\0163\321i\":\"\037\230`\364\225\211\332m\003\320\033"
ARM GAS  /tmp/cclTcGoe.s 			page 87


 1091      223A221F 
 1091      9860F495 
 1091      89DA6D03 
 1091      D01B
 1092 006d 65835C03 		.ascii	"e\203\\\003.zy\220\361\276\2430\314=\354IXH\216_\027"
 1092      2E7A7990 
 1092      F1BEA330 
 1092      CC3DEC49 
 1092      58488E5F 
 1093 0082 863ED5EA 		.ascii	"\206>\325\352#P/\307\214ZLZ\2159\245\022\2524\370\343"
 1093      23502FC7 
 1093      8C5A4C5A 
 1093      8D39A512 
 1093      AA34F8E3 
 1094 0096 64FBE8ED 		.ascii	"d\373\350\355T\037<6(-\361\367Q\207\034\352t\221\007"
 1094      541F3C36 
 1094      282DF1F7 
 1094      51871CEA 
 1094      749107
 1095 00a9 6894E8C4 		.ascii	"h\224\350\304\362\364\007p\024${\177\311\277\3310\032"
 1095      F2F40770 
 1095      14247B7F 
 1095      C9BFD930 
 1095      1A
 1096 00ba 08E70758 		.ascii	"\010\347\007X\235\360\2301\006\376U'W\204\207h\320\341"
 1096      9DF09831 
 1096      06FE5527 
 1096      57848768 
 1096      D0E1
 1097 00cc A54CC537 		.ascii	"\245L\3057\370T \235\352\372\366&\022\035\011\264\033"
 1097      F854209D 
 1097      EAFAF626 
 1097      121D09B4 
 1097      1B
 1098 00dd 191E9B54 		.ascii	"\031\036\233T*yV\212\342\321n\275\036\022\276<\261\331"
 1098      2A79568A 
 1098      E2D16EBD 
 1098      1E12BE3C 
 1098      B1D9
 1099 00ef 5F130E61 		.ascii	"_\023\016a\034Q\215%4\217\021\206,\372&\277\210\222"
 1099      1C518D25 
 1099      348F1186 
 1099      2CFA26BF 
 1099      8892
 1100 0101 DAACDC51 		.ascii	"\332\254\334Q\245\325\2144\367}\370\270%\255IQ\223\002"
 1100      A5D58C34 
 1100      F77DF8B8 
 1100      25AD4951 
 1100      9302
 1101 0113 01A544A1 		.ascii	"\001\245D\241]\351\226\246d\345ut\370\225\2053:\207"
 1101      5DE996A6 
 1101      64E57574 
 1101      F8958533 
 1101      3A87
 1102 0125 4E5E2C7E 		.ascii	"N^,~\376h\271?\225\355q(\315:k\036\256~\030\350|\365"
 1102      FE68B93F 
 1102      95ED7128 
ARM GAS  /tmp/cclTcGoe.s 			page 88


 1102      CD3A6B1E 
 1102      AE7E18E8 
 1103 013b D6D24699 		.ascii	"\326\322F\231\370-\316\034\341*\330\332\374\322\353"
 1103      F82DCE1C 
 1103      E12AD8DA 
 1103      FCD2EB
 1104 014a 8887AC18 		.ascii	"\210\207\254\030\026\306\204\030^\320\320\362\3203["
 1104      16C68418 
 1104      5ED0D0F2 
 1104      D0335B
 1105 0159 48DACEB8 		.ascii	"H\332\316\270\222Q\357\261\205Ix\270\313\333\355t\277"
 1105      9251EFB1 
 1105      854978B8 
 1105      CBDBED74 
 1105      BF
 1106 016a 9BEBAD95 		.ascii	"\233\353\255\225L]\301\243\215'p\002\030<\205\353\361"
 1106      4C5DC1A3 
 1106      8D277002 
 1106      183C85EB 
 1106      F1
 1107 017b 015A47A7 		.ascii	"\001ZG\247\237+_\327wY6w\227\216\244\245\013\302\224"
 1107      9F2B5FD7 
 1107      77593677 
 1107      978EA4A5 
 1107      0BC294
 1108 018e 206699FF 		.ascii	" f\231\377\007k\372\357X\376\206tv\0203\001\030\376"
 1108      076BFAEF 
 1108      58FE8674 
 1108      76103301 
 1108      18FE
 1109 01a0 00F3D744 		.ascii	"\000\363\327D|\010\263;hE\215VC+H\370G\003\367\305Z"
 1109      7C08B33B 
 1109      68458D56 
 1109      432B48F8 
 1109      4703F7C5 
 1110 01b5 81236D66 		.ascii	"\201#mf\276\274\207\231\202\203gU3\377\211\371|\037"
 1110      BEBC8799 
 1110      82836755 
 1110      33FF89F9 
 1110      7C1F
 1111 01c7 F75EECE7 		.ascii	"\367^\354\347\336\313\035\304\271\252{_\004q\246|\217"
 1111      DECB1DC4 
 1111      B9AA7B5F 
 1111      0471A67C 
 1111      8F
 1112 01d8 B7EDD3AA 		.ascii	"\267\355\323\252\2244(\177^\214;\026\2139\325\331\322"
 1112      9434287F 
 1112      5E8C3B16 
 1112      8B39D5D9 
 1112      D2
 1113 01e9 26F3CAE5 		.ascii	"&\363\312\345sN[k\334\211_\272\330\024\277\321\322z"
 1113      734E5B6B 
 1113      DC895FBA 
 1113      D814BFD1 
 1113      D27A
 1114 01fb 2B16A7D0 		.ascii	"+\026\247\320\325\246\346\013|\276\371\332\026\\\246"
 1114      D5A6E60B 
ARM GAS  /tmp/cclTcGoe.s 			page 89


 1114      7CBEF9DA 
 1114      165CA6
 1115 020a 0CC5     		.ascii	"\014\305"
 1116              		.text
 1117              		.section	.gnu.lto_chFactoryReleaseMailbox.c5db887e79e5134d,"",%progbits
 1118 0000 789C8D54 		.ascii	"x\234\215T\371KTQ\030\275\347\3357K\352\214\032\375"
 1118      F94B5451 
 1118      18BDE7DD 
 1118      374BEA8C 
 1118      1AFD
 1119 0012 1421120D 		.ascii	"\024!\022\015\"\224CP\177P\215FA\241h\004\3754\317\245"
 1119      22944350 
 1119      7F508D46 
 1119      41A16804 
 1119      FD34CFA5 
 1120 0026 AC6CA370 		.ascii	"\254l\243pl\252\361\015\330\2769f\333\214K\243\355\246"
 1120      6CAAF10D 
 1120      D8BE3966 
 1120      DB8C4BA3 
 1120      EDA6
 1121 0038 8EB65311 		.ascii	"\216\266S\021-\232\270DDP\020\245}\337}\3160.i\227\267"
 1121      2D9AB844 
 1121      445010A5 
 1121      7DDF7DCE 
 1121      302E6997 
 1122 004d DEFBDD73 		.ascii	"\336\373\335s\276{\316w\257Mh\342\245M\210\365B\210"
 1122      BE7BCE77 
 1122      AF4D68E2 
 1122      A54D88F5 
 1122      4288
 1123 005f 7574C326 		.ascii	"ut\303&\240\035\356\027\242\322\251i2\226'\214\014\375"
 1123      A01DEE17 
 1123      A2D2A969 
 1123      3296278C 
 1123      0CFD
 1124 0071 85571859 		.ascii	"\205W\030Y\022\272\325\255\003\374a8!\374\232\324\341"
 1124      12BAD5AD 
 1124      03FC6138 
 1124      21FC9AD4 
 1124      E1
 1125 0082 C721D920 		.ascii	"\307!\331 \321]\3739\252\025\2365\250\305\033\236\025"
 1125      D15DFB39 
 1125      AA159E35 
 1125      A8C51B9E 
 1125      15
 1126 0093 7C30060C 		.ascii	"|0\006\014iJ!\202ts\303Y\024R\330`M\344\244<H#\200N"
 1126      694A2182 
 1126      7473C359 
 1126      1452D860 
 1126      4DE4A43C 
 1127 00ab BFDFFA8E 		.ascii	"\277\337\372\216\177r\363\257\206|\372\215\237\230\012"
 1127      7F72F3AF 
 1127      867CFA8D 
 1127      9F980A
 1128 00ba 6BD20341 		.ascii	"k\322\003A\337o\337_|\227Up\3320\252\214\370D\2754V"
 1128      DF6FDF5F 
 1128      7C975570 
ARM GAS  /tmp/cclTcGoe.s 			page 90


 1128      DA30AA8C 
 1128      F844BD34 
 1129 00cf 9952E202 		.ascii	"\231R\342\002$\001\342<V\340\034V\010\352\022\270\210"
 1129      2401E23C 
 1129      56E01C56 
 1129      08EA12B8 
 1129      88
 1130 00e0 028EFFD8 		.ascii	"\002\216\377\3302Y\357\262\353\026!.\301\016z7?A\334"
 1130      3259EFB2 
 1130      EB16212E 
 1130      C10E7A37 
 1130      3F41DC
 1131 00f3 989CAA35 		.ascii	"\230\234\2525\342\317\316\340\373\2103\223x)^\247\231"
 1131      E2CFCEE0 
 1131      FB883393 
 1131      78295EA7 
 1131      99
 1132 0104 BA9D1E36 		.ascii	"\272\235\0366\007?\204\330G\223xUuR\343\267\034GM\270"
 1132      073F84D8 
 1132      47937855 
 1132      7552E3B7 
 1132      1C474DB8 
 1133 0118 35B19661 		.ascii	"5\261\226a\030;\032\235x\343\360\3771\234\246\264\007"
 1133      183B1A9D 
 1133      78E3F0FF 
 1133      319CA6B4 
 1133      07
 1134 0129 2501E332 		.ascii	"%\001\3432\374<\020\330\325\235pp\376\016\314\212s4"
 1134      FC3C10D8 
 1134      D59D7070 
 1134      FE0ECC8A 
 1134      7334
 1135 013b 711ED437 		.ascii	"q\036\3247\326\373\374n\206\211\020L\351D3\311u\205"
 1135      D6FBFC6E 
 1135      8689104C 
 1135      E94433C9 
 1135      7585
 1136 014d 12E78183 		.ascii	"\022\347\201\203\267\"{\235\336\313\254X\276)\227 \002"
 1136      B7227B9D 
 1136      DECBAC58 
 1136      BE299720 
 1136      02
 1137 015e 13C7945A 		.ascii	"\023\307\224Z4X7\320y\310MH{\324`\006Z\340U\311\340"
 1137      345837D0 
 1137      79C84D48 
 1137      7BD46006 
 1137      5AE055C9 
 1138 0173 2AFCA6CC 		.ascii	"*\374\246\314\024\243\250\372U;\334a\347\316\220\324"
 1138      14A3A8FA 
 1138      553BDC61 
 1138      E7CE90D4 
 1139 0183 D353912A 		.ascii	"\323S\221*\225\237\017z\366d\021m%\301\207'A\313\314"
 1139      959F0F7A 
 1139      F664116D 
 1139      25C18727 
 1139      41CBCC
 1140 0196 0AD150EB 		.ascii	"\012\321P\3534\371\351\241\252+\216\024\271\013\327"
ARM GAS  /tmp/cclTcGoe.s 			page 91


 1140      34F9E9A1 
 1140      AA2B8E14 
 1140      B90BD7
 1141 01a5 14392CF2 		.ascii	"\0249,\3627\247\272Ne\0229Ou\223R\270\016/\255\371\006"
 1141      37A7BA4E 
 1141      6512394F 
 1141      759352B8 
 1141      0E2FADF9 
 1142 01ba AD791855 		.ascii	"\255y\030U\371\314IQC\361\361\217.Y\250\330\366V\036"
 1142      F9CC4951 
 1142      43F1F18F 
 1142      2E59A8D8 
 1142      F6561E
 1143 01cd 08E99E26 		.ascii	"\010\351\236&e\326\213F\031\2506\036\032:\317\2749\323"
 1143      65D68B46 
 1143      19A8361E 
 1143      1A3ACFBC 
 1143      39D3
 1144 01df 305509B7 		.ascii	"0U\011\267\340\241\224\031*\334fiL\010\265G_\367\270"
 1144      E0A19419 
 1144      2ADC6669 
 1144      4C08B547 
 1144      5FF7B8
 1145 01f2 E41A85D6 		.ascii	"\344\032\205\326\36446\226=\027\315\215\350<h1x\376"
 1145      F4343696 
 1145      3D17CD8D 
 1145      E83C6831 
 1145      78FE
 1146 0204 47F9B6F9 		.ascii	"G\371\266\371\225\247\014\006a7e6\332\225\002\332\034"
 1146      95A70C06 
 1146      61376536 
 1146      DA9502DA 
 1146      1C
 1147 0215 F9590137 		.ascii	"\371Y\0017:\222\372w\222\010$~l\264\367\036RUW\243\312"
 1147      3A92FA77 
 1147      9208247E 
 1147      6CB4F71E 
 1147      525557A3 
 1148 022a FE472309 		.ascii	"\376G#\011L\351\360\002U\005\006\011.\2552q\233\000"
 1148      4CE9F002 
 1148      55050609 
 1148      2EAD3271 
 1148      9B00
 1149 023c 04E2EC98 		.ascii	"\004\342\354\230=\3351}\206c\224\256\213\255\352\232"
 1149      3DDD317D 
 1149      866394AE 
 1149      8BADEA9A 
 1150 024c 6B55B835 		.ascii	"kU\2705@\271\346\240[\345*-D\334!wFQ\035\330\375HZ\340"
 1150      40B9E6A0 
 1150      5BE52A2D 
 1150      44DC2177 
 1150      46511DD8 
 1151 0264 0E0B7FBC 		.ascii	"\016\013\177\274=\362\312\306\3709\230\242\226\215\273"
 1151      3DF2CAC6 
 1151      F83998A2 
 1151      968DBB
 1152 0273 8448B907 		.ascii	"\204H\271\007\226p\330\1772.\347\351\367f\360\335\207"
ARM GAS  /tmp/cclTcGoe.s 			page 92


 1152      9670D87F 
 1152      322EE7E9 
 1152      F766F0DD 
 1152      87
 1153 0284 9738C410 		.ascii	"\2278\304\020j^\337\031[=M\231\276\236\034\010<\230"
 1153      6A5EDF19 
 1153      5B3D4D99 
 1153      BE9E1C08 
 1153      3C98
 1154 0296 F6A78EA6 		.ascii	"\366\247\216\246\305\362hC\3318p\326&\311\015\022\253"
 1154      C5F26843 
 1154      D93870D6 
 1154      26C90D12 
 1154      AB
 1155 02a7 C27C48B2 		.ascii	"\302|H\262Zu\274\250\223\217\026s\262gA'\037'\235\354"
 1155      5A75BCA8 
 1155      938F1673 
 1155      B2674127 
 1155      1F279DEC 
 1156 02bb E59DB454 		.ascii	"\345\235\264T\245\250\253M\237\254m\345_\252\322\331"
 1156      A5A8AB4D 
 1156      9FAC6DE5 
 1156      5FAAD2D9 
 1157 02cb 51915EF7 		.ascii	"Q\221^\367\341\356\017k\344Ze\331\376\257\035\277Se"
 1157      E1EE0F6B 
 1157      E45A65D9 
 1157      FEAF1DBF 
 1157      5365
 1158 02dd 1F5A7624 		.ascii	"\037Zv$U\366}\363\024j?\343\360\301\362\351_\007\213"
 1158      55F67DF3 
 1158      146A3FE3 
 1158      F0C1F2E9 
 1158      5F078B
 1159 02f0 4E5109EB 		.ascii	"NQ\011\353`YT\205\201\005N\222\301\205N\222'\311\365"
 1159      60595485 
 1159      81054E92 
 1159      C1854E92 
 1159      27C9F5
 1160 0303 3FB54E92 		.ascii	"?\265N\222/\264\015G\022\271\252\217\333>:\005H\015"
 1160      2FB40D47 
 1160      12B9AA8F 
 1160      DB3E3A05 
 1160      480D
 1161 0315 926F6551 		.ascii	"\222oeQ\221\327\272J+\350\332\272e\243\267\242\334\347"
 1161      91D7BA4A 
 1161      2BE8DABA 
 1161      65A3B7A2 
 1161      DCE7
 1162 0327 F56DDEB4 		.ascii	"\365m\336\264\301\267\275\264|g\221O\310\342me\262\270"
 1162      C1B7BDB4 
 1162      7C67914F 
 1162      C8E26D65 
 1162      B2B8
 1163 0339 84EEAD65 		.ascii	"\204\356\255ezYy\311\216\277<{\364U"
 1163      7A5979C9 
 1163      8EBF3C7B 
 1163      F455
ARM GAS  /tmp/cclTcGoe.s 			page 93


 1164              		.text
 1165              		.section	.gnu.lto_chFactoryCreateObjectsFIFO.c5db887e79e5134d,"",%progbits
 1166 0000 789C8D53 		.ascii	"x\234\215S\337O\024W\024\276\337\234\331\335\331uw\241"
 1166      DF4F1457 
 1166      14BEDF9C 
 1166      D9DDD975 
 1166      77A1
 1167 0012 B55A1F7C 		.ascii	"\265Z\037|0\215\224\350\003\033\232&}\322\370\320\277"
 1167      308D94E8 
 1167      031B9A26 
 1167      7DD2F8D0 
 1167      BF
 1168 0023 A0FF0150 		.ascii	"\240\377\001Pmi,4\322\244i_v\330\342\362+\"\017\025"
 1168      6D692C34 
 1168      D2A4695F 
 1168      76D8E2F2 
 1168      2B220F15 
 1169 0037 BAE066D6 		.ascii	"\272\340f\326(\241\256\305\005ZP\264\265(vU\024\004"
 1169      28A1AEC5 
 1169      055A50B4 
 1169      B5287655 
 1169      1404
 1170 0049 92853424 		.ascii	"\222\2054$\232\010\224\012mMS[[,\350\271w\006\304\025"
 1170      9A08940A 
 1170      6D4D535B 
 1170      5B2CE8B9 
 1170      7706C415 
 1171 005d A593993B 		.ascii	"\245\223\231;3\347\236\357\236\357~\367;.\241\211w\334"
 1171      33E79EEF 
 1171      9EEF7EF7 
 1171      3B2EA189 
 1171      77DC
 1172 006f 42BC2D84 		.ascii	"B\274-\204x\223\037\270\004\264\306a!*\015M\243\326"
 1172      78931FB8 
 1172      04B4C661 
 1172      212A0D4D 
 1172      A3D6
 1173 0081 5DC2F4E9 		.ascii	"]\302\364\351\177\345\012\323O\320\355\260\016\310\017"
 1173      7FE50AD3 
 1173      4FD0EDB0 
 1173      0EC80F
 1174 0090 D380086B 		.ascii	"\323\200\010k\244#\214\303\324L\030\255\352<J\015d\221"
 1174      A4238CC3 
 1174      D44C18AD 
 1174      EA3C4A0D 
 1174      6491
 1175 00a2 80CEBF7F 		.ascii	"\200\316\277\177\014\265L\005\345/\260\215\177[\315"
 1175      0CB54C05 
 1175      E52FB08D 
 1175      7F5BCD
 1176 00b1 B15ACF8E 		.ascii	"\261Z\317\216v\323\214\230\375\315#;G\333\242u\215\260"
 1176      76D38C98 
 1176      FDCD233B 
 1176      47DBA275 
 1176      8DB0
 1177 00c3 481331CE 		.ascii	"H\0231\316\377\012[\321\216\255\262\372I\354\340\354"
 1177      FF0A5BD1 
ARM GAS  /tmp/cclTcGoe.s 			page 94


 1177      8EADB2FA 
 1177      49ECE0EC 
 1178 00d3 C89DDE71 		.ascii	"\310\235\336qP\036\004\177'2\211O\362\333\024p\272\231"
 1178      501E047F 
 1178      2732894F 
 1178      F2DB1470 
 1178      BA99
 1179 00e5 CCED1611 		.ascii	"\314\355\026\021\222\240\3258\016\011\234B>g\317\314"
 1179      92A0D538 
 1179      0E099C42 
 1179      3E67CFCC 
 1180 00f5 4C368176 		.ascii	"L6\201v*\344\355\177\006\033\341@\207\223t\257\3334"
 1180      2AE4ED7F 
 1180      061BE140 
 1180      879374AF 
 1180      DB34
 1181 0107 BD1613FE 		.ascii	"\275\026\023\376:\033\255\013t(\364`\315\337\347@o("
 1181      3A1BAD0B 
 1181      7428F460 
 1181      CDDFE740 
 1181      6F28
 1182 0119 7463CFC3 		.ascii	"tc\317\303k^\007=\226\244\230\331\257K\360\3515\300"
 1182      6B5E073D 
 1182      96A498D9 
 1182      AF4BF0E9 
 1182      35C0
 1183 012b 29059EFD 		.ascii	")\005\236\375sv\324Go)p]w\362\276\337\001\337J\322\277"
 1183      7376D447 
 1183      6F29705D 
 1183      77F2BEDF 
 1183      01DF4AD2 
 1184 0140 7669173A 		.ascii	"vi\027:\263\321\254v\027\362%\344\352\300B\314O{\024"
 1184      B3D1AC76 
 1184      17F225E4 
 1184      EAC042CC 
 1184      4F7B14
 1185 0153 FCE1F586 		.ascii	"\374\341\365\206{Z\336q\005\3779I)\206\327\356a\265"
 1185      7B5ADE71 
 1185      05FF3949 
 1185      2986D7EE 
 1185      61B5
 1186 0165 D0FD345E 		.ascii	"\320\3754^^\234~\247k\351H\300\255\343\033\344I=Y\306"
 1186      5E9C7EA7 
 1186      6BE948C0 
 1186      ADE31BE4 
 1186      493D59C6 
 1187 0179 6FE106BF 		.ascii	"o\341\006\277d$5\206~s\351Q\265$\202\256\256_\206{\364"
 1187      64243586 
 1187      7E73E951 
 1187      B52482AE 
 1187      AE5F867B 
 1188 018e 8D7C84CC 		.ascii	"\215|\204\314\331%\353\273\345\340\201\024\300\220\237"
 1188      D925EBBB 
 1188      E5E08114 
 1188      C0909F
 1189 019d 5E39F820 		.ascii	"^9\370 \345\364\013\211\017p\300\035\344\301\223\303"
 1189      E5F40B89 
ARM GAS  /tmp/cclTcGoe.s 			page 95


 1189      0F70C01D 
 1189      E4C193C3 
 1190 01ad 83910B45 		.ascii	"\203\221\013EX\324q\035i\203z>C~\323<\252\022\3473\205"
 1190      58D4711D 
 1190      69837A3E 
 1190      437ED33C 
 1190      AA12E733 
 1191 01c2 B2B2A4D4 		.ascii	"\262\262\244\324\327\367\353\244'\274h\032\026yc$\271"
 1191      D7F7EBA4 
 1191      27BC681A 
 1191      16796324 
 1191      B9
 1192 01d3 F4202C27 		.ascii	"\364 ,'\232\016^\272\351\221\276\360!+\317w\234\354"
 1192      9A0E5EBA 
 1192      E991BEF0 
 1192      212BCF77 
 1192      9CEC
 1193 01e5 EDCCDDC8 		.ascii	"\355\314\335\310\\\366Y\210\263?6\340\014\373\253Wn"
 1193      5CF65988 
 1193      B33F36E0 
 1193      0CFBAB57 
 1193      6E
 1194 01f6 95271ACE 		.ascii	"\225'\032\316v\326\032\241\016\223\257m\026\371q\026"
 1194      76D61AA1 
 1194      0E93AF6D 
 1194      16F97116 
 1195 0206 16BE2447 		.ascii	"\026\276$G\204\372\221\013\207\203\274R\215\232\014"
 1195      84FA910B 
 1195      8783BC52 
 1195      8D9A0C
 1196 0215 A00F2145 		.ascii	"\240\017!E\006\347\020\266((\356\342\363\246h\307D:"
 1196      06E710B6 
 1196      2828EEE2 
 1196      F3A668C7 
 1196      443A
 1197 0227 03198E93 		.ascii	"\003\031\216\223+N\322\247S\355K\315n\311\307\205M8"
 1197      2B4ED2A7 
 1197      53ED4BCD 
 1197      6EC9C785 
 1197      4D38
 1198 0239 CF8538AF 		.ascii	"\317\2058\257%\352\344\310\264\325\326vA\307w\3139C"
 1198      25EAE4C8 
 1198      B4D5D676 
 1198      41C777CB 
 1198      3943
 1199 024b 13E9DD76 		.ascii	"\023\351\335v\232\301K\305\311c\22784\021\335n\207\275"
 1199      9AC14BC5 
 1199      C9639738 
 1199      3411DD6E 
 1199      87BD
 1200 025d 6A0143CC 		.ascii	"j\001C\314#\232(\266C\376\247\267\234\023c\365\004\276"
 1200      239A28B6 
 1200      43FEA7B7 
 1200      9C1363F5 
 1200      04BE
 1201 026f 6769E2E4 		.ascii	"gi\342\344\373?r\\X[\216\304l\346\030\266X\224\213\037"
 1201      FB3F725C 
ARM GAS  /tmp/cclTcGoe.s 			page 96


 1201      585B8EC4 
 1201      6CE618B6 
 1201      58948B1F 
 1202 0283 94267846 		.ascii	"\224&xF\223\304T\246\022\354\340\227\320\277,\314E\204"
 1202      93C454A6 
 1202      12ECE097 
 1202      D0BF2CCC 
 1202      4584
 1203 0295 99A4452F 		.ascii	"\231\244E/\213\031Dl\206\362\300\231\245\230F\325\344"
 1203      8B19446C 
 1203      86F2C099 
 1203      A59846D5 
 1203      E4
 1204 02a6 C0EFA706 		.ascii	"\300\357\247\006\360\204\366\312\301i\020\270\344\230"
 1204      F084F6CA 
 1204      C16910B8 
 1204      E498
 1205 02b4 AF9E3BAF 		.ascii	"\257\236;\257u\027\335Ed\241zq\"\255\331\351\001N\177"
 1205      7517DD45 
 1205      64A17A71 
 1205      22ADD9E9 
 1205      014E7F
 1206 02c7 7065B0C6 		.ascii	"pe\260\306\317\254+%\273\244\306\326\331\310\353\330"
 1206      CFAC2B25 
 1206      BBA4C6D6 
 1206      D9C8EBD8 
 1207 02d7 409E6E9B 		.ascii	"@\236n\233\216\234\366\254\034\345+\030P\2645\233\366"
 1207      8E9CF6AC 
 1207      1CE52B18 
 1207      50B4359B 
 1207      F6
 1208 02e8 E4898B27 		.ascii	"\344\211\213'60m\011\335\314\356\303e\204X\246\037Y"
 1208      36306D09 
 1208      DDCCEEC3 
 1208      658458A6 
 1208      1F59
 1209 02fa 2655E9D0 		.ascii	"&U\351\320O\351\327\355J\301\354Js\353T\332\204\264"
 1209      4FE9D7ED 
 1209      4AC1EC4A 
 1209      73EB54DA 
 1209      84B4
 1210 030c AAE468FB 		.ascii	"\252\344h\373Eko\265\2670\245*%yo\233q\005!>M\307S\377"
 1210      456B6FB5 
 1210      B730A52A 
 1210      25796F9B 
 1210      7105213E 
 1211 0324 3D589CF5 		.ascii	"=X\234\365;Dz5n\001\\E!3\271\266\314\344d\216\315#'"
 1211      3B447A35 
 1211      6E015C45 
 1211      2133B9B6 
 1211      CCE4648E 
 1212 033b 9BC702AD 		.ascii	"\233\307\002\255\307cp5\217\325;\236c\036\006\256\253"
 1212      C7637035 
 1212      8FD53B9E 
 1212      631E06AE 
 1212      AB
 1213 034c 2DDFE042 		.ascii	"-\337\340B\363\210\231\367o\267\370\326h\255Wcr\001"
ARM GAS  /tmp/cclTcGoe.s 			page 97


 1213      F38899F7 
 1213      6FB7F8D6 
 1213      68AD5763 
 1213      7201
 1214 035e 0C29FF04 		.ascii	"\014)\377\004\330\202\312\210\271\254\013S\262h\213"
 1214      D882CA88 
 1214      B9AC0B53 
 1214      B2688B
 1215 036d 3A217DA5 		.ascii	":!}\245?S\343\317\351O\336/\206\355\376\\\327\2017_"
 1215      3F53E3CF 
 1215      E94FDE2F 
 1215      86EDFE5C 
 1215      D781375F 
 1216 0381 D090232F 		.ascii	"\320\220#/j\310\321e\337\215\331\015\371\033\233\356"
 1216      6AC8D165 
 1216      DF8DD90D 
 1216      F91B9BEE 
 1217 0391 CCF83172 		.ascii	"\314\3701r,&Qul\\&\3136x\255\240 d\337\345\025|\357"
 1217      2C265175 
 1217      6C5C26CB 
 1217      3678ADA0 
 1217      2064DFE5 
 1218 03a8 2F2D0E55 		.ascii	"/-\016U\034(\011\225\274\277\257\250\344\343\362\003"
 1218      1C280995 
 1218      BCBFAFA8 
 1218      E4E3F203 
 1219 03b8 9F169408 		.ascii	"\237\026\224\010\275\254\350\303\275\236\362\342\017"
 1219      BDACE8C3 
 1219      BD9EF2E2 
 1219      0F
 1220 03c5 2A4A3FDB 		.ascii	"*J?\333\253\363\273\314\340\241h\177\351{e\372\273\345"
 1220      ABF3BBCC 
 1220      E0A1687F 
 1220      E97B65FA 
 1220      BBE5
 1221 03d7 FB3E7A0C 		.ascii	"\373>z\014\365\267&v"
 1221      F5B72676 
 1222              		.text
 1223              		.section	.gnu.lto_chFactoryFindObjectsFIFO.c5db887e79e5134d,"",%progbits
 1224 0000 789C8D91 		.ascii	"x\234\215\221\313O\023Q\024\306\3177g\246\035\261\260"
 1224      CB4F1351 
 1224      14C6CF37 
 1224      67A61DB1 
 1224      B0
 1225 0011 702B0B62 		.ascii	"p+\013bl\010\232t\342\177\340\277\002U\242\211Z\003"
 1225      6C089A74 
 1225      E27FE0BF 
 1225      0255A289 
 1225      5A03
 1226 0023 26C6556F 		.ascii	"&\306Uo\033PZ\222\302Fk\325fF\011\342\213>P\201\372"
 1226      1B505A92 
 1226      C2466BD5 
 1226      664609E2 
 1226      8B3E5081 
 1227 0038 208DBA30 		.ascii	" \215\2720\361\011\021\273\320\025\306hDC\334h\242\261"
 1227      F10911BB 
 1227      D015C668 
ARM GAS  /tmp/cclTcGoe.s 			page 98


 1227      4443DC68 
 1227      A2B1
 1228 004a 78EED426 		.ascii	"x\356\324&\342\003\275\271\223\373:\3379\277\363\215"
 1228      E203BDB9 
 1228      93FB3ADF 
 1228      39BFF38D 
 1229 005a 45066D62 		.ascii	"E\006mb\242\010\021m\226\017L0F\037\023%l\003\320\033"
 1229      A208116D 
 1229      960F4C30 
 1229      461F1325 
 1229      6C03D01B 
 1230 006e 6583E206 		.ascii	"e\203\342\006\342\030\341,c~\240t\2063\354J\230)\307"
 1230      E218E12C 
 1230      637EA074 
 1230      8633EC4A 
 1230      9829C7
 1231 0081 8F8F4EBD 		.ascii	"\217\217N\275j\323G\240C\216\247\325B*\3305\241TRU\263"
 1231      6AD347A0 
 1231      438EA7D5 
 1231      422AD835 
 1231      A1545255 
 1232 0096 2FB7CF8F 		.ascii	"/\267\317\217\037M\217\302e\203r\022\177\001\355\230"
 1232      1F4D8FC2 
 1232      65837212 
 1232      7F01ED98 
 1233 00a6 40BB2E72 		.ascii	"@\273.r\021]\022\235\\\232~\016\016\203d\357-z\207;"
 1233      115D129D 
 1233      5C9A7E0E 
 1233      0E8364EF 
 1233      2D7A873B 
 1234 00ba C77DE1B3 		.ascii	"\307}\341\263,\253\255.3.\201\177\326\311\025\3412:"
 1234      2CABAD2E 
 1234      332E817F 
 1234      D6C915E1 
 1234      323A
 1235 00cc 75F8FDBB 		.ascii	"u\370\375\273_r!\336\346K\277>\310\254\030\3411_[/p"
 1235      5F7221DE 
 1235      E64BBF3E 
 1235      C8AC18E1 
 1235      315F5B2F 
 1236 00e1 714AA9D4 		.ascii	"qJ\251\324N)\212+k\365zH\370R\271~\2745`b\022a\215%"
 1236      4E298A2B 
 1236      6BF57A48 
 1236      F852B97E 
 1236      BC356062 
 1237 00f9 34050420 		.ascii	"4\005\004 \213\276).\240\252\352\253\307T\365S\001\211"
 1237      8BBE292E 
 1237      A0AAEAAB 
 1237      C754F553 
 1237      0189
 1238 010b F2DBA119 		.ascii	"\362\333\241\0313(\275IU\213|\005\245E\242m\031\226"
 1238      3328BD49 
 1238      558B7C05 
 1238      A545A26D 
 1238      1996
 1239 011d AE64E565 		.ascii	"\256d\345e\014xoj;t\022\235\275Ry\377\"\030\377\246"
 1239      0C786F6A 
ARM GAS  /tmp/cclTcGoe.s 			page 99


 1239      3B74129D 
 1239      BD5279FF 
 1239      2218FFA6 
 1240 0131 6C97CD1C 		.ascii	"l\227\315\034\353\264E\304\365\303\211\301;O\202\332"
 1240      EBB445C4 
 1240      F5C389C1 
 1240      3B4F82DA 
 1241 0141 290BBFC4 		.ascii	")\013\277\304Yc\334 {\367p\361^\213\213\2748\026@Y\034"
 1241      5963DC20 
 1241      7BF770F1 
 1241      5E8B8BBC 
 1241      38164059 
 1242 0156 2F696A79 		.ascii	"/ijy\310\314\226R\2663\251dt\270\034\304\024\\\234\344"
 1242      C8CC9652 
 1242      B633A964 
 1242      74B81CC4 
 1242      145C9CE4 
 1243 016a 1FFD0C3F 		.ascii	"\037\375\014?\235\033i\223LC\376\243\215\253p|\030\\"
 1243      9D1B6993 
 1243      4C43FEA3 
 1243      8DAB707C 
 1243      185C
 1244 017c 43DCE50D 		.ascii	"C\334\345\015\264\214Ao\245\226`}\231gkm\355\226\234"
 1244      B48C416F 
 1244      A596607D 
 1244      99676B6D 
 1244      ED969C
 1245 018f B441B82E 		.ascii	"\264A\270.\214y\346\377\341\232\3763\227w>\344\362F"
 1245      8C79E6FF 
 1245      E19AFE33 
 1245      97773EE4 
 1245      F246
 1246 01a1 CCF864F8 		.ascii	"\314\370d\370\215\314;g\270\034\302l\223\255\242\331"
 1246      8DCC3B67 
 1246      B81CC26C 
 1246      93ADA2D9 
 1247 01b1 5AE93592 		.ascii	"Z\3515\222^\217\357\277x+p\244\335\374\37477\005\007"
 1247      5E8FEFBF 
 1247      782B70A4 
 1247      DDFCFC37 
 1247      370507
 1248 01c4 371A6EFE 		.ascii	"7\032n\376\023\363\346:\366\335Z\317\276\333M\304\271"
 1248      13F3E63A 
 1248      F6DD5ACF 
 1248      BEDB4DC4 
 1248      B9
 1249 01d5 867D1F04 		.ascii	"\206}\037\004q\265v\266i\237V\245\245A\371\365b\334"
 1249      71B576B6 
 1249      699F56A5 
 1249      A541F9F5 
 1249      62DC
 1250 01e7 9648C469 		.ascii	"\226H\304i\314X\277\314}{{\234\376\276\250\023\335\323"
 1250      CC58BFCC 
 1250      7D7B7B9C 
 1250      FEBEA813 
 1250      DDD3
 1251 01f9 DB1D3D14 		.ascii	"\333\035=\024\353;\022\211\222y\240{\377nsW\254\367"
ARM GAS  /tmp/cclTcGoe.s 			page 100


 1251      EB3B1289 
 1251      9279A07B 
 1251      FF6E7357 
 1251      ACF7
 1252 020b E0775993 		.ascii	"\340wY\223\016\317"
 1252      0ECF
 1253              		.text
 1254              		.section	.gnu.lto_chFactoryReleaseObjectsFIFO.c5db887e79e5134d,"",%progbits
 1255 0000 789C8D54 		.ascii	"x\234\215T\373K\223Q\030>\317w\276]\234\333\264\350"
 1255      FB4B9351 
 1255      183ECF77 
 1255      BE5D9CDB 
 1255      B4E8
 1256 0012 A7909068 		.ascii	"\247\220\220hHQ\033E\364\377\324,\012\002\305\"\350"
 1256      48511B45 
 1256      F4FFD42C 
 1256      0A02C522 
 1256      E8
 1257 0023 A77DAED5 		.ascii	"\247}\256\325RK\243h\265h|\243\025VV\316\256n\245\315"
 1257      524BA368 
 1257      B5687CA3 
 1257      155656CE 
 1257      AE6EA5CD 
 1258 0037 D9C5CCCC 		.ascii	"\331\305\314\314\013ih\376`-A\355BP\004\335\337s\276"
 1258      0B6968FE 
 1258      602D41ED 
 1258      425004DD 
 1258      DF73BE
 1259 004a 6DCC34ED 		.ascii	"m\3144\355\360]\317y\317\363\274\347y\336sLLa\243&\306"
 1259      F05DCF79 
 1259      CFF3BCE7 
 1259      79DE734C 
 1259      4C61A326 
 1260 005f B630C636 		.ascii	"\2660\3066\323\015\023\203r\254\237\261Z\253\242\360"
 1260      D30D1383 
 1260      72AC9FB1 
 1260      5AABA2F0 
 1261 006f E42AA6D9 		.ascii	"\344*\246\331\324\021\017\323\354\034\252\321\255\002"
 1261      D4110FD3 
 1261      EC1CAAD1 
 1261      AD02
 1262 007d E243B382 		.ascii	"\342C\263\202\371\024\256\302\207&~\212#\035\234J(k"
 1262      F914AEC2 
 1262      87267E8A 
 1262      231D9C4A 
 1262      286B
 1263 008f 9B356AA9 		.ascii	"\2335j\251S\355\356Im@\343:g,L\267hh\306Z\012\033\014"
 1263      53EDEE49 
 1263      6D40E33A 
 1263      672C4CB7 
 1263      6868C65A 
 1264 00a6 C4CFF246 		.ascii	"\304\317\362F\032\001T\372\375\364\354\314\033\247\370"
 1264      1A0154FA 
 1264      FDF4ECCC 
 1264      1BA7F8
 1265 00b5 55504EBF 		.ascii	"UPN\277=\335\337\302v\356\002\243\357\340Y\255\315V"
 1265      3DDDDFC2 
ARM GAS  /tmp/cclTcGoe.s 			page 101


 1265      76EE02A3 
 1265      EFE059AD 
 1265      CD56
 1266 00c7 7141D3FC 		.ascii	"qA\323\374Z\352s\210kkt\316q\031\234\000q\011e\270\210"
 1266      5AEA7388 
 1266      6B6B74CE 
 1266      71199C00 
 1266      710965B8 
 1267 00dc 32465D0C 		.ascii	"2F]\014-\250\020\361\257\333~\235t\230U\203\020W`\006"
 1267      2DA810F1 
 1267      AFDB7E9D 
 1267      74985583 
 1267      10576006 
 1268 00f0 BD5B8790 		.ascii	"\275[\207\220\322~\375\016j\251L3F?X\213\211\227\342"
 1268      D27EFD0E 
 1268      6AA94C33 
 1268      463F588B 
 1268      8997E2
 1269 0103 559AA99A 		.ascii	"U\232\251\232\351a\262\210\007c\3654I\254\252\201+\342"
 1269      E961B288 
 1269      0763F534 
 1269      49ACAA81 
 1269      2BE2
 1270 0115 CD671188 		.ascii	"\315g\021\210~\177\265Q\300\010\354D\342\335\270\305"
 1270      7E7FB551 
 1270      C008EC44 
 1270      E2DDB8C5 
 1271 0125 F753B3EA 		.ascii	"\367S\263\352\334\034\346\004\214\253\360\211\201\320"
 1271      DC1CE604 
 1271      8CABF089 
 1271      81D0
 1272 0133 C1F4738B 		.ascii	"\301\364s\213\310\337\202\277\342,1\221\007\365\315"
 1272      C8DF82BF 
 1272      E22C3191 
 1272      07F5CD
 1273 0142 F4BD7860 		.ascii	"\364\275x`\323\021\201\316\255h%\271\256Q\342b\240\261"
 1273      D31181CE 
 1273      AD6825B9 
 1273      AE51E262 
 1273      A0B1
 1274 0154 3D5E67F5 		.ascii	"=^g\365\\\025\212\225\353\274\010q\3508-\325\242\301"
 1274      5C158A95 
 1274      EBBC0871 
 1274      E8382DD5 
 1274      A2C1
 1275 0166 8681CE26 		.ascii	"\206\201\316&'!\035\226\2036\264\301#\223\301u\370t"
 1275      27211D96 
 1275      8336B4C1 
 1275      2393C175 
 1275      F874
 1276 0178 5ECCA6E1 		.ascii	"^\314\246\341\377\026<\370\305,:#\\-L\205\313T\276>"
 1276      FF163CF8 
 1276      C52C3A23 
 1276      5C2D4C85 
 1276      CB54BE3E 
 1277 018c EE3D6C27 		.ascii	"\356=l'\332Z\202\217\236Sh\231\366\010\015\335\310\222"
 1277      DA5A828F 
ARM GAS  /tmp/cclTcGoe.s 			page 102


 1277      9E536899 
 1277      F6080DDD 
 1277      C892
 1278 019e 5FC8F8AF 		.ascii	"_\310\370\257Y\362\344\016\334\224\3440\310\307\317"
 1278      59F2E40E 
 1278      DC94E430 
 1278      C8C7CF
 1279 01ad 779D2F26 		.ascii	"w\235/&r1\325IJ\341\026<\264\346\333\264\346\267\360"
 1279      7231D549 
 1279      4AE1163C 
 1279      B4E6DBB4 
 1279      E6B7F0
 1280 01c0 970B4E8A 		.ascii	"\227\013N\212\312\244f_;\370:\311VW{4\242\272b\322\254"
 1280      CAA4665F 
 1280      3BF83AC9 
 1280      56577B34 
 1280      A2BA62D2 
 1281 01d5 A9040F1D 		.ascii	"\251\004\017\035\320z4U\314\2743\3270Y\011\355pQ\312"
 1281      D07A3455 
 1281      CCBC33D7 
 1281      305909ED 
 1281      7051CA
 1282 01e8 022A1A9B 		.ascii	"\002*\032\233\330\230E\013\236\030\353up\267D\213\015"
 1282      D898450B 
 1282      9E18EB75 
 1282      70B7448B 
 1282      0D
 1283 01f9 27674AE6 		.ascii	"'gJ\346\2439\221X\000-\011\327\377(\177wa\345)\203I"
 1283      A3399158 
 1283      002D09D7 
 1283      FF287F77 
 1283      61E52983 
 1284 020e 98755E82 		.ascii	"\230u^\202{R\001e\236\374B\001':r\372w\222\010$~r\272"
 1284      7B520165 
 1284      9EFC4201 
 1284      273A72FA 
 1284      77920824 
 1285 0225 EF21F255 		.ascii	"\357!\362U\027\220e\377(I\002S:b\201\262\002\303\004"
 1285      179065FF 
 1285      28490253 
 1285      3A6281B2 
 1285      02C304
 1286 0238 575099B8 		.ascii	"WP\231\270O\000\014)\341\230\271\3201u\216c\224\256"
 1286      4F000C29 
 1286      E198B9D0 
 1286      31758E63 
 1286      94AE
 1287 024a 4358D535 		.ascii	"CX\3255\337\252\350\215\020\345Z\212\264\314\225\033"
 1287      DFAAE88D 
 1287      10E55A8A 
 1287      B4CC951B 
 1288 025a 88E82677 		.ascii	"\210\350&w\246q t\350\0117\300-\006\376\354\275\370"
 1288      A6712074 
 1288      E80937C0 
 1288      2D06FEEC 
 1288      BDF8
 1289 026c 4B93C02F 		.ascii	"K\223\300/\305oj%x@\210\224{\250H\204\375'\343J1\375"
ARM GAS  /tmp/cclTcGoe.s 			page 103


 1289      C56F6A25 
 1289      78408894 
 1289      7BA84884 
 1289      FD27E34A 
 1290 0282 E11CBE47 		.ascii	"\341\034\276G\360\020\007\313 0\326=\263>KY\270\236"
 1290      F01007CB 
 1290      2030D63D 
 1290      B33E4B59 
 1290      B89E
 1291 0294 52303CCE 		.ascii	"R0<\316\372\323@\323\222\253hC\231D\340_\233dY\230X"
 1291      FAD340D3 
 1291      92AB6843 
 1291      9944E05F 
 1291      9B645998 
 1292 02a9 25660FC9 		.ascii	"%f\017\311j\324\361\222N>Y\312\311\336E\235|\232s\262"
 1292      6AD4F192 
 1292      4E3E59CA 
 1292      C9DE459D 
 1292      7C9A73B2 
 1293 02bd 4FECA4E5 		.ascii	"O\354\244\3452EUn\372\\mK\377\362\225.\034e\205u\037"
 1293      3245556E 
 1293      FA5C6D4B 
 1293      FFF2952E 
 1293      1C658575 
 1294 02d2 4D4F6EE0 		.ascii	"MOn\340\233\244eG>v\374\310\225\375Hd\305\361|\331?"
 1294      9BA46547 
 1294      3E76FCC8 
 1294      95FD4864 
 1294      C5F17CD9 
 1295 02e7 5BA050FB 		.ascii	"[\240P\373\005\2168XZ&\376q\260\250\024\365\3348X\226"
 1295      058E3858 
 1295      5A26FE71 
 1295      B0A814F5 
 1295      DC385896 
 1296 02fb 54616091 		.ascii	"Ta`\221\223dp\261\223d(\267\376a\343$yO\333\260ub\231"
 1296      936470B1 
 1296      936428B7 
 1296      FE61E324 
 1296      794FDBB0 
 1297 0312 EC13AD9E 		.ascii	"\354\023\255\236N\001R\203\344[\355v{\214\253j\017]"
 1297      4E015283 
 1297      E45BED76 
 1297      7B8CAB6A 
 1297      0F5D
 1298 0324 BB776DF3 		.ascii	"\273wm\363\354\251\361z\274;wl\365\356\255\252\331\357"
 1298      ECA9F17A 
 1298      BC3B776C 
 1298      F5EEADAA 
 1298      D9EF
 1299 0336 F632B5B2 		.ascii	"\3662\265\262jG5\257\334N\367\356j\265\272f\373\276"
 1299      6A4735AF 
 1299      DC4EF7EE 
 1299      6AB5BA66 
 1299      FBBE
 1300 0348 3FC349F3 		.ascii	"?\303I\363\257"
 1300      AF
 1301              		.text
ARM GAS  /tmp/cclTcGoe.s 			page 104


 1302              		.section	.gnu.lto_chFactoryCreatePipe.c5db887e79e5134d,"",%progbits
 1303 0000 789C8D54 		.ascii	"x\234\215T[K\025Q\024\336\337\2549W\257\335\354EB\""
 1303      5B4B1551 
 1303      14DEDFAC 
 1303      3957AFDD 
 1303      EC454222 
 1304 0014 117BF050 		.ascii	"\021{\360P\364*\364W\314\214\204J\321 \352\345\214'"
 1304      F42AF457 
 1304      CC8C844A 
 1304      D120EAE5 
 1304      8C27
 1305 0026 3BDEC0CB 		.ascii	";\336\300\313\203\232\231\314)\025\323R\217f^2\357v"
 1305      839A99CC 
 1305      2915D352 
 1305      8F665E32 
 1305      EF76
 1306 0038 EC629692 		.ascii	"\354b\226\222AH\032f\220\227\010\037\302P\264\326\236"
 1306      41481A66 
 1306      9097081F 
 1306      C250B4D6 
 1306      9E
 1307 0049 51CB4BD6 		.ascii	"Q\313K\3260\347\314\354\265\327\267\277o\255\3651\026"
 1307      30E7CCEC 
 1307      B5D7B7BF 
 1307      6FADF531 
 1307      16
 1308 005a A1886155 		.ascii	"\241\210aU\210\223B\210S\374\203E@)\034\021\"\303\256"
 1308      88934288 
 1308      53FC8345 
 1308      40291C11 
 1308      22C3AE
 1309 006d 28541E2F 		.ascii	"(T\036/4\247\372=\\h\301\004\325\014\253\200|\321\354"
 1309      34A7FA3D 
 1309      5C68C104 
 1309      D50CAB80 
 1309      7CD1EC
 1310 0080 106E8554 		.ascii	"\020n\205T\270Q@\245\204\321L\377m\312'\235\004T^.\276"
 1310      B85140A5 
 1310      84D14CFF 
 1310      6DCA279D 
 1310      04545E2E 
 1311 0095 BAF52954 		.ascii	"\272\365)T.\201(^\226kc9\266\330\032M\363h\275\245~"
 1311      2E81285E 
 1311      966B6339 
 1311      B6D81A4D 
 1311      F368BDA5 
