ARM GAS  /tmp/ccKVw40u.s 			page 1


   1              		.cpu cortex-m4
   2              		.eabi_attribute 20, 1
   3              		.eabi_attribute 21, 1
   4              		.eabi_attribute 23, 3
   5              		.eabi_attribute 24, 1
   6              		.eabi_attribute 25, 1
   7              		.eabi_attribute 26, 1
   8              		.eabi_attribute 30, 2
   9              		.eabi_attribute 34, 1
  10              		.eabi_attribute 18, 4
  11              		.file	"hal_pal_lld.c"
  12              		.text
  13              	.Ltext0:
  14              		.section	.gnu.lto_.profile.3a2044497689f569,"",%progbits
  15 0000 789C6365 		.ascii	"x\234ce`b`a```d\360\367\005\000\001k\000\251"
  15      60626061 
  15      60606064 
  15      F0F70500 
  15      016B00A9 
  16              		.text
  17              		.section	.gnu.lto_.icf.3a2044497689f569,"",%progbits
  18 0000 789C6365 		.ascii	"x\234ce`b\340c@\000&\206\336\326'\267\271\030\257?^"
  18      6062E063 
  18      40002686 
  18      DED627B7 
  18      B918AF3F 
  19 0015 FB909501 		.ascii	"\373\220\225\001\000.\223\006A"
  19      002E9306 
  19      41
  20              		.text
  21              		.section	.gnu.lto_.jmpfuncs.3a2044497689f569,"",%progbits
  22 0000 789C6365 		.ascii	"x\234ce`b\340c@\000& fdfddd\257\257\257g\000\000\007"
  22      6062E063 
  22      40002620 
  22      66646664 
  22      6464AFAF 
  23 0019 4801A3   		.ascii	"H\001\243"
  24              		.text
  25              		.section	.gnu.lto_.inline.3a2044497689f569,"",%progbits
  26 0000 789C6365 		.ascii	"x\234ce`b0c@\000&\006\006f&F\020\305\300\266@\036D1"
  26      60623063 
  26      40002606 
  26      06662646 
  26      10C5C0B6 
  27 0018 30329C63 		.ascii	"02\234c\330\313\304\310\310\244\300\010\224\314k9\257"
  27      D8CBC4C8 
  27      C8A4C008 
  27      94CC6B39 
  27      AF
  28 0029 C02031E7 		.ascii	"\300 1\347\"3\023\203\330\234]L,`]\000\260\005\007\242"
  28      22331383 
  28      D89C5D4C 
  28      2C605D00 
  28      B00507A2 
  29              		.text
  30              		.section	.gnu.lto_.pureconst.3a2044497689f569,"",%progbits
  31 0000 789C6365 		.ascii	"x\234ce`b`e`\000\222\014\214R\000\000\267\000*"
ARM GAS  /tmp/ccKVw40u.s 			page 2


  31      60626065 
  31      6000920C 
  31      8C520000 
  31      B7002A
  32              		.text
  33              		.section	.gnu.lto__pal_lld_init.3a2044497689f569,"",%progbits
  34 0000 789C6365 		.ascii	"x\234ce`b\250d``0\007bi fdf`d\232p\216\201\241\221\203"
  34      6062A864 
  34      60603007 
  34      62692066 
  34      64666064 
  35 001b 899111C4 		.ascii	"\211\221\021\304h\340`d\250gb\254g\354g\236\316\314"
  35      68E06064 
  35      A86762AC 
  35      67EC679E 
  35      CECC
  36 002d 78A8FDD9 		.ascii	"x\250\375\331N&\315\345\015@p`\372$\266\266\206V\211"
  36      4E26CDE5 
  36      0D407060 
  36      FA24B6B6 
  36      865689
  37 0040 F9CC0C0C 		.ascii	"\371\314\014\0143\201\030\004\030\2273j2\000\225=\332"
  37      33811804 
  37      1897336A 
  37      3200953D 
  37      DA
  38 0051 F86F2A2F 		.ascii	"\370o*/\033\013D\234q\005#\033#\220^\177\211\361@\303"
  38      1B0B449C 
  38      7105231B 
  38      23905E7F 
  38      89F140C3 
  39 0065 BFFFED0D 		.ascii	"\277\377\355\015\007\256,f\334\352\306\304\300\320\005"
  39      07AE2C66 
  39      DCEAC6C4 
  39      C0D005
  40 0074 9406D9D1 		.ascii	"\224\006\331\321\315\314\004\242\231\33726)\200T\203"
  40      CDCC04A2 
  40      99DF3236 
  40      29805483 
  41 0084 CDEA6266 		.ascii	"\315\352bf\004\011\002\225\231\352\351\351CP~\261~F"
  41      04090295 
  41      99EAE9E9 
  41      43507EB1 
  41      7E46
  42 0096 628E7E41 		.ascii	"b\216~A~QI\261~p\210\257\261\221\276\217\217\213\276"
  42      7E5149B1 
  42      7E7088AF 
  42      B191BE8F 
  42      8F8BBE
  43 00a9 7B80A77F 		.ascii	"{\200\247\177\231\021H*\276\000\210srR\364\222\031\000"
  43      9911482A 
  43      BE008873 
  43      7252F492 
  43      1900
  44 00bb 7A7B38A9 		.ascii	"z{8\251"
  45              		.text
  46              		.section	.gnu.lto__pal_lld_setgroupmode.3a2044497689f569,"",%progbits
ARM GAS  /tmp/ccKVw40u.s 			page 3


  47 0000 789CA557 		.ascii	"x\234\245W{P\224\327\025\277\347\273\337>XvA1M\210\020"
  47      7B5094D7 
  47      15BFE7BB 
  47      DF3E5876 
  47      41314D88 
  48 0015 431229D1 		.ascii	"C\022)\321((\306\310\030\253\216\321\361Q\020h;\235"
  48      2828C6C8 
  48      18AB8ED1 
  48      F1511068 
  48      3B9D
  49 0027 FED5D656 		.ascii	"\376\325\326Vf\222\011\024\006i\372\030\247]\005\327"
  49      66920914 
  49      0669FA18 
  49      A75D05D7 
  50 0037 27C6C457 		.ascii	"'\306\304W5n\241!QI\252B\305\"hZ\004\014b\202\206\230"
  50      356EA121 
  50      5149AA42 
  50      C522685A 
  50      040C6282 
  51 004d 9A808F68 		.ascii	"\232\200\217h|DP\242Y5>\312\243\347\234\373}\354.\322"
  51      7C4450A2 
  51      59353ECA 
  51      A3E79CFB 
  51      7DEC2ED2 
  52 0061 711818BF 		.ascii	"q\030\030\277\343\375\316\375\375\316=\277{\317\275"
  52      E3FDCEFD 
  52      FDCE3DBF 
  52      7BCFBD
  53 0070 DF5D8BD0 		.ascii	"\337]\213\320\304+\021B,\026B\354\303\007\302\005h\353"
  53      C42B1142 
  53      2C1642EC 
  53      C307C205 
  53      68EB
  54 0082 8E09B1C4 		.ascii	"\216\011\261\304\256\201T\015\251\351+\342\204\333\341"
  54      AE81540D 
  54      A9E92BE2 
  54      84DBE1
  55 0091 24EBD435 		.ascii	"$\353\3245\313\215\357\341[Hq\022\276Y4+\367\331\270"
  55      CB8DEFE1 
  55      5B487112 
  55      BE59342B 
  55      F7D9B8
  56 00a4 CF0A7645 		.ascii	"\317\012vE\261\231\015;8U#Ds00\224\201\016\323\035j"
  56      B1990D3B 
  56      38552344 
  56      73303094 
  56      810ED31D 
  57 00b9 369C5A58 		.ascii	"6\234ZX\201\015\373]k\032\004\002\\j\360C\3660\000j"
  57      810DFB5D 
  57      6B1A0402 
  57      5C6AF043 
  57      F630006A 
  58 00cd B8ED20FE 		.ascii	"\270\355 \376\254I\335b\265\331C\034\241NW\030\340\253"
  58      AC49DD62 
  58      B5D9431C 
  58      A14E5718 
  58      E0AB
ARM GAS  /tmp/ccKVw40u.s 			page 4


  59 00df 507FAFCB 		.ascii	"P\177\257\313\315\022j\227_\256\322F\355p\343_\315f"
  59      CD126A97 
  59      5FAED246 
  59      ED70E35F 
  59      CD66
  60 00f1 9FD5E35E 		.ascii	"\237\325\343^\026Y\204\200-\006\010v\300(D5\027\224"
  60      16598480 
  60      2D060876 
  60      C0284435 
  60      1794
  61 0103 6D936B65 		.ascii	"m\223ke\221\004\320\361\365\333\246\255\027\302\350"
  61      9104D0F1 
  61      F5DBA6AD 
  61      17C2E8
  62 0112 5583187C 		.ascii	"U\203\030|\255;\326\263\337!\223@`{\351\333[\352]q\357"
  62      AD3BD6B3 
  62      DF219340 
  62      607BE9DB 
  62      5BEA5D71 
  63 0127 BADD4BDD 		.ascii	"\272\335K\3355\235\033\244{d\221\224\360\036H\014\010"
  63      359D1BA4 
  63      7B649194 
  63      F01E480C 
  63      08
  64 0138 A5100D3B 		.ascii	"\245\020\015;!Z\240K\300\373\020\207\360\236\355e+\355"
  64      215AA04B 
  64      C0FB1087 
  64      F09EED65 
  64      2BED
  65 014a F2074CBD 		.ascii	"\362\007L\275\267\361\210\027\014\352\311\267\"6\346"
  65      B7F18817 
  65      0CEAC9B7 
  65      2236E6
  66 0159 BBE71449 		.ascii	"\273\347\024I\035\376\336\227\254\013\330\305\344\233"
  66      1DFEDE97 
  66      AC0BD8C5 
  66      E49B
  67 0167 7BDF5D1F 		.ascii	"{\337]\037*g0\371\243\265\037\374\314\340\236}k\370"
  67      2A6730F9 
  67      A3B51FFC 
  67      CCE09E7D 
  67      6BF8
  68 0179 06E65A60 		.ascii	"\006\346Z`w_\256E\300\036\210#\302\232%\245\347\244"
  68      775FAE45 
  68      C01E8823 
  68      C29A25A5 
  68      E7A4
  69 018b 9CCDE44B 		.ascii	"\234\315\344K'.\\\201\330\0225\362\266\3107\362\335"
  69      272E5C81 
  69      D81235F2 
  69      B6C837F2 
  69      DD
  70 019c 47DC7A91 		.ascii	"G\334z\221\264BY0\237\376\020^\332s\374M\273\374!S\377"
  70      B4425930 
  70      9FFE105E 
  70      DA73FC4D 
  70      BBFC2153 
ARM GAS  /tmp/ccKVw40u.s 			page 5


  71 01b1 FB49A7C7 		.ascii	"\373I\247\307nP\217Foq\327\024\304\020\361\037\375\022"
  71      6E508F46 
  71      6F71D714 
  71      C410F11F 
  71      FD12
  72 01c3 AFAF3FDC 		.ascii	"\257\257?\334\244\3114&\256-j:\037f\020k\375\304\212"
  72      A4C93426 
  72      AE2D6A3A 
  72      1F66106B 
  72      FDC48A
  73 01d6 7E8997BF 		.ascii	"~\211\227\277\310\337b\225?eb\373\332\212\023\016\203"
  73      C8DF6295 
  73      3F6562FB 
  73      DA8A130E 
  73      83
  74 01e7 783FAA97 		.ascii	"x?\252\227\370\317~\211\353\272Z\334V\371s&6\337\334"
  74      F8CF7E89 
  74      EBBA5ADC 
  74      56F97326 
  74      36DFDC
  75 01fa FB9E6E10 		.ascii	"\373\236n\020}~\342\376~\211\205\327\357\376M\227\031"
  75      7D7EE2FE 
  75      7E8985D7 
  75      EFFE4D97 
  75      19
  76 020b 4C6C38DD 		.ascii	"Ll8\335|\305L\265\335O\254\356\227\370Uy\367F\227U\207"
  76      7CC54CB5 
  76      DD4FACEE 
  76      97F85579 
  76      F7469755 
  77 0220 03100B55 		.ascii	"\003\020\013U\370T\342\263\017\237\275\370\224C\254"
  77      F854E2B3 
  77      0F9FBDF8 
  77      9443AC
  78 022f AA2C3808 		.ascii	"\252,8\010V\020\302\361\377P\030\247\253\255\374}\207"
  78      5610C2F1 
  78      FF5018A7 
  78      ABADFC7D 
  78      87
  79 0240 7C9513D8 		.ascii	"|\225\023\330~\260\253\320L\340\233mC\336\354]\237\017"
  79      7EB0ABD0 
  79      4CE09B6D 
  79      43DEEC5D 
  79      9F0F
  80 0252 1E4C01FE 		.ascii	"\036L\001\376\305\364\215m\227\313u\231\307t_\367\207"
  80      C5F48D6D 
  80      97CB7599 
  80      C7745FF7 
  80      87
  81 0263 5F9ACBFB 		.ascii	"_\232\313\373\331z\351~\307\255\021\371\337\375\220"
  81      D97AE97E 
  81      C7AD11F9 
  81      DFFD90
  82 0272 6B985C78 		.ascii	"k\230\\x\365\365\325 \177\307\344\257=W\363\235\006"
  82      F5F5D520 
  82      7FC7E4AF 
  82      3D57F39D 
ARM GAS  /tmp/ccKVw40u.s 			page 6


  82      06
  83 0283 F9969F7C 		.ascii	"\371\226\237|\250\037r-\223\327\234/\336\021\"\377\310"
  83      A81F722D 
  83      93D79C2F 
  83      DE1122FF 
  83      C8
  84 0294 E455FB2F 		.ascii	"\344U\373/~\337\034xC/\267\256\037n=\304\356\371\024"
  84      7EDF1C78 
  84      432FB7AE 
  84      1F6E3DC4 
  84      EEF914
  85 02a7 6ADCDD3D 		.ascii	"j\334\335=\313\261\202\243NU4E\374\010\270\3205A\263"
  85      CBB182A3 
  85      4E553445 
  85      FC08B8D0 
  85      3541B3
  86 02ba 84789C27 		.ascii	"\204x\234',}\234),b\234+\253\240\231r\000\025t(c\234"
  86      2C7D9C29 
  86      2C629C2B 
  86      ABA09972 
  86      00157428 
  87 02d0 58E03617 		.ascii	"X\3406\027\003\303\250\031\316\350!\324\034\312\224"
  87      03C3A819 
  87      CEE821D4 
  87      1CCA94
  88 02df 086A0E13 		.ascii	"\010j\016\0234\313\217\000\305~\224\034\217\221\211"
  88      34CB8F00 
  88      C57E941C 
  88      8F9189
  89 02ee 24F338CF 		.ascii	"$\3638\317\336pl\332\243x.h\313\330\236\240\367\021"
  89      DE706CDA 
  89      A3782E68 
  89      CBD89EA0 
  89      F711
  90 0300 2CEF496A 		.ascii	",\357Ij\306p\266O\001m\341\247\011\360\014\231\221d"
  90      C670B64F 
  90      016DE1A7 
  90      09F00C99 
  90      9164
  91 0312 62C9C491 		.ascii	"b\311\304\221y\226\314(2\243\311\214!3\226L<\231qd\306"
  91      7996CC28 
  91      32A3C98C 
  91      2133964C 
  91      3C997164 
  92 0327 93492433 		.ascii	"\223I$3\201\314D2/\220\231D&\211\314d2/\222\231Bf*\231"
  92      81CC4432 
  92      2F909944 
  92      2689CC64 
  92      322F9299 
  93 033f 6964A693 		.ascii	"id\246\223\231A\346%23\311\314\"3\233\314\0342s\311"
  93      9941E625 
  93      3233C9CC 
  93      22339BCC 
  93      1C3273C9 
  94 0353 CC2393CC 		.ascii	"\314#\223\314\363\230\302\0233\237\347$\225\247#\215"
  94      F398C213 
  94      339FE724 
ARM GAS  /tmp/ccKVw40u.s 			page 7


  94      95A7238D 
  95 0363 672D9DE7 		.ascii	"g-\235\347Q\210UX\230x\226\256\226\032\376'\333 \277"
  95      51885558 
  95      987896AE 
  95      961AFE27 
  95      DB20BF
  96 0376 D373A632 		.ascii	"\323s\2462\207*\325+C\275\322A\207\245\257l\207\223"
  96      872AD52B 
  96      43BDD241 
  96      87A5AF6C 
  96      8793
  97 0388 CE3D1B48 		.ascii	"\316=\033H8\214Kw\011\226\306p-c\034D\011d\371<\035"
  97      388C4B77 
  97      0996C670 
  97      2D631C44 
  97      0964F93C 
  98 039d 956552D1 		.ascii	"\225eR\321\234\212v\270\347NM8\321\354\240\301\207H"
  98      9C8A76B8 
  98      E74E4D38 
  98      D1ECA0C1 
  98      8748
  99 03af E3E08D06 		.ascii	"\343\340\215\006\310\2058\004U\3247x\354*6@C`\354*\212"
  99      C8853804 
  99      55D43778 
  99      EC2A3640 
  99      4360EC2A 
 100 03c4 ED52B1BB 		.ascii	"\355R\261\273*+\014Z\030\306\2061}b\205\243?8\261J\""
 100      2A2B0C5A 
 100      18C68631 
 100      7D6285A3 
 100      3F38B14A 
 101 03d9 872B7261 		.ascii	"\207+ra\225\231\330\020\225X\343;\325\235N\225\230\005"
 101      9599D810 
 101      9558E33B 
 101      D59D4E95 
 101      9805
 102 03eb 8EF44D6C 		.ascii	"\216\364Ml(\342\202\203\355\243`CU0o\3259\003\027\241"
 102      28E28283 
 102      EDA36043 
 102      55306FD5 
 102      390317A1 
 103 03ff 82DD5AB5 		.ascii	"\202\335Z\265\354\216T\301l\320\3307\3300\304!h\267"
 103      EC8E54C1 
 103      6CD0D837 
 103      D830C421 
 103      68B7
 104 0411 EFD66EAB 		.ascii	"\357\326n\253R\031\016G\003c\357\245\330\303\350\275"
 104      52190E47 
 104      0363EFA5 
 104      D8C3E8BD 
 105 0421 B8348C3D 		.ascii	"\2704\214=\352\034\330\264\254\366\270\215\030x`\300"
 105      EA1CD8B4 
 105      ACF6B88D 
 105      187860C0 
 106 0431 47BC5D56 		.ascii	"G\274]V\343\367\003\277n\362\022h\274v^i\025\334\346"
 106      E3F703BF 
 106      6EF21268 
ARM GAS  /tmp/ccKVw40u.s 			page 8


 106      BC765E69 
 106      15DCE6
 107 0444 FC2CAACD 		.ascii	"\374,\252\315\302u\325\346\031\224\252\315+\245\251"
 107      C275D5E6 
 107      1994AACD 
 107      2BA5A9
 108 0453 36568557 		.ascii	"6V\205W\202J\264\251j\261\312\364Qt\361\002\\\204\202"
 108      824AB4A9 
 108      6AB1CAF4 
 108      5174F102 
 108      5C8482
 109 0466 5375F560 		.ascii	"Su\365`x1\225=\327\252\356\271T\362\002>V;\3676\200"
 109      7831953D 
 109      D7AAEEB9 
 109      54F2023E 
 109      563BF736 
 110 047b 573EA209 		.ascii	"W>\242\011\257LvU\277\335\014\267A\303B\320\252\257"
 110      AF4C7655 
 110      BFDD0CB7 
 110      41C342D0 
 110      AAAF
 111 048d 9F437F9A 		.ascii	"\237C\177\232\353~I\013\272$\256\237\326\312\256\024"
 111      EB7E490B 
 111      BA24AE9F 
 111      D6CAAE14 
 112 049d D7AA12F4 		.ascii	"\327\252\022\364\350\270(Z{\266W\316wU\227\264\241\303"
 112      E8B8285A 
 112      7BB657CE 
 112      775597B4 
 112      A1C3
 113 04af 8213AB6D 		.ascii	"\202\023\253m\365\021$\325\325\312,+\311\325Z\331\227"
 113      F51124D5 
 113      D5CA2C2B 
 113      C9D55AD9 
 113      97
 114 04c0 EEDABAFD 		.ascii	"\356\332\272\375\020\240r]\254\210S\305\331UU\254\005"
 114      10A0725D 
 114      AC8853C5 
 114      D95555AC 
 114      05
 115 04d1 9CB7B871 		.ascii	"\234\267\270qi\307\322.\245\355\311G,\236+M\224\374"
 115      69C7D22E 
 115      A5EDC947 
 115      2C9E2B4D 
 115      94FC
 116 04e3 63384381 		.ascii	"c8C\201+d\303\025:\246Vh\253\247%D\201\"\021\027\370"
 116      2B64C315 
 116      3AA65668 
 116      ABA72544 
 116      81221117 
 117 04f8 A9B7810E 		.ascii	"\251\267\201\016\307\025\350\206g\245E\201\036\347\225"
 117      C715E886 
 117      67A54581 
 117      1EE795
 118 0507 8C54CB86 		.ascii	"\214T\313\206\036\032\026\275\012Tx\340\367\0125\034"
 118      1E1A16BD 
 118      0A5478E0 
ARM GAS  /tmp/ccKVw40u.s 			page 9


 118      F70A351C 
 119 0517 9E8BA645 		.ascii	"\236\213\246Ei\203\245\276\345\245R9\243\320\357\347"
 119      6983A5BE 
 119      E5A55239 
 119      A3D0EFE7 
 120 0527 D5102F4A 		.ascii	"\325\020/Je\340=\260\037\024&Z%\332\273al\270a>1sh3"
 120      65E03DB0 
 120      1F14265A 
 120      25DABB61 
 120      6CB8613E 
 121 053f 023D8165 		.ascii	"\002=\201e\217\320\340\350#\320\357\217^K\321G(\332"
 121      8FD0E0E8 
 121      23D0EF8F 
 121      5E4BD147 
 121      28DA
 122 0551 AE038B15 		.ascii	"\256\003\213\025\344\311\300\372\263c\3755C4i\011\212"
 122      E4C9C0FA 
 122      B363FD35 
 122      43346909 
 122      8A
 123 0562 1383387F 		.ascii	"\023\2038\177\234z\212\023\203\210\332\352\266S\371"
 123      9C7A8A13 
 123      8388DAEA 
 123      B653F9
 124 0571 E10AF274 		.ascii	"\341\012\362t`UJ>\347\3574\034]\341,\002\357\022\274"
 124      60554A3E 
 124      E7EF341C 
 124      5DE12C02 
 124      EF12BC
 125 0584 46E1B731 		.ascii	"F\341\2671\304+\237\202O\251@\260\357s\237\257\316\231"
 125      C42B9F82 
 125      4FA940B0 
 125      EF739FAF 
 125      CE99
 126 0596 B0CB5DB0 		.ascii	"\260\313]\260\204\272\034p\002\212\340/|\275\202\317"
 126      84BA1C70 
 126      028AE02F 
 126      7CBD82CF 
 127 05a6 208146EF 		.ascii	" \201F\357\366\3343\326\340\031cN:{We$\216\207~r\336"
 127      F6DC33D6 
 127      E019634E 
 127      3A7B5765 
 127      248E877E 
 128 05bc F534862A 		.ascii	"\3654\206*'U3vQ^\233\032\307\222\257O\016\305\277\021"
 128      27553376 
 128      515E9B1A 
 128      C792AF4F 
 128      0EC5BF11 
 129 05d0 0FC9E23F 		.ascii	"\017\311\342?\376,NB\002\206T\"O\233\"\343\006\250\352"
 129      FE2C4E42 
 129      02865422 
 129      4F9B22E3 
 129      06A8EA
 130 05e3 738E0714 		.ascii	"s\216\007\024\357\013S\325J#\335g\215\265\350\364\264"
 130      EF0B53D5 
 130      4A23DD67 
 130      8DB5E8F4 
ARM GAS  /tmp/ccKVw40u.s 			page 10


 130      B4
 131 05f4 19AA46E1 		.ascii	"\031\252F\341\000\350W\252Z\014\330h\334\257\3305\030"
 131      00E857AA 
 131      5A0CD868 
 131      DCAFD835 
 131      18
 132 0605 552DFE2C 		.ascii	"U-\376,ZI\325h\245\352\214\251j\314\000U\235\342x\032"
 132      5A49D568 
 132      A5EA8CA9 
 132      6ACC0055 
 132      9DE2781A 
 133 0619 C53BCDAA 		.ascii	"\305;\315\252\350D34\214eac\224\206*CC<\236?\3305\030"
 133      E8443334 
 133      8C656163 
 133      94862A43 
 133      433C9E3F 
 134 0630 0D67FC63 		.ascii	"\015g\374c\236%\015\361t\020\265\326}\347}^\015\021"
 134      9E250DF1 
 134      7410B5D6 
 134      7DE77D5E 
 134      0D11
 135 0642 CA3B42F0 		.ascii	"\312;B\3609h\021w\035\022\273\217\327\035\373k\222\352"
 135      39681177 
 135      1D12BB8F 
 135      D71DFB6B 
 135      92EA
 136 0654 A6011B8F 		.ascii	"\246\001\033\217n\336\351Tg\246\015\276\354E[\305A\213"
 136      6EDEE954 
 136      67A60DBE 
 136      EC455BC5 
 136      418B
 137 0666 E409692F 		.ascii	"\344\011i/1&d\334\000'\344\034'\307W\270\363\3462\233"
 137      312664DC 
 137      0027E41C 
 137      27C757B8 
 137      F3E6329B 
 138 067a 8B3A5E6D 		.ascii	"\213:^m\225\200)J\304\001\320\037<E\023\370\024ITS\024"
 138      9580294A 
 138      C401D01F 
 138      3C4513F8 
 138      14495453 
 139 068f DFDF14FD 		.ascii	"\337\337\024\375\351aS\364\225?\213\0134E\023X\236\255"
 139      E96153F4 
 139      953F8B0B 
 139      34451358 
 139      9EAD
 140 06a1 57DE3553 		.ascii	"W\3365S\336\304\001\312\273\310\201u\012|\251\257\274"
 140      DEC401CA 
 140      BBC88175 
 140      0A7CA9AF 
 140      BC
 141 06b2 171E9037 		.ascii	"\027\036\2207\011\007@\177\260\274$\2267i0\362.\373"
 141      0907407F 
 141      B0BC2496 
 141      376930F2 
 141      2EFB
 142 06c4 B3F89AE4 		.ascii	"\263\370\232\344%\261<;\2555\313\353\2503\344M\036\240"
ARM GAS  /tmp/ccKVw40u.s 			page 11


 142      25B13C3B 
 142      AD35CBEB 
 142      A833E44D 
 142      1EA0
 143 06d6 BC2B1CD8 		.ascii	"\274+\034\330B\201\333\314r6\345\275\310\345<9xKN\301"
 143      4281DBCC 
 143      7236E5BD 
 143      C8E53C39 
 143      784B4EC1 
 144 06ea 4F257629 		.ascii	"O%v)1\011\375\211y\355ab\332\375c^%1SXL\210X\027\255"
 144      3109FD89 
 144      79ED6162 
 144      DAFD635E 
 144      25315358 
 145 0703 C4DC37C5 		.ascii	"\304\3347\305L\035\240\230k\376\300\035}\305Lc1S\203"
 145      4C1DA098 
 145      6BFEC01D 
 145      7DC54C63 
 145      315383
 146 0716 C54C6731 		.ascii	"\305Lg1\323\006#\346\033\377\230\327I\314t\301\233\357"
 146      D30623E6 
 146      1BFF98D7 
 146      49CC74C1 
 146      9BEF
 147 0728 6C91B9F9 		.ascii	"l\221\271\371\002v\233C\254\010S\022;\315r\2341@\211"
 147      02769B43 
 147      AC085312 
 147      3BCD729C 
 147      314089
 148 073b 37FC75FE 		.ascii	"7\374u\376m\337r|\351\201r\234\211\003\240?\270\034"
 148      6DDF727C 
 148      E981729C 
 148      8903A03F 
 148      B81C
 149 074d 677139CE 		.ascii	"gq9\316\034L9\372\374Y\334$\321\263X^h\257\274nS\336"
 149      1C4C39FA 
 149      FC59DC24 
 149      D1B3585E 
 149      68AFBC6E 
 150 0763 EC01CABB 		.ascii	"\354\001\312\273\345\257\363\333}\345\315y@\336\\\034"
 150      E5AFF3DB 
 150      7DE5CD79 
 150      40DE5C1C 
 151 0773 00FDC1F2 		.ascii	"\000\375\301\362\346\261\274\271\203\221\367\235?\213"
 151      E6B1BCB9 
 151      8391F79D 
 151      3F8B
 152 0781 3B246F1E 		.ascii	";$o\036\313s\362\015S\335t\233_Vw\300d\272\031>\027"
 152      CB73F20D 
 152      53DD749B 
 152      5F5677C0 
 152      64BA193E 
 153 0796 7067E5FB 		.ascii	"pg\345\373c\262:\237O\356\034g\240\002\257\007:\336"
 153      63B23A9F 
 153      4FEE1C67 
 153      A002AF07 
 153      3ADE
ARM GAS  /tmp/ccKVw40u.s 			page 12


 154 07a8 14EFF696 		.ascii	"\024\357\366\226\204K\254i\340\2407<M\315\306O\213\024"
 154      844BAC69 
 154      E0A0373C 
 154      4DCDC64F 
 154      8B14
 155 07ba FC960705 		.ascii	"\374\226\007\005\345\313j\212\272\273\234i\316S\250"
 155      E5CB6A8A 
 155      BABB9C69 
 155      CE53A8
 156 07c9 F9F86DE4 		.ascii	"\371\370m\344\237\016\301"
 156      9F0EC1
 157 07d0 17FBF90A 		.ascii	"\027\373\371\012\326\321\234\251`\251\370\371\011\206"
 157      D6D19CA9 
 157      60A9F8F9 
 157      0986
 158 07de F1953855 		.ascii	"\361\2258U\301n\247+T\032n\204`\024_\212\323\010\265"
 158      C16EA72B 
 158      541A6E84 
 158      60145F8A 
 158      D308B5
 159 07f1 C95378E2 		.ascii	"\311Sx\342\227\012\226\256>&\373\226\177\\\356P\037"
 159      970A96AE 
 159      3E26FB96 
 159      7F5CEE50 
 159      1F
 160 0802 13807B81 		.ascii	"\023\200{\201,\276z\247\263\2620\372\315\324\201w\367"
 160      2CBE7AA7 
 160      B3B230FA 
 160      CDD48177 
 160      F7
 161 0813 3D1B6CEA 		.ascii	"=\033l\352\346)\350\027\025\240\033\277d\023\343\343"
 161      E629E817 
 161      15A01BBF 
 161      6413E3E3 
 162 0823 13D4BFEC 		.ascii	"\023\324\277\354E\011//\310L\310\311\316\315[\224\360"
 162      45092F2F 
 162      C84CC8C9 
 162      CECD5B94 
 162      F0
 163 0834 E39FA44C 		.ascii	"\343\237\244LHLHN\236\2310;mn\352k\211\324\365\213\034"
 163      484C484E 
 163      9E99303B 
 163      6D6EEA6B 
 163      89D4F58B 
 164 0849 7C323317 		.ascii	"|23\027\306\377Z\350\204\322\263\026,zU\317\312^\230"
 164      C6FF5AE8 
 164      84D2B316 
 164      2C7A55CF 
 164      CA5E98
 165 085c 217FF54A 		.ascii	"!\177\365J\236\276 3/\327\222\363\333\234\205\271\266"
 165      9EBE2033 
 165      2FD792F3 
 165      DB9C85B9 
 165      B6
 166 086d EC453919 		.ascii	"\354E9\031\031\013s\255\331y\177\310\311\310\265\020"
 166      190B73AD 
 166      D9797FC8 
ARM GAS  /tmp/ccKVw40u.s 			page 13


 166      C9C8B510 
 167 087d 24D74EFD 		.ascii	"$\327N\375\304\320\262\306kY\211Z\326\363\377\003\000"
 167      C4D0B2C6 
 167      6B59895A 
 167      D6F3FF03 
 167      00
 168 088e E1F787   		.ascii	"\341\367\207"
 169              		.text
 170              		.section	.gnu.lto_.symbol_nodes.3a2044497689f569,"",%progbits
 171 0000 789C6365 		.ascii	"x\234ce`bPc\000\002\246\343L\365\014\014\023\31610\000"
 171      60625063 
 171      0002A6E3 
 171      4CF50C0C 
 171      13CE3130 
 172 0015 A95D0D8E 		.ascii	"\251]\015\216@\221\023L\365\214(\"\014\000\3027\011"
 172      4091134C 
 172      F58C2822 
 172      0C00C237 
 172      09
 173 0026 74       		.ascii	"t"
 174              		.text
 175              		.section	.gnu.lto_.refs.3a2044497689f569,"",%progbits
 176 0000 789C6365 		.ascii	"x\234ce`b`d\000\002\000\000I\000\011"
 176      60626064 
 176      00020000 
 176      490009
 177              		.text
 178              		.section	.gnu.lto_.decls.3a2044497689f569,"",%progbits
 179 0000 789C9D56 		.ascii	"x\234\235VkP\023W\024\336\2637\321\260\004u\220v\230"
 179      6B501357 
 179      14DEB337 
 179      D1B00475 
 179      907698
 180 0013 D61F0E93 		.ascii	"\326\037\016\223\301\374)\251h;\375\321\037\266\202"
 180      C1FC29A9 
 180      683BFDD1 
 180      1FB682
 181 0022 8F291626 		.ascii	"\217)\026&V;\375\321\311 \244\232)\257!\301\216\377"
 181      563BFDD1 
 181      C920A49A 
 181      29AF21C1 
 181      8EFF
 182 0034 9687838F 		.ascii	"\226\207\203\217\252\200V\205X\213\017T$\002\265\250"
 182      AA805685 
 182      588B0F54 
 182      2402B5A8 
 183 0044 28A81110 		.ascii	"(\250\021\020\020\304\007\365\375\000D\361-\002*\002"
 183      10C407F5 
 183      FD0044F1 
 183      2D022A02 
 184 0054 8AF4DCBD 		.ascii	"\212\364\334\275\233lH\303\214\343\235\234\315\236\273"
 184      9B6C48C3 
 184      8CE39D9C 
 184      CD9EBB
 185 0063 DF39E73B 		.ascii	"\3379\347;\347\236{w\325\034\317-\367\347\270j@\341"
 185      E79E7B77 
 185      D51CCF2D 
ARM GAS  /tmp/ccKVw40u.s 			page 14


 185      F7E7B86A 
 185      40E1
 186 0075 386E0407 		.ascii	"8n\004\007\301\377\003\2342x\224R\224a\356\377\343g"
 186      C1FF039C 
 186      32789452 
 186      9461EEFF 
 186      E367
 187 0087 B4C31FB7 		.ascii	"\264\303\037\267X\326A\306z\2177\370\300_\306\005\242"
 187      58D641C6 
 187      7A8F37F8 
 187      C05FC605 
 187      A2
 188 0098 04A10CA2 		.ascii	"\004\241\014\2428Q\252P*Q\246\241\304\240\364\243\324"
 188      3851AA50 
 188      2A51A6A1 
 188      C4A0F4A3 
 188      D4
 189 00a9 A18C4379 		.ascii	"\241\214Cy\210\362\004\245\033\345\021\312c\224gr\034"
 189      88F204A5 
 189      1BE511CA 
 189      63946772 
 189      1C
 190 00ba 5F7CB610 		.ascii	"_|\266\0208\274\256\3568\337\006\267\000y\303$\306\012"
 190      38BCAEEE 
 190      38DF06B7 
 190      0079C324 
 190      C60A
 191 00cc D8152491 		.ascii	"\330\025$\221\324\021\327\000\220\346q\226\347\344d"
 191      D411D700 
 191      90E67196 
 191      E7E464
 192 00db 5C53E0B2 		.ascii	"\\S\340\262\220u^Vy\331\245\364\223\215\301\303#{\314"
 192      90755E56 
 192      79D9A5F4 
 192      938DC1C3 
 192      237BCC
 193 00ee 22B906E3 		.ascii	"\"\271\006\343\314n$3\2275\360J\000\000O\003\017\207"
 193      CC6E2433 
 193      9735F04A 
 193      00004F03 
 193      0F87
 194 0100 8CB6FCDC 		.ascii	"\214\266\374\334\315\217S\222\003W\366\275\371g\357"
 194      CD8F5392 
 194      0357F6BD 
 194      F967EF
 195 010f 0BED709B 		.ascii	"\013\355p\233\316\026\316\002in\277#\277\313\217\360"
 195      CE16CE02 
 195      696EBF23 
 195      BFCB8FF0 
 196 011f 40EFDB07 		.ascii	"@\357\333\007\367\315\011s\210lh\364J\331N\217\274v"
 196      F7CD0973 
 196      886C68F4 
 196      4AD94E8F 
 196      BC76
 197 0131 4E5C4F20 		.ascii	"N\\O P\000\036\325\326\236\263\177\372\243\032$\300"
 197      50001ED5 
 197      D69EB37F 
ARM GAS  /tmp/ccKVw40u.s 			page 15


 197      FAA31A24 
 197      C0
 198 0142 245407D2 		.ascii	"$T\007\322/\237\022\2027KV\231\342$\036\026\177\014"
 198      2F9F1282 
 198      374B5699 
 198      E2241E16 
 198      7F0C
 199 0154 0E980225 		.ascii	"\016\230\002%0\005\203\037\200`\274.Q1O\265\273\013"
 199      3005831F 
 199      8060BC2E 
 199      51314FB5 
 199      BB0B
 200 0166 57F98714 		.ascii	"W\371\207\024\212\345\035\242\363\374\256\220;\007E"
 200      8AE51DA2 
 200      F3FCAE90 
 200      3B0745
 201 0175 71259AA9 		.ascii	"q%\232\251(\014\212\001\371@\030\245\214\267x\335\007"
 201      280C8A01 
 201      F94018A5 
 201      8CB778DD 
 201      07
 202 0186 ED007BA1 		.ascii	"\355\000{\241\015\023*\205\0204\177V\224\271q\"\211"
 202      0D132A85 
 202      10347F56 
 202      94B97122 
 202      89
 203 0197 96D8DE6E 		.ascii	"\226\330\336n,.!\310b\232\000\264\020\023q\252\354\351"
 203      2C2E21C8 
 203      629A00B4 
 203      101371AA 
 203      ECE9
 204 01a9 D1C10036 		.ascii	"\321\301\0006E\021\255\033\372v\217'f\351\376bV\371"
 204      4511AD1B 
 204      FA768F27 
 204      66E9FE62 
 204      56F9
 205 01bb 36C25250 		.ascii	"6\302RP\321R\264\024\334\235\300R\230\272\205\360\371"
 205      D152B414 
 205      DC9DC052 
 205      98BA85F0 
 205      F9
 206 01cc 4D576B54 		.ascii	"MWkT\240\027\366\320\034\234\247\267\207f\212\"\300"
 206      A017F6D0 
 206      1C9CA7B7 
 206      87668A22 
 206      C0
 207 01dd 6110E0A0 		.ascii	"a\020\340\240\302i\232\200\327U\242\230!\346d\212~\363"
 207      C2699A80 
 207      D755A298 
 207      21E6648A 
 207      7EF3
 208 01ef 38A8C024 		.ascii	"8\250\300$\377\301$\341\020\350iL\212\203\277q\262\034"
 208      FFC124E1 
 208      10E8694C 
 208      8A83BF71 
 208      B21C
 209 0201 273148F1 		.ascii	"'1H\361\356\334\235\343\310v\240\004\370\372\0237\257"
ARM GAS  /tmp/ccKVw40u.s 			page 16


 209      EEDC9DE3 
 209      C876A004 
 209      F8FA1337 
 209      AF
 210 0212 A940D0FB 		.ascii	"\251@\320\373tp\324\207\003\306e\304\021R\217\025\342"
 210      7470D487 
 210      03C665C4 
 210      11528F15 
 210      E2
 211 0223 A112C91C 		.ascii	"\241\022\311\034Q\310 7V\321\375-\305oU\244\211\005"
 211      51C82037 
 211      56D1FD2D 
 211      C56F55A4 
 211      8905
 212 0235 5957B3ED 		.ascii	"YW\263\355\251v\254 \325c\006i?\366u\345%Q\234\012U"
 212      A976AC20 
 212      D5630669 
 212      3FF675E5 
 212      25519C0A 
 213 024a 18E49812 		.ascii	"\030\344\230\022\244\322\025\344\330\206\242\001\242"
 213      A4D215E4 
 213      D886A201 
 213      A2
 214 0257 A29B8622 		.ascii	"\242\233\206\"p1q.\253\256?7\200\254\226Z\207_\177\272"
 214      7031712E 
 214      ABAE3F37 
 214      80AC965A 
 214      875F7FBA 
 215 026b 6150ED2E 		.ascii	"aP\355.`\353W\330?\340D\350\011og>\231\235\364]\277"
 215      60EB57D8 
 215      3FE044E8 
 215      096F673E 
 215      999DF45D 
 216 0280 57D95DE7 		.ascii	"W\331]\347@\212J]\035\007)\254k\345\002\245\225\203"
 216      408A4A5D 
 216      1D0729AC 
 216      6BE502A5 
 216      9583
 217 0292 F2914D1D 		.ascii	"\362\221M\035\001d3k\340U\216\365\265DXE\333\360}*\214"
 217      0164336B 
 217      E0558EF5 
 217      B5445845 
 217      DBF07D2A 
 218 02a7 16DD595D 		.ascii	"\026\335Y]\035\376\314[0\252\235\031\025\215\001\304"
 218      1DFECC5B 
 218      30AA9D19 
 218      158D01C4 
 219 02b7 CEBCADDB 		.ascii	"\316\274\255\333TS\243\";\230\262+?7[M\3660\2458/\247"
 219      5453A322 
 219      3B98B22B 
 219      3F375B4D 
 219      F630A538 
 220 02cd 5C20FB98 		.ascii	"\\ \373\230\262u\377\325!?\262\237)ECozh\233\205\322"
 220      B275FFD5 
 220      213FB29F 
 220      2945436F 
 220      7A689B85 
ARM GAS  /tmp/ccKVw40u.s 			page 17


 221 02e2 A6241E2D 		.ascii	"\246$\036-\031\312Z\362d\363\231=ZR\316\212\226\263"
 221      19CA5AF2 
 221      64F3993D 
 221      5A52CE8A 
 221      96B3
 222 02f4 A364AD9F 		.ascii	"\243d\255\237k\265\220\263Z\317\2717\016\234G\302\241"
 222      6BB590B3 
 222      5ACFB937 
 222      0E9C47C2 
 222      A1
 223 0305 32E1B338 		.ascii	"2\341\2638\331\354^\255\206\355a\177d\323\2268\207U"
 223      D9EC5EAD 
 223      86ED617F 
 223      64D39638 
 223      8755
 224 0317 69510A1C 		.ascii	"iQ\012\034*/\326\211\334\233\367\005R\305b\274\315\334"
 224      2A2FD689 
 224      DC9BF705 
 224      52C562BC 
 224      CDDC
 225 0329 FC5CE9EC 		.ascii	"\374\\\351\354\021Gx\235\324M\255hzA1=\247\254\2157"
 225      1147789D 
 225      D44DAD68 
 225      7A41313D 
 225      A7AC8D37 
 226 033d 8F8B3E78 		.ascii	"\217\213>x`\220\214\201\235\325\032R'\005Q\275\350\377"
 226      60908C81 
 226      9DD51A52 
 226      270551BD 
 226      E8FF
 227 034f FD860093 		.ascii	"\375\206\000\223u:}.\015\223#\212\263x\245\366\034\\"
 227      753A7D2E 
 227      0D93238A 
 227      B378A5F6 
 227      1C5C
 228 0361 82C9D401 		.ascii	"\202\311\324\001\\E_W@\007\227A'\035-;i@g\303\365\231"
 228      5C455F57 
 228      40079741 
 228      271D2D3B 
 228      694067C3 
 229 0377 F6BE0E51 		.ascii	"\366\276\016Q\\\243\225h5!-j\340f`\240.\034\324\221"
 229      5CA39568 
 229      35212D6A 
 229      E06660A0 
 229      2E1CD491 
 230 038b 6CD0F9E9 		.ascii	"l\320\371\351V\321\231A$\364\277>\321\323)\230\245\334"
 230      56D19941 
 230      24F4BF3E 
 230      D1D32998 
 230      A5DC
 231 039d 66176833 		.ascii	"f\027h3\"\206\223\263e\207\232\352R[w\036\200.H\257"
 231      228693B3 
 231      65879AEA 
 231      525B771E 
 231      802E48AF 
 232 03b1 DB2901FB 		.ascii	"\333)\001\373\355\023\322%\267\324\335\031t{\035\202"
 232      ED13D225 
ARM GAS  /tmp/ccKVw40u.s 			page 18


 232      B7D4DD19 
 232      747B1D82 
 233 03c1 94FE51DC 		.ascii	"\224\376Q\334\346I)f\212\263T\236)R0M\361\006\246x\023"
 233      E6492966 
 233      8AB3549E 
 233      2952304D 
 233      F106A678 
 234 03d6 53BC26A7 		.ascii	"S\274&\247\310H\234\263\007\247\323\023\005Q\236,X:"
 234      C8489CB3 
 234      07A7D313 
 234      05519E2C 
 234      583A
 235 03e8 57EC811B 		.ascii	"W\354\201\0333\305\306\317\245-\3368v`\254z_u\363Y>"
 235      33C5C6CF 
 235      A52DDE38 
 235      7660AC7A 
 235      5F75F359 
 236 03fd 0819A48F 		.ascii	"\010\031\244\217\311\200\033\025\336\343\264\016d\247"
 236      C9801B15 
 236      DEE3B40E 
 236      64A7
 237 040b 7556EDE5 		.ascii	"uV\355\345CZ2\314\332\265\253\271,CC\322\211\244\024"
 237      435A32CC 
 237      DAB5ABB9 
 237      2C4343D2 
 237      89A414
 238 041e 54BD6C52 		.ascii	"T\275lR3\240\006\325\355-\245\315j\262\222=\253*)m\345"
 238      33A006D5 
 238      ED2DA5CD 
 238      6AB2923D 
 238      AB2A296D 
 239 0433 C95AA638 		.ascii	"\311Z\2468\216\366\254\005\262\221)\275\331e6R\300\356"
 239      8EF6AC05 
 239      B29129BD 
 239      D9653652 
 239      C0EE
 240 0445 ED2F6E3F 		.ascii	"\355/n?\362c\036\364\250n\270\360\327M\015;d\235\364"
 240      F2631EF4 
 240      A86EB8F0 
 240      D74D0D3B 
 240      649DF4
 241 0458 BD31B0E3 		.ascii	"\2751\260\343^\036O\012%\254\366\235\243Y\007:\327\230"
 241      5E1E4F0A 
 241      25ACF69D 
 241      A359073A 
 241      D798
 242 046a 4C57212B 		.ascii	"LW!+\023\327\366\223|\321\231E\240\016kq\027k\321\213"
 242      13D7F693 
 242      7CD19945 
 242      A00E6B71 
 242      176BD18B 
 243 047e 8B31BA16 		.ascii	"\2131\272\026\025r'Pt\323\024\005]\353\215\256\001w"
 243      15722750 
 243      74D31405 
 243      5DEB8DAE 
 243      0177
 244 0490 E918BAD5 		.ascii	"\351\030\272\325\003\375\3007\332\323\371c\017*\235"
ARM GAS  /tmp/ccKVw40u.s 			page 19


 244      03FDC037 
 244      DAD3F963 
 244      0F2A9D
 245 049f DEF00E6F 		.ascii	"\336\360\016o\347C\036\350vo\364mo\364\015\017\364="
 245      E7431EE8 
 245      766FF46D 
 245      6FF40D0F 
 245      F43D
 246 04b1 9F697A80 		.ascii	"\237iz\200\373<\300w|\023q\363\306\026~g\027\030\376"
 246      FB3CC077 
 246      7C1371F3 
 246      C6167E67 
 246      1718FE
 247 04c4 16764483 		.ascii	"\026vD\2037\376\2647\225zW\373Q\367m\276\2313\367\356"
 247      37FEB437 
 247      957A57FB 
 247      51F76DBE 
 247      9933F7EE 
 248 04d8 CD8D7D77 		.ascii	"\315\215}w\037\001]\322\263^ys\367a\347?\303\326{\210"
 248      1F015DD2 
 248      B35E7973 
 248      F761E73F 
 248      C3D67B88 
 249 04ec F204A51B 		.ascii	"\362\004\245\033\345)J\017\312s\224\027(\217P\036\217"
 249      E5294A0F 
 249      CA739417 
 249      288F501E 
 249      8F
 250 04fd DE190581 		.ascii	"\336\031\005\201\322\316\350\035\275?ej\333<\250\325"
 250      D2CEE81D 
 250      BD3F656A 
 250      DB3CA8D5 
 251 050d FBCE8451 		.ascii	"\373\316\204Q\303\356r\266\014T\250I\221\324]\374Pc"
 251      C3EE72B6 
 251      0C54A849 
 251      91D45DFC 
 251      5063
 252 051f 4523BE8F 		.ascii	"E#\276\217&\313g\300\266q\364\014\350G\353\227\312\241"
 252      26CB67C0 
 252      B671F40C 
 252      E847EB97 
 252      CAA1
 253 0531 4743FA4E 		.ascii	"GC\372N\012^a.\037\232\027Ryy\261\275\330_\273\306\375"
 253      0A5E612E 
 253      1F9A1752 
 253      7979B1BD 
 253      D85FBBC6 
 254 0546 AA93222B 		.ascii	"\252\223\"+;\3655he\016\210=\262z\353\203\000r\220\321"
 254      3BF53568 
 254      650E883D 
 254      B27AEB83 
 254      007290D1 
 255 055a EED95B7C 		.ascii	"\356\331[|\330\037\264\3721La\010\271(\326\256\227\267"
 255      D81FB4FA 
 255      314C6108 
 255      B928D6AE 
 255      97B7
ARM GAS  /tmp/ccKVw40u.s 			page 20


 256 056c AEAA87BE 		.ascii	"\256\252\207\276\274\007\361\301\200\222\036\342X\204"
 256      BC07F1C1 
 256      80921EE2 
 256      5884
 257 057a 0B6FF634 		.ascii	"\013o\3664\250\245\327(E\234b\257\321\316;\327\253\311"
 257      A8A5D728 
 257      459C62AF 
 257      D1CE3BD7 
 257      ABC9
 258 058c 981F6D6F 		.ascii	"\230\037mo\245\217\2667 \177\265\015\337\2657\007\340"
 258      A58FB637 
 258      207FB50D 
 258      DFB53707 
 258      E0
 259 059d 575BA1F4 		.ascii	"W[\241\364\325\026\246|\265!\016\312\224\220e\336_m"
 259      D516A67C 
 259      B5210ECA 
 259      949065DE 
 259      5F6D
 260 05af C310C205 		.ascii	"\303\020\302\005\230Rb\023L\011\011\361&K\222\305\246"
 260      98526213 
 260      4C0909F1 
 260      264B92C5 
 260      A6
 261 05c0 99FBFDA2 		.ascii	"\231\373\375\242\251\263\247O\347\276\010\0133\260_"
 261      A9B3A74F 
 261      E7BE080B 
 261      33B05F
 262 05cf B2D5B02C 		.ascii	"\262\325\260,6\301\220\222\234j\263\032\026\376\260"
 262      36C19092 
 262      9C6AB31A 
 262      16FEB0
 263 05de 6046B821 		.ascii	"`F\270!**\30207f~\364\362p\372\310\345 ,\216\373\310"
 263      2A2AC230 
 263      37667EF4 
 263      F270FAC8 
 263      E5202C8E 
 264 05f4 EDCC6AB6 		.ascii	"\355\314j\266-MMNKIL\2167\013&S\232%\3116#\334d\373"
 264      2D4D4D4E 
 264      4B494C8E 
 264      370B2653 
 264      9A25C936 
 265 060c CC90664D 		.ascii	"\314\220fM5X\222\342\022\322\342\315\206$\363o\011\226"
 265      355892E2 
 265      12D2E2CD 
 265      8624F36F 
 265      0996
 266 061e 2586C4D8 		.ascii	"%\206\304\330\270e\226$\263\301\024o\376%6-\301f\262"
 266      B8659624 
 266      B3C1146F 
 266      FE25362D 
 266      C166B2
 267 0631 AD48315B 		.ascii	"\255H1[\303\226q\032\227Y\210/3\353\012\253\301d\265"
 267      C396711A 
 267      9759882F 
 267      33EB0AAB 
 267      C164B5
ARM GAS  /tmp/ccKVw40u.s 			page 21


 268 0644 C5238662 		.ascii	"\305#\206b-\3114\226\311\366!\314\227qZK2\305%\306Z"
 268      2DC93496 
 268      C9F621CC 
 268      97715A4B 
 268      32C525C6 
 269 0659 7F35D954 		.ascii	"\1775\331T\337\3141F\251\243\242g\177gT}\273\320h\204"
 269      DFCC3146 
 269      A9A3A267 
 269      7F67547D 
 269      BBD06884 
 270 066d 1F619E3A 		.ascii	"\037a\236:.\301\034\233*\2472\375K\223M\343\272!\230"
 270      2EC11C9B 
 270      2AA732FD 
 270      4B934DE3 
 270      BA2198
 271 0680 EBCCF70C 		.ascii	"\353\314\367\014j\265%b>KS,\311\030\223DG\030\311\374"
 271      6AB52562 
 271      3E4B532C 
 271      C9189344 
 271      4718C9FC 
 272 0694 08A33A66 		.ascii	"\010\243:fQL\204q|\364\302\230\310\310\010\343\270\350"
 272      514C8471 
 272      7CF4C298 
 272      C8C808E3 
 272      B8E8
 273 06a6 1F7E8A89 		.ascii	"\037~\212\2114\252\027DGD\032)\223yZ\305\312d\023\030"
 273      34AA1744 
 273      47441A29 
 273      93795AC5 
 273      CA641318 
 274 06ba 514BBCC9 		.ascii	"QK\274\311\366\037\251\015\301F"
 274      F61FA90D 
 274      C146
 275              		.text
 276              		.section	.gnu.lto_.symtab.3a2044497689f569,"",%progbits
 277 0000 5F70616C 		.ascii	"_pal_lld_init\000"
 277      5F6C6C64 
 277      5F696E69 
 277      7400
 278 000e 00       		.ascii	"\000"
 279 000f 00       		.ascii	"\000"
 280 0010 00       		.ascii	"\000"
 281 0011 00000000 		.ascii	"\000\000\000\000\000\000\000\000"
 281      00000000 
 282 0019 AE000000 		.ascii	"\256\000\000\000"
 283 001d 5F70616C 		.ascii	"_pal_lld_setgroupmode\000"
 283      5F6C6C64 
 283      5F736574 
 283      67726F75 
 283      706D6F64 
 284 0033 00       		.ascii	"\000"
 285 0034 00       		.ascii	"\000"
 286 0035 00       		.ascii	"\000"
 287 0036 00000000 		.ascii	"\000\000\000\000\000\000\000\000"
 287      00000000 
 288 003e FD000000 		.ascii	"\375\000\000\000"
 289              		.text
ARM GAS  /tmp/ccKVw40u.s 			page 22


 290              		.section	.gnu.lto_.opts,"",%progbits
 291 0000 272D666D 		.ascii	"'-fmath-errno' '-fsigned-zeros' '-ftrapping-math' '"
 291      6174682D 
 291      6572726E 
 291      6F272027 
 291      2D667369 
 292 0033 2D666E6F 		.ascii	"-fno-trapv' '-fno-openmp' '-fno-openacc' '-mcpu=cor"
 292      2D747261 
 292      70762720 
 292      272D666E 
 292      6F2D6F70 
 293 0066 7465782D 		.ascii	"tex-m4' '-mthumb' '-ggdb' '-O2' '-fomit-frame-point"
 293      6D342720 
 293      272D6D74 
 293      68756D62 
 293      2720272D 
 294 0099 65722720 		.ascii	"er' '-falign-functions=16' '-ffunction-sections' '-"
 294      272D6661 
 294      6C69676E 
 294      2D66756E 
 294      6374696F 
 295 00cc 66646174 		.ascii	"fdata-sections' '-fno-common' '-flto'\000"
 295      612D7365 
 295      6374696F 
 295      6E732720 
 295      272D666E 
 296              		.text
 297              		.comm	__gnu_lto_v1,1,1
 298              		.comm	__gnu_lto_slim,1,1
 299              		.ident	"GCC: (15:6.3.1+svn253039-1build1) 6.3.1 20170620"
ARM GAS  /tmp/ccKVw40u.s 			page 23


DEFINED SYMBOLS
                            *ABS*:0000000000000000 hal_pal_lld.c
                            *COM*:0000000000000001 __gnu_lto_v1
                            *COM*:0000000000000001 __gnu_lto_slim

NO UNDEFINED SYMBOLS
