ARM GAS  /tmp/cc0qBXqg.s 			page 1


   1              		.cpu cortex-m4
   2              		.eabi_attribute 20, 1
   3              		.eabi_attribute 21, 1
   4              		.eabi_attribute 23, 3
   5              		.eabi_attribute 24, 1
   6              		.eabi_attribute 25, 1
   7              		.eabi_attribute 26, 1
   8              		.eabi_attribute 30, 2
   9              		.eabi_attribute 34, 1
  10              		.eabi_attribute 18, 4
  11              		.file	"main.c"
  12              		.text
  13              	.Ltext0:
  14              		.section	.gnu.lto_.profile.a2f6276623544091,"",%progbits
  15 0000 789C6365 		.ascii	"x\234ce`b`e```dX\306h\010\000\002\273\000\346"
  15      60626065 
  15      60606064 
  15      58C66808 
  15      0002BB00 
  16              		.text
  17              		.section	.gnu.lto_.icf.a2f6276623544091,"",%progbits
  18 0000 789C6365 		.ascii	"x\234ce`bP`@\000V\206\211\223\317\276cf\332sk\322^~"
  18      60625060 
  18      40005686 
  18      8993CFBE 
  18      6366DA73 
  19 0018 96EFAD67 		.ascii	"\226\357\255g\256\360\261N\\=\373\036\007\333\246\206"
  19      AEF0B14E 
  19      5C3DFB1E 
  19      07DBA686 
  20 0028 A577B919 		.ascii	"\245w\271\031\000\370\276\016\272"
  20      00F8BE0E 
  20      BA
  21              		.text
  22              		.section	.gnu.lto_.jmpfuncs.a2f6276623544091,"",%progbits
  23 0000 789C6365 		.ascii	"x\234ce`b\210dd`\020f\200\000&\006F \217\211q:3\343"
  23      60628864 
  23      64601066 
  23      80002606 
  23      46208F89 
  24 0018 DC1913FF 		.ascii	"\334\031\023\377r\3661\317gf`|\301\316\270\234Q\006"
  24      72F631CF 
  24      6766607C 
  24      C1CEB89C 
  24      5106
  25 002a 248E4E03 		.ascii	"$\216N\003\325\235~\271\3509\033D\335\005~\306\025\330"
  25      D59D7EB9 
  25      E8391B44 
  25      DD057EC6 
  25      15D8
  26 003c D541C5A1 		.ascii	"\325A\305\241Z.\254[9\233\017\242e\3029\006\306\225"
  26      5A2EAC5B 
  26      399B0FA2 
  26      65C23906 
  26      C695
  27 004e 203936A0 		.ascii	" 96\240\355 \271#[6\257fRd\234\3370Ca>3#\003P\344\363"
  27      ED20B923 
ARM GAS  /tmp/cc0qBXqg.s 			page 2


  27      5B36AF66 
  27      52649CDF 
  27      3043613E 
  28 0068 999F1FB8 		.ascii	"\231\237\037\270\352\3776H\314gfb\\\305\250\010T\267"
  28      EAFF3648 
  28      CC676662 
  28      5CC5A808 
  28      54B7
  29 007a 9AB19E81 		.ascii	"\232\261\236\201\221\005\344`.\220\236\235;\337\334"
  29      9105E460 
  29      2E909E9D 
  29      3BDFDC
  30 0089 6607AAE0 		.ascii	"f\007\252\340\230\317\314\274\230\031d\320\032\220\002"
  30      98CFCCBC 
  30      981964D0 
  30      1A9002
  31 0098 0EB081F3 		.ascii	"\016\260\201\363'\354j\341\005Y\306\302x\202\211q-\310"
  31      27EC6AE1 
  31      0559C6C2 
  31      78828971 
  31      2DC8
  32 00aa 2E90F0EE 		.ascii	".\220\360\356\225\353a\316ndd\\\007\023F2\212u&\330"
  32      95EB61CE 
  32      6E64645C 
  32      07134632 
  32      8A7526D8 
  33 00be A8F540A3 		.ascii	"\250\365@\243\200\241\242'\0032\220\005M\015\333b\240"
  33      80A1A227 
  33      03329005 
  33      4D0DDB62 
  33      A0
  34 00cf 1B191837 		.ascii	"\033\031\0307@\334\003\222\234\326z\350<;\310\\vF\006"
  34      40DC0392 
  34      9CD67AE8 
  34      3C3BC85C 
  34      764606
  35 00e2 C68D8C60 		.ascii	"\306\215\214`]@ \344\221\237\223\250\340[\232\227\222"
  35      5D4020E4 
  35      919F93A8 
  35      E05B9A97 
  35      92
  36 00f3 AFA8A09A 		.ascii	"\257\250\240\232\251\307\313\305\000\000YMV\374"
  36      A9C7CBC5 
  36      0000594D 
  36      56FC
  37              		.text
  38              		.section	.gnu.lto_.inline.a2f6276623544091,"",%progbits
  39 0000 789C6365 		.ascii	"x\234ce`bhd@\000&\006\006\271cG\031\030\031\230d\026"
  39      60626864 
  39      40002606 
  39      06B96347 
  39      19181998 
  40 0016 DC9DC4C8 		.ascii	"\334\235\304\310\300\002\022\001\012s3\202\304\210!"
  40      C0021201 
  40      0A733382 
  40      C48821
  41 0025 19C4E78B 		.ascii	"\031\304\347\213\001)\216\206W\006\250\272Yx\031\031"
ARM GAS  /tmp/cc0qBXqg.s 			page 3


  41      01298E86 
  41      5706A8BA 
  41      59781919 
  42 0035 9827F831 		.ascii	"\230'\3701L\360c\343g``\005[\307\314\003\266\222\221"
  42      4CF063E3 
  42      67606005 
  42      5BC7CC03 
  42      B69291
  43 0048 8B014A30 		.ascii	"\213\001J0\000\000\0155\011l"
  43      00000D35 
  43      096C
  44              		.text
  45              		.section	.gnu.lto_.pureconst.a2f6276623544091,"",%progbits
  46 0000 789C6365 		.ascii	"x\234ce`b`e`\000\222\246L&\000\001r\000z"
  46      60626065 
  46      600092A6 
  46      4C260001 
  46      72007A
  47              		.text
  48              		.section	.gnu.lto_Thread1.a2f6276623544091,"",%progbits
  49 0000 789C9D96 		.ascii	"x\234\235\226_LSW\034\307\317\357\236\333?T\0017\026"
  49      5F4C5357 
  49      1CC7CFEF 
  49      9EDB3F54 
  49      013716
  50 0013 63321E30 		.ascii	"c2\0360\2311\276\320\267=\354i{\333\303\226%\313\036"
  50      9931BED0 
  50      B73DEC69 
  50      7BDBC396 
  50      25CB1E
  51 0026 962D5BC2 		.ascii	"\226-[\302\030\221Fe\011\272\207=q\333\325\300\3041"
  51      18914665 
  51      09BA873D 
  51      71DBD5C0 
  51      C431
  52 0038 99DB2C8C 		.ascii	"\231\333,\214\356\222!C\246 \314\311\254\212v\245jE"
  52      EE922143 
  52      A620CCC9 
  52      AC8A76A5 
  52      6A45
  53 004a 04618329 		.ascii	"\004a\203)\240\203Z\020\304! \376\001W\335\357\334{"
  53      A0835A10 
  53      C42120FE 
  53      0157DDEF 
  53      DC7B
  54 005c B83935D9 		.ascii	"\27095\331Ih\323\302\275\347\337\357\363\375\334\223"
  54      4968D3C2 
  54      BDE7DFEF 
  54      F3FDDC93 
  55 006c 936B230A 		.ascii	"\223k#\012it\021\362*!\344e\374\201\215\200\262\257"
  55      697411F2 
  55      2A21E465 
  55      FC818D80 
  55      B2AF
  56 007e 9710AF53 		.ascii	"\227\020\257S\001j^PP\315\013\325ly\015H\231BU\300?"
  56      016A5E50 
  56      50CD0BD5 
ARM GAS  /tmp/cc0qBXqg.s 			page 4


  56      6C790D48 
  56      994255C0 
  57 0093 C4FC7C45 		.ascii	"\304\374|E\017P\210\224O\206\224-M\032~\302\007\226"
  57      0F508894 
  57      4F86942D 
  57      4D1A7EC2 
  57      0796
  58 00a5 F3BCDAEE 		.ascii	"\363\274\332\356\015:\016\250\341\203\240\011\266\340"
  58      0D3A0EA8 
  58      E183A009 
  58      B6E0
  59 00b3 A87E7F5B 		.ascii	"\250~\177[\035\255\242:\005P\361v\376r\355\315,v\253"
  59      1DADA23A 
  59      0550F176 
  59      FE72EDCD 
  59      2C76AB
  60 00c6 401EDECE 		.ascii	"@\036\336\316h\225\235@]@\360zp\250\371\235\315\215"
  60      68959D40 
  60      5D40F07A 
  60      70A8F99D 
  60      CD8D
  61 00d8 9AE6D3C2 		.ascii	"\232\346\323\3021x]\247\024~\006\212\253A3\344\302!"
  61      31785DA7 
  61      147E068A 
  61      AB4133E4 
  61      C221
  62 00ea C825D844 		.ascii	"\310%\330D\3400lf\203\343\355O\276\315\264\253f58\002"
  62      E0306C66 
  62      83E3ED4F 
  62      BECDB4AB 
  62      66353802 
  63 00fe 76C0FF47 		.ascii	"v\300\377G\007 \254=yZ\256\205G\017\302u\333\206\365"
  63      0720AC3D 
  63      795AAE85 
  63      470FC275 
  63      DB86F5
  64 0111 38452564 		.ascii	"8E%d\017\216\001RI\025\002t\002\0246\335\027\357\030"
  64      0F8E0152 
  64      49150274 
  64      021436DD 
  64      17EF18
  65 0124 029A65D4 		.ascii	"\002\232e\324\275\366}b\316\261\251\301(<\3739\255\321"
  65      BDF67D62 
  65      CEB1A9C1 
  65      283CFB39 
  65      ADD1
  66 0136 C2FE3C9D 		.ascii	"\302\376<\235\332\240%\265\272\221\251\0256\341\214"
  66      DAA025B5 
  66      BA91A915 
  66      36E18C
  67 0145 F042758B 		.ascii	"\360Bu\213}c\216\256\005p\240\235\255\021Z\254\372R"
  67      7D638EAE 
  67      0570A09D 
  67      AD115AAC 
  67      FA52
  68 0157 294B6A01 		.ascii	")Kj\001M\253oXPt\352\200\243\260\221q\021h\20322\015"
  68      4DAB6F58 
ARM GAS  /tmp/cc0qBXqg.s 			page 5


  68      5074EA80 
  68      A3B09171 
  68      11688332 
  69 016d BE934BA7 		.ascii	"\276\223K\247\307\276y\321B\367\233\336\366e\2625\215"
  69      C7BE79D1 
  69      42F79BDE 
  69      F665B235 
  69      8D
  70 017e 043514C4 		.ascii	"\0045\024\304d\320\216\223\011\374\002\366 ]\217\355"
  70      64D08E93 
  70      09FC02F6 
  70      205D8FED 
  71 018e DFED8EF4 		.ascii	"\337\355\216\3649\2309\2471,\024\2723\342\300\212Nl"
  71      399839A7 
  71      312C14BA 
  71      33E2C08A 
  71      4E6C
  72 01a0 686012B0 		.ascii	"h`\022\260\355v\317`\324\245C\020t\232\001\277B\031"
  72      ED76CF60 
  72      D4A54310 
  72      749A01BF 
  72      4219
  73 01b2 1C63DCD8 		.ascii	"\034c\334\330Qu\242\355\013\247\273\205\225\034\273"
  73      5175A2ED 
  73      0BA7BB85 
  73      951CBB
  74 01c1 E7CD795B 		.ascii	"\347\315y[G\345\307A\207\0003\303\352\340\230s{\373"
  74      47E5C741 
  74      870033C3 
  74      EAE09873 
  74      7BFB
  75 01d3 0FF231F5 		.ascii	"\017\3621\365%\350\015:\300\035@$\243\037~\0037\013"
  75      25E80D3A 
  75      C01D4024 
  75      A31F7E03 
  75      370B
  76 01e5 517BF115 		.ascii	"Q{\361\025F$\342\250\006\316\303\013\335\025k\315\322"
  76      4624E2A8 
  76      06CEC30B 
  76      DD156BCD 
  76      D2
  77 01f6 6B90174E 		.ascii	"k\220\027N\360\312\215\011_\253\203\257\332\012Lk\310"
  77      F0CA8D09 
  77      5FAB83AF 
  77      DA0A4C6B 
  77      C8
  78 0207 A8ABF075 		.ascii	"\250\253\360uO\202;U\337Xe,7\325\337)\364G\360\361Q"
  78      4F823B55 
  78      DF58652C 
  78      37D5DF29 
  78      F447F0F1 
  79 021c 829B914E 		.ascii	"\202\233\221NCdq\252\333\305\272D\212\265\006\305\342"
  79      436471AA 
  79      DBC5BA44 
  79      8AB506C5 
  79      E2
  80 022d 48BC17CC 		.ascii	"H\274\027\314[M\253\320\330\206\363\036OT3'^$\300\247"
ARM GAS  /tmp/cc0qBXqg.s 			page 6


  80      5B4DABD0 
  80      D886F31E 
  80      4F543327 
  80      5E24C0A7 
  81 0241 95099DF8 		.ascii	"\225\011\235\370<Os\272\344\243\361\352l\244\363{Y_"
  81      3C4F73BA 
  81      E4A3F1EA 
  81      6CA4F37B 
  81      595F
  82 0253 169C31D8 		.ascii	"\026\2341\330\270\315\310\354\304\222\323\352\314\206"
  82      B8CDC8EC 
  82      C492D3EA 
  82      CC86
  83 0261 B3CC876A 		.ascii	"\263\314\207j\366\305n\374t\336n\365\255\2030\353\263"
  83      F6C56EFC 
  83      74DE6EF5 
  83      AD8330EB 
  83      B3
  84 0272 B11DF2BB 		.ascii	"\261\035\362\273\021\250u\352l\235\213\201<\007\232"
  84      11A875EA 
  84      6C9D8B81 
  84      3C079A
  85 0281 02112C37 		.ascii	"\002\021,7\003\376\372\026\305H\224\372\364\236\257"
  85      03FEFA16 
  85      C54894FA 
  85      F49EAF
  86 0290 411904BA 		.ascii	"A\031\004\2720%v\\\232\376\361\226\235M\314\201+\331"
  86      3025765C 
  86      9AFEF196 
  86      9D4DCC81 
  86      2BD9
  87 02a2 10855C9D 		.ascii	"\020\205\\\235\276@X\346Co\360\310\253\012tN\026\350"
  87      BE4058E6 
  87      436FF0C8 
  87      AB0A744E 
  87      16E8
  88 02b4 BC24D005 		.ascii	"\274$\320\005\326gg\201b\3406\002\030\020or\210\375"
  88      D6676781 
  88      62E03602 
  88      18106F72 
  88      88FD
  89 02c6 F79BC66D 		.ascii	"\367\233\306m\\t\233)\272\363\353c\035)\\\027\005\256"
  89      5C749B29 
  89      BAF3EB63 
  89      1D295C17 
  89      05AE
  90 02d8 868523A7 		.ascii	"\206\205#\247\354\002W\267\310\025\277\272\377p\266"
  90      EC0257B7 
  90      C815BFBA 
  90      FF70B6
  91 02e7 C07549E0 		.ascii	"\300uI\340\352\332;\032S\005\256\036K\364eC\364\300"
  91      EADA3B1A 
  91      5305AE1E 
  91      4BF46543 
  91      F4C0
  92 02f9 5C4F708D 		.ascii	"\\Op\215)z\035\364r\317!\211\347>\323s0P\235\3140=O"
  92      297A1DF4 
ARM GAS  /tmp/cc0qBXqg.s 			page 7


  92      72CF2189 
  92      E73ED373 
  92      30509DCC 
  93 0310 39E08AE0 		.ascii	"9\340\212\340\371-\036qUy\372ey\006$y\376\260<\377\211"
  93      F92D1E71 
  93      5579FA65 
  93      79062479 
  93      FEB03CFF 
  94 0325 9E7B573C 		.ascii	"\236{W<\277\313!j#\217\2732\270\347\012\323\263o0x7"
  94      BFCB216A 
  94      238FBB32 
  94      B8E70AD3 
  94      B36F3078 
  95 033a 53E41A14 		.ascii	"S\344\032\024\270&\243\345?\250\002\327\220\3105\363"
  95      B826A3E5 
  95      3FA802D7 
  95      90C835F3 
  96 034a A06F204B 		.ascii	"\240o K\340\372K\340\232\257[\256\313\020\270\256Z\236"
  96      E0FA4BE0 
  96      9AAF5BAE 
  96      CB10B8AE 
  96      5A9E
  97 035c AF199E93 		.ascii	"\257\031\236\223\365\303I\033\337\320\270\243\207\271"
  97      F5C3491B 
  97      DFD0B8A3 
  97      87B9
  98 036a E90989E9 		.ascii	"\351\011\211\351\0214\235b\366=\036jU\011Fe\011\256"
  98      11349D62 
  98      F63D1E6A 
  98      55094665 
  98      09AE
  99 037c 4B12DCB0 		.ascii	"K\022\334\260\314\376\215f\207W\314\276\237\016\304"
  99      CCFE8D66 
  99      8757CCBE 
  99      9F0EC4
 100 038b 980C625C 		.ascii	"\230\014b\\\002\021\2674\33644F\243O\373\200k\314\203"
 100      0211B734 
 100      DE343446 
 100      A34FFB80 
 100      6BCC83
 101 039e 04B7382F 		.ascii	"\004\2678/\2618\301,\212\347\300\007\351\004\230\224"
 101      B138C12C 
 101      8AE7C007 
 101      E9049894 
 102 03ae 05B82509 		.ascii	"\005\270%\0110eY\234F\213\211\025\213\037\246\003q["
 102      3065599C 
 102      468B8915 
 102      8B1FA603 
 102      715B
 103 03c0 06312381 		.ascii	"\0061#\201\270cY\374\207?Jf-)\2616\373\354\336+N\007"
 103      B86359FC 
 103      873F4A66 
 103      2D29B136 
 103      FBECDE2B 
 104 03d6 F8AE0C78 		.ascii	"\370\256\014xN\002<oY[\020\367\236'\235\243\345\236"
 104      4E023C6F 
 104      595B10F7 
ARM GAS  /tmp/cc0qBXqg.s 			page 8


 104      9E279DA3 
 104      E59E
 105 03e8 EC685994 		.ascii	"\354hY\224\034-\367-k\017\370\321\302\2545\323\377\267"
 105      1C2DF72D 
 105      6B0FF8D1 
 105      C2AC35D3 
 105      FFB7
 106 03fa F6F0596B 		.ascii	"\366\360Yk\333\322\001~$\003^\222\000/[\326\036\013"
 106      DBD2017E 
 106      24035E92 
 106      002F5BD6 
 106      1E0B
 107 040c C0ED12E0 		.ascii	"\300\355\022\340\177\005`\366\236\247\262W\004\330C"
 107      7F0560F6 
 107      9EA7B257 
 107      04D843
 108 041b C1785B73 		.ascii	"\301x[s\354(\360\224\344\027\022ZP\272U-)\330Q\344\374"
 108      EC28F094 
 108      E417125A 
 108      50BA552D 
 108      29D851E4 
 109 0430 68BBA764 		.ascii	"h\273\247d[Q)y)?\337m~?\331\351.\335\345\366\224\024"
 109      5B512979 
 109      293FDF6D 
 109      7E3FD9E9 
 109      2EDDE5F6 
 110 0446 6EFFF4E3 		.ascii	"n\377\364\343\"waqi\321V\317\316]\245\237\345\027\223"
 110      22776171 
 110      69D156CF 
 110      CE5DA59F 
 110      E51793
 111 0459 FF0013FA 		.ascii	"\377\000\023\372\220("
 111      9028
 112              		.text
 113              		.section	.gnu.lto_main.a2f6276623544091,"",%progbits
 114 0000 789C8D93 		.ascii	"x\234\215\223\311OSQ\024\306\317\367\316k_[\332\252"
 114      C94F5351 
 114      14C6CFF7 
 114      CE6B5F5B 
 114      DAAA
 115 0012 0C8E5D94 		.ascii	"\014\216]\224\205\0136,\335\2731\272\360?pCtC\242\260"
 115      850B362C 
 115      DDBB31BA 
 115      F03F7043 
 115      7443A2B0 
 116 0026 72DD874C 		.ascii	"r\335\207L\006DY(\360T\362\032\273`\222I\006\005\034"
 116      06445928 
 116      F054F21A 
 116      BB609249 
 116      06051C
 117 0039 2A56C504 		.ascii	"*V\305\004E\215\254\334\351\302T]8D\023LD\317\351U\002"
 117      458DACDC 
 117      E9C2545D 
 117      3844134C 
 117      44CFE955 
 118 004e B50B6FD2 		.ascii	"\265\013o\322\333;|\367w\306\027 \213\0226Q\202\210"
 118      DB3B7CF7 
ARM GAS  /tmp/cc0qBXqg.s 			page 9


 118      77C61720 
 118      8B123651 
 118      8288
 119 0060 0EC80F01 		.ascii	"\016\310\017\001\202\325\375\214\250)d\201\315\202a"
 119      82D5FD8C 
 119      A8296481 
 119      CD8261
 120 006f 9B856D4E 		.ascii	"\233\205mN\016\202R\026\333\220\211\314\270\300\275"
 120      0E825216 
 120      DB9089CC 
 120      B8C0BD
 121 007e 8C172D13 		.ascii	"\214\027-\023W\371<\373L\260e\373\371\351\345\267q\335"
 121      57F93CFB 
 121      4CB065FB 
 121      F9E9E5B7 
 121      71DD
 122 0090 0249D9AE 		.ascii	"\002I\331\256^\034\033\211\326\014\2702\262\275\337"
 122      5E1C1B89 
 122      D60CB832 
 122      B2BDDF
 123 009f ABBCC1AC 		.ascii	"\253\274\301\254\355\263E\236\250\007\221\300\000\324"
 123      EDB3459E 
 123      A80791C0 
 123      00D4
 124 00ad 030CA186 		.ascii	"\003\014\241\206D\374fr\375R,h\353\255\034\016#\010"
 124      44FC6672 
 124      FD522C68 
 124      EBAD1C0E 
 124      2308
 125 00bf F91F7F89 		.ascii	"\371\037\177\211\254\273\376\253\335\315\346\256\341"
 125      ACBBFEAB 
 125      DDCDE6AE 
 125      E1
 126 00cc DBA1B843 		.ascii	"\333\241\270C>sH&;\254S\031)\217:\344\011\250S\226\340"
 126      3E734826 
 126      3BAC5319 
 126      298F3AE4 
 126      09A85396 
 127 00e1 0F684E4F 		.ascii	"\017hNO\235c\005(un\356\343k'\365\323\015\371\034\360"
 127      9D630528 
 127      756EEEE3 
 127      6B27F5D3 
 127      0DF91CF0 
 128 00f5 58901841 		.ascii	"X\220\030AJ^\005I\2053\321\322:a\342\372\206\2565\235"
 128      4A5E0549 
 128      8533D1D2 
 128      3A61E2FA 
 128      86AE359D 
 129 0109 2FA5733C 		.ascii	"/\245s<V\273\243\242\223\213\236\326\305\025GC\017\241"
 129      56BBA3A2 
 129      938B9ED6 
 129      C5154743 
 129      0FA1
 130 011b 4817CA68 		.ascii	"H\027\312hDr\366~y5\027\361\321\017\237\303\030G\012"
 130      4472F67E 
 130      793517F1 
 130      D10F9FC3 
ARM GAS  /tmp/cc0qBXqg.s 			page 10


 130      18470A
 131 012e 639A00B9 		.ascii	"c\232\000\271H\377X[\215\212\370\254\353&\0250\001\037"
 131      48FF585B 
 131      8D8AF8AC 
 131      EB261530 
 131      011F
 132 0140 05839844 		.ascii	"\005\203\230Dj3;\002\302\015$|.\023\267\372\334W+(\341"
 132      6A333B02 
 132      C20D247C 
 132      2E13B7FA 
 132      DC572B28 
 133 0155 57D46329 		.ascii	"W\324c).\246\212\374\212\025\373\025\313h>\266\372\025"
 133      2EA68AFC 
 133      8A15FB15 
 133      CB683EB6 
 133      FA15
 134 0167 C78CF835 		.ascii	"\307\214\3705\375\257_\351Y(bv\303\263\233\005\317\374"
 134      FDAF5FE9 
 134      59286276 
 134      C3B39B05 
 134      CFFC
 135 0179 EEF99698 		.ascii	"\356\371\226\230\322\267a\311\302-$\344lah\374]P\317"
 135      D2B761C9 
 135      C22D24E4 
 135      6C6168FC 
 135      5D50CF
 136 018c B6A30998 		.ascii	"\266\243\011\230+\234\3755\253\244\270\317;<\016\030"
 136      2B9CFD35 
 136      ABA4B8CF 
 136      3B3C0E18 
 137 019c CCBC98AB 		.ascii	"\314\274\230\253\225\200\312%E\235\222O\3515\316\343"
 137      9580CA25 
 137      459D924F 
 137      E935CEE3 
 138 01ac 4C4F7EB4 		.ascii	"LO~\264\271`\250\237\235\315AT\024\007Q\221\321bm\015"
 138      B960A89F 
 138      9DCD4154 
 138      14075191 
 138      D1626D0D 
 139 01c0 82715BA8 		.ascii	"\202q[\250\013\032\004\356\210\303\244\300'\307\014"
 139      0B1A04EE 
 139      88C3A4C0 
 139      27C70C
 140 01cf 2EB41957 		.ascii	".\264\031WY\214\253\314hM\267\342\252pOpw\013\270\254"
 140      598CABCC 
 140      684DB7E2 
 140      AA704F70 
 140      770BB8AC 
 141 01e3 C135F7B4 		.ascii	"\3015\367\264\375\361.l\2103\355\313\223\021%V\001\270"
 141      FDF12E6C 
 141      8833EDCB 
 141      93112556 
 141      01B8
 142 01f5 2F523519 		.ascii	"/R5\031V\311\377\360\0277\370\017\204/P}\376\245\375"
 142      56C9FFF0 
 142      1737F80F 
 142      842F507D 
ARM GAS  /tmp/cc0qBXqg.s 			page 11


 142      FEA5FD
 143 0208 88315126 		.ascii	"\2101Q&&\244\334m\311\022\265\336\351I\207\022rRk\223"
 143      26A4DC6D 
 143      C912B5DE 
 143      E9498712 
 143      72526B93 
 144 021c A9DCF4D4 		.ascii	"\251\334\364\324\210U\035\361\335>\351\244]\252\376"
 144      88551DF1 
 144      DD3EE9A4 
 144      5DAAFE
 145 022b BABCF629 		.ascii	"\272\274\366)\"\352>I\375\260\230\333\215\207\2506\311"
 145      22EA3E49 
 145      FDB098DB 
 145      8D87A836 
 145      C9
 146 023c 7F8494E0 		.ascii	"\177\204\224\340}\336#\370\226\364B\227]\302\302^\217"
 146      7DDE23F8 
 146      96F44297 
 146      5DC2C25E 
 146      8F
 147 024d 1DB1F0D8 		.ascii	"\035\261\360\330t\323\363\261\241+qS[\251\024\226\264"
 147      74D3F3B1 
 147      A12B7153 
 147      5BA91496 
 147      B4
 148 025e 17F7917E 		.ascii	"\027\367\221~\201\266\226\016\035\332R2\234Su\365\015"
 148      81B6960E 
 148      1DDA5232 
 148      9C5375F5 
 148      0D
 149 026f B5C7A9FC 		.ascii	"\265\307\251\374p\343\311\272\344\321\323\015'\032\253"
 149      70E3C9BA 
 149      E4D1D30D 
 149      271AAB
 150 027e 93FBEB6B 		.ascii	"\223\373\353kc\021\372\015,;[["
 150      6311FA0D 
 150      2C3B5B5B 
 151              		.text
 152              		.section	.gnu.lto_chp.a2f6276623544091,"",%progbits
 153 0000 789C6365 		.ascii	"x\234ce`b\220g``\340d\200\200\351\314\214;w\276\271"
 153      60629067 
 153      6060E064 
 153      8080E9CC 
 153      8C3B77BE 
 154 0015 CD5EFFB7 		.ascii	"\315^\377\267\241\243\241\341A\367Z\031\266\371\314"
 154      A1A3A1E1 
 154      41F75A19 
 154      B6F9CC
 155 0024 0C8B9981 		.ascii	"\014\213\231\201R\214\313\031\353\031\330s\0233\363"
 155      528CCB19 
 155      EB19D873 
 155      1333F3
 156 0033 F4921900 		.ascii	"\364\222\031\000eZ\016v"
 156      655A0E76 
 157              		.text
 158              		.section	.gnu.lto_.symbol_nodes.a2f6276623544091,"",%progbits
 159 0000 789C558C 		.ascii	"x\234U\214K\012\3020\030\204'\223\246\365u\010\351\326"
ARM GAS  /tmp/cc0qBXqg.s 			page 12


 159      4B0AC230 
 159      18842793 
 159      A6F57508 
 159      E9D6
 160 0012 4B78254F 		.ascii	"Kx%O\220\010E\301n<\202\205\036B\272.\370\256/p\255"
 160      900845C1 
 160      6E3C8285 
 160      1E42BA2E 
 160      F8AE2F70 
 161 0027 D073884D 		.ascii	"\320s\210Mh\301\254\346\343\233\377\037\005b\"\000\360"
 161      68C1ACE6 
 161      E39BFF1F 
 161      05622200 
 161      F0
 162 0038 480DAC2B 		.ascii	"H\015\254+\240\211\355&3!\240\236\344\330v'j\321u\205"
 162      A089ED26 
 162      3321A09E 
 162      E4D87627 
 162      6AD17585 
 163 004c C99A7B75 		.ascii	"\311\232{u\246\260\225:\020&\006\244\332Q\316ck\366"
 163      A6B0953A 
 163      102606A4 
 163      DA51CE63 
 163      6BF6
 164 005e 0C1C8807 		.ascii	"\014\034\210\0075\335\027`\314\264\021wj\351\211\033"
 164      35DD1760 
 164      CCB41177 
 164      6AE9891B 
 165 006e 75E0892B 		.ascii	"u\340\211+\265\362DE\035z\342B\035\375\013\211\010y"
 165      B5F24445 
 165      1D7AE242 
 165      1DFD0B89 
 165      0879
 166 0080 F64A230B 		.ascii	"\366J#\013\311\242.f\026\352\016\312e\013\371\252\205"
 166      C9A22E66 
 166      16EA0ECA 
 166      650BF9AA 
 166      85
 167 0091 24ED2A07 		.ascii	"$\355*\007\034!\177\177\205\344\020\245\313\001j\227"
 167      1C217F7F 
 167      85E410A5 
 167      CB016A97 
 168 00a1 7D241F9B 		.ascii	"}$\037\233=\224n\214\355*~\344\244P\372"
 168      3D946E8C 
 168      ED2A7EE4 
 168      A450FA
 169              		.text
 170              		.section	.gnu.lto_.refs.a2f6276623544091,"",%progbits
 171 0000 789C0DC2 		.ascii	"x\234\015\302\201\021\000 \014\002\261\207\026\316)"
 171      81110020 
 171      0C02B187 
 171      16CE29
 172 000f DC7F4CCD 		.ascii	"\334\177L\315%\230\013\350w\355\031\357\232%\241U\217"
 172      25980BE8 
 172      77ED19EF 
 172      9A25A155 
 172      8F
ARM GAS  /tmp/cc0qBXqg.s 			page 13


 173 0020 E2E10109 		.ascii	"\342\341\001\011\232\000z"
 173      9A007A
 174              		.text
 175              		.section	.gnu.lto_.decls.a2f6276623544091,"",%progbits
 176 0000 789CB57C 		.ascii	"x\234\265|\011TTY\226`\274x\261\021\004\220\205V\265"
 176      09545459 
 176      9660BC78 
 176      B1110490 
 176      8556B5
 177 0013 5DED74D5 		.ascii	"]\355t\325\311\2412\351\232\311$\325\354Zfjz\252*\255"
 177      C9A132E9 
 177      9AC924D5 
 177      EC5A666A 
 177      7AAA2AAD 
 178 0027 25A7AB4A 		.ascii	"%\247\253JG\315\352Ssz\232\203\030*]\012f\020\232\346"
 178      47CDEA53 
 178      737A9A83 
 178      182A5D0A 
 178      66109AE6 
 179 003b F4395DC1 		.ascii	"\3649]\301\242 \240\002\202,\202\202\270\200l\262\010"
 179      A220A002 
 179      822C8282 
 179      B8806CB2 
 179      08
 180 004c 2A080808 		.ascii	"*\010\010\010\310.\010**\233\212\202\310.\233\010s\337"
 180      C82E082A 
 180      2A9B8A82 
 180      C82E9B08 
 180      73DF
 181 005e 12F17F04 		.ascii	"\022\361\177\004?\324\252s\332\343%\342\376\270\357"
 181      3FD4AA73 
 181      DAE325E2 
 181      FEB8EF
 182 006d DEFBEEBB 		.ascii	"\336\373\356\273\367\276\373\226\010\245L.\213\374\275"
 182      F7BEFB96 
 182      08A54C2E 
 182      8BFCBD
 183 007c 4CB6E820 		.ascii	"L\266\350 \223\301[\331\022\374S\300\333l\000\015\300"
 183      93C15BD9 
 183      12FC53C0 
 183      DB6C000D 
 183      C0
 184 008d 8700F900 		.ascii	"\207\000\371\000\005\000\265\000\033\000\032\001\376"
 184      0500B500 
 184      1B001A01 
 184      FE
 185 009a 19688D00 		.ascii	"\031h\215\0002N\267\037\336\377\033\300\237\000b\001"
 185      324EB71F 
 185      DEFF1BC0 
 185      9F006201 
 186 00aa 5200CE02 		.ascii	"R\000\316\002\244\003\\\000P\002M\026\274\346\000 ,"
 186      A4035C00 
 186      50024D16 
 186      BCE60020 
 186      2C
 187 00bb 93610015 		.ascii	"\223a\000\025\226Y\375\033\007\301\337\204WPG\346\012"
 187      9659FD1B 
ARM GAS  /tmp/cc0qBXqg.s 			page 14


 187      07C1DF84 
 187      575047E6 
 187      0A
 188 00cc B012E00B 		.ascii	"\260\022\340\013\2000$\223m\001p\000z-\200#\300\022"
 188      80302493 
 188      6D017000 
 188      7A2D8023 
 188      C012
 189 00de F0190408 		.ascii	"\360\031\004\010\207\347k\001_\003\3607\000\353\000"
 189      87E76B01 
 189      5F03F037 
 189      00EB00
 190 00ed 3E05F800 		.ascii	">\005\370\000\332\375=f\372\377;\320\251\341u\001^\373"
 190      DAFD3D66 
 190      FAFF3BD0 
 190      A9E17501 
 190      5EFB
 191 00ff 002E429B 		.ascii	"\000.B\233\357\303g\177\005\360M\200\225D\037\336\207"
 191      EFC3677F 
 191      05F04D80 
 191      95441FDE 
 191      87
 192 0110 1F63D607 		.ascii	"\037c\326\007 \241z\212\377\315\200~\253E\272m\004\210"
 192      20A17A8A 
 192      FFCD807E 
 192      AB45BA6D 
 192      0488
 193 0122 963359FF 		.ascii	"\2263Y\377\015h\317\303\373\377\216\231m\376\017\267"
 193      0D68CFC3 
 193      FBFF8E99 
 193      6DFE0FB7 
 194 0132 CF19809F 		.ascii	"\317\031\200\237`f\273\032n\277\017\271\015O\301g\377"
 194      6066BB1A 
 194      6EBF0FB9 
 194      0D4FC167 
 194      FF
 195 0143 033EFB07 		.ascii	"\003>\373\007\200\355\360\376\177b\301\3261r\246\377"
 195      80EDF0FE 
 195      7F62C1D6 
 195      3172A6FF 
 196 0153 BF8B6CFC 		.ascii	"\277\213l\374o\334\226\351\334\266\304\306\373\271\275"
 196      6FDC96E9 
 196      DCB6C4C6 
 196      FBB9BD
 197 0162 89CE64DC 		.ascii	"\211\316d\334\210}\211\235\245\354\253V\261~\375\263"
 197      887D899D 
 197      A5ECAB56 
 197      B17EFDB3 
 198 0172 5C788678 		.ascii	"\\x\206x\033\361\2778\214Bk\273;\320\021\214\\\265\350"
 198      1BF1BF38 
 198      8C426BBB 
 198      3BD0118C 
 198      5CB5E8
 199 0185 1B80DE0A 		.ascii	"\033\200\336\012\276\230\204\031\252\000t\274)\361\221"
 199      BE988419 
 199      AA0074BC 
 199      29F191
ARM GAS  /tmp/cc0qBXqg.s 			page 15


 200 0194 33A02BB5 		.ascii	"3\240+\265\350\273\200\236+\253\237\321jCM\360/2\310"
 200      E8BB809E 
 200      2BAB9FD1 
 200      6A434DF0 
 200      2F32C8
 201 01a7 E4F06B42 		.ascii	"\344\360kB\226\201V\243t\004\326B\027\220\026\376z\254"
 201      968156A3 
 201      7404D642 
 201      179016FE 
 201      7AAC
 202 01b9 46E70105 		.ascii	"F\347\001\005\352\274\336\205R\005\343\345\012\350d"
 202      EABCDE85 
 202      5205E3E5 
 202      0AE864
 203 01c8 75FAA40B 		.ascii	"u\372\244\013\343\025\211\000\357\230\2756\257\303r"
 203      E3158900 
 203      EF98BD36 
 203      AFC372
 204 01d7 04A48ADE 		.ascii	"\004\244\212\336\264\211\347*\344\276\032!-\3009\023"
 204      B489E72A 
 204      E4BE1A21 
 204      2DC03913 
 205 01e7 FBA791A1 		.ascii	"\373\247\221\241\213H\213\262\205\341I4\201\360\261"
 205      8B488BB2 
 205      85E14934 
 205      81F0B1
 206 01f6 3F91C732 		.ascii	"?\221\3072x\027h\032;m\302\253dh\335j\364\311j\031\312"
 206      7817681A 
 206      3B6DC2AB 
 206      6468DD6A 
 206      F4C96A19 
 207 020b 41EEF423 		.ascii	"A\356\364#\031\312\003\255rA\215D\223\206>\001y3\365"
 207      19CA03AD 
 207      72418D44 
 207      93863E01 
 207      7933F5
 208 021e C9994EAE 		.ascii	"\311\231N\256\221Ty\223\351\273\210\362\316\002\272"
 208      91547993 
 208      E9BB88F2 
 208      CE02BA
 209 022d 4CAA7D3E 		.ascii	"L\252}>r5\367\201\"\320\"5\363\316e\027]\030\221\303"
 209      7235F781 
 209      22D02235 
 209      F3CE6517 
 209      5D1891C3 
 210 0241 BA0B8F45 		.ascii	"\272\013\217E\375-@:jXx\005\342\023\223\017\007\035"
 210      FD2D403A 
 210      6A587805 
 210      E213930F 
 210      071D
 211 0253 586FDD01 		.ascii	"Xo\335\001=\231\0241\203\354\232\352\222\331T\205\314"
 211      3D991431 
 211      83EC9AEA 
 211      92D95485 
 211      CC
 212 0264 54A722AF 		.ascii	"T\247\"\257\006;\261\306ur\300\357\265w\22580[U\254"
 212      063BB1C6 
ARM GAS  /tmp/cc0qBXqg.s 			page 16


 212      7572C0EF 
 212      B5779538 
 212      305B55AC 
 213 0278 04FCC5D9 		.ascii	"\004\374\305\331\346|\202\273k\321\237\000\315\035\276"
 213      E67C82BB 
 213      6BD19F00 
 213      CD1DBE
 214 0287 32E7C450 		.ascii	"2\347\304P\322\272g.\375\227\037g\231\215\246\026\006"
 214      D2BA672E 
 214      FD971F67 
 214      998DA616 
 214      06
 215 0298 3729AA3F 		.ascii	"7)\252?\316\001\277G\211\022K\246\352\225L\204\006\320"
 215      CE01BF47 
 215      89124BA6 
 215      EA954C84 
 215      06D0
 216 02aa E291CC62 		.ascii	"\342\221\314b'.\001>\226\237\034\276\033\344\004\014"
 216      272E013E 
 216      969F1CBE 
 216      1BE4040C 
 217 02ba A9ED2B7A 		.ascii	"\251\355+z&?\216\0121\231\344\250\034lT\2020\272\212"
 217      263F8E0A 
 217      3199E4A8 
 217      1C6C5482 
 217      30BA8A
 218 02cd 3E265D75 		.ascii	">&]u'\326\241\206O\0112}#`\215\014]\203>\225B'P\031"
 218      27D6A186 
 218      4F09327D 
 218      23608D0C 
 218      5D833E95 
 219 02e5 D81EF421 		.ascii	"\330\036\364!\204\350\012<\274\314z\026\022\234~\324"
 219      84E80A3C 
 219      BCCC7A16 
 219      129C7ED4 
 220 02f5 117F4E54 		.ascii	"\021\177NT\220\337\270\177p\237E\304\235\304\265\265"
 220      90DFB87F 
 220      709F45C4 
 220      9DC4B5B5 
 221 0305 0788884A 		.ascii	"\007\210\210J\020Q!\210(G\366e\\\227\226\321\235{\277"
 221      10512188 
 221      2847F665 
 221      5C9796D1 
 221      9D7BBF
 222 0318 5A81F752 		.ascii	"Z\201\367R\031mq\007G\225\026!\265\351\237&\337&\203"
 222      196D7107 
 222      47951621 
 222      B5E99F26 
 222      DF2683
 223 032b 7D038454 		.ascii	"}\003\204T\011B*\337 \244ZZ\310\364\345\360\012\027"
 223      09422ADF 
 223      20A45A5A 
 223      C8F4E5F0 
 223      0A17
 224 033d C17D5651 		.ascii	"\301}VQ\226\305\360y\021\035\321\032\352>t\\\011ul\331"
 224      96C5F079 
 224      111DD11A 
ARM GAS  /tmp/cc0qBXqg.s 			page 17


 224      EA3E745C 
 224      09756CD9 
 225 0351 B5933AB1 		.ascii	"\265\223:\261\353\324X\271N-w\235Z\352:9Y\257.j\025"
 225      EBD458B9 
 225      4E2D779D 
 225      5AEA3A39 
 225      59AF2E6A 
 226 0366 24177DA1 		.ascii	"$\027}\241C[\025\244\375\215\245\231\012\0276Z\304\037"
 226      435B15A4 
 226      FD8DA599 
 226      0A17365A 
 226      C41F
 227 0378 DAC61A93 		.ascii	"\332\306\032\223\035\331h\275\007\350pA\343Y\274\352"
 227      1DD968BD 
 227      07E87041 
 227      E359BCEA 
 228 0388 381DEF20 		.ascii	"8\035\357 \323{r\364\373o\241z`~\2232o@\253\340o\035"
 228      D37B72F4 
 228      FB6FA17A 
 228      607E9332 
 228      6F40ABE0 
 229 039e 5230550A 		.ascii	"R0U\012s\033\223\265bU\340s\221*\215Hg\266J#\325&\264"
 229      731B93B5 
 229      6255E073 
 229      912A8D48 
 229      67B64A23 
 230 03b5 2FA45DCB 		.ascii	"/\244]\313D\317\222\366K\203\367\322\270c\217\021<k"
 230      44CF92F6 
 230      4B83F7D2 
 230      B8638F11 
 230      3C6B
 231 03c7 3A7B08E1 		.ascii	":{\010\341\013\210z\325H\360\223^G\366\341*\221\236"
 231      0B887AD5 
 231      48F0935E 
 231      47F6E12A 
 231      919E
 232 03d9 AE4CCFDE 		.ascii	"\256L\317\336\350\3502G|\221\221>\254\313\310$\251\345"
 232      E8E83247 
 232      7C91913E 
 232      ACCBC824 
 232      A9E5
 233 03eb 432D2273 		.ascii	"C-\"s\217\213\310\217?d~\334vt\342\214\032\027RryB\375"
 233      8F8BC88F 
 233      3F647EDC 
 233      7674E28C 
 233      1A175272 
 234 0402 9D4A85E0 		.ascii	"\235J\205\340\220\005\3573\207\274\003V\357\020\006"
 234      9005EF33 
 234      87BC0356 
 234      EF1006
 235 0411 F243CB38 		.ascii	"\362C\3138\322\276\311,\035C\2350\214\037\362a\274\015"
 235      D2BEC92C 
 235      1D439D30 
 235      8C1FF261 
 235      BC0D
 236 0423 0FDBD930 		.ascii	"\017\333\3310f\234\211:\255\302\345LFM\331\375\273\012"
 236      669C893A 
ARM GAS  /tmp/cc0qBXqg.s 			page 18


 236      ADC2E54C 
 236      464DD9FD 
 236      BB0A
 237 0435 A4759764 		.ascii	"\244u\227d\320%\301\300\354\272\357\327P\327\275\007"
 237      D025C1C0 
 237      ECBAEFD7 
 237      50D7BD07 
 238 0445 CADC1594 		.ascii	"\312\334\025\224\271c\036\375\320\254#U\230\004\177"
 238      B9631EFD 
 238      D0AC2355 
 238      98047F
 239 0454 D03B7185 		.ascii	"\320;q\205\026\267\257t\204:\342:f\251\320\274\274x"
 239      16B7AF74 
 239      843AE23A 
 239      66A9D0BC 
 239      BC78
 240 0466 47DCC890 		.ascii	"G\334\310\220\374\316\364\022\015n\345\346~\031\326"
 240      FCCEF412 
 240      0D6EE5E6 
 240      7E19D6
 241 0475 AFC0B719 		.ascii	"\257\300\267\0312\221X\363\\\213\3570\344\362\265\027"
 241      329158F3 
 241      5C8BEF30 
 241      E4F2B517 
 242 0485 6B99E157 		.ascii	"k\231\341W\003v\365\341x\005\367\227^\222k;\007\003"
 242      0376F5E1 
 242      7805F797 
 242      5E926B3B 
 242      0703
 243 0497 0234B88B 		.ascii	"\0024\270\213\222:\314\307\266\344a\344F\376\255psw"
 243      923ACCC7 
 243      B6E461E4 
 243      46FEAD70 
 243      7377
 244 04a9 3B6D0A0E 		.ascii	";m\012\0162U,\225\374\244!\255>\302\224R\211\320}\350"
 244      32552C95 
 244      FCA421AD 
 244      3EC29452 
 244      89D07DE8 
 245 04bd D603E8D6 		.ascii	"\326\003\350\326 Z!(~\213z\313\0322-\262\026C\0158\301"
 245      205A2128 
 245      7E8B7ACB 
 245      1A322DB2 
 245      16430D38 
 246 04d2 54118C29 		.ascii	"T\021\214)y\267-y\251-y}\243\210\374\221-y\253-y\245"
 246      79B72D79 
 246      A92D797D 
 246      A388FC91 
 246      2D79AB2D 
 247 04e8 98BC4D5A 		.ascii	"\230\274MZ\231\014$\320w\211\265\351\265\245\367\260"
 247      990C24D0 
 247      7789B5E9 
 247      B5A5F7B0 
 248 04f8 708FE201 		.ascii	"p\217\342\001\374S\205\014\365\303\307}\224\023!\206"
 248      FC53850C 
 248      F5C3C77D 
 248      94132186 
ARM GAS  /tmp/cc0qBXqg.s 			page 19


 249 0508 2141CF61 		.ascii	"!A\317at\236!74\014\360\004`\010\3401\300S\200\001\344"
 249      749E2137 
 249      340CF004 
 249      6008E031 
 249      C0538001 
 250 051d 46F32A93 		.ascii	"F\363*\2237!\226\367P\272\367L?\3463\315\204\336\364"
 250      372196F7 
 250      50BAF74C 
 250      3FE633CD 
 250      84DEF4
 251 0530 1E219371 		.ascii	"\036!\223q\177\021\230\0154\340\214|\223\351\220\212"
 251      7F11980D 
 251      34E08C7C 
 251      93E9908A 
 252 0540 72EB91D4 		.ascii	"r\353\221\324\2361\203\261\254{\230\027\203q4\2358\345"
 252      9E3183B1 
 252      AC7B9817 
 252      8371349D 
 252      38E5
 253 0552 5D7191F1 		.ascii	"]q\221\361\220\356V0!\235\2158\310dBh\024Z\277\020\374"
 253      90EE5630 
 253      219D8D38 
 253      C8644268 
 253      145ABF10 
 254 0567 92C894EE 		.ascii	"\222\310\224\3569\032\201\016\3779\235'\323zA\203\207"
 254      391A810E 
 254      FF399D27 
 254      D37A4183 
 254      87
 255 0578 389D8C8A 		.ascii	"8\235\214\212T\225\2411\226\331\200.\260\344^\024Oa"
 255      5495A131 
 255      96D9802E 
 255      B0E45E14 
 255      4F61
 256 058a BD042F1A 		.ascii	"\275\004/\032\270Y\243e>i\">y=\274\342\270\006\247\320"
 256      B859A365 
 256      3E69223E 
 256      793DBCE2 
 256      B806A7D0 
 257 059e 7EA09C89 		.ascii	"~\240\234\211\251\034\025#&\211an\262\342\242\306\356"
 257      A91C1523 
 257      2689616E 
 257      B2E2A2C6 
 257      EE
 258 05af ECF9D23C 		.ascii	"\354\371\322<{N\261\340\311=\3608C\003\215WCfA\242\264"
 258      7B4EB1E0 
 258      C93DF038 
 258      43038D57 
 258      436641A2 
 259 05c4 B29AA595 		.ascii	"\262\232\245\225\302\212\311l\005Nc\006+*|\234\250\025"
 259      C28AC96C 
 259      054E6306 
 259      2B2A7C9C 
 259      A815
 260 05d6 A51597CB 		.ascii	"\245\025\227\313dT\346\301\354\263\202\301V[\262\212"
 260      6454E6C1 
 260      ECB382C1 
ARM GAS  /tmp/cc0qBXqg.s 			page 20


 260      565BB28A 
 261 05e6 757D3107 		.ascii	"u}1\007\026Z\315\203w\006\324\231\3469\345Tz\265\023"
 261      165ACD83 
 261      7706D499 
 261      E639E554 
 261      7AB513
 262 05f9 CE660212 		.ascii	"\316f\002\022b\257\027:\213f\271\367\013h\252x\015\022"
 262      62AF173A 
 262      8B66B9F7 
 262      0B68AA78 
 262      0D12
 263 060b 5E0912E6 		.ascii	"^\011\022\346\221\035\021\013\322\"F\333\236\235D\342"
 263      911D110B 
 263      D22246DB 
 263      9E9D44E2 
 264 061b E285F09B 		.ascii	"\342\205\360\233\200\317Y$,\322\331\347\2459\377\264"
 264      80CF5924 
 264      2CD2D9E7 
 264      A539FFB4 
 265 062b 0FA406EB 		.ascii	"\017\244\006\353\2305[\351\004\0315\363R\213/1S\227"
 265      98355BE9 
 265      041935F3 
 265      528B2F31 
 265      5397
 266 063d 1497D6F0 		.ascii	"\024\227\326\360B\340\023@gKo\235\2263\324\015\320\013"
 266      42E01340 
 266      674B6F9D 
 266      9633D40D 
 266      D00B
 267 064f 15E17598 		.ascii	"\025\341u\230\215R\012\231y\332\243\272N*\360e\326\324"
 267      8D520A99 
 267      79DAA3BA 
 267      4E2AF065 
 267      D6D4
 268 0661 5C0EBAB2 		.ascii	"\\\016\272\262r0\354IP\220\016\227\263\317\312{gR\264"
 268      7230EC49 
 268      50900E97 
 268      B3CFCA7B 
 268      6752B4
 269 0674 B88E21ED 		.ascii	"\270\216!\355\257\242\307\345b'!\352\012\003\030*7;"
 269      AFA2C7E5 
 269      622721EA 
 269      0A03182A 
 269      373B
 270 0686 C9A1B0A9 		.ascii	"\311\241\260\251|G\334\312Z\335\012{\235\251\301w\031"
 270      7C47DCCA 
 270      5ADD0A7B 
 270      9DA9C177 
 270      19
 271 0697 32D49D77 		.ascii	"2\324\235w^\211\273\0312\367\344\250\311\011?\225[M"
 271      5E89BB19 
 271      32F7E4A8 
 271      C9093F95 
 271      5B4D
 272 06a9 241B964F 		.ascii	"$\033\226O$\033\330\210\237\231\033-\326\341q6 \267"
 272      241BD888 
 272      9F991B2D 
ARM GAS  /tmp/cc0qBXqg.s 			page 21


 272      D6E17136 
 272      20B7
 273 06bb AEBDE8D3 		.ascii	"\256\275\350\323\010\025A\317\373%\335\304\202Qr-:*"
 273      081541CF 
 273      FB25DDC4 
 273      8251722D 
 273      3A2A
 274 06cd B70CC806 		.ascii	"\267\014\310\006\273\023I\244\334\235\360\245#rD\276"
 274      BB1349A4 
 274      DC9DF0A5 
 274      237244BE 
 275 06dd 1A1D96D3 		.ascii	"\032\035\226\323\021\231\017l\252s\220\316\361vZT\276"
 275      11990F6C 
 275      AA7390CE 
 275      F1765A54 
 275      BE
 276 06ee 883C8371 		.ascii	"\210<\203q&\246*F>\230+u\304\227\030b.\306\\Y1\206\322"
 276      26A62A46 
 276      3E982B75 
 276      C4971862 
 276      2EC65C59 
 277 0705 07928EF0 		.ascii	"\007\222\216\360\361\373\021\231\034Z\273\317b|\225"
 277      F1FB1199 
 277      1C5ABBCF 
 277      627C95
 278 0714 D19A625E 		.ascii	"\321\232b^\235r\302U\024\221\233\236\334x\"\2677\201"
 278      9D72C255 
 278      14919B9E 
 278      DC7822B7 
 278      3781
 279 0726 25CAED4D 		.ascii	"%\312\355M`=s?\352\240\263i\002\030!^0\302=\263\003"
 279      603D733F 
 279      EAA0B369 
 279      0218215E 
 279      30C23DB3 
 280 073b 3D28385C 		.ascii	"=(8\\\245\301\301\012*1s&\370\222\013\216`\310\374\261"
 280      A5C1C10A 
 280      2A317326 
 280      F8920B8E 
 280      60C8FCB1 
 281 074f 2B971C71 		.ascii	"+\227\034q4C\256\277\276\227\244\305\361\014Y8\333r"
 281      3443AEBF 
 281      BE97A4C5 
 281      F10C5938 
 281      DB72
 282 0761 17E29921 		.ascii	"\027\342\231!A\217\223\373\234q\006Cj\216\006Ghq>E\344"
 282      418F93FB 
 282      9C710643 
 282      6A8E0647 
 282      68713E45 
 283 0776 99874387 		.ascii	"\231\207C\207\355\316\271ivU\256W\375\024\235\006mS"
 283      EDCEB969 
 283      7655AE57 
 283      FD149D06 
 283      6D53
 284 0788 25B4CDB8 		.ascii	"%\264\315\270:yV\205\313\230\260\376\245\305\177\305"
 284      3A795685 
ARM GAS  /tmp/cc0qBXqg.s 			page 22


 284      CB98B0FE 
 284      A5C57FC5 
 285 0798 B5ECFDA1 		.ascii	"\265\354\375\241\254C5\316\270\205!\247\313K\206\325"
 285      AC4335CE 
 285      B88521A7 
 285      CB4B86D5 
 286 07a8 B88721E9 		.ascii	"\270\207!\351C=\013\030\2170\244\357A\355Eg<\306\220"
 286      433D0B18 
 286      8F30A4EF 
 286      41ED4567 
 286      3CC690
 287 07bb 92991325 		.ascii	"\222\231\023%.x\206!M\217\226&\264x\221!\305\211\213"
 287      2E788621 
 287      4D8F9626 
 287      B4789121 
 287      C5898B
 288 07ce 150A     		.ascii	"\025\012"
 289 07d0 7C404991 		.ascii	"|@I\221\003\207\263\343H6S1'T\303\243\307c\363E\012"
 289      0387B3E3 
 289      48365331 
 289      2754C3A3 
 289      C763F345 
 290 07e5 F688A8BC 		.ascii	"\366\210\250\274\037\036%'<\310s\306\207h\023\371p\337"
 290      1F1E2527 
 290      3CC873C6 
 290      876813F9 
 290      70DF
 291 07f7 A1308DA8 		.ascii	"\2410\215\250\304\376\016M=y\320\251\\\241S*\356\207"
 291      C4FE0E4D 
 291      3D79D0A9 
 291      5CA1532A 
 291      EE87
 292 0809 A665B6B9 		.ascii	"\246e\266\271\010\266Qq\333\344\200We3\257\232\230\033"
 292      08B65171 
 292      DBE48057 
 292      6533AF9A 
 292      981B
 293 081b 2B54E063 		.ascii	"+T\340cLDX\337\304k\027f\334\345\014\012%\030Xj\361"
 293      4C4458DF 
 293      C46B1766 
 293      DCE50C0A 
 293      2518586A 
 294 0830 4B344B15 		.ascii	"K4K\025\2002\371\2022\240\033\263p\237\351U\202\016"
 294      8032F982 
 294      32A01BB3 
 294      709FE955 
 294      820E
 295 0842 9F60424A 		.ascii	"\237`BJ\262\323BE)t\356\277vR_*\206\266\227\204\266"
 295      B2D34245 
 295      2974EEBF 
 295      76525F2A 
 295      86B69784 
 296 0857 0572BB3D 		.ascii	"\005r\273=)\222\356Ix\354\213s\3168\225\331\367\325"
 296      2992EE49 
 296      78EC8B73 
 296      CE3895D9 
 296      F7D5
ARM GAS  /tmp/cc0qBXqg.s 			page 23


 297 0869 B3987B7C 		.ascii	"\263\230{|]\252\023M&+\371d\3226\037\272\250\3009\214"
 297      5DAA134D 
 297      262BF964 
 297      D2361FBA 
 297      A8C0398C 
 298 087d F64E44FB 		.ascii	"\366ND\373}\025.b\332\315\015\325e;Z\264\233W\376\024"
 298      7D152E62 
 298      DACD0DD5 
 298      653B5AB4 
 298      9B57FE14 
 299 0891 958162A5 		.ascii	"\225\201b\245\357\244\3305i\305jZR&5\270\224\011\273"
 299      EFA4D835 
 299      69C56A5A 
 299      522635B8 
 299      9409BB
 300 08a4 1215FD42 		.ascii	"\022\025\375B\203+\031\322\035\037^\342\210;\030Rvt"
 300      832B19D2 
 300      1D1F5EE2 
 300      883B1852 
 300      7674
 301 08b6 E2B2037E 		.ascii	"\342\262\003~\300\220\220\331\376\213.\370\011C\206"
 301      C09090D9 
 301      FE8B2EF8 
 301      094386
 302 08c5 822AFA14 		.ascii	"\202*\372\024x\230!\201\307\332\263\034\3608\323\266"
 302      78982181 
 302      C7DAB31C 
 302      F038D3B6 
 303 08d5 AFA22A1A 		.ascii	"\257\242*\032[\264\355\007mkA\333\033\202\266\257\355"
 303      5BB4ED07 
 303      6D6B41DB 
 303      1B82B6AF 
 303      ED
 304 08e6 4D143572 		.ascii	"M\0245r\311\211\"6q`\025\236c\222\302#\026s1^b\222\222"
 304      C9892236 
 304      7160159E 
 304      6392C223 
 304      1673315E 
 305 08fd CBE68F0A 		.ascii	"\313\346\217\012\363R\033Hj\000I7\337AR\275\264\244"
 305      F3521B48 
 305      6A004937 
 305      DF4152BD 
 305      B4A4
 306 090f 87C9A393 		.ascii	"\207\311\243\223\012\034\242b\031\267*\367\226\032\037"
 306      0A1CA262 
 306      19B72AF7 
 306      961A1F
 307 091e A688FCD1 		.ascii	"\246\210\374\321`\376\254\260\226\354\002Q- \252\351"
 307      60FEACB0 
 307      96EC0251 
 307      2D20AAE9 
 308 092e 1D44354B 		.ascii	"\035D5K\213\232\217\211_\207\2173I\351\243\2037\235"
 308      8B9A8F89 
 308      5F878F33 
 308      49E9A383 
 308      379D
 309 0940 C553CB0D 		.ascii	"\305S\313\015\253\251\345\226ej\011\354/\352D8\231\265"
ARM GAS  /tmp/cc0qBXqg.s 			page 24


 309      ABA9E596 
 309      656A09EC 
 309      2FEA4438 
 309      99B5
 310 0952 8A6C4A3D 		.ascii	"\212lJ=A\2635\221\030\372\306-\003\240\036\233|p\333"
 310      41B33591 
 310      18FAC62D 
 310      03A01E9B 
 310      7C70DB
 311 0965 6AFA6A97 		.ascii	"j\372j\227\213e\334\266\310\270\336\024\224\341\210"
 311      8B65DCB6 
 311      C8B8DE14 
 311      94E188
 312 0974 4F3319FD 		.ascii	"O3\031\375\257S\037\253q:Cf\343o\236q\3029\014\211\316"
 312      AF531FAB 
 312      713A4366 
 312      E36F9E71 
 312      C2390C89 
 313 0989 6ABDA3C2 		.ascii	"j\275\243\302\371\014\351\316Y,U\341K\0149\365`<[\215"
 313      F90CE9CE 
 313      592C55E1 
 313      4B0C39F5 
 313      603C5B8D 
 314 099d 2F33BB5D 		.ascii	"/3\273]\357H\315pB:w\221`X\330Y\274\363\001\030\347"
 314      EF48CD70 
 314      423A7791 
 314      6058D859 
 314      BCF30118 
 315 09b2 0BF362CD 		.ascii	"\013\363b\315\262\276M*#\263\331}\271\016u\011\006\376"
 315      B2BE4D2A 
 315      23B3D97D 
 315      B90E7509 
 315      06FE
 316 09c4 42C7F4EB 		.ascii	"B\307\364\353\015\254i\327\340\353L\326\370\310\355"
 316      0DAC69D7 
 316      E0EB4CD6 
 316      F8C8ED
 317 09d3 05277C83 		.ascii	"\005'|\203!\246\271\262.\025\276\311\220\373\261\263"
 317      21A6B9B2 
 317      2E15BEC9 
 317      90FBB1B3 
 318 09e3 BD0EB891 		.ascii	"\275\016\270\221!u\035\341\345\012\334\302\220\363\015"
 318      21751DE1 
 318      E50ADCC2 
 318      90F30D
 319 09f2 BD26256E 		.ascii	"\275&%ncHiX\303\202\006w0$\361jH\240\026\337eH\346\322"
 319      63486958 
 319      C3820677 
 319      3024F16A 
 319      48A016DF 
 320 0a0a E4511DBE 		.ascii	"\344Q\035\276O\021\307\330\323\227\252\235\331\372\302"
 320      4F11C7D8 
 320      D397AA9D 
 320      D9FAC2
 321 0a19 BCC280FE 		.ascii	"\274\302\200\376T,=\300\203\231\346\025\006\250\333"
 321      542C3DC0 
 321      8399E615 
ARM GAS  /tmp/cc0qBXqg.s 			page 25


 321      06A8DB
 322 0a28 03EABE90 		.ascii	"\003\352\276\220\333-\352I\223\266\177\34156\220w\333"
 322      DB2DEA49 
 322      93B67FE1 
 322      35369077 
 322      DB
 323 0a39 925B2D19 		.ascii	"\222[-\031\010u\245\210\272W\232\271\210\272_D}\317"
 323      0875A588 
 323      BA579AB9 
 323      88BA5F44 
 323      7DCF
 324 0a4b 96FA80DC 		.ascii	"\226\372\200\334\226\372\377\012\324\217m\251=l\210"
 324      96FAFF0A 
 324      D48F6DA9 
 324      3D6C88
 325 0a5a 8744C48F 		.ascii	"\207D\304\217$\211\305\235\234\027Q\367\331R\213\027"
 325      2489C59D 
 325      9C1751F7 
 325      D9528B17 
 326 0a6a 12E2023E 		.ascii	"\022\342\002>\010\262S (\211\236\360\026\244\200\037"
 326      08B25320 
 326      28899EF0 
 326      16A4801F 
 327 0a7a 05071992 		.ascii	"\005\007\031\222\273\241\347\000#\000\303\000\317\000"
 327      BBA1E700 
 327      2300C300 
 327      CF00
 328 0a88 06009E02 		.ascii	"\006\000\236\002\214\001\014\312\315\253\030\"{B$\273"
 328      8C010CCA 
 328      CDAB1822 
 328      7B4224BB 
 329 0a98 5F5AF61A 		.ascii	"_Z\366\032\321\032\346\376{\001dy\001T\326k\030\302"
 329      D11AE6FE 
 329      7B016479 
 329      0154D66B 
 329      18C2
 330 0aaa AABBDB35 		.ascii	"\252\273\3335:\310T\367\011\345\365Pz\260,k\230c\365"
 330      3AC854F7 
 330      09E5F550 
 330      7AB02C6B 
 330      9863F5
 331 0abd C78E28C4 		.ascii	"\307\216(\304\001&&\226\241qK\200u\227\236\236q\302"
 331      01262696 
 331      A1714B80 
 331      75979E9E 
 331      71C2
 332 0acf B16AE258 		.ascii	"\261j\342X\270e4\251T\207\334V\2703\211\265\351\356"
 332      B86534A9 
 332      5487DC56 
 332      B83389B5 
 332      E9EE
 333 0ae1 19DD8F4D 		.ascii	"\031\335\217M\246h\035i\200\356\202\314)\351a\211\342"
 333      A6681D69 
 333      80EE82CC 
 333      29E96189 
 333      E2
 334 0af2 C99E58CE 		.ascii	"\311\236X\316\362\361\004\247'\226{\011\226\233\344"
ARM GAS  /tmp/cc0qBXqg.s 			page 26


 334      F2F104A7 
 334      27967B09 
 334      969BE4
 335 0b01 96E17DCD 		.ascii	"\226\341}\315`}\235\262\356+\361\365\300\247/0>MUB\317"
 335      607D9DB2 
 335      EE2BF1F5 
 335      C0A72F30 
 335      3E4D5542 
 336 0b16 07323BE5 		.ascii	"\0072;\345\370<C\222z*\273\371NI5]\361\364\304\034\322"
 336      F83C4392 
 336      7A2ABBF9 
 336      4E49355D 
 336      F1F4C41C 
 337 0b2b F15A9AEC 		.ascii	"\361Z\232\354\246>\235\236\356T\341<F\\\260\224q\020"
 337      A63E9D9E 
 337      EE54E13C 
 337      465CB094 
 337      7110
 338 0b3d E3628654 		.ascii	"\343b\206T?j\257S\342\012\206\244T\366}\204o\261\367"
 338      3F6AAF53 
 338      E20A86A4 
 338      54F67D84 
 338      6FB1F7
 339 0b50 57634B61 		.ascii	"WcKa\266\351\244\310O\372\302\316'\252\240\377\020V"
 339      B6E9A4C8 
 339      4FFAC2CE 
 339      27AAA0FF 
 339      1056
 340 0b62 BA15FC3F 		.ascii	"\272\025\374?`\020b\356\344\005\376\256d\037A\314\271"
 340      601062EE 
 340      E405FEAE 
 340      641F41CC 
 340      B9
 341 0b73 E974F087 		.ascii	"\351t\360\207\274\341\377\340Swn\270\231\005\334x\243"
 341      BCE1FFE0 
 341      53776EB8 
 341      9905DC78 
 341      A3
 342 0b84 994522E4 		.ascii	"\231E\"\344K\324\012\2260a;\243%\366\2729\360\272Y\342"
 342      4BD40A96 
 342      30613BA3 
 342      25F6BA39 
 342      F0BA59E2 
 343 0b98 7533BC05 		.ascii	"u3\274\005\261]\021vG\227\260\033*\004(\000\310\007"
 343      B15D1176 
 343      4797B01B 
 343      2A042800 
 343      C807
 344 0baa C803B808 		.ascii	"\310\003\270\010\260\004\036\227\013\2579\000\331\000"
 344      B0041E97 
 344      0BAF3900 
 344      D900
 345 0bb8 89003100 		.ascii	"\211\0001\000\207\001\"\000\202\000\002\001\002\260"
 345      87012200 
 345      82000201 
 345      02B0
 346 0bc6 9557FE86 		.ascii	"\225W\376\206y%$\273y[\325bm#s\261\301\365\030\365;"
ARM GAS  /tmp/cc0qBXqg.s 			page 27


 346      792524BB 
 346      795BD562 
 346      6D2373B1 
 346      C1F518F5 
 347 0bdb 52CBC6D9 		.ascii	"R\313\306\331\222\037\227\333\206[w\303JF\037\214u\350"
 347      921F97DB 
 347      865B77C3 
 347      4A461F8C 
 347      75E8
 348 0bed 84343D65 		.ascii	"\2044=e/\362\316\003X\354\235\320Pfc\030\363J\014\235"
 348      2FF2CE03 
 348      58EC9DD0 
 348      50666318 
 348      F34A0C9D 
 349 0c01 028607B8 		.ascii	"\002\206\007\270a\256\200a.C\347\016\001\034\264\352"
 349      61AE8061 
 349      2E43E70E 
 349      011CB4EA 
 350 0c11 E0AB50E5 		.ascii	"\340\253P\345\"[\357\207\200\0221\274\215d\320\213\264"
 350      225BEF87 
 350      801231BC 
 350      8D64D08B 
 350      B4
 351 0c22 08B5D222 		.ascii	"\010\265\322\"\344\015Z\\\005\311o\327\242?\016\233"
 351      E40D5A5C 
 351      05C96FD7 
 351      A23F0E9B 
 352 0c32 CEAC4261 		.ascii	"\316\254Ba\240B\222\264\012\266v\010\267\322\2004d\221"
 352      A04292B4 
 352      0AB67608 
 352      B7D28034 
 352      6491
 353 0c44 21E923C5 		.ascii	"!\351#\305 \370?\316G\300\207\2632\270\017\223uA\212"
 353      20F83FCE 
 353      47C087B3 
 353      32B80F93 
 353      75418A
 354 0c57 ED480658 		.ascii	"\355H\006X\217<\204\364\304\347\001\324\255\216\000"
 354      8F3C84F4 
 354      C4E701D4 
 354      AD8E00
 355 0c66 D9194E6E 		.ascii	"\331\031Nn\331\365-\264\343\362\026\202c\320\205H\336"
 355      D9F52DB4 
 355      E3F21682 
 355      63D08548 
 355      DE
 356 0c77 9D68781F 		.ascii	"\235hx\037\005*\035\265Ri$\235{\0261\314k\020\020\211"
 356      052A1DB5 
 356      5269249D 
 356      7B1631CC 
 356      6B101089 
 357 0c8b A5F3BE24 		.ascii	"\245\363\276$\377\005\336\300>\377~w\026\026a\334g\226"
 357      FF05DEC0 
 357      3EFF7E77 
 357      161661DC 
 357      6796
 358 0c9d B317E5EA 		.ascii	"\263\027\345\352\356t\226\277\200H\234\277\330\207K"
ARM GAS  /tmp/cc0qBXqg.s 			page 28


 358      EE7496BF 
 358      80489CBF 
 358      D8874B
 359 0cac 11CAC369 		.ascii	"\021\312\303i\321&\223\202\332bQ\250\033\010\265\331"
 359      D1269382 
 359      DA6251A8 
 359      1B08B5D9 
 360 0cbc 5C60E178 		.ascii	"\\`\341x\263\205c\201\354\254\255\205\013\321\233\023"
 360      B3856381 
 360      ECACAD85 
 360      0BD19B13 
 361 0ccc 6C02F422 		.ascii	"l\002\364\"\216\367(\036\336\037\267\266\326)\221\265"
 361      8EF7281E 
 361      DE1FB7B6 
 361      D62991B5 
 362 0cdc 4877E2A4 		.ascii	"Hw\342\244\273#\311\372\034\247\267e\315\2727p\212\365"
 362      BB23C9FA 
 362      1CA7B765 
 362      CDBA3770 
 362      8AF5
 363 0cee 3DCE4EDF 		.ascii	"=\316N\337\027#\003\240d\"}:/t=\316\272\353\341\346"
 363      172303A0 
 363      64227D3A 
 363      2F743DCE 
 363      BAEBE1E6 
 364 0d02 AE9FC02B 		.ascii	"\256\237\300+Q\272m\327\017\210\234+ZBA\031mF\264\313"
 364      51BA6DD7 
 364      0F889C2B 
 364      5A424119 
 364      6D46B4CB 
 365 0d16 02ED3261 		.ascii	"\002\3552a(/\000d\000\234\0058\003p\022 \031 \311\312"
 365      282F0064 
 365      009C0538 
 365      03701220 
 365      1920C9CA 
 366 0d2a 28F5BF66 		.ascii	"(\365\277fCL<:\003\204\022.v\313\214\346rQ&\273\360"
 366      434C3C3A 
 366      0384122E 
 366      76CB8CE6 
 366      725126BB 
 367 0d3f 36EACA7F 		.ascii	"6\352\312\177`\254O\001q\246}bQ\264\247XE\373\251\345"
 367      60AC4F01 
 367      71A67D62 
 367      51B4A758 
 367      45FBA9E5 
 368 0d53 F9E62A84 		.ascii	"\371\346*\204\372\025\022\352\227\201_\012\037\2164"
 368      FA1512EA 
 368      97815F0A 
 368      1F8E34
 369 0d62 E8F069E8 		.ascii	"\350\360i\350X\252\3201\260\350\323\004\345\350\004"
 369      58AAD031 
 369      B0E8D304 
 369      E5E804
 370 0d71 9BABC93A 		.ascii	"\233\253\311:1\2137\220\336.&\015\206\276Er\023q\317"
 370      318B3790 
 370      DE2E260D 
 370      86BE4572 
ARM GAS  /tmp/cc0qBXqg.s 			page 29


 370      1371CF
 371 0d84 644E6B89 		.ascii	"dNk\211\024[W\0378\2504\2314\204\306\246*a#\331r\236"
 371      145B571F 
 371      38A83499 
 371      3484C6A6 
 371      2A6123D9 
 372 0d9a 8F245907 		.ascii	"\217$Y\007\226\274\315L\235\245\334\250\347\300N\345"
 372      96BCCD4C 
 372      9DA5DCA8 
 372      E7C04EE5 
 373 0daa EF64A7F3 		.ascii	"\357d\247\363@)\330\351\034\263\223\235\254\211\322"
 373      4029D8E9 
 373      1CB3939D 
 373      AC89D2
 374 0db9 C13C42E2 		.ascii	"\301<B\342\264\270\344\334]R\305\023N\025\202K\206Q"
 374      B4B8E4DC 
 374      5D52C513 
 374      4E15824B 
 374      8651
 375 0dcb 56967C57 		.ascii	"V\226|WR\313;\002\363\342\3657\366\203\030\345*\237"
 375      52CB3B02 
 375      F3E2F537 
 375      F68318E5 
 375      2A9F
 376 0ddd 1649AF2B 		.ascii	"\026I\257+\337F=\364c\346\034\204\270\312>1Sw\372\262"
 376      DF463DF4 
 376      63E61C84 
 376      B8CA3E31 
 376      5377FAB2 
 377 0df1 8AD81B68 		.ascii	"\212\330\033h\226W\201\2359\256\223\201\246\370O\350"
 377      9657819D 
 377      39AE9381 
 377      A6F84FE8 
 378 0e01 32B69A87 		.ascii	"2\266\232\207\015_j\261\240\251\027\315\305C\037\305"
 378      0D5F6AB1 
 378      A0A917CD 
 378      C5431FC5 
 379 0e11 992A0230 		.ascii	"\231*\0020]\211\326I\021\257\023h\3539-YJ6J\321\212"
 379      5D89D649 
 379      11AF1368 
 379      EB392D59 
 379      4A364AD1 
 380 0e26 06B13B93 		.ascii	"\006\261;\223\017\"\254\324P\233tu#.\356\277/$\326\016"
 380      0F22ACD4 
 380      509B7475 
 380      232EEEBF 
 380      2F24D60E 
 381 0e3a 5BEAE5AB 		.ascii	"[\352\345\253\222.\021y\2474\271\310\264\315\027\370"
 381      922E1179 
 381      A734B9C8 
 381      B4CD17F8 
 382 0e4a 40905AF3 		.ascii	"@\220Z\363\216-y\3512\356\225\234;)g\246\245\311E\334"
 382      8E2D79E9 
 382      32EE959C 
 382      3B2967A6 
 382      A5C945DC 
 383 0e5e E7FF4E98 		.ascii	"\347\377N\230\323\222m\347\264e\003\307kZ\223\235\274"
ARM GAS  /tmp/cc0qBXqg.s 			page 30


 383      D3926DE7 
 383      B46503C7 
 383      6B5A939D 
 383      BC
 384 0e6f 383C459C 		.ascii	"8<E\234\220\270\353+\301\011M\242\274\270\024\252\234"
 384      90B8EB2B 
 384      C1094DA2 
 384      BCB814AA 
 384      9C
 385 0e80 9F08A651 		.ascii	"\237\010\246Ql\026x\340M\002\233C0\361\224\003R\362"
 385      6C1678E0 
 385      4D029B43 
 385      30F19403 
 385      52F2
 386 0e92 068EABC9 		.ascii	"\006\216\253\311g\244\2509)H;@\245A\341{)$5\302\005"
 386      67A4A839 
 386      29483B40 
 386      A541E17B 
 386      292435C2 
 387 0ea7 0F6B6815 		.ascii	"\017kh\025\334;\270\330\250\3043\0149v\256\247T\201"
 387      DC3BB8D8 
 387      A8C4330C 
 387      3976AEA7 
 387      5481
 388 0eb9 031C2852 		.ascii	"\003\034(Rt\363\345\270\022\207Q\3045\250\262`F\211"
 388      74F3E5B8 
 388      128751C4 
 388      35A8B260 
 388      4689
 389 0ecb 143A5212 		.ascii	"\024:R\022\353t\253\334\315\205/9Y\255\300\364hU\024"
 389      EB74ABDC 
 389      CD852F39 
 389      59ADC0F4 
 389      685514
 390 0ede 96D7ADD2 		.ascii	"\226\327\255\322[\305\362\364fYc\265B\314V\361\364\326"
 390      5BC5F2F4 
 390      665963B5 
 390      42CC56F1 
 390      F4D6
 391 0ef0 02EF9B21 		.ascii	"\002\357\233!\2755\0014\0024\000\324\003\334\004\250"
 391      BD350134 
 391      023400D4 
 391      03DC04A8 
 392 0f00 06A8B4CA 		.ascii	"\006\250\264\312\347-\027\224YUB\324\226aL\031I\255"
 392      E72D1794 
 392      595542D4 
 392      96614C19 
 392      49AD
 393 0f12 3325255F 		.ascii	"3%%_\343\015\376|\311\335\211\334\355n@\307\017\312"
 393      E30DFE7C 
 393      C9DD89DC 
 393      ED6E40C7 
 393      0FCA
 394 0f24 6DE48A0B 		.ascii	"m\344\212\013|\221Ij\261p2\214\352@^\215%S\331\241\222"
 394      7C91496A 
 394      B170328C 
 394      EA405E8D 
ARM GAS  /tmp/cc0qBXqg.s 			page 31


 394      2553D9A1 
 395 0f39 8948EC9D 		.ascii	"\211H\354\235G\003=9\327\307\012\301/\342\337\013$\216"
 395      47033D39 
 395      D7C70AC1 
 395      2FE2DF0B 
 395      248E
 396 0f4b 48742BC5 		.ascii	"Ht+\305\226\301\257\021\345\273\316D\036\302\241\020"
 396      96C1AF11 
 396      E5BBCE44 
 396      1EC2A110 
 397 0f5b C221D2FA 		.ascii	"\302!\322\372\213B\270\376\333,j\010\365![\352\345!"
 397      8B42B8FE 
 397      DB2C6A08 
 397      F5215BEA 
 397      E521
 398 0f6d 3CFFD702 		.ascii	"<\377\327\002y\2304\271\210\371\204\210:\334\226\332"
 398      799834B9 
 398      88F98488 
 398      3ADC96DA 
 399 0f7d 3A82C969 		.ascii	":\202\311i\336H\0027}4\204p\2044\275(\204\373\377Z\010"
 399      DE480237 
 399      7D348470 
 399      8434BD28 
 399      84FBFF5A 
 400 0f92 E1639CDA 		.ascii	"\341c\234\332nDu'\260\020\256\222\012\251"
 400      6E447527 
 400      B010AE92 
 400      0AA9
 401 0fa0 CE381A52 		.ascii	"\3168\032R\304\261K\004\253V\231C\352\\KZ\213\012\027"
 401      C4B14B04 
 401      AB569943 
 401      EA5C4B5A 
 401      8B0A17
 402 0fb3 D35891BF 		.ascii	"\323X\221\277X:w\322\031\255p\227t\273\366\277\300\341"
 402      583A77D2 
 402      19AD7097 
 402      74BBF6BF 
 402      C0E1
 403 0fc5 990A23C9 		.ascii	"\231\012#\311\253\350\310\266A\353[\202\016\327\315"
 403      ABE8C8B6 
 403      41EB5B82 
 403      0ED7CD
 404 0fd4 3A9CEC8A 		.ascii	":\234\354\212\214\327\341\032\026\274q\217kj\025\270"
 404      8CD7E11A 
 404      16BC718F 
 404      6B6A15B8 
 405 0fe4 89295478 		.ascii	"\211)Txl\342\204\334\236Bw\376b\205\352W\023\223tB\333"
 405      6CE284DC 
 405      9E4277FE 
 405      6285EA57 
 405      13937442 
 406 0ff9 0E0975CC 		.ascii	"\016\011u\314\327,6"
 406      D72C36
 407 1000 B26B1619 		.ascii	"\262k\026\031\355\221\267]\360}\246\335\331\366\254"
 407      ED91B75D 
 407      F07DA6DD 
 407      D9F6AC
ARM GAS  /tmp/cc0qBXqg.s 			page 32


 408 100f 1EAC90CB 		.ascii	"\036\254\220\313\320=hx\027\257\246\015\202\243*\222"
 408      D03D6878 
 408      17AFA60D 
 408      82A32A92 
 409 101f 1DF06346 		.ascii	"\035\360cF1R~fQE(\356\003\305\177Y\215\2720\275\273"
 409      31527E66 
 409      514528EE 
 409      03C57F59 
 409      8DBA30BD 
 410 1034 716A3266 		.ascii	"qj2f\026R\027\243\011\316\314M#w;\320C\240\371\376j"
 410      165217A3 
 410      09CECC4D 
 410      23773BD0 
 410      43A0F9FE 
 411 1049 F480D2C8 		.ascii	"\364\200\322\310\323\242\022/(\221\273\206)9S\246\274"
 411      D3A2122F 
 411      2891BB86 
 411      293953A6 
 411      BC
 412 105a 5C1542EA 		.ascii	"\\\025B\352\361^\254\021\217\353A\272a\031\030 lX\312"
 412      F15EAC11 
 412      8FEB41BA 
 412      61191820 
 412      6C58CA
 413 106d 0809B543 		.ascii	"\010\011\265C\017\330\241\033+\304\373\244)s/\006\024"
 413      0FD8A11B 
 413      2BC4FBA4 
 413      29732F06 
 413      14
 414 107e 38891E82 		.ascii	"8\211\036\202\311g\232\022\333\024H\343\276\234\007"
 414      C9679A12 
 414      DB1448E3 
 414      BE9C07
 415 108d 7A044DED 		.ascii	"z\004M\355\261\341\331\371\004\235\343\373\201\250O"
 415      B1E1D9F9 
 415      049DE3FB 
 415      81A84F
 416 109c B01BD18E 		.ascii	"\260\033\321\216\232!>\340\365)g|\216\235\266U\015>"
 416      9A213EE0 
 416      F529677C 
 416      8E9DB655 
 416      0D3E
 417 10ae 0ED5E22C 		.ascii	"\016\325\342,\206d\036j\377\032_a\032T_\271\367\314"
 417      86641E6A 
 417      FF1A5F61 
 417      1A545FB9 
 417      F7CC
 418 10c0 517450E0 		.ascii	"QtP\340\316\016\012\236a-\032\3006\3078\222\307AO\261"
 418      CE0E0A9E 
 418      612D1AC0 
 418      36C73892 
 418      C7414FB1 
 419 10d4 E4658984 		.ascii	"\344e\211\204\363\257[1\256a\002\257M\227\336p\306M"
 419      F3AF5B31 
 419      AE6102AF 
 419      4D97DE70 
 419      C64D
ARM GAS  /tmp/cc0qBXqg.s 			page 33


 420 10e6 0CC98BB9 		.ascii	"\014\311\213\271\265\244\302\235\014\031_H.\346\333"
 420      B5A4C29D 
 420      0C195F48 
 420      2EE6DB
 421 10f5 31E40ED5 		.ascii	"1\344\016\325\353\236\310H5\337\215!\247\304\251\307"
 421      EB9EC848 
 421      35DF8D21 
 421      A7C4A9C7 
 422 1105 12CEEAF0 		.ascii	"\022\316\352\360\023F\333\222\327\036\340\214\207)\242"
 422      1346DB92 
 422      D71EE08C 
 422      8729A2
 423 1114 0D8C2E2F 		.ascii	"\015\214./\324\":\213\220m\0237\261K\276\300\253\321"
 423      D4223A8B 
 423      906D1337 
 423      B14BBEC0 
 423      ABD1
 424 1126 3038037A 		.ascii	"08\003z\016=\030\343.9\003z\276\004\327\233\004\030"
 424      0E3D18E3 
 424      2E39037A 
 424      BE04D79B 
 424      0418
 425 1138 07980398 		.ascii	"\007\230\003\230\265J\307\243=\312%^\377\222\332~\220"
 425      B54AC7A3 
 425      3DCA255E 
 425      FF92DA7E 
 425      90
 426 1149 3796CA0A 		.ascii	"7\226\312\012\222\322\246A\302\273K\0339\257\026J\224"
 426      92D2A641 
 426      C2BB4B1B 
 426      39AF164A 
 426      94
 427 115a 215B591E 		.ascii	"![Y\036\222\271\177\302j:\234b\323!\337\206e\033\005"
 427      92B97FC2 
 427      6A3A9C62 
 427      D321DF86 
 427      651B05
 428 116d 537CA1B6 		.ascii	"S|\241\266\234\231\270\030\237\2469\210p\033\025\306"
 428      9C99B818 
 428      9FA63988 
 428      701B15C6 
 429 117d 788C069C 		.ascii	"x\214\006\234UQ0\266\254\\'\263V<O\235\304GFl\025_\226"
 429      555130B6 
 429      AC5C27B3 
 429      563C4F9D 
 429      C447466C 
 430 1194 98EB57B1 		.ascii	"\230\353W\261n\022\352:[\315\304\2119\016\343\205\006"
 430      6E12EA3A 
 430      5BCDC489 
 430      390EE385 
 430      06
 431 11a5 53B10AB9 		.ascii	"S\261\012\271\271\257\340\222\022\370\374b\356\325\302"
 431      B9AFE092 
 431      12F8FC62 
 431      EED5C2
 432 11b4 9B7AD599 		.ascii	"\233z\325\231\300&\254\005k\245%\327\246O0cF\206\352"
 432      C026AC05 
ARM GAS  /tmp/cc0qBXqg.s 			page 34


 432      6BA525D7 
 432      A64F3063 
 432      4686EA
 433 11c7 150CD53C 		.ascii	"\025\014\325<\266\\\235\270?\177#\320\005\2478\322\350"
 433      B65C9DB8 
 433      3F7F23D0 
 433      05A738D2 
 433      E8
 434 11d8 88B9D07E 		.ascii	"\210\271\320~Um\271\2721\235@\003n\011\032\276\026\354"
 434      556DB9BA 
 434      319D4003 
 434      6E091ABE 
 434      16EC
 435 11ea B68057D8 		.ascii	"\266\200W\330\023\263\010\254\355\210\211Z:s\333\001"
 435      13B308AC 
 435      ED88895A 
 435      3A73DB01 
 436 11fa E73AB290 		.ascii	"\347:\262\220(\255<\203q\001C\246o\306e:\341+L\201\246"
 436      28AD3C83 
 436      710143A6 
 436      6FC6653A 
 436      E12B4C81 
 437 120f C5AB130E 		.ascii	"\305\253\023\016\226\360\\\232U\316U\205\221\034\024"
 437      96F05C9A 
 437      55CE5585 
 437      911C14
 438 121e ACD0A240 		.ascii	"\254\320\242@\305\273\304g\220B2>SB\252\362\035\350"
 438      C5BBC467 
 438      9042323E 
 438      5342AAF2 
 438      1DE8
 439 1230 7D36C28A 		.ascii	"}6\302\212]h\273;\035q\321\211>#\007\357\007\024\364"
 439      5D68BB3B 
 439      1D71D189 
 439      3E2307EF 
 439      0714F4
 440 1243 6147C3D2 		.ascii	"aG\303\322\"{H\246\326\203\354a`O\307\3776_\206\013"
 440      227B48A6 
 440      D683EC61 
 440      604FC7FF 
 440      365F860B 
 441 1257 618FB24A 		.ascii	"a\217\262Jg[\024\342\373n\204\207P`\034R\220\002#T\301"
 441      675B14E2 
 441      FB6E8487 
 441      50601C52 
 441      90022354 
 442 126c 2FBC95D4 		.ascii	"/\274\225\324?{\350$\336\\\206\317\305\333V\012\313"
 442      3F7BE824 
 442      DE5C86CF 
 442      C5DB560A 
 442      CB
 443 127d E94D5640 		.ascii	"\351MV@\231\006?c\246y\273\322\021L\231\222\361\311"
 443      99063F63 
 443      A679BBD2 
 443      114C9992 
 443      F1C9
 444 128f 09247594 		.ascii	"\011$u\224d\347\352\306\345\272\362!\253\253\200G\024"
ARM GAS  /tmp/cc0qBXqg.s 			page 35


 444      64E7EAC6 
 444      E5BAF221 
 444      ABAB8047 
 444      14
 445 12a0 E2C3A4A3 		.ascii	"\342\303\244\243\026u\372#\012\3168Si\360\014\035f\322"
 445      1675FA23 
 445      0ACE3853 
 445      69F00C1D 
 445      66D2
 446 12b2 72B2AABA 		.ascii	"r\262\252\272]\314\346\210d\317\372R\012\247\235\355"
 446      5DCCE688 
 446      64CFFA52 
 446      0AA79DED 
 447 12c2 9B239A9A 		.ascii	"\233#\232\232#\312l\216\321\220\242O\304\342\243\255"
 447      23CA6C8E 
 447      D190A24F 
 447      C4E2A3AD 
 448 12d2 AC71CC22 		.ascii	"\254q\314\">\321\364\250\321\005\217\332\267\306\324"
 448      3ED1F4A8 
 448      D1058FDA 
 448      B7C6D4
 449 12e1 B9135F9B 		.ascii	"\271\023_\2335\211e\232\024\004\315\2678\2105)\263\322"
 449      3589659A 
 449      1404CDB7 
 449      38883529 
 449      B3D2
 450 12f3 248E6A72 		.ascii	"$\216jr\334\254IA~^\263\225%\342\254T\211\267\250\222"
 450      DCAC4941 
 450      7E5EB395 
 450      25E2AC54 
 450      89B7A892 
 451 1307 141F0125 		.ascii	"\024\037\001%\376\224}U^\215\347\245)\3503r\261$\221"
 451      FE947D55 
 451      5E8DE7A5 
 451      29E83372 
 451      B12491
 452 131a 29F3F0D6 		.ascii	")\363\360\326\211\207\032\263\202'\330\263\301\241\322"
 452      89871AB3 
 452      8227D8B3 
 452      C1A1D2
 453 1329 346C5FC1 		.ascii	"4l_\301d\252`\222Y\301\342\252\254g\216b\005\223\255"
 453      64AA6092 
 453      59C1E2AA 
 453      AC678E62 
 453      0593AD
 454 133c 143C6951 		.ascii	"\024<iQ0\367\341\351P'<\307\024\224\270\276\231\023"
 454      30F7E1E9 
 454      50273CC7 
 454      1494B8BE 
 454      9913
 455 134e F9E25BF6 		.ascii	"\371\342[\366\245\246R\251)f\251q'\213\362\255\244\246"
 455      A5A652A9 
 455      2966A971 
 455      278BF2AD 
 455      A4A6
 456 1360 5A493D6D 		.ascii	"ZI=m\221\2724:\331\255\303\257\231\324\361\332\307\261"
 456      91BA343A 
ARM GAS  /tmp/cc0qBXqg.s 			page 36


 456      D9ADC3AF 
 456      99D4F1DA 
 456      C7B1
 457 1372 C8620226 		.ascii	"\310b\002&v\362DR\241\322\254\311\031f\201\213C\221"
 457      76F24452 
 457      A1D2ACC9 
 457      1966818B 
 457      4391
 458 1384 6775F675 		.ascii	"gu\366u9Gu9k\326e\354UP\265\225.\347\254t9o\321e\344"
 458      39477539 
 458      6BD665EC 
 458      5550B595 
 458      2EE7AC74 
 459 139d E0D587CE 		.ascii	"\340\325\207\3168@Gu9Y9\032\240\263\304\011\323\245"
 459      38404775 
 459      3959391A 
 459      A0B3C409 
 459      D3A5
 460 13af 79AA615A 		.ascii	"y\252aZ\210\355\014\246\314\311G\347\312-\012^`\317"
 460      88ED0CA6 
 460      CCC947E7 
 460      CA2D0A5E 
 460      60CF
 461 13c1 1AA70F5C 		.ascii	"\032\247\017\\\227\333\367\346,\252`\246Y\301\305\232"
 461      97DBF7E6 
 461      2CAA60A6 
 461      59C1C59A 
 462 13d1 B0A76AB1 		.ascii	"\260\247j\261\202YV\012f[\024\354xze\332\021\037\264"
 462      8259560A 
 462      665B14EC 
 462      787A65DA 
 462      111FB4
 463 13e4 AF60F4C3 		.ascii	"\257`\364\303\341f!\334r\2312\307\333\002S\034\314\012"
 463      E16621DC 
 463      729932C7 
 463      DB02531C 
 463      CC0A
 464 13f6 5E64CF9E 		.ascii	"^d\317\236\3665\234v\261\257`>U0\317\254\340\241\274"
 464      F6359C76 
 464      B1AF603E 
 464      5530CFAC 
 464      E0A1BC
 465 1409 C159ABF3 		.ascii	"\301Y\253\363\351|+\005\013,\012\346\264={)\307\021"
 465      E97C2B05 
 465      0B2C0AE6 
 465      B43D7B29 
 465      C711
 466 141b 4CC1B48C 		.ascii	"L\301\264\214\2111G\234\304\220\243\255\247\356k\370"
 466      8931479C 
 466      C490A3AD 
 466      A7EE6BF8 
 467 142b DD6C5296 		.ascii	"\335lR\226Vd\346^p\301Y:{\336\326w\376\311^\372d\203"
 467      5664E65E 
 467      70C1593A 
 467      7BDED677 
 467      FEC95EFA 
 468 1441 165D663A 		.ascii	"\026]f:\367\207\247\017Z\372q\205=;1=\225'\267\357\011"
ARM GAS  /tmp/cc0qBXqg.s 			page 37


 468      F787A70F 
 468      5AFA7185 
 468      3D3B313D 
 468      9527B7EF 
 469 1456 25B41F57 		.ascii	"%\264\037W\315\375\270PX\367\320\352\362{\211U?J\315"
 469      CDFDB850 
 469      58F7D0EA 
 469      F27B8955 
 469      3F4ACD
 470 1469 FDD09545 		.ascii	"\375\320\225EOE9\"v\326\313\316\233\370\216U\231r\360"
 470      4F453922 
 470      76D6CBCE 
 470      9BF88E55 
 470      9972F0
 471 147c 112B7980 		.ascii	"\021+y\200\030\025\303\214r]ag\017\225\265\250C0\037"
 471      1815C38C 
 471      725D6167 
 471      0F95B5A8 
 471      43301F
 472 148f 434242E1 		.ascii	"CBB\341\266\264\342\365\252\210\026B\003\235\262\245"
 472      B6B4E2F5 
 472      AA881642 
 472      039DB2A5 
 473 149f 5D562550 		.ascii	"]V%PR\210]\224 M\272|S\276H\301n\346\243K\274\005\231"
 473      52885D94 
 473      204DBA7C 
 473      53BE48C1 
 473      6EE6A34B 
 474 14b6 64AB61B2 		.ascii	"d\253a\262\253R\270\241Z\200J\200:\200r\200\012\200"
 474      AB52B8A1 
 474      5A804A80 
 474      3A807280 
 474      0A80
 475 14c8 1A803280 		.ascii	"\032\2002\200\033\000\327\024\342R\214\012\007\257D"
 475      1B00D714 
 475      E2528C0A 
 475      07AF44
 476 14d7 E9B6C24B 		.ascii	"\351\266\302K%\365$\276UhKj[\216\324\234d\253@ Z^C5"
 476      25F524BE 
 476      55684B6A 
 476      5B8ED49C 
 476      64AB4020 
 477 14ef 9F54F1E2 		.ascii	"\237T\361\342\017\244\006H[\335V*\244^\024#mt[Rp`\224"
 477      0FA40648 
 477      5BDD562A 
 477      A45E1423 
 477      6D745B52 
 478 1506 23A9E0B2 		.ascii	"#\251\340\262\341\201l\201\322\244\273m9\011\216\033"
 478      E1816C81 
 478      D2A4BB6D 
 478      39098E1B 
 479 1516 4EE957AE 		.ascii	"N\351W\256\340\306\017\265g|\331\237ey\222\2403:R\255"
 479      E0C60FB5 
 479      677CD99F 
 479      657992A0 
 479      333A52AD 
 480 152a A69A9B0A 		.ascii	"\246\232\233\012qy[o\211\302\206\244\347s\032|\221\305"
ARM GAS  /tmp/cc0qBXqg.s 			page 38


 480      71795B6F 
 480      89C286A4 
 480      E7731A7C 
 480      91C5
 481 153c 5654C064 		.ascii	"VT\300d:_1,\320\371`\350q\257\234\337:\"7\274B\332\312"
 481      3A5F312C 
 481      D0F960E8 
 481      71AF9CDF 
 481      3A2237BC 
 482 1553 57E26B94 		.ascii	"W\342k\224\3261%\340B\217\223\371\226\203\373\012\352"
 482      D63125E0 
 482      428F93F9 
 482      9683FB0A 
 482      EA
 483 1564 F5E490E9 		.ascii	"\365\344\220\351;\314\370\244\220{\014\205\334\235\267"
 483      3BCCF8A4 
 483      907B0C85 
 483      DC9DB7
 484 1573 9B690CE9 		.ascii	"\233i\014\351P\013\262!m^\346\361#\247\\ch\305\012\312"
 484      500BB221 
 484      6D5EE6F1 
 484      23A75C63 
 484      68C50ACA 
 485 1587 2393428A 		.ascii	"#\223B\212\265hWa\372\224\212m+\220\245\357m\256\210"
 485      B5685761 
 485      FA948A6D 
 485      2B90A5EF 
 485      6DAE88
 486 159a 653DBD7C 		.ascii	"e=\275|\333\3612\212\377\204\316$\315\2343/j\232l\235"
 486      DBF1328A 
 486      FF84CE24 
 486      CD9C332F 
 486      6A9A6C9D 
 487 15ae 80129275 		.ascii	"\200\022\222u!\331\204\025\021.\333\327\320\000\335"
 487      21D98415 
 487      112EDBD7 
 487      D000DD
 488 15bd 22724526 		.ascii	"\"rE&Ng9\235\\\022\011\347\273\032\374\300\346\216B"
 488      4E67399D 
 488      5C1209E7 
 488      BB1AFCC0 
 488      E68E42
 489 15d0 A2BC6621 		.ascii	"\242\274f!\331\004^\321\250\200\326\015\\?\022\222\235"
 489      D9045ED1 
 489      A880D60D 
 489      5C3F1292 
 489      9D
 490 15e1 1092B760 		.ascii	"\020\222\267`\340[\000n\003\264\001\334\005\350\000"
 490      E05B006E 
 490      03B401DC 
 490      05E800
 491 15f0 B807D00A 		.ascii	"\270\007\320\012\320\256\020\237CX\314B6(\202\3456f"
 491      D0AE109F 
 491      4358CC42 
 491      362882E5 
 491      3666
 492 1602 0990DBE9 		.ascii	"\011\220\333\351\303$\262\351\303\270\225\027\313\217"
ARM GAS  /tmp/cc0qBXqg.s 			page 39


 492      C324B2E9 
 492      C3B89517 
 492      CB8F
 493 1610 9F3F7BD6 		.ascii	"\237?{\326v\363\302\242\361}\320\362/\321\230/\227\222"
 493      76F3C2A2 
 493      F17DD0F2 
 493      2FD1982F 
 493      9792
 494 1622 BE4DEF74 		.ascii	"\276M\357tw\001\207\006\241*'\246\242\016\234\334>9"
 494      77018706 
 494      A12A27A6 
 494      A20E9CDC 
 494      3E39
 495 1634 6E35DF74 		.ascii	"n5\337tYy\372\003\346\351\3445N\270\373\273\222\335"
 495      5979FA03 
 495      E6E9E435 
 495      4EB8FBBB 
 495      92DD
 496 1646 FD3D507C 		.ascii	"\375=P|t\011\343j\346\374g\347_\215\221k\265\037\220"
 496      7409E36A 
 496      E6FC67E7 
 496      5F8D916B 
 496      B51F90
 497 1659 1B8D384E 		.ascii	"\033\2158N\270T\373\001[\"\2277\334<\247\303u\224X\036"
 497      B854FB01 
 497      5B229737 
 497      DC3CA7C3 
 497      7594581E 
 498 166d 999A19EE 		.ascii	"\231\232\031\356`\276\305\011\263\211\322]f\231J\320"
 498      60BEC509 
 498      B389D25D 
 498      66994AD0 
 499 167d 23E8E407 		.ascii	"#\350\344\007\274\020\356\005+\364(,\027O'\277u\205"
 499      BC10EE05 
 499      2BF4282C 
 499      174F27BF 
 499      7585
 500 168f 5C7AEC87 		.ascii	"\\z\354\207J\256O\350\314\007\374\232aY\324\375\001"
 500      4AAE4FE8 
 500      CC07FC9A 
 500      6159D4FD 
 500      01
 501 16a0 2D6E6722 		.ascii	"-ng\"\026\202\216\217*\304_\027\252\246W\024\007\240"
 501      16828E8F 
 501      2AC45F17 
 501      AAA65714 
 501      07A0
 502 16b2 E963A129 		.ascii	"\351c\241)p2\257Nl\325x\"\241\006\3310\210\355z\245"
 502      7032AF4E 
 502      6CD57822 
 502      A106D930 
 502      88ED7AA5 
 503 16c6 C00F58A7 		.ascii	"\300\017X\247\333''\0260\356e\310\314\371K\007\345x"
 503      DB272716 
 503      30EE65C8 
 503      CCF94B07 
 503      E578
ARM GAS  /tmp/cc0qBXqg.s 			page 40


 504 16d8 8022AA89 		.ascii	"\200\"\252\211\261\316j\0076\255\361k\023w\222\325\271"
 504      B1CE6A07 
 504      36ADF16B 
 504      137792D5 
 504      B9
 505 16e9 1947234C 		.ascii	"\031G#L)\327\021\325\242\033\264\030\001c[\004\322\030"
 505      29D711D5 
 505      A21BB418 
 505      01635B04 
 505      D218
 506 16fb 7CA8106D 		.ascii	"|\250\020m\034~\316\222\001\371\236\3103Nm\367\344\251"
 506      1C7ECE92 
 506      01F99EC8 
 506      334E6DF7 
 506      E4A9
 507 170d EB7FC59B 		.ascii	"\353\177\305\233*\0021e\375T\222\265\325!\304?\012\324"
 507      2A023165 
 507      FD5492B5 
 507      D521C43F 
 507      0AD4
 508 171f 83B6D476 		.ascii	"\203\266\324vv\023\314\347u2JMo\014\201\211\236\203"
 508      7613CCE7 
 508      75324A4D 
 508      6F0C8189 
 508      9E83
 509 1731 CB0D030C 		.ascii	"\313\015\003\014\001\274\260r\275\316\233\2564,G\024"
 509      01BCB072 
 509      BDCE9BAE 
 509      342C4714 
 510 1741 B677601A 		.ascii	"\266w`\032\007\213G\235\360\031':P\321\231E]:\033\347"
 510      078B479D 
 510      F019273A 
 510      50D19945 
 510      5D3A1BE7 
 511 1755 B71C0D4E 		.ascii	"\267\034\015N\200\204w\2236\320@W\300\343@<&\214\357"
 511      80847793 
 511      36D04057 
 511      C0E3403C 
 511      268CEF
 512 1768 88D9CFAB 		.ascii	"\210\331\317\253_\325^\326ZM\024R2d\222\002\240y\366"
 512      5FD55ED6 
 512      5A4D1452 
 512      32649202 
 512      A079F6
 513 177b DCE98756 		.ascii	"\334\351\207V\337\202\232\264\012\223)\036&S4L\212\016"
 513      DF829AB4 
 513      0A93291E 
 513      2653344C 
 513      8A0E
 514 178d 575F9377 		.ascii	"W_\223w\243\007\210\024P\357Q\026\010\261\277\210\002"
 514      A3078814 
 514      50EF5116 
 514      08B1BF88 
 514      02
 515 179e 4597CCFF 		.ascii	"E\227\314\377\020\242\317\341\251\234\376e\204\364\021"
 515      10A2CFE1 
 515      A99CFE65 
ARM GAS  /tmp/cc0qBXqg.s 			page 41


 515      84F411
 516 17ad 32B7E0B8 		.ascii	"2\267\340\270\234\243r\316\222\376\347\215\221\210#"
 516      9CA372CE 
 516      92FEE78D 
 516      918823
 517 17bc FB984932 		.ascii	"\373\230I2\377\2231r\246\211\214rg\255\221\\\020\200"
 517      FF933172 
 517      A6898C72 
 517      67AD915C 
 517      1080
 518 17ce 90B8     		.ascii	"\220\270"
 519 17d0 81882153 		.ascii	"\201\210!S\233\177n\321O&t\016\231M5\236\3208\240\355"
 519      9B7F6ED1 
 519      4F26740E 
 519      994D359E 
 519      D038A0ED 
 520 17e4 410FC9D3 		.ascii	"A\017\311\323\224\237\"\372\354\371\271+KN8\217\016"
 520      949F22FA 
 520      ECF9B92B 
 520      4B4E388F 
 520      0E
 521 17f5 38AABC90 		.ascii	"8\252\274\220\331\252~?\305T\321g\252h\311U_\273\010"
 521      D9AA7E3F 
 521      C554D167 
 521      AA68C955 
 521      5FBB08
 522 1808 559E5641 		.ascii	"U\236VA\277W6#\214\034\274\205\277\323\212\036\204^"
 522      BF573623 
 522      8C1CBC85 
 522      BFD38A1E 
 522      845E
 523 181a 2ABA41D8 		.ascii	"*\272A\330\254\342}\262y\327\330p\014\343\353\214\323"
 523      ACE27DB2 
 523      79D7D870 
 523      0CE3EB8C 
 523      D3
 524 182b 6C40C775 		.ascii	"l@\307u\255\270$\335(\256H\347iE\272\225\027\244\275"
 524      ADB824DD 
 524      28AE48E7 
 524      6945BA95 
 524      17A4BD
 525 183e E3376335 		.ascii	"\3437c5 5\005\244v\377\023\004\026D<\344\003 Bs\202"
 525      203505A4 
 525      76FF1304 
 525      16443CE4 
 525      03204273 
 526 1853 D4395BA9 		.ascii	"\3249[\251\257\250\324\304\310Cu\316\270\306\311\356"
 526      AFA8D4C4 
 526      C84375CE 
 526      B8C6C9EE 
 527 1863 8A3279F0 		.ascii	"\2122y\360f\240\223\335\257\324-RM^\233k\343\326\211"
 527      66A093DD 
 527      AFD42D52 
 527      4D5E9B6B 
 527      E3D689
 528 1876 A7B71D40 		.ascii	"\247\267\035@\225^p\333\226\253\352\327!5\021\246TD"
 528      955E70DB 
ARM GAS  /tmp/cc0qBXqg.s 			page 42


 528      96ABEAD7 
 528      213511A6 
 528      5444
 529 1888 C9D082A0 		.ascii	"\311\320\202\240\313\202\202}q\025-Q\035R_$\267:\341"
 529      CB82827D 
 529      71152D51 
 529      1D525F24 
 529      B73AE1
 530 189b 974C8791 		.ascii	"\227L\207\221\244\326\203\254\214\247\267I\311\232\366"
 530      A4D683AC 
 530      8CA7B749 
 530      C99AF6
 531 18aa E883068C 		.ascii	"\350\203\006\214\027\351\307\352\360\201\322T9\342\025"
 531      17E9C7EA 
 531      F081D254 
 531      39E215
 532 18b9 35AFA7EB 		.ascii	"5\257\247\353\325\011\274\2366\327\275\301J\351\272"
 532      D509BC9E 
 532      36D7BDC1 
 532      4AE9BA
 533 18c8 57720B31 		.ascii	"Wr\0131P\311\032\220H\014Q\272\243\203J7\024\012p\000"
 533      50C91A90 
 533      480C51BA 
 533      A3834A37 
 533      140A7000 
 534 18dc E0104090 		.ascii	"\340\020@\220\322n\335j%\347\315u\253\025\351\262\272"
 534      D26EDD6A 
 534      25E7CD75 
 534      AB15E9B2 
 534      BA
 535 18ed 959F5E00 		.ascii	"\225\237^\000\221D\335\232\300\353Vs\205\271\234\225"
 535      9144DD9A 
 535      C0EB5673 
 535      85B99C95 
 536 18fd DD0A5342 		.ascii	"\335\012SBAK\205\031\030\373\354\205\306*qH\231Df\327"
 536      414B8519 
 536      18FBEC85 
 536      C62A7148 
 536      994466D7 
 537 1911 1EC062F8 		.ascii	"\036\300b\370\376\2550$N\036aJq\362\010W\362j\022\017"
 537      FEAD3024 
 537      4E1E614A 
 537      71F20857 
 537      F26A120F 
 538 1925 1D4EA9C2 		.ascii	"\035N\251\302\302&\343H\242k,-\331\200\202\226lG\336"
 538      C226E348 
 538      A26B2C2D 
 538      D9808296 
 538      6C47DE
 539 1938 649DEE44 		.ascii	"d\235\356D\226n\217(\337\272\311(\243\234\310H\036\206"
 539      966E8F28 
 539      DFBAC928 
 539      A39CC848 
 539      1E86
 540 194a 918C1034 		.ascii	"\221\214\0204M\310\275R\340\204\2579\263#\225\316\321"
 540      4DC8BD52 
 540      E084AF39 
ARM GAS  /tmp/cc0qBXqg.s 			page 43


 540      B32395CE 
 540      D1
 541 195b 93D8B2C3 		.ascii	"\223\330\262\303\270\230H\363k\0244<\252\264\370(\021"
 541      B89848F3 
 541      6B14343C 
 541      AAB4F828 
 541      11
 542 196c 66678731 		.ascii	"fg\2071\022X\333\021sz\241\352_\304\366\210\262\262"
 542      1258DB11 
 542      737AA1EA 
 542      5FC4F688 
 542      B2B2
 543 197e 47B4D91E 		.ascii	"G\264\331\036(!\356\3069\266\356\206g(@IC\255\351e\342"
 543      2821EEC6 
 543      39B6EE86 
 543      67284049 
 543      43ADE965 
 544 1993 2D6C37E8 		.ascii	"-l7\350c\224$\324\216)y\250=\277s\266F\316C\355N\227"
 544      639424D4 
 544      8E2979A8 
 544      3DBF73B6 
 544      46CE43ED 
 545 19a9 FA5ECEC1 		.ascii	"\372^\316\301\212\215\224\010\231\204N\300[\026h\261"
 545      8A8D9408 
 545      99844EC0 
 545      5B1668B1 
 546 19b9 4A12681D 		.ascii	"J\022h\035\031\235\227\325x\336\331\336z9\267\362\314"
 546      199D97D5 
 546      78DED9DE 
 546      7A39B7F2 
 546      CC
 547 19ca B00647B8 		.ascii	"\260\006G\270P#U\265\326\2678Z_\272\026\177A\026%B\317"
 547      502355B5 
 547      D6B7385A 
 547      5FBA167F 
 547      41162542 
 548 19df 85EFC832 		.ascii	"\205\357\3102SB\314\017\267\222\263\362\004\350U\274"
 548      5342CC0F 
 548      B792B3F2 
 548      04E855BC 
 549 19ef A04723E2 		.ascii	"\240G#\342\367\256s'\223'\331\376\024\241\210c\375\256"
 549      F7AE7327 
 549      9327D9FE 
 549      14A18863 
 549      FDAE
 550 1a01 28AF8D60 		.ascii	"(\257\215`\306 g\373'\330\303\346G\007\357\251-;\023"
 550      C62067FB 
 550      27D8C3E6 
 550      4707EFA9 
 550      2D3B13
 551 1a14 49ECE1A3 		.ascii	"I\354\341\243GEY\026\235\223\331\263{\305\217\312Ub"
 551      47455916 
 551      9D93D9B3 
 551      7BC58FCA 
 551      5562
 552 1a26 AB91BD7D 		.ascii	"\253\221\275}\301l\247\250\331N\232\315\026\021{\374"
 552      C16CA7A8 
ARM GAS  /tmp/cc0qBXqg.s 			page 44


 552      D94E9ACD 
 552      16117BFC 
 553 1a36 861337DB 		.ascii	"\206\0237\333b\351\267\243\202R\334\011\011:.({\334"
 553      62E9B7A3 
 553      8252DC09 
 553      093A2E28 
 553      7BDC
 554 1a48 6CB4146A 		.ascii	"l\264\024j\264\305\356\350\343\2168\206\032\005\035"
 554      B4C5EEE8 
 554      E38E3886 
 554      1A051D
 555 1a57 097F7096 		.ascii	"\011\177p\226\251\012\023\"\267Z\335\363\353\261lC\007"
 555      A90A1322 
 555      B75ADDF3 
 555      EBB16C43 
 555      07
 556 1a68 6A49749A 		.ascii	"jIt\232i\025\360\374\356S\255\335\264y\206*\225fV\352"
 556      6915F0FC 
 556      EE53ADDD 
 556      B479862A 
 556      956656EA 
 557 1a7c EC6449B6 		.ascii	"\354dI\266\232+5S\246\274w\210\247M C\251\202b\251f"
 557      9A2B3553 
 557      A6BC7788 
 557      A74D2043 
 557      A98262A9 
 558 1a91 C5CE52C5 		.ascii	"\305\316R\305\256M\335\270\241\303I.\322\023\206\225"
 558      AE4DDDB8 
 558      A1C3492E 
 558      D2138695 
 559 1aa1 BCF34AF1 		.ascii	"\274\363J\361\204\0214\320s\337\354:\223\303\352k\031"
 559      841134D0 
 559      73DFEC3A 
 559      93C3EA6B 
 559      19
 560 1ab2 D4758006 		.ascii	"\324u\200\006\235\023\204\2353\013K\247\302\306\012"
 560      9D13849D 
 560      330B4BA7 
 560      C2C60A
 561 1ac1 4CFD5A5C 		.ascii	"L\375Z\\\303\204e\217U\266\233\365\235\234S/\236\267"
 561      C384658F 
 561      55B69BF5 
 561      9D9C532F 
 561      9EB7
 562 1ad3 30C81018 		.ascii	"0\310\020\030d\230\031\\\240\014Fr^\036u\302/\030\203"
 562      6498195C 
 562      A00C4672 
 562      5E1E75C2 
 562      2F1883
 563 1ae6 93ED379A 		.ascii	"\223\3557\232\324\337K3UT\230*\032r\325\2450c\255\241"
 563      D4DF4B33 
 563      5554982A 
 563      1A72D5A5 
 563      3063ADA1 
 564 1afa DF04CF64 		.ascii	"\337\004\317d\355E\337\037\317$lP\226\362{\304\250\325"
 564      ED45DF1F 
 564      CF246C50 
ARM GAS  /tmp/cc0qBXqg.s 			page 45


 564      96F27BC4 
 564      A8D5
 565 1b0c 7539CE78 		.ascii	"u9\316x\206\361h\214\276\371\304\021x\320\000HV'f6\230"
 565      86F1688C 
 565      BEF9C411 
 565      78D00048 
 565      56276636 
 566 1b21 4C303590 		.ascii	"L05\220*?\233s1\2574d\344\011\374\315\241\\\356L\315"
 566      2A3F9B73 
 566      31AF3464 
 566      E409FCCD 
 566      A15CEE4C 
 567 1b36 546AF12B 		.ascii	"Tj\361+\306%3\355\325\014/\374+\310J\366\370@\323\204"
 567      C62533ED 
 567      D50C2FFC 
 567      2BC84AF6 
 567      F840D384 
 568 1b4a 035E641F 		.ascii	"\003^d\037\216\366\005\235q\301\207\330\357\004\244"
 568      8EF6059D 
 568      71C187D8 
 568      EF04A4
 569 1b59 3484363B 		.ascii	"4\2046;\340\303\014\271\030\031\020\200q2CnN\035\032"
 569      E0C30CB9 
 569      18191080 
 569      7132436E 
 569      4E1D1A
 570 1b6c A1DF8A08 		.ascii	"\241\337\212\010z\363\267\"plq\026$\232\025n\356\222"
 570      7AF3B722 
 570      706C7116 
 570      249A156E 
 570      EE92
 571 1b7e 69A500B4 		.ascii	"i\245\000\264.\342i\3452\004W\261e\336!\207\3473\013"
 571      2EE269E5 
 571      320457B1 
 571      65DE2187 
 571      E7330B
 572 1b91 7836BC9D 		.ascii	"x6\274\235\335\230\270\004\261S\310\251\355\317)\335"
 572      DD98B804 
 572      B153C8A9 
 572      EDCF29DD 
 573 1ba1 6C4E2952 		.ascii	"lN)R\332\026\251}\207^\346*\360y\252\274\374\371P\177"
 573      DA16A97D 
 573      875EE62A 
 573      F079AABC 
 573      FCF9507F 
 574 1bb5 8BB32517 		.ascii	"\213\263%\027.E(\353\202\350\005\310\022\340}E\030\315"
 574      2E4528EB 
 574      82E805C8 
 574      12E07D45 
 574      18CD
 575 1bc7 22FBE9F0 		.ascii	"\"\373\351\360*\350*\2457H\232\213\037<\344\204\213"
 575      2AE82AA5 
 575      37489A8B 
 575      1F3CE484 
 575      8B
 576 1bd8 98999ED5 		.ascii	"\230\231\236\325M?\321\340k\014\351\313\252<\244\302"
 576      4D3FD1E0 
ARM GAS  /tmp/cc0qBXqg.s 			page 46


 576      6B0CE9CB 
 576      AA3CA4C2 
 577 1be8 550C492F 		.ascii	"U\014I/\216\311t\304uL\241\236\332\222\3767\345\235"
 577      8EC974C4 
 577      754CA19E 
 577      DA92FE37 
 577      E59D
 578 1bfa EB1279A7 		.ascii	"\353\022y\2479\221\035CU\200a\312%\322NE\341\325\002"
 578      39911D43 
 578      558061CA 
 578      25D24E45 
 578      E1D502
 579 1c0d 1DBEC5A4 		.ascii	"\035\276\305\244e\247L&c\334\317\220\212W\227\357\353"
 579      65A74C26 
 579      63DCCF90 
 579      8A5797EF 
 579      EB
 580 1c1e F00045B4 		.ascii	"\360\000E\264\311\015\211\301\010\255\240\027\304\311"
 580      C90D89C1 
 580      08ADA017 
 580      C4C9
 581 1c2c D68564B9 		.ascii	"\326\205d\271P\013\362\233xw\033\341}\035L\211\015\000"
 581      500BF29B 
 581      78771BE1 
 581      7D1D4C89 
 581      0D00
 582 1c3e CD003701 		.ascii	"\315\0007\001\352y\367\305\337\304\261\232\005j\330"
 582      EA79F7C5 
 582      DFC4B19A 
 582      056AD8
 583 1c4d 2CC08FB7 		.ascii	",\300\217\267\022]\203\351\215\017 \251\0264oR\256\260"
 583      125D83E9 
 583      8D0F20A9 
 583      16346F52 
 583      AEB0
 584 1c5f 4CE830F2 		.ascii	"L\3500\362\3637\371]\031hK\017\345\232\244G\236\317"
 584      F337F95D 
 584      19684B0F 
 584      E59AA447 
 584      9ECF
 585 1c71 AE2DFCB0 		.ascii	"\256-\374\260\220\230\243LiC\275|\213c\261\205\037\371"
 585      9098A34C 
 585      6943BD7C 
 585      8B63B185 
 585      1FF9
 586 1c83 4152ADB2 		.ascii	"AR\255\262%_\266k\330\265\201U#D\225\327\222\252\210"
 586      255FB66B 
 586      D8B58155 
 586      234495D7 
 586      92AA88
 587 1c96 77309A5B 		.ascii	"w0\232[\230\0276I\315\3356\226\255\344\262\337fY\246"
 587      98173649 
 587      CDDD3696 
 587      ADE4B2DF 
 587      6659A6
 588 1ca9 C780B997 		.ascii	"\307\200\271\227\244V\275&\335\3135\274\3249{}\272B"
 588      A456BD26 
ARM GAS  /tmp/cc0qBXqg.s 			page 47


 588      DDCB35BC 
 588      D4397B7D 
 588      BA42
 589 1cbb 8BA7D990 		.ascii	"\213\247\331\220/\344g/\250\360\341o\260-\345K\367\027"
 589      2FE4672F 
 589      A8F0E16F 
 589      B02DE54B 
 589      F717
 590 1ccd 5CF0718A 		.ascii	"\\\360q\212\310\023sS'\261\275\257`\266+\355}\005si"
 590      C8137353 
 590      27B1BDAF 
 590      60B62BED 
 590      7D057369 
 591 1ce1 56F9909D 		.ascii	"V\371\220\235\020\266)\265\350\226\322\346\204\020\326"
 591      10B629B5 
 591      E896D2E6 
 591      8410D6
 592 1cf0 CC1571C5 		.ascii	"\314\025q\305\351\210\004\276\233\365\241\271e\333\244"
 592      E98804BE 
 592      9BF5A1B9 
 592      65DBA4
 593 1cff 051ADDE6 		.ascii	"\005\032\335\346]\357\004A\035\320\335;\000\367\000"
 593      5DEF0441 
 593      1DD0DD3B 
 593      00F700
 594 1d0e EE5A751B 		.ascii	"\356Zu\033\274!\261\301\306\033n\277)\0174\337c#p[\252"
 594      BC21B1C1 
 594      C61B6EBF 
 594      290F34DF 
 594      6323705B 
 595 1d23 B61CB8C7 		.ascii	"\266\034\270\307\207\336<\232\313Y\211=e\272\213\333"
 595      87DE3C9A 
 595      CB59893D 
 595      65BA8BDB 
 596 1d33 9C74B455 		.ascii	"\234t\264UiC\276\334\263&\376\300|\305<D\022\344\346"
 596      6943BEDC 
 596      B326FEC0 
 596      7CC53C44 
 596      12E4E6
 597 1d46 213A569F 		.ascii	"!:V\237?\244\306)l n%\347\207\332^\302\261\330\352\001"
 597      3FA4C629 
 597      6C206E25 
 597      E787DA5E 
 597      C2B1D8EA 
 598 1d5b D8E76DB6 		.ascii	"\330\347m\266\262d\263\222\240\343d`\356\003}\22700"
 598      B264B392 
 598      A0E36460 
 598      EE037D97 
 598      3030
 599 1d6d B7957CF1 		.ascii	"\267\225|\361|\261\371H\022$(\346\013\331Q\001\307\344"
 599      7CB1F948 
 599      122428E6 
 599      0BD95101 
 599      C7E4
 600 1d7f B89421F7 		.ascii	"\270\224!\367B\246\352\225\270\236\"\232\353\005\001"
 600      42A6EA95 
 600      B89E229A 
ARM GAS  /tmp/cc0qBXqg.s 			page 48


 600      EB0501
 601 1d8e A1FC9721 		.ascii	"\241\374\227!,5,\014D]&\037\010\363\235\304\247o\\\017"
 601      2C352C0C 
 601      445D261F 
 601      08F39DC4 
 601      A76F5C0F 
 602 1da2 343F14DD 		.ascii	"4?\024\335\354\356Q\332\220[\357*\223]\206\0076\027"
 602      ECEE51DA 
 602      905BEF2A 
 602      935D8607 
 602      3617
 603 1db4 2425B85B 		.ascii	"$%\270[\355\203>\020\261\357\264\245_v\377r\361\276"
 603      ED833E10 
 603      B1EFB4A5 
 603      5F76FF72 
 603      F1BE
 604 1dc6 EB311321 		.ascii	"\3531\023!7\337X$\344\022\367\253\370\310\213\231wH"
 604      37DF5824 
 604      E412F7AB 
 604      F8C88B99 
 604      7748
 605 1dd8 3317C7FD 		.ascii	"3\027\307\3754\377J\324S\373qo\371\255\205nn\0122\240"
 605      34FF4AD4 
 605      53FB716F 
 605      F9AD856E 
 605      6E0A32A0 
 606 1dec 0330A08F 		.ascii	"\0030\240\217a {\001\372\001\036\001<\001\350\023&\225"
 606      61207B01 
 606      FA011E01 
 606      3C01E813 
 606      2695
 607 1dfe C7A3C707 		.ascii	"\307\243\307\007\025\270\215yJOG{\265\223\215\247X\030"
 607      15B88D79 
 607      4A4F477B 
 607      B5938DA7 
 607      5818
 608 1e10 0F01B377 		.ascii	"\017\001\263wel\361\230\244\252\243\304c\006\241\335"
 608      656CF198 
 608      A4AAA3C4 
 608      6306A1DD 
 609 1e20 33C1639E 		.ascii	"3\301c\236\232=\246u*\015&\256\036\346$\225)W\377\023"
 609      9A3DA675 
 609      2A0D26AE 
 609      1EE62495 
 609      2957FF13 
 610 1e34 1E64EFA7 		.ascii	"\036d\357\247\216u\3658\343a\206\014f\267\267c<\311"
 610      8E75F538 
 610      E361860C 
 610      66B7B763 
 610      3CC9
 611 1e46 74CC3CD0 		.ascii	"t\314<\320zE.\272\356\363\223\333\364\272\317\030\304"
 611      7A452EBA 
 611      EEF393DB 
 611      F4BACF18 
 611      C4
 612 1e57 D0886DB2 		.ascii	"\320\210m\262\220L=\243\022\251\007\312\211\254\370"
 612      904C3DA3 
ARM GAS  /tmp/cc0qBXqg.s 			page 49


 612      12A907CA 
 612      89ACF8
 613 1e66 F6CF91BB 		.ascii	"\366\317\221\273\033\237\272{\312\035f\363I\355=)\031"
 613      1B9FBA7B 
 613      CA1D66F3 
 613      49ED3D29 
 613      19
 614 1e77 E871FCE6 		.ascii	"\350q\374\346\013\221\372\002\244NJ\347\014\351E\325"
 614      0B91FA02 
 614      A44E4AE7 
 614      0CE945D5 
 615 1e87 2437E238 		.ascii	"$7\3428(2!\214\304x\332\263\016\025Nt\245\275|VP\033"
 615      2832218C 
 615      C478DAB3 
 615      0E154E74 
 615      A5BD7C56 
 616 1e9d 2E8C844D 		.ascii	".\214\204M\2150\015\015\245\230\360\313q?$\013\260\227"
 616      8D300D0D 
 616      A598F0CB 
 616      713F240B 
 616      B097
 617 1eaf F0F99460 		.ascii	"\360\371\224`\217Inqu\365\265\260*\361\222\337Dc\257"
 617      8F496E71 
 617      75F5B5B0 
 617      2AF192DF 
 617      4463AF
 618 1ec2 299BC71E 		.ascii	")\233\307\036i6\014\315f\225vN\011\304\256qQ\271\232"
 618      69360CCD 
 618      6695764E 
 618      09C4AE71 
 618      51B99A
 619 1ed5 EEDCA3E7 		.ascii	"\356\334\243\347\274\005\275%\002\012-\200+\314\003"
 619      BC05BD25 
 619      020A2D80 
 619      2BCC03
 620 1ee4 BC069803 		.ascii	"\274\006\230\003\230Q\212w\307+w\261\315qr\0058\217"
 620      98518A77 
 620      C72B77B1 
 620      CD717205 
 620      388F
 621 1ef6 B7B47C9F 		.ascii	"\267\264|\237g\331\346x\345\037\0315I:\245\234\332\222"
 621      67D9E678 
 621      E51F1935 
 621      493AA59C 
 621      DA92
 622 1f08 BD5A9785 		.ascii	"\275Z\227\205J\315\020\013\225\331e\343F6\377\206x\224"
 622      4ACD100B 
 622      95D965E3 
 622      4636FF86 
 622      7894
 623 1f1a 127F7CC8 		.ascii	"\022\177|\310\231Y\034\334\366p\243\377\217l\220I\361"
 623      99591CDC 
 623      F670A3FF 
 623      8F6C9049 
 623      F1
 624 1f2b 966F6B13 		.ascii	"\226ok\023\3617y\310\362\341@\360\264\023\316d\203W"
 624      F13779C8 
ARM GAS  /tmp/cc0qBXqg.s 			page 50


 624      F2E140F0 
 624      B413CE64 
 624      8357
 625 1f3d 5D1E1EA7 		.ascii	"]\036\036\247\265\011#\213\255L*\367w\262\225%\204\232"
 625      B509238B 
 625      AD4C2AF7 
 625      77B29525 
 625      849A
 626 1f4f AA8E9010 		.ascii	"\252\216\220\020Z\2026\213\302\200\316Z\222nm]\217\023"
 626      5A82368B 
 626      C280CE5A 
 626      926E6D5D 
 626      8F13
 627 1f61 AFDC6124 		.ascii	"\257\334a$\217\036e\225;!\317\345\225\273Y\266\214<"
 627      8F1E6595 
 627      3B21CFE5 
 627      95BB59B6 
 627      8C3C
 628 1f73 81BF012A 		.ascii	"\201\277\001*R\271\347\025^\017v\300\305\256\354[\305"
 628      52B9E715 
 628      5E0F76C0 
 628      C5AEEC5B 
 628      C5
 629 1f84 B323653A 		.ascii	"\263#e:\340\222RI7\333\262\3117\036]\351r:P\305\230"
 629      E0925249 
 629      37DBB2C9 
 629      371E5DE9 
 629      723A50C5 
 630 1f99 08FE4B9E 		.ascii	"\010\376K\236l\221\313"
 630      6C91CB
 631 1fa0 501065F3 		.ascii	"P\020e\363\250\261\241\222\\x#[\304\264 \210\351\033"
 631      A8B1A192 
 631      5C78235B 
 631      C4B42088 
 631      E91B
 632 1fb2 50E112C6 		.ascii	"P\341\022\3066\246\244\354\246\226\263\235>\215\343"
 632      36A6A4EC 
 632      A696B39D 
 632      3E8DE3
 633 1fc1 4D156C6B 		.ascii	"M\025lk\375\000g*,\252\310\223`\025\330\347 \345:\025"
 633      FD00672A 
 633      2CAAC893 
 633      6015D8E7 
 633      20E53A15 
 634 1fd5 766086FF 		.ascii	"v`\206\377B\034YH\334I}2k\377'\341BU\374\227ZBTt\357"
 634      421C5948 
 634      DC497D32 
 634      6BFF27E1 
 634      4255FC97 
 635 1fee 7D30BDB5 		.ascii	"}0\275\265Fn\373\033l\346d,C\207T\256\346F"
 635      466EFB1B 
 635      6CE6642C 
 635      438754AE 
 635      E646
 636 2000 1421254D 		.ascii	"\024!%MBK\214\32514<\026_\346Q\261}[x%{\304m\025W\254"
 636      424B8CD5 
 636      31343C16 
ARM GAS  /tmp/cc0qBXqg.s 			page 51


 636      5FE651B1 
 636      7D5B7825 
 637 201a 367997AC 		.ascii	"6y\227\254\367i8q8%\276\270\024\323\353\204\313\271"
 637      F7693871 
 637      3825BEB8 
 637      14D3EB84 
 637      CBB9
 638 202c 95030BEB 		.ascii	"\225\003\013\353\234p5C\016\307TV*p=C\322\022\242B\224"
 638      9C703543 
 638      0EC75456 
 638      2A703D43 
 638      D212A242 
 639 2041 B8852119 		.ascii	"\270\205!\031\321\221\027\265\370\026C\342/\334\231"
 639      D19117B5 
 639      F81643E2 
 639      2FDC99
 640 2050 77C0ED0C 		.ascii	"w\300\355\014\011\234=]\252\301\367(\242\230\234\216"
 640      099C3D5D 
 640      AAC1F728 
 640      A2989C8E 
 641 2060 E8221708 		.ascii	"\350\"\027\010\335\004G\223\213\363\3141\025\363\262"
 641      DD044793 
 641      8BF3CC31 
 641      15F3B2
 642 206f E3E071B1 		.ascii	"\343\340q\261*7\024\243\262\272+x\337\341Z\332\021\341"
 642      2A3714A3 
 642      B2BA2B78 
 642      DFE15ADA 
 642      11E1
 643 2081 9C210A06 		.ascii	"\234!\012\006\200\264\260>\014\020\177\217\242\377o"
 643      80B4B03E 
 643      0C107F8F 
 643      A2FF6F
 644 2090 84C38068 		.ascii	"\204\303\200hIj\3616\323\011-IC@c\275^R\334\356\036"
 644      496AF136 
 644      D3092D49 
 644      434063BD 
 644      5E52DCEE 
 645 20a5 8946C86D 		.ascii	"\211F\310m\245;\317>\323'\234\003([\302.\022\330\306"
 645      A53BCF3E 
 645      D3279C03 
 645      285BC22E 
 645      12D8C6
 646 20b8 AB24BF15 		.ascii	"\253$\277\025\"\375\005(BL\372\230\000}L\204>\306\251"
 646      22FD0528 
 646      424CFA98 
 646      007D4C84 
 646      3EC6A9
 647 20cb AC4EB54E 		.ascii	"\254N\265N\254\242\311\000\250$\276Dr\202W\004\344\334"
 647      ACA2C900 
 647      A824BE44 
 647      72825704 
 647      E4DC
 648 20dd E4A87DC1 		.ascii	"\344\250}\301`\366\211\322\206F\371J\320 \300\256\006"
 648      60F689D2 
 648      8646F94A 
 648      D020C0AE 
ARM GAS  /tmp/cc0qBXqg.s 			page 52


 648      06
 649 20ee 322BF1D0 		.ascii	"2+\361\320&\270\252\343\222\016G\257\240\343\366\244"
 649      26B8AAE3 
 649      920E47AF 
 649      A0E3F6A4 
 650 20fe 21375083 		.ascii	"!7P\203\2173\344dSN\203\022'2\244$3\247M\216S\030\222"
 650      8F33E464 
 650      534E8312 
 650      2732A424 
 650      33A74D8E 
 651 2115 75652C1C 		.ascii	"ue,\034\341t\206\214\207\344\032q.{?\233\3728Z\216/"
 651      E174868C 
 651      87E41A71 
 651      2E7B3F9B 
 651      FA385A8E 
 652 212a 5144B798 		.ascii	"QD\267\230\325\340\206,\337\270]a\376m\255\376o\013"
 652      D5E0862C 
 652      DFB85D61 
 652      FE6DADFE 
 652      6F0B
 653 213c 3F159502 		.ascii	"?\025\225\002\335\311R\331+>\351\017e\255\026\250#l"
 653      DDC952D9 
 653      2B3EE90F 
 653      65AD16A8 
 653      236C
 654 214e A9AD8EEF 		.ascii	"\251\255\216\357\011u\233\210\372\2644\265\230\371\220"
 654      09759B88 
 654      FAB434B5 
 654      98F990
 655 215d 489553B6 		.ascii	"H\225S\266\344\313~\263k^D\235lK\275\354\007\301\272"
 655      E4CB7EB3 
 655      6B5E449D 
 655      6C4BBDEC 
 655      07C1BA
 656 2170 44D4A992 		.ascii	"D\324\251\222\335\024\021O\210\210OJ+b\321\033\274p"
 656      DD14114F 
 656      88884F4A 
 656      2B62D11B 
 656      BC70
 657 2182 F18496D1 		.ascii	"\361\204\226\321\237\200A=bK\277\354\327\303j\314\036"
 657      9F80413D 
 657      624BBFEC 
 657      D7C36ACC 
 657      1E
 658 2193 44D82749 		.ascii	"D\330'Ikn\377\332\207\214\222\023\347\315\006\347M\007"
 658      6B6EFFDA 
 658      878C9213 
 658      E7CD06E7 
 658      4D07
 659 21a5 EF490338 		.ascii	"\357I\0038\007\220\001p\036 \023\340\002@\016\300\031"
 659      07900170 
 659      1E2013E0 
 659      02400EC0 
 659      19
 660 21b6 80B3D6CE 		.ascii	"\200\263\326\316\3157r\263T\022\277\365U\223$R\355\260"
 660      CD3772B3 
 660      5412BFF5 
ARM GAS  /tmp/cc0qBXqg.s 			page 53


 660      55932452 
 660      EDB0
 661 21c8 744F2C93 		.ascii	"tO,\223WE\323l\241\022_\245\336%\237\257+\254\023~\353"
 661      5745D36C 
 661      A1125FA5 
 661      DE259FAF 
 661      2BAC137E 
 662 21dd AB3B896E 		.ascii	"\253;\211n\347\346A\353\\\225e\362!\"\355\334e\271\010"
 662      E7E641EB 
 662      5C9565F2 
 662      2122EDDC 
 662      65B908
 663 21f0 7DF94BFB 		.ascii	"}\371K\373E\362\376\255\236\014\253\233ay*qn\315WY~"
 663      45F2FEAD 
 663      9E0CAB9B 
 663      61792A71 
 663      6ECD5759 
 664 2205 46309FA6 		.ascii	"F0\237\246\327\214\264\033\345j\262\355\036`7\377\311"
 664      D78CB41B 
 664      E56AB2ED 
 664      1E6037FF 
 664      C9
 665 2216 AC921F2A 		.ascii	"\254\222\037*P\255 \233_\257r\216\250\330\357*\275\313"
 665      50AD209B 
 665      5FAF728E 
 665      A8D8EF2A 
 665      BDCB
 666 2228 812E2A54 		.ascii	"\201.*Ti\311\315\214\260cQV\247\340\213V\267\225.\361"
 666      69C9CD8C 
 666      B0635156 
 666      A7E08B56 
 666      B7952EF1 
 667 223c CC7F89AA 		.ascii	"\314\177\211\252\326\32714\243\301\265+\226\037\304"
 667      D6D73134 
 667      A3C1B52B 
 667      961FC4
 668 224b F0ADCE83 		.ascii	"\360\255\316\203\325\275\247\034\354\3562^V\221]\306"
 668      D5BDA71C 
 668      ECEE325E 
 668      56915DC6 
 669 225b 6215DF66 		.ascii	"b\025\337fL8\177\362\245\226\234\206\365\232*\356\274"
 669      4C387FF2 
 669      A5969C86 
 669      F59A2AEE 
 669      BC
 670 226c 72387CA0 		.ascii	"r8|\240\001Rw\200\351\247\277&\204\250H\030\233\"\225"
 670      01527780 
 670      E9A7BF26 
 670      84A84818 
 670      9B2295
 671 227f CDD1D415 		.ascii	"\315\321\324\025\025\3311\354\231\275\323muU\205n0Z"
 671      15D931EC 
 671      99BDD36D 
 671      7555856E 
 671      305A
 672 2291 54BFCA55 		.ascii	"T\277\312U\277JUo.:X\200\305\304g\254\210K8q\011%>\037"
 672      BF4A556F 
ARM GAS  /tmp/cc0qBXqg.s 			page 54


 672      2E3A5880 
 672      C5C467AC 
 672      884B3871 
 673 22a9 FE72DE41 		.ascii	"\376r\336AL|\312\212\270\224\023\227R\342\266\250\033"
 673      4C7CCA8A 
 673      B8941397 
 673      52E2B6A8 
 673      1B
 674 22ba A356C4A4 		.ascii	"\243V\304\244\304\020\210\257q\342k\224\370\336|\332"
 674      C41088AF 
 674      71E26B94 
 674      F8DE7CDA 
 675 22ca 19A59878 		.ascii	"\031\245\230x\300\352Nk\031'.\243\304\327\203\303S\255"
 675      C0EA4E6B 
 675      19272EA3 
 675      C4D783C3 
 675      53AD
 676 22dc 748EB152 		.ascii	"t\216\261R\243\234\023\223W\205\367N/\203\346W\277\373"
 676      A39C1393 
 676      5785F74E 
 676      2F83E657 
 676      BFFB
 677 22ee E2BB9FAD 		.ascii	"\342\273\237\255Y#\323zz\356\365\3615\376\340SO\343"
 677      5923D37A 
 677      7AEEF5F1 
 677      35FEE053 
 677      4FE3
 678 2300 471E7BFD 		.ascii	"G\036{\375\015\036>\276\336\273\366n\323{\370\352\277"
 678      0D1E3EBE 
 678      DEBBF66E 
 678      D37BF8EA 
 678      BF
 679 2311 DAE5B3D5 		.ascii	"\332\345\263\325c\267\227\367N\037_\275\207\3476\375"
 679      63B797F7 
 679      4E1F5FBD 
 679      87E736FD 
 680 2321 76AFBDBB 		.ascii	"v\257\275\273\214\236\306\257\367\350\375?\336)\323"
 680      8C9EC6AF 
 680      F7E8FD3F 
 680      DE29D3
 681 2330 989BBD2F 		.ascii	"\230\233\275/\325\314\377k\177\017O\177\3436\240\001"
 681      D5CCFF6B 
 681      7F0F4F7F 
 681      E336A001 
 682 2340 5AADBFF1 		.ascii	"Z\255\277\361\217^\273|v\370z\032\377\356\343\217=\330"
 682      8F5EBB7C 
 682      76F87A1A 
 682      FFEEE38F 
 682      3DD8
 683 2352 7F3F7F0F 		.ascii	"\177?\177\017o\277\335\273\375|=\366\370\031\214\376"
 683      6FBFDDBB 
 683      FD7C3DF6 
 683      F8198CFE 
 684 2362 1E3FDBF4 		.ascii	"\036?\333\364\333\317~\273\337\303{\247\267\237A\017"
 684      DBCF7EBB 
 684      DFC37BA7 
 684      B79F410F 
ARM GAS  /tmp/cc0qBXqg.s 			page 55


 685 2372 8D947BFD 		.ascii	"\215\224{\375\275\014F\374\331\246u\\\307uk=\215\032"
 685      BD0C46FC 
 685      D9A6755C 
 685      C7756B3D 
 685      8D1A
 686 2384 F31B78BE 		.ascii	"\363\033x\276\026`\015\376\371\246M\362\365\233\344"
 686      16600DFE 
 686      F9A64DF2 
 686      F59BE4
 687 2393 9B37297E 		.ascii	"\2337)~\265e\343\246\265\022\354\365\373\215\036\233"
 687      B565E3A6 
 687      B512ECF5 
 687      FB8D1E9B 
 688 23a3 B7C0FFDF 		.ascii	"\267\300\377\337\256[\373\313O\367\357\367\3607\356"
 688      AE5BFBCB 
 688      4FF7EFF7 
 688      F037EE
 689 23b2 5EB776FB 		.ascii	"^\267v\373\247\237\376`\377~\220\343\364\305\346\237"
 689      A79FFE60 
 689      FF7E90E3 
 689      F4C5E69F 
 690 23c2 6DDAE2B9 		.ascii	"m\332\342\271\005\372\265^\277]\356\267\325\201\211"
 690      05FAB55E 
 690      BF5DEEB7 
 690      D58189
 691 23d1 FB91A751 		.ascii	"\373\221\247Q\315_\345>[U~_\356\325\357\325k\276\364"
 691      CD5FE53E 
 691      5B557E5F 
 691      EED5EFD5 
 691      6BBEF4
 692 23e4 F4F533FA 		.ascii	"\364\3653\372l\377Z\375\245\247a\333\036\243\001^\277"
 692      6CFF5AFD 
 692      A5A761DB 
 692      1EA3015E 
 692      BF
 693 23f5 32C0ABF2 		.ascii	"2\300\253\362KO\243\337\036\370x\353\336\355\333\365"
 693      4B4FA3DF 
 693      1EF878EB 
 693      DEEDDBF5 
 694 2405 06872F3D 		.ascii	"\006\207/=\275\375\366\372\032\365\006\225\277\317\377"
 694      BDFDF6FA 
 694      1AF50695 
 694      BFCFFF
 695 2414 D37B1AD7 		.ascii	"\323{\032\327R+\021\323\354\360\366\366\3602\354\376"
 695      522B11D3 
 695      ECF0F6F6 
 695      F032ECFE 
 696 2424 C8D7CF57 		.ascii	"\310\327\317W\377\221\336k\253\217\307\017>^\367\361"
 696      FF91DE6B 
 696      AB8FC70F 
 696      3E5EF7F1 
 697 2434 1A8B05C1 		.ascii	"\032\213\005\301j`kP\014x|\345\345c\364\361\335\241"
 697      6A606B50 
 697      0C787CE5 
 697      E563F4F1 
 697      DDA1
 698 2446 F0853E68 		.ascii	"\360\205>h\014z\257]{\014>~j#\371\353i\374\321[M\351"
ARM GAS  /tmp/cc0qBXqg.s 			page 56


 698      0C7AAF5D 
 698      7B0C3E7E 
 698      6A23F9EB 
 698      69FCD15B 
 699 245c B77B8FCF 		.ascii	"\267{\217\317.\275\301\337\343W\237}\006\2065\017\235"
 699      2EBDC1DF 
 699      E3579F7D 
 699      0686350F 
 699      9D
 700 246d 7AB771FF 		.ascii	"z\267q\377.\037\177\243\322\357+_=hN:\246\336\275\327"
 700      2E1F7FA3 
 700      D2EF2B5F 
 700      3D684E3A 
 700      A6DEBDD7 
 701 2481 A8DF0F06 		.ascii	"\250\337\017\006\366\336\351I\337j\364{\364\2760~;\034"
 701      F6DEE949 
 701      DF6AF47B 
 701      F4BE307E 
 701      3B1C
 702 2493 F5FBF4BE 		.ascii	"\365\373\364\276\306\335^\376\177\204Ow\373\357`\344"
 702      C6DD5EFE 
 702      7F844F77 
 702      FBEF60E4 
 703 24a3 5C331720 		.ascii	"\\3\027 7\356\004\315\266\371{\022\226\316b\304\323"
 703      37EE04CD 
 703      B6F97B12 
 703      96CE62C4 
 703      D3
 704 24b4 88F6AAF4 		.ascii	"\210\366\252\364_\221\246\252\257\214 t\017\274\370"
 704      5F91A6AA 
 704      AF8C2074 
 704      0FBCF8
 705 24c3 EB77EFC1 		.ascii	"\353w\357\301\336\276F\2602\037J5\177U\302SO\243\016"
 705      DEBE46B0 
 705      321F4A35 
 705      7F55C253 
 705      4FA30E
 706 24d6 38028DD7 		.ascii	"8\002\215\327\236\235\340\006j\177\"\332\177\207\022"
 706      9E9DE006 
 706      6A7F22DA 
 706      7F8712
 707 24e5 0008BE32 		.ascii	"\000\010\2762\032\015{\\\231\010O\203\036\354\254\367"
 707      1A0D7B5C 
 707      99084F83 
 707      1EECACF7 
 708 24f5 F506E302 		.ascii	"\365\006\343\002[\277\255\377\272G\243\337\357c\364"
 708      5BBFADFF 
 708      BA47A3DF 
 708      EF63F4
 709 2504 F6DBA657 		.ascii	"\366\333\246W\031\266}\015-\024@\342\2576\222\277\320"
 709      19B67D0D 
 709      2D1440E2 
 709      AF3692BF 
 709      D0
 710 2515 78FB2EAF 		.ascii	"x\373.\257\035\200\355\206\317\001\3637z\031\365\032"
 710      1D80ED86 
 710      CF01F337 
ARM GAS  /tmp/cc0qBXqg.s 			page 57


 710      7A19F51A 
 711 2525 237D210C 		.ascii	"#}!\014\274\266z\371\353\025\276^\273\365J\277]\333"
 711      BCB67AF9 
 711      EB15BE5E 
 711      BBF54ABF 
 711      5DDB
 712 2537 C02AE0C8 		.ascii	"\300*\340\310z\003\3666\356\227\373\357\221\3572\200"
 712      7A03F636 
 712      EE97FBEF 
 712      91EF3280 
 713 2547 F577C0A8 		.ascii	"\365w\300\250\201\343\031\326\254\001\370Dn\370\261"
 713      81E319D6 
 713      AC01F844 
 713      6EF8B1
 714 2556 DCF023B9 		.ascii	"\334\360#\271\341\207r\303\017\344\206\277\227\033>"
 714      E18772C3 
 714      0FE486BF 
 714      971B3E
 715 2565 7524C627 		.ascii	"u$\306'\235\202F\037\275\233\233{\356\373\341n\030\020"
 715      9D82461F 
 715      BD9B9B7B 
 715      EEFBE16E 
 715      1810
 716 2577 1D6DE9ED 		.ascii	"\035m\351\355\007\376\262\337\250 \243\353`\261\253"
 716      07FEB2DF 
 716      A820A3EB 
 716      60B1AB
 717 2586 72F71E3F 		.ascii	"r\367\036?\277]\032\336i\343{\"\203\323\221\000r\375"
 717      BF5D1ADE 
 717      69E37B22 
 717      83D39100 
 717      72FD
 718 2598 3E17AB47 		.ascii	">\027\253G\236\306\357\212\305\033\214\026\337\362\336"
 718      9EC6EF8A 
 718      C51B8C16 
 718      DFF2DE
 719 25a7 E9EFBD73 		.ascii	"\351\357\275s\033H\374\216]\002\030&\370\334\315>\203"
 719      1B48FC8E 
 719      5D021826 
 719      F8DCCD3E 
 719      83
 720 25b8 AFFDCD7E 		.ascii	"\257\375\315~d\237\011\014 \011{\360R\256\220\303\227"
 720      649F090C 
 720      20097BF0 
 720      52AE90C3 
 720      97
 721 25c9 2C6CC085 		.ascii	",l\300\205\314\017U_\202\223\370\376\361{b&;\275vY\270"
 721      CC0F555F 
 721      8293F8FE 
 721      F17B6226 
 721      3BBD7659 
 722 25de C07B4648 		.ascii	"\300{FHD9\373\3555\356\331k4\263S\371\3207N>\276\242"
 722      4439FBED 
 722      35EED96B 
 722      34B353F9 
 722      D0374E3E 
 723 25f4 879ACDEB 		.ascii	"\207\232\315\353=7\375\342g\353\377\240\2067\233\267"
ARM GAS  /tmp/cc0qBXqg.s 			page 58


 723      3D37FDE2 
 723      67EBFFA0 
 723      86379BB7 
 724 2604 6CD8E800 		.ascii	"l\330\350\000\257_\374\356\363\337}\276\345\215B\374"
 724      AF5FFCEE 
 724      F3DF7DBE 
 724      E58D42FC 
 725 2614 F5061FAF 		.ascii	"\365\006\037\257]$\340\374\267q\177PR\237\327\321\277"
 725      5D24E0FC 
 725      B7717F50 
 725      529FD7D1 
 725      BF
 726 2625 9EFE7E7B 		.ascii	"\236\376~{\015\336z\206P'\002\371\024\361\327\020/\327"
 726      0DDE7A86 
 726      502702F9 
 726      14F1D710 
 726      2FD7
 727 2637 430C3933 		.ascii	"C\01493J3\252\372\212\322\275g\375\024R\245]\2031~\244"
 727      4A33AAFA 
 727      8AD2BD67 
 727      FD1452A5 
 727      5D83317E 
 728 264c A36299E0 		.ascii	"\243b\231\340m\373v\033\225dh\215N`x\037\222P\366\201"
 728      6DFB761B 
 728      9564688D 
 728      4E60781F 
 728      9250F681 
 729 2660 CA6F1860 		.ascii	"\312o\030`\243\317n\222=U_\031|\214z\243b\207\336\010"
 729      A3CF6E92 
 729      3D555F19 
 729      7C8C7AA3 
 729      6287DE08 
 730 2674 1EB5D768 		.ascii	"\036\265\327h\304\360\016\303\033\005u*\372\251\213"
 730      C4F00EC3 
 730      1B05752A 
 730      FAA98B
 731 2683 8F2FF497 		.ascii	"\217/\364\227D\220\337\366\355\376z\243\313fj\211\365"
 731      4490DFF6 
 731      EDFE7AA3 
 731      CB666A89 
 731      F5
 732 2694 069F7D7A 		.ascii	"\006\237}z\303\357\177\273\005\274\177\227N\374Le\330"
 732      C3EF7FBB 
 732      05BC7F97 
 732      4EFC4C65 
 732      D8
 733 26a5 4F82197B 		.ascii	"O\202\031{\033\326\362\234\274\346\007<'\2237\360|\215"
 733      1BD6F29C 
 733      BCE6073C 
 733      279337F0 
 733      7C8D
 734 26b7 D27F8F5E 		.ascii	"\322\177\217^\277\015\336\255\373\261\255\315\231\377"
 734      BF0DDEAD 
 734      FBB1ADCD 
 734      99FF
 735 26c5 D334ECF1 		.ascii	"\3234\354\361\233\337\254\367\240yw\337\032\321\030"
 735      9BDFACF7 
ARM GAS  /tmp/cc0qBXqg.s 			page 59


 735      A07977DF 
 735      1AD118
 736 26d4 78EEDA45 		.ascii	"x\356\332E\234\223\313\374\314\317w\273\317\016\365"
 736      9C93CBFC 
 736      CCCF77BB 
 736      CF0EF5
 737 26e3 16EADA6B 		.ascii	"\026\352\332k\324\273\275||?\366\226)\310\253\326{\347"
 737      D4BBBD7C 
 737      7C3FF696 
 737      29C8ABD6 
 737      7BE7
 738 26f5 969DDB36 		.ascii	"\226\235\3336\357\322\353\367\374g\373\226`1A\346*\357"
 738      EFD2EBF7 
 738      FC67FB96 
 738      603141E6 
 738      2AEF
 739 2707 9D105430 		.ascii	"\235\020T0z\177\365s\210\362\315zp\030_#H\330\014\271"
 739      7A7FF573 
 739      88F2CD7A 
 739      70185F23 
 739      48D80CB9 
 740 271b C16B37F4 		.ascii	"\301k7\364\364\2037\372\007\245\"|VJ5\377\320\266-\235"
 740      F48337FA 
 740      07A5227C 
 740      564A35FF 
 740      D0B62D9D 
 741 272f FF581B0F 		.ascii	"\377X\033\017\263`h\374\015\252\363g\360\334\250\337"
 741      B36068FC 
 741      0DAAF367 
 741      F0DCA8DF 
 742 273f 0C6EE6E3 		.ascii	"\014n\346\343\2556n\337\353\353\015\011\320\177\033"
 742      AD366EDF 
 742      EBEB0D09 
 742      D07F1B
 743 274e 3C301821 		.ascii	"<0\030!\3507\177\355\377\271\257\217\361\015\221\365"
 743      E8377FED 
 743      FFB9AF8F 
 743      F10D91F5 
 744 275e 35CDE020 		.ascii	"5\315\340 \207\320\375\355\033\364&\016\375\225\027"
 744      87D0FDED 
 744      1BF4260E 
 744      FD9517
 745 276d B71EDEBC 		.ascii	"\267\036\336\274~\235\334{\247\226\030\217\331\005o"
 745      7E9DDC7B 
 745      A796188F 
 745      D9056F
 746 277c DB4AB337 		.ascii	"\333J\2637\211g\375n\230\336\267\356\335\341\260\307"
 746      8967FD6E 
 746      98DEB7EE 
 746      DDE1B0C7 
 747 278c CBD7C7DB 		.ascii	"\313\327\307\333\023R\247\263\3701\370\373>#\2350\266"
 747      1352A7B3 
 747      F831F8FB 
 747      3E239D30 
 747      B6
 748 279d E97719BD 		.ascii	"\351w\031\275\024Dk\315>\256<IH\373|\014\306\275\304"
 748      14446BCD 
ARM GAS  /tmp/cc0qBXqg.s 			page 60


 748      3EAE3C49 
 748      48FB7C0C 
 748      C6BDC4
 749 27b0 2DC1F70C 		.ascii	"-\301\367\014x\217\227\301\305\352\211\247\361[\266"
 749      788F97C1 
 749      C5EA89A7 
 749      F15BB6
 750 27bf 446C82D0 		.ascii	"Dl\202\320\354\362\3627\022\334\201\210\203WO\3437"
 750      ECF2F237 
 750      12DC8188 
 750      83574FE3 
 750      37
 751 27d0 25C8201E 		.ascii	"%\310 \036\015\344\325\011\270\020\325\277\246O\325"
 751      0DE4D509 
 751      B810D5BF 
 751      A64FD5
 752 27df DE7B0D06 		.ascii	"\336{\015\006\022\245\302#ObB\336#\271q\267\212\271"
 752      12A5C223 
 752      4F6242DE 
 752      23B971B7 
 752      8AB9
 753 27f1 B5DA60A4 		.ascii	"\265\332`\2443\313\337\332\367\024\222\255\3363\356"
 753      33CBDFDA 
 753      F71492AD 
 753      DE33EE
 754 2800 F6F4862A 		.ascii	"\366\364\206*e\253\001\306\306\017J\025G\301:\340\332"
 754      65AB01C6 
 754      C60F4A15 
 754      47C13AE0 
 754      DA
 755 2811 3B61D6DA 		.ascii	";a\326\332cT\374\354\227\233~\243\374\315\206\317\376"
 755      6354FCEC 
 755      979B7EA3 
 755      FCCD86CF 
 755      FE
 756 2822 7193E2E7 		.ascii	"q\223\342\347\2337mB\377\204~\255\364\336\245\3672`"
 756      9B376D42 
 756      FF847EAD 
 756      F4DEA5F7 
 756      3260
 757 2834 90F4E9DB 		.ascii	"\220\364\351\333\\\376W\033?\337\260o-+@<w\354\361\361"
 757      5CFE571B 
 757      3FDFB06F 
 757      2D2B403C 
 757      77ECF1F1 
 758 2848 03B978C3 		.ascii	"\003\271x\303\372M\370\363\365\233\224\033\277\330\270"
 758      FA4DF8F3 
 758      F59B941B 
 758      BFD8B8
 759 2857 7E937AC3 		.ascii	"~\223z\303\346\215\277\370\305\372M\252\015[\376\260"
 759      E68DBFF8 
 759      C5FA4DAA 
 759      0D5BFEB0 
 760 2867 F1179B94 		.ascii	"\361\027\233\224\277\335\260\376\027\233\210\324_\353"
 760      BFDDB0FE 
 760      179B88D4 
 760      5FEB
ARM GAS  /tmp/cc0qBXqg.s 			page 61


 761 2875 84569E46 		.ascii	"\204V\236FW\357\235\233\364;6\353\215l|\177\007\363"
 761      57EF9D9B 
 761      F43B36EB 
 761      8D6C7C7F 
 761      07F3
 762 2887 96FD940D 		.ascii	"\226\375\224\015S\027\030\307\3605\010\373\377\324\201"
 762      531718C7 
 762      F03508FB 
 762      FFD481
 763 2896 5D48     		.ascii	"]H"
 764              		.text
 765              		.section	.gnu.lto_.symtab.a2f6276623544091,"",%progbits
 766 0000 6D61696E 		.ascii	"main\000"
 766      00
 767 0005 00       		.ascii	"\000"
 768 0006 00       		.ascii	"\000"
 769 0007 00       		.ascii	"\000"
 770 0008 00000000 		.ascii	"\000\000\000\000\000\000\000\000"
 770      00000000 
 771 0010 7B020000 		.ascii	"{\002\000\000"
 772 0014 63687000 		.ascii	"chp\000"
 773 0018 00       		.ascii	"\000"
 774 0019 00       		.ascii	"\000"
 775 001a 00       		.ascii	"\000"
 776 001b 00000000 		.ascii	"\000\000\000\000\000\000\000\000"
 776      00000000 
 777 0023 03030000 		.ascii	"\003\003\000\000"
 778 0027 63707400 		.ascii	"cpt\000"
 779 002b 00       		.ascii	"\000"
 780 002c 00       		.ascii	"\000"
 781 002d 00       		.ascii	"\000"
 782 002e 00000000 		.ascii	"\000\000\000\000\000\000\000\000"
 782      00000000 
 783 0036 06030000 		.ascii	"\006\003\000\000"
 784 003a 636800   		.ascii	"ch\000"
 785 003d 00       		.ascii	"\000"
 786 003e 02       		.ascii	"\002"
 787 003f 00       		.ascii	"\000"
 788 0040 00000000 		.ascii	"\000\000\000\000\000\000\000\000"
 788      00000000 
 789 0048 01030000 		.ascii	"\001\003\000\000"
 790 004c 53443300 		.ascii	"SD3\000"
 791 0050 00       		.ascii	"\000"
 792 0051 02       		.ascii	"\002"
 793 0052 00       		.ascii	"\000"
 794 0053 00000000 		.ascii	"\000\000\000\000\000\000\000\000"
 794      00000000 
 795 005b AE020000 		.ascii	"\256\002\000\000"
 796 005f 63685468 		.ascii	"chThdSleep\000"
 796      64536C65 
 796      657000
 797 006a 00       		.ascii	"\000"
 798 006b 02       		.ascii	"\002"
 799 006c 00       		.ascii	"\000"
 800 006d 00000000 		.ascii	"\000\000\000\000\000\000\000\000"
 800      00000000 
 801 0075 7F020000 		.ascii	"\177\002\000\000"
ARM GAS  /tmp/cc0qBXqg.s 			page 62


 802 0079 63687072 		.ascii	"chprintf\000"
 802      696E7466 
 802      00
 803 0082 00       		.ascii	"\000"
 804 0083 02       		.ascii	"\002"
 805 0084 00       		.ascii	"\000"
 806 0085 00000000 		.ascii	"\000\000\000\000\000\000\000\000"
 806      00000000 
 807 008d 95020000 		.ascii	"\225\002\000\000"
 808 0091 63685468 		.ascii	"chThdCreateStatic\000"
 808      64437265 
 808      61746553 
 808      74617469 
 808      6300
 809 00a3 00       		.ascii	"\000"
 810 00a4 02       		.ascii	"\002"
 811 00a5 00       		.ascii	"\000"
 812 00a6 00000000 		.ascii	"\000\000\000\000\000\000\000\000"
 812      00000000 
 813 00ae A0020000 		.ascii	"\240\002\000\000"
 814 00b2 73645374 		.ascii	"sdStart\000"
 814      61727400 
 815 00ba 00       		.ascii	"\000"
 816 00bb 02       		.ascii	"\002"
 817 00bc 00       		.ascii	"\000"
 818 00bd 00000000 		.ascii	"\000\000\000\000\000\000\000\000"
 818      00000000 
 819 00c5 A5020000 		.ascii	"\245\002\000\000"
 820 00c9 63685379 		.ascii	"chSysInit\000"
 820      73496E69 
 820      7400
 821 00d3 00       		.ascii	"\000"
 822 00d4 02       		.ascii	"\002"
 823 00d5 00       		.ascii	"\000"
 824 00d6 00000000 		.ascii	"\000\000\000\000\000\000\000\000"
 824      00000000 
 825 00de A8020000 		.ascii	"\250\002\000\000"
 826 00e2 68616C49 		.ascii	"halInit\000"
 826      6E697400 
 827 00ea 00       		.ascii	"\000"
 828 00eb 02       		.ascii	"\002"
 829 00ec 00       		.ascii	"\000"
 830 00ed 00000000 		.ascii	"\000\000\000\000\000\000\000\000"
 830      00000000 
 831 00f5 AA020000 		.ascii	"\252\002\000\000"
 832              		.text
 833              		.section	.gnu.lto_.opts,"",%progbits
 834 0000 272D666D 		.ascii	"'-fmath-errno' '-fsigned-zeros' '-ftrapping-math' '"
 834      6174682D 
 834      6572726E 
 834      6F272027 
 834      2D667369 
 835 0033 2D666E6F 		.ascii	"-fno-trapv' '-fno-openmp' '-fno-openacc' '-mcpu=cor"
 835      2D747261 
 835      70762720 
 835      272D666E 
 835      6F2D6F70 
ARM GAS  /tmp/cc0qBXqg.s 			page 63


 836 0066 7465782D 		.ascii	"tex-m4' '-mthumb' '-ggdb' '-O2' '-fomit-frame-point"
 836      6D342720 
 836      272D6D74 
 836      68756D62 
 836      2720272D 
 837 0099 65722720 		.ascii	"er' '-falign-functions=16' '-ffunction-sections' '-"
 837      272D6661 
 837      6C69676E 
 837      2D66756E 
 837      6374696F 
 838 00cc 66646174 		.ascii	"fdata-sections' '-fno-common' '-flto'\000"
 838      612D7365 
 838      6374696F 
 838      6E732720 
 838      272D666E 
 839              		.text
 840              		.comm	__gnu_lto_v1,1,1
 841              		.comm	__gnu_lto_slim,1,1
 842              		.ident	"GCC: (15:6.3.1+svn253039-1build1) 6.3.1 20170620"
ARM GAS  /tmp/cc0qBXqg.s 			page 64


DEFINED SYMBOLS
                            *ABS*:0000000000000000 main.c
                            *COM*:0000000000000001 __gnu_lto_v1
                            *COM*:0000000000000001 __gnu_lto_slim

NO UNDEFINED SYMBOLS
