ARM GAS  /tmp/ccklYm9V.s 			page 1


   1              		.cpu cortex-m4
   2              		.eabi_attribute 20, 1
   3              		.eabi_attribute 21, 1
   4              		.eabi_attribute 23, 3
   5              		.eabi_attribute 24, 1
   6              		.eabi_attribute 25, 1
   7              		.eabi_attribute 26, 1
   8              		.eabi_attribute 30, 2
   9              		.eabi_attribute 34, 1
  10              		.eabi_attribute 18, 4
  11              		.file	"rt_test_sequence_003.c"
  12              		.text
  13              	.Ltext0:
  14              		.section	.gnu.lto_.profile.e7f7340bf6f0acce,"",%progbits
  15 0000 789C6365 		.ascii	"x\234ce`b`c```d\330\304\366\207\011\000\005\202\001"
  15      60626063 
  15      60606064 
  15      D8C4F687 
  15      09000582 
  16 0015 C5       		.ascii	"\305"
  17              		.text
  18              		.section	.gnu.lto_.icf.e7f7340bf6f0acce,"",%progbits
  19 0000 789C6365 		.ascii	"x\234ce`b\360d@\000\036\206\326_G'\3613\2578\367h>\023"
  19      6062F064 
  19      40001E86 
  19      D65F4727 
  19      F133AF38 
  20 0018 CBEF9373 		.ascii	"\313\357\223s\317\262\263}\335zi\021\017G\313\207\017"
  20      CFB2B37D 
  20      DD7A6911 
  20      0F47CB87 
  20      0F
  21 0029 27B8383B 		.ascii	"'\2708;\232w\314\346\341\332\330\266|\016\007\367\252"
  21      9A77CCE6 
  21      E1DAD8B6 
  21      7C0E07F7 
  21      AA
  22 003a 96572E3C 		.ascii	"\226W.<\237\267\357\235\301\313;\345\374\231e<|\233"
  22      9FB7EF9D 
  22      C1CB3BE5 
  22      FC99653C 
  22      7C9B
  23 004c AF5E99CB 		.ascii	"\257^\231\313\317\277\340\316\333\335,\014\0004N#\236"
  23      CFBFE0CE 
  23      DBDD2C0C 
  23      00344E23 
  23      9E
  24              		.text
  25              		.section	.gnu.lto_.jmpfuncs.e7f7340bf6f0acce,"",%progbits
  26 0000 789C9595 		.ascii	"x\234\225\225\333O\023A\024\207gv\333\322\026\250\""
  26      DB4F1341 
  26      14876776 
  26      DBD216A8 
  26      22
  27 0011 3E1863E2 		.ascii	">\030c\342n|\361\217\360E.\377\207\004\326\244Im\261"
  27      6E7CF18F 
  27      F0452EFF 
ARM GAS  /tmp/ccklYm9V.s 			page 2


  27      8704D6A4 
  27      496DB1
  28 0024 B6A04F54 		.ascii	"\266\240OTE\015`\010<\001Al$\"\227R\024\025*\025\021"
  28      450D6008 
  28      3C01416C 
  28      24229752 
  28      14152A15 
  29 0039 0511949B 		.ascii	"\005\021\224\233\210\010\202(\310M\271\213r\257\332"
  29      88088228 
  29      C84DB98B 
  29      72AFDA
  30 0048 39B38545 		.ascii	"9\263\205EH\230m\262/;\363}\277\3233\247\035-\342P\202"
  30      48986DB2 
  30      2F3BF37D 
  30      BFD333A7 
  30      1D2DE250 
  31 005d 11A16644 		.ascii	"\021\241fD?\272\340\243\011>8\217\307\271\231\253\231"
  31      3FBAE0A3 
  31      093E388F 
  31      C7B999AB 
  31      99
  32 006e 4611BB5D 		.ascii	"F\021\273]\371\202\233G(\370\246\3277T\242M\013\270"
  32      F9829B47 
  32      28F8A6D7 
  32      3754A24D 
  32      0BB8
  33 0080 8EB8798C 		.ascii	"\216\270y\214K\261\030\334W\206\323\020\326l1\336,\327"
  33      4BB118DC 
  33      5786D310 
  33      D66C31DE 
  33      2CD7
  34 0092 8C561429 		.ascii	"\214V\024)\303\021\306\277ps\015S\206\307\345\300T\354"
  34      C311C6BF 
  34      70730D53 
  34      86C7E5C0 
  34      54EC
  35 00a4 64269716 		.ascii	"d&\227\026\033M\342)\312h\0103\234\355\272\305SF\213"
  35      1B4DE229 
  35      CA680833 
  35      9CEDBAC5 
  35      53468B
  36 00b7 3DC05452 		.ascii	"=\300TR\206S\324\327\270Q:\316\213g(\247#\\\307@\333"
  36      8653D4D7 
  36      B8513ACE 
  36      8B6728A7 
  36      235CC740 
  37 00cc 4204E5C2 		.ascii	"B\004\345\302\260\027\270*U\365\335\007\346\201\252"
  37      B017B82A 
  37      55F5DD07 
  37      E681AA
  38 00db FAAA8179 		.ascii	"\372\252\201y\250\250\217@57\332\253\215\331\274\233"
  38      A8A88F40 
  38      3537DAAB 
  38      8DD9BC9B 
  39 00eb D7638C1F 		.ascii	"\327c\214\037\341cL\361\217AUCU<b\255\272\0260\237\252"
  39      E1634CF1 
  39      8F415543 
ARM GAS  /tmp/ccklYm9V.s 			page 3


  39      553C62AD 
  39      BA16309F 
  40 0100 AA9F0053 		.ascii	"\252\237\000S\267\273\253\373d\371\201{\252*\253\036"
  40      B7BBABFB 
  40      64F9817B 
  40      AA2AAB1E 
  41 0110 98673BB2 		.ascii	"\230g;\262\240I\253\267}e\234\230!\217\230\201\200\356"
  41      A049ABB7 
  41      7D659C98 
  41      218F9881 
  41      80EE
  42 0122 8CACEB26 		.ascii	"\214\254\353&\012\032q\003\200\317)H\200\301<\377\250"
  42      0A1A7103 
  42      80CF2948 
  42      80C13CFF 
  42      A8
  43 0133 51CC9181 		.ascii	"Q\314\221\201p\002\024\0257x\345\244\010\334\010\300"
  43      70021415 
  43      3778E5A4 
  43      08DC08C0 
  44 0143 0B0A20A3 		.ascii	"\013\012 \243\\\236;\307\237\036I\316\"\022\267r\370"
  44      5C9E3BC7 
  44      9F1E49CE 
  44      2212B772 
  44      F8
  45 0154 25390C79 		.ascii	"%9\014y\245\256nf0,\010\353\335\274\251\200'/\233\202"
  45      A5AE6E66 
  45      302C08EB 
  45      DDBCA980 
  45      272F9B82 
  46 0168 2C2CD5DC 		.ascii	",,\325\334k\361a\261X\216:@\242\332\003\0363M:\210\233"
  46      6BF161B1 
  46      588E3A40 
  46      A2DA031E 
  46      334D3A88 
  47 017d 21E9154D 		.ascii	"!\351\025M\202\240}\304-!\361\335\256\362<\275X\242"
  47      82A07DC4 
  47      2D21F1DD 
  47      AEF23CBD 
  47      58A2
  48 018f 1437B9A6 		.ascii	"\0247\271\246\375\332\220\3715\230[\331\315m!\363h}"
  48      FDDA90F9 
  48      35985BD9 
  48      CD6D21F3 
  48      687D
  49 01a1 EE66B858 		.ascii	"\356f\270X\2464\317\027\315yM!\363\0330\277e7\267\207"
  49      A634CF17 
  49      CD794D21 
  49      F31B30BF 
  49      6537B787 
  50 01b5 CC4BADF5 		.ascii	"\314K\255\365\313\021\242Gi^\351\270\323c\010\231;\300"
  50      CB11A247 
  50      695EE9B8 
  50      D3630899 
  50      3BC0
  51 01c7 DCC96EEE 		.ascii	"\334\311n\356\012\231\013\373*\203\177\012UJs\363l\355"
  51      0A990BFB 
ARM GAS  /tmp/ccklYm9V.s 			page 4


  51      2A837F0A 
  51      554A73F3 
  51      6CED
  52 01d9 903164EE 		.ascii	"\2201d\356\006\363;y\336X\206\246\007\210\367\354C\323"
  52      06F33B79 
  52      DE5886A6 
  52      0788F7EC 
  52      43D3
  53 01eb 0BC007E5 		.ascii	"\013\300\007\345\320\354S}\037k_>\202\272\237\275/\003"
  53      D0EC537D 
  53      1F6B5F3E 
  53      82BA9FBD 
  53      2F03
  54 01fd AC7DF904 		.ascii	"\254}\371\004\346Av\363\020\343`\177\006\3610\273\370"
  54      E64176F3 
  54      10E3607F 
  54      06F130BB 
  54      F8
  55 020e 0BEB607F 		.ascii	"\013\353`\177\005\363\010\273y\224u\260\277\201yL\305"
  55      05F308BB 
  55      799475B0 
  55      BF81794C 
  55      C5
  56 021f 908C0331 		.ascii	"\220\214\0031\301>$\223\000L\251\030\222\357\254\325"
  56      C13E2493 
  56      004CA918 
  56      92EFACD5 
  57 022f FF00F534 		.ascii	"\377\000\3654{_fX;>\013\3469v\363<\343\220,\200x\221"
  57      7B5F6658 
  57      3B3E0BE6 
  57      3976F33C 
  57      E3902C80 
  58 0245 5DFC9375 		.ascii	"]\374\223u\256\227\300\374\213\335\374\233\365\267\270"
  58      AE97C0FC 
  58      8BDDFC9B 
  58      F5B7B8
  59 0254 0CE6156A 		.ascii	"\014\346\025j\326\005o\3454r\025\351\021\342\010]\224"
  59      D6056FE5 
  59      347215E9 
  59      11E2085D 
  59      94
  60 0265 9F1B3090 		.ascii	"\237\0330\220;\"\012O\205\341U\022\251C[\261\005\023"
  60      3B220A4F 
  60      85E15512 
  60      A9435BB1 
  60      0513
  61 0277 D7B462B5 		.ascii	"\327\264b\265\254>D\324\236\365~\217|\202\321x\015\324"
  61      AC3E44D4 
  61      9EF57E8F 
  61      7C82D178 
  61      0DD4
  62 0289 EBF20547 		.ascii	"\353\362\005G\200\356\252\362B\023\325\345t\"\274\241"
  62      80EEAAF2 
  62      4213D5E5 
  62      7422BCA1 
  63 0299 CEB709BE 		.ascii	"\316\267\011\276\300\366\205\311\216\376\001\364/E\015"
  63      C0F685C9 
ARM GAS  /tmp/ccklYm9V.s 			page 5


  63      8EFE01F4 
  63      2F450D
  64 02a8 AA501747 		.ascii	"\252P\027G\320\313\234\374-\3246\341\012\340W\271\355"
  64      D0CB9CFC 
  64      2DD436E1 
  64      0AE057B9 
  64      ED
  65 02b9 26F82B9A 		.ascii	"&\370+\232F4\244\011\207\361\030\302\351\0349\306\343"
  65      4634A409 
  65      87F118C2 
  65      E91C39C6 
  65      E3
  66 02ca 4EAB7431 		.ascii	"N\253t1YJtHI\202]J\260\010\311v\263\315nv\\\022,R\212"
  66      594A7448 
  66      49825D4A 
  66      B008C976 
  66      B3CD6E76 
  67 02e3 64414715 		.ascii	"dAG\025\353\377-\235\330\201:\234v\353\356='\367\332"
  67      EBFF2D9D 
  67      D8813A9C 
  67      76EBEE3D 
  67      27F7DA
  68 02f6 B3578EEE 		.ascii	"\263W\216\356tLl\\<\2122[S\022,\346$\341\202t\336)Y"
  68      744C6C5C 
  68      3C8A325B 
  68      53122CE6 
  68      24E18274 
  69 030d 1325C4C5 		.ascii	"\023%\304\305\".\006q\247\021\027\217\2708\024ms:\004"
  69      222E0671 
  69      A711178F 
  69      B838146D 
  69      733A04
  70 0320 DB59C161 		.ascii	"\333Y\301a>'\011\251fk\222-\025\375\003\013['\331"
  70      3E2709A9 
  70      666B922D 
  70      15FD030B 
  70      5B27D9
  71              		.text
  72              		.section	.gnu.lto_.inline.e7f7340bf6f0acce,"",%progbits
  73 0000 789C6365 		.ascii	"x\234ce`b0eb\200\0036\006\206\013\014j\214\014La=\363"
  73      60623065 
  73      62800336 
  73      06860B0C 
  73      6A8C0C4C 
  74 0017 1919D816 		.ascii	"\031\031\330\026\310\203\345Xx\031\030\230&\370a\320"
  74      C883E558 
  74      78191898 
  74      26F861D0 
  75 0027 CC3C0C0C 		.ascii	"\314<\014\014\214\023\374\210\221f``f\320\326\003\032"
  75      8C13FC88 
  75      91666060 
  75      66D0D603 
  75      1A
  76 0038 ACF6673A 		.ascii	"\254\366g:\302`\220\012\"\014\204\0113\034b<\311\010"
  76      C260900A 
  76      220C8409 
  76      331C623C 
ARM GAS  /tmp/ccklYm9V.s 			page 6


  76      C908
  77 004a 346302E3 		.ascii	"4c\002\343\233O,\250\206\000\025p\001\331\354\002\014"
  77      9B4F2CA8 
  77      86001570 
  77      01D9EC02 
  77      0C
  78 005b 0CAC401D 		.ascii	"\014\254@\035@D2\033\352\316Ac\016\033\003\033\037\320"
  78      4044321B 
  78      EACE4163 
  78      0E1B031B 
  78      1FD0
  79 006d B71C8CC0 		.ascii	"\267\034\214\300\240c\001\305\015\310\277\214/\330Y"
  79      A06301C5 
  79      0DC8BF8C 
  79      2FD859
  80 007c 2024C8EB 		.ascii	" $\310\353L\334\340\200\341`P7\004\006\213\302\225n"
  80      4CDCE080 
  80      E1605037 
  80      04068BC2 
  80      956E
  81 008e 44D082A5 		.ascii	"D\320\202\245\030X\371\200\3413\301\017h\034V>$\250"
  81      1858F980 
  81      E133C10F 
  81      681C563E 
  81      24A8
  82 00a0 21029C0C 		.ascii	"!\002\234\014r\372@C$\3464!\014\001\373\201\200\031"
  82      72FA4043 
  82      24E63421 
  82      0C01FB81 
  82      8019
  83 00b2 0C0C009C 		.ascii	"\014\014\000\234GGy"
  83      474779
  84              		.text
  85              		.section	.gnu.lto_.pureconst.e7f7340bf6f0acce,"",%progbits
  86 0000 789C6365 		.ascii	"x\234ce`b\340c```c\330\305\310,\311\"\311&\311!\305"
  86      6062E063 
  86      60606063 
  86      D8C5C82C 
  86      C922C926 
  87 0017 2905000D 		.ascii	")\005\000\015\310\001t"
  87      C80174
  88              		.text
  89              		.section	.gnu.lto_rt_test_003_004_execute.e7f7340bf6f0acce,"",%progbits
  90 0000 789C9D58 		.ascii	"x\234\235X\373S\024W\026\276\347\366<\232\001A\036>"
  90      FB531457 
  90      16BEE7F6 
  90      3C9A0141 
  90      1E3E
  91 0012 500C8348 		.ascii	"P\014\203H\0111\261\335MjS\225\337\266\374)\265e\325"
  91      0931B1DD 
  91      4D6A5395 
  91      DFB6FC29 
  91      B565D5
  92 0025 56FC03A8 		.ascii	"V\374\003\250d\234Z\251\022pg \245\277\204\026Q\022"
  92      649C5AA9 
  92      12706720 
  92      A5BF8416 
ARM GAS  /tmp/ccklYm9V.s 			page 7


  92      5112
  93 0037 50A2D90D 		.ascii	"P\242\331\015\217\3508\254H0q5J\310Cb\220%\030\337\317"
  93      8FE838AC 
  93      48307135 
  93      4AC84362 
  93      902518DF 
  94 004c A049C415 		.ascii	"\240I\304\025\343#\004\225\025\215\273B|\260\347\334"
  94      E3230495 
  94      158DBB42 
  94      7CB0E7DC 
  95 005c 7ED8CC4C 		.ascii	"~\330\314L/SKI\317\234\276\347\236s\356\367}\347\330"
  95      2F534B49 
  95      CF9CBEE7 
  95      9E73EEF7 
  95      7DE7D8
  96 006f 8D9371F6 		.ascii	"\215\223q\366\273T\306\032\200\261:\306\030$2\340\233"
  96      BB54C61A 
  96      80B13AC6 
  96      182432E0 
  96      9B
  97 0080 4E31B646 		.ascii	"N1\266F\346\334sAa\252G\352|\206\251I\222n9\204\345"
  97      E6DC7341 
  97      61AA47EA 
  97      7C86A949 
  97      926E3984 
  98 0095 D02DA7B0 		.ascii	"\320-\247\260\234\272\345\022\226K\267\334\302r\353"
  98      9CBAE512 
  98      964BB7DC 
  98      C272EB
  99 00a4 962C2C99 		.ascii	"\226,,\231{\016\340\247'\241\017\357%%\200GK\345\001"
  99      7B0EE0A7 
  99      27A10FEF 
  99      25258047 
  99      4BE501
 100 00b7 A02FAA0C 		.ascii	"\240/\252\014\254\202K\016\247\313-'x\240\002\336\221"
 100      AC824B0E 
 100      A7CB2D27 
 100      78A002DE 
 100      91
 101 00c8 1A24E8A9 		.ascii	"\032$\350\251\376i?/hS\361\247\273a$-\244\236Q\245\260"
 101      FE693F2F 
 101      6853F1A7 
 101      BB61242D 
 101      A49E51A5 
 102 00dd C45813FE 		.ascii	"\304X\023\376\322\017\264A\001C\277\263U{\267Ju\270"
 102      D20FB441 
 102      0143BFB3 
 102      557BB74A 
 102      75B8
 103 00ef 04E040F3 		.ascii	"\004\340@\363\356\311\367\257%\223\311\301\213\346\216"
 103      EEC9F7AF 
 103      2593C9C1 
 103      8BE68E
 104 00fe A1AE3BC9 		.ascii	"\241\256;\311\322K@\236\003C\007\273\246\344\265\250"
 104      D24B409E 
 104      034307BB 
 104      A6E4B5A8 
ARM GAS  /tmp/ccklYm9V.s 			page 8


 105 010e 6AA5DA7D 		.ascii	"j\245\332}\352x\332\273k\325#\252#,I\360\021H\030\025"
 105      EA78DABB 
 105      6BD523AA 
 105      232C49F0 
 105      11481815 
 106 0122 3E842CD8 		.ascii	">\204,\330\011Y\":\272\357\252\034\034\226\244\227\305"
 106      0959223A 
 106      BAEFAA1C 
 106      1C96A497 
 106      C5
 107 0133 D69BBD75 		.ascii	"\326\233\275uG$}\353\245\315\222\272C\345\264\361\357"
 107      47247DEB 
 107      A5CD92BA 
 107      43E5B4F1 
 107      EF
 108 0144 31375EDD 		.ascii	"17^\335\367\344\275).\007\354\206<\330\005yZ\305\260"
 108      F7E4BD29 
 108      2E07EC86 
 108      3CD80579 
 108      5AC5B0
 109 0157 075C0836 		.ascii	"\007\\\0106\320\235\217\317A\267\372d\274Z\355\376\346"
 109      D09D8FCF 
 109      41B7FA64 
 109      BC5AEDFE 
 109      E6
 110 0168 0FFD1DE3 		.ascii	"\017\375\035\343\031\277u\2600\036\237..\2748e\372\346"
 110      19BF75B0 
 110      301E9F2E 
 110      2EBC3865 
 110      FAE6
 111 017a C18B2B89 		.ascii	"\301\213+\211\314dF\233R\310N\245K\032-\247\323J\006"
 111      CC64469B 
 111      52C84EA5 
 111      4B1A2DA7 
 111      D34A06
 112 018d 99D3E932 		.ascii	"\231\323\3512\203\314\231t\311$s6]\346\220\231-6{\311"
 112      83CC9974 
 112      C9247336 
 112      5DE69099 
 112      2D367BC9 
 113 01a1 9E4B975C 		.ascii	"\236K\227\\\332<\217V\362\310\234O\227|2\013\350\333"
 113      DA3C8F56 
 113      F2C89C4F 
 113      977C320B 
 113      E8DB
 114 01b3 02BA28E4 		.ascii	"\002\272(\344\302X\015\226M\364\324J\234>\245!\250\274"
 114      C2580D96 
 114      4DF4D44A 
 114      9C3EA521 
 114      A8BC
 115 01c5 FFF38122 		.ascii	"\377\363\201\":\010\036\262~]\317i7\341\354\026\000"
 115      3A081EB2 
 115      7E5DCF69 
 115      37E1EC16 
 115      00
 116 01d6 EDDF7FBB 		.ascii	"\355\337\177\273\337]\361X\225\361F\213\244\341P;\322"
 116      DF5DF158 
ARM GAS  /tmp/ccklYm9V.s 			page 9


 116      95F1468B 
 116      A4E1503B 
 116      D2
 117 01e7 F789270C 		.ascii	"\367\211'\014!\010K2\354E^?&\214`\037\204\001W;z\017"
 117      21084B32 
 117      EC455E3F 
 117      268C601F 
 117      8401573B 
 118 01fd AF972980 		.ascii	"\257\227)\200\014\000\355\270\202\361;\307\306w\266"
 118      0C00EDB8 
 118      82F13BC7 
 118      C677B6
 119 020c 3E6B4258 		.ascii	">kBX\245\221\377(m\226\200\257I\002\013\274\014>\001"
 119      A591FF28 
 119      6D9680AF 
 119      49020BBC 
 119      0C3E01
 120 021f 97056FCD 		.ascii	"\227\005o\315\371\341\240\202+\035\344\314'8\177J\316"
 120      F9E1A082 
 120      2B1DE4CC 
 120      27387F4A 
 120      CE
 121 0230 F019B842 		.ascii	"\360\031\270BR\256\265\374\204\310\362\023Z0\215\340"
 121      52AEB5FC 
 121      84C8F213 
 121      5A308DE0 
 122 0240 FCC4F95E 		.ascii	"\374\304\371^\275|\017|\201\345\177N\345\343B\335\027"
 122      BD7C0F7C 
 122      81E57F4E 
 122      E5E342DD 
 122      17
 123 0251 7BDF9695 		.ascii	"{\337\226\225\335\224\257yWkVXJ\204\375x\246F<\266H"
 123      DD94AF79 
 123      576B5658 
 123      4A84FD78 
 123      A6463CB6 
 124 0266 832E8736 		.ascii	"\203.\2076\234\335a\270|\204\001\034\320\011J#\006\026"
 124      9CDD61B8 
 124      7C84011C 
 124      D0094A23 
 124      0616
 125 0278 0EF02528 		.ascii	"\016\360%(\342\270C\007?L\246bC\322\014kM\016Q\323\203"
 125      E2B84307 
 125      3F4CA662 
 125      43D20C6B 
 125      4D0E51D3 
 126 028d C3C7DE4A 		.ascii	"\303\307\336J\322\362'a\321p@O\337z\275r\217[\213\355"
 126      D2F22761 
 126      D170404F 
 126      DF7ABD72 
 126      8F5B8BED 
 127 02a1 25117E25 		.ascii	"%\021~%rs\015\017\350\302\3207\240\362Jm\327Q\227\320"
 127      72730D0F 
 127      E8C2D037 
 127      A0F24A6D 
 127      D75197D0 
 128 02b5 1CAA9061 		.ascii	"\034\252\220a\262\265\365\353\0377\014\003\335\012I"
ARM GAS  /tmp/ccklYm9V.s 			page 10


 128      B2B5F5EB 
 128      1F370C03 
 128      DD0A49
 129 02c4 7AC243E3 		.ascii	"z\302C\343\017\272S(\241\0238\034\324(\250O\320\011"
 129      0FBA5328 
 129      A113381C 
 129      D428A84F 
 129      D009
 130 02d6 36D2AFD1 		.ascii	"6\322\257\321\362\304(\341y\312\336\255g\307\263\377"
 130      F2C428E1 
 130      79CADEAD 
 130      67C7B3FF 
 131 02e6 03140CCD 		.ascii	"\003\024\014\315n\301\272\346\226\017\234Z&\317Dp\247"
 131      6EC1BAE6 
 131      960F9C5A 
 131      26CF4470 
 131      A7
 132 02f7 34498452 		.ascii	"4I\204R\017TP\230O\253O\354\363P~\027J\340k\310\302"
 132      0F545098 
 132      4FAB4FEC 
 132      F3507E17 
 132      4AE06BC8 
 133 030c 5BBB6BD5 		.ascii	"[\273k\325\333\316\034_Xm\304\234\311\344\3249\262a"
 133      DBCE1C5F 
 133      586DC49C 
 133      C9E4D439 
 133      B261
 134 031e 0C7077A3 		.ascii	"\014pw\243(#\005z!\207B38\004\025ai*\273\016U\375\213"
 134      2823057A 
 134      21874233 
 134      38041561 
 134      692ABB0E 
 135 0335 9F263341 		.ascii	"\237&3A\304n\203o\364\246\254\305\254\235\317h\012>"
 135      C46E836F 
 135      F4A6ACC5 
 135      AC9DCF68 
 135      0A3E
 136 0347 69287852 		.ascii	"i(xR\311\0366%{D\223\254\211\227\214x\035\025x\021\254"
 136      C91E3625 
 136      7B4493AC 
 136      89978C78 
 136      1D157811 
 137 035c 4D455AFA 		.ascii	"MEZ\372$\015US\330N<\3251\364\272\005U\315\257k.\311"
 137      240D5553 
 137      D84E3CD5 
 137      31F4BA05 
 137      55CDAF6B 
 138 0372 13F3A636 		.ascii	"\023\363\2466Q\243\301q\204\003\267\207\2454\242\316"
 138      51A3C171 
 138      8403B787 
 138      A534A2CE 
 139 0382 2B68C3A6 		.ascii	"+h\303\246Ew\312\320Q\275q\3134m{\012\336\302$\004\261"
 139      4577CAD0 
 139      51BD71CB 
 139      346D7B0A 
 139      DEC22404 
 140 0397 57BB931A 		.ascii	"W\273\223\032\023\337\023\"`\012\256\015\376r\267;9"
ARM GAS  /tmp/ccklYm9V.s 			page 11


 140      13DF1322 
 140      600AAE0D 
 140      FE72B73B 
 140      39
 141 03a8 E74D0DCF 		.ascii	"\347M\015\317t:\342\345:u\253d\342\231\001'\015<OE\341"
 141      743AE2E5 
 141      3A75AB64 
 141      E2990127 
 141      0D3C4F45 
 142 03bd 996A01D0 		.ascii	"\231j\001\320\301\356$J\266-\332\236\356\324[tb\327"
 142      C1EE244A 
 142      B62DDA9E 
 142      EED45B74 
 142      62D7
 143 03cf 9D165D77 		.ascii	"\235\026]w\206\202\245\305\323fgc\267\331\225\361\226"
 143      8682A5C5 
 143      D3666763 
 143      B7D995F1 
 143      96
 144 03e0 69BD1235 		.ascii	"i\275\0225\3329\243\321N\3335\332\267z\243\221\003\364"
 144      DA39A3D1 
 144      4EDB35DA 
 144      B77AA391 
 144      03F4
 145 03f2 E98D36B6 		.ascii	"\351\2156\266\375\263g\2653\245\307\224v\232mw\235\177"
 145      FDB367B5 
 145      33A5C794 
 145      769A6D77 
 145      9D7F
 146 0404 AAEF0B22 		.ascii	"\252\357\013\"\030\362\241wQ\206h\244t\013\033\323c"
 146      18F2A177 
 146      518668A4 
 146      740B1BD3 
 146      63
 147 0415 B2F19D60 		.ascii	"\262\361\235`##.u\177o\260\361C\024\033\323-l8\331\031"
 147      23232E75 
 147      7F6FB0F1 
 147      43141BD3 
 147      2D6C38D9 
 148 042a 873D1B1D 		.ascii	"\207=\033\0356l\\\024l\364S09\0366.M\306\306?\0156."
 148      366C5C14 
 148      6CF45330 
 148      391E362E 
 148      4DC6C63F 
 149 0441 DAB17159 		.ascii	"\332\261qYg\203\034`\300`\243\307`cfL6d[6\256\210\204"
 149      67831C60 
 149      C060A3C7 
 149      6063664C 
 149      36645B36 
 150 0458 E2FFD31F 		.ascii	"\342\377\323\037#\330\310\024\0158\323\302\306\354\230"
 150      23D8C814 
 150      0D38D3C2 
 150      C6EC98
 151 0467 6C5C156C 		.ascii	"l\\\025ld\342Z\367\303\266\033R\316v\320\350\230F\371"
 151      64E25AF7 
 151      C3B61B52 
 151      CE76D0E8 
ARM GAS  /tmp/ccklYm9V.s 			page 12


 151      9846F9
 152 047a 4EFE7074 		.ascii	"N\376pt$\311\244c:\\3\350\270\036E\307l\013\035.6\010"
 152      24C9A463 
 152      3A5C33E8 
 152      B81E45C7 
 152      6C0B1D2E 
 153 0490 DA74B91C 		.ascii	"\332t\271\034\367t\271aN\227\237\264\351\322soo[\222"
 153      F774B961 
 153      4E979FB4 
 153      E9D2736F 
 153      6F5B92
 154 04a3 365DB06F 		.ascii	"6]\260o\215\351\2621\244O\2279\332t1\275\234\350\365"
 154      8DE9B231 
 154      A44F9739 
 154      DA7431BD 
 154      9CE8F5
 155 04b6 F3C4E992 		.ascii	"\363\304\351\222\035s\272\014\211\003\317\211\236.\331"
 155      1D73BA0C 
 155      8903CF89 
 155      9E2ED9
 156 04c5 1A7EA190 		.ascii	"\032~\241\220>]\274\002\301l\013\202sc\"xS\004\364\306"
 156      3E5DBC02 
 156      C16C0B82 
 156      73632278 
 156      5304F4C6 
 157 04d9 355D6E19 		.ascii	"5]n\031\000\336\216\002p\256\005@7\273\310\354\365\334"
 157      00DE8E02 
 157      70AE0540 
 157      37BBC8EC 
 157      F5DC
 158 04eb 67A3E761 		.ascii	"g\243\347a\241\347\177Q0g<z\2763\231\236G\014=\017\333"
 158      A1E77F51 
 158      30673C7A 
 158      BE33999E 
 158      470C3D0F 
 159 0500 E9F9AEAE 		.ascii	"\351\371\256\256gr\200{\246\236;u=\317\213\251g\247"
 159      6772807B 
 159      A69E3B75 
 159      3DCF8BA9 
 159      67A7
 160 0512 AD9E7F79 		.ascii	"\255\236\177y:]\356G\3509OP>\317\302\306\374\230l\374"
 160      3A5DEE47 
 160      E8394F50 
 160      3ECFC2C6 
 160      FC986CFC 
 161 0526 5BB09117 		.ascii	"[\260\221\027\327t\371\217\301\306\203(6\346[\330\220"
 161      D774F98F 
 161      C1C68328 
 161      36E65BD8 
 161      90
 162 0537 59AE3D19 		.ascii	"Y\256=\031\027l\310\030\025d\214Q,G<d\374:\031\031\017"
 162      176CC818 
 162      15648C51 
 162      2C473C64 
 162      FC3A1919 
 163 054c 0D3246ED 		.ascii	"\0152F\355\310x\244\223A\016\360\330 \343\252AF~L2\034"
 163      C878A493 
ARM GAS  /tmp/ccklYm9V.s 			page 13


 163      410EF0D8 
 163      20E3AA41 
 163      467E4C32 
 164 0561 B6643C79 		.ascii	"\266d<y:\\\306#\310(\020d\344[\310X\020\223\014\225"
 164      3A5CC623 
 164      C8281064 
 164      E45BC858 
 164      10930C95 
 165 0575 131905B8 		.ascii	"\023\031\005\270\266\271f\264\306\223s\\\037.3(_\337"
 165      B6B966B4 
 165      C693735C 
 165      1F2E3328 
 165      5FDF
 166 0587 E7975A9D 		.ascii	"\347\227Z\235&\0333a\015\327\331\250\344\221l,\260\260"
 166      261B3361 
 166      0DD7D9A8 
 166      E4916C2C 
 166      B0B0
 167 0599 91C0A669 		.ascii	"\221\300\246i\263\345N\334\263e-7fK\025\027\263\305"
 167      B3E54EDC 
 167      B3652D37 
 167      664B1517 
 167      B3C5
 168 05ab 7C4992C1 		.ascii	"|I\222\301\001\353x\026N\002\301^\353\261s\007\023\245"
 168      01EB7816 
 168      4E02C15E 
 168      EBB17307 
 168      13A5
 169 05bd 5B201E38 		.ascii	"[ \0368\3577\356\333\231\240\277\344\014t\345oY{|\203"
 169      EF37EEDB 
 169      99A0BFE4 
 169      0C74E56F 
 169      597B7C83 
 170 05d1 DA5C3935 		.ascii	"\332\\95,e\302z\036\365\242\003\325\234DW=\244~\345"
 170      2C65C27A 
 170      1EF5A203 
 170      D59C4457 
 170      3DA47EE5 
 171 05e5 A0C899E0 		.ascii	"\240\310\231\340\205\2670\362M\250\274\332\366A\347"
 171      85B730F2 
 171      4DA8BCDA 
 171      F641E7
 172 05f4 00440AE7 		.ascii	"\000D\012\347\236)\034g\344S\373`\377s\227\020\207\267"
 172      9E291C67 
 172      E453FB60 
 172      FF739710 
 172      87B7
 173 0606 392EBA22 		.ascii	"9.\272\"\027\373\273\362\267J\224\215A\0159\270'\310"
 173      17FBBBF2 
 173      B74A948D 
 173      410D39B8 
 173      27C8
 174 0618 AE9693EC 		.ascii	"\256\226\223\3546pz\334c\2178.m\017\267\217zr6J\032"
 174      36707ADC 
 174      638F382E 
 174      6D0FB78F 
 174      7A72364A 
ARM GAS  /tmp/ccklYm9V.s 			page 14


 175 062d F2B3C87B 		.ascii	"\362\263\310{\367\265/U\331\201m\006\033y\216\200k\344"
 175      F7B52F55 
 175      D9816D06 
 175      1B798E80 
 175      6BE4
 176 063f 765F3FC7 		.ascii	"v_?\307;P\307\035\242l\006\357p\322\355\316\256\257"
 176      3B50C71D 
 176      A26C06EF 
 176      70D2EDCE 
 176      AEAF
 177 0651 6F24E56C 		.ascii	"o$\345l\322w\317&\337{{\332\317'\212\335\233h7l\346"
 177      D277CF26 
 177      DF7B7BDA 
 177      CF278ADD 
 177      9B68376C 
 178 0666 0E314905 		.ascii	"\0161I\005\004\314\376\275\345\276M\247\274+J\376\013"
 178      04CCFEBD 
 178      E5BE4DA7 
 178      BC2B4AFE 
 178      0B
 179 0677 479E9578 		.ascii	"G\236\225x:\345\257|\222Ny\217\353\235B\221cvJ=\327"
 179      3AE5AF7C 
 179      924E798F 
 179      EB9D4291 
 179      63764A3D 
 180 068c 3A851CA0 		.ascii	":\205\034\240\201\213N\251\037\353\351\272(\305x\332"
 180      818B4EA9 
 180      1FEBE9BA 
 180      28C578DA 
 181 069c 6F6E0726 		.ascii	"on\007&ZE\261m\225Fn\316\255&\256\320#)\005\034z8\224"
 181      5A45B16D 
 181      95466ECE 
 181      AD26AED0 
 181      2329051C 
 182 06b3 F2FFC57B 		.ascii	"\362\377\305{\237\233\255\267E\213\247\013\324\252I"
 182      9F9BADB7 
 182      458BA70B 
 182      D4AA49
 183 06c2 14C2B696 		.ascii	"\024\302\266\226\365\352\2465\262\235$\267\012I\232"
 183      F5EAA635 
 183      B29D24B7 
 183      0A499A
 184 06d1 AF009978 		.ascii	"\257\000\231x\342\320\377\222\344\250\311\220<\201\241"
 184      E2D0FF92 
 184      E4A8C990 
 184      3C81A1
 185 06e0 6D3CFACD 		.ascii	"m<\372\315r\260?\177\000\301\013\223\004\023\2425\372"
 185      72B03F7F 
 185      00C10B93 
 185      0413A235 
 185      FA
 186 06f1 E23689D2 		.ascii	"\3426\211\3223h\216\326\350\337\004\341\333-\032}\022"
 186      33688ED6 
 186      E8DF04E1 
 186      DB2D1A7D 
 186      12
 187 0702 FEB12BD1 		.ascii	"\376\261+\321\220_H\310\257E\310/Rk;L\255Qp1\017<\342"
ARM GAS  /tmp/ccklYm9V.s 			page 15


 187      905F48C8 
 187      AF45C82F 
 187      526B3B4C 
 187      AD517031 
 188 0719 6D7C18B8 		.ascii	"m|\030\270\366w\220\032\344\025o\240\365\342\302\205"
 188      F677901A 
 188      E4156FA0 
 188      F5E2C285 
 189 0729 8AF6AFCC 		.ascii	"\212\366\257\314\037,S\002eJ\260\264<\340\363\033f!"
 189      1F2C5302 
 189      654AB0B4 
 189      3CE0F31B 
 189      6621
 190 073b 7D1606FD 		.ascii	"}\026\006\375\177.\367\227\370\374\205\213\026\275\260"
 190      7F2EF797 
 190      F8FC858B 
 190      16BDB0
 191 074a D0C7F8CA 		.ascii	"\320\307\370\312\3378V\006\212Js\315\315\245A\332ZT"
 191      DF385606 
 191      8A4A73CD 
 191      CDA541DA 
 191      5A54
 192 075c E25B51BE 		.ascii	"\342[Q\276\314\257\370\226\227-\017\370_[\026\\\270"
 192      CCAFF896 
 192      972D0FF8 
 192      5F5B165C 
 192      B8
 193 076d 9CCD2A2F 		.ascii	"\234\315*/\361\257Z\351\367\225\371\227yiO\240\250l"
 193      F1AF5AE9 
 193      F795F997 
 193      79694FA0 
 193      A86C
 194 077f B57785FF 		.ascii	"\265w\205\377\015\377\012\226kY\012\370\313\312\003"
 194      0DFF0A96 
 194      6B590AF8 
 194      CBCA03
 195 078e 25D13EF9 		.ascii	"%\321>\371\261|0\366\212H\307\354\011\216\321\353\356"
 195      B17C30F6 
 195      8A48C7EC 
 195      098ED1EB 
 195      EE
 196 079f D75F0BFA 		.ascii	"\327_\013\372\377\030(z\336Z\263\257\264\270\270\264"
 196      FF18287A 
 196      DE5AB3AF 
 196      B4B8B8B4 
 197 07af 4459591A 		.ascii	"DYY\032(\013*\277\177u\311\342%\253\260x_i\300_\370"
 197      280B2ABF 
 197      7F75C9E2 
 197      25ABB078 
 197      5F69C05F 
 198 07c4 C64BC558 		.ascii	"\306K\305X\375\3131\274\375\253\312\310"
 198      FDCB31BC 
 198      FDABCAC8 
 199 07d0 5759BC64 		.ascii	"WY\274d\351+K\225\305\350\254\274b\034\2748X\024,\374"
 199      E92B4B95 
 199      C5E8ACBC 
 199      621CBC38 
ARM GAS  /tmp/ccklYm9V.s 			page 16


 199      58142CFC 
 200 07e4 93CF875B 		.ascii	"\223\317\207[\263m\301\011\256&`\246.Y\372\252\227\212"
 200      B36DC109 
 200      AE2660A6 
 200      2E59FAAA 
 200      978A
 201 07f6 C2429FF3 		.ascii	"\302B\237\363\346-b<\300\334\305\376\342\322\300j\366"
 201      E62D623C 
 201      C0DCC5FE 
 201      E2D2C06A 
 201      F6
 202 0807 5FD8F311 		.ascii	"_\330\363\021B"
 202      42
 203              		.text
 204              		.section	.gnu.lto_rt_test_003_003_execute.e7f7340bf6f0acce,"",%progbits
 205 0000 789C8D96 		.ascii	"x\234\215\226\353O\024W\024\300\357\231;3;\302\262\024"
 205      EB4F1457 
 205      14C0EF99 
 205      3B333BC2 
 205      B214
 206 0012 44029498 		.ascii	"D\002\224\230%\206\017\366\003k\323&M\232~\353\177\320"
 206      25860FF6 
 206      036BD326 
 206      4D9A7EEB 
 206      7FD0
 207 0024 7F80B4CB 		.ascii	"\177\200\264\313\244\220\020\240\313\322\264\351\007"
 207      A49010A0 
 207      CBD2B4E9 
 207      07
 208 0031 A688D28A 		.ascii	"\246\210\322\212\241\217\244\010\215tl\200\370\240\010"
 208      A18FA408 
 208      8D746C80 
 208      F8A008
 209 0040 166C616B 		.ascii	"\026laka\245 \324\212\202Uk\001\321*J\261\032551\306"
 209      61A520D4 
 209      8A82556B 
 209      01D12A4A 
 209      B11A3535 
 210 0056 2A3DE7DE 		.ascii	"*=\347\336\331\355\340\356Z&\2733\367q\336\3477wWc\012"
 210      D9EDE0EE 
 210      5A26BB33 
 210      F771DEE7 
 210      37775763 
 211 006b EB3218FB 		.ascii	"\3532\030\373\2321\366\006~\301\303@\371\3644c\037\032"
 211      9A31F606 
 211      7EC1C340 
 211      F9F43463 
 211      1F1A
 212 007d 8AA25F08 		.ascii	"\212\242_\0100+\215G63\313\313\235\231*f\2523\323\304"
 212      302B8D47 
 212      3633CBCB 
 212      9D992A66 
 212      AA33D3C4 
 213 0091 4C035DAA 		.ascii	"L\003]\252\350\0004\260\014`\365\012W5\035\352\341\023"
 213      E80034B0 
 213      0C60F50A 
 213      57351DEA 
ARM GAS  /tmp/ccklYm9V.s 			page 17


 213      E113
 214 00a3 BE87C358 		.ascii	"\276\207\303X\323\215ae\353~\013\257\350\236\326\314"
 214      D38D6165 
 214      EB7E0BAF 
 214      E89ED6CC 
 215 00b3 0E6BC6E2 		.ascii	"\016k\306\3426g\254\035\277t\301~\330\312Pn\266\261"
 215      3667AC1D 
 215      BF74C17E 
 215      D8CA506E 
 215      B6B1
 216 00c5 7F2F6FC1 		.ascii	"\177/o\301-\000\025\247\367\246\277\274\346\243\251"
 216      2D0015A7 
 216      F7A6BFBC 
 216      E6A3A9
 217 00d4 027E9C76 		.ascii	"\002~\234v\255\214\334\361\361W\200$/\257\214\216d\024"
 217      AD8CDCF1 
 217      F1578024 
 217      2FAF8C8E 
 217      6414
 218 00e6 775A5683 		.ascii	"wZV\203\025\275q,\373\363\355\326\224\245\332\234\303"
 218      15BD712C 
 218      FBF3EDD6 
 218      94A5DA9C 
 218      C3
 219 00f7 21E06815 		.ascii	"!\340h\025\016B!\034\200Ba\035\305{\032\226os\376\252"
 219      0E42211C 
 219      8042611D 
 219      C57B1A96 
 219      6F73FEAA 
 220 010b 50BD39DE 		.ascii	"P\2759\3362\305\035\325\205\317\270\325e)\244\370MR"
 220      32C51DD5 
 220      85CFB8D5 
 220      6529A4F8 
 220      4D52
 221 011d C5AB479E 		.ascii	"\305\253G\236|\221\241\253\320\013\305\320\003\3052"
 221      7C91A1AB 
 221      D00BC5D0 
 221      03C532
 222 012c 62380C3A 		.ascii	"b8\014:\340\203V\372\316B\324z\262\332dE\027_\233\037"
 222      E08356FA 
 222      CE42D47A 
 222      B2DA6445 
 222      175F9B1F 
 223 0140 FC67E3F3 		.ascii	"\374g\343\363*\2631u\274iXK\0240p\250\247\321-\235\026"
 223      2AB33175 
 223      BC69584B 
 223      143070A8 
 223      A7D12D9D 
 224 0155 BD34F2D1 		.ascii	"\2754\362\321-Klg\3230\207n\233H1\227Fy$\230O\323\002"
 224      2D4B6C67 
 224      D330876E 
 224      9B483197 
 224      46792498 
 225 016c 1A31B60B 		.ascii	"\0321\266\013\275Re\233\271BO\276\002\015\367\377\274"
 225      BD52659B 
 225      B9424FBE 
 225      020DF7FF 
ARM GAS  /tmp/ccklYm9V.s 			page 18


 225      BC
 226 017d F836C581 		.ascii	"\3706\305\2011\266\356\030;\343\2412yD~\303\303\267"
 226      31B6EE18 
 226      3BE3A132 
 226      79447EC3 
 226      C3B7
 227 018f E63DF58F 		.ascii	"\346=\365\217-\003\027:\271L\243\371\356\271\2014\033"
 227      2D03173A 
 227      B94CA3F9 
 227      EEB98134 
 227      1B
 228 01a0 3AC0E606 		.ascii	":\300\346\006\364c[\372(E8\0026\340\356\340\370\344"
 228      F4635BFA 
 228      28453802 
 228      36E0EEE0 
 228      F8E4
 229 01b2 4E830C18 		.ascii	"N\203\014\030\000\360-\356\240\375\310\303\325\003\335"
 229      00F02DEE 
 229      A0FDC8C3 
 229      D503DD
 230 01c1 2FC42BD0 		.ascii	"/\304+\320({7\230Y \262o\347\340\252\016\203\001\320"
 230      287B3798 
 230      5920B26F 
 230      E7E0AA0E 
 230      8301D0
 231 01d4 5DE592C2 		.ascii	"]\345\222\302\217\226\003\2703H\302\312\032\341\243"
 231      8F9603B8 
 231      3348C2CA 
 231      1AE1A3
 232 01e3 240CDF81 		.ascii	"$\014\337\201\336\3017\271\303\337\360t\370\033:\321"
 232      DEC137B9 
 232      C3DFF074 
 232      F81B3AD1 
 233 01f3 8D68D9A9 		.ascii	"\215h\331\251\363\343N\370i0\204\341\177O\341\343F\313"
 233      F3E34EF8 
 233      693084E1 
 233      7F4FE1E3 
 233      46CB
 234 0205 50FFC746 		.ascii	"P\377\307F\240\227\374\355\353\351.\264y:\014cNm\230"
 234      A097FCED 
 234      EBE92EB4 
 234      793A0C63 
 234      4E6D98
 235 0218 B6708322 		.ascii	"\266p\203\"\023\273g\273b\"\207\320\200\012\021\010"
 235      13BB67BB 
 235      622287D0 
 235      800A1108 
 236 0228 B4A16121 		.ascii	"\264\241a!\000?@@\244\2732z\320G\301v\360twL\252\210"
 236      003F4040 
 236      A4BB327A 
 236      D047C176 
 236      F074774C 
 237 023e E9C1E4C9 		.ascii	"\351\301\344\311\217\274\322\277\027\203\206c\216\373"
 237      8FBCD2BF 
 237      17838663 
 237      8EFB
 238 024c EEA586C3 		.ascii	"\356\245\206\303\036i\333O\014\375(|+\262\0360\202\246"
ARM GAS  /tmp/ccklYm9V.s 			page 19


 238      1E69DB4F 
 238      0CFD287C 
 238      2BB21E30 
 238      82A6
 239 025e AF43C395 		.ascii	"\257C\303\225\346\271I] \203\0201t\266\275u\347\321"
 239      E6B9495D 
 239      20831031 
 239      74B6BD75 
 239      E7D1
 240 0270 0F68A183 		.ascii	"\017h\241\203k\322]\274\001\0326`\024\215\377\005\215"
 240      6BD25DBC 
 240      011A3660 
 240      148DFF05 
 240      8D
 241 0281 FBDE9222 		.ascii	"\373\336\222\"\236\2655\311h\347\224\\\024\352\031\252"
 241      9EB535C9 
 241      68E7945C 
 241      14EA19AA 
 242 0291 DBDC472E 		.ascii	"\333\334G.\374\302<\322\204\342\344`\260i\372Q\216T"
 242      FCC23CD2 
 242      84E2E460 
 242      B069FA51 
 242      8E54
 243 02a3 3770099D 		.ascii	"7p\011\235\240\305\035~\271\222\266\326`f;W\321\340"
 243      A0C51D7E 
 243      B992B6D6 
 243      60663B57 
 243      D1E0
 244 02b5 7161D0C0 		.ascii	"qa\320\300\275\345\277\357E}EA\333j\303\234\236\243"
 244      BDE5BFEF 
 244      457D4541 
 244      DB6AC39C 
 244      9EA3
 245 02c7 34175BAC 		.ascii	"4\027[\254\275\034\245\333D\232Y0\006Ed\212\301OPo\363"
 245      BD1CA5DB 
 245      449A5930 
 245      0645648A 
 245      C14F506F 
 246 02dc 6CB6048D 		.ascii	"l\266\004\215\363\257\377g<^<|I`\334y\227\2321\354\310"
 246      F3AFFF67 
 246      3C5E3C7C 
 246      4960DC79 
 246      979A31EC 
 247 02f1 669E92AC 		.ascii	"f\236\222\254H\246\226\224\254\211$d\255.\007\272\360"
 247      48A69694 
 247      AC892464 
 247      AD2E07BA 
 247      F0
 248 0302 553D9188 		.ascii	"U=\221\210\326\244@k\212\"Q\327\303\322\317\317f\351"
 248      D6A4406B 
 248      8A2251D7 
 248      C3D2CFCF 
 248      66E9
 249 0314 648CA5C9 		.ascii	"d\214\245\311T,\375\342\260D\002p\312\315\322\011\012"
 249      542CFDE2 
 249      B0440270 
 249      CACDD209 
ARM GAS  /tmp/ccklYm9V.s 			page 20


 249      0A
 250 0325 222F011E 		.ascii	"\"/\001\0365%<\3231x(e8-la'\373\356\177\245\311\332"
 250      35253CD3 
 250      31782865 
 250      382D6C61 
 250      27FBEE7F 
 251 033c 7A052F79 		.ascii	"z\005/y\256V\372\222\266\362\214h\245\027\367z\233\255"
 251      AE56FA92 
 251      B6F28C68 
 251      A517F77A 
 251      9BAD
 252 034e 5B5A5113 		.ascii	"[ZQ\023\310^n$\257\221\273\273\037B\274\22790\023\353"
 252      C85E6E24 
 252      AF91BBBB 
 252      1F42BC97 
 252      393013EB 
 253 0362 E56C422F 		.ascii	"\345lB/}\256\346\251\354N\272<vn\306\216\235\377=g\316"
 253      7DAEE6A9 
 253      EC4EBA3C 
 253      766EC68E 
 253      9DFF3D67 
 254 0377 C6CF995F 		.ascii	"\306\317\231_\34593\261\372 \232)\317\031\005\3169\230"
 254      E53933B1 
 254      FA209A29 
 254      CF1905CE 
 254      3998
 255 0389 0FD879D2 		.ascii	"\017\330y\322]VR\320\317\213d<\211\240g\311\362\\z\354"
 255      5D5652D0 
 255      CF8B643C 
 255      89A067C9 
 255      F25C7AEC 
 256 039d 809E2DAA 		.ascii	"\200\236-\252\223\345\252NN\322\352\\\020\006\263\327"
 256      93E5AA4E 
 256      4ED2EA5C 
 256      1006B3D7 
 257 03ad 05FA6FB1 		.ascii	"\005\372o\261\342\\L(N\216\2538\032\233QS\223\275\220"
 257      E25C4C28 
 257      4E8EAB38 
 257      1A9B5153 
 257      93BD90
 258 03c0 82ECDF53 		.ascii	"\202\354\337S\223=\227H\366\274 {\201\\\347\257\207"
 258      933D9748 
 258      F6BC207B 
 258      815CE7AF 
 258      87
 259 03d1 EC4BCF26 		.ascii	"\354K\317&{1F\366|*\262/;d\223\000\\q\223=GA\024$\220"
 259      7B3146F6 
 259      7C2AB22F 
 259      3B649300 
 259      5C71933D 
 260 03ea 9D9F92EC 		.ascii	"\235\237\222\354?bdS\312p5N\366\220\355\220\235\213"
 260      3F626453 
 260      CA70354E 
 260      F690ED90 
 260      9D8B
 261 03fc 27149A8C 		.ascii	"'\024\232\214\367\216%\355\3345\321\271\334\365q\275"
 261      F78E25ED 
ARM GAS  /tmp/ccklYm9V.s 			page 21


 261      DC35D1B9 
 261      DCF571BD 
 262 040c 146BDD75 		.ascii	"\024k\335u\331:\352\223.~<o\203\"\377u\354\302\364p"
 262      D93AEA93 
 262      2E7E3C6F 
 262      8322FF75 
 262      ECC2F470 
 263 0420 01672F97 		.ascii	"\001g/\227\224\004\344'l\326\206\003\241p\240\266\272"
 263      9404E427 
 263      6CD68603 
 263      A170A0B6 
 263      BA
 264 0431 2E143463 		.ascii	".\0244c\323Rz\226\326\232\357\324\231UA\263t\333\266"
 264      D3527A96 
 264      D69AEFD4 
 264      995541B3 
 264      74DBB6
 265 0444 974A824C 		.ascii	"\227J\202L\251yQ\255\011UTo\211+W\327\222jEU\260\262"
 265      A97951AD 
 265      0955546F 
 265      892B57D7 
 265      926A4555 
 266 045a AECC0C04 		.ascii	"\256\314\014\004\313\303\345!\363\315\262\332\222r\266"
 266      CBC3E521 
 266      F3CDB2DA 
 266      9272B6
 267 0469 A5AECA7C 		.ascii	"\245\256\312|\257\306\014\206\3152\177\310\014\327\205"
 267      AFC60C86 
 267      CD327FC8 
 267      0CD785
 268 0478 AA7040CA 		.ascii	"\252p@\312\241\212\360\373\376J\363]\263\222\025\270"
 268      A18AF0FB 
 268      FE4AF35D 
 268      B39215B8 
 269 0488 649EDAFA 		.ascii	"d\236\332\372\027\364{\377\017"
 269      17F47BFF 
 269      0F
 270              		.text
 271              		.section	.gnu.lto_rt_test_003_002_execute.e7f7340bf6f0acce,"",%progbits
 272 0000 789C9DDA 		.ascii	"x\234\235\332yP\024\307\032\000\360\371\272w\221\000"
 272      795014C7 
 272      1A00F0F9 
 272      BA779100 
 273 0010 E2F17CEA 		.ascii	"\342\361|\352\363\241%\225\274\030\217\002-\237\226"
 273      F3A12595 
 273      BC188F02 
 273      2D9F96
 274 001f 15CB3F0C 		.ascii	"\025\313?\014\306J\312\322\262bYZ\276*\215A\242\250"
 274      C64ACAD2 
 274      B262595A 
 274      BE2A8D41 
 274      A2A8
 275 0031 CF543CF2 		.ascii	"\317T<\362\257\253\202w<b\344Pp\305\013\020QTTXQ\021"
 275      AFAB8277 
 275      3C62E450 
 275      70C50B10 
 275      51545458 
ARM GAS  /tmp/ccklYm9V.s 			page 22


 276 0047 6FC0FB8A 		.ascii	"o\300\373\212rx\241QQ\361\2127\362\372\353\231^\232"
 276      7278A151 
 276      51F18A37 
 276      F2FAEB99 
 276      5E9A
 277 0059 9DED7953 		.ascii	"\235\355ySK\311l\317lO\237\277o\252\247\305\251\021"
 277      4BC96CCF 
 277      6C4F9FBF 
 277      6FAAA7C5 
 277      A911
 278 006b 8D7EA169 		.ascii	"\215~\241is5M\213a\277\020\244\001YqF\323\346\004\023"
 278      73354D8B 
 278      61BF10A4 
 278      01597146 
 278      D3E60413 
 279 007f E2BC12AD 		.ascii	"\342\274\022\255\271B\250\247\223\346\012\243\306\231"
 279      B942A8A7 
 279      93E60AA3 
 279      C699
 280 008d 839F39C0 		.ascii	"\203\2379\300\251gr\002`\302\025\014\332lB\035N\230"
 280      A9677202 
 280      60C2150C 
 280      DA6C421D 
 280      4E98
 281 009f 0DCB6932 		.ascii	"\015\313i2\205\222\005\367\012I\327L\027\373)NN\012"
 281      859205F7 
 281      0A49D74C 
 281      17FB294E 
 281      4E0A
 282 00b1 4D779D73 		.ascii	"Mw\235sQ7\325\264T\366\213?\220\011]5\226\357\366\316"
 282      5137D5B4 
 282      54F68B3F 
 282      90095D35 
 282      96EFF6CE 
 283 00c5 8FAB9B07 		.ascii	"\217\253\233\0079\364\353\220\005A\300>w\\\200b\327"
 283      39F4EB90 
 283      0541C03E 
 283      775C8062 
 283      D7
 284 00d6 C78605AE 		.ascii	"\307\206\005\256\342\312\315\260o\330\177\035\232\233"
 284      E2CACDB0 
 284      6FD87F1D 
 284      9A9B
 285 00e4 82931D48 		.ascii	"\202\223\035H\020;\320`L\205\340\265P<\015\303C8^k\211"
 285      103BD060 
 285      4C85E0B5 
 285      503C0DC3 
 285      43385E6B 
 286 00f9 D75A61AA 		.ascii	"\327Za\2525^k\203\251\266x\255\035\236\266\307C\007"
 286      355E6B83 
 286      A9B678AD 
 286      1D9EB6C7 
 286      4307
 287 010b BC1681D7 		.ascii	"\274\026\201\327:b\252\023^\353\214\251\317\330\301"
 287      3A62AA13 
 287      5EEB8CA9 
 287      CFD8C1
ARM GAS  /tmp/ccklYm9V.s 			page 23


 288 011a F1399E76 		.ascii	"\3619\236v\301CW\274\326\035\017=\3604\012S=1\325\013"
 288      C14357BC 
 288      D61D0F3D 
 288      F0340A53 
 288      3D31D50B 
 289 012e 0FBDF1B4 		.ascii	"\017\275\361\264\017\036\372\342i?L}\211\251\376x\030"
 289      0F1EFAE2 
 289      693F4C7D 
 289      89A9FE78 
 289      18
 290 013f 80A703B1 		.ascii	"\200\247\003\261\274\030L\015\302k\2031\365\015\246"
 290      BC184C0D 
 290      C26B8331 
 290      F50DA6
 291 014e BEC5C310 		.ascii	"\276\305\303\020<\035\212\207ax:\034S\337aj\004\036"
 291      3C1D8A87 
 291      61783A1C 
 291      53DF616A 
 291      041E
 292 0160 46E2E928 		.ascii	"F\342\351(<\214\306\3231\230\032\213\251q\230\372\036"
 292      3C8CC6D3 
 292      31981A8B 
 292      A97198FA 
 292      1E
 293 0171 53E331F5 		.ascii	"S\3431\365\003\246b15\001Sq\230\372\021S\02315\011S"
 293      03A66231 
 293      35015371 
 293      98FA1153 
 293      13313509 
 294 0186 F1989A8C 		.ascii	"\361\230\232\214\251)\230\232\212)M[\314~q\332\226P"
 294      A929989A 
 294      8A294D5B 
 294      CC7E71DA 
 294      9650
 295 0198 829FF401 		.ascii	"\202\237\364\001\314}y\377l\034\216?\233\223\244\304"
 295      CC7D79FF 
 295      6C1C8E3F 
 295      9B93A4C4 
 296 01a8 92B3CD96 		.ascii	"\222\263\315\226\261\351r\002NQa\341\243\212f\263\353"
 296      B1E97202 
 296      4E5161E1 
 296      A38A66B3 
 296      EB
 297 01b9 5DC1ECC2 		.ascii	"]\301\354\302F\234&vm\311\323K\273C\334\220\016n\032"
 297      469C2676 
 297      6DC9D34B 
 297      BB43DC90 
 297      0E6E1A
 298 01cc 045BD9A4 		.ascii	"\004[\331\244gC\004\233\277\034p\003\3736\377\350\211"
 298      6743049B 
 298      BF1C7003 
 298      FB36FFE8 
 298      89
 299 01dd F9C15840 		.ascii	"\371\301X@\020\000lc\337\260\362\017>\270v,\004+H\247"
 299      10006C63 
 299      DFB0F20F 
 299      3EB8762C 
ARM GAS  /tmp/ccklYm9V.s 			page 24


 299      042B48A7 
 300 01f1 0EB98E66 		.ascii	"\016\271\216f\274\216y\357\016\275\010gu\264g\0276R"
 300      BC8E79EF 
 300      0EBD0867 
 300      75B46717 
 300      3652
 301 0203 E0759C5A 		.ascii	"\340u\234Z\2233\205U1\247\245\233\006\303vVG.\326\301"
 301      93338555 
 301      31A7A59B 
 301      06C37656 
 301      472ED6C1 
 302 0217 BEA84B7C 		.ascii	"\276\250K|\2678\254\327\016\327\012\227\253\263\233"
 302      B738ACD7 
 302      0ED70A97 
 302      ABB39B
 303 0226 7E023B58 		.ascii	"~\002;X\255\320-\202\263\312\203^X\233\247\260.\353"
 303      ADD02D82 
 303      B3CA835E 
 303      589BA7B0 
 303      2EEB
 304 0238 5F5E5E09 		.ascii	"_^^\011:\303]\241S9\261T\0122=\330\311\320k>\231\033"
 304      3AC35DA1 
 304      5339B154 
 304      0A323DD8 
 304      C9D06B3E 
 305 024e EE456FA2 		.ascii	"\356Eo\242\032\354\302\334\244I\356\335\230\033\362"
 305      1AECC2DC 
 305      A449EEDD 
 305      981BF2
 306 025d B123DDE5 		.ascii	"\261#\335\345\216\204\370\016V\310Fv'^{X~\371\2501X"
 306      8E84F80E 
 306      56C84676 
 306      275E7B58 
 306      7EF9A831 
 307 0272 A1B09775 		.ascii	"\241\260\227ud\217\321\221e\005y\213\202\243s\261\302"
 307      648FD191 
 307      6505798B 
 307      82A373B1 
 307      C2
 308 0283 F5399B23 		.ascii	"\3659\233#\3344\014\366\261\276\244\260A\346\325\260"
 308      DC340CF6 
 308      B1BEA4B0 
 308      41E6D5B0 
 309 0293 2CC7969E 		.ascii	",\307\226\236\337$\262le\005\020(\200\350\024\326\001"
 309      DF24B26C 
 309      65051028 
 309      80E814D6 
 309      01
 310 02a4 9E010A21 		.ascii	"\236\001\012!\232w\367\301\241\354pll:\375\\n\023\341"
 310      9A77F7C1 
 310      A1EC706C 
 310      6C3AFD5C 
 310      6E13E1
 311 02b7 6D7A7DA2 		.ascii	"mz}\242ta\230^\177s\326h\360\030\325o\256\231\273\275"
 311      7461985E 
 311      7F73D668 
 311      F018D56F 
ARM GAS  /tmp/ccklYm9V.s 			page 25


 311      AE99BBBD 
 312 02cb 995E361B 		.ascii	"\231^6\033\307p\330\317\353&\372\200@\021/z^\322\374"
 312      C770D8CF 
 312      EB26FA80 
 312      40112F7A 
 312      5ED2FC
 313 02de 1D3549DD 		.ascii	"\0355I\335\364\2113\212\317\274^S\322\002\213\247\360"
 313      F489338A 
 313      CFBC5E53 
 313      D2028BA7 
 313      F0
 314 02ef BEA1A1A1 		.ascii	"\276\241\241\241\005\034`\005\326B\212\313\241g\013"
 314      051C6005 
 314      D6428ACB 
 314      A1670B
 315 02fe 6E3A0E2D 		.ascii	"n:\016-R\221\034\034\204\331\232>\367\356\025\236\204"
 315      52911C1C 
 315      84D99A3E 
 315      F7EE159E 
 315      84
 316 030f E63A8F93 		.ascii	"\346:\217\223\004\016A\004+Y\272e!oN\313T\312\213\323"
 316      040E4104 
 316      2B59BA65 
 316      216F4ECB 
 316      54CA8BD3 
 317 0323 A01866B3 		.ascii	"\240\030f\263o_\234,z\025\026\371\037\267+\205}\331"
 317      6F5F9C2C 
 317      7A1516F9 
 317      1FB72B85 
 317      7DD9
 318 0335 8A77EB74 		.ascii	"\212w\353t\306\205OX\376\024\236\2775\034\206H\375\206"
 318      C6854F58 
 318      FE149EBF 
 318      351C8648 
 318      FD86
 319 0347 1298EDA6 		.ascii	"\022\230\355\246\177\303qI:\365\205\257\3516\276\323"
 319      7FC37149 
 319      3AF585AF 
 319      E936BED3 
 320 0357 D4662336 		.ascii	"\324f#6\257\3514\375\035\216\262i:b\214\323\376\213"
 320      AFE934FD 
 320      1D8EB269 
 320      3A628CD3 
 320      FE8B
 321 0369 D5990EE6 		.ascii	"\325\231\016\346\015\347`:\016\3521\011\334q\350\305"
 321      0DE7603A 
 321      0EEA3109 
 321      DC71E8C5 
 322 0379 7AAC0BBF 		.ascii	"z\254\013\277.\204\207\330!}\302\202\364I\254\241\273"
 322      2E8487D8 
 322      217DC282 
 322      F449ACA1 
 322      BB
 323 038a 5EC3290B 		.ascii	"^\303)\013\322\371\012\322\245j\322ef\322\345\234\364"
 323      D2F90AD2 
 323      A56AD265 
 323      66D2E59C 
ARM GAS  /tmp/ccklYm9V.s 			page 26


 323      F4
 324 039b 696C791F 		.ascii	"ily\037;\206\317X\033>+\014\227\253\014\2373\014c\006"
 324      3B86CF58 
 324      1B3E2B0C 
 324      97AB0C9F 
 324      330C6306 
 325 03af 382F1B2E 		.ascii	"8/\033.\303F\3644\241\355\243D{A\240\305.\303E/\332"
 325      C346F434 
 325      A1EDA344 
 325      7B41A0C5 
 325      2EC3452F 
 326 03c4 FB026D98 		.ascii	"\373\002m\230^\336\301W\211\277\350f?p\263\227\232\232"
 326      5EDEC157 
 326      89BFE866 
 326      3F70B397 
 326      9A9A
 327 03d6 0DF76BF6 		.ascii	"\015\367k\36627\033\242\033\015\2630z\205\033]{e[6D"
 327      32371BA2 
 327      1B0DB330 
 327      7A851B5D 
 327      7B655B36 
 328 03eb 8E958C1E 		.ascii	"\216\225\214\036}\274\2672D2zU\030\375\303\217\321\377"
 328      7DBCB732 
 328      44327A55 
 328      18FDC38F 
 328      D1FF
 329 03fd 8BF29A15 		.ascii	"\213\362\232\025\312\353\022\231\012D\031\256\243\254"
 329      CAEB1299 
 329      0A4419AE 
 329      A3AC
 330 040b 10285BE2 		.ascii	"\020([\342T4\274.\346\241\333\026\210\035\243U\222\321"
 330      5434BC2E 
 330      E6A1DB16 
 330      881DA355 
 330      92D1
 331 041d 1BBB97D5 		.ascii	"\033\273\227\325\312F\253\261\302J\320k\274a\201t\257"
 331      CA46ABB1 
 331      C24AD06B 
 331      BC618174 
 331      AF
 332 042e 02E94D35 		.ascii	"\002\351M5\322[f\244\2679\322;\330\223\030;Hk\254\221"
 332      D25B66A4 
 332      B739D23B 
 332      D893183B 
 332      486BAC91 
 333 0442 DE15486F 		.ascii	"\336\025Ho\253\220\3363\220b\006\370SFz\013\033\361"
 333      AB90DE33 
 333      906206F8 
 333      53467A0B 
 333      1BF1
 334 0454 A509698C 		.ascii	"\245\011i\214\022\351}\201\024\273\014\017\274H\037"
 334      12E97D81 
 334      14BB0C0F 
 334      BC481F
 335 0463 09A4ADF5 		.ascii	"\011\244\255\365\362v\035\231\227\021\252+\255\347J"
 335      F2761D99 
 335      9711AA2B 
ARM GAS  /tmp/ccklYm9V.s 			page 27


 335      ADE74A
 336 0472 1F3655DA 		.ascii	"\0376U\332\306\257\322Z\256\264\245\256\264\265\205"
 336      C6AFD25A 
 336      AEB4A5AE 
 336      B4B585
 337 0481 D2475CE9 		.ascii	"\322G\\\351\236-\307\367A\344xIiy}N\274\204\364\261"
 337      9E2DC7F7 
 337      41E47849 
 337      69797D4E 
 337      BC84F4B1 
 338 0495 40FA2410 		.ascii	"@\372$\020\244u\022\322\374\342\334\214 \031\351S\331"
 338      A47512D2 
 338      FCE2DC8C 
 338      2019E953 
 338      D9
 339 04a6 CC3354DA 		.ascii	"\3143T\332FWZ)\224\266\265\303\362\271\305\243\363\005"
 339      46575A29 
 339      94B6B5C3 
 339      F2B9C5A3 
 339      F305
 340 04b8 56D143AF 		.ascii	"V\321C\257\341\245\205\312\002\205\312\277\324*_\231"
 340      E1A585CA 
 340      0285CABF 
 340      D42A5F99 
 341 04c8 55BEE62A 		.ascii	"U\276\346*\337`\313\207\332Q\371\326Z\345;\241\362\265"
 341      DF60CB87 
 341      DA51F9D6 
 341      5AE53BA1 
 341      F2B5
 342 04da 4AE57B43 		.ascii	"J\345{C%f\200\017\262\312W\330\210oL*\207*U\326\013"
 342      2566800F 
 342      B2CA57D8 
 342      886F4C2A 
 342      872A55D6 
 343 04ef 95D865F8 		.ascii	"\225\330e\370\350U\371T\250l\257\227W]\266\364}\270"
 343      E855F954 
 343      A86CAF97 
 343      575DB6F4 
 343      7DB8
 344 0501 AEF22357 		.ascii	"\256\362#W\331\320Te\007\277*]\004U\266\325U\266\267"
 344      D9D05465 
 344      07BF2A5D 
 344      0455B6D5 
 344      55B6B7
 345 0514 503987A0 		.ascii	"P9\207\240\312Mg\263\223\203#'H*\217\270j=N\211\345"
 345      CA4D67B3 
 345      93832327 
 345      482A8FB8 
 345      6A3D4E89 
 346 0529 5C62B09C 		.ascii	"\\b\260\234G\002`\231@,\236\235\211\244\321\314|\302"
 346      47026099 
 346      402C9E9D 
 346      89A4D1CC 
 346      7CC2
 347 053b 5476D055 		.ascii	"Tv\320UV\011\225\021\354\256\363\011yiT\177v:\354 ]"
 347      56099511 
 347      ECAEF309 
ARM GAS  /tmp/ccklYm9V.s 			page 28


 347      7969547F 
 347      763AEC20 
 348 0550 481A91CE 		.ascii	"H\032\221\316\251MZ\005\022\322EX\341\002\242\327\270"
 348      A94D5A05 
 348      12D24558 
 348      E102A2D7 
 348      B8
 349 0561 98A8957A 		.ascii	"\230\250\225z\024J\227\020\245\322\245\304\244\364W"
 349      144A9710 
 349      A5D2A5C4 
 349      A4F457
 350 0570 CC0DCB08 		.ascii	"\314\015\313\010\353\311(;J\227\023K\245+\210\241\024"
 350      EBC9283B 
 350      4A97134B 
 350      A52B88A1 
 350      14
 351 0581 CBF5AB74 		.ascii	"\313\365\253t%\321\225b\006\370\215HJ\227b#\2763)\035"
 351      25D19562 
 351      06F88D48 
 351      4A976223 
 351      BE33291D 
 352 0595 A554BA8A 		.ascii	"\245T\272\212\030J\261\313\360;\021J_\012\245\235\364"
 352      184AB1CB 
 352      F03B114A 
 352      5F0AA59D 
 352      F4
 353 05a6 F2AA4E66 		.ascii	"\362\252Nf\347P]i\003W\272\2324Q\332\331\257\322$\256"
 353      E7505D69 
 353      0357BA9A 
 353      3451DAD9 
 353      AFD224AE 
 354 05ba 344257DA 		.ascii	"4BW\332\311Bi2Wz\273h\345\207\320\310\211\222\322\272"
 354      C9426932 
 354      577ABB68 
 354      E587D0C8 
 354      8992D2BA 
 355 05ce F427B9E1 		.ascii	"\364'\271\341\222\322\024\24145\020\245k$\245U\257\017"
 355      92D214A1 
 355      343510A5 
 355      6B24A555 
 355      AF0F
 356 05e0 6584CB4A 		.ascii	"e\204\313J\327\312h\322\220ig\326\301y\353\337'9y\225"
 356      D7CA68D2 
 356      906967D6 
 356      C179EBDF 
 356      27397995 
 357 05f4 4D2B6897 		.ascii	"M+h\227J\235,_:\353\240\233\275\373\326B\342\372\372"
 357      4A9D2C5F 
 357      3AEBA09B 
 357      BDFBD642 
 357      E2FAFA
 358 0607 B6FA507C 		.ascii	"\266\372P|\3264\347?R)\362X\307r\262/\336\254\333\227"
 358      D634E73F 
 358      5229F258 
 358      C772B22F 
 358      DEACDB97 
 359 061b 452227EB 		.ascii	"E\"'\353]\354\200W\334\213\226\314o\354\342?\301-\272"
ARM GAS  /tmp/ccklYm9V.s 			page 29


 359      5DEC8057 
 359      DC8B96CC 
 359      6FECE23F 
 359      C12DBA
 360 062e B89E8F49 		.ascii	"\270\236\217IE\262\347vH\344\317\372\015\021xC\372\206"
 360      45B2E776 
 360      48E4CFFA 
 360      0D117843 
 360      FA86
 361 0640 83B9D47B 		.ascii	"\203\271\324{CG\310\0207l\3001\351\244\325@BELcS\274"
 361      4347C810 
 361      376CC031 
 361      E9A4D540 
 361      42454C63 
 362 0656 6B730713 		.ascii	"ks\007\023\263Q\357\037{5\245\232\247\223\376f\372("
 362      B351EF1F 
 362      7B35A59A 
 362      A793FE66 
 362      FA28
 363 0668 CE3C7EFE 		.ascii	"\316<~\376_E7\021\361*\272\231\360WQ\357\202'\010\010"
 363      5F453711 
 363      F12ABA99 
 363      F05751EF 
 363      82270808 
 364 067c 6C21FC55 		.ascii	"l!\374U\324\363\266.ks7\337H\253TDZ\246:\322\262\314"
 364      D4F3B62E 
 364      6B7337DF 
 364      48AB5444 
 364      5AA63AD2 
 365 0692 9196CD23 		.ascii	"\221\226\315#m+\"\037o'\322r\254#m\233\210\264lU\244"
 365      6D2B221F 
 365      6F27D272 
 365      AC236D9B 
 365      88B46C55 
 366 06a7 E51A9186 		.ascii	"\345\032\221\206\031`\273\034iY\330\210\037L\2216^\031"
 366      1960BB1C 
 366      6959D888 
 366      1F4C9136 
 366      5E19
 367 06b9 693B44A4 		.ascii	"i;D\244a\227!\317\033i\005\311F\244ua\345\371\206UW"
 367      619721CF 
 367      1B6905C9 
 367      46A47561 
 367      E5F98655 
 368 06ce BF61B553 		.ascii	"\277a\265S\016\253.\026a\265\313fX\355\026\204\362\003"
 368      0EAB2E16 
 368      61B5CB66 
 368      58ED1684 
 368      F203
 369 06e0 09AB3D56 		.ascii	"\011\253=Va\265W\016\253}\030V]\325J\252\025J\012\324"
 369      61B5570E 
 369      AB7D1856 
 369      5DD54AAA 
 369      154A0AD4 
 370 06f4 4A0ACD4A 		.ascii	"J\012\315J<\\\311~\234\240qv\224\024Y+9 \224xTJ\016"
 370      3C5CC97E 
 370      9CA07176 
ARM GAS  /tmp/ccklYm9V.s 			page 30


 370      9414592B 
 370      39209478 
 371 070b 1A4A3003 		.ascii	"\032J0\003\034\222\225\024b#\2767)\031\247TR,\224`\227"
 371      1C929514 
 371      6223BE37 
 371      2919A754 
 371      522C9460 
 372 0720 E1B05749 		.ascii	"\341\260WI\221P\322\203\225\347\273D\210\362\253\244"
 372      9150D283 
 372      95E7BB44 
 372      88F2ABA4 
 373 0730 445E22F4 		.ascii	"D^\"\364\260Pr\304\346\022\341\250Pr,\020%\307\255\226"
 373      B05072C4 
 373      E612E1A8 
 373      50722C10 
 373      25C7AD96 
 374 0744 0827A425 		.ascii	"\010'\244%\302ID\022\245F\362T\201\344\224\032I\251"
 374      C2494412 
 374      A546F254 
 374      81E4941A 
 374      49A9
 375 0756 19491947 		.ascii	"\031I\031GR\216\363\343\264\203\344\2645\2223\002I\231"
 375      528EF3E3 
 375      B483E4B4 
 375      35923302 
 375      4999
 376 0768 0AC95903 		.ascii	"\012\311Y\003\011f\200s2\222Rl\304X\023\022\247\022"
 376      09668073 
 376      3292526C 
 376      C4581312 
 376      A712
 377 077a C9798104 		.ascii	"\311y\201\004\273\014\027\274Hn\012$l\000\307\372\276"
 377      BB0C17BC 
 377      486E0A24 
 377      6C00C7FA 
 377      BE
 378 078b DDF4F68B 		.ascii	"\335\364\366\213\344\"\221\336nzY \271Dl\275\335\\\026"
 378      E42291DE 
 378      6E7A5920 
 378      B9446CBD 
 378      DD5C16
 379 079e 46AE0462 		.ascii	"F\256\004b\344*\261x\273\371\203Ho7\327\020Io5\222\347"
 379      E42AB178 
 379      BBF98348 
 379      6F37D710 
 379      496F3592 
 380 07b3 0A24D7D5 		.ascii	"\012$\327\325H*\314H*9\222*\234\237Vv\220T[#\271!\220"
 380      482ACC48 
 380      2A39922A 
 380      9C9F5676 
 380      90545B23 
 381 07ca 54AA90DC 		.ascii	"T\252\220\3344\220"
 381      3490
 382 07d0 6006B825 		.ascii	"`\006\270%#\251\300F\204\232\220\264R\"\271-\220`\227"
 382      23A9C046 
 382      849A90B4 
 382      5222B92D 
ARM GAS  /tmp/ccklYm9V.s 			page 31


 382      906097
 383 07e3 E18E1749 		.ascii	"\341\216\027I\215@\322\227\225\347\273Q\323\317/\222"
 383      8D40D297 
 383      95E7BB51 
 383      D3CF2F92 
 384 07f3 1A226DD4 		.ascii	"\032\"m\324\364\265@r\227\330\333\250\271'\224\374\031"
 384      F4B54072 
 384      97D8DBA8 
 384      B92794FC 
 384      19
 385 0804 8892FB56 		.ascii	"\210\222\373VO\222\007\244q\243\346!\"\351\247F\362"
 385      4F9207A4 
 385      71A3E621 
 385      22E9A746 
 385      F2
 386 0815 5281A456 		.ascii	"R\201\244V\215\344\221\031\311c\216\344\011\316OG;H"
 386      8DE49119 
 386      C9638EE4 
 386      09CE4F47 
 386      3B48
 387 0827 EAAC913C 		.ascii	"\352\254\221<\025H\036\253\220<3\220`\006x.#y\204\215"
 387      15481EAB 
 387      903C3390 
 387      6006782E 
 387      2379848D 
 388 083b 686742D2 		.ascii	"hgB\322Q\211\344\205@\202]\206\227^$\367\005\222\376"
 388      5189E485 
 388      40825D86 
 388      975E24F7 
 388      0592FE
 389 084e AC3CDF1D 		.ascii	"\254<\337\035\350\001~\221\374\305\2218t$\375-\220\274"
 389      E8017E91 
 389      FCC59138 
 389      7424FD2D 
 389      90BC
 390 0860 22F6769C 		.ascii	"\"\366v\234_\013$o\002A\362\326\012\311;\322\270\305"
 390      5F0B246F 
 390      0241F2D6 
 390      0AC93BD2 
 390      B8C5
 391 0872 FC1E910C 		.ascii	"\374\036\221\014\340K\375\272d\213\245\376\007i\251"
 391      E04BFDBA 
 391      648BA5FE 
 391      0769A9
 392 0881 FFAC9D3E 		.ascii	"\377\254\235>\022\003\375.\365\353\355.\365?\212\036"
 392      1203FD2E 
 392      F5EBED2E 
 392      F53F8A1E 
 393 0891 36D85CEA 		.ascii	"6\330\\\352\273\250q\303\034\352\273\324\037(\255\355"
 393      BBA871C3 
 393      1CEABBD4 
 393      1F28ADED 
 394 08a1 1D5A5DA8 		.ascii	"\035Z]\250\276\266_4\321\356\332~.\025k\373y\224\257"
 394      BEB65F34 
 394      D1EEDA7E 
 394      2E156BFB 
 394      7994AF
ARM GAS  /tmp/ccklYm9V.s 			page 32


 395 08b4 ED4B9EE7 		.ascii	"\355K\236\347e\206\351k{\012\011\324bm\237\024\356?"
 395      6586E96B 
 395      7B0A09D4 
 395      626D9F14 
 395      EE3F
 396 08c6 8C12A932 		.ascii	"\214\022\2512\214\346SS\030-\340c\267\020\377\033d\212"
 396      8CE65353 
 396      182DE063 
 396      B710FF1B 
 396      648A
 397 08d8 9D305A44 		.ascii	"\2350ZD-\303h15\302\010\313\365\033FK\250\036F\230\001"
 397      2DC36831 
 397      35C208CB 
 397      F51B464B 
 397      A81E4698 
 398 08ed 9652298C 		.ascii	"\226R)\214\346c#\246\232\302h\2122\214~\245F\030a\227"
 398      E66323A6 
 398      9AC2688A 
 398      328C7EA5 
 398      46186197 
 399 0901 61191561 		.ascii	"a\031\025a\264-\315\010\243A\254<\337g\355`\277a\264"
 399      B42DCD08 
 399      A341AC3C 
 399      DF67ED60 
 399      BF61B4
 400 0914 9C4ACFDA 		.ascii	"\234J\317\332A\026a\264\202\332{\326\256\024f~\243\001"
 400      411661B4 
 400      82DA7BD6 
 400      AE14667E 
 400      A301
 401 0926 84D12A6A 		.ascii	"\204\321*j\021F\277\323\306g\355j\\t\014V#IQ IR#I6#"
 401      1146BFD3 
 401      C667ED6A 
 401      5C740C56 
 401      23495120 
 402 0940 49E14852 		.ascii	"I\341HRq~\342\355 Yc\215d\255@\222\242B\222f \301\014"
 402      717EE2ED 
 402      2059638D 
 402      64AD4092 
 402      A2429266 
 403 0957 902E2349 		.ascii	"\220.#I\306FL6!\211W\"Y'\220`\227Yf\201$O \371\226\225"
 403      C6464C36 
 403      21895722 
 403      59279060 
 403      97596681 
 404 0971 E7FBAC1D 		.ascii	"\347\373\254\035\342\027\311z*=k\277\265@\222A\355="
 404      E217C97A 
 404      2A3D6BBF 
 404      B5409241 
 404      ED3D
 405 0983 6B370824 		.ascii	"k7\010$\033\003A\262\311\012\311f\332\370\254\335\202"
 405      1B0341B2 
 405      C90AC966 
 405      DAF8ACDD 
 405      82
 406 0994 4886A891 		.ascii	"H\206\250\221\254Q \311T#\3112#\311\346H\266\342\374"
 406      AC5120C9 
ARM GAS  /tmp/ccklYm9V.s 			page 33


 406      5423C932 
 406      23C9E648 
 406      B6E2FC
 407 09a7 4CB48324 		.ascii	"L\264\203$\307\032\3116\201$[\205$\327@\202\031`\273"
 407      C71AC936 
 407      81245B85 
 407      24D74082 
 407      1960BB
 408 09ba 8C240B1B 		.ascii	"\214$\013\0331\311\204d\242z\227@ \301.C\236\027I\276"
 408      31C98464 
 408      A27A9740 
 408      20C12E43 
 408      9E1749BE 
 409 09ce 40328C95 		.ascii	"@2\214\225\347\273K0\334/\222\235T\332%\030f\201d\027"
 409      E7BB4B30 
 409      DC2F929D 
 409      54DA2518 
 409      66816417 
 410 09e2 B5B94B20 		.ascii	"\265\271K \220\344\007\202d\017\265\332%\240\362.\001"
 410      90E40782 
 410      640FB5DA 
 410      25A0F22E 
 410      01
 411 09f3 2A19AE56 		.ascii	"*\031\256V\222\246PR\240VRhV\342\341J\366\343\004\305"
 411      92A65052 
 411      A0565268 
 411      56E2E14A 
 411      F6E304C5 
 412 0a07 D9515264 		.ascii	"\331QRd\255\344\200P\342Q)9h(\301\014pHVR\210\215\370"
 412      ADE48050 
 412      E2512939 
 412      6828C10C 
 412      70485652 
 413 0a1e D1A4244E 		.ascii	"\321\244$N\275K \224`\227\341\260WI\201P2\202\225\347"
 413      BD4B2094 
 413      6097E1B0 
 413      57498150 
 413      328295E7 
 414 0a32 BB4B30D2 		.ascii	"\273K0\322\257\222\022*\355\022\214\260Pr\204\332\334"
 414      AF92122A 
 414      ED128CB0 
 414      507284DA 
 414      DC
 415 0a43 25104A8E 		.ascii	"%\020J\216\005\242\344\270\325\243\344\004\225v\011"
 415      05A2E4B8 
 415      D5A3E404 
 415      957609
 416 0a52 10C94835 		.ascii	"\020\311H5\222u\012$\247\324HJ\315H\3128\222r\234\237"
 416      92750A24 
 416      A7D4484A 
 416      CD48CA38 
 416      92729C9F 
 417 0a66 583B484E 		.ascii	"X;HN[#9#\220\224\251\220\2345\220`\0068'#)\305FL0!\211"
 417      5B233923 
 417      9094A990 
 417      9C359060 
 417      06382723 
ARM GAS  /tmp/ccklYm9V.s 			page 34


 418 0a81 55EF1208 		.ascii	"U\357\022\010$\330e\270\340ER$\220\214f\345\371\356"
 418      24D865B8 
 418      E0455224 
 418      908C66E5 
 418      F9EE
 419 0a93 128CF18B 		.ascii	"\022\214\361\213\344\"\225v\011F[ \271D\355\355\022"
 419      E4229576 
 419      09465B20 
 419      B944EDED 
 419      12
 420 0aa4 08235702 		.ascii	"\010#W\0021r\225Z\355\022Py\227\000\221\214\341k\373"
 420      3172955A 
 420      ED125079 
 420      9700918C 
 420      E16BFB
 421 0ab7 3B69166B 		.ascii	";i\026k\373\353\264qm\1777\302O>ce_Am\256\354+E\007"
 421      FBEBB471 
 421      6D7F37C2 
 421      4F3E6365 
 421      5F416DAE 
 422 0acf ABA8BD95 		.ascii	"\253\250\275\225}\265\270\341\206\276\262\307e\274\223"
 422      7DB5B8E1 
 422      86BEB2C7 
 422      65BC93
 423 0ade FFF5D863 		.ascii	"\377\365\330c \372\037\365-f.\330\005v\366\357\250\250"
 423      20FA1FF5 
 423      2D662ED8 
 423      0576F6EF 
 423      A8A8
 424 0af0 68FDDFCC 		.ascii	"h\375\337\314\270\0313\243\247\317\214\236\361\323\254"
 424      B81933A3 
 424      A7CF8C9E 
 424      F1D3AC
 425 0aff E9B171E2 		.ascii	"\351\261q\342t\034~\216\233\021\367\363\254\270i\261"
 425      741C7E8E 
 425      9B11F7F3 
 425      ACB869B1 
 426 0b0f 71E37AF6 		.ascii	"q\343z\366\354\035\025\253}\352\275\351\247\031xK\374"
 426      EC1D15AB 
 426      7DEABDE9 
 426      A719784B 
 426      FC
 427 0b20 B4D8A9B3 		.ascii	"\264\330\251\263&\304E\307N\2329iz\334\370\0113\242"
 427      26C445C7 
 427      4E9A3969 
 427      7ADCF809 
 427      33A2
 428 0b32 2669E46B 		.ascii	"&i\344k\215\014\322H\214F\276\322\310@-h\340W1\203\276"
 428      8D0CD248 
 428      8C46BED2 
 428      C8402D68 
 428      E0573183 
 429 0b47 D65AC54F 		.ascii	"\326Z\305O\373e\374\324\370\011\235E\211\332\377\000"
 429      FB65FCD4 
 429      F8099D45 
 429      89DAFF00 
 430 0b57 B85E4D11 		.ascii	"\270^M\021"
ARM GAS  /tmp/ccklYm9V.s 			page 35


 431              		.text
 432              		.section	.gnu.lto_thread.e7f7340bf6f0acce,"",%progbits
 433 0000 789C354F 		.ascii	"x\2345OKKBQ\020\236\357\216\257\244Z\007\271\260\225"
 433      4B4B4251 
 433      109EEF8E 
 433      AFA45A07 
 433      B9B095
 434 0013 B851A1A0 		.ascii	"\270Q\241\240\376@\320\277p!w\025\364\360\261\366(\212"
 434      FE40D0BF 
 434      70217715 
 434      F4F0B1F6 
 434      288A
 435 0025 65506D4A 		.ascii	"ePmJ\214\344\266(\354m\355\262M\027\011\212\310\242"
 435      8CE4B628 
 435      EC6DEDB2 
 435      4D17098A 
 435      C8A2
 436 0037 B66DA220 		.ascii	"\266m\242 \210r\321*\010\322\346(\015g\230\371\316|"
 436      8872D12A 
 436      08D2E628 
 436      0D6798F9 
 436      CE7C
 437 0049 33F38D93 		.ascii	"3\363\215\223\014\232\004\321\004\021\015\213\203\011"
 437      0C9A04D1 
 437      04110D8B 
 437      8309
 438 0057 C6EA1D51 		.ascii	"\306\352\035Q\306c\000:Q\036P\332@\032+\\b4\012ou#X"
 438      C663003A 
 438      511E50DA 
 438      401A2B5C 
 438      62340A6F 
 439 006e 556276E9 		.ascii	"Ubv\351l$\243\362C\026\023\225\305\265\241\212\240\260"
 439      6C24A3F2 
 439      43161395 
 439      C5B5A18A 
 439      A0B0
 440 0080 1E72279B 		.ascii	"\036r'\233\274\314\026\003\016\201_\315\215\327A\015"
 440      BCCC1603 
 440      0E815FCD 
 440      8DD7410D 
 441 0090 0DF805DE 		.ascii	"\015\370\005\336\332\2135/\217\203$\177\266\316\233"
 441      DA8B352F 
 441      8F83247F 
 441      B6CE9B
 442 009f 7D811DA5 		.ascii	"}\201\035\245\262\312\276\306\224\305\214}\260\214\303"
 442      B2CABEC6 
 442      94C58C7D 
 442      B08CC3
 443 00ae 1E7CD885 		.ascii	"\036|\330\205\217\344\213p\200\200f\277\234\266\327"
 443      8FE48B70 
 443      808066BF 
 443      9CB6D7
 444 00bd 065C8EDE 		.ascii	"\006\\\216\336:\034\302%\312\251\366\010[\265;\005e"
 444      3A1CC225 
 444      CAA9F608 
 444      5BB53B05 
 444      65
ARM GAS  /tmp/ccklYm9V.s 			page 36


 445 00ce 5F6EE3C2 		.ascii	"_n\343\302\351\024\335Bgit\020\025\205\251\257XbCG~"
 445      E914DD42 
 445      67697410 
 445      1585A9AF 
 445      58624347 
 446 00e3 47F6A7D8 		.ascii	"G\366\247\330\232\326\275\025\326\007\255\347\033\367"
 446      9AD6BD15 
 446      D607ADE7 
 446      1BF7
 447 00f1 6EADCDD9 		.ascii	"n\255\315\331\325\363}u\263\320o\241\222\221\003\375"
 447      D5F37D75 
 447      B3D06FA1 
 447      929103FD 
 448 0101 32A1229A 		.ascii	"2\241\"\232\217D\005\341\030\026\350\0039\277\356\325"
 448      8F4405E1 
 448      1816E803 
 448      39BFEED5 
 449 0111 D47AFDF3 		.ascii	"\324z\375\363\311\235\376U\036\213]e\026%\250!M2\325"
 449      C99DFE55 
 449      1E8B5D65 
 449      1625A821 
 449      4D32D5
 450 0124 6237B590 		.ascii	"b7\265\220\335\352x\273TmE\251\313z\203h,\024\012\367"
 450      DDEA78BB 
 450      546D45A9 
 450      CB7A8368 
 450      2C140AF7 
 451 0138 5ED24C24 		.ascii	"^\322L$\303\361d81\233\212\307\314\177\030\3251\232"
 451      C3F16438 
 451      319B8AC7 
 451      CC7F18D5 
 451      319A
 452 014a 30E753E6 		.ascii	"0\347S\346L\314\214F\"\243\241\030a\356\017\346!x\211"
 452      4CCC8C46 
 452      22A3A118 
 452      61EE0FE6 
 452      217889
 453              		.text
 454              		.section	.gnu.lto_rt_test_003_001_execute.part.0.e7f7340bf6f0acce,"",%progbits
 455 0000 789CA557 		.ascii	"x\234\245WkP\023W\024\276g\357n6\004\301\252\323\351"
 455      6B501357 
 455      14BE67EF 
 455      6E3604C1 
 455      AAD3E9
 456 0013 E8581B7F 		.ascii	"\350X\033\177\320\031g:\304\326\316\364w\307\376\351"
 456      D019673A 
 456      C4D6CEF4 
 456      77C7FEE9 
 457 0023 54FEB4FE 		.ascii	"T\376\264\376g\234\230\216\314 iI\320\366\027\013\004"
 457      679C988E 
 457      CC206949 
 457      D0F6170B 
 457      04
 458 0034 54A85ADF 		.ascii	"T\250Z\337\3046\2153\332QA\021K\253\220\332\032A\213"
 458      C4368D33 
 458      DA514111 
 458      4BAB90DA 
ARM GAS  /tmp/ccklYm9V.s 			page 37


 458      1A418B
 459 0047 62C1677D 		.ascii	"b\301g}\341[@\020\255/|\"\332s\356f\323$\304\340b\006"
 459      E15B4010 
 459      AD2F7C22 
 459      DA73EE66 
 459      D324C4E0 
 460 005d 367BF79E 		.ascii	"6{\367\236\373\335\373\235s\276o'\012\223X\357X\306"
 460      FBDDFB9D 
 460      73BE6F27 
 460      0A9358EF 
 460      58C6
 461 006f 6460EC33 		.ascii	"d`\3543\306\030\250\014,\337w\340\215\005$\361-I\312"
 461      C618A80C 
 461      2CDF77E0 
 461      8D0524F1 
 461      2D49CA
 462 0082 2907D36C 		.ascii	")\007\323l<4\205icxd$\213\221\014\012\305\224X\025\000"
 462      3C348569 
 462      63786424 
 462      8B910C0A 
 462      C5945815 
 463 0097 BAD1ACC0 		.ascii	"\272\321\254\300\212-\022\227\025(\206\345|\035\207"
 463      8A2D1297 
 463      152886E5 
 463      7C1D87
 464 00a6 E6453D4D 		.ascii	"\346E=M\322\264\315\032~\302\353\032-\001\355\250\306"
 464      D2B4CD1A 
 464      7EC2EB1A 
 464      2D01EDA8 
 464      C6
 465 00b7 839C313F 		.ascii	"\203\2341?\376\323\0076\3034\206q\307|\365?\362e8\005"
 465      FED30736 
 465      C3348671 
 465      C77CF53F 
 465      F2653805 
 466 00cb 20E3F06E 		.ascii	" \343\360n\373\372k\2314\224\300\216\303%\341\312\375"
 466      FBFA6B99 
 466      3494C08E 
 466      C325E1CA 
 466      FD
 467 00dc 36FE1150 		.ascii	"6\376\021Pd\260f\327M\310\332\250i\245Z\370\306D\277"
 467      64B066D7 
 467      4DC8DAA8 
 467      69A55AF8 
 467      C644BF
 468 00ef 16F6D983 		.ascii	"\026\366\331\203\234C\015p\304\204\2550\031\266\300"
 468      9C430D70 
 468      C484AD30 
 468      19B6C0
 469 00fe 64818DC1 		.ascii	"d\201\215\301Ww>_\223a\221\241\026\262\364-a\033\022"
 469      57773E5F 
 469      936191A1 
 469      16B2F42D 
 469      611B12
 470 0111 636C1CCE 		.ascii	"cl\034\316}\267th`,\001\255\324\302W'\372\267\350@,"
 470      7DB77468 
 470      602C01AD 
ARM GAS  /tmp/ccklYm9V.s 			page 38


 470      D4C25727 
 470      FAB7E840 
 471 0126 1105B643 		.ascii	"\021\005\266CVB\364\301}\322AMN\032\\g&x\207\231\340"
 471      5642F4C1 
 471      7DD2414D 
 471      4E1A5C67 
 471      26788799 
 472 013b 7A33C13B 		.ascii	"z3\301;\315\004\377b&\270\301L\360\257f\202\1773\023"
 472      CD04FF62 
 472      26B8C14C 
 472      F0AF6682 
 472      7F3313
 473 014e BCCB4CF0 		.ascii	"\274\313L\360n3\301\215f\202\233\314\004\207\314\004"
 473      6E33C18D 
 473      66829BCC 
 473      0487CC04 
 474 015e FF6E2678 		.ascii	"\377n&x\017dQ\213\3578\016\232\366\374\305\"M[\377\356"
 474      0F64518B 
 474      EF380E9A 
 474      F6FCC522 
 474      4D5BFFEE 
 475 0172 F8B78005 		.ascii	"\370\267\200\005\271,\321\205\323E\306\213\242\320\235"
 475      B92CD185 
 475      D345C68B 
 475      A2D09D
 476 0181 852E2A5D 		.ascii	"\205.*]\254\364,\215\356ltI\247\013c\225(\024Rs%\267"
 476      ACF42C8D 
 476      EE6C7449 
 476      A70B6395 
 476      28145273 
 477 0197 D037AFE2 		.ascii	"\3207\257\342\222\370\356\203\322\201\336sN\222\020"
 477      92F8EE83 
 477      D281DE73 
 477      4E9210
 478 01a6 1E6D6D79 		.ascii	"\036mmy\363\021\225$j\021\262lj\272\331\251\026\017"
 478      F3119524 
 478      6A11B26C 
 478      6ABAD9A9 
 478      160F
 479 01b8 69567CB0 		.ascii	"iV|\260\221\353\352\253\272s\262\301\026\204\000\004"
 479      91EBEAAB 
 479      BA73B2C1 
 479      16840004 
 480 01c8 B90A7FA2 		.ascii	"\271\012\177\242%\374A\007\206\275\020\004\262\206{"
 480      25FC4107 
 480      86BD1004 
 480      B2867B
 481 01d7 F59BC710 		.ascii	"\365\233\307\020\200\012\034\3028\323\007\315\241'\317"
 481      800A1CC2 
 481      38D307CD 
 481      A127CF
 482 01e6 B6AD9914 		.ascii	"\266\255\231\024\025\256O\370\306\252FU\350\326\317"
 482      15AE4FF8 
 482      C6AA4655 
 482      E8D6CF
 483 01f5 81254CB5 		.ascii	"\201%L\265\374d\177\207\301>\232\223\022\347\006\267"
 483      FC647F87 
ARM GAS  /tmp/ccklYm9V.s 			page 39


 483      C13E9A93 
 483      12E706B7 
 484 0205 BEF73683 		.ascii	"\276\3676\203f\232\3431^\300\240\005,x\212\375`\011"
 484      669AE331 
 484      5EC0A005 
 484      2C788AFD 
 484      6009
 485 0217 70882562 		.ascii	"p\210%b\025\360\035\333\037\335\261\351C\202!7\332X"
 485      15F01DDB 
 485      1FDDB1E9 
 485      43822137 
 485      DA58
 486 0229 F7B0D5AA 		.ascii	"\367\260\325\252\363H\203\2770\361\007\210\007N\324"
 486      F34883BF 
 486      30F10788 
 486      074ED4
 487 0238 B40FDC57 		.ascii	"\264\017\334W\035\3335_\211v\371~\303\233+\323\202\334"
 487      1DDB355F 
 487      8976F97E 
 487      C39B2BD3 
 487      82DC
 488 024a 06AD48AF 		.ascii	"\006\255H\257\0323 \366\201\203\340`\335Pz\271\352|"
 488      1A3320F6 
 488      8183E060 
 488      DD507AB9 
 488      EA7C
 489 025c 8B45980F 		.ascii	"\213E\230\017Y\021\353\007\337\206G\313\024z\220\220"
 489      5911EB07 
 489      DF8647CB 
 489      147A9090 
 490 026c BC743F95 		.ascii	"\274t?\225\000\016A1M\004\252W\014\245\321ad\350U\241"
 490      000E4131 
 490      4D04AA57 
 490      0CA5D161 
 490      64E855A1 
 491 0280 0D2607F9 		.ascii	"\015&\007\371\030\202\263G\212\360\363\245\307W\322"
 491      1882B347 
 491      8AF0F3A5 
 491      C757D2
 492 028f F95E1027 		.ascii	"\371^\020'o=QQ\222\021q\306\036\377\244\025e\232\336"
 492      6F3D5151 
 492      921171C6 
 492      1EFFA415 
 492      659ADE
 493 02a2 2F7078B8 		.ascii	"/px\2707\302\337t\014D2\216\201\353/\224\207\366[y\253"
 493      37C2DF74 
 493      0C44328E 
 493      81EB2F94 
 493      87F65B79 
 494 02b7 0ED6D915 		.ascii	"\016\326\331\025\250S\207\203e@{\022\260\016\354\277"
 494      A8538783 
 494      65407B12 
 494      B00EECBF 
 495 02c7 3651C1B2 		.ascii	"6Q\301\262\265\025\313\037\204\037\317N\250\305\272"
 495      B515CB1F 
 495      841FCF4E 
 495      A8C5BA
ARM GAS  /tmp/ccklYm9V.s 			page 40


 496 02d6 3DAA22A2 		.ascii	"=\252\"\242h[\275\226J\\M\216\210\232\034\245\232HX"
 496      685BBD96 
 496      4A5C4D8E 
 496      889A1CA5 
 496      9A4858
 497 02e9 168166F0 		.ascii	"\026\201f\360\214\236U\037u\304\216\314\322>f\320\036"
 497      8C9E551F 
 497      75C48ECC 
 497      D23E66D0 
 497      1E
 498 02fa 8CD236C5 		.ascii	"\214\3226\305\364\270\220\345\246\222\266r\233^\226"
 498      F4B890E5 
 498      A692B672 
 498      9B5E96
 499 0309 7E154E8C 		.ascii	"~\025N\214\310\034W\211\235\2231?)\230\377C\31491?\021"
 499      C81C5789 
 499      9D93313F 
 499      2998FF43 
 499      CC39313F 
 500 031e CBFC581C 		.ascii	"\313\374X\034\363\343z\353T\210Q\200\313\361\235\223"
 500      F3E37AEB 
 500      54885180 
 500      CBF19D93 
 501 032e E9E78474 		.ascii	"\351\347\204t\012;G$\221^\277\376\236re\352]\010j\325"
 501      0A3B4724 
 501      915EBFFE 
 501      9E7265EA 
 501      5D086AD5 
 502 0342 F86E1B4B 		.ascii	"\370n\033K\373\326>=S\233\211\013\2525\015\037\275\001"
 502      FBD63E3D 
 502      539B890B 
 502      AA350D1F 
 502      BD01
 503 0354 A761AAE8 		.ascii	"\247a\252\350B8\003\305A>\216u\201\257s\346\377\370"
 503      423803C5 
 503      413E8E75 
 503      81AF73E6 
 503      FFF8
 504 0366 517128C0 		.ascii	"Qq(\300\340l$\013U(\250\320\024\335\017n\031~0\242\001"
 504      E06C240B 
 504      5528A8D0 
 504      14DD0F6E 
 504      197E30A2 
 505 037b 9C8B1A40 		.ascii	"\234\213\032@\247n\000\321w\276\0122\234Oe\000\027G"
 505      A76E00D1 
 505      77BE0A32 
 505      9C4F6500 
 505      1747
 506 038d 30800B29 		.ascii	"0\200\013)\014\340\342p\003\270$R~\2318*\246\345}\305"
 506      0CE0E270 
 506      03B82452 
 506      7E99382A 
 506      A6E57DC5 
 507 03a1 9037A1C0 		.ascii	"\2207\241\300UC\336\267\023\345}my\012y_\323\345}\264"
 507      5543DEB7 
 507      13E57D6D 
 507      790A795F 
ARM GAS  /tmp/ccklYm9V.s 			page 41


 507      D3E57DB4 
 508 03b5 6EEB0F99 		.ascii	"n\353\017\231z\037\241\301B\3270}\233\352\355n\243\267"
 508      7A1FA1C1 
 508      42D7307D 
 508      9BEAED6E 
 508      A3B7
 509 03c7 235B9BED 		.ascii	"#[\233\355\355\036\354\322\256\224\275|\017{\231\242"
 509      ED1EECD2 
 509      AE94BD7C 
 509      0F7B99A2 
 510 03d7 BA5FD2CB 		.ascii	"\272_\322\313\327Eb{)\261\224[\201\026\355\336\356\270"
 510      D745627B 
 510      29B1945B 
 510      8116EDDE 
 510      EEB8
 511 03e9 5EEE791D 		.ascii	"^\356y\035\025\367\031L\257\217\216\351\015\241\342"
 511      15F7194C 
 511      AF8F8EE9 
 511      0DA1E2
 512 03f8 C0E9B3A5 		.ascii	"\300\351\263\245\222\236\375U\230\375\376\021\251\343"
 512      929EFD55 
 512      98FDFE11 
 512      A9E3
 513 0406 32B17532 		.ascii	"2\261u2\3527\005\365[D]%\352\375\261\324\373\342\250"
 513      EA3705F5 
 513      5B445D25 
 513      EAFDB1D4 
 513      FBE2A8
 514 0419 DF8897B1 		.ascii	"\337\210\227\2615\251\214\377\0252&\264W\222\361mC\306"
 514      35A98CFF 
 514      153226B4 
 514      5792F16D 
 514      43C6
 515 042b 7786C9D8 		.ascii	"w\206\311\330\032\243[\231\335N\327u\273\330\365\252"
 515      1AA35B99 
 515      DD4ED775 
 515      BBD8F5AA 
 516 043b BABD1BD5 		.ascii	"\272\275\033\325\355=]\267\2076\205\236E^\334\012\334"
 516      ED3D5DB7 
 516      8736859E 
 516      455EDC0A 
 516      DC
 517 044c 4FA5DBD5 		.ascii	"O\245\333\325\266\324\272\035H\241\333\007\303u\373"
 517      B6D4BA1D 
 517      48A1DB07 
 517      C375FB
 518 045b 50E4F811 		.ascii	"P\344\370\021\221J3\255\333\307\206n\011\005\236\030"
 518      914A33AD 
 518      DBC7866E 
 518      09059E18 
 519 046b BAAD3C10 		.ascii	"\272\255<\020\243\333\321\366\343S\243\037kWO\032M?"
 519      A3DBD1F6 
 519      E353A31F 
 519      6B574F1A 
 519      4D3F
 520 047d 0E8A7E0C 		.ascii	"\016\212~\014\325\264\\\221)\257\031\320\305\340Y\312"
 520      D5B45C91 
ARM GAS  /tmp/ccklYm9V.s 			page 42


 520      29AF19D0 
 520      C5E059CA 
 521 048d 765C6B53 		.ascii	"v\\kSh\225\3309Y;\016\211T=\247T\3310[\002-\332\200"
 521      6895D839 
 521      593B0E89 
 521      543DA754 
 521      D9305B02 
 522 04a4 4FE3DA71 		.ascii	"O\343\332q0\342X\366$v5\336\317U\304y!\232\321\026\344"
 522      30E258F6 
 522      247635DE 
 522      CF55C479 
 522      219AD116 
 523 04b9 13469D22 		.ascii	"\023F\235\"M\212\244h\307\352QI\266D\3122Hlh\320!\242"
 523      4D8AA468 
 523      C7EA5149 
 523      B644CA32 
 523      486C68D0 
 524 04cf 983A8F12 		.ascii	"\230:\217\022\3515*Xj\034\257at\307+\223\250\202\365"
 524      E9352A58 
 524      6A1CAF61 
 524      74C72B93 
 524      A882F5
 525 04e2 8797EEB6 		.ascii	"\207\227\356\266\351\025\274\316\300'\245\252`5V\020"
 525      E915BCCE 
 525      C027A5AA 
 525      60355610 
 526 04f2 57899D93 		.ascii	"W\211\235\223U\260\\\242\012VHX\301t\252 \241E\271\226"
 526      55B05CA2 
 526      0A564858 
 526      C174AA20 
 526      A145B996 
 527 0506 C6312F93 		.ascii	"\3061/\223b\014\205%\265\223E\222\250 b\275\222\235"
 527      620C8525 
 527      B5934592 
 527      A82062BD 
 527      929D
 528 0518 2C962276 		.ascii	",\226\"v\262D\022vB\336\241\210\037\001\267@\322\177"
 528      B2441276 
 528      42DEA188 
 528      1F01B740 
 528      D27F
 529 052a B957A2A8 		.ascii	"\271W\242\250\361\001\216>\314\316v\350\177^\227\307"
 529      F1018E3E 
 529      CCCE76E8 
 529      7F5E97C7 
 530 053a EB28F43A 		.ascii	"\353(\364:<\356\242B\247\313\030\346\322w\256\307\365"
 530      3CEEA242 
 530      A7CB18E6 
 530      D277AEC7 
 530      F5
 531 054b 7591ABC0 		.ascii	"u\221\253\300\351\312\235>}F\266\223\311\336\274\371"
 531      E9CA9D3E 
 531      7D46B693 
 531      C9DEBCF9 
 532 055b AE19D195 		.ascii	"\256\031\321\225n\217c\336\234|\307W\356B\257\307\361"
 532      6E8F63DE 
 532      9C7CC757 
ARM GAS  /tmp/ccklYm9V.s 			page 43


 532      EE42AFC7 
 532      F1
 533 056c C5EC9C19 		.ascii	"\305\354\234\031\0378f\315\372\3041\373\323\234\005"
 533      1F3866CD 
 533      FAC431FB 
 533      D39C05
 534 057b EFD34C2E 		.ascii	"\357\323L.\"\344\347\317\315\236\307\246\304\256\301"
 534      22E4E7CF 
 534      CD9EC7A6 
 534      C4AEC1
 535 058a BDF20A9C 		.ascii	"\275\362\012\234\371Es]\016\347\274\005^\234v\304N;"
 535      F945735D 
 535      0EE7BC05 
 535      5E9C76C4 
 535      4E3B
 536 059c DDF3E7BB 		.ascii	"\335\363\347\273\013\"\250\037\177\23633\347\033\214"
 536      0B22A81F 
 536      7F9E3333 
 536      E71B8C
 537 05ab 73BA0B5D 		.ascii	"s\272\013]\271\264}!\306\253\236o=to\315+\360\272\012"
 537      B9B47D21 
 537      C6AB9E6F 
 537      3D746FCD 
 537      2BF0BA0A 
 538 05bf 17CCC9B7 		.ascii	"\027\314\311\267\277\024\237\302p\305\004w\221\327\356"
 538      BF149FC2 
 538      70C50477 
 538      91D7EE
 539 05ce FED24E43 		.ascii	"\376\322NC\373\302\274\202\271\356\205\354?f\321\\\354"
 539      FBC2BC82 
 539      B9EE85EC 
 539      3F66D15C 
 539      EC
 540              		.text
 541              		.section	.gnu.lto_rt_test_003_001_execute.e7f7340bf6f0acce,"",%progbits
 542 0000 789CA556 		.ascii	"x\234\245V_L[e\024\377N\277{{\333R@Y|\330\202\330=\360"
 542      5F4C5B65 
 542      14FF4EBF 
 542      7B7BDB52 
 542      40597CD8 
 543 0018 B0C470A7 		.ascii	"\260\304p\247\230\370\254\363\305d\274(\357d)5\220\000"
 543      98F8ACF3 
 543      C564BC28 
 543      EF642935 
 543      9000
 544 002a D5B6307D 		.ascii	"\325\2660}\342\302\012\213\220\375S7\250\261^\02348"
 544      E2C20A8B 
 544      90FD5337 
 544      A8B15E13 
 544      3438
 545 003c FE8D098E 		.ascii	"\376\215\011\216\321M\326Q&\270\015\366\017\220\255"
 545      D14DD651 
 545      26B80DF6 
 545      0F90AD
 546 004b 9B0345DC 		.ascii	"\233\003E\334df[6\335\374\263\315s\276\333\326\026\030"
 546      64665B36 
 546      DDFCB3CD 
ARM GAS  /tmp/ccklYm9V.s 			page 44


 546      73BEDBD6 
 546      1618
 547 005d 8836F05D 		.ascii	"\2106\360]\316=\347\373\235\363;\377\212\314L\354\246"
 547      CE3DE7FB 
 547      9DF33BFF 
 547      8ACC4CEC 
 547      A6
 548 006e 85310918 		.ascii	"\2051\011\030{\2311\006f\006\246\335c\214\325XL&yRe"
 548      7B993106 
 548      6606A6DD 
 548      638CD558 
 548      4C267952 
 549 0083 9A8D8772 		.ascii	"\232\215\207r\230f\3471I\022\222\0042\031\201\014@O"
 549      9866E731 
 549      49129204 
 549      3219810C 
 549      404F
 550 0095 CD02ACDA 		.ascii	"\315\002\254\332\304%\031\252a\027o\3420\270}\256\337"
 550      C42519AA 
 550      61176FE2 
 550      30B87DAE 
 550      DF
 551 00a6 B4A155C3 		.ascii	"\264\241U\303O\270\351\2609\250\235\325\270\316\031"
 551      4FB8E9B0 
 551      39A89DD5 
 551      B8CE19
 552 00b5 0BE02F7D 		.ascii	"\013\340/}\240\02560\264;\347\357\376\210\357D\025\200"
 552      A0153630 
 552      B43BE7EF 
 552      FE88EF44 
 552      1580
 553 00c7 84E2EDD1 		.ascii	"\204\342\355\321\017\177\310 \321\004\016\024\337\015"
 553      0F7FC820 
 553      D1040E14 
 553      DF0D
 554 00d5 370CD9F8 		.ascii	"7\014\331\370\213@\226z\333\241\033\220\333\242i\265"
 554      8B40967A 
 554      DBA11B90 
 554      DBA269B5 
 555 00e5 5AF8E7B5 		.ascii	"Z\370\347\265\001-\354w\350\234C\033p\304\204\375\220"
 555      012DEC77 
 555      E89C431B 
 555      70C484FD 
 555      90
 556 00f6 0D9F43B6 		.ascii	"\015\237C\266\300F\343\357\017>\334\233n\226\240\035"
 556      C046E3EF 
 556      0F3EDC9B 
 556      6E96A01D 
 557 0106 720D97D0 		.ascii	"r\015\227\320\001fd\310\016\234\207\260\366\360\321"
 557      016664C8 
 557      0E9C87B0 
 557      F6F0D1
 558 0115 762D3CB7 		.ascii	"v-<\2676\332{:+Kf:\227\254t\330\360\220\323\350\260"
 558      36DA7B3A 
 558      2B4B663A 
 558      97AC74D8 
 558      F090D3E8 
ARM GAS  /tmp/ccklYm9V.s 			page 45


 559 012a D3914E47 		.ascii	"\323\221NG\006\035\231t0\326\2008\304\265\221\233\350"
 559      061D9974 
 559      30D68038 
 559      C4B5919B 
 559      E8
 560 013b C9AF43ED 		.ascii	"\311\257C\355\335kmNBF\217\373\352\006\317(\024\271"
 560      DD6B6D4E 
 560      42468FFB 
 560      EA06CF28 
 560      14B9
 561 014d 5944DBDF 		.ascii	"YD\333\337\177#\252T?\320,\370\242\205\033A5\336\032"
 561      7F23AA54 
 561      3FD02CF8 
 561      A2851B41 
 561      35DE1A
 562 0160 EFB1E910 		.ascii	"\357\261\351\020\004\235+\320\205\231\352\244\200\341"
 562      049D2BD0 
 562      8599EAA4 
 562      80E1
 563 016e 00E880DA 		.ascii	"\000\350\200\332\336\241\341z\013\001(\000\320\215\232"
 563      DEA1E17A 
 563      0B012800 
 563      D08D9A
 564 017d EB3018FA 		.ascii	"\3530\030\372\375\257\216\275\353\022|\374\"\235\357"
 564      FDAF8EBD 
 564      EB127CFC 
 564      229DEF
 565 018c 4F99059D 		.ascii	"O\231\005\235\000\007\266@\025\371\330\361\014\203\203"
 565      0007B640 
 565      15F9D8F1 
 565      0C8383
 566 019b A4332DD4 		.ascii	"\2443-\324\375\271\377\331\247\031|A:\236\224\"\006"
 566      FDB9FFD9 
 566      A7197C41 
 566      3A9E9422 
 566      06
 567 01ac 3D587206 		.ascii	"=Xr\006\275`\016\362\364d\"\026\001?\326y\357\226\315"
 567      BD600EF2 
 567      F4642216 
 567      013FD679 
 567      EF96CD
 568 01bf 1009868A 		.ascii	"\020\011\206\212\324\322\365\333\260\305\340a\205C\230"
 568      D4D2F5DB 
 568      B0C5E061 
 568      854398
 569 01ce F82F8907 		.ascii	"\370/\211\007*\332F\357\336Q\324N\315_\243M\337\351"
 569      2ADA46EF 
 569      DE51D44E 
 569      CD5FA34D 
 569      DFE9
 570 01e0 79EA3DAB 		.ascii	"y\352=\253\316m\320\207\364\2321\003\302\017\034\006"
 570      CE6DD087 
 570      F49A3103 
 570      C20F1C06 
 571 01f0 95FD08B5 		.ascii	"\225\375\010\265\323\215\035\021\263\250\011U\210\315"
 571      D38D1D11 
 571      B3A80955 
ARM GAS  /tmp/ccklYm9V.s 			page 46


 571      88CD
 572 01fe 83FF93BE 		.ascii	"\203\377\223\276\0352\275X\220\274\264\000\227\360n"
 572      1D32BD58 
 572      90BCB400 
 572      97F06E
 573 020d 3F549322 		.ascii	"?T\223\"\324\026\231\221(\030;\3142\010A\266\316\323"
 573      D4169991 
 573      28183BCC 
 573      320841B6 
 573      CED3
 574 021f 09CE112B 		.ascii	"\011\316\021+\302gW\357\317\244\361c \"\037\276P_\223"
 574      C26757EF 
 574      CFA4F163 
 574      20221FBE 
 574      505F93
 575 0232 1E6B98B9 		.ascii	"\036k\230\271\300\272=\333\264\021M\242\2269\262\270"
 575      C0BA3DDB 
 575      B4114DA2 
 575      9639B2B8 
 576 0242 65E02885 		.ascii	"e\340(\205\201H\3610\360\376\225\272\320\220\205\017"
 576      8148F130 
 576      F0FE95BA 
 576      D090850F 
 577 0252 1B60D1D9 		.ascii	"\033`\321\331`\227\262\030\314\016_-\0016\000\271\024"
 577      6097B218 
 577      CC0E5F2D 
 577      013600B9 
 577      14
 578 0263 1C5670DB 		.ascii	"\034Vp\333\276\372]\277\206\357\027.\250E\323e\263,"
 578      BEFA5DBF 
 578      86EF172E 
 578      A845D365 
 578      B32C
 579 0275 ACC8AD51 		.ascii	"\254\310\255QK9\245&\307DM\302T\223\014,\213@\213\363"
 579      4B39A526 
 579      C7444DC2 
 579      54930C2C 
 579      8B408BF3 
 580 0289 4CC46A48 		.ascii	"L\304jH\003\311\322ji\037\217\323>\222\240\275*\246"
 580      03C9D26A 
 580      691F8FD3 
 580      3E92A0BD 
 580      2AA6
 581 029b 83908B57 		.ascii	"\203\220\213W\272O\355\350\263\031e\371\211AdE\346x"
 581      BA4FEDE8 
 581      B31965F9 
 581      89416445 
 581      E678
 582 02ad 4B785E8A 		.ascii	"Kx^\212\371\220`~\202\230g\022\363H2\363\343)\314\007"
 582      F990607E 
 582      82986712 
 582      F34832F3 
 582      E329CC07 
 583 02c1 8DD6A917 		.ascii	"\215\326\251\027R\220\313\251\235\223\021\340\204\364"
 583      5290CBA9 
 583      9D9311E0 
 583      84F4
ARM GAS  /tmp/ccklYm9V.s 			page 47


 584 02cf 35768E48 		.ascii	"5v\216Hb&\252\003su\362\372\333\240k\315\270;2\311o"
 584      6226AA03 
 584      7375F2FA 
 584      DBA06BCD 
 584      B83B32C9 
 585 02e4 FB1F53ED 		.ascii	"\373\037S\355\031x\241Y\323\360\325\0230\014\353E\027"
 585      1978A159 
 585      D3F0D513 
 585      300CEB45 
 585      17
 586 02f5 C20854EB 		.ascii	"\302\010T\353\374I6\013\376\350\246\177\360\023\303"
 586      FC49360B 
 586      FEE8A67F 
 586      F013C3
 587 0304 81EB12BE 		.ascii	"\201\353\022\276\211e\241\021\007*\224c\354\203\201"
 587      8965A111 
 587      072A9463 
 587      EC8381
 588 0313 F83E5871 		.ascii	"\370>Xq\001\234L,\200S\306\0028\361\350^8\323X\000&"
 588      019C4C2C 
 588      8053C602 
 588      38F1E85E 
 588      38D35800 
 589 0328 38BDDC02 		.ascii	"8\275\334\002\330\255,\277\000F\227Y\000c\213\027\300"
 589      D8AD2CBF 
 589      00469759 
 589      00638B17 
 589      C0
 590 0339 1991F2B3 		.ascii	"\031\221\362\263\304\321\266\352\361>\027\037oB\201"
 590      C4D1B6EA 
 590      F13E171F 
 590      6F4281
 591 0348 F3F1F11E 		.ascii	"\363\361\361\036Y8\336\255;\227\031\357\013\306x\007"
 591      5938DEAD 
 591      3B9719EF 
 591      0BC67807 
 592 0358 9BF73CB0 		.ascii	"\233\367<\260R\006d\270\246\300\370\242\361^UkO\304"
 592      520664B8 
 592      A6C0F8A2 
 592      F15E556B 
 592      4FC4
 593 036a 5B3BE679 		.ascii	"[;\346y\265\255=\211M:\276l+\177\240\310\302j\3421\255"
 593      B5AD3D89 
 593      4D3ABE6C 
 593      2B7FA0C8 
 593      C26AE231 
 594 037f FCADC8EB 		.ascii	"\374\255\310\353\024\3455\015S+\320\022\315;\221\322"
 594      14E5350D 
 594      532BD012 
 594      CD3B91D2 
 595 038f CA93FF67 		.ascii	"\312\223\377g\210/\306\231\266\3777\246\227\304\020"
 595      882FC699 
 595      B6FF37A6 
 595      97C410
 596 039e 7F5A73B2 		.ascii	"\177Zs\262\316f$\177^\201\350\212\314\361\226\360\274"
 596      CE66247F 
 596      5E81E88A 
ARM GAS  /tmp/ccklYm9V.s 			page 48


 596      CCF196F0 
 596      BC
 597 03af 14F3CB82 		.ascii	"\024\363\313\202\371\025bn'\346\321d\346\027S\230_J"
 597      F915626E 
 597      27E6D164 
 597      E6175398 
 597      5F4A
 598 03c1 1D62EB92 		.ascii	"\035b\353\222C\374\235\030bL\242\375_\015\361\325\370"
 598      43FC9D18 
 598      624CA2FD 
 598      5F0DF1D5 
 598      F8
 599 03d2 104F2F1A 		.ascii	"\020O/\032bk\322\324J\354f\032\237\007\276D_f\005\270"
 599      626BD2D4 
 599      4AEC661A 
 599      9F07BE44 
 599      5F6605B8 
 600 03e6 827E67D0 		.ascii	"\202~g\320\257\316\327\010kY|\351\377\002&\343\037\230"
 600      AFCED708 
 600      6B597CE9 
 600      FF0226E3 
 600      1F98
 601 03f8 061C3E7C 		.ascii	"\006\034>|\201\322\013yy\252\361\343sy}\252\307\247"
 601      81D20B79 
 601      79AAF1E3 
 601      73797DAA 
 601      C7A7
 602 040a 7ADD951E 		.ascii	"z\335\225\036\247+.\026\321\263\310\353z\253\322U\341"
 602      A72B2E16 
 602      D1B3C8EB 
 602      7AABD255 
 602      E1
 603 041b 74156DDC 		.ascii	"t\025m\334\230\237\347d\222\257\264\334\225\237\270"
 603      989FE764 
 603      92AFB4DC 
 603      959FB8
 604 042a E9F6AA25 		.ascii	"\351\366\252%[\312\3247\335\036\237W}\275\260 \377y"
 604      5BCAD437 
 604      DD1E9F57 
 604      7DBDB020 
 604      FF79
 605 043c 75F3E657 		.ascii	"u\363\346W\324\302W\013\252\236#M\021\"\224\225\025"
 605      D4C2570B 
 605      AA9E234D 
 605      11229495 
 605      15
 606 044d E795B09C 		.ascii	"\347\225\260\234\344;\350\253\264\302YVY\354R\235%U"
 606      E43BE8AB 
 606      B4C25956 
 606      59EC529D 
 606      2555
 607 045f 3E54ABC9 		.ascii	">T\253\311j\247\273\274\334]\021C}\351\265\202M\005"
 607      6AA7BBBC 
 607      DC5D1143 
 607      7DE9B582 
 607      4D05
 608 0471 6FA39DD3 		.ascii	"o\243\235\323\355q\025\221{\017\332+\336w\274\364\267"
ARM GAS  /tmp/ccklYm9V.s 			page 49


 608      ED711591 
 608      7B0FDA2B 
 608      DE77BCF4 
 608      B7
 609 0482 A5B4C2E7 		.ascii	"\245\264\302\347\362Tm)s<\026\237\314\360\306\032w\245"
 609      F2546D29 
 609      733C169F 
 609      CCF0C61A 
 609      77A5
 610 0494 CFE17EC3 		.ascii	"\317\341~\303A\242ckiE\261{+\373\033\005<+\236"
 610      41A2636B 
 610      6945B17B 
 610      2BFB1B05 
 610      3C2B9E
 611              		.text
 612              		.section	.gnu.lto_rt_test_sequence_003.e7f7340bf6f0acce,"",%progbits
 613 0000 789C6365 		.ascii	"x\234ce`b\310a``\360e\200\200\351\314\214\315\277\366"
 613      6062C861 
 613      6060F065 
 613      8080E9CC 
 613      8CCDBFF6 
 614 0014 7FE6ABFF 		.ascii	"\177\346\253\377\3330\243\241\341A\367>n\346\371\314"
 614      DB30A3A1 
 614      E141F73E 
 614      6EE6F9CC 
 615 0024 0C8B9921 		.ascii	"\014\213\231!R3\347\337\270\302\252h>\277a\206\302|"
 615      5233E7DF 
 615      B8C2AA68 
 615      3EBF6186 
 615      C27C
 616 0036 664690C8 		.ascii	"fF\220\310\351\337\377\237\260@\024/\370\252;\237\231"
 616      E9DFFF9F 
 616      B040142F 
 616      F8AA3B9F 
 616      99
 617 0047 897105A3 		.ascii	"\211q\005\243\"X\355\237\033\377^r[lk\350X\320\000T"
 617      2258ED9F 
 617      1BFF5E72 
 617      5B6C6BE8 
 617      58D00054 
 618 005b CC3C8399 		.ascii	"\314<\203\231\201q%c\375\014fF\306\345\214\365\014\214"
 618      81712563 
 618      FD0C6646 
 618      C6E58CF5 
 618      0C8C
 619 006d AB182D18 		.ascii	"\253\030-\030L\364\364\364!\250$\265\270D\277\250D\277"
 619      4CF4F4F4 
 619      21A824B5 
 619      B844BFA8 
 619      44BF
 620 007f 38BFB428 		.ascii	"8\277\264(9\025\306\215\007\321\361\305\251\205\245"
 620      3915C68D 
 620      07D1F1C5 
 620      A985A5
 621 008e A979C9A9 		.ascii	"\251y\311\251\361\006\006\306z\311\014b!\031E\251\211"
 621      F10606C6 
 621      7AC90C62 
ARM GAS  /tmp/ccklYm9V.s 			page 50


 621      211945A9 
 621      89
 622 009f 29C50A6E 		.ascii	")\305\012n\245y\311%\231\371y\2119\231%\225\014\000"
 622      A579C925 
 622      99F97989 
 622      39992595 
 622      0C00
 623 00b1 1BF943EA 		.ascii	"\033\371C\352"
 624              		.text
 625              		.section	.gnu.lto_rt_test_sequence_003_array.e7f7340bf6f0acce,"",%progbits
 626 0000 789C6365 		.ascii	"x\234ce`b\270\317\300\300`\306\000\001\323\231\031\247"
 626      6062B8CF 
 626      C0C060C6 
 626      0001D399 
 626      19A7
 627 0012 B51E3ACF 		.ascii	"\265\036:\317\336\307<\237\231\201\021\304\275\330\262"
 627      DEC73C9F 
 627      998111C4 
 627      BDD8B2
 628 0021 610E3388 		.ascii	"a\0163\210\313\310\310\002\3446\377\332\377\231\257"
 628      CBC8C802 
 628      E436FFDA 
 628      FF99AF
 629 0030 FE6FC38C 		.ascii	"\376o\303\214\206\206\007\335k\270A\312\0263C4\036\372"
 629      868607DD 
 629      6BB841CA 
 629      16334334 
 629      1EFA
 630 0042 B461390F 		.ascii	"\264a9\017D%3\252\312\005+u\301\352\030\301\352\216"
 630      442533AA 
 630      CA052B75 
 630      C1EA18C1 
 630      EA8E
 631 0054 FEFF7E80 		.ascii	"\376\377~\200\037\242\216\011M\335R\210:&\260:d\211"
 631      1FA28E09 
 631      4DDD5288 
 631      3A26B03A 
 631      6489
 632 0066 85100966 		.ascii	"\205\020\011f\260\304\374\331S\277qXlk\350X\320\020"
 632      B0C4FCD9 
 632      53BF7158 
 632      6C6BE858 
 632      D010
 633 0078 309F9989 		.ascii	"0\237\231\211\321P\206q\035c=\243\221\014\343Z \265"
 633      D1508671 
 633      1D633DA3 
 633      910CE35A 
 633      20B5
 634 008a 86518671 		.ascii	"\206Q\206q5\220^\005\244W\002\351\025@z9\243\014\003"
 634      35905E05 
 634      A45702E9 
 634      15407A39 
 634      A30C03
 635 009d E37A460B 		.ascii	"\343zF\013\006\023==}\010*I-.\321/*\321/\316/-JN\205"
 635      06133D3D 
 635      7D082A49 
 635      2D2ED12F 
ARM GAS  /tmp/ccklYm9V.s 			page 51


 635      2AD12FCE 
 636 00b6 71E34174 		.ascii	"q\343At|qjaij^rj\274\201\201\261^2\003\000!\213`>"
 636      7C716A61 
 636      696A5E72 
 636      6ABC8181 
 636      B15E3203 
 637              		.text
 638              		.section	.gnu.lto_rt_test_003_001.e7f7340bf6f0acce,"",%progbits
 639 0000 789C6365 		.ascii	"x\234ce`b\350d``\010b\200\200\351\314\214;w\276\271"
 639      6062E864 
 639      60600862 
 639      8080E9CC 
 639      8C3B77BE 
 640 0015 CD5EFFB7 		.ascii	"\315^\377\267\241\243\241\341A\367<V\346\371\314\014"
 640      A1A3A1E1 
 640      41F73C56 
 640      E6F9CC0C 
 641 0025 33992152 		.ascii	"3\231!R\323Z\017\235g\357\003\2110\202\270k7\355\234"
 641      D35A0F9D 
 641      67EF0389 
 641      3082B86B 
 641      37ED9C
 642 0038 CCAE683E 		.ascii	"\314\256h>\277a\206\302|f\260\310\203\025\367\326\260"
 642      BF6186C2 
 642      7C66B0C8 
 642      8315F7D6 
 642      B0
 643 0049 01F5CE68 		.ascii	"\001\365\316hhX\360Vd>3\023\343JFE\260\326#\035\277"
 643      6858F056 
 643      643E3313 
 643      E34A4645 
 643      B0D6231D 
 644 005e DEF25B6C 		.ascii	"\336\362[lk\350X\320\3400\237\231y\006\320\210U\214"
 644      6BE858D0 
 644      E0309F99 
 644      7906D088 
 644      558C
 645 0070 F5339819 		.ascii	"\3653\230\031\031W0\312\314\000*\004S\314\214\313\031"
 645      195730CA 
 645      CC002A04 
 645      53CC8CCB 
 645      19
 646 0081 EB191857 		.ascii	"\353\031\030W3Z0\230\350\351\351CPIjq\211~Q\211~q~i"
 646      335A3098 
 646      E8E9E943 
 646      50496A71 
 646      897E5189 
 647 0099 51722A8C 		.ascii	"Qr*\214\033\017\242\343\213S\013KS\363\222S\343\015"
 647      1B0FA2E3 
 647      8B530B4B 
 647      53F39253 
 647      E30D
 648 00ab 0C8CF592 		.ascii	"\014\214\365\222\031\244C2\212R\023S\024\202sRS\013"
 648      19A44332 
 648      8A521353 
 648      14827352 
 648      530B
ARM GAS  /tmp/ccklYm9V.s 			page 52


 649 00bd 14D24AF3 		.ascii	"\024\322J\363\222K2\363\363\022s2K*\031\000\325\322"
 649      924B32F3 
 649      F3127332 
 649      4B2A1900 
 649      D5D2
 650 00cf 4B95     		.ascii	"K\225"
 651              		.text
 652              		.section	.gnu.lto_rt_test_003_002.e7f7340bf6f0acce,"",%progbits
 653 0000 789C6365 		.ascii	"x\234ce`b\350d``\310`\200\200\351\314\214;w\276\271"
 653      6062E864 
 653      6060C860 
 653      8080E9CC 
 653      8C3B77BE 
 654 0015 CD5EFFB7 		.ascii	"\315^\377\267\241\243\241\341A\367Jv\346\371\314\014"
 654      A1A3A1E1 
 654      41F74A76 
 654      E6F9CC0C 
 655 0025 33992152 		.ascii	"3\231!R\323Z\017\235g\357\003\2110\202\270?^\256\274"
 655      D35A0F9D 
 655      67EF0389 
 655      3082B83F 
 655      5EAEBC
 656 0038 CBAC683E 		.ascii	"\313\254h>\277a\206\302|f\260\310\353+=\227X\201zg4"
 656      BF6186C2 
 656      7C66B0C8 
 656      EB2B3D97 
 656      58817A67 
 657 004d 342CF829 		.ascii	"4,\370)3\237\231\211q%\243\"X\353\217o\37363[lk\350"
 657      339F9989 
 657      7125A322 
 657      58EB8F6F 
 657      FB36335B 
 658 0064 58D0E030 		.ascii	"X\320\3400\237\231y\006\320\210U\214\3653\230\031\031"
 658      9F997906 
 658      D088558C 
 658      F5339819 
 658      19
 659 0075 5730CACC 		.ascii	"W0\312\314\000*\004S\314\214\313\031\353\031\030W3Z"
 659      002A0453 
 659      CC8CCB19 
 659      EB191857 
 659      335A
 660 0087 3098E8E9 		.ascii	"0\230\350\351\351CPIjq\211~Q\211~q~iQr*\214\033\017"
 660      E9435049 
 660      6A71897E 
 660      51897E71 
 660      7E695172 
 661 009f A2E38B53 		.ascii	"\242\343\213S\013KS\363\222S\343\015\014\214\365\222"
 661      0B4B53F3 
 661      9253E30D 
 661      0C8CF592 
 662 00af 190C8352 		.ascii	"\031\014\203R\023S*\025|2\213K\024\322J\363\222K2\363"
 662      13532A15 
 662      7C328B4B 
 662      14D24AF3 
 662      924B32F3 
 663 00c3 F3127332 		.ascii	"\363\022s2K*u\024J2\212\200r\305\012\005E\231\371E@"
ARM GAS  /tmp/ccklYm9V.s 			page 53


 663      4B2A7514 
 663      4A328A80 
 663      72C50A05 
 663      4599F945 
 664 00d8 1185FCA2 		.ascii	"\021\205\374\242\224\324\"\006\000\221aU\031"
 664      94D42206 
 664      00916155 
 664      19
 665              		.text
 666              		.section	.gnu.lto_rt_test_003_003.e7f7340bf6f0acce,"",%progbits
 667 0000 789C6365 		.ascii	"x\234ce`b\350d``\360a\200\200\351\314\214;w\276\271"
 667      6062E864 
 667      6060F061 
 667      8080E9CC 
 667      8C3B77BE 
 668 0015 CD5EFFB7 		.ascii	"\315^\377\267\241\243\241\341A\367?v\346\371\314\014"
 668      A1A3A1E1 
 668      41F73F76 
 668      E6F9CC0C 
 669 0025 33992152 		.ascii	"3\231!R\323Z\017\235g\357\003\2110\202\270\377\337\375"
 669      D35A0F9D 
 669      67EF0389 
 669      3082B8FF 
 669      DFFD
 670 0037 5EC2A768 		.ascii	"^\302\247h>\277a\206\302|f\260\310\273\325\227[\331"
 670      3EBF6186 
 670      C27C66B0 
 670      C8BBD597 
 670      5BD9
 671 0049 807A6734 		.ascii	"\200zg44,x+?\237\231\211q%\243\"X\353\276\346\347\017"
 671      342C782B 
 671      3F9F9989 
 671      7125A322 
 671      58EBBEE6 
 672 005f 392CB635 		.ascii	"9,\2665t,hp\230\317\314<\003h\304*\306\372\031\314\214"
 672      742C6870 
 672      98CFCC3C 
 672      0368C42A 
 672      C6FA19CC 
 673 0074 8C2B1865 		.ascii	"\214+\030ef\000\025\202)f\306\345\214\365\014\214\253"
 673      66001582 
 673      2966C6E5 
 673      8CF50C8C 
 673      AB
 674 0085 192D184C 		.ascii	"\031-\030L\364\364\364!\250$\265\270D\277\250D\2778"
 674      F4F4F421 
 674      A824B5B8 
 674      44BFA844 
 674      BF38
 675 0097 BFB42839 		.ascii	"\277\264(9\025\306\215\007\321\361\305\251\205\245\251"
 675      15C68D07 
 675      D1F1C5A9 
 675      85A5A9
 676 00a6 79C9A9F1 		.ascii	"y\311\251\361\006\006\306z\311\014\242\001E\231\371"
 676      0606C67A 
 676      C90CA201 
 676      4599F9
ARM GAS  /tmp/ccklYm9V.s 			page 54


 677 00b5 45992595 		.ascii	"E\231%\225\012\311\031\211y\351\251\012 E\014\000\322"
 677      0AC91989 
 677      79E9A90A 
 677      20450C00 
 677      D2
 678 00c6 484A3A   		.ascii	"HJ:"
 679              		.text
 680              		.section	.gnu.lto_rt_test_003_004.e7f7340bf6f0acce,"",%progbits
 681 0000 789C6365 		.ascii	"x\234ce`b\350d``Hc\200\200\351\314\214;w\276\271\315"
 681      6062E864 
 681      60604863 
 681      8080E9CC 
 681      8C3B77BE 
 682 0016 5EFFB7A1 		.ascii	"^\377\267\241\243\241\341Aw\0177\363|f\206\231\314\020"
 682      A3A1E141 
 682      770F37F3 
 682      7C668699 
 682      CC10
 683 0028 A969AD87 		.ascii	"\251i\255\207\316\263\367\201D\030A\334\025\217~lfR"
 683      CEB3F781 
 683      441841DC 
 683      158F7E6C 
 683      6652
 684 003a 349FDF30 		.ascii	"4\237\3370Ca>3Xd\355\301\327\3778\200zg44,X\2523\237"
 684      43613E33 
 684      5864EDC1 
 684      D7FF3880 
 684      7A673434 
 685 0053 99897125 		.ascii	"\231\211q%\243\"X\353\331\373\377\333\371-\2665t,hp"
 685      A32258EB 
 685      D9FBFFDB 
 685      F92DB635 
 685      742C6870 
 686 0067 98CFCC3C 		.ascii	"\230\317\314<\003h\304*\306\372\031\314\214\214+\030"
 686      0368C42A 
 686      C6FA19CC 
 686      8C8C2B18 
 687 0077 65660015 		.ascii	"ef\000\025\202)f\306\345\214\365\014\214\253\031-\030"
 687      822966C6 
 687      E58CF50C 
 687      8CAB192D 
 687      18
 688 0088 4CF4F4F4 		.ascii	"L\364\364\364!\250$\265\270D\277\250D\2778\277\264("
 688      21A824B5 
 688      B844BFA8 
 688      44BF38BF 
 688      B428
 689 009a 3915C68D 		.ascii	"9\025\306\215\007\321\361\305\251\205\245\251y\311\251"
 689      07D1F1C5 
 689      A985A5A9 
 689      79C9A9
 690 00a9 F10606C6 		.ascii	"\361\006\006\306z\311\014\372\001E\231\371E\231%\225"
 690      7AC90CFA 
 690      014599F9 
 690      45992595 
 691 00b9 0AC91989 		.ascii	"\012\311\031\211y\351\251\012 E\012\345\231%\031\012"
 691      79E9A90A 
ARM GAS  /tmp/ccklYm9V.s 			page 55


 691      20450AE5 
 691      9925190A 
 692 00c9 7019CFBC 		.ascii	"p\031\317\274\214T #\021\250\213\001\000\227\255S\342"
 692      8C542023 
 692      11A88B01 
 692      0097AD53 
 692      E2
 693              		.text
 694              		.section	.gnu.lto_.symbol_nodes.e7f7340bf6f0acce,"",%progbits
 695 0000 789C5D8F 		.ascii	"x\234]\217A/\003Q\024\205\357\234\327\231\316P\242-"
 695      412F0351 
 695      1485EF9C 
 695      D799CE50 
 695      A22D
 696 0012 6A472CFD 		.ascii	"jG,\375\007\211\177\366F2!,\220\376\002\221\371\021"
 696      07897FF6 
 696      4632212C 
 696      90FE0291 
 696      F911
 697 0024 2C9B4C5A 		.ascii	",\233LZZZZ\224\226\226tB\"bm%\356\2357\022\323\325w"
 697      5A5A5A94 
 697      96967442 
 697      22626D25 
 697      EE9D3712 
 698 003b CFB9E79D 		.ascii	"\317\271\347\235\274k\023h\002\"B\033\332\242\2436\221"
 698      BC6B1368 
 698      0222421B 
 698      DAA2A336 
 698      91
 699 004c 263A3DAE 		.ascii	"&:=\256\371\016\221\335\005\255\361\316\276\203%\304"
 699      F90E91DD 
 699      05ADF1CE 
 699      BE8325C4 
 700 005c 2534A632 		.ascii	"%4\2462hB\253\351w} \3117\300\346\324\356\021*\331\355"
 700      6842ABE9 
 700      777D20C9 
 700      37C0E6D4 
 700      EE112AD9 
 701 0071 299D4B77 		.ascii	")\235Kw\326\231_\363\267\330;\207\266\247\3637\310m"
 701      D6995FF3 
 701      B7D83B87 
 701      B6A7F337 
 701      C86D
 702 0083 AFCB27AE 		.ascii	"\257\313'\256a\233\341\002\216\317\203\262[\310\233"
 702      619BE102 
 702      8ECF83B2 
 702      5BC89B
 703 0092 E10AAE19 		.ascii	"\341\012\256\031:\360\222\301\352A;I\023\221/\325\326"
 703      3AF092C1 
 703      EA413B49 
 703      13912FD5 
 703      D6
 704 00a3 2D743E63 		.ascii	"-t>c\014\241\335\2141\200\3662\306\003\364L\306x\202"
 704      0CA1DD8C 
 704      3180F632 
 704      C603F44C 
 704      C67882
ARM GAS  /tmp/ccklYm9V.s 			page 56


 705 00b6 9ECD18CF 		.ascii	"\236\315\030\317\320\205\2141\202\236\313\030c\350\371"
 705      D0858C31 
 705      829ECB18 
 705      63E8F9
 706 00c5 FF86A205 		.ascii	"\377\206\242\005\212_\177,EE\212\353uGt\3240\214\233"
 706      8A5F7F2C 
 706      45458AEB 
 706      754774D4 
 706      308C9B
 707 00d8 7D0883F6 		.ascii	"}\010\203\366\246\254\203N%q\015\202^A\020\336[J\025"
 707      A6AC834E 
 707      25710D82 
 707      5E4110DE 
 707      5B4A15
 708 00eb 29920AC5 		.ascii	")\222\012\305r\347sU\230T\260\037J\005\353\240e\030"
 708      72E77355 
 708      9854B01F 
 708      4A05EBA0 
 708      6518
 709 00fd 72556ED1 		.ascii	"rUn\321\304\231\301.\307E\357\033\006\007\251>\024\226"
 709      C499C12E 
 709      C745EF1B 
 709      0607A93E 
 709      1496
 710 010f 29A80A4B 		.ascii	")\250\012K\024V\215\037\367\270Vr}\303p`\030\015\015"
 710      14568D1F 
 710      F7B85672 
 710      7DC37060 
 710      180D0D
 711 0122 E391B04C 		.ascii	"\343\221\260L\341XX\242h\234\346'\337\033I\376\3150"
 711      E15858A2 
 711      689CE627 
 711      DF1B49FE 
 711      CD30
 712 0134 7A378C3F 		.ascii	"z7\214?\014\203/a\231\242\204%\212\205\316\022E/\374"
 712      0C832F61 
 712      99A28425 
 712      8A85CE12 
 712      452FFC
 713 0147 4FB742F1 		.ascii	"O\267B\361\200\277\357\256\360\265B\326\035\356u\227"
 713      80BFEFAE 
 713      F0B542D6 
 713      1DEE7597 
 714 0157 F92C216B 		.ascii	"\371,!k\271C\264\334\345\3751\365\2754\347\245\357<"
 714      B943B4DC 
 714      E5FD31F5 
 714      BD34E7A5 
 714      EF3C
 715 0169 974EBA7D 		.ascii	"\227N\272}\320/:Q\311B"
 715      D02F3A51 
 715      C942
 716              		.text
 717              		.section	.gnu.lto_.refs.e7f7340bf6f0acce,"",%progbits
 718 0000 789C2DCC 		.ascii	"x\234-\314kK\002a\024\004\340\231\331}\317q\335\233"
 718      6B4B0261 
 718      1404E099 
 718      D97DCF71 
ARM GAS  /tmp/ccklYm9V.s 			page 57


 718      DD9B
 719 0012 95851514 		.ascii	"\225\205\025\024\222\224\321\215\212.`?\276 \205\014"
 719      9294D18D 
 719      8A2E603F 
 719      BE20850C 
 720 0022 2AB020FF 		.ascii	"*\260 \377MGl>=\314\300$\010}\002]\220\204D\026P\017"
 720      4D476C3E 
 720      3DCCC024 
 720      087D025D 
 720      90844416 
 721 0038 DA26F7A0 		.ascii	"\332&\367\240!tL\236AW)[\357PI\306\276s\227\257\212"
 721      21744C9E 
 721      4157295B 
 721      EF5049C6 
 721      BE7397AF 
 722 004d 14452633 		.ascii	"\024E&3\272#u\240BV\321k\244\006je\233\364-\244~\334"
 722      BA2375A0 
 722      4256D16B 
 722      A4066A65 
 722      9BF42DA4 
 723 0063 C906F45D 		.ascii	"\311\006\364]\2448\335\227\035\320\017\311#h$;\241\217"
 723      A438DD97 
 723      1DD00FC9 
 723      2368243B 
 723      A18F
 724 0075 A153D939 		.ascii	"\241S\3319\375\002\272\224]\323o\240[\331=\375\001z"
 724      FD02BA94 
 724      5DD36FA0 
 724      5BD93DFD 
 724      017A
 725 0087 944DE84F 		.ascii	"\224M\350O\3443\240\027\310^A\237\206g\341\267\360<"
 725      E433A017 
 725      C85E419F 
 725      8667E1B7 
 725      F03C
 726 0099 FC1EFE08 		.ascii	"\374\036\376\010\177\206\277\302\213\360w\370'\374\033"
 726      7F86BFC2 
 726      8BF077F8 
 726      27FC1B
 727 00a8 5E22EB70 		.ascii	"^\"\353p\225\015r\250\342\237]\225y\251J\265\032\265"
 727      950D72A8 
 727      E29F5D95 
 727      79A94AB5 
 727      1AB5
 728 00ba ACA2AF95 		.ascii	"\254\242\257\225\263Q\306V\300\037\351~\024\372"
 728      B351C656 
 728      C01FE97E 
 728      14FA
 729              		.text
 730              		.section	.gnu.lto_.decls.e7f7340bf6f0acce,"",%progbits
 731 0000 789CB57C 		.ascii	"x\234\265|yP\224Y\266g~y3\223\035,\264\353U\367\370"
 731      79509459 
 731      B6677E79 
 731      33931D2C 
 731      B4EB55F7 
 732 0015 BA3BAA7D 		.ascii	"\272;\252}Q\274\231.q\251\327]=\3211S\335vOw\305tuU"
 732      51BC992E 
ARM GAS  /tmp/ccklYm9V.s 			page 58


 732      71A9D75D 
 732      3DD13153 
 732      DD764F77 
 733 002d 685547BD 		.ascii	"hUG\275?\3360\024f\225t!8\220V\225\363\342M'\233\262"
 733      3FDE3014 
 733      66957421 
 733      38905695 
 733      F3E24D27 
 734 0043 0AA280A0 		.ascii	"\012\242\200\240\310\242\010\010\010\012\312&\310\276"
 734      C8A20808 
 734      080ACA26 
 734      C8BE
 735 0051 6F82A0EC 		.ascii	"o\202\240\354\213,\262+ \233,s\356\362\345\267\220i"
 735      8B2CB22B 
 735      209B2C73 
 735      EEF2E5B7 
 735      9069
 736 0063 3913F132 		.ascii	"9\023\3612<d\336\357;\367\234\3379\367\234{\317\275"
 736      3C64DEEF 
 736      3BF79CDF 
 736      39F79C7B 
 736      CFBD
 737 0075 5FA66A85 		.ascii	"_\246j\205R\241\371D\241\350\267P(vk\024\212-x\331("
 737      52A1F944 
 737      A1E8B750 
 737      28766B14 
 737      8A2D78D9 
 738 008a 148A4CA0 		.ascii	"\024\212L\240\037\000\335\006\312\001\312\007*\000*"
 738      1F00DD06 
 738      CA01CA07 
 738      2A002A
 739 0099 01BA0F54 		.ascii	"\001\272\017T\011T\005T\007\324\002\324\012\324\001"
 739      09540554 
 739      07D402D4 
 739      0AD401
 740 00a8 D409F431 		.ascii	"\324\011\3641P/P?\320\000\320;@#@\243@\317\024\364e"
 740      502F503F 
 740      D000D03B 
 740      402340A3 
 740      40CF14F4 
 741 00bd 07B408B4 		.ascii	"\007\264\010\264\014\264\012\364\022h\023\337\340\024"
 741      0CB40AF4 
 741      126813DF 
 741      E014
 742 00cb 0A33205B 		.ascii	"\0123 [\240]@o\002=\001\032\007\232\002Z\004Z\001\262"
 742      A05D406F 
 742      023D011A 
 742      079A025A 
 742      045A01B2 
 743 00df 04D63578 		.ascii	"\004\3265x\377D\251P\374\005\350\237\201N\002\235\002"
 743      FF44A950 
 743      FC05E89F 
 743      814E029D 
 743      02
 744 00f0 FA57A07F 		.ascii	"\372W\240\177\003\372\033\220\267R!y\315A\237\335\360"
 744      03FA1B90 
 744      B7522179 
ARM GAS  /tmp/ccklYm9V.s 			page 59


 744      CD419FDD 
 744      F0
 745 0101 FE17207B 		.ascii	"\376\027 {\240]@\226p\355\026Gqb{|\224\324\006_x\377"
 745      A05D4096 
 745      70ED1647 
 745      71627B7C 
 745      94D4065F 
 746 0117 33D0FB40 		.ascii	"3\320\373@\267\341\276\237R\360\203\006\332\376\320"
 746      B7E1BE9F 
 746      52F08306 
 746      DAFED0
 747 0126 B6E1B6FB 		.ascii	"\266\341\266\373\204\367\3314\363A \360\251\340\375"
 747      84F7D934 
 747      F34120F0 
 747      A9E0FD
 748 0135 BFC3FB3E 		.ascii	"\277\303\373>\240\036\350\223\306l\300\366\207\300\265"
 748      A01EE893 
 748      C66CC0F6 
 748      87C0B5
 749 0144 30A560F7 		.ascii	"0\245`\3679\370|\036(\006\350\022P\034\220Rd\257\370"
 749      39F87C1E 
 749      2806E812 
 749      501C9052 
 749      64AFF8
 750 0157 B5C0D171 		.ascii	"\265\300\321q\372\377\261\207\307\217\355\342m\300v"
 750      FAFFB187 
 750      C78FEDE2 
 750      6DC076
 751 0166 F1362219 		.ascii	"\3616\"\031f5\033+\036\257-\033+S\330\226\341\332O\030"
 751      66351B2B 
 751      1EAF2D1B 
 751      2B53D896 
 751      E1DA4F18 
 752 017a B6CF14C6 		.ascii	"\266\317\024\3061]\201\367\317\200>Un\307\207\355\210"
 752      315D81F7 
 752      CF803E55 
 752      6EC787ED 
 752      88
 753 018b 574A6369 		.ascii	"WJci\030\256%\300\265\317\201 l\025\377\002\357K\360"
 753      18AE25C0 
 753      B5CF8120 
 753      6C15FF02 
 753      EF4BF0
 754 019e 9EA8DC1E 		.ascii	"\236\250\334\036\207;\271\3556\230\261X\343m\300\261"
 754      873BB9ED 
 754      3698B158 
 754      E36DC0B1 
 755 01ae 85E3F04D 		.ascii	"\205\343\360M\026o*f\013\216\251OX\\\211_\023p\317\\"
 755      166F2A66 
 755      0B8EA94F 
 755      585C895F 
 755      1370CF5C 
 756 01c2 E66F6C5B 		.ascii	"\346ol[6\320\033p/\011\370\3078\312\253d1>\316)\266"
 756      36D01B70 
 756      2F09F8C7 
 756      38CAAB64 
 756      313ECE29 
ARM GAS  /tmp/ccklYm9V.s 			page 60


 757 01d7 BD3638DA 		.ascii	"\27568\332W,g\316\210\177z1n\240\353@}@\223\034\315"
 757      572C67CE 
 757      887F7A31 
 757      6EA0EB40 
 757      7D40931C 
 758 01ec A17EA590 		.ascii	"\241~\245\220S8\006\006\224\324\337XU\253\222b\304\371"
 758      53380606 
 758      94D4DF58 
 758      55AB9262 
 758      C4F9
 759 01fe 348CF930 		.ascii	"4\214\3710&%\315\237)\245\220C\034\263U\374\342\224"
 759      2625CD9F 
 759      29A59043 
 759      1CB355FC 
 759      E294
 760 0210 C671614C 		.ascii	"\306qaL\357\274\002\027\306\204\261\311qMC{C!\305\205"
 760      EFBC0217 
 760      C684B1C9 
 760      714D437B 
 760      4321C585 
 761 0224 1BA6706D 		.ascii	"\033\246pm*\214\343\232R\321\261\231\001\276y\240\005"
 761      2A8CE39A 
 761      52D1B199 
 761      01BE79A0 
 761      05
 762 0235 201DCB8B 		.ascii	" \035\313\213\023\360\307\235\215\023\356vJ\236#*\032"
 762      13F0C79D 
 762      8D13EE76 
 762      4A9E232A 
 762      1A
 763 0246 077F65B6 		.ascii	"\007\177e\266}'\272\217ez\263\271\342\337\330\334!~"
 763      7D27BA8F 
 763      657AB3B9 
 763      E2DFD8DC 
 763      217E
 764 0258 2D33BD38 		.ascii	"-3\2758\316\226\201V\200\\Y>\037\205wg\240\377\011\364"
 764      CE968156 
 764      805C593E 
 764      1F857767 
 764      A0FF09F4 
 765 026c 8592EA56 		.ascii	"\205\222\352V\030\031\353\227\"\031\353\330\037\337"
 765      1819EB97 
 765      2219EBD8 
 765      1FDF
 766 027a 23E3E576 		.ascii	"#\343\345v\021\212-\221\014l\014\207^-c\325\210\014"
 766      118A2D91 
 766      0C6C0C87 
 766      5E2D63D5 
 766      880C
 767 028c A4166468 		.ascii	"\244\026dh\240\277\331\367\310X6\"#\032q\205\276\351"
 767      A0BFD9F7 
 767      C8583622 
 767      231A7185 
 767      BEE9
 768 029e D9366711 		.ascii	"\3316g\021go\311\375\030\232\017\374\262/#\332TA\363"
 768      676FC9FD 
 768      189A0FFC 
ARM GAS  /tmp/ccklYm9V.s 			page 61


 768      B22F23DA 
 768      5441F3
 769 02b1 7953EC13 		.ascii	"yS\354\023[h\356\262\344~\012\315\365g\015Y\226\226"
 769      5B68EEB2 
 769      E47E0ACD 
 769      F5670D59 
 769      9696
 770 02c3 017A7885 		.ascii	"\001zx\205\373\352-\376\210\331\322\270\335\\*\007\263"
 770      FBEA2DFE 
 770      88D9D2B8 
 770      DD5C2A07 
 770      B3
 771 02d4 30778383 		.ascii	"0w\203\2039\220s\334\315\245@\023\270\317_\273Y\300"
 771      399073DC 
 771      CDA54013 
 771      B8CF5FBB 
 771      59C0
 772 02e6 44FF04CB 		.ascii	"D\377\004\313\322\207\236\261\246\262V8hw\254\024\257"
 772      D2879EB1 
 772      A6B25638 
 772      6877AC14 
 772      AF
 773 02f7 59232507 		.ascii	"Y#%\007\254\252\301\253\363S\032\316a7\307Y\002]\327"
 773      ACAAC1AB 
 773      F3531ACE 
 773      6137C759 
 773      025DD7
 774 030a D397B982 		.ascii	"\323\227\271\202\313\346,\271L\354\036\372\212\325\203"
 774      CBE62CB9 
 774      4CEC1EFA 
 774      8AD583
 775 0319 F2677FC3 		.ascii	"\362g\177\303\227\025\360\311G\377,I\217\336Rp\007w"
 775      9715F0C9 
 775      47FF2C49 
 775      8FDE5270 
 775      0777
 776 032b 73FB762B 		.ascii	"s\373v+\270\233\234\003\271\245\340n\001\252,\200\021"
 776      B89B9C03 
 776      B9A5E06E 
 776      01AA2C80 
 776      11
 777 033c AB372757 		.ascii	"\2537'W@_Q\365d\224\215}8\001\257\327\377\224#\2623"
 777      405F51F5 
 777      64948D7D 
 777      3801AFD7 
 777      FF9423B2 
 778 0351 802F9DA0 		.ascii	"\200/\235\240\277\315\331\3636\220\006\364X\361\013"
 778      BFCDD9F3 
 778      369006F4 
 778      58F10B
 779 0360 BE64651D 		.ascii	"\276de\035\204\365Ps\341\262\310\336\034\316\232\304"
 779      84F55073 
 779      E1B2C8DE 
 779      1CCE9AC4 
 780 0370 08BC03F3 		.ascii	"\010\274\003\363btc\227\035\265\366\207\320L\332(\273"
 780      62746397 
 780      1DB5F687 
ARM GAS  /tmp/ccklYm9V.s 			page 62


 780      D04CDA28 
 780      BB
 781 0381 6563D255 		.ascii	"ec\322UwxW\345RW\215\217'^\260\246\235\177\004\315\276"
 781      777857E5 
 781      52578D8F 
 781      275EB0A6 
 781      9D7F04CD 
 782 0396 F365711A 		.ascii	"\363eq\032\352\252V\354\252\207\033A\003j9\364<\220"
 782      EAAA56EC 
 782      AA871B41 
 782      036A39F4 
 782      3C90
 783 03a8 769748CB 		.ascii	"v\227H\313'\320\357P\350\371\004zS\215\276P#\206\236"
 783      27D0EF50 
 783      E8F9047A 
 783      538DBE50 
 783      23869E
 784 03bb 2F815EC0 		.ascii	"/\201^\300\240\027\020\350\021g\363\"\224T\373\333x"
 784      A01710E8 
 784      1167F322 
 784      9454FBDB 
 784      78
 785 03cc 603602F3 		.ascii	"`6\002\363\254LB/\342\241\027R\350\303\331K\275,b~\006"
 785      AC4C422F 
 785      E2A11752 
 785      E8C3D94B 
 785      BD2C627E 
 786 03e1 CDD0B4CD 		.ascii	"\315\320\264\315\237P\344\027\225\320\214\351\213zb"
 786      9F50E417 
 786      95D08CE9 
 786      8B7A62
 787 03f0 25475E0C 		.ascii	"%G^\014\302\356\021a%\004y\021E^B\220?\015~\224b'F^"
 787      C2EE1161 
 787      25047911 
 787      455E4290 
 787      3F0D7E94 
 788 0408 22417E9F 		.ascii	"\"A~\237!\277O\220'\347u}Hu\277\003\255\001\377\250"
 788      21BF4F90 
 788      27E7757D 
 788      4875BF03 
 788      AD01FFA8 
 789 041c 766B93C0 		.ascii	"vk\223\300\313x\340\245\024\370\245\205\276\011\013"
 789      CB78E0A5 
 789      14F8A585 
 789      BE090B
 790 042b DAD9019A 		.ascii	"\332\331\001\232a\255\361=\346\024y)F\376<e\242\307"
 790      61ADF13D 
 790      E6147929 
 790      46FE3C65 
 790      A2C7
 791 043d 4C8EBC02 		.ascii	"L\216\274\002\244\225\023i\225\004y\031E^I\220\267E"
 791      A4951369 
 791      95047919 
 791      455E4990 
 791      B745
 792 044f 876E598A 		.ascii	"\207nY\212\221WJ\220W1\344U\004ySU\373E3dF\242\377\351"
 792      91574A90 
ARM GAS  /tmp/ccklYm9V.s 			page 63


 792      5731E455 
 792      04795355 
 792      FB453364 
 793 0467 FD7925B0 		.ascii	"\375y%\260\341\177\026\0168b\3538\013\032\352;\310\307"
 793      E17F160E 
 793      3862EB38 
 793      0B1AEA3B 
 793      C8C7
 794 0479 3324D27D 		.ascii	"3$\322}\302wp\206H\257\207H\307\267\024\\\015t\253\005"
 794      C2777086 
 794      48AF8748 
 794      C7B7145C 
 794      0D74AB05 
 795 048d 05A2A481 		.ascii	"\005\242\244\201\033\\\265\2204\270\015\032\353\256"
 795      1B5CB590 
 795      34B80D1A 
 795      EBAE
 796 049b 15AEB318 		.ascii	"\025\256\263\030SCs&\"`\322t\2006\362\316j\240\316\032"
 796      53437326 
 796      2260D274 
 796      8036F2CE 
 796      6AA0CE1A 
 797 04af 79995968 		.ascii	"y\231YhK;kp.\345\335\253VSg\355\303w\037\237\356\346"
 797      4B3B6B70 
 797      2EE5DDAB 
 797      565367ED 
 797      C3771F9F 
 798 04c5 E4BE6A06 		.ascii	"\344\276j\006aMDX\013\361U#\365U\013\361Un\277\317\013"
 798      614D4458 
 798      0BF15523 
 798      F5550BF1 
 798      556EBFCF 
 799 04da 496AB548 		.ascii	"Ij\265H|\325\312|\325J|\325\366\2541\316\212*\337\001"
 799      7CD5CA7C 
 799      D54A7CD5 
 799      F6AC31CE 
 799      8A2ADF01 
 800 04ee CD5BD737 		.ascii	"\315[\3277{mM\"o\343\221?\240\310\003j\372;8\332\371"
 800      7B6D4D22 
 800      6FE3913F 
 800      A0C8036A 
 800      FA3B38DA 
 801 0503 0D686634 		.ascii	"\015hf4\325\220p\005\344\0018\265\332\262z\302-\344"
 801      D5907005 
 801      E40138B5 
 801      DAB27AC2 
 801      2DE4
 802 0515 D01F82B4 		.ascii	"\320\037\202\264v\"\255\203@o\243\320;\010\364\306\234"
 802      7622AD83 
 802      406FA3D0 
 802      3B08F4C6 
 802      9C
 803 0526 80736A31 		.ascii	"\200sj1\364\016\011\364N\006\275\223@\037XM\375o{3\370"
 803      F40E09F4 
 803      4E06BD93 
 803      401F584D 
 803      FD6F7B33 
ARM GAS  /tmp/ccklYm9V.s 			page 64


 804 053b A1F97B61 		.ascii	"\241\371{a\336\275\231\3612\333R\205\347\346\317\254"
 804      DEBD99F1 
 804      32DB5285 
 804      E7E6CFAC 
 805 054b B92F54F8 		.ascii	"\271/T\370R\325\326r)\233A\224\"\253wQ\253\247s\032"
 805      52D5D672 
 805      299B4194 
 805      22AB7751 
 805      ABA7731A 
 806 055f 93D15B51 		.ascii	"\223\321[QD\220\257~\207\222\373\313\233\\7h\355\"Z"
 806      4490AF7E 
 806      8792FBCB 
 806      9B5C3768 
 806      ED225A
 807 0572 7BB8B7E0 		.ascii	"{\270\267\340\357cNE\245\347f5\306IB\021\356\2130\366"
 807      EF634E45 
 807      A5E76635 
 807      C6494211 
 807      EE8B30F6 
 808 0586 72D6DC23 		.ascii	"r\326\334#n\257\202~\004\376\240\273\355\375*\223.\355"
 808      6EAF827E 
 808      04FEA0BB 
 808      EDFD2A93 
 808      2EED
 809 0598 E35DBA8F 		.ascii	"\343]\272\217x4d\346\301Ek\271\313\004(\375\304e}\324"
 809      783464E6 
 809      C1456BB9 
 809      CB0428FD 
 809      C4657DD4 
 810 05ac 65FDC465 		.ascii	"e\375\304e!\021\343e\0228\375\022\227\0150\227\015\020"
 810      2111E365 
 810      1238FD12 
 810      970D3097 
 810      0D10
 811 05be 2CB706D7 		.ascii	",\267\006\327\357\251\250\033p\337\211\233\225\205\246"
 811      EFA9A81B 
 811      70DF899B 
 811      9585A6
 812 05cd 477B8887 		.ascii	"G{\210\2076HG{\261\340\364\032\213\323\2358\346}BS\330"
 812      3648477B 
 812      B1E0F41A 
 812      8BD39D38 
 812      E67D4253 
 813 05e2 9A73118F 		.ascii	"\232s\021\217vTgw\230R\016\375\011H\033&\322F\010\364"
 813      76546777 
 813      98520EFD 
 813      09481B26 
 813      D24608F4 
 814 05f6 210A7D84 		.ascii	"!\012}\204\250\327\317\254\370\333\212\241\217H\240"
 814      A8D7CFAC 
 814      F8DB8AA1 
 814      8F48A0
 815 0605 8F32E8A3 		.ascii	"\2172\350\243\004z_mZ:\016\256w,9\274\365\262\203KY"
 815      047A5F6D 
 815      5A3A0EAE 
 815      772C39BC 
 815      F5B2834B 
ARM GAS  /tmp/ccklYm9V.s 			page 65


 816 061a D305AB36 		.ascii	"\323\005\2536\364\022\306\327\0266\177\315\014\275\211"
 816      F412C6D7 
 816      16367FCD 
 816      0CBD89
 817 0629 3F2B63EA 		.ascii	"?+c\352\037\225\2538\007K\222\271\245-\271o\237\203"
 817      1F95AB38 
 817      074B92B9 
 817      A52DB96F 
 817      9F83
 818 063b 44577293 		.ascii	"DWr\223\000\351)\207\370\001z\007\203\0110\350W\030"
 818      00E92987 
 818      F8017A07 
 818      830930E8 
 818      5718
 819 064d 94731330 		.ascii	"\224s\0230\007\200X\314\307\215\303\3051\352\202\264"
 819      078058CC 
 819      C78DC3C5 
 819      31EA82B4 
 820 065d 6BE79234 		.ascii	"k\347\2224\350c\242\242\272\244\347\261\212\263t0\332"
 820      E863A2A2 
 820      BAA4E7B1 
 820      8AB37430 
 820      DA
 821 066e 7FC6487F 		.ascii	"\177\306H\177\212\245\346\322\333\325\376\030\3134`"
 821      8AA5E6D2 
 821      DBD5FE18 
 821      CB3460
 822 067d 9912B04C 		.ascii	"\231\022\260L\022\317\200\216\245\272\350t\033\364\257"
 822      12CF808E 
 822      A5BAE874 
 822      1BF4AF
 823 068c 4447D366 		.ascii	"DG\323f\341\274\205`F\332\236\370\207\330\265\317\240"
 823      E1BC8560 
 823      46DA9EF8 
 823      87D8B5CF 
 823      A0
 824 069d EBACD075 		.ascii	"\353\254\320u\2323i\307\234\021\034\270;\350\271\033"
 824      9A3369C7 
 824      9C111CB8 
 824      3BE8B91B 
 825 06ad 5A59ACEC 		.ascii	"ZY\254\354\207 \305\211\262\203\316f\2640\2037L\244"
 825      8720C589 
 825      B283CE66 
 825      B4308337 
 825      4CA4
 826 06bf B9C5BF38 		.ascii	"\271\305\2778\216\\'\205/+\211\371K\034\337\203\265"
 826      8E5C2785 
 826      2F2B89F9 
 826      4B1CDF83 
 826      B5
 827 06d0 95ACA964 		.ascii	"\225\254\251d\"\311?\326\231\023I\244\267\251&\376\245"
 827      22C93FD6 
 827      991349A4 
 827      B7A926FE 
 827      A5
 828 06e1 A0EC1489 		.ascii	"\240\354\024\211\202H\247\2759\245\240\200\343\304\035"
 828      8248A7BD 
ARM GAS  /tmp/ccklYm9V.s 			page 66


 828      39A5A080 
 828      E3C41D
 829 06f0 4402296C 		.ascii	"D\002)lv\337\200O!\030\307\361s\304\363\230\3061\313"
 829      76DF804F 
 829      2118C7F1 
 829      73C4F398 
 829      C631CB
 830 0703 014825BC 		.ascii	"\001H%\274M\372\200#\327\256m\204\331\240\033\034\011"
 830      4DFA8023 
 830      D7AE6D84 
 830      D9A01B1C 
 830      09
 831 0714 A684CAE2 		.ascii	"\246\204\312\342\333\026o'\350K\007\301\3577\367\371"
 831      DB166F27 
 831      E84B07C1 
 831      EF37F7F9 
 832 0724 5F3DAD6F 		.ascii	"_=\255o\2051\370\200L\007\334\202\340\374\005\274\030"
 832      8531F880 
 832      4C07DC82 
 832      E0FC05BC 
 832      18
 833 0735 70F39060 		.ascii	"p\363\220`\334s\310=\005\267H\026\372\226\315\326'\034"
 833      DC73C83D 
 833      05B74816 
 833      FA96CDD6 
 833      271C
 834 0747 1AA3C256 		.ascii	"\032\243\302V\274;\312,M\316/Kd~\371\202M/\276\227\306"
 834      BC3BCA2C 
 834      4DCE2F4B 
 834      647EF982 
 834      4D2FBE97 
 835 075c EB354C71 		.ascii	"\3535Lqu\303\217\316\371\352S\365x\314\201\213{!\250"
 835      75C38FCE 
 835      F9EA53F5 
 835      78CC818B 
 835      7B21A8
 836 076f 7D2157BB 		.ascii	"}!W\273L\324\026\21756Z\243M\252\266\250\254\341\236"
 836      4CD4168F 
 836      35365AA3 
 836      4DAAB6A8 
 836      ACE19E
 837 0782 0D13D5FD 		.ascii	"\015\023\325\375\353\030}\251\217\036\007\036\226\264"
 837      EB187DA9 
 837      8F1E071E 
 837      96B4
 838 0790 22485A91 		.ascii	"\"HZ\221KZ%\222\312\027\033\273\255Q\224\222J\012n0"
 838      4B5A2592 
 838      CA171BBB 
 838      AD519492 
 838      4A0A6E30 
 839 07a4 80EAFEB9 		.ascii	"\200\352\376\271D\322\232 iM.\351%\2214\264\2242\253"
 839      44D29A20 
 839      694D2EE9 
 839      259134B4 
 839      9432AB
 840 07b7 443795AF 		.ascii	"D7\225\257\341\212\015\211+\022\213\256\305+\231\326"
 840      E18A0D89 
ARM GAS  /tmp/ccklYm9V.s 			page 67


 840      2B128BAE 
 840      C52B99D6 
 841 07c7 E11FC624 		.ascii	"\341\037\306$\020\255\0103q"
 841      10AD0833 
 841      71
 842 07d0 EB82D675 		.ascii	"\353\202\326u\271\326M\242\365\301\303\276p\033\324"
 842      B9D64DA2 
 842      F5C1C3BE 
 842      701BD4
 843 07df 44B596CF 		.ascii	"D\265\226\317\017\336\341=Q\313\201C\303\251C\267\004"
 843      0FDEE13D 
 843      51CB8143 
 843      C3A943B7 
 843      04
 844 07f0 315B7231 		.ascii	"1[r1z%\026S2r#\314\032\215R1\341M\211\227,,Yq\034\360"
 844      7A251653 
 844      327223CC 
 844      1A8D5231 
 844      E14D8997 
 845 080a CAE218B8 		.ascii	"\312\342\030\270\237-\364>T\212\2477\037\245xz\365U"
 845      9F2DF43E 
 845      548AA737 
 845      1FA5787A 
 845      F555
 846 081c 5AB3589C 		.ascii	"Z\263X\234\275\334z\232\256Wp\215-Xkmq\251f\344\032"
 846      BDDC7A9A 
 846      AE57708D 
 846      2D586B6D 
 846      71A966E4 
 847 0831 AE38FC94 		.ascii	"\2568\374\224\344\342\203\200\256E\033\261\363\360="
 847      E4E28380 
 847      AE451BB1 
 847      F3F03D
 848 0840 C17BA795 		.ascii	"\301{\247\225\330{\376J\346\276\321\354\251\005K0z\020"
 848      D87BFE4A 
 848      E6BED1EC 
 848      A9054B30 
 848      7A10
 849 0852 A68E47FD 		.ascii	"\246\216G\375\016\371\331#\372\000K\302\305y+\015v\303"
 849      0EF9D923 
 849      FA004BC2 
 849      C5792B0D 
 849      76C3
 850 0864 479A1E67 		.ascii	"G\232\036g\210\2757n\247G\331\2400D\354\325_x\031o\203"
 850      88BD376E 
 850      A747D9A0 
 850      3044ECD5 
 850      5F78196F 
 851 0879 124843A9 		.ascii	"\022HC\251\037\255\0027\230\230\357\202\225&\347\273"
 851      1FAD0237 
 851      9898EF82 
 851      9526E7BB 
 852 0889 99F73BC8 		.ascii	"\231\367;\310\334\033\004\326\007*e\223\026.J\357\304"
 852      DC1B04D6 
 852      072A6593 
 852      162E4AEF 
 852      C4
ARM GAS  /tmp/ccklYm9V.s 			page 68


 853 089a ACAA88A5 		.ascii	"\254\252\210\245\230\203Z\1779\351a\233\271\330P|K0"
 853      98835A7F 
 853      39E9619B 
 853      B9D8507C 
 853      4B30
 854 08ac 3494181A 		.ascii	"4\224\030\032\302\033Zt9\340\201-3\264e\375\347%w\251"
 854      C21B5A74 
 854      39E0812D 
 854      33B465FD 
 854      E72577A9 
 855 08c0 A1C0C505 		.ascii	"\241\300\305\005\010\012\003xC\317\022C'\036m\376\022"
 855      080A0378 
 855      43CF1243 
 855      271E6DFE 
 855      12
 856 08d1 F9AB3853 		.ascii	"\371\2538S\003p\351Ea;'\036=\274\234\011\243w\3160z"
 856      0370E945 
 856      613B271E 
 856      3DBC9C09 
 856      A377CE30 
 857 08e6 75AB3571 		.ascii	"u\2535qv\2443\\\343\302\351H\351\343N\227\252M\217\324"
 857      76A4335C 
 857      E3C2E948 
 857      E9E34E97 
 857      AA4D8FD4 
 858 08fa 79624004 		.ascii	"yb@\004o\300\323\271\334p+\303H\375\234\037)\340\342"
 858      6FC0D3B9 
 858      DC702BC3 
 858      48FD9C1F 
 858      29E0E2
 859 090d C20403C2 		.ascii	"\302\004\003\302x\003.\020\003\322\363\307\036\332\240"
 859      78032E10 
 859      03D2F3C7 
 859      1EDAA0
 860 091c 4BD4826B 		.ascii	"K\324\202k\021\235\263j&a.\024\335\253\030%\022p\214"
 860      119DB36A 
 860      26612E14 
 860      DDAB1825 
 860      12708C
 861 092f 470A1222 		.ascii	"G\012\022\"y\011QDBGZg\276\031\352\246\022\214\024M"
 861      79095144 
 861      42475A67 
 861      BE19EAA6 
 861      128C144D 
 862 0943 59E5D7A6 		.ascii	"Y\345\327\246\315\3214\271\257\254h\255o\261\342\254"
 862      CDD134B9 
 862      AFAC68AD 
 862      6FB1E2AC 
 863 0953 1D4C143E 		.ascii	"\035L\024>\334%\210\000\241\366a\013\326\372\276\323"
 863      DC258800 
 863      A1F6610B 
 863      D6FABED3 
 864 0963 64AD8B05 		.ascii	"d\255\213\005\317\304\0108z\311\312\2165,\304-\320\261"
 864      CFC40838 
 864      7AC9CA8E 
 864      352CC42D 
 864      D0B1
ARM GAS  /tmp/ccklYm9V.s 			page 69


 865 0975 C71C17A9 		.ascii	"\307\034\027\251\357J\357\327\204X\033\002\3422\275"
 865      EF4AEFD7 
 865      84581B02 
 865      E232BD
 866 0984 C82FFF1F 		.ascii	"\310/\377\037o_\376?\246\313\377\265\325\271<k\264H"
 866      6F5FFE3F 
 866      A6CBFFB5 
 866      D5B93C6B 
 866      B448
 867 0996 D13E289E 		.ascii	"\321>(\236\03127,\234\003\361?\313\037\017\326\353U"
 867      1932372C 
 867      9C03F13F 
 867      CB1F0FD6 
 867      EB55
 868 09a8 5C12484C 		.ascii	"\\\022HL\020\200|lr\341L\004s>f\001\035\257\334\315"
 868      10807C6C 
 868      72E14C04 
 868      733E6601 
 868      1DAFDCCD 
 869 09bc 5D51929C 		.ascii	"]Q\222\234n~r\272\213\246%\226\024G\261=yr7\303\340"
 869      6E7E72BA 
 869      8BA62596 
 869      1447B13D 
 869      797237C3 
 870 09d1 BAABF45A 		.ascii	"\272\253\364Z\336lz\036\333\240\227\342v\352\330\345"
 870      DE6C7A1E 
 870      DBA097E2 
 870      76EAD8E5 
 871 09e1 B36C87F0 		.ascii	"\263l\207\360>\336u\266\366'#tSM\220\367\346\204V\230"
 871      3EDE75B6 
 871      F6272374 
 871      534D90F7 
 871      E6845698 
 872 09f5 A33CDA88 		.ascii	"\243<\332\210-Z\254WSFs<\345\364\256\336\263B\367\351"
 872      2D5AAC57 
 872      5346733C 
 872      E5F4AEDE 
 872      B342F7E9 
 873 0a09 BDF465BF 		.ascii	"\275\364e\277;v\250\2226x\015\273\230\206\265\363\005"
 873      3B76A892 
 873      36780DBB 
 873      9886B5F3 
 873      05
 874 0a1a 77AC503D 		.ascii	"w\254P=\275Y\371\244\275V\215Zi#\241|\350]4D?\027F\336"
 874      BD59F9A4 
 874      BD568D5A 
 874      6923A17C 
 874      E85D3444 
 875 0a32 9B314763 		.ascii	"\2331Gc\264Q\266\321u\331\022-\321\306\335\261\272j"
 875      B451B6D1 
 875      75D9122D 
 875      D1C6DDB1 
 875      BA6A
 876 0a44 4B2A4F8F 		.ascii	"K*O\217\353\271\365\344\226\307\346h\223\336\3447%\366"
 876      EBB9F5E4 
 876      96C7E668 
 876      93DEE437 
ARM GAS  /tmp/ccklYm9V.s 			page 70


 876      25F6
 877 0a56 7453E23B 		.ascii	"tS\342;\0227d\213\316h\310\275\3520\277\020K\024N\032"
 877      1237648B 
 877      CE68C8BD 
 877      EA30BF10 
 877      4B144E1A 
 878 0a6a CAF4D080 		.ascii	"\312\364\320\200i\223UQ\376+f\211=\235d\226\310\003"
 878      69935551 
 878      FE2B6689 
 878      3D9D6496 
 878      C803
 879 0a7c B7DE3532 		.ascii	"\267\33652K\244\025.$k\320e\252qxk\363\257(\231~\016"
 879      4BA4152E 
 879      246BD065 
 879      AA71786B 
 879      F3AF2899 
 880 0a92 CC08ACB6 		.ascii	"\314\010\254\266E\231\264\221t\277h\332\014\025\323"
 880      4599B491 
 880      74BF68DA 
 880      0C15D3
 881 0aa1 067FC062 		.ascii	"\006\177\300bO\017XR'\007\326\021j\244\367\206zk\262"
 881      4F0F5852 
 881      2707D611 
 881      6AA4F786 
 881      7A6BB2
 882 0ab4 6D51336D 		.ascii	"mQ3m\024-_*\262C\035\264\321\364dk\336\022\365\322F"
 882      142D5F2A 
 882      B2431DB4 
 882      D1F4646B 
 882      DE12F5D2 
 883 0ac9 5EEC66A9 		.ascii	"^\354f\251\012=\241\015\377\320\314h\354 \015\015A3"
 883      0A3DA10D 
 883      FFD0CC68 
 883      EC200D0D 
 883      4133
 884 0adb BC397BB6 		.ascii	"\2749{\266vWE/a3\276\203Kq1\275\267l\3218\365\306\364"
 884      7657452F 
 884      6133BE83 
 884      4B7131BD 
 884      B76CD138 
 885 0af2 50609010 		.ascii	"P`\220\020\206-\213?\311\307\373\316\032\260\261J\260"
 885      862D8B3F 
 885      C9C7FBCE 
 885      1AB0B14A 
 885      B0
 886 0b03 51C38250 		.ascii	"Q\303\202P\277\315_\325\340/\015\363W%\004a\005\015"
 886      BFCD5FD5 
 886      E02F0DF3 
 886      57250461 
 886      050D
 887 0b15 C2F9D567 		.ascii	"\302\371\325g\271*\364\234\252\010\032\232\337\260\243"
 887      B92AF49C 
 887      AA081A9A 
 887      DFB0A3
 888 0b24 0EDF2EA0 		.ascii	"\016\337.\240\336\210\000\276\014=p\207\244f\035\200"
 888      DE8800BE 
 888      0C3D7087 
ARM GAS  /tmp/ccklYm9V.s 			page 71


 888      A4661D80 
 889 0b34 A915C000 		.ascii	"\251\025\300\0006\352\360!\375\313\030k\264J\225\024"
 889      36EAF021 
 889      FDCB186B 
 889      B44A9514 
 890 0b44 655E0DB0 		.ascii	"e^\015\2604\330Q3\363s:XM\320\267A\350[\2474iI\243q"
 890      34D85133 
 890      F3733A58 
 890      4DD0B741 
 890      E85BA734 
 891 0b5c 4B822367 		.ascii	"K\202#g\256\333\242-\352\337\227O/t\261\335$.\370}\212"
 891      AEDBA22D 
 891      EADF974F 
 891      2F74B1DD 
 891      242EF87D 
 892 0b71 BACED9D1 		.ascii	"\272\316\331\321x\034$\345\375Z\300\246\012\205\220"
 892      781C24E5 
 892      FD5AC0A6 
 892      0A8590
 893 0b80 6D3DF728 		.ascii	"m=\367(\244\275G\203.\220\206ru\2626\323\312\200nM\375"
 893      A4BD4783 
 893      2E908672 
 893      75B236D3 
 893      CA806E4D 
 894 0b95 01F71080 		.ascii	"\001\367\020\200\265\275\026\260v\343\300\252[\022\026"
 894      B5BD16B0 
 894      76E3C0AA 
 894      5B1216
 895 0ba4 CC512C55 		.ascii	"\314Q,UVp.\002r&\2016\372/\006\027Y\241\034\332(\011"
 895      56702E02 
 895      72268136 
 895      FA2F0617 
 895      59A11CDA 
 896 0bba 9BCFB740 		.ascii	"\233\317\267@\205\264qfe8\333\016U\320\306\244o\351"
 896      85B47166 
 896      6538DB0E 
 896      55D0C6A4 
 896      6FE9
 897 0bcc 900AD5D3 		.ascii	"\220\012\325\323F\226\377H\032>\377\330\015\221\303"
 897      4696FF48 
 897      1A3EFFD8 
 897      0D91C3
 898 0bdb 8966AEDD 		.ascii	"\211f\256\335t\346\312-]\310T\241\026j\314\335\334\221"
 898      74E6CA2D 
 898      5DC854A1 
 898      166ACCDD 
 898      DC91
 899 0bed 584BD1CE 		.ascii	"XK\321\316\305\216\204\314\000\030\324'\030\264\333"
 899      C58E84CC 
 899      0018D427 
 899      18B4DB
 900 0bfc 306F490F 		.ascii	"0oI\017\351\372\301\232\335\314\232^\260\246\207Z\223"
 900      E9FAC19A 
 900      DDCC9A5E 
 900      B0A6875A 
 900      93
 901 0c0d 169F5A69 		.ascii	"\026\237Zi\203\272\250\202\230\310\262\\[a,/\275\235"
ARM GAS  /tmp/ccklYm9V.s 			page 72


 901      83BAA882 
 901      98C8B25C 
 901      5B612C2F 
 901      BD9D
 902 0c1f 43E26018 		.ascii	"C\342`\0304\014\012\032\006\224&T\014\031W\341s\276"
 902      340C0A1A 
 902      06942654 
 902      0C1957E1 
 902      73BE
 903 0c31 3DC3020D 		.ascii	"=\303\002\015Q\025C\245\025\021H\024.\373h\0050\012"
 903      511543A5 
 903      15114814 
 903      2EFB6805 
 903      300A
 904 0c43 2A9E082A 		.ascii	"*\236\010*\206M\251\0301\256\"2v\354-4A=\032\034\262"
 904      864DA918 
 904      31AE2232 
 904      76EC2D34 
 904      413D1A1C 
 905 0c58 9985D01C 		.ascii	"\231\205\320\034U\027W\262\026&X\324\006\343?\001\232"
 905      551757B2 
 905      162658D4 
 905      06E33F01 
 905      9A
 906 0c69 C65F43D3 		.ascii	"\306_C\323S\343\232\372\342\346\026Th\231\252\272V\221"
 906      53E39AFA 
 906      E2E61654 
 906      6899AABA 
 906      5691
 907 0c7b F5C00C6D 		.ascii	"\365\300\014mPUO&n\257\330\030Tu\203\252\031P5\365\032"
 907      50554F26 
 907      6EAFD818 
 907      547583AA 
 907      195035F5 
 908 0c90 AAA68DAB 		.ascii	"\252\246\215\253\232\365\033\035d\347/o\341I\374\302"
 908      9AF51B1D 
 908      64E72F6F 
 908      E149FCC2 
 909 0ca0 C583E8B4 		.ascii	"\305\203\350\2649Q<\223\334|\033\037\2429Xr\177\023"
 909      39513C93 
 909      DC7C1B1F 
 909      A2395872 
 909      7F13
 910 0cb2 058D030D 		.ascii	"\005\215\003\015\232\313\347\206\243-P(aU^\231~\354"
 910      9ACBE786 
 910      A32D5028 
 910      61555E99 
 910      7EEC
 911 0cc4 6B239A67 		.ascii	"k#\232g\366\322\355\356\"`\233\027\2609\030\240%\370"
 911      F6D2EDEE 
 911      22609B17 
 911      B03918A0 
 911      25F8
 912 0cd6 EADFF0DE 		.ascii	"\352\337\360\336\257\3402\000H\032\000\341\026\000\235"
 912      AFE03200 
 912      481A00E1 
 912      16009D
ARM GAS  /tmp/ccklYm9V.s 			page 73


 913 0ce5 0343F71C 		.ascii	"\003C\367\034.>\243\350\316\370\245\206Y\241\213TIU"
 913      2E3EA3E8 
 913      CEF8A586 
 913      59A18B54 
 913      4955
 914 0cf7 CFE96F44 		.ascii	"\317\351oDqs\240\206\304\3152\350x!\350XT\232V\262d"
 914      7173A086 
 914      C4CD32E8 
 914      7821E858 
 914      549A56B2 
 915 0d0c 5C497F56 		.ascii	"\\I\177VO\245\012%R%m\321\247\347\324\006-\343\241\352"
 915      4FA50A25 
 915      52256DD1 
 915      A7E7D406 
 915      2DE3A1EA 
 916 0d20 BE8A20BC 		.ascii	"\276\212 \274p\257\201\232\025A\315\362+\324\254\032"
 916      70AF819A 
 916      1541CDF2 
 916      2BD4AC1A 
 917 0d30 57933A37 		.ascii	"W\223:7Q'9mX\223\224\343/\015\005\235\317\360\335N\016"
 917      5127396D 
 917      589394E3 
 917      2F0D059D 
 917      CFF0DD4E 
 918 0d45 75D24128 		.ascii	"u\322A(k\362M\263B=\2641\274\2218b\206\206hc\345b\335"
 918      6BF24DB3 
 918      423DB431 
 918      BC913862 
 918      86866863 
 919 0d5c 351B344E 		.ascii	"5\0334N\033\021\031\255\2174h\2126\372on\336\323\240"
 919      1B1119AD 
 919      8F34688A 
 919      36FA6F6E 
 919      DED3A0
 920 0d6f 59DA88EF 		.ascii	"Y\332\210\357}\236i\206\236S\353\312:\022\323l\244E"
 920      7D9E6986 
 920      9E53EBCA 
 920      3A12D36C 
 920      A445
 921 0d81 14EC7F0C 		.ascii	"\024\354\177\014\223\221\037r\300%\204\270\204\232\275"
 921      93911F72 
 921      C02584B8 
 921      849ABD
 922 0d90 FC636FBD 		.ascii	"\374co\275\236\343|\2215\347\203\014\366\177\306\012"
 922      9EE37C91 
 922      35E7830C 
 922      F67FC60A 
 923 0da0 A8419FEA 		.ascii	"\250A\237\352vs\264FU=\237}\270n\2036iC\277Z\322\255"
 923      7673B446 
 923      553D9F7D 
 923      B86E8336 
 923      6943BF5A 
 924 0db6 413E16A4 		.ascii	"A>\026\244\321\023\2712h\201\374i\243\266#\370\276\012"
 924      D113B932 
 924      6881FC69 
 924      A3B623F8 
 924      BE0A
ARM GAS  /tmp/ccklYm9V.s 			page 74


 925 0dc8 05D0464A 		.ascii	"\005\320FJ\303\240^\215\202i\343^P\303\2729:K\033\261"
 925      C3A05E8D 
 925      8269E35E 
 925      50C3BA39 
 925      3A4B1BB1 
 926 0ddc 85677C2C 		.ascii	"\205g|,\3219\332H\337Z\200m\320\005\332X\271\367 \211"
 926      D139DA48 
 926      DF5A806D 
 926      D005DA58 
 926      B9F72089 
 927 0df0 9D69EFC1 		.ascii	"\235i\357\301[\206\322\340Zv\354\227\240\214FV\221I"
 927      5B86D2E0 
 927      5A76EC97 
 927      A08C4656 
 927      9149
 928 0e02 772A6DB9 		.ascii	"w*m\271=\364\265s\217\303\236$lmiM\206z\"\275>D\237"
 928      3DF4B573 
 928      8FC39E24 
 928      6C6D694D 
 928      867A22BD 
 929 0e19 504EAD39 		.ascii	"PN\2559\003\326D\243\235\202\365\017\3108\244\341\277"
 929      03D644A3 
 929      9D82F50F 
 929      C838A4E1 
 929      BF
 930 0e2a 0ADAA5ED 		.ascii	"\012\332\245\355\177\300V\323\017\021\366\323r\366Y"
 930      7FC056D3 
 930      0F11F6D3 
 930      72F659
 931 0e39 2566DF2F 		.ascii	"%f\337/p\227\213\270\003\214\013\027q\017\213\270\275"
 931      70978BB8 
 931      038C0B17 
 931      710F8BB8 
 931      BD
 932 0e4a E5DCC572 		.ascii	"\345\334\305r\331\303\377\"p\207\310\271\035e\314\223"
 932      D9C3FF22 
 932      7087C8B9 
 932      1D65CC93 
 933 0e5a 22E660A3 		.ascii	"\"\346`\243\314b#\327D\334\201r\3564\245\300~\216\035"
 933      CC6223D7 
 933      44DC8172 
 933      EE34A5C0 
 933      7E8E1D
 934 0e6d AD7DA082 		.ascii	"\255}\240\202\275\000\332\015K%0\204\262\036\020\027"
 934      BD00DA0D 
 934      4B253084 
 934      B21E1017 
 935 0e7d 5C0C84CF 		.ascii	"\\\014\204\317\005\264\207\213\004\272\010\024\005\024"
 935      05B4878B 
 935      04BA0814 
 935      0514
 936 0e8b 01140E74 		.ascii	"\001\024\016t\016(\026\350<\332C\266\000T\367\274Hw"
 936      0E2816E8 
 936      3CDA43B6 
 936      0054F7BC 
 936      4877
 937 0e9d 9071DDC4 		.ascii	"\220q\335\304.\032\213\315=;H,\002\227\202\005\242 "
ARM GAS  /tmp/ccklYm9V.s 			page 75


 937      2E1A8BCD 
 937      3D3B482C 
 937      02978205 
 937      A220
 938 0eaf AABFDF3E 		.ascii	"\252\277\337>\302W_\273\217\310\3627>X\324\016\010\231"
 938      C2575FBB 
 938      8FC8F237 
 938      3E58D40E 
 938      0899
 939 0ec1 F3F5E7CF 		.ascii	"\363\365\347\317\252\304\271(f\206\275\004\342s\261"
 939      AAC4B928 
 939      6686BD04 
 939      E273B1
 940 0ed0 FF5ED2B2 		.ascii	"\377^\322\262\015j&q\207Z\346.\337\263\346\366\354t"
 940      0D6A2671 
 940      875AE62E 
 940      DFB3E6F6 
 940      EC74
 941 0ee2 A01A6172 		.ascii	"\240\032ar\210\035m\240\001\005=8=(\275b|\\\316\261"
 941      881D6DA0 
 941      01053D38 
 941      3D28BD62 
 941      7C5CCEB1 
 942 0ef6 A51FBBCE 		.ascii	"\245\037\273\316p\3732\343\307\256\213\007\327\3051"
 942      70FB32E3 
 942      C7AE8B07 
 942      D7C531
 943 0f05 D73063D3 		.ascii	"\3270c\323\250\261W\244\306\342\\\360\031\237A\250\207"
 943      A8B157A4 
 943      C6E25CF0 
 943      199F41A8 
 943      87
 944 0f16 E6C2D458 		.ascii	"\346\302\324Xz\247\022\015\322\306\345\201\362~\366"
 944      7AA7120D 
 944      D2C6E581 
 944      F27EF6
 945 0f25 D8A39294 		.ascii	"\330\243\222\224\324\003\027\002\331\021i\002~\3447"
 945      D4031702 
 945      D9116902 
 945      7EE437
 946 0f34 BEB4D4A9 		.ascii	"\276\264\324\251A\223\2249g+\015b\372\031i\374z((%V"
 946      41939439 
 946      672B0D62 
 946      FA1969FC 
 946      7A282825 
 947 0f49 03A641C6 		.ascii	"\003\246A\306X\357d\377\240\005\331\343\200\337\340"
 947      58EF64FF 
 947      A005D9E3 
 947      80DFE0
 948 0f58 EF2E7A0B 		.ascii	"\357.z\013\322i\217\2655\374\301\037\330\013\356:0\237"
 948      D2698FB5 
 948      35FCC11F 
 948      D80BEE3A 
 948      309F
 949 0f6a B4DC5737 		.ascii	"\264\334W7V5S\237\300\214\306\315\301\224\231bj \304"
 949      5635539F 
 949      C08CC6CD 
ARM GAS  /tmp/ccklYm9V.s 			page 76


 949      C1949962 
 949      6A20C4
 950 0f7d 01751502 		.ascii	"\001u\025\002*\011\007T\"\242=\260W\372\300+\275\020"
 950      2A090754 
 950      22A23DB0 
 950      57FAC02B 
 950      BD10
 951 0f8f 343D40DD 		.ascii	"4=@\335@]@\217\201\036\001]\007\352\004\352\000"
 951      405D408F 
 951      811E015D 
 951      07EA04EA 
 951      00
 952 0fa0 7A085406 		.ascii	"z\010T\006T\004\224\013\224\003t\003(\015(U\032p\177"
 952      5404940B 
 952      94037403 
 952      280D2855 
 952      1A707F
 953 0fb3 A20107B3 		.ascii	"\242\001\007\263\3345$\203\226,O\272\315\006\373\363"
 953      DC352483 
 953      962C4FBA 
 953      CD06FBF3 
 954 0fc3 24A4F03E 		.ascii	"$\244\360>0En\311u\245<\223\372\033vQ\376t\210\206T"
 954      30456EC9 
 954      75A53C93 
 954      FA1B7651 
 954      FE748886 
 955 0fd8 E3FC44BC 		.ascii	"\343\374D\274(\3602$\201\227N\003O\354\230\333J\372"
 955      28F03224 
 955      81974E03 
 955      4FEC98DB 
 955      4AFA
 956 0fea B883CB01 		.ascii	"\270\203\313\001\201\031\3141\203\340\230\0010.\033"
 956      8119CC31 
 956      83E09801 
 956      302E1B
 957 0ff9 28536260 		.ascii	"(Sb`{\203z"
 957      7B837A
 958 1000 F3B65E1F 		.ascii	"\363\266^\037\250\341n\002\210\033\254\217\321|\026"
 958      A8E16E02 
 958      881BAC8F 
 958      D17C16
 959 100f A1C892A0 		.ascii	"\241\310\222\240\270\371\012\024C\240\371\373Q\014G"
 959      B8F90A14 
 959      43A0F9FB 
 959      510C47
 960 101e 23FDB5B7 		.ascii	"#\375\265\267\270[\000!\3358\004\271\037nK\020\340\216"
 960      B85B0021 
 960      DD3804B9 
 960      1F6E4B10 
 960      E08E
 961 1030 34E68DC6 		.ascii	"4\346\215\306H?(\376\367\213\021\210\341\2144\026\303"
 961      483F28FE 
 961      F78B1188 
 961      E18C3416 
 961      C3
 962 1041 783B7847 		.ascii	"x;xG>\222\271\322\221\207d\235\377\320\233\204\325\035"
 962      3E92B9D2 
ARM GAS  /tmp/ccklYm9V.s 			page 77


 962      9187649D 
 962      FFD09B84 
 962      D51D
 963 1053 602B60EC 		.ascii	"`+`\354\206z\240\2343\036\362\006\206B0!\217\231S\000"
 963      867AA09C 
 963      331EF206 
 963      86423021 
 963      8F995300 
 964 1067 9FF301D2 		.ascii	"\237\363\001\322]\011\244\331T\026Y\3301Y\240 \317\304"
 964      5D09A4D9 
 964      541659D8 
 964      3159A020 
 964      CFC4
 965 1079 946E54FE 		.ascii	"\224nT\376M\326\301\264\374a\007\232\026\267X\314l\027"
 965      4DD6C1B4 
 965      FC61079A 
 965      16B758CC 
 965      6C17
 966 108b 2F9A86FB 		.ascii	"/\232\206\373S\351\314\224'\235\231\350\315G-\352\320"
 966      53E9CC94 
 966      279D99E8 
 966      CD472DEA 
 966      D0
 967 109c AB11B862 		.ascii	"\253\021\270b\302\276\310\026*&\314\315\273\013<|\221"
 967      C2BEC816 
 967      2A26CCCD 
 967      BB0B3C7C 
 967      91
 968 10ad F7F03D60 		.ascii	"\367\360=`+\224{\270\234{\365\324Y\012V\2240\213\356"
 968      2B947BB8 
 968      9C7BF5D4 
 968      590A5694 
 968      308BEE
 969 10c0 C3E762A9 		.ascii	"\303\347b\251\267\342E\336\302\346\224\374?\314\312"
 969      B7E245DE 
 969      C2E694FC 
 969      3FCCCA
 970 10cf 458C5F2E 		.ascii	"E\214_.\232\2327\026Om/1a\373f\270\267\376\247\304\246"
 970      9A9A3716 
 970      4F6D2F31 
 970      61FB66B8 
 970      B7FEA7C4 
 971 10e4 7B82E925 		.ascii	"{\202\351%R\323\203y\323\313\321.\256Dnz\261(\270\""
 971      52D38379 
 971      D3CBD12E 
 971      AE446E7A 
 971      B128B822 
 972 10f8 8C005490 		.ascii	"\214\000T\220n\030];\240k\203\241|\000\324\012\324\010"
 972      6E185D3B 
 972      A06B83A1 
 972      7C00D40A 
 972      D408
 973 110a D4005405 		.ascii	"\324\000T\005T\011T!qJ\375\037\351\020\343\210\276\017"
 973      54095421 
 973      714AFD1F 
 973      E910E388 
 973      BE0F
ARM GAS  /tmp/ccklYm9V.s 			page 78


 974 111c 4AB11493 		.ascii	"J\261\024\223\025D\363}\321LV\372}\334\345\377\205\212"
 974      1544F37D 
 974      D14C56FA 
 974      7DDCE5FF 
 974      858A
 975 112e AE06E632 		.ascii	"\256\006\3462\323\314\242l\257\221d{\365\366\371\246"
 975      D3CCA26C 
 975      AF91647B 
 975      F5F6F9A6 
 976 113e 1562B705 		.ascii	"\025b\267\005\307n3\310\253a\303Q\017\006\327\201a\265"
 976      C76E33C8 
 976      AB61C351 
 976      0F06D781 
 976      61B5
 977 1150 8261E0D1 		.ascii	"\202a\340\321\255\036\365\334\374\210^\037aM\316\003"
 977      AD1EF5DC 
 977      FC885E1F 
 977      614DCE03 
 978 1160 CA590763 		.ascii	"\312Y\007c\363\015\3550\371&\236\233pxf2^C\246\310C"
 978      F30DED30 
 978      F9269E9B 
 978      70786632 
 978      5E43A6C8 
 979 1175 7DECB45A 		.ascii	"}\354\264Z\2577\307<\262\202\203\216dK\012\033I\274"
 979      AF37C73C 
 979      B282838E 
 979      644B0A1B 
 979      49BC
 980 1187 DF7FF07D 		.ascii	"\337\177\360}n\352\274\307\234\332\004~\352x-?5\003"
 980      6EEABCC7 
 980      9CDA047E 
 980      EA782D3F 
 980      3503
 981 1199 A7E0A726 		.ascii	"\247\340\247&\352'\023\263&\327\002\356\021&NCH\256"
 981      EA2713B3 
 981      26D702EE 
 981      11264E43 
 981      48AE
 982 11ab 3EC68F6F 		.ascii	">\306\217o\260\244N!$o\021Q\206\371\256\250\206\031"
 982      B0A44E21 
 982      246F1151 
 982      86F9AEA8 
 982      8619
 983 11bd 82ABFF57 		.ascii	"\202\253\377W\332\201\235R\310\226El\365\343\357\343"
 983      DA819D52 
 983      C896456C 
 983      F5E3EFE3 
 984 11cd 9EFC150D 		.ascii	"\236\374\025\015\016\314\334e\232\231\302]\312\327`"
 984      0ECCDC65 
 984      9A99C25D 
 984      CAD760
 985 11dc 7F03CFF6 		.ascii	"\177\003\317\366\002\257\363\246\375\202\217\376\342"
 985      02AFF3A6 
 985      FD828FFE 
 985      E2
 986 11e9 3EB28DEF 		.ascii	">\262\215\357fi\3036\2674i\272Ek\361\344\273\321\372"
 986      6669C336 
ARM GAS  /tmp/ccklYm9V.s 			page 79


 986      B73469BA 
 986      456BF1E4 
 986      BBD1FA
 987 11fc 526F4476 		.ascii	"RoDv\342c\306\230\017\012\274\365\214\027o\245'\215"
 987      E263C698 
 987      0F0ABCF5 
 987      8C176FA5 
 987      278D
 988 120e F18A06B1 		.ascii	"\361\212\006\261?\235\015\">\251_7^\335\210\353\366"
 988      3F9D0D22 
 988      3EA95F37 
 988      5EDD88EB 
 988      F6
 989 121f FF284CAC 		.ascii	"\377(L\254\033r\356\355\033\216n\021\373\246qv\221k"
 989      1B72EEED 
 989      1B8E6E11 
 989      FBA67176 
 989      916B
 990 1231 9B6FB081 		.ascii	"\233o\260\201\300U\344\226\234=m[}R\316\244\343r&A^"
 990      C055E496 
 990      9C3D6D5B 
 990      7D52CEA4 
 990      E3722641 
 991 1246 FD6C4B93 		.ascii	"\375lK\223\265\177\024\326\264L\371\232\266m\340X\265"
 991      B57F14D6 
 991      B44CF99A 
 991      B66DE058 
 991      B5
 992 1257 9A62625E 		.ascii	"\232bb^\234^\304A\210\3035Y\330D\246\210\346\305G\015"
 992      9C5EC441 
 992      88C33559 
 992      D844A688 
 992      E6C5470D 
 993 126b EAB5793F 		.ascii	"\352\265y?\222\305\274\302\214W)l>\203p\244d\030\323"
 993      92C5BCC2 
 993      8C57296C 
 993      3E8370A4 
 993      6418D3
 994 127e 37166586 		.ascii	"7\026e\206\357\341\242\346\226\020\362\031D\033\024"
 994      EFE1A2E6 
 994      9610F219 
 994      441B14
 995 128d BE5D794F 		.ascii	"\276]yO\356k\304\317F\260\267\205g#\303\010?\033\271"
 995      EE6BC4CF 
 995      46B0B785 
 995      6723C308 
 995      3F1BB9
 996 12a0 C63F1B09 		.ascii	"\306?\033\011\211\214\252\2621<\334\371\365\275B\372"
 996      898CAAB2 
 996      313CDCF9 
 996      F5BD42FA 
 997 12b0 6C04B8B8 		.ascii	"l\004\270\270hAx4\377d\343\011\302O6V\242\273Wm\320"
 997      68417834 
 997      FF64E309 
 997      C24F3656 
 997      A2BB576D 
 998 12c5 163D29D9 		.ascii	"\026=)\331\\\037\354\345\310\361<~\204C\037m\014'5\017"
ARM GAS  /tmp/ccklYm9V.s 			page 80


 998      5C1FECE5 
 998      C8F13C7E 
 998      84431F6D 
 998      0C27350F 
 999 12d9 5B997C0C 		.ascii	"[\231|\0149F \214\"\006\241\253\247\257\316\\x\220V"
 999      3946208C 
 999      2206A1AB 
 999      A7AFCE5C 
 999      789056
 1000 12ec C01ECF00 		.ascii	"\300\036\317\000\0277\"x\023>R\010\343\004Blx`\255-"
 1000      17372278 
 1000      133E5208 
 1000      E304426C 
 1000      7860AD2D 
 1001 1300 0AB3A227 		.ascii	"\012\263\242'\360g*n[\020\010\317\014\020\342&\352|"
 1001      F0672A6E 
 1001      5B1008CF 
 1001      0C10E226 
 1001      EA7C
 1002 1312 6C4C4298 		.ascii	"lLB\230$\020&x\010\255\363\343\017-\030\204\206\365"
 1002      24102678 
 1002      08ADF3E3 
 1002      0F2D1884 
 1002      86F5
 1003 1324 F7EEDFD6 		.ascii	"\367\356\337\326\373\2511\017\367T\000\360\224\0070"
 1003      FBA9310F 
 1003      F75400F0 
 1003      940730
 1004 1333 4500E4E7 		.ascii	"E\000\344\347\315\266\232\243X+\223O\270\302\356\364"
 1004      CDB69AA3 
 1004      582B934F 
 1004      B8C2EEF4 
 1005 1343 ACDBA11C 		.ascii	"\254\333\241\034\302\240\214\315J\\@\246\316\355\237"
 1005      C2A08CCD 
 1005      4A5C40A6 
 1005      CEED9F
 1006 1352 2153E7F6 		.ascii	"!S\347\366-i\357\305\221\257$\314!Kn\026m?\267_\315"
 1006      2D69EFC5 
 1006      91AF24CC 
 1006      214B6E16 
 1006      6D3FB75F 
 1007 1367 A9D253E7 		.ascii	"\251\322S\347c\216\031DM\257\012\271nm\270\370\234^"
 1007      638E1944 
 1007      4DAF0AB9 
 1007      6E6DB8F8 
 1007      9C5E
 1008 1379 BCB1BAB4 		.ascii	"\274\261\272\264na\372\221\331\002q\310<\357\220\336"
 1008      6E61FA91 
 1008      D90271C8 
 1008      3CEF90DE 
 1009 1389 A4F11564 		.ascii	"\244\361\025d\030\223}\374#3\340\342\246E0x\227,\022"
 1009      18937DFC 
 1009      2333E0E2 
 1009      A6453078 
 1009      972C12
 1010 139c 97C45C4F 		.ascii	"\227\304\\O\362C\250\230\272\244$~%Wi\000A]R[\2606b"
 1010      F243A898 
ARM GAS  /tmp/ccklYm9V.s 			page 81


 1010      BAA4247E 
 1010      25576900 
 1010      415D525B 
 1011 13b3 FA8B40CB 		.ascii	"\372\213@\313\004\302\022\017a)`\362?\031\206\344}:"
 1011      04C2120F 
 1011      612960F2 
 1011      3F1986E4 
 1011      7D3A
 1012 13c5 24C0C2BD 		.ascii	"$\300\302\275\020\364\277\340\365\257\020\375\275\261"
 1012      10F4BFE0 
 1012      F5AF10FD 
 1012      BDB1
 1013 13d3 75E51C6A 		.ascii	"u\345\034j\242\372'\357\370\245Y\375\303U}\202\017\211"
 1013      A2FA27EF 
 1013      F8A559FD 
 1013      C3557D82 
 1013      0F89
 1014 13e5 AAAC36B0 		.ascii	"\252\2546\260\300\036?sZ\245\375E\013\317*\026\303\255"
 1014      C01E3F73 
 1014      5AA5FD45 
 1014      0BCF2A16 
 1014      C3AD
 1015 13f7 A17FC027 		.ascii	"\241\177\300'\337\213\313\345\226\350\021\225\0210t"
 1015      DF8BCBE5 
 1015      96E81195 
 1015      113074
 1016 1406 A6DD926E 		.ascii	"\246\335\222n8W\310\326\364\352\313e\366\335\261R\374"
 1016      3857C8D6 
 1016      F4EACB65 
 1016      F6DDB152 
 1016      FC
 1017 1417 7C626BA2 		.ascii	"|bk\242\353*\333\220>\303\367\243\306\232\346-P7\355"
 1017      EB2ADB90 
 1017      3EC3F7A3 
 1017      C69AE62D 
 1017      5037ED
 1018 142a 3C37E47B 		.ascii	"<7\344{\315\016\215\262\010m\010h\266@\023\264\221\035"
 1018      CD0E8DB2 
 1018      086D0868 
 1018      B64013B4 
 1018      911D
 1019 143c EEED8DD0 		.ascii	"\356\355\215\320*m\324-\006\316\222\307\330\276\257"
 1019      2A6DD42D 
 1019      06CE92C7 
 1019      D8BEAF
 1020 144b 7E8C8D22 		.ascii	"~\214\215\"\3632 \353a\313j\264\256\363V!\316OE\013"
 1020      F33220EB 
 1020      61CB6AB4 
 1020      AEF35621 
 1020      CE4F450B 
 1021 145f 89D32A07 		.ascii	"\211\323*\007\316_\305\027\021~\276d\015\\\011ng\207"
 1021      CE5FC517 
 1021      117EBE64 
 1021      0D5C096E 
 1021      6787
 1022 1471 432A6BCE 		.ascii	"C*k\316\207q\233\\\251\252\373\351\204\007L\262\355"
 1022      87719B5C 
ARM GAS  /tmp/ccklYm9V.s 			page 82


 1022      A9AAFBE9 
 1022      84074CB2 
 1022      ED
 1023 1482 F950E08B 		.ascii	"\371P\340\213,\025\362\265&a=59\334b\3139\3544L\204"
 1023      2C15F2B5 
 1023      26613D35 
 1023      39DC62CB 
 1023      39EC344C 
 1024 1497 B5BEA438 		.ascii	"\265\276\2448\016\004\331gT\206q\302RL\324\243\001\200"
 1024      0E04D967 
 1024      548671C2 
 1024      524CD4A3 
 1024      0180
 1025 14a9 D5186E1C 		.ascii	"\325\030n\034\333\027'\002mP\004\321\304=\255]\0325"
 1025      DB172702 
 1025      6D5004D1 
 1025      C43DAD5D 
 1025      1A35
 1026 14bb 4731B431 		.ascii	"G1\2641\224Q\036\250A\361\264\221\232w!\335\012]\243"
 1026      94511EA8 
 1026      41F1B491 
 1026      9A7721DD 
 1026      0A5DA3
 1027 14ce 80066A8A 		.ascii	"\200\006j\212\206_\365\0305L\265\3751js\354\016\037"
 1027      865FF518 
 1027      354CB5FD 
 1027      316A73EC 
 1027      0E1F
 1028 14e0 6CEB5970 		.ascii	"l\353YpL\250j\373S\324\322\334\302\034k\224I\265=_\217"
 1028      4CA86AFB 
 1028      53D4D2DC 
 1028      C21C6B94 
 1028      49B53D5F 
 1029 14f5 CB6343BE 		.ascii	"\313cC\276\013\232\033\003\341\341f\354\010\002?z\310"
 1029      0B9A1B03 
 1029      E1E166EC 
 1029      08023F7A 
 1029      C8
 1030 1506 4C588843 		.ascii	"LX\210C\250\204\362\226\276\314\357\261F\345\244a\031"
 1030      A884F296 
 1030      BECCEFB1 
 1030      46E5A461 
 1030      19
 1031 1517 D710EBC7 		.ascii	"\327\020\353\307q;\311\331\302\036\207\235{\304\345"
 1031      713BC9D9 
 1031      C21E879D 
 1031      7BC4E5
 1032 1526 60846A37 		.ascii	"`\204j7wN\005\360\242\001^\034\363\306e\370|Q\265\207"
 1032      774E05F0 
 1032      A2015E1C 
 1032      F3C665F8 
 1032      7C51B587 
 1033 153a BB047405 		.ascii	"\273\004t\005(\006(\226yGd^\244J\\kF\251\254\205\205"
 1033      28062896 
 1033      7947645E 
 1033      A44A5C6B 
 1033      46A9AC85 
ARM GAS  /tmp/ccklYm9V.s 			page 83


 1034 154f 6229D6DE 		.ascii	"b)\326\336\017\033\206Y.\010\206\305\251v\212\213\243"
 1034      0F1B8659 
 1034      2E0886C5 
 1034      A9768A8B 
 1034      A3
 1035 1560 B53A561C 		.ascii	"\265:V\034A_\262\235\2103\036\030l\363\321\302\026e"
 1035      415FB29D 
 1035      88331E18 
 1035      6CF3D1C2 
 1035      1665
 1036 1572 ECAD1095 		.ascii	"\354\255\020\225\214{\373\242\274\331\302\012\012(\275"
 1036      8C7BFBA2 
 1036      BCD9C20A 
 1036      0A28BD
 1037 1581 CECBD9B7 		.ascii	"\316\313\331\267\235\032v\177L\227p\014%\313(\024*\233"
 1037      9D1A767F 
 1037      4C97700C 
 1037      25CB2814 
 1037      2A9B
 1038 1593 0D5C0B0D 		.ascii	"\015\\\013\015\3228i\220\032\365l8\323\375}\236\245"
 1038      D2386990 
 1038      1AF56C38 
 1038      D3FD7D9E 
 1038      A5
 1039 15a4 38C6782B 		.ascii	"8\306x+\361z\022l\334\312\375\354\260-\271l\251\324"
 1039      F17A126C 
 1039      DCCAFDEC 
 1039      B02DB96C 
 1039      A9D4
 1040 15b6 12B5D121 		.ascii	"\022\265\321!_\277\235\271\256A\023\244\241)\215\316"
 1040      5FBF9DB9 
 1040      AE4113A4 
 1040      A1298DCE 
 1041 15c6 4BE570C6 		.ascii	"K\345p\306\302\210\033=m\210\007\311\211\014\324U\000"
 1041      C2881B3D 
 1041      6D8807C9 
 1041      890CD455 
 1041      00
 1042 15d7 950440AE 		.ascii	"\225\004@\256\001]\007J\226\000\352\354bn\344\007)\361"
 1042      015D074A 
 1042      9600EAEC 
 1042      626EE407 
 1042      29F1
 1043 15e9 55D9DBDC 		.ascii	"U\331\333\334E\035\223\2502r\2228&\026\225eT\224x\000"
 1043      451D93A8 
 1043      32729238 
 1043      26169565 
 1043      54947800 
 1044 15fd 97BA992B 		.ascii	"\227\272\231+\3604\236\240\222\261o\037\360\371\177"
 1044      F0349EA0 
 1044      92B16F1F 
 1044      F0F97F
 1045 160c A643C87B 		.ascii	"\246C\310{\316\010;\357\271\363\365\267'\315\320<\315"
 1045      CE083BEF 
 1045      B9F3F5B7 
 1045      27CDD03C 
 1045      CD
ARM GAS  /tmp/ccklYm9V.s 			page 84


 1046 161d DC0771B7 		.ascii	"\334\007q\267\003l\271\235\016F\035\225\006\316\371"
 1046      036CB99D 
 1046      0E461D95 
 1046      06CEF9
 1047 162c 3E4719E6 		.ascii	">G\031\346\240\"\337(<\007\245\002\177\212\020\365\211"
 1047      A022DF28 
 1047      3C07A502 
 1047      7F8A10F5 
 1047      89
 1048 163d 2A561FE5 		.ascii	"*V\037\345\027\317\034\240\011\274\033?\260\357{^\312"
 1048      17CF1CA0 
 1048      09BC1B3F 
 1048      B0EF7B5E 
 1048      CA
 1049 164e BEAA3A88 		.ascii	"\276\252:\210\0238\273\371\354e\033\024`CF3\363\234"
 1049      1338BBF9 
 1049      EC651B14 
 1049      60434633 
 1049      F39C
 1050 1660 F779253A 		.ascii	"\367y%:K\033]g\026\353\325\3502i\230\227\345x\007 v"
 1050      4B1B5D67 
 1050      16EBD5E8 
 1050      32699897 
 1050      E5780720 
 1051 1675 08EFB0D3 		.ascii	"\010\357\260\323\220K\265\351,\227\370\032\364\256\011"
 1051      904BB5E9 
 1051      2C97F81A 
 1051      F4AE09
 1052 1684 EBD93EB4 		.ascii	"\353\331>\264O\264\223\277\251\222\261\317\312K\326"
 1052      4FB493BF 
 1052      A992B1CF 
 1052      CA4BD6
 1053 1693 CE5E5941 		.ascii	"\316^YAlD\272x(f{E\3427\345\374\333\352\355\315\036"
 1053      6C44BA78 
 1053      28667B45 
 1053      E237E5FC 
 1053      DBEAEDCD 
 1054 16a8 FBF37ACC 		.ascii	"\373\363z\314\316W\250\230\335H\205\312\342B,|\303\270"
 1054      CE57A898 
 1054      DD4885CA 
 1054      E2422C7C 
 1054      C3B8
 1055 16ba 7071B22E 		.ascii	"pq\262.\261\323\355\273\246\2235\035\222\365\006N\326"
 1055      B1D3EDBB 
 1055      A693351D 
 1055      92F5064E 
 1055      D6
 1056 16cb 4CE60A3C 		.ascii	"L\346\012<\334w`\270s`\230\263\200n\001\335\006\312"
 1056      DC7760B8 
 1056      736098B3 
 1056      806E01DD 
 1056      06CA
 1057 16dd 05CA1616 		.ascii	"\005\312\026\026\212\221\271\250\011\025\272fCW\200"
 1057      8A91B9A8 
 1057      0915BA66 
 1057      435780
 1058 16ec 8EF64A1B 		.ascii	"\216\366J\033Y\034\031\004\027\200\260\327\025l\210"
ARM GAS  /tmp/ccklYm9V.s 			page 85


 1058      591C1904 
 1058      1780B0D7 
 1058      156C88
 1059 16fb A7CB1561 		.ascii	"\247\313\025a8\236\362\241_\236\020Ow\371xj]\274\012"
 1059      389EF2A1 
 1059      5F9E104F 
 1059      77F9786A 
 1059      5DBC0A
 1060 170e 8BD12D1A 		.ascii	"\213\321-\032$\345\011\205\177\217\212\350\347\305\363"
 1060      24E50985 
 1060      7F8F8AE8 
 1060      E7C5F3
 1061 171d DD03B6A8 		.ascii	"\335\003\266\250\2046&2\333\333\021\252\242\030\323"
 1061      84362632 
 1061      DBDB11AA 
 1061      A218D3
 1062 172c FD5B0B94 		.ascii	"\375[\013\224\242\007\270\277~H\236'\336WYr\305*Y\221"
 1062      A207B8BF 
 1062      7E489E27 
 1062      DE575972 
 1062      C52A5991 
 1063 1740 67B4622C 		.ascii	"g\264b,Q\031\373\376,\312\270\330\376!\347\260\207-"
 1063      5119FBFE 
 1063      2CCAB8D8 
 1063      FE21E7B0 
 1063      872D
 1064 1752 C7730566 		.ascii	"\307s\005f+\267q\361Xnt\032\2106\243\211\212\265\336"
 1064      2BB771F1 
 1064      586E741A 
 1064      8836A389 
 1064      8AB5DE
 1065 1765 03ADE5C6 		.ascii	"\003\255\345\306g\024c\253\266\2020c'\226\002\2202a"
 1065      671463AB 
 1065      B6823063 
 1065      27960290 
 1065      3261
 1066 1777 249E5F7D 		.ascii	"$\236_}\332\241A\323\324\312\24795\301\302H\310\326"
 1066      DAA141D3 
 1066      D4CAA739 
 1066      35C1C248 
 1066      C8D6
 1067 1789 FD2AE868 		.ascii	"\375*\350hL\010{,\367K\274\303\251\204\373\025\202?"
 1067      4C087B2C 
 1067      F74BBCC3 
 1067      A984FB15 
 1067      823F
 1068 179b CA99C7CD 		.ascii	"\312\231\307\315*\213\203*\224\3444\037fV\303iES&\313"
 1068      2A8B832A 
 1068      94E4341F 
 1068      6656C369 
 1068      455326CB 
 1069 17af 3DDCAD08 		.ascii	"=\334\255\010\272\325\210\015\332D\306O\0217\320nn\035"
 1069      BAD5880D 
 1069      DA44C64F 
 1069      1137D06E 
 1069      6E1D
 1070 17c1 1FBA16B2 		.ascii	"\037\272\026\262\036\344$\006\0005@(\324\0015"
ARM GAS  /tmp/ccklYm9V.s 			page 86


 1070      1EE42406 
 1070      00354028 
 1070      D40135
 1071 17d0 02D50255 		.ascii	"\002\325\002U\253\304\2472\345nt\367\210\267|[\210\366"
 1071      ABC4A732 
 1071      E56E74F7 
 1071      88B77C5B 
 1071      88F6
 1072 17e2 349CDFE6 		.ascii	"4\234\337\346\312\023\267\374k\312\215\247\244 \246"
 1072      CA13B7FC 
 1072      6BCA8DA7 
 1072      A420A6
 1073 17f1 C730B789 		.ascii	"\3070\267\211\037\031\260\342k\222\246J\315\266q\303"
 1073      1F19B0E2 
 1073      6B92A64A 
 1073      CDB671C3 
 1074 1801 BBBF4996 		.ascii	"\273\277I\226\2458\0363\2300C\200\313\217'\206\277\246"
 1074      A5381E33 
 1074      98304380 
 1074      CB8F2786 
 1074      BFA6
 1075 1813 838C0B32 		.ascii	"\203\214\0132\275\334'\342\223[\030\274b\177\277%\033"
 1075      BDDC27E2 
 1075      935B18BC 
 1075      627FBF25 
 1075      1B
 1076 1824 B44107AF 		.ascii	"\264A\007\257\362~p\264\245,\215\014\276j\001\377\274"
 1076      F27E70B4 
 1076      A52C8D0C 
 1076      BE6A01FF 
 1076      BC
 1077 1835 8EAF0C29 		.ascii	"\216\257\014)\324Tq\026\247P3\364i\022\006\264\206O"
 1077      D4547116 
 1077      A75033F4 
 1077      691206B4 
 1077      864F
 1078 1847 A1EC9ADA 		.ascii	"\241\354\232\332\001\033\250\325\007\351H\206\2055\350"
 1078      011BA8D5 
 1078      07E94886 
 1078      8535E8
 1079 1856 F5894AC2 		.ascii	"\365\211J\302\376\222U\353\274n\005\276\002\177[U\270"
 1079      FE9255EB 
 1079      BC6E05BE 
 1079      027F5B55 
 1079      B8
 1080 1867 5ACFE86D 		.ascii	"Z\317\350m\216B(\320\226\256\275\301\3051\032\323?\256"
 1080      8E4228D0 
 1080      96AEBDC1 
 1080      C5311AD3 
 1080      3FAE
 1081 1879 50B1AFDB 		.ascii	"P\261\257\333\247\222\\\341\256&5\025\212~$\243\302"
 1081      A7925CE1 
 1081      AE263515 
 1081      8A7E24A3 
 1081      C2
 1082 188a 050A5F2D 		.ascii	"\005\012_-(\270v\225=\337\0073\217\327\025\226\231\363"
 1082      28B87695 
ARM GAS  /tmp/ccklYm9V.s 			page 87


 1082      3DDF0733 
 1082      8FD71596 
 1082      99F3
 1083 189c 0FD402A4 		.ascii	"\017\324\002\244\217\225\025\3023e\\\363mx/pb\261\017"
 1083      8F9515C2 
 1083      33655CF3 
 1083      6D782F70 
 1083      62B10F
 1084 18af 55AF907B 		.ascii	"U\257\220{i\252;\021\033\236\255'\337+\314\367m&\206"
 1084      69AA3B11 
 1084      1B9EAD27 
 1084      DF2BCCF7 
 1084      6D2686
 1085 18c2 77A8ECB9 		.ascii	"w\250\354\271\007\324O\242\276p\005\376v\022\303\223"
 1085      07D44FA2 
 1085      BE7005FE 
 1085      7612C393 
 1086 18d2 C60B462C 		.ascii	"\306\013F,Q\0105\374\314|A\210\265X'\236\222\205~\217"
 1086      510835FC 
 1086      CC7C4188 
 1086      B558279E 
 1086      92857E8F 
 1087 18e6 A53A7DD6 		.ascii	"\245:}\326b\242\020\336\030\341)?vW\204>\341\217\230"
 1087      62A210DE 
 1087      18E1293F 
 1087      7657843E 
 1087      E18F98
 1088 18f9 857BB44D 		.ascii	"\205{\264M\341#\242\260\213*l(nT\243\013TaJ\372\263"
 1088      E123A2B0 
 1088      8B2A6C28 
 1088      6E54A30B 
 1088      54614AFA 
 1089 190e 0B6A9446 		.ascii	"\013j\224F\033S\035\017\236\232\243,\332\030Xy\324o"
 1089      1B531D0F 
 1089      9E9AA32C 
 1089      DA185879 
 1089      D46F
 1090 1920 2D7EF2B8 		.ascii	"-~\362\270$\371\365F\237\212\177\362\030\335\024\230"
 1090      24F9F546 
 1090      9F8A7FF2 
 1090      18DD1498 
 1091 1930 AF44F9B4 		.ascii	"\257D\371\264W\307fr\003\314\224\244\241\251:\373\270"
 1091      57C76672 
 1091      03CC94A4 
 1091      A1A93AFB 
 1091      B8
 1092 1941 47C59127 		.ascii	"G\305\221'pla}\324\377\353\213\271\364\010\024\004p"
 1092      706C617D 
 1092      D4FFEB8B 
 1092      B9F40814 
 1092      0470
 1093 1953 BD0074F4 		.ascii	"\275\000t\364\225\353\352\374[4\3521w\277\234{[\205"
 1093      95EBEAFC 
 1093      5B34EA31 
 1093      77BF9C7B 
 1093      5B85
 1094 1965 53FE4381 		.ascii	"S\376C\201{\300\270lqv\216]\264'\3319jlV\235\275\370"
ARM GAS  /tmp/ccklYm9V.s 			page 88


 1094      7BC0B86C 
 1094      71768E5D 
 1094      B427D939 
 1094      6A6C569D 
 1095 197b E37392F3 		.ascii	"\343s\222\363\263\355\252\367\313\247 ~&P\020f<\004"
 1095      B3EDAAF7 
 1095      CBA7207E 
 1095      26501066 
 1095      3C04
 1096 198d 4F20A746 		.ascii	"O \247F \217\206\200\006\201\206\205\031\266+\365\361"
 1096      208F8680 
 1096      06818685 
 1096      19B62BF5 
 1096      F1
 1097 199e 0842D5C4 		.ascii	"\010B\325\304U\312\233\327\373BT\246j\246\247 \344\373"
 1097      55CA9BD7 
 1097      FB4254A6 
 1097      6AA6A720 
 1097      E4FB
 1098 19b0 04B27231 		.ascii	"\004\262r1\206\034K\216\003\363\230\220\235\243|v\246"
 1098      861C4B8E 
 1098      03F39890 
 1098      9DA37C76 
 1098      A6
 1099 19c1 2C2E6FD9 		.ascii	",.o\331\356d:\002L\351P\230B<\341\023\025c#\016\211"
 1099      EE643A02 
 1099      4CE95098 
 1099      423CE113 
 1099      1563230E 
 1100 19d6 09C98E65 		.ascii	"\011\311\216e\322\020\022q\367J\303l\304If\2121%'rP"
 1100      D2101271 
 1100      F74AC36C 
 1100      C449668A 
 1100      31252772 
 1101 19eb 22714A25 		.ascii	"\"qJ%>G\236\346\031Ue\015K\025V\244\0007\366\340H\301"
 1101      3E479EE6 
 1101      1955650D 
 1101      4B1556A4 
 1101      0037F6E0 
 1102 1a01 CD30F7CC 		.ascii	"\3150\367\314\201\031\317\000\365\254\244\346\256\216"
 1102      8119CF00 
 1102      F5ACA4E6 
 1102      AE8E
 1103 1a0f DD4D2B1C 		.ascii	"\335M+\034\020\310\365\200cf^\271\033Y\212\241q1c,."
 1103      10C8F580 
 1103      63665EB9 
 1103      1B598AA1 
 1103      7131632C 
 1104 1a24 36637647 		.ascii	"6cvGH\342b\273,\276*~\236\025\324b\207\036\320\021\216"
 1104      48E262BB 
 1104      2CBE2A7E 
 1104      9E15D462 
 1104      871ED011 
 1105 1a39 F58E7C22 		.ascii	"\365\216|\"\257f\204o\025\001lS&\360[[2\262\363\300"
 1105      AF66846F 
 1105      15016C53 
 1105      26F05B5B 
ARM GAS  /tmp/ccklYm9V.s 			page 89


 1105      32B2F3C0 
 1106 1a4d F45C18D9 		.ascii	"\364\\\030\331\031~d\033k\036tq\222\2215&[!\021\214"
 1106      197E641B 
 1106      6B1E7471 
 1106      92913526 
 1106      5B21118C 
 1107 1a61 8F71CE95 		.ascii	"\217q\316\225\206rx\326*%?\336\350\351\205]\246=\267"
 1107      867278D6 
 1107      2A253FDE 
 1107      E8E9855D 
 1107      A63DB7
 1108 1a74 08DCDD6C 		.ascii	"\010\334\335l\016\021\\\214\257|\252Tp/\310,\262~e\342"
 1108      0E115C8C 
 1108      AF7CAA54 
 1108      702FC82C 
 1108      B27E65E2 
 1109 1a88 8E051AA4 		.ascii	"\216\005\032\244Y\3778 \"I#\236\266&%S\345\262t\332"
 1109      59FF3820 
 1109      2249239E 
 1109      B6262553 
 1109      E5B274DA 
 1110 1a9c 1A18AB4C 		.ascii	"\032\030\253LR\212\271\247^\305=q\273\366\014\206\370"
 1110      528AB9A7 
 1110      5EC53D71 
 1110      BBF60C86 
 1110      F8
 1111 1aad 0C206EC2 		.ascii	"\014 n\302\206G\257\377#\267\002\223\334\322\266In\211"
 1111      8647AFFF 
 1111      23B70293 
 1111      DCD2B649 
 1111      6E89
 1112 1abf 015C2500 		.ascii	"\001\\%\000\023\343j\373\324\350%\005\230\271\022\354"
 1112      13E36AFB 
 1112      D4E82505 
 1112      98B912EC 
 1113 1acf 630D425A 		.ascii	"c\015BZAHg\232=\021\202cr\215\011\021\022w\215\011y"
 1113      4148679A 
 1113      3D118263 
 1113      728D0911 
 1113      12778D09 
 1114 1ae4 498464DD 		.ascii	"I\204d\335\035\036\261C\301v\264\360\253\315\360\326"
 1114      1D1EB143 
 1114      C176B4F0 
 1114      ABCDF0D6 
 1115 1af4 302193BF 		.ascii	"0!\223\277\202:@Ed\254o\223\261\316dl\020\031\343\376"
 1115      823A4045 
 1115      64AC6F93 
 1115      B1CE646C 
 1115      1019E3FE 
 1116 1b08 C993085D 		.ascii	"\311\223\010]\2422Z\273\332\2478&\243\355\277\032dl"
 1116      A2325ABB 
 1116      DAA73826 
 1116      A3EDBF1A 
 1116      646C
 1117 1b1a 6E93B1C9 		.ascii	"n\223\261\311dl\021\031\371\313\027r\354P:\2251\032"
 1117      646C1119 
 1117      F9CB1772 
ARM GAS  /tmp/ccklYm9V.s 			page 90


 1117      EC503A95 
 1117      311A
 1118 1b2c F8F23A2F 		.ascii	"\370\362:/\243\374s\203\014\275Z.\003_\3012\274\325"
 1118      A3FC7383 
 1118      0CBD5A2E 
 1118      035FC132 
 1118      BCD5
 1119 1b3e 5846FD9D 		.ascii	"XF\375\235\321T\311O\006?\026/\252>j\372\0332x\007\336"
 1119      D154C94F 
 1119      063F162F 
 1119      AA3E6AFA 
 1119      1B327807 
 1120 1b53 CAB6D202 		.ascii	"\312\266\322\002\311o\345\232%\011\354\313\230}\011"
 1120      C96FE59A 
 1120      2509ECCB 
 1120      987D09
 1121 1b62 7342C360 		.ascii	"sB\303`\235d\245\300?\234\020\230\375\030\263\037a^"
 1121      9D64A5C0 
 1121      3F9C1098 
 1121      FD18B31F 
 1121      615E
 1122 1b74 4A888D95 		.ascii	"J\210\215\225|\271,T\302\354\317\230\375\011\363rVB"
 1122      7CB92C54 
 1122      C2ECCF98 
 1122      FD09F372 
 1122      5642
 1123 1b86 B3E99F87 		.ascii	"\263\351\237\207\236V\263:\240\211\326\001\213A\376"
 1123      9E56B33A 
 1123      A089D601 
 1123      8B41FE
 1124 1b95 CBEC47C0 		.ascii	"\313\354G\300\370H\217\377\"\371.\372E\362\236\326\214"
 1124      F8488FFF 
 1124      22F92EFA 
 1124      45F29ED6 
 1124      8C
 1125 1ba6 EA6DBFBC 		.ascii	"\352m\277\274\016P\357\346\316\250\261\260@\265=/\222"
 1125      0E50EFE6 
 1125      CEA8B1B0 
 1125      40B53D2F 
 1125      92
 1126 1bb7 34F017C3 		.ascii	"4\360\027\303\252\026\252\354P\021uzZ\352V\207\235\351"
 1126      AA16AAEC 
 1126      5011757A 
 1126      5AEA5687 
 1126      9DE9
 1127 1bc9 1F5A04AB 		.ascii	"\037Z\004\253%?MZ\314oT\363\277\211Z\177\257\241\037"
 1127      253F4D5A 
 1127      CC6F54F3 
 1127      BF895A7F 
 1127      AFA11F
 1128 1bdc 963C30D9 		.ascii	"\226<0\331\217\333\203\031\271 \265!\201\341\243B\362"
 1128      8FDB8319 
 1128      B920B521 
 1128      81E1A342 
 1128      F2
 1129 1bed 639A1035 		.ascii	"c\232\0205>\377\254\217H\332\262@MT\365fAp\216\265\351"
 1129      3EFFAC8F 
ARM GAS  /tmp/ccklYm9V.s 			page 91


 1129      48DAB240 
 1129      4D54F566 
 1129      41708EB5 
 1130 1c02 C7006725 		.ascii	"\307\000g%\252{\263/\235\261\342\177\025U\217w\231\370"
 1130      AA7BB32F 
 1130      9DB1E27F 
 1130      15558F77 
 1130      99F8
 1131 1c14 473CD794 		.ascii	"G<\327\224\230\215\013\025\024\207\312\025\207\021\305"
 1131      988D0B15 
 1131      1487CA15 
 1131      8711C5
 1132 1c23 21FE37BC 		.ascii	"!\3767\274\315P\017U\\w\341\372\005k&kn\335\254.\030"
 1132      CD500F55 
 1132      5C77E1FA 
 1132      056B266B 
 1132      6EDDAC2E 
 1133 1c38 7F87C85B 		.ascii	"\177\207\310[\377\001\255\005\302\005a\341ra\347\210"
 1133      FF01AD05 
 1133      C20561E1 
 1133      7261E788 
 1134 1c48 B0EBCB2B 		.ascii	"\260\353\313+\301\266\310\177\007\375R\370\306\374\240"
 1134      C1B6C87F 
 1134      07FD52F8 
 1134      C6FCA0
 1135 1c57 2D135691 		.ascii	"-\023V\221\241.\314\341}\242\"\322\"\004i\021ri\347"
 1135      A12ECCE1 
 1135      7DA222D2 
 1135      22046911 
 1135      7269E7
 1136 1c6a 89B44763 		.ascii	"\211\264Gc\345GQ\030\025v#\363J\266-\212\243\215\340"
 1136      E5475118 
 1136      157623F3 
 1136      4AB62D8A 
 1136      A38DE0
 1137 1c7d F28ACB1A 		.ascii	"\362\212\313\032\025\304y$\356H\366n\253\003;\310\201"
 1137      15C47924 
 1137      EE48F66E 
 1137      AB033BC8 
 1137      81
 1138 1c8e F5B4E121 		.ascii	"\365\264\341!Bev\372\206\255\311\003\353\213\304\207"
 1138      426576FA 
 1138      86ADC903 
 1138      EB8BC487 
 1139 1c9e D16AE6C4 		.ascii	"\321j\346\304\261KQ\331\274\023\007B-z\346\232\251\341"
 1139      B14B51D9 
 1139      BC130742 
 1139      2D7AE69A 
 1139      A9E1
 1140 1cb0 B54ACCC9 		.ascii	"\265J\314\311]\340\261rQj\025nI\341\306\020\270\255"
 1140      5DE0B172 
 1140      516A156E 
 1140      49E1C610 
 1140      B8AD
 1141 1cc2 B3452156 		.ascii	"\263E!Vh\214BL\365;\273\245\021<\331'\365d\254`{\254"
 1141      688C424C 
 1141      F53BBBA5 
ARM GAS  /tmp/ccklYm9V.s 			page 92


 1141      113CD927 
 1141      F564AC60 
 1142 1cd8 5CD82522 		.ascii	"\\\330%\"l0~\374\274\015\232\247\302\032J\256v\250\005"
 1142      6C307EFC 
 1142      BC0D9AA7 
 1142      C21A4AAE 
 1142      76A805
 1143 1ceb 4F4ECA3C 		.ascii	"ON\312<yY\220vY.-\216H+N\275\021!\371\275\025\256R\205"
 1143      79599076 
 1143      592E2D8E 
 1143      482B4EBD 
 1143      1121F9BD 
 1144 1d03 BCBAC272 		.ascii	"\274\272\302r\360\012\311\301\224\340\027k\026bf\374"
 1144      F00AC9C1 
 1144      94E0176B 
 1144      166266FC 
 1145 1d13 4049608E 		.ascii	"@I`\216g\314\361\20496\366V\205\204\371\261Dr\002cN"
 1145      67CCF184 
 1145      3936F656 
 1145      8584F9B1 
 1145      44720263 
 1146 1d28 20CC4F93 		.ascii	" \314O\223\0136$\314\347%SA\"cN$\314O\002\026\262%\225"
 1146      0B3624CC 
 1146      E7255341 
 1146      22634E24 
 1146      CC4F0216 
 1147 1d3f C2980446 		.ascii	"\302\230\004F\022cN\"\314yC\221\367\331\321\356c\354"
 1147      12634E22 
 1147      CC794391 
 1147      F7D9D1EE 
 1147      63EC
 1148 1d51 B1F6B144 		.ascii	"\261\366\261D?\366\233\222V\334\256\350\254y\246B\233"
 1148      3FF69B92 
 1148      56DCAEE8 
 1148      AC79A642 
 1148      9B
 1149 1d62 D49D0119 		.ascii	"\324\235\001\031g+\020\236d|_\353\307\251x\261m|\331"
 1149      672B109E 
 1149      647C5FEB 
 1149      C7A978B1 
 1149      6D7CD9
 1150 1d75 A4467E6F 		.ascii	"\244F~o\320\350\253\272S\315f\235Z\334\276PXQd\205\316"
 1150      D0E8ABBA 
 1150      53CD669D 
 1150      5ADCBE50 
 1150      58516485 
 1151 1d8a D09B4F82 		.ascii	"\320\233O\202\206+4(\2046\342{^\324s(\2346\212\333z"
 1151      862B3428 
 1151      8436E27B 
 1151      5ED47328 
 1151      9C368ADB 
 1152 1d9f 3F4091F4 		.ascii	"?@\221\364s\371|v\012\203\2070\240\230\371V;\223\263"
 1152      73F97C76 
 1152      0A838730 
 1152      A098F956 
 1152      3B93B3
 1153 1db2 DE4D7ED6 		.ascii	"\336M~\326\313T\0230]+U\335j\361j\212c^X\003\262\310"
ARM GAS  /tmp/ccklYm9V.s 			page 93


 1153      CB541330 
 1153      5D2B55DD 
 1153      6AF16A8A 
 1153      635E5803 
 1154 1dc8 BC463A61 		.ascii	"\274F:a\356\252\310Y[1\363u\365+\230o^M\216\266D1\024"
 1154      EEAAC859 
 1154      5B31F375 
 1154      F52B986F 
 1154      5E4D8EB6 
 1155 1ddf E4F5A522 		.ascii	"\344\365\245\"_s\024G\033\347K\342\232\314P\"m\370<"
 1155      5F731447 
 1155      1BE74BE2 
 1155      9ACC5022 
 1155      6DF83C
 1156 1df2 FA2D4AA6 		.ascii	"\372-J\246\037\357\237\213\350\343P\032mD6L\275\203"
 1156      1FEF9F8B 
 1156      E8E3501A 
 1156      6D44364C 
 1156      BD83
 1157 1e04 6ED2CF9B 		.ascii	"n\322\317\233\265\025\357\240\\\372\271\372nj\012\207"
 1157      B515EFA0 
 1157      5CFAB9FA 
 1157      6E6A0A87 
 1158 1e14 0A69633E 		.ascii	"\012ic>\266z\312\022\225\320FB\333\345|sT\306\024\256"
 1158      B67ACA12 
 1158      95D04642 
 1158      DBE57C73 
 1158      54C614AE 
 1159 1e28 445DB746 		.ascii	"D]\267F\325\264\361\260\240#\300\0125\320F\300\255["
 1159      D5B4F1B0 
 1159      A023C00A 
 1159      35D046C0 
 1159      AD5B
 1160 1e3a 17AD500B 		.ascii	"\027\255P\013\323\316~\375`\317~\3750\222<\222`\301"
 1160      D3CE7EFD 
 1160      60CF7EFD 
 1160      30923C92 
 1160      60C1
 1161 1e4c 7E9D83FF 		.ascii	"~\235\203\377\227\200\240\266\306e\016\2653H\305\221"
 1161      9780A0B6 
 1161      C6650EB5 
 1161      3348C591 
 1162 1e5c 776CE5CE 		.ascii	"wl\345\316\022J\2342\265\360\253q\234\302\243W\223U"
 1162      124A9C32 
 1162      B5F0AB71 
 1162      9CC2A357 
 1162      9355
 1163 1e6e 726F99E2 		.ascii	"ro\231\342~s.\250\354\205\015G\276\311+z\321/\037\322"
 1163      7E732EA8 
 1163      EC850D47 
 1163      BEC92B7A 
 1163      D12F1FD2 
 1164 1e82 67373545 		.ascii	"g75E\026!\267F\352\274\361\267:\260\250t\310\324j\365"
 1164      1621B746 
 1164      EABCF1B7 
 1164      3AB0A874 
 1164      C8D46AF5 
ARM GAS  /tmp/ccklYm9V.s 			page 94


 1165 1e96 B62FF6F1 		.ascii	"\266/\366\361;\032\334\245<\020\321-\015\346O\226\363"
 1165      3B1ADCA5 
 1165      3C10D12D 
 1165      0DE64F96 
 1165      F3
 1166 1ea7 5F53CBF9 		.ascii	"_S\313\371'\003D\3747\344\374\251j\243\333\226\373\260"
 1166      270344FC 
 1166      37E4FCA9 
 1166      6AA3DB96 
 1166      FBB0
 1167 1eb9 0A96905B 		.ascii	"\012\226\220[\230\233|cG\355\300\325\252\367p5@-@\215"
 1167      989B7C63 
 1167      47EDC0D5 
 1167      AAF77035 
 1167      402D408D 
 1168 1ecd 4075408F 		.ascii	"@u@\217\200\032\200\332\200\232\200Z\201\036\002u\000"
 1168      801A80DA 
 1168      809A805A 
 1168      811E0275 
 1168      00
 1169 1ede 35033D06 		.ascii	"5\003=\006\252\000\252\002z\000T\017T\011\324\251\026"
 1169      AA00AA02 
 1169      7A00540F 
 1169      5409D4A9 
 1169      16
 1170 1eef 3FC35AFB 		.ascii	"?\303Z\373?\002\306{r\214\216r\223\346E\334\305F\271"
 1170      3F02C67B 
 1170      728C8E72 
 1170      93E645DC 
 1170      C546B9
 1171 1f02 F70BCC6D 		.ascii	"\367\013\314m\177\023\230\013\344\314\222sR\002D\354"
 1171      7F13980B 
 1171      E4CC9273 
 1171      520244EC 
 1172 1f12 AD14E3DE 		.ascii	"\255\024\343\336\025\261\017\213\204\347\311\271%g\274"
 1172      15B10F8B 
 1172      84E7C9B9 
 1172      2567BC
 1173 1f21 98BB5EC4 		.ascii	"\230\273^\304](\347N\3336\322\363\"\366;r\366b\271\360"
 1173      5D28E74E 
 1173      DB36D2F3 
 1173      22F63B72 
 1173      F662B9F0 
 1174 1f35 3631F25B 		.ascii	"61\362[r\366\\9{\271Hx\221q,b\267\210\270s\215C\221"
 1174      72F65C39 
 1174      7BB94878 
 1174      91712C62 
 1174      B788B873 
 1175 1f4c 20176349 		.ascii	" \027cI3\036s\222\030\025\211\277k\334\215\342\335\330"
 1175      331E7392 
 1175      181589BF 
 1175      6BDC8DE2 
 1175      DDD8
 1176 1f5e EC26DD8D 		.ascii	"\354&\335\215\001\233t7\206eU\007\240\002\372-R,-G."
 1176      019B7437 
 1176      86655507 
 1176      A002FA2D 
ARM GAS  /tmp/ccklYm9V.s 			page 95


 1176      522C2D47 
 1177 1f73 AD5C3EE2 		.ascii	"\255\\>\342\365b\254\267\215\263\033\260Bi]\037\210"
 1177      F562ACB7 
 1177      8DB31BB0 
 1177      42695D1F 
 1177      88
 1178 1f84 E8815FB9 		.ascii	"\350\201_\271\332\236+e\374\206\255\325Uy\204t\213L"
 1178      DA9E2B65 
 1178      FC86ADD5 
 1178      55798474 
 1178      8B4C
 1179 1f96 CB371E7E 		.ascii	"\3137\036~b\351\335\001Lz"
 1179      62E9DD01 
 1179      4C7A
 1180 1fa0 3648CF60 		.ascii	"6H\317`\374\206-\271\370\333\2330\033\3655v\246\332"
 1180      FC862DB9 
 1180      F8DB9B30 
 1180      1BF53576 
 1180      A6DA
 1181 1fb2 A2607BB2 		.ascii	"\242`{\262\233,\277r/Fex\\\333\031\210|\261\213z\240"
 1181      9B2CBF72 
 1181      2F466578 
 1181      5CDB1988 
 1181      7CB18B7A 
 1182 1fc7 7B97B0FC 		.ascii	"{\227\260\374c\217\031\317t\256\033\022\374\337;\331"
 1182      638F19CF 
 1182      74AE1B12 
 1182      FCDF3BD9 
 1183 1fd7 F1B43F11 		.ascii	"\361\264?\0216$\2514z\324\342}D/[\265{\311\252}&\350"
 1183      3624A934 
 1183      7AD4E27D 
 1183      442F5BB5 
 1183      7BC9AA7D 
 1184 1fed FC39C9D6 		.ascii	"\3749\311\326`R\262\304\3671\346>\302<0\035^/\371"
 1184      6052B2C4 
 1184      F731E63E 
 1184      C23C301D 
 1184      5E2FF9
 1185 2000 BF851624 		.ascii	"\277\205\026$\314\375\214\271\2370\207\017\256T\231"
 1185      CCFD8CB9 
 1185      9F30870F 
 1185      AE5499
 1186 200f 8B999725 		.ascii	"\213\231\227%\314\003\214y\200\226%\011\336-\266(\332"
 1186      CC038C79 
 1186      80962509 
 1186      DE2DB628 
 1186      DA
 1187 2020 9E2EE0D9 		.ascii	"\236.\340\331\315\343Jq\331\210\237\235\011u\343\220"
 1187      CDE34A71 
 1187      D9889F9D 
 1187      0975E390 
 1188 2030 A4F6CE98 		.ascii	"\244\366\316\230j\250\345\177\206\377\250\311b\352j"
 1188      6AA8E57F 
 1188      86FFA8C9 
 1188      62EA6A
 1189 203f 335FE501 		.ascii	"3_\345\001\0377(\014\314\240\274.\033&u\331|\314\335"
 1189      1F37280C 
ARM GAS  /tmp/ccklYm9V.s 			page 96


 1189      CCA0BC2E 
 1189      1B2675D9 
 1189      7CCCDD
 1190 2052 711B5447 		.ascii	"q\033TG5\217\015\307\206\363U\336T\217E\027\375\177"
 1190      358F0DC7 
 1190      86F355DE 
 1190      548F4517 
 1190      FD7F
 1191 2064 1512FE48 		.ascii	"\025\022\376H\224rO\004aO\344\302F\210\260\325\370\033"
 1191      94724F04 
 1191      614FE4C2 
 1191      4688B0D5 
 1191      F81B
 1192 2076 EB362874 		.ascii	"\3536(t'\021V\0377\234\316\361%\343\264EZ\262D\330\250"
 1192      2711561F 
 1192      379CCEF1 
 1192      25E3B445 
 1192      5AB244D8 
 1193 208b 206C542E 		.ascii	" lT.l\214\010\213\357\036\010\262F\017w\232\374\216"
 1193      6C8C088B 
 1193      EF1E08B2 
 1193      460F779A 
 1193      FC8E
 1194 209d 4ECDB5BC 		.ascii	"N\315\265\274\031;\303wD\236\252\311\305\333w\323[4"
 1194      193BC377 
 1194      449EAAC9 
 1194      C5DB77D3 
 1194      5B34
 1195 20af A69D3749 		.ascii	"\246\2357I\2347a(\272sG\377\011 \266\002\304\206\264"
 1195      9C376128 
 1195      BA7347FF 
 1195      0920B602 
 1195      C486B4
 1196 20c2 3D7390D5 		.ascii	"=s\220\325\376z}\271\012\263q\343\002\302q9\302)\202"
 1196      FE7A7DB9 
 1196      0AB371E3 
 1196      02C27139 
 1196      C22982
 1197 20d5 70DB71E5 		.ascii	"p\333q\345\206\344\270r\232\015\3614\215\2649\277V\311"
 1197      86E4B872 
 1197      9A0DF134 
 1197      8DB439BF 
 1197      56C9
 1198 20e7 AF2A5624 		.ascii	"\257*V$e\352\014c\236\241\225g\312f\264\206\026\030"
 1198      65EA0C63 
 1198      9EA19567 
 1198      CA66B486 
 1198      1618
 1199 20f9 3FC0B565 		.ascii	"?\300\265eK\327\206\205\311\352l\216\257\316fiu\366"
 1199      4BD78685 
 1199      C9EA6C8E 
 1199      AFCE6669 
 1199      75F6
 1200 210b 62356896 		.ascii	"b5h\226U\242o\3422&1z\220=\243\314\306\317(\227\275"
 1200      55A26FE2 
 1200      3226317A 
 1200      903DA3CC 
ARM GAS  /tmp/ccklYm9V.s 			page 97


 1200      C6CF2897 
 1201 2120 071B2CE5 		.ascii	"\007\033,\345\233\322\347\220\244\317\310\3142O*\214"
 1201      9BD2E790 
 1201      A4CFC8CC 
 1201      324F2A8C 
 1202 2130 39BA299D 		.ascii	"9\272)\235'\233\322\341\264\222 \211\235pY\244\177\201"
 1202      279BD2E1 
 1202      B4922089 
 1202      9D7059A4 
 1202      7F81
 1203 2142 415F20D0 		.ascii	"A_ \320\027\262\203n\232\231\304\272\310c\275K\313\332"
 1203      17B2836E 
 1203      9A99C4BA 
 1203      C863BD4B 
 1203      CBDA
 1204 2154 D4AAF23C 		.ascii	"\324\252\362<\366\263\322\377\000\315\334\323\361M\014"
 1204      F6B3D2FF 
 1204      00CDDCD3 
 1204      F14D0C
 1205 2163 EB638C35 		.ascii	"\353c\2145y%)x\333\377\257\264\004X_\020\254\313\004"
 1205      79252978 
 1205      DBFFAFB4 
 1205      04585F10 
 1205      ACCB04
 1206 2176 EB22C5BA 		.ascii	"\353\"\305\272L\260\216\365V\357\224d\235\004\352\012"
 1206      4CB08EF5 
 1206      56EF9464 
 1206      9D04EA0A 
 1207 2186 83BA42A0 		.ascii	"\203\272B\240v\244<\0365\355\326U\036j.\375\211Z\322"
 1207      76A43C1E 
 1207      35EDD655 
 1207      1E6A2EFD 
 1207      895AD2
 1208 2199 FDE6BF51 		.ascii	"\375\346\277Q\244\373\241u\372zH\033\333\351\007\340"
 1208      A4FBA175 
 1208      FA7A481B 
 1208      DBE907E0 
 1209 21a9 027A3472 		.ascii	"\002z4r\342\264\235\034\351K@\272F\220\256\023\244\253"
 1209      E2B49D1C 
 1209      E94B40BA 
 1209      4690AE13 
 1209      A4AB
 1210 21bb 14E93A41 		.ascii	"\024\351:A\272\2363\\&\231M\326%P7\030\324\015\0025"
 1210      BA9E335C 
 1210      26994DD6 
 1210      25503718 
 1210      D40D0235 
 1211 21cf A8AE61C8 		.ascii	"\250\256a\310\364\377S\264\311C\305\207Rx\014Ro_a\377"
 1211      F4FF53B4 
 1211      C943C587 
 1211      52780C52 
 1211      6F5F61FF 
 1212 21e3 A5572A76 		.ascii	"\245W*v\343\335\250\354J\215\034\334\226\232F\214\002"
 1212      E3DDA8EC 
 1212      4A8D1CDC 
 1212      969A468C 
 1212      02
ARM GAS  /tmp/ccklYm9V.s 			page 98


 1213 21f4 6A567B5E 		.ascii	"jV{^\010i@\217\351\323[\243\222\203\033\270,R\350\255"
 1213      0869408F 
 1213      E9D35BA3 
 1213      92831BB8 
 1213      2C52E8AD 
 1214 2208 A1E0E01D 		.ascii	"\241\340\340\035\230\263\007\373\274Y\264\356\205fi"
 1214      98B307FB 
 1214      BC59B4EE 
 1214      856669
 1215 2217 49F305D3 		.ascii	"I\363\005\323{\011_\015\303\352\243!Xk{BKXgG\014=\""
 1215      7B095F0D 
 1215      C3EAA321 
 1215      586B7B42 
 1215      4B586747 
 1216 222e 79937D25 		.ascii	"y\223}%f\005\377gP\276#OG\267\371\325_\263\233\363\323"
 1216      6605FF67 
 1216      50BE234F 
 1216      47B7F9D5 
 1216      5FB39BF3 
 1217 2243 90F31802 		.ascii	"\220\363\030\002\235\310$\015|$\263\270vC\362?l\235"
 1217      9DC8240D 
 1217      7C24B3B8 
 1217      7643F23F 
 1217      6C9D
 1218 2255 96403FC3 		.ascii	"\226@?\303\240\343w\225\3131gO\265\323o=<\334\314\377"
 1218      A0E37795 
 1218      CB31674F 
 1218      B5D36F3D 
 1218      3CDCCCFF 
 1219 2269 F0E7CF7E 		.ascii	"\360\347\317~zh\377~\205\245\223\323IWw\335\301\003"
 1219      7A68FF7E 
 1219      85A593D3 
 1219      495777DD 
 1219      C103
 1220 227b 4EBA771D 		.ascii	"N\272w\035Ozy:\272\272\273\270\235<\252ut\327~\353\346"
 1220      4F7A793A 
 1220      BABABBB8 
 1220      9D3CAA75 
 1220      74D77EEB 
 1221 2290 FA85E371 		.ascii	"\372\205\343qg\227c\256\356ZG\247\243\332/\235O\272"
 1221      679763AE 
 1221      EE5A47A7 
 1221      A3DA2F9D 
 1221      4FBA
 1222 22a2 E99C74A7 		.ascii	"\351\234t\247Nh\275\366\036S\230\363\335\3366\326\315"
 1222      4E68BDF6 
 1222      1E5398F3 
 1222      DDDE36D6 
 1222      CD
 1223 22b3 EB9497A3 		.ascii	"\353\224\227\243\223\227\356(\360\000\257\0154\341\223"
 1223      9397EE28 
 1223      F000AF0D 
 1223      34E193
 1224 22c2 D6F31B67 		.ascii	"\326\363\033g7'\335O\367\356u\244\377<\274\034=u\206"
 1224      3727DD4F 
 1224      F7EE75A4 
 1224      FF3CBC1C 
ARM GAS  /tmp/ccklYm9V.s 			page 99


 1224      3D7586
 1225 22d5 AE2EC774 		.ascii	"\256.\307t\256\307\265\300\256\321\035\363\324:\037"
 1225      AEC7B5C0 
 1225      AED11DF3 
 1225      D43A1F
 1226 22e4 7DCFC0A7 		.ascii	"}\317\300\247\323z\3510\247\227\307IO\027-\337t\302"
 1226      D37AE930 
 1226      A797C749 
 1226      4F172DDF 
 1226      74C2
 1227 22f6 EF4E5EDA 		.ascii	"\357N^\332\377uR\353\356\242u\332\267\357\340^\027\305"
 1227      FF7552EB 
 1227      EEA275DA 
 1227      B7EFE05E 
 1227      17C5
 1228 2308 DFF1D7A1 		.ascii	"\337\361\327\241\011\364\236\223\366;\255\313I\235V"
 1228      09F49E93 
 1228      F63BADCB 
 1228      499D56
 1229 2317 76FDA089 		.ascii	"v\375\240\211\353\007\370\353?\226^\337\317_\337{\302"
 1229      EB07F8EB 
 1229      3F965EDF 
 1229      CF5FDF7B 
 1229      C2
 1230 2328 D953B777 		.ascii	"\331S\267w\337\337\231\270mM\257:{yi=u\273\245\006`"
 1230      DFDF99B8 
 1230      6D4DAF3A 
 1230      7B79693D 
 1230      75BBA506 
 1231 233d BFB81C23 		.ascii	"\277\270\034#\014`\344\016\227c\237\036;zD\253\373\304"
 1231      0C60E40E 
 1231      97639F1E 
 1231      3B7A44AB 
 1231      FBC4
 1232 234f D3D5C3D3 		.ascii	"\323\325\303\323Uw\312Lw\002>9\351\336\027\273\307\305"
 1232      5577CA4C 
 1232      77023E39 
 1232      E9DE17BB 
 1232      C7C5
 1233 2361 E3F8710F 		.ascii	"\343\370q\017w\307\023\036\236:/\307\337\034\376\350"
 1233      77C7131E 
 1233      9E3A2FC7 
 1233      DF1CFEE8 
 1234 2371 D047DFE1 		.ascii	"\320G\337\341k'\\\335\264\236^\216\1778t\010{\215\215"
 1234      6B275CDD 
 1234      B49E5E8E 
 1234      7F387408 
 1234      7B8D8D
 1235 2384 C8CF4CFB 		.ascii	"\310\317L\373\225\370\023\363\374@\214\317\340\2737"
 1235      95F813F3 
 1235      FC408CCF 
 1235      E0BB37
 1236 2393 C8C56F9D 		.ascii	"\310\305o\235]\301(\312\372\363\327\362\275\247\207"
 1236      5DC128CA 
 1236      FAF3D7F2 
 1236      BDA787
 1237 23a2 0736E50D 		.ascii	"\0076\345\015b\312!\350\250\323\036\3219\353\\]\314"
ARM GAS  /tmp/ccklYm9V.s 			page 100


 1237      62CA21E8 
 1237      A8D31ED1 
 1237      39EB5C5D 
 1237      CC
 1238 23b3 745F9E74 		.ascii	"t_\236twq\322i\274\\\377\267\326Iw\200\204\010\266\377"
 1238      7771D269 
 1238      BC5CFFB7 
 1238      D6497780 
 1238      8408B6FF 
 1239 23c7 2B171747 		.ascii	"+\027\027Gg\317\343\357\272{\270k\337\325:\177\341\352"
 1239      67CFE3EF 
 1239      BA7BB86B 
 1239      DFD53A7F 
 1239      E1EA
 1240 23d9 F88BBD07 		.ascii	"\370\213\275\007\367\3567`\205\220\201@\303\341\005"
 1240      F7EE3760 
 1240      85908140 
 1240      C3E105
 1241 23e8 D2DCB043 		.ascii	"\322\334\260C\314\216\353\276ss\365\322\251\334\265"
 1241      CC8EEBBE 
 1241      7373F5D2 
 1241      A9DCB5
 1242 23f7 DFE9D41E 		.ascii	"\337\351\324\036\337\272k=\325\200\372\244v\007\366"
 1242      DFBA6B3D 
 1242      D580FAA4 
 1242      7607F6
 1243 2406 2545EB44 		.ascii	"%E\353D.\250Nxj\277\261\223\\r\322\231\035\207Q\371"
 1243      2EA84E78 
 1243      6ABFB193 
 1243      5C72D299 
 1243      1D8751F9 
 1244 241a CE49670E 		.ascii	"\316Ig\016\334\344\243\271\366\204\326\035\342\362+"
 1244      DCE4A3B9 
 1244      F684D61D 
 1244      E2F22B
 1245 2429 2BED375A 		.ascii	"+\3557Zw\335qg\257\257\341\356q\257\257H\0073\354\004"
 1245      77DD7167 
 1245      AFAFE1EE 
 1245      71AFAF48 
 1245      0733EC04 
 1246 243d B8692712 		.ascii	"\270i'\022\216\265\333\212\033N:\356\244F\373-\356\252"
 1246      8EB5DB8A 
 1246      1B4E3AEE 
 1246      A446FB2D 
 1246      EEAA
 1247 244f F95607F8 		.ascii	"\371V\007\370N\300\233\227\366\370\011\344\342\256\263"
 1247      4EC09B97 
 1247      F6F809E4 
 1247      E2AEB3
 1248 245e 70726289 		.ascii	"prb\211a\306\336\325p\325Ig\015\022\201\307\371\304"
 1248      61C6DED5 
 1248      70D54967 
 1248      0D1281C7 
 1248      F9C4
 1249 2470 310F4FAD 		.ascii	"1\017O\255\231\027V\355\365\225\032\010\030\276\325"
 1249      991756ED 
 1249      F5951A08 
ARM GAS  /tmp/ccklYm9V.s 			page 101


 1249      18BED5
 1250 247f E93C4FD8 		.ascii	"\351<O\330S\025N\236\332/\265\236$\242u \326\343\213"
 1250      53154E9E 
 1250      DA2FB59E 
 1250      24A27520 
 1250      D6E38B
 1251 2492 BF9E30D7 		.ascii	"\277\2360\327~\347\252s\3618\252\325x\036=\005=T\300"
 1251      7EE7AA73 
 1251      F138AAD5 
 1251      781E3D05 
 1251      3D54C0
 1252 24a5 E2654113 		.ascii	"\342eA\023\367}\320\303\277\353\360u\020\367\245\233"
 1252      F77DD0C3 
 1252      BFEBF075 
 1252      10F7A59B 
 1253 24b5 F3575E66 		.ascii	"\363W^f\272\343\320\003Z^0\"Zs\035y\303\"\235\277p\366"
 1253      BAE3D003 
 1253      5A5E3022 
 1253      5A731D79 
 1253      C3229DBF 
 1254 24cb D2B2B4FF 		.ascii	"\322\262\264\377\305{`;\377\301\322K\367\265\263\233"
 1254      C57B603B 
 1254      FFC1D24B 
 1254      F7B5B39B 
 1255 24db EB57EE4E 		.ascii	"\353W\356N\272\177\374\336\030<\346\002f\3008\251\334"
 1255      BA7FFCDE 
 1255      183CE602 
 1255      66C038A9 
 1255      DC
 1256 24ec 9D8F6BD5 		.ascii	"\235\217k\325\036nGaX \367\265\236\310E\367\235\322"
 1256      1E6E4761 
 1256      5820F7B5 
 1256      9EC845F7 
 1256      9DD2
 1257 24fe EB84D2CD 		.ascii	"\353\204\322\315\023\206\360+\030k'\035\362\334\277"
 1257      1386F02B 
 1257      186B271D 
 1257      F2DCBF
 1258 250d 1F689FD2 		.ascii	"\037h\237\322\363WJ\317\367\225\236\277Tz\376B\351\371"
 1258      F3574ACF 
 1258      F7959EBF 
 1258      547AFE42 
 1258      E9F9
 1259 251f 4F4ACFF7 		.ascii	"OJ\317\367\254\260P\354/\350\364\356\353\351t\372\346"
 1259      ACB050EC 
 1259      2FE8F4EE 
 1259      EBE974FA 
 1259      E6
 1260 2530 97C741AF 		.ascii	"\227\307A\2575\351\351\342\001\263\312w:\025\016\024"
 1260      35E9E9E2 
 1260      01B3CA77 
 1260      3A150E14 
 1261 2540 0BC390A9 		.ascii	"\013\303\220\251\217\237\300S\034\363\347+\346\033/"
 1261      8F9FC053 
 1261      1CF3E72B 
 1261      E61B2F
 1262 254f 97634741 		.ascii	"\227cGA\326OL2\300\330\302\375=\246\005\234\362\342"
ARM GAS  /tmp/ccklYm9V.s 			page 102


 1262      D64F4C32 
 1262      C0D8C2FD 
 1262      3DA6059C 
 1262      F2E2
 1263 2561 B3CFB410 		.ascii	"\263\317\264\020\030u\270oG2F{\034\347\230\307\327Z"
 1263      1875B86F 
 1263      4732467B 
 1263      1CE798C7 
 1263      D75A
 1264 2573 774B9AFF 		.ascii	"wK\232\377nZ\355\211\267$I\211'A\247o]\335\217z|k\201"
 1264      6E5AED89 
 1264      B7244989 
 1264      2741A76F 
 1264      5DDD8F7A 
 1265 258a E5E3A6CE 		.ascii	"\345\343\246\316N\340\376\314]\347\352fA\347>\235\366"
 1265      4EE0FECC 
 1265      5DE7EA66 
 1265      41E73E9D 
 1265      F6
 1266 259b 84D2E598 		.ascii	"\204\322\345\230\345qgp!\261\026\035\375\202\304.\356"
 1266      E5716770 
 1266      21B1161D 
 1266      FD82C42E 
 1266      EE
 1267 25ac A83D0E93 		.ascii	"\250=\016\223\366\027'\277\2628\341\354\356\352\342"
 1267      F61727BF 
 1267      B238E1EC 
 1267      EEEAE2
 1268 25bb 0481632B 		.ascii	"\004\201c+\276\014\261\360\215\016\207\263\372\250\326"
 1268      BE0CB1F0 
 1268      8D0E87B3 
 1268      FAA8D6
 1269 25ca 4DE7ACC2 		.ascii	"M\347\254\302\031k\376\015K\\\234\\\337\270z\352N\342"
 1269      196BFE0D 
 1269      4B5C9C5C 
 1269      DFB87AEA 
 1269      4EE2
 1270 25dc 091B1078 		.ascii	"\011\033\020x\"\230\367\354$W\234to\312\231hz\230\273"
 1270      2298F7EC 
 1270      24579C74 
 1270      6FCA9968 
 1270      7A98BB
 1271 25ef 397BE970 		.ascii	"9{\351p\373\007FnB@z\342w\033\350\213\001\237\"W\315"
 1271      FB07466E 
 1271      42407AE2 
 1271      771BE88B 
 1271      019F2257 
 1272 2604 5C4E7A42 		.ascii	"\\NzB\314\353\254\205KN:\013\203\035J\335q\215\307\227"
 1272      CCEBAC85 
 1272      4B4E3A0B 
 1272      831D4ADD 
 1272      718DC797 
 1273 2618 5F7A6975 		.ascii	"_ziuf\236:\222M?6=\327ag\357\320\035wr\201X\376\302"
 1273      669E3A92 
 1273      4D3F363D 
 1273      D76167EF 
 1273      D01D7772 
ARM GAS  /tmp/ccklYm9V.s 			page 103


 1274 2630 1366230F 		.ascii	"\023f#\017\010h+\301':\345\267\316f,\235w\031[E\324"
 1274      08682BC1 
 1274      273AE5B7 
 1274      CE662C9D 
 1274      77195B45 
 1275 2645 2E90205E 		.ascii	".\220 ^\346:\255\263'\214\201\273\032\324\236<a\306"
 1275      E63AADB3 
 1275      278C81BB 
 1275      1AD49E3C 
 1275      61C6
 1276 2657 26784BCC 		.ascii	"&xK\314\216\031\234`N\200\217\206\216\272\037\031\223"
 1276      8E199C60 
 1276      4E808F86 
 1276      8EBA1F19 
 1276      93
 1277 2668 E5E4ECE9 		.ascii	"\345\344\354\351\351|\312N\266Z\310\332\007d\355\203"
 1277      E97CCA4E 
 1277      B65AC8DA 
 1277      0764ED83 
 1278 2678 B2F67B74 		.ascii	"\262\366{t\202\375\203\260V|n\303_9\242u\373\362s\360"
 1278      82FD83B0 
 1278      567C6EC3 
 1278      5F39A275 
 1278      FBF273F0 
 1279 268c D491535E 		.ascii	"\324\221S^\177\362p\371\372\025Qx\012G\251\005I\033"
 1279      7FF270F9 
 1279      FA155178 
 1279      0A47A905 
 1279      491B
 1280 269e 37E0B471 		.ascii	"7\340\264q\002\240:\247\337\376\346\310\357?9\374\241"
 1280      02A03AA7 
 1280      DFFEE6C8 
 1280      EF3F39FC 
 1280      A1
 1281 26af 8DB3DBB7 		.ascii	"\215\263\333\267\316\247\274 \025\335`\265\377\317F"
 1281      CEA7BC20 
 1281      15DD60B5 
 1281      FFCF46
 1282 26be 5211D20C 		.ascii	"R\021\322\014'\242\343\241\217\216|x\304\361\020d\242"
 1282      27A2E3A1 
 1282      8F8E7C78 
 1282      C4F11064 
 1282      A2
 1283 26cf E387BCF0 		.ascii	"\343\207\274\360\343^\256^N0\265\203\002+\002\3453w"
 1283      E35EAE5E 
 1283      4E30B583 
 1283      022B02E5 
 1283      3377
 1284 26e1 AC8266F7 		.ascii	"\254\202f\367I\362Y}\350\320G\207\017*?>\254\372\335"
 1284      49F2597D 
 1284      E8D04787 
 1284      0F2A3F3E 
 1284      ACFADD
 1285 26f4 47BF398C 		.ascii	"G\2779\214~w\350\260\352\267\277\373\3640:t\3500:\014"
 1285      7E77E8B0 
 1285      EAB7BFFB 
 1285      F4303A74 
ARM GAS  /tmp/ccklYm9V.s 			page 104


 1285      E8303A0C 
 1286 2708 F49BC387 		.ascii	"\364\233\303\207\321'G\016\241C\177\376Tu\350\320\357"
 1286      D127470E 
 1286      A1437FFE 
 1286      5475E8D0 
 1286      EF
 1287 2719 0F13FE03 		.ascii	"\017\023\376\003\344\357~\364\373?\034V\036\201\236"
 1287      E4EF7EF4 
 1287      FB3F1C56 
 1287      1E819E
 1288 2728 1FFEFEB0 		.ascii	"\037\376\376\260\352\310G\300}\350\360\001\240\375\300"
 1288      EAC847C0 
 1288      7DE8F001 
 1288      A0FDC0
 1289 2737 F9F9E103 		.ascii	"\371\371\341\003b\260\307\234\335\330\244q\344\323\217"
 1289      62B0C79C 
 1289      DDD8A471 
 1289      E4D38F
 1290 2746 0E1E70FC 		.ascii	"\016\036p\374\323\237~\347\370\351\207\037}\263\037"
 1290      D39F7EE7 
 1290      F8E9871F 
 1290      7DB31F
 1291 2755 5696E378 		.ascii	"V\226\343x2v\305\341aeh8\351\354]\216\375\345S\354H"
 1291      3276C5E1 
 1291      61656838 
 1291      E9EC5D8E 
 1291      FDE553EC 
 1292 276a 121D9F42 		.ascii	"\022\035\237B\244~n:\270\276\301\313\335Nb\026\315\201"
 1292      A47E6E3A 
 1292      B8BEC1CB 
 1292      DD4E6216 
 1292      CD81
 1293 277c AFB4F493 		.ascii	"\257\264\364\223\343kN^\244\027\310\260\207\301us;J"
 1293      E36B4E5E 
 1293      A417C8B0 
 1293      87C17573 
 1293      3B4A
 1294 278e FABB789C 		.ascii	"\372\273x\234\304\265\321\301\327\263\003\3568\321\316"
 1294      C4B5D1C1 
 1294      D7B303EE 
 1294      38D1CE
 1295 279d 20064F22 		.ascii	" \006O\" \3617G\217~\376\177\001a\370\242V"
 1295      20F13747 
 1295      8F7EFE7F 
 1295      0161F8A2 
 1295      56
 1296              		.text
 1297              		.section	.gnu.lto_.symtab.e7f7340bf6f0acce,"",%progbits
 1298 0000 72745F74 		.ascii	"rt_test_sequence_003\000"
 1298      6573745F 
 1298      73657175 
 1298      656E6365 
 1298      5F303033 
 1299 0015 00       		.ascii	"\000"
