ARM GAS  /tmp/ccDRrJMb.s 			page 1


   1              		.syntax unified
   2              		.cpu cortex-m4
   3              		.fpu softvfp
   4              		.eabi_attribute 20, 1
   5              		.eabi_attribute 21, 1
   6              		.eabi_attribute 23, 3
   7              		.eabi_attribute 24, 1
   8              		.eabi_attribute 25, 1
   9              		.eabi_attribute 26, 1
  10              		.eabi_attribute 30, 2
  11              		.eabi_attribute 34, 1
  12              		.eabi_attribute 18, 4
  13              		.thumb
  14              		.syntax unified
  15              		.file	"chfactory.c"
  16              		.text
  17              	.Ltext0:
  18              		.section	.gnu.lto_.profile.7e371e25731746ed,"",%progbits
  19 0000 789C6361 		.ascii	"x\234ca`d`c`\000\222\2778z\231\001\005\261\001\237"
  19      60646063 
  19      600092BF 
  19      387A9901 
  19      05B1019F 
  20              		.text
  21              		.section	.gnu.lto_.icf.7e371e25731746ed,"",%progbits
  22 0000 789C6361 		.ascii	"x\234ca`d\000\201\255\014\010 \3070\367b{\033\017\343"
  22      60640081 
  22      AD0C0820 
  22      C730F762 
  22      7B1B0FE3 
  23 0014 85D907F7 		.ascii	"\205\331\007\367p3\355\352}\262\200\211y}\363\276y\334"
  23      7033EDEA 
  23      7DB28089 
  23      797DF3BE 
  23      79DC
  24 0026 2CB7D7AF 		.ascii	",\267\327\257`b\275\323\272\247\207\223\355\316\324"
  24      6062BDD3 
  24      BAA78793 
  24      EDCED4
  25 0035 17CFB8D9 		.ascii	"\027\317\270\331w\034l\337\317\301\321\276\375\327r"
  25      771C6CDF 
  25      CFC1D1BE 
  25      FDD772
  26 0044 66CEC76B 		.ascii	"f\316\307kZ\2563q\235\276v\377,\033\367\244\323\233"
  26      5AAE3371 
  26      9DBE76FF 
  26      2C1BF7A4 
  26      D39B
  27 0056 7E72F05C 		.ascii	"~r\360\\n\372\323\300\302\373\364\315\324\351\\|\207"
  27      6EFAD3C0 
  27      C2FBF4CD 
  27      D4E95C7C 
  27      87
  28 0067 1EF6BFE1 		.ascii	"\036\366\277\341\346\357;\261\3456\217\000X\\\360\376"
  28      E6EF3BB1 
  28      E5368F00 
  28      585CF0FE 
ARM GAS  /tmp/ccDRrJMb.s 			page 2


  29 0077 A5BFCB98 		.ascii	"\245\277\313\230\204\026=\3367\227]\030,\"\002V#\372"
  29      84163DDE 
  29      37975D18 
  29      2C220256 
  29      23FA
  30 0089 7DE68467 		.ascii	"}\346\204gLb`\021q\260\032\211[/\216]\343\223\004\213"
  30      4C626011 
  30      71B01A89 
  30      5B2F8E5D 
  30      E393048B 
  31 009d 488145A4 		.ascii	"H\201E\244\337N\372\274\216_\006,\"\013\026a\000\000"
  31      DF4EFABC 
  31      8E5F062C 
  31      220B1661 
  31      0000
  32 00af 01245BBE 		.ascii	"\001$[\276"
  33              		.text
  34              		.section	.gnu.lto_.jmpfuncs.7e371e25731746ed,"",%progbits
  35 0000 789C9D97 		.ascii	"x\234\235\227\327V\024A\020\206\247zf\003\307\200\001"
  35      D7561441 
  35      1086A77A 
  35      6603C780 
  35      01
  36 0011 F3F202DE 		.ascii	"\363\362\002\336p\216/\340\205\257\341\213p5\210\256"
  36      708E2FE0 
  36      85AFE18B 
  36      703588AE 
  37 0021 39818A8A 		.ascii	"9\201\212\212\2129\221\315\"\346,\006\304\264*\006\314"
  37      8A3991CD 
  37      22E62C06 
  37      C4B42A06 
  37      CC
  38 0032 098C9810 		.ascii	"\011\214\230\020\304\356\277\206U\0173\313L\315\305"
  38      C4EEBF86 
  38      550F33CB 
  38      4CCDC5
  39 0041 9EB33DF5 		.ascii	"\236\263=\365\177U\177wu\317\214c\221e\256\231c\255"
  39      7F557F77 
  39      75CF8C63 
  39      9165AE99 
  39      63AD
  40 0053 EC556829 		.ascii	"\354Uh)\"\233(\256\212\315_UlB\250OQCg\323\317\021\335"
  40      229B28AE 
  40      8ACD5F55 
  40      6C42A84F 
  40      514367D3 
  41 006a 2A6D6B11 		.ascii	"*mk\021\355\244\224\036E\244\033G\230A\231\260\205="
  41      EDA4941E 
  41      45A41B47 
  41      984199B0 
  41      853D
  42 007c 99A54913 		.ascii	"\231\245I\023F\224\244]&L\305\011\327t\327\010(nw\020"
  42      4694A45D 
  42      264CC509 
  42      D774D708 
  42      286E7710 
  43 0090 9363F855 		.ascii	"\223c\370U\3727n[<\344\3747D\003\371U\261\011\2605\223"
ARM GAS  /tmp/ccDRrJMb.s 			page 3


  43      FA376E5B 
  43      3CE4FC37 
  43      4403F955 
  43      B109B035 
  44 00a5 12A4313A 		.ascii	"\022\2441:D\017{\211M}\234\311A\200rQ<\213\361\373O"
  44      440F7B89 
  44      4D7D9CC9 
  44      41807251 
  44      3C8BF1FB 
  45 00ba 30658363 		.ascii	"0e\203c\010v]r8!rz\011\342\306IE\372tk\3028\321r\332"
  45      08765D72 
  45      3821727A 
  45      09E2C649 
  45      45FA746B 
  46 00d3 AD2594F4 		.ascii	"\255%\224\364j3w+\233\273[b<\035I\2526\300A\345$\202"
  46      6A33772B 
  46      9BBB5B62 
  46      3C1D49AA 
  46      36C041E5 
  47 00e9 CAB17CCA 		.ascii	"\312\261|\312I\232\311t]s/O\3773)2\2632O\251\250\256"
  47      499AC974 
  47      5D732F4F 
  47      FF332932 
  47      B3324FA9 
  48 00ff 445FA3D2 		.ascii	"D_\243\322\266\275\300\266~\243P}\253\252|[I\276\333"
  48      B6BDC0B6 
  48      7EA3507D 
  48      ABAA7C5B 
  48      49BEDB
  49 0112 57321FB7 		.ascii	"W2\037\267\034\252\241\"M\252%W\321\311~\357\032\214"
  49      1CAAA122 
  49      4DAA2557 
  49      D1C97EEF 
  49      1A8C
  50 0124 8801417E 		.ascii	"\210\001A~\2108\325\001QOn\307P\000\345\017h\000\240"
  50      8838D501 
  50      514F6EC7 
  50      5000E50F 
  50      6800A0
  51 0137 514F9F83 		.ascii	"QO\237\203\031:|\254k\032OP\212\366\240_\364`\333\234"
  51      193A7CAC 
  51      6B1A4F50 
  51      8AF6A05F 
  51      F460DB9C 
  52 014b C6F5368F 		.ascii	"\306\3656\217:\264w`\264\251\251\263=\221E%\3721\311"
  52      3AB47760 
  52      B4A9A9B3 
  52      3D914525 
  52      FA31C9
  53 015e FBC8CD31 		.ascii	"\373\310\3151\021\266\377D\354G\021\007t\0214\244\017"
  53      11B6FF44 
  53      EC471107 
  53      741134A4 
  53      0F
  54 016f C7DFC741 		.ascii	"\307\337\307A \016e}|\352\335p(\217K.\240\303(y\210"
  54      200E657D 
  54      7CEADD70 
ARM GAS  /tmp/ccDRrJMb.s 			page 4


  54      288F4B2E 
  54      A0C32879 
  55 0184 CA9B4CE5 		.ascii	"\312\233L\345jp\332$\322\306\374\322\346\321\021\244"
  55      6A70DA24 
  55      D2C6FCD2 
  55      E6D111A4 
  56 0194 6DD6529D 		.ascii	"m\326R\235w\030o\255\250\214\243`\034c\206\267\203#"
  56      77186FAD 
  56      A88CA360 
  56      1C6386B7 
  56      8323
  57 01a6 BA3F0EC4 		.ascii	"\272?\016\304\011FD\234\374\223\320\236bm\324\332OC"
  57      0946449C 
  57      FC93D09E 
  57      626DD4DA 
  57      4F43
  58 01b8 7C86C5C3 		.ascii	"|\206\305\303\315\201\021\225p\026\204sLpD\356\317\003"
  58      CD811195 
  58      70168473 
  58      4C7044EE 
  58      CF03
  59 01ca 7141E6E0 		.ascii	"qA\346\340\"\304\227X<B\033\210\274~- \\\226\245\277"
  59      22C49758 
  59      3C421B88 
  59      BC7E2D20 
  59      5C96A5BF 
  60 01de 02F15599 		.ascii	"\002\361U\231\370\032\304\255,\036)\251\375:\010m^\357"
  60      F81AC4AD 
  60      2C1E29A9 
  60      FD3A086D 
  60      5EEF
  61 01f0 F1811E71 		.ascii	"\361\201\036q\366o\000qS\324{\267\240\275-s\177\007"
  61      F66F0071 
  61      53D47BB7 
  61      A0BD2D73 
  61      7F07
  62 0202 E20C8BF3 		.ascii	"\342\014\213\363\261\367TT\306]0\356y\376\361\024\230"
  62      B1F75454 
  62      C65D30EE 
  62      79FEF114 
  62      98
  63 0213 9A1A7880 		.ascii	"\232\032x\200\015\261\027\003\216\344\373@\266{\236"
  63      0DB11703 
  63      8EE4FB40 
  63      B67B9E
  64 0222 F84918B1 		.ascii	"\370I\030\261\252\007@<d\304(\311\256z\004\302\343P"
  64      AA07403C 
  64      64C428C9 
  64      AE7A04C2 
  64      E350
  65 0234 BB2AC047 		.ascii	"\273*\300G\007\020Odk\363\024\342g,\036-\351\314\347"
  65      07104F64 
  65      6BF314E2 
  65      672C1E2D 
  65      E9CCE7
  66 0247 20BCF01C 		.ascii	" \274\360\034\344\356\314\000\007/\201x%s\360\032\342"
  66      E4EECC00 
ARM GAS  /tmp/ccDRrJMb.s 			page 5


  66      072F8178 
  66      2573F01A 
  66      E2
  67 0258 372C1EC3 		.ascii	"7,\036\303\257WQ\031o\301x\347y\260B\366U\300\223\272"
  67      AF575119 
  67      6FC178E7 
  67      79B042F6 
  67      55C093BA 
  68 026c 13B0AEDC 		.ascii	"\023\260\256\334\373,\340M\343=\264\037d3\361\021\342"
  68      FB2CE04D 
  68      E33DB41F 
  68      6433F111 
  68      E2
  69 027d 4F2C1E2B 		.ascii	"O,\036+\351\306\317 |\011\325\215\001\356\273\201\370"
  69      E9C6CF20 
  69      7C09D58D 
  69      01EEBB81 
  69      F8
  70 028e 2A73F00D 		.ascii	"*s\360\015\342\357,.\220t\343\017\020~\206:'\003\034"
  70      E2EF2C2E 
  70      9074E30F 
  70      107E863A 
  70      27031C
  71 02a1 F400F14B 		.ascii	"\364\000\361K\264~\275\320\366\311\334\377\206\270\237"
  71      B47EBDD0 
  71      F6C9DCFF 
  71      86B89F
  72 02b0 C5E364EF 		.ascii	"\305\343d\357(%\3120f\251\3549\031\266\231\343\376\223"
  72      2825CA30 
  72      66A9EC39 
  72      19B699E3 
  72      FE93
  73 02c2 510ADE6C 		.ascii	"Q\012\336l\346\011N\3109\320\247Y?^\322\223sA\230\247"
  73      E6094EC8 
  73      39D0A759 
  73      3F5ED293 
  73      734198A7 
  74 02d6 C2F46480 		.ascii	"\302\364d\200\211\371@,P\242UY\010\361\"\026O\220\364"
  74      89F9402C 
  74      50A25559 
  74      08F12216 
  74      4F90F4
  75 02e9 E4621096 		.ascii	"\344b\020\226\2500'd\200\203\245@,\2239X\016q\031\213"
  75      A8302764 
  75      8083A540 
  75      2C933958 
  75      0E71198B 
  76 02fd 273A6611 		.ascii	"':f\021\362\311u#\257D98+\2303\334\372\373\371\250\262"
  76      F2C97523 
  76      AF443938 
  76      2B9833DC 
  76      FAFBF9A8 
  77 0312 1F91DE97 		.ascii	"\037\221\336\227^\356UJ\370{\\\011\374*q\253U@\277\232"
  77      5EEE554A 
  77      F87B5C09 
  77      FC2A71AB 
  77      5540BF9A 
ARM GAS  /tmp/ccDRrJMb.s 			page 6


  78 0326 F59324AD 		.ascii	"\365\223$\255\266\006\204\265\241Z-\300D%\020\353d\013"
  78      B60684B5 
  78      A15A2DC0 
  78      442510EB 
  78      640B
  79 0338 B51EE20D 		.ascii	"\265\036\342\015,\236,i\265*\0206\206j\265\000\007\233"
  79      2C9E2C69 
  79      B52A1036 
  79      866AB500 
  79      079B
  80 034a 80D82C73 		.ascii	"\200\330,s\260\005\342\255,\236\";\302\266\201\261="
  80      B005E2AD 
  80      2C9E223B 
  80      C2B681B1 
  80      3D
  81 035b FA1196F4 		.ascii	"\372\021\226\3647\264\003\274\235\236\241\031:\242\264"
  81      37B403BC 
  81      9D9EA119 
  81      3AA2B4
  82 036a F95E593E 		.ascii	"\371^Y>\177svX\264K\245(z\267\355\006\265\232\251)I"
  82      7F737658 
  82      B44BA528 
  82      7AB7ED06 
  82      B59AA929 
  83 037f B7D58050 		.ascii	"\267\325\200P\033\252\333\002\254\325\001Q/[\253\006"
  83      1BAADB02 
  83      ACD50151 
  83      2F5BAB06 
  84 038f 881B595C 		.ascii	"\210\033Y\\(\351\266= \354\015\325m\001\016\366\001"
  84      28E9B63D 
  84      20EC0DD5 
  84      6D010EF6 
  84      01
  85 03a0 B15FE6E0 		.ascii	"\261_\346\340\000\304\007\275\023\343\017\354\246{\016"
  85      00C407BD 
  85      13E30FEC 
  85      A67B0E
  86              		.text
  87              		.section	.gnu.lto_.inline.7e371e25731746ed,"",%progbits
  88 0000 789C9D92 		.ascii	"x\234\235\222\275N\3030\024\205\217\0357\0114M\322\374"
  88      BD4EC330 
  88      14858F1D 
  88      3709344D 
  88      D2FC
  89 0012 0005AAA2 		.ascii	"\000\005\252\242J\014\014\024\3613\300\302\013 \365"
  89      4A0C0C14 
  89      F133C0C2 
  89      0B20F5
  90 0021 0D78A70E 		.ascii	"\015x\247\016,0\025\211\201\271\017\200\230`eBBb`d\203"
  90      2C301589 
  90      81B90F80 
  90      98606542 
  90      42626064 
  91 0036 8D8581EB 		.ascii	"\215\205\201\3538q\2234\202\004\017\327\327\361\271"
  91      38719334 
  91      82040FD7 
  91      D7F1B9
ARM GAS  /tmp/ccDRrJMb.s 			page 7


  92 0045 D75F8E2D 		.ascii	"\327_\216-\300 \307q\013z\364\001\333g\340\224\232\323"
  92      C020C771 
  92      0B7AF401 
  92      DB67E094 
  92      9AD3
  93 0057 819CD072 		.ascii	"\201\234\320r\001c2\236\214I\036>3\032[\014\006Dtwm"
  93      0163329E 
  93      8C491E3E 
  93      331A5B0C 
  93      06447477 
  94 006c 29117BB7 		.ascii	")\021{\267\204\212J\317\244\376\322\242.\336\016c y"
  94      848A4ACF 
  94      A4FED2A2 
  94      2EDE0E63 
  94      2079
  95 007e A1A1E8A4 		.ascii	"\241\241\350\244\015'\343\352\324\200O5|\371\373\014"
  95      0D27E3EA 
  95      D4804F35 
  95      7CF9FB0C 
  96 008e F6C528A9 		.ascii	"\366\305(\2511\034\200\345D\020\210_\346,\356\354\313"
  96      311C80E5 
  96      4410885F 
  96      E62CEEEC 
  96      CB
  97 009f AC66D14D 		.ascii	"\254f\321M\347X-t\036\241\270\250\324\231}\350RC\250"
  97      E7582D74 
  97      1EA1B8A8 
  97      D4997DE8 
  97      5243A8
  98 00b2 989DC865 		.ascii	"\230\235\310e\241\211`X\242I\332BRh\036\353\377<6\234"
  98      A1896058 
  98      A249DA42 
  98      52681EEB 
  98      FF3C369C 
  99 00c6 87BF7978 		.ascii	"\207\277yx;q`\011\361\036\3218o\347\205\013\022\205"
  99      3B716009 
  99      F11ED138 
  99      6FE7850B 
  99      1285
 100 00d8 24D1A22D 		.ascii	"$\321\242-\355\0077ov\265Tm\244\024\331\322A{\273x\345"
 100      ED07376F 
 100      76B5546D 
 100      A414D9D2 
 100      417BBB78 
 101 00ed EABBFC39 		.ascii	"\352\273\3749r ]u\020\276\322\304\243\253[\273$\314"
 101      72205D75 
 101      10BED2C4 
 101      A3AB5BBB 
 101      24CC
 102 00ff 4717FE30 		.ascii	"G\027\3760\273s\373\376\024\366\347\250\3242w\262\207"
 102      BB73FBFE 
 102      14F6E7A8 
 102      D43277B2 
 102      87
 103 0110 E0800AC5 		.ascii	"\340\200\012\305tPq\264\324I\233\262L\355\370\265`\273"
 103      745071B4 
 103      D4499BB2 
ARM GAS  /tmp/ccDRrJMb.s 			page 8


 103      4CEDF8B5 
 103      60BB
 104 0122 F07EA148 		.ascii	"\360~\241H\2576]\005\350\356WB\350\027P\362+\254\205"
 104      AF365D05 
 104      E8EE5742 
 104      E81750F2 
 104      2BAC85
 105 0135 10353122 		.ascii	"\02051\"Ft\244\036\017\014\015B\211X\250\310\363d\236"
 105      4674A41E 
 105      0F0C0D42 
 105      8958A8C8 
 105      F3649E
 106 0148 ACD4025A 		.ascii	"\254\324\002Zm\340\311\032z'\214s\251M\240D\021\212"
 106      6DE0C91A 
 106      7A278C73 
 106      A94DA044 
 106      118A
 107 015a 82332FB5 		.ascii	"\2023/\265|:X\221U\363\365j\361\2557\340\333@x\270\340"
 107      7C3A5891 
 107      55F3F56A 
 107      F1AD37E0 
 107      DB4078B8 
 108 016f 177FF2EA 		.ascii	"\027\177\362\352\371\265Y\213\247\337\200\007?b\257"
 108      F9B5598B 
 108      A7DF8007 
 108      3F62AF
 109 017e 8E40     		.ascii	"\216@"
 110              		.text
 111              		.section	.gnu.lto_.pureconst.7e371e25731746ed,"",%progbits
 112 0000 789C05C1 		.ascii	"x\234\005\301\207\021\2000\000\0031\007B;z7\017\031"
 112      87118030 
 112      00033107 
 112      423B7A37 
 112      0F19
 113 0012 8463FFBD 		.ascii	"\204c\377\275\220\242\202>II\016d\316\211oAI\365\326"
 113      90A2823E 
 113      49490E64 
 113      CE896F41 
 113      49F5D6
 114 0025 34B474EE 		.ascii	"4\264t\356\031\030=yf\361\352\215\335\207O\354\313p"
 114      19183D79 
 114      66F1EA8D 
 114      DD874FEC 
 114      CB70
 115 0037 FB71E207 		.ascii	"\373q\342\007\226$\005\035"
 115      9624051D 
 116              		.text
 117              		.section	.gnu.lto_chCoreAllocAlignedI.7e371e25731746ed,"",%progbits
 118 0000 789C5D51 		.ascii	"x\234]Q=K\003A\020\235\267{w*r\301\336\024V\2064I\341"
 118      3D4B0341 
 118      109DB77B 
 118      772A72C1 
 118      DE145686 
 119 0017 9FB0F61F 		.ascii	"\237\260\366\037h<\314AL@\261\261\311\306\313\251X\211"
 119      683CCC41 
 119      4C40B1B1 
 119      C9C6CBA9 
ARM GAS  /tmp/ccDRrJMb.s 			page 9


 119      5889
 120 0029 68235AA8 		.ascii	"h#Z\250H\374N\304*\205\230^\024R\330h\023\024Qc\212"
 120      48FC4EC4 
 120      2A85985E 
 120      1452D868 
 120      13145163 
 121 003e 04B41089 		.ascii	"\004\264\020\211\347l\264\020\227Yfv\367\2757\037k\020"
 121      E76CB410 
 121      97596676 
 121      F7BD371F 
 121      6B10
 122 0050 48AF34BB 		.ascii	"H\2574\273!\366\375\274!\011b\371\232(\327-\000\035"
 122      21F6FDBC 
 122      210962F9 
 122      9A28D72D 
 122      001D
 123 0062 A86E5056 		.ascii	"\250nPV \213w\321\026\250\346K\033\362M\370\0143\370"
 123      208B77D1 
 123      16A8E64B 
 123      1BF24DF8 
 123      0C33F8
 124 0075 D8BA5A7F 		.ascii	"\330\272Z\177\010\351#0\240_\353O\371\336hA\2519U{\334"
 124      08E92330 
 124      A05FEB4F 
 124      F9DE6841 
 124      A939557B 
 125 008a 71573C7F 		.ascii	"qW<\177\330\227\202\002A\330C\030\005\204u\212}D\031"
 125      D8978202 
 125      41D84318 
 125      0584758A 
 125      7D4419
 126 009d BB9DBBB9 		.ascii	"\273\235\273\271\264e\024\304\361\302\361\371K(\262"
 126      B46514C4 
 126      F1C2F1F9 
 126      4B28B2
 127 00ac AB79AAEA 		.ascii	"\253y\252\352\250\036_J\034@\376\345\361\025\341\020"
 127      A81E5F4A 
 127      1C40FEE5 
 127      F115E110 
 128 00bc 11462F7F 		.ascii	"\021F/\177\266k]2\326az[\267\027\306/3\3500\015\034"
 128      B66B5D32 
 128      D6617A5B 
 128      B717C62F 
 128      33E8300D 
 129 00d1 FD671A84 		.ascii	"\375g\032\204cD4\374\376\364k\315\266\362\212\327\200"
 129      634434FC 
 129      FEF46BCD 
 129      B6F28AD7 
 129      80
 130 00e2 2E8BAB39 		.ascii	".\213\2539\201\245\307P\034\251\250 \360\224\332\264"
 130      81A5C750 
 130      1CA9A820 
 130      F094DAB4 
 131 00f2 5E576171 		.ascii	"^Waq\363\234\214\333b\242I\272\011j\362\326\003i\011"
 131      F39C8CDB 
 131      62A249BA 
 131      096AF2D6 
ARM GAS  /tmp/ccDRrJMb.s 			page 10


 131      036909
 132 0105 A1BD7CC6 		.ascii	"\241\275|\306|\345l\311\326\002\2364Y\274\\n\334ue\333"
 132      7CE56CC9 
 132      D6029E34 
 132      59BC5C6E 
 132      DC7565DB 
 133 0119 6A51A93E 		.ascii	"jQ\251>_\232\201`]\024\221%O\012OJF\024\033\345\017"
 133      5F9A8160 
 133      5D149125 
 133      4F0A4F4A 
 133      46141BE5 
 134 012e 5B8FCB00 		.ascii	"[\217\313\000\241\204\260/-\252C\374J\350\277h2\211"
 134      A184B02F 
 134      2DAA43FC 
 134      4AE8BF68 
 134      3289
 135 0140 C539D560 		.ascii	"\3059\325`,\026\377\261\3144[\312\035\213\273\351Dj"
 135      2C16FFB1 
 135      CC345BCA 
 135      1D8BBBE9 
 135      446A
 136 0152 66DC8927 		.ascii	"f\334\211'\222\223\316d\"3\345\304\222dL\273\263\216"
 136      9293CE64 
 136      2233E5C4 
 136      92644CBB 
 136      B38E
 137 0164 399A7227 		.ascii	"9\232r'\322\337\036c\211\355"
 137      D2DF1E63 
 137      89ED
 138              		.text
 139              		.section	.gnu.lto_dyn_find_object.7e371e25731746ed,"",%progbits
 140 0000 789C9554 		.ascii	"x\234\225TmoTE\024\236g\346\276\355v\267\313\027cL\372"
 140      6D6F5445 
 140      149E67E6 
 140      BEED76B7 
 140      CB17634C 
 141 0015 A131D934 		.ascii	"\2411\3314\220\330\215\022\377\003\2371\374\000(5\230"
 141      90D88D12 
 141      FF039F31 
 141      FC002835 
 141      98
 142 0026 A0143051 		.ascii	"\240\0240Q>u\272\267\227R\"H4\326\330J\251\201\246\250"
 142      3E75BAB7 
 142      97522248 
 142      34D6D84A 
 142      A981A6A8 
 143 003a C0765B5E 		.ascii	"\300v[^\334\372v[\245\230\246\326\210Q\"5DjE\245&n\015"
 143      DCFA765B 
 143      A598A6D6 
 143      88512235 
 143      446A45A5 
 144 0051 BED1B4EB 		.ascii	"\276\321\264\35393kX\272\372\301\311\335{\357\2319\317"
 144      39336B58 
 144      BAFAC1C9 
 144      DD7BEF99 
 144      39CF
 145 0063 F39CF3CC 		.ascii	"\363\234\363\314\334u\004\004\217\021W\210\315\364\334"
ARM GAS  /tmp/ccDRrJMb.s 			page 11


 145      DC750404 
 145      8F115788 
 145      CDF4DC
 146 0072 4B3F2404 		.ascii	"K?$\004\344\2619!\272\002\011\327\276(\351M)\241\223"
 146      E4B13921 
 146      BA0209D7 
 146      BE28E94D 
 146      29A193
 147 0085 CEDC8C10 		.ascii	"\316\334\214\020:\345\330\371\311\300\225\312\314$\315"
 147      3AE5D8F9 
 147      C9C095CA 
 147      CC24CD
 148 0094 72CA937E 		.ascii	"r\312\223~\3774\207\301\357>\205>\002\013\017\000~\321"
 148      FF3487C1 
 148      EF3E853E 
 148      020B0F00 
 148      7ED1
 149 00a6 0144A754 		.ascii	"\001D\247T\216\353\371\001:\245+\354\370M\256J|\336"
 149      8EEBF901 
 149      3AA52BEC 
 149      F84DAE4A 
 149      7CDE
 150 00b8 3DFABABA 		.ascii	"=\372\272\272##%\340P\270\374i\377w\215\034\002\315"
 150      232325E0 
 150      50B8FC69 
 150      FF778D1C 
 150      02CD
 151 00ca 140EE8AB 		.ascii	"\024\016\350\253\275\376\306\021\255\363\372\333\341"
 151      BDFEC611 
 151      ADF3FADB 
 151      E1
 152 00d7 5F0EBC14 		.ascii	"_\016\274\024F[\"%EE\012\234F\023F\320\304\205\277\211"
 152      465B2225 
 152      45450A9C 
 152      461346D0 
 152      C485BF89 
 153 00eb 8D949B5F 		.ascii	"\215\224\233_\270\370\025T\026\202\336\207\276\034z"
 153      B8F81554 
 153      1682DE87 
 153      BE1C7A
 154 00fa AE659861 		.ascii	"\256e\230a\372Z\273NDJ\341-\250Z\030M\011\274\215\026"
 154      FA5ABB4E 
 154      444AE12D 
 154      A85A184D 
 154      09BC8D16 
 155 010e 4AEE79F9 		.ascii	"J\356y\371\372LZm2\300\321O\226.;U\344\300tJ\037C\244"
 155      FA4C5A6D 
 155      32C0D14F 
 155      962E3B55 
 155      E4C0744A 
 156 0125 1C9C598F 		.ascii	"\034\234Y\217u\004\316\242\205\001\213\361\322BZ\265"
 156      7504CEA2 
 156      85018BF1 
 156      D2425AB5 
 157 0135 1A706FD7 		.ascii	"\032po\327\221\343N\366$\203\343\325\243\017\274\246"
 157      91E34EF6 
 157      2483E3D5 
ARM GAS  /tmp/ccDRrJMb.s 			page 12


 157      A30FBCA6 
 158 0145 E3EE662A 		.ascii	"\343\356f*\027\347\356\207\363\240\354\205\342\332+"
 158      17E7EE87 
 158      F3A0EC85 
 158      E2DA2B
 159 0154 69AF5BD3 		.ascii	"i\257[\323hF\001\331^%\2701\352g\024\036m\017(g6\356"
 159      684601D9 
 159      5E25B831 
 159      EA67141E 
 159      6D0F2867 
 160 016a 2D24D563 		.ascii	"-$\325c\206}\355\352Oe\267\312\376'\227\326\0250y\261"
 160      867DEDEA 
 160      4F65B7CA 
 160      FE2797D6 
 160      153079B1 
 161 017e 9E1C63C8 		.ascii	"\236\034c\310\026\266\306\272R\011u\274\322\330\037"
 161      16B6C6BA 
 161      520975BC 
 161      D2D81F
 162 018d 2E0DA291 		.ascii	".\015\242\221\034\245v\035p\341\256I\361\250\021\327"
 162      1CA5761D 
 162      70E1AE49 
 162      F1A811D7 
 163 019d E75BC2C4 		.ascii	"\347[\302\304Iz\365\032\350\346\247L\234\026\354\265"
 163      497AF51A 
 163      E8E6A74C 
 163      9C16ECB5 
 164 01ad 28F3CF13 		.ascii	"(\363\317\023\313R\322C- \277\201\253\371z`\261\354"
 164      CB52D243 
 164      2D20BF81 
 164      ABF97A60 
 164      B1EC
 165 01bf 57AB5999 		.ascii	"W\253Y\231{\260\332k\235\315\246\234qdC\262\373\037"
 165      7BB0DA6B 
 165      9DCDA69C 
 165      716443B2 
 165      FB1F
 166 01d1 E8C92F26 		.ascii	"\350\311/&ng,T\217i\015\006\326yl\200\347\031\350\210"
 166      6E672C54 
 166      8F690D06 
 166      D6796C80 
 166      E719E888 
 167 01e5 5BC84F14 		.ascii	"[\310O\024o\274\341\336o\232.\014\372\234\301\364\306"
 167      6FBCE1DE 
 167      6F9A2E0C 
 167      FA9CC1F4 
 167      C6
 168 01f6 B38A449D 		.ascii	"\263\212D\235\257c\274v\001\036\221]\204\027*\346\350"
 168      AF63BC76 
 168      011E915D 
 168      84172AE6 
 168      E8
 169 0207 8BA63EF3 		.ascii	"\213\246>\363\371\2149&\377\217+3\207R'p\274\213\000"
 169      F98C3926 
 169      FF8F2B33 
 169      87522770 
 169      BC8B00
ARM GAS  /tmp/ccDRrJMb.s 			page 13


 170 021a 1B221590 		.ascii	"\033\"\025\220\".q\005\2646\274\230?\347\347\3162W\374"
 170      222E7105 
 170      B436BC98 
 170      3FE7E7CE 
 170      3257FC
 171 022d D77413FB 		.ascii	"\327t\023\373\375\016N`\215,1\254(!\307}\351mL\317j"
 171      FD0E4E60 
 171      8D2C31AC 
 171      2821C77D 
 171      E96D4CCF 
 172 0242 2441952F 		.ascii	"$A\225/K%\350\003QT\371\335\236\265\201\255V<Y+.\377"
 172      4B25E803 
 172      5154F9DD 
 172      9EB581AD 
 172      563C592B 
 173 0258 4D3C11AA 		.ascii	"M<\021\252\004&\352\305\365\266H%\361\256\221\206\225"
 173      0426EAC5 
 173      F5B64825 
 173      F1AE9186 
 173      95
 174 0269 A684F953 		.ascii	"\246\204\371S\223\247\032:WM\302\023\264wx\0179[\326"
 174      93A71A3A 
 174      574DC213 
 174      B477780F 
 174      395BD6
 175 027c FBE8143F 		.ascii	"\373\350\024?\342\240\336l\205\033(\271T\372y\336\247"
 175      E2A0DE6C 
 175      851B28B9 
 175      54FA79DE 
 175      A7
 176 028d E44346A8 		.ascii	"\344CF\250\241\"\245M\375\200R\2514\332 J:|\367\332"
 176      A122A54D 
 176      FD8052A9 
 176      34DA204A 
 176      3A7CF7DA 
 177 02a1 D180AB4B 		.ascii	"\321\200\253K!\300\207\240\206\323\342&\272\257\207"
 177      21C087A0 
 177      86D3E226 
 177      BAAF87
 178 02b0 3BAA44D8 		.ascii	";\252D\330d\267fY:b\350\212ip\242\370\375^\273\232\372"
 178      64B76659 
 178      3A62E88A 
 178      6970A2F8 
 178      FD5EBB9A 
 179 02c5 1F0D3D1E 		.ascii	"\037\015=\036\251F\304\246!Y\365r\262\352e\346\236\227"
 179      A946C4A6 
 179      2159F572 
 179      B2EA65E6 
 179      9E97
 180 02d7 2923E50A 		.ascii	")#\345\012\372\027\261'\317N'\270\250\371p\345\310C"
 180      FA17B127 
 180      CF4E27B8 
 180      A8F970E5 
 180      C843
 181 02e9 56D8E129 		.ascii	"V\330\341)\032\277\202\364\\9{\3514\010\353\234)5\021"
 181      1ABF82F4 
 181      5C397BE9 
ARM GAS  /tmp/ccDRrJMb.s 			page 14


 181      3408EB9C 
 181      293511
 182 02fc DAAB1EDB 		.ascii	"\332\253\036\333\270/c\276,>.\244#Mp\2766\030\253\015"
 182      B82F63BE 
 182      2C3E2EA4 
 182      234D70BE 
 182      3618AB0D 
 183 0310 0A1C1899 		.ascii	"\012\034\030\231\361A\217gB\225\266\235\260N\232\024"
 183      F1418F67 
 183      4295B69D 
 183      B04E9A14 
 184 0320 D50BA5E7 		.ascii	"\325\013\245\347y\306\375\246\264\213t|\361\252g\375"
 184      79C6FDA6 
 184      B48B747C 
 184      F1AA67FD 
 185 0330 F8215416 		.ascii	"\370!T\026\340\325\030\002cFz\235\031\217D*\203)c\203"
 185      E0D51802 
 185      63467A9D 
 185      198F442A 
 185      83296383 
 186 0344 E213FF11 		.ascii	"\342\023\377\021yp\013a\337\301;\260\024\276e\271\320"
 186      79700B61 
 186      DFC13BB0 
 186      14BE65B9 
 186      D0
 187 0355 335B4CF2 		.ascii	"3[L\362\306d\000|L\024$\324gR\326y\256\037\025\377-"
 187      C664007C 
 187      4C1424D4 
 187      6752D679 
 187      AE1F15FF 
 188 036a 74F99ED0 		.ascii	"t\371\236\3204rDn\354\015\330\240\333d\320\370\213\351"
 188      3472446E 
 188      EC0DD8A0 
 188      DB64D0F8 
 188      8BE9
 189 037c 6AA3DC64 		.ascii	"j\243\334d\231NZ\331\243\223\376pkk\316^{\366\323\265"
 189      994E5AD9 
 189      A393FE70 
 189      6B6BCE5E 
 189      7BF6D3B5 
 190 0390 FBA91DB9 		.ascii	"\373\251\035\271\375\373\332rm\273\236\334\336\366\354"
 190      FDFBDA72 
 190      6DBB9EDC 
 190      DEF6EC
 191 039f 9E7D075A 		.ascii	"\236}\007Z\333\204\363\314\366\247\333\325\316\335\035"
 191      DB84F3CC 
 191      F6A7DBD5 
 191      CEDD1D
 192 03ae 6A677B07 		.ascii	"jg{\007:\376\006\246\370\341\202"
 192      3AFE06A6 
 192      F8E182
 193              		.text
 194              		.section	.gnu.lto_chFifoObjectInitAligned.7e371e25731746ed,"",%progbits
 195 0000 789C7D92 		.ascii	"x\234}\222KLSA\024\206\347\237\271\275\267ODW&\022\303"
 195      4B4C5341 
 195      1486E79F 
 195      B9BDB74F 
ARM GAS  /tmp/ccDRrJMb.s 			page 15


 195      44572612 
 196 0015 AEC1C476 		.ascii	"\256\301\304v\245\033\267\256t\245{\027\200\024j\220"
 196      A51BB7AE 
 196      74A57B17 
 196      80146A90 
 197 0025 9A346CDC 		.ascii	"\2324l\334th\275\362X\325 $>\020c <T\336EZ_\205\205"
 197      7468BDF2 
 197      58D52024 
 197      3E106320 
 197      3C54DE45 
 198 003d 8F266858 		.ascii	"\217&hX7Q\243\002j\\@\004T\014\3243C\3314\350\344\266"
 198      3751A302 
 198      6A5C4004 
 198      540CD433 
 198      43D934E8 
 199 0053 3373EFF9 		.ascii	"3s\357\371\316\371\3779c005\356\012\306\316\320|\210"
 199      CEF9FF39 
 199      63303035 
 199      EE0AC6CE 
 199      D07C88
 200 0066 7E100C3C 		.ascii	"~\020\014<\371\206\261\026'\007\324B:\301b\0341\254"
 200      F986B116 
 200      2707D442 
 200      3AC1621C 
 200      31AC
 201 0078 F32D8EB9 		.ascii	"\363-\216\271\326\2454\257\032\2204>\330\367\252\343"
 201      D6A534AF 
 201      1A90343E 
 201      D8F7AAE3 
 202 0088 D23E6813 		.ascii	"\322>h\023^\340:\023\303\000\252(j\341\312\330m\261"
 202      5EE03A13 
 202      C300AA28 
 202      6AE1CAD8 
 202      6DB1
 203 009a C66D0118 		.ascii	"\306m\001\030\264]\235\277\371\251Lm9*i\3333\223y\345"
 203      B45D9DBF 
 203      F9A94C6D 
 203      392A69DB 
 203      339379E5 
 204 00ae 1347C068 		.ascii	"\023G\300h\335\236o\275\345\363\367K\031\227\362w\235"
 204      DD9E6FBD 
 204      E5F3F74B 
 204      1997F277 
 204      9D
 205 00bf 74D94260 		.ascii	"t\331B`\030\202\362a\010\025\030D\005\243W\014\367\341"
 205      1882F261 
 205      08151844 
 205      05A3570C 
 205      F7E1
 206 00d1 A7E8C5C5 		.ascii	"\247\350\305\305|7D@\223\357\177\345\222(\222\343/\274"
 206      7C374440 
 206      93EF7FE5 
 206      922892E3 
 206      2FBC
 207 00e3 32095B18 		.ascii	"2\011[\030xP\312\032\014\0175\233k\333\310@\034\327"
 207      7850CA1A 
 207      0C0F359B 
ARM GAS  /tmp/ccDRrJMb.s 			page 16


 207      6BDBC840 
 207      1CD7
 208 00f5 6C32F5E7 		.ascii	"l2\365\347\265k\207\315v\346\216\335\220YC\301#{\300"
 208      B56B87CD 
 208      76E68EDD 
 208      905943C1 
 208      237BC0
 209 0108 A31A5EFE 		.ascii	"\243\032^\376\261\274\340\026'4\33411\274\346-\026\356"
 209      B1BCE016 
 209      2734DC31 
 209      31BCE62D 
 209      16EE
 210 011a 2A167660 		.ascii	"*\026v`\254\224u0\214k\366kjp\312%Nj6\363n\372p\261"
 210      AC947530 
 210      8C6BF66B 
 210      6A70CA25 
 210      4E6A36F3 
 211 0132 6E5747B1 		.ascii	"nWG\261\256\211\211R\326d\230\324\354\374zj\326\020"
 211      AE898952 
 211      D66498D4 
 211      ECFC7A6A 
 211      D610
 212 0144 A7353B34 		.ascii	"\2475;4zms\367\250:\213u-L\225\262\026C\012~\005|\034"
 212      7A6D73F7 
 212      A83A8B75 
 212      2D4C95B2 
 212      16430A7E 
 213 015b DFEEF299 		.ascii	"\337\356\362\231WT\257*\333w\233\204i\230\252\355\243"
 213      5754AF2A 
 213      DB779B84 
 213      6998AAED 
 213      A3
 214 016c 67B3B250 		.ascii	"g\263\262PHH9i._\207\017PG\314\211w\032P'\346\200\222"
 214      48483969 
 214      2E5F870F 
 214      5047CC89 
 214      771A5027 
 215 0183 6F410971 		.ascii	"oA\011qB\035\203\233>\272<\320\331\331\012\345R\267"
 215      421D839B 
 215      3EBA3CD0 
 215      D9D90AE5 
 215      52B7
 216 0195 63957335 		.ascii	"c\225s5\213%\3047[7\006M\225>!\324M\351\266\347\336"
 216      8B25C437 
 216      5B37064D 
 216      953E21D4 
 216      4DE9B6E7 
 217 01aa 5AAAE942 		.ascii	"Z\252\351B\253\377\3712\327\346\355EO\213\222\323\003"
 217      ABFFF932 
 217      D7E6ED45 
 217      4F8B92D3 
 217      03
 218 01bb CAE54ED0 		.ascii	"\312\345N\320\365xD\232\325\347\376\317\361\021+x\324"
 218      F578449A 
 218      D5E7FECF 
 218      F1112B78 
 218      D4
ARM GAS  /tmp/ccDRrJMb.s 			page 17


 219 01cc 161ECCA0 		.ascii	"\026\036\314\240\027\333\372>\321\373|\337l\237'\266"
 219      17DBFA3E 
 219      D1FB7CDF 
 219      6C9F27B6 
 220 01dc A5206991 		.ascii	"\245 i\2218\244\021$\023\031\304\330\027\350j**\235"
 220      38A41124 
 220      1319C4D8 
 220      17E86A2A 
 220      2A9D
 221 01ee FE9EB728 		.ascii	"\376\236\267(\252M\312r[x\013\234\034\3421\305\220\224"
 221      AA4DCA72 
 221      5B780B9C 
 221      1CE231C5 
 221      9094
 222 0200 843012C2 		.ascii	"\2040\022\302a\013\037\001W\263w\334{3e\0052\302\360"
 222      610B1F01 
 222      57B377DC 
 222      7B336505 
 222      32C2F0
 223 0213 6497B112 		.ascii	"d\227\261\022\302i\213}L\373\232\253\332\261\345.\365"
 223      C2698B7D 
 223      4CFB9AAB 
 223      DAB1E52E 
 223      F5
 224 0224 71EE9F36 		.ascii	"q\356\2376\312\361T\333\300\2366\\x\246m<\377\237\215"
 224      CAF154DB 
 224      C09E365C 
 224      78A66D3C 
 224      FF9F8D
 225 0237 FD054E4D 		.ascii	"\375\005NMCVK\242*\036-\351\000\373\206xv\362\224f\324"
 225      43564BA2 
 225      2A1E2DE9 
 225      00FB8678 
 225      76F29466 
 226 024c 58A11AD4 		.ascii	"X\241\032\324\001R\357\017\004\202;O$JOc\270&\030n\252"
 226      0152EF0F 
 226      04823B4F 
 226      244A4F63 
 226      B826186E 
 227 0261 6D6C3E5F 		.ascii	"ml>_\027\254m\210\324\\\010\205C\221h\240\201\211H\350"
 227      17AC6D88 
 227      D45C0885 
 227      439168A0 
 227      818948E8 
 228 0275 9245FB68 		.ascii	"\222E\373h\370r\235As\223\223\376\252\033\303\365M&"
 228      F8729D41 
 228      739393FE 
 228      AA1BC3F5 
 228      4D26
 229 0287 2D6A9A43 		.ascii	"-j\232C\346\305h=M\177\001\377\306G\301"
 229      E6C5683D 
 229      4D7F01FF 
 229      C647C1
 230              		.text
 231              		.section	.gnu.lto_dyn_create_object_pool.part.0.7e371e25731746ed,"",%progbits
 232 0000 789C9553 		.ascii	"x\234\225S[KTQ\024\336\337^\347\314\231\3141{\210^\014"
 232      5B4B5451 
ARM GAS  /tmp/ccDRrJMb.s 			page 18


 232      14DEDF5E 
 232      E7CC99CC 
 232      317B885E 
 233 0015 2418A420 		.ascii	"$\030\244 \207\036\252\247z\356\271\177Pj\024t\031*"
 233      871EAAA7 
 233      7AEEB97F 
 233      506A1474 
 233      192A
 234 0027 089FDCCE 		.ascii	"\010\237\334\316\314)\355\206\024\025v\301\300\244\253"
 234      CC29ED86 
 234      141576C1 
 234      C0A4AB
 235 0036 A95DB5AC 		.ascii	"\251]\265\254\306\3121\324\012\213\012,*-\302.\017N"
 235      C6CA31D4 
 235      0A8B0A2C 
 235      2A2DC22E 
 235      0F4E
 236 0048 1A85A0D3 		.ascii	"\032\205\240\323Z{\244\213\326C\233s\316\336g\237\365"
 236      5A7BA48B 
 236      D6439B73 
 236      CEDE679F 
 236      F5
 237 0059 7DEBFBD6 		.ascii	"}\353\373\326^\307QP2.9J-\345y9\337\010(\2705\017y\341"
 237      5EC75150 
 237      322E394A 
 237      2DE57939 
 237      DF0828B8 
 238 0071 42DB596B 		.ascii	"B\333Yk\247\233\224\311\241T\267R&\227\340\310ve\320"
 238      A79B94C9 
 238      A154B752 
 238      2697E0C8 
 238      7665D0
 239 0084 01646182 		.ascii	"\001da\202P\025\256&\007\025\370\252\3075\372\022\315"
 239      5015AE26 
 239      0715F8AA 
 239      C735FA12 
 239      CD
 240 0095 C76854FB 		.ascii	"\307hT\373\244\340\360k\372\301\221\267y\362\012\024"
 240      A4E0F06B 
 240      FAC191B7 
 240      79F20A14 
 241 00a5 F2EB51F3 		.ascii	"\362\353Q\363\270\332[p\312\230\230y\323p\255|\177\334"
 241      B8DA5B70 
 241      CA989879 
 241      D370AD7C 
 241      7FDC
 242 00b7 5FE99356 		.ascii	"_\351\223V\031\255p\032\0058\205\002\021q\006\01386"
 242      19AD701A 
 242      05388502 
 242      1171060B 
 242      3836
 243 00c9 3678F519 		.ascii	"6x\365\031(\014\305\353\023OOl/j\020\230\371Zff\370"
 243      280CC5EB 
 243      134F4F6C 
 243      2F6A1098 
 243      F95A6666 
 244 00de 44380BFA 		.ascii	"D8\013\372\035\306[\012\347P\304\301;\017\364w\207h"
ARM GAS  /tmp/ccDRrJMb.s 			page 19


 244      1DC65B0A 
 244      E750C4C1 
 244      3B0FF477 
 244      8768
 245 00f0 A10536DF 		.ascii	"\241\0056\337\377\324\351d\221\311\366\236\\S\003\237"
 245      FFD4E964 
 245      91C9F69E 
 245      5C53039F 
 246 0100 B59E9F8A 		.ascii	"\265\236\237\212u\024\032-v\2505U\025\244b\213\035x"
 246      75141A2D 
 246      76A83555 
 246      15A4628B 
 246      1D78
 247 0112 939E3709 		.ascii	"\223\2367\011\275\335\263\242\326$\035\237\\\\\230\212"
 247      BDDDB3A2 
 247      D6241D9F 
 247      5C5C988A 
 248 0122 75159A50 		.ascii	"u\025\232P$\200w\311O\203!Zl\301\325\225{\217;\341z"
 248      248077C9 
 248      4F83215A 
 248      6CC1D595 
 248      7B8F3BE1 
 249 0137 8BEEDB3D 		.ascii	"\213\356\333=\207\321\211B\266\212\346?\34128z\260e"
 249      87D18942 
 249      B68AE63F 
 249      E132387A 
 249      B065
 250 0149 E2602890 		.ascii	"\342`(\2200<\012\321\202\260T\204\013q\021\001>#\247"
 250      303C0AD1 
 250      82B05484 
 250      0B711101 
 250      3E23A7
 251 015c 9A24A637 		.ascii	"\232$\2467Y\335\224CK,\373\304\343\017\303\356$\373"
 251      59DD9443 
 251      4B2CFBC4 
 251      E30FC3EE 
 251      24FB
 252 016e F714DBAA 		.ascii	"\367\024\333\252\014\012\371\245\351\344\270\2140\003"
 252      0C0AF9A5 
 252      E9E4B88C 
 252      3003
 253 017c F6EC1D1F 		.ascii	"\366\354\035\037\235%\200]&y\243gn\355\351\254\0345"
 253      9D25805D 
 253      2679A367 
 253      6EEDE9AC 
 253      1C35
 254 018e 2DFC0AC2 		.ascii	"-\374\012\302\"\240i\2251\231L\334\324\214\024`\026"
 254      22A06995 
 254      31994CDC 
 254      D48C1460 
 254      16
 255 019f 200E3992 		.ascii	" \0169\222?\020;\016\360\341s\251]H\321\002\274\241"
 255      3F103B0E 
 255      F0E173A9 
 255      5D48D102 
 255      BCA1
 256 01b1 3D792835 		.ascii	"=y(5\314\267t\305\260ve\246\264\326v\036B\"\371\255"
ARM GAS  /tmp/ccDRrJMb.s 			page 20


 256      CCB774C5 
 256      B07665A6 
 256      B4D6761E 
 256      4222F9AD 
 257 01c5 87C44F9C 		.ascii	"\207\304O\234\244K\332\332>\277\360*\306M\2251\371>"
 257      A44BDADA 
 257      3EBFF02A 
 257      C64D9531 
 257      F93E
 258 01d7 7919CD36 		.ascii	"y\031\3156q\025\025*N|@A5\010m\315sB\006\250\001$\372"
 258      7115152A 
 258      4E7C4041 
 258      35086DCD 
 258      734206A8 
 259 01ee E3238703 		.ascii	"\343#\207\003\277\010\016\371w\036y\322W\214\304\265"
 259      BF080EF9 
 259      771E79D2 
 259      578CC4B5 
 260 01fe 49F1694D 		.ascii	"I\361iM\212\333\224\336#6\266\363U\353\322l8q\370\267"
 260      8ADB94DE 
 260      2336B6F3 
 260      55EBD26C 
 260      3871F8B7 
 261 0212 AEEEAADC 		.ascii	"\256\356\252\334:\034\25746\341\014&\311\242\370[\303"
 261      3A1CAF34 
 261      36E10C26 
 261      C9A2F85B 
 261      C3
 262 0223 BBD8052F 		.ascii	"\273\330\005/\322(\2657\313}\312A+\3520\241'O\346\305"
 262      D228B537 
 262      CB7DCA41 
 262      2BEA30A1 
 262      274FE6C5 
 263 0237 C98E9333 		.ascii	"\311\216\2233Y\251\214el\035m\210\260\326\353\254u\010"
 263      59A98C65 
 263      6C1D6D88 
 263      B0D6EBAC 
 263      7508
 264 0249 3B8C2739 		.ascii	";\214'9\3244G33\354\\\341\206uDq\222_a\327\330\363}"
 264      D4344733 
 264      33EC5CE1 
 264      86754471 
 264      925F61D7 
 265 0260 41919C8B 		.ascii	"A\221\234\213 \332Q\340SH\261\322\321\341\324\023[\231"
 265      20DA51E0 
 265      5348B1D2 
 265      D1E1D413 
 265      5B99
 266 0272 FF9019F2 		.ascii	"\377\220\031\362)\0177\255L\371\207q\013\021\216\270"
 266      290F37AD 
 266      4CF98771 
 266      0B118EB8 
 267 0282 7CAF6B87 		.ascii	"|\257k\207M \007v\233a\314~\275\245\253\336\315\326"
 267      4D200776 
 267      9B61CC7E 
 267      BDA5ABDE 
 267      CDD6
ARM GAS  /tmp/ccDRrJMb.s 			page 21


 268 0294 21F07BD9 		.ascii	"!\360{\331\034\333FS\362\345\307\271\277\223\177\344"
 268      1CDB4653 
 268      F2E5C7B9 
 268      BF937FE4 
 269 02a4 5B2415EE 		.ascii	"[$\025\356\260\231lG\336a\367L{h \357\377%\317\306]"
 269      B0996C47 
 269      DE61F74C 
 269      7B6820EF 
 269      FF25CFC6 
 270 02b9 4B444274 		.ascii	"KDBt\017\021\226d\271\322\275\377*\300_\004\375d\323"
 270      0F119664 
 270      B9D2BDFF 
 270      2AC05F04 
 270      FD64D3
 271 02cc E8FC252B 		.ascii	"\350\374%+%l\332\266\200c;\356#b\371\\z\217\267\276"
 271      256CDAB6 
 271      80633BEE 
 271      2362F95C 
 271      7A8FB7BE 
 272 02e0 C01345FA 		.ascii	"\300\023E\372\345\353(\307P\373\310:\356OH\024\003\346"
 272      E5EB28C7 
 272      50FBC83A 
 272      EE4F4814 
 272      03E6
 273 02f2 171747B2 		.ascii	"\027\027G\262\327\346\255|mX\277&\262uKI\244d\335\332"
 273      D7E6AD7C 
 273      6D58BF26 
 273      B2754B49 
 273      A464DDDA 
 274 0306 D525DB36 		.ascii	"\325%\3336o)/.Q\316\246\325\033\313\250tCTo\214RiY\024"
 274      6F292F2E 
 274      51CEA6D5 
 274      1BCBA874 
 274      43546F8C 
 275 031e D11F70AE 		.ascii	"\321\037p\256\237\016"
 275      9F0E
 276              		.text
 277              		.section	.gnu.lto_dyn_create_object_pool.7e371e25731746ed,"",%progbits
 278 0000 789C9554 		.ascii	"x\234\225T]o\224E\024\236g\346\375\352~\264\275!\206"
 278      5D6F9445 
 278      149E67E6 
 278      FDEA7EB4 
 278      BD2186
 279 0013 A49AC664 		.ascii	"\244\232\306d\323\300E7\306\340\245\327^C\370\001Pj"
 279      D3C04537 
 279      C6E0A5D7 
 279      5E43F801 
 279      506A
 280 0025 3001BB80 		.ascii	"0\001\273\200\011p\325\351\276}\241\253b\010D\011\026"
 280      0970D5E9 
 280      BE7DA1AB 
 280      62084409 
 280      16
 281 0036 420D347C 		.ascii	"B\0154|\010\264\013\245e\333\012\333\252\305\264\210"
 281      08B40BA5 
 281      65DB0ADB 
 281      AAC5B488 
ARM GAS  /tmp/ccDRrJMb.s 			page 22


 282 0046 01238456 		.ascii	"\001#\204V\014\324J\020\270\350\242DE\351z\316\314\032"
 282      0CD44A10 
 282      B8E8A244 
 282      45E97ACE 
 282      CC1A
 283 0058 0BEB8D93 		.ascii	"\013\353\215\223}?\316\314\363\234\347\234g\346]G@\360"
 283      7D3FCECC 
 283      F39CE79C 
 283      67E65D47 
 283      40F0
 284 006a D8EA0AF1 		.ascii	"\330\352\012\361\032=\333\350B\215\200\334}E\210\216"
 284      1A3DDBE8 
 284      428D80DC 
 284      7D45888E 
 285 007a 40C2B52F 		.ascii	"@\302\265/Jz\343J\350\230seR\010\235p\354\374X\340J"
 285      4A7AE34A 
 285      E8987365 
 285      52089D70 
 285      ECFC58E0 
 286 008f 65666266 		.ascii	"efbf9\341\311\340l\232\"\377\326K\024\371\010\030\205"
 286      39E1C9E0 
 286      6C9A22FF 
 286      D64B14F9 
 286      081885
 287 00a2 00E0A70E 		.ascii	"\000\340\247\016 \332\245r\\\317\017\320.]a\307c\371"
 287      20DAA572 
 287      5CCF0FD0 
 287      2E5D61C7 
 287      63F9
 288 00b4 54E26A67 		.ascii	"T\342jg\377\001\365\253\214\224\200Ca\351\353\217\177"
 288      FF01F5AB 
 288      8C948043 
 288      61E9EB8F 
 288      7F
 289 00c5 ACE51068 		.ascii	"\254\345\020h\244\260[_\313\371\313\216j\235\325\267"
 289      A4B05B5F 
 289      CBF9CB8E 
 289      6A9DD5B7 
 290 00d5 7B87B6EF 		.ascii	"{\207\266\357\011\2437\"%EY\012\034C\003\216\242\201"
 290      09A33722 
 290      2545590A 
 290      1C43038E 
 290      A281
 291 00e7 CB3E8E65 		.ascii	"\313>\216e\204\315\316\016^\207JA\320{\317w=[\233z\231"
 291      84CDCE0E 
 291      5E874A41 
 291      D07BCF77 
 291      3D5B9B7A 
 292 00fc A61FB7EA 		.ascii	"\246\037\267\352\232H)\234\200ZL\243)\201O\321D\340"
 292      9A48299C 
 292      805A4CA3 
 292      29814FD1 
 292      44E0
 293 010e 9D7BA727 		.ascii	"\235{\247'\223j\271!\366\177\365\340K\3072\213\243S"
 293      936AB921 
 293      F67FF5E0 
 293      4BC7328B 
ARM GAS  /tmp/ccDRrJMb.s 			page 23


 293      A353
 294 0120 09BD1B91 		.ascii	"\011\275\033\221rp\362y\256#p\312p\357\235\237\350\012"
 294      7270F279 
 294      AE2370CA 
 294      70EF9D9F 
 294      E80A
 295 0132 54B3E1DE 		.ascii	"T\263\341\336\271]z\261B\2758\365\372~]t\"\345\342\364"
 295      B95D7AB1 
 295      42BD38F5 
 295      FA7E5D74 
 295      22E5E2F4 
 296 0146 F35C57A0 		.ascii	"\363\\W\240\017ML\230+>\230M\252W\0149\327\261\353\240"
 296      0F4D4C98 
 296      2B3E984D 
 296      AA570C39 
 296      D7B1EBA0 
 297 015a 933A6CD8 		.ascii	"\223:l\330W\337[B\354\316Fj\025\375\317\322y\020z6\277"
 297      57DF5B42 
 297      ECCE466A 
 297      15FDCFD2 
 297      79107A36 
 298 016f F061D2EB 		.ascii	"\360a\322\353\3244\032\221G*\247\004\233B^\234\201G"
 298      D4341A91 
 298      472AA704 
 298      9B425E9C 
 298      8147
 299 0181 1B0BC25C 		.ascii	"\033\013\302\\.\346\372bj\205\311\276p\355\347y\267"
 299      2EE6FA62 
 299      6A85C9BE 
 299      70EDE779 
 299      B7
 300 0192 92FDF709 		.ascii	"\222\375\367\011j\253#\340\344g\253\223c\000\251\276"
 300      6AAB23E0 
 300      E467AB93 
 300      6300A9BE 
 301 01a2 95455D2E 		.ascii	"\225E].\207\324F<\027\376r\000u\240\262\245\344\233"
 301      87D4463C 
 301      17FE7200 
 301      75A0B2A5 
 301      E49B
 302 01b4 0336CD05 		.ascii	"\0036\315\005\267\357\031\260\017n'f\336\343\004\361"
 302      B7EF19B0 
 302      0F6E2766 
 302      DEE304F1 
 303 01c4 1274F393 		.ascii	"\022t\363\223&\256e\212\020\363|y\242D)\346=5\213l="
 303      26AE658A 
 303      10F37C79 
 303      A24429E6 
 303      3D358B6C 
 304 01d9 D774B37B 		.ascii	"\327t\263{n\336\257\32442\365B\245\343\252\2152E\235"
 304      6EDEAFD4 
 304      3432F542 
 304      A5E3AA8D 
 304      32459D
 305 01ec 432A24D3 		.ascii	"C*$\323\377\241\036\376v\370~\235\245\3523Z\203\211"
 305      FFA11EFE 
 305      76F87E9D 
ARM GAS  /tmp/ccDRrJMb.s 			page 24


 305      A5EA335A 
 305      8389
 306 01fe 55BB6488 		.ascii	"U\273d\210\203Lt\305]d\207\363?|\342>k\235\036\332\347"
 306      834C74C5 
 306      5D6487F3 
 306      3F7CE23E 
 306      6B9D1EDA 
 307 0213 3382D31B 		.ascii	"3\202\323\033\347\312\022U\356\016\360\332\020<Jv\036"
 307      E7CA1255 
 307      EE0EF0DA 
 307      103C4A76 
 307      1E
 308 0224 5EA83C02 		.ascii	"^\250<\002|\024\215\177\343\363)u\014\376\267K\223]"
 308      7C148D7F 
 308      E3F32975 
 308      0CFEB74B 
 308      935D
 309 0236 894338D8 		.ascii	"\211C8\330A\204\372H\005\244\210\002W@k\275s\331\323"
 309      4184FA48 
 309      05A48802 
 309      57406BBD 
 309      73D9D3
 310 0249 7EFA14E7 		.ascii	"~\372\024\347*\3761\321\300\256\017\343\020\026\310"
 310      2AFE31D1 
 310      C0AE0FE3 
 310      1016C8
 311 0258 12931523 		.ascii	"\022\223\025#Hs_z5\247g5\222\240\312KR\011\372\300\024"
 311      48735F7A 
 311      35A76735 
 311      92A0CA4B 
 311      5209FAC0 
 312 026d 55FE64E7 		.ascii	"U\376d\347B\367J+\036_,.\377K\274&T1\214V\213\353\325"
 312      42F74A2B 
 312      1E5F2C2E 
 312      FF4BBC26 
 312      54318C56 
 313 0284 112D7C66 		.ascii	"\021-|f\244a\245\0110sd\354H\274\375\251\001\254\242"
 313      A461A509 
 313      307364EC 
 313      48BCFDA9 
 313      01ACA2
 314 0297 BDC305A4 		.ascii	"\275\303\005\244mY\027\321.\356a\207~\325\012'\010\\"
 314      6D5917D1 
 314      2EEE6187 
 314      7ED50A27 
 314      085C
 315 02a9 283C9CF1 		.ascii	"(<\234\361\011\334e\204\342e)-\264HP*\2156\210@\357"
 315      09DC6584 
 315      E265292D 
 315      B448502A 
 315      8D368840 
 316 02be 3EB9F141 		.ascii	">\271\361A\300\325%\350\353\037\0035\234\024w\3209\035"
 316      C0D525E8 
 316      EB1F0335 
 316      9C1477D0 
 316      391D
 317 02d0 AEAD24C2 		.ascii	"\256\255$\302r\2735%\351\210\236K\246\301\341\374O\233"
ARM GAS  /tmp/ccDRrJMb.s 			page 25


 317      72BB3525 
 317      E9889E4B 
 317      A6C1E1FC 
 317      4F9B
 318 02e2 EC6AF27F 		.ascii	"\354j\362\1774\264\"R\265\0307\015\311\212\227\237W"
 318      34B42252 
 318      B518370D 
 318      C98A979F 
 318      57
 319 02f3 BCACFBD7 		.ascii	"\274\254\373\327\313\244\221r\005\375\017\331\223g\247"
 319      CBA49172 
 319      05FD0FD9 
 319      9367A7
 320 0302 635CD44C 		.ascii	"c\\\324L\370\347\256\245V\330\345)\032\217\020#\377"
 320      F8E7AEA5 
 320      56D8E529 
 320      1A8F1023 
 320      FF
 321 0313 E5E5A163 		.ascii	"\345\345\241c \256s\262\320@l\257rl\213\323q\363}\361"
 321      20AE73B2 
 321      D0406CAF 
 321      726C8BD3 
 321      71F37DF1 
 322 0327 71211D69 		.ascii	"q!\035i\202\301\305\301\300\342 \317\201\221\031\331"
 322      82C1C5C1 
 322      C0E220CF 
 322      819119D9 
 323 0337 E7F14C48 		.ascii	"\347\361LH\005\217\332\223\371\010\265\244\250\336/"
 323      058FDA93 
 323      F908B5A4 
 323      A8DE2F
 324 0346 6CE319F7 		.ascii	"l\343\031\367\373\302z\322\361\305\264Tdz\275\005\313"
 324      FBC27AD2 
 324      F1C5B454 
 324      647ABD05 
 324      CB
 325 0357 2ACFEBCA 		.ascii	"*\317\353\312t*\004\2760\206;\246j?R\365\246\305\200"
 325      742A04BE 
 325      30863BA6 
 325      6A3F52F5 
 325      A6C580
 326 036a 8BBCCF1D 		.ascii	"\213\274\317\035\206\012F\001\234\332\373\353V\206R"
 326      860A4601 
 326      9CDAFBEB 
 326      568652
 327 0379 F9A0AF90 		.ascii	"\371\240\257\220.\217\316\335\313\315\315i\373k\333"
 327      2E8FCEDD 
 327      CBCDCD69 
 327      FB6BDB
 328 0388 42BF0D6F 		.ascii	"B\277\015o\255Mo\331\334\222nY\377\346\232\226w\332"
 328      AD4D6FD9 
 328      DC926E59 
 328      FFE69A96 
 328      77DA
 329 039a 366F6F6E 		.ascii	"6oon\021\316\333k6\266\252u\0332rcF\255k\315 \3637!"
 329      11CEDB6B 
 329      36B6AA75 
ARM GAS  /tmp/ccDRrJMb.s 			page 26


 329      1B327263 
 329      46AD6BCD 
 330 03b2 D5D2C8   		.ascii	"\325\322\310"
 331              		.text
 332              		.section	.gnu.lto_dyn_release_object_pool.part.1.7e371e25731746ed,"",%progbits
 333 0000 789C8D93 		.ascii	"x\234\215\223[KTQ\024\307\367\177\257s\033q\254\027"
 333      5B4B5451 
 333      14C7F77F 
 333      AF731B71 
 333      AC17
 334 0012 A1A04082 		.ascii	"\241\240@\202A|\320\351!\252\207^\372\002=\364\015\312"
 334      417CD0E9 
 334      21AA875E 
 334      FA023DF4 
 334      0DCA
 335 0024 260CACCC 		.ascii	"&\014\254\314\"\212\036\334:\036\264\260\010\242\300"
 335      228A1EDC 
 335      3A1EB4B0 
 335      08A2C0
 336 0033 482A22B2 		.ascii	"H*\"\262\233\251]\265&\007\241\013B\023\321S\027H-,"
 336      9BA95DB5 
 336      2607A10B 
 336      4213D153 
 336      17482D2C 
 337 0047 32D229A3 		.ascii	"2\322)\243\207\262i\255},R\203:\234\231}[\353\277~k"
 337      87B269AD 
 337      7D2C5283 
 337      3A9C997D 
 337      5BEBBF7E 
 338 005c AD7D1C05 		.ascii	"\255}\034\005%\317>G\2515<\356\340\037\212\024b\207"
 338      25CF3E47 
 338      A9353CEE 
 338      E01F8A14 
 338      6287
 339 006e 733CD1DA 		.ascii	"s<\321\332\031$e\212(7\244\224)&x\262\275\326\201/c"
 339      1924658A 
 339      2837A494 
 339      292678B2 
 339      BDD6812F 
 340 0083 6310836B 		.ascii	"c\020\203k\355\334\350\000\236\326\326\262\310\027\267"
 340      EDDCE800 
 340      9ED6D6B2 
 340      C817B7
 341 0092 621F4164 		.ascii	"b\037Ad\027\00021\001T\203&'\346z~\200\006\355\251\350"
 341      17003231 
 341      01548326 
 341      27E67A7E 
 341      8006EDA9 
 342 00a7 F9A2A735 		.ascii	"\371\242\2475\006[\306\372t\3059\303\317\360\275\267"
 342      065BC6FA 
 342      74C539C3 
 342      CFF0BDB7 
 343 00b7 5B1A4DB8 		.ascii	"[\032M\270($\245\012:\262\3019T\260\325\223\346\356"
 343      2824A50A 
 343      3AB2C139 
 343      54B0D593 
 343      E6EE
ARM GAS  /tmp/ccDRrJMb.s 			page 27


 344 00c9 1334A543 		.ascii	"\0234\245C\002\034^\346\037\035\177]\"K\2152^\276\311"
 344      021C5EE6 
 344      1F1D7F5D 
 344      224B8D32 
 344      5EBEC9
 345 00dc 8E8FC629 		.ascii	"\216\217\306)\001\305\363\351\261\341{N\371Yc\232\214"
 345      01C5F3E9 
 345      B1E17B4E 
 345      F959639A 
 345      8C
 346 00ed 799632B1 		.ascii	"y\2262\261\220\010\027@\254\207\363X\202N,Q\274\245"
 346      90081740 
 346      AC87F358 
 346      824E2C51 
 346      BCA5
 347 00ff 7011E56C 		.ascii	"p\021\345l\335r\344\371P\234*\254g\367\303\361_\236"
 347      DD72E4F9 
 347      509C2AAC 
 347      67F7C3F1 
 347      5F9E
 348 0111 D981DC8A 		.ascii	"\331\201\334\212v\223uBrpi\256\263\243p\331:\277\273"
 348      76937542 
 348      727069AE 
 348      B3A370D9 
 348      3ABFBB
 349 0124 75BF35A0 		.ascii	"u\2775\240J\353<2\234_:\343\373\344\320\312\310\327"
 349      4AEB3C32 
 349      9C5F3AE3 
 349      FBE4D0CA 
 349      C8D7
 350 0136 45D75C5F 		.ascii	"E\327\\_W\341\012\312\305a\264\347\307\321\270\327,"
 350      57E10ACA 
 350      C561B4E7 
 350      C7D1B8D7 
 350      2C
 351 0147 799745D9 		.ascii	"y\227E\331\242\033\036w\205\366\223\234\267\035\234"
 351      A21B1E77 
 351      85F6939C 
 351      B71D9C
 352 0156 9E5A9038 		.ascii	"\236Z\2208c\314\001\223\315\344J\332;\263\315e\002\376"
 352      63CC0193 
 352      CDE44ADA 
 352      3BB3CD65 
 352      02FE
 353 0168 A79E2D50 		.ascii	"\247\236-P\017\022l~\346i\377{k\316i\367\032\0031\236"
 353      0F126C7E 
 353      E669FF7B 
 353      6BCE69F7 
 353      1A03319E 
 354 017c C76EED7B 		.ascii	"\307n\355{\221\270\262\336\230B!m\016\217/E\034\220"
 354      91B8B2DE 
 354      9842216D 
 354      0E8F2F45 
 354      1C90
 355 018e 5A689B14 		.ascii	"Zh\233\0241\242\027\345\347B\376=\010\257/%\013\354"
 355      31A217E5 
 355      E742FE3D 
ARM GAS  /tmp/ccDRrJMb.s 			page 28


 355      08AF2F25 
 355      0BEC
 356 01a0 B65293CC 		.ascii	"\266R\223\314:\351\251\274\326\212\233N#h~\236\376v"
 356      3AE9A9BC 
 356      D68A9B4E 
 356      23687E9E 
 356      FE76
 357 01b2 6811334C 		.ascii	"h\0213L\231\317\371\200\226\333z\344[2\023\361\210\307"
 357      99CFF980 
 357      96DB7AE4 
 357      5B3213F1 
 357      88C7
 358 01c4 E29B081F 		.ascii	"\342\233\010\037W\347\023\315.\206\031\350X,\214\270"
 358      57E713CD 
 358      2E8619E8 
 358      582C8CB8 
 359 01d4 86842D49 		.ascii	"\206\204-IA[\301S\203#\225\264\332N\333&2\337\235\031"
 359      415BC153 
 359      832395B4 
 359      DA4EDB26 
 359      32DF9D19 
 360 01e8 EDEB2DA5 		.ascii	"\355\353-\245\277\265o\374K\273\0147E\364:\370\006\342"
 360      BFB56FFC 
 360      4BBB0C37 
 360      45F43AF8 
 360      06E2
 361 01fa 16BC3421 		.ascii	"\026\2744!M\321E\233\324\244N=P\224\327\216\352\"\032"
 361      4DD1459B 
 361      D4A44E3D 
 361      5094D78E 
 361      EA221A
 362 020d 43537FCF 		.ascii	"CS\177\317T\217\037Y\021\313\034\013\007\037\373r\345"
 362      548F1F59 
 362      11CB1C0B 
 362      071FFB72 
 362      E5
 363 021e C8327C7D 		.ascii	"\3102|}0\324Z|\022\035\215,\2730$\237\245\320'A\371"
 363      30D45A7C 
 363      121D8D2C 
 363      BB30249F 
 363      A5D02741 
 364 0233 ECEC9BA6 		.ascii	"\354\354\233\246.?Y\311\245D?N\342\007G\2601q\033I\305"
 364      2E3F59C9 
 364      A5443F4E 
 364      E20747B0 
 364      31711B49 
 365 0248 CAC74E97 		.ascii	"\312\307N\227\212\356_U\2349*\227mMV\211\326\235YZ\031"
 365      8AEE5F55 
 365      9C392A97 
 365      6D4D5689 
 365      D69D595A 
 366 025d 2419CC92 		.ascii	"$\031\314\222\307\270\037\014\356\312\240>!H\223\033"
 366      C7B81F0C 
 366      EECAA03E 
 366      2148931B 
 367 026d BB74BB13 		.ascii	"\273t\273\023\334#O\361\007H\243hZ\250$w\326\027\200"
 367      DC234FF1 
ARM GAS  /tmp/ccDRrJMb.s 			page 29


 367      0748A368 
 367      5AA82477 
 367      D61780
 368 0280 FEFCC711 		.ascii	"\376\374\307\021\212R\323\377Eas\271;+\376\000\347\302"
 368      8A52D3FF 
 368      456173B9 
 368      3B2BFE00 
 368      E7C2
 369 0292 BD7F91DE 		.ascii	"\275\177\221\336<#\304Q\245\220\237\340\360\202^fj\322"
 369      3C23C451 
 369      A5909FE0 
 369      F0825E66 
 369      6AD2
 370 02a4 14B8C2E0 		.ascii	"\024\270\302\340\013\027#d_\345\212\355\035\227\316"
 370      0B172364 
 370      5FE58AED 
 370      1D97CE
 371 02b3 AA5168BB 		.ascii	"\252Qh\273\350\375sqQ.\330;\204\331|\316n\010A_\337"
 371      E8FD7371 
 371      512ED83B 
 371      84D97CCE 
 371      6E08415F 
 372 02c8 87177EC3 		.ascii	"\207\027~\303\264i\265pAA\013B\026\015*M\034\326\017"
 372      B469B570 
 372      41410B42 
 372      160D2A4D 
 372      1CD60F
 373 02db 292641A5 		.ascii	")&A\245\001\316\211\314\036\001\367\332\006j8n q\337"
 373      01CE89CC 
 373      1E01F7DA 
 373      066A386E 
 373      2071DF
 374 02ee 73DC2FEB 		.ascii	"s\334/\353\254V\324f\360.+,\253\252JF\357\366\235\374"
 374      AC56D466 
 374      F02E2B2C 
 374      ABAA4A46 
 374      EFF69DFC 
 375 0302 D66ED998 		.ascii	"\326n\331\230\334Y_\235\254\256\331\274\241z\327\366"
 375      DC595F9D 
 375      ACAED9BC 
 375      A17AD7F6 
 376 0312 FABD55D5 		.ascii	"\372\275U\325\2126\245\352hSm\235\336Z\347\247jS[S\333"
 376      8A36A5EA 
 376      68536D9D 
 376      DE5AE7A7 
 376      6A535B53 
 377 0327 763975F5 		.ascii	"v9u\365\251\335?\0012Y\214v"
 377      A9DD3F01 
 377      32598C76 
 378              		.text
 379              		.section	.gnu.lto_dyn_create_object_heap.part.2.7e371e25731746ed,"",%progbits
 380 0000 789C9554 		.ascii	"x\234\225T[OTW\024\336\337\336\3472\214\014\320\032"
 380      5B4F5457 
 380      14DEDFDE 
 380      E7328C0C 
 380      D01A
 381 0012 D3A4E181 		.ascii	"\323\244\341\2014\231\020\233t\346\301DS\023\337}\356"
ARM GAS  /tmp/ccDRrJMb.s 			page 30


 381      3499109B 
 381      74E6C144 
 381      5313DF7D 
 381      EE
 382 0023 3FC0710C 		.ascii	"?\300q\014$\240\023h\323\313\013\233\031\016\010\255"
 382      24A01368 
 382      D3CB0B9B 
 382      190E08AD 
 383 0033 86682562 		.ascii	"\206h%bk4V\243U\021\244\326\026\224v\264\312\350\250"
 383      6B3456A3 
 383      5511A4D6 
 383      169476B4 
 383      CAE8A8
 384 0046 B4D28889 		.ascii	"\264\322\210\211>T\251i\274\2452\006\243\222\300q\255"
 384      3E54A969 
 384      BCA53206 
 384      A392C071 
 384      AD
 385 0057 3D8830C3 		.ascii	"=\2100\303\213'\347\234}9\353\373\326\267.\373X\002"
 385      8B27E79C 
 385      7D39EBFB 
 385      D6B72EFB 
 385      5802
 386 0069 82AF7F6C 		.ascii	"\202\257\177l!6\321\270\216\0368\002v\327(MlH3Jie\225"
 386      2136D1B8 
 386      8E1E3802 
 386      76D7284D 
 386      6C48334A 
 387 0080 D0413592 		.ascii	"\320A5\222\025B\227*X\274\335\022\260\000\236\350\000"
 387      1542972A 
 387      58BCDD12 
 387      B0009EE8 
 387      00
 388 0091 44B32D95 		.ascii	"D\263-\225\205f<\2233\022\327[\373\277WS\322S\002\026"
 388      85663C93 
 388      3312D75B 
 388      FBBF5753 
 388      D2530216 
 389 00a5 2D73D7F6 		.ascii	"-s\327\366\374[\306K\240\212\226\337\351\261\016w\345"
 389      FC5BC64B 
 389      A08A96DF 
 389      E9B10E77 
 389      E5
 390 00b6 61AD93FA 		.ascii	"a\255\223\372\216\347\177\261#\345\255\367\224\024\276"
 390      8EE77FB1 
 390      23E5ADF7 
 390      9414BE
 391 00c5 1438824A 		.ascii	"\0248\202J\034F%\213\370\021+\31169qz\034*\014A\363"
 391      1C46258B 
 391      F8112BC9 
 391      3639717A 
 391      1C2A0C41 
 392 00da FD37F67F 		.ascii	"\3757\366\177^}\210a\372Y\\\227xJ\341(\324B\030m\011"
 392      5E7D8861 
 392      FA595C97 
 392      784AE128 
 392      D442186D 
ARM GAS  /tmp/ccDRrJMb.s 			page 31


 393 00ef 1C433519 		.ascii	"\034C5\031\267\357\274\225\015\251\017\015\260\377\322"
 393      B7EFBC95 
 393      0DA90F0D 
 393      B0FFD2
 394 00fe A38B561E 		.ascii	"\243\213V\036\231\236\316\224\352.x\244\365x!\326\022"
 394      999ECE94 
 394      EA2E78A4 
 394      F57821D6 
 394      12
 395 010f E835D803 		.ascii	"\3505\330\003-7\256\204T\304`\333{\207\037\224\315a"
 395      2D37AE84 
 395      54C460DB 
 395      7B871F94 
 395      CD61
 396 0121 6732AB7B 		.ascii	"g2\253{t\332\362\224\215\023\205`[\240\017\325\214\270"
 396      74DAF294 
 396      8D138560 
 396      5BA00FD5 
 396      8CB8
 397 0133 977E3411 		.ascii	"\227~4\021R\253\014\272\243e\333^+\374\203A\373\355"
 397      52AB0CBA 
 397      A365DB5E 
 397      2BFC8341 
 397      FBED
 398 0145 2B08DD5A 		.ascii	"+\010\335ZE\261\242\1771\234/\262\23689\273+\344\264"
 398      45B1A27F 
 398      319C2FB2 
 398      9E3839BB 
 398      2BE4B4
 399 0158 6ABAAA70 		.ascii	"j\272\252p\022aN\011eb\000\016\025\311\356Pl\363\327"
 399      12614E09 
 399      6562000E 
 399      15C9EE50 
 399      6CF3D7
 400 016b F0F6B341 		.ascii	"\360\366\263Af\354\324\351\227\231\367z\216\030FG\024"
 400      66ECD4E9 
 400      9799F77A 
 400      8E184647 
 400      14
 401 017c D2E12784 		.ascii	"\322\341'\204\311\374j\272\243/\250\326\0301\263c\017"
 401      C9FC6ABA 
 401      A32FA8D6 
 401      1831B363 
 401      0F
 402 018d 26ED3931 		.ascii	"&\35591/\333\336\2109U,\006?\033\3647\333f\246\312\213"
 402      2FDBDE88 
 402      39552C06 
 402      3F1BF437 
 402      DB66A6CA 
 403 01a2 9C15968A 		.ascii	"\234\025\226\212\314O#\314\202\373>\321\332\367S\272"
 403      CC4F23CC 
 403      82FB3ED1 
 403      DAF753BA 
 404 01b2 EBC90A94 		.ascii	"\353\311\012\224\003\234\021I\271q\024\275\\j\026*\215"
 404      039C1149 
 404      B97114BD 
 404      5C6A162A 
ARM GAS  /tmp/ccDRrJMb.s 			page 32


 404      8D
 405 01c3 0D4EB243 		.ascii	"\015N\262C\033\322\345\227\020\223\364p\027MJ\233G\225"
 405      1BD2E597 
 405      1093F470 
 405      174D4A9B 
 405      4795
 406 01d5 93D28C13 		.ascii	"\223\322\214\023HV\260\354S\377\357~Z\242>6!\014\244"
 406      4856B0EC 
 406      53FFEF7E 
 406      5AA23E36 
 406      210CA4
 407 01e8 7B5E045F 		.ascii	"{^\004_\207@\202\362!\004\360\313\022!\374jB\350\366"
 407      874082F2 
 407      2104F0CB 
 407      1221FC6A 
 407      42E8F6
 408 01fb CEFFE972 		.ascii	"\316\377\351r\357Q\217b\220\276\275\246\355\276\377"
 408      EF518F62 
 408      90BEBDA6 
 408      EDBEFF
 409 020a 62D6CD53 		.ascii	"b\326\315S\351\001\255\301DEu5DC\010\247\024\304}\264"
 409      E901ADC1 
 409      44457535 
 409      444308A7 
 409      14C47DB4 
 410 021e DDF173BB 		.ascii	"\335\361s\273\336_\\\250\364\327\243\215l\301\356L\251"
 410      DE5F5CA8 
 410      F4D7A38D 
 410      6CC1EE4C 
 410      A9
 411 022f 7C89C25A 		.ascii	"|\211\302Z\012\234\2413%p\026NJ\361\371\030\034||\333"
 411      0A9CA133 
 411      2570164E 
 411      4AF1F918 
 411      1C7C7CDB 
 412 0243 6D9ED15B 		.ascii	"m\236\321[\265\256\360T\211/\245\261\3000\232\215Hr"
 412      B5AEF054 
 412      892FA5B1 
 412      C0309A8D 
 412      4872
 413 0255 47567BCE 		.ascii	"GV{\316Lem\226\036D\000\277\241\322S\313H\2754\375\300"
 413      4C656D96 
 413      1E4400BF 
 413      A1D253CB 
 413      48BD34FD 
 414 026a DEE61743 		.ascii	"\336\346\027C\013\027\3347\342.Zo\245\236\177\353\360"
 414      0B17DC37 
 414      E22E5A6F 
 414      A59E7FEB 
 414      F0
 415 027b 4EDEE57C 		.ascii	"N\336\345|\036H\036~\237\013-'\225\240#\255\376Cr\272"
 415      1E481E7E 
 415      9F0B2D27 
 415      95A023AD 
 415      FE4372BA 
 416 028f 7DFCE8EA 		.ascii	"}\374\350\352\274\271\"\363\347\231\354\326\322}\330"
 416      BCB922F3 
ARM GAS  /tmp/ccDRrJMb.s 			page 33


 416      E799ECD6 
 416      D27DD8
 417 029e DBA28DC4 		.ascii	"\333\242\215\304R\"\311\243\350\333\241{\311\023n\264"
 417      5222C9A3 
 417      E8DBA17B 
 417      C9136EB4 
 418 02ae 9743D3EB 		.ascii	"\227C\323\353<\025B\032\3730+\347\232\370\366\301s\007"
 418      3C15421A 
 418      FB302BE7 
 418      9AF8F6C1 
 418      7307
 419 02c0 97516C7C 		.ascii	"\227Ql|\255\241\262\343\034\242\024\373y\012\2152\250"
 419      ADA1B2E3 
 419      1CA214FB 
 419      790A8D32 
 419      A8
 420 02d1 5DF6218A 		.ascii	"]\366!\212rP\346\223\024\201?\310\212\004\244\024\377"
 420      7250E693 
 420      14813FC8 
 420      8A04A414 
 420      FF
 421 02e2 363AA76F 		.ascii	"6:\247on\017\260d\233\342\277\300\361\227\013R:\325"
 421      6E0FB064 
 421      9BE2BFC0 
 421      F1970B52 
 421      3AD5
 422 02f4 3F3EA698 		.ascii	"?>\246\230\345-d\206<U\201\213F&\377\3570\202(w\326"
 422      E52D6486 
 422      3C55818B 
 422      4626FFEF 
 422      30822877 
 423 0309 854C9B71 		.ascii	"\205L\233q\360\016\365j\206`\304>\224\033?`\347\363"
 423      F00EF56A 
 423      8660C43E 
 423      941B3F60 
 423      E7F3
 424 031b E02C4C9B 		.ascii	"\340,L\233e\252Z\340\357\335\024i\273\264\310\337G\234"
 424      65AA5AE0 
 424      EFDD1469 
 424      BBB4C8DF 
 424      479C
 425 032d E1CBC693 		.ascii	"\341\313\306\2239\274Y\212\236h\273\357\226\275\275"
 425      39BC598A 
 425      9E68BBEF 
 425      96BDBD
 426 033c E4E5B862 		.ascii	"\344\345\270b\210\024\023]E\224$1\327X\347\310\261\265"
 426      8814135D 
 426      45942431 
 426      D758E7C8 
 426      B1B5
 427 034e 4BB32D21 		.ascii	"K\263-!h\236M\342\332\033Y\243\314&M\013X\346\264=\344"
 427      689E4DE2 
 427      DA1B59A3 
 427      CC264D0B 
 427      58E6B43D 
 428 0363 6391522E 		.ascii	"c\221R.m=\205\313\212\344\343\277\023d\243\216\337\254"
 428      6D3D85CB 
ARM GAS  /tmp/ccDRrJMb.s 			page 34


 428      8AE4E3BF 
 428      1364A38E 
 428      DFAC
 429 0375 A5B309B6 		.ascii	"\245\263\011\266\"\300\007\221H4\177oi\242\273\276n"
 429      22C00791 
 429      48347F6F 
 429      69A2BBBE 
 429      6E
 430 0386 43B4A931 		.ascii	"C\264\2511\026\215\325n\252\211}\272\245\361\313HLX"
 430      168DD56E 
 430      AA897DBA 
 430      A5F1CB48 
 430      4C58
 431 0398 9B6B1AE2 		.ascii	"\233k\032\342jc}\302j\252\373\212&\361\004\022vm\274"
 431      6A637DC2 
 431      6AAAFB8A 
 431      26F10412 
 431      766DBC
 432 03ab 2691A82E 		.ascii	"&\221\250.\006\327m\216\325\177\2661N\004\015\361\006"
 432      06D76D8E 
 432      D57FB631 
 432      4E040DF1 
 432      06
 433 03bc 366A8AD4 		.ascii	"6j\212\324\212W\213\356\020h"
 433      8A578BEE 
 433      1068
 434              		.text
 435              		.section	.gnu.lto_dyn_create_object_heap.7e371e25731746ed,"",%progbits
 436 0000 789C9554 		.ascii	"x\234\225T\335oTE\024\237\337\314\275s\357~\265}!\306"
 436      DD6F5445 
 436      149FDFCC 
 436      BD73EF7E 
 436      B57D21C6 
 437 0014 A4318DC9 		.ascii	"\2441\215\311\246\201\207\356\003\361\343O\360\031\303"
 437      A68187EE 
 437      03F1E34F 
 437      F019C3
 438 0023 1F00B506 		.ascii	"\037\000\265\006\022\264\225\232\200\276tvo\257\245"
 438      12B4959A 
 438      80BE7476 
 438      6FAFA5
 439 0032 46085134 		.ascii	"F\010Q4j%T\201\200J?\226\326\326\255\242\333\252\254"
 439      6A255481 
 439      804A3F96 
 439      D6D6ADA2 
 439      DBAAAC
 440 0045 A9880183 		.ascii	"\251\210\001\203\306V\215\224j\344\343\2415\022\241"
 440      C6568D94 
 440      6AE4E3A1 
 440      3512A1
 441 0054 A45DCF99 		.ascii	"\244]\317\231Yca}q\262\367\3369g~\277\363;\347\314\314"
 441      5963617D 
 441      71B2F7DE 
 441      39677EBF 
 441      F33BE7CC 
 442 0069 7A0282C7 		.ascii	"z\002\202\307\036_\210G\351\333I\017\022\002\362\340"
 442      1E5F8847 
ARM GAS  /tmp/ccDRrJMb.s 			page 35


 442      E9DB490F 
 442      1202F2E0 
 443 0079 7921F2A1 		.ascii	"y!\362\241\204\357&J\352\031%L\322;?+\204I{\316?\035"
 443      84EF264A 
 443      EA19254C 
 443      D23B3F2B 
 443      84497BCE 
 444 008f FA52594F 		.ascii	"\372RYO\322.\247\265\014\307rd\005?=@V\200\220Q\010"
 444      D22EA7B5 
 444      0CC77264 
 444      053F3D40 
 444      56809051 
 445 00a4 01FE9A10 		.ascii	"\001\376\232\020\242G*\317\327A\210\036\351\0137n\312"
 445      A2472ACF 
 445      D741881E 
 445      E90B376E 
 445      CA
 446 00b5 55890BBD 		.ascii	"U\211\013\275\243o\251?e\254\004<2\227\277~\363J\003"
 446      A36FA93F 
 446      65AC043C 
 446      3297BF7E 
 446      F34A03
 447 00c8 9B400B99 		.ascii	"\233@\013\231\003\346b\177\260\361\2041\005\363K\\\335"
 447      03E6627F 
 447      B0F18431 
 447      05F34B5C 
 447      DD
 448 00d9 FB72143F 		.ascii	"\373r\024?\026+)\252R\340$\232q\002\315\234\366\273"
 448      162B29AA 
 448      52E0249A 
 448      7102CD9C 
 448      F6BB
 449 00eb D848D8C2 		.ascii	"\330H\330\302\302\304wPY\010\232\017^\032\334\323z\234"
 449      C2C47750 
 449      59089A0F 
 449      5E1ADCD3 
 449      7A9C
 450 00fd 69E66687 		.ascii	"i\346f\207I\304J\341=\250\3654r\011\274\217V\002\367"
 450      49C44AE1 
 450      3DA8F534 
 450      7209BC8F 
 450      5602F7
 451 0110 BD32379B 		.ascii	"\27527\233Q\233,q\364\313\353_x\216Y^\251\244\315A\304"
 451      519B2C71 
 451      F4CBEB5F 
 451      788E595E 
 451      A9A4CD41 
 452 0125 CAC3A97B 		.ascii	"\312\303\251{\271\236\300\220\345\276\223\277\364UF"
 452      B99EC090 
 452      E5BE93BF 
 452      F45546
 453 0134 B5596EDF 		.ascii	"\265Yn\337\320\231\253\0155\356j\345\3417L\331\213\225"
 453      D099AB0D 
 453      35EE6AE5 
 453      E1374CD9 
 453      8B95
 454 0146 8FE17BC9 		.ascii	"\217\341{\311\276\300\010Z\231\261X\276\276\220Q\233"
ARM GAS  /tmp/ccDRrJMb.s 			page 36


 454      BEC0085A 
 454      99B158BE 
 454      BE90519B 
 455 0156 2DBB3FBF 		.ascii	"-\273?\277\377\260\227=j\331\325\276\015\304\356m\241"
 455      FFB0973D 
 455      6AD9D5BE 
 455      0DC4EE6D 
 455      A1
 456 0167 5A317A37 		.ascii	"Z1z7\235\007\241\027\212k\257ft\257\241\321\202\"\262"
 456      9D07A117 
 456      8A6BAF66 
 456      74AFA1D1 
 456      8222B2
 457 017a FD4A7057 		.ascii	"\375JpW\250\031\247\241igA\230s\345\376\221\244z\304"
 457      A819A7A1 
 457      69674198 
 457      73E5FE91 
 457      A47AC4
 458 018d 465FBB78 		.ascii	"F_\273xu\311\257E\277u\226\352\312\207\034|\254>8\306"
 458      75C9AF45 
 458      BF7596EA 
 458      CA871C7C 
 458      AC3E38C6 
 459 01a1 911DD952 		.ascii	"\221\035\331R6\325jDe\004wn\015'\032AYK\311/\017\334"
 459      36D56A44 
 459      6504776E 
 459      0D271A41 
 459      594BC92F 
 460 01b7 341F5CBE 		.ascii	"4\037\\\276\266\330\000\\Mh\347\011\202\350$\275\202"
 460      B6D8005C 
 460      4D68E709 
 460      82E824BD 
 460      82
 461 01c8 94B5D34C 		.ascii	"\224\265\323L\021b\211\037-\226)\304\222V\013(4qJ?\014"
 461      1162891F 
 461      2D9629C4 
 461      92560B28 
 461      34714A3F 
 462 01dd 2C2E05B5 		.ascii	",.\005\265\224nW\356\253\025\\\267Q6\247\017\220\215"
 462      946E57EE 
 462      AB155CB7 
 462      5136A70F 
 462      908D
 463 01ef A8E9FF50 		.ascii	"\250\351\377P\217~;u\255\321Q\315ic\300\304\272]\262"
 463      8F7E3B75 
 463      ADD151CD 
 463      6963C0C4 
 463      BA5DB2
 464 0202 C40926FA 		.ascii	"\304\011&\372\3427\024\246\212?\277\355\337\33593v("
 464      E23714A6 
 464      8A3FBFED 
 464      DFDD3933 
 464      7628
 465 0214 600487B7 		.ascii	"`\004\207\267\215\253J\3245w\234\327&\241)\330\207\320"
 465      8DAB4AD4 
 465      35779CD7 
 465      26A129D8 
ARM GAS  /tmp/ccDRrJMb.s 			page 37


 465      87D0
 466 0226 91D20478 		.ascii	"\221\322\004x-\236\371&\340S\352Y\374_\225\331}\351"
 466      2D9EF926 
 466      E053EA59 
 466      FC5F95D9 
 466      7DE9
 467 0238 23389C27 		.ascii	"#8\234'BS\254BRD\2113\240\265\343\213\205\341 7\304"
 467      4253AC42 
 467      52448933 
 467      A0B5E38B 
 467      85E12037 
 468 024d B1CAB7CF 		.ascii	"\261\312\267\3176s\323\247p\004k\324\022\033\025\037"
 468      3673D3A7 
 468      70046BD4 
 468      121B151F 
 469 025d 21C77599 		.ascii	"!\307u\231\255\034\236\325H\2022_\226J\320\005S\224"
 469      AD1C9ED5 
 469      4882325F 
 469      964AD005 
 469      5394
 470 026f F94ADFDA 		.ascii	"\371J\337\332\300\026'\236X/.\377K<\021\251\020\037"
 470      C016279E 
 470      582F2EFF 
 470      4B3C11A9 
 470      101F
 471 0281 D78B9BAD 		.ascii	"\327\213\233\255\261J\342\214\225\206\223&\300\374\261"
 471      B14AE28C 
 471      95869326 
 471      C0FCB1
 472 0290 E963A99E 		.ascii	"\351c\251\236U\013x\234\366\016\237 \347\322\372\024"
 472      550B789C 
 472      F60E9F20 
 472      E7D2FA14 
 473 02a0 3DE277BC 		.ascii	"=\342w\274`6;\341$\201K\245\033\363\001\201\367Y\241"
 473      60363BE1 
 473      24814BA5 
 473      1BF30181 
 473      F759A1
 474 02b3 54554A07 		.ascii	"TUJ\007-\0234ba\276\300/\256|\177 \344\354|\272\375"
 474      2D133462 
 474      61BEC02F 
 474      AE7C7F20 
 474      E4EC7CBA 
 475 02c8 D3A082D3 		.ascii	"\323\240\202\323\3422z\347\242\355\265@\330\344\266"
 475      E2327AE7 
 475      A2EDB540 
 475      D8E4B6
 476 02d7 66597A62 		.ascii	"fYzb\260b\013\234*\376\372\214[M\375\217\202\036\212"
 476      B0620B9C 
 476      2AFEFA8C 
 476      5B4DFD8F 
 476      821E8A
 477 02ea 550633B6 		.ascii	"U\0063\266 Y\353\345g\265^6\376\333\313\224\225\362"
 477      2059EBE5 
 477      67B55E36 
 477      FEDBCB94 
 477      95F2
ARM GAS  /tmp/ccDRrJMb.s 			page 38


 478 02fc 05FD0FB9 		.ascii	"\005\375\017\271\223\347\334!'5\037\335\331\177\277"
 478      93E7DC21 
 478      27351FDD 
 478      D97FBF
 479 030b 13F6D945 		.ascii	"\023\366\331E\343\017\320\356iyn\362$\210\353\235*5"
 479      E30FD0EE 
 479      69796EF2 
 479      2488EB9D 
 479      2A35
 480 031d 135BD78E 		.ascii	"\023[\327\216m\371\365\244\275^|\\HGZcb\2751\276\336"
 480      6DF9F5A4 
 480      BD5E7C5C 
 480      48475A63 
 480      62BD31BE 
 481 0332 28B26165 		.ascii	"(\262ae&\017i\366D*\355*a\2354)\252\227J{\331\343\377"
 481      260F69F6 
 481      442AED2A 
 481      619D3429 
 481      AA974A7B 
 482 0349 58DA413A 		.ascii	"X\332A:\201\230\223\212\232\336\344\300\262\256\347"
 482      8198938A 
 482      9ADEE4C0 
 482      B2AEE7
 483 0358 0D553A15 		.ascii	"\015U:\025\002\237\333\206{6\353 V\215\266\304\220\223"
 483      029FDB86 
 483      7B36EB20 
 483      568DB6C4 
 483      9093
 484 036a BCC61546 		.ascii	"\274\306\025F\012V\001\034Z\337\270\320E\241\002\320"
 484      0A56011C 
 484      5ADFB8D0 
 484      45A102D0 
 485 037a 2DA447D3 		.ascii	"-\244G\323\271{\260\255-\347~\235\335\364\333\265s{"
 485      B97BB0AD 
 485      2DE77E9D 
 485      DDF4DBB5 
 485      737B
 486 038c AE7B777B 		.ascii	"\256{w{\256}\307\223\333\332\237\355\334\375\\[\273"
 486      AE7DC793 
 486      DBDA9FED 
 486      DCFD5C5B 
 486      BB
 487 039d F09EDEF6 		.ascii	"\360\236\336\366T\207zbW\227\327\275\363y\232tt\241"
 487      54877A62 
 487      5797D7BD 
 487      F3799A74 
 487      74A1
 488 03af EB6F3BDC 		.ascii	"\353o;\334\324@"
 488      D440
 489              		.text
 490              		.section	.gnu.lto_dyn_release_object_heap.part.3.7e371e25731746ed,"",%progbits
 491 0000 789C8D93 		.ascii	"x\234\215\223\313kSQ\020\306\317w\346\346\336\244\244"
 491      CB6B5351 
 491      10C6CF77 
 491      E6E6DEA4 
 491      A4
 492 0011 DA8DA2E0 		.ascii	"\332\215\242\340\242\010\241t\321f\343\003\227\256\335"
ARM GAS  /tmp/ccDRrJMb.s 			page 39


 492      A208A174 
 492      D166E303 
 492      97AEDD
 493 0020 F91F688D 		.ascii	"\371\037h\215T\250\266\266Et\225\323&\241U\252\024\304"
 493      54A8B6B6 
 493      457495D3 
 493      26A155AA 
 493      14C4
 494 0032 82A25491 		.ascii	"\202\242T\221b}\265\251Z\265\251\321\020\020%\242\""
 494      627DB5A9 
 494      5AB5A9D1 
 494      101025A2 
 494      22
 495 0043 AE7C2C6C 		.ascii	"\256|,l-UTl\243\021\0275\306\231sU\254\012z\271\311"
 495      2D55546C 
 495      A3111735 
 495      C6997355 
 495      AC0A7AB9 
 496 0058 79CD7CF3 		.ascii	"y\315|\363\233\231s\035\005%\317:G\251\015<\356\346"
 496      9B99731D 
 496      0525CF3A 
 496      47A90D3C 
 496      EEE6
 497 006a 1FAA1442 		.ascii	"\037\252\024B\375\017x\242\265\223'e\252\350AA)\023"
 497      FD0F78A2 
 497      B5932765 
 497      AAE84141 
 497      2913
 498 007c 26B8B2BD 		.ascii	"&\270\262\275\321\201'cW0\204\200\265\013\370\007p\265"
 498      D1812763 
 498      57308480 
 498      B50BF807 
 498      70B5
 499 008e B696559E 		.ascii	"\266\226U\236\270\205=\004}\273  \023\023\204\212kr"
 499      B8853D04 
 499      7DBB2020 
 499      1313848A 
 499      6B72
 500 00a0 4201D70B 		.ascii	"B\001\327\013\"\256]\345?\237tY#\3373;\241\353\317\030"
 500      22AE5DE5 
 500      3F9F7459 
 500      23DF333B 
 500      A1EBCF18 
 501 00b4 7E5E0C8D 		.ascii	"~^\014\215\356\3502\251\025)R\252\242}\033\234A=[=J"
 501      EEE832A9 
 501      152952AA 
 501      A27D1B9C 
 501      413D5B3D 
 502 00c9 A68F5349 		.ascii	"\246\217SI\247\010pxY\274\177\354\345\022Yj\324\362"
 502      A7087078 
 502      59BC7FEC 
 502      E512596A 
 502      D4F2
 503 00db 7226F776 		.ascii	"r&\367v\272\232\"P</\317\276\270\355\324\015\031\323"
 503      BA9A2250 
 503      3C2FCFBE 
 503      B8EDD40D 
ARM GAS  /tmp/ccDRrJMb.s 			page 40


 503      19D3
 504 00ed 6DCC9398 		.ascii	"m\314\223\230\011\245\210p\016\304z8\213U\030\306*\305"
 504      09A58870 
 504      0EC47A38 
 504      8B5518C6 
 504      2AC5
 505 00ff 5B0AE751 		.ascii	"[\012\347Q\307\326=\207\237\026\252\251\336z\246\357"
 505      C7D63D87 
 505      9F16AAA9 
 505      DE7AA6EF 
 506 010f BEFDE199 		.ascii	"\276\375\341\231+\027\326\03459'E\016.\374\356\354("
 506      2B17D61C 
 506      35392745 
 506      0E2EFCEE 
 506      EC28
 507 0121 5C449D78 		.ascii	"\\D\235xL\217}=R\355&\205\275\326'\306\010\\\256,\355"
 507      4C8F7D3D 
 507      52ED2685 
 507      BDD627C6 
 507      085CAE2C 
 508 0136 2739EF3B 		.ascii	"'9\357;X.-\215\2346\346\200\311-\024\226\034\035\316"
 508      582E2D8D 
 508      9C36E680 
 508      C92D1496 
 508      1C1DCE
 509 0149 256B25F8 		.ascii	"%k%\370\257z6\311QD\330\374\364\343\314\033k\316\350"
 509      AF7A36C9 
 509      5144D8FC 
 509      F4E3CC1B 
 509      6BCEE8
 510 015c 978C8118 		.ascii	"\227\214\201\030\377\021\337\332\247\021\031\335lL\245"
 510      FF11DFDA 
 510      A71119DD 
 510      6C4CA5
 511 016b 9230FDAF 		.ascii	"\2220\375\257\226#\014H>\332\202\021#\006|\306\000\344"
 511      96230C48 
 511      3EDA8211 
 511      23067CC6 
 511      00E4
 512 017d DF95843D 		.ascii	"\337\225\204=\037Z\3153\345\274\253\212Z+n\031M!\371"
 512      1F5ACD33 
 512      E5BCAB8A 
 512      5A2B6E19 
 512      4D21F9
 513 0190 34B17068 		.ascii	"4\261ph\005G/\231\217\305 5\330R\024{\262s\325>\211"
 513      05472F99 
 513      8FC52035 
 513      D852147B 
 513      B273D53E 
 514 01a5 05373E38 		.ascii	"\0057>8\306\376dY\\\00639\260R\350p\011\021[\214\212"
 514      C6FE6459 
 514      5C063339 
 514      B052E870 
 514      09115B8C 
 515 01ba B68227F3 		.ascii	"\266\202'\363S\015\264\326N\373\346\262_\234\357\332"
 515      530DB4D6 
 515      4EFBE6B2 
ARM GAS  /tmp/ccDRrJMb.s 			page 41


 515      5F9CEFDA 
 516 01ca E33DCB7E 		.ascii	"\343=\313~j_\371\227v-\306E\3642\370\376\340*\334\004"
 516      6A5FF997 
 516      762DC645 
 516      F432F8FE 
 516      E02ADC04 
 517 01de 2141FE35 		.ascii	"!A\3765\231\327\244N\336QT\324\216\032!\232Ewf\2544"
 517      99D7A44E 
 517      DE5154D4 
 517      8E1A219A 
 517      457766AC 
 518 01f3 E6F956C4 		.ascii	"\346\371V\3042\003\251\374CO.\014Y\206\317w\012\275"
 518      3203A9FC 
 518      434F2E0C 
 518      5986CF77 
 518      0ABD
 519 0205 E1419CE8 		.ascii	"\341A\234\350b\331\232\024\211\024\256IP>\033\232\351"
 519      62D99A14 
 519      8914AE49 
 519      503E1B9A 
 519      E9
 520 0216 1EF1A20D 		.ascii	"\036\361\242\015\\D\\\307 \276r\004\033\023\023\210"
 520      5C445CC7 
 520      20BE7204 
 520      1B131388 
 521 0226 2A561E38 		.ascii	"*V\0368\265Lt\377\252\342\374\246r\321\326d\275he\026"
 521      B54C74FF 
 521      AAE2FCA6 
 521      72D1D664 
 521      BD686516 
 522 023a 694D22CA 		.ascii	"iM\"\312`\226<\304\375`\360\200\014\352\003\274\004"
 522      60963CC4 
 522      FD60F080 
 522      0CEA03BC 
 522      04
 523 024b 05421726 		.ascii	"\005B\027&\207\301=r\025\177>4\215\356\032%\271\263"
 523      87C13D72 
 523      157F3E34 
 523      8DEE1A25 
 523      B9B3
 524 025d BE00648A 		.ascii	"\276\000d\212\357\247\310OM\377\027\205\315\345\306"
 524      EFA7C84F 
 524      4DFF1785 
 524      CDE5C6
 525 026c A2F859CE 		.ascii	"\242\370Y\316\205{\377,\261\375\273\020G\225B~\200\303"
 525      857BFF2C 
 525      B1FDBB10 
 525      4795427E 
 525      80C3
 526 027e 0B7A9E6D 		.ascii	"\013z\236mN\220\027\020\006O\270\030!w\342^\330\336"
 526      4E901710 
 526      064FB818 
 526      2177E25E 
 526      D8DE
 527 0290 6EE9AC9A 		.ascii	"n\351\254\232\206\266\213\364\257\213\363r\301^#\231"
 527      86B68BF4 
 527      AF8BF372 
ARM GAS  /tmp/ccDRrJMb.s 			page 42


 527      C15E2399 
 528 02a0 1BBC6737 		.ascii	"\033\274g7\204`b\342\3353/^6\275\026\316\253hA\270\211"
 528      846062E2 
 528      DD332F5E 
 528      36BD16CE 
 528      AB6841B8 
 529 02b5 B84A909B 		.ascii	"\270J\220\233\242\240D\224\352;\307\263{\205\332\355"
 529      A2A04494 
 529      EA3BC7B3 
 529      7B85DAED 
 530 02c5 BBD5CC41 		.ascii	"\273\325\314A\203\022\364\015\007\275\274\311\012\371"
 530      8312F40D 
 530      07BDBCC9 
 530      0AF9
 531 02d3 3D06EFB2 		.ascii	"=\006\357\262\373\352\306\306\250\377\266v\360\333\262"
 531      FBEAC6C6 
 531      A8FFB676 
 531      F0DBB2
 532 02e2 636BB4A3 		.ascii	"ck\264\243\275)\332\324\274}KSgk\373\276\306&E\333b"
 532      BD29DAD4 
 532      BC7D4B53 
 532      676BFBBE 
 532      C62645DB 
 533 02f7 6DB4ADA5 		.ascii	"m\264\255\245\315\213\265\304v\306vu:m\355\261=\337"
 533      CD8BB5C4 
 533      76C67675 
 533      3A6DEDB1 
 533      3DDF
 534 0309 00170374 		.ascii	"\000\027\003t\273"
 534      BB
 535              		.text
 536              		.section	.gnu.lto__factory_init.7e371e25731746ed,"",%progbits
 537 0000 789C9D97 		.ascii	"x\234\235\227\353S\033U\030\306\367='\220p\247\325o"
 537      EB531B55 
 537      18C6F73D 
 537      279070A7 
 537      D56F
 538 0012 32CA3832 		.ascii	"2\31282\312\214\003\326\317\376\025\375\017*\340\224"
 538      CA8C03D6 
 538      CFFE15FD 
 538      0F2AE094 
 539 0022 191006D4 		.ascii	"\031\020\006\324\031\235q\262\\\266\200\225\202\275"
 539      199D71B2 
 539      5CB68095 
 539      82BD
 540 0030 8060212D 		.ascii	"\200`!-i\012\010)\211H\201biJ\201^\240Ph\351\005Z\245"
 540      690A0829 
 540      89488162 
 540      694A815E 
 540      A05068E9 
 541 0047 5490D252 		.ascii	"T\220\322RI\271\264H \236svW6$g\307%\023&\354\236\335"
 541      49B9B448 
 541      209E7376 
 541      57362467 
 541      C7251326 
 542 005e 739EE7F9 		.ascii	"s\236\347\371\235}\337\304$\200@_\035{\004\341\000\371"
 542      9D7DDFC4 
ARM GAS  /tmp/ccDRrJMb.s 			page 43


 542      2480405F 
 542      1D7B04E1 
 542      00F9
 543 0070 7C8BFC01 		.ascii	"|\213\374\001\026\000U\216\010B\201\005\001\320\177"
 543      1600558E 
 543      08428105 
 543      01D07F
 544 007f 440B0856 		.ascii	"D\013\010V\004VXE\233\010\372J\346\272Qr\243H^\323\216"
 544      04565845 
 544      9B08FA4A 
 544      E6BA5172 
 544      A3485ED3 
 545 0094 8D7D6293 		.ascii	"\215}b\223\007$,\010~\304f\022\240\021\222\005r\331"
 545      07242C08 
 545      7EC46612 
 545      A0119205 
 545      72D9
 546 00a6 8C7BEB44 		.ascii	"\214{\353DLx1\275,Q\036\204&\010\247\313\265\355\367"
 546      4C7831BD 
 546      2C511E84 
 546      2608A7CB 
 546      B5EDF7
 547 00b9 887E7F91 		.ascii	"\210~\177\221(\256~\344L\216\022\204%2H\227\361\"D?"
 547      28AE7EE4 
 547      4C8E1284 
 547      25324897 
 547      F122443F 
 548 00cd F13C147B 		.ascii	"\361<\024{\274\243@/\247\023uw?\2372[7\305RQ\214\227"
 548      BCA3402F 
 548      A7137577 
 548      3F9F325B 
 548      37C55251 
 549 00e3 30F81199 		.ascii	"0\370\021\231\003\232\301J\307\252\244\276Q\363\012"
 549      039AC14A 
 549      C7AAA4BE 
 549      51F30A
 550 00f2 92303919 		.ascii	"\22209\031t)*#\262\350\351\205\341\211\376H\033\324"
 550      74292A23 
 550      B2E8E985 
 550      E189FE48 
 550      1BD4
 551 0104 1588EC3C 		.ascii	"\025\210\354<\206\026\342\345gH`\203G\272\\e\226T'\325"
 551      8616E2E5 
 551      67486083 
 551      47BA5C65 
 551      965427D5 
 552 0118 297E2B61 		.ascii	")~+a\023\264\202\015\266\230\0312z\370VoE\254<\243h"
 552      13B4820D 
 552      B6981932 
 552      7AF8566F 
 552      45AC3CA3 
 553 012d 96701838 		.ascii	"\226p\0308!\225\011\203s`\225p\2700\003\210\036\223"
 553      21950983 
 553      73609570 
 553      B8300388 
 553      1E93
 554 013f 4BC78A5D 		.ascii	"K\307\212]'1\325b\006\0239\364\336\254}\022K\017-\220"
ARM GAS  /tmp/ccDRrJMb.s 			page 44


 554      2731D562 
 554      061339F4 
 554      DEAC7D12 
 554      4B0F2D90 
 555 0153 480E4B8E 		.ascii	"H\016K\216M\336\210\301IL\246\375\366\205\205\270$\273"
 555      4DDE88C1 
 555      494CA6FD 
 555      F68585B8 
 555      24BB
 556 0165 28168A9E 		.ascii	"(\026\212\236\251\012\\#z\212\023%\034\001n\300$(pA"
 556      A90A5C23 
 556      7A8A1325 
 556      1C016EC0 
 556      24287041 
 557 0179 02B45175 		.ascii	"\002\264Qu4\263_ \311\200\261\366\320\306<\233\025o"
 557      34B35F20 
 557      C980B1F6 
 557      D0C63C9B 
 557      156F
 558 018b 4B38127E 		.ascii	"K8\022~e\326 \244\265\010\350P\255\235'\341\316Aa\255"
 558      65D620A4 
 558      B508E850 
 558      AD9D27E1 
 558      CE4161AD 
 559 019f FBE1180E 		.ascii	"\373\341\030\016$)n\3300\225\304X\372\011\257\235\240"
 559      24296ED8 
 559      3095C458 
 559      FA09AF9D 
 559      A0
 560 01b0 A1934C20 		.ascii	"\241\223L @\027K\244g\3317\204h\004\021\020\3177q\372"
 560      40174BA4 
 560      67D93784 
 560      68041110 
 560      CF3771FA 
 561 01c4 7C9F136D 		.ascii	"|\237\023m\233\210\204\013\304D\267b\342\362\342c)V"
 561      9B88840B 
 561      C444B762 
 561      E2F2E263 
 561      2956
 562 01d6 31E13D84 		.ascii	"1\341=\204%\034\005=\314\004\222\227\202\337 \325@>"
 562      251C053D 
 562      CC049297 
 562      82DF20D5 
 562      403E
 563 01e8 17F5F3E9 		.ascii	"\027\365\363\351\325\315\347\222\232\217\207\344\243"
 563      D5CDE792 
 563      9A8F87E4 
 563      A3
 564 01f5 70676168 		.ascii	"pgah6\301|\327`\251\005'3\314\275\245\247\252\303\202"
 564      36C17CD7 
 564      60A90527 
 564      33CCBDA5 
 564      A7AAC382 
 565 0209 3047C3E5 		.ascii	"0G\303\345\020\230\373\014a\276\302\261\341\037}G\302"
 565      1098FB0C 
 565      61BEC2B1 
 565      E11F7D47 
ARM GAS  /tmp/ccDRrJMb.s 			page 45


 565      C2
 566 021a 31D0CF6C 		.ascii	"1\320\317l\340\2206\242a@\2651\310l\024z|q\212\370\206"
 566      E09036A2 
 566      6140B531 
 566      C86C147A 
 566      7C718AF8 
 567 022f 8289A118 		.ascii	"\202\211\241\030\374!\023_5\377z\313\034$>\026\256\206"
 567      FC21135F 
 567      35FF7ACB 
 567      1C243E16 
 567      AE86
 568 0241 107F8D89 		.ascii	"\020\177\215\211\367\372\352:#(\3558x\023\256\2231:"
 568      F7FAEA3A 
 568      2328ED38 
 568      7813AE93 
 568      313A
 569 0253 F7A6FC1C 		.ascii	"\367\246\374\034\223\341\251\372\301\247\321x\037\233"
 569      93E1A9FA 
 569      C1A7D178 
 569      1F9B
 570 0261 7CBCA374 		.ascii	"|\274\243t=<h\362x\270\021b\362\241\235\311\020\227"
 570      3D3C68F2 
 570      78B81162 
 570      F2A19DC9 
 570      1097
 571 0273 A4E0ECF1 		.ascii	"\244\340\354\361#,\333\030&6\346\241dz\305\221\020\270"
 571      232CDB18 
 571      2636E6A1 
 571      647AC591 
 571      10B8
 572 0285 1B3DD7FD 		.ascii	"\033=\327\375\230\336N\365\321\200\225Mk\012\336\264"
 572      98DE4EF5 
 572      D180954D 
 572      6B0ADEB4 
 573 0295 37D9A61D 		.ascii	"7\331\246\035\011Uo\366\372Q\030\033\207Q\271\344\374"
 573      09556FF6 
 573      FA51181B 
 573      8751B9E4 
 573      FC
 574 02a6 5F46B738 		.ascii	"_F\26785\306J\011\215\351\022\032W\011\335&s\220$\265"
 574      35C64A09 
 574      8DE9121A 
 574      5709DD26 
 574      739024B5 
 575 02ba C5250E4C 		.ascii	"\305%\016Lp\207\235R\205X\264aL\320\252\364\306\177"
 575      70879D52 
 575      8558B461 
 575      4CD0AAF4 
 575      C67F
 576 02cc BBB34FB3 		.ascii	"\273\263O\263;i\014\333\007C\201\373\326HI\272kh\257"
 576      3B690CDB 
 576      074381FB 
 576      D64849BA 
 576      6B68AF
 577 02df DEE3ECD5 		.ascii	"\336\343\354\325\232\243\354\221\273\317\2220q\036\271"
 577      9AA3EC91 
 577      BBCF9230 
ARM GAS  /tmp/ccDRrJMb.s 			page 46


 577      711EB9
 578 02ee 076A1293 		.ascii	"\007j\022\223\374\222\324~\006SI\374\2224\305\350>d"
 578      FC92D47E 
 578      065349FC 
 578      9234C5E8 
 578      3E64
 579 0300 3EAF2EB9 		.ascii	">\257.\271jb\345\222\364\036\337\204c\275i\300\244-"
 579      6A62E592 
 579      F41EDF84 
 579      63BD69C0 
 579      A42D
 580 0312 49BF1313 		.ascii	"I\277\023\023\217\024\023\216\361\373\355\346\300\222"
 580      8F14138E 
 580      F1FBEDE6 
 580      C092
 581 0320 F4875A92 		.ascii	"\364\207Z\222\350R0m\250$=\326\317gF7\237'j>\177jJ\322"
 581      E852306D 
 581      A8243DD6 
 581      CF674637 
 581      9F276A3E 
 582 0338 DDDDA39D 		.ascii	"\335\335\243\2355\204v\216#\335&K\377\213I\017\343H"
 582      3584768E 
 582      23DD264B 
 582      FF8B490F 
 582      E348
 583 034a 9F57A53F 		.ascii	"\237W\245?\345\243\275D\320\316\352\241]`h\2371\237"
 583      E5A3BD44 
 583      D0CEEAA1 
 583      5D60689F 
 583      319F
 584 035c 1D439E49 		.ascii	"\035C\236I\263\214\366\003\276\211&\337ZK\264\026\355"
 584      B38CF603 
 584      BE8926DF 
 584      5A4BB416 
 584      ED
 585 036d 2231F15C 		.ascii	"\"1\361\\1q\266\265\317\025\027\210\366\205\212\226"
 585      3171B6B5 
 585      CF151788 
 585      F6858A96 
 586 037d 2E057F1B 		.ascii	".\005\177\033B\273\244\237\217W7\237\227j>\313\032\264"
 586      42BBA49F 
 586      8F57379F 
 586      976A3ECB 
 586      1AB4
 587 038f B381688D 		.ascii	"\263\201h\215t\230\025ChW9\322\335\343\254\303\2541"
 587      74981543 
 587      685739D2 
 587      DDE3ACC3 
 587      AC31
 588 03a1 E9E19CFA 		.ascii	"\351\341\234\372\365J\225\376Z\3510\365{\025\301F\272"
 588      F54A95FE 
 588      5AE930F5 
 588      7B15C146 
 588      BA
 589 03b2 CA3A13DC 		.ascii	"\312:\023\334uq\361c\271\356%\300?JS\261\215\253M\305"
 589      7571F163 
 589      B9EE25C0 
ARM GAS  /tmp/ccDRrJMb.s 			page 47


 589      3F4A53B1 
 589      8DAB4DC5 
 590 03c6 4823D908 		.ascii	"H#\331\010j$\356\361\200F\342\3436\222\262a\023\275"
 590      6A24EEF1 
 590      8046E2E3 
 590      3692B261 
 590      13BD
 591 03d8 9D4AA239 		.ascii	"\235J\2429\362\033\311&\333\217[\334FB\307\301o\254"
 591      F21BC926 
 591      DB8F5BDC 
 591      4642C7C1 
 591      6FAC
 592 03ea 918848A7 		.ascii	"\221\210H\247\221\024 =\020\205H\001QD\346 \351\351"
 592      9114203D 
 592      10854801 
 592      5144E620 
 592      E9E9
 593 03fc 758E6214 		.ascii	"u\216b\024\3209V\264\315b]{\260\261\373\362\"!#{\360"
 593      D03956B4 
 593      CD625D7B 
 593      B0B1FBF2 
 593      2221237B 
 594 0411 5068E39E 		.ascii	"Ph\343\236\036\371\361)a\326\315\234\307\247T\265^\206"
 594      1EF9F129 
 594      61D6CD9C 
 594      C7A754B5 
 594      5E86
 595 0423 B8E5E515 		.ascii	"\270\345\345\025)/D\022\277\274|G\223\205\303\210\372"
 595      292F4412 
 595      BFBC7C47 
 595      9385C388 
 595      FA
 596 0434 1C7CD459 		.ascii	"\034|\324Y\255|\231\375\204oB*\030[\306\332\362RNL|"
 596      AD7C99FD 
 596      846F422A 
 596      185BC6DA 
 596      F2524E4C 
 597 0449 8F6413F5 		.ascii	"\217d\023\365\035w^\206\007\226\227#H)/t)\250@F\312"
 597      1D775E86 
 597      07969723 
 597      48292F74 
 597      29A84046 
 598 045e 4BA57E3E 		.ascii	"K\245~>?\350\346sT\315\347\030\332./4\214]\242=n\010"
 598      3FE8E673 
 598      54CDE718 
 598      DA2E2F34 
 598      8C5DA23D 
 599 0474 ED098EF4 		.ascii	"\355\011\216\3641Yz\025\223n\341H\257V\245\377\310G"
 599      31597A15 
 599      936EE148 
 599      AF56A5FF 
 599      C847
 600 0486 6B77602A 		.ascii	"kw`*\211\217\266\206\241\255eh\033\326\212\312\243d"
 600      898FB686 
 600      A1AD6568 
 600      1BD68ACA 
 600      A364
ARM GAS  /tmp/ccDRrJMb.s 			page 48


 601 0498 B41E9D27 		.ascii	"\264\036\235'\323\327P\345\215\322\262=I\\\374\244\260"
 601      D3D750E5 
 601      8DD2B23D 
 601      495CFCA4 
 601      B0
 602 04a9 75BE286F 		.ascii	"u\276(oF\201l\353T\266t-\2507\304\326\246\037\320)\335"
 602      46816CEB 
 602      54B6742D 
 602      A837C4D6 
 602      A61FD029 
 603 04be 804EAB01 		.ascii	"\200N\253\0015h\330\036\337=[\273!\266g8\322\357\311"
 603      3568D81E 
 603      DF3D5BBB 
 603      21B66738 
 603      D2EFC9
 604 04d1 D21D4C7A 		.ascii	"\322\035Lz\004G\372YUz#\237m\033ak\327c\333\304\330"
 604      0447FA59 
 604      557A239F 
 604      6D1B616B 
 604      D763DBC4 
 605 04e6 3633B603 		.ascii	"63\266\003\345\355\303\012\333~\035\266\366\332\345"
 605      E5EDC30A 
 605      DB7E1DB6 
 605      F6DAE5
 606 04f5 EA382DDB 		.ascii	"\3528-\333\026\352Ba\373\354\332\203\235\337\370ZU\266"
 606      16EA4261 
 606      FBECDA83 
 606      9DDFF85A 
 606      55B6
 607 0507 742D701A 		.ascii	"t-p\032b{N?\2406\335\200\\j@n\015[\232\206\260@:\343"
 607      627B4E3F 
 607      A036DD80 
 607      5C6A406E 
 607      0D5B9A86 
 608 051f D47E3648 		.ascii	"\324~6H_K\344wl\345\210\200\004\341\335\224\224T\371"
 608      5F4BE477 
 608      6CE58880 
 608      04E1DD94 
 608      9454F9
 609 0532 9D934FDE 		.ascii	"\235\223O\336Y\231\237\246\346\347\245\245\246\035\374"
 609      59999FA6 
 609      E6E7A5A5 
 609      A61DFC
 610 0541 EC40DA17 		.ascii	"\354@\332\0279y_\247\244\0118=+\027e\347\232\3623\277"
 610      39795FA7 
 610      A409383D 
 610      2B1765E7 
 610      9AF233BF 
 611 0555 C9B0E4E6 		.ascii	"\311\260\344\346\345|\225\231\236\221\367~\360}\231"
 611      E57C9599 
 611      9E91F77E 
 611      F07D99
 612 0564 9FA7657D 		.ascii	"\237\247e}\231\236A\356\315\316\310\316\315\311\311"
 612      999E41EE 
 612      CDCEC8CE 
 612      CDC9C9
 613 0573 CA4F3928 		.ascii	"\312O9(\374\013\307\343N\356"
ARM GAS  /tmp/ccDRrJMb.s 			page 49


 613      FC0BC7E3 
 613      4EEE
 614              		.text
 615              		.section	.gnu.lto_chFactoryRegisterObject.7e371e25731746ed,"",%progbits
 616 0000 789C9553 		.ascii	"x\234\225S[KTQ\024\336\337\336\3333\343\344-z\365A\""
 616      5B4B5451 
 616      14DEDFDE 
 616      DB33E3E4 
 616      2D7AF541 
 617 0015 11833C14 		.ascii	"\021\203<\024\324?\010z\356\265'\035\214\212jd\014\242"
 617      D43F087A 
 617      EEB5271D 
 617      8C8A6A64 
 617      0CA2
 618 0027 A7D9CECC 		.ascii	"\247\331\316\314\211\221\240\244\241 K\024\242\354f"
 618      8991A0A4 
 618      A1204B14 
 618      A2EC66
 619 0036 6AE6E478 		.ascii	"j\346\344x\353d^ \272KB\210Q\012a\322\203Sj\021\350"
 619      EB645E20 
 619      BA4B4288 
 619      510A61D2 
 619      83536A11 
 620 004b B4F639A3 		.ascii	"\264\3669\243ef\344\346\014\347\354\265\327\267\326"
 620      6566E4E6 
 620      0CE7ECB5 
 620      D7B7D6
 621 005a B7BEFD8D 		.ascii	"\267\276\375\215d`z\035\220\214\355\242\367n\372!\213"
 621      64607A1D 
 621      908CEDA2 
 621      F76EFA21 
 621      8B
 622 006b 81D73D67 		.ascii	"\201\327=g\254\306\313\271\250\037fL\371\344\202\207"
 622      ACC6CBB9 
 622      A81F664C 
 622      F9E48287 
 623 007b A91C01E9 		.ascii	"\251\034\001\351\306%\240?\224\027,\304\205D\010\363"
 623      C625A03F 
 623      94172CC4 
 623      854408F3 
 624 008b 7C91E355 		.ascii	"|\221\343U\264\355\212\230\343\226`\220\264M=\253\237"
 624      B4ED8A98 
 624      E3966090 
 624      B44D3DAB 
 624      9F
 625 009c CAD35BA0 		.ascii	"\312\323[\240\210\266\227\325\353ZOi\263Ra\365~\250"
 625      88B697D5 
 625      EB5A4F69 
 625      B35261F5 
 625      7EA8
 626 00ae 23783E62 		.ascii	"#x>b\355\263\004gi\316p\003\205hF\241n~\023\245\224"
 626      EDB30467 
 626      69CE7003 
 626      856846A1 
 626      6E7E13A5 
 627 00c3 1B9E4C8C 		.ascii	"\033\236L\214A\024\203\321w\323\233\246\223%\3274L\315"
 627      411483D1 
ARM GAS  /tmp/ccDRrJMb.s 			page 50


 627      77D39BA6 
 627      9325D734 
 627      4CCD
 628 00d5 57AA6C4B 		.ascii	"W\252lK\010\334\202\370\035F!\206\333(\241\344O\321"
 628      08DC82F8 
 628      1D462186 
 628      DB28A1E4 
 628      4FD1
 629 00e7 BA58BED8 		.ascii	"\272X\276\330\356\000\307\032\336\365\372\\\244\335"
 629      EE00C71A 
 629      DEF5FA5C 
 629      A4DD
 630 00f5 18DF7349 		.ascii	"\030\337sI\331\322\"\262w\376\004K\206\026\224hD\"\326"
 630      D9D222B2 
 630      77FE044B 
 630      86169468 
 630      4422D6
 631 0108 FD15C274 		.ascii	"\375\025\302t\320\013_\006Fy\361U\007\335\036/$t\264"
 631      D00B5F06 
 631      4679F155 
 631      07DD1E2F 
 631      2474B4
 632 011b 88F8E2EE 		.ascii	"\210\370\342\356j\270^\224=\331\276t!\327\210*ZEhE\261"
 632      6AB85E94 
 632      3DD9BE74 
 632      21D7882A 
 632      5A456845 
 633 0130 1E8BA669 		.ascii	"\036\213\246i\203A\002CGZ\367\333*\235\216\020\225-"
 633      83410243 
 633      475AF7DB 
 633      2A9D8E10 
 633      952D
 634 0142 3FBEF7F8 		.ascii	"?\276\367\370|\244!Q6\230>\363\300a\300f\011\244\205"
 634      7CA42151 
 634      36983EF3 
 634      C061C066 
 634      09A485
 635 0155 4D71AEDF 		.ascii	"Mq\256\337b\032Q\273s\024\272\214n\222L~\036\367\204"
 635      621A51BB 
 635      7314BA8C 
 635      6E924C7E 
 635      1EF784
 636 0168 16554CA9 		.ascii	"\026UL\251\002Kd\245\271\256\335\216\220>\273h\015\274"
 636      024B64A5 
 636      B9AEDD8E 
 636      903EBB68 
 636      0DBC
 637 017a F068B10D 		.ascii	"\360h\261\015\254M5j\205Ks\346\351\233A_#\032j\224\023"
 637      AC4D356A 
 637      854B73E6 
 637      E99B415F 
 637      231A6A94 
 638 018f F7A083EE 		.ascii	"\367\240\203\356\356\236\036\203\016\317v\265\325z\315"
 638      EE9E1E83 
 638      0ECF76B5 
 638      D57ACD
 639 019e 1D96F0E2 		.ascii	"\035\226\360\342>\032\261\3043\263\235y\331\177.\217"
ARM GAS  /tmp/ccDRrJMb.s 			page 51


 639      3E1AB1C4 
 639      33B39D79 
 639      D97F2E8F 
 640 01ae 6A792D91 		.ascii	"jy-\221\215N\230\016\035$\020\262\204\217M\343\264\235"
 640      8D4E980E 
 640      1D2410B2 
 640      848F4DE3 
 640      B49D
 641 01c0 1C153A16 		.ascii	"\034\025:\026\021\306\232\316\233\3224\012\303\003\""
 641      11C69ACE 
 641      9BD2340A 
 641      C30322
 642 01cf 19117203 		.ascii	"\031\021r\003\304\272\326\020k\321\342\332=\361\275"
 642      C4BAD610 
 642      6BD1E2DA 
 642      3DF1BD
 643 01de B0440E92 		.ascii	"\260D\016\222\016C\254fHE\355d|\233%r\321\275\314\263"
 643      0E43AC66 
 643      4845ED64 
 643      7C9B2572 
 643      D1BDCCB3 
 644 01f2 07A10DB4 		.ascii	"\007\241\015\264\355]\247m\237\3236\017}N[\276N\333"
 644      ED5DA76D 
 644      9FD3360F 
 644      7D4E5BBE 
 644      4EDB
 645 0204 7CF42FB7 		.ascii	"|\364/\267}\250\345)`\223\010\253|\307\006t\315$\020"
 645      7DA8E529 
 645      609308AB 
 645      7CC70674 
 645      CD2410
 646 0217 FB80E878 		.ascii	"\373\200\350x$}\335\370%\330\312\315\3214\2603\226J"
 646      247DDDF8 
 646      25D8CACD 
 646      D134B033 
 646      964A
 647 0229 71C1E8AF 		.ascii	"q\301\350\257'>\"\\\237\232\233s\364\245\334o#Ob9\031"
 647      273E225C 
 647      9F9A9B73 
 647      F4A5DC6F 
 647      234F6239 
 648 023e BE6A2779 		.ascii	"\276j'yw3\325pAt:\3217\225\020\372\002%\0369<\365\224"
 648      7733D570 
 648      41743AD1 
 648      379510FA 
 648      02251E39 
 649 0255 18801911 		.ascii	"\030\200\031\021\036\247\246\\q\325\333\177\270\212"
 649      1EA7A65C 
 649      71D5DB7F 
 649      B88A
 650 0263 5078ECBA 		.ascii	"Px\354\272\352\177e\033\374\273\215\206\326\265\321"
 650      EA7F651B 
 650      FCBB8D86 
 650      D6B5D1
 651 0272 F0B24E23 		.ascii	"\360\262N#\256\215f\020\266'\342\271\031U4b\226\344"
 651      AE8D6610 
 651      B627E2B9 
ARM GAS  /tmp/ccDRrJMb.s 			page 52


 651      19553462 
 651      96E4
 652 0284 20B684DE 		.ascii	" \266\204\336ZVf\272O\240\232\236\243\207+\314\352\240"
 652      5A5666BA 
 652      4FA09A9E 
 652      A3872BCC 
 652      EAA0
 653 0296 DFF41F3A 		.ascii	"\337\364\037:X\356?\021\010\236*\3633y\274\374X\245"
 653      58EE3F11 
 653      089E2AF3 
 653      3379BCFC 
 653      58A5
 654 02a8 0C541CA9 		.ascii	"\014T\034\251\022\301@\325O|\343\221\353"
 654      12C140D5 
 654      4F7CE391 
 654      EB
 655              		.text
 656              		.section	.gnu.lto_chFactoryFindObject.7e371e25731746ed,"",%progbits
 657 0000 789C9592 		.ascii	"x\234\225\222KkSA\024\307\347?'\217\333h\252+7f\021"
 657      4B6B5341 
 657      14C7E73F 
 657      278FDB68 
 657      AA2B3766 
 658 0015 84502A34 		.ascii	"\204P*4\371\032\256\375\0065T\024\324H*\210\253L\223"
 658      F91AAEFD 
 658      06355414 
 658      D4482A88 
 658      AB4C93
 659 0028 0C3408BE 		.ascii	"\0144\010\276\212A[K\012\"\365U\233ZM\233V\353\245\350"
 659      8A415B4B 
 659      0A22F555 
 659      9B5A4D9B 
 659      56EBA5E8 
 660 003c CEB7341B 		.ascii	"\316\2674\033\021$\335\224\340\242\365\265\262\215\347"
 660      1124DD94 
 660      E0A2F5B5 
 660      B28DE7
 661 004b DCB46089 		.ascii	"\334\264`\211\212\016s\231\2313\347\361;\377\271>\005"
 661      8A0E7399 
 661      9933E7F1 
 661      3BFFB93E 
 661      05
 662 005c 25632F29 		.ascii	"%c/)\325#+\177 \005}\341\245R\003\216\006dc\034\250"
 662      D5232B7F 
 662      20057DE1 
 662      A552038E 
 662      0664631C 
 663 0071 8C4606DF 		.ascii	"\214F\006\337\364\272\306\233|\371\032}\325\226\335"
 663      F4BAC69B 
 663      7CF91A7D 
 663      D596DD
 664 0080 7C7C5C7B 		.ascii	"||\\{1\274\334)G \312\307\021\363\266\020\354\0367&"
 664      31BCDC29 
 664      4720CAC7 
 664      11F3B610 
 664      EC1E3726 
 665 0094 6B3E3E5B 		.ascii	"k>>[N_\312\331\003\226\264jj\205\233\210`\034\021)q"
ARM GAS  /tmp/ccDRrJMb.s 			page 53


 665      4E5FCAD9 
 665      0396B46A 
 665      6A859B88 
 665      601C1129 
 666 00a9 0BDDEC9B 		.ascii	"\013\335\354\233\255Wj\240\030\024\357\307\226\306N"
 666      AD576AA0 
 666      1814EFC7 
 666      96C64E
 667 00b8 77DD9030 		.ascii	"w\335\2200\363\241\317tX\"\334\006\375\032\306&\205"
 667      F3A1CF74 
 667      5822DC06 
 667      FD1AC626 
 667      85
 668 00c9 3BE812EF 		.ascii	";\350\022\357\312\340\334\027\320~/\362\373\347\305"
 668      CAE0DC17 
 668      D07E2FF2 
 668      FBE7C5
 669 00d8 773A765D 		.ascii	"w:v]B\335R1r\325\270\371(\227\304\335\355\3412\330\273"
 669      42DD5231 
 669      72D5B8F9 
 669      2897C4DD 
 669      EDE132D8 
 670 00ed 3EB57139 		.ascii	">\265q9\034\310\033\036QL &d\014t\017\001V\002b\231"
 670      1CC81B1E 
 670      514C2026 
 670      640C740F 
 670      01560262 
 671 0102 3CE89A66 		.ascii	"<\350\232f3g\334\321=?\2564BAn\214\253\372\225\347\255"
 671      3367DCD1 
 671      3D3FAE34 
 671      42416E8C 
 671      ABFA95E7 
 672 0117 56D95D34 		.ascii	"V\331]4Y\323ZVZA\336\235\256A\022H\372j\365\323\373"
 672      59D35A56 
 672      5A41DE9D 
 672      AE411248 
 672      FA6AF5D3 
 673 012c 6066DD0C 		.ascii	"`f\335\014\032\263\333\222\257\251%\353$2rW\264\213"
 673      1AB3DB92 
 673      AFA925EB 
 673      24327257 
 673      B48B
 674 013e AF82A294 		.ascii	"\257\202\242\224\037\355\256\376\002\265\000\033\317"
 674      1FEDAEFE 
 674      02B5001B 
 674      CF
 675 014b 979E864A 		.ascii	"\227\236\206J\030\0350\236=\200)\026\276,\015\360\345"
 675      181D309E 
 675      3D802916 
 675      BE2C0DF0 
 675      E5
 676 015c B9D972C1 		.ascii	"\271\331r\301I\364X\012\342>J\330\320\233]\235}\275"
 676      49F4580A 
 676      E23E4AD8 
 676      D09B5D9D 
 676      7DBD
 677 016e 70BE9373 		.ascii	"p\276\223s9\226\034L#\341\341\340\0012\226:\324\012"
ARM GAS  /tmp/ccDRrJMb.s 			page 54


 677      39961C4C 
 677      23E1E1E0 
 677      0132963A 
 677      D40A
 678 0180 AC3B5323 		.ascii	"\254;S#\261\345\310\337V9\324\344V\024\0362d\216\350"
 678      B1E5C8DF 
 678      5639D4E4 
 678      56141E32 
 678      648EE8
 679 0193 3FC02A6D 		.ascii	"?\300*m`\023\"\253\031\012X\332\201\031\217\017\333"
 679      601322AB 
 679      190A58DA 
 679      81198F0F 
 679      DB
 680 01a4 F938A5B9 		.ascii	"\3718\245\271\010K;1\273\005Y\025\310\260\252#kvy\317"
 680      084B3B31 
 680      BB055915 
 680      C8B0AA23 
 680      6B7679CF 
 681 01b8 C03233A6 		.ascii	"\30023\246\022a\347\377\",Sa\256%\354\277\002\317\377"
 681      1261E7FF 
 681      222C5361 
 681      AE25ECBF 
 681      02CFFF
 682 01cb 5EC9477F 		.ascii	"^\311G\177T\362\361\026\344BK\311\006\262\356\223bx"
 682      54F2F116 
 682      E4424BC9 
 682      06B2EE93 
 682      6278
 683 01dd 53498958 		.ascii	"SI\211X\345\016\3717\340\350}\361x\2425S\375<\217\035"
 683      E50EF937 
 683      E0E87DF1 
 683      78A23553 
 683      FD3C8F1D 
 684 01f1 3D94E84F 		.ascii	"=\224\350O'\023\311#\207{\223\247R\3513\361\244\362"
 684      2713C923 
 684      877B93A7 
 684      52E933F1 
 684      A4F2
 685 0203 9DE83DDE 		.ascii	"\235\350=\336G\351\324\311\237\027\370\035\216"
 685      47E9D4C9 
 685      9F17F81D 
 685      8E
 686              		.text
 687              		.section	.gnu.lto_chFactoryFindObjectByPointer.7e371e25731746ed,"",%progbits
 688 0000 789C9554 		.ascii	"x\234\225T\337OTG\024\236o\346\376\332\013\002}\361"
 688      DF4F5447 
 688      149E6FE6 
 688      FEDA0B02 
 688      7DF1
 689 0012 8907D284 		.ascii	"\211\007\322\204\030Md\037\214\377C\237\373\322\347"
 689      184D641F 
 689      8CFF439F 
 689      FBD2E7
 690 0021 B2D1D4D6 		.ascii	"\262\321\324\326\004\213\276\370\264#w\257B4\225\332"
 690      048BBEF8 
 690      B42377AF 
ARM GAS  /tmp/ccDRrJMb.s 			page 55


 690      423495DA 
 691 0031 80AD3F62 		.ascii	"\200\255?b\023kl\253\"\253\202.\210\256[(\212\210\""
 691      136B6CAB 
 691      22AB822E 
 691      88AE5B28 
 691      8A8822
 692 0044 B1369A36 		.ascii	"\2616\2326\202\026\177\244QWmMLd=g\356n\241\352\222"
 692      82167FA4 
 692      51576D4D 
 692      4C643D67 
 692      EE6EA1EA 
 693 0059 ECE4EEDE 		.ascii	"\354\344\356\336\271\347\2349\347;\33773\226\200\340"
 693      B9E79C39 
 693      E73BDF37 
 693      339680E0 
 694 0069 91708458 		.ascii	"\221p\204XI\357/\350\207\230\200\354\234\020b\213'\341"
 694      49EF2FE8 
 694      879880EC 
 694      9C10628B 
 694      27E1
 695 007b 441325AD 		.ascii	"D\023%\255\234\022\332\267'\306\204\320\325\026\274"
 695      9C12DAB7 
 695      27C684D0 
 695      D516BC
 696 008a C86E4701 		.ascii	"\310nG\001\027<G*\343\362]\216\253vK\001\036\300\023"
 696      173C472A 
 696      E3F25D8E 
 696      AB764B01 
 696      1EC013
 697 009d ED4124A5 		.ascii	"\355A$\245\262l\307\365\220\224\216\210\306?\362\265"
 697      B26CC7F5 
 697      90948E88 
 697      C63FF2B5 
 698 00ad C464AA77 		.ascii	"\304d\252w\237z!C%`\321g\376\312\236\2735\374\0114\320"
 698      9F7A2143 
 698      2560D167 
 698      FECA9EBB 
 698      35FC0934 
 699 00c2 E75E7DBD 		.ascii	"\347^}\275\303]~X\3536}\347\257'\255\273\202\360\243"
 699      C35D7E58 
 699      EB367DE7 
 699      AF27ADBB 
 699      82F0A3
 700 00d5 50495190 		.ascii	"PIQ\220\002?\242\036\207Q\317\220\177\302r\212}\230"
 700      023FA21E 
 700      8751CF90 
 700      7FC2728A 
 700      7D98
 701 00e7 EA6CAF55 		.ascii	"\352l\257U\215\0204\377m\377\237g\375e\207x\235~\276"
 701      8D1034FF 
 701      6DFF9F67 
 701      FD658778 
 701      9D7EBE
 702 00fa 46C742A5 		.ascii	"F\307B\245\3603\324\302ud\0228\202e\034\336\337>\360"
 702      F033D4C2 
 702      75641238 
 702      82651CDE 
ARM GAS  /tmp/ccDRrJMb.s 			page 56


 702      DF3EF0
 703 010d 1C6A8559 		.ascii	"\034j\205Y\372\357\263\334\224l<\310K\263_\357\256\377"
 703      FAEFB3DC 
 703      946C3CC8 
 703      4BB35FEF 
 703      AEFF
 704 011f 4E67530D 		.ascii	"NgS\015T\023G\377\277\234\007E\317\244\347\272\2268"
 704      541347FF 
 704      BF9C0745 
 704      CFA4E7BA 
 704      9638
 705 0131 294DA301 		.ascii	")M\243\001\307\320\310\320\010Q\017\034\242\026l9\376"
 705      C7D0C8D0 
 705      08510F1C 
 705      A2166C39 
 705      FE
 706 0142 7156170A 		.ascii	"qV\027\012\201\316\026\226\026~\177\345\327B\260UR}"
 706      81CE1696 
 706      167E7FE5 
 706      D742B055 
 706      527D
 707 0154 699BA9CB 		.ascii	"i\233\251\313P\210)\302\0223\006\237\014V\025\377\011"
 707      508829C2 
 707      1233069F 
 707      0C5615FF 
 707      09
 708 0165 F194D23D 		.ascii	"\361\224\322=uD^Jz\251Y\264\015\244\357\205.\347\017"
 708      75445E4A 
 708      7AA959B4 
 708      0DA4EF85 
 708      2EE70F
 709 0178 944DF5BB 		.ascii	"\224M\365\273\303\334U\227\371\262\015\370L\346\357"
 709      C3DC5597 
 709      F9B20DF8 
 709      4CE6EF
 710 0187 DB6EF2B5 		.ascii	"\333n\362\265n\327\272\216l\035*B\371h\374\306\260\177"
 710      6ED7BA8E 
 710      6C1D2A42 
 710      F968FCC6 
 710      B07F
 711 0199 00FBB768 		.ascii	"\000\373\267hcw\320\213$\216s\027\344\374\352Lo\207"
 711      6377D08B 
 711      248E7317 
 711      E4FCEA4C 
 711      6F87
 712 01ab 173FC62D 		.ascii	"\027?\306-\350\002B\345\"\215\003\230\223\305\016Gv"
 712      E80242E5 
 712      228D0398 
 712      93C50E47 
 712      76
 713 01bc 4CFE5072 		.ascii	"L\376Pr\247\235\220\220\236@|N\362\316\301I\304\305"
 713      A79D9090 
 713      9E407C4E 
 713      F2CEC149 
 713      C4C5
 714 01ce 0CDAF497 		.ascii	"\014\332\364\227\246a\202N\240\304\003\244\262]7\301"
 714      A661824E 
ARM GAS  /tmp/ccDRrJMb.s 			page 57


 714      A0C403A4 
 714      B25D37C1 
 715 01de A67721C5 		.ascii	"\246w!\305\012\274\022\247\220\254\004n\337;pW\206\312"
 715      0ABC12A7 
 715      90AC046E 
 715      DF3B7057 
 715      86CA
 716 01f0 47BFC129 		.ascii	"G\277\301)\243E\333\257\235\333YC\271\274PU\3414\342"
 716      A345DBAF 
 716      9DDB5943 
 716      B9BC5055 
 716      E134E2
 717 0203 A63ECE20 		.ascii	"\246>\316 \031\252j\212\310K%h\217\032\012\363\263#"
 717      19AA6A8A 
 717      C84B2568 
 717      8F1A0AF3 
 717      B323
 718 0215 2AA2D05D 		.ascii	"*\242\320]H\2414\024\276\034\035k\257\246\342\304\304"
 718      48A13414 
 718      BE1C1D6B 
 718      AFA6E2C4 
 718      C4
 719 0226 9280B661 		.ascii	"\222\200\266a\246X\367\217\241\273\375\212\353*\014"
 719      A658F78F 
 719      A1BBFD8A 
 719      EB2A0C
 720 0235 98BA0C16 		.ascii	"\230\272\014\026\203\304\3004R\267\202\346b\302@yfo"
 720      83C4C034 
 720      52B782E6 
 720      62C24079 
 720      666F
 721 0247 E4A5257A 		.ascii	"\344\245%zT\244\330\375>;\362\372\013\362ssz\265x\253"
 721      54A4D8FD 
 721      3E3BF2FA 
 721      0BF27373 
 721      7AB578AB 
 722 025b CAA17B6D 		.ascii	"\312\241{m=.W\251\301YS\305\212\272\233\352\324\337"
 722      3D2E57A9 
 722      C15953C5 
 722      8ABA9BEA 
 722      D4DF
 723 026d A2A8C227 		.ascii	"\242\250\302'\241\252\305\020\213`3\204s\004a\026A\367"
 723      A1AAC510 
 723      8B603384 
 723      73046116 
 723      41F7
 724 027f D6E16253 		.ascii	"\326\341bSUQ\241\276m\343i\237\373\252\005p\236\362"
 724      5551A1BE 
 724      6DE3699F 
 724      FBAA0570 
 724      9EF2
 725 0291 13966E23 		.ascii	"\023\226n#K%(\262\213\242\270\360\037\212\034\342T\331"
 725      4B2528B2 
 725      8BA2B8F0 
 725      1F8A1CE2 
 725      54D9
 726 02a3 889FBEA9 		.ascii	"\210\237\276\251\312\212Ob\341\227\312\304\037~\277"
ARM GAS  /tmp/ccDRrJMb.s 			page 58


 726      CA8A4F62 
 726      E197CAC4 
 726      1F7EBF
 727 02b2 F82365C5 		.ascii	"\370#e\305\377\265$\376\350\274\370\266\370~4\022?\375"
 727      FFB524FE 
 727      E8BCF8B6 
 727      F87E3412 
 727      3FFD
 728 02c4 B8ABC853 		.ascii	"\270\253\310S\354m\036\366b\021\".\226#b\210vJ\035."
 728      EC6D1EF6 
 728      6211222E 
 728      96236288 
 728      764A1D2E 
 729 02d8 31137CB3 		.ascii	"1\023|\263a\254x(V\315\037\212\230\301\340\010\272\014"
 729      61AC7828 
 729      56CD1F8A 
 729      98C1E008 
 729      BA0C
 730 02ea 15B9EA44 		.ascii	"\025\271\352Dd\006o\235\333A\272)\302\203\012H\271\\"
 730      64066F9D 
 730      DB41BA29 
 730      C2830A48 
 730      B95C
 731 02fc E60067CC 		.ascii	"\346\000g\314\001\036_x\200K\334PJ\375\015\271?\300"
 731      011E5F78 
 731      804BDC50 
 731      4AFD0DB9 
 731      3FC0
 732 030e 15422830 		.ascii	"\025B(0A2\320x\006\320\251\225;2\323\364\216\331\343"
 732      4132D078 
 732      06D0A995 
 732      3B32D3F4 
 732      8ED9E3
 733 0321 836B08AA 		.ascii	"\203k\010\252+rJ\261\226\347\0279\310\254\345\325\312"
 733      2B724AB1 
 733      96E71739 
 733      C8ACE5D5 
 733      CA
 734 0332 B4BCF67E 		.ascii	"\264\274\366~-'\313jy\275\244\345\324\274\226\036_\205"
 734      2D27CB6A 
 734      79BDA4E5 
 734      D4BC961E 
 734      5F85
 735 0344 8F98C640 		.ascii	"\217\230\306@I\323\201$\362\254\243\203\233Y7w\337\320"
 735      49D38124 
 735      F2ACA383 
 735      9B593777 
 735      DFD0
 736 0356 3ABA3641 		.ascii	":\2726AA\344\374\260\251)\036=-\033\351Y\277\2569\276"
 736      41E4FCB0 
 736      A9291E3D 
 736      2D1BE959 
 736      BFAE39BE 
 737 036a B135114F 		.ascii	"\2615\021O|\266\366\323\304\246\226\326\315M\011a\265"
 737      7CB6F6D3 
 737      C4A696D6 
 737      CD4D0961 
ARM GAS  /tmp/ccDRrJMb.s 			page 59


 737      B5
 738 037b 347FBE41 		.ascii	"4\177\276A\265\266lx\003\234\2713\000"
 738      B5B66C78 
 738      039CB933 
 738      00
 739              		.text
 740              		.section	.gnu.lto_chFactoryReleaseObject.7e371e25731746ed,"",%progbits
 741 0000 789C9554 		.ascii	"x\234\225TYOSA\030\2353sK+P@\364\311\250!&\204\360\000"
 741      594F5341 
 741      189D3373 
 741      4B2B5040 
 741      F4C9A821 
 742 0018 8DD15FE2 		.ascii	"\215\321_\342\243oZ5\232h \350\213O\035h/\224\030\267"
 742      A36F5A35 
 742      9A6820E8 
 742      8B4F1D68 
 742      2F9418B7 
 743 002c 1831A044 		.ascii	"\0301\240D\343\022w\251\342B\253\342\025w\004\\A\205"
 743      E31277A9 
 743      E242ABE2 
 743      1577045C 
 743      4185
 744 003e 98282221 		.ascii	"\230(\"!\350\203D\215\321\004\353\367\315m\243\265\240"
 744      E883448D 
 744      D104EBF7 
 744      CD6DA3B5 
 744      A0
 745 004f 30B9DBCC 		.ascii	"0\271\333\314\2359\347|g\276\371,\001\301\355}\216\020"
 745      9D39E77C 
 745      67BEF92C 
 745      01C1ED7D 
 745      8E10
 746 0061 CBE8BD9C 		.ascii	"\313\350\275\234nx\004\344\256>!j}R\252\304b\241s\255"
 746      6E7804E4 
 746      AE3E216A 
 746      7D52AAC4 
 746      62A173AD 
 747 0075 8180D0F9 		.ascii	"\201\200\320\371\012\226;l\001\374\241}\020!\251,\204"
 747      0A963B6C 
 747      01FCA17D 
 747      1021A92C 
 747      84
 748 0086 F0554E4A 		.ascii	"\360UNJt5\214\306e\371qM\355\215}x\231>\341\300VB$\245"
 748      74358CC6 
 748      65F9714D 
 748      ED8D7D78 
 748      993EE1C0 
 749 009e A110388E 		.ascii	"\241\0208\216r\232\365$\022;\240\276H[\001\026u'z[\336"
 749      729AF524 
 749      123BA0BE 
 749      485B0116 
 749      75277A5B 
 750 00b3 157057A2 		.ascii	"\025pW\242\204\272\227\243\211\317P\245\020\364=R\373"
 750      84BA97A3 
 750      89CF50A5 
 750      10F43D52 
 750      FB
ARM GAS  /tmp/ccDRrJMb.s 			page 60


 751 00c4 750C65C7 		.ascii	"u\014e\307\264\256\323\272\177\255\236c+\205SP\204\207"
 751      B4AED3BA 
 751      7FAD9E63 
 751      2B855350 
 751      8487
 752 00d6 93588813 		.ascii	"\223X\210\023X(hH\3404\312x\372\360\371\237{\3759\021"
 752      58286848 
 752      E034CA78 
 752      FAF0F99F 
 752      7BFD3911 
 753 00ea A62F7149 		.ascii	"\246/qIq\0069\034_\333\012G'\223a\255_/m\256\310#bZ"
 753      7106391C 
 753      5FDB0A47 
 753      279361AD 
 753      5F2F6DAE 
 754 0102 61D15ACB 		.ascii	"a\321Z\313K\017\217\217\037B|\242\025\034\325\204\224"
 754      4B0F8F8F 
 754      1F427CA2 
 754      151CD584 
 754      94
 755 0113 FC566388 		.ascii	"\374Vc\2108{\007\301\030\214\036\217\177\034\362\206"
 755      387B07C1 
 755      188C1E8F 
 755      7F1CF286 
 756 0123 267554EB 		.ascii	"&uT\353\"[\345$%\001\343,B\374\257\311\356z\344\345"
 756      225BE524 
 756      2501E32C 
 756      42FCAFC9 
 756      EE7AE4E5 
 757 0137 18BCC89E 		.ascii	"\030\274\310\236\352m$\017xx\274\247\377v\356A\264\326"
 757      EA6D240F 
 757      7878BCA7 
 757      FF76EE41 
 757      B4D6
 758 0149 6A33EE43 		.ascii	"j3\356C\033\031w\216\202\340\237;:b\215\276@\205\255"
 758      1B19778E 
 758      82E09F3B 
 758      3A628DBE 
 758      4085AD
 759 015c E6208683 		.ascii	"\346 \206\203\370i<\243\361m\217;w\026\020\226\317V"
 759      F8693CA3 
 759      F16D8F3B 
 759      77161096 
 759      CF56
 760 016e B9388F80 		.ascii	"\2718\217\200\221\203\013\010\331*O\214\242\356G\303"
 760      91830B08 
 760      D92A4F8C 
 760      A2EE47C3 
 761 017e F07A1E0B 		.ascii	"\360z\036\013+\353O!\312\010\371v\257;\232\237b\324"
 761      2BEB4F21 
 761      CA08F976 
 761      AF3B9A9F 
 761      62D4
 762 0190 210A333F 		.ascii	"!\0123?L\177\332S\224\307F\352\316y\231\322\217\213"
 762      4C7FDA53 
 762      94C746EA 
 762      CE7999D2 
ARM GAS  /tmp/ccDRrJMb.s 			page 61


 762      8F8B
 763 01a2 86122EE5 		.ascii	"\206\022.\345\320\321\233G\363\210\222\233\227L\302"
 763      D0D19B47 
 763      F388929B 
 763      974CC2
 764 01b1 250428D6 		.ascii	"%\004(\326\313\024\3530$\223\361\3368\037\206\375\252"
 764      CB14EB30 
 764      2493F1DE 
 764      381F86FD 
 764      AA
 765 01c2 DCD034D6 		.ascii	"\334\3204\326no\265J\217\360>9\273[T\263v\"%\274\356"
 765      6E6FB54A 
 765      8FF03E39 
 765      BB5B54B3 
 765      762225BC 
 766 01d7 4AE65E99 		.ascii	"J\346^\231\034\350@)I%\240:\247\3315\227\000\032\366"
 766      1CE84029 
 766      4925A03A 
 766      A7D93597 
 766      001AF6
 767 01ea 0C76FB55 		.ascii	"\014v\373U\205\001;\362,1^\230\005V\200\370\024`\011"
 767      85013BF2 
 767      2C315E98 
 767      055680F8 
 767      146009
 768 01fd 94CEC2EE 		.ascii	"\224\316\302\356\253Yv\237\345\020\235\375-e\266*\304"
 768      AB59769F 
 768      E5109DFD 
 768      2D65B62A 
 768      C4
 769 020e 35E381CC 		.ascii	"5\343\201\314\264\2350Y'\013\270\2366\2773\303\210\261"
 769      B49D3059 
 769      270BB89E 
 769      36BF33C3 
 769      88B1
 770 0220 8EBB519F 		.ascii	"\216\273Q\237Zj\264wF\017\355\363di/\302\215)\264;\263"
 770      5A6AB477 
 770      460FEDF3 
 770      64692FC2 
 770      8D29B43B 
 771 0235 D27E731A 		.ascii	"\322~s\032\355\255\254}.\272\214v5\215\366\"\334Jk\277"
 771      EDADAC7D 
 771      2EBA8C76 
 771      358DF622 
 771      DC4A6BBF 
 772 0249 4DDA296B 		.ascii	"M\332)k\022\023\003\301\314\023\243\333/*\326\304\236"
 772      121303C1 
 772      CC13A3DB 
 772      2F2AD6C4 
 772      9E
 773 025a F22699B3 		.ascii	"\362&\231\263\223$;\376>X\270C8\002w9\345\274\177\246"
 773      93243BFE 
 773      3E58B843 
 773      38027739 
 773      E5BC7FA6 
 774 026e 9C959572 		.ascii	"\234\225\225r\244\334\317\011w/#\341\\\341C;\224\255"
 774      A4DCCF09 
ARM GAS  /tmp/ccDRrJMb.s 			page 62


 774      772F23E1 
 774      5CE1433B 
 774      94AD
 775 0280 8A71DF08 		.ascii	"\212q\337\010\267\\T<\240D\033E\270\251~\004.\201\317"
 775      B75C543C 
 775      A0441B45 
 775      B8A97E04 
 775      2E81CF
 776 0293 E5F8702D 		.ascii	"\345\370p-\366\322\303\034\305HR+D7!R\030Mf\332\314"
 776      F6D2C31C 
 776      C548522B 
 776      44372152 
 776      184D66DA 
 777 02a8 59B59F21 		.ascii	"Y\265\237!\036fp\366 @<\342-\"\203\341\370\242\024-"
 777      1E6670F6 
 777      20403CE2 
 777      2D2283E1 
 777      F8A2142D 
 778 02bc 2D6BFB18 		.ascii	"-k\373\030\377\356gN\017\004zS\2736A\036'\026Si\250"
 778      FFEE674E 
 778      0F047A53 
 778      BB36411E 
 778      27165369 
 779 02d1 2FE299D9 		.ascii	"/\342\231\331\207}^R*\027\267\217\234v\017\345L\367"
 779      877D5E52 
 779      2A17B78F 
 779      9C760FE5 
 779      4CF7
 780 02e3 F8D1BFF3 		.ascii	"\370\321\277\363\363\361\177\362\363Iz\217\237\"4\013"
 780      F3F17FF2 
 780      F3497A8F 
 780      9F22340B 
 781 02f3 D667FFCE 		.ascii	"\326g\377\316\254\347\377\311\254\3764\353\000\227\244"
 781      ACE7FFC9 
 781      ACFE34EB 
 781      0097A4
 782 0302 F9C623CB 		.ascii	"\371\306#\313\324\317\324\0211\311\224>/\234]\277;\016"
 782      D4CFD411 
 782      31C9943E 
 782      2F9C5DBF 
 782      3B0E
 783 0314 77B8CCC6 		.ascii	"w\270\314\306\026L[e-\312\265\027n\225\235iD/\247.\253"
 783      164C5B65 
 783      2DCAB517 
 783      6E959D69 
 783      442FA72E 
 784 0329 AFA62DAB 		.ascii	"\257\246-\253\203\351\030\206\334\262:N\305\251}\245"
 784      83E91886 
 784      DCB23A4E 
 784      C5A97DA5 
 785 0339 19E2F689 		.ascii	"\031\342\366\211\012#\005DK\227TV\006\334\253j3]\033"
 785      0A230544 
 785      4B975456 
 785      06DCAB6A 
 785      335D1B
 786 034c 37AC0E6C 		.ascii	"7\254\016l\256\011\006\202\353\327\255\012n\251\252"
 786      AE090682 
ARM GAS  /tmp/ccDRrJMb.s 			page 63


 786      EBD7AD0A 
 786      6EA9AA
 787 035b D95A1914 		.ascii	"\331Z\031\024\252\246\252Z\255YK\367\306j\271\251\372"
 787      AAA6AA5A 
 787      AD594BF7 
 787      C66AB9A9 
 787      FA
 788 036c 171F146D 		.ascii	"\027\037\024m\231"
 788      99
 789              		.text
 790              		.section	.gnu.lto_chFactoryCreateBuffer.7e371e25731746ed,"",%progbits
 791 0000 789C9593 		.ascii	"x\234\225\223[H\024Q\030\307\317\377\234\331\235\321"
 791      5B481451 
 791      18C7CFFF 
 791      9CD99DD1 
 792 0010 7557BB3C 		.ascii	"uW\273<\305>H \242\220\013\321\253\357=\367TO\241\233"
 792      C53E4820 
 792      A2900BD1 
 792      ABEF3DF7 
 792      544FA19B 
 793 0024 9150191A 		.ascii	"\221P\031\032D\365\260\307\335\235t\273G\030\324\026"
 793      44F5B0C7 
 793      DD9D74BB 
 793      4718D416 
 794 0034 4A2976F3 		.ascii	"J)v\363\226\265j\251\215f\004\335/\330\203\373b\026"
 794      96B56AA9 
 794      8D6604DD 
 794      2FD883FB 
 794      6216
 795 0046 61E28352 		.ascii	"a\342\203R\026\025\272}gf\265L\205:\3140s\316|\377s"
 795      1615BA7D 
 795      6766B54C 
 795      853ACC30 
 795      73CE7CFF 
 796 005b 7EDFFFFB 		.ascii	"~\337\377\373Fc`jl\322\030\333\250\236t\303\305\300"
 796      4663606A 
 796      6CD218DB 
 796      A89E74C3 
 796      C5C0
 797 006d 4F3F67AC 		.ascii	"O?g\254\332\340\\\304\213\231\314\324fr\230\314\022"
 797      DAE05CC4 
 797      8B99CCD4 
 797      667298CC 
 797      12
 798 007e D09C650D 		.ascii	"\320\234e\015P/\322\000\013q\241!\204\031>\313\361*"
 798      502FD200 
 798      0B71A121 
 798      84193ECB 
 798      F12A
 799 0090 DA7E517C 		.ascii	"\332~Q|\341\246`\320h:\375\354\302{\237\232\002\271"
 799      E1A660D0 
 799      683AFDEC 
 799      C27B9F9A 
 799      02B9
 800 00a2 348DCBD7 		.ascii	"4\215\313\3271\275\240Y\312\260\0345\333\016\237\211"
 800      31BDA059 
 800      CAB01C35 
ARM GAS  /tmp/ccDRrJMb.s 			page 64


 800      DB0E9F89 
 801 00b2 989B4DC1 		.ascii	"\230\233M\301Y\2123\\\205\037\315\360\253\263\257\241"
 801      598A335C 
 801      851FCDF0 
 801      ABB3AFA1 
 802 00c2 8062C363 		.ascii	"\200b\303c\211\267\020y`\364\3360\334p \277I\311\344"
 802      89B71079 
 802      60F4DE30 
 802      DC7020BF 
 802      49C9E4
 803 00d5 9B329961 		.ascii	"\2332\231a\012\201\353\020\177\312h\211\341\006\362"
 803      0A81EB10 
 803      7FCA6889 
 803      E106F2
 804 00e4 29F872F5 		.ascii	")\370r\365\360\023\257(\264\2055-}\237|i\345\254\255"
 804      F013AF28 
 804      B485352D 
 804      7D9F7C69 
 804      E5ACAD
 805 00f7 D470F36F 		.ascii	"\324p\363o\245\306\320\202|\025~\362\350\211\321\014"
 805      A5C6D082 
 805      7C157EF2 
 805      E889D10C 
 806 0107 11B0A556 		.ascii	"\021\260\245VMc\257\236wEI\255\237#k\317K+\232K\260"
 806      4D63AF9E 
 806      774549AD 
 806      9F236BCF 
 806      4B2B9A4B 
 807 011c 685D2C57 		.ascii	"h],W\203\242\307:\346\352\274\356\250\244\221\2136\344"
 807      83A2C73A 
 807      E6EABCEE 
 807      A8A4918B 
 807      36E4
 808 012e A99C2895 		.ascii	"\251\234(\225v\270\311\\\250\225\266-\226L\245\"\322"
 808      76B8C95C 
 808      A895B62D 
 808      964CA522 
 808      D2
 809 013f FABEEE78 		.ascii	"\372\276\356x\344s\002\036r\220\200]P\207\353L\205\030"
 809      E473021E 
 809      7290805D 
 809      5087EB4C 
 809      8518
 810 0151 04E3626C 		.ascii	"\004\343bl\212\244\312\333i\316\325S\214#j\245F\240"
 810      8AA4CADB 
 810      69CED553 
 810      8C236AA5 
 810      46A0
 811 0163 365347F5 		.ascii	"6SG\365\364L&\365\320\254\254\2252\307\024\356\024W"
 811      F44C26F5 
 811      D0ACAC95 
 811      32C714EE 
 811      1457
 812 0175 277420A4 		.ascii	"'t \244\276\2353\007_\350\312o\035KC\365\230p`'\236"
 812      BE9D3307 
 812      5FE8CA6F 
 812      1D4B43F5 
ARM GAS  /tmp/ccDRrJMb.s 			page 65


 812      98706027 
 813 018a 0E0F65D6 		.ascii	"\016\017e\326\343R\265\264\327\015tR\371n\251d\224\007"
 813      E352B5B4 
 813      D70D7452 
 813      F96EA964 
 813      9407
 814 019c DDED3123 		.ascii	"\335\3551#\260\301\024\031\270\215z\314\361t\206\307"
 814      B0C11419 
 814      B88D7ACC 
 814      F17486C7 
 815 01ac 5EF69FF2 		.ascii	"^\366\237\362\321^\206)2q\007\001\033\007\011\204L\341"
 815      D15E8629 
 815      32710701 
 815      1B070984 
 815      4CE1
 816 01be 61E33862 		.ascii	"a\3438b\235M\012\265\026\021\372\222\223\263R\224\012"
 816      9D4D0AB5 
 816      1611FA92 
 816      93B35294 
 816      0A
 817 01cf 43174146 		.ascii	"C\027AF\204\366\037`\335K\300Z\224\305V]\262\330\024"
 817      84F61F60 
 817      DD4BC05A 
 817      94C5565D 
 817      B2D814
 818 01e2 5EF4D880 		.ascii	"^\364\330\200X\014H{\022\213\337\024>\334\235\307\274"
 818      580C487B 
 818      128BDF14 
 818      3EDC9DC7 
 818      BC
 819 01f3 875044B8 		.ascii	"\207PD\270L\221\315\306\020\226\331v]\310pbe\357\020"
 819      4C91CDC6 
 819      1096D976 
 819      5DC87062 
 819      65EF10
 820 0206 4D463A13 		.ascii	"MF:\023\356\337\354\013&\322\316\350M\327x\232\013\026"
 820      EEDFEC0B 
 820      26D2CEE8 
 820      4DD7789A 
 820      0B16
 821 0218 2F161F11 		.ascii	"/\026\037\021\376Q\363ur\253\023mP\364\267G\217k\263"
 821      FE51F375 
 821      72AB136D 
 821      50F4B747 
 821      8F6BB3
 822 022b D2CC723B 		.ascii	"\322\314r;U0\207vqd\364\265\351C\270UWn\256B\237\015"
 822      55308776 
 822      7164F4B5 
 822      E943B855 
 822      576EAE42 
 823 0241 CB1DD864 		.ascii	"\313\035\330d\343@\243\207`\325\330FUG?\002\344\320"
 823      E340A387 
 823      60D5D846 
 823      55473F02 
 823      E4D0
 824 0253 7D7288BC 		.ascii	"}r\210\274\224\236\345\213\275:E\024\014\226\355\243"
 824      949EE58B 
ARM GAS  /tmp/ccDRrJMb.s 			page 66


 824      BD3A4514 
 824      0C96EDA3 
 825 0263 8142BF9D 		.ascii	"\201B\277\235\324\032\033O[\350\225\316\344\312\275"
 825      D41A1B4F 
 825      5BE895CE 
 825      E4CABD
 826 0272 42FF3806 		.ascii	"B\3778\006\234^\371\327\032\014.\337\034\017Vl\216\241"
 826      9C5EF9D7 
 826      1A0C2EDF 
 826      1C0F566C 
 826      8EA1
 827 0284 79D71F3A 		.ascii	"y\327\037:\3151\201\260\325\025\367\246\015V\212)r\226"
 827      CD3181B0 
 827      D515F7A6 
 827      0D568A29 
 827      7296
 828 0296 6849BDBE 		.ascii	"hI\275\276\250(\340\\\025Ut\355./\015TU\006\003\301"
 828      A828E05C 
 828      155574ED 
 828      2E2F0D54 
 828      550603C1 
 829 02aa 5D3B4B82 		.ascii	"];K\202\373+*\017\026\005\231\266\267dO\231VU~\250L"
 829      FB2B2A0F 
 829      160599B6 
 829      B7644F99 
 829      56557EA8 
 830 02bf EC28DDF7 		.ascii	"\354(\335\367\013\341\342}>"
 830      0BE1E27D 
 830      3E
 831              		.text
 832              		.section	.gnu.lto_chFactoryFindBuffer.7e371e25731746ed,"",%progbits
 833 0000 789C9592 		.ascii	"x\234\225\222KkSA\024\307\347?'\311MZS]\270\262]\004"
 833      4B6B5341 
 833      14C7E73F 
 833      27C94D5A 
 833      535DB8B2 
 834 0016 21940ACD 		.ascii	"!\224\012\315\375\032\256\375\006m\254(\250\225F\020"
 834      FD1AAEFD 
 834      066DAC28 
 834      A8954610 
 835 0026 71916992 		.ascii	"q\221i\222A\243\370\350\242B}\265\240R_\265\251\217"
 835      41A3F8E8 
 835      A2427DB5 
 835      A0525FB5 
 835      A98F
 836 0038 9A688D17 		.ascii	"\232h\215\027q\351\033\352&PJ\212P\212B\013\026q\221"
 836      71E91BEA 
 836      26504A8A 
 836      508A420B 
 836      167191
 837 004b C6736E5A 		.ascii	"\306snZ\260\304\202\016s\2319\347\236\307\357\374\357"
 837      B0C4820E 
 837      739939E7 
 837      9EC7EFFC 
 837      EF
 838 005c 0D282859 		.ascii	"\015((Y\273H\251n>\333\371\001)\350K\357\225\032\014"
 838      BB48A96E 
ARM GAS  /tmp/ccDRrJMb.s 			page 67


 838      3EDBF901 
 838      29E84BEF 
 838      951A0C
 839 006f 6B402E26 		.ascii	"k@.&\014\225\326HcU\3274>\345\012\327\350\207\266\034"
 839      0C95D648 
 839      6355D734 
 839      3EE50AD7 
 839      E887B61C 
 840 0083 166073E5 		.ascii	"\026`s\345\335\225\20561\201\030\233W\315\347\274\323"
 840      DD958536 
 840      3181189B 
 840      57CDE7BC 
 840      D3
 841 0094 356E4CC6 		.ascii	"5nL\306\314\177-\237\032\312\332\275\226\264\252k\205"
 841      CC7F2D9F 
 841      1ACADABD 
 841      96B4AA6B 
 841      85
 842 00a5 3BE8C038 		.ascii	";\350\3008:\244\305]tql\246:\375\005\024\207\342\373"
 842      3AA4C55D 
 842      74716CA6 
 842      3AFD0514 
 842      87E2FB
 843 00b8 D8ECD889 		.ascii	"\330\354\330\211\316\333\222f^\365\231\210%\302=\320"
 843      CEDB9266 
 843      5EF59988 
 843      25C23DD0 
 844 00c8 9F69EC52 		.ascii	"\237i\354R\270\217N\211\276p\366\374|\204\366\370\231"
 844      B88F4E89 
 844      BE70F6FC 
 844      7C84F6F8 
 844      99
 845 00d9 DEE95B33 		.ascii	"\336\351[3N\374\246\244z\277*;G\214\227\213qK<\330\234"
 845      4EFCA6A4 
 845      7ABF2A3B 
 845      478C978B 
 845      714B3CD8 
 846 00ee 2E8BA3AB 		.ascii	".\213\243\253Sk\303\321P\316\360\212a\002q!c\240\207"
 846      536BC3D1 
 846      50CEF08A 
 846      61027121 
 846      63A087
 847 0101 08B11210 		.ascii	"\010\261\022\020\317\344>\317\324\353Y\343\375l\377"
 847      CFE43ECF 
 847      D4EB59E3 
 847      FD6CFF
 848 0110 5E5C6875 		.ascii	"^\\hux0\356\032T~\264Z\346p\321dEk9i\0219\257V\201\024"
 848      7830EE1A 
 848      547EB45A 
 848      E670D164 
 848      456B3969 
 849 012a 90F2A5D2 		.ascii	"\220\362\245\322\267\212\223\256\2313\306\354\260\024"
 849      B78A93AE 
 849      9933C6EC 
 849      B014
 850 0138 A86BA93A 		.ascii	"\250k\251:\211\264\274\273l_\177pD\251 \232C\203yj\000"
 850      89B4BCBB 
ARM GAS  /tmp/ccDRrJMb.s 			page 68


 850      6C5F7F70 
 850      44A9209A 
 850      4383796A 
 851 014d 2EBD9D7D 		.ascii	".\275\235}\3232\212\353\203\306\367\2070\305\302\027"
 851      D3328AEB 
 851      83C6F787 
 851      30C5C217 
 852 015d 640099BB 		.ascii	"d\000\231\273X\310\207\335nK\016\036a\024kz}\252s\037"
 852      58C887DD 
 852      6E4B0E1E 
 852      61146B7A 
 852      7DAA731F 
 853 0171 CB17DBB8 		.ascii	"\313\027\333\270V\330R\030\217\341\3728x\202\264\245"
 853      56D85218 
 853      8FE1FA38 
 853      7882B4A5 
 854 0181 885A84F5 		.ascii	"\210Z\204\365\206\346H|Y\0126un\251\363(\012O\0312K"
 854      86E6487C 
 854      590A3675 
 854      6EA9F328 
 854      0A4F1932 
 855 0196 F41F60D3 		.ascii	"\364\037`\323M`\023\"\253Y\205\245V<\363\371\260\231"
 855      4D601322 
 855      AB5985A5 
 855      563CF3F9 
 855      B099
 856 01a8 8F4B9A94 		.ascii	"\217K\232\224\245m(n0\226\2041\252\252\310\230\355\376"
 856      A56D286E 
 856      30968431 
 856      AAAAC898 
 856      EDFE
 857 01ba 57609599 		.ascii	"W`\225\231R\211\256\303s[\353\312Px\336\320\365_y_\374"
 857      5289AEC3 
 857      735BEBCA 
 857      5078DED0 
 857      F55F795F 
 858 01cf 5DC8992D 		.ascii	"]\310\231-\205|\271\001Yn\010\271\204\2147r#\272.\244"
 858      857CB901 
 858      596E08B9 
 858      848C3772 
 858      23BA2EA4 
 859 01e3 642CF380 		.ascii	"d,\363\200\374\027p\366\356D\302m\354\376\024\357\303"
 859      FC1770F6 
 859      EE44C26D 
 859      ECFE14EF 
 859      C3
 860 01f4 877ADDD4 		.ascii	"\207z\335\324@\322M\036<\320\223<\336?p2\221T\201\243"
 860      40D24D1E 
 860      3CD0933C 
 860      DE3F7032 
 860      915481A3 
 861 0208 3D47FA68 		.ascii	"=G\372h\177\357\261\337\364\301\035\\"
 861      7FEFB1DF 
 861      F4C11D5C 
 862              		.text
 863              		.section	.gnu.lto_chFactoryReleaseBuffer.7e371e25731746ed,"",%progbits
 864 0000 789C9554 		.ascii	"x\234\225T[KTQ\024\336\353\3543\316x\231q\352\241'\021"
ARM GAS  /tmp/ccDRrJMb.s 			page 69


 864      5B4B5451 
 864      14DEEBEC 
 864      33CE7899 
 864      71EAA127 
 865 0015 0906F141 		.ascii	"\011\006\361AOQ\364C\372\001A\216F\201\240h/\3652\333"
 865      4F51F443 
 865      FA01418E 
 865      4681A068 
 865      2FF532DB 
 866 0029 9939A989 		.ascii	"\2319\251\211\026D\202\341\345AE\273\250ce:\223\332"
 866      164482E1 
 866      E54145BB 
 866      A863653A 
 866      93DA
 867 003b D12C6BF2 		.ascii	"\321,k\362JtAA\314l\210\321\007\007\212(\320i\255}f"
 867      4A744141 
 867      CC6C88D1 
 867      07078A28 
 867      D069AD7D 
 868 0050 C069546C 		.ascii	"\300iTls\256k\357\365}k\255o\355\2552`4:,\214\235\302"
 868      73AE6BEF 
 868      F57D6BAD 
 868      6FEDAD32 
 868      60343A2C 
 869 0067 F759BCC1 		.ascii	"\367Y\274\301\302@\271=\317X\255MQx(\237\211,\365\243"
 869      C240B93D 
 869      CF58AD4D 
 869      5178289F 
 869      892CF5A3 
 870 007b C6440E07 		.ascii	"\306D\016\007\3254\253\000\364!l\300<\012W\301\003?"
 870      D534AB00 
 870      F4216CC0 
 870      3C0A57C1 
 870      033F
 871 008d 951D05A6 		.ascii	"\225\035\005\246\352\"A\245\250W\340X\353\211\236\021"
 871      EA2241A5 
 871      A857E058 
 871      EB899E11 
 872 009d 7D06E89C 		.ascii	"}\006\350\234\261\270\")\030\364B\021\256Z\362\007\332"
 872      B1B82229 
 872      18F44211 
 872      AE5AF207 
 872      DA
 873 00ae F80F45E7 		.ascii	"\370\017E\347\000*\376\306\346\356}u\320\257\002\005"
 873      002AFEC6 
 873      E6EE7D75 
 873      D0AF0205 
 874 00be F8DB7CB3 		.ascii	"\370\333|\263i-\223\273\200\341\367@\370[\233Z\330#"
 874      692D93BB 
 874      80E1F740 
 874      F85B9B5A 
 874      D823
 875 00d0 84578891 		.ascii	"\204W\210\221r\221\251s\016\017\200#\036\334\207<\350"
 875      7291A973 
 875      0E0F8023 
 875      1EDC873C 
 875      E8
ARM GAS  /tmp/ccDRrJMb.s 			page 70


 876 00e1 833C8626 		.ascii	"\203<\206&\006\017\241\220\226\257\017\355\336\265g"
 876      060FA190 
 876      96AF0FED 
 876      DEB567
 877 00f0 F889BEC0 		.ascii	"\370\211\276\300$\205G\220A\371\015\2367D<\356\023b"
 877      24854790 
 877      41F90D9E 
 877      37443CEE 
 877      1362
 878 0102 E9F4A896 		.ascii	"\351\364\250\226\215\304\350\241\242\257j\305\207\305"
 878      8DC4E8A1 
 878      A2AF6AC5 
 878      87C5
 879 0110 460FC6B6 		.ascii	"F\017\306\266\321\203\262\212)\012\275\371w\360\033"
 879      D183B28A 
 879      290ABDF9 
 879      77F01B
 880 011f 9F568130 		.ascii	"\237V\2010\010=\030\334Z\261zvD\275\020N\235g\304\025"
 880      083D18DC 
 880      5AB17A76 
 880      44BD104E 
 880      9D67C415 
 881 0133 04867EF0 		.ascii	"\004\206~\360\320\\\213>\265`\245\034\254\220\276\324"
 881      D05C8B3E 
 881      B560A51C 
 881      AC90BED4 
 882 0143 DA803520 		.ascii	"\332\2005 st\366\303tV'\264\327\012i\267\301 \026n\000"
 882      7374F6C3 
 882      745627B4 
 882      D70A69B7 
 882      C120166E 
 883 0158 93A0C9E6 		.ascii	"\223\240\311\346\321@\203M+\326y&\004\240\023ve\315"
 883      D140834D 
 883      2BD67926 
 883      04A01376 
 883      65CD
 884 016a D0DEB838 		.ascii	"\320\336\2708q\313\201X6\235g\301\020h2\034x\014\036"
 884      71CB8158 
 884      369D67C1 
 884      1068321C 
 884      780C1E
 885 017d 9D67B308 		.ascii	"\235g\263\010x\377\324E\257\223\315\307\325\275\201"
 885      78FFD445 
 885      AF93CDC7 
 885      D5BD81
 886 018c 7019C8AF 		.ascii	"p\031\310\257\231p}N\202Qx0\315\034\037\316<IP\366l"
 886      99707D4E 
 886      82517830 
 886      CD1C1FCE 
 886      3C4950F6 
 887 01a1 7807AC44 		.ascii	"x\007\254Di\207\247\222\022L\312\225\356\311\356l\244"
 887      6987A792 
 887      124CCA95 
 887      EEC9EE6C 
 887      A4
 888 01b2 A461C522 		.ascii	"\244a\305\"\3010h\230\3533\314u\035\024\"\303E\033\306"
 888      C1306898 
ARM GAS  /tmp/ccDRrJMb.s 			page 71


 888      EB33CC75 
 888      1D1422C3 
 888      451BC6
 889 01c5 E6BA9D17 		.ascii	"\346\272\235\027I\232\206\332\246v\325\325E:\031\357"
 889      499A86DA 
 889      A676D5D5 
 889      453A19EF 
 890 01d5 3B78AB30 		.ascii	";x\2530\374\005\3447\222\252\225\354\201Qpa\250\010"
 890      FC05E437 
 890      92AA95EC 
 890      81517061 
 890      A808
 891 01e7 E43556CC 		.ascii	"\3445V\314\342\"@\335\235\345\260\235\027K\260\256\367"
 891      E22240DD 
 891      9DE5B09D 
 891      174BB0AE 
 891      F7
 892 01f8 A1686E1A 		.ascii	"\241hn\032\230\003\202\373\200\205\300\365\037\345~"
 892      980382FB 
 892      8085C0F5 
 892      1FE57E
 893 0207 9E56EE7E 		.ascii	"\236V\356~J\021\3438\247\363\\\030\2235PR\313^o\326"
 893      4A11E338 
 893      A7F35C18 
 893      93355052 
 893      CB5E6FD6 
 894 021b C001E3C9 		.ascii	"\300\001\343\311\322O`\031\260\356\241\241Hij\317\211"
 894      D24F6019 
 894      B0EEA1A1 
 894      48696ACF 
 894      89
 895 022c 91714E11 		.ascii	"\221qN\021Q\212\262\363\342\010\366o[\302\013\304``"
 895      518AB2F3 
 895      E208F66F 
 895      5BC20BC4 
 895      6060
 896 023e 9060D6BD 		.ascii	"\220`\326\275\202\251i\202a\314v\222k2E.3\344\326F\256"
 896      82A96982 
 896      61CC7692 
 896      6B32452E 
 896      33E4D646 
 897 0253 73274CC9 		.ascii	"s'L\311\220\271\211\012/Q\246\010\370Znl\200I`396\307"
 897      90B9890A 
 897      2F51A608 
 897      F85A6E6C 
 897      80496033 
 898 026a 029F2DC4 		.ascii	"\002\237-\304\341\2048\216\\\230FDL\241E.;:\253\260"
 898      E184388E 
 898      5C984644 
 898      4CA1452E 
 898      3B3AABB0 
 899 027e 13C4AB14 		.ascii	"\023\304\253\024\316\327\240!\017\373\002\376e\337\360"
 899      CED7A021 
 899      0FFB02FE 
 899      65DFF0
 900 028d 89042DBA 		.ascii	"\211\004-\272\015n\005\177\333\211\323\002\014f\022"
 900      0D6E057F 
ARM GAS  /tmp/ccDRrJMb.s 			page 72


 900      DB89D302 
 900      0C6612
 901 029c 7AC5D02D 		.ascii	"z\305\320-\224\217\033Kw\322\312\364\255r,\256p\023"
 901      948F1B4B 
 901      77D2CAF4 
 901      AD722CAE 
 901      7013
 902 02ae F70D56D9 		.ascii	"\367\015V\331l\351\243\252\373\366pu\303\207\252\373"
 902      6CE9A3AA 
 902      FBF67075 
 902      C387AAFB 
 903 02be 2EA9EE2C 		.ascii	".\251\356,m\254\3432VU\236\002\211\216\227\242&\333"
 903      6DACE332 
 903      56559E02 
 903      898E97A2 
 903      26DB
 904 02d0 9F54668C 		.ascii	"\237Tf\214\316\207\325\374\003\217\007\025e\2363\217"
 904      CE87D5FC 
 904      038F0715 
 904      659E338F 
 905 02e0 87A3A630 		.ascii	"\207\243\2460\277\377y\260p\340y\260\230\014{\311<\017"
 905      BFFF79B0 
 905      70E079B0 
 905      980C7BC9 
 905      3C0F
 906 02f2 A2B8AB62 		.ascii	"\242\270\253b\027\244\211\3066\356h\314\001]O\226\224"
 906      17A489C6 
 906      36EE68CC 
 906      015D4F96 
 906      94
 907 0303 68E65559 		.ascii	"h\346UY\203W\305\225R\255\246\332\255\271/_\272\350"
 907      8357C595 
 907      52ADA6DA 
 907      ADB92F5F 
 907      BAE8
 908 0315 BE5A597D 		.ascii	"\276ZY}\255\304\315xYi\025/+\307\273\242\352/u\352\371"
 908      ADC4CD78 
 908      5969152F 
 908      2BC7BBA2 
 908      EA2F75EA 
 909 032a F0       		.ascii	"\360"
 910              		.text
 911              		.section	.gnu.lto_chFactoryCreateSemaphore.7e371e25731746ed,"",%progbits
 912 0000 789C9554 		.ascii	"x\234\225T[O\023A\030\2353\263tK[\012^\237\210\022\023"
 912      5B4F1341 
 912      189D33B3 
 912      744B5B0A 
 912      5E9F8812 
 913 0015 42304A5F 		.ascii	"B0J_|%\276\372\254\277\000+F\023\005CM\214O\035\332"
 913      7C25BEFA 
 913      ACBF002B 
 913      46130543 
 913      4D8C4F1D 
 914 002a AE969820 		.ascii	"\256\226\230 1\212\221jJ\"\004o\334\274\000U\241\313"
 914      318A916A 
 914      4A22046F 
 914      DCBC0055 
ARM GAS  /tmp/ccDRrJMb.s 			page 73


 914      A1CB
 915 003c 4550E30D 		.ascii	"EP\343\015\015\276`D\361\022B\214\320D41\201\372\315"
 915      0DBE6044 
 915      F112428C 
 915      D0443431 
 915      81FACD
 916 004f B6A00818 		.ascii	"\266\240\010\030\231\354fwf\2763\347|\347\373v5\006"
 916      99EC6677 
 916      66BE33E7 
 916      7CE7FB76 
 916      3506
 917 0061 A64683C6 		.ascii	"\246F\203\306\230\207\236;\350F\006\003\257y\306X\245"
 917      98879E3B 
 917      E8460603 
 917      AF79C658 
 917      A5
 918 0072 9D731129 		.ascii	"\235s\021)f\322\241\315\3440\351\022\320R\313\032\240"
 918      66D2A1CD 
 918      E430E912 
 918      D052CB1A 
 918      A0
 919 0083 5EA41DCC 		.ascii	"^\244\035\314\317\205\006?f\370,\307p\250\355\242\370"
 919      CF85063F 
 919      66F82CC7 
 919      70A8EDA2 
 919      F8
 920 0094 C60DC1A0 		.ascii	"\306\015\301\240\3214\361\264\356\203[M\201<\232F\344"
 920      D134F1B4 
 920      EE835B4D 
 920      813C9A46 
 920      E4
 921 00a5 CB2ABDB0 		.ascii	"\313*\275\260I\312\200|\367\351\373\2363Ac\227!8Kr\206"
 921      49CA807C 
 921      F7E9FB9E 
 921      33416397 
 921      21384B72 
 922 00ba 2BC84513 		.ascii	"+\310E\023r\025\367U\024Rl`\274\3435D>\030\275\327\217"
 922      7215F755 
 922      14526C60 
 922      BCE33544 
 922      3E18BDD7 
 923 00cf D41F2B68 		.ascii	"\324\037+hT09V*3\015!p\015\342O\030-1\\G\001\005\317"
 923      54303956 
 923      2A330D21 
 923      700DE24F 
 923      182D315C 
 924 00e7 CAB3B56E 		.ascii	"\312\263\265n\261\325\002\366O\275\211\273\025\222\306"
 924      B1D502F6 
 924      4FBD89BB 
 924      1592C6
 925 00f6 F94197AC 		.ascii	"\371A\227\254\201AZo\374\215\325\030\232Q\240\000\346"
 925      81415A6F 
 925      FC8DD518 
 925      9A51A000 
 925      E6
 926 0107 DB9E3A5D 		.ascii	"\333\236:]l\263\300]\341H\304\226\177Y\321\232\261\350"
 926      6CB3C05D 
ARM GAS  /tmp/ccDRrJMb.s 			page 74


 926      E148C496 
 926      7F59D19A 
 926      B1E8
 927 0119 C60BD20C 		.ascii	"\306\013\322\014\345\221\\\264,\206\253A\321\343\355"
 927      E5915CB4 
 927      2C86AB41 
 927      D1E3ED
 928 0128 73E7B26C 		.ascii	"s\347\262l!\305\224\207V\344\253\254(\2316\330\310^"
 928      21C59487 
 928      56E4ABAC 
 928      289936D8 
 928      C85E
 929 013a A895D6DD 		.ascii	"\250\225\326\335\246L&\203\322\354\334\\\035\234\212"
 929      A64C2683 
 929      D2ECDC5C 
 929      1D9C8A
 930 0149 C3491E92 		.ascii	"\303I\036\222d\033S\233:\311\310\260\303\322\301\246"
 930      641B539B 
 930      3AC9C8B0 
 930      C3D2C1A6 
 931 0159 09AADC4D 		.ascii	"\011\252\334Mp\256\236b\002!\263{\014\3520E\025\213"
 931      70AE9E62 
 931      0221B37B 
 931      0CEA3045 
 931      158B
 932 016b 7D19D5FD 		.ascii	"}\031\325\375\2632,e\216!lI\256\030\332\341W{\265F\337"
 932      B3322C65 
 932      8E216C49 
 932      AE18DAE1 
 932      577BB546 
 933 0180 735D39AE 		.ascii	"s]9\256ci\250^%Rb'\237\214\0148\242\270T)\255u;nQ\001"
 933      6369A85E 
 933      25526227 
 933      9F8C0C38 
 933      A2B85429 
 934 019a 6FAA6468 		.ascii	"o\252dh\263\272\253\255\312\356\331n\210L\334F\024s"
 934      B3BAABAD 
 934      CAEED96E 
 934      884CDC46 
 934      1473
 935 01ac 3C9DE1A9 		.ascii	"<\235\341\251\027=\247\335t\226\335\020\016\334\201"
 935      173DA7DD 
 935      7496DD10 
 935      0EDC81
 936 01bb C792830E 		.ascii	"\307\222\203\016\370\015\341d\0238a\016\217\011\265"
 936      F80DE164 
 936      1338610E 
 936      8F09B5
 937 01ca 1614B625 		.ascii	"\026\024\266%\314\256$\245\302\320I\"\203B[\205\260"
 937      CCAE24A5 
 937      C2D04922 
 937      83425B85 
 937      B0
 938 01db AE25C29A 		.ascii	"\256%\302\232\225\305\346\253\350NCd!f\011\304b\201"
 938      95C5E6AB 
 938      E84E4364 
 938      216609C4 
ARM GAS  /tmp/ccDRrJMb.s 			page 75


 938      6281
 939 01ed 74A6391C 		.ascii	"t\2469\034\335d\0107\356\316\313\274\007\377*X\357\257"
 939      DD640837 
 939      EECECBBC 
 939      07FF2A58 
 939      EFAF
 940 01ff C03AA258 		.ascii	"\300:\242X\263\321m\261\362\025Xs\3203\317\032W\346"
 940      B3D16DB1 
 940      F2155873 
 940      D033CF1A 
 940      57E6
 941 0211 AC61E308 		.ascii	"\254a\343\010\310l\253\025\250\322d\017{\217\320h\260"
 941      C86CAB15 
 941      A8D2640F 
 941      7B8FD068 
 941      B0
 942 0222 356EFB6D 		.ascii	"5n\373m\327B\335(\031\230\351\266Jp\301\"\305\3423\002"
 942      D742DD28 
 942      1998E9B6 
 942      4A70C122 
 942      C5E23302 
 943 0236 3F4F7E9D 		.ascii	"?O~\235s\244\242u\212\3761\3648\354J\013\226>j\235\265"
 943      73A4A275 
 943      8AFE31F4 
 943      38EC4A0B 
 943      963E6A9D 
 944 024b 744A0A46 		.ascii	"tJ\012F\273\215\037\003-\272*\340:\364ZJ\323i\2166\364"
 944      BB8D1F03 
 944      2DBA2AE0 
 944      3AF45A4A 
 944      D3698E36 
 945 0260 363849A9 		.ascii	"68I\251\032Nj7\364\201>x\364SQ&\220\261|w\255O*4\006"
 945      1A4E6A37 
 945      F4813E78 
 945      F4535126 
 945      90B17C77 
 946 0279 ACC2E941 		.ascii	"\254\302\351AA\305\337`)\323\026:3\361\217\316\244\177"
 946      41C5DF60 
 946      29D3163A 
 946      33F18FCE 
 946      A47F
 947 028b 0A1EA43A 		.ascii	"\012\036\244:\363\177\275\037\\\276\025\207Vl\305\207"
 947      F37FBD1F 
 947      5CBE1587 
 947      566CC587 
 948 029b F36E3F4A 		.ascii	"\363n?J\265\342$\002\346L4+\355\255BL\223\251\244\226"
 948      B5E22402 
 948      E64C342B 
 948      EDAD424C 
 948      93A9A496 
 949 02af D05B8A8A 		.ascii	"\320[\212\212<\251\253\334G\327\241\203{=\276\012\257"
 949      3CA9ABDC 
 949      47D7A183 
 949      7B3DBE0A 
 949      AF
 950 02c0 C77B607F 		.ascii	"\307{`\177\211\367hy\305\361\"/\323\312J\016\227\242"
 950      89F76879 
ARM GAS  /tmp/ccDRrJMb.s 			page 76


 950      C5F1222F 
 950      D3CA4A0E 
 950      97A2
 951 02d2 4CECF31D 		.ascii	"L\354\363\035\371\005\304\027\247\334"
 951      F905C417 
 951      A7DC
 952              		.text
 953              		.section	.gnu.lto_chFactoryFindSemaphore.7e371e25731746ed,"",%progbits
 954 0000 789C9592 		.ascii	"x\234\225\222\337K\024Q\024\307\357\367\336\331\235"
 954      DF4B1451 
 954      14C7EFF7 
 954      DED99D
 955 000f D1D4EA2D 		.ascii	"\321\324\352-HB\204E\014\334}\355\357\350/\3206\243"
 955      48428445 
 955      0CDC7DED 
 955      EFE82FD0 
 955      36A3
 956 0021 A032DC20 		.ascii	"\2402\334 |\232\353\356^p\0112\202|p\013\205(\3132w"
 956      7C9AEBEE 
 956      5E700932 
 956      827C700B 
 956      8528CB32 
 957 0036 3575376B 		.ascii	"5u7k\033\"\241\207~l\205\365 DL/\"=(\330S\350t\316\254"
 957      1B22A187 
 957      7E6C85F5 
 957      20444C2F 
 957      223D28D8 
 958 004f 42B21575 		.ascii	"B\262\025u\271\303\334\037\347{\316\347|g,\001\301\343"
 958      B9C3DC1F 
 958      E77BCEE7 
 958      7C672C01 
 958      C1E3
 959 0061 8812A28B 		.ascii	"\210\022\242\213\336\207\351\201\022\220W\337\0101\350"
 959      DE87E981 
 959      129057DF 
 959      0831E8
 960 0070 488017DA 		.ascii	"H\200\027\332\201p%\\|\227[\022\357\262\205\033jS\032"
 960      8170255C 
 960      7C975B12 
 960      EFB2851B 
 960      6A531A
 961 0083 0AB368BB 		.ascii	"\012\263h\273\361z\364k\013o\2016\332\346\365\373\234"
 961      F17AF46B 
 961      0B6F8136 
 961      DAE6F5FB 
 961      9C
 962 0094 DD39A175 		.ascii	"\3359\241uZ\177Y\272\32349S\325\015FI\021H\201\273h"
 962      5A7F59BA 
 962      D3343953 
 962      D50D4649 
 962      114881BB 
 963 00a9 C5045AB9 		.ascii	"\305\004Z\271\306=tRp\332\237\377\010\025\203\240\365"
 963      C63D7452 
 963      70DA9FFF 
 963      081583A0 
 963      F5
 964 00ba F8F2F8A5 		.ascii	"\370\362\370\245\216\333\254\323+\275\254Q\230\204\372"
ARM GAS  /tmp/ccDRrJMb.s 			page 77


 964      8EDBACD3 
 964      2BBDAC51 
 964      9884FA
 965 00c9 55464702 		.ascii	"UFG\002\367\321\301\321\336\347\312\250\255\216\206"
 965      F7D1C1D1 
 965      DEE7CAA8 
 965      AD8E86
 966 00d8 CAD2503E 		.ascii	"\312\322P>\037\215\335b\251\267\340w_\313\350\227\332"
 966      1F8DDD62 
 966      A9B7E077 
 966      5FCBE897 
 966      DA
 967 00e9 A29A78B0 		.ascii	"\242\232x\260W\317\203\302\375\342\366\365\346hV\323"
 967      57CF83C2 
 967      FDE2F6F5 
 967      E66856D3 
 968 00f9 68C31462 		.ascii	"h\303\024b\214FD\017\021%/\300'\323\307=\035\004\031"
 968      8C46440F 
 968      11252FC0 
 968      27D3C73D 
 968      1D0419
 969 010c EDCDB517 		.ascii	"\355\315\265\027\207g\227\016\332\324\033\325\215\210"
 969      8767970E 
 969      DAD41BD5 
 969      8D88
 970 011a 305CAC53 		.ascii	"0\\\254S<\333\262!%\277\325*\262\336\242\177\2103p\376"
 970      3CDBB221 
 970      25BFD52A 
 970      B2DEA27F 
 970      883370FE 
 971 012e 72F9DB8A 		.ascii	"r\371\333\212\355n\351!\255\017\030e\005\222\323N\303"
 971      ED6EE921 
 971      AD0F1865 
 971      0592D34E 
 971      C3
 972 013f E5BB11F3 		.ascii	"\345\273\021\363\374\255\315fEP\037\032\311\251\032"
 972      FCADCD66 
 972      45501F1A 
 972      C9A91A
 973 014e E1DAABE5 		.ascii	"\341\332\253\345\027\215c\2709\250\303\363(\212\344"
 973      178D63B8 
 973      39A8C3F3 
 973      288AE4
 974 015d 7D813BA0 		.ascii	"}\201;\240\313+\245B\316It\031ec\006c\330\226;m]\256"
 974      CB2BA542 
 974      CE497419 
 974      65630663 
 974      D8963B6D 
 975 0173 56865B28 		.ascii	"V\206[(\227c\224\203Y$B\034<\202kT\203X\205\361\236"
 975      97639483 
 975      5924421C 
 975      3C826B54 
 975      835885F1 
 976 0188 F9C7F82C 		.ascii	"\371\307\370,\243\"u\225\033\003jE`\216 3J\375\007\330"
 976      A3227595 
 976      1B036A45 
 976      608E2033 
ARM GAS  /tmp/ccDRrJMb.s 			page 78


 976      4AFD07D8 
 977 019c 7C1DD814 		.ascii	"|\035\330\024\373\252\177\300\250}X\010\371\260\227"
 977      FBAA7FC0 
 977      A87D5808 
 977      F9B097
 978 01ab 8F52EA01 		.ascii	"\217R\352\001\243\232P\332e,3c\263\360\221\326\373\303"
 978      A39A50DA 
 978      652C3363 
 978      B3F091D6 
 978      FBC3
 979 01bd CF402E13 		.ascii	"\317@.\023\245`_?\374\305W\202\302\343\232\257\377\312"
 979      A5605F3F 
 979      FCC55782 
 979      C2E39AAF 
 979      FFCA
 980 01cf BBF87B23 		.ascii	"\273\370{#\237\374\321\310\247\273\220\225\232\221k"
 980      9FFCD1C8 
 980      A7BB9095 
 980      9A916B
 981 01de 487B9FFC 		.ascii	"H{\237\374*v\234d\311:uH\277\001\311\333\343\361Dm\366"
 981      2A769C64 
 981      C93A7548 
 981      BF01C9DB 
 981      E3F1446D 
 982 01f3 A5689E3D 		.ascii	"\245h\236=s\"\221\352O&\222\247O\365$/\366\365\017\304"
 982      732291EA 
 982      4F2692A7 
 982      4FF5242F 
 982      F6F50FC4 
 983 0207 93C23ADF 		.ascii	"\223\302:\337s\256W\235L]\370\011o\023 U"
 983      73AE579D 
 983      4C5DF809 
 983      6F132055 
 984              		.text
 985              		.section	.gnu.lto_chFactoryReleaseSemaphore.7e371e25731746ed,"",%progbits
 986 0000 789C9554 		.ascii	"x\234\225T[OSK\030\2355\263\313\336\002\005\274<\370"
 986      5B4F534B 
 986      189D35B3 
 986      CBDE0205 
 986      BC3CF8
 987 0013 A0869810 		.ascii	"\240\206\230\020\303\203T\242\277\304\177\340\251\032"
 987      C38354A2 
 987      BFC47FE0 
 987      A91A
 988 0021 4D341239 		.ascii	"M4\0229/>u\240\335\\\342=F\214\027\242\211\032\357R"
 988      2F3E75A0 
 988      DD5CE23D 
 988      468C17A2 
 988      891AEF52 
 989 0035 C473A4D5 		.ascii	"\304s\244\325\203[TT\024o(*D\243\224\020\203<@\2421"
 989      835B5454 
 989      146F282A 
 989      44A39410 
 989      833C40A2 
 990 004a 9A68CFF7 		.ascii	"\232h\317\367\315n\243\265\020`\262o3{f\255\365\255"
 990      CD6EA3B5 
 990      1060B26F 
ARM GAS  /tmp/ccDRrJMb.s 			page 79


 990      337B66AD 
 990      F5AD
 991 005c F9E6B304 		.ascii	"\371\346\263\004\004\267\361\002!V\323{\015\335\010"
 991      04B7F102 
 991      2156D37B 
 991      0DDD08
 992 006b 08C87D8F 		.ascii	"\010\310}\217\205\250s\244T\311eB\027Z\003!\241\213"
 992      85A873A4 
 992      54C96542 
 992      175A0321 
 992      A18B
 993 007d 152C7FD8 		.ascii	"\025,\177\330\002\370C;\020\021\251,D\360E\376\220\350"
 993      02F8433B 
 993      1011A92C 
 993      44F045FE 
 993      90E8
 994 008f 6E1C4DC8 		.ascii	"n\034M\310\3123\232\332{\367Jq\203v\027\273J\210\264"
 994      CA339ADA 
 994      7BF74A71 
 994      837617BB 
 994      4A88B4
 995 00a2 34140267 		.ascii	"4\024\002gPI\263\236\305\342\307\324g\351*\300\242\356"
 995      5049B39E 
 995      C5E2C7D4 
 995      67E92AC0 
 995      A2EE
 996 00b4 64DF9154 		.ascii	"d\337\221T\011w%\312\251\353\275\353:b\253\012\010\372"
 996      097725CA 
 996      A9EBBDEB 
 996      3A62AB0A 
 996      08FA
 997 00c6 9EE84B34 		.ascii	"\236\350K4\007V\234\326\272^\353\376\015z\236\253\024"
 997      07569CD6 
 997      BA5EEBFE 
 997      0D7A9EAB 
 997      14
 998 00d7 CE43111E 		.ascii	"\316C\021\036\316a\011\316b\211\240!\201\013X\301\323"
 998      CE6109CE 
 998      6289A021 
 998      810B58C1 
 998      D3
 999 00e8 87DB7F1E 		.ascii	"\207\333\177\036\014\026\304\230\276\334'\305E\024p"
 999      0C16C498 
 999      BEDC27C5 
 999      451470
 1000 00f7 7C6D6B3D 		.ascii	"|mk=\235NG\265~[\375\246\335*\"fZb\321b\313\246G\300"
 1000      9D4E47B5 
 1000      7E5BFDA6 
 1000      DD2A2266 
 1000      5A62D162 
 1001 010f E1871013 		.ascii	"\341\207\020\023\264\204\303\232\224\222\337\352#b\336"
 1001      B484C39A 
 1001      9492DFEA 
 1001      2362DE
 1002 011e C1D46206 		.ascii	"\301\324b\006a\370Db|\310\216\374\320MZ\227\271\252"
 1002      61F84462 
 1002      7CC88EFC 
ARM GAS  /tmp/ccDRrJMb.s 			page 80


 1002      D04D5A97 
 1002      B9AA
 1003 0130 202D0919 		.ascii	" -\011\031\227\020\341\177-n\367\023\233\203\260\221"
 1003      9710E17F 
 1003      2D6EF713 
 1003      9B83B091 
 1004 0140 3FD56E26 		.ascii	"?\325n&\023xx\354\321\313;\205\307\321Z\247\315\270"
 1004      137878EC 
 1004      D1CB3B85 
 1004      C7D15AA7 
 1004      CDB8
 1005 0152 833672EE 		.ascii	"\2036r\3562E\301?\367t\306\233\235\320JW\315C\034\307"
 1005      3245C13F 
 1005      F774C69B 
 1005      9DD04A57 
 1005      CD431CC7 
 1006 0166 F1D39846 		.ascii	"\361\323\230F\343;\237v\355-!,\307U\205hG\310\310\301"
 1006      E33B9F76 
 1006      ED2D212C 
 1006      C7558568 
 1006      47C8C8C1 
 1007 017a 15445C55 		.ascii	"\025D\\U$FQ\377\275qx\227\342\301\250\262~W\242\214"
 1007      244651FF 
 1007      BD717897 
 1007      E2C1A8B2 
 1007      7E57A28C 
 1008 018e 92AFF77A 		.ascii	"\222\257\367z\233\2123\224:Bq\026G\351OG\206\363\364"
 1008      9B8A3394 
 1008      3A427116 
 1008      47E94F47 
 1008      86F3F4
 1009 01a1 48FD659B 		.ascii	"H\375e\2339\203\270j8\341s\016\235\272u\252\2108\271"
 1009      3983B86A 
 1009      38E1730E 
 1009      9DBA75AA 
 1009      8838B9
 1010 01b4 D9E412FE 		.ascii	"\331\344\022\376A\210\202\375\227\202\035\206d2\232"
 1010      418882FD 
 1010      97821D86 
 1010      64329A
 1011 01c3 34E27D1A 		.ascii	"4\342}\032\016\252JC\323\\\267\273\325\2528\311;\345"
 1011      0EAA4A43 
 1011      D35CB7BB 
 1011      D5AA38C9 
 1011      3BE5
 1012 01d5 ED4FAD3A 		.ascii	"\355O\255:\254\275X9\257\273\226\273[&\013:QAR\011\250"
 1012      ACBD5839 
 1012      AFBB96BB 
 1012      5B260B3A 
 1012      51415209 
 1013 01ea DE3BECBB 		.ascii	"\336;\354\273K\000\215\007\006{\203j\245\001;\331\237"
 1013      4B008D07 
 1013      067B836A 
 1013      A5013BD9 
 1013      9F
 1014 01fb 1C2BCD03 		.ascii	"\034+\315\003+Ab\012\260$*\346\340\367\365<\277/q\210"
 1014      2B41620A 
ARM GAS  /tmp/ccDRrJMb.s 			page 81


 1014      B0242AE6 
 1014      E0F7F53C 
 1014      BF2F7188 
 1015 020f DED1548D 		.ascii	"\336\321T\215\345\252R\3340&\310\\\343\011\224\205\262"
 1015      E5AA52DC 
 1015      3026C85C 
 1015      E3099485 
 1015      B2
 1016 0220 82FFB2F6 		.ascii	"\202\377\262\366w\3458\361\261\263\247\311Q\325F|W\323"
 1016      77E538F1 
 1016      B1B3A7C9 
 1016      51D5467C 
 1016      57D3
 1017 0232 8943813C 		.ascii	"\211C\201<\361e\2709\205xoN\342oM#\276\325\210\237\217"
 1017      F165B839 
 1017      85786F4E 
 1017      E26F4D23 
 1017      BED5889F 
 1018 0247 6E235E4D 		.ascii	"n#^M#\276\014\267\263\342\357\220xJ\234\344\344@8\367"
 1018      23BE0CB7 
 1018      B3E2EF90 
 1018      784A9CE4 
 1018      E44038F7 
 1019 025b D4E88E9E 		.ascii	"\324\350\216\236j\026\305\256\3626\231\363\223&?\376"
 1019      6A16C5AE 
 1019      F23699F3 
 1019      93263FFE 
 1020 026b 3C5CB84B 		.ascii	"<\\\270K8\002=\234t\366\357Ig\345%\035I\017r\312\335"
 1020      38023D9C 
 1020      74F6EF49 
 1020      67E5251D 
 1020      490F72CA 
 1021 0280 CB49395F 		.ascii	"\313I9_\371\320\036\345\252\005\270o\204[>*\036P\252"
 1021      F9D01EE5 
 1021      AA05B86F 
 1021      845B3E2A 
 1021      1E50AA
 1022 0293 8D22DAD2 		.ascii	"\215\"\332\3220\002\237\300\3619>\335\210\277\0160\307"
 1022      30029FC0 
 1022      F1393EDD 
 1022      88BF0E30 
 1022      C7
 1023 02a4 02A4A995 		.ascii	"\002\244\251\225\242\227\020)\214\0263m\366\254:\310"
 1023      A2971029 
 1023      8C16336D 
 1023      F6AC3AC8 
 1024 02b4 100F7338 		.ascii	"\020\017s8\037!D<\342\003b\203\321\304\322\014--k\033"
 1024      1F21443C 
 1024      E2036283 
 1024      D1C4D20C 
 1024      2D2D6B1B 
 1025 02c8 4F7C0B32 		.ascii	"O|\0132g\000\002}\231m\233$\217\223\313\250:4\224\361"
 1025      6700027D 
 1025      996D9B24 
 1025      8F93CBA8 
 1025      3A3494F1 
 1026 02dc CCFCF3BE 		.ascii	"\314\374\363\2760-\225\217\373\230\234\366\217\345l"
ARM GAS  /tmp/ccDRrJMb.s 			page 82


 1026      302D958F 
 1026      FB989CF6 
 1026      8FE56C
 1027 02eb 37F9C90C 		.ascii	"7\371\311\014\031\372t\206\014}\226\335\344\347\210"
 1027      19FA7486 
 1027      0C7D96DD 
 1027      E4E788
 1028 02fa CC81B67F 		.ascii	"\314\201\266\177\206\334z1Cn\275\314\322\016p]Zd\\\262"
 1028      86DC7A31 
 1028      436EBDCC 
 1028      D20E705D 
 1028      5A645CB2 
 1029 030e 4C11CD9C 		.ascii	"L\021\315\234\022\223N\331#\303\371\365\253\343q\207"
 1029      12934ED9 
 1029      23C3F9F5 
 1029      ABE37187 
 1030 031e 6B6D3C3C 		.ascii	"km<<m\251\265(\333^\371\245v\266!\275\236\272\266\276"
 1030      6DA9B528 
 1030      DB5EF9A5 
 1030      76B621BD 
 1030      9EBAB6BE 
 1031 0332 99B6B60E 		.ascii	"\231\266\266\016fc\030\362k\353\030\025\250\216\224"
 1031      666318F2 
 1031      6BEB1815 
 1031      A88E94
 1032 0341 63C6B84D 		.ascii	"c\306\270MPu\244\210h\355\362\252\252\220\177m\253\245"
 1032      5075A488 
 1032      68EDF2AA 
 1032      AA907F6D 
 1032      ABA5
 1033 0353 6BCBE6BF 		.ascii	"k\313\346\277B\265\333\303\241\360\246\215\353\302\177"
 1033      42B5DBC3 
 1033      A1F0A68D 
 1033      EBC27F
 1034 0362 6FDBBEA3 		.ascii	"o\333\276\243*,\324\372\332\032\265~\003\335[j\344\326"
 1034      2A2CD4FA 
 1034      DA1AB57E 
 1034      03DD5B6A 
 1034      E4D6
 1035 0374 9AFF0179 		.ascii	"\232\377\001y\252s\214"
 1035      AA738C
 1036              		.text
 1037              		.section	.gnu.lto_chFactoryCreateMailbox.7e371e25731746ed,"",%progbits
 1038 0000 789C9554 		.ascii	"x\234\225TIO\024A\024\256\257\252gz6\006\\\343\301\203"
 1038      494F1441 
 1038      14AEAFAA 
 1038      677A3606 
 1038      5CE3C183 
 1039 0014 D1108251 		.ascii	"\321\020\202Q\346\342\225\377@\374\005\"j4q\327\304"
 1039      E6E295FF 
 1039      40FC0522 
 1039      6A3471D7 
 1039      C4
 1040 0025 789A6286 		.ascii	"x\232b\206F\210\211\3422\004\035\215$@peQQqm@\005\011"
 1040      468889E2 
 1040      32041D8D 
 1040      24407065 
ARM GAS  /tmp/ccDRrJMb.s 			page 83


 1040      5151716D 
 1041 003c 229AA007 		.ascii	"\"\232\240\007<(\230\011!\036 \201\020\027\030\337\353"
 1041      3C289809 
 1041      211E2081 
 1041      101718DF 
 1041      EB
 1042 004d 1E150512 		.ascii	"\036\025\005\022\255\364twU\275\357\275\357\325\367"
 1042      ADF47477 
 1042      55BDEFBD 
 1042      EFD5F7
 1043 005c F5180282 		.ascii	"\365\030\002\202\307\264!D\204\236\233\350\007\217\200"
 1043      C7B42144 
 1043      849E9BE8 
 1043      078F80
 1044 006b ACEA17A2 		.ascii	"\254\352\027\242\324'\245J\026\012\0350\246r\204\016"
 1044      D427A54A 
 1044      160A1D30 
 1044      A672840E 
 1045 007b 2918EEB2 		.ascii	")\030\356\262\001\360\213\366AD\2452\020\305\224\234"
 1045      01F08BF6 
 1045      4144A532 
 1045      10C5949C 
 1046 008b 91785DD6 		.ascii	"\221x]\326rAMJK\011\0304\235xy~$\314S`\015M\223\372"
 1046      72414D4A 
 1046      4B091834 
 1046      9D78797E 
 1046      24CC5360 
 1047 00a3 4DA599DF 		.ascii	"M\245\231\337\250uL\177\260\236\204.\337\034\320~KI"
 1047      A8754C7F 
 1047      B09E842E 
 1047      DF1CD07E 
 1047      4B49
 1048 00b5 91960297 		.ascii	"\221\226\002\227\261\032\215X\315\305\257 \237\202c"
 1048      B11A8D58 
 1048      CDC5AF20 
 1048      9F8263
 1049 00c4 C377DE42 		.ascii	"\303w\336B\345B\320{\355`\355\221\274\006\306\351w\333"
 1049      E542D07B 
 1049      ED60ED91 
 1049      BC06C6E9 
 1049      77DB
 1050 00d6 19A37015 		.ascii	"\031\243p\025j.\214\226\004\256!\217\202g\364\331\352"
 1050      6A2E8C96 
 1050      04AE218F 
 1050      8267F4D9 
 1050      EA
 1051 00e7 B05AEF00 		.ascii	"\260Z\357\000\317u&\206\2622\310S\317C\272\012\026\221"
 1051      CF752686 
 1051      B232C853 
 1051      CF43BA0A 
 1051      1691
 1052 00f9 BDFE37D6 		.ascii	"\275\3767\326\020\270\201<\006\330\311t\255T\033\034"
 1052      10B8813C 
 1052      06D8C974 
 1052      AD541B1C 
 1053 0109 705BC564 		.ascii	"p[\305dw \267\216\301\366\267\221\242\323q\335\243\015"
 1053      7720B78E 
ARM GAS  /tmp/ccDRrJMb.s 			page 84


 1053      C1F6B791 
 1053      A2D371DD 
 1053      A30D
 1054 011b E28BA63F 		.ascii	"\342\213\246?\361<(|\270u6\221\345-\3234\326\240\031"
 1054      F13C287C 
 1054      B8753691 
 1054      E52DD334 
 1054      D6A019
 1055 012e B9DC1675 		.ascii	"\271\334\026u\323\002/\0350x\245y\263\255\323\351\270"
 1055      D3022F1D 
 1055      3078A579 
 1055      B3ADD3E9 
 1055      B8
 1056 013f B6BFAC6B 		.ascii	"\266\277\254km\035\357?'\303t\214T\330C\024<^\276\231"
 1056      6D1DEF3F 
 1056      27C3748C 
 1056      54D84314 
 1056      3C5EBE99 
 1057 0153 E026FC82 		.ascii	"\340&\374\202\243\003\264\340\015\322\315\024b\234R"
 1057      A303B4E0 
 1057      0DD2CD14 
 1057      629C52
 1058 0162 F1794F48 		.ascii	"\361yOH\311O5\2122;=\262\212\223s\351\366\366\317Cf"
 1058      C94F358A 
 1058      323B3DB2 
 1058      8A9373E9 
 1058      F6F6CF43 
 1059 0177 74465768 		.ascii	"tFWh\235c)_Zr\305VDy\257\332\352|e\262\006~\314\017"
 1059      9D63295F 
 1059      5A72C556 
 1059      4479AFDA 
 1059      EA7C65B2 
 1060 018f F5572A97 		.ascii	"\365W*\227\374X\337\340\323\300%\\,\325\316z\000\267"
 1060      FC58DFE0 
 1060      D3C0255C 
 1060      2CD5CE7A 
 1060      00B7
 1061 01a1 48D29BDC 		.ascii	"H\322\233\334\034m\236\270\327R\351\213l\264T\020\267"
 1061      1C6D9EB8 
 1061      D752E98B 
 1061      6CB45410 
 1061      B7
 1062 01b2 7109B332 		.ascii	"q\011\2632\323\361\361\201\307'\303\224\313g\251\020"
 1062      D3F1F181 
 1062      C727C394 
 1062      CB67A910 
 1063 01c2 DA1071E8 		.ascii	"\332\020q\350\340\016\242\226\312\022)\304\253\313\373"
 1063      E00EA296 
 1063      CA1229C4 
 1063      ABCBFB
 1064 01d1 6BBAC2BC 		.ascii	"k\272\302\274\032W\236\270bG\314\274/\235\225\314\306"
 1064      1A579EB8 
 1064      6247CCBC 
 1064      2F9D95CC 
 1064      C6
 1065 01e2 8330EE52 		.ascii	"\2030\356R~\012;\357uC8j\256\207<0p\217BFQ\256\263\335"
 1065      7E0A3BEF 
ARM GAS  /tmp/ccDRrJMb.s 			page 85


 1065      7543386A 
 1065      AE873C30 
 1065      708F4246 
 1066 01fa 10FFBC0E 		.ascii	"\020\377\274\016\302i:\022\201vj6\256\314\377h\360\376"
 1066      C2693A12 
 1066      81766A36 
 1066      AECCFF68 
 1066      F0FE
 1067 020c BC066FB0 		.ascii	"\274\006o\260tv\"\265\305\264T6\0368\235\342\317N)\251"
 1067      747622B5 
 1067      C5B45436 
 1067      1E389DE2 
 1067      CF4E29A9 
 1068 0220 7D2655A4 		.ascii	"}&U\244,\225\203\207?\033~\204(\221\267\324\0221\214"
 1068      2C958387 
 1068      3F1B7E84 
 1068      2891B7D4 
 1068      12318C
 1069 0233 98CB94F5 		.ascii	"\230\313\224\365#\266\342#\312\206\342w\373\212\177"
 1069      23B6E223 
 1069      CA86E277 
 1069      FB8A7F
 1070 0242 B3FF2507 		.ascii	"\263\377%\007\245\306\343\214{&\244\022\311B\225B\354"
 1070      A5C6E38C 
 1070      7B26A412 
 1070      C9429542 
 1070      EC
 1071 0253 EBB1D99A 		.ascii	"\353\261\331\232:\270\341\001\012\237\356\356\255\010"
 1071      3AB8E101 
 1071      0A9FEEEE 
 1071      AD08
 1072 0261 6568EB03 		.ascii	"eh\353\003d\206\245\224\306\305\321n\303\247X\223\311"
 1072      6486A594 
 1072      C6C5D16E 
 1072      C3A75893 
 1072      C9
 1073 0272 C22CC313 		.ascii	"\302,\303\023\207\256t\351\016\325w\324\007\211.\217"
 1073      87AE74E9 
 1073      0ED577D4 
 1073      07892E8F 
 1074 0282 20B90836 		.ascii	" \271\0106\350\323F\007\035\222S\343\273r+\004\377\256"
 1074      E8D34607 
 1074      1D9253E3 
 1074      BB722B04 
 1074      FFAE
 1075 0294 90C0A225 		.ascii	"\220\300\242%\226\243\323)\241\346\227 \275Mt9%\236"
 1075      96A3D329 
 1075      A1E69720 
 1075      BD4D7439 
 1075      259E
 1076 02a6 5209D62B 		.ascii	"R\011\326+\270\2605W\244\031\217g\216Z\001\"@\256\260"
 1076      B8B03557 
 1076      A4198F67 
 1076      8E5A0122 
 1076      40AEB0
 1077 02b9 D44AE708 		.ascii	"\324J\347\010\214_\316nK-\356l\372\227\302s\327\331"
 1077      8C5FCE6E 
ARM GAS  /tmp/ccDRrJMb.s 			page 86


 1077      4B2DEE6C 
 1077      FA97C273 
 1077      D7D9
 1078 02cb FFAA74F7 		.ascii	"\377\252t\367\302V\356Y\324\312/~*\333\353Zy\0141\273"
 1078      C256EE59 
 1078      D4CA2F7E 
 1078      2ADBEB5A 
 1078      790C31BB 
 1079 02df 3D359091 		.ascii	"=5\220\221\305\317\220q\222\217\350\022|mAA\304\275"
 1079      C5CF9071 
 1079      928FE812 
 1079      7C6D4141 
 1079      C4BD
 1080 02f1 F61DA26B 		.ascii	"\366\035\242k\367\256\255\221C\007K\"%;w\024\227\034"
 1080      F7AEAD91 
 1080      43074B22 
 1080      253B7714 
 1080      971C
 1081 0303 DE77F068 		.ascii	"\336w\360hA\2110\366\026\357\331\216\275j\333\236\375"
 1081      418930F6 
 1081      16EFD98E 
 1081      BD6ADB9E 
 1081      FD
 1082 0314 3F00D411 		.ascii	"?\000\324\021\274\011"
 1082      BC09
 1083              		.text
 1084              		.section	.gnu.lto_chFactoryFindMailbox.7e371e25731746ed,"",%progbits
 1085 0000 789C9592 		.ascii	"x\234\225\222\355K\024Q\024\306\357s\357\354\316\270"
 1085      ED4B1451 
 1085      14C6EF73 
 1085      EFECCEB8 
 1086 0010 A9D5B720 		.ascii	"\251\325\267 \011\01161p\347k\177F\364\037\330f\024"
 1086      09093631 
 1086      70E76B7F 
 1086      46F41FD8 
 1086      6614
 1087 0022 648616D1 		.ascii	"d\206\026\321\247\271\356\356\005\227\350\205\242\202"
 1087      A7B9EEEE 
 1087      0597E885 
 1087      A282
 1088 0030 B6702142 		.ascii	"\266p!B{1WKs\263d\210\240>\224m\205}\351Kl\340\212\004"
 1088      7B31574B 
 1088      73B36488 
 1088      A03E946D 
 1088      857DE94B 
 1089 0048 B9604484 		.ascii	"\271`D\204N\347\314*$\233P\227;\314}9\3179\277\363\314"
 1089      4EE7CC2A 
 1089      249B5097 
 1089      3BCC7D39 
 1089      CF39BFF3 
 1090 005d 580282C7 		.ascii	"X\002\202\307.%D\007\275w\322\003% /\316\012\321\357"
 1090      2E254407 
 1090      BD77D203 
 1090      25202FCE 
 1090      0AD1EF
 1091 0070 488017DA 		.ascii	"H\200\027\332\201\360$<|\227+\022\3572\205\033jY\032"
 1091      81F0243C 
ARM GAS  /tmp/ccDRrJMb.s 			page 87


 1091      7C972B12 
 1091      EF32851B 
 1091      6A591A
 1092 0083 0AB3685B 		.ascii	"\012\263h[}s\375K3o\201V\332\346\364\373\254\335>\244"
 1092      7D73FD4B 
 1092      336F8156 
 1092      DAE6F4FB 
 1092      ACDD3EA4 
 1093 0097 754A7F36 		.ascii	"uJ\1776\337\032\207\307K\272\301()\002)0\214\026\014"
 1093      DF1A87C7 
 1093      4BBAC128 
 1093      29022930 
 1093      8C160C
 1094 00aa A1856BDC 		.ascii	"\241\205k\334A;\005\247\312\223\037\241\342\020\264"
 1094      413B05A7 
 1094      CA931FA1 
 1094      E210B4
 1095 00b9 CECFE54F 		.ascii	"\316\317\345O\267\335f\235\376\320\305\032\205\273P"
 1095      B7DD669D 
 1095      FED0C51A 
 1095      85BB50
 1096 00c8 7FCAE848 		.ascii	"\177\312\350H\340\036\3328\332\317\005y\251\366\206"
 1096      E01EDA38 
 1096      DACF0579 
 1096      A9F686
 1097 00d7 CA8981E5 		.ascii	"\312\211\201\345\227\261\370-\226\372\277\346\367_J"
 1097      97B1F82D 
 1097      96FABFE6 
 1097      F75F4A
 1098 00e6 EB57DAA2 		.ascii	"\353W\332\242\232\270\277Q\317\203\302\313c\253W\232"
 1098      9AB8BF51 
 1098      CF83C2CB 
 1098      63AB579A 
 1099 00f6 A2194DA3 		.ascii	"\242\031M\243\025#\2103\032\021=@\224\274\000\237\214"
 1099      15238833 
 1099      1A113D40 
 1099      94BC009F 
 1099      8C
 1100 0107 1EF07510 		.ascii	"\036\360u\020\244\265\377sO\365\334\364\354v\233z\243"
 1100      A4B5FF73 
 1100      4FF5DCF4 
 1100      EC769B7A 
 1100      A3
 1101 0118 BA111186 		.ascii	"\272\021\021\206\213%\212g[\252R\362[- \343\007\363"
 1101      8B258A67 
 1101      5BAA52F2 
 1101      5B2D20E3 
 1101      07F3
 1102 012a 3B3803E7 		.ascii	";8\003\347/\026\277~\262\275\025=\240\3656\243\254@"
 1102      2F16BF7E 
 1102      B2BD153D 
 1102      A0F536A3 
 1102      AC40
 1103 013c 72DA5178 		.ascii	"r\332Qx|w\325<\177k\263Y\021\324\207F\262\252F\270\370"
 1103      7C77D53C 
 1103      7F6BB359 
 1103      11D48746 
ARM GAS  /tmp/ccDRrJMb.s 			page 88


 1103      B2AA46B8 
 1104 0151 7AEE456C 		.ascii	"z\356El\0207\373ux\036\305\030y_\340\016\350\362\374"
 1104      1037FB75 
 1104      781EC518 
 1104      795FE00E 
 1104      E8F2FC
 1105 0164 5421EBB8 		.ascii	"T!\353\270\035F\331\030\307 V\345Z[gK3\027\232)\227"
 1105      1D46D918 
 1105      C72056E5 
 1105      5A5B674B 
 1105      33179A29 
 1106 0179 63948387 		.ascii	"c\224\203\207pC\034<\202gT\203X\200\361/W\366\361YZ"
 1106      70431C3C 
 1106      82675483 
 1106      5880F12F 
 1106      57F6F159 
 1107 018e 45EA2AC7 		.ascii	"E\352*\307\002jE`\202 \323J\375\007\330d\035\330\010"
 1107      026A4560 
 1107      8220D34A 
 1107      FD07D864 
 1107      1DD808
 1108 01a1 FBAA7FC0 		.ascii	"\373\252\177\300\250-x\034\362a#\037\245\324\247\214"
 1108      A82D781C 
 1108      F261231F 
 1108      A5D4A78C 
 1109 01b1 6AC4D43A 		.ascii	"j\304\324:c\221\031\233D\031)\2755\374\014\3442Q\012"
 1109      6391199B 
 1109      441929BD 
 1109      35FC0CE4 
 1109      32510A
 1110 01c4 F6F55A65 		.ascii	"\366\365Zes_\011\012Oj\276\376+\357\364\337\215|\272"
 1110      735F090A 
 1110      4F6ABEFE 
 1110      2BEFF4DF 
 1110      8D7CBA
 1111 01d7 A991CFD6 		.ascii	"\251\221\317\326!gjF.\"\345\347*%\2549\311\222%\352"
 1111      21676A46 
 1111      2E22E5E7 
 1111      2A25AC39 
 1111      C99225EA 
 1112 01eb 907E0392 		.ascii	"\220~\003\222\357N$\334\332\354\351\243y\354\350A\267"
 1112      EF4E24DC 
 1112      DAECE9A3 
 1112      79ECE841 
 1112      B7
 1113 01fc AF37E926 		.ascii	"\2577\351&\217\034\356L\236\354\351=\223H\012\353xg"
 1113      8F1CEE4C 
 1113      9EECE93D 
 1113      93480AEB 
 1113      7867
 1114 020e 77973AD4 		.ascii	"w\227:\324}\3427\347\022!M"
 1114      7DE237E7 
 1114      12214D
 1115              		.text
 1116              		.section	.gnu.lto_chFactoryReleaseMailbox.7e371e25731746ed,"",%progbits
 1117 0000 789C9554 		.ascii	"x\234\225T[OSA\020\336\331=\245\005Z\250>\030\036\010"
 1117      5B4F5341 
ARM GAS  /tmp/ccDRrJMb.s 			page 89


 1117      10DED93D 
 1117      A5055AA8 
 1117      3E181E08 
 1118 0014 21260DE1 		.ascii	"!&\015\341\001\012\211\277\304\177 \005\305\004\003"
 1118      010A89BF 
 1118      C47F2005 
 1118      C50403
 1119 0023 015F7CEA 		.ascii	"\001_|\352B{\270\204xI\214$\250\210\011\020T\004\212"
 1119      427BB884 
 1119      78498C24 
 1119      A8880910 
 1119      54048A
 1120 0036 88D28258 		.ascii	"\210\322\202X\020D\221\2331\030\0055\210\244\030\340"
 1120      1044919B 
 1120      31180535 
 1120      88A418E0 
 1121 0046 01BCC440 		.ascii	"\001\274\304@\002ufO\233P\013\212\233s\235\335\371\276"
 1121      0275664F 
 1121      9B500B8A 
 1121      9B739DDD 
 1121      F9BE
 1122 0058 99F97647 		.ascii	"\231\371vGc\300h\264\230\030\313\303\367\011\274\301"
 1122      63C068B4 
 1122      9818CBC3 
 1122      F709BCC1 
 1123 0068 C4805F99 		.ascii	"\304\200_\231f\254\322\302\271\010d0\231\244\275u2i"
 1123      66ACD2C2 
 1123      B9086430 
 1123      99A4BD75 
 1123      3269
 1124 007a 15A01966 		.ascii	"\025\240\031f\015\200>\244\005\230\233\013\015\334\360"
 1124      0D803EA4 
 1124      05989B0B 
 1124      0DDCF0
 1125 0089 93EF7018 		.ascii	"\223\357p\030\251\011\371yv\273\304\2618\266m\255\226"
 1125      A909F979 
 1125      76BBC4B1 
 1125      38B66DAD 
 1125      96
 1126 009a 7A9A2E18 		.ascii	"z\232.\030\013sE\301\240\035\262q\325k\257\357\246\370"
 1126      0B7345C1 
 1126      A01DB271 
 1126      D56BAFEF 
 1126      A6F8
 1127 00ac C17501A0 		.ascii	"\301u\001\240\341\357\346\324\365/)\364\313!\023\177"
 1127      E1EFE6D4 
 1127      F52F29F4 
 1127      CB21137F 
 1128 00bc 8337C2B7 		.ascii	"\2037\302\267\271p\000\303\357\017\213\035\237\254Y"
 1128      B97000C3 
 1128      EF0F8B1D 
 1128      9FAC59
 1129 00cb 6D525649 		.ascii	"mRVI9P$\023u!\340\036\010\304\203\273\220\016w \235"
 1129      39502413 
 1129      7521E01E 
 1129      08C483BB 
 1129      900E7720 
ARM GAS  /tmp/ccDRrJMb.s 			page 90


 1130 00e0 A1894107 		.ascii	"\241\211A\007d\321\362\245\236\335k\266\004/\321g\032"
 1130      64D1F2A5 
 1130      9EDD6BB6 
 1130      042FD167 
 1130      1A
 1131 00f1 A4701F12 		.ascii	"\244p\037\022(\277\356\223A\031\016{\244\234\313\337"
 1131      28BFEE93 
 1131      41190E7B 
 1131      A49CCBDF 
 1132 0101 EAD59291 		.ascii	"\352\325\222\221\031]4t\326\314\3700Y\350\301\330\006"
 1132      195D3474 
 1132      D6CCF830 
 1132      59E8C1D8 
 1132      06
 1133 0112 BA505A9B 		.ascii	"\272PZ\233\234\323[|\005o\360\375J\032\201\020\274\337"
 1133      9CD35B7C 
 1133      056FF0FD 
 1133      4A1A8110 
 1133      BCDF
 1134 0124 BFBE6076 		.ascii	"\277\276`v\357\310Z)\355\272H\010sD\206Np\323\\\203"
 1134      EFC85A29 
 1134      EDBA4808 
 1134      7344864E 
 1134      70D35C83 
 1135 0138 3E3263A6 		.ascii	">2c\246$\314\020\277\324\\\207E \363\352\344\334hR3"
 1135      24CC10BF 
 1135      D45C8745 
 1135      20F3EAE4 
 1135      DC685233 
 1136 014c 34554A65 		.ascii	"4UJe\267@7V\256\013\263\240\311K\375\276:\2133G\027"
 1136      B7403756 
 1136      AE0BB3A0 
 1136      C94BFDBE 
 1136      3A8B3347 
 1137 0161 89E08366 		.ascii	"\211\340\203f\330UEC{\375\354\320\345\024\304\262\350"
 1137      D8554543 
 1137      7BFDECD0 
 1137      E514C4B2 
 1137      E8
 1138 0172 22097AC0 		.ascii	"\"\011z\300\251\302\201\007\340\326E2\013A\325v\315"
 1138      A9C28107 
 1138      E0D64532 
 1138      0B41D576 
 1138      CD
 1139 0183 B75B828C 		.ascii	"\267[\202\214\036\241\355\215D\250H~\215O\324Z#\224"
 1139      1EA1ED8D 
 1139      44A8487E 
 1139      8D4FD45A 
 1139      2394
 1140 0195 D28D795A 		.ascii	"\322\215yZ=8\323\033\341l[\256\3522\023\247\015\036"
 1140      3D38D31B 
 1140      E16C5BAE 
 1140      EA3213A7 
 1140      0D1E
 1141 01a7 2A4E3038 		.ascii	"*N08\027Z\207[\223\221\223\206\031\253\004}\340\304"
 1141      175A875B 
 1141      93919386 
ARM GAS  /tmp/ccDRrJMb.s 			page 91


 1141      19AB047D 
 1141      E0C4
 1142 01b9 641F61B2 		.ascii	"d\037a\262K\300\211\014\027-\007\327\226l\"[\321\324"
 1142      4BC0890C 
 1142      172D07D7 
 1142      966C225B 
 1142      D1D4
 1143 01cb 555E6CD2 		.ascii	"U^l\322\034-\244Tpn%\257Q\006\275\231\344\3678V-\265"
 1143      1C2DA454 
 1143      706E25AF 
 1143      5106BD99 
 1143      E4F73856 
 1144 01e1 0BFAC181 		.ascii	"\013\372\301\201\241\"PU\360\243Q]\004\250\271:?a\023"
 1144      A1225055 
 1144      F0A3515D 
 1144      04A8B93A 
 1144      3F6113
 1145 01f4 390AACE5 		.ascii	"9\012\254\345M`55\016,\005\374\373\200\005\300\361\037"
 1145      4D603535 
 1145      0E2C05FC 
 1145      FB8005C0 
 1145      F11F
 1146 0206 F51E88AB 		.ascii	"\365\036\210\253w'\245\210q\024'\350\"\025\006U\021"
 1146      7727A588 
 1146      711427E8 
 1146      22150655 
 1146      11
 1147 0217 786CE16B 		.ascii	"xl\341k\215\"\244\300\223h\361\207\260\016X\371@O\250"
 1147      8D22A4C0 
 1147      9368F187 
 1147      B00E58F9 
 1147      404FA8
 1148 022a 2076DBC9 		.ascii	" v\333\311\201\231|\012\211rT\233/\214`\177\356Lx\212"
 1148      81997C0A 
 1148      8972549B 
 1148      2F8C607F 
 1148      EE4C788A 
 1149 023e 180C82A4 		.ascii	"\030\014\202\244\230y\257bZ\234b\030\264\215\364\032"
 1149      9879AF62 
 1149      5A9C6218 
 1149      B48DF41A 
 1150 024e 8ED1CB88 		.ascii	"\216\321\313\210\271\261^\350\302\016#*da\240\3023\324"
 1150      B9B15EE8 
 1150      C20E232A 
 1150      6461A0C2 
 1150      33D4
 1151 0260 29049E86 		.ascii	")\004\236\206\352e0\010,\006\307\332\240\357\235\211"
 1151      EA653008 
 1151      2C06C7DA 
 1151      A0EF9D89 
 1152 0270 38EC10C6 		.ascii	"8\354\020\306\221\012\243\210\210)4\250e\207g\2256\202"
 1152      910AA388 
 1152      882934A8 
 1152      65876795 
 1152      3682
 1153 0282 188BE17C 		.ascii	"\030\213\341|\016N\344a\237\301;\357\351;\026\241E\267"
 1153      0E4EE461 
ARM GAS  /tmp/ccDRrJMb.s 			page 92


 1153      9FC13BEF 
 1153      E93B16A1 
 1153      45B7
 1154 0294 EE75FF96 		.ascii	"\356u\377\226\2158M\300`<\"\330&\272\0052\360h\351v"
 1154      8D384DC0 
 1154      603C22D8 
 1154      26BA0532 
 1154      F068E976 
 1155 02a8 5A197F58 		.ascii	"Z\031\177X\216\204\2710p_`\225\215=}Xy_\376C\336\211"
 1155      8E84B930 
 1155      705F6095 
 1155      8D3D7D58 
 1155      795FFE43 
 1156 02be BFCAFB2A 		.ascii	"\277\312\373**\357$\235\255\243*XM5\202\310\236W\252"
 1156      2AEF249D 
 1156      ADA32A58 
 1156      4D3582C8 
 1156      9E57AA
 1157 02d1 460F00C9 		.ascii	"F\017\000\311\314\030\265\210\2153\007v\010\015u\236"
 1157      CC18B588 
 1157      8D330776 
 1157      080D759E 
 1158 02e1 323AC461 		.ascii	"2:\304as\230\336\277%\314\034\330\022f\243a\2776Z\302"
 1158      7398DEBF 
 1158      25CC1CD8 
 1158      1266A361 
 1158      BF365AC2 
 1159 02f5 2A9EABEF 		.ascii	"*\236\253\357+\026e\243\261\201\207\032\223@\337\343"
 1159      2B1665A3 
 1159      B181871A 
 1159      9340DFE3 
 1160 0305 B9B94EE3 		.ascii	"\271\271N\343*\255\300\253\344l\201\263\242\334\345"
 1160      2AADC0AB 
 1160      E46C81B3 
 1160      A2DCE5
 1161 0314 74159F3E 		.ascii	"t\025\237>\345:_Z~!\327\305D\341\2712QX\204wI\331o\220"
 1161      E53A5F5A 
 1161      7E21D7C5 
 1161      44E1B932 
 1161      51588477 
 1162 032c 43FE71   		.ascii	"C\376q"
 1163              		.text
 1164              		.section	.gnu.lto_chFactoryCreateObjectsFIFO.7e371e25731746ed,"",%progbits
 1165 0000 789C9553 		.ascii	"x\234\225S]O\\E\030\236g\346\354\236\263\313\356\262"
 1165      5D4F5C45 
 1165      189E67E6 
 1165      EC9EB3CB 
 1165      EEB2
 1166 0012 16AB5C34 		.ascii	"\026\253\\4\2611!\244M\312\006c\342U\223^x\321\033\023"
 1166      B13121A4 
 1166      4DCA0663 
 1166      E255935E 
 1166      78D11B13 
 1167 0026 E33FA048 		.ascii	"\343?\240H\025R\301\224&Vov\272\207CAc%\306B`5mB\033"
 1167      1552C194 
 1167      26566F76 
 1167      BA874341 
ARM GAS  /tmp/ccDRrJMb.s 			page 93


 1167      6325C642 
 1168 003f 942DE543 		.ascii	"\224-\345C\301R\265n?\244\224~A[j\0141*X [\023KZ\244"
 1168      C152B56E 
 1168      3FA4947E 
 1168      415B6A0C 
 1168      312A5820 
 1169 0058 B6C2FACE 		.ascii	"\266\302\372\316\234C\245|\030\235\354\3169\347\235"
 1169      9C43A57C 
 1169      189DECCE 
 1169      39E79D
 1170 0067 F779DF67 		.ascii	"\367y\337g\236y\306``j\274\344g\354Ez>O\177\370\030"
 1170      9E79C660 
 1170      606ABCE4 
 1170      67EC457A 
 1170      3E4F7FF8 
 1171 007c 78C315C6 		.ascii	"x\303\025\306\366Y\234\213\344V&\203\306l\224\311\220"
 1171      F6599C8B 
 1171      E4562683 
 1171      C66C94C9 
 1171      90
 1172 008d 80E1860D 		.ascii	"\200\341\206\015@\275H\013,\316\205\2018f\371<\307H"
 1172      40BD480B 
 1172      2CCE8581 
 1172      3866F93C 
 1172      C748
 1173 009f 4DD7C7E2 		.ascii	"M\327\307\342\036w\004\203A\2373\227[&\"\352\023\330"
 1173      1E770483 
 1173      419F3397 
 1173      5B2622EA 
 1173      13D8
 1174 00b1 489F4979 		.ascii	"H\237Iy\255\336\334\324&eB\376\354\264\207;z\206e\300"
 1174      ADDEDCD4 
 1174      266542FE 
 1174      ECB4873B 
 1174      7A8665C0 
 1175 00c5 119C6539 		.ascii	"\021\234e9\303\247\330\2006lP\315?\303&JN\214\367\335"
 1175      C3A7D880 
 1175      366C50CD 
 1175      3FC3264A 
 1175      4E8CF7DD 
 1176 00d9 842800A3 		.ascii	"\204(\000\243\367\303\243\207\337*<\252p\362\3172\205"
 1176      F7C3A387 
 1176      DF2A3CAA 
 1176      70F2CF32 
 1176      85
 1177 00ea 11688758 		.ascii	"\021h\207X\012\243\020C\012\205\224|\353\326X#\304f"
 1177      0AA31043 
 1177      0A85947C 
 1177      EBD65823 
 1177      C466
 1178 00fc 0DFCE9FE 		.ascii	"\015\374\351\376P\003\\d\372zfo\243-\267;\304\366\330"
 1178      50035C64 
 1178      FA7A666F 
 1178      A32DB73B 
 1178      C4F6D8
 1179 010f 72B0C1D0 		.ascii	"r\260\301\320\241\301Cu\177\234\204xN\203\033z\037^"
 1179      A1C14375 
ARM GAS  /tmp/ccDRrJMb.s 			page 94


 1179      7F9C8478 
 1179      4E831B7A 
 1179      1F5E
 1180 0121 0878E01B 		.ascii	"\010x\340\033\025\3152m(\354\361U\260\235\032;uwj$("
 1180      15CD326D 
 1180      28ECF155 
 1180      B09D1A3B 
 1180      75776A24 
 1181 0136 5ED0D877 		.ascii	"^\320\330w{\332\357\205<\354\367\231\355M\272\261\017"
 1181      7BDAEF85 
 1181      3CECF799 
 1181      ED4DBAB1 
 1181      0F
 1182 0147 5DCBC124 		.ascii	"]\313\301$t7\012\025b\360\354\203\346\220\330\246\321"
 1182      74370A15 
 1182      62F0EC83 
 1182      E690D8A6 
 1182      D1
 1183 0158 0F2F1EF8 		.ascii	"\017/\036\370\235\027\264j\364\017\231\275\037\332r"
 1183      9D17B46A 
 1183      F40F99BD 
 1183      1FDA72
 1184 0167 5052738E 		.ascii	"PRs\216\236\307\361jP\372x\367\302\301\260\277F\322"
 1184      9EC7F16A 
 1184      50FA78F7 
 1184      C2C1B0BF 
 1184      46D2
 1185 0179 D888CF51 		.ascii	"\330\210\317Q\240\004%\035\277\200\237\216\026*\322"
 1185      A004251D 
 1185      BF809F8E 
 1185      162AD2
 1186 0188 F94A5A66 		.ascii	"\371JZf\2636q\331\334\335\3355\325\302\363\350\000\211"
 1186      B33671D9 
 1186      DCDDDD35 
 1186      D5C2F3E8 
 1186      0089
 1187 019a B54F51F0 		.ascii	"\265OQ\360\253\311\204R\300R\257\0015\005\241\344\014"
 1187      ABC98452 
 1187      C052AF01 
 1187      3505A1E4 
 1187      0C
 1188 01ab 31850E53 		.ascii	"1\205\016S\300\037\241\311\314\245\311\212Bsfw\250\213"
 1188      C01FA1C9 
 1188      CCA5C98A 
 1188      42736677 
 1188      A88B
 1189 01bd 32C10CE7 		.ascii	"2\301\014\347\352)\246Q\223\3761\223\257\372*V\375\375"
 1189      EA29A651 
 1189      93FE3193 
 1189      AFFA2A56 
 1189      FDFD
 1190 01cf BF8D99F1 		.ascii	"\277\215\231\361yY'e\324\021\201,Wdz\021Wk\215\316\231"
 1190      79592765 
 1190      D411812C 
 1190      57647A11 
 1190      576B8DCE 
 1191 01e4 ABA63246 		.ascii	"\253\2462F\020+S\203\365\302\335W\346\322\350\271\340"
ARM GAS  /tmp/ccDRrJMb.s 			page 95


 1191      102B5383 
 1191      F5C2DD57 
 1191      E6D2E8B9 
 1191      E0
 1192 01f5 217CB24F 		.ascii	"!|\262O\352x\016\276$\237\365\251}\323\342\201\023]"
 1192      EA780EBE 
 1192      249FF5A9 
 1192      7DD3E281 
 1192      135D
 1193 0207 F5566C8B 		.ascii	"\365Vl\213#B8\201CX\340\236\030\357\015\237\372 B\265"
 1193      23423881 
 1193      4358E09E 
 1193      18EF0D9F 
 1193      FA2042B5 
 1194 021b 2C4784D1 		.ascii	",G\204\321\217\230\246\203\223\210;\"\302&a7\326\336"
 1194      8F98A683 
 1194      93883B22 
 1194      C2266137 
 1194      D6DE
 1195 022d 4C4D54A8 		.ascii	"LMT\250\250-|\266P6\235h[h\362+6>\254\307WT\237\322"
 1195      A82D7CB6 
 1195      50369D68 
 1195      5B68F22B 
 1195      363EACC7 
 1196 0245 5AFC6E8A 		.ascii	"Z\374n\212\312Zjl\037\014|\355\245\324N\246Z\237q\323"
 1196      CA5A6A6C 
 1196      1F0C7CED 
 1196      A5D44EA6 
 1196      5A9F71D3 
 1197 0259 2CAA640B 		.ascii	",\252d\013\323m0\220\262\327\271\341\200.`\261i\324"
 1197      D36D3090 
 1197      B2D7B9E1 
 1197      802E60B1 
 1197      69D4
 1198 026b CA623714 		.ascii	"\312b7\024Z\261\337\334,\011\310\360\015Ic\213\340\377"
 1198      5AB1DFDC 
 1198      2C09C8F0 
 1198      0D49638B 
 1198      E0FF
 1199 027d 90E3D40A 		.ascii	"\220\343\324\0129:\224\007\322w3/\347;\"\212o\265.x"
 1199      393A9407 
 1199      D277332F 
 1199      E73B228A 
 1199      6FB52E78 
 1200 0291 5C172A9A 		.ascii	"\\\027*\232\236\311l#;=\201\364\242<\247\021'\262\216"
 1200      9EC96C23 
 1200      3B3D81F4 
 1200      A23CA711 
 1200      27B28E
 1201 02a4 58C7C691 		.ascii	"X\307\306\221p\231\252\203'\266\354\027\324\214\331"
 1201      7099AA83 
 1201      27B6EC17 
 1201      D48CD9
 1202 02b3 73A325FF 		.ascii	"s\243%\377\260\177txT\032g<\033\316p\301\222[\305$\022"
 1202      B07F7478 
 1202      541A673C 
 1202      1BCE70C1 
ARM GAS  /tmp/ccDRrJMb.s 			page 96


 1202      925BC524 
 1203 02c8 0FF62FA4 		.ascii	"\017\366/\244Z\341\246\207)}\356\374P]\310\243-\017"
 1203      5AE1A687 
 1203      297DEEFC 
 1203      505DC8A3 
 1203      2D0F
 1204 02da 821C9447 		.ascii	"\202\034\224Gu\\ -\037\3755q\334T\347\370$\316j\276"
 1204      755C202D 
 1204      1FFD3571 
 1204      DC54E7F8 
 1204      24CE6ABE 
 1205 02ee DCE53B76 		.ascii	"\334\345;v\344\364\221\034\342\253F\016\371\017\347"
 1205      E4F4911C 
 1205      E2AB460E 
 1205      F90FE7
 1206 02fd 102395BE 		.ascii	"\020#\225\276#\225t\223\201c\255yn\223\310\362&\275"
 1206      23957493 
 1206      8163AD79 
 1206      6E93C8F2 
 1206      26BD
 1207 030f 6B37598F 		.ascii	"k7Y\217\001\335\304\223\364\243d\337\376@q\247n2\012"
 1207      01DDC493 
 1207      F4A364DF 
 1207      FE4071A7 
 1207      6E320A
 1208 0322 473C85F3 		.ascii	"G<\205\363\210\321Qz^\372kn~*\344qH\322\262\211A\024"
 1208      88D1517A 
 1208      5EFA6B6E 
 1208      7E2AE471 
 1208      48D2B289 
 1209 0338 13890B8B 		.ascii	"\023\211\013\213$n\230.\205\334\345\024\346\377\215"
 1209      246E982E 
 1209      85DCE514 
 1209      E6FF8D
 1210 0347 C2D0520A 		.ascii	"\302\320R\012K\3679K=,\\\324\033\275D=\246\321,\357"
 1210      4BF7394B 
 1210      3D2C5CD4 
 1210      1BBD443D 
 1210      A6D12CEF 
 1211 035b 77BEEF5B 		.ascii	"w\276\357[\375J=\235U5pY\373&L\356\323\036\214\222 "
 1211      FD4A3D9D 
 1211      55357059 
 1211      FB264CEE 
 1211      D31E8C92 
 1212 0370 44C811F9 		.ascii	"D\310\021\371\372T\214GW\263\351\366\332W\2236\214+"
 1212      FA548C47 
 1212      57B3E9F6 
 1212      DA579336 
 1212      8C2B
 1213 0382 EED5FCAF 		.ascii	"\356\325\374\257\346\273\272\372]\034^\363.\216,\232"
 1213      E6BBBAFA 
 1213      5D1C5EF3 
 1213      2E8E2C9A 
 1214 0392 ED9A7B17 		.ascii	"\355\232{\0273H\244\223\267\207=\247\204\024\344\016"
 1214      3348A493 
 1214      B7873DA7 
 1214      8414E40E 
ARM GAS  /tmp/ccDRrJMb.s 			page 97


 1215 03a2 398AE812 		.ascii	"9\212\350\022\374\331\242\242\230\373\253\252\246\337"
 1215      FCD9A2A2 
 1215      98FBABAA 
 1215      A6DF
 1216 03b0 AEF21DB1 		.ascii	"\256\362\035\261\352\335\245\261\322\327w\226\224\356"
 1216      EADDA5B1 
 1216      D2D77796 
 1216      94EE
 1217 03be A9DAFD76 		.ascii	"\251\332\375vQ)3*K\336(3\253vTT\227\277Sf\320\263\322"
 1217      5129332A 
 1217      4BDE2833 
 1217      AB765454 
 1217      97BF5366 
 1218 03d5 A2A96457 		.ascii	"\242\251dW\371k\225\306\253U;\337\374\033;\2577\266"
 1218      F96B95C6 
 1218      AB553BDF 
 1218      FC1B3BAF 
 1218      37B6
 1219              		.text
 1220              		.section	.gnu.lto_chFactoryFindObjectsFIFO.7e371e25731746ed,"",%progbits
 1221 0000 789C9592 		.ascii	"x\234\225\222\355K\024Q\024\306\357s\357\354\356h\256"
 1221      ED4B1451 
 1221      14C6EF73 
 1221      EFECEE68 
 1221      AE
 1222 0011 F431C80F 		.ascii	"\3641\310\017\026,b\321\016\375+\375\007\266)\005\325"
 1222      162C62D1 
 1222      0EFD2BFD 
 1222      07B62905 
 1222      D5
 1223 0022 8606D5A7 		.ascii	"\206\006\325\247\271\373r\241%0+\024\312B!\302\3366"
 1223      B9FB72A1 
 1223      25302B14 
 1223      CA4221C2 
 1223      DE36
 1224 0034 77ADCCCD 		.ascii	"w\255\314\315\222\241\014\204\336\266\300\276D\024\333"
 1224      92A10C84 
 1224      DEB6C0BE 
 1224      4414DB
 1225 0043 17718394 		.ascii	"\027q\203\224\222 \321\351\234\331\026\222\255\250\313"
 1225      9220D1E9 
 1225      9CD91692 
 1225      ADA8CB
 1226 0052 1DE6BE9C 		.ascii	"\035\346\276\234\347\234\337yf,\001\301c\233\022\"N"
 1226      E79CDF79 
 1226      662C01C1 
 1226      639B1222 
 1226      4E
 1227 0063 EFADF440 		.ascii	"\357\255\364@\011\310\201\027B\244l\011\360B\333\020"
 1227      09C88117 
 1227      42A46C09 
 1227      F042DB10 
 1228 0073 AE848B15 		.ascii	"\256\204\213\025\271&\361*[\270\250\276JCa\026m\227"
 1228      B926F12A 
 1228      5BB8A8BE 
 1228      4A436116 
 1228      6D97
ARM GAS  /tmp/ccDRrJMb.s 			page 98


 1229 0085 9F5FF8D8 		.ascii	"\237_\370\330\312[\240\235\266\303\372u.\3229\246uZ"
 1229      CA5BA09D 
 1229      B6C3FA75 
 1229      2ED239A6 
 1229      755A
 1230 0097 7F78321D 		.ascii	"\177x2\035\315O\224u\223QR\370R\340*\3320\2066\256q"
 1230      CD4F9475 
 1230      935152F8 
 1230      52E02ADA 
 1230      308636AE 
 1231 00ac 0D9D149C 		.ascii	"\015\235\024\234\256L\276\201\212A\320zt~\364X\307\025"
 1231      AE4CBE81 
 1231      8A41D07A 
 1231      747EF458 
 1231      C715
 1232 00be D6E9956E 		.ascii	"\326\351\225n\326(\\\207\372UFG\0027\320\301\321s\217"
 1232      D6285C87 
 1232      FA554647 
 1232      0237D0C1 
 1232      D1738F
 1233 00d1 BF9F6F51 		.ascii	"\277\237oQ;\002\345\352\323\376\3172v\231\245\336\373"
 1233      3B02E5EA 
 1233      D3FECF32 
 1233      7699A5DE 
 1233      FB
 1234 00e2 EAF1B319 		.ascii	"\352\361\263\031=\247-\252\211\233\033\365<(\274R\\"
 1234      3DA72DAA 
 1234      899B1BF5 
 1234      3C28BC52 
 1234      5C
 1235 00f3 1F8C86B3 		.ascii	"\037\214\206\263\232F;\362\2101\032\021\335B\230\274"
 1235      9A463BF2 
 1235      88311A11 
 1235      DD4298BC 
 1236 0103 009F8CEF 		.ascii	"\000\237\214\357\361\264\357g\264\367ng\252X\230\035"
 1236      F1B4EF67 
 1236      B4F76E67 
 1236      AA58981D 
 1237 0113 96116A8E 		.ascii	"\226\021j\216\012\207D\020/\226H\300\276,K\311o\265"
 1237      0A874410 
 1237      2F9648C0 
 1237      BE2C4BC9 
 1237      6FB5
 1238 0125 80ACF7A5 		.ascii	"\200\254\367\245\272\205Sp\201R\351\323\333\210\273"
 1238      BA855370 
 1238      8152E9D3 
 1238      DB88BB
 1239 0134 A64F6ABD 		.ascii	"\246Oj\275\331(\313\227\234w\034.\337\015\231G/#\354"
 1239      D928CB97 
 1239      9C771C2E 
 1239      DF0D9947 
 1239      2F23EC
 1240 0147 56088DA1 		.ascii	"V\010\215\241\241\234\252!.>\233\237m\036\301\245\224"
 1240      A19CAA21 
 1240      2E3E9B9F 
 1240      6D1EC1A5 
 1240      94
ARM GAS  /tmp/ccDRrJMb.s 			page 99


 1241 0158 0ECEC328 		.ascii	"\016\316\303(\222\371\005n\201.\373\247\0129\333\331"
 1241      92F9056E 
 1241      812EFBA7 
 1241      0A39DBD9 
 1242 0168 65540413 		.ascii	"eT\004\023\030\301\272\374\331\327\251\362\314\351V"
 1242      18C1BAFC 
 1242      D9D7A9F2 
 1242      CCE956
 1243 0177 CA651B65 		.ascii	"\312e\033e\3436\234\000\007w\340\032\325$\026`\274o"
 1243      E3369C00 
 1243      0777E01A 
 1243      D5241660 
 1243      BC6F
 1244 0189 550F7C98 		.ascii	"U\017|\230Q\241\206\322\315>\365\"p\227(3J\375\007\331"
 1244      51A186D2 
 1244      CD3EF522 
 1244      70972833 
 1244      4AFD07D9 
 1245 019d 6403599E 		.ascii	"d\003Y\236\235\325\347\302Fm\302\275\000\020\033\001"
 1245      9DD5E7C2 
 1245      466DC2BD 
 1245      00101B01 
 1246 01ad 29A53E03 		.ascii	")\245>\003\243Z0U\247,1eTT\220\326\273\203/A>\023\246"
 1246      A35A3055 
 1246      A72C3165 
 1246      545490D6 
 1246      BB832F41 
 1247 01c4 606757FF 		.ascii	"`gW\377\342,Q\341~\315\331\177\005\236\376\275\225\017"
 1247      E22C51E1 
 1247      7ECDD97F 
 1247      059EFEBD 
 1247      950F
 1248 01d6 FE68E5C3 		.ascii	"\376h\345\303:\344L\315\312E\244=\277Z\256[\311\222"
 1248      3AE44CCD 
 1248      CA45A43D 
 1248      BF5AAE5B 
 1248      C992
 1249 01e8 256A917E 		.ascii	"%j\221~\004\222o\217\307\235\332L\366\321<x`\257\323"
 1249      04926F8F 
 1249      C79DDA4C 
 1249      F6D13C78 
 1249      60AFD3
 1250 01fb D79B7012 		.ascii	"\327\233p\022\373{\272\022G\223\275'\342\011a\035\356"
 1250      FB7BBA12 
 1250      4793BD27 
 1250      E209611D 
 1250      EE
 1251 020c 3AD46DED 		.ascii	":\324m\355K\366\034\371\001\272U$\036"
 1251      4BF61CF9 
 1251      01BA5524 
 1251      1E
 1252              		.text
 1253              		.section	.gnu.lto_chFactoryReleaseObjectsFIFO.7e371e25731746ed,"",%progbits
 1254 0000 789C9554 		.ascii	"x\234\225T\355K\223Q\024\277\347\271\317^\234\233\256"
 1254      ED4B9351 
 1254      14BFE7B9 
 1254      CF5E9C9B 
ARM GAS  /tmp/ccDRrJMb.s 			page 100


 1254      AE
 1255 0011 3E841F44 		.ascii	">\204\037D$\030b\320\226\320_\322\177\220S)\220\024"
 1255      241862D0 
 1255      96D05FD2 
 1255      7F905329 
 1255      9014
 1256 0023 ED4B9F76 		.ascii	"\355K\237v\335\366\370\202\364F$\030\212\037T\254L\335"
 1256      DDF6F882 
 1256      F4462418 
 1256      8A1F54AC 
 1256      4CDD
 1257 0035 2AD32DB5 		.ascii	"*\323-\2659-\315|\245W\024\241LV\250\210B\021\012\272"
 1257      392DCD7C 
 1257      A55714A1 
 1257      4C56A888 
 1257      42110ABA 
 1258 0049 CEB9CF06 		.ascii	"\316\271\317\006\256i\331\345y=\367\236\337\357\234"
 1258      AE69D9E5 
 1258      793DF79E 
 1258      DFEF9C
 1259 0058 F3BBF7A8 		.ascii	"\363\273\367\250\014\030\215\016\003cE\370>\2177\030"
 1259      0C188D0E 
 1259      036345F8 
 1259      3E8F3718 
 1260 0068 1828B766 		.ascii	"\030(\267f\031\2531+\012\017\3471aQ?\270\230\260rPu"
 1260      19AB312B 
 1260      0A0FE731 
 1260      61513FB8 
 1260      98B07250 
 1261 007d B30A401F 		.ascii	"\263\012@\037\302\014\314\243p\025<\360S\331S Z\027"
 1261      C20CCCA3 
 1261      70153CF0 
 1261      53D95320 
 1261      5A17
 1262 008f 0B29855D 		.ascii	"\013)\205]\002\307g\355\233\255Vh9\032g,\256H\012\006"
 1262      02C767ED 
 1262      9BAD5668 
 1262      391A672C 
 1262      AE480A06 
 1263 00a3 5D5088AB 		.ascii	"]P\210\253\026\374\201\026\376C\3218\200\212\277\333"
 1263      16FC8116 
 1263      FE43D138 
 1263      808ABFDB 
 1264 00b3 33F7BE66 		.ascii	"3\367\276f\321\257\002\371\370;9\266\333l\345\016`\370"
 1264      D1AF02F9 
 1264      F83B39B6 
 1264      DB6CE50E 
 1264      60F8
 1265 00c5 5DD72282 		.ascii	"]\327\"\202\226\202N!\274B,\227\212\014\215sx\010\034"
 1265      96824E21 
 1265      BC422C97 
 1265      8A0C8D73 
 1265      78081C
 1266 00d8 F1E001E4 		.ascii	"\361\340\001\344\302}\310ehb\320\015\005\264|%\270\177"
 1266      C27DC865 
 1266      6862D00D 
 1266      05B47C25 
ARM GAS  /tmp/ccDRrJMb.s 			page 101


 1266      B87F
 1267 00ea D766F413 		.ascii	"\327f\364\023}\276N\012\217\300H\371\365]\210\210x\334"
 1267      7DBE4E0A 
 1267      8FC048F9 
 1267      F55D8888 
 1267      78DC
 1268 00fc 27C44E51 		.ascii	"'\304NQ\367\200\232\211\314\350\242\242\263j\302\207"
 1268      F7809A89 
 1268      CCE8A2A2 
 1268      B36AC287 
 1269 010c C14C0FC6 		.ascii	"\301L\017\306\266\320\205\322\332V\024z\363\357\340"
 1269      B6D085D2 
 1269      DA56147A 
 1269      F3EFE0
 1270 011b 8F0C6FE6 		.ascii	"\217\014o\346\020\010\301\207B\033K&\317\236\250\027"
 1270      1008C187 
 1270      421B4B26 
 1270      CF9EA817 
 1271 012b C2AE7163 		.ascii	"\302\256qc\\Ad\350\001\017\3155i\3219\023%a\202\364"
 1271      5C4164E8 
 1271      010FCD35 
 1271      69D13913 
 1271      256182F4 
 1272 013f A5A6062C 		.ascii	"\245\246\006,\002\231\327\246\337\217[\332\240\265F"
 1272      0299D7A6 
 1272      DF8F5BDA 
 1272      A0B546
 1273 014e 48BB19FA 		.ascii	"H\273\031\372\260r\275\230\005M\336\030\0144\230]g5"
 1273      B072BD98 
 1273      054DDE18 
 1273      0C34985D 
 1273      6735
 1274 0160 9E010168 		.ascii	"\236\001\001h\203}Y4\2647\316\217\334\314B,\263\306"
 1274      837D5934 
 1274      B437CE8F 
 1274      DCCC422C 
 1274      B3C6
 1275 0172 2D100497 		.ascii	"-\020\004\227\014\007\036\203G\343\231,\006\336\335"
 1275      0C071E83 
 1275      47E3992C 
 1275      06DEDD
 1276 0181 BA689893 		.ascii	"\272h\230\223\321\307\325\203\221p\031\311\257\211\251"
 1276      D1C7D583 
 1276      917019C9 
 1276      AF89A9
 1277 0190 7A6B8252 		.ascii	"zk\202R\334\006L\324\352\303\251'\011\322\316Uo\257"
 1277      DC064CD4 
 1277      EAC3A927 
 1277      09D2CE55 
 1277      6FAF
 1278 01a2 89486DF0 		.ascii	"\211Hm\360T\222\202N\272\3241\332\221\211\2444LX&\350"
 1278      5492824E 
 1278      BAD431DA 
 1278      9189A434 
 1278      4C5826E8 
 1279 01b6 071766FB 		.ascii	"\007\027f\373\014\263]\001\205\330p\321jd}\305\306\317"
 1279      0CB35D01 
ARM GAS  /tmp/ccDRrJMb.s 			page 102


 1279      85D870D1 
 1279      6A647DC5 
 1279      C6CF
 1280 01c8 489E869A 		.ascii	"H\236\206\232\353\255\252\243\235\244\212\2046\3175"
 1280      EBADAAA3 
 1280      9DA48A84 
 1280      36CF35
 1281 01d7 8B883F9F 		.ascii	"\213\210?\237\374\006R\345\222\333`\020\034\030+\002"
 1281      FC0652E5 
 1281      92DB6010 
 1281      1C182B02 
 1282 01e7 79230B7A 		.ascii	"y#\013zyI\353;\213S6\356\224`\355o\303k\331i`Y\020:"
 1282      7949EB3B 
 1282      8B5336EE 
 1282      9460ED6F 
 1282      C36BD969 
 1283 01ff 042C0C8E 		.ascii	"\004,\014\216\377(\370\363\264\202\367P\212\030G\245"
 1283      FF28F8F3 
 1283      B482F750 
 1283      8A1847A5 
 1284 020f 51E3D930 		.ascii	"Q\343\3310$\213\240\244V\276^/B\026\014'\253?\202u\300"
 1284      248BA0A4 
 1284      56BE5E2F 
 1284      42160C27 
 1284      AB3F8275 
 1285 0224 D28783B1 		.ascii	"\322\207\203\261\342\324}'\332\227\213($\312Q\356\276"
 1285      E2D47D27 
 1285      DA978B28 
 1285      24CA51EE 
 1285      BE
 1286 0235 3882FDB9 		.ascii	"8\202\375\2715\341\005b0\210\220d\246\203\222\251i\222"
 1286      35E10562 
 1286      30889064 
 1286      A68392A9 
 1286      6992
 1287 0247 61D036D2 		.ascii	"a\3206\322k4E/=\346\346F\256q;De\310\\G\2051\324)\006"
 1287      6B34452F 
 1287      3DE6E646 
 1287      AE713B44 
 1287      65C85C47 
 1288 0260 BEA6DA55 		.ascii	"\276\246\332U\320\011\314:\307\372P\340\223\2018\354"
 1288      D009CC3A 
 1288      C7FA50E0 
 1288      938138EC 
 1289 0270 10C7910D 		.ascii	"\020\307\221\015\343\210\210)4\311e\307g\0256\202x\231"
 1289      E3888829 
 1289      34C965C7 
 1289      67153682 
 1289      7899
 1290 0282 C2F90A5C 		.ascii	"\302\371\012\\\310\303\276\200\177\321\327\177*A\213"
 1290      C8C3BE80 
 1290      7FD1D77F 
 1290      2A418B
 1291 0291 6E7D1BA1 		.ascii	"n}\033\241\035\033q\032\200\301DB\260mt\013\347\341"
 1291      1D1B711A 
 1291      80C14442 
 1291      B06D740B 
ARM GAS  /tmp/ccDRrJMb.s 			page 103


 1291      E7E1
 1292 02a3 D9D2ECB4 		.ascii	"\331\322\354\2642\375\264\234\210+\\\307\235\304*\353"
 1292      32FDB49C 
 1292      882B5CC7 
 1292      9DC42AEB 
 1293 02b3 9BFAB8F2 		.ascii	"\233\372\270\362\276\376\207\274S\177\225\367MR\336"
 1293      BEFE87BC 
 1293      537F95F7 
 1293      4D52DE
 1294 02c2 693A5C27 		.ascii	"i:\\'e\260\252\354\004\211=/UM\036\000\222\2311\352"
 1294      65B0AAEC 
 1294      04893D2F 
 1294      554D1E00 
 1294      929931EA 
 1295 02d6 11EFAE1C 		.ascii	"\021\357\256\034\331\"T\324yFo\021\307\315a\366\360"
 1295      D92254D4 
 1295      79466F11 
 1295      C7CD61F6 
 1295      F0
 1296 02e7 9E307764 		.ascii	"\2360wdO\230O\206\275\240\367\2045<W\0377\315\322Fc"
 1296      4F984F86 
 1296      BDA0F784 
 1296      353C571F 
 1296      37CDD246 
 1297 02fc 0B0F3526 		.ascii	"\013\0175&\201\276\247\235N\227~UT\343U~\271\330U]\345"
 1297      81BEA79D 
 1297      4E977E55 
 1297      54E3557E 
 1297      B9D8555D 
 1298 0311 76B92F95 		.ascii	"v\271/\225]t_\255\250\272\346t3\265\244\242\254\222"
 1298      5D745FAD 
 1298      A8BAE674 
 1298      33B5A4A2 
 1298      AC92
 1299 0323 9794E25D 		.ascii	"\227\224\342]^\371\033\337\250\375P"
 1299      5EF91BDF 
 1299      A8FD50
 1300              		.text
 1301              		.section	.gnu.lto_chFactoryCreatePipe.7e371e25731746ed,"",%progbits
 1302 0000 789C9554 		.ascii	"x\234\225T[KTQ\024\336\337\331g\356\316hWz\360A\002"
 1302      5B4B5451 
 1302      14DEDFD9 
 1302      67EECE68 
 1302      577AF041 
 1303 0015 11831C88 		.ascii	"\021\203\034\210^}\357\271\177`f$T\212\026Y/\263g\306"
 1303      5E7DEFB9 
 1303      7F606624 
 1303      548A1659 
 1303      2FB367C6 
 1304 0029 E385A0F2 		.ascii	"\343\205\240\362A\037\232DI\305n\352x\311K\223v4K\273"
 1304      411F9A44 
 1304      49C56EEA 
 1304      78C94B93 
 1304      76344BBB 
 1305 003d 6A9142F8 		.ascii	"j\221B\370\240i\210I4\012Y \351\264\3669\243\345-js"
 1305      A0698849 
 1305      340A5920 
ARM GAS  /tmp/ccDRrJMb.s 			page 104


 1305      E9B4F639 
 1305      A3E52D6A 
 1306 0052 6E7BEDF5 		.ascii	"n{\355\365\255\357[\027\216\312\300\344\032Q\031;B\357"
 1306      ADEF5B17 
 1306      8ECAC0E4 
 1306      1A51193B 
 1306      42EF
 1307 0064 A374C3C2 		.ascii	"\243t\303\302\240\\\177\303\230\337\256(<\224\311\204"
 1307      A05C7FC3 
 1307      98DFAE28 
 1307      3C94C984 
 1308 0074 535D4A62 		.ascii	"S]Jb\"\201C5\315* ?\204\035\314\247p\025>,)+\012\336"
 1308      22814335 
 1308      CD2A203F 
 1308      841DCCA7 
 1308      70153E2C 
 1309 008c 16876FF2 		.ascii	"\026\207o\362o\212\306\031T\332.\276\2761\343\221[ "
 1309      6F8AC619 
 1309      54DA2EBE 
 1309      BE31E391 
 1309      5B20
 1310 009e 85B621F1 		.ascii	"\205\266!\361\256\334\226\336(D@Li\337\335\325m\243"
 1310      AEDC96DE 
 1310      2844404C 
 1310      69DFDDD5 
 1310      6DA3
 1311 00b0 C2A17185 		.ascii	"\302\241q\205\305\024\206\333HF#\222%\371\035\244\223"
 1311      C51486DB 
 1311      48462392 
 1311      25F91DA4 
 1311      93
 1312 00c1 7360BA73 		.ascii	"s`\272s\034<\025\214\276k\307j/\2465H\234\210\344H\014"
 1312      1C3C158C 
 1312      BE6BC76A 
 1312      2FA63548 
 1312      9C88E448 
 1313 00d6 C75DF03F 		.ascii	"\307]\360?adb\270\2074r\276\345\037{\351\346\207\014"
 1313      616462B8 
 1313      873472BE 
 1313      E51F7BE9 
 1313      E6870C
