ARM GAS  /tmp/ccRgjmsS.s 			page 1


   1              		.syntax unified
   2              		.cpu cortex-m4
   3              		.fpu softvfp
   4              		.eabi_attribute 20, 1
   5              		.eabi_attribute 21, 1
   6              		.eabi_attribute 23, 3
   7              		.eabi_attribute 24, 1
   8              		.eabi_attribute 25, 1
   9              		.eabi_attribute 26, 1
  10              		.eabi_attribute 30, 2
  11              		.eabi_attribute 34, 1
  12              		.eabi_attribute 18, 4
  13              		.thumb
  14              		.syntax unified
  15              		.file	"chmemcore.c"
  16              		.text
  17              	.Ltext0:
  18              		.section	.gnu.lto_.profile.44e19f7889b19329,"",%progbits
  19 0000 789C6361 		.ascii	"x\234ca`d`a`\000\222\372\332\000\000\363\000e"
  19      60646061 
  19      600092FA 
  19      DA0000F3 
  19      0065
  20              		.text
  21              		.section	.gnu.lto_.icf.44e19f7889b19329,"",%progbits
  22 0000 789C6361 		.ascii	"x\234ca`d\000\001\005\006\004`e\270v`\332mf\306\376"
  22      60640001 
  22      05060460 
  22      65B87660 
  22      DA6D66C6 
  23 0015 BFEF9FF3 		.ascii	"\277\357\237\363\262\314=\376\372+/k\303\362\223\037"
  23      B2CC3DFE 
  23      FA2B2F6B 
  23      C3F2931F 
  24 0025 58D8964D 		.ascii	"X\330\226M\270\262\227\211\001\000\013T\017\262"
  24      B8B29789 
  24      01000B54 
  24      0FB2
  25              		.text
  26              		.section	.gnu.lto_.jmpfuncs.44e19f7889b19329,"",%progbits
  27 0000 789C6361 		.ascii	"x\234ca`d\000\001)\006\004`\001afFFF\366\372\372zV\030"
  27      60640001 
  27      29060460 
  27      01616646 
  27      4646F6FA 
  28 0018 830D280A 		.ascii	"\203\015(\012\000&\261\003G"
  28      0026B103 
  28      47
  29              		.text
  30              		.section	.gnu.lto_.inline.44e19f7889b19329,"",%progbits
  31 0000 789C6361 		.ascii	"x\234ca`d\000\201\012\006\004`a``ead`bY \317\300\266"
  31      60640081 
  31      0A060460 
  31      61606065 
  31      61646062 
  32 0019 409E0922 		.ascii	"@\236\011\"&,\304\310\304\250\000R\015\"X$\266le\204"
  32      262CC4C8 
ARM GAS  /tmp/ccRgjmsS.s 			page 2


  32      C4A80052 
  32      0D225824 
  32      B66C6584 
  33 002d C8B27DD0 		.ascii	"\310\262}\320\343a`\272\300\317\002R\307\312 *\302\310"
  33      E36160BA 
  33      C0CF0252 
  33      C7CA202A 
  33      C2C8
  34 003f 04560256 		.ascii	"\004V\002V\314\"s\345\012\232:\016\220:6\0066V\240\025"
  34      CC2273E5 
  34      0A9A3A0E 
  34      903A3606 
  34      3656A015 
  35 0053 4031B815 		.ascii	"@1\270\025\014\0004/\016\005"
  35      0C00342F 
  35      0E05
  36              		.text
  37              		.section	.gnu.lto_.pureconst.44e19f7889b19329,"",%progbits
  38 0000 789C6361 		.ascii	"x\234ca`d\340b```a\220`\221`\335\305\310\306\002\000"
  38      6064E062 
  38      60606061 
  38      90609160 
  38      DDC5C8C6 
  39 0016 059E0112 		.ascii	"\005\236\001\022"
  40              		.text
  41              		.section	.gnu.lto__core_init.44e19f7889b19329,"",%progbits
  42 0000 789C8D91 		.ascii	"x\234\215\221OHTA\034\307\177\337\231u}\210\213^:\325"
  42      4F485441 
  42      1CC77FDF 
  42      99757D88 
  42      8B5E3AD5 
  43 0014 41843D78 		.ascii	"A\204=x\331\027^;t\253{\347\340\241\353\003\005\315"
  43      D9175E3B 
  43      74AB7BE7 
  43      E0A1EB03 
  43      05CD
  44 0026 74AFC1CE 		.ascii	"t\257\301\316Z/\333\016Q\007E\214P\010\361\277\273\233"
  44      5A2FDB0E 
  44      5107458C 
  44      5008F1BF 
  44      BB9B
  45 0038 7FF279E9 		.ascii	"\177\362y\351\261D\247\320\203hD\020\022\351a\351`\245"
  45      B144A7D0 
  45      83684410 
  45      12E961E9 
  45      60A5
  46 004a 870477FB 		.ascii	"\207\004w\373\315\354\023\205\026i\230\307\314\233\231"
  46      CDEC1385 
  46      166998C7 
  46      CC9B99
  47 0059 EFEFFBF9 		.ascii	"\357\357\373\371\316D\010\244\333\003At\223\307\253"
  47      CE4408A4 
  47      DB034174 
  47      93C7AB
  48 0068 FC4112C4 		.ascii	"\374A\022\304\363M\242\214%\000=Q\026(-\220\306\261"
  48      F34DA28C 
  48      25003D51 
ARM GAS  /tmp/ccRgjmsS.s 			page 3


  48      16282D90 
  48      C6B1
  49 007a 3815280E 		.ascii	"8\025(\016\037\370\242mZq\333\233*]W3\001<IT\021\246"
  49      1FF8A26D 
  49      5A71DB9B 
  49      2A5D5733 
  49      013C4954 
  50 0090 12611A6D 		.ascii	"\022a\032m\304\307\216\237\376\336\217\3118\364|\362"
  50      C4C78E9F 
  50      FEDE8FC9 
  50      38F47CF2 
  51 00a0 5D71AB29 		.ascii	"]q\253)\376Z\355)\025|~|%\243\212\231\026O\0023\220"
  51      FE5AED29 
  51      157C7E7C 
  51      25A38A99 
  51      164F0233 
  52 00b5 A14C4F49 		.ascii	"\241LOI\037\375\364}\245\000\331nd_\375\245B4\224\355"
  52      1FFDF47D 
  52      A500D96E 
  52      645FFDA5 
  52      423494ED 
  53 00c9 DE0AF2CA 		.ascii	"\336\012\362\312\322\242\271s\321\\(\372V(\217\304\242"
  53      D2A2B973 
  53      D15C28FA 
  53      56288FC4 
  53      A2
  54 00da 8F34520B 		.ascii	"\2174R\013\346\021\307,\342U , \252#\346\356\004\252"
  54      E611C72C 
  54      E255202C 
  54      20AA23E6 
  54      EE04AA
  55 00ed 5279A882 		.ascii	"Ry\250\202\355hn\354\227\025!:\344m\035\356\247\020"
  55      ED686EEC 
  55      9715213A 
  55      E46D1DEE 
  55      A710
  56 00ff 7A940718 		.ascii	"z\224\007\030:\031.\217\337\325\012.9\352\025\267\352"
  56      3A192E8F 
  56      DFD50A2E 
  56      39EA15B7 
  56      EA
  57 0110 8F842785 		.ascii	"\217\204'\205A\361\375\037_\352\323\247\352\211R\315"
  57      41F1FD1F 
  57      5FEAD3A7 
  57      EA8952CD 
  58 0120 BC96655F 		.ascii	"\274\226e_\275\\\372\270\363\276a\002\2572\312\254K"
  58      BD5CFAB8 
  58      F3BE6102 
  58      AF32CAAC 
  58      4B
  59 0131 2CF12D2D 		.ascii	",\361--\342\232\331|\266\236\317Z\366\242\246R7<\031"
  59      E29AD97C 
  59      B69ECF5A 
  59      F6A2A652 
  59      373C19
  60 0144 410E1328 		.ascii	"A\016\023(\033t\344a_4\251\253aR\227\225\250e\002\274"
  60      1B74E461 
ARM GAS  /tmp/ccRgjmsS.s 			page 4


  60      5F34A9AB 
  60      61529795 
  60      A86502BC 
  61 0158 61934268 		.ascii	"a\223Bh2y\362g\247\261\252Q\003\272\3202\233\260\301"
  61      3279F267 
  61      A7B1AA51 
  61      03BAD032 
  61      9BB0C1
  62 016b 0AD26422 		.ascii	"\012\322d\"}xy\026\351\1773\254^\226a\315d\320W\212"
  62      7D787916 
  62      E97F33AC 
  62      5E9661CD 
  62      64D0578A 
  63 017f B726C33F 		.ascii	"\267&\303?\320\2426\364\372e\320~\025z\203\241K\030"
  63      D0A236F4 
  63      FA65D07E 
  63      157A83A1 
  63      4B18
  64 0191 0A5EDCD6 		.ascii	"\012^\334\326\310\346\215\017\331\213\237\207\213\266"
  64      C8E68D0F 
  64      D98B9F87 
  64      8BB6
  65 019f 261276B5 		.ascii	"&\022v\265\367\247\270\367\366t\332\251\301\244\235"
  65      F7A7B8F7 
  65      F674DAA9 
  65      C1A49D
  66 01ae ECEE73FB 		.ascii	"\354\356s\373\222\375\203n\"I\215\216\323\355v\334w"
  66      92FD836E 
  66      22498D8E 
  66      D3ED76DC 
  66      77
  67 01bf DC7B5D8E 		.ascii	"\334{]\216\023\013\177:;R\256\343\374\005\322|\374\024"
  67      130B7F3A 
  67      3B52AEE3 
  67      FC05D27C 
  67      FC14
  68              		.text
  69              		.section	.gnu.lto_chCoreAllocAlignedWithOffsetI.44e19f7889b19329,"",%progbits
  70 0000 789C9554 		.ascii	"x\234\225T]KTA\030\236w\346\234=\353\256\273\353G\335"
  70      5D4B5441 
  70      189E77E6 
  70      9C3DEBAE 
  70      BBEB47DD 
  71 0014 84171288 		.ascii	"\204\027\022\210\030\265\353EPPQ7\375\201\376Amk\012"
  71      18B5EB45 
  71      50505137 
  71      FD81FE41 
  71      6D6B0A
  72 0027 7EA15E44 		.ascii	"~\241^D7\216\236]\267\275\011#\224\014C\314\302\257"
  72      378E9E5D 
  72      B7BD0923 
  72      940C43CC 
  72      C2AF
  73 0039 4CAD34D7 		.ascii	"L\2554\3274%D\002\255\260\260\304\212\314\302R\274p"
  73      34254402 
  73      ADB0B0C4 
  73      8ACCC252 
ARM GAS  /tmp/ccRgjmsS.s 			page 5


  73      BC70
  74 004b C588CA8F 		.ascii	"\305\210\312\217\336w\316fV\3368\234\2353\363\314\373"
  74      DE77CE66 
  74      56DE389C 
  74      9D33F3CC 
  74      FB
  75 005c CC3CEF33 		.ascii	"\314<\3573\357\036\215\001\2436\2451v\014\337'\361\007"
  75      EF1E8D01 
  75      A336A531 
  75      760CDF27 
  75      F107
  76 006e 3606BCFA 		.ascii	"6\006\274\372\031c\025v\316\365/\006\223\016\3212\312"
  76      19631576 
  76      CEF52F06 
  76      930ED132 
  76      CA
  77 007f 984C14F1 		.ascii	"\230L\024\361\251fM5\320\2550\035\200\006\322\016\254"
  77      A9664D35 
  77      D0AD301D 
  77      8006D20E 
  77      AC
  78 0090 9C0B4D87 		.ascii	"\234\013M\207r\370\312\3278L\004\273\352\305\012\017"
  78      72F8CAD7 
  78      384C04BB 
  78      EAC50A0F 
  79 00a0 09061A4E 		.ascii	"\011\006\032NcO\257}t\323\024 \235V\027>\007\235Y\315"
  79      634FAF7D 
  79      74D31420 
  79      9D56173E 
  79      079D59CD 
  80 00b4 5256CA99 		.ascii	"RV\312\231\320\217\303u-\303ZHp\266\301\031\264@\032"
  80      D08FC375 
  80      2DC35A48 
  80      70B6C119 
  80      B4401A
  81 00c7 34431A89 		.ascii	"4C\032\211i\205,\214\275Q19\346\022\031\300p\034\356"
  81      69852C8C 
  81      BD513139 
  81      E61219C0 
  81      701CEE
  82 00da 189C7767 		.ascii	"\030\234wg\336\"\236\214\006dBH\010h\003\261\225\207"
  82      DE229E8C 
  82      06644248 
  82      086803B1 
  82      9587
  83 00ec 108376C8 		.ascii	"\020\203v\310\304\350\352\237k3\206\330\247\230f\343"
  83      C4E8EA9F 
  83      6B3386D8 
  83      A79866E3 
  84 00fc F4906631 		.ascii	"\364\220f1\207_\206}u\222N\324\340\366\277d\215A\207"
  84      875F867D 
  84      75924ED4 
  84      E0F6BF64 
  84      8D4187
  85 010f 22AF5C99 		.ascii	"\"\257\\\231~\357\026\331\212\374\255\267gL\217\223"
  85      7EEF16D9 
  85      8AFCADB7 
ARM GAS  /tmp/ccRgjmsS.s 			page 6


  85      674C8F93 
  86 011f 27C35E8B 		.ascii	"'\303^\213,\340\3166'wB&1\252\337~\037p\212C\212\375"
  86      2CE0CE36 
  86      27774226 
  86      31AADF7E 
  86      1F708A43 
  87 0135 69B5A6CA 		.ascii	"i\265\246\312\236\321\244\330\257\303\273\220\035L\017"
  87      9ED1A4D8 
  87      AFC3BB90 
  87      1D4C0F
  88 0144 091DBAFE 		.ascii	"\011\035\272\376\246S\303\350\361\341H\247C\034U\314"
  88      A653C3E8 
  88      F1E148A7 
  88      431C55CC 
  89 0154 F517F34B 		.ascii	"\365\027\363K\272\305\224\321\2632r\202hw\267\245\315"
  89      BAC594D1 
  89      B3327282 
  89      6877B7A5 
  89      CD
  90 0165 76AFD7B8 		.ascii	"v\257\327\270lA\211-\035\356A\006tCFD0\262\024\235\274"
  90      6C41892D 
  90      1DEE4106 
  90      74434644 
  90      30B2149D 
  91 017a 0F36BC6C 		.ascii	"\0176\274l\376{\241\363\324\260\334\33001\031c\361j"
  91      FE7BA1F3 
  91      D4B0DCD8 
  91      30311963 
  91      F16A
  92 018c 53C26E40 		.ascii	"S\302n@\355\034\257\0063\327\200\314\323\311\011\033"
  92      ED1CAF06 
  92      33D780CC 
  92      D3C9091B 
  93 019c 75067576 		.ascii	"u\006uv\345\250\003\207\272\023(\305D\032\272h\311M"
  93      E5A80387 
  93      BA1328C5 
  93      441ABA68 
  93      C94D
  94 01ae 9D87BA24 		.ascii	"\235\207\272$\352\222\031\235\221\302\350\224T\012b"
  94      EA92199D 
  94      91C2E894 
  94      540A62
  95 01bd 6C091550 		.ascii	"l\011\025P\211\3048\247\267\230\003\263\266j\264\341"
  95      89C438A7 
  95      B79803B3 
  95      B66AB4E1 
  96 01cd 20893285 		.ascii	" \2112\205n\012a\242\353\204\332,\210P\314\350\335\223"
  96      6E0A61A2 
  96      EB84DA2C 
  96      8850CCE8 
  96      DD93
  97 01df D6765541 		.ascii	"\326vUA\032l`\363@\017f;\007\225S\3610\003\231D[\255"
  97      1A6C60F3 
  97      400F663B 
  97      079553F1 
  97      30039944 
  98 01f5 1A010BB1 		.ascii	"\032\001\013\261+\256\301f\201\253\214Q3\202\304\351"
ARM GAS  /tmp/ccRgjmsS.s 			page 7


  98      2BAEC166 
  98      81AB8C51 
  98      3382C4E9 
  99 0205 8FAD36EA 		.ascii	"\217\2556\352V\220\003\267\256\015=~n\320\3266es4\272"
  99      569003B7 
  99      AE0D3D7E 
  99      6ED0D636 
  99      657334BA 
 100 0219 F8C6285F 		.ascii	"\370\306(_\223\027\245LB,\"@Y\2720>9\342h\200\353\025"
 100      9317A54C 
 100      422C2240 
 100      59BA303E 
 100      39E26880 
 101 022f 52E1063C 		.ascii	"R\341\006<\300\342\356%\313q\361R_W\304\356;@\027\322"
 101      C0E2EE25 
 101      CB71F152 
 101      5F57C4EE 
 101      3B4017D2 
 102 0243 070DB04E 		.ascii	"\007\015\260N63\210\202\217$\325\307%&\342q\246p\222"
 102      36338882 
 102      8F24D5C7 
 102      2526E271 
 102      A67092
 103 0256 8265C382 		.ascii	"\202e\303\202\\\210nM\326\255\362wm\205<\210\306\223"
 103      5C886E4D 
 103      D6ADF277 
 103      6D853C88 
 103      C693
 104 0268 3557E358 		.ascii	"5W\343X\222\312\327\243v\012\357\267\260d\2047sE\327"
 104      92CAD7A3 
 104      760AEFB7 
 104      B0648437 
 104      7345D7
 105 027b 11518757 		.ascii	"\021Q\207W\275j\310\266\"RT\220}3\250\233\202R,C\326"
 105      BD6AC8B6 
 105      22525490 
 105      7D33A89B 
 105      82522C43 
 106 0290 2FC715A5 		.ascii	"/\307\025\245\356\300\201\376\355\035x\250\034\240\317"
 106      EEC081FE 
 106      ED1D78A8 
 106      1CA0CF
 107 029f 090CA003 		.ascii	"\011\014\240\003\037 8e\356\331\224\220\252j4\306\005"
 107      1F203865 
 107      EED99490 
 107      AA6A34C6 
 107      05
 108 02b0 C36F8750 		.ascii	"\303o\207P\213m<~\031$\307Z\325\330\315\343X\033\225"
 108      8B6D3C7E 
 108      1924C75A 
 108      D5D8CDE3 
 108      581B95
 109 02c3 B5B19159 		.ascii	"\265\261\221YuU;\2205\370\237\254\016\372#\310#$\356"
 109      75553B90 
 109      35F89FAC 
 109      0EFA23C8 
 109      2324EE
ARM GAS  /tmp/ccRgjmsS.s 			page 8


 110 02d6 D19FEB19 		.ascii	"\321\237\353\031\002\237u`\214\353\252\026\027\2402"
 110      029F7560 
 110      8CEBAA16 
 110      17A032
 111 02e5 8999B42D 		.ascii	"\211\231\264-[\006\000o\232X\034*F\323\264\201\211\\"
 111      5B06006F 
 111      9A581C2A 
 111      46D3B481 
 111      895C
 112 02f7 9C719C61 		.ascii	"\234q\234a\375\002\305\342\016{\275^\237\365\024\225"
 112      FD02C5E2 
 112      0E7BBD5E 
 112      9FF51495 
 113 0307 E2939F77 		.ascii	"\342\223\237w\306WZ\342\367\371s\013\002\005\376\242"
 113      C6575AE2 
 113      F7F9730B 
 113      0205FEA2 
 114 0317 9280D7CF 		.ascii	"\222\200\327\317\264\322\274\013\001\375t~\336\271B"
 114      B4D2BC0B 
 114      01FD747E 
 114      DEB942
 115 0326 5B514E4E 		.ascii	"[QNNi\240L+\014\234/\203\342_\361R\230\235"
 115      69A04C2B 
 115      0C9C2F83 
 115      E25FF152 
 115      989D
 116              		.text
 117              		.section	.gnu.lto_chCoreAllocAlignedWithOffset.44e19f7889b19329,"",%progbits
 118 0000 789C9555 		.ascii	"x\234\225UkL\024W\024\276g\356\314>yC\322\2641)6!\306"
 118      6B4C1457 
 118      14BE67EE 
 118      CC3E7943 
 118      D2B43129 
 119 0017 46187F34 		.ascii	"F\030\17741\266I\0371\375\341\017\222\006\1777F\327"
 119      31B6491F 
 119      31FDE10F 
 119      92067F37 
 119      46D7
 120 0029 55360196 		.ascii	"U6\001\226\354b\243\375\343\270\3133i\032\333F\242\215"
 120      EC62A3FD 
 120      E3B8CB33 
 120      691ADB46 
 120      A28D
 121 003b 6663AB11 		.ascii	"fc\253\021\265\274lAQ\224\025)\312\202RP\020A\"\202"
 121      B5BC6C41 
 121      51941529 
 121      CA825250 
 121      10412282 
 122 004f 5501DBB8 		.ascii	"U\001\333\270VS\333\302\322s\356\314\322\205\335\266"
 122      5653DBC2 
 122      D273EECC 
 122      D285DDB6 
 123 005f 71B27B77 		.ascii	"q\262{w\356\271\347;\367<\277\225\0310z\206-\214\315"
 123      EEB9E73B 
 123      F73CBF95 
 123      19307A86 
 123      2D8CCD
ARM GAS  /tmp/ccRgjmsS.s 			page 9


 124 0072 E0EF87F8 		.ascii	"\340\357\207\370\005\023\003i\337u\306\366Z$Iydf\232"
 124      05130369 
 124      DF75C6F6 
 124      5A244979 
 124      64669A
 125 0085 8DD77533 		.ascii	"\215\327u3\246%qc+\353[\031\024]M\001\240\027\315\002"
 125      A6257163 
 125      2BEB5B19 
 125      145D4D01 
 125      A017CD02 
 126 0099 6C8FC465 		.ascii	"l\217\304e\005\366\300si^\202\201\362\246C\374\231T"
 126      05F6C073 
 126      695E8281 
 126      F2A643FC 
 126      9954
 127 00ab C119C8B8 		.ascii	"\301\031\310\270\015_\373z*\205\266\000\331t:\363\260"
 127      0D5FFB7A 
 127      2A85B600 
 127      D9743AF3 
 127      B0
 128 00bc DCBEFAB8 		.ascii	"\334\276\372\270\246\371\264\211\212S\353\017\326\005"
 128      A6F9B489 
 128      8A53EB0F 
 128      D605
 129 00ca E50A2EB1 		.ascii	"\345\012.\261\005\211A\035\254\200\343\260\202\2349"
 129      0589411D 
 129      AC80E3B0 
 129      829C39
 130 00d9 01AB51F7 		.ascii	"\001\253Q\367\233\275C\275\311<\007\030\276W\325_\230"
 130      9BBD43BD 
 130      C93C0718 
 130      BE57D55F 
 130      98
 131 00ea 4E59758C 		.ascii	"NYu\214p\332\031\247f\255\340\034N\002\217\305\241\210"
 131      70DA19A7 
 131      66ADE01C 
 131      4E028FC5 
 131      A188
 132 00fc C1295885 		.ascii	"\301)X\205\332\373\376\232\2370\3637\005\322\177d\264"
 132      DAFBFE9A 
 132      9F30F337 
 132      05D27F64 
 132      B4
 133 010d 43D691C1 		.ascii	"C\326\221\301\261P\336A\215n\224\341\273\345`\231A\275"
 133      B150DE41 
 133      8D6E94E1 
 133      BBE56099 
 133      41BD
 134 011f 003FFB6A 		.ascii	"\000?\373j\364n\012_+\300\277\267\266\364*\006x<\224"
 134      F46E0A5F 
 134      2BC0BFB7 
 134      B6F42A06 
 134      783C94
 135 0132 AB833934 		.ascii	"\253\20394$\270\271\021V\021\242/X\323h\343\353\004"
 135      24B8B911 
 135      5611A22F 
 135      58D368E3 
ARM GAS  /tmp/ccRgjmsS.s 			page 10


 135      EB04
 136 0144 FA4E75E4 		.ascii	"\372Nu\344\214\234\363\255@\337\015%!\272<\033\243\205"
 136      8C9CF3AD 
 136      40DF0D25 
 136      21BA3C1B 
 136      A385
 137 0156 A6A5707A 		.ascii	"\246\245pzP{\2629\262?\331T\256\341\223\015\315\220"
 137      507BB239 
 137      B23FD954 
 137      AEE1930D 
 137      CD90
 138 0168 4349C15C 		.ascii	"CI\301\\\234\006\023\226\213\243B\355\243\027\021\263"
 138      9C061396 
 138      8BA342ED 
 138      A31711B3 
 139 0178 61EE7688 		.ascii	"a\356v\210\033\346\342\362@\017|\0179\224\207;\177\264"
 139      1BE6E2F2 
 139      400F7C0F 
 139      3994873B 
 139      7FB4
 140 018a DBF97AE1 		.ascii	"\333\371z\341\314\375\271\375\225\026\003}\253*\313"
 140      CCFDB9FD 
 140      9516037D 
 140      AB2ACB
 141 0199 402BF043 		.ascii	"@+\360C\002t\213@G\006\247\237(:Bk\333\246\325\274O"
 141      02748B40 
 141      4706A79F 
 141      283A426B 
 141      DBA6D5BC 
 142 01ae EA097C87 		.ascii	"\352\011|\207V\310i,\010j\013\013~\314\222mv\244\321"
 142      56C8692C 
 142      086A0B0B 
 142      7ECC926D 
 142      76A4D1
 143 01c1 FA0A961B 		.ascii	"\372\012\226\033K!\003\345\024;\005\223c\246\034[h\261"
 143      4B2103E5 
 143      143B0593 
 143      63A61C5B 
 143      68B1
 144 01d3 D262133E 		.ascii	"\322b\023>\332\361UI\242%\231\204)\264\244\322\222F"
 144      DAF15549 
 144      A2259984 
 144      29B4A4D2 
 144      9246
 145 01e5 4BBA309D 		.ascii	"K\2720\235!\374\311$\245,F\315\302\236\340\227z/,I\364"
 145      21FCC924 
 145      A52C46CD 
 145      C29EE097 
 145      7A2F2C49 
 146 01fa CB27C197 		.ascii	"\313'\301\227F!\036\013\015v\330\371\273\"\334g\007"
 146      46211E0B 
 146      0D76D8F9 
 146      BB22DC67 
 146      07
 147 020b 9AEBACBA 		.ascii	"\232\353\254\272\363\023\207+?>8r_\323\276\324\240\202"
 147      F313872B 
 147      3F3E3872 
ARM GAS  /tmp/ccRgjmsS.s 			page 11


 147      5FD3BED4 
 147      A082
 148 021d 9BE04C82 		.ascii	"\233\340L\202\020\316\212\210\253\246\265\01325\253"
 148      10CE8A88 
 148      ABA6B50B 
 148      3235AB
 149 022c 09B2A10D 		.ascii	"\011\262\241\015\317\036\202o\362\366\225_\327--O\260"
 149      CF1E826F 
 149      F2F6955F 
 149      D72D2D4F 
 149      B0
 150 023d E78E240A 		.ascii	"\347\216$\012\263 \301\262\312\005\347k{Aap\216\016"
 150      B320C1B2 
 150      CA05E76B 
 150      7B416170 
 150      8E0E
 151 024f A5E5876D 		.ascii	"\245\345\207m\237\205\340U\272\213\301yR\340\313\353"
 151      9F85E055 
 151      BA8BC179 
 151      52E0CBEB 
 152 025f CEA01D27 		.ascii	"\316\240\035'\221\301\005*:\260~\2401\010\234~a[9\001"
 152      91C1052A 
 152      3AB07EA0 
 152      31089C7E 
 152      615B3901 
 153 0273 01ED0016 		.ascii	"\001\355\000\026\314L\220\372\251\363\232E\306,\300"
 153      CC4C90FA 
 153      A9F39A45 
 153      C62CC0
 154 0282 4558299A 		.ascii	"EX)\232\347\311\343\233c\022J\240\003d\3419\203\240"
 154      E7C9E39B 
 154      63124AA0 
 154      0364E139 
 154      83A0
 155 0294 98BFBA8B 		.ascii	"\230\277\272\213\227\177NZ9e\240-\244\373\264\341\364"
 155      977F4E5A 
 155      3965A02D 
 155      A4FBB4E1 
 155      F4
 156 02a5 905DA02F 		.ascii	"\220]\240/\021\032:Af\223 \211$0|\363M\034m\000\321"
 156      111A3A41 
 156      66932089 
 156      24307CF3 
 156      4D1C6D00 
 157 02ba 7758213F 		.ascii	"wX!?\3666\036\322\026\241=S\235\263R\\\013\306M\223"
 157      F6361ED2 
 157      16A13D53 
 157      9DB3525C 
 157      0BC64D93 
 158 02ce 48E96502 		.ascii	"H\351e\002\223e_\360\267\020\030\006\302\325\223\315"
 158      93655FF0 
 158      B7101806 
 158      C2D593CD 
 159 02de C9097AB8 		.ascii	"\311\011z\270!\201\201.2\240\260\007\340\257\255\354"
 159      2181812E 
 159      32A0B007 
 159      E0AFADEC 
ARM GAS  /tmp/ccRgjmsS.s 			page 12


 160 02ee 0EBCB534 		.ascii	"\016\274\2654U\332\354~\2054\350\032\362\323\250\207"
 160      55DAEC7E 
 160      8534E81A 
 160      F2D3A887 
 161 02fe 1C3749D8 		.ascii	"\0347I\330A\324?\014~\024\231\355\006\223\237\2331*"
 161      41D43F0C 
 161      7E1499ED 
 161      06939F9B 
 161      312A
 162 0310 F22D6A5A 		.ascii	"\362-jZ\227Z\360\000\321\343WO\234\022\004&\303\002"
 162      975AF000 
 162      D1E3574F 
 162      9C120426 
 162      C302
 163 0322 3EA97005 		.ascii	">\251p\005\035z\000\276\021\223\256f5\220s\225]\240"
 163      1D7A00BE 
 163      1193AE66 
 163      35907395 
 163      5DA0
 164 0334 4B6C026B 		.ascii	"Kl\002k\025y\352\216\246\315F\230s\341\271#\212\256"
 164      1579EA8E 
 164      A6CD4698 
 164      73E1B923 
 164      8AAE
 165 0346 64A709AE 		.ascii	"d\247\011\256\350\3547\223i\253\350\233\266\266\307"
 165      E8EC3793 
 165      69ABE89B 
 165      B6B6C7
 166 0355 63E63DF3 		.ascii	"c\346=\363Z\265\246\245\241\254\206\353D0\3237\324e"
 166      5AB5A6A5 
 166      A1AC86EB 
 166      4430D337 
 166      D465
 167 0367 0BC0E1BD 		.ascii	"\013\300\341\275\232\220\333\240\007\271\365*e\005\017"
 167      9A90DBA0 
 167      07B9F52A 
 167      65050F
 168 0376 3F3FDB54 		.ascii	"??\333TcQsi\024C\020\200\010\225\221\"\203^P\311\253"
 168      63517369 
 168      14431080 
 168      08959122 
 168      835E50C9 
 169 038b 43869749 		.ascii	"C\206\227Ix\243\236=\337S\263.JF\251\010\331PI\301@"
 169      78A39E3D 
 169      DF53B32E 
 169      4A46A908 
 169      D95049C1 
 170 03a0 501A2B4A 		.ascii	"P\032+JE\251\021\257\177\316\220\245\211\220S\205\245"
 170      45A911AF 
 170      7FCE90A5 
 170      89905385 
 170      A5
 171 03b1 AA35BA2C 		.ascii	"\2525\272,\035\305\213\341\266R\270\351\342\362\312"
 171      1DC58BE1 
 171      B652B8E9 
 171      E2F2CA
 172 03c0 E1C05A5D 		.ascii	"\341\300Z]#C(\331\026\225ZH)C\317I\344\013\303\243\314"
ARM GAS  /tmp/ccRgjmsS.s 			page 13


 172      234328D9 
 172      16955A48 
 172      2943CF49 
 172      E40BC3A3 
 173 03d5 9748425F 		.ascii	"\227HB_\342$\\\023I\000#\011\3271\011\367\240|\304\377"
 173      E2245C13 
 173      49002309 
 173      D73109F7 
 173      A07CC4FF 
 174 03e9 DAA21799 		.ascii	"\332\242\027\231\242\231\3028k\370\007\306\305\341I"
 174      A299C238 
 174      6BF807C6 
 174      C5E149
 175 03f8 C9280979 		.ascii	"\311(\011y\244\237\312\354\350{\034\235\253\015wM\212"
 175      A49FCAEC 
 175      E87B1C9D 
 175      AB0D774D 
 175      8A
 176 0409 82BD8467 		.ascii	"\202\275\204g\375q\236\325\213\016}\207\374\373iI\221"
 176      FD719ED5 
 176      8B0E7D87 
 176      FCFB6949 
 176      91
 177 041a 0640D5EF 		.ascii	"\006@\325\357\014KJ\224\272\202\317CRt\332Xt\326\250"
 177      0C4B4A94 
 177      BA82CF43 
 177      5274DA58 
 177      74D6A8
 178 042d ADFFD974 		.ascii	"\255\377\331t\305nZb7\255\261\233fc~\323\342\011p\347"
 178      C56E5A62 
 178      37ADB19B 
 178      66637ED3 
 178      E20970E7 
 179 0441 FF11E0A0 		.ascii	"\377\021\340\240 \300\305\006%\372\271\361\037\0048"
 179      20C0C506 
 179      25FAB9F1 
 179      1F0438
 180 0450 1E254025 		.ascii	"\036%@%\236\302n\322\240\305\321\342\237D\213C\0041"
 180      9EC26ED2 
 180      A0C5D1E2 
 180      9F448B43 
 180      0431
 181 0462 C5D3E22F 		.ascii	"\305\323\342/H\213\2034\244\303\377B\213\267\304\360"
 181      488B8334 
 181      A4C3FF42 
 181      8BB7C4F0 
 182 0472 8EC4D062 		.ascii	"\216\304\320b$p\357\242=\312x7\004\343\335\026\214\267"
 182      2470EFA2 
 182      3DCA7837 
 182      04E3DD16 
 182      8CB7
 183 0484 9CDE46A3 		.ascii	"\234\336F\243\364F\027\260\031\244\267c\215\003\202"
 183      F44617B0 
 183      19A4B763 
 183      8D0382
 184 0493 8FFC3C0B 		.ascii	"\217\374<\013C\177\012Y\220\267Bz\334Q\212?\234a\337"
 184      437F0A59 
ARM GAS  /tmp/ccRgjmsS.s 			page 14


 184      90B7427A 
 184      DC518A3F 
 184      9C61DF
 185 04a6 CAED0385 		.ascii	"\312\355\003\205\370'\003T!\264\363F^\236\252\177\334"
 185      F8270354 
 185      21B4F346 
 185      5E9EAA7F 
 185      DC
 186 04b7 5EFC14B9 		.ascii	"^\374\024\271\266\252^\217Cu\024\026;\213\035n\2173"
 186      B6AA5E8F 
 186      43751416 
 186      3B8B1D6E 
 186      8F33
 187 04c9 CFC164AF 		.ascii	"\317\301d\257\353S\247\262\245\310\265\243\304\344\336"
 187      EB53A7B2 
 187      A5C8B5A3 
 187      C4E4DE
 188 04d8 BEDDEB2C 		.ascii	"\276\335\353,\203R\271\304\271\253\314\274u\213\327"
 188      8352B9C4 
 188      B9ABCCBC 
 188      758BD7
 189 04e7 F991C795 		.ascii	"\371\221\307\225\033k\303\341..v\227\250\245nO\231W"
 189      1B6BC3E1 
 189      2E2E7697 
 189      A8A56E4F 
 189      9957
 190 04f9 FDA0207F 		.ascii	"\375\240 \177C\376.\264F\2466\177\262\2568\257\220\275"
 190      43FE2EB4 
 190      46A6367F 
 190      B2AE38AF 
 190      90BD
 191 050b 9D401B8D 		.ascii	"\235@\033\215\221\256\272!\177\323\306M\352\006TV7\226"
 191      91AEBA21 
 191      7FD3C64D 
 191      EA065456 
 191      3796
 192 051d 388A766E 		.ascii	"8\212vns\252\216b\257\313\273y\207\303\201\320\327c"
 192      73AA8E62 
 192      AFCBBB79 
 192      87C381D0 
 192      D763
 193 052f A19E32D5 		.ascii	"\241\2362\325\025\325)\364\356\366\342yZ\376\246\202"
 193      15D529F4 
 193      EEF6E279 
 193      5AFEA682 
 194 053f 6C72AAD4 		.ascii	"lr\252\324\343Z\223\235\263\226I\036f\306@\334\236\335"
 194      E35A939D 
 194      B396491E 
 194      66C640DC 
 194      9EDD
 195 0551 EC6F5B95 		.ascii	"\354o[\225\"T"
 195      2254
 196              		.text
 197              		.section	.gnu.lto_chCoreGetStatusX.44e19f7889b19329,"",%progbits
 198 0000 789C9590 		.ascii	"x\234\225\220;K\003A\020\307gv\357\205\240\330\233\""
 198      3B4B0341 
 198      10C76776 
ARM GAS  /tmp/ccRgjmsS.s 			page 15


 198      EF85A0D8 
 198      9B22
 199 0012 881629CC 		.ascii	"\210\026)\314Y\370\005\354\254\375\010\036\202\202!"
 199      59F805EC 
 199      ACFD081E 
 199      828221
 200 0021 907C806C 		.ascii	"\220|\200lr94\215h\241\210\017R\306w\022lL*\021K\037"
 200      7239348D 
 200      68A1880F 
 200      52C67712 
 200      6C4C2A11 
 201 0037 184CA585 		.ascii	"\030L\245\205\017\264\010\021\022\32129grVb\343\262"
 201      0FB40811 
 201      12D13239 
 201      67725662 
 201      E3B2
 202 0049 BBB3F3DF 		.ascii	"\273\263\363\337a~\377]\015\020x\324)\214P\034\242\205"
 202      617EFF5D 
 202      0D1078D4 
 202      298C501C 
 202      A285
 203 005b 1250AC5C 		.ascii	"\022P\254\\\003\244-\201\310\007e!\244\004\246\360K"
 203      03A42D81 
 203      C8076521 
 203      A404A6F0 
 203      4B
 204 006c 7404DE66 		.ascii	"t\004\336fK\333\362SxT\246Q\332\276\332|\031\340\024"
 204      4BDBF253 
 204      7854A651 
 204      DABEDA7C 
 204      19E014
 205 007f 314CE996 		.ascii	"1L\351\226\252\345\314HA\251\214z|=\231\\u\275)O\012"
 205      AAE5CC48 
 205      41A98C7A 
 205      7C3D995C 
 205      75BD294F 
 206 0094 F005E02E 		.ascii	"\360\005\340.\206\260\200!F\354a\004\250\370\271\334"
 206      86B08021 
 206      46EC6104 
 206      A8F8B9DC 
 207 00a4 5DEB37B2 		.ascii	"]\3537\262\212F\230K\350f\037\015\266T\234>S\276\357"
 207      8A46984B 
 207      E8661F0D 
 207      B6549C3E 
 207      53BEEF
 208 00b7 2AE58F3F 		.ascii	"*\345\217?\214Z\002<)%m\232\306'\235O\006o&psh\321b"
 208      8C5A023C 
 208      29256D9A 
 208      C6279D4F 
 208      066F2670 
 209 00cf A36D2138 		.ascii	"\243m!8\3127\314T\313\3575\223\273\271\222M\257{\347"
 209      CA37CC54 
 209      CBEF3593 
 209      BBB9924D 
 209      AF7BE7
 210 00e2 3726BBD4 		.ascii	"7&\273\324\221\301\225J\363\336Lu\324\222R\203\244\345"
 210      91C1954A 
ARM GAS  /tmp/ccRgjmsS.s 			page 16


 210      F3DE4C75 
 210      D4925283 
 210      A4E5
 211 00f4 2421496E 		.ascii	"$!In\\\326/\372\362\270\223V=\335\300Cz\364\001[\246"
 211      5CD62FFA 
 211      F2B89356 
 211      3DDDC043 
 211      7AF4015B 
 212 0109 CBE5D352 		.ascii	"\313\345\323R\316\262\307\210\217G\230\307.\333\005"
 212      CEB2C788 
 212      8F4798C7 
 212      2EDB05
 213 0118 3C461B08 		.ascii	"<F\033\010\367\261\330\324\002\232$ +\325\247\211@\320"
 213      F7B1D8D4 
 213      029A2420 
 213      2BD5A789 
 213      40D0
 214 012a FEC12BFE 		.ascii	"\376\301+\376\315+\365x\374/X\376\315\323\211@\212\273"
 214      CD2BF578 
 214      FC2F58FE 
 214      CDD38940 
 214      8ABB
 215 013c 61047960 		.ascii	"a\004y`A\017\212\3560\020M\322\241\201\342'c\347-\352"
 215      410F8AEE 
 215      30104DD2 
 215      A181E227 
 215      63E72DEA 
 216 0150 477F45AF 		.ascii	"G\177E\257\030\216F\355`\306\2234\027\346g\354d\302"
 216      188E46ED 
 216      60C69334 
 216      17E667EC 
 216      64C2
 217 0162 B19DB9D8 		.ascii	"\261\235\271\330l\314\211'f\243\016|\003\012\221\242"
 217      6CCC8927 
 217      66A30E7C 
 217      030A91A2 
 218 0172 B1       		.ascii	"\261"
 219              		.text
 220              		.section	.gnu.lto_.symbol_nodes.44e19f7889b19329,"",%progbits
 221 0000 789C6361 		.ascii	"x\234ca`dHf\000\002\246\345L\365\014\014\023\31610\000"
 221      60644866 
 221      0002A6E5 
 221      4CF50C0C 
 221      13CE3130 
 222 0015 A95D0D8A 		.ascii	"\251]\015\212\014\014\254\313\230\030\032\205\200R\254"
 222      0C0CACCB 
 222      98181A85 
 222      8052AC
 223 0024 AB991815 		.ascii	"\253\231\030\025@\364\032&&\020\315\264\202\251\236"
 223      40F41A26 
 223      2610CDB4 
 223      82A99E
 224 0033 114529D3 		.ascii	"\021E)\323J\246z&T\221UL\365\314(\"\014\000\003e\024"
 224      4AA67A26 
 224      5491554C 
 224      F5CC2822 
 224      0C000365 
ARM GAS  /tmp/ccRgjmsS.s 			page 17


 225 0048 E5       		.ascii	"\345"
 226              		.text
 227              		.section	.gnu.lto_.refs.44e19f7889b19329,"",%progbits
 228 0000 789C1DC8 		.ascii	"x\234\035\310\261\011\000 \020\300\300\344_\255,\004"
 228      B1090020 
 228      10C0C0E4 
 228      5FAD2C04 
 229 0010 417008F7 		.ascii	"Ap\010\367_O\261\011\\\012r\200\202\032\361\223\221"
 229      5F4FB109 
 229      5C0A7280 
 229      821AF193 
 229      91
 230 0021 8F0D87CE 		.ascii	"\217\015\207\316\254\330q\351\216\267\304\344\002\026"
 230      ACD871E9 
 230      8EB7C4E4 
 230      0216
 231 002f 2C00D3   		.ascii	",\000\323"
 232              		.text
 233              		.section	.gnu.lto_.decls.44e19f7889b19329,"",%progbits
 234 0000 789CB556 		.ascii	"x\234\265V{PT\347\025\277\347\336eY\226]t\320v\374\003"
 234      7B5054E7 
 234      15BFE7DE 
 234      6559965D 
 234      74D076FC 
 235 0015 53C631D1 		.ascii	"S\3061\321\177`!\232\304\366\257P\323DgjubM2\323\314"
 235      7F60219A 
 235      C4F6AF50 
 235      D344676A 
 235      75624D32 
 236 002b DC599735 		.ascii	"\334Y\2275\273#\273k\331\245\215\375\247\027y\210\242"
 236      BB23BB6B 
 236      D9A58DFD 
 236      A7177988 
 236      A2
 237 003c 2D36D607 		.ascii	"-6\326\007\242\"2\212 B\304\004\237\311\212/$\240\250"
 237      A222328A 
 237      2042C404 
 237      9FC98A2F 
 237      24A0A8
 238 004f 1579167C 		.ascii	"\025y\026| \340\213\267\370\010\332\363=v\357\305\200"
 238      20E08BB7 
 238      F808DAF3 
 238      3D76EFC5 
 238      80
 239 0060 FDA3D33B 		.ascii	"\375\243\323;{\366~\337w\317\371\235\3379\337\371\036"
 239      7BF67EDF 
 239      77CFF99D 
 239      DF39DFF9 
 239      1E
 240 0071 3A0104F2 		.ascii	":\001\004\362\3540\011B\202$\010\205\330}\211O\010\216"
 240      EC300942 
 240      82240885 
 240      D87D894F 
 240      088E
 241 0083 7D22A88F 		.ascii	"}\"\250\217\016\245\024\345(\312q\224S(\250.\\Ci@i\024"
 241      0EA514E5 
 241      28CA7194 
ARM GAS  /tmp/ccRgjmsS.s 			page 18


 241      5328A82E 
 241      5C436940 
 242 0099 C63E4457 		.ascii	"\306>DW\3171\256\2434\241\\E\251AiF\021Q.\241\324\241"
 242      CF31AEA3 
 242      34A15C45 
 242      A9416946 
 242      11512EA1 
 243 00af 00D77F1D 		.ascii	"\000\327\177\035\036\361k@\211D\231\212\262\014\245"
 243      1EF16B40 
 243      8944998A 
 243      B20CA5
 244 00be 026531C7 		.ascii	"\002e1\307\014\340\277\212{\224\217\365pl\355C\342\010"
 244      0CE0BF8A 
 244      7B948FF5 
 244      706CED43 
 244      E208
 245 00d0 7F0D663F 		.ascii	"\177\015f?\3120\312\263\011\360C9\306\217(/H\216\200"
 245      CA30CAB3 
 245      09F04339 
 245      C68F282F 
 245      488E80
 246 00e3 F9D3E3DB 		.ascii	"\371\323\343\333\000\314\377\253>Oq\273\200\317\012"
 246      00CCFFAB 
 246      3E4F71BB 
 246      80CF0A
 247 00f2 EE6BC92B 		.ascii	"\356k\311+>\352\270\037\3406\343a\215\212p\352\332\363"
 247      3EEAB81F 
 247      E036E361 
 247      8D8A70EA 
 247      DAF3
 248 0104 4BBA1668 		.ascii	"K\272\026h\002\264\201\311t\024\200\375\003\025\201"
 248      02B481C9 
 248      741480FD 
 248      031581
 249 0113 09ED6243 		.ascii	"\011\355bC\0248\257\300\020\004\024y_\0144\205 \030"
 249      1438AFC0 
 249      10041479 
 249      5F0C3485 
 249      2018
 250 0125 FD717B5A 		.ascii	"\375q{Z\033\364\241 *:p#\326\347\306\002\360\276\250"
 250      1BF4A120 
 250      2A3A7023 
 250      D6E7C602 
 250      F0BEA8
 251 0138 3A00D60D 		.ascii	":\000\326\015\030h\360\030]\016\247r\016\306\004\201"
 251      1868F018 
 251      5D0EA772 
 251      0EC60481 
 252 0148 A0EF7DDD 		.ascii	"\240\357}\335\272'B\022\201\264\333\237\026}\030{P\301"
 252      BA274212 
 252      81B4DB9F 
 252      167D187B 
 252      50C1
 253 015a 274751C4 		.ascii	"'GQ\304\351jf\256\244\227\347IC\"D\032A\207\335\376"
 253      E96A66AE 
 253      A497E749 
 253      4322441A 
ARM GAS  /tmp/ccRgjmsS.s 			page 19


 253      4187DDFE 
 254 016e BADCDB11 		.ascii	"\272\334\333\021\330\235j\204h\354\216^\334\221+N\333"
 254      D89D6A84 
 254      68EC8E5E 
 254      DC912B4E 
 254      DB
 255 017f 42EDD294 		.ascii	"B\355\322\224h\035|\362s(\201((\206(tt\020\246\341\377"
 255      681D7CF2 
 255      73288128 
 255      28862874 
 255      7410A6E1 
 256 0194 721D435A 		.ascii	"r\035CZ\277qk\206iF\276\222_\256t\264\025\232\267\244"
 256      BF716B86 
 256      6946BE92 
 256      5FAE74B4 
 256      159AB7A4 
 257 01a8 29D56816 		.ascii	")\325h\026M\264\240\010$8\000\261\204\0356\311k?\264"
 257      4DB4A008 
 257      243800B1 
 257      841D36C9 
 257      6B3FB4
 258 01bb 20ED5298 		.ascii	" \355R\230\201\226\0315\215>\351\227\224g[\365\201\022"
 258      81961935 
 258      8D3EE997 
 258      94675BF5 
 258      8112
 259 01cd 4267B111 		.ascii	"Bg\261\021H\264\223p\250\354\301\261\247f6D4\012\237"
 259      48B49370 
 259      A8ECC1B1 
 259      A7663644 
 259      340A9F
 260 01e0 F6569AA4 		.ascii	"\366V\232\244OI[\314\337X\332\023\002\263\215\373\010"
 260      4F495BCC 
 260      DF58DA13 
 260      02B38DFB 
 260      08
 261 01f1 C18ED1CC 		.ascii	"\301\216\321\314\317\00730:\250\000#|\255z\\l\304\377"
 261      CF073330 
 261      3AA80023 
 261      7CAD7A5C 
 261      6CC4FF
 262 0204 2C455943 		.ascii	",EYCb\210\254\216\020\202!\300a\230Mp\211\"\224\343"
 262      6288AC8E 
 262      108221C0 
 262      61984D70 
 262      892294E3 
 263 0218 60190EA2 		.ascii	"`\031\016\242\217\306\223\265C\222\216\324\012\201\302"
 263      8FC693B5 
 263      43928ED4 
 263      0A81C2
 264 0227 00C9D8CD 		.ascii	"\000\311\330\315\252\036\035\035C\203#@\307\012.\257"
 264      AA1E1D1D 
 264      43832340 
 264      C70A2EAF 
 265 0237 DF6F0AEA 		.ascii	"\337o\012\352}\303\006\317\026\0174Fhs\266\314\244\311"
 265      7DC306CF 
 265      160F3446 
ARM GAS  /tmp/ccRgjmsS.s 			page 20


 265      6873B6CC 
 265      A4C9
 266 0249 5925CDD9 		.ascii	"Y%\315\331\267\300\223V?\264\253\323\200I\353 I\313"
 266      B7C09356 
 266      3FB4ABD3 
 266      8049EB20 
 266      49CB
 267 025b 9FB49526 		.ascii	"\237\264\225&-'\232\250\301!5\204C\332\244\035\245I"
 267      2D279AA8 
 267      C1213584 
 267      43DAA41D 
 267      A549
 268 026d 6BB85FB9 		.ascii	"k\270_\271\037\244\032\240I\271=\332}r\022\203\3617"
 268      1FA41AA0 
 268      49B93DDA 
 268      7D721283 
 268      F137
 269 027f D698949C 		.ascii	"\326\230\224\234TEy\237\202\034SA\216iA\216S\220\262"
 269      5445799F 
 269      821C5341 
 269      8E69418E 
 269      5390B2
 270 0292 FEF21DA1 		.ascii	"\376\362\035\241R\027\003\271\227\267}\217YK\234\004"
 270      521703B9 
 270      97B77D8F 
 270      594B9C04 
 271 02a2 A5323F39 		.ascii	"\2452?9f\266\323/\355\354\346\263\355\337\235m\332\256"
 271      66B6D32F 
 271      EDECE6B3 
 271      EDDF9D6D 
 271      DAAE
 272 02b4 F8D3D12E 		.ascii	"\370\323\321.\222h\301\011\325\347\011\255\317S\324"
 272      9268C109 
 272      D5E709AD 
 272      CF53D4
 273 02c3 E7B6EE4E 		.ascii	"\347\266\356N\277Qz\302|\346\236\030\252\011a\345g\300"
 273      BF517AC2 
 273      7CE69E18 
 273      AA0961E5 
 273      67C0
 274 02d5 6EE5A392 		.ascii	"n\345\243\222J3+??\245\224=\\!Ji\254\206\3132\356\034"
 274      4A332B3F 
 274      3FA5943D 
 274      5C214A69 
 274      AC86CB32 
 275 02eb 30E0C728 		.ascii	"0\340\307(\254\015\320\024F\024+\214#\376\301R\235\224"
 275      AC0DD014 
 275      46142B8C 
 275      23FEC152 
 275      9D94
 276 02fd 4D75C52B 		.ascii	"Mu\305+\025M\347\302\202\225\321r\365\215\243\2122\031"
 276      154DE7C2 
 276      8295D172 
 276      F58DA38A 
 276      3219
 277 030f CE634067 		.ascii	"\316c@gUrQ\301\302\350+P\364\323\004\230\023\005qX\025"
 277      557251C1 
ARM GAS  /tmp/ccRgjmsS.s 			page 21


 277      C2E82B50 
 277      F4D30498 
 277      13057158 
 278 0324 E7B02AA2 		.ascii	"\347\260*\242xU\234\301\370\253XU\034\330]t\326,\245"
 278      78559CC1 
 278      F8AB5855 
 278      1CD85D74 
 278      D62CA5
 279 0337 49D4C1C3 		.ascii	"I\324\301\303\315\367\263\244\240\203\312\334\250\022"
 279      CDF7B3A4 
 279      A083CADC 
 279      A812
 280 0345 E2E0223A 		.ascii	"\342\340\":\270\240:@\177\343{\250\036\337\303\346\356"
 280      B8A03A40 
 280      7FE37BA8 
 280      1EDFC3E6 
 280      EE
 281 0356 0B61A6F5 		.ascii	"\013a\246\365j\245R<u\006j\300\304Wm\377?\233\276\222"
 281      6AA5523C 
 281      75066AC0 
 281      C4576DFF 
 281      3F9BBE92 
 282 036a A447948A 		.ascii	"\244G\224\212\256\265\275\364.\300\224\2313go\242s\347"
 282      AEB5BDF4 
 282      2EC09499 
 282      33676FA2 
 282      73E7
 283 037c 5714F009 		.ascii	"W\024\360\011\340G\273\357\251]-L!\256\3402z\275\004"
 283      E047BBEF 
 283      A95D2D4C 
 283      21AEE032 
 283      7ABD04
 284 038f 33A10E66 		.ascii	"3\241\016f\322\345_@<u\264\264\177~zo\246\222c%\370"
 284      D2E55F40 
 284      3C75B4B4 
 284      7F7E7A6F 
 284      A6926325 
 285 03a4 F003B227 		.ascii	"\360\003\262'\372\301%b!\010%\004\207\351\373\233\317"
 285      FAC12562 
 285      21082504 
 285      87E9FB9B 
 285      CF
 286 03b5 9B02CAA7 		.ascii	"\233\002\312\247\307U\216'\2724/\376k\250\253\030\210"
 286      C7558E27 
 286      BA342FFE 
 286      6BA8AB18 
 286      88
 287 03c6 8EC073C2 		.ascii	"\216\300s\302\003\250?\323\234%Iy:\232\313C\207/o\215"
 287      03A83FD3 
 287      9C254979 
 287      3A9ACB43 
 287      872F6F8D 
 288 03da 80D95398 		.ascii	"\200\331S\230\315\360y 6W\021\267^M%\201\020\204q\003"
 288      CDF07920 
 288      365711B7 
 288      5E4D2581 
 288      10847103 
ARM GAS  /tmp/ccRgjmsS.s 			page 22


 289 03ee 842B18D7 		.ascii	"\204+\030\327D1\242\257\007{\273\266D\274\271W\311\307"
 289      4431A2AF 
 289      077BBBB6 
 289      44BCB957 
 289      C9C7
 290 0400 F5D1D6FD 		.ascii	"\365\321\326\375\007\304X@\321\277c\350\232D}G\252\025"
 290      07C45840 
 290      D1BF63E8 
 290      9A447D47 
 290      AA15
 291 0412 AEC19B68 		.ascii	"\256\301\233hu\343\316\021\334C\366Q\206\360\303\206"
 291      75E3CE11 
 291      DC43F651 
 291      86F0C386 
 292 0422 17036264 		.ascii	"\027\003bd\016\337?\337\00721t\303\275\016\221\301\230"
 292      0EDF3FDF 
 292      07323174 
 292      C3BD0E91 
 292      C198
 293 0434 72DBF616 		.ascii	"r\333\366\026\021?\035\030\304\215\314\237\245*U@\276"
 293      113F1D18 
 293      C48DCC9F 
 293      A52A5540 
 293      BE
 294 0445 C3BFE81A 		.ascii	"\303\277\350\032@e\332\200\006\012?\274~\260\323,\035"
 294      4065DA80 
 294      060A3FBC 
 294      7EB0D32C 
 294      1D
 295 0456 61F0DF5C 		.ascii	"a\360\337\\([c\346\226\215\037\372\343\250\331\215\200"
 295      285B63E6 
 295      968D1FFA 
 295      E3A8D98D 
 295      80
 296 0467 196D4023 		.ascii	"\031m@#5\253\354\032\330l\036S\"W5\371\027\360\204\243"
 296      35ABEC1A 
 296      D86C1E53 
 296      225735F9 
 296      17F084A3 
 297 047b 2542DEA8 		.ascii	"%B\336\250=P\333\334\013c\264\011\260\252\335\314\265"
 297      3D50DBDC 
 297      0B63B409 
 297      B0AADDCC 
 297      B5
 298 048c 9BA976EB 		.ascii	"\233\251v\353\376\341N\223t\232Q:\236VRnf\013\363\015"
 298      FEE14E93 
 298      749A513A 
 298      9E56526E 
 298      660BF30D 
 299 04a0 EC666EBA 		.ascii	"\354fn\272\265\227\237\013}d\355\355\251\033\334b\224"
 299      B5979F0B 
 299      7D64EDED 
 299      A91BDC62 
 299      94
 300 04b1 2E33DD82 		.ascii	".3\335\202\356\272\213|\021O'\321\2644m\323\031\263"
 300      EEBA8B7C 
 300      114F27D1 
ARM GAS  /tmp/ccRgjmsS.s 			page 23


 300      B4346DD3 
 300      19B3
 301 04c3 F83E42BC 		.ascii	"\370>B\274Fj\253\270\203\244\016+\005\332Y\321_\177"
 301      466AABB8 
 301      83A40E2B 
 301      05DA59D1 
 301      5F7F
 302 04d5 72EA9949 		.ascii	"r\352\231Ij\244P\272\2125\355{\260\024\242\000\325\201"
 302      6AA450BA 
 302      8A35ED7B 
 302      B014A200 
 302      D581
 303 04e7 2D2E7260 		.ascii	"-.r`\011\320\211+\341&\317\010>\271\012\342\367\375"
 303      09D0892B 
 303      E126CF08 
 303      3EB90AE2 
 303      F7FD
 304 04f9 950C63DB 		.ascii	"\225\014c\333@\337\343\254\263[X\015\235\324\337\035"
 304      40DFE3AC 
 304      B35B580D 
 304      9DD4DF1D 
 305 0509 04BCCD1C 		.ascii	"\004\274\315\034\236\314L\355\322k'\223`\267\341\367"
 305      9ECC4CED 
 305      D26B2793 
 305      60B7E1F7 
 306 0519 56CAEF2E 		.ascii	"V\312\357.\231R\306\222h7_\250M\327\0339v\316\177\303"
 306      9952C692 
 306      68375FA8 
 306      4DD71B39 
 306      76CE7FC3 
 307 052d EE2CBBFE 		.ascii	"\356,\273\376r\014v\327\353\260\267\336<\264N\207\363"
 307      720C76D7 
 307      EBB0B7DE 
 307      3CB44E87 
 307      F3
 308 053e 5E9FAFF8 		.ascii	"^\237\257\370\333.@j\276?5\032\272q\212\376\215\245"
 308      DB2E406A 
 308      BE3F351A 
 308      BA718AFE 
 308      8DA5
 309 0550 89DBBCC6 		.ascii	"\211\333\274\306\262\005G~\217y\350\241e\0208&g\375"
 309      B205477E 
 309      8F79E8A1 
 309      65103826 
 309      67FD
 310 0562 F4989CC5 		.ascii	"\364\230\234\305v\303\253\177\037(\014\225\332\330\002"
 310      76C3AB7F 
 310      1F280C95 
 310      DAD802
 311 0571 3BBFB1E2 		.ascii	";\277\261\342p\270f7\374`\323ZrN>Bn\017\324%6k\342s"
 311      70B86637 
 311      FC60D35A 
 311      724E3E42 
 311      6E0FD425 
 312 0589 F221C63A 		.ascii	"\362!\306:\213\357W\367q\360\036\337\021\0137\025\350"
 312      8BEF57F7 
 312      71F01EDF 
ARM GAS  /tmp/ccRgjmsS.s 			page 24


 312      110B3715 
 312      E8
 313 059a A56EE664 		.ascii	"\245n\346d\373\221\342\021\243fG\234{\220\354\210\375"
 313      FB91E211 
 313      A366479C 
 313      7B90EC88 
 313      FD
 314 05ab E8A357F5 		.ascii	"\350\243W\365\361\010&v\3227\216\023bOJjg\303\256\360"
 314      F1082676 
 314      D2378E13 
 314      624F4A6A 
 314      67C3AEF0 
 315 05bf 894B6A20 		.ascii	"\211Kj PRq\224\326\271\227#\376I\254\036E\222\212\276"
 315      50527194 
 315      D6B99723 
 315      FE49AC1E 
 315      45928ABE 
 316 05d3 DA9DE1AC 		.ascii	"\332\235\341\254v'\223\203|\244}\304\314\247\310\037"
 316      76279383 
 316      7CA47DC4 
 316      CCA7C81F 
 317 05e3 98FE21C4 		.ascii	"\230\376!\304\032\244X\303t\212(\"\355\240\305\235\347"
 317      1AA458C3 
 317      748A2822 
 317      EDA0C59D 
 317      E7
 318 05f4 A5C72318 		.ascii	"\245\307#\030\236\036\273\275\267Gn\031&&3\022 \363"
 318      9E1EBBBD 
 318      B7476E19 
 318      26263312 
 318      20F3
 319 0606 98256968 		.ascii	"\230%ih}\306\010\277a\205b\267\350n\336\337L\214\315"
 319      7DC608BF 
 319      618562B7 
 319      E86EDEDF 
 319      4C8CCD
 320 0619 3CB2B0F2 		.ascii	"<\262\260\362\267\364\206\277Z\214O\021\354\011\005"
 320      B7F486BF 
 320      5A8C4F11 
 320      EC0905
 321 0628 7B46D98C 		.ascii	"{F\331\21406\317(\233\015\031\305\251\241R?[z\303=\355"
 321      3036CF28 
 321      9B0D19C5 
 321      A9A1523F 
 321      5B7AC33D 
 322 063d 4311780C 		.ascii	"C\021x\014\373\361\376\360\270kA\353aEY\247(U:z\353"
 322      FBF1FEF0 
 322      B86B41EB 
 322      614559A7 
 322      28553A7A 
 323 0652 7AAEE6FD 		.ascii	"z\256\346\375\271\366\034\376\221\236\303\373F\236d"
 323      B9F61CFE 
 323      919EC3FB 
 323      469E64
 324 0661 47483B42 		.ascii	"GH;B(\316\300\256\232m\022\307\311\275\277d\0079\020"
 324      28CEC0AE 
 324      9A6D12C7 
ARM GAS  /tmp/ccRgjmsS.s 			page 25


 324      C9BDBF64 
 324      073910
 325 0674 5295FC05 		.ascii	"R\225\374\005\364\222\007\243*\320\250\026\350\005\005"
 325      F49207A3 
 325      2AD0A816 
 325      E80505
 326 0683 BA71B72A 		.ascii	"\272q\267*Q\272\306p\212Kw\225GH7Y'\273\352L\236\036"
 326      51BAC670 
 326      8A4B7795 
 326      47483759 
 326      27BBEA4C 
 327 0699 AF47A088 		.ascii	"\257G\240\210\022+\370\265\017\012\033Dza\352\017^\254"
 327      122BF8B5 
 327      0F0A1B44 
 327      7A61EA0F 
 327      5EAC
 328 06ab 9A1A0AE6 		.ascii	"\232\032\012\346Lx\305L\023\311\245c\215\310o\035\255"
 328      4C78C54C 
 328      13C9A563 
 328      8DC86F1D 
 328      AD
 329 06bc 0F061F86 		.ascii	"\017\006\037\206q\232\337\367~6\372\370\216\242\374"
 329      719ADFF7 
 329      7E36FAF8 
 329      8EA2FC
 330 06cb 4351D261 		.ascii	"CQ\322a*\321\304k\001\347\011\251\242\216\364T\252\351"
 330      2AD1C46B 
 330      01E709A9 
 330      A28EF454 
 330      AAE9
 331 06dd 22A15AFF 		.ascii	"\"\241Z\377\350\304\206p\251XO\351\325\217V\327\351"
 331      E8C48670 
 331      A9584FE9 
 331      D58F56D7 
 331      E9
 332 06ee 38D84897 		.ascii	"8\330H\227\243\2551\000\306\262\227!\006\203\316\020"
 332      A3AD3100 
 332      C6B29721 
 332      0683CE10 
 333 06fe 35489914 		.ascii	"5H\231\024\251cw\327Wf\351[\206\264n\343\375\276\020"
 333      A96377D7 
 333      5766E95B 
 333      86B46EE3 
 333      FDBE10
 334 0711 357BBBC6 		.ascii	"5{\273\306fo\255\012\264V\013\224%\316\020\214\262\315"
 334      666FAD0A 
 334      B4560B94 
 334      25CE108C 
 334      B2CD
 335 0723 936C979D 		.ascii	"\223l\227\235n\247\317\360\321\357\226E\317\217\217"
 335      6EA7CFF0 
 335      D1EF9645 
 335      CF8F8F
 336 0732 1766C4C6 		.ascii	"\027f\304\306Z\330\317\343\305_\222s\271\305\233l\263"
 336      5AD8CFE3 
 336      C55F9273 
 336      B9C59B6C 
ARM GAS  /tmp/ccRgjmsS.s 			page 26


 336      B3
 337 0743 D81C2EBB 		.ascii	"\330\034.\273\213h\307\332\204\3516\307|l%$%yl\011I"
 337      8B68C7DA 
 337      84E936C7 
 337      7C6C2524 
 337      25796C09 
 338 0758 CE2FDCF6 		.ascii	"\316/\334\366\304O\235>\307\342\025+\274v\337B\275\327"
 338      C44F9D3E 
 338      C7E2152B 
 338      BC76DF42 
 338      BDD7
 339 076a F917BBEC 		.ascii	"\371\027\273\354[iqx\\v\213\325m\265|\340\261\245\270"
 339      5B697178 
 339      5C768BD5 
 339      6DB57CE0 
 339      B1A5B8
 340 077d EC6E9F17 		.ascii	"\354n\237\027Q\234\253bV%{b\274>\227\345\013\233-\306"
 340      519CAB62 
 340      56257B62 
 340      BC3E97E5 
 340      0B9B2DC6 
 341 0791 9AEC8A71 		.ascii	"\232\354\212q{\334\366\030\273u\2713\346\035yn\314\333"
 341      7BDCF618 
 341      BB75B933 
 341      E61D796E 
 341      CCDB
 342 07a3 71F1EFFE 		.ascii	"q\361\357\376q\216\205\370E\005\313\030\005\313;\261"
 342      718E85F8 
 342      4505CB18 
 342      05CB3BB1 
 343 07b3 7363E32D 		.ascii	"sc\343-N\267-)%\321n\361\372\022\023\355+b\035B\324"
 343      4EB72D29 
 343      25D16EF1 
 343      FA1213ED 
 343      2B621D42 
 344 07c8 EB084D66 		.ascii	"\353\010Mf\037?\262\373"
 344      1F3FB2FB 
 345 07d0 96FAACBE 		.ascii	"\226\372\254\276\024\357gF\233C\346\301\204\272\355"
 345      14EF6746 
 345      9B43E6C1 
 345      84BAED
 346 07df 5FFAB01D 		.ascii	"_\372\260\035&\313)N\267o\236\214\264\376'\332c\351"
 346      26CB294E 
 346      B76F9E8C 
 346      B4FE27DA 
 346      63E9
 347 07f1 0688BAAC 		.ascii	"\006\210\272\254\210\340\266[d\244kMI\362\311\276\325"
 347      88E0B65B 
 347      64A46B4D 
 347      49F2C9BE 
 347      D5
 348 0802 ABEC5E24 		.ascii	"\253\354^$\036\312\275.\377\177x\365\256\366Zd\314\021"
 348      1ECABD2E 
 348      FF7F78F5 
 348      AEF65A64 
 348      CC11
 349 0814 BA40577A 		.ascii	"\272@Wz\273;\021#}\353\247\323\033\320W\247\330!\204"
ARM GAS  /tmp/ccRgjmsS.s 			page 27


 349      BB3B1123 
 349      7DEBA7D3 
 349      1BD057A7 
 349      D82184
 350 0827 F1A6EC33 		.ascii	"\361\246\3543\313\262\303n]%/\267z\355\262l\342=\004"
 350      CBB2C36E 
 350      5D252FB7 
 350      7AEDB26C 
 350      E23D04
 351 083a 9365FCB4 		.ascii	"\223e\374\264\"\305m\223\345\330\367\342\336\235g\010"
 351      22C56D93 
 351      E5D8F7E2 
 351      DE9D6708 
 352 084a F4743687 		.ascii	"\364t6\2075\331\3102:\347m\331g\0104\302l\216\245\253"
 352      35D9C832 
 352      3AE76DD9 
 352      670834C2 
 352      6C8EA5AB 
 353 085e BDBFF5D8 		.ascii	"\275\277\365\330V\376B\313\"\331\247\241\200\244\211"
 353      56FE42CB 
 353      22D9A7A1 
 353      80A489
 354 086d FB559E64 		.ascii	"\373U\236d\237\214\263\2712F\253i\363\270\\\036\267"
 354      9F8CB3B9 
 354      3246AB69 
 354      F3B85C1E 
 354      B7
 355 087e 857CF45A 		.ascii	"\205|\364Z\022>^4\177\321\227hBy\376\351=\027\332!#"
 355      123E5E34 
 355      7FD19768 
 355      4279FEE9 
 355      3D17DA21 
 356 0893 9C71F9D7 		.ascii	"\234q\371\327\011K\177\263\344\343\205fk\322\237\255"
 356      094B7FB3 
 356      E4E38566 
 356      6BD29FAD 
 357 08a3 ABBD58DF 		.ascii	"\253\275X\337I\230\375_\215\203\204\263Op,\363\027-"
 357      4998FD5F 
 357      8D8384B3 
 357      4F702CF3 
 357      172D
 358 08b5 5DB8D442 		.ascii	"]\270\324B\312\304\2620@\305\345uzeL;\302\206S\342\313"
 358      CAC4B230 
 358      40C5E575 
 358      7A654C3B 
 358      C28653E2 
 359 08ca DC845038 		.ascii	"\334\204P8\245\226B\333\377\001jX\013\006"
 359      A59642DB 
 359      FF016A58 
 359      0B06
 360              		.text
 361              		.section	.gnu.lto_.symtab.44e19f7889b19329,"",%progbits
 362 0000 5F636F72 		.ascii	"_core_init\000"
 362      655F696E 
 362      697400
 363 000b 00       		.ascii	"\000"
 364 000c 00       		.ascii	"\000"
ARM GAS  /tmp/ccRgjmsS.s 			page 28


 365 000d 00       		.ascii	"\000"
 366 000e 00000000 		.ascii	"\000\000\000\000\000\000\000\000"
 366      00000000 
 367 0016 AD000000 		.ascii	"\255\000\000\000"
 368 001a 63685F6D 		.ascii	"ch_memcore\000"
 368      656D636F 
 368      726500
 369 0025 00       		.ascii	"\000"
 370 0026 00       		.ascii	"\000"
 371 0027 00       		.ascii	"\000"
 372 0028 00000000 		.ascii	"\000\000\000\000\000\000\000\000"
 372      00000000 
 373 0030 D3000000 		.ascii	"\323\000\000\000"
 374 0034 6368436F 		.ascii	"chCoreAllocAlignedWithOffsetI\000"
 374      7265416C 
 374      6C6F6341 
 374      6C69676E 
 374      65645769 
 375 0052 00       		.ascii	"\000"
 376 0053 00       		.ascii	"\000"
 377 0054 00       		.ascii	"\000"
 378 0055 00000000 		.ascii	"\000\000\000\000\000\000\000\000"
 378      00000000 
 379 005d B8000000 		.ascii	"\270\000\000\000"
 380 0061 6368436F 		.ascii	"chCoreAllocAlignedWithOffset\000"
 380      7265416C 
 380      6C6F6341 
 380      6C69676E 
 380      65645769 
 381 007e 00       		.ascii	"\000"
 382 007f 00       		.ascii	"\000"
 383 0080 00       		.ascii	"\000"
 384 0081 00000000 		.ascii	"\000\000\000\000\000\000\000\000"
 384      00000000 
 385 0089 BA000000 		.ascii	"\272\000\000\000"
 386 008d 6368436F 		.ascii	"chCoreGetStatusX\000"
 386      72654765 
 386      74537461 
 386      74757358 
 386      00
 387 009e 00       		.ascii	"\000"
 388 009f 00       		.ascii	"\000"
 389 00a0 00       		.ascii	"\000"
 390 00a1 00000000 		.ascii	"\000\000\000\000\000\000\000\000"
 390      00000000 
 391 00a9 BD000000 		.ascii	"\275\000\000\000"
 392 00ad 5F5F6865 		.ascii	"__heap_base__\000"
 392      61705F62 
 392      6173655F 
 392      5F00
 393 00bb 00       		.ascii	"\000"
 394 00bc 02       		.ascii	"\002"
 395 00bd 00       		.ascii	"\000"
 396 00be 00000000 		.ascii	"\000\000\000\000\000\000\000\000"
 396      00000000 
 397 00c6 D6000000 		.ascii	"\326\000\000\000"
 398 00ca 5F5F6865 		.ascii	"__heap_end__\000"
ARM GAS  /tmp/ccRgjmsS.s 			page 29


 398      61705F65 
 398      6E645F5F 
 398      00
 399 00d7 00       		.ascii	"\000"
 400 00d8 02       		.ascii	"\002"
 401 00d9 00       		.ascii	"\000"
 402 00da 00000000 		.ascii	"\000\000\000\000\000\000\000\000"
 402      00000000 
 403 00e2 D8000000 		.ascii	"\330\000\000\000"
 404              		.text
 405              		.section	.gnu.lto_.opts,"",%progbits
 406 0000 272D666D 		.ascii	"'-fmath-errno' '-fsigned-zeros' '-ftrapping-math' '"
 406      6174682D 
 406      6572726E 
 406      6F272027 
 406      2D667369 
 407 0033 2D666E6F 		.ascii	"-fno-trapv' '-fno-openmp' '-fno-openacc' '-mcpu=cor"
 407      2D747261 
 407      70762720 
 407      272D666E 
 407      6F2D6F70 
 408 0066 7465782D 		.ascii	"tex-m4' '-mthumb' '-ggdb' '-O2' '-fomit-frame-point"
 408      6D342720 
 408      272D6D74 
 408      68756D62 
 408      2720272D 
 409 0099 65722720 		.ascii	"er' '-falign-functions=16' '-ffunction-sections' '-"
 409      272D6661 
 409      6C69676E 
 409      2D66756E 
 409      6374696F 
 410 00cc 66646174 		.ascii	"fdata-sections' '-fno-common' '-flto'\000"
 410      612D7365 
 410      6374696F 
 410      6E732720 
 410      272D666E 
 411              		.text
 412              		.comm	__gnu_lto_v1,1,1
 413              		.comm	__gnu_lto_slim,1,1
 414              		.ident	"GCC: (GNU Tools for ARM Embedded Processors) 5.4.1 20160919 (release) [ARM/embedded-5-bran
ARM GAS  /tmp/ccRgjmsS.s 			page 30


DEFINED SYMBOLS
                            *ABS*:00000000 chmemcore.c
                            *COM*:00000001 __gnu_lto_v1
                            *COM*:00000001 __gnu_lto_slim

NO UNDEFINED SYMBOLS
