ARM GAS  /tmp/ccK7eMwd.s 			page 1


   1              		.syntax unified
   2              		.cpu cortex-m4
   3              		.fpu softvfp
   4              		.eabi_attribute 20, 1
   5              		.eabi_attribute 21, 1
   6              		.eabi_attribute 23, 3
   7              		.eabi_attribute 24, 1
   8              		.eabi_attribute 25, 1
   9              		.eabi_attribute 26, 1
  10              		.eabi_attribute 30, 2
  11              		.eabi_attribute 34, 1
  12              		.eabi_attribute 18, 4
  13              		.thumb
  14              		.syntax unified
  15              		.file	"hal_st_lld.c"
  16              		.text
  17              	.Ltext0:
  18              		.section	.gnu.lto_.profile.e20438f20a5af13,"",%progbits
  19 0000 789C6361 		.ascii	"x\234ca`d`a`\000\222\266\012\000\001\004\000h"
  19      60646061 
  19      600092B6 
  19      0A000104 
  19      0068
  20              		.text
  21              		.section	.gnu.lto_.icf.e20438f20a5af13,"",%progbits
  22 0000 789C6361 		.ascii	"x\234ca`d\000\001>\006\004`bXun\311Z\026\306\346\376"
  22      60640001 
  22      3E060460 
  22      6258756E 
  22      C95A16C6 
  23 0016 9F4B3818 		.ascii	"\237K8\030\000+\205\005\233"
  23      002B8505 
  23      9B
  24              		.text
  25              		.section	.gnu.lto_.jmpfuncs.e20438f20a5af13,"",%progbits
  26 0000 789C6361 		.ascii	"x\234ca`d\000\001s\006\004`\002\223@q\026\306\277L\214"
  26      60640001 
  26      73060460 
  26      02934071 
  26      16C6BF4C 
  27 0015 4F4F4E6E 		.ascii	"OONn\343\371\302\324\312\314\300(\303\270\234Q\006("
  27      E3F9C2D4 
  27      CACCC028 
  27      C3B89C51 
  27      0628
  28 0027 0314EDFA 		.ascii	"\003\024\355\372u\275\217\003\"\312\301\270\002$\312"
  28      75BD8F03 
  28      22CAC1B8 
  28      0224CA
  29 0036 00005D34 		.ascii	"\000\000]4\014\267"
  29      0CB7
  30              		.text
  31              		.section	.gnu.lto_.inline.e20438f20a5af13,"",%progbits
  32 0000 789C6361 		.ascii	"x\234ca`d\000\001+\006\004`b`\340\021ed`\342\273\027"
  32      60640001 
  32      2B060460 
  32      6260E011 
ARM GAS  /tmp/ccK7eMwd.s 			page 2


  32      656460E2 
  33 0016 C0C0B640 		.ascii	"\300\300\266@\236\011$\306\310\005'\030$\024\200\222"
  33      9E0924C6 
  33      C8052718 
  33      24148092 
  34 0026 2A0B6632 		.ascii	"*\013f2\301e\231y\300\272\030\000\250\263\004\362"
  34      C1659979 
  34      C0BA1800 
  34      A8B304F2 
  35              		.text
  36              		.section	.gnu.lto_.pureconst.e20438f20a5af13,"",%progbits
  37 0000 789C6361 		.ascii	"x\234ca`d`c```b\330\305\310(\005\000\003\241\000\344"
  37      60646063 
  37      60606062 
  37      D8C5C828 
  37      050003A1 
  38              		.text
  39              		.section	.gnu.lto_VectorB0.e20438f20a5af13,"",%progbits
  40 0000 789C8554 		.ascii	"x\234\205T_L\223W\024?\347\336\257\375J\213\223W\015"
  40      5F4C9357 
  40      143FE7DE 
  40      AFFD4A8B 
  40      93570D
  41 0013 71E5812C 		.ascii	"q\345\201,&\033\237\377\242\311\336\026\366Bb\343B}"
  41      261B9FFF 
  41      A2C9DE16 
  41      F64262E3 
  41      427D
  42 0025 27AE3683 		.ascii	"'\2566\203\204Z\323\217\031}\342B\251\232\354\305\227"
  42      845AD38F 
  42      197DE242 
  42      A99AECC5 
  42      97
  43 0036 19B2B935 		.ascii	"\031\262\2715\2311\026\265 ln+\016\250\240\242\"\020"
  43      993116B5 
  43      206C6E2B 
  43      0EA8A0A2 
  43      2210
  44 0048 17B71762 		.ascii	"\027\267\027b\202\020Q\027\262\324\311\037\215\203\356"
  44      82105117 
  44      B2D4C91F 
  44      8D83EE
  45 0057 9CDBC26A 		.ascii	"\234\333\302j\353\334M\363}\367\336\337\371\363;\347"
  45      EBDC4DF3 
  45      7DF7DEDF 
  45      F9F33BE7 
  46 0067 77BE1A80 		.ascii	"w\276\032\200\300\253\322\001 h\273\213\366\350\000"
  46      C0ABD201 
  46      2068BB8B 
  46      F6E800
  47 0076 14A72600 		.ascii	"\024\247&\000\332\\B\310\376-\240\334\306\357\026\250"
  47      DA5C42C8 
  47      FE2DA0DC 
  47      C6EF16A8 
  48 0086 728946EE 		.ascii	"r\211F\356\332@\344\215r!\264\012i`+.\212\025\201\303"
  48      DA40E48D 
  48      7221B40A 
ARM GAS  /tmp/ccK7eMwd.s 			page 3


  48      69602B2E 
  48      8A1581C3 
  49 009a 27E65262 		.ascii	"'\346Rb\353yEk\372\321R\231J\2441&\001\262B\247\000"
  49      EB79456B 
  49      FAD15299 
  49      4AA43126 
  49      01B242A7 
  50 00af 3C8F5B81 		.ascii	"<\217[\201\314fzW\277\334\340\354`3o\016\304\004:\231"
  50      CC667A57 
  50      BFDCE0EC 
  50      60336F0E 
  50      C4043A99 
  51 00c3 474F7D5A 		.ascii	"GO}Ze\263Q\245V\266\275z\317-!F\031\371\001\220!3N\371"
  51      65B351A5 
  51      56B6BD7A 
  51      CF2D2146 
  51      19F90190 
  52 00db 4C087ECB 		.ascii	"L\010~\3139\034\356\357]\034q\260gTJ\212z:6<i.\210\230"
  52      391CEEEF 
  52      5D1C71B0 
  52      67544A8A 
  52      7A3A363C 
  53 00f3 A432E838 		.ascii	"\2442\3508\221\\\316\270sGNd\320\325\331\356\245QW\034"
  53      915CCEB8 
  53      73474E64 
  53      D0D5D9EE 
  53      A551571C 
  54 0107 BF215212 		.ascii	"\277!R\022/`%va%\260\355\205\361\205\347\246\225T\035"
  54      2F602576 
  54      6125B0ED 
  54      85F185E7 
  54      A695541D 
  55 011b 84187811 		.ascii	"\204\030x\021\343\270\252)\343%\264`\016\243\177\037"
  55      E3B8AA29 
  55      E325B460 
  55      0EA37F1F 
  56 012b BF2B7389 		.ascii	"\277+s\211\214\\\256\033\331\345\364F\016\216(0IQ\036"
  56      8C5CAE1B 
  56      D9E5F446 
  56      0E8E2830 
  56      49511E
  57 013e 62C75474 		.ascii	"b\307Tts\336\206\014z\346S/7\344\014\000\2739\0150w"
  57      73DE860C 
  57      7AE6532F 
  57      37E40C00 
  57      BB390D30 
  58 0153 09FD5B98 		.ascii	"\011\375[\230\372BfqVS/`\325\3064\375\360vn=\377r\273"
  58      FA426671 
  58      56532F60 
  58      D5C634FD 
  58      F0766E3D 
  59 016a 8C5661D5 		.ascii	"\214Va\325\006%\352%\237\031l\257`\277{\035\227\317"
  59      0625EA25 
  59      9F196CAF 
  59      60BF7B1D 
  59      97CF
  60 017c 48061CC8 		.ascii	"H\006\034\310\204\236\215\1775\373\016\037\235\350\245"
ARM GAS  /tmp/ccK7eMwd.s 			page 4


  60      849E8D7F 
  60      35FB0E1F 
  60      9DE8A5
  61 018b E3B93BBF 		.ascii	"\343\271;\277\016y\344n\335\251\205\316\336DY\365Y\245"
  61      0E79E46E 
  61      DDA985CE 
  61      DE4459F5 
  61      59A5
  62 019d DAD5F4CA 		.ascii	"\332\325\364\312S\337\265s\307\325\2516WL\232\370\003"
  62      53DFB573 
  62      C7D5A936 
  62      574C9AF8 
  62      03
  63 01ae 4A9207BF 		.ascii	"J\222\007\277':}\371\032\360\012V\223\317\211\247j\300"
  63      273A7DF9 
  63      1AF00A56 
  63      93CF89A7 
  63      6AC0
  64 01c0 E070267A 		.ascii	"\340p&z\361G\302\036c\373Lj\364\317=\257\313\233\036"
  64      F147C21E 
  64      63FB4C6A 
  64      F4CF3DAF 
  64      CB9B1E
  65 01d3 5BF26B71 		.ascii	"[\362kq\2639Q\012\241\241\323I\354t\002\376\304\250"
  65      B339510A 
  65      A1A1D349 
  65      EC7402FE 
  65      C4A8
  66 01e5 284607CE 		.ascii	"(F\007\316|\215\004\376\314\240,\006_N%\270\257)\006"
  66      7C8D04FE 
  66      CCA02C06 
  66      5F4E25B8 
  66      AF2906
  67 01f8 8D225075 		.ascii	"\215\"PuM \223\004\354g\330Q2px\225\002\003\376\302"
  67      4D209304 
  67      EC67D851 
  67      32707895 
  67      0203FEC2 
  68 020c 1387C49B 		.ascii	"\023\207\304\233\360\357\342}/\334U/0\256:\2751\351"
  68      F0EFE27D 
  68      2FDC552F 
  68      30AE3ABD 
  68      31E9
  69 021e 6297E4EC 		.ascii	"b\227\344\354U\3452\250\3238\200UZ\210\314\374\375)"
  69      55E532A8 
  69      D3388055 
  69      5A88CCFC 
  69      FD29
  70 0230 41373888 		.ascii	"A78\210\206.\031pH\267618\362\250\274\352U\336\273\214"
  70      862E1970 
  70      48B73631 
  70      38F2A8BC 
  70      EA55DEBB 
  71 0245 6DFFEAEE 		.ascii	"m\377\352\356\373\315\243\275\323\354\215\327h\214g"
  71      FBCDA3BD 
  71      D3EC8DD7 
  71      688C67
ARM GAS  /tmp/ccK7eMwd.s 			page 5


  72 0254 50E8EE01 		.ascii	"P\350\356\001<\301\350\364\267c\0176\025U\365\305\362"
  72      3CC1E8F4 
  72      B7630F36 
  72      1555F5C5 
  72      F2
  73 0265 5AAF9CA5 		.ascii	"Z\257\234\245\244\2075\351\021\324P*5?e\266\256\250"
  73      A48735E9 
  73      11D4502A 
  73      353F65B6 
  73      AEA8
  74 0277 934A55C4 		.ascii	"\223JU\304\244;+L\215\343ul\245\371\361\254\317\300"
  74      A43B2B4C 
  74      8DE3756C 
  74      A5F9F1AC 
  74      CFC0
  75 0289 6BCA76ED 		.ascii	"k\312v\355\373\037eohe\327\007\312\244\366\334|\213"
  75      FB1F656F 
  75      6865D707 
  75      CAA4F6DC 
  75      7C8B
  76 029b B2EB6C5D 		.ascii	"\262\353l]\245\312\336\322\312\2162ZV\252\354m\346z"
  76      A5CADED2 
  76      CA8E325A 
  76      56AAEC6D 
  76      E67A
  77 02ad 8B417789 		.ascii	"\213Aw\211\262\317\273X\331\333\014z\212\225\2752\211"
  77      B2CFBB58 
  77      D9DB0C7A 
  77      8A95BD32 
  77      89
  78 02be 4C12F0CE 		.ascii	"L\022\360\316\177(;\246\233t\267@\331\325\370\303A\317"
  78      7F283BA6 
  78      9B74B740 
  78      D9D5F8C3 
  78      41CF
  79 02d0 9A6837B5 		.ascii	"\232h7\265h\343Z\264b\205&\326\024\342\004\372[5\364"
  79      68E35AB4 
  79      628526D6 
  79      14E204FA 
  79      5B35F4
  80 02e3 FF0C6B75 		.ascii	"\377\014ku}\025\271\3227v\276\234|'\363m\377\003\333"
  80      7D15B9D2 
  80      3776BE9C 
  80      7C27F36D 
  80      FF03DB
  81 02f6 D3CBFBB4 		.ascii	"\323\313\373\264)\257\014\315<\205\240\034;kj\254\334"
  81      29AF0CCD 
  81      3C85A01C 
  81      3B6B6AAC 
  81      DC
  82 0307 2F6C5B8D 		.ascii	"/l[\215\007\232\255\303\341H\213m\371\367\373v\356\260"
  82      079AADC3 
  82      E1488B6D 
  82      F9F7FB76 
  82      EEB0
  83 0319 F6EEFDD8 		.ascii	"\366\356\375\330\332_\347;\262\235\221\006\273\245\241"
  83      DA5FE73B 
ARM GAS  /tmp/ccK7eMwd.s 			page 6


  83      B29D9106 
  83      BBA5A1
  84 0328 B9F9604D 		.ascii	"\271\371`M\000\314O\017\330\301O\"M\037\024\372\006"
  84      00CC4F0F 
  84      D8C14F22 
  84      4D1F14FA 
  84      06
  85 0339 C2A150F8 		.ascii	"\302\241P\370P\336\375\243z_\255\357\250\025h\014\204"
  85      50DEFDA3 
  85      7A5FADEF 
  85      A815680C 
  85      84
  86 034a 23C18623 		.ascii	"#\301\206#{B5\215\360\341\033\254\203G[\330\326\252"
  86      7B42358D 
  86      F0E11BAC 
  86      83475BD8 
  86      D6AA
  87 035c F5F9EBFC 		.ascii	"\365\371\353\374V-\031[u\207\002\315\237\037\014Z\201"
  87      562D195B 
  87      758702CD 
  87      9F1F0C5A 
  87      81
  88 036d 90DD6437 		.ascii	"\220\335d7|\026\010\220\353\273\305$\3036=\"-\372]\214"
  88      7C160890 
  88      EBBBC524 
  88      C3363D22 
  88      2DFA5D8C 
  89 0381 D375D35A 		.ascii	"\323u\323Z\214F\373\230Mx\205\317_\357e\322\207#M\357"
  89      8C46FB98 
  89      4D7885CF 
  89      5FEF65D2 
  89      87234DEF 
  90 0395 7BABB781 		.ascii	"{\253\267\201\210\200\031\012\206\302\221c\360\017\331"
  90      8880190A 
  90      86C29163 
  90      F00FD9
  91 03a4 DB1D0E   		.ascii	"\333\035\016"
  92              		.text
  93              		.section	.gnu.lto_st_lld_init.e20438f20a5af13,"",%progbits
  94 0000 789C9D94 		.ascii	"x\234\235\224KL\023A\030\307\347\333\335n\267+>.\236"
  94      4B4C1341 
  94      18C7E7DB 
  94      DD6EB72B 
  94      3E2E9E
  95 0013 ECC12B1E 		.ascii	"\354\301+\036X\001={\361b\002\027\341\342\211\030=x"
  95      58013D7B 
  95      F1620217 
  95      E1E28918 
  95      3D78
  96 0025 20C108F1 		.ascii	" \301\010\361\332\301v\201xP\214\2417\302\201\003\210"
  96      DAC17681 
  96      78508CA1 
  96      37C28103 
  96      88
  97 0036 F22802D2 		.ascii	"\362(\002\322\212Z*\017Q(\210<L\004A\023\032#\036\026"
  97      8A5A2A0F 
  97      5128883C 
ARM GAS  /tmp/ccK7eMwd.s 			page 7


  97      4C044113 
  97      1A231E16 
  98 004a A88F48A0 		.ascii	"\250\217H\240~\337liK\274\300N\332\331\356\314\364\367"
  98      7EDF6C69 
  98      4BBCC04E 
  98      DAD9EECC 
  98      F4F7
  99 005c FBEFB73B 		.ascii	"\373\357\267;\2530`\324\252T\306\316\343\361\024~Af"
  99      AB3060D4 
  99      AA54C6CE 
  99      E3F1147E 
  99      4166
 100 006e 2035C619 		.ascii	" 5\306\031\253\325$\000\372\3015`>\011|\360S\332\221"
 100      ABD52400 
 100      FAC13560 
 100      3E097CF0 
 100      53DA91
 101 0081 20569F08 		.ascii	" V\237\010K\371m\034\333\352Zk\021o\217\202)3\226\222"
 101      4BF96D1C 
 101      DBEA5A6B 
 101      116F8F82 
 101      29339692 
 102 0095 0489411B 		.ascii	"\004\211A\033\3443\\\3665\264\333tT\015\320\262\323"
 102      E4335CF6 
 102      35B4DB74 
 102      540DD0B2 
 102      D3
 103 00a6 F624B483 		.ascii	"\366$\264\203J\272\356\313Q\236J\3719\3378\273\224\177"
 103      4ABAEECB 
 103      519E4AF9 
 103      39DF38BB 
 103      947F
 104 00b8 5262A68C 		.ascii	"Rb\246\214J\354\\\324\251\324i\324y\250\323\251c\314"
 104      4AEC5CD4 
 104      A9D469D4 
 104      79A8D3A9 
 104      63CC
 105 00ca C2FF5392 		.ascii	"\302\377S\222\015I\242\243\234\200Xd#~\216\210~\231"
 105      0D49A2A3 
 105      9C805864 
 105      237E8E88 
 105      7E99
 106 00dc 4205CDD8 		.ascii	"B\005\315\330\264;)\231\262\004$\0174\217&<\366)\267"
 106      B43B2999 
 106      B204240F 
 106      348F263C 
 106      F629B7
 107 00ef 1AB88243 		.ascii	"\032\270\202C\353+\333aW\0134cX\031:\300\013\217\300"
 107      EB2BDB61 
 107      570B3463 
 107      58193AC0 
 107      0B8FC0
 108 0102 CB68ED66 		.ascii	"\313h\355fpf5\317\350\344\201Z~\302\224\025x\014-\260"
 108      706635CF 
 108      E8E4815A 
 108      7EC29415 
 108      780C2DB0 
ARM GAS  /tmp/ccK7eMwd.s 			page 8


 109 0116 2B2E069E 		.ascii	"+.\006\236\200\301\022\340\377\243\332\"\331v\365\215"
 109      80C112E0 
 109      FFA3DA22 
 109      D976F58D 
 110 0126 8CD76904 		.ascii	"\214\327i\004\007l\235H\3014A\240%\207\321te5\335` "
 110      076C9D48 
 110      C13441A0 
 110      2587D174 
 110      6535DD60 
 111 013b 9C3011B0 		.ascii	"\2340\021\260M\256\303\220z\004\211*\013\241\375\201"
 111      4DAEC390 
 111      7A04892A 
 111      0BA1FD81 
 112 014b 89E43C61 		.ascii	"\211\344<ao\226\373\224\022\252\271\011\265\003\221"
 112      6F96FB94 
 112      12AAB909 
 112      B50391
 113 015a 80387D59 		.ascii	"\2008}YN\277\310\027\213<\230Sl\214'\367\336\271\304"
 113      4EBFC817 
 113      8B3C9853 
 113      6C8C27F7 
 113      DEB9C4
 114 016d BDBBEB1F 		.ascii	"\275\273\353\037\356\325\354S\036m\344\307ph\346\363"
 114      EED5EC53 
 114      1E6DE4C7 
 114      7068E6F3 
 115 017d E0826E8B 		.ascii	"\340\202n\213Tx\206\242\201\264h`k\363~n\344A\241\022"
 115      547886A2 
 115      81B46860 
 115      6BF37E6E 
 115      E441A112 
 116 0191 0F5B787F 		.ascii	"\017[x\177)tt\375W\212\003s#Y\356s*\205N\230\2445\037"
 116      297474FD 
 116      578A0373 
 116      2359EE73 
 116      2A854E98 
 117 01a8 70A74999 		.ascii	"p\247I\231kp\213k\210w\376\266t\373\2246\000=\177\255"
 117      6B708B6B 
 117      8877FEB6 
 117      74FB9436 
 117      003D7FAD 
 118 01bc 5DBFC635 		.ascii	"]\277\3065t\325\322\300\005|\2545x\201\306\241\264\261"
 118      74D5D2C0 
 118      057CAC35 
 118      7881C6A1 
 118      B4B1
 119 01ce 632AB9E5 		.ascii	"c*\271\345\316\224\354\245\360\311\344{\005\006N\177"
 119      CE94ECA5 
 119      F0C9E47B 
 119      05064E7F 
 120 01de E90B3409 		.ascii	"\351\0134\011\276\002mc\014\242\366\205${\0262\011\016"
 120      BE026D63 
 120      0CA2F685 
 120      247B1632 
 120      090E
 121 01f0 C51F167C 		.ascii	"\305\037\026|\205\3701\301_\037\352\371\350\262\371"
 121      85F831C1 
ARM GAS  /tmp/ccK7eMwd.s 			page 9


 121      5F1FEAF9 
 121      E8B2F9
 122 01ff 296CC7E1 		.ascii	")l\307\341u\332`94\214\010\203\213\014\243\302\220\251"
 122      75DA6039 
 122      348C0883 
 122      8B0CA3C2 
 122      90A9
 123 0211 90020CC6 		.ascii	"\220\002\014\306\366\362/:\241{`\\\320\361\245ES\251"
 123      F6F22F3A 
 123      A17B605C 
 123      D0F1A545 
 123      53A9
 124 0223 6068592D 		.ascii	"`hY-\354\246\233\305\257\020\377\015\030p\306+\266\326"
 124      ECA69BC5 
 124      AF10FF0D 
 124      1870C62B 
 124      B6D6
 125 0235 04146664 		.ascii	"\004\024fd\226#\231\002o\205\314M\270wH\316d_r\206\233"
 125      96239902 
 125      6F85CC4D 
 125      B87748CE 
 125      645F7286 
 126 024a 14388D70 		.ascii	"\0248\215pS98\313!..p\036\302M\213B\367\327O\206t\273"
 126      533938CB 
 126      212E2E70 
 126      1EC24D8B 
 126      42F7D74F 
 127 0261 D000337B 		.ascii	"\320\0003{a\227\235\321\337\013\272N\364Y\014K\270o"
 127      61979DD1 
 127      DF0BBA4E 
 127      F4590C4B 
 127      B86F
 128 0273 6046B767 		.ascii	"`F\267g\305\026\242\365\341\360\217On\337\016o\340\264"
 128      C516A2F5 
 128      E1F08F4F 
 128      6EDF0E6F 
 128      E0B4
 129 0285 55F4146D 		.ascii	"U\364\024mt\370\000>\232[\233xX\227GQ\216\240`\016\274"
 129      74F8003E 
 129      9A5B9B78 
 129      58974751 
 129      8EA0600E 
 130 029a B4BBFF2E 		.ascii	"\264\273\377.\336\323\354!\015\346\301k\312y\354;\334"
 130      DED3EC21 
 130      0DE6C16B 
 130      CA79EC3B 
 130      DC
 131 02ab 8986CB04 		.ascii	"\211\206\313\004\220\232\205\010|\311\343n+.(0\354O"
 131      909A8508 
 131      7CC9E36E 
 131      2B2E2830 
 131      EC4F
 132 02bd 55B571E3 		.ascii	"U\265q\343j\245q\263\352VM\265QV^Z\\d\224\224\\4\312"
 132      6AA571B3 
 132      EA564DB5 
 132      51565E5A 
 132      5C649494 
ARM GAS  /tmp/ccK7eMwd.s 			page 10


 133 02d4 2F95DE2E 		.ascii	"/\225\336.\244\231\212\352\232\212\312\312\353\005\327"
 133      A4998AEA 
 133      9A8ACACA 
 133      EB05D7
 134 02e3 D83F0FD2 		.ascii	"\330?\017\3226r"
 134      3672
 135              		.text
 136              		.section	.gnu.lto_.symbol_nodes.e20438f20a5af13,"",%progbits
 137 0000 789C55C8 		.ascii	"x\234U\310\313\011\2000\020\204\341\331\331`\033\321"
 137      CB098030 
 137      1084E1D9 
 137      D9601BD1 
 138 0010 12AD6073 		.ascii	"\022\255`s\010\010\236\254\307\002\342\013\254\302c"
 138      08089EAC 
 138      C702E20B 
 138      ACC263
 139 001f 8A70F164 		.ascii	"\212p\361d\346?\014|\001\202\021>n4`\271\001\2775\015"
 139      E63F0C7C 
 139      0182113E 
 139      6E3460B9 
 139      01BF350D 
 140 0033 2E3B4D1A 		.ascii	".;M\032\221\203\306O\200\224z\207\223\246\015\\\264"
 140      9183C64F 
 140      80947A87 
 140      93A60D5C 
 140      B4
 141 0044 F007F572 		.ascii	"\360\007\365r)\235\202\310S\215*\001\317\\#^3\034\033"
 141      299D82C8 
 141      538D2A01 
 141      CF5C235E 
 141      331C1B
 142 0057 9C       		.ascii	"\234"
 143              		.text
 144              		.section	.gnu.lto_.refs.e20438f20a5af13,"",%progbits
 145 0000 789C6361 		.ascii	"x\234ca`\004B \000\000\0009\000\007"
 145      60044220 
 145      00000039 
 145      0007
 146              		.text
 147              		.section	.gnu.lto_.decls.e20438f20a5af13,"",%progbits
 148 0000 789CCD59 		.ascii	"x\234\315Y}LTI\266\357\272\325@\363!\316\242\231\230"
 148      7D4C5449 
 148      B6EFBAD5 
 148      40F321CE 
 148      A29998
 149 0013 8D2F3399 		.ascii	"\215/3\231\220\225\274\215\266\200;\273\331\277F\033"
 149      9095BC8D 
 149      B6803BBB 
 149      D9BF461B 
 150 0023 14B23263 		.ascii	"\024\2622c\032f\336d\377\330\016b;\222\345\303\005\234"
 150      1A66DE64 
 150      FFD80E62 
 150      3B92E5C3 
 150      059C
 151 0035 75927D79 		.ascii	"u\222}yW>\024Pf\370PT\020D>EA\021E\004TZPDD\307A\006"
 151      573E1450 
 151      66F85054 
ARM GAS  /tmp/ccK7eMwd.s 			page 11


 151      10443E45 
 151      41114504 
 152 0051 45405011 		.ascii	"E@P\021\277\265\005\005\224F\337\251\252\333}\253/\315"
 152      BFB50505 
 152      9446DFA9 
 152      AADB7DAB 
 152      2FCD
 153 0063 64FED964 		.ascii	"d\376\331d;\234\276\367T\375\352W\247\316\251[\367\234"
 153      3B9CBEF7 
 153      54FDEA57 
 153      A7CEA95B 
 153      F79C
 154 0075 46AD422A 		.ascii	"F\255B*\362\311\370/\225\352#'\225j5\250\357\341\203"
 154      F2C9F82F 
 154      95EA2327 
 154      956A35A8 
 154      EFE183
 155 0088 A1ED2B10 		.ascii	"\241\355+\020\322{L\305>\320\255\252\003\251\007i\000"
 155      D27B4CC5 
 155      3ED0ADAA 
 155      03A90769 
 155      00
 156 0099 690231A9 		.ascii	"i\0021\251f~\010\306C\032\277\010D\015$\002H\033\334"
 156      667E08C6 
 156      431ABF08 
 156      440D2402 
 156      481BDC
 157 00ac 7B81CC97 		.ascii	"{\201\314\2278=\240\3557 ^ '\244\271\336\202\314\221"
 157      383DA0ED 
 157      37205E20 
 157      27A4B9DE 
 157      82CC91
 158 00bf 38E643C3 		.ascii	"8\346C\303\207 \013@~\013\3621\310'\210\315\353\015"
 158      87200B40 
 158      7E0BF231 
 158      C82788CD 
 158      EB0D
 159 00d1 D7DF81F8 		.ascii	"\327\337\201\370\200\3747b\366(?\365\022\227\325\216"
 159      80FC3762 
 159      F6283FF5 
 159      1297D58E 
 160 00e1 FF05DCBF 		.ascii	"\377\005\334\277$;\322\341\232\206d\333\272\241m;bv"
 160      243BD2E1 
 160      9A8664DB 
 160      BAA16D3B 
 160      6276
 161 00f3 3583B883 		.ascii	"5\203\270\203\204\203\376? \211 \343\240[@&@\336\200"
 161      8483FE3F 
 161      208920E3 
 161      A05B4026 
 161      40DE80
 162 0106 BC543183 		.ascii	"\274T1\203\337\303\345\025\210 \315\347\310\037\323"
 162      DFC3E515 
 162      8820CDE7 
 162      C81FD3
 163 0115 021A68AF 		.ascii	"\002\032h\257<\214_\011h\221\033\"\336\235\013MG\237"
 163      3C8C5F09 
ARM GAS  /tmp/ccK7eMwd.s 			page 12


 163      68911B22 
 163      DE9D0B4D 
 163      479F
 164 0127 36BC99C3 		.ascii	"6\274\231\303\232\010b\360\315\301\225K\252D\370d\212"
 164      9A0862F0 
 164      CDC1954B 
 164      AA44F864 
 164      8A
 165 0138 A220C843 		.ascii	"\242 \310C\273~\030-u\301\356\024\364Sr\315>B\343\345"
 165      BB7E182D 
 165      75C1EE14 
 165      F45372CD 
 165      3E42E3E5 
 166 014c 86D4A0BE 		.ascii	"\206\324\240\276\274\222w\317\023\324\371n\350\343i"
 166      BC9277CF 
 166      13D4F96E 
 166      E8E369
 167 015b 4168CB38 		.ascii	"Ah\3138^\353\216|\334\312\011\313\320@\251G\203(~\200"
 167      5EEB8E7C 
 167      DCCA09CB 
 167      D040A947 
 167      83287E80 
 168 016f 8E203774 		.ascii	"\216 7t\010aT\211\226\020\223\027\271\301w\252(&\212"
 168      08615489 
 168      96109317 
 168      B9C177AA 
 168      28268A
 169 0182 9949A257 		.ascii	"\231I\242W\273\247\012U\241\205\3500Z\250B\325\310\207"
 169      BBA70A55 
 169      A185E830 
 169      5AA842D5 
 169      C887
 170 0194 584380E8 		.ascii	"XC\200\350 4V@#\314RY\232U\354\214\223\021\261@\330"
 170      20345640 
 170      23CC5259 
 170      9A55EC8C 
 170      9311B140 
 171 01a9 7BE2D084 		.ascii	"{\342\320\204\233m\216\246\364eUd\216c0\307Qy\016\230"
 171      9B6D8EA6 
 171      F4655564 
 171      8E6330C7 
 171      51790E98 
 172 01bd 72D6496A 		.ascii	"r\326Ij\034LB\306\303Dg\256O]U\367\241^\004\253G\037"
 172      1C4C42C6 
 172      C34467AE 
 172      4F5D55F7 
 172      A15E04AB 
 173 01d3 D0F523C4 		.ascii	"\320\365#\304\276\021\025\025\023\252\302\215@\277U"
 173      BE111515 
 173      13AAC28D 
 173      40BF55
 174 01e2 7213B202 		.ascii	"r\023\262\002%]\260\336\252ld\364O\032O7:\375P\022\231"
 174      255DB0DE 
 174      AA6C64F4 
 174      4F1A4F37 
 174      3AFD5012 
 175 01f7 1D498398 		.ascii	"\035I\203\230.\015V!I\027\344\011\020S\255\0038>f\256"
ARM GAS  /tmp/ccK7eMwd.s 			page 13


 175      2E0D5621 
 175      4917E409 
 175      1053AD03 
 175      383E66AE 
 176 020b 4427DB6C 		.ascii	"D'\333l[\023\262\206\367\331\213\247\025\236\330L\275"
 176      5B13B286 
 176      F7D98BA7 
 176      159ED84C 
 176      BD
 177 021c 8BA62FE5 		.ascii	"\213\246/\345\347\011\013r\351.H\022?V\243\257>\264"
 177      E7090B72 
 177      E92E4812 
 177      3F56A3AF 
 177      3EB4
 178 022e 794E854E 		.ascii	"yN\205N\240\005\360\275V\315\006\036i\334\232>\367\223"
 178      A005F0BD 
 178      56CD061E 
 178      69DC9A3E 
 178      F793
 179 0240 22B1A846 		.ascii	"\"\261\250F\034\032\3731:\247V\024\323`\234\232\300"
 179      1C1AFB31 
 179      3AA75614 
 179      D3609C9A 
 179      C0
 180 0251 D0713918 		.ascii	"\320q9\030pK.\265\250\017,\250C\237\220}\263\343E\321"
 180      704B2EB5 
 180      A80F2CA8 
 180      439F907D 
 180      B3E345D1 
 181 0265 5C5C2DD0 		.ascii	"\\\\-\3209w\\\254\313A\214\307\264?\033\357\025M\311"
 181      39775CAC 
 181      CB418CC7 
 181      B43F1BEF 
 181      154DC9
 182 0278 4023509A 		.ascii	"@#P\232\2232\315I\236\246\236\322\014\232\307.\272\343"
 182      9332CD49 
 182      9EA69ED2 
 182      0C9AC72E 
 182      BAE3
 183 028a 064673E8 		.ascii	"\006Fs\350Y\331kB3\004\333\242!w\323\266\222\255\246"
 183      59D96B42 
 183      3304DBA2 
 183      2177D3B6 
 183      92ADA6
 184 029d 4C446D46 		.ascii	"LDmF\247d\226S\224\005n\032(CZ}k\006\306o\031\203x\246"
 184      A7649653 
 184      94056E1A 
 184      28435A7D 
 184      6B06C66F 
 185 02b5 AF5E2D31 		.ascii	"\257^-14\3362\354L*\012\242\303\033\345\341\215\326"
 185      34DE32EC 
 185      4C2A0AA2 
 185      C31BE5E1 
 185      8DD6
 186 02c7 E14D7478 		.ascii	"\341Mtx~\367\335\022\001Wc:|\333\323\322\036AM\266\016"
 186      7EF7DD12 
 186      0157633A 
ARM GAS  /tmp/ccK7eMwd.s 			page 14


 186      7CDBD3D2 
 186      1E414DB6 
 187 02dc D98DE025 		.ascii	"\331\215\340%h\033\356?\327;\327\326v\006\321\306\335"
 187      681BEE3F 
 187      D73BD7D6 
 187      7606D1C6 
 187      DD
 188 02ed B9BB5EBB 		.ascii	"\271\273^\273\314\352\344f\352\344\263H\362\362hZj\207"
 188      CCEAE466 
 188      EAE4B348 
 188      F2F2685A 
 188      6A87
 189 02ff AB649425 		.ascii	"\253d\224%\377\213,b\024@\320i\331\250\323V\243L\324"
 189      FF8B2C62 
 189      1440D069 
 189      D9A8D356 
 189      A34CD4
 190 0312 A8FA3BBB 		.ascii	"\250\372;\273\232]\3313z\2230\3445\275\352pb\272\206"
 190      9A5DD933 
 190      7A9330E4 
 190      35BDEA70 
 190      62BA86
 191 0325 743F3F5C 		.ascii	"t??\\?\207=\263&\322}}\344@\262\007\353\276F\364\326"
 191      3F873DB3 
 191      26D27D7D 
 191      E440B207 
 191      EBBE46F4 
 192 033a 9E8B6635 		.ascii	"\236\213f5~\314\326t\255\"\365\032v\203\007)\351\327"
 192      7ECCD674 
 192      AD22F51A 
 192      76830729 
 192      E9D7
 193 034c 3D4830A4 		.ascii	"=H0\244\263s\352\212\0236\263\361\333/\324\265I\347"
 193      B373EA8A 
 193      1336B3F1 
 193      DB2FD4B5 
 193      49E7
 194 035e 453BD177 		.ascii	"E;\321w6\2666\271\3431\326y/\375n\2533\236d\212\325"
 194      36B636B9 
 194      E331D679 
 194      2FFD6EAB 
 194      339E648A 
 195 0373 2C2FC9AC 		.ascii	",/\311\254\375}\257;\020\266\260\316\246\372\323m\322"
 195      FD7DAF3B 
 195      10B6B0CE 
 195      A6FAD36D 
 195      D2
 196 0384 12969213 		.ascii	"\022\226\222\023\311\334Y\340\316\324\017@=9r\251\315"
 196      C9DC59E0 
 196      CED40F40 
 196      3D3972A9 
 196      CD
 197 0395 8DAD4844 		.ascii	"\215\255HD\3441\356\352\377\014oQ\323\221-\2435\025"
 197      E431EEEA 
 197      FF0C6F51 
 197      D3912DA3 
 197      3515
ARM GAS  /tmp/ccK7eMwd.s 			page 15


 198 03a7 D2EA30A8 		.ascii	"\322\3520\250/&\212\3234d=\242\264\036\322!\373\276"
 198      2F268AD3 
 198      34643DA2 
 198      B41ED221 
 198      FBBE
 199 03b9 8B9C1B48 		.ascii	"\213\234\033H\273\020\375\304\326\262\255`\360\270\223"
 199      BB10FDC4 
 199      D6B2AD60 
 199      F0B893
 200 03c8 57A67428 		.ascii	"W\246t(~\226@\243\370#\300\257R\370u\344e\035D\320\267"
 200      7E9640A3 
 200      F823C0AF 
 200      52F875E4 
 200      651D44D0 
 201 03dd 2DFB2E60 		.ascii	"-\373.`\036\335\366K\350#%e\273\335p\01233\177l\340"
 201      1EDDF64B 
 201      E8232565 
 201      BBDD700A 
 201      33337F6C 
 202 03f2 9114331F 		.ascii	"\221\0243\037P\313\307\233\22248\215\365\345\234-\270"
 202      50CBC79B 
 202      9234388D 
 202      F5E59C2D 
 202      B8
 203 0403 E2823398 		.ascii	"\342\2023\230b=q\275\350\211\213\022o\254\300Y\254\247"
 203      623D71BD 
 203      E8898B12 
 203      6FACC059 
 203      ACA7
 204 0415 392B7B00 		.ascii	"9+{\000\341]Ly\236|\177H\362\320\002Pw]~\262\010\347"
 204      E15D4C79 
 204      9E7C7F48 
 204      F2D00250 
 204      775D7EB2 
 205 042b B1AE77ED 		.ascii	"\261\256w\355\255\213p\021\273o;y\260\002\341r\246\214"
 205      AD8B7011 
 205      BB6F3B79 
 205      B002E172 
 205      A68C
 206 043d E6B53D71 		.ascii	"\346\265=q\303\207\230R\324\265\357\224\006W3\245|2"
 206      C3879852 
 206      D4B5EF94 
 206      065733A5 
 206      7C32
 207 044f B7DC03D7 		.ascii	"\267\334\003\3272\245\273\341\347Tw\\\317\224\324c\307"
 207      32A5BBE1 
 207      E754775C 
 207      CF94D463 
 207      C7
 208 0460 F6B8E326 		.ascii	"\366\270\343&\246$6\365f\315e\223\016\321\315_6\\\344"
 208      A62436F5 
 208      66CD6593 
 208      0ED1CD5F 
 208      365CE4
 209 0473 2AC5C519 		.ascii	"*\305\305\031\364\364\256\316\011\204\233\031\270\256"
 209      F4F4AECE 
 209      09849B19 
ARM GAS  /tmp/ccK7eMwd.s 			page 16


 209      B8AE
 210 0481 A0A7D07D 		.ascii	"\240\247\320}\366H<\264Fb)\015D~\357\273\232\271\222"
 210      F6483CB4 
 210      4662290D 
 210      447EEFBB 
 210      9AB992
 211 0494 6B4DD640 		.ascii	"kM\326@\264\002\272\205\242\037Q\327>\264\272\2666\247"
 211      B402BA85 
 211      A21F51D7 
 211      3EB4BAB6 
 211      36A7
 212 04a6 AC4DC3A3 		.ascii	"\254M\303\243\333~\001\375a\373\340\360\021W\344\255"
 212      DB7E01FD 
 212      61FBE0F0 
 212      1157E4AD 
 213 04b6 F8F8787B 		.ascii	"\370\370x{\317\363\366.\026\223\223\304\241\275#\237"
 213      CFF3F62E 
 213      169393C4 
 213      A1BD239F 
 214 04c6 A5955CDD 		.ascii	"\245\225\\\335!\026\265 Ju\001\236\275wh\236\374(\234"
 214      2116B520 
 214      4A75019E 
 214      BD77689E 
 214      FC289C
 215 04d9 A7BC55E4 		.ascii	"\247\274U\344[E\207\230\336\016z\210\231\341\024=\240"
 215      5B458798 
 215      DE0E7A88 
 215      99E1143D 
 215      A0
 216 04ea 44F7CF40 		.ascii	"D\367\317@\233e\364]%\232\331\354+\203-2\270O\011\356"
 216      9B65F45D 
 216      259AD9EC 
 216      2B832D32 
 216      B84F09EE 
 217 04fe 5582F7AC 		.ascii	"U\202\367\254%\347)\246\350N%\372\362\014Cvr\360\237"
 217      25E729A6 
 217      E84E25FA 
 217      F20C4376 
 217      72F09F
 218 0511 95F02B4A 		.ascii	"\225\360+J\362Q\331\222;\216\315\346\271\367q\334\227"
 218      F251D992 
 218      3B8ECDE6 
 218      B9F771DC 
 218      97
 219 0522 94F0767B 		.ascii	"\224\360v{\370\026\321T\273v\013\205?F^\350\201\004"
 219      F816D154 
 219      BB760B85 
 219      3F465EE8 
 219      8104
 220 0534 B7C6109D 		.ascii	"\267\306\020\235S\232\322/\2332\254\344\326*\260y\234"
 220      539AD22F 
 220      9B32ACE4 
 220      D62AB079 
 220      9C
 221 0545 211D8E0D 		.ascii	"!\035\216\015\341\320\231\034\372\246\022\335\243DO"
 221      E1D0991C 
 221      FAA612DD 
ARM GAS  /tmp/ccK7eMwd.s 			page 17


 221      A3444F
 222 0554 CA76DC76 		.ascii	"\312v\334v\034w\016\\\310Q_t\274\247|e\207\344J\016"
 222      1C770E5C 
 222      C8515F74 
 222      BCA77C65 
 222      87E44A0E 
 223 0568 E906875C 		.ascii	"\351\006\207\\\223\320\326\323E\212\015\357\356W\262"
 223      93D0D6D3 
 223      458A0DEF 
 223      EE57B2
 224 0577 25434AEE 		.ascii	"%CJ\356\25327\315\243L}\000\0265\004\244\222\336**\033"
 224      AB3237CD 
 224      A34C7D00 
 224      163504A4 
 224      92DE2A2A 
 225 058c 51CEDDA0 		.ascii	"Q\316\335\240\234$\261})\245\272\341\330\003\374\304"
 225      9C24B17D 
 225      29A5BAE1 
 225      D803FCC4 
 226 059c EFE4896F 		.ascii	"\357\344\211o9\336\237\014\235%\035\224\"JP\241\021"
 226      39DE9F0C 
 226      9D251D94 
 226      224A50A1 
 226      11
 227 05ad 40DCA79D 		.ascii	"@\334\247\235\004\017&\240)x\275\274B\336H\024\274\321"
 227      040F26A0 
 227      2978BDBC 
 227      42DE4814 
 227      BCD1
 228 05bf 33B8BE04 		.ascii	"3\270\276\004y\013\362\036d\002\344)\310s\220i\220q"
 228      790BF21E 
 228      6402E429 
 228      C8739069 
 228      9071
 229 05d1 100B8819 		.ascii	"\020\013\210\031\344\015\310\013\220\327 \243 \223 "
 229      E40DC80B 
 229      90D720A3 
 229      209320
 230 05e0 4F40C690 		.ascii	"O@\306\2207\267\250q\331\310A\307\336\341\227t[F\337"
 230      37B7A871 
 230      D9C841C7 
 230      DEE19774 
 230      5B46DF
 231 05f3 73B8BB18 		.ascii	"s\270\273\030\230\344\331\235=\007=\361\004=\343\204"
 231      98E4D99D 
 231      3D073DF1 
 231      043DE384 
 232 0603 EEA4EA4A 		.ascii	"\356\244\352J\204\346\3718\\)J\022|\376\355\213e\321"
 232      84E6F938 
 232      5C294A12 
 232      7CFEED8B 
 232      65D1
 233 0615 ADBBBB80 		.ascii	"\255\273\273\200D7Q\230\207\266\010\266\264\201\004"
 233      44375198 
 233      87B608B6 
 233      B48104
 234 0624 9BDA2CA6 		.ascii	"\233\332,\246\354\275\341\351\221.g\313\024)\237\305"
ARM GAS  /tmp/ccK7eMwd.s 			page 18


 234      ECBDE1E9 
 234      912E67CB 
 234      14299FC5 
 235 0634 C982074D 		.ascii	"\311\202\007M/\340\012\350\013\357'L\322)/p\357\342"
 235      2FE00AE8 
 235      0BEF274C 
 235      D2292F70 
 235      EFE2
 236 0646 F9EC5DFC 		.ascii	"\371\354]\374\363\344\231\267\0368\311\211\254_}<q\360"
 236      F3E499B7 
 236      1E38C989 
 236      AC5F7D3C 
 236      71F0
 237 0658 8027F259 		.ascii	"\200'\362Y\210\200\012\261\214\235\324\026*\264]pC\333"
 237      88800AB1 
 237      8C9DD416 
 237      2AB45D70 
 237      43DB
 238 066a 046CAD4F 		.ascii	"\004l\255O\362Dx\017\230\377\2174\303\275\206^i\362"
 238      F244780F 
 238      98FF8F34 
 238      C3BD865E 
 238      69F2
 239 067c 6E2E169D 		.ascii	"n.\026\235\027\250\220?}\015\240Tp\030\351R\241ta!J"
 239      17A8903F 
 239      7D0DA054 
 239      7018E952 
 239      A1746121 
 240 0691 13E89BE1 		.ascii	"\023\350\233\341\346\304\340\304\034\371\254G\224{+"
 240      E6C4E0C4 
 240      1CF9AC47 
 240      947B2B
 241 06a0 F4A708C4 		.ascii	"\364\247\010\304\366\035\202|\326\023\205\274\226\246"
 241      F61D827C 
 241      D61385BC 
 241      96A6
 242 06ae AA1BA557 		.ascii	"\252\033\245W(y+\275\2707q\367\027R\202\357\005\351"
 242      28792BBD 
 242      B83771F7 
 242      175282EF 
 242      05E9
 243 06c0 4594C1E6 		.ascii	"E\224\301\346{\225\2362!e4.\240\036\034\331\367\275"
 243      7B959E32 
 243      2165342E 
 243      A01E1CD9 
 243      F7BD
 244 06d2 075BFE9F 		.ascii	"\007[\376\237@\335Z\224\373\302]N\001\2305\231`\315"
 244      40DD5A94 
 244      FBC25D4E 
 244      01983599 
 244      60CD
 245 06e4 0FD49A2C 		.ascii	"\017\324\232,j\015\245\244\012\214\230\272\177\364\201"
 245      6A0DA5A4 
 245      0A8C98BA 
 245      7FF481
 246 06f3 879DF349 		.ascii	"\207\235\363I\312)\317\237-9?\233:\377A\2058\341\211"
 246      CA29CF9F 
ARM GAS  /tmp/ccK7eMwd.s 			page 19


 246      2D393F9B 
 246      3AFF4185 
 246      38E189
 247 0706 53A97BD1 		.ascii	"S\251{\3219S\373Q\015\244\206&H\300'\036\177\235\236"
 247      3953FB51 
 247      0DA48626 
 247      48C0271E 
 247      7F9D9E
 248 0719 74195E51 		.ascii	"t\031^Q\211\342g,k\315\221#\235#p\251\363N\201$\211"
 248      89E2672C 
 248      6BCD9123 
 248      9D2370A9 
 248      F34E8124 
 249 072e E6F1CB59 		.ascii	"\346\361\313Y\03071\242\323\311M\231.\022Q\343\255\325"
 249      183731A2 
 249      D3C94D99 
 249      2E1251E3 
 249      ADD5
 250 0740 B9F0B483 		.ascii	"\271\360\264\203\375\336\224f\227L\263\213\247\311\245"
 250      FDDE9466 
 250      974CB38B 
 250      A7C9A5
 251 074f 34ADE33D 		.ascii	"4\255\343=\325.\270\223\321\274?\266\337b\265\347TO"
 251      D52EB893 
 251      D1BC3FB6 
 251      DF62B5E7 
 251      544F
 252 0761 401E2B08 		.ascii	"@\036+\010ZXA\260[\346\331\315\363\354\241<\345\023"
 252      5A5841B0 
 252      5BE6D9CD 
 252      F3ECA13C 
 252      E513
 253 0773 93DB3DF1 		.ascii	"\223\333=\361 \343\031-\354\330\203\031\217\351\325"
 253      20E3192D 
 253      ECD88319 
 253      8FE9D5
 254 0782 7A560F1C 		.ascii	"zV\017\034`\365\300^\231e/\317\222GYn\214\264\254\303"
 254      60F5C05E 
 254      99652FCF 
 254      9247596E 
 254      8CB4ACC3 
 255 0796 8F18C9A1 		.ascii	"\217\030\311\241\352\302\032x\020\231\262\275\245u\237"
 255      EAC21A78 
 255      1099B2BD 
 255      A5759F
 256 07a5 33A4E168 		.ascii	"3\244\341h\037\0354K\262\336\333S\354?kZ\276_ iy\241"
 256      1F1D344B 
 256      B2DEDB53 
 256      EC3F6B5A 
 256      BE5F2069 
 257 07bb 20A5E5FD 		.ascii	" \245\345\375O\307\236\271Jk\315\037\375zz|X\024\263"
 257      4FC79EB9 
 257      4A6BCD1F 
 257      FD7A7A7C 
 257      5814B3
 258 07ce 4531     		.ascii	"E1"
 259 07d0 19CD2748 		.ascii	"\031\315'H\224o\265\023\025\010j\242\311\246\026QS'"
ARM GAS  /tmp/ccK7eMwd.s 			page 20


 259      946FB513 
 259      15086AA2 
 259      C9A61651 
 259      5327
 260 07e2 5F9F3BA7 		.ascii	"_\237;\247\301&gj^o\347\370\230\233-\220A\371\366\201"
 260      C126676A 
 260      5E6FE7F8 
 260      989B2D90 
 260      41F9F681 
 261 07f6 3C20AFF9 		.ascii	"< \257\371\000OTL\211\212o\366\326:\343nFTV{\350\276"
 261      004F544C 
 261      898A6FF6 
 261      D63AE36E 
 261      4654567B 
 262 080c 14489365 		.ascii	"\024H\223e\255\235\347Jd\226\022\236\245\224\262\354"
 262      AD9DE74A 
 262      6496129E 
 262      A594B2EC 
 263 081c 2CBB98A6 		.ascii	",\273\230\246\306\217\030K\337X\306ed\333\016\177\263"
 263      C68F184B 
 263      DF58C665 
 263      64DB0E7F 
 263      B3
 264 082d DB0E6532 		.ascii	"\333\016e2M\031OSNi.\015W\267xb\013\243\271|\340\215"
 264      4D194F53 
 264      4E692E0D 
 264      57B77862 
 264      0BA3B97C 
 265 0843 C94A732A 		.ascii	"\311Js*\367s\373\355P!\363T\360<\007)\317\320\376\007"
 265      F773FBED 
 265      5021F354 
 265      F03C0729 
 265      CFD0FE07 
 266 0857 39737096 		.ascii	"9sp\226\013\345I\313xbv\222\026\325\375\215\335\242"
 266      0BE549CB 
 266      78627692 
 266      16D5FD8D 
 266      DDA2
 267 0869 2A65964A 		.ascii	"*e\226J\236\345\020e\031;\177pL:\2512I]p\366\335\223"
 267      9EE51065 
 267      193B7F70 
 267      4C3AA932 
 267      495D70F6 
 268 087f 0E775CC0 		.ascii	"\016w\\\300X\253\256\\\354\227\236\343T\322Y~=\357\245"
 268      58ABAE5C 
 268      EC979EE3 
 268      54D2597E 
 268      3DEFA5
 269 0892 332E679D 		.ascii	"3.g\235E{\332\023\005|\204)\326\362\302K*/JO\015Y\020"
 269      457BDA13 
 269      057C8429 
 269      D6F2C24B 
 269      2A2F4A4F 
 270 08a9 6E609DA6 		.ascii	"n`\235\246\266\035\317\020>\317\224\324;\333\256K\310"
 270      B61DCF10 
 270      3ECF94D4 
 270      3BDBAE4B 
ARM GAS  /tmp/ccK7eMwd.s 			page 21


 270      C8
 271 08ba 49FA40B4 		.ascii	"I\372@\264L\334\234\203;X\347\373G\275%R\212o\246U`"
 271      4CDC9C83 
 271      3B58E7FB 
 271      47BD2552 
 271      8A6FA655 
 272 08cf C35DB327 		.ascii	"\303]\263'\356f\235Y\255\257\307\334\361M\246\364\027"
 272      EE669D59 
 272      ADAFC7DC 
 272      F14DA6F4 
 272      17
 273 08e0 EF2C5333 		.ascii	"\357,S3\344C\242\027X,\311j<\300:\273\022sJ\235\361"
 273      E443A217 
 273      582CC96A 
 273      3CC03ABB 
 273      12734A9D 
 274 08f5 03A64C3D 		.ascii	"\003\246L=\2570;\343\227Li\035\333\367\322\003O1%\245"
 274      AF303BE3 
 274      974C691D 
 274      DBF7D203 
 274      4F3125A5 
 275 0909 B47B870B 		.ascii	"\264{\207\013N\321Pe\254/\243\315\003\377\300\224\363"
 275      4ED15065 
 275      AC2FA3CD 
 275      03FFC094 
 275      F3
 276 091a EDF7AE6B 		.ascii	"\355\367\256k\360^\246lyX\263\015\343\022\246\274\274"
 276      F05EA66C 
 276      7958B30D 
 276      E312A6BC 
 276      BC
 277 092b D69AEE8A 		.ascii	"\326\232\356\212\253\231r%-\033\236\367:\246XO9/v\312"
 277      AB997225 
 277      2D1B9EF7 
 277      3AA6584F 
 277      392F76CA 
 278 093f BDCF3717 		.ascii	"\275\3177\027x\3403\254\357tIJ\245\006_dJ\362\325\214"
 278      78E033AC 
 278      EF74494A 
 278      A5065F64 
 278      4AF2D58C 
 279 0953 7E0FFC23 		.ascii	"~\017\374#S\216<\334fr\3017$\330\2257U\360\204KJ_\235"
 279      538E3CDC 
 279      6672C137 
 279      24D89537 
 279      55F0844B 
 280 096a 163F62F7 		.ascii	"\026?b\367\007\0366\344\314\305\243L\2713\360 \335\023"
 280      071E36E4 
 280      CCC5A34C 
 280      B933F020 
 280      DD13
 281 097c 4F31656B 		.ascii	"O1ek\363\2563\2568\305\225\231=\004\371\324\367\354"
 281      F3AE33AE 
 281      38C59599 
 281      3D04F9D4 
 281      F7EC
 282 098e FE49BAA9 		.ascii	"\376I\272\251W\300\273\231R\331\220q\307\011\0271\345"
ARM GAS  /tmp/ccK7eMwd.s 			page 22


 282      57C0BB99 
 282      52D99071 
 282      C7091731 
 282      E5
 283 099f 5E7DF2B8 		.ascii	"^}\362\270\032\2272\345\260\245\360\232+\256d\312\265"
 283      1A9732E5 
 283      B0A5F09A 
 283      2BAE64CA 
 283      B5
 284 09b0 C6A1FB9E 		.ascii	"\306\241\373\236\370\030S.%fX\253\302=$\244\317sk[\234"
 284      F818532E 
 284      256658AB 
 284      C23D24A4 
 284      CF736B5B 
 285 09c5 A59AD815 		.ascii	"\245\232\330\025\364\307\333\013K\325\370\004\005{?"
 285      F4C7DB0B 
 285      4BD5F804 
 285      057B3F
 286 09d4 CCFD21D7 		.ascii	"\314\375!\327yF}`W*\314c7\305\3647\251\251\303\221{"
 286      79467D60 
 286      572ACC63 
 286      37C5F437 
 286      A9A9C391 
 287 09e9 4A3A445A 		.ascii	"J:DZ-@\251\201\332a\223\216\011\\\362:#i\354Z/\347\201"
 287      2D40A981 
 287      DA61938E 
 287      095CF23A 
 287      2369EC5A 
 288 0a00 4D12DA96 		.ascii	"M\022\332\226_\334W\242\2639t\247\022m\227c\222w\177"
 288      5FDC57A2 
 288      B33974A7 
 288      126D9763 
 288      92777F
 289 0a13 FF7A9635 		.ascii	"\377z\2265\022KN(-9.(\270os\334\265J\356\032A\301\335"
 289      124B4E28 
 289      2D392E28 
 289      B86F73DC 
 289      B54AEE1A 
 290 0a2a C3713728 		.ascii	"\303q7(\271O)\271'#d\356\237\224\334Ze\312u\223\263"
 290      B94F29B9 
 290      272364EE 
 290      9F94DC5A 
 290      65CA7593 
 291 0a3f A45E89AE 		.ascii	"\244^\211\256Srgr\350+J\364\314|n\224\203\037U\302\253"
 291      53726772 
 291      E82B4AF4 
 291      CC7C6E94 
 291      831F55C2 
 292 0a54 95E4851C 		.ascii	"\225\344\205\034\272M\211\236\231x\237\340\340-J\370"
 292      BA4D899E 
 292      99789FE0 
 292      E02D4AF8 
 293 0a64 E5190503 		.ascii	"\345\031\005\003\207\376Y\211>,\360\344\220\"\230vJ"
 293      87FE5989 
 293      3E2CF0E4 
 293      90229876 
 293      4A
ARM GAS  /tmp/ccK7eMwd.s 			page 23


 294 0a75 70F2D6BA 		.ascii	"p\362\326\272\3548\370\274-\343\034{\225cv_\231\274"
 294      EC38F8BC 
 294      2DE31C7B 
 294      9563765F 
 294      99BC
 295 0a87 96233FAF 		.ascii	"\226#?\257D\267\012Jr\013\027\320\037\225p\007\365\037"
 295      44B70A4A 
 295      720B17D0 
 295      1F957007 
 295      F51F
 296 0a99 67CB45C7 		.ascii	"g\313E\307n\344\374R\303\241/8\266\205C\337\342\320"
 296      6EE4FC52 
 296      C3A12F38 
 296      B68543DF 
 296      E2D0
 297 0aab 271DEF16 		.ascii	"'\035\357\026\273\332\210\203\037q\034\177\036~\232"
 297      BBDA8883 
 297      1F711C7F 
 297      1E7E9A
 298 0aba 839F55C2 		.ascii	"\203\237U\302g\326\376\271\034\274C\011\237Y\241s\350"
 298      67D6FEB9 
 298      1CBC4309 
 298      9F59A173 
 298      E8
 299 0acb 4B8ED176 		.ascii	"K\216\321v?,pN\277\346\330\351\034\371I\216\374\234"
 299      3F2C704E 
 299      BFE6D8E9 
 299      1CF9498E 
 299      FC9C
 300 0add E3BD6857 		.ascii	"\343\275hW\272q\344W\035?F\\\3218v/h\013\3244\004e_"
 300      BA71E457 
 300      1D3F465C 
 300      D138762F 
 300      680BD434 
 301 0af4 3592BDF4 		.ascii	"5\222\275\364\323HP6\255\032\311f:\255\344:7[\035\330"
 301      D3485036 
 301      AD1AC966 
 301      3AADE43A 
 301      375B1DD8 
 302 0b08 0DB9F275 		.ascii	"\015\271\362u\032\000\202'\245\321K\310\372\307\241"
 302      1A008227 
 302      A5D14BC8 
 302      FAC7A1
 303 0b17 2CEA0779 		.ascii	",\352\007y\0162\002b\006\271\015r\023\344\036\310SR"
 303      0E320262 
 303      06B90D72 
 303      13E41EC8 
 303      5352
 304 0b29 3681F480 		.ascii	"6\201\364\200<\000\031\002y\010r\037\344\016\310\013"
 304      3C001902 
 304      7908721F 
 304      E40EC80B 
 305 0b39 903720AF 		.ascii	"\2207 \257@\236\200L\200\214\202\334\000y\015\322\007"
 305      409E804C 
 305      808C82DC 
 305      00790DD2 
 305      07
ARM GAS  /tmp/ccK7eMwd.s 			page 24


 306 0b4a 3200F208 		.ascii	"2\000\362\010\244\027\344\026\310$\310 \310c\220a\220"
 306      A417E416 
 306      C824C820 
 306      C8639061 
 306      90
 307 0b5b BB025F3F 		.ascii	"\273\002_?6r\216mv\274%\2700ts\350F\307\007\274\335"
 307      36728E6D 
 307      76BC25B8 
 307      307473E8 
 307      46C707BC 
 308 0b70 53CB85A1 		.ascii	"S\313\205\241\313\341I\311q\237\345\270\3178\3663\207"
 308      CBE149C9 
 308      719FE5B8 
 308      CF38F633 
 308      87
 309 0b81 3673E863 		.ascii	"6s\350c\216\017x\333q\003!>\305\235\360&\345\011\317"
 309      8E0F78DB 
 309      7103213E 
 309      C59DF026 
 309      E509CF
 310 0b94 FD5402EF 		.ascii	"\375T\002\357\314\327UU\003\356\330L\337\231\302\350"
 310      CCD75555 
 310      03EED84C 
 310      DF99C2E8 
 311 0ba4 83D602A8 		.ascii	"\203\326\002\250\374\346\261\21525B\353O\013\014~+g"
 311      FCE6B18D 
 311      323542EB 
 311      4F0B0C7E 
 311      2B67
 312 0bb6 6C64DBCC 		.ascii	"ld\333\314\022}4\005A\377O\335\000\344\007\306\351\302"
 312      127D3405 
 312      41FF4FDD 
 312      00E407C6 
 312      E9C2
 313 0bc8 168D5DD1 		.ascii	"\026\215]\321f\261\253\230\247\245\242m\232\026mo\272"
 313      66B1AB98 
 313      A7A5A26D 
 313      9A166D6F 
 313      BA
 314 0bd9 BE4F71C2 		.ascii	"\276Oq\302\026\226z\264\016\324\324hp\022\373\237\333"
 314      16967AB4 
 314      0ED4D468 
 314      7012FB9F 
 314      DB
 315 0bea F470F390 		.ascii	"\364p\363\220+N\247\212\2639\275\264\013!\226O\260`"
 315      2B4EA78A 
 315      B339BDB4 
 315      0B21964F 
 315      B060
 316 0bfc 65DD982F 		.ascii	"e\335\230/G\353=xn+\376\205\215\260\363\206\355G\212"
 316      47EB3D78 
 316      6E2BFE85 
 316      8DB0F386 
 316      ED478A
 317 0c0f 774AEC8C 		.ascii	"wJ\354\214\203!W\006\213\330!\230m\003\026\300\351\036"
 317      83215706 
 317      8BD82198 
ARM GAS  /tmp/ccK7eMwd.s 			page 25


 317      6D0316C0 
 317      E91E
 318 0c21 FAF310A0 		.ascii	"\372\363\020\240\034\374<\304\033\331\345\320H\007\317"
 318      1CFC3CC4 
 318      1BD9E5D0 
 318      4807CF
 319 0c30 B9FCB338 		.ascii	"\271\374\2638\201\2230'c\037\264\005{\243\024\220D\220"
 319      81933027 
 319      631FB405 
 319      7BA31490 
 319      4490
 320 0c42 246C73F7 		.ascii	"$ls\367\236\341\351!\204\263\250\233\204\354\267\207"
 320      9EE1E921 
 320      84B3A89B 
 320      84ECB787 
 321 0c52 3A35B6AD 		.ascii	":5\266\255\265w7\"\226\245\001\011$\262\326\255E\014"
 321      B5773722 
 321      96A50109 
 321      24B2D6AD 
 321      450C
 322 0c64 9D654294 		.ascii	"\235eB\224\012\363\374\21293n\367\326`\273\020\247a"
 322      0AF3FC8A 
 322      39336EF7 
 322      D660BB10 
 322      A761
 323 0c76 3EC4E998 		.ascii	">\304\351\230\205\030\256\244`\311xZ?\327\016\335lW"
 323      8518AEA4 
 323      60C9785A 
 323      3FD70EDD 
 323      6C57
 324 0c88 C56F97D0 		.ascii	"\305o\227\320\344\252Y\365\371\227\037\353|}Un\006\303"
 324      E4AA59F5 
 324      F9971FEB 
 324      7C7D556E 
 324      06C3
 325 0c9a A6C89804 		.ascii	"\246\310\230\004\177?CB\264vCl\264Q\033\036\023\256"
 325      7F3F4342 
 325      B476436C 
 325      B4511B1E 
 325      13AE
 326 0cac 0D888DD8 		.ascii	"\015\210\215\330\024m\214I\210\327Fl\210\334\270xc\\"
 326      146D8C49 
 326      88D7466C 
 326      88DCB878 
 326      635C
 327 0cbe ECE278E8 		.ascii	"\354\342x\350\377&\"bqx\\\364\342\230\330\030\343bc"
 327      FF262262 
 327      71785CF4 
 327      E298D818 
 327      E36263
 328 0cd1 F8DAC8C5 		.ascii	"\370\332\310\305\1770,[\354\267\324\367\323\177\370"
 328      7F302C5B 
 328      ECB7D4F7 
 328      D37FF8
 329 0ce0 6BED3AB4 		.ascii	"k\355:\264\2211\021Q\233\326\031\265\321\341\300\020"
 329      91311151 
 329      9BD619B5 
ARM GAS  /tmp/ccK7eMwd.s 			page 26


 329      D1E1C010 
 330 0cf0 63D41AD6 		.ascii	"c\324\032\326\031\327\207o\212J0$|\267\321\030\277d"
 330      19D7876F 
 330      8A4A3024 
 330      7CB7D118 
 330      BF64
 331 0d02 834A639D 		.ascii	"\203Jc\235v\355\277c\332\370\357\342\265\206\370\204"
 331      76EDBF63 
 331      DAF8EFE2 
 331      B586F884 
 332 0d12 75300799 		.ascii	"u0\007\231\353+cDBl\334\212\245\376K\226h\331_l\274"
 332      EB2B6344 
 332      426CDC8A 
 332      A5FE4B96 
 332      68D95F6C 
 333 0d27 76437894 		.ascii	"vCx\224vcl\034\314\026\032\026\342\357\247]\275:@\033"
 333      76636C1C 
 333      CC161A16 
 333      E2EFA75D 
 333      BD3A401B 
 334 0d3b 161CF2AD 		.ascii	"\026\034\362\255/\351\201\301\206\250\250uK\"T\356\354"
 334      2FE981C1 
 334      86A8A875 
 334      4B2254EE 
 334      EC
 335 0d4c CE101913 		.ascii	"\316\020\031\023\231\340e \003\014\221q\3770\0307FF"
 335      99E06520 
 335      030C9171 
 335      FF301837 
 335      4646
 336 0d5e C57EB3C9 		.ascii	"\305~\263\311\270\230\247\214\210\215\216\216\215\221"
 336      B898A78C 
 336      888D8E8E 
 336      8D91
 337 0d6c 5897EB43 		.ascii	"X\227\353Ct!\233a)\021\261qF\303\267\177\214\006K\274"
 337      74219B61 
 337      2911B171 
 337      46C3B77F 
 337      8C064BBC 
 338 0d80 2236847E 		.ascii	"\"6\204~\027\037\026\031m\214\013\012\217Y\027e\214"
 338      171F1619 
 338      6D8C0B0A 
 338      8F591765 
 338      8C
 339 0d91 0BFE8827 		.ascii	"\013\376\210'\210K\260-!b\003,\002\206|\020\363mdD`"
 339      884BB02D 
 339      2162032C 
 339      02867C10 
 339      F36D6444 
 340 0da6 4CF8DA28 		.ascii	"L\370\332(#[\306\357\035/B\232[\232\225\014\202\301"
 340      235BC6EF 
 340      1D2F429A 
 340      5B9A950C 
 340      82C1
 341 0db8 4E3A5D88 		.ascii	"N:]\210\336_\370B\257\016\010Y\256\307\001:\275zE@\230"
 341      DE5FF842 
 341      AF0E0859 
ARM GAS  /tmp/ccK7eMwd.s 			page 27


 341      AEC7013A 
 341      BD7A4540 
 342 0dcd 1EEB747A 		.ascii	"\036\353tz\254\007Y\256\327\3435\241:\254\373<L\255"
 342      AC0759AE 
 342      D7E335A1 
 342      3AACFB3C 
 342      4CAD
 343 0ddf D305EA29 		.ascii	"\323\005\352)\336\217~\373\342\300Uz!\024F\006\007\352"
 343      DE8F7EFB 
 343      E2C0557A 
 343      21144606 
 343      07EA
 344 0df1 D5A12180 		.ascii	"\325\241!\200\326\351\375@|\001\371\265\336\357\327"
 344      D6E9FD40 
 344      7C01F9B5 
 344      DEEFD7
 345 0e00 B912E247 		.ascii	"\271\022\342G\202\034I\026\357nS\014\011\352\210\015"
 345      821C4916 
 345      EF6E530C 
 345      09EA880D 
 346 0e10 E1715EB1 		.ascii	"\341q^\261\361\341Q\340\217\325\261\021\177_\031\027"
 346      F1E151E0 
 346      8FD5B111 
 346      7F5F1917 
 347 0e20 1B1D1CAA 		.ascii	"\033\035\034\252\377HIK \304-\344J\274A\035\310\015"
 347      FF48494B 
 347      20C42DE4 
 347      4ABC411D 
 347      C80D
 348 0e32 F0A21189 		.ascii	"\360\242\021\211\202\006\303zh1D\306\307\271\332\232"
 348      8206C37A 
 348      683144C6 
 348      C7B9DA9A 
 349 0e42 E6180CF1 		.ascii	"\346\030\014\361\306\004\303\212\345\241\201k\364\301"
 349      C604C38A 
 349      E5A1816B 
 349      F4C1
 350 0e50 73C2A3FE 		.ascii	"s\302\243\376\031\376]<D2\012\266\344\237\035\004\316"
 350      19FE5D3C 
 350      44320AB6 
 350      E49F1D04 
 350      CE
 351 0e61 B8398138 		.ascii	"\2709\2018P\253\013\011\015\016\325\352 n\332`k8\242"
 351      50AB0B09 
 351      0D0ED5EA 
 351      206EDA60 
 351      6B38A2
 352 0e74 E323E30D 		.ascii	"\343#\343\015\260\025\301\210y\304\230/\354\3038_Z\313"
 352      B015C188 
 352      79C4982F 
 352      ECC3385F 
 352      5ACB
 353 0e86 9731519C 		.ascii	"\2271Q\234q\324Z\273\246\371\324\270M1v\026\273s\215"
 353      71D45ABB 
 353      A6F9D4B8 
 353      4D317616 
 353      BB738D
ARM GAS  /tmp/ccK7eMwd.s 			page 28


 354 0e99 1ADD5F56 		.ascii	"\032\335_V-\017\013\374\\\357\022\240\373\213n\345*"
 354      2D0F0BFC 
 354      5CEF12A0 
 354      FB8B6EE5 
 354      2A
 355 0eaa BDDB9AD5 		.ascii	"\275\333\232\325\253C\227\007[o\203\375B\311\255Sh\250"
 355      AB439707 
 355      5B6F83FD 
 355      42C9AD53 
 355      68A8
 356 0ebc 6E95DE55 		.ascii	"n\225\336U\037\030\032\250\377*0\340S\254\013%\261\325"
 356      1F181AA8 
 356      FF2A30E0 
 356      53AC0B25 
 356      B1D5
 357 0ece C94D7F70 		.ascii	"\311M\177p]\276f\205\337\3525@E\356|\331\235\265w\231"
 357      5DBE6685 
 357      DFEA3540 
 357      45EE7CD9 
 357      9DB57799 
 358 0ee2 EBF2A015 		.ascii	"\353\362\240\025\376Ro\220\015\027\244\304\371\273\020"
 358      FE526F90 
 358      0D17A4C4 
 358      F9BB10
 359 0ef1 16620EE1 		.ascii	"\026b\016\341\340{\374\\\010\003\355\011\222\020A\366"
 359      E07BFC5C 
 359      0803ED09 
 359      921041F6 
 360 0f01 085F0D19 		.ascii	"\010_\015\031\253\017\015\323\223\033_rc\353[\252!\243"
 360      AB0F0DD3 
 360      931B5F72 
 360      63EB5BAA 
 360      21A3
 361 0f13 595F9015 		.ascii	"Y_\220\025\024\304@X\027\254W\223E\272\300z\311U\320"
 361      14C44058 
 361      17AC5793 
 361      45BAC07A 
 361      C955D0
 362 0f26 E9359237 		.ascii	"\3515\2227\374\374f\211[h\030\333|+\227m\336\314\266"
 362      FCFC6689 
 362      5B6818DB 
 362      7C2B976D 
 362      DECCB6
 363 0f39 DDFA65CB 		.ascii	"\335\372e\313>\335\274\231l<\275Ng\010\203\203'\300"
 363      3EDDBC99 
 363      6C3CBD4E 
 363      67088383 
 363      27C0
 364 0f4b B8DE9958 		.ascii	"\270\336\231X\262\362\257\316\301\001\272/\002\002\211"
 364      B2F2AFCE 
 364      C101BA2F 
 364      020289
 365 0f5a E6B7F2AF 		.ascii	"\346\267\362\257\236\001+V\205\350\276\264b\376\037"
 365      9E012B56 
 365      85E8BEB4 
 365      62FE1F
 366 0f69 ECF6532F 		.ascii	"\354\366S/"
ARM GAS  /tmp/ccK7eMwd.s 			page 29


 367              		.text
 368              		.section	.gnu.lto_.symtab.e20438f20a5af13,"",%progbits
 369 0000 56656374 		.ascii	"VectorB0\000"
 369      6F724230 
 369      00
 370 0009 00       		.ascii	"\000"
 371 000a 00       		.ascii	"\000"
 372 000b 00       		.ascii	"\000"
 373 000c 00000000 		.ascii	"\000\000\000\000\000\000\000\000"
 373      00000000 
 374 0014 B5000000 		.ascii	"\265\000\000\000"
 375 0018 73745F6C 		.ascii	"st_lld_init\000"
 375      6C645F69 
 375      6E697400 
 376 0024 00       		.ascii	"\000"
 377 0025 00       		.ascii	"\000"
 378 0026 00       		.ascii	"\000"
 379 0027 00000000 		.ascii	"\000\000\000\000\000\000\000\000"
 379      00000000 
 380 002f B7000000 		.ascii	"\267\000\000\000"
 381 0033 5F706F72 		.ascii	"_port_irq_epilogue\000"
 381      745F6972 
 381      715F6570 
 381      696C6F67 
 381      756500
 382 0046 00       		.ascii	"\000"
 383 0047 02       		.ascii	"\002"
 384 0048 00       		.ascii	"\000"
 385 0049 00000000 		.ascii	"\000\000\000\000\000\000\000\000"
 385      00000000 
 386 0051 B9000000 		.ascii	"\271\000\000\000"
 387 0055 63685379 		.ascii	"chSysTimerHandlerI\000"
 387      7354696D 
 387      65724861 
 387      6E646C65 
 387      724900
 388 0068 00       		.ascii	"\000"
 389 0069 02       		.ascii	"\002"
 390 006a 00       		.ascii	"\000"
 391 006b 00000000 		.ascii	"\000\000\000\000\000\000\000\000"
 391      00000000 
 392 0073 BB000000 		.ascii	"\273\000\000\000"
 393 0077 6E766963 		.ascii	"nvicEnableVector\000"
 393      456E6162 
 393      6C655665 
 393      63746F72 
 393      00
 394 0088 00       		.ascii	"\000"
 395 0089 02       		.ascii	"\002"
 396 008a 00       		.ascii	"\000"
 397 008b 00000000 		.ascii	"\000\000\000\000\000\000\000\000"
 397      00000000 
 398 0093 C0000000 		.ascii	"\300\000\000\000"
 399              		.text
 400              		.section	.gnu.lto_.opts,"",%progbits
 401 0000 272D666D 		.ascii	"'-fmath-errno' '-fsigned-zeros' '-ftrapping-math' '"
 401      6174682D 
ARM GAS  /tmp/ccK7eMwd.s 			page 30


 401      6572726E 
 401      6F272027 
 401      2D667369 
 402 0033 2D666E6F 		.ascii	"-fno-trapv' '-fno-openmp' '-fno-openacc' '-mcpu=cor"
 402      2D747261 
 402      70762720 
 402      272D666E 
 402      6F2D6F70 
 403 0066 7465782D 		.ascii	"tex-m4' '-mthumb' '-ggdb' '-O2' '-fomit-frame-point"
 403      6D342720 
 403      272D6D74 
 403      68756D62 
 403      2720272D 
 404 0099 65722720 		.ascii	"er' '-falign-functions=16' '-ffunction-sections' '-"
 404      272D6661 
 404      6C69676E 
 404      2D66756E 
 404      6374696F 
 405 00cc 66646174 		.ascii	"fdata-sections' '-fno-common' '-flto'\000"
 405      612D7365 
 405      6374696F 
 405      6E732720 
 405      272D666E 
 406              		.text
 407              		.comm	__gnu_lto_v1,1,1
 408              		.comm	__gnu_lto_slim,1,1
 409              		.ident	"GCC: (GNU Tools for ARM Embedded Processors) 5.4.1 20160919 (release) [ARM/embedded-5-bran
ARM GAS  /tmp/ccK7eMwd.s 			page 31


DEFINED SYMBOLS
                            *ABS*:00000000 hal_st_lld.c
                            *COM*:00000001 __gnu_lto_v1
                            *COM*:00000001 __gnu_lto_slim

NO UNDEFINED SYMBOLS
