ARM GAS  /tmp/cc5g1LJM.s 			page 1


   1              		.syntax unified
   2              		.cpu cortex-m4
   3              		.fpu softvfp
   4              		.eabi_attribute 20, 1
   5              		.eabi_attribute 21, 1
   6              		.eabi_attribute 23, 3
   7              		.eabi_attribute 24, 1
   8              		.eabi_attribute 25, 1
   9              		.eabi_attribute 26, 1
  10              		.eabi_attribute 30, 2
  11              		.eabi_attribute 34, 1
  12              		.eabi_attribute 18, 4
  13              		.thumb
  14              		.syntax unified
  15              		.file	"oslib_test_root.c"
  16              		.text
  17              	.Ltext0:
  18              		.section	.gnu.lto_.profile.fd696767a502abfc,"",%progbits
  19 0000 789C6361 		.ascii	"x\234ca`\004B \000\000\0009\000\007"
  19      60044220 
  19      00000039 
  19      0007
  20              		.text
  21              		.section	.gnu.lto_.icf.fd696767a502abfc,"",%progbits
  22 0000 789C6361 		.ascii	"x\234ca`d\000\001>\006\004`b\230\372\252i\"\037\343"
  22      60640001 
  22      3E060460 
  22      6298FAAA 
  22      69221FE3 
  23 0014 A689BBFB 		.ascii	"\246\211\273\373\230\030\000)\233\005E"
  23      98180029 
  23      9B0545
  24              		.text
  25              		.section	.gnu.lto_.jmpfuncs.fd696767a502abfc,"",%progbits
  26 0000 789C6361 		.ascii	"x\234ca`d\000\001&\006d\000\000\000\236\000\010"
  26      60640001 
  26      26066400 
  26      00009E00 
  26      08
  27              		.text
  28              		.section	.gnu.lto_.inline.fd696767a502abfc,"",%progbits
  29 0000 789C6361 		.ascii	"x\234ca`d\000\001&\006d\000\000\000\236\000\010"
  29      60640001 
  29      26066400 
  29      00009E00 
  29      08
  30              		.text
  31              		.section	.gnu.lto_.pureconst.fd696767a502abfc,"",%progbits
  32 0000 789C6361 		.ascii	"x\234ca`\004B \000\000\0009\000\007"
  32      60044220 
  32      00000039 
  32      0007
  33              		.text
  34              		.section	.gnu.lto_oslib_test_suite.fd696767a502abfc,"",%progbits
  35 0000 789C6361 		.ascii	"x\234ca`d\000\201l \016f\200\200\277L\214\315\277\366"
  35      60640081 
  35      6C200E66 
ARM GAS  /tmp/cc5g1LJM.s 			page 2


  35      8080BF4C 
  35      8CCDBFF6 
  36 0014 7FE6ABFF 		.ascii	"\177\346\253\377\3330\243\241\341\301\322g\022\255\314"
  36      DB30A3A1 
  36      E1C1D267 
  36      12ADCC
  37 0023 0C9DCC10 		.ascii	"\014\235\314\020\231\231\357g\337fQ4\235\3370C\241\225"
  37      9999EF67 
  37      DF665134 
  37      9DDF3043 
  37      A195
  38 0035 991124F2 		.ascii	"\231\021$\362u\333\371i\274\020\265\0076\260\265231"
  38      75DBF969 
  38      BC10B507 
  38      36B0B532 
  38      3331
  39 0047 AE605404 		.ascii	"\256`T\004\253\275\265\241i\006\237\305\266\206\216"
  39      ABBDB5A1 
  39      69069FC5 
  39      B6868E
  40 0056 050D40C5 		.ascii	"\005\015@\305\314\377\230\030\030W2\326\377cbd\\\316"
  40      CCFF9818 
  40      185732D6 
  40      FF636264 
  40      5CCE
  41 0068 58CFC0B8 		.ascii	"X\317\300\270\212\321\202\301HOO\037\202JR\213K\364"
  41      8AD182C1 
  41      484F4F1F 
  41      824A528B 
  41      4BF4
  42 007a F38B7332 		.ascii	"\363\213s2\223\364\213\363K\213\222S\221D\342A\314\370"
  42      93F48BF3 
  42      4B8B9253 
  42      9144E241 
  42      CCF8
  43 008c A2FCFC12 		.ascii	"\242\374\374\022\275d\0069\347\214\314\244L\377`\005"
  43      BD640639 
  43      E78CCCA4 
  43      4CFF6005 
  44 009c 20F2C94C 		.ascii	" \362\311L*J,\252T\010\001\312+\004\227f\226\2442\000"
  44      2A4A2CAA 
  44      540801CA 
  44      2B049766 
  44      96A43200 
  45 00b0 00FBDE45 		.ascii	"\000\373\336E\357"
  45      EF
  46              		.text
  47              		.section	.gnu.lto_oslib_test_suite_array.fd696767a502abfc,"",%progbits
  48 0000 789C6361 		.ascii	"x\234ca`d\000\001> e\302\000\001\177\231\030\247\265"
  48      60640001 
  48      3E2065C2 
  48      00017F99 
  48      18A7B5
  49 0013 1E3ACFFE 		.ascii	"\036:\317\376\205\251\225\031(\015\344\236\\\262\353"
  49      85A99519 
  49      280DE49E 
  49      5CB2EB
ARM GAS  /tmp/cc5g1LJM.s 			page 3


  50 0022 0F0F88CB 		.ascii	"\017\017\210\313\310\310\012\3446\377\332\377\231\257"
  50      C8C80AE4 
  50      36FFDAFF 
  50      99AF
  51 0030 FE6FC38C 		.ascii	"\376o\303\214\206\206\007O\3573\002Uu2C\364]l\3310\207"
  51      8686074F 
  51      EF330255 
  51      753243F4 
  51      5D6CD930 
  52 0045 19A29005 		.ascii	"\031\242\220\005U\341\201\037\020u\214`u\207>mX\016"
  52      55E1811F 
  52      10758C60 
  52      75873E6D 
  52      580E
  53 0057 3590194D 		.ascii	"5\220\031M\335'\210:&\260\272\243\377\277\037\340\207"
  53      DD27883A 
  53      26B0BAA3 
  53      FFBF1FE0 
  53      87
  54 0068 A8634253 		.ascii	"\250cBSw\007\242\216\031\254\016Y\342\032D\202\005,"
  54      7707A28E 
  54      19AC0E59 
  54      E21A4482 
  54      052C
  55 007a 317DD2E1 		.ascii	"1}\322\341+\274\026\333\032:\0264$\264231\032\3120n"
  55      2BBC16DB 
  55      1A3A1634 
  55      24B43233 
  55      311ACA30 
  56 008f 60AC6734 		.ascii	"`\254g4\222a\\\017\244\3261\3120\256\005\322k\200\364"
  56      92615C0F 
  56      A4D631CA 
  56      30AE05D2 
  56      6B80F4
  57 00a2 6A20BD0A 		.ascii	"j \275\012H\257\004\322+\200\364rF\031\006\306\215\214"
  57      48AF04D2 
  57      2B80F472 
  57      461906C6 
  57      8D8C
  58 00b4 160C467A 		.ascii	"\026\014Fzz\372\020T\222Z\\\242\237_\234\223\231\244"
  58      7AFA1054 
  58      925A5CA2 
  58      9F5F9C93 
  58      99A4
  59 00c6 5F9C5F5A 		.ascii	"_\234_Z\224\234\212$\022\017b\306\027\345\347\227\350"
  59      949C8A24 
  59      120F62C6 
  59      17E5E797 
  59      E8
  60 00d7 25330000 		.ascii	"%3\000\000\340\201v\215"
  60      E081768D 
  61              		.text
  62              		.section	.gnu.lto_.symbol_nodes.fd696767a502abfc,"",%progbits
  63 0000 789C6361 		.ascii	"x\234ca`d\260a\000\002\326\023L\014\215B \306q&F\010"
  63      6064B061 
  63      0002D613 
  63      4C0C8D42 
ARM GAS  /tmp/cc5g1LJM.s 			page 4


  63      20C67126 
  64 0016 E3241393 		.ascii	"\343$\023\223\002\210>\305\304\014\246O3\261\200\351"
  64      02883EC5 
  64      C40CA64F 
  64      33B180E9 
  65 0026 334CAC60 		.ascii	"3L\254`\372,\023\033\210f\000\000\021\300\007\324"
  65      FA2C131B 
  65      88660000 
  65      11C007D4 
  66              		.text
  67              		.section	.gnu.lto_.refs.fd696767a502abfc,"",%progbits
  68 0000 789C6361 		.ascii	"x\234ca`d\020d`\000\222L\214\254\214LLL\314L,L\254L"
  68      60641064 
  68      6000924C 
  68      8CAC8C4C 
  68      4C4CCC4C 
  69 0018 6C0C0003 		.ascii	"l\014\000\003-\000?"
  69      2D003F
  70              		.text
  71              		.section	.gnu.lto_.decls.fd696767a502abfc,"",%progbits
  72 0000 789C9D96 		.ascii	"x\234\235\226]P\023W\024\307\367d7\020\003\004\007\034"
  72      5D501357 
  72      14C7F764 
  72      37100304 
  72      071C
  73 0012 E5216DED 		.ascii	"\345!m\355L\3540\323)\037~\364\241/\355L\247\365\255"
  73      4CEC30D3 
  73      291F7EF4 
  73      A12FED4C 
  73      A7F5AD
  74 0025 4FAD0F7D 		.ascii	"O\255\017}\311\30443\332i\245%aj\237\272@&\265Nm\261"
  74      C9C43433 
  74      DA69A525 
  74      616A9FBA 
  74      4026B54E 
  75 003b 55ABD13A 		.ascii	"U\253\321:|\210\"\321\002\245\"\012h\2246\362!B\344"
  75      7C8822D1 
  75      02A5220A 
  75      689436F2 
  75      2142E4
  76 004e 4BA14844 		.ascii	"K\241HD\011\010\202\241\012~\327\236{\357&\331\015\254"
  76      090882A1 
  76      0A7ED79E 
  76      7BEF26D9 
  76      0DAC
  77 0060 6DD9E164 		.ascii	"m\331\341d\367\356\376\357\357\234s\317\341\356\012"
  77      F7EEFEEF 
  77      EF9C73CF 
  77      E1EE0A
  78 006f 1C70E4B8 		.ascii	"\034p\344\270\244\347\270\255\032\216k\304\353gx\360"
  78      A4E7B8AD 
  78      1A8E6BC4 
  78      EB6778F0 
  79 007f 78DEC029 		.ascii	"x\336\300)\217x\264khA\264q\264\011\264\333h\323h\241"
  79      8F78B46B 
  79      6841B471 
  79      B409B4DB 
ARM GAS  /tmp/cc5g1LJM.s 			page 5


  79      68D368A1 
  80 0093 182DD109 		.ascii	"\030-\321\011h3hsh\367\321\206\320\320\005w\005\255"
  80      68336873 
  80      68F7D186 
  80      D0D00577 
  80      05AD
  81 00a5 4FD281C4 		.ascii	"O\322\201\304\223\037dL\374w\243-C\033\225=\323J\276"
  81      931F644C 
  81      FC77A32D 
  81      431B953D 
  81      D34ABE
  82 00b8 A625DF13 		.ascii	"\246%\337\023R,\362\343\251\006F\346f\037%\361\032 "
  82      522CF2E3 
  82      A90646E6 
  82      661F25F1 
  82      1A20
  83 00ca D7EE867B 		.ascii	"\327\356\206{m\332{\032H\321\203\016\207'\247='\223"
  83      6DDA7B1A 
  83      48D1830E 
  83      8727A73D 
  83      2793
  84 00dc 70B84C0F 		.ascii	"p\270L\017^\362x\370a\305\273\031\307D<\212DQ\363j\224"
  84      5EF278F8 
  84      61C5BB19 
  84      C7443C8A 
  84      4451F36A 
  85 00f1 31D3E1BE 		.ascii	"1\323\341\276a`\302\2258\364;\253\017\360\014#\340\260"
  85      6160C295 
  85      38F43BAB 
  85      0FF00C23 
  85      E0B0
  86 0103 60A4AE0F 		.ascii	"`\244\256\017x#\365\320\373\240\351Q\"\3772\271\026"
  86      7823F5D0 
  86      FBA0E951 
  86      22FF32B9 
  86      16
  87 0114 6A0B864B 		.ascii	"j\013\206K\014\220n\004\300?\375\3410\227\203_A\017"
  87      0C906E04 
  87      C03FFDE1 
  87      3097835F 
  87      410F
  88 0126 BF001F0E 		.ascii	"\277\000\037\016\322-n\023\305\320W\3446^\353\350\031"
  88      D22D6E13 
  88      C5D057E4 
  88      365EEBE8 
  88      19
  89 0137 EF1488A1 		.ascii	"\357\024\210\241R1.\215\2035F\3102rP\005\351\364\021"
  89      52312E8D 
  89      833546C8 
  89      32725005 
  89      E9F411
  90 014a 073508AC 		.ascii	"\0075\010\254\006#\3617p\341\2423N/\251\213\376M=\351"
  90      0623F137 
  90      70E1A233 
  90      4E2FA98B 
  90      FE4D3DE9 
  91 015e 09F61912 		.ascii	"\011\366\031\022\267\023uQ\241\230\322b\200Z\014\305"
ARM GAS  /tmp/cc5g1LJM.s 			page 6


  91      B7137551 
  91      A198D262 
  91      805A0CC5 
  92 016e 83826328 		.ascii	"\203\202c(\340\3407H\2242\356\252\275\356\323\360\257"
  92      E0E03748 
  92      9432EEAA 
  92      BDEED3F0 
  92      AF
  93 017f D09C8E78 		.ascii	"\320\234\216xB\273\264|\026\275\236\354\365\217\353"
  93      42BBB47C 
  93      16BD9EEC 
  93      F58FEB
  94 018e F8D7E9F5 		.ascii	"\370\327\351\365\323\326\375nM\332\036\232W\241\270"
  94      D3D6FD6E 
  94      4DDA1E9A 
  94      57A1B8
  95 019d 52800DCB 		.ascii	"R\200\015\313e\254zH\303\337\215\002\343=\036\255\032"
  95      65AC7A48 
  95      C3DF8D02 
  95      E33D1EAD 
  95      1A
  96 01ae 4B5478C6 		.ascii	"KTx\306\3472\365\251\210\347\237:\276\251\327\360oR"
  96      E732F5A9 
  96      88E79F3A 
  96      BEA9D7F0 
  96      6F52
  97 01c0 0F974317 		.ascii	"\017\227C\027\177N`\013\275\024\207u\301V\237\236\225"
  97      7F4E600B 
  97      BD148775 
  97      C1569F9E 
  97      95
  98 01d1 4104B2D8 		.ascii	"A\004\262\330\177\227\267\033\370w\2104n\307\330\271"
  98      7F97B71B 
  98      F8778834 
  98      6EC7D8B9 
  99 01e1 411D98F0 		.ascii	"A\035\230\360HO-%n\002\015\276\365%e.\261\310B\340p"
  99      484F2D25 
  99      6E020DBE 
  99      F525652E 
  99      B1C842E0 
 100 01f6 12786886 		.ascii	"\022xh\206\324\210K\250\240~\263\361\207\243z\357\001"
 100      D4884BA8 
 100      A07EB3F1 
 100      87A37AEF 
 100      01
 101 0207 5F62587C 		.ascii	"_bX|:V\234I\264\036\210\212\367\373\222\367\211^'O\226"
 101      3A569C49 
 101      B41E888A 
 101      F7FB92F7 
 101      895E274F 
 102 021c 0C8E2F28 		.ascii	"\014\216/(\227\241k\\ILM\340M\013G\302\350\264K\274"
 102      97A16B5C 
 102      494C4DE0 
 102      4D0B47C2 
 102      E8B44BBC 
 103 0230 FB30146C 		.ascii	"\3730\024l\004TqP\011\031R\237\354\224:H\004\007\007"
 103      04547150 
ARM GAS  /tmp/cc5g1LJM.s 			page 7


 103      0919529F 
 103      EC943A48 
 103      040707
 104 0243 8D38BB81 		.ascii	"\2158\273\201N$,\024\301y\254\270\027Lp\026\355\014"
 104      4E242C14 
 104      C179ACB8 
 104      174C7016 
 104      ED0C
 105 0255 DA393085 		.ascii	"\33290\205\373\367j\305\225\233<\3771Y(M\347\243\236"
 105      FBF76AC5 
 105      959B3CFF 
 105      3159284D 
 105      E7A39E
 106 0268 66ECCA54 		.ascii	"f\354\312T\346\251\326\007\304\223\017\031\277c\\\314"
 106      E6A9D607 
 106      C4930F19 
 106      BF635CCC 
 107 0278 1975ACE2 		.ascii	"\031u\254\342\017\376@7\377\301\245\177\266\2673>UB"
 107      0FFE4037 
 107      FFC1A57F 
 107      B6B7333E 
 107      5542
 108 028a 7855119C 		.ascii	"xU\021\234\332|\317\267\225m\312V\275 [3\016Z\"\015"
 108      DA7CCFB7 
 108      956DCA56 
 108      BD205B33 
 108      0E5A220D 
 109 029e D33457E1 		.ascii	"\3234W\341\217\017+\213\236\247\274V\023\334\227\254"
 109      8F0F2B8B 
 109      9EA7BC56 
 109      13DC97AC 
 110 02ae 60B6623D 		.ascii	"`\266b=\242\312\266\260R\010\370\036\027k!\325\224n"
 110      A2CAB6B0 
 110      5208F81E 
 110      176B21D5 
 110      946E
 111 02c0 621978D9 		.ascii	"b\031x\331\"\034E)\253V\273\264\002\035\230\312E\214"
 111      221C4529 
 111      AB56BBB4 
 111      021D98CA 
 111      458C
 112 02d2 FC921439 		.ascii	"\374\222\0249\253\367Y\327\012ew\264/\334\035\254\006"
 112      ABF759D7 
 112      0A6577B4 
 112      2FDC1DAC 
 112      06
 113 02e3 4DACDAED 		.ascii	"M\254\332\355\312j3\222\337\365\022#alP\267 \2115\016"
 113      CA6A3392 
 113      DFF51223 
 113      616C50B7 
 113      2089350E 
 114 02f7 D9A5AAB6 		.ascii	"\331\245\252\266w&\363y\264\312M\201\232\212\244H\225"
 114      7726F379 
 114      B4CA4D81 
 114      9A8AA448 
 114      95
 115 0308 BB5995FD 		.ascii	"\273Y\225\3758\2673Z\345vY\225c\022\204.\314K-Gtu\267"
ARM GAS  /tmp/cc5g1LJM.s 			page 8


 115      38B7335A 
 115      E5765995 
 115      6312842E 
 115      CC4B2D47 
 116 031f 78E260B2 		.ascii	"x\342`\262T]\257Wu*\027;o\242\302\363\265r\033\270\254"
 116      545DAF57 
 116      752A173B 
 116      6FA2C2F3 
 116      B5721BB8 
 117 0334 A85577A4 		.ascii	"\250Uw\244VCg\202e:EU\325\224\371s\327\017\353\025\314"
 117      56436782 
 117      653A4555 
 117      D594F973 
 117      D70FEB15 
 118 0349 1E45557B 		.ascii	"\036EU{#U\235\351\333U\231\014&,+[\334\031\327*\266"
 118      23559DE9 
 118      DB55990C 
 118      262C2B5B 
 118      DC19D72A 
 119 035e B8288113 		.ascii	"\270(\201\023\2700\375*\213\253\322\004\375\322\002"
 119      B830FD2A 
 119      8BABD204 
 119      FDD202
 120 036d 5DC58CAF 		.ascii	"]\305\214\257`\242}\212&\030\216m\202\371tY\023\014"
 120      60A27D8A 
 120      26188E6D 
 120      82F97459 
 120      130C
 121 037f B126E857 		.ascii	"\261&\350W6\001\246\267\307u\243E\340\235@\313Z\337"
 121      3601A6B7 
 121      C775A345 
 121      E09D40CB 
 121      5ADF
 122 0391 DD70888F 		.ascii	"\335p\210\217\224\365.+\353\237\310\035\210\226\265"
 122      94F52E2B 
 122      EB9FC81D 
 122      8896B5
 123 03a0 FF39651D 		.ascii	"\3779e\035\304H\325\242F_w\374S\257\251TU6\223\213\235"
 123      C448D5A2 
 123      465F77FC 
 123      53AFA954 
 123      5536938B 
 124 03b5 76AC74FB 		.ascii	"v\254t\3736\355\2522\261\272X\014\370\333\326\327\224"
 124      36EDAA32 
 124      B1BA580C 
 124      F8DBD6D7 
 124      94
 125 03c6 E37C8021 		.ascii	"\343|\200!T\037aa\311\326\214\334y\037\337\201\327`"
 125      541F6161 
 125      C9D68CDC 
 125      791FDF81 
 125      D760
 126 03d8 15CE2C19 		.ascii	"\025\316,\031\332[\242\343\233ir0\355\034\015H\273}"
 126      DA5BA2E3 
 126      9B697230 
 126      ED1C0D48 
 126      BB7D
ARM GAS  /tmp/cc5g1LJM.s 			page 9


 127 03ea 1A0EAB1B 		.ascii	"\032\016\253\033\235S\322K\327Kv\373\326C\247\237$\262"
 127      9D53D24B 
 127      D74B76FB 
 127      D643A79F 
 127      24B2
 128 03fc C75A1C1E 		.ascii	"\307Z\034\036\374\276\276\\O\336|b\270\354)\362W\331"
 128      FCBEBE5C 
 128      4FDE7C62 
 128      B8EC29F2 
 128      57D9
 129 040e 0DFAEECB 		.ascii	"\015\372\356\3134\302\010{\365\371[\013\202\272\224"
 129      34C2087B 
 129      F5F95B0B 
 129      82BA94
 130 041d 22694B7B 		.ascii	"\"iK{\313A\032\010\256\243<@\3457!%<\211\250k\335'\374"
 130      CB411A08 
 130      AEA33C40 
 130      E5372125 
 130      3C89A86B 
 131 0434 2057F73C 		.ascii	" W\367<O\275\247\374\301\017I\230\177\250\030\377\325"
 131      4FBDA7FC 
 131      C10F4998 
 131      7FA818FF 
 131      D5
 132 0445 1E42BEE8 		.ascii	"\036B\276\350\025`\024R`X\312>:qX\312>H\263?\363tw\241"
 132      15601452 
 132      6058CA3E 
 132      3A7158CA 
 132      3E48B33F 
 133 045d 811F60D9 		.ascii	"\201\037`\331\177w\256\266ZC \242\030\350\35546\025"
 133      7F77AEB6 
 133      5A4320A2 
 133      18E8ED34 
 133      3615
 134 046f 88CE25B4 		.ascii	"\210\316%\264\347\307\346\255\341\030\371v\200q\312"
 134      E7C7E6AD 
 134      E118F976 
 134      8071CA
 135 047e 38BFA3E7 		.ascii	"8\277\243\347~\002\177\234}\337\034\2759v\001\030\243"
 135      7E027F9C 
 135      7DDF1CBD 
 135      39760118 
 135      A3
 136 048f D8BDC18B 		.ascii	"\330\275\301\213E \200[\363\000\267(`\202\002\002\356"
 136      4520805B 
 136      F300B728 
 136      60820202 
 136      EE
 137 04a0 AE69E045 		.ascii	"\256i\340E\236\002\236\371\246v\351%@\350\3030`r\036"
 137      9E029EF9 
 137      A676E925 
 137      40E8C330 
 137      60721E
 138 04b3 6092026E 		.ascii	"`\222\002nS\300@\327xC\002\337\315\000\273\233g\237"
 138      53C040D7 
 138      784302DF 
 138      CD00BB9B 
ARM GAS  /tmp/cc5g1LJM.s 			page 10


 138      679F
 139 04c5 C44B803A 		.ascii	"\304K\200:s\03005\0170E\001\323\024\320_yjD\313\037"
 139      73183035 
 139      0F304501 
 139      D314D05F 
 139      796A44CB 
 140 04da 1628E050 		.ascii	"\026(\340P\371\257\375\3222\024?\261\346\213\347\005"
 140      F9AFFDD2 
 140      32143FB1 
 140      E68BE705 
 141 04ea 4AB8338F 		.ascii	"J\2703\217p\207\022B\2240X\365c\235r[!\313\037m\206"
 141      70871242 
 141      943058F5 
 141      639D725B 
 141      21CB1F6D 
 142 04ff 19B60590 		.ascii	"\031\266\005\2203\252K\307;Z\245\257\300\027pxb\360"
 142      33AA4BC7 
 142      3B5AA5AF 
 142      C0177078 
 142      62F0
 143 0511 EA5E41BD 		.ascii	"\352^A\275\221\356\206\033\351/\326H\247\013=\325Il"
 143      91EE861B 
 143      E92FD648 
 143      A70B3DD5 
 143      496C
 144 0523 F68B3874 		.ascii	"\366\2138t\355\034)\223\2724D\272\264\321\225?\026\027"
 144      ED1C2993 
 144      BA3444BA 
 144      B4D1953F 
 144      1617
 145 0535 ED1CA01F 		.ascii	"\355\034\240\037{\263H\273Gis\264s(\223\016p\306hK\271"
 145      7BB348BB 
 145      476973B4 
 145      7328930E 
 145      70C6684B 
 146 054a 4911FB9C 		.ascii	"I\021\373\234\"\366\373R\354\344\2744\307\376\311\346"
 146      22F6FB52 
 146      ECE4BC34 
 146      C7FEC9E6 
 147 055a 8D6687CD 		.ascii	"\215f\207\315\3560\333\3636;l\272\365\357}\260\362\355"
 147      EE30DBF3 
 147      363B6CBA 
 147      F5EF7DB0 
 147      F2ED
 148 056c EC6C4ED8 		.ascii	"\354lN\330b\371\324&X7Yr\227\330m\237\347\331\266Xm"
 148      62F9D426 
 148      58375972 
 148      97D86D9F 
 148      E7D9B658 
 149 0581 76ADD562 		.ascii	"v\255\325b\267\331u\016\233%\367\243\234/\266h\3556"
 149      B7D9750E 
 149      9B25F7A3 
 149      9C2FB668 
 149      ED36
 150 0593 47DE67F1 		.ascii	"G\336g\361\266\2556k\236\303f\314\310\310d\177\204\226"
 150      B6AD366B 
 150      9EC366CC 
ARM GAS  /tmp/cc5g1LJM.s 			page 11


 150      C8C8647F 
 150      8496
 151 05a5 89D84CEB 		.ascii	"\211\330L\353&J\316\330\304\351\311\231\3146;\014\344"
 151      264ACED8 
 151      C4E9C999 
 151      CC363B0C 
 151      E4
 152 05b6 328C343B 		.ascii	"2\2144;\022\350\220\2706;V+\0214\266L{N^\256\325&\273"
 152      12E890B8 
 152      363B562B 
 152      1134B64C 
 152      7B4E5EAE 
 153 05cd C3A2CDCD 		.ascii	"\303\242\315\315\311qdX\271\345\261\011\230-\271\271"
 153      C9716458 
 153      B9E5B109 
 153      982DB9B9 
 154 05dd 962F57C8 		.ascii	"\226/W\310o\207}eee\277\361?<\310\347a\012*\310\325"
 154      6F877D65 
 154      6565BFF1 
 154      3F3CC8E7 
 154      610A2AC8 
 155 05f2 8B44AE56 		.ascii	"\213D\256VG\256Y$r\215:r\355\"\221k\325\221\353\026"
 155      47AE5924 
 155      728D3A72 
 155      ED22916B 
 155      D591EB16 
 156 0606 895C87C8 		.ascii	"\211\\\207\310\177\000\240v+S"
 156      7F00A076 
 156      2B53
 157              		.text
 158              		.section	.gnu.lto_.symtab.fd696767a502abfc,"",%progbits
 159 0000 6F736C69 		.ascii	"oslib_test_suite\000"
 159      625F7465 
 159      73745F73 
 159      75697465 
 159      00
 160 0011 00       		.ascii	"\000"
 161 0012 00       		.ascii	"\000"
 162 0013 00       		.ascii	"\000"
 163 0014 00000000 		.ascii	"\000\000\000\000\000\000\000\000"
 163      00000000 
 164 001c DE000000 		.ascii	"\336\000\000\000"
 165 0020 6F736C69 		.ascii	"oslib_test_suite_array\000"
 165      625F7465 
 165      73745F73 
 165      75697465 
 165      5F617272 
 166 0037 00       		.ascii	"\000"
 167 0038 00       		.ascii	"\000"
 168 0039 00       		.ascii	"\000"
 169 003a 00000000 		.ascii	"\000\000\000\000\000\000\000\000"
 169      00000000 
 170 0042 E6000000 		.ascii	"\346\000\000\000"
 171 0046 6F736C69 		.ascii	"oslib_test_sequence_001\000"
 171      625F7465 
 171      73745F73 
 171      65717565 
ARM GAS  /tmp/cc5g1LJM.s 			page 12


 171      6E63655F 
 172 005e 00       		.ascii	"\000"
 173 005f 02       		.ascii	"\002"
 174 0060 00       		.ascii	"\000"
 175 0061 00000000 		.ascii	"\000\000\000\000\000\000\000\000"
 175      00000000 
 176 0069 E8000000 		.ascii	"\350\000\000\000"
 177 006d 6F736C69 		.ascii	"oslib_test_sequence_002\000"
 177      625F7465 
 177      73745F73 
 177      65717565 
 177      6E63655F 
 178 0085 00       		.ascii	"\000"
 179 0086 02       		.ascii	"\002"
 180 0087 00       		.ascii	"\000"
 181 0088 00000000 		.ascii	"\000\000\000\000\000\000\000\000"
 181      00000000 
 182 0090 EA000000 		.ascii	"\352\000\000\000"
 183 0094 6F736C69 		.ascii	"oslib_test_sequence_003\000"
 183      625F7465 
 183      73745F73 
 183      65717565 
 183      6E63655F 
 184 00ac 00       		.ascii	"\000"
 185 00ad 02       		.ascii	"\002"
 186 00ae 00       		.ascii	"\000"
 187 00af 00000000 		.ascii	"\000\000\000\000\000\000\000\000"
 187      00000000 
 188 00b7 EC000000 		.ascii	"\354\000\000\000"
 189 00bb 6F736C69 		.ascii	"oslib_test_sequence_004\000"
 189      625F7465 
 189      73745F73 
 189      65717565 
 189      6E63655F 
 190 00d3 00       		.ascii	"\000"
 191 00d4 02       		.ascii	"\002"
 192 00d5 00       		.ascii	"\000"
 193 00d6 00000000 		.ascii	"\000\000\000\000\000\000\000\000"
 193      00000000 
 194 00de EE000000 		.ascii	"\356\000\000\000"
 195 00e2 6F736C69 		.ascii	"oslib_test_sequence_005\000"
 195      625F7465 
 195      73745F73 
 195      65717565 
 195      6E63655F 
 196 00fa 00       		.ascii	"\000"
 197 00fb 02       		.ascii	"\002"
 198 00fc 00       		.ascii	"\000"
 199 00fd 00000000 		.ascii	"\000\000\000\000\000\000\000\000"
 199      00000000 
 200 0105 F0000000 		.ascii	"\360\000\000\000"
 201              		.text
 202              		.section	.gnu.lto_.opts,"",%progbits
 203 0000 272D666D 		.ascii	"'-fmath-errno' '-fsigned-zeros' '-ftrapping-math' '"
 203      6174682D 
 203      6572726E 
 203      6F272027 
ARM GAS  /tmp/cc5g1LJM.s 			page 13


 203      2D667369 
 204 0033 2D666E6F 		.ascii	"-fno-trapv' '-fno-openmp' '-fno-openacc' '-mcpu=cor"
 204      2D747261 
 204      70762720 
 204      272D666E 
 204      6F2D6F70 
 205 0066 7465782D 		.ascii	"tex-m4' '-mthumb' '-ggdb' '-O2' '-fomit-frame-point"
 205      6D342720 
 205      272D6D74 
 205      68756D62 
 205      2720272D 
 206 0099 65722720 		.ascii	"er' '-falign-functions=16' '-ffunction-sections' '-"
 206      272D6661 
 206      6C69676E 
 206      2D66756E 
 206      6374696F 
 207 00cc 66646174 		.ascii	"fdata-sections' '-fno-common' '-flto'\000"
 207      612D7365 
 207      6374696F 
 207      6E732720 
 207      272D666E 
 208              		.text
 209              		.comm	__gnu_lto_v1,1,1
 210              		.comm	__gnu_lto_slim,1,1
 211              		.ident	"GCC: (GNU Tools for ARM Embedded Processors) 5.4.1 20160919 (release) [ARM/embedded-5-bran
ARM GAS  /tmp/cc5g1LJM.s 			page 14


DEFINED SYMBOLS
                            *ABS*:00000000 oslib_test_root.c
                            *COM*:00000001 __gnu_lto_v1
                            *COM*:00000001 __gnu_lto_slim

NO UNDEFINED SYMBOLS
