ARM GAS  /tmp/ccw31awu.s 			page 1


   1              		.syntax unified
   2              		.cpu cortex-m4
   3              		.fpu softvfp
   4              		.eabi_attribute 20, 1
   5              		.eabi_attribute 21, 1
   6              		.eabi_attribute 23, 3
   7              		.eabi_attribute 24, 1
   8              		.eabi_attribute 25, 1
   9              		.eabi_attribute 26, 1
  10              		.eabi_attribute 30, 2
  11              		.eabi_attribute 34, 1
  12              		.eabi_attribute 18, 4
  13              		.thumb
  14              		.syntax unified
  15              		.file	"rt_test_root.c"
  16              		.text
  17              	.Ltext0:
  18              		.section	.gnu.lto_.profile.6ead6df1db504aa8,"",%progbits
  19 0000 789C6361 		.ascii	"x\234ca`d`a`\000\222\346\222\000\000\361\000["
  19      60646061 
  19      600092E6 
  19      920000F1 
  19      005B
  20              		.text
  21              		.section	.gnu.lto_.icf.6ead6df1db504aa8,"",%progbits
  22 0000 789C6361 		.ascii	"x\234ca`d\000\001=\006\004\340`x\266t\327e~\306\225"
  22      60640001 
  22      3D0604E0 
  22      6078B674 
  22      D7657EC6 
  23 0015 2BB6DB32 		.ascii	"+\266\3332\235\373\264G\222\371\347\361\231\216,\315"
  23      9DFBB447 
  23      92F9E7F1 
  23      998E2CCD 
  24 0025 BF7B27B2 		.ascii	"\277{'\262\263\336\277\366\314\237m\346\352\011/\230"
  24      B3DEBFF6 
  24      CC9F6DE6 
  24      EA092F98 
  25 0035 D9AFF55D 		.ascii	"\331\257\365]jge\000\000\021D\026\001"
  25      6A676500 
  25      00114416 
  25      01
  26              		.text
  27              		.section	.gnu.lto_.jmpfuncs.6ead6df1db504aa8,"",%progbits
  28 0000 789C6361 		.ascii	"x\234ca`d\000\001-\006\004`\006b&\010f\202p\231\030"
  28      60640001 
  28      2D060460 
  28      06622608 
  28      66827099 
  29 0015 FF32316E 		.ascii	"\37721nm?\263\221\353\013S+3\003##\343rF\031\240\024"
  29      6D3FB391 
  29      EB0B532B 
  29      33032323 
  29      E3724619 
  30 002b 006A9306 		.ascii	"\000j\223\006G"
  30      47
  31              		.text
ARM GAS  /tmp/ccw31awu.s 			page 2


  32              		.section	.gnu.lto_.inline.6ead6df1db504aa8,"",%progbits
  33 0000 789C6361 		.ascii	"x\234ca`d\000\201`\006\004`f`\340>\001\024g\342y\361"
  33      60640081 
  33      60060460 
  33      6660E03E 
  33      011467E2 
  34 0016 9999816D 		.ascii	"\231\231\201m\201<\023H\224\211\233\221\201q\202\037"
  34      813C1348 
  34      94899B91 
  34      8171821F 
  35 0026 1303CF19 		.ascii	"\023\003\317\031\220\034\337\232U,\350r\314\014\034"
  35      901CDF9A 
  35      552CE872 
  35      CC0C1C
  36 0035 024029B6 		.ascii	"\002@)\266\017zH2\014 \033\000\035a\012\340"
  36      0F7A4832 
  36      0C201B00 
  36      1D610AE0 
  37              		.text
  38              		.section	.gnu.lto_.pureconst.6ead6df1db504aa8,"",%progbits
  39 0000 789C6361 		.ascii	"x\234ca`d\340````f\220`\222`\336\305\010\000\003N\001"
  39      6064E060 
  39      60606066 
  39      90609260 
  39      DEC50800 
  40 0017 01       		.ascii	"\001"
  41              		.text
  42              		.section	.gnu.lto_test_terminate_threads.6ead6df1db504aa8,"",%progbits
  43 0000 789C6D52 		.ascii	"x\234mR\317k\023Q\020\236\357\315\376\262\230\320\233"
  43      CF6B1351 
  43      109EEFCD 
  43      FEB298D0 
  43      9B
  44 0011 971E72E9 		.ascii	"\227\036r\351\241\240I{\361_\360\356?P\260\024\364\024"
  44      A1A0497B 
  44      F15FF0EE 
  44      3F50B014 
  44      F414
  45 0023 48E3C153 		.ascii	"H\343\301S^\262\331V\017\202\010\026\025\265\007\221"
  45      5EB2D956 
  45      0F820816 
  45      15B50791 
  46 0033 C69F69B4 		.ascii	"\306\237i\264\036\202\264lk!H\325RT\024\202b#\024)="
  46      1E82B46C 
  46      6B2148D5 
  46      52541482 
  46      62231429 
  47 0048 34A2824A 		.ascii	"4\242\202J\215\363\336\266 \350cw\337\316\274o\276\371"
  47      8DF3DEB6 
  47      20E86377 
  47      DFCEBC6F 
  47      BEF9
  48 005a 66E63904 		.ascii	"f\3469\0042\353\214\"\032\226\375\244\274\010\010\352"
  48      32EB8C22 
  48      1A96FDA4 
  48      BC0808EA 
  49 006a C24BA272 		.ascii	"\302K\242r\240\340%?\254\234\326Q\322}\356\263C\244"
ARM GAS  /tmp/ccw31awu.s 			page 3


  49      A0E0253F 
  49      AC9CD651 
  49      D27DEEB3 
  49      43A4
  50 007c 0F3A7013 		.ascii	"\017:p\023\267\233\234/\005\236\342\363K$\000?L\011"
  50      B79B9C2F 
  50      059EE2F3 
  50      4B24003F 
  50      4C09
  51 008e C0078C5F 		.ascii	"\300\007\214_\007\240\222b\307\365|\224\224G\210%\322"
  51      07A09262 
  51      C7F57C94 
  51      94478825 
  51      D2
  52 009f 7E4CCE6F 		.ascii	"~L\316ojWayj\263\251\206f\265\254\217\321\317a]\213"
  52      6A576179 
  52      6AB3A986 
  52      66B5AC8F 
  52      D1CF615D 
  53 00b4 1131514F 		.ascii	"\0211QOYY\204Y\014\221\300\326\253s\327\370\253\212"
  53      59598459 
  53      0C91C0D6 
  53      AB73D7F8 
  53      AB8A
  54 00c6 1870C4EC 		.ascii	"\030p\304\354\276\270\372)mL\205\214\230\267V\237.\246"
  54      BEB8FA29 
  54      6D4C858C 
  54      98B7569F 
  54      2EA6
  55 00d8 3907837C 		.ascii	"9\007\203|\255\347{\030\274\251uE\307\257\246\322Wt"
  55      ADE77B18 
  55      BCA97545 
  55      C7AFA6D2 
  55      5774
  56 00ea 5CCD44CC 		.ascii	"\\\315D\314\270\003\026R\334\306\000j\030\260\344\202"
  56      B8031652 
  56      DCC6006A 
  56      18B0E482 
  57 00fa EE347E5F 		.ascii	"\3564~_JyU\223>\203\273\030L\022\343\036<\351\013\214"
  57      4A795593 
  57      3E83BB18 
  57      4C12E31E 
  57      3CE90B8C 
  58 010e A77E3CD6 		.ascii	"\247~<\326\275^\250\343u\177\365\335\257@*2^\227\"v"
  58      BD5EA8E3 
  58      757FF5DD 
  58      AF402A32 
  58      5E972276 
  59 0122 7CFB4BB4 		.ascii	"|\373K\264#1RvW)\331\270\203J\374v*e9\344X\222\324\267"
  59      23315276 
  59      5729D9B8 
  59      834AFC76 
  59      2A6539E4 
  60 013a 9B3F5246 		.ascii	"\233?RF-K\360}\233\274\253\230\244a\274\211\312b\343"
  60      2D4BF07D 
  60      9BBCAB98 
  60      A461BC89 
ARM GAS  /tmp/ccw31awu.s 			page 4


  60      CA62E3
  61 014d 7BD935E8 		.ascii	"{\3315\350\220]\001OG\313k\276\001\273\266\234fs\273"
  61      905D014F 
  61      47CB6BBE 
  61      01BBB69C 
  61      6673BB
  62 0160 ED9776F5 		.ascii	"\355\227v\365Y\255\373\305w\216\023\335[\317\337\254"
  62      59ADFBC5 
  62      778E13DD 
  62      5BCFDFAC 
  63 0170 F4CDE07A 		.ascii	"\364\315\340zY[\277\207:Jx`\250\315\341\302\302\006"
  63      595BBF87 
  63      3A4A7860 
  63      A8CDE1C2 
  63      C206
  64 0182 8FE44421 		.ascii	"\217\344D!\3460\203\220\355\214\321\300\010m\240\332"
  64      E6308390 
  64      ED8CD1C0 
  64      086DA0DA 
  65 0192 0E4FFC27 		.ascii	"\016O\374'\233#\322\036\356\365\245\253\034zr\204?\243"
  65      9B23D21E 
  65      EEF5A5AB 
  65      1C7A7284 
  65      3FA3
  66 01a4 1AB75B6C 		.ascii	"\032\267[l\300\377*\361{\312t\350\021J$L\021\0076\316"
  66      C0FF2AF1 
  66      7BCA74E8 
  66      114A244C 
  66      110736CE 
  67 01b8 DD2B2A9C 		.ascii	"\335+*\234\236\374p\343\"\222<\276\010\220\370\371\225"
  67      9EFC70E3 
  67      22923CBE 
  67      0890F8F9 
  67      95
  68 01c9 D6649074 		.ascii	"\326d\220t\001\230\227T\035\250\375&\011\310\306{$\327"
  68      01989754 
  68      1DA8FD26 
  68      09C8C67B 
  68      24D7
  69 01db C674B09F 		.ascii	"\306t\260\237\0227\214\342\2650\2350\341\357\233\300"
  69      12378CE2 
  69      B5309D30 
  69      E1EF9BC0 
  70 01eb 70F03851 		.ascii	"p\3608Q\374E\030\245\257\252\306B\344^> L\276\031\305"
  70      FC4518A5 
  70      AFAAC642 
  70      E45E3E20 
  70      4CBE19C5 
  71 01ff 968CE2FD 		.ascii	"\226\214\342\3751[\200Y;\"9L\311\260\016g\263\271\344"
  71      315B8059 
  71      3B22394C 
  71      C9B00E67 
  71      B3B9E4
  72 0212 298E4F14 		.ascii	")\216O\024s\205bn\"\177\27206\276o\216\232}\264\220"
  72      7385626E 
  72      227FBA30 
  72      36BE6F8E 
ARM GAS  /tmp/ccw31awu.s 			page 5


  72      9A7DB490 
  73 0226 CF17B363 		.ascii	"\317\027\263c\204S\177\000\306)\345\200"
  73      84537F00 
  73      C629E580 
  74              		.text
  75              		.section	.gnu.lto_test_wait_threads.6ead6df1db504aa8,"",%progbits
  76 0000 789C9552 		.ascii	"x\234\225RKkSA\024>\337\314}\245\230\320\235\233.\262"
  76      4B6B5341 
  76      143EDFCC 
  76      7DA598D0 
  76      9D9B2EB2 
  77 0014 E9A2A049 		.ascii	"\351\242\240I\263q\347\037p\351\037(X\012\272\012\244"
  77      B371E71F 
  77      70E91F28 
  77      580ABA0A 
  77      A4
  78 0025 719D496E 		.ascii	"q\235In\322\350BP\301\372@\011T\244\361\231V\343#H\303"
  78      D2E84250 
  78      C1FA4009 
  78      54A4F199 
  78      56E32348 
  79 003a 6D0D149F 		.ascii	"m\015\024\237E\320U7&b\221\322E\256\324G\027i<so\012"
  79      45D05537 
  79      266291D2 
  79      45AED447 
  79      17693C73 
  80 0050 85BA71B8 		.ascii	"\205\272q\270\367\316\2353\337\371\3167\337\031\203"
  80      F7CE9D33 
  80      DFF9CE37 
  80      DF1983
  81 005f 407AB405 		.ascii	"@z\264\005\3218\317\247\371\205C\020\027?\020\345\035"
  81      D138CFA7 
  81      F9854310 
  81      173F10E5 
  81      1D
  82 0070 012BFC91 		.ascii	"\001+\374\221\302X=Fj\310|}\230\324!\003f\0306\303\375"
  82      C2583D46 
  82      6AC87C7D 
  82      98D42103 
  82      661836C3 
  83 0085 65C712F2 		.ascii	"e\307\022\362\30221\300v\243\014\260\001\035W\016('"
  83      C23231C0 
  83      76A30CB0 
  83      011D570E 
  83      2827
  84 0097 A4615A36 		.ascii	"\244aZ6r\302\"x\234\031|t\315\237\242'\260R\336h\210"
  84      72C22278 
  84      9C197C74 
  84      CD9FA227 
  84      B052DE68 
  85 00ac B179C5E3 		.ascii	"\261y\305\343\313\267\335qU\365P\222D}\021\310\"\314"
  85      CBB7DD71 
  85      55F55092 
  85      447D11C8 
  85      22CC
  86 00be 638C18F6 		.ascii	"c\214\030\366\261\270pSn\213\222\004\014^\372\357o|"
  86      B1B87053 
ARM GAS  /tmp/ccw31awu.s 			page 6


  86      6E8B9204 
  86      0C5EFAEF 
  86      6F7C
  87 00d0 8DE9A540 		.ascii	"\215\351\245@\234\227w\336\276j\306d\022\032\371I\325"
  87      9C9777DE 
  87      BE6AC664 
  87      121AF949 
  87      D5
  88 00e1 FB18BDAD 		.ascii	"\373\030\275\255TAy;\345\330u\345\025\343%)q\017\222"
  88      5441793B 
  88      E5D875E5 
  88      15E32529 
  88      710F92
  89 00f4 49711723 		.ascii	"Iq\027#\250b$ gtgq\367J\324*\352\362q\334\307hX\030"
  89      A8622420 
  89      67746771 
  89      F74AD42A 
  89      EAF271DC 
  90 010c 0F60B12F 		.ascii	"\017`\261/\320\221\332IO\365\373\256\362~\333\315?s"
  90      D091DA49 
  90      4FF5FBAE 
  90      F27EDBCD 
  90      3F73
  91 011e 91084847 		.ascii	"\221\010HGM*I\303\011~\211\272\234\303\307\366\205\340"
  91      4D2A49C3 
  91      097E89BA 
  91      9CC3C7F6 
  91      85E0
  92 0130 497650F0 		.ascii	"IvP\360z\345h\300\301\333\\\244\266\325\330\211j\265"
  92      7AE568C0 
  92      C1DB5CA4 
  92      B6D5D889 
  92      6AB5
  93 0142 92931F06 		.ascii	"\222\223\037\006\305}!\211\015\223\033(4\375~\336\324"
  93      C57D2189 
  93      0D931B28 
  93      34FD7EDE 
  93      D4
  94 0153 68579A0C 		.ascii	"hW\232\014\236-\255\254\331\032l\006\307i4\266\326\355"
  94      9E2DADAC 
  94      D91A6C06 
  94      C76934B6 
  94      D6ED
  95 0165 5C4F9D53 		.ascii	"\\O\235Sj\230c\347e\250{\363\335\347\326P\005\267\362"
  95      6A9863E7 
  95      65A87BF3 
  95      DDE7D650 
  95      05B7F2
  96 0178 2A885BA8 		.ascii	"*\210[\250!\207G\232Zo.-\265e*\311\012\261\200\012\\"
  96      2187479A 
  96      5A6F2E2D 
  96      B5652AC9 
  96      0AB1800A 
  97 018d 19F4188B 		.ascii	"\031\364\030\213HQ\033\305u\367\324?\252\031,\355\361"
  97      48511BC5 
  97      75F7D43F 
  97      AA192CED 
ARM GAS  /tmp/ccw31awu.s 			page 7


  97      F1
  98 019e C0175F18 		.ascii	"\300\027_\030\364\362\250\374\216\242w\351\215\324\340"
  98      F4F2A8FC 
  98      8EA277E9 
  98      8DD4E0
  99 01ad 834AECBE 		.ascii	"\203J\354\276\320\016=A\216\230\251$\035\342\243lw["
  99      D00E3D41 
  99      8E98A924 
  99      1DE2A36C 
  99      775B
 100 01bf 73C151FE 		.ascii	"s\301Q\376Cx\375\200\360\232\356\206:\2565=\335'\377"
 100      4378FD80 
 100      F09AEE86 
 100      3AAE353D 
 100      DD27FF
 101 01d2 19520385 		.ascii	"\031R\003\205\2760\007\346\271\2633\277*\227\021\236"
 101      BE3007E6 
 101      B9B333BF 
 101      2A97119E 
 102 01e2 C7612493 		.ascii	"\307a$\223\324[\2533N\3506\360\234\023:\020{\315`P\220"
 102      D45BAB33 
 102      4EE836F0 
 102      9C133A10 
 102      7BCD6050 
 103 01f7 6F115F4F 		.ascii	"o\021_O\335\251a\012\303\320\316\254\271\261\220\011"
 103      DDA9610A 
 103      C3D0CEAC 
 103      B9B19009 
 104 0207 FB6F9C84 		.ascii	"\373o\234\204\201\027\2413?\230\221\373'\252\222\211"
 104      8117A133 
 104      3F9891FB 
 104      27AA9289 
 105 0217 CC6B1166 		.ascii	"\314k\021f\262u\3137\271\345WO\004F\351\321ek\334(_"
 105      B275CB37 
 105      B9E5574F 
 105      0446E9D1 
 105      656BDC28 
 106 022c 8A238944 		.ascii	"\212#\211D2|\262S\323\331d&\233\234N\237\315LN\355-"
 106      327CB253 
 106      D3D96426 
 106      9B9C4E9F 
 106      CD4C4EED 
 107 0241 27F43C91 		.ascii	"'\364<\221I\247\263\211I\302\231\277\006\371\013\002"
 107      49A7B389 
 107      49C299BF 
 107      06F90B02 
 108              		.text
 109              		.section	.gnu.lto_test_wait_tick.6ead6df1db504aa8,"",%progbits
 110 0000 789C8D54 		.ascii	"x\234\215T]LSg\030\376\336s\016=\245\235\013\327\216"
 110      5D4C5367 
 110      18FEDE73 
 110      0E3DA59D 
 110      0BD78E
 111 0013 CC72D10B 		.ascii	"\314r\321\013\023\307\347\317\205\311\356\014K6\022"
 111      13C7E7CF 
 111      85C9EE0C 
 111      4B3612
ARM GAS  /tmp/ccw31awu.s 			page 8


 112 0022 9B197017 		.ascii	"\233\031p\027^5\356\330\255M\250\307\234S\211^\361\025"
 112      5E35EED8 
 112      AD4DA8C7 
 112      9C53895E 
 112      F115
 113 0034 38EAB28B 		.ascii	"8\352\262\213\251\231h\204\255F\242\240\033h;Q\321\201"
 113      A9996884 
 113      AD46A2A0 
 113      1B683B51 
 113      D181
 114 0046 15451C58 		.ascii	"\025E\034X\215\250W\\\310O\234s3\006\225mL#\365}?)\201"
 114      8DA8575C 
 114      C84F9C73 
 114      3306956D 
 114      4C23F57D 
 115 005d 56E29A36 		.ascii	"V\342\2326\347\373\372<\357\317\363\276O\216\306\200"
 115      E7FBFA3C 
 115      EFCFF3BE 
 115      4F8EC680 
 116 006d D1A74F63 		.ascii	"\321\247Oc\354+<~\200gP\031({o2\026w+\000t\020n`u\012"
 116      EC2B3C7E 
 116      80675019 
 116      287B6F32 
 116      16772B00 
 117 0087 D4C1DFCA 		.ascii	"\324\301\337\312+\005n7\236nQ\247\024\007i\032^\237"
 117      2B056E37 
 117      9E6E51A7 
 117      1407691A 
 117      5E9F
 118 0099 660E4FBC 		.ascii	"f\016O\274OW\000\037^\233\305\3607\372\3626!\352\305"
 118      4F57001F 
 118      5E9BC5F0 
 118      37FAF236 
 118      21EAC5
 119 00ac A8737CD3 		.ascii	"\250s|\323\276\006\3473GUXVa\320\016\245\320\006\245"
 119      BE06E733 
 119      47555856 
 119      61D00EA5 
 119      D006A5
 120 00bf 54E2042C 		.ascii	"T\342\004,gH\036O\316\034X\342j\024\370\361\021\005"
 120      67481E4F 
 120      CE1C58E2 
 120      6A14F8F1 
 120      1105
 121 00d1 9193E0A2 		.ascii	"\221\223\340\242\226NU\245E6\333 \304\276U-~\227\306"
 121      964E55A5 
 121      4536DB20 
 121      C4BE552D 
 121      7E97C6
 122 00e4 28079BC4 		.ascii	"(\007\233\304\037\365\363TQ\350\251\376\001\215\351"
 122      1FF5F354 
 122      51E8A9FE 
 122      018DE9
 123 00f3 AE41A018 		.ascii	"\256A\240\030\312\326\335\375xD\257{%\366\010Q\342\250"
 123      CAD6DDFD 
 123      7844AF7B 
 123      25F60851 
ARM GAS  /tmp/ccw31awu.s 			page 9


 123      E2A8
 124 0105 6A56C144 		.ascii	"jV\301D\360\023\324\021\326\265\373F\322C]j\000\360"
 124      F013D411 
 124      D6B5FB46 
 124      D2435D6A 
 124      00F0
 125 0117 33943A6A 		.ascii	"3\224:j\021\033\207\372\022\302\216\015\016_\362\252"
 125      111B87FA 
 125      12C28E0D 
 125      0E5FF2AA 
 126 0127 1CE83C75 		.ascii	"\034\350<u(\331^\354o\225\355\337\177\024\270|l\227"
 126      28D95EEC 
 126      6F95EDDF 
 126      7F14B87C 
 126      6C97
 127 0139 D81B773B 		.ascii	"\330\033w;\252\013:@](\002\223w\202\037cv?\022=\032"
 127      AA0B3A40 
 127      5D280293 
 127      77821F63 
 127      763F123D 
 128 014e E576810F 		.ascii	"\345v\201\017N!\366\020\352\307\233\007\236\254]\250"
 128      4E21F610 
 128      EAC79B07 
 128      9EAC5DA8 
 129 015e 303D9439 		.ascii	"0=\2249\012 \025fQ\000\025\276?=\346U\217\200\254<p"
 129      0A201566 
 129      510015BE 
 129      3F3DE655 
 129      8F80AC3C 
 130 0173 67577CC9 		.ascii	"gW|\311l\345\344\320\247\303\255\263\225\025H\026V\316"
 130      6CE5E4D0 
 130      A7C3ADB3 
 130      95154816 
 130      56CE
 131 0185 9B1DA4C0 		.ascii	"\233\035\244\300\317\3404\216!\017\021\017\277\3075"
 131      CFE0348E 
 131      210F110F 
 131      BFC735
 132 0194 FD4215D5 		.ascii	"\375B\025\325<(\335\3232\004E\014\316\020\250\025\200"
 132      3C28DDD3 
 132      3204450C 
 132      CE10A815 
 132      80
 133 01a5 775A7050 		.ascii	"wZpP\235\224\266\213\010E\005\353\202\263T\016\316\321"
 133      9D94B68B 
 133      084505EB 
 133      82B3540E 
 133      CED1
 134 01b7 BE002523 		.ascii	"\276\000%#~4\221\232\366\224MCB\034\3629\252N!\035\023"
 134      7E34919A 
 134      F6944D43 
 134      421CF239 
 134      AA4E211D 
 135 01cc 17855BC3 		.ascii	"\027\205[\303\275\301y(\223\335M>\276;\242\340?\320"
 135      BDC17928 
 135      93DD4D3E 
 135      BE3BA2E0 
ARM GAS  /tmp/ccw31awu.s 			page 10


 135      3FD0
 136 01de 0D9A9C16 		.ascii	"\015\232\234\026\203\013\322H\355\275W\036\274W\366"
 136      830BD248 
 136      EDBD571E 
 136      BC57F6
 137 01ed 7236DA4D 		.ascii	"r6\332M\334g\235\251{^\031}\221\242\341W\320pk\212\034"
 137      DC679DA9 
 137      7B5E197D 
 137      91A2E157 
 137      D0706B8A 
 138 0202 3C63BF43 		.ascii	"<c\277C\337\205\377\372\317\334\013\347\365>\321t\030"
 138      DF85FFFA 
 138      CFDC0BE7 
 138      F53ED174 
 138      18
 139 0213 5239D9AE 		.ascii	"R9\331\256\374\211L|\267\224A\017Az\201\350\266\021"
 139      FC894C7C 
 139      B794410F 
 139      417A81E8 
 139      B611
 140 0225 5A502F81 		.ascii	"ZP/\201\356B\301\227\244\3404\270\032T\352\267\311\351"
 140      EE42C197 
 140      A4E034B8 
 140      1A54EAB7 
 140      C9E9
 141 0237 BBA5D3DA 		.ascii	"\273\245\323\332\213\345\376nv\374;\351ys%>1Z;\377\031"
 141      8BE5FE6E 
 141      76FC3BE9 
 141      7973253E 
 141      315A3BFF 
 142 024c 7027E087 		.ascii	"p'\340\207\270\220\216\364@\037\256\3602IF\360df\352"
 142      B8908EF4 
 142      401FAEF0 
 142      324946F0 
 142      6466EA
 143 025f B9CE3B44 		.ascii	"\271\316;Dc\\\214\036\034\376b\177\261\243z\341\012"
 143      635C8C1E 
 143      1CFE627F 
 143      B1A37AE1 
 143      0A
 144 0270 246086F4 		.ascii	"$`\206\364R-\270\012\234L:\232\3746\223RI\216\334\363"
 144      522DB80A 
 144      9C4C3A9A 
 144      FC369352 
 144      498EDCF3 
 145 0284 9C6F1778 		.ascii	"\234o\027x\365\304\347\357\360j\277\364\352\\\323\264"
 145      F5C4E7EF 
 145      F06ABFF4 
 145      EA5CD3B4 
 146 0294 B56B8B7B 		.ascii	"\265k\213{u\254\251\231\346,GX\\8\212\201B\253\241\237"
 146      75ACA999 
 146      E62C4758 
 146      5C388A81 
 146      42ABA19F 
 147 02a8 5E909FAE 		.ascii	"^\220\237\256S\210\247\000\374\353G\364S?\371\351\267"
 147      5388A700 
 147      FCEB47F4 
ARM GAS  /tmp/ccw31awu.s 			page 11


 147      533FF9E9 
 147      B7
 148 02b9 45FC3428 		.ascii	"E\3744(\307;4\317O3\211\261^o\316*\327\244UnH\253\344"
 148      C73B34CF 
 148      4F3389B1 
 148      5E6FCE2A 
 148      D7A4556E 
 149 02d0 FB2293F3 		.ascii	"\373\"\223\363\005\025`\177\342\310\036\034\277-\337"
 149      0515607F 
 149      E2C81E1C 
 149      BF2DDF
 150 02df 0BB82A52 		.ascii	"\013\270*R?\211\357\002|c`\304\212\362r\376\346\033"
 150      3F89EF02 
 150      7C6360C4 
 150      8AF272FE 
 150      E61B
 151 02f1 0BD9316E 		.ascii	"\013\3311n\305\270mn\267\214P\356\032\244g\3202\315"
 151      C5B86D6E 
 151      B78C50EE 
 151      1AA467D0 
 151      32CD
 152 0303 58B9C1F4 		.ascii	"X\271\301\364/7\333\241\015V\344\243\271 \323\346\206"
 152      2F37DBA1 
 152      0D56E4A3 
 152      B920D3E6 
 152      86
 153 0314 198D9A5B 		.ascii	"\031\215\232[\3716\323\212\331|]U\240\"\260\203\033"
 153      F936D38A 
 153      D97C5D55 
 153      A022B083 
 153      1B
 154 0325 61C3B442 		.ascii	"a\303\264B\301\332\265\321\3620\373\370-\354\320\216"
 154      C1DAB5D1 
 154      F230FBF8 
 154      2DECD08E 
 155 0335 18717945 		.ascii	"\030qyE\240\272\262\232W \231Wn5j\266o\011q#jG\354\340"
 155      A0BAB29A 
 155      57209957 
 155      6E356AB6 
 155      6F097123 
 156 034d D78681A1 		.ascii	"\327\206\201\241\272\275\323\216E\242\241\017\347\247"
 156      BABDD38E 
 156      45A2A10F 
 156      E7A7
 157 035b C01E2339 		.ascii	"\300\036#9n\2706\206\264e\213\302\030\217xI\240\272"
 157      6EB83686 
 157      B4658BC2 
 157      188F7849 
 157      A0BA
 158 036d CA47BD6F 		.ascii	"\312G\275o\263\"+|\376\225L\261\230\036\015EMk'[3?6"
 158      B3222B7C 
 158      FE954CB1 
 158      981E0D45 
 158      4D6B275B 
 159 0384 BCB96656 		.ascii	"\274\271fVH\365\306\300\232\325|\375\372O\370\306\312"
 159      48F5C6C0 
 159      9AD57CFD 
ARM GAS  /tmp/ccw31awu.s 			page 12


 159      FA4FF8C6 
 159      CA
 160 0395 40ED2A42 		.ascii	"@\355*B\2028\210\232\232-\230\217\377O\375\324\272\205"
 160      8238889A 
 160      9A2D988F 
 160      FF4FFDD4 
 160      BA85
 161 03a7 FCD75E24 		.ascii	"\374\327^$\034\302"
 161      1CC2
 162              		.text
 163              		.section	.gnu.lto_wa.6ead6df1db504aa8,"",%progbits
 164 0000 789C6361 		.ascii	"x\234ca`d\000\201\245@J\217\001\002\37621~x\373k/\323"
 164      60640081 
 164      A5404A8F 
 164      0102FE32 
 164      317E78FB 
 165 0017 17A65666 		.ascii	"\027\246Vf\006\306\005\\@\376\316\235on\263\327\377"
 165      06C6055C 
 165      40FECE9D 
 165      6F6EB3D7 
 165      FF
 166 0028 6DE86868 		.ascii	"m\350hhx\360\364[\000s+3c'3D\351\206\331;\3170z\034"
 166      78F0F45B 
 166      00732B33 
 166      63273344 
 166      E986D93B 
 167 0040 034935CC 		.ascii	"\003I5\314elefb\\\301X\317\270\234Q\006,{\261e\303\034"
 167      656C6566 
 167      625CC158 
 167      CFB89C51 
 167      062C7BB1 
 168 0057 669041CC 		.ascii	"f\220A\314\214,@\356\335\277\233\236\260A\314\275\301"
 168      8C2C40EE 
 168      DDBF9B9E 
 168      B041CCBD 
 168      C1
 169 0068 8E6AEE81 		.ascii	"\216j\356\201\255\355\262H\306\236x~\346\015\013\212"
 169      ADEDB248 
 169      C69E787E 
 169      E60D0B8A 
 170 0078 B16B80C6 		.ascii	"\261k\200\306\256\206\032{\350\323\206\345<\020c\231"
 170      AE861A7B 
 170      E8D386E5 
 170      3C106399 
 171 0088 81DC951F 		.ascii	"\201\334\225\03777sC\214\235\300\212f\354f\024c\217"
 171      37377343 
 171      8C9DC08A 
 171      66EC6614 
 171      638F
 172 009a 7F9F7A86 		.ascii	"\177\237z\206\015\305\330\015@c\327C\215=\372\377\373"
 172      0DC5D80D 
 172      4063D743 
 172      8D3DFAFF 
 172      FB
 173 00ab 017E88B1 		.ascii	"\001~\210\261L@\356\374\011\273Zx!\306\236`B3v#\212"
 173      4C40EEFC 
 173      09BB5A78 
ARM GAS  /tmp/ccw31awu.s 			page 13


 173      21C69E60 
 173      42337623 
 174 00c0 B18FDB9E 		.ascii	"\261\217\333\236\374cG1v\013\320\330\315Pc\221\365\315"
 174      FC634731 
 174      760BD0D8 
 174      CD506391 
 174      F5CD
 175 00d2 47D137E1 		.ascii	"G\3217\341Oc#\237\305\266\206\216\005\015\001\255\314"
 175      4F63239F 
 175      C5B6868E 
 175      050D01AD 
 175      CC
 176 00e3 2C8C8632 		.ascii	",\214\2062\214\333\200\032\215d\030\2672z0nb\224a\334"
 176      8CDB801A 
 176      8D6418B7 
 176      327A306E 
 176      629461DC 
 177 00f7 08A4D701 		.ascii	"\010\244\327\001\351\265@z\025\220^\311\350\301\300"
 177      E9B5407A 
 177      15905EC9 
 177      E8C1C0
 178 0106 B89DD182 		.ascii	"\270\235\321\202AGOO\037\202JR\213K\364\213J\364\213"
 178      41474F4F 
 178      1F824A52 
 178      8B4BF48B 
 178      4AF48B
 179 0119 F34B8B92 		.ascii	"\363K\213\222Sa\334x\020\035_\224\237_\242\227\314\000"
 179      5361DC78 
 179      101D5F94 
 179      9F5FA297 
 179      CC00
 180 012b 00BCB5AD 		.ascii	"\000\274\265\255\355"
 180      ED
 181              		.text
 182              		.section	.gnu.lto_rt_test_suite.6ead6df1db504aa8,"",%progbits
 183 0000 789C6361 		.ascii	"x\234ca`d\000\201l ve\200\200\277L\214\315\277\366\177"
 183      60640081 
 183      6C207665 
 183      8080BF4C 
 183      8CCDBFF6 
 184 0015 E6ABFFDB 		.ascii	"\346\253\377\3330\243\241\341\301\323W\022\255\314\014"
 184      30A3A1E1 
 184      C1D35712 
 184      ADCC0C
 185 0024 9DCC1099 		.ascii	"\235\314\020\231E;N\255fT\324\237\3370C\241\225\231"
 185      453B4EAD 
 185      6654D49F 
 185      DF3043A1 
 185      9599
 186 0036 1124B27C 		.ascii	"\021$\262|\377\241\177l\020\265\007\256\260\265231\256"
 186      FFA17F6C 
 186      10B507AE 
 186      B0B53233 
 186      31AE
 187 0048 605404AB 		.ascii	"`T\004\253=\364\255\367\016\233\305\266\206\216\005"
 187      3DF4ADF7 
 187      0E9BC5B6 
ARM GAS  /tmp/ccw31awu.s 			page 14


 187      868E05
 188 0057 0D40C5CC 		.ascii	"\015@\305\314\377\230\030\030W2\326\377cbd\\\316X\317"
 188      FF981818 
 188      5732D6FF 
 188      6362645C 
 188      CE58CF
 189 006a C0B88AD1 		.ascii	"\300\270\212\321\202AGOO\037\202JR\213K\364\213J\364"
 189      8241474F 
 189      4F1F824A 
 189      528B4BF4 
 189      8B4AF4
 190 007d 8BF34B8B 		.ascii	"\213\363K\213\222Sa\334x\020\035_\224\237_\242\227\314"
 190      925361DC 
 190      78101D5F 
 190      949F5FA2 
 190      97CC
 191 008f 20E69C91 		.ascii	" \346\234\221\231\224\351\037\254\037\024\242\020\002"
 191      9994E91F 
 191      AC1F14A2 
 191      1002
 192 009d 1457082E 		.ascii	"\024W\010.\315,Ie\000\000~\265A?"
 192      CD2C4965 
 192      00007EB5 
 192      413F
 193              		.text
 194              		.section	.gnu.lto_rt_test_suite_array.6ead6df1db504aa8,"",%progbits
 195 0000 789C65D0 		.ascii	"x\234e\320\261J\303P\024\200\341{r\323\304\212\324U"
 195      B14AC350 
 195      1480E17B 
 195      72D3C48A 
 195      D455
 196 0012 248F2009 		.ascii	"$\217 \011\352\322\267\351P:\007\32287\240\001u\026"
 196      EAD2B7E9 
 196      503A07D2 
 196      3837A001 
 196      7516
 197 0024 11717050 		.ascii	"\021qpP\252\326j\254\232j\026K\241\203\223\372\002\342"
 197      AAD66AAC 
 197      9A6A164B 
 197      A18393FA 
 197      02E2
 198 0036 208E526A 		.ascii	" \216Rj\240E\215\365\344\236\010z\015\201\237\303\371"
 198      A0458DF5 
 198      E49E087A 
 198      0D819FC3 
 198      F9
 199 0047 7213A232 		.ascii	"r\023\2422`\351\365\2121\031]\211\002\233~\367N\217"
 199      60E9F58A 
 199      31195D89 
 199      029B7EF7 
 199      4E8F
 200 0059 159FE31A 		.ascii	"\025\237\343\032\307\244\177\237L\245#\300$\216\313"
 200      C7A47F9F 
 200      4CA523C0 
 200      248ECB
 201 0068 EF376F85 		.ascii	"\3577o\205Z\342my\336S\357e\006\325\032\247\347\032"
 201      5AE26D79 
ARM GAS  /tmp/ccw31awu.s 			page 15


 201      DE53EF65 
 201      06D51AA7 
 201      E71A
 202 007a E17E0404 		.ascii	"\341~\004\004\363\177a'\320\204\003\341~/\266i\241\210"
 202      F37F6127 
 202      D08403E1 
 202      7E2FB669 
 202      A188
 203 008c 45BCEE0F 		.ascii	"E\274\356\0179\035\240Kn\203\034\027\356\371\243\031"
 203      391DA04B 
 203      6E831C17 
 203      EEF9A319 
 204 009c 15C86992 		.ascii	"\025\310i\222\373\002\341T\341n\367\242\317\354\313"
 204      FB02E154 
 204      E16EF7A2 
 204      CFECCB
 205 00ab 73921B91 		.ascii	"s\222\033\221\313\011\367\260\022\354d\357U%\027\223"
 205      CB09F7B0 
 205      12EC64EF 
 205      55251793 
 206 00bb D384EB0E 		.ascii	"\323\204\353\016\202zv\036\227\334\200\234.\\o<\354"
 206      827A761E 
 206      97DC809C 
 206      2E5C6F3C 
 206      EC
 207 00cc 4C935324 		.ascii	"L\223S$\327'7\361\357G<\322\"/\026\243\326x\266\030"
 207      D72737F1 
 207      EF473CD2 
 207      222F16A3 
 207      D678B618 
 208 00e0 7AABBB5E 		.ascii	"z\253\273^\300}\256\300\274\001\327P\203\005\003\256"
 208      C07DAEC0 
 208      BC01D750 
 208      830503AE 
 209 00f0 306D3020 		.ascii	"0m0 \304^b/\260\347\330\026\366\014\033`O\261'\330&"
 209      C45E622F 
 209      B0E7D816 
 209      F60C1B60 
 209      4FB127D8 
 210 0105 F618BB68 		.ascii	"\366\030\273h@\003s\204\343!\366\000[\007\203A\004E"
 210      40037384 
 210      E321F600 
 210      5B078341 
 210      0445
 211 0117 36679A16 		.ascii	"6g\232\026\335n\245\352Z\216kU\355%\247\\\371\031Ki"
 211      DD6EA5EA 
 211      5A8E6B55 
 211      ED25A75C 
 211      F9194B69 
 212 012b 4B8E6DBB 		.ascii	"K\216m\273f\231}\003\202s\312I"
 212      66997D03 
 212      8273CA49 
 213              		.text
 214              		.section	.gnu.lto_.symbol_nodes.6ead6df1db504aa8,"",%progbits
 215 0000 789C55CE 		.ascii	"x\234U\316\273\015\0021\020\004\320\361\330>\376\004"
 215      BB0D0231 
 215      1004D0F1 
ARM GAS  /tmp/ccw31awu.s 			page 16


 215      D83EFE04 
 216 0010 070540A5 		.ascii	"\007\005@\2456\022\005P\004\011-\320\000p\300\361\377"
 216      36120550 
 216      04092DD0 
 216      0070C0F1 
 216      FF
 217 0021 27544188 		.ascii	"'TA\2108\257\023,\255\364F\263\033\254\201B\030pC\007"
 217      38AF132C 
 217      ADF446B3 
 217      1BAC8142 
 217      18704307 
 218 0035 4C4AA062 		.ascii	"LJ\240b\356\207\200-\210Q\036V[:\225\254X\3221=^S\311"
 218      EE87802D 
 218      88511E56 
 218      5B3A95AC 
 218      58D2313D 
 219 004c B15D9131 		.ascii	"\261]\2211,\251cX\320\304\260\243\035\004\367\314\304"
 219      2CA96358 
 219      D0C4B0A3 
 219      1D04F7CC 
 219      C4
 220 005d 036BE291 		.ascii	"\003k\342\221u\361\304\206xfS\274\260%^\331\026o\354"
 220      75F1C486 
 220      786653BC 
 220      B0255ED9 
 220      166FEC
 221 0070 88777683 		.ascii	"\210wv\203\352A\247\345\013\300\373\252QO:\223\024/"
 221      EA41A7E5 
 221      0BC0FBAA 
 221      514F3A93 
 221      142F
 222 0082 3AFB5F68 		.ascii	":\373_h\344\030\317>\231f/\252\373\230\276\277\012?"
 222      E418CF3E 
 222      99662FAA 
 222      FB98BEBF 
 222      0A3F
 223 0094 655B3179 		.ascii	"e[1y"
 224              		.text
 225              		.section	.gnu.lto_.refs.6ead6df1db504aa8,"",%progbits
 226 0000 789C35C4 		.ascii	"x\2345\304\333\015\200 \024D\301\335\023\256 *\217^"
 226      DB0D8020 
 226      1444C1DD 
 226      13AE202A 
 226      8F5E
 227 0012 E8BF36F8 		.ascii	"\350\2776\3701\223L\222\265\244\263\014\234\354\210"
 227      31934C92 
 227      B5A4B30C 
 227      9CEC88
 228 0021 44FC7C91 		.ascii	"D\374|\221k\246pSyx\371ht\006S\033\036b\001*"
 228      6BA67053 
 228      7978F968 
 228      7406531B 
 228      1E62012A 
 229              		.text
 230              		.section	.gnu.lto_.decls.6ead6df1db504aa8,"",%progbits
 231 0000 789CB55B 		.ascii	"x\234\265[yTTW\232\257\373n\261oiu2\371\303\231\316"
 231      79545457 
ARM GAS  /tmp/ccw31awu.s 			page 17


 231      9AAFFB6E 
 231      B16F6975 
 231      32F9C399 
 232 0015 C9D027CC 		.ascii	"\311\320'\3149\255\270e\351>}\346tB2\351\344\304\356"
 232      39ADB865 
 232      E93E7DE6 
 232      744232E9 
 232      E4C4EE
 233 0028 0C9A9EEE 		.ascii	"\014\232\236\356\236?h\304\212\322aKQF=g\316t\261\010"
 233      9E3F68C4 
 233      8AD2614B 
 233      51463D67 
 233      CE74B108 
 234 003c 821B3BB2 		.ascii	"\202\033;\262\243\" \213l\212\010\"%*\213\262o\212\254"
 234      A322208B 
 234      6C8A0822 
 234      252A8BB2 
 234      6F8AAC
 235 004f 02821B8A 		.ascii	"\002\202\033\212\240\354\302|w\251z\257\212*\243\177"
 235      A0ECC27C 
 235      77A97AAF 
 235      8A2AA37F 
 236 005f 74251FF5 		.ascii	"t%\037\365\276\367\276\373\373\226\373\335\357.\257"
 236      BEF7BEFB 
 236      FB96FBDD 
 236      EF2EAF
 237 006e 94CB908C 		.ascii	"\224\313\220\214|Z?\222\311B\254e\262\235\202L\266\014"
 237      7C5A3F92 
 237      C942AC65 
 237      B29D824C 
 237      B60C
 238 0080 1F0BB8F7 		.ascii	"\037\013\270\367G \362\364\234\214}\314\201\312\200"
 238      4720F2F4 
 238      9C8C7DCC 
 238      81CA80
 239 008f CA813440 		.ascii	"\312\2014@G\341a\024P\034\220\003\360\311\360}\002("
 239      47E16114 
 239      501C9003 
 239      F0C9F07D 
 239      0228
 240 00a1 0FA803A8 		.ascii	"\017\250\003\250\027\250\037h\020h\010h\004h\024\350"
 240      17A81F68 
 240      10680868 
 240      046814E8 
 241 00b1 3ED043A0 		.ascii	">\320C\240\307@O\200&\220L\357CtXq\375\253\200\326\000"
 241      C7404F80 
 241      26904CEF 
 241      43745871 
 241      FDAB80D6 
 242 00c6 FD01E87F 		.ascii	"\375\001\350\177@\356\031P\022\320$\320\021\336N\340"
 242      40EE1950 
 242      12D024D0 
 242      11DE4EE0 
 243 00d6 6D883D88 		.ascii	"m\210=\210\333!\375\224\277\006\336\024P\244\004\217"
 243      DB21FD94 
 243      BF06DE14 
 243      50A4048F 
ARM GAS  /tmp/ccw31awu.s 			page 18


 244 00e6 B4893281 		.ascii	"\264\2112\201G|\267\225`U\002=G,N\261\360]\004\3373"
 244      477CB795 
 244      6055023D 
 244      472C4EB1 
 244      F05D04DF 
 245 00fb F0BD08F4 		.ascii	"\360\275\010\364!\200m\021\030(\201q\206o\033\216A\342"
 245      21806D11 
 245      18288171 
 245      866F1B8E 
 245      41E2
 246 010d F631F0BF 		.ascii	"\3661\360\277\006\372\015\320\247@\237\001\375'\320"
 246      06FA0DD0 
 246      A7409F01 
 246      FD27D0
 247 011c EF80BE02 		.ascii	"\357\200\276\002\372Z\220\255\370\220\030\233q\375["
 247      FA5A90AD 
 247      F890189B 
 247      71FD5B
 248 012b E1F9B7DC 		.ascii	"\341\371\267\334\216t\211\235\3442\317\300n\322'r\370"
 248      8E74899D 
 248      E432CFC0 
 248      6ED22772 
 248      F8
 249 013c FE3DB4D9 		.ascii	"\376=\264\331\006\264\035\250\0351\177\233\340\273\001"
 249      06B41DA8 
 249      1D317F9B 
 249      E0BB01
 250 014b 896D7B0D 		.ascii	"\211m{\015\332\022\036\303w=b\272z$\317!mh\037>\341"
 250      DA121EC3 
 250      773D62BA 
 250      7A24CF21 
 250      6D681F3E 
 251 0160 7DFA90F7 		.ascii	"}\372\220\367\361(\357\363!\236\003\375\006\230/\005"
 251      F128EFF3 
 251      219E03FD 
 251      06982F05 
 252 0170 D4577726 		.ascii	"\324Ww&\027?\027\320\373\326\210d\235\003\334*x|q\316"
 252      173F17D0 
 252      FBD68864 
 252      9D03DC2A 
 252      787C71CE 
 253 0184 8EDD2212 		.ascii	"\216\335\"\022\003s\331\377\271>O\015\237\010\265Z\020"
 253      0373D9FF 
 253      B93E4F0D 
 253      9F08B55A 
 253      10
 254 0195 C4A66DC7 		.ascii	"\304\246m\307&3,\260\015\025j\015.L&0\253\254\221\034"
 254      26332CB0 
 254      0D156A0D 
 254      2E4C2630 
 254      ABAC911C 
 255 01a9 D8678D89 		.ascii	"\330g\215\211\303\366\300\256\261F\357\276\024\204\232"
 255      C3F6C0AE 
 255      B146EFBE 
 255      14849A
 256 01b8 2325C536 		.ascii	"#%\3056\310\311:\223\240\014\366e\330^T\253\337Bg\221"
 256      C8C93A93 
ARM GAS  /tmp/ccw31awu.s 			page 19


 256      A00CF665 
 256      D85E54AB 
 256      DF426791 
 257 01cc 35CA4118 		.ascii	"5\312A\030\235A\353\211\317\357\023/\016\252\325\201"
 257      9D41EB89 
 257      CFEF132F 
 257      0EAAD581 
 258 01dc EA8820F5 		.ascii	"\352\210 \365\252:{\031\312CkQ.Z+C\371\310\211XC\004"
 258      AA3A7B19 
 258      CA436B51 
 258      2E5A2B43 
 258      F9C88958 
 259 01f2 5136DCCC 		.ascii	"Q6\334\314\202\233\240\345LF\344Is\034\214\210\005B"
 259      829BA0E5 
 259      4C46E449 
 259      731C8C88 
 259      0542
 260 0204 C2B99C19 		.ascii	"\302\271\234\031k\235\216\212\360-yDG\021\350(\020u"
 260      6B9D8E8A 
 260      F02D7944 
 260      4711E828 
 260      1075
 261 0216 804A934A 		.ascii	"\200J\223J\012\215+\231\256\217\317\265\303\023LIF\324"
 261      0A8D2B99 
 261      AE8FCFB5 
 261      C3134C49 
 261      46D4
 262 0228 538DE8C8 		.ascii	"S\215\350\310\313\346\377=q\000b\202\316\201\226bQK"
 262      CBE6FF3D 
 262      71006282 
 262      CE819662 
 262      514B
 263 023a D12BB494 		.ascii	"\321+\264\224\030\321B\332\203\246\312\366\205&y\017"
 263      18D142DA 
 263      83A6CAF6 
 263      8526790F 
 264 024a EA462453 		.ascii	"\352F$S\337b\211\200\330_DI\306\210\262p!\310\370\360"
 264      DF628980 
 264      D85F4449 
 264      C688B270 
 264      21C8F8F0 
 265 025e D0DE425A 		.ascii	"\320\336BZA\316\013\332K\231\016\214\376\317\333\323"
 265      41CE0BDA 
 265      4B990E8C 
 265      FECFDBD3 
 266 026e 32433F14 		.ascii	"2C?\024DDG\274\021\343\265)\2118/\210\012\020c\265\015"
 266      444447BC 
 266      11E3B529 
 266      89382F88 
 266      0A1063B5 
 267 0283 2478CC5C 		.ascii	"$x\314\\\016'\332\254\363\011i\223(t\374E\2619N\023"
 267      0E27DAAC 
 267      F3096993 
 267      2874FC45 
 267      B1394E13 
 268 0297 6816BDAC 		.ascii	"h\026\275\254OJ\024\336\211\243\271\026\244~W\216\376"
 268      4F4A14DE 
ARM GAS  /tmp/ccw31awu.s 			page 20


 268      89A3B916 
 268      A47E578E 
 268      FE
 269 02a8 F8B62E72 		.ascii	"\370\266.r2t\001\275\003\177w\310Y\303\213c\247\276"
 269      327401BD 
 269      037F77C8 
 269      59C38B63 
 269      A7BE
 270 02ba 7B2F5D9D 		.ascii	"{/]\235^\010\011\025\255\272[\254V\207A39\221B\245b"
 270      5E080915 
 270      ADBA5BAC 
 270      56874133 
 270      399142A5 
 271 02cf 5FC025F9 		.ascii	"_\300%\371:\217`\274\2402\364\036\264\314-\033\355\260"
 271      3A8F60BC 
 271      A032F41E 
 271      B4CC2D1B 
 271      EDB0
 272 02e1 C3C34CE5 		.ascii	"\303\303L\345\301\342C\265f\014G3]k\253\216\010P\253"
 272      C1E243B5 
 272      660C4733 
 272      5D6BAB8E 
 272      0850AB
 273 02f4 7F4B412E 		.ascii	"\177KA.\212 \027\245 \345\024\344X\237z\336\034\277"
 273      8A2017A5 
 273      20E514E4 
 273      589F7ADE 
 273      1CBF
 274 0306 6020C7CE 		.ascii	"` \307\316\367,:\340`Lsdyz\364\2745\262v2\336\377\227"
 274      F72C3AE0 
 274      604C7364 
 274      797AF4BC 
 274      35B27632 
 275 031d 8DF4BF36 		.ascii	"\215\364\2776\233|X6UB6]2\314&\320rm\271\251\323B\032"
 275      9B7C5836 
 275      5542365D 
 275      32CC26D0 
 275      726DB9A9 
 276 0334 1D222886 		.ascii	"\035\"(\206\247J/<K\223Av\272\360|]|*\204yF\305P\205"
 276      A74A2F3C 
 276      4B934176 
 276      BAF07C5D 
 276      7C2A8479 
 277 034c 885E2175 		.ascii	"\210^!uMC]\273\375\374\371m[|\224z\203.<\311\275`\307"
 277      4D435DBB 
 277      FDFCF96D 
 277      5B7C947A 
 277      832E3CC9 
 278 0363 06B686F0 		.ascii	"\006\266\206\360\331\243\311Gm\031\3771\260\035-\375"
 278      D9A3C947 
 278      6D19FF31 
 278      B01D2DFD 
 279 0373 A7314E61 		.ascii	"\2471Na\262\352\230\2054;\234\311\302\220\024_Uif2\014"
 279      B2EA9885 
 279      343B9CC9 
 279      C290145F 
 279      55696632 
ARM GAS  /tmp/ccw31awu.s 			page 21


 280 0388 B526C350 		.ascii	"\265&\303P\231\344\\IFn\0158w\335H\024zK\216\\\265\304"
 280      99E45C49 
 280      466E0D38 
 280      77DD4814 
 280      7A4B8E5C 
 281 039e 634C6362 		.ascii	"cLcb\305\363\033f\314\032K`#z\347.\331\340\247\354Y"
 281      C5F31B66 
 281      CC1A4B60 
 281      237AE72E 
 281      D9E0A7EC 
 282 03b3 EE4CF079 		.ascii	"\356L\360y\007\374\\\337\2155\334\215\371\350\213\347"
 282      07FC5CDF 
 282      8D35DC8D 
 282      F9E88BE7 
 283 03c3 6DF03C7B 		.ascii	"m\360<{xm\270\275\316\014C\356\020&\275\372\356:\034"
 283      786DB8BD 
 283      CE0C43EE 
 283      1026BDFA 
 283      EE3A1C
 284 03d6 C9AECB63 		.ascii	"\311\256\313c/\215[\3428\306\\y\331\235l\2153\031\323"
 284      2F8D5BE2 
 284      38C65C79 
 284      D99D6C8D 
 284      3319D3
 285 03e9 36D19062 		.ascii	"6\321\220b\303\024\277\005l\351h}\2155\203W#\340\027"
 285      C314BF05 
 285      6CE9687D 
 285      8D358357 
 285      23E017
 286 03fc 4F37DFB6 		.ascii	"O7\337\266\304g\231l\305\205K5\334\310\015\300\006\215"
 286      C467996C 
 286      C5854B35 
 286      DCC80DC0 
 286      068D
 287 040e A4DCB5C7 		.ascii	"\244\334\265\307\027\330\263\232c\301\207\255\261\206"
 287      17D8B39A 
 287      63C187AD 
 287      B186
 288 041c 3242F168 		.ascii	"2B\361hR\212\225\266\272h\332\320[P\013\254\321\255"
 288      528A95B6 
 288      BA68DAD0 
 288      5B500BAC 
 288      D1AD
 289 042e D72B2CB7 		.ascii	"\327+,\267\215\227\257\244\251\276\007VL\271\023)\231"
 289      8D97AFA4 
 289      A9BE0756 
 289      4CB91329 
 289      99
 290 043f E553A7CD 		.ascii	"\345S\247\315q\003S>\264\274\3647\334\311\256\303\362"
 290      7103533E 
 290      B4BCF437 
 290      DCC9AEC3 
 290      F2
 291 0450 C26AEC71 		.ascii	"\302j\354q\037cNVU<\266\300\343\214\321\326\362U\264"
 291      1F634E56 
 291      553CB6C0 
 291      E38CD1D6 
ARM GAS  /tmp/ccw31awu.s 			page 22


 291      F255B4
 292 0463 96A3EC87 		.ascii	"\226\243\354\207\003\213\030/\262gw{k\013\355\361\022"
 292      038B182F 
 292      B267777B 
 292      6B0BEDF1 
 292      12
 293 0474 F77326A9 		.ascii	"\367s&\251\302\001\0370\243L\343\360\362\2445>\314\230"
 293      C2011F30 
 293      A34CE3F0 
 293      F2A4353E 
 293      CC98
 294 0486 0B894B1A 		.ascii	"\013\211K\0329\216f\314\201#\371\361$V\346l\306\261"
 294      398E66CC 
 294      8123F9F1 
 294      2456E66C 
 294      C6B1
 295 0498 805B2313 		.ascii	"\200[#\023\363\245rv\213\270\276\017n\245$\364\026\331"
 295      F3A57276 
 295      8BB8BE0F 
 295      6EA524F4 
 295      16D9
 296 04aa E378DA44 		.ascii	"\343x\332D\250\232)\250\261\024\347\217E\227 \265\032"
 296      A89A29A8 
 296      B114E78F 
 296      459720B5 
 296      1A
 297 04bb A107109C 		.ascii	"\241\007\020\234118\346<6\352\225\261\271\017\2611\347"
 297      313138E6 
 297      3C36EA95 
 297      B1B90FB1 
 297      31E7
 298 04cd B119859B 		.ascii	"\261\031\205\233\367Xl&\347&\316\311\361\011\246\243"
 298      F7586C26 
 298      E726CEC9 
 298      F109A6A3 
 299 04dd 32FC71A5 		.ascii	"2\374q\245\225d\376X\237K\262\3601\350x(\352x\200L+"
 299      9564FE58 
 299      9F4BB2F0 
 299      31E87828 
 299      EA78804C 
 300 04f2 79645CC9 		.ascii	"yd\\\311]\365B\202->\303\224T\204\367A\210\351\2400"
 300      5DF54282 
 300      2D3EC394 
 300      5484F741 
 300      88E9A030 
 301 0506 82F0D408 		.ascii	"\202\360\324\010\002\037\024=\037\320A\361\004\314\031"
 301      021F143D 
 301      1FD041F1 
 301      04CC19
 302 0515 17CD79AC 		.ascii	"\027\315y\254\035\024\207b\3073\355q\001\013\360\302"
 302      1D148762 
 302      C733ED71 
 302      010BF0C2 
 303 0525 FD986EC4 		.ascii	"\375\230n\304:\314\026\330\300\212\356H\007\226\233"
 303      3ACC16D8 
 303      C08AEE48 
 303      07969B
ARM GAS  /tmp/ccw31awu.s 			page 23


 304 0534 833475E7 		.ascii	"\2034u\347\017.\311\361%&{\353p{\2179\276\306\254+\016"
 304      0F2EC9F1 
 304      25267BEB 
 304      707B8F39 
 304      BEC6AC2B 
 305 0549 EB4E3033 		.ascii	"\353N03i\335\264)\3534\227!S_\200e\317\215XV\323\234"
 305      69DDB429 
 305      EB349721 
 305      535F8065 
 305      CF8D5856 
 306 055f 3E65896F 		.ascii	">e\211o0m\027#\243`<\2650\246\377\370\241\012\033<\314"
 306      306D1723 
 306      A3603CB5 
 306      30A6FFF8 
 306      A10A1B3C 
 307 0574 98CBC726 		.ascii	"\230\313\307&\313\254\360C\306\204\316\016\025:\340"
 307      CBACF043 
 307      C684CE0E 
 307      153AE0
 308 0583 2933BD91 		.ascii	")3\275\221\266\206\215\264\207A\232\273r<\317\236\025"
 308      B6868DB4 
 308      87419ABB 
 308      723CCF9E 
 308      15
 309 0594 1C183963 		.ascii	"\034\0309c\011\317\326B*!\311\312e-[\271\234\323L\345"
 309      09CFD642 
 309      2A21C9CA 
 309      652D5BB9 
 309      9CD34CE5 
 310 05a8 CBF13273 		.ascii	"\313\3612s\256\265\244\373\272\330\277}\317?\2419\024"
 310      AEB5A4FB 
 310      BAD8BF7D 
 310      CF3FA139 
 310      14
 311 05b9 2840CA09 		.ascii	"(@\312\011:\263\327\352\306\327\304I\265\371;2\264y"
 311      3AB3D7EA 
 311      C6D7C449 
 311      B5F93B32 
 311      B479
 312 05cb 2DDA00BE 		.ascii	"-\332\000\276\007\010N\004\224\372\276\014\276/\361"
 312      07084E04 
 312      94FABE0C 
 312      BE2FF1
 313 05da 05485AF6 		.ascii	"\005HZ\3665;\034fN\025\214\307<:\210%\011\264\226&\320"
 313      353B1C66 
 313      4E158CC7 
 313      3C3A8825 
 313      09B49626 
 314 05ef 01501024 		.ascii	"\001P\020$*\000}\3065\004\033\327\020\030\335\236g\205"
 314      2A007DC6 
 314      35041BD7 
 314      1018DD9E 
 314      6785
 315 0601 23998698 		.ascii	"#\231\206\230\374\374\\q\030T&\255\2479q\0204\204\210"
 315      FCFC5C71 
 315      185426AD 
 315      A7397110 
ARM GAS  /tmp/ccw31awu.s 			page 24


 315      348488
 316 0614 1A0E98D2 		.ascii	"\032\016\230\322\020j\\Cl\342\350;8\201*@\207\016/\025"
 316      106A5C43 
 316      6CE2E83B 
 316      38812A40 
 316      870E2F15 
 317 0628 609CC6B4 		.ascii	"`\234\306\264\315T\236:'V\243s\320\307\207AS\370kh:"
 317      CD549E3A 
 317      2756A373 
 317      D0C78741 
 317      53F86B68 
 318 063d 645C535F 		.ascii	"d\\S_\312\323)9\316b\2522\256\026\264Z\340|\246\352"
 318      CAD32939 
 318      CE62AA32 
 318      AE16B45A 
 318      E07CA6EA 
 319 0651 E5C0F805 		.ascii	"\345\300\370\005{\235\252RP\025\001\252\216\276\206"
 319      7B9DAA52 
 319      501501AA 
 319      8EBE86
 320 0660 AA63C655 		.ascii	"\252c\306U=\011\2767\310\313\363;\244\332\307\034\337"
 320      3D09BE37 
 320      C8CBF33B 
 320      A4DAC71C 
 320      DF
 321 0671 8C4B99E2 		.ascii	"\214K\231\342\361\323M\305\244 :Y\243\277KR\306\211"
 321      F1D34DC5 
 321      A4203A59 
 321      A3BF4B52 
 321      C689
 322 0683 A54C72E4 		.ascii	"\245Lr\344P\274\025\256df\305\236\231=)h\247\260\364"
 322      50BC15AE 
 322      6466C59E 
 322      993D2968 
 322      A7B0F4
 323 0696 20F57B01 		.ascii	" \365{\001E\240\262\001\324\324\223\001\021\017\272"
 323      45A0B201 
 323      D4D49301 
 323      110FBA
 324 06a5 9DB8EE18 		.ascii	"\235\270\356\030a-\212\026\264\303\265\357\261\035]"
 324      612D8A16 
 324      B4C3B5EF 
 324      B11D5D
 325 06b4 E1C68117 		.ascii	"\341\306\201\027\261\242\027N|L\204\006g\037\263\301"
 325      B1A2174E 
 325      7C4C8406 
 325      671FB3C1 
 326 06c4 754C496A 		.ascii	"uLIj\344t\205\265i%\211&\225T\204\377\007]\342&\200"
 326      E47485B5 
 326      69258926 
 326      955484FF 
 326      075DE226 
 327 06d9 92E3A292 		.ascii	"\222\343\242\2228\201k\351/\350\271&\307\255LKui\367"
 327      38816BE9 
 327      2FE8B926 
 327      C7AD4C4B 
 327      7569F7
ARM GAS  /tmp/ccw31awu.s 			page 25


 328 06ec 3373D35A 		.ascii	"3s\323ZRLj\231\233\336\235\322\241V\277\213\222AM\222"
 328      524C6A99 
 328      9BDE9DD2 
 328      A156BF8B 
 328      92414D92 
 329 0700 A82641AB 		.ascii	"\250&A\253&\263\365q\224`\033.\316ITR\\\226\244\012"
 329      26B3F571 
 329      94601B2E 
 329      CE495452 
 329      5C96A40A 
 330 0714 B67CA917 		.ascii	"\266|\251\0278T\332\205p\210\005\015t\347l\345\274-"
 330      3854DA85 
 330      7088050D 
 330      74E76CE5 
 330      BC2D
 331 0726 3E441979 		.ascii	">D\031yI\340\300\011\350\377\265\010Z!\226\005d\257"
 331      49E0C009 
 331      E8FFB508 
 331      5A219605 
 331      64AF
 332 0738 21431900 		.ascii	"!C\031\000\225.`\355~%Q\015\366O\374\235\334\206kK\372"
 332      952E60ED 
 332      7E25510D 
 332      F64FFC9D 
 332      DC866B4B 
 333 074d 6D24294E 		.ascii	"m$)N\2007\344\221\014\235\002_N\0124%\356\3246\004\233"
 333      8037E491 
 333      0C9D025F 
 333      4E0A3425 
 333      EED43604 
 334 0762 5B73E988 		.ascii	"[s\351\210\237\222~\224;\332e\257\347\325i=\2572u^]"
 334      9F927E94 
 334      3BDA65AF 
 334      E7D5693D 
 334      AF32755E 
 335 0777 690C3A63 		.ascii	"i\014:c\203#\230WC/O\214X\3408\306\314\036\257\317\260"
 335      83239857 
 335      432F4F8C 
 335      58E038C6 
 335      CC1EAFCF 
 336 078c C3C98C89 		.ascii	"\303\311\214\211\312k\271e\216\323\031\323\177v\351"
 336      CA6BB965 
 336      8ED319D3 
 336      7F76E9
 337 079b 92393EC5 		.ascii	"\2229>\305\230\264\336g\371\0268\2232\302Xdf\011\224"
 337      98B4DE67 
 337      F9163893 
 337      32C25864 
 337      660994
 338 07ae 6D27A966 		.ascii	"m'\251f\311\"\030\235\005c\277\265\345\235\300\206K"
 338      C922189D 
 338      0563BFB5 
 338      E59DC086 
 338      4B
 339 07bf 52AD831A 		.ascii	"R\255\203\032b\221/\330\242<\261\177\276\265e\346\015"
 339      62912FD8 
 339      A23CB17F 
ARM GAS  /tmp/ccw31awu.s 			page 26


 339      BEB565E6 
 339      0D
 340 07d0 06D6B45B 		.ascii	"\006\326\264[\342\002\246\352\331\223\216E;\\\302\030"
 340      E202A6EA 
 340      D9938E45 
 340      3B5CC218 
 341 07e0 F5DCE53B 		.ascii	"\365\334\345;\346\370\002czbg\007\255p9c\352:\017U\311"
 341      E6F80263 
 341      7A626707 
 341      AD703963 
 341      EA3A0F55 
 342 07f5 712563B2 		.ascii	"q%c\262n\016\252\315\260\2061\227\302o.Z\342\253\214"
 342      6E0EAACD 
 342      B0863197 
 342      C26F2E5A 
 342      E2AB8C
 343 0808 492C0F0D 		.ascii	"I,\017\015\264\3065\214\311]\236:f\213\353\271\347\227"
 343      B4C6358C 
 343      C95D9E3A 
 343      668BEBB9 
 343      E797
 344 081a 5A4F0A6C 		.ascii	"ZO\012l\3709\002\233\2439T\207Y\011O\027^\0126\207\333"
 344      F839029B 
 344      A3395487 
 344      59094F17 
 344      5E0A3687 
 345 082f BB5205E4 		.ascii	"\273R\005\344H?\253\235\340\317I\342\355`\317\322_\373"
 345      483FAB9D 
 345      E0CF49E2 
 345      ED60CFD2 
 345      5FFB
 346 0841 DB46D4EA 		.ascii	"\333F\324\352([\352L.8\243\021V\213\276\017\320\310"
 346      285BEA4C 
 346      2E38A311 
 346      568BBE0F 
 346      D0C8
 347 0853 6F843F32 		.ascii	"o\204?2\332@s\371\026\254\327\335\251p\211\241p=\025"
 347      DA4073F9 
 347      16ACD7DD 
 347      A97089A1 
 347      703D15
 348 0866 CE43A274 		.ascii	"\316C\242t\207(]h(\035)\030@w\211\302\005\306\205\245"
 348      87285D68 
 348      281D2918 
 348      407789C2 
 348      05C685A5 
 349 087a D0E5A2F4 		.ascii	"\320\345\242\364yCigC\3416Q\270\310P\270Mbu$\037\006"
 349      79436967 
 349      43E13651 
 349      B8C850B8 
 349      4D627524 
 350 0890 6AA4821D 		.ascii	"j\244\202\035\010\244f\031\350E\027x\023\350ft\005\222"
 350      08A46619 
 350      E8451778 
 350      13E86674 
 350      0592
 351 08a2 A15A7044 		.ascii	"\241ZpD\227\201\256\001U\000]\005\252\002\272\004T\011"
ARM GAS  /tmp/ccw31awu.s 			page 27


 351      9781AE01 
 351      55005D05 
 351      AA02BA04 
 351      5409
 352 08b4 542E38D2 		.ascii	"T.8\322\241\303re*\316\226\344\012\000\310x\242\310"
 352      A1C37265 
 352      2ACE96E4 
 352      0A00C878 
 352      A2C8
 353 08c6 74765DBC 		.ascii	"tv]\274\265&A\255\201M\014\261\254\324\250\033\222\000"
 353      B52641AD 
 353      814D0CB1 
 353      ACD4A81B 
 353      9200
 354 08d8 B5885E14 		.ascii	"\265\210^\024\033\367B\"|I\024>g\274\243\2500\331\003"
 354      1BF74222 
 354      7C49143E 
 354      67BCA3A8 
 354      30D903
 355 08eb CF26465B 		.ascii	"\317&F[\351\215;\251\260\014]\327\215\273\376K'g\354"
 355      E98D3BA9 
 355      B00C5DD7 
 355      8DBBFE4B 
 355      2767EC
 356 08fe 70902549 		.ascii	"p\220%I8\234\22070m\205\034\235V\263L\232\233\376\346"
 356      389C9037 
 356      306D851C 
 356      9D56B34C 
 356      9A9BFEE6 
 357 0912 4C3FCB24 		.ascii	"L?\313$h\200r@g\275qgXXJ\302iX\352\365\303\022\311\227"
 357      68807240 
 357      67BD7167 
 357      58584AC2 
 357      6958EAF5 
 358 092a 41B40374 		.ascii	"A\264\003tmk8\030\351\200:\350\200Z\036`2\006\002\307"
 358      6D6B3818 
 358      E9803AE8 
 358      805A1E60 
 358      320602C7 
 359 093e C6318EA0 		.ascii	"\3061\216\240&\241G\243\271]\002\216eL\362@u?_\205_"
 359      26A147A3 
 359      B95D028E 
 359      654CF240 
 359      753F5F85 
 360 0953 237CE940 		.ascii	"#|\351@L\230-\037\021\344\274dlz\272\013v\301L\270d"
 360      4C982D1F 
 360      11E4BC64 
 360      6C7ABA0B 
 360      76C14CB8 
 361 0968 F94C08C6 		.ascii	"\371L\010\306\247)\363\233\371\007\301O\355\220\343"
 361      A729F39B 
 361      F907C14F 
 361      ED90E3
 362 0977 6A1825B6 		.ascii	"j\030%\266\253\371\377\344?''\362\005\177\327\260'\216"
 362      ABF9FFE4 
 362      3F2727F2 
 362      057FD7B0 
ARM GAS  /tmp/ccw31awu.s 			page 28


 362      278E
 363 0989 308E6C6D 		.ascii	"0\216lm\311`rr\324}\340\261\223\023\013I\345)\367\033"
 363      C9607272 
 363      D47DE0B1 
 363      93130B49 
 363      E529F71B 
 364 099d 932C2464 		.ascii	"\223,$dS\001\205\030\265JC\322i*\363\032!\363\032H\346"
 364      53018518 
 364      B54A43D2 
 364      692AF31A 
 364      21F31A48 
 365 09b2 DD145813 		.ascii	"\335\024X\023\342x(vB!\330\021\035\000\012\006\012\002"
 365      E2782876 
 365      4221D811 
 365      1D000A06 
 365      0A02
 366 09c4 0A040A00 		.ascii	"\012\004\012\000R\003-C\346-\001\275\004z\0104\002\324"
 366      52032D43 
 366      E62D01BD 
 366      047A0834 
 366      02D4
 367 09d6 07D402D4 		.ascii	"\007\324\002\324\001\324\016\324\306\003\307R$%\372"
 367      01D40ED4 
 367      C603C752 
 367      2425FA
 368 09e5 5F58F641 		.ascii	"_X\366Auk\022\014\214\2536L\250\345\266\265L\232\354"
 368      756B120C 
 368      8CAB364C 
 368      A8E5B6B5 
 368      4C9AEC
 369 09f8 12AF19FA 		.ascii	"\022\257\031\372ru\305\330\237\211\342\350\235\220\016"
 369      7275C5D8 
 369      9F89E2E8 
 369      9D900E
 370 0a07 75C6E529 		.ascii	"u\306\345)\2744\363\272\3642\257\223e\236^l\332\341"
 370      BC34F3BA 
 370      F432AF93 
 370      659E5E6C 
 370      DAE1
 371 0a19 294976D4 		.ascii	")Iv\324\001\220]<6\341\020\2330\210\301\035\360\361"
 371      01905D3C 
 371      36E1109B 
 371      3088C11D 
 371      F0F1
 372 0a2b 96D4C7C1 		.ascii	"\226\324\307\301\313\231?\304\007\251\3536\240\333`"
 372      CB993FC4 
 372      07A9EB36 
 372      A0DB60
 373 0a3a C50DDEC4 		.ascii	"\305\015\336\304h\305\222\232\321\255g\306\355W\231"
 373      68C5929A 
 373      D1AD67C6 
 373      ED5799
 374 0a49 710854FF 		.ascii	"q\010T\377\244\031\232Y\205\032\226\254=`\303M\3436"
 374      A4199A59 
 374      851A96AC 
 374      3D60C34D 
 374      E336
ARM GAS  /tmp/ccw31awu.s 			page 29


 375 0a5b AC8844AF 		.ascii	"\254\210D\257\236\011\244%\033%\306\023\345 h\376\007"
 375      9E09A425 
 375      1B25C613 
 375      E52068FE 
 375      07
 376 0a6c 250A59F6 		.ascii	"%\012Y\366\236\372\241~2\230&r?(\351\341\235\251[\312"
 376      9EFAA17E 
 376      32982672 
 376      3F28E9E1 
 376      9DA95BCA 
 377 0a80 DC3195C8 		.ascii	"\3341\225\310:\211a\030\265\203\334\276!\270\276\013"
 377      3A896118 
 377      B583DCBE 
 377      21B8BE0B 
 378 0a90 3A06F422 		.ascii	":\006\364\"\224\024\316\323\205\270\332\014\032\006"
 378      9414CED3 
 378      85B8DA0C 
 378      1A06
 379 0a9e 4D5474A6 		.ascii	"MTt\246@c\240\240\211\2670\255\340\370\015Z\020{x\036"
 379      4063A0A0 
 379      89B730AD 
 379      E0F80D5A 
 379      107B781E 
 380 0ab2 AC849714 		.ascii	"\254\204\227\024\247xV\234\006\365\213\023[\235Uey\036"
 380      A778569C 
 380      06F58B13 
 380      5B9D5565 
 380      791E
 381 0ac4 8F0A80D5 		.ascii	"\217\012\200\325\031\011E\213\270\375\"\302b\300>\251"
 381      1909458B 
 381      B8FD22C2 
 381      62C03EA9 
 382 0ad4 E723FF1E 		.ascii	"\347#\377\036H\365\032f\377\035\261\317\215W\274\007"
 382      48F51A66 
 382      FF1DB1CF 
 382      8D57BC07 
 383 0ae4 E0C21877 		.ascii	"\340\302\030w\347>\\\217\352\271\262\020*\211\025qf"
 383      E73E5C8F 
 383      EAB9B210 
 383      2A891571 
 383      66
 384 0af5 CCB833C6 		.ascii	"\314\2703\306\261\373x\003Cl\346\372\\(u}\314\270\353"
 384      B1FB7803 
 384      436CE6FA 
 384      5C28757D 
 384      CCB8EB
 385 0b08 3F848691 		.ascii	"?\204\206\221\3432\342T\277\350\372\230\236\353\177"
 385      E332E254 
 385      BFE8FA98 
 385      9EEB7F
 386 0b17 AEE3AE3F 		.ascii	"\256\343\256?\022\326\240AC\327\007$\271\022e\314>\031"
 386      12D6A041 
 386      43D70724 
 386      B91265CC 
 386      3E19
 387 0b29 6D478C5B 		.ascii	"mG\214[\004\343\026\240\037\347\201\346\200^\000=\007"
 387      04E316A0 
ARM GAS  /tmp/ccw31awu.s 			page 30


 387      1FE781E6 
 387      805E003D 
 387      07
 388 0b3a 7A02340E 		.ascii	"z\0024\016\364X/(Qm\264\177I\245\275\013J\011\210\311"
 388      F4582F28 
 388      516DB47F 
 388      49A5BD0B 
 388      4A0988C9 
 389 0b4e 9974EA98 		.ascii	"\231t\352\230\2446\015\375\224tK3E~\012\262\303\246"
 389      A4360DFD 
 389      94744B33 
 389      457E0AB2 
 389      C3A6
 390 0b60 65A58377 		.ascii	"e\245\203wBo\360>5R?&\341\3513\0020\001\210\023\274"
 390      426FF03E 
 390      35523F26 
 390      E1E93302 
 390      30018813 
 391 0b75 37A6C0E1 		.ascii	"7\246\300\341Ip\354\231\336\350\353\316\331\037\227"
 391      4970EC99 
 391      DEE8EBCE 
 391      D91F97
 392 0b84 15422C20 		.ascii	"\025B, G\021#\\\336X\375\240\362\232;f\244\326\220\354"
 392      4711235C 
 392      DE58FDA0 
 392      F29A3B66 
 392      A4D690EC 
 393 0b98 6CE4B2BA 		.ascii	"l\344\262\272Qb\230\347\335'\020\351\354\211\025k\023"
 393      516298E7 
 393      DD2710E9 
 393      EC89156B 
 393      13
 394 0ba9 DA91FB2F 		.ascii	"\332\221\373/\361\216$\007\015S?\025\245XmL\247!N3\257"
 394      F18E2407 
 394      0D533F15 
 394      A5586D4C 
 394      A7214E33 
 395 0bbe 17A719B2 		.ascii	"\027\247\031\262\200\326\305i\232\305\311T\025D\263"
 395      80D6C569 
 395      9AC5C954 
 395      1544B3
 396 0bcd 101EB110 		.ascii	"\020\036\261\020jS\362\313Zz\202K\240f\305\224\354\241"
 396      6A53F2CB 
 396      5A7A824B 
 396      A066C594 
 396      ECA1
 397 0bdf 58DA79F8 		.ascii	"X\332y\370\317\025\317\231'0\323\315\275\322\021\022"
 397      CF15CF99 
 397      2730D3CD 
 397      BDD21112 
 398 0bef 94263ED1 		.ascii	"\224&>\321\021\267\347\177J\272\274\211&\007\221]0-"
 398      11B7E77F 
 398      4ABABC89 
 398      2607915D 
 398      302D
 399 0c01 CBC29DD2 		.ascii	"\313\302\235\322D\303\0152+\227\202\2357\327\306\253"
 399      44C30D32 
ARM GAS  /tmp/ccw31awu.s 			page 31


 399      2B97829D 
 399      37D7C6AB 
 400 0c11 3501989E 		.ascii	"5\001\230\236-\274\344\243\206o\227\330\230Y\224\256"
 400      2DBCE4A3 
 400      866F97D8 
 400      985994AE 
 401 0c21 7E6FDAA8 		.ascii	"~o\332\250\013\377JO\007\302\004#\262\233E\321b&Jv\367"
 401      0BFF4A4F 
 401      07C20423 
 401      B29B45D1 
 401      62264A76 
 402 0c36 478C894A 		.ascii	"G\214\211J\2720\341\020\357B\330@\242(\303\025\301\312"
 402      BA30E110 
 402      EF42D840 
 402      A228C315 
 402      C1CA
 403 0c48 35F8342B 		.ascii	"5\3704+\251\2601Ci\306\245%\340\267\305\372\233e(,]"
 403      A9B03143 
 403      69C6A525 
 403      E0B7C5FA 
 403      9B65282C 
 404 0c5d 83F3CD80 		.ascii	"\203\363\315\200(\235m\\Z\322\007\3557x\217\321E\242"
 404      289D6D5C 
 404      5AD207ED 
 404      37788FD1 
 404      45A2
 405 0c6f A1F8CA6D 		.ascii	"\241\370\312mI\013\003'\013\231\033\306\245%\340\227"
 405      490B0327 
 405      0B991BC6 
 405      A525E097 
 406 0c7f BF22B2DA 		.ascii	"\277\"\262\332\341\324\372\252\341T\311\246\215V\343"
 406      E1D4FAAA 
 406      E154C9A6 
 406      8D56E3
 407 0c8e B5D33D33 		.ascii	"\265\323=3\224$*I\351fq\323\330*\251\235U\231\377\025"
 407      94242A49 
 407      E96671D3 
 407      D82AA99D 
 407      5599FF15 
 408 0ca2 9FA596AA 		.ascii	"\237\245\226\252\353z\225\272)w\242\255\313\2106M\367"
 408      EB7A95BA 
 408      2977A2AD 
 408      CB88364D 
 408      F7
 409 0cb3 3D9A6964 		.ascii	"=\232id\035\323*\016\212.\252\213\234\206$\216\345\313"
 409      1DD32A0E 
 409      8A2EAA8B 
 409      9C86248E 
 409      E5CB
 410 0cc5 E5025F58 		.ascii	"\345\002_X\354\220\223{\3713\3311f&_\004\035\301\344"
 410      EC90937B 
 410      F933D931 
 410      66265F04 
 410      1DC1E4
 411 0cd8 4DC761CC 		.ascii	"M\307a\314_u\224G\250\363\034\336KW\017\222\372\224"
 411      5F759447 
 411      A8F31CDE 
ARM GAS  /tmp/ccw31awu.s 			page 32


 411      4B570F92 
 411      FA94
 412 0cea EB7EB970 		.ascii	"\353~\271pD}p\025\225BWD}W\020;F@G1y\311\261\230q>\310"
 412      447D7015 
 412      95425744 
 412      7D57103B 
 412      46404731 
 413 0d05 1ADFB642 		.ascii	"\032\337\266B\246L\010\030)k\327{\333\362B\357mK$\265"
 413      A64C0818 
 413      296BD77B 
 413      DBF242EF 
 413      6D4B24B5 
 414 0d19 21426B83 		.ascii	"!Bk\203f\354~\2329\263A\323\336l\233\240\256\226\023"
 414      66EC7E9A 
 414      39B341D3 
 414      DE6C9BA0 
 414      AE9613
 415 0d2c 11740CEB 		.ascii	"\021t\014\353\014\200Kf@\0245 1\"\254\316\036\0171\003"
 415      0C804B66 
 415      40143520 
 415      3122ACCE 
 415      1E0F3103 
 416 0d40 8AEA168E 		.ascii	"\212\352\026\216ZP\003\310\253Df\300\371\323\317\232"
 416      5A5003C8 
 416      AB4466C0 
 416      F9D3CF9A 
 417 0d50 AC4CC620 		.ascii	"\254L\306 \226\352\217\321\352\017Z\274=\210\271\376"
 417      96EA8FD1 
 417      EA0F5ABC 
 417      3D88B9FE 
 418 0d60 85634C3F 		.ascii	"\205cL?\210\240hQ\177\264V\177\034\325\177r\354\342"
 418      88A06851 
 418      7FB4567F 
 418      1CD57F72 
 418      ECE2
 419 0d72 88351E67 		.ascii	"\2105\036g\372\237-\246\\\340\373\2235\344=\334@D\204"
 419      FA9F2DA6 
 419      5CE0FB93 
 419      35E43DDC 
 419      404484
 420 0d85 05DF9E90 		.ascii	"\005\337\236\220s\325\201\302\242\0313k\311\2610\021"
 420      73D581C2 
 420      A219336B 
 420      C9B13011 
 421 0d95 146D49C4 		.ascii	"\024mI\304\344\364\304\231\261\344\254\343\316\321\031"
 421      E4F4C499 
 421      B1E4ACE3 
 421      CED119
 422 0da4 6155049F 		.ascii	"aU\004\237b~\253\242QM\300k\321qL\304\223\360*m#z\350"
 422      627EABA2 
 422      514DC06B 
 422      D1714CC4 
 422      93F02A6D 
 423 0dbb 187F24DD 		.ascii	"\030\177$\335\356\027\247\324\203\351\344U\225\242\350"
 423      EE17A7D4 
 423      83E9E455 
 423      95A2E8
ARM GAS  /tmp/ccw31awu.s 			page 33


 424 0dca 14B44244 		.ascii	"\024\264BD\010\3053\343%M\343\211\017(\031\377\002\332"
 424      08C533E3 
 424      254DE389 
 424      0F2819FF 
 424      02DA
 425 0ddc E5F536C5 		.ascii	"\345\3656\305a\374\2029\320\366t\264\315J\252\362[\251"
 425      61FC8239 
 425      D0F674B4 
 425      CD4AAAF2 
 425      5BA9
 426 0dee C6547D8D 		.ascii	"\306T}\215\265\207\312\003u\233\314\010\203#\026\231"
 426      B587CA03 
 426      759BCC08 
 426      83231699 
 427 0dfe 78BE42DE 		.ascii	"x\276B\336v\334\270\274d#\305M\303\257\000\276\233\221"
 427      76DCB8BC 
 427      6423C54D 
 427      C3AF00BE 
 427      9B91
 428 0e10 71D0165C 		.ascii	"q\320\026\\)LWk\322j\327\004\2505r\224\016\216\244\254"
 428      294C576B 
 428      D26AD704 
 428      A8357294 
 428      0E8EA4AC 
 429 0e24 7084DCD9 		.ascii	"p\204\334\331.\310\320\011\352\312\324\365\264k\030"
 429      2EC8D009 
 429      EACAD4F5 
 429      B46B18
 430 0e33 CF5AE9BD 		.ascii	"\317Z\351\275\323\372\003{\247U~;i\312\206\246\306)"
 430      D3FA037B 
 430      A7557E3B 
 430      69CA86A6 
 430      C629
 431 0e45 D292EC7C 		.ascii	"\322\222\354|\203\012\036\331\341`v`\331\335p\245\325"
 431      830A1ED9 
 431      E1607660 
 431      D9DD70A5 
 431      D5
 432 0e56 1A1EA3D3 		.ascii	"\032\036\243\323\200\230A\322\201\274\364Yh;\304\217"
 432      809841D2 
 432      81BCF459 
 432      683BC48F 
 433 0e66 3FEF9357 		.ascii	"?\357\223W\000Y\241\361\027\371\353)\315(=\307\311\034"
 433      0059A1F1 
 433      17F9EB29 
 433      CD283DC7 
 433      C91C
 434 0e78 ECE4AFEB 		.ascii	"\354\344\257\353\307\210\300x\340b\201\225\351\016\316"
 434      C788C078 
 434      E0628195 
 434      E90ECE
 435 0e87 D176F019 		.ascii	"\321v\360\031L;\370a\312\313|,F\005\321S\356lp.\213"
 435      4C3BF861 
 435      CACB7C2C 
 435      4605D153 
 435      EE6C702E 
 436 0e9c 3A974BA3 		.ascii	":\227K\243\222\243\215\312\340\211G9\002\353`\315B\210"
ARM GAS  /tmp/ccw31awu.s 			page 34


 436      92A38DCA 
 436      E0894739 
 436      02EB60CD 
 436      4288
 437 0eae 738046F3 		.ascii	"s\200F\363\016\021A'yTxC\224\011\326\223\233\244@\322"
 437      0E114127 
 437      79547843 
 437      9409D693 
 437      9BA440D2 
 438 0ec2 B0DC1A9A 		.ascii	"\260\334\032\232\337\202\0173?[J\356\302\316;\2211Y"
 438      DF820F33 
 438      3F5B4AEE 
 438      C2CE3B91 
 438      3159
 439 0ed4 B9133166 		.ascii	"\271\0231f8\2031\217:[\357[\342\034\306,\334+\030\263"
 439      3883318F 
 439      3A5BEF5B 
 439      E21CC62C 
 439      DC2B18B3 
 440 0ee8 D53B3F20 		.ascii	"\325;? \257rEO\212\260\366\374 \2761\254L\300%\254Y"
 440      AF72454F 
 440      8AB0F6FC 
 440      20BE31AC 
 440      4CC025AC 
 441 0efd E7D2E99B 		.ascii	"\347\322\351\233\366\370\"e\314\217\214]\351\261\244"
 441      F6F82265 
 441      CC8F8C5D 
 441      E9B1A4
 442 0f0c C753DAF3 		.ascii	"\307S\332\363\204\350\322\375\307\317\261I\033\000P"
 442      84E8D2FD 
 442      C7CFB149 
 442      1B0050
 443 0f1b 21187E11 		.ascii	"!\030~\021\233\254\323P\324\223khQ'\302\305\206\302"
 443      9BACD350 
 443      D4936B68 
 443      5127C2C5 
 443      86C2
 444 0f2d 2B0E8492 		.ascii	"+\016\204\222j\034\330\214\241\235\273V\212K\240\213"
 444      6A1CD88C 
 444      A19DBB56 
 444      8A4BA08B 
 445 0f3d 42EC9834 		.ascii	"B\354\2304\001/1n\011Cg\3257\241\206\316\003 \265\362"
 445      012F316E 
 445      094367D5 
 445      37A186CE 
 445      0320B5F2 
 446 0f51 6CC360FF 		.ascii	"l\303`\377(\243X\244K\312`\333V\012\333\263\363@\347"
 446      28A358A4 
 446      4BCA60DB 
 446      560ADBB3 
 446      F340E7
 447 0f64 802E60DD 		.ascii	"\200.`\335!Gw\366\355\021\214\373i\250\204\346\371\216"
 447      214777F6 
 447      ED118CFB 
 447      69A884E6 
 447      F98E
 448 0f76 ABF6C869 		.ascii	"\253\366\310i5?F\251\241\205\376\022\200\224\213u\207"
ARM GAS  /tmp/ccw31awu.s 			page 35


 448      353F46A9 
 448      A185FE12 
 448      80948B75 
 448      87
 449 0f87 6836B561 		.ascii	"h6\265a\255\000=\257\241\263\365Eg\263\305j\016\241"
 449      AD003DAF 
 449      A1B3F545 
 449      67B3C56A 
 449      0EA1
 450 0f99 31092133 		.ascii	"1\011!3\325>\367"
 450      D53EF7
 451 0fa0 70CE0DFD 		.ascii	"p\316\015\375\323\334J,]\024_\326eE\345tv\253\205^i"
 451      D3DC4A2C 
 451      5D145FD6 
 451      6545E574 
 451      76AB855E 
 452 0fb5 3025D95F 		.ascii	"0%\331_4\232\340\240\207Y\205\245\013H\215VR>X\263\220"
 452      349AE0A0 
 452      875985A5 
 452      0B488D56 
 452      523E58B3 
 453 0fca 6E86563B 		.ascii	"n\206V;:9\032\335.\302\324\304#p\025\\\251\006\313\257"
 453      3A391ADD 
 453      2EC2D4C4 
 453      2370155C 
 453      A906CBAF 
 454 0fde 61E95EA2 		.ascii	"a\351^\242*\344\237\365\323\343\212\361\364\340\323"
 454      2AE49FF5 
 454      D3E38AF1 
 454      F4E0D3
 455 0fed 3EEBEE2B 		.ascii	">\353\356+\330\310\011_k\310\317\031\022\330\206\012"
 455      D8C8095F 
 455      6BC8CF19 
 455      12D8860A 
 456 0ffd B03124   		.ascii	"\2601$"
 457 1000 96396446 		.ascii	"\2269dF(\010ov\300\017X7W\016\026e\333\351\272\271\235"
 457      28086F76 
 457      C00F5837 
 457      570E1665 
 457      DBE9BAB9 
 458 1015 75732D34 		.ascii	"us-4\276.v\363\025I7\033n\210k\3001SN\222\362\227\376"
 458      BE2E76F3 
 458      1549371B 
 458      6E886BC0 
 458      31534E92 
 459 102c 30D58177 		.ascii	"0\325\201w\257Fc\262\251\314\260\335\303\354\334P\375"
 459      AF4663B2 
 459      A9CCB0DD 
 459      C3ECDC50 
 459      FD
 460 103d C15EA7D7 		.ascii	"\301^\247\327Y\365\272\316\352\273<z\312R\257[MI\006"
 460      59F5BACE 
 460      EABB3C7A 
 460      CA52AF5B 
 460      4D4906
 461 1050 4CDFCDB4 		.ascii	"L\337\315\264\326\303\274\241\327\2557u\335\372\254"
 461      D6C3BCA1 
ARM GAS  /tmp/ccw31awu.s 			page 36


 461      D7AD3775 
 461      DDFAAC
 462 105f 2B26C781 		.ascii	"+&\307\201\234\314\261\0236\315\263\220_\260\350\202"
 462      9CCCB113 
 462      36CDB390 
 462      5FB0E882 
 463 106f 083A0B81 		.ascii	"\010:\013\201i4\021]\023Y\320\310\003\324\014\0367\201"
 463      6934115D 
 463      1359D0C8 
 463      03D40C1E 
 463      3781
 464 1081 A30D7A59 		.ascii	"\243\015zY0`\230\005+\321%Y\320\307\262\240Q?\013\300"
 464      30609805 
 464      2BD12559 
 464      D0C7B2A0 
 464      513F0BC0 
 465 1095 BDB890E1 		.ascii	"\275\270\220\341:9\236e\335Z\326^\221\201u\335:\305"
 465      3A399E65 
 465      DD5AD65E 
 465      918175DD 
 465      3AC5
 466 10a7 BAB50D70 		.ascii	"\272\265\015p[\304nm|E\267\266\202\245\246\254\006]"
 466      5BC46E6D 
 466      7C45B7B6 
 466      82A5A6AC 
 466      065D
 467 10b9 4F5BC7D7 		.ascii	"O[\307\327\231\350UIK\231a\263\371\370\342\2636l\022"
 467      99E85549 
 467      4B9961B3 
 467      F9F8E2B3 
 467      366C12
 468 10cc 1DEC6BDF 		.ascii	"\035\354k\337^t\232\256\007\332A:\237O\030b\314\362"
 468      5E749AAE 
 468      07DA413A 
 468      9F4F1862 
 468      CCF2
 469 10de F934DA41 		.ascii	"\3714\332A\347\213c=W:\314p0\373EZpJD3\177\007\361K"
 469      E78B633D 
 469      573ACC70 
 469      30FB455A 
 469      704A4433 
 470 10f6 E27858F2 		.ascii	"\342xX\362\240\234\277\005\027\310\022g\242\345%\377"
 470      A09CBF05 
 470      17C81267 
 470      A2E525FF 
 471 1106 1D0BF9ED 		.ascii	"\035\013\371\355\325\235\334\345Rs\323\023`\267v\002"
 471      D59DDCE5 
 471      5273D313 
 471      60B77602 
 472 1116 BCCD26C0 		.ascii	"\274\315&\300\307y\367\017\331J\227\005\220@\350\026"
 472      C779F70F 
 472      D94A9705 
 472      9040E816 
 473 1126 CC615D74 		.ascii	"\314a]t\002\274C'\300n\355\004\2303\322\235i'\225\276"
 473      02BC4327 
 473      C06EED04 
 473      9833D29D 
ARM GAS  /tmp/ccw31awu.s 			page 37


 473      692795BE 
 474 113a F12AE9C3 		.ascii	"\361*\351\303\335M\213f\340\377\004L\227}s\210.\"z`"
 474      DD4D8B66 
 474      E0FF044C 
 474      977D7388 
 474      2E227A60 
 475 114e BAECE4DE 		.ascii	"\272\354\344\336\213\015;\271\367\275\324\373\316\230"
 475      8B0D3BB9 
 475      F7BDD4FB 
 475      CE98
 476 115c F424337C 		.ascii	"\364$3|\234y\037\222\026\032@\026U\023\344Ea\305\227"
 476      9C791F92 
 476      161A4016 
 476      5513E445 
 476      61C597
 477 116f ED596A0D 		.ascii	"\355Yj\015\004\221$}\337\212 \366\321)\267\237\202T"
 477      0491247D 
 477      DF8A20F6 
 477      D129B79F 
 477      8254
 478 1181 05E4C79A 		.ascii	"\005\344\307\232\341!\006\022~\255\376\377\030Fz\177"
 478      E1210612 
 478      7EADFEFF 
 478      18467A7F 
 479 1191 1518026B 		.ascii	"\025\030\002kJ\2020\260\002a\200\"\014R\204\2237+\033"
 479      4A8230B0 
 479      02618022 
 479      0C528493 
 479      372B1B
 480 11a4 CC709E2D 		.ascii	"\314p\236-E(\276\026\027\2179D\324\250\010qw\005\304"
 480      4528BE16 
 480      178F3944 
 480      D4A80871 
 480      7705C4
 481 11b7 5D0A3144 		.ascii	"]\0121D!\356i\216\015\013x\232A\234\210\271\220&p\210"
 481      21EE698E 
 481      0D0B789A 
 481      419C88B9 
 481      90267088 
 482 11cb D28722C4 		.ascii	"\322\207\"\304\360\012\210a\0121B!\222\342\227\313l"
 482      F00A8861 
 482      0A314221 
 482      92E297CB 
 482      6C
 483 11dc B1C68EFD 		.ascii	"\261\306\216\375\310f\274\271\314\222C\334y\"B\334["
 483      C866BCB9 
 483      CC9243DC 
 483      792242DC 
 483      5B
 484 11ed 01718F42 		.ascii	"\001q\217B\214R\210s\375\011E68\334\236B\214e\314\325"
 484      8C528873 
 484      FD094536 
 484      38DC9E42 
 484      8C65CCD5 
 485 1201 220EB134 		.ascii	"\"\016\2614)B\214\255\200\030\243\020\367)\304lYd\220"
 485      29428CAD 
 485      8018A310 
ARM GAS  /tmp/ccw31awu.s 			page 38


 485      F729C46C 
 485      596490
 486 1214 15EE6010 		.ascii	"\025\356`\020\331\275!\351\274K\322\213gD\210\007+ "
 486      D9BD21E9 
 486      BC4BD28B 
 486      67448807 
 486      2B20
 487 1226 1E508887 		.ascii	"\036P\210\207\024\242c\272\277\306\032\247:P\210\322"
 487      14A263BA 
 487      BFC61AA7 
 487      3A5088D2 
 488 1236 2315F9D6 		.ascii	"#\025\371\326\034\242kA\204x\264\002\342\021\205x\314"
 488      1CA26B41 
 488      8478B402 
 488      E2118578 
 488      CC
 489 1247 6291DAB2 		.ascii	"b\221\332\262`\203\3573\210\200\220\254\243\016\034"
 489      6083EF33 
 489      888090AC 
 489      A30E1C
 490 1256 627E5984 		.ascii	"b~Y\204\030_\0011N!\236P\210\320\316\353\221\226\270"
 490      185F0131 
 490      4E219E50 
 490      88D0CEEB 
 490      9196B8
 491 1269 F82D0A11 		.ascii	"\370-\012\021\330YV\246\215Ej\246\240\203x\272\002\342"
 491      D85956A6 
 491      8D456AA6 
 491      A08378BA 
 491      02E2
 492 127b 298598A0 		.ascii	")\205\230\240\020/\262\213\223\355\364\012+Y\342\213"
 492      102FB28B 
 492      93EDF40A 
 492      2B59E28B 
 493 128b 43EC192B 		.ascii	"C\354\031+\254\344\033\244\033\372\356\377\\O\230\354"
 493      ACE41BA4 
 493      1BFAEEFF 
 493      5C4F98EC 
 494 129b E644E149 		.ascii	"\346D\341I.<I\205\017N\217\227\351\327\354H=\351).="
 494      2E3C4985 
 494      0F4E8F97 
 494      E9D7EC48 
 494      3DE9292E 
 495 12b0 45A51F2D 		.ascii	"E\245\037-^\253\265\321\223\216\325\223~\316\245\237"
 495      5EABB5D1 
 495      938ED593 
 495      7ECEA59F 
 496 12c0 53E9F329 		.ascii	"S\351\363)]\2516\246\013\303\013ma\330@\353\302\365"
 496      5DA936A6 
 496      0BC30B6D 
 496      61D840EB 
 496      C2F5
 497 12d2 E5198D03 		.ascii	"\345\031\215\003\253*\244\310\334\236\031\230\321\016"
 497      AB2AA4C8 
 497      DC9E1998 
 497      D10E
 498 12e0 7C0D5927 		.ascii	"|\015Y'\223\367\331\213\320x\232\216\337\031:\360)\004"
ARM GAS  /tmp/ccw31awu.s 			page 39


 498      93F7D98B 
 498      D0789A8E 
 498      DF193AF0 
 498      2904
 499 12f2 65A0C5C8 		.ascii	"e\240\305\310B~9\377\261\2259)\241\3033C\226\246\265"
 499      427E39FF 
 499      B1953929 
 499      A1C33343 
 499      96A6B5
 500 1305 CF69B5CF 		.ascii	"\317i\265\317\262\262\364<\374\300\014_\326\223\237"
 500      B2B2F43C 
 500      FCC00C5F 
 500      D6939F
 501 1314 55697FAB 		.ascii	"Ui\177\253\267\206\375V/$=\356\251\215t\325N\254Y\200"
 501      B786FD56 
 501      2F243DEE 
 501      A98D74D5 
 501      4EAC5980 
 502 1328 6A324FAD 		.ascii	"j2O\255Y\244\326\3141k\026\2515\027\356\306V\361m\341"
 502      59A4D6CC 
 502      316B16A9 
 502      3517EEC6 
 502      56F16DE1 
 503 133c 6D82DF3E 		.ascii	"m\202\337>z\"\230\027\315\026\302_\355\252\235\220\343"
 503      7A229817 
 503      CD16C25F 
 503      EDAA9D90 
 503      E3
 504 134d 4596162D 		.ascii	"E\226\026-Y\007[0\2615\350\265\177[\333\320\260\320"
 504      59075B30 
 504      B135E8B5 
 504      7F5BDBD0 
 504      B0D0
 505 135f 6886037F 		.ascii	"h\206\003\177\306~|r\375|\0157\276\216\3601\345W+l\360"
 505      C67E7C72 
 505      FD7C0D37 
 505      BE8EF031 
 505      E5572B6C 
 506 1374 01F67038 		.ascii	"\001\366p8|\350\2529\016gLZ\317\213\033\010\037eLe["
 506      7CE8AA39 
 506      0E674C5A 
 506      CF8B1B08 
 506      1F654C65 
 507 1389 EF6F7134 		.ascii	"\357oq4\273\256\236,\314\342\366a\022\275\231\223a\257"
 507      BBAE9E2C 
 507      CCE2F661 
 507      12BD9993 
 507      61AF
 508 139b 88DE4139 		.ascii	"\210\336A9\217^\250\234Z\023\2322Pb&-\323\344\307\303"
 508      8F5EA89C 
 508      5A139A32 
 508      5062262D 
 508      D3E4C7C3 
 509 13af E2DA384C 		.ascii	"\342\3328L\276J\333\210\256\377\026\223\257c\251\264"
 509      BE4ADB88 
 509      AEFF1693 
 509      AF63A9B4 
ARM GAS  /tmp/ccw31awu.s 			page 40


 510 13bf 5AFE0AE9 		.ascii	"Z\376\012\351\263\247N\307[\343xff\346tE\220%NbL\364"
 510      B3A74EC7 
 510      5BE37866 
 510      66E67445 
 510      90254E62 
 511 13d5 E594460B 		.ascii	"\345\224F\013\234\306\230\300[\237\342S\354\262*2\252"
 511      9CC698C0 
 511      5B9FE253 
 511      ECB22A32 
 511      AA
 512 13e6 0FE12CC6 		.ascii	"\017\341,\306\304\336|\364>\316c\327KuW\337\307\305"
 512      C4DE7CF4 
 512      3ECE63D7 
 512      4B7557DF 
 512      C7C5
 513 13f8 ECBAA634 		.ascii	"\354\272\2464;\013\3412\306L&\326<\262\306\227\030\223"
 513      3B0BE132 
 513      C64C26D6 
 513      3CB2C697 
 513      1893
 514 140a DE965C66 		.ascii	"\336\226\\f\211\253\270\302\331\270L[|\2151\035\027"
 514      89ABB8C2 
 514      D9B84C5B 
 514      7C8D311D 
 514      17
 515 141b 3B0FDAE0 		.ascii	";\017\332\340z\306\034,*:n\203\033\271v\376K\261U\374"
 515      7AC61C2C 
 515      2A3A6E83 
 515      1BB976FE 
 515      4BB155FC 
 516 142f 976223A7 		.ascii	"\227b#\247G\322\255\370\257\032I6\206\2675\314 \334"
 516      47D2ADF8 
 516      AF1A4936 
 516      86B735CC 
 516      20DC
 517 1441 CA8493BA 		.ascii	"\312\204\223\272\227\012\035\304\334f\321\022\207~\222"
 517      970A1DC4 
 517      DC66D112 
 517      877E92
 518 1450 5CCC6D32 		.ascii	"\\\314m2\021D\237\256\261\224J\223h\231\222~\273n`\344"
 518      11449FAE 
 518      B1944A93 
 518      6899927E 
 518      BB6E60E4 
 519 1464 AC157234 		.ascii	"\254\025r4\37089\222\327\240'\325\301A\26008\373i\330"
 519      F8383992 
 519      D7A027D5 
 519      C141B030 
 519      38FB69D8 
 520 1478 A9A6C3EA 		.ascii	"\251\246\303\352\364jD\241\226\241\366\024\312%+\242"
 520      F46A44A1 
 520      96A1F614 
 520      CA252BA2 
 521 1488 252CDD66 		.ascii	"%,\335fA\023\315\374\000\335\223\021\351\010\271\201"
 521      4113CDFC 
 521      00DD9311 
 521      E908B981 
ARM GAS  /tmp/ccw31awu.s 			page 41


 522 1498 B4FE7122 		.ascii	"\264\376q\"\221\236\020\245c\015\245\365\266{DxQ\024"
 522      919E10A5 
 522      630DA5F5 
 522      B67B4478 
 522      5114
 523 14aa 3E66283C 		.ascii	">f(<`(||\007[\310\021\351\003\206\322\325\310\320\220"
 523      60287C7C 
 523      075BC811 
 523      E90386D2 
 523      D5C8D090 
 524 14be 1889F821 		.ascii	"\030\211\370!C\361NC\360I\321\222\030\343fK\261\223"
 524      43F14E43 
 524      F049D192 
 524      18E3664B 
 524      B193
 525 14d0 25D84186 		.ascii	"%\330A\206\342\201r=qX\207\024\357\010\240\342\311\362"
 525      E281723D 
 525      71588714 
 525      EF08A0E2 
 525      C9F2
 526 14e2 5528918B 		.ascii	"U(\221\213\353\226t/\261\201)\275\242)\361\206\330\316"
 526      EB96742F 
 526      B18129BD 
 526      A229F186 
 526      D8CE
 527 14f4 06B28912 		.ascii	"\006\262\211\022C\202\215\033\"\221\216\220H\0371\224"
 527      43828D1B 
 527      22918E90 
 527      481F3194 
 528 1504 BE631892 		.ascii	"\276c\030\222Y\321\216H\343\375.\021N\225@\007\030J"
 528      59D18E48 
 528      E3FD2E11 
 528      4E954007 
 528      184A
 529 1516 2FE9B908 		.ascii	"/\351\271\010\261\210\343\001\011\207\200\204pi\335"
 529      B188E301 
 529      09878084 
 529      7069DD
 530 1525 C6B47345 		.ascii	"\306\264sE\270\237\213\226D\033bK\316\221\331r\274g"
 530      B89F8B96 
 530      441B624B 
 530      CE91D972 
 530      BC67
 531 1537 802EE141 		.ascii	"\200.\341AH\177#G\200\242\207~\027M_$\023\250\303\306"
 531      487F2347 
 531      80A2877E 
 531      174D5F24 
 531      13A8C3C6 
 532 154b 232055BC 		.ascii	"# U\274$*>j<?\215\274/M\220\257E\307i\350\211<\231\330"
 532      242A3E6A 
 532      3C3F8DBC 
 532      2F4D90AF 
 532      45C769E8 
 533 1563 F3E54E28 		.ascii	"\363\345N(S\356\210\212\201\322\200N\001\345\001\025"
 533      53EE888A 
 533      81D2804E 
 533      01E50115 
ARM GAS  /tmp/ccw31awu.s 			page 42


 534 1573 019D014A 		.ascii	"\001\235\001J\005J\007*\000\312\006:\013t\022(\027\350"
 534      054A072A 
 534      00CA063A 
 534      0B741228 
 534      17E8
 535 1585 04501650 		.ascii	"\004P\026P\006P\016P\012\320i\271\243\304\251i\321\310"
 535      06500E50 
 535      0AD069B9 
 535      A3C4A969 
 535      D1C8
 536 1597 28E3D191 		.ascii	"(\343\321\221\272\324/J\307\031\315.\335N\266\257\241"
 536      BAD42F4A 
 536      C719CD2E 
 536      DD4EB6AF 
 536      A1
 537 15a8 2BDB1E87 		.ascii	"+\333\036\207\255\242[\236\216\240\3743\010\255v2\352"
 537      ADA25B9E 
 537      8EA0FC33 
 537      08AD7632 
 537      EA
 538 15b9 293A0F0E 		.ascii	"):\017\016\376\243\235e\275{~\350\035\322\273\347@Y"
 538      FEA39D65 
 538      BD7B7EE8 
 538      1DD2BBE7 
 538      4059
 539 15cb 895CB7D9 		.ascii	"\211\\\267\331\"\235MmV\037H\270\245\177`qN.\335\257"
 539      229D4D6D 
 539      561F48B8 
 539      A57F6071 
 539      4E2EDDAF 
 540 15df 96CAD91A 		.ascii	"\226\312\331\032\005\276A:\342pb\265\025\216\245\036"
 540      05BE413A 
 540      E27062B5 
 540      158EA51E 
 541 15ef A2D4C6A3 		.ascii	"\242\324\306\243\247\205\367`\357P\250\036L+Qf\323\327"
 541      A785F760 
 541      EF50A81E 
 541      4C2B5166 
 541      D3D7
 542 1601 666A7530 		.ascii	"fju0\222\323\237\376_\020\265\301%\371\342\3774BN\016"
 542      92D39FFE 
 542      5F10B5C1 
 542      25F9E2FF 
 542      34424E0E 
 543 1615 850F1FC8 		.ascii	"\205\017\037\310\011\260\3005\014\351\305\203\201\347"
 543      09B0C035 
 543      0CE9C583 
 543      81E7
 544 1623 F61CA9B5 		.ascii	"\366\034\251\265\364\253\336\333\"\022\375\367\021\""
 544      F4ABDEDB 
 544      2212FDF7 
 544      1122
 545 1631 D2452952 		.ascii	"\322E)R9E\312\234\231=d\217'\030\322d\352\215\343\230"
 545      3945CA9C 
 545      993D648F 
 545      2718D264 
 545      EA8DE398 
ARM GAS  /tmp/ccw31awu.s 			page 43


 546 1645 23DD59FA 		.ascii	"#\335Y\372&\211\375k\204\364\337\321\177\323\201*D\240"
 546      2689FD6B 
 546      84F4DFD1 
 546      7FD3812A 
 546      44A0
 547 1657 0A29D025 		.ascii	"\012)\320%\012tk\264z'\236g89\371\251\205\366\370\340"
 547      0A746BB4 
 547      7A279E67 
 547      3839F9A9 
 547      85F6F8E0 
 548 166b 6AB65EA8 		.ascii	"j\266^\250\276\232lNN>/\323Fd\002\177\234\321%\320\243"
 548      BE9A6C4E 
 548      4E3E2FD3 
 548      4664027F 
 548      9CD125D0 
 549 1680 D222DD29 		.ascii	"\322\"\335)zw\327\311\315&\017\321\257\310\311!\272"
 549      7A77D7C9 
 549      CD260FD1 
 549      AFC8C921 
 549      BA
 550 1691 46CE0FD1 		.ascii	"F\316\017\321{\037O\215[q3\373\312\377\362rZ\353\360"
 550      7B1F4F8D 
 550      5B7133FB 
 550      CAFFF272 
 550      5AEBF0
 551 16a4 1A22892A 		.ascii	"\032\"\211*\265v\242*\271\234p\242\251\325\324\324\373"
 551      B576A22A 
 551      B99C70A2 
 551      A9D5D4D4 
 551      FB
 552 16b5 E901CDF6 		.ascii	"\351\001\315\366\270\225\231\267\23448h\241\353\207"
 552      B89599B7 
 552      9C343868 
 552      A1EB87
 553 16c4 BFA41AF4 		.ascii	"\277\244\032\364\303U\321\351\253R\244k\024i2\241t\314"
 553      C355D1E9 
 553      AB52A46B 
 553      146932A1 
 553      74CC
 554 16d6 0E8F30A4 		.ascii	"\016\2170\244\274\374\354{\326\034i\242\352\253\024"
 554      BCFCEC7B 
 554      D61C69A2 
 554      EAAB14
 555 16e5 F64F5DAA 		.ascii	"\366O]\252\031\316u\021\347\272\024\247\206\342\314"
 555      19CE7511 
 555      E7BA14A7 
 555      86E2CC
 556 16f4 A5E52CDA 		.ascii	"\245\345,\332\341\3545\024\347\314`\357\0039\307\231"
 556      E1EC3514 
 556      E7CC60EF 
 556      0339C799 
 557 1704 1EFE2A47 		.ascii	"\036\376*G\017\247V\304\251\225\342\324Q\234\226'\025"
 557      0FA756C4 
 557      A995E2D4 
 557      519C9627 
 557      15
 558 1715 876DF053 		.ascii	"\207m\360S\206\323\362\262\256Q\256\313\213\277\365"
ARM GAS  /tmp/ccw31awu.s 			page 44


 558      86D3F2B2 
 558      AE51AECB 
 558      8BBFF5
 559 1724 19E445BD 		.ascii	"\031\344E\275\210T/E\272A\221\006\323\306\242\355\360"
 559      88542F45 
 559      BA419106 
 559      D3C6A2ED 
 559      F0
 560 1735 02430A3B 		.ascii	"\002C\012;\362h\302L\314\213T\375\274\270)\002\335\224"
 560      F268C24C 
 560      CC8B54FD 
 560      BCB82902 
 560      DD94
 561 1747 023550A0 		.ascii	"\0025P\240\343\007\252\232\315\364\206H\256\336~\242"
 561      E307AA9A 
 561      CDF48648 
 561      AEDE7EA2 
 562 1757 910F9146 		.ascii	"\221\017\221F:D\306\273\302\016\351\037\025\365\350"
 562      3A44C6BB 
 562      C20EE91F 
 562      15F5E8
 563 1766 493771E9 		.ascii	"I7q\351&*=\234\265\024o\316\026B\377\004\354tW\352-"
 563      262A3D9C 
 563      B5146FCE 
 563      1642FF04 
 563      EC7457EA 
 564 177b 07D3EBC8 		.ascii	"\007\323\353\310\026\355:\262\231\255#_\314\205?\341"
 564      16ED3AB2 
 564      99AD235F 
 564      CC853FE1 
 565 178b ABE6B7C9 		.ascii	"\253\346\267\311z\353D\374 \377\001{!y\23125\334Pmo"
 565      7AEB44FC 
 565      20FF017B 
 565      21799932 
 565      35DC506D 
 566 17a0 B80C6F83 		.ascii	"\270\014o\203\022\324J\213m;]\012QL\312@\213\241\245"
 566      12D44A8B 
 566      6D3B5D0A 
 566      514CCA40 
 566      8BA1A5
 567 17b3 CBFABF89 		.ascii	"\313\372\277\211\203\333\022\375\035\334v\362m\371\305"
 567      83DB12FD 
 567      1DDC76F2 
 567      6DF9C5
 568 17c2 EFBF7DD7 		.ascii	"\357\277}\327e\343F\231\265\233\333\036O\037"
 568      65E34699 
 568      B59BDB1E 
 568      4F1F
 569 17d0 D5E64D6E 		.ascii	"\325\346Mn*o\347\335\276\336\012gw\037w\347\317|=\366"
 569      2A6FE7DD 
 569      BEDE0A67 
 569      771F77E7 
 569      CF7C3DF6 
 570 17e4 782B7C54 		.ascii	"x+|T\376\316\036\273=\375\326\371)}\327\371\303\363"
 570      FECE1EBB 
 570      3DFDD6F9 
 570      297DD7F9 
ARM GAS  /tmp/ccw31awu.s 			page 45


 570      C3F3
 571 17f6 5D1E1EEB 		.ascii	"]\036\036\353\334\225\336\353||}\024\353\024\356;<\327"
 571      DC95DEEB 
 571      7C7C7D14 
 571      EB14EE3B 
 571      3CD7
 572 1808 7DE0B665 		.ascii	"}\340\266e\335\246\015\033?\374a\263\263\336\003gO\037"
 572      DDA60D1B 
 572      3FFC61B3 
 572      B3DE0367 
 572      4F1F
 573 181a 0FAF3D3B 		.ascii	"\017\257=;\025\316\336\356\200\340\243pv\333\251\370"
 573      15CEDEEE 
 573      80E0A370 
 573      76DBA9F8 
 574 182a CE7D8F97 		.ascii	"\316}\217\227\312M\265\337O\341\277~\267\314R\253v\307"
 574      CA4DB5DF 
 574      4FE1BF7E 
 574      B7CC52AB 
 574      76C7
 575 183c 3F42ADFF 		.ascii	"?B\255\377~\177g7\177\325N\320\001\272\354\200\205+"
 575      7E7F6737 
 575      7FD54ED0 
 575      01BAEC80 
 575      852B
 576 184e 85F24777 		.ascii	"\205\362Gw/7\325\273\353\327;\263\377}\375\235\225*"
 576      2F37D5BB 
 576      EBD73BB3 
 576      FF7DFD9D 
 576      952A
 577 1860 5D1B8FDD 		.ascii	"]\033\217\335*Oo\005\210\277\255R\370\203\241\012\245"
 577      2A4F6F05 
 577      88BFAD52 
 577      F883A10A 
 577      A5
 578 1871 B7A78FBB 		.ascii	"\267\247\217\273J\341\246\332\255T\270\357\364\377\245"
 578      4AE1A6DA 
 578      AD54B8EF 
 578      F4FFA5
 579 1880 AE1D794E 		.ascii	"\256\035yNZ\372\373\356Qz(\264\254\033m\246\364\365"
 579      5AFAFBEE 
 579      517A28B4 
 579      AC1B6DA6 
 579      F4F5
 580 1892 55ADF790 		.ascii	"U\255\367\220\375\2142{\335=U\332\346\366\222;\236\036"
 580      FD8C327B 
 580      DD3D55DA 
 580      E6F6923B 
 580      9E1E
 581 18a4 DF5B814D 		.ascii	"\337[\201MD\237\233\312\336c\367\366\335;\267k\325Y"
 581      449F9BCA 
 581      DE63F7F6 
 581      DD3BB76B 
 581      D559
 582 18b6 82B4979F 		.ascii	"\202\264\227\237\322\323\327BE\376\272\251>\226\332"
 582      D2D3D742 
 582      45FEBAA9 
ARM GAS  /tmp/ccw31awu.s 			page 46


 582      3E96DA
 583 18c5 EBE1EBED 		.ascii	"\353\341\353\355\355\353\343\354\347\253\204(}\342\272"
 583      EDEBE3EC 
 583      E7AB8428 
 583      7DE2BA
 584 18d4 D565EB3E 		.ascii	"\325e\353>r\317\317\323K\241\364w\376\302\305\205\270"
 584      72CFCFD3 
 584      4BA1F477 
 584      FEC2C585 
 584      B8
 585 18e5 C1436CE1 		.ascii	"\301Cl\341\255\332\347\345\351\257\222\373(\366\251"
 585      ADDAE7E5 
 585      E9AF92FB 
 585      28F6A9
 586 18f4 CC7CF7FA 		.ascii	"\314|\367\372(\224f?\354Q\354Q\274\345\261[k\225\033"
 586      2894663F 
 586      EC51EC51 
 586      BCE5B15B 
 586      6B951B
 587 1907 BD21F753 		.ascii	"\275!\367S*~t\320\273\345\246\262\360\336\243R\354s"
 587      2A7E74D0 
 587      BBE5A6B2 
 587      F0DEA352 
 587      EC73
 588 1919 53598234 		.ascii	"SY\2024\275\264T\370)| \244\273l\024?B/y\273\373\177"
 588      BDB454F8 
 588      297C20A4 
 588      BB6C143F 
 588      422F79BB 
 589 192f 0F4FBDFD 		.ascii	"\017O\275\375w\321\006\026\3045x\350 \001'\332\355\245"
 589      77D10616 
 589      C43578E8 
 589      200127DA 
 589      EDA5
 590 1941 8C9B0AED 		.ascii	"\214\233\012\3551W\354%M\315\367\252\300>?\370\362W"
 590      3157EC25 
 590      4DCDF7AA 
 590      C03E3FF8 
 590      F257
 591 1953 78FB610F 		.ascii	"x\373a\017\037\225\225\233\033\317\011\013\376m\006"
 591      1F95959B 
 591      1BCF090B 
 591      FE6D06
 592 1962 77DD54B6 		.ascii	"w\335T\266\200\0102\356~\273}\225\012\013\177\242\332"
 592      800832EE 
 592      7EBB7D95 
 592      0A0B7FA2 
 592      DA
 593 1973 7F971910 		.ascii	"\177\227\031\020\010\354U\251\224~\253\230\0127\245"
 593      08EC55A9 
 593      947EAB98 
 593      0A37A5
 594 1982 E23B8552 		.ascii	"\342;\205R\341\343\001\306\003\254\357\216\277\371Y"
 594      E1E301C6 
 594      03ACEF8E 
 594      BFF959
 595 1991 2AF679AA 		.ascii	"*\366y\252<|w*\314\225;\367C\0139\210\370[\261\234\377"
ARM GAS  /tmp/ccw31awu.s 			page 47


 595      3C7C772A 
 595      CC953BF7 
 595      430B3988 
 595      F85BB19C 
 596 19a6 18F468BF 		.ascii	"\030\364h\277U\344>\300}\347\345\276\313\337B\345\015"
 596      55E43EC0 
 596      7DE7E5BE 
 596      CBDF42E5 
 596      0D
 597 19b7 2D80F357 		.ascii	"-\200\363W\221\376P\321/\002\351\276\303\335_\301G\314"
 597      91FE50D1 
 597      2F02E9BE 
 597      C3DD5FC1 
 597      47CC
 598 19c9 875BC077 		.ascii	"\207[\300w\355\205\265\277\352{w/\317]>n\252\177\377"
 598      ED85B5BF 
 598      EA7B772F 
 598      CF5D3E6E 
 598      AA7FFF
 599 19dc C9DEDAED 		.ascii	"\311\336\332\355\001n@\367\310}\334\275\025r\217\335"
 599      016E40F7 
 599      C87DDCBD 
 599      15728FDD 
 600 19ec EE4A335F 		.ascii	"\356J3_\257\235\3207>\212\275\012%\366P\355\023\374"
 600      AF9DD037 
 600      3E8ABD0A 
 600      25F650ED 
 600      13FC
 601 19fe FD042F25 		.ascii	"\375\004/%$\302.\310n7\025Vn\334\010\264AP\376JP~,("
 601      24C22EC8 
 601      6E371556 
 601      6EDC08B4 
 601      4150FE4A 
 602 1a16 3F12941F 		.ascii	"?\022\224\037\012\312\017\004\345\026\033\202L\202\006"
 602      0ACA0F04 
 602      E5161B82 
 602      4C8206
 603 1a25 8DD6BD9E 		.ascii	"\215\326\275\236b\267\037?\362\006\345\266\264\245\207"
 603      62B71F3F 
 603      F206E5B6 
 603      B4A587
 604 1a34 2F8C8A7D 		.ascii	"/\214\212}*9I4+]\277\231y\373\371\372zY\362\240\276"
 604      2A394934 
 604      2B5DBF99 
 604      79FBF9FA 
 604      7A59F2A0 
 605 1a49 62BCF87B 		.ascii	"b\274\370{\354\336\011X?7)\000\035\014\317\035M\003"
 605      ECDE0958 
 605      3F372900 
 605      1D0CCF1D 
 605      4D03
 606 1a5b C018E0C9 		.ascii	"\300\030\340\311j\032\004\272\036\236\377\233\351Q\313"
 606      6A1A04BA 
 606      1E9EFF9B 
 606      E951CB
 607 1a6a F20B64AC 		.ascii	"\362\013d\254\350H\372o\310Ckz\265\315K\241\360\263"
 607      E848FA6F 
ARM GAS  /tmp/ccw31awu.s 			page 48


 607      C8436B7A 
 607      B5CD4BA1 
 607      F0B3
 608 1a7c E0CF85BD 		.ascii	"\340\317\205\275\3566t\010\356\330\363\035\244\211\005"
 608      EE367408 
 608      EED8F31D 
 608      A48905
 609 1a8b ED2FC54E 		.ascii	"\355/\305N;\355\300\365\337\343\251RX\371+ \231!\203"
 609      3BEDC0F5 
 609      DFE3A952 
 609      58F92B20 
 609      992183
 610 1a9e FCCD3CA0 		.ascii	"\374\315<\240\257\375-U\012w\345N\030:f\376\012\325"
 610      AFFD2D55 
 610      0A77E54E 
 610      183A66FE 
 610      0AD5
 611 1ab0 1E3F0BC5 		.ascii	"\036?\013\305>\205\007\014\205\265\372\245\300\313s"
 611      3E85070C 
 611      85B5FAA5 
 611      C0CB73
 612 1abf 8733891E 		.ascii	"\2073\211\036\\\203\025\326\344\233\264\206\241M.\265"
 612      5C8315D6 
 612      E49BB486 
 612      A14D2EB5 
 613 1acf 906E2AAA 		.ascii	"\220n*\252\237\352qS\255\326\323\353\346\256T\272\357"
 613      9FEA7153 
 613      ADD6D3EB 
 613      E6AE54BA 
 613      EF
 614 1ae0 5FA3BBA7 		.ascii	"_\243\273\247m\262a\303\306-\257Uv\244-\300\006cH\233"
 614      6DB261C3 
 614      C62DAF55 
 614      76A42DC0 
 614      0663489B 
 615 1af4 DE186993 		.ascii	"\336\030i\223\011\244\315o\214\264\331\004\322\2267"
 615      09A4CD6F 
 615      8CB4D904 
 615      D29637
 616 1b03 46DA6202 		.ascii	"F\332b\002\351\2037F\372\300\004\322\207o\214\364\241"
 616      E9833746 
 616      FAC004D2 
 616      876F8CF4 
 616      A1
 617 1b14 09A48FDE 		.ascii	"\011\244\217\336\030\351#\023H\037\2771\322\307&\220"
 617      18E92313 
 617      481FBF31 
 617      D2C72690 
 618 1b24 7EF5C648 		.ascii	"~\365\306H\2772\216\264q\303\233\"m\334\000Hf..[]7\013"
 618      BF328EB4 
 618      71C39B22 
 618      6DDC0048 
 618      662E2E5B 
 619 1b3b 7F70957F 		.ascii	"\177p\225\177\266\365\023W\374\231\213\253\374\323\317"
 619      B6F51357 
 619      FC998BAB 
 619      FCD3CF
ARM GAS  /tmp/ccw31awu.s 			page 49


 620 1b4a B6BB6217 		.ascii	"\266\273b\027\027W\354\012\364\211\253+\376f\233\013"
 620      1757EC0A 
 620      F489AB2B 
 620      FE669B0B 
 621 1b5a 76F9FD76 		.ascii	"v\371\375v\271\213\313\347\256T~\023\375\273\021\177"
 621      B98BCBE7 
 621      AE547E13 
 621      FDBB117F 
 622 1b6a FE85ABB0 		.ascii	"\376\205\253\260\015Z~\371\271\253|\333V\220vq\335\004"
 622      0D5A7EF9 
 622      B9AB7CDB 
 622      56907671 
 622      DD04
 623 1b7c B41124FF 		.ascii	"\264\021$\377\344\272IZ!v\273{\361\352\267m\373\326"
 623      E4BA495A 
 623      2176BB7B 
 623      F1EAB76D 
 623      FBD6
 624 1b8e CD9B9CBF 		.ascii	"\315\233\234\277\376\3723\347\355_n\375q\2433\254(\310"
 624      FEFA33E7 
 624      ED5F6EFD 
 624      71A333AC 
 624      28C8
 625 1ba0 D4E2498A 		.ascii	"\324\342I\212\212\215\216qS\375\314c\367\037\267\177"
 625      8A8D8E71 
 625      53FDCC63 
 625      F71FB77F 
 626 1bb0 A1506D83 		.ascii	"\241Pm\203\232\244\360\336\016S\363\277\232,9?\252X"
 626      9AA4F0DE 
 626      0E53F3BF 
 626      9A2C393F 
 626      AA58
 627 1bc2 B501D9AF 		.ascii	"\265\001\331\257}=\276\177E\355\332O\353\022-\266^ "
 627      7D3DBE7F 
 627      45EDDA4F 
 627      EB122DB6 
 627      5E20
 628 1bd4 69E706F1 		.ascii	"i\347\006\361P\271}\372\311\266\317\277q\375\322\316"
 628      50B97DFA 
 628      C9B6CFBF 
 628      71FDD2CE 
 629 1be4 DD6BAFFB 		.ascii	"\335k\257\373~\177(\340^\260F\372\265\221\002\016\305"
 629      7E7F28E0 
 629      5EB046FA 
 629      B591020E 
 629      C5
 630 1bf5 99946F67 		.ascii	"\231\224og\227\255\333\276\334\346\354\002\365\333\371"
 630      97ADDBBE 
 630      DCE6EC02 
 630      F5DBF9
 631 1c04 4B2DB8B7 		.ascii	"K-\270\267\277\247\277\033\254\215@\301\252\025\266"
 631      BFA7BF1B 
 631      AC8D40C1 
 631      AA15B6
 632 1c13 FF6935D5 		.ascii	"\377i5\325IV\030J\267]\012v\345\374\232S\004mE`\241"
 632      4956184A 
 632      B75D0A76 
ARM GAS  /tmp/ccw31awu.s 			page 50


 632      E5FC9A53 
 632      046D4560 
 633 1c28 FBBCBC76 		.ascii	"\373\274\274v\322\366\036\276{\310\012j\363\353\005"
 633      D2F61EBE 
 633      7BC80A6A 
 633      F3EB05
 634 1c37 199EB8B1 		.ascii	"\031\236\270\261\306$\3124P\337\372\220\000\260\031"
 634      C624CA34 
 634      50DFFA90 
 634      00B019
 635 1c46 6B0FBDFE 		.ascii	"k\017\275\376\177PQ\021\203"
 635      7F505111 
 635      83
 636              		.text
 637              		.section	.gnu.lto_.symtab.6ead6df1db504aa8,"",%progbits
 638 0000 74657374 		.ascii	"test_terminate_threads\000"
 638      5F746572 
 638      6D696E61 
 638      74655F74 
 638      68726561 
 639 0017 00       		.ascii	"\000"
 640 0018 00       		.ascii	"\000"
 641 0019 00       		.ascii	"\000"
 642 001a 00000000 		.ascii	"\000\000\000\000\000\000\000\000"
 642      00000000 
 643 0022 B8000000 		.ascii	"\270\000\000\000"
 644 0026 74687265 		.ascii	"threads\000"
 644      61647300 
 645 002e 00       		.ascii	"\000"
 646 002f 00       		.ascii	"\000"
 647 0030 00       		.ascii	"\000"
 648 0031 00000000 		.ascii	"\000\000\000\000\000\000\000\000"
 648      00000000 
 649 0039 9C010000 		.ascii	"\234\001\000\000"
 650 003d 74657374 		.ascii	"test_wait_threads\000"
 650      5F776169 
 650      745F7468 
 650      72656164 
 650      7300
 651 004f 00       		.ascii	"\000"
 652 0050 00       		.ascii	"\000"
 653 0051 00       		.ascii	"\000"
 654 0052 00000000 		.ascii	"\000\000\000\000\000\000\000\000"
 654      00000000 
 655 005a BA000000 		.ascii	"\272\000\000\000"
 656 005e 74657374 		.ascii	"test_wait_tick\000"
 656      5F776169 
 656      745F7469 
 656      636B00
 657 006d 00       		.ascii	"\000"
 658 006e 00       		.ascii	"\000"
 659 006f 00       		.ascii	"\000"
 660 0070 00000000 		.ascii	"\000\000\000\000\000\000\000\000"
 660      00000000 
 661 0078 C0000000 		.ascii	"\300\000\000\000"
 662 007c 776100   		.ascii	"wa\000"
 663 007f 00       		.ascii	"\000"
ARM GAS  /tmp/ccw31awu.s 			page 51


 664 0080 00       		.ascii	"\000"
 665 0081 00       		.ascii	"\000"
 666 0082 00000000 		.ascii	"\000\000\000\000\000\000\000\000"
 666      00000000 
 667 008a A1010000 		.ascii	"\241\001\000\000"
 668 008e 74657374 		.ascii	"test_buffer\000"
 668      5F627566 
 668      66657200 
 669 009a 00       		.ascii	"\000"
 670 009b 00       		.ascii	"\000"
 671 009c 00       		.ascii	"\000"
 672 009d 00000000 		.ascii	"\000\000\000\000\000\000\000\000"
 672      00000000 
 673 00a5 AC010000 		.ascii	"\254\001\000\000"
 674 00a9 72745F74 		.ascii	"rt_test_suite\000"
 674      6573745F 
 674      73756974 
 674      6500
 675 00b7 00       		.ascii	"\000"
 676 00b8 00       		.ascii	"\000"
 677 00b9 00       		.ascii	"\000"
 678 00ba 00000000 		.ascii	"\000\000\000\000\000\000\000\000"
 678      00000000 
 679 00c2 D4010000 		.ascii	"\324\001\000\000"
 680 00c6 72745F74 		.ascii	"rt_test_suite_array\000"
 680      6573745F 
 680      73756974 
 680      655F6172 
 680      72617900 
 681 00da 00       		.ascii	"\000"
 682 00db 00       		.ascii	"\000"
 683 00dc 00       		.ascii	"\000"
 684 00dd 00000000 		.ascii	"\000\000\000\000\000\000\000\000"
 684      00000000 
 685 00e5 DC010000 		.ascii	"\334\001\000\000"
 686 00e9 72745F74 		.ascii	"rt_test_sequence_001\000"
 686      6573745F 
 686      73657175 
 686      656E6365 
 686      5F303031 
 687 00fe 00       		.ascii	"\000"
 688 00ff 02       		.ascii	"\002"
 689 0100 00       		.ascii	"\000"
 690 0101 00000000 		.ascii	"\000\000\000\000\000\000\000\000"
 690      00000000 
 691 0109 DE010000 		.ascii	"\336\001\000\000"
 692 010d 72745F74 		.ascii	"rt_test_sequence_002\000"
 692      6573745F 
 692      73657175 
 692      656E6365 
 692      5F303032 
 693 0122 00       		.ascii	"\000"
 694 0123 02       		.ascii	"\002"
 695 0124 00       		.ascii	"\000"
 696 0125 00000000 		.ascii	"\000\000\000\000\000\000\000\000"
 696      00000000 
 697 012d E0010000 		.ascii	"\340\001\000\000"
ARM GAS  /tmp/ccw31awu.s 			page 52


 698 0131 72745F74 		.ascii	"rt_test_sequence_003\000"
 698      6573745F 
 698      73657175 
 698      656E6365 
 698      5F303033 
 699 0146 00       		.ascii	"\000"
 700 0147 02       		.ascii	"\002"
 701 0148 00       		.ascii	"\000"
 702 0149 00000000 		.ascii	"\000\000\000\000\000\000\000\000"
 702      00000000 
 703 0151 E2010000 		.ascii	"\342\001\000\000"
 704 0155 72745F74 		.ascii	"rt_test_sequence_004\000"
 704      6573745F 
 704      73657175 
 704      656E6365 
 704      5F303034 
 705 016a 00       		.ascii	"\000"
 706 016b 02       		.ascii	"\002"
 707 016c 00       		.ascii	"\000"
 708 016d 00000000 		.ascii	"\000\000\000\000\000\000\000\000"
 708      00000000 
 709 0175 E4010000 		.ascii	"\344\001\000\000"
 710 0179 72745F74 		.ascii	"rt_test_sequence_005\000"
 710      6573745F 
 710      73657175 
 710      656E6365 
 710      5F303035 
 711 018e 00       		.ascii	"\000"
 712 018f 02       		.ascii	"\002"
 713 0190 00       		.ascii	"\000"
 714 0191 00000000 		.ascii	"\000\000\000\000\000\000\000\000"
 714      00000000 
 715 0199 E6010000 		.ascii	"\346\001\000\000"
 716 019d 72745F74 		.ascii	"rt_test_sequence_006\000"
 716      6573745F 
 716      73657175 
 716      656E6365 
 716      5F303036 
 717 01b2 00       		.ascii	"\000"
 718 01b3 02       		.ascii	"\002"
 719 01b4 00       		.ascii	"\000"
 720 01b5 00000000 		.ascii	"\000\000\000\000\000\000\000\000"
 720      00000000 
 721 01bd E8010000 		.ascii	"\350\001\000\000"
 722 01c1 72745F74 		.ascii	"rt_test_sequence_007\000"
 722      6573745F 
 722      73657175 
 722      656E6365 
 722      5F303037 
 723 01d6 00       		.ascii	"\000"
 724 01d7 02       		.ascii	"\002"
 725 01d8 00       		.ascii	"\000"
 726 01d9 00000000 		.ascii	"\000\000\000\000\000\000\000\000"
 726      00000000 
 727 01e1 EA010000 		.ascii	"\352\001\000\000"
 728 01e5 72745F74 		.ascii	"rt_test_sequence_008\000"
 728      6573745F 
ARM GAS  /tmp/ccw31awu.s 			page 53


 728      73657175 
 728      656E6365 
 728      5F303038 
 729 01fa 00       		.ascii	"\000"
 730 01fb 02       		.ascii	"\002"
 731 01fc 00       		.ascii	"\000"
 732 01fd 00000000 		.ascii	"\000\000\000\000\000\000\000\000"
 732      00000000 
 733 0205 EC010000 		.ascii	"\354\001\000\000"
 734 0209 72745F74 		.ascii	"rt_test_sequence_009\000"
 734      6573745F 
 734      73657175 
 734      656E6365 
 734      5F303039 
 735 021e 00       		.ascii	"\000"
 736 021f 02       		.ascii	"\002"
 737 0220 00       		.ascii	"\000"
 738 0221 00000000 		.ascii	"\000\000\000\000\000\000\000\000"
 738      00000000 
 739 0229 EE010000 		.ascii	"\356\001\000\000"
 740 022d 72745F74 		.ascii	"rt_test_sequence_010\000"
 740      6573745F 
 740      73657175 
 740      656E6365 
 740      5F303130 
 741 0242 00       		.ascii	"\000"
 742 0243 02       		.ascii	"\002"
 743 0244 00       		.ascii	"\000"
 744 0245 00000000 		.ascii	"\000\000\000\000\000\000\000\000"
 744      00000000 
 745 024d F0010000 		.ascii	"\360\001\000\000"
 746 0251 63685468 		.ascii	"chThdTerminate\000"
 746      64546572 
 746      6D696E61 
 746      746500
 747 0260 00       		.ascii	"\000"
 748 0261 02       		.ascii	"\002"
 749 0262 00       		.ascii	"\000"
 750 0263 00000000 		.ascii	"\000\000\000\000\000\000\000\000"
 750      00000000 
 751 026b 8E010000 		.ascii	"\216\001\000\000"
 752 026f 63685468 		.ascii	"chThdWait\000"
 752      64576169 
 752      7400
 753 0279 00       		.ascii	"\000"
 754 027a 02       		.ascii	"\002"
 755 027b 00       		.ascii	"\000"
 756 027c 00000000 		.ascii	"\000\000\000\000\000\000\000\000"
 756      00000000 
 757 0284 92010000 		.ascii	"\222\001\000\000"
 758 0288 63685468 		.ascii	"chThdSleep\000"
 758      64536C65 
 758      657000
 759 0293 00       		.ascii	"\000"
 760 0294 02       		.ascii	"\002"
 761 0295 00       		.ascii	"\000"
 762 0296 00000000 		.ascii	"\000\000\000\000\000\000\000\000"
ARM GAS  /tmp/ccw31awu.s 			page 54


 762      00000000 
 763 029e 96010000 		.ascii	"\226\001\000\000"
 764              		.text
 765              		.section	.gnu.lto_.opts,"",%progbits
 766 0000 272D666D 		.ascii	"'-fmath-errno' '-fsigned-zeros' '-ftrapping-math' '"
 766      6174682D 
 766      6572726E 
 766      6F272027 
 766      2D667369 
 767 0033 2D666E6F 		.ascii	"-fno-trapv' '-fno-openmp' '-fno-openacc' '-mcpu=cor"
 767      2D747261 
 767      70762720 
 767      272D666E 
 767      6F2D6F70 
 768 0066 7465782D 		.ascii	"tex-m4' '-mthumb' '-ggdb' '-O2' '-fomit-frame-point"
 768      6D342720 
 768      272D6D74 
 768      68756D62 
 768      2720272D 
 769 0099 65722720 		.ascii	"er' '-falign-functions=16' '-ffunction-sections' '-"
 769      272D6661 
 769      6C69676E 
 769      2D66756E 
 769      6374696F 
 770 00cc 66646174 		.ascii	"fdata-sections' '-fno-common' '-flto'\000"
 770      612D7365 
 770      6374696F 
 770      6E732720 
 770      272D666E 
 771              		.text
 772              		.comm	__gnu_lto_v1,1,1
 773              		.comm	__gnu_lto_slim,1,1
 774              		.ident	"GCC: (GNU Tools for ARM Embedded Processors) 5.4.1 20160919 (release) [ARM/embedded-5-bran
ARM GAS  /tmp/ccw31awu.s 			page 55


DEFINED SYMBOLS
                            *ABS*:00000000 rt_test_root.c
                            *COM*:00000001 __gnu_lto_v1
                            *COM*:00000001 __gnu_lto_slim

NO UNDEFINED SYMBOLS
