ARM GAS  /tmp/ccWCK3xB.s 			page 1


   1              		.syntax unified
   2              		.cpu cortex-m4
   3              		.fpu softvfp
   4              		.eabi_attribute 20, 1
   5              		.eabi_attribute 21, 1
   6              		.eabi_attribute 23, 3
   7              		.eabi_attribute 24, 1
   8              		.eabi_attribute 25, 1
   9              		.eabi_attribute 26, 1
  10              		.eabi_attribute 30, 2
  11              		.eabi_attribute 34, 1
  12              		.eabi_attribute 18, 4
  13              		.thumb
  14              		.syntax unified
  15              		.file	"rt_test_sequence_001.c"
  16              		.text
  17              	.Ltext0:
  18              		.section	.gnu.lto_.profile.2b3accfbf533effa,"",%progbits
  19 0000 789C6361 		.ascii	"x\234ca`d`c`\000\222S\371\3161\001\000\004\260\001\200"
  19      60646063 
  19      60009253 
  19      F9CE3101 
  19      0004B001 
  20              		.text
  21              		.section	.gnu.lto_.icf.2b3accfbf533effa,"",%progbits
  22 0000 789C6361 		.ascii	"x\234ca`d\000\001#\006\004\340`\270\365v\365b^\246\355"
  22      60640001 
  22      230604E0 
  22      60B8F576 
  22      F5625EA6 
  23 0015 73A6F6B2 		.ascii	"s\246\366\2621o\377\263\344<;K\317\365\217\273\371X"
  23      316FFFB3 
  23      E43C3B4B 
  23      CFF58FBB 
  23      F958
  24 0027 BB0F6E7D 		.ascii	"\273\017n}\315\310vr\371\203-<\354\257\373\276L\346"
  24      CDC87672 
  24      F9832D3C 
  24      ECAFFBBE 
  24      4CE6
  25 0039 E358BFF5 		.ascii	"\343X\277\365\353'~\006\000q\004\030\257"
  25      EB277E06 
  25      00710418 
  25      AF
  26              		.text
  27              		.section	.gnu.lto_.jmpfuncs.2b3accfbf533effa,"",%progbits
  28 0000 789C9598 		.ascii	"x\234\225\230kLSi\032\307{Z\344&\212;\223\375\260\233"
  28      6B4C5369 
  28      1AC77B5A 
  28      E4268A3B 
  28      93FDB09B 
  29 0014 CDA6EFB7 		.ascii	"\315\246\357\267\365\003\216\316:nt\222Mj9@W\3322m\321"
  29      F5038ECE 
  29      3A6E7492 
  29      4D6A3940 
  29      57DA326D 
  30 0029 71369BA6 		.ascii	"q6\233\246JwdE\330t\320\354\267)rs@ADQ\306\013\336P"
ARM GAS  /tmp/ccWCK3xB.s 			page 2


  30      4A776445 
  30      D874D0EC 
  30      B7297273 
  30      40414451 
  31 0041 41140519 		.ascii	"A\024\005\031@n\"\367\2132\012\202\002\202\250\250 "
  31      406E22F7 
  31      8B320A82 
  31      0282A8A8 
  31      20
  32 0052 82080372 		.ascii	"\202\010\003r\337\323\247\205>\330\267\300!11\370\377"
  32      DFD3A785 
  32      3ED8B7C0 
  32      213131F8 
  32      FF
  33 0063 BDBFE779 		.ascii	"\275\277\347yo\347\034\035\004\214\300\364\243\373\203"
  33      6FE71C1D 
  33      048CC0F4 
  33      A3FB83
  34 0072 40D0E102 		.ascii	"@\320\341\002\177\025\210\270?BfJ\310\344\354\277R\351"
  34      7F1588B8 
  34      3F42664A 
  34      C8E4ECBF 
  34      52E9
  35 0084 489814E3 		.ascii	"H\230\024\343\011q$\367K\3567WsZ\2169\3758e<a4\256\212"
  35      097124F7 
  35      4BEE3757 
  35      735A8E39 
  35      FD38653C 
  36 009c 1431CC65 		.ascii	"\0241\314e\206\010\004\314\025\346G\001\343`f\222\""
  36      860804CC 
  36      15E64701 
  36      E3606692 
  36      22
  37 00ad EF36380D 		.ascii	"\35768\015\013#EBF\300\2441\177\262\014\025{#6\321\205"
  37      0B234542 
  37      46C0A431 
  37      7FB20C15 
  37      7B2336D1 
  38 00c2 88CC4389 		.ascii	"\210\314C\211LC\215<\255\355[67\224\003\223\016C]EC"
  38      4C438D3C 
  38      ADED5B36 
  38      37940393 
  38      0E435D45 
  39 00d7 2DAECF00 		.ascii	"-\256\317\000\346\332,\203|e\341\3572\034\210\007\362"
  39      E6DA2C83 
  39      7C65E1EF 
  39      321C8807 
  39      F2
  40 00e8 9D8B3B51 		.ascii	"\235\213;Q\346\214|\327\201\315\344\345\273\001\314"
  40      E68C7CD7 
  40      81CDE4E5 
  40      BB01CC
  41 00f7 4D8AAF77 		.ascii	"M\212\257w`\364\262\033\331\206|%\307o]sD\276,`\263"
  41      60F4B21B 
  41      D9867C25 
  41      C76F5D73 
  41      44BE2C60 
ARM GAS  /tmp/ccWCK3xB.s 			page 3


  42 010c 79F96E01 		.ascii	"y\371n\001\223\203\230\241\324S\307\235\315\323kd\230"
  42      938398A1 
  42      D453C79D 
  42      CDD36B64 
  42      98
  43 011d 5FE6FC47 		.ascii	"_\346\374G/\214g\210H\030\203\012x\232\364v\302\015"
  43      2F8C6788 
  43      4818830A 
  43      789AF476 
  43      C20D
  44 012f 15900B83 		.ascii	"\025\220\013\203\345\361* \037\230\333\210i\014/o\020"
  44      E5F12A20 
  44      1F98DB88 
  44      690C2F6F 
  44      10
  45 0140 990B9861 		.ascii	"\231\013\230a\230\202\271\002j.\034\233d\310U\\@v\372"
  45      9882B902 
  45      6A2E1C9B 
  45      64C8555C 
  45      4076FA
  46 0153 B52C3CE3 		.ascii	"\265,<\343\2050X\021\257\002\212\201)\241\314\370\265"
  46      85305811 
  46      AF028A81 
  46      29A1CCF8 
  46      B5
  47 0164 A68B4745 		.ascii	"\246\213GE\344\021\026\336J\216\212\301[\352\016\300"
  47      E41116DE 
  47      4A8E8AC1 
  47      5BEA0EC0 
  48 0174 A5BC8477 		.ascii	"\245\274\204w\201)\243-\361de\261\003\231\301\302\343"
  48      8129A32D 
  48      F16465B1 
  48      0399C1C2 
  48      E3
  49 0185 A351530E 		.ascii	"\243QS\016HX\016p\005/a%0U\024\241\321\330V\344F\322"
  49      48580E70 
  49      052F6125 
  49      305514A1 
  49      D1D856E4 
  50 019b 8448385D 		.ascii	"\204H8]\224\372q9\022V\003\\\303KX\013L\035E\370\256"
  50      94FA7139 
  50      1256035C 
  50      C34B580B 
  50      4C1D45F8 
  51 01b0 E9FC880B 		.ascii	"\351\374\210\013i\304\302\003\3717\037\273\"a=\300\367"
  51      69C4C203 
  51      F9371FBB 
  51      22613DC0 
  51      F7
  52 01c1 7809EF03 		.ascii	"x\011\357\003\323\200\231\350\372\233\256\346M\3040"
  52      D38099E8 
  52      FA9BAEE6 
  52      4DC430
  53 01d0 BFCEF9BB 		.ascii	"\277\316\371\273/4t.#S\330\337\321\327~\311\011\371"
  53      2F34742E 
  53      2353D8DF 
  53      D1D77EC9 
ARM GAS  /tmp/ccWCK3xB.s 			page 4


  53      09F9
  54 01e2 1FC0580F 		.ascii	"\037\300X\017y\371\033\201i\232k\330*<\024\367\252\332"
  54      79F91B81 
  54      699A6BD8 
  54      2A3C14F7 
  54      AADA
  55 01f4 955CC6D7 		.ascii	"\225\\\306\327\322\375\264W\031\356H\370\010\340f^\302"
  55      D2FDB457 
  55      19EE48F8 
  55      08E0665E 
  55      C2
  56 0205 16601E53 		.ascii	"\026`\036S\204\245\327\333zW\220\007Xx%\242px%\022>"
  56      84A5D7DB 
  56      7A579007 
  56      587825A2 
  56      70782512 
  57 021a 01B89597 		.ascii	"\001\270\225\227\260\015\230v\212\360rwu\237\033\231"
  57      B00D9876 
  57      8AF07277 
  57      759F1B99 
  58 022a C0C28137 		.ascii	"\300\302\2017\027s\361\261|\012p\007/a'0\317(\302\263"
  58      1773F1B1 
  58      7C0A7007 
  58      2F612730 
  58      CF28C2B3 
  59 023e 61B951AE 		.ascii	"a\271Q\256$\325\001\011_\366\2759\205;\354\002\3709"
  59      24D50109 
  59      5FF6BD39 
  59      853BEC02 
  59      F839
  60 0250 2FE10B60 		.ascii	"/\341\013`^\"&f\274%\316r\023:3\335\326{\250\351\344"
  60      5E222666 
  60      BC25CE72 
  60      133A33DD 
  60      D67BA8E9 
  61 0265 A81369C0 		.ascii	"\250\023i\300\376\250\256\304l\274\244\257`\254\327"
  61      FEA8AEC4 
  61      6CBCA4AF 
  61      60ACD7
  62 0274 BCFC6F80 		.ascii	"\274\374o\200\351\2414<\372\270\252\330\215\214aaI\370"
  62      E9A1343C 
  62      FAB8AAD8 
  62      8D8C6161 
  62      49F8
  63 0286 CBD3F8EA 		.ascii	"\313\323\370\352\357\005\370-/a\0370\357(\302sqiE\""
  63      EF05F82D 
  63      2F611F30 
  63      EF28C273 
  63      71694522 
  64 029a 7261193E 		.ascii	"ra\031>\245q\357S\031$\354\007x\200\227\360=0\203\024"
  64      A571EF53 
  64      1924EC07 
  64      788097F0 
  64      3D308314 
  65 02ae E1FB87D1 		.ascii	"\341\373\207\321\271\256\344\036\026\366\024\266&\343"
  65      B9AEE41E 
  65      16F614B6 
ARM GAS  /tmp/ccWCK3xB.s 			page 5


  65      26E3
  66 02bc 7BE803C0 		.ascii	"{\350\003\300C\274\204\303\300\374F\021N\036\211-p#"
  66      43BC84C3 
  66      C0FC4611 
  66      4E1E892D 
  66      7023
  67 02ce A3587866 		.ascii	"\243Xxf\344\366m\274iG\000\036\345%\374\010\314\030"
  67      E4F66DBC 
  67      6947001E 
  67      E525FC08 
  67      CC18
  68 02e0 45D8D6F7 		.ascii	"E\330\326\367:\306\221\234sD\302\363\275\261\343\370"
  68      3AC6919C 
  68      7344C2F3 
  68      BDB1E3F8 
  69 02f0 59320EF0 		.ascii	"Y2\016\360\004/\341$0S\024\341\335\314\322zWR\207\205"
  69      042FE124 
  69      305314E1 
  69      DDCCD27A 
  69      57528785 
  70 0304 F9C9A959 		.ascii	"\371\311\251Yx\015\247\001\236\341%4\012ML\230\320V"
  70      780DA701 
  70      9EE12534 
  70      0A4D4C98 
  70      D056
  71 0316 F8286364 		.ascii	"\370(cdFH~\303\302\311\202\301\363+\220p?\300\341B>"
  71      46487EC3 
  71      C2C982C1 
  71      F32B9070 
  71      3FC0E142 
  72 032b C2086022 		.ascii	"\302\010`\"\205\266\317\222\234\2103\375n$\305\011\011"
  72      85B6CF92 
  72      9C8833FD 
  72      6E24C509 
  72      09
  73 033c E30F3F1B 		.ascii	"\343\017?\033\020\"a\024\300\321\274\204\007\200\371"
  73      10226114 
  73      C0D1BC84 
  73      0780F9
  74 034b 89D261E7 		.ascii	"\211\322a\347x\333jR\203}I\315-\235\270\301\030`cy\371"
  74      78DB6A52 
  74      837D49CD 
  74      2D9DB8C1 
  74      18606379 
  75 0360 0E027388 		.ascii	"\016\002s\210\342;\026\223\035\353H\206\2600\345\334"
  75      E23B1693 
  75      1DEB4886 
  75      B030E5DC 
  76 0370 99692C8C 		.ascii	"\231i,\214\0038\236\227\36000\011\024\341\325\344\356"
  76      03389E97 
  76      F0303009 
  76      14E1D5E4 
  76      EE
  77 0381 4BEEE4B4 		.ascii	"K\356\344\2643\022\266t\366\337\302\357\037G\000N\344"
  77      3312B674 
  77      F6DFC2EF 
  77      1F47004E 
ARM GAS  /tmp/ccWCK3xB.s 			page 6


  77      E4
  78 0392 253C0ACC 		.ascii	"%<\012\3141\212\360FE\355\230#\251\302\302\274\302\226"
  78      318AF046 
  78      45ED9823 
  78      A9C2C2BC 
  78      C296
  79 03a4 61DC6112 		.ascii	"a\334a\022\300\307y\011O\000\223L\021\026\214\307U\272"
  79      C0C77909 
  79      4F00934C 
  79      11168CC7 
  79      55BA
  80 03b6 90412C8C 		.ascii	"\220A,\214(\276\367G\344\373\031\330\223\274|\247\200"
  80      28BEF747 
  80      E4FB19D8 
  80      93BC7CA7 
  80      80
  81 03c7 394DDBA3 		.ascii	"9M\333\243\205\015\227E\344\244\013\362\365u\335\374"
  81      850D9745 
  81      E4A40BF2 
  81      F575DDFC 
  82 03d7 33F29D01 		.ascii	"3\362\235\0016\205\227\357,0\347(\375\325\376\\9$$\025"
  82      368597EF 
  82      2C30E728 
  82      FDD5FE5C 
  82      39242415 
  83 03eb D817379A 		.ascii	"\330\0277\232X\201_\322\317\003|\201\227\360\"0\251"
  83      58815FD2 
  83      CF037C81 
  83      97F02230 
  83      A9
  84 03fc 9406EBEB 		.ascii	"\224\006\353\353\222*Dd\000\013\223\007\343k\361Ez\011"
  84      922A4464 
  84      000B9307 
  84      E36BF145 
  84      7A09
  85 040e E0CBBC84 		.ascii	"\340\313\274\204W\200I\243th<\232\337!$\311\256Hh|Z"
  85      578049A3 
  85      74683C9A 
  85      DF2124C9 
  85      AE48687C 
  86 0423 53849FBE 		.ascii	"S\204\237\276\351\000_\345%\314\000\346\032E8^\3238"
  86      E9005FE5 
  86      25CC00E6 
  86      1A45385E 
  86      D338
  87 0435 E046CAB0 		.ascii	"\340F\312\2600\246n\302\005\177\347\001\233\311\313"
  87      30A66EC2 
  87      057FE701 
  87      9BC9CB
  88 0444 7703989B 		.ascii	"w\003\230\233\024_vz[\247+y\207}\0373F\222q\203Y\000"
  88      145F767A 
  88      5BA72B79 
  88      877D1F33 
  88      46927183 
  89 045a 67F312DE 		.ascii	"g\363\022\336\002&\207\"\034\213\311\252\027\222\343"
  89      02268722 
  89      1C8BC9AA 
ARM GAS  /tmp/ccWCK3xB.s 			page 7


  89      1792E3
  90 0469 CB9130B1 		.ascii	"\313\2210\261\251\260\010\037\302_\000\316\345%\314"
  90      A9B0081F 
  90      C25F00CE 
  90      E525CC
  91 0478 03269F22 		.ascii	"\003&\237\",\276W\3605)\305\276W\021o\206\3607\300m"
  91      2CBE57F0 
  91      3529C5BE 
  91      57116F86 
  91      F037C06D 
  92 048c 600B78F9 		.ascii	"`\013x\371\012\201)\242\354\321\351\321\251\006\027"
  92      0A8129A2 
  92      ECD1E9D1 
  92      A90617
  93 049b F2160B0F 		.ascii	"\362\026\013\017\235\252(\304\017\212b\200Kx\011\357"
  93      9DAA28C4 
  93      0F8A6280 
  93      4B7809EF 
  94 04ab 00534A11 		.ascii	"\000SJ\021\206O\324\347\271\223cnx\313\344T\037\301"
  94      864FD4E7 
  94      B993636E 
  94      78CBE454 
  94      1FC1
  95 04bd A7F02EC0 		.ascii	"\247\360.\300e\274\204\345\300TP\204\021\227\012\273"
  95      65BC84E5 
  95      C0545084 
  95      11970ABB 
  96 04cd 9C490916 		.ascii	"\234I\011\026\356\037<\332\200\247\264\022\340*^\302"
  96      EE1F3CDA 
  96      80A7B412 
  96      E02A5EC2 
  97 04dd 6A606A10 		.ascii	"j`j\020S\230r0\315\362Y\305]6\302Y\377p\343\271\223"
  97      53987230 
  97      CDF259C5 
  97      5D36C259 
  97      FF70E3B9 
  98 04f2 AEA407FB 		.ascii	"\256\244\007\373\037\266\307\366\210\220\277\016\306"
  98      1FB6C7F6 
  98      8890BF0E 
  98      C6
  99 04ff AAE7E5BF 		.ascii	"\252\347\345\277\007\314}\304D\367\030\213\034\314~"
  99      07CC7DC4 
  99      44F7188B 
  99      1CCC7E
 100 050e 31D330E7 		.ascii	"1\3230\347\177\222\376\374\357$q\005>2\231#]\370\271"
 100      7F92FEFC 
 100      EF247105 
 100      3E329923 
 100      5DF8B9
 101 0521 F52B0CF5 		.ascii	"\365+\014\365\200\227\376!0\215s\363m\365\365U\235N"
 101      8097FE21 
 101      308D73F3 
 101      6DF5F555 
 101      9D4E
 102 0533 1192222C 		.ascii	"\021\222\",\354l:\233\207o\275&\200\037\361\0226\003"
 102      EC6C3A9B 
 102      876FBD26 
ARM GAS  /tmp/ccWCK3xB.s 			page 8


 102      801FF112 
 102      3603
 103 0545 D38298DA 		.ascii	"\323\202\230\332\252\204v\306\334\357\341\373\334\007"
 103      AA8476C6 
 103      DCEFE1FB 
 103      DC07
 104 0553 DF5C05C6 		.ascii	"\337\\\005\306\251G\345\216\3445\256 &!}\022\277\336"
 104      A947E58E 
 104      E435AE20 
 104      26217D12 
 104      BFDE
 105 0565 3D81D15A 		.ascii	"=\201\321ZyU\320\006L;\245\345\247'\313\275I\302J\374"
 105      7955D006 
 105      4C3BA5E5 
 105      A727CBBD 
 105      49C24AFC 
 106 0579 6A70A7E4 		.ascii	"jp\247\344k\374\221\007h\207\005]\362\377\357u\002\366"
 106      6BFC9107 
 106      6887055D 
 106      F2FFEF75 
 106      02F6
 107 058b 8CB2A98B 		.ascii	"\214\262\251\213\2473\257;\220\002\254\234\356\037\231"
 107      A733AF3B 
 107      9002AC9C 
 107      EE1F99
 108 059a C19BBA0B 		.ascii	"\301\233\272\013\340\347\274Z|\001\314K\212\260m\270"
 108      E0E7BC5A 
 108      7C01CC4B 
 108      8AB06DB8 
 109 05aa 2E887463 		.ascii	".\210tc_IRl.\366u\003\373\212\227\35750o\020\323}\245"
 109      5F49526C 
 109      2EF67503 
 109      FB8A97EF 
 109      35306F10 
 110 05c1 EC85E510 		.ascii	"\354\205\345\02092=s3\034\177\2623w\005\211w\307\357"
 110      39323D73 
 110      331C7FB2 
 110      33770589 
 110      77C7EF
 111 05d4 97B5E351 		.ascii	"\227\265\343QxI{a\254\267h\254\370\372\304r\027\222"
 111      78497B61 
 111      ACB768AC 
 111      F8FAC472 
 111      1792
 112 05e6 6F819699 		.ascii	"o\201\226\231\240\027M/\302\255;\321\221\351\003\350"
 112      A0174D2F 
 112      C2AD3BD1 
 112      91E903E8 
 113 05f6 1D823A92 		.ascii	"\035\202:\222\332K\226\223;\330\224\236\235\326\200"
 113      DA4B9693 
 113      3BD8949E 
 113      9DD680
 114 0605 BFA0FB01 		.ascii	"\277\240\373\001\032\340\325\351{`\006i\357y\2159/\205"
 114      1AE0D5E9 
 114      7B600669 
 114      EF798D39 
 114      2F85
ARM GAS  /tmp/ccWCK3xB.s 			page 9


 115 0617 A4170B07 		.ascii	"\244\027\013\007\243/D\342\003\372\001\340!$<Sq\360"
 115      A32F44E2 
 115      03FA01E0 
 115      21243C53 
 115      71F0
 116 0629 8E1339BA 		.ascii	"\216\0239\272\312\0149\301|L\266\247Y\037\204\316\334"
 116      CA0C39C1 
 116      7C4CB6A7 
 116      591F84CE 
 116      DC
 117 063a C9800F3C 		.ascii	"\311\200\017<3$Z\362\236\033\001lt\256P\353\267}c\305"
 117      33245AF2 
 117      9E1B016C 
 117      74AE50EB 
 117      B77D63C5 
 118 064e C5F065A4 		.ascii	"\305\360e\244z\025*\364qB\351\347\250\316\217\300\216"
 118      7A152AF4 
 118      7142E9E7 
 118      A8CE8FC0 
 118      8E
 119 065f F19A9871 		.ascii	"\361\232\230q`&(\276\244\234\207\017V\222\017\330\227"
 119      602628BE 
 119      A49C870F 
 119      56920FD8 
 119      97
 120 0670 F97A2613 		.ascii	"\371z&\023?)&\001\236\342%\234\006f\0061\245\317\262"
 120      3F292601 
 120      9EE2259C 
 120      06660631 
 120      A5CFB2
 121 0683 06979BF7 		.ascii	"\006\227\233\367\234\003c\024\315]dE\365\317W\222S\277"
 121      9C036314 
 121      CD5D6445 
 121      F5CF5792 
 121      53BF
 122 0695 43FED6F1 		.ascii	"C\376\326\361\244#\370\355&Ld\032k\277\310:V\177I\377"
 122      A423F8ED 
 122      264C641A 
 122      6BBFC83A 
 122      567F49FF 
 123 06a9 902BA9B4 		.ascii	"\220+\251\264@.&\250\177&\257\331\2720\256L8@\021\010"
 123      402E26A8 
 123      7F26AFD9 
 123      BA30AE4C 
 123      38401108 
 124 06bd 1A1F4CB9 		.ascii	"\032\037L\271\341@\332\261\351\301\343\266\010\274\347"
 124      E140DAB1 
 124      E9C1E3B6 
 124      08BCE7
 125 06cc 22018A42 		.ascii	"\"\001\212BP\353Pj\012C\242>3C\313a9\016\2455[!7&\032"
 125      50EB506A 
 125      0A43A23E 
 125      3343CB61 
 125      390EA535 
 126 06e5 A00308CA 		.ascii	"\240\003\010\312l\256\310r'\365\237!\323X\\\356\014"
 126      6CAEC872 
 126      27F59F21 
ARM GAS  /tmp/ccWCK3xB.s 			page 10


 126      D3585CEE 
 126      0C
 127 06f6 7E81FA09 		.ascii	"~\201\372\011\240\030\004\335\217\257\361##\026f\205"
 127      A01804DD 
 127      8FAFF123 
 127      23166685 
 128 0706 89A9E92E 		.ascii	"\211\251\351.\215\265\376\027\313J&\026\230\203\210"
 128      8DB5FE17 
 128      CB4A2616 
 128      988388
 129 0715 799B927D 		.ascii	"y\233\222}\211!a\237\343c\364</\014_\030\207\000\212"
 129      8921619F 
 129      E363F43C 
 129      2F0C5F18 
 129      87008A
 130 0728 43D0F984 		.ascii	"C\320\371\204\214\017\014\271j\201\334M\320\341\206"
 130      8C0F0CB9 
 130      6A81DC4D 
 130      D0E186
 131 0737 FA2756D3 		.ascii	"\372'V\323*&\036\240\303\010\272y\276\262\322\231\344"
 131      2A261EA0 
 131      C308BA79 
 131      BEB2D299 
 131      E4
 132 0748 60537169 		.ascii	"`Sqig+~\336$\000t\304\014\011\030\301j\017\017\017\261"
 132      672B7EDE 
 132      240074C4 
 132      0C0918C1 
 132      6A0F0F0F 
 133 075d D447EBB9 		.ascii	"\324G\353\271\331[\253\361Q\261\022O\265\326O\245\364"
 133      D95BABF1 
 133      51B1124F 
 133      B5D64FA5 
 133      F4
 134 076e 92F9CA14 		.ascii	"\222\371\312\024\336\233\304\326\237yI\356\237}g\343"
 134      DE9BC4D6 
 134      9F7949EE 
 134      9F7D67E3 
 135 077e 38649B64 		.ascii	"8d\233d\025\222\315\276\254V\255\221H\267h\245>\254"
 135      1592CDBE 
 135      AC56AD91 
 135      48B768A5 
 135      3EAC
 136 0790 74CB263B 		.ascii	"t\313&;I\215J\"e\265\233\375\275\274X\225V-\373\216"
 136      498D4A22 
 136      65B59BFD 
 136      BDBC5895 
 136      562DFB8E 
 137 07a4 B56B3727 		.ascii	"\265k7'\345\022\365\026\0337\335.Q\253Y\225\346\323"
 137      E512F516 
 137      1B37DD2E 
 137      51AB5995 
 137      E6D3
 138 07b6 4A6949A8 		.ascii	"JiI\250\320\246\245yI\365v\265\206\225\233:\322\260"
 138      D0A6A579 
 138      49F576B5 
 138      86959B3A 
ARM GAS  /tmp/ccWCK3xB.s 			page 11


 138      D2B0
 139 07c8 0B77648A 		.ascii	"\013wd\212\310\324\032\231"
 139      C8D41A99 
 140 07d0 D4768E50 		.ascii	"\324v\216PR\352\305\315\247D\252Q\252\266k\225\233\377"
 140      52EAC5CD 
 140      A744AA51 
 140      AAB66B95 
 140      9BFF
 141 07e2 C1CDAD97 		.ascii	"\301\315\255\227RM\355\035'\345\022\231\357f\345\267"
 141      524DED1D 
 141      27E51299 
 141      EF66E5B7 
 142 07f2 ECE24935 		.ascii	"\354\342I5+\227\370\371(U\363\242\324\2447\253`U2\251"
 142      2B97F8F9 
 142      2855F3A2 
 142      D4A437AB 
 142      605532A9 
 143 0806 650D2C71 		.ascii	"e\015,q{u\262R\215Z\253b\275\271\006U\3337-P\347\267"
 143      7B75B252 
 143      8D5AAB62 
 143      BDB90655 
 143      DB372D50 
 144 081c 5A8544CE 		.ascii	"Z\205D\316\252\265\276\254\302[\343c\233\364W\263\263"
 144      AAB5BEAC 
 144      C25BE363 
 144      9BF457B3 
 144      B3
 145 082d 69DB69B2 		.ascii	"i\333i\262Izn\347F\223I\227\220\244\316%5)g\345~J\245"
 145      497A6EE7 
 145      46934997 
 145      90A4CE25 
 145      352967E5 
 146 0844 EF023B79 		.ascii	"\357\002;y6\351\303J\374(kI\037S\312\315\371\022\352"
 146      36E9C34A 
 146      FC286B49 
 146      1F53CACD 
 146      F912EA
 147 0857 A4AEA49D 		.ascii	"\244\256\244\2351\325j\2117k:\2402\245J\246\231\233"
 147      31D56A89 
 147      376B3AA0 
 147      32A54AA6 
 147      999B
 148 0869 2FBBC9C5 		.ascii	"/\273\311\305;b\267\262\012n!529\253\364\327\330\333"
 148      3B62B7B2 
 148      0A6E2135 
 148      3239ABF4 
 148      D7D8DB
 149 087c 21D6E462 		.ascii	"!\326\344b;\331\224\224*\025\236[%*\333Q\355&\027\257"
 149      3BD99494 
 149      2A159E5B 
 149      252ADB51 
 149      ED2617AF 
 150 0890 53EEAF61 		.ascii	"S\356\257a\2719\342v\234\324_\245\226me\355\367nN.a"
 150      B939E276 
 150      9CD45FA5 
 150      966D65ED 
 150      F76E4E2E 
ARM GAS  /tmp/ccWCK3xB.s 			page 12


 151 08a5 E6AD27E3 		.ascii	"\346\255'\343\223\031] i\357\016\231Mn\223\3108\275"
 151      93195D20 
 151      69EF0E99 
 151      4D6E93C8 
 151      38BD
 152 08b7 4CB37847 		.ascii	"L\263xG\363\316\316\202I\215\234\272\347>I*\375\270"
 152      F3CECE82 
 152      498D9CBA 
 152      E73E492A 
 152      FDB8
 153 08c9 E9E6AE4D 		.ascii	"\351\346\256M\255\332\217e=\027\252S\241\324\312<\271"
 153      ADDA8F65 
 153      3D17AA53 
 153      A1D4CA3C 
 153      B9
 154 08da CBCE7C81 		.ascii	"\313\316|\201/\224\264\354b\233\353\3306iZj\3557\376"
 154      2F94B4EC 
 154      629BEBD8 
 154      36695A6A 
 154      ED37FE
 155 08ed 1285C6DF 		.ascii	"\022\205\306\337\266\332yI\265\006\302\236\254\257F"
 155      B6DA7949 
 155      B506C29E 
 155      ACAF46
 156 08fc B2843135 		.ascii	"\262\20415\333\375\270\365\261-`^R\246\320\260\252\255"
 156      DBFDB8F5 
 156      B12D605E 
 156      52A6D0B0 
 156      AAAD
 157 090e 125F5AD0 		.ascii	"\022_Z\320\306\356\245b\277\361g\025\322Ef\236Kr\353"
 157      C6EEA562 
 157      BFF16715 
 157      D245669E 
 157      4B72EB
 158 0921 ADF4F5D7 		.ascii	"\255\364\365\327\310\224\012\372\331\364\323\205\356"
 158      C8940AFA 
 158      D9F4D385 
 158      EE
 159 092e DC2556EC 		.ascii	"\334%V\354\335\263Co\260\263D\226\244<08\304\260\264"
 159      DDB3436F 
 159      B0B34496 
 159      A43C3038 
 159      C4B0B4
 160 0941 A4EE3F8B 		.ascii	"\244\356?\213'\0357\254Y\273f\255\031\330\2527\374\020"
 160      271D37AC 
 160      59BB66AD 
 160      19D8AA37 
 160      FC10
 161 0953 18122C56 		.ascii	"\030\022,V\207\032\002\203\277\247#\346\244:T\267#H"
 161      871A0283 
 161      BFA723E6 
 161      A43A54B7 
 161      2348
 162 0965 2FF60AD2 		.ascii	"/\366\012\322\331\211\231\222\177\205\306\014!\001{"
 162      D9899992 
 162      7F85C60C 
 162      21017B
ARM GAS  /tmp/ccWCK3xB.s 			page 13


 163 0974 7786DA4D 		.ascii	"w\206\332M\231~\244\273\002w\004*\325_\2504\346\321"
 163      997EA4BB 
 163      0277042A 
 163      D55FA834 
 163      E6D1
 164 0986 B7851876 		.ascii	"\267\205\030vs\005\210u\006\275N\254\013\012\374>x\217"
 164      73058875 
 164      06BD4EAC 
 164      0B0AFC3E 
 164      788F
 165 0998 3E3894B6 		.ascii	">8\224\266h\\\035;w\333\213\314K*t\241{\015\272\240"
 165      685C1D3B 
 165      77DB8BCC 
 165      4B2A74A1 
 165      7B0DBAA0 
 166 09ac 05B382DF 		.ascii	"\005\263\202\337K\002\366\351\202w\352\003\304\273\365"
 166      4B02F6E9 
 166      8277EA03 
 166      C4BBF5
 167 09bb 86607D90 		.ascii	"\206`}\220xOH\200\336\262@!\206P\261,\370\337!\013t"
 167      784F4880 
 167      DEB24021 
 167      8650B12C 
 167      F8DF210B 
 168 09d0 2260BDA5 		.ascii	"\"`\275\245R\361Wk\326\257Y'\376r\355\272\015k7\256"
 168      52F1576B 
 168      D6AF5927 
 168      FE72EDBA 
 168      0D6B37AE 
 169 09e4 DB28FE8B 		.ascii	"\333(\376\213A\037\244\327\375\240_-\376\247D%\377B"
 169      411FA4D7 
 169      FDA05F2D 
 169      FEA74425 
 169      FF42
 170 09f6 CFAD4640 		.ascii	"\317\255F@\200>\300\343+\217\035\006\316\265Kl\320\357"
 170      803EC0E3 
 170      2B8F1D06 
 170      CEB54B6C 
 170      D0EF
 171 0a08 0B8469FF 		.ascii	"\013\204i\377r\375\332\365\0337\374\313\262uB\366\374"
 171      72FDDAF5 
 171      1B37FCCB 
 171      B27542F6 
 171      FC
 172 0a19 3730C8FE 		.ascii	"70\310\376\302\201\317U\312U\245\377\237\207|\375,d"
 172      C281CF55 
 172      CA55A5FF 
 172      9F877CFD 
 172      2C64
 173 0a2b D08BB7EA 		.ascii	"\320\213\267\352\014\201:;sa\202\\\2702\366\375\215"
 173      0C813A3B 
 173      7361825C 
 173      B832F6FD 
 173      8D
 174 0a3c F5909B19 		.ascii	"\365\220\233\031\211a\347\256\300P\375Nnz\364v\231\377"
 174      8961E7AE 
 174      C050FD4E 
ARM GAS  /tmp/ccWCK3xB.s 			page 14


 174      6E7AF476 
 174      99FF
 175 0a4e 0375531F 		.ascii	"\003uS\037\263"
 175      B3
 176              		.text
 177              		.section	.gnu.lto_.inline.2b3accfbf533effa,"",%progbits
 178 0000 789C6361 		.ascii	"x\234ca`d\000\001q\026\0068`f`\350aZ\317\315\310\300"
 178      60640001 
 178      71160638 
 178      606660E8 
 178      615ACFCD 
 179 0016 C474819F 		.ascii	"\304t\201\237\201m\201<\023H\224\211\233\001\250v\224"
 179      816D813C 
 179      13489489 
 179      9B01A876 
 179      94
 180 0027 1C254749 		.ascii	"\034%GI\024\222Ai\005##\275\362\0123\203\332>\372\331"
 180      14924169 
 180      052323BD 
 180      F20A3383 
 180      DA3EFAD9 
 181 003b 864C3200 		.ascii	"\206L2\000\000fn\021\032"
 181      00666E11 
 181      1A
 182              		.text
 183              		.section	.gnu.lto_.pureconst.2b3accfbf533effa,"",%progbits
 184 0000 789C6361 		.ascii	"x\234ca`d`g```f\220`\222`\226\000\000\001\240\000]"
 184      60646067 
 184      60606066 
 184      90609260 
 184      96000001 
 185              		.text
 186              		.section	.gnu.lto_rt_test_001_003_execute.2b3accfbf533effa,"",%progbits
 187 0000 789C8DDA 		.ascii	"x\234\215\332YP\023[\036\006\360\234\016\262\211:5\363"
 187      5950135B 
 187      1E06F09C 
 187      0EB2893A 
 187      35F3
 188 0012 3235736B 		.ascii	"25sk\312~\364A\275wj\252\246\312[5U16\230\021\010&\301"
 188      CA7EF441 
 188      BD776AAA 
 188      A6CA5B35 
 188      55313698 
 189 002a B9DE97D4 		.ascii	"\271\336\227\324\224\345\303\274\314r\365>\033dSPD\331"
 189      94E5C3BC 
 189      CC72F53E 
 189      1B645350 
 189      44D9
 190 003c 05445444 		.ascii	"\005DTD\020d\011\010HXT\026Y\004\331\014\012\210\270"
 190      10640908 
 190      48585416 
 190      5904D90C 
 190      0A88B8
 191 004f 202A2A08 		.ascii	" **\010\202\254\231NN\216\347t\223\234\323)\253\300"
 191      82AC994E 
 191      4E8EE774 
 191      939CD329 
ARM GAS  /tmp/ccWCK3xB.s 			page 15


 191      ABC0
 192 0061 E4CFD7DF 		.ascii	"\344\317\327\337\2577N\000\037\025P9\037S;T\252\377"
 192      AF374E00 
 192      1F155039 
 192      1F533B54 
 192      AAFF
 193 0073 FAA9547F 		.ascii	"\372\251T\177\024?\007j\025\340\222{T\252(\177\016\000"
 193      143F076A 
 193      15E0927B 
 193      54AA287F 
 193      0E00
 194 0085 E727167F 		.ascii	"\347'\026\177\240:\301\201\023\340\013\267\306\201{"
 194      A03AC181 
 194      13E00BB7 
 194      C6817B
 195 0094 F19375DC 		.ascii	"\361\223u\334\216B\213\370x\336Z\366\257(K\354\357c"
 195      8E428BF8 
 195      78DE5AF6 
 195      AF284BEC 
 195      EF63
 196 00a6 D52A9583 		.ascii	"\325*\225\203s%\251@!\330\241\022\307^T\254\247m\361"
 196      7325A940 
 196      21D8A112 
 196      C75E54AC 
 196      A76DF1
 197 00b9 8D718E6D 		.ascii	"\215q\216m\207/\202\033\300\327\271\2712C\263\305\341"
 197      872F821B 
 197      C0D7B9B9 
 197      3243B3C5 
 197      E1
 198 00ca 88B6586A 		.ascii	"\210\266Xj~\030\336\021/>3#\276\352\334\316,\3079?\252"
 198      7E18DE11 
 198      2F3E3323 
 198      BEEADCCE 
 198      2CC7393F 
 199 00df 27C1C9F9 		.ascii	"'\301\311\371\231W\177v\316\213A\351\261\367z\375\346"
 199      99577F76 
 199      CE8B41E9 
 199      B1F77AFD 
 199      E6
 200 00f0 B9583500 		.ascii	"\271X5\000\316\334\272\272\351\021\277\023k\226S\026"
 200      CEDCBABA 
 200      E911BF13 
 200      6B965316 
 201 0100 CB6FC4E7 		.ascii	"\313o\304\347N\213\233v>\23583h\015\314\003\271Q\026"
 201      4E8B9B76 
 201      3E9D3833 
 201      680DCC03 
 201      B95116
 202 0113 D7F31C28 		.ascii	"\327\363\034(\026\373\026\201\357\304\315\336\004y@"
 202      16FB1681 
 202      EFC4CDDE 
 202      047940
 203 0122 9CA86A69 		.ascii	"\234\250ji\217\363w\346\210*P\"\2762\005b\2323\2728"
 203      8FF377E6 
 203      882A5022 
 203      BE320562 
ARM GAS  /tmp/ccWCK3xB.s 			page 16


 203      9A33BA38 
 204 0136 E7663606 		.ascii	"\347f6\006\253\035\234\330\014\224\202\023\316\327\306"
 204      AB1D9CD8 
 204      0C948213 
 204      CED7C6
 205 0145 B25B42F8 		.ascii	"\262[B\370\277\346Y2\267\307\252}\234O\330\233\233~"
 205      BFE65932 
 205      B7C7AA7D 
 205      9C4FD89B 
 205      9B7E
 206 0157 146733C5 		.ascii	"\024g3\305\255\035\214Uo\002\267\000\357\312\001e\340"
 206      AD1D8C55 
 206      6F02B700 
 206      EFCA0165 
 206      E0
 207 0168 44ACDAD7 		.ascii	"D\254\332\327\225\235\345-\333\317!BU\240\034f\307\277"
 207      959DE52D 
 207      DBCF2142 
 207      55A01C66 
 207      C7BF
 208 017a B534F838 		.ascii	"\2654\3708{\371\203\355\240\002|\027\253\016p}\371\305"
 208      7BF983ED 
 208      A0027C17 
 208      AB0E707D 
 208      F9C5
 209 018c CD5E9B89 		.ascii	"\315^\233\211fP\011\277\272\372\344\2156_\376\237\260"
 209      665009BF 
 209      BAFAE48D 
 209      365FFE9F 
 209      B0
 210 019d 5AA0F399 		.ascii	"Z\240\363\231\233\325\3664?w\267\310X\365f`E\335\252"
 210      9BD5F634 
 210      3F77B7C8 
 210      58F56660 
 210      45DDAA
 211 01b0 70B75C86 		.ascii	"p\267\\\206\273\032\246[\326\206Z|\371#\004<\341|\361"
 211      BB1AA65B 
 211      D6865A7C 
 211      F923043C 
 211      E17CF1
 212 01c3 2A20E5B7 		.ascii	"* \345\267Qz\015N\317c\310kazg\373\371Q\000\345\342"
 212      517A0D4E 
 212      CF63C86B 
 212      617A67FB 
 212      F95100E5 
 213 01d8 610775D8 		.ascii	"a\007u\330^N\267\337Ql\257G\355l\270\235\225ao\200\351"
 213      5E4EB7DF 
 213      516CAF47 
 213      ED6CB89D 
 213      95616F80 
 214 01ed D3EDB979 		.ascii	"\323\355\271y\034\177\026\020\370\361\301\313\265\376"
 214      1C7F1610 
 214      F8F1C1CB 
 214      B5FE
 215 01fb 24BE11C5 		.ascii	"$\276\021\3057\341\370j\006\276Y\214'\217\363m\272\365"
 215      37E1F86A 
 215      06BE598C 
ARM GAS  /tmp/ccWCK3xB.s 			page 17


 215      278FF36D 
 215      BAF5
 216 020d AE62EB3D 		.ascii	"\256b\353=T\346>.S\307\260\266\300\364'\305/\376\306"
 216      54E63E2E 
 216      53C7B0B6 
 216      C0F427C5 
 216      2FFEC6
 217 0220 D790D4AF 		.ascii	"\327\220\324\257e\013\023>$\265\025\245\267\341\364"
 217      650B133E 
 217      24B515A5 
 217      B7E1F4
 218 022f 7A06B55D 		.ascii	"z\006\265]F\265\321\251\017\024S;P\231N\\\246\211A\355"
 218      46B5D1A9 
 218      0F14533B 
 218      50994E5C 
 218      A68941ED 
 219 0243 82E9F303 		.ascii	"\202\351\363\003\371\331\201\374\004i\355\037M|\253"
 219      F9D981FC 
 219      0469ED1F 
 219      4D7CAB
 220 0252 26ADDD28 		.ascii	"&\255\335(\376!\216\357cX{`\274-\357LQ <\2479\320\213"
 220      FE218EEF 
 220      63587B60 
 220      BC2DEF4C 
 220      51203CA7 
 221 0269 E9FD74FA 		.ascii	"\351\375t\372#\305\364>\324\255\037w\033b\320\007`z"
 221      23C5F43E 
 221      D4AD1F77 
 221      1B62D007 
 221      607A
 222 027b CC75DB84 		.ascii	"\314u\333\204?\237\310\021\364\223\263\251\275\201$"
 222      3F9FC811 
 222      F493B3A9 
 222      BD8124
 223 028a 7D10C50F 		.ascii	"}\020\305\017\341x;\203\376\030\306\177\273Q\213\337"
 223      E1783B83 
 223      FE18C67F 
 223      BB518BDF 
 224 029a 2E801DD3 		.ascii	".\200\035\323\207\351\364a\305\364'\250\333S\334m\204"
 224      87E9F461 
 224      C5F427A8 
 224      DB53DC6D 
 224      84
 225 02ab 411F81E9 		.ascii	"A\037\201\351\321+\335\265\333\370j\222\236P\375\340"
 225      D12BDDB5 
 225      DBF86A92 
 225      9E50FDE0 
 226 02bb 4210491F 		.ascii	"B\020I\037E\361c8~\214A\177\346<\303\011\3533\272u\\"
 226      45F16338 
 226      7E8C417F 
 226      E63CC309 
 226      EB33BA75 
 227 02d0 B1F5392A 		.ascii	"\261\3659*3\201\313\3142\254/`\372\372\342Zo\000?NZ"
 227      3381CBCC 
 227      32AC2F60 
 227      FAFAE25A 
 227      6F003F4E 
ARM GAS  /tmp/ccWCK3xB.s 			page 18


 228 02e5 CFE6B4DA 		.ascii	"\317\346\264\3328\322\372\022\305\277\302\361s\014\353"
 228      38D2FA12 
 228      C5BFC2F1 
 228      730CEB
 229 02f4 6B99759E 		.ascii	"k\231u\236n\235Tl}\203\312L\3412\213\014\353[\230\336"
 229      6E9D546C 
 229      7D83CA4C 
 229      E1328B0C 
 229      EB5B98DE 
 230 0308 F8B0FE47 		.ascii	"\370\260\376G\376\264\232\240N\306L\315I\316\350w(\375"
 230      FEB49AA0 
 230      4EC64CCD 
 230      49CEE877 
 230      28FD
 231 031a 3D4E5F62 		.ascii	"=N_bP\247\335\335\343\273+\334\0273\000\037\260|\231"
 231      50A7DDDD 
 231      E3BB2BDC 
 231      1733001F 
 231      B07C99
 232 032d 2EFFA858 		.ascii	".\377\250X\376\011u\233\301\335\326\030\362Y\230\276"
 232      FE09759B 
 232      C1DDD618 
 232      F25998BE 
 233 033d 9450D9CD 		.ascii	"\224P\331\315\361V\222\2362hk\330B\322?\243\3709\034"
 233      F156929E 
 233      32686BD8 
 233      42D23FA3 
 233      F8391C
 234 0350 EF60D0E7 		.ascii	"\357`\320\347\235G\231\260&o\245Z\277(\266.\2402\213"
 234      9D4799B0 
 234      266FA55A 
 234      BF28B62E 
 234      A0328B
 235 0363 B84C4A0F 		.ascii	"\270LJ\017\335\372\025\246[\213G\306\003\3711\322\372"
 235      DDFA15A6 
 235      5B8B47C6 
 235      03F931D2 
 235      FA
 236 0374 B564216B 		.ascii	"\265d!k\033i]B\361\3138>\315[\274\333\272\"\263\246"
 236      1B695D42 
 236      F1CB383E 
 236      CD5BBCDB 
 236      BA22B3A6 
 237 0388 D3ADAB8A 		.ascii	"\323\255\253\212\255k\250\314:\261\034dX\0350}\271c"
 237      AD6BA8CC 
 237      3AB11C64 
 237      581D307D 
 237      B963
 238 039a E053101F 		.ascii	"\340S\020\037\357C\336\251\272V\002H\252\205s\247Gq"
 238      EF43DEA9 
 238      BA560248 
 238      AA8573A7 
 238      4771
 239 03ac DFD2B319 		.ascii	"\337\322\263\031\324\223\234\224\232C\247FsJ\2511\250"
 239      D4939C94 
 239      9A43A746 
 239      734AA931 
ARM GAS  /tmp/ccWCK3xB.s 			page 19


 239      A8
 240 03bd 4C2C2E93 		.ascii	"L,.\223\307\240\306\301tKj\3353\216\257 \251\226\261"
 240      C7A0C6C1 
 240      744B6ADD 
 240      338EAF20 
 240      A996B1
 241 03d0 8E06C961 		.ascii	"\216\006\311a\215G\361\247p|\005\303zZf\255\244[\023"
 241      8D47F1A7 
 241      707C05C3 
 241      7A5A66AD 
 241      A45B13
 242 03e3 145B1351 		.ascii	"\024[\023Q\2313\270L5\303z\026\246ww\245\267\252\371"
 242      9933B84C 
 242      35C37A16 
 242      A67777A5 
 242      B7AAF9
 243 03f6 11D29A35 		.ascii	"\021\322\2325{\256S\262\232LB\361\347p|\015\303\232"
 243      7BAE53B2 
 243      9A4C42F1 
 243      E7707C0D 
 243      C39A
 244 0408 CC496FCA 		.ascii	"\314Io\312\265t\353y\305\326\013\250L\012.S\317\260"
 244      B574EB79 
 244      C5D60BA8 
 244      4C0A2E53 
 244      CFB0
 245 041a A6C2F4CE 		.ascii	"\246\302\364\316\213ms\034\037\273\211\260&-\246\264"
 245      8B6D731C 
 245      1FBB89B0 
 245      262DA6B4 
 246 042a 4ABED9A6 		.ascii	"J\276\331\246\241\370t\034\337\300\260f\310\216k#\335"
 246      A1F8741C 
 246      DFC0B066 
 246      C88E6B23 
 246      DD
 247 043b 9AA9D89A 		.ascii	"\232\251\330\232\205\312\\\304e\372\030\326lw\272\255"
 247      85CA5CC4 
 247      65FA18D6 
 247      6C77BAAD 
 248 044b B750CD97 		.ascii	"\267P\315\227\221\326\351\211\212?\221\324\034\224\236"
 248      91D6E989 
 248      8A3F91D4 
 248      1C949E
 249 045a 8BD30718 		.ascii	"\213\323\007\030\324K\262\303:H\247\346)\246^Fe\362"
 249      D44BB2C3 
 249      3A48A7E6 
 249      29A65E46 
 249      65F2
 250 046c 71193B83 		.ascii	"q\031;\203z\005\246\327/'\265\005\360OHjL\343\303?\220"
 250      7A05A6D7 
 250      2F27B505 
 250      F04F486A 
 250      4CE3C33F 
 251 0481 D4AB28FD 		.ascii	"\324\253(\375\032N\177\302\240\026\310\216\352S:\365"
 251      1A4E7FC2 
 251      A016C88E 
 251      EA533AF5 
ARM GAS  /tmp/ccWCK3xB.s 			page 20


 252 0491 BA626A21 		.ascii	"\272bj!*s\003\227\031cP\213`zyk\347\222/\037\355KPk"
 252      2A730397 
 252      1963508B 
 252      607A796B 
 252      E7922F1F 
 253 04a9 6DF679C9 		.ascii	"m\366y\3117\327b\024\177\023\307\2173\254%2\353\014"
 253      37D76214 
 253      7F13C78F 
 253      33AC2532 
 253      EB0C
 254 04bb DD5AAAD8 		.ascii	"\335Z\252\330z\013\225)\303e\346\030\326r\230~3\353"
 254      7A0B9529 
 254      C365E618 
 254      D672987E 
 254      33EB
 255 04cd F5F56D7C 		.ascii	"\365\365m|)i\265\217\177\254\222\274\371\253@\361\225"
 255      2969B58F 
 255      7FAC92BC 
 255      F9AB40F1 
 255      95
 256 04de 38FE0BC3 		.ascii	"8\376\013\303j\225Y\027\350\326*\305\326jT\3466.\263"
 256      6A955917 
 256      E8D62AC5 
 256      D66A54E6 
 256      362EB3
 257 04f1 C4B0D6C0 		.ascii	"\304\260\326\300\364\264\004k\242/o'\255y\371\227\326"
 257      F4B4046B 
 257      A22F6F27 
 257      AD79F997 
 257      D6
 258 0502 25C7B516 		.ascii	"%\307\265\026\305\327\341\370\025\206\365\216\314\272"
 258      C5D7E1F8 
 258      1586F58E 
 258      CCBA
 259 0510 4AB7D62B 		.ascii	"J\267\326+\266\332P\231\006\\\306\301\2606\302\364\361"
 259      B6DA5099 
 259      065CC6C1 
 259      B036C2F4 
 259      F1
 260 0521 E5911D7C 		.ascii	"\345\221\035|\224\037AM\177l\037\227P\233Pz3N?\337K"
 260      941F414D 
 260      7F6C1F97 
 260      509B507A 
 260      334E3FDF 
 261 0536 A7DE9551 		.ascii	"\247\336\225Q/l\243R\357)\246\336GeZp\2314oe\334\324"
 261      2F6CA352 
 261      EF29A6DE 
 261      47655A70 
 261      99346F65 
 262 054c 56777ACC 		.ascii	"Vwz\314\245\217A\374M\322z.\371\371'\311;\2366\024\337"
 262      A58F41FC 
 262      4DD27A2E 
 262      F9F927C9 
 262      3B9E3614 
 263 0561 8EE33318 		.ascii	"\216\3433\030\326\007\262\273p&\335\332\241\330\332"
 263      D607B2BB 
 263      7026DDDA 
ARM GAS  /tmp/ccWCK3xB.s 			page 21


 263      A1D8DA
 264 0570 89CA7411 		.ascii	"\211\312t\021+8\206\265\033\246\017\225,88~\210\264"
 264      2B3886B5 
 264      1BA60F95 
 264      2C38387E 
 264      88B4
 265 0582 AED6CF5E 		.ascii	"\256\326\317^\221\034\327\207(\276\007\307\3472\254"
 265      911CD787 
 265      28BE07C7 
 265      E732AC
 266 0591 BDB2E37A 		.ascii	"\275\262\343z\211n}\244\330\332\207\312\364\023+8\206"
 266      896E7DA4 
 266      D8DA87CA 
 266      F4132B38 
 266      86
 267 05a2 7500A6DF 		.ascii	"u\000\246\337+\273\333\035\310;Hk]VA\245\344\347\217"
 267      2BBBDB1D 
 267      C83B486B 
 267      5D5641A5 
 267      E4E78F
 268 05b5 83287E08 		.ascii	"\203(~\010\307[\031\326\3072k\025\335jWl\035Fe\236\020"
 268      C75B19D6 
 268      C7326B15 
 268      DD6A576C 
 268      1D46659E 
 269 05ca 2B3886F5 		.ascii	"+8\206\365)L\037\231~\223\340\313\027\371\023\326+\357"
 269      294C1F99 
 269      7E93E0CB 
 269      17F913D6 
 269      2BEF
 270 05dc 12973791 		.ascii	"\022\2277\221\326\021\024?\212\343\353\030\3261\231"
 270      D611143F 
 270      8AE3EB18 
 270      D63199
 271 05eb F50EDDFA 		.ascii	"\365\016\335\372L\261u\034\225yN\254\340\030\326\011"
 271      4CB1751C 
 271      95794EAC 
 271      E018D609 
 272 05fb 98BE7A21 		.ascii	"\230\276z!\261>\210\037 \255\227\026\356\334\221,\206"
 272      B13E881F 
 272      20AD9716 
 272      EEDC912C 
 272      86
 273 060c 5FA0F897 		.ascii	"_\240\370\2278\276\211a}%\263>\242[_+\266N\2422o\210"
 273      38BE8961 
 273      7D25B33E 
 273      A25B5F2B 
 273      B64EA232 
 274 0622 251CC33A 		.ascii	"%\034\303:\005\323g\372\343k\002\3715\322\372\326\366"
 274      05D367FA 
 274      E36B02F9 
 274      35D2FAD6 
 274      F6
 275 0633 346B3369 		.ascii	"4k3i}\213\342\337\341\370!\206\365\275\314\372\230n"
 275      7D8BE2DF 
 275      E1F82186 
 275      F5BDCCFA 
ARM GAS  /tmp/ccWCK3xB.s 			page 22


 275      986E
 276 0645 9D566CFD 		.ascii	"\235Vl\375\200\312|$\326p\014\353'\230\236\237T\324"
 276      80CA7C24 
 276      D6700CEB 
 276      27989E9F 
 276      54D4
 277 0657 A0E60B03 		.ascii	"\240\346\013\003\010\353\251\244\231\002\311\365:\203"
 277      08EBA9A4 
 277      9902C9F5 
 277      3A83
 278 0665 E26771FC 		.ascii	"\342gq\374\010\303\372Yf\035\245[\347\024[\347Q\231"
 278      08C3FA59 
 278      661DA55B 
 278      E7145BE7 
 278      5199
 279 0677 2FC41A8E 		.ascii	"/\304\032\216a]\200\351\213\303\355\215A|\037im\212"
 279      615D80E9 
 279      8BC3ED8D 
 279      417C1F69 
 279      6D8A
 280 0689 7E95EB4B 		.ascii	"~\225\353KZ\027Q\374W\034?\313\260.\311\254\237\351"
 280      5A1751FC 
 280      571C3FCB 
 280      B02EC9AC 
 280      9FE9
 281 069b D665C5D6 		.ascii	"\326e\305\326\025Tf\225X\3031\254k0\275c0{\321\217_"
 281      15546695 
 281      58C331AC 
 281      6B30BD63 
 281      307BD18F 
 282 06b0 21AD7113 		.ascii	"!\255q\023)V\311\033\365u\024\357\300\361\213\014\253"
 282      2956C91B 
 282      F57514EF 
 282      C0F18B0C 
 282      AB
 283 06c1 45ED8A4F 		.ascii	"E\355\212OX\266'\371\303\037\263\371\203(\3657\372W"
 283      58B627F9 
 283      C31FB3F9 
 283      8328F537 
 283      FA57
 284 06d3 3AFDA45A 		.ascii	":\375\244Z)=Z\355\356\026\243\306K:\006=\026\246_\216"
 284      293D5AED 
 284      EE16A3C6 
 284      4B3A063D 
 284      16A65F8E 
 285 06e7 AA890BE4 		.ascii	"\252\211\013\344\013\002\011\372\253\351\251\234\255"
 285      0B0209FA 
 285      ABE9A99C 
 285      AD
 286 06f4 243D0EC5 		.ascii	"$=\016\305\307\343\3705\006\375\224Zz\230\327\351\326"
 286      C7E3F835 
 286      06FD945A 
 286      7A98D7E9 
 286      D6
 287 0705 D38AAD09 		.ascii	"\323\212\255\011\250L\".s\276\237n=\003\323\013_?\230"
 287      A84C222E 
 287      73BE9F6E 
ARM GAS  /tmp/ccWCK3xB.s 			page 23


 287      3D03D30B 
 287      5F3F98
 288 0718 0EE27B49 		.ascii	"\016\342{I\353\247\251k5\222\333\362Y\024\237\204\343"
 288      EBA7A96B 
 288      3592DBF2 
 288      59149F84 
 288      E3
 289 0729 53BCC5BB 		.ascii	"S\274\305\273\255\347d\326\324\337R\255\311\212\255"
 289      ADE764D6 
 289      D4DF52AD 
 289      C98AAD
 290 0738 E751990B 		.ascii	"\347Q\231\013\270L\006\303\232\002\323\357\336\032y"
 290      B84C06C3 
 290      9A02D3EF 
 290      DE1A79
 291 0747 B7855F22 		.ascii	"\267\205_\"\2557bl\363\222\343\232\212\342\323p|\026"
 291      AD37626C 
 291      F392E39A 
 291      8AE2D370 
 291      7C16
 292 0759 C39A2EB3 		.ascii	"\303\232.\263^\244[3\024[3Q\231,\\&\227a\275\010\323"
 292      5EA45B33 
 292      145B3351 
 292      992C5C26 
 292      9761BD08 
 293 076e CF264D3E 		.ascii	"\317&M>\010\344\257n&\254=E\223%\222\3137\033\305\347"
 293      08E4AF6E 
 293      26AC3D45 
 293      932592CB 
 293      371BC5E7 
 294 0782 E0F83C86 		.ascii	"\340\370<\2065Wf-\247[/)\266\346\2412\227q\031+\303"
 294      3557662D 
 294      A75B2F29 
 294      B6E6A132 
 294      9771192B 
 295 0797 9A0FD35F 		.ascii	"\232\017\323__\355\035\337\304?$\255\317\246G\257\373"
 295      5FED1DDF 
 295      C43F24AD 
 295      CFA647AF 
 295      FB
 296 07a8 91D62B28 		.ascii	"\221\326+(\376*\216\257fX\257\311\254\267\351\326\002"
 296      FE2A8EAF 
 296      6658AFC9 
 296      ACB7E9D6 
 296      02
 297 07b9 C5D6EBA8 		.ascii	"\305\326\353\250L!.S\307\260\336\200\351\037\006\257"
 297      4C212E53 
 297      C7B0DE80 
 297      E91F06AF 
 298 07c9 2C04F08B 		.ascii	",\004\360\213\244\365T"
 298      A4F554
 299 07d0 5DC5B0E4 		.ascii	"]\305\260\344\267\037E(\276\030\307\3273\2547\325\322"
 299      B71F4528 
 299      BE18C7D7 
 299      33AC37D5 
 299      D2
 300 07e1 B73D36BA 		.ascii	"\267=6\272\265D\261\265\024\225\271\205\31341\254e0"
ARM GAS  /tmp/ccWCK3xB.s 			page 24


 300      B544B1B5 
 300      1495B985 
 300      CB3431AC 
 300      6530
 301 07f3 DD621969 		.ascii	"\335b\031i\010\342\363\203\010\353zC\301W\3112\252\034"
 301      08E2F383 
 301      08EB7A43 
 301      C157C932 
 301      AA1C
 302 0805 C557E0F8 		.ascii	"\305W\340\370>\206\265Rf\355\247[\255\212\255U\250L"
 302      3E86B552 
 302      66EDA75B 
 302      AD8AAD55 
 302      A84C
 303 0817 352E33C4 		.ascii	"5.3\304\260\336\206\351\357V\333\032}\370.\322\232\261"
 303      B0DE86E9 
 303      EF56DB1A 
 303      7DF82ED2 
 303      9AB1
 304 0829 18B726F9 		.ascii	"\030\267&\371\211L\015\212\257\305\361v\206\265Nf\035"
 304      894C0D8A 
 304      AFC5F176 
 304      86B54E66 
 304      1D
 305 083a A65BEF28 		.ascii	"\246[\357(\266\326\24326\\f\204am\200\351\245\203\327"
 305      B6D6A332 
 305      365C6684 
 305      616D80E9 
 305      A583D7
 306 084d C4DBEC17 		.ascii	"\304\333\354\027\322Z\225\025\227 y\333\323\210\342"
 306      D25A9515 
 306      972079DB 
 306      D388E2
 307 085c 9B70FC18 		.ascii	"\233p\374\030\303\332,\263>\243[\357*\266\336Ce\356"
 307      C3DA2CB3 
 307      3EA35BEF 
 307      2AB6DE43 
 307      65EE
 308 086e E332B30C 		.ascii	"\3432\263\014k\013L\357\270\232\266\012\370\274-\204"
 308      6B0B4CEF 
 308      B89AB60A 
 308      F8BC2D84 
 309 087e D55A5C5A 		.ascii	"\325Z\\Z)\371\376\332\212\342\333p\374\034\303\332\016"
 309      29F9FEDA 
 309      8AE2DB70 
 309      FC1CC3DA 
 309      0E
 310 088f E307A25B 		.ascii	"\343\007\242[z\325p\031\345\000\340\001^G\315\323\355"
 310      7AD57019 
 310      E500E001 
 310      5E47CDD3 
 310      ED
 311 08a0 1D8AED9D 		.ascii	"\035\212\355\235\250\\\027.\267\310\260w\303\364\324"
 311      A85C172E 
 311      B7C8B077 
 311      C3F4D4
 312 08af ABCB256A 		.ascii	"\253\313%j\276\203\264\217\245\277_\221\374N\340!\212"
ARM GAS  /tmp/ccWCK3xB.s 			page 25


 312      BE83B48F 
 312      A5BF5F91 
 312      FC4EE021 
 312      8A
 313 08c0 EFC1F14B 		.ascii	"\357\301\361K\014{/\214\237+\310\311p/!-\000<\302\366"
 313      0C7B2F8C 
 313      9F2BC8C9 
 313      702F212D 
 313      003CC2F6 
 314 08d4 65BABD4F 		.ascii	"e\272\275O\261\275\037\225\033 \026y\014\373\240\373"
 314      B1BD1F95 
 314      1B201679 
 314      0CFBA0FB 
 315 08e4 7AFEB458 		.ascii	"z\376\264X\030\304\317\221\366\246\214\252R\311[\205"
 315      18C4CF91 
 315      F6A68CAA 
 315      52C95B85 
 316 08f4 2114FF18 		.ascii	"!\024\377\030\307;\030v\273\354\034O\376\035\325:\254"
 316      C73B1876 
 316      BBEC1C4F 
 316      FE1DD53A 
 316      AC
 317 0905 D8FA0495 		.ascii	"\330\372\004\225yJ,\362\006\030\177h\001\323\357G\177"
 317      794A2CF2 
 317      06187F68 
 317      01D3EF47 
 317      7F
 318 0916 28F1E173 		.ascii	"(\361\341s\267\022\326\374\244\314\373\222s|\024\305"
 318      B712D6FC 
 318      A4CCFB92 
 318      737C14C5 
 319 0926 8FE1F834 		.ascii	"\217\341\3704o\361\350\017-d\326t\272u\\\261\3659*3"
 319      6FF1E80F 
 319      2D64D674 
 319      BA755CB1 
 319      F5392A33 
 320 093a 412CF218 		.ascii	"A,\362\030\326\0270=\261<1%\200o'\255\013c\235\323\222"
 320      D617303D 
 320      B13C3125 
 320      806F27AD 
 320      0B639DD3 
 321 094f 7BD74B14 		.ascii	"{\327K\024\377\012\307g3\254\257e\326\034\272uR\261"
 321      FF0AC767 
 321      33ACAF65 
 321      D61CBA75 
 321      52B1
 322 0961 F50D2A33 		.ascii	"\365\015*3\005\313\274\003'\233+\214\256\247\234\217"
 322      05CBBC03 
 322      279B2B8C 
 322      AEA79C8F 
 323 0971 191197DC 		.ascii	"\031\021\227\334\243\022+\374e\327\256\335\360\337\361"
 323      A3122BFC 
 323      65D7AEDD 
 323      F0DFF1
 324 0980 A3C78EEF 		.ascii	"\243\307\216\357\376\345\370\356c\377\371\365\227#G"
 324      FEE5F8EE 
 324      63FFF9F5 
ARM GAS  /tmp/ccWCK3xB.s 			page 26


 324      972347
 325 098f D17FCDCE 		.ascii	"\321\177\315\316\217\346cG\377\367\353\321\177\0379"
 325      8FE66347 
 325      FFF7EBD1 
 325      7F1F39
 326 099e 6AFEFEFB 		.ascii	"j\376\376\373\037v\035Q\355\330\271s\347v\355~\2636"
 326      1F761D51 
 326      EDD8B973 
 326      E776ED7E 
 326      B336
 327 09b0 38C46C34 		.ascii	"8\304l4\231\015\202Q\037\032i\322\351\303\367l\227>"
 327      990D8251 
 327      1F1A69D2 
 327      E9C3F76C 
 327      973E
 328 09c2 54403E1B 		.ascii	"T@>\033l\020\016F\012\341\332\303\362\321\355\222I]"
 328      6C100E46 
 328      0AE1DAC3 
 328      F2D1ED92 
 328      495D
 329 09d4 B849301C 		.ascii	"\270I0\034\322\204\032\315F\335\317\302\036\312\244"
 329      D2841ACD 
 329      46DDCFC2 
 329      1ECAA4
 330 09e3 49172698 		.ascii	"I\027&\230M\207#\004O\243\362\255;\207\367\011\241&"
 330      4D872304 
 330      4FA3F2AD 
 330      3B87F709 
 330      A126
 331 09f5 0D7DEBAE 		.ascii	"\015}\353\256\314\203\221\232pSd\030}2L\010\323\352"
 331      CC83919A 
 331      70536418 
 331      7D324C08 
 331      D3EA
 332 0a07 0D82A796 		.ascii	"\015\202\247\226\262\311p\275Y\267/T\254\272\337 h\366"
 332      B2C970BD 
 332      59B72F54 
 332      ACBADF20 
 332      68F6
 333 0a19 D144FA08 		.ascii	"\321D\372\010q\373b\236\331\030!\010\324\311H\243\230"
 333      71FB629E 
 333      D9182108 
 333      D4C948A3 
 333      98
 334 0a2a B7B1A197 		.ascii	"\267\261\241\227I\203\020\2423\232\014\214=\357\234"
 334      498310A2 
 334      339A0C8C 
 334      3DEF9C
 335 0a39 FC874667 		.ascii	"\374\207Fg\022~\322\231\330\223F!L\023\261_\334\003"
 335      127ED299 
 335      D8934621 
 335      4C13B15F 
 335      DC03
 336 0a4b 46564F3C 		.ascii	"FVO<i\2160\350\364\006\235\311]d\303dX\244\270\361\015"
 336      698E30E8 
 336      F4069DC9 
 336      5D64C364 
ARM GAS  /tmp/ccWCK3xB.s 			page 27


 336      58A4B8F1 
 337 0a60 81944951 		.ascii	"\201\224IQ\246\2154\030u\207\276\035\202\015\223Z}\370"
 337      A68D3418 
 337      7587BE1D 
 337      820D935A 
 337      7DF8
 338 0a72 BE431AC3 		.ascii	"\276C\032\303\306P\257\223\256\223@\037\211\367\301"
 338      C650AF93 
 338      AE93401F 
 338      89F7C1
 339 0a81 8649E190 		.ascii	"\206I\341\220\020n\362P\323\333\344\206DO\"\301h\324"
 339      106EF250 
 339      D3DBE486 
 339      444F22C1 
 339      68D4
 340 0a93 8478C07B 		.ascii	"\204x\300{\235\224\355MO\223\032]\350^\275\207=\352"
 340      9D94ED4D 
 340      4F931A5D 
 340      E85EBD87 
 340      3DEA
 341 0aa5 21D37536 		.ascii	"!\323u6+\330\363\373\005M\204\307\363\316Sf\204^\037"
 341      2BD8F3FB 
 341      054D84C7 
 341      F3CE5366 
 341      845E1F
 342 0ab8 AA40A4DF 		.ascii	"\252@\244\337\373ws\260.X\317\356\271\357p\270&L\247"
 342      FB7773B0 
 342      2E58CFEE 
 342      B9EF70B8 
 342      264CA7
 343 0acb 55D03358 		.ascii	"U\3203X\2435\351=\234\362\322I\367\224\270\247~2\213"
 343      A335E93D 
 343      9CF2D249 
 343      F794B8A7 
 343      7E328B
 344 0ade C9E24E0D 		.ascii	"\311\342N\015\025\302CL\373\367x\235\024\273\012Z\223"
 344      15C2434C 
 344      FBF7789D 
 344      14BB0A5A 
 344      93
 345 0aef 517A4D79 		.ascii	"QzMy\234\014\021\302\005\203Nk\336\033\031\034,\240"
 345      9C0C11C2 
 345      05834E6B 
 345      DE1B191C 
 345      2CA0
 346 0b01 13D0E3A4 		.ascii	"\023\320\343\244\307k\311KO\017G\324[\317\215\373\364"
 346      C76BC94B 
 346      4F0F47D4 
 346      5BCF8DFB 
 346      F4
 347 0b12 DBE4BEBD 		.ascii	"\333\344\276\275\316\273\242\306$\022tZ\352\231\354"
 347      CEBBA2C6 
 347      2412745A 
 347      EA99EC
 348 0b21 9A3C6C34 		.ascii	"\232<l4\011a\256/\020/\223\375\202\366\200\247\236\316"
 348      0961AE2F 
 348      102F93FD 
ARM GAS  /tmp/ccWCK3xB.s 			page 28


 348      82F680A7 
 348      9ECE
 349 0b33 49215CB3 		.ascii	"I!\\\2637\324=\343\375h\022\223\032\243Q0l\270\226$"
 349      37D43DE3 
 349      FD681293 
 349      1AA35130 
 349      6CB89624 
 350 0b47 93268346 		.ascii	"\223&\203F\353<\227\215\007X=\341$\334\337\033n\314"
 350      EB3C978D 
 350      07583DE1 
 350      24DCDF1B 
 350      6ECC
 351 0b59 9EB62E8A 		.ascii	"\236\266.\212\264\007\350\242`]h\250\373\326M9\223]"
 351      B407E8A2 
 351      605D68A8 
 351      FBD64D39 
 351      935D
 352 0b6b 5B8743E2 		.ascii	"[\207C\342e\251\027\277H\027\036\"\331\372\377\001+"
 352      65A917BF 
 352      48171E22 
 352      D9FAFF01 
 352      2B
 353 0b7c 04B1F4   		.ascii	"\004\261\364"
 354              		.text
 355              		.section	.gnu.lto_rt_test_001_002_execute.2b3accfbf533effa,"",%progbits
 356 0000 789C8D95 		.ascii	"x\234\215\225KL\023A\030\307\347\233-m)\002\306\223"
 356      4B4C1341 
 356      18C7E79B 
 356      2D6D2902 
 356      C693
 357 0012 891CBA07 		.ascii	"\211\034\272\007\017\034hK4\232x5z0Q\021\324+)u#U\244"
 357      0F1C684B 
 357      349A7835 
 357      7A305111 
 357      D42B2975 
 358 0029 B18F7397 		.ascii	"\261\217s\227\307\202\006\0235HA\024{0\206\227B\021"
 358      C7820613 
 358      35484114 
 358      7B308697 
 358      4211
 359 003b 6AAD0F28 		.ascii	"j\255\017(o\004\004\025\022\017\020%\242\304\030c\300"
 359      6F040415 
 359      120F1025 
 359      A2C41863 
 359      C0
 360 004c 804604EA 		.ascii	"\200F\004\352L\267\353\2561}L\232\354\364\233o~\363"
 360      4CB7EBAE 
 360      317D4C9A 
 360      ECF49B6F 
 360      7EF3
 361 005e FF75D256 		.ascii	"\377u\322V\205\000\321\261\220\202\320!2\335E\346\300"
 361      8500D1B1 
 361      9082D021 
 361      32DD45E6 
 361      C0
 362 006f 20C0D7A6 		.ascii	" \300\327\246\020*\323b\000:\341\265\200\334\030\334"
 362      102AD362 
ARM GAS  /tmp/ccWCK3xB.s 			page 29


 362      003AE1B5 
 362      80DC18DC 
 363 007f B0863731 		.ascii	"\260\20671\014T/\005qv3O\306\302\275\337\305e\274\260"
 363      0C542F05 
 363      7176334F 
 363      C6C2BDDF 
 363      C565BCB0 
 364 0093 5360100A 		.ascii	"S`\020\012\343\010\011A3d#\322\366\241k\253.]]I\333"
 364      E3080941 
 364      336423D2 
 364      F6A16BAB 
 364      2E5D5D49 
 365 00a8 F4E222B4 		.ascii	"\364\342\"\264\200\232\036\327\231\037\342\303\341\012"
 365      809A1ED7 
 365      991FE2C3 
 365      E10A
 366 00b6 9E0FE436 		.ascii	"\236\017\3446\356\336\201\3202Y\244\307\254`L\237\314"
 366      EEDE81D0 
 366      3259A4C7 
 366      AC604C9F 
 366      CC
 367 00c7 1294AFFA 		.ascii	"\022\224\257\3726ri;\341x\204\201i\315*\026\030\000"
 367      3672693B 
 367      E1788481 
 367      69CD2A16 
 367      1800
 368 00d9 8A0D06BF 		.ascii	"\212\015\006\277\316i\334\233\374%\236\337Nj\227\311"
 368      CE69DC9B 
 368      FC259EDF 
 368      4E6A97C9 
 369 00e9 C9B45CB3 		.ascii	"\311\264\\\263<\333\255\363BS\031\037\251ch#q[!\213"
 369      3CDBADF3 
 369      4253191F 
 369      A9636823 
 369      715B218B 
 370 00fd 9CDA0E5E 		.ascii	"\234\332\016^ \035=C\243UZ\312!Rp\237\254|\206\312\320"
 370      201D3D43 
 370      A3555ACA 
 370      2152709F 
 370      AC7C86CA 
 371 0112 DA28A6C7 		.ascii	"\332(\246\307\374\017f\302\230D\205\007\340\246kw\206"
 371      FC0F66C2 
 371      98448507 
 371      E0A66B77 
 371      86
 372 0123 AF8434EC 		.ascii	"\257\2044\354~/\337\240\027\030\025\255x6\346[3Iw\003"
 372      7E2FDFA0 
 372      171815AD 
 372      7836E65B 
 372      33497703 
 373 0137 39EF94C0 		.ascii	"9\357\224\300\244@\007\260\021\022t\202[`\324\021\372"
 373      A44007B0 
 373      11127482 
 373      5B60D411 
 373      FA
 374 0148 CF3874E2 		.ascii	"\3178t\342\014>\221\356\233\361\177\304\354y\221\256"
 374      0C3E91EE 
ARM GAS  /tmp/ccWCK3xB.s 			page 30


 374      9BF17FC4 
 374      EC7991AE 
 375 0158 A19595EA 		.ascii	"\241\225\225\352\273\202*J?!0Z\350\222\350\017e\372"
 375      BB822A4A 
 375      3F21305A 
 375      E892E80F 
 375      65FA
 376 016a AF58F4D4 		.ascii	"\257X\364\3240&\237\012t\213t\177\365d\227\216z\353"
 376      30269F0A 
 376      748B747F 
 376      F564978E 
 376      7AEB
 377 017c 88770F64 		.ascii	"\210w\017d\011LZd\373\272&\256\271?\272\273\274eD\315"
 377      094C5A64 
 377      FBBA26AE 
 377      B93FBABB 
 377      BC6544CD 
 378 0190 D681186E 		.ascii	"\326\201\030n\033-\265\373\337\326id\365tx$\205\013"
 378      1B2DB5FB 
 378      DFD66964 
 378      F5747824 
 378      850B
 379 01a2 C8E13613 		.ascii	"\310\3416\023\250?\026\361\357<\363}il=(\334\333\272"
 379      A83F16F1 
 379      EF3CF37D 
 379      696C3D28 
 379      DCDBBA
 380 01b5 5BA73394 		.ascii	"[\2473\224\356A\011\377D\306\207\023\334\333S\021\177"
 380      EE4109FF 
 380      44C68713 
 380      DCDB5311 
 380      7F
 381 01c6 75B27628 		.ascii	"u\262v(\225\355\217\3423hiqv\261B+\247\317\204g\022"
 381      95ED8FE2 
 381      33686971 
 381      76B1422B 
 381      A7CF8467 
 382 01db FEB98CBF 		.ascii	"\376\271\214\277>\036?}o\024\177\353} \235\035S\246"
 382      3E1E3F7D 
 382      6F147FEB 
 382      7D209D1D 
 382      53A6
 383 01ed F78CAF57 		.ascii	"\367\214\257W\2012}\237\204\017\311\370\332X\370\350"
 383      81327D9F 
 383      840FC9F8 
 383      DA58F8E8 
 384 01fd CDF58BF8 		.ascii	"\315\365\213\370O-\203\213\321\233S\303\200|s7tq\335"
 384      4F2D838B 
 384      D19B53C3 
 384      807C7337 
 384      7471DD
 385 0210 0793BFB9 		.ascii	"\007\223\277\271!)\334\260\034\256>\201\373\210\210"
 385      2129DCB0 
 385      1CAE3E81 
 385      FB8888
 386 021f 9F5B9D28 		.ascii	"\237[\235(a\277+\325\373<5\001\235R}T\242\217\311\364"
 386      61BF2BD5 
ARM GAS  /tmp/ccWCK3xB.s 			page 31


 386      FB3C3501 
 386      9D527D54 
 386      A28FC9F4 
 387 0233 9B09D45F 		.ascii	"\233\011\324_\210\364\277_z\035 \030\227\325\033\343"
 387      88F4BF5F 
 387      7A1D2018 
 387      97D51BE3 
 388 0243 AB4F24AF 		.ascii	"\253O$\257>)\205{)\207kJ\240>%\342{\267:;T\354m\254"
 388      3E29857B 
 388      29876B4A 
 388      A03E25E2 
 388      7BB73A3B 
 389 025b 70DFFAF6 		.ascii	"p\337\372\366#\374\217\373\264\204\177%\343\275\011"
 389      23FC8FFB 
 389      B4847F25 
 389      E3BD09
 390 026a DC5F13BC 		.ascii	"\334_\023\274R\326\027_\366M\362\2623R\232Y1\315\027"
 390      52D6175F 
 390      F64DF2B2 
 390      33529A59 
 390      31CD17
 391 027d 280FF98F 		.ascii	"(\017\371\217DJt,\023\036\371\341%\212{\015\006\243"
 391      444A742C 
 391      131EF9E1 
 391      258A7B0D 
 391      06A3
 392 028f F872720E 		.ascii	"\370rr\016\247\321\3564:l.\273\205\223\336\026\322g"
 392      A7D1EE34 
 392      3A6C2EBB 
 392      8593DE16 
 392      D267
 393 02a1 A183BBE8 		.ascii	"\241\203\273\350\342J-\\\241\311\224k\260\240=999\372"
 393      E24A2D5C 
 393      A1C9946B 
 393      B0A03D39 
 393      3939FA
 394 02b4 3CBBED8C 		.ascii	"<\273\355\214\313\342<\240\2173\016\026[\213\254\307"
 394      CBE23CA0 
 394      8F330E16 
 394      5B8BACC7 
 395 02c4 0B8CF927 		.ascii	"\013\214\371'Q6\335S\3404\027\225p\372\303%\346\263"
 395      5136DD53 
 395      E0341795 
 395      70FAC325 
 395      E6B3
 396 02d6 31F7913F 		.ascii	"1\367\221?\250H\357i\316\356\260\332J\311\036\273\265"
 396      A848EF69 
 396      CEEEB0DA 
 396      4AC91EBB 
 396      B5
 397 02e7 34463B52 		.ascii	"4F;R\3573\230\014&q\303Q\3639\233]\177\314u\241\210"
 397      EF33980C 
 397      2671C351 
 397      F3399B5D 
 397      7FCC75A1 
 398 02fc B3C7A247 		.ascii	"\263\307\242G;\255\245Iv\346\231\235\226\342D\235\177"
 398      3BADA549 
ARM GAS  /tmp/ccWCK3xB.s 			page 32


 398      76E6999D 
 398      96E2449D 
 398      7F
 399 030d 00D58C65 		.ascii	"\000\325\214e/"
 399      2F
 400              		.text
 401              		.section	.gnu.lto_rt_test_001_001_execute.2b3accfbf533effa,"",%progbits
 402 0000 789C8D96 		.ascii	"x\234\215\226]LSg\030\307\337\347\034,\245jA\335\256"
 402      5D4C5367 
 402      18C7DFE7 
 402      1C2CA56A 
 402      41DDAE
 403 0013 E6C539D9 		.ascii	"\346\3059\331\315\270hiI\325\340\035!\306\354\002\343"
 403      CDB86869 
 403      49D5E01D 
 403      21C6EC02 
 403      E3
 404 0024 5CDC2E96 		.ascii	"\\\334.\226\205\034\333Wm(\255;-\304\273\036\220\263"
 404      851CDB57 
 404      6D28AD3B 
 404      2DC4BB1E 
 404      90B3
 405 0036 2F33871A 		.ascii	"/3\207\032\2307\246\213q\212\037[\005\354\370\330\220"
 405      9837A68B 
 405      718A1F5B 
 405      05ECF8D8 
 405      90
 406 0047 96491DCA 		.ascii	"\226I\035\312@\374\200\012\027\030\222\271e3\006\324"
 406      40FC800A 
 406      171892B9 
 406      653306D4 
 407 0057 5DC874DD 		.ascii	"]\310t\335\373\236\227\223s\022\245\307\223&=}\336\347"
 407      FB9E9793 
 407      7312A5C7 
 407      93263D7D 
 407      DEE7
 408 0069 F93DBF7F 		.ascii	"\371=\277\177\223\223\266\010\001\242\327\240\015\241"
 408      9393B608 
 408      01A2D7A0 
 408      0DA1
 409 0077 0972FB16 		.ascii	"\011r\373\026\271\007\036\001\3276\216P\263\235\003"
 409      B9071E01 
 409      D7368E50 
 409      B39D03
 410 0086 A0378A1D 		.ascii	"\2407\212\035P\234\2038\374\303\275\340`\370\263\007"
 410      509C8338 
 410      FCC3BDE0 
 410      60F8B307 
 411 0096 FD5CF959 		.ascii	"\375\\\371Y\205\\\367\3259\247\322\231\006\225G(\317"
 411      855CF7D5 
 411      39A7D299 
 411      06954728 
 411      CF
 412 00a7 69240467 		.ascii	"i$\004g\241\034\221\266\371\256\377\332\327\332Zi\233"
 412      A11C91B6 
 412      F9AEFFDA 
 412      D7DA5A69 
ARM GAS  /tmp/ccWCK3xB.s 			page 33


 412      9B
 413 00b8 C00EA113 		.ascii	"\300\016\241\023lt]rWZ\311\347\017)J\257w\364\3557\020"
 413      6C745D72 
 413      575AC9E7 
 413      0F294AAF 
 413      77F4ED37 
 414 00cd 5A208774 		.ascii	"Z \207t\315\"\307\321w\376\001\264<]\030\342i;\341t"
 414      CD22C7D1 
 414      77FE01B4 
 414      3C5D18E2 
 414      693BE174 
 415 00e1 A8C313C5 		.ascii	"\250\303\023\305O9\225\007\240\330\376\376\207\263\305"
 415      4F399507 
 415      A0D8FEFE 
 415      87B3C5
 416 00f0 F117CAE7 		.ascii	"\361\027\312\347\212RFj_\220\315\264|x\341N\217#\001"
 416      8A52466A 
 416      5F90CDB4 
 416      7C78E14E 
 416      8F2301
 417 0103 279B15AD 		.ascii	"'\233\025\255\316\301y\242{\0166\222\255\027 \001\244"
 417      CEC179A2 
 417      7B0E3692 
 417      AD172001 
 417      A4
 418 0114 E3F2D56B 		.ascii	"\343\362\325k\237\332)\207\204\202\213\344\344OhM\267"
 418      9FDA2987 
 418      84828BE4 
 418      E44F684D 
 418      B7
 419 0125 6739BAE6 		.ascii	"g9\272\346e0\237\347\210*|\017qz\326u*\233\265\213["
 419      65309FE7 
 419      882A7C0F 
 419      717AD675 
 419      2A9BB58B 
 420 013a 12CA0941 		.ascii	"\022\312\011A\345\213h\345Jfn\306N\272O\220}\357\251"
 420      E58B68E5 
 420      4A666EC6 
 420      4EBA4F90 
 420      7DEFA9
 421 014d FC2AF801 		.ascii	"\374*\370\001D\215\004I\210\253\274M\243\177S\200N2"
 421      448D0449 
 421      88ABBC4D 
 421      A37F5380 
 421      4E32
 422 015f C325463F 		.ascii	"\303%F?u\364\342c\020%F/\246\225\266\211\261{\266e\372"
 422      75F4E263 
 422      1025462F 
 422      A695B689 
 422      B17BB665 
 423 0174 6E95B743 		.ascii	"n\225\267C\227N\3576\350'-\334{\030\375\357D\317\031"
 423      974EEF36 
 423      E8272DDC 
 423      7B18FDEF 
 423      44CF19
 424 0187 10EB4DEE 		.ascii	"\020\353M\356\347\347\373\232\035f\367\313:=e\320\023"
 424      E7E7FB9A 
ARM GAS  /tmp/ccWCK3xB.s 			page 34


 424      1D66F7CB 
 424      3A3D65D0 
 424      13
 425 0198 16EE3F32 		.ascii	"\026\356?2\372\370\327\243;\305v`\364\022Z\031\375="
 425      FAF8D7A3 
 425      3BC57660 
 425      F4125A19 
 425      FD3D
 426 01aa 73D8E4EE 		.ascii	"s\330\344\356\200^\235\336g\320S\026\356\375\214\236"
 426      805E9DDE 
 426      67D05316 
 426      EEFD8C9E 
 427 01ba 9C1AE92E 		.ascii	"\234\032\351.\025\277\005\223\374\263#\275\371R\263"
 427      15BF0593 
 427      FCB323BD 
 427      F952B3
 428 01c9 FC808EFF 		.ascii	"\374\200\216\377\311\300\367Z\310\377\314\3603O\276"
 428      C9C0F75A 
 428      C8FFCCF0 
 428      334FBE
 429 01d8 4B80787D 		.ascii	"K\200x}\031\277\232\226r_\235\233r\032\366k`P\307_1"
 429      19BF9A96 
 429      725F9D9B 
 429      721AF66B 
 429      6050C75F 
 430 01ed F08316F6 		.ascii	"\360\203\026\366C\014\277\264\230\270T$\266q&\373\311"
 430      430CBFB4 
 430      98B85424 
 430      B67126FB 
 430      C9
 431 01fe DC6CABD3 		.ascii	"\334l\253\323l\237\326\361\031\003?da?\314\360\217\206"
 431      6C9FD6F1 
 431      19033F64 
 431      613FCCF0 
 431      8F86
 432 0210 1E3D7188 		.ascii	"\036=q\210\003\313\370\265Z)\3377Uj\330;\341\027\035"
 432      03CBF8B5 
 432      5A29DF37 
 432      556AD83B 
 432      E1171D
 433 0223 7FD5C0DF 		.ascii	"\177\325\300\337\265\260\037a\370\207\203c\363N\361"
 433      B5B01F61 
 433      F8878363 
 433      F34EF1
 434 0232 A6D97E66 		.ascii	"\246\331~f\251\343X\211\331>\253\343\257\031\370\351"
 434      A9E35889 
 434      D93EABE3 
 434      AF19F8E9 
 435 0242 95F0A579 		.ascii	"\225\360\245y\216<\254\360+\303g\356w/\256\246\217c"
 435      8E3CACF0 
 435      2BC367EE 
 435      772FAEA6 
 435      8F63
 436 0254 1914C128 		.ascii	"\031\024\301(lT\371u\332x\316V0\373u6\235j\351\314\332"
 436      6C54F975 
 436      DA78CE56 
 436      30FB7536 
ARM GAS  /tmp/ccWCK3xB.s 			page 35


 436      9D6AE9CC 
 437 0269 C4A565B9 		.ascii	"\304\245e\271\365\264t!5\335^ld\337\0007t\2711Cn\316"
 437      F5B47421 
 437      35DD5E6C 
 437      64DF0037 
 437      74B93143 
 438 027f 22FB6F0C 		.ascii	"\"\373o\014\337\221\2725\351\024\237\233\263'\377\310"
 438      DF91BA35 
 438      E9149F9B 
 438      B327FFC8 
 439 028f 27D798B3 		.ascii	"'\327\230\263\217\353\370\011\003\277h\221\375&\303"
 439      8FEBF809 
 439      03BF6891 
 439      FD26C3
 440 029e 7FB9347D 		.ascii	"\177\2714}\304\316\262\333a\322\310\376\270p\366[\257"
 440      C4CEB2DB 
 440      61D2C8FE 
 440      B870F65B 
 440      AF
 441 02af 9FFDB62E 		.ascii	"\237\375\266.w\307\220{f\221\375.\303\337\0369}h\225"
 441      77C7907B 
 441      6691FD2E 
 441      C3DF1E39 
 441      7D6895
 442 02c2 78863765 		.ascii	"x\2067e\317\035\315l0G\237\322\351\323\006\375_\213"
 442      CF1DCD6C 
 442      30479FD2 
 442      E9D306FD 
 442      5F8B
 443 02d4 E8394237 		.ascii	"\3509B7g}^8\353\275\327\317:\243\333\3142\233\277\240"
 443      677D5E38 
 443      EBBDD7CF 
 443      3AA3DBCC 
 443      329BBFA0 
 444 02e8 257D7CBB 		.ascii	"%}|\273V\242\327\002\011G~U\010\324\347vW\260W\014G"
 444      56A2D702 
 444      09477E55 
 444      08D4E776 
 444      57B0570C 
 445 02fd 631572AC 		.ascii	"c\025r\254\"\032i\224\375X\377XG\337\353\242\370\223"
 445      221A6994 
 445      FD58FF58 
 445      47DFEBA2 
 445      F893
 446 030f 461CF6E3 		.ascii	"F\034\366\343:\217\307\353\366\243r\227\313%T\313\376"
 446      3A8FC7EB 
 446      F6A37297 
 446      CB2554CB 
 446      FE
 447 0320 FDC118F6 		.ascii	"\375\301\030\366\307\032e\274Ux\365\205J\252w\3256m"
 447      C71A65BC 
 447      5578F585 
 447      4AAA77D5 
 447      366D
 448 0332 D9E6AA65 		.ascii	"\331\346\252e35\021\031\013\037HrP\012\307V\234q\220"
 448      33351119 
 448      0B1F4872 
ARM GAS  /tmp/ccWCK3xB.s 			page 36


 448      500AC756 
 448      9C7190
 449 0345 AE183EE8 		.ascii	"\256\030>\350\252\365\351C\015\007\202!,\2574\240\015"
 449      AAF5E943 
 449      0D078221 
 449      2CAF34A0 
 449      0D
 450 0356 6DDB5E53 		.ascii	"m\333^S#lr\373\334^\241\322\343\335\354\251\362V\011"
 450      236C72FB 
 450      DC5EA1D2 
 450      E3DDECA9 
 450      F25609
 451 0369 EFC83884 		.ascii	"\357\3108\204\245(.\027>\"\032\025\270a\017\016\004"
 451      A5282E17 
 451      3E221A15 
 451      B8610F0E 
 451      04
 452 037a 70C0B5C9 		.ascii	"p\300\265\311\265G\226\302\376\375\202\214\233\202\321"
 452      B54796C2 
 452      FEFD828C 
 452      9B82D1
 453 0389 60242C54 		.ascii	"`$,T\372<\276\252\315\037\263};\311z\341\335\360\336"
 453      FA3CBEAA 
 453      CD1FB37D 
 453      3BC97AE1 
 453      DDF0DE
 454 039c 488185E8 		.ascii	"H\201\205\350\315\352@\023a\340\200P\217\3450\016\011"
 454      CDEA4013 
 454      61E08050 
 454      8FE5300E 
 454      09
 455 03ad 0D910066 		.ascii	"\015\221\000f\363;$\362\225H!A\012\005\367\205\033\360"
 455      F33B24F2 
 455      95482141 
 455      0A05F785 
 455      1BF0
 456 03bf 2B9392BF 		.ascii	"+\223\222\277\030Z\357\3731\311__\260\223\364j\235\037"
 456      185AEFFB 
 456      31C95F5F 
 456      B093F46A 
 456      9D1F
 457 03d1 46E4FA60 		.ascii	"F\344\372`x\237 \311XZi\000\375\017A\245\346\023"
 457      789F20C9 
 457      585A6900 
 457      FD0F41A5 
 457      E613
 458              		.text
 459              		.section	.gnu.lto_rt_test_sequence_001.2b3accfbf533effa,"",%progbits
 460 0000 789C6361 		.ascii	"x\234ca`d\000\201l vf\200\200\277L\214\315\277\366\177"
 460      60640081 
 460      6C207666 
 460      8080BF4C 
 460      8CCDBFF6 
 461 0015 E6ABFFDB 		.ascii	"\346\253\377\3330\243\241\341A\353c\251Vf\206Nf\210"
 461      30A3A1E1 
 461      41EB63A9 
 461      5666864E 
ARM GAS  /tmp/ccWCK3xB.s 			page 37


 461      6688
 462 0027 CC925D2B 		.ascii	"\314\222]+\246q)\232\317o\230\241\320\312\314\010\022"
 462      A671299A 
 462      CF6F98A1 
 462      D0CACC08 
 462      12
 463 0038 39BB7AED 		.ascii	"9\273z\355AV\210\332\003\323\304Z\231\231\030W0*\202"
 463      415688DA 
 463      03D3C45A 
 463      99991857 
 463      302A82
 464 004b D54EB8D0 		.ascii	"\325N\270\320\363\223\333b[C\307\202\006\240b\346\177"
 464      F393DB62 
 464      5B43C782 
 464      06A062E6 
 464      7F
 465 005c 4C0C8C2B 		.ascii	"L\014\214+\031\353\377112.g\254g`\\\305h\301`\242\247"
 465      19EBFF31 
 465      31322E67 
 465      AC67605C 
 465      C568C160 
 466 0072 A70F4125 		.ascii	"\247\017A%\251\305%\372E%\372\305\371\245E\311\2510"
 466      A9C525FA 
 466      4525FAC5 
 466      F9A545C9 
 466      A930
 467 0084 6E3C888E 		.ascii	"n<\210\216/N-,M\315KN\215700\324Kf\340\361\314K\313"
 467      2F4E2D2C 
 467      4DCD4B4E 
 467      8D373030 
 467      D44B66E0 
 468 009c 2FCA4D2C 		.ascii	"/\312M,\311\314\317c\000\000i#?\331"
 468      C9CCCF63 
 468      00006923 
 468      3FD9
 469              		.text
 470              		.section	.gnu.lto_rt_test_sequence_001_array.2b3accfbf533effa,"",%progbits
 471 0000 789C6361 		.ascii	"x\234ca`d\000\201u@l\306\000\001\177\231\030\247\265"
 471      60640081 
 471      75406CC6 
 471      00017F99 
 471      18A7B5
 472 0013 1E3ACFFE 		.ascii	"\036:\317\376\205\251\225\031(\015\344\036\372\264a"
 472      85A99519 
 472      280DE41E 
 472      FAB461
 473 0022 390F88CB 		.ascii	"9\017\210\313\310\310\014\3446\377\332\377\231\257\376"
 473      C8C80CE4 
 473      36FFDAFF 
 473      99AFFE
 474 0031 6FC38C86 		.ascii	"o\303\214\206\206\007O\367I\001Uu2C\364\035\375\377"
 474      86074FF7 
 474      49015575 
 474      3243F41D 
 474      FDFF
 475 0043 FD003F44 		.ascii	"\375\000?D!\023\252\302\003_\204\301\352\030\301\352"
 475      2113AAC2 
ARM GAS  /tmp/ccWCK3xB.s 			page 38


 475      035F84C1 
 475      EA18C1EA 
 476 0053 90253E41 		.ascii	"\220%>A$\230\300\022\037\346\237\336\304f\261\255\241"
 476      2498C012 
 476      1FE69FDE 
 476      C466B1AD 
 476      A1
 477 0064 63418343 		.ascii	"cA\203C+3\023\243\241\014\343\032\306zF#\031\306\325"
 477      2B3313A3 
 477      A10CE31A 
 477      C67A4623 
 477      19C6D5
 478 0077 406A15A3 		.ascii	"@j\025\243\014\343J \275\002H/g\224a`\\\313h\301`\242"
 478      0CE34A20 
 478      BD02482F 
 478      67946160 
 478      5CCB68C1 
 479 008d A7A70F41 		.ascii	"\247\247\017A%\251\305%\372E%\372\305\371\245E\311\251"
 479      25A9C525 
 479      FA4525FA 
 479      C5F9A545 
 479      C9A9
 480 009f 306E3C88 		.ascii	"0n<\210\216/N-,M\315KN\215700\324Kf\000\000\227\353"
 480      8E2F4E2D 
 480      2C4DCD4B 
 480      4E8D3730 
 480      30D44B66 
 481 00b7 53AF     		.ascii	"S\257"
 482              		.text
 483              		.section	.gnu.lto_rt_test_001_001.2b3accfbf533effa,"",%progbits
 484 0000 789C6361 		.ascii	"x\234ca`d\000\201\016 vd\200\200\277L\214;w\276\271"
 484      60640081 
 484      0E207664 
 484      8080BF4C 
 484      8C3B77BE 
 485 0015 CD5EFFB7 		.ascii	"\315^\377\267\241\243\241\341\301\323\317\022\255\314"
 485      A1A3A1E1 
 485      C1D3CF12 
 485      ADCC
 486 0023 0CFF9920 		.ascii	"\014\377\231 2\323Z\017\235g\377\302\004\024a\004q\327"
 486      32D35A0F 
 486      9D67FFC2 
 486      04146104 
 486      71D7
 487 0035 CFFF3895 		.ascii	"\317\3778\225[\321|~\303\014\205Vf\260\310\346\271/"
 487      5BD17C7E 
 487      C30C8556 
 487      66B0C8E6 
 487      B92F
 488 0047 16F100B5 		.ascii	"\026\361\000\265\316hh80\203\275\225\231\211q%\243\""
 488      CE686838 
 488      3083BD95 
 488      99897125 
 488      A322
 489 0059 58EBA7F5 		.ascii	"X\353\247\365\213\357qYlk\350X\320\340\320\312\314\374"
 489      8BEF7159 
 489      6C6BE858 
ARM GAS  /tmp/ccWCK3xB.s 			page 39


 489      D0E0D0CA 
 489      CCFC
 490 006b 8F898171 		.ascii	"\217\211\201q\025c\375?&F\306\025\2142\377\230\230 "
 490      1563FD3F 
 490      2646C615 
 490      8C32FF98 
 490      9820
 491 007d 1433E372 		.ascii	"\0243\343r\306z\006\306\325\214\026\014&zz\372\020T"
 491      C67A06C6 
 491      D58C160C 
 491      267A7AFA 
 491      1054
 492 008f 925A5CA2 		.ascii	"\222Z\\\242_T\242_\234_Z\224\234\012\343\306\203\350"
 492      5F54A25F 
 492      9C5F5A94 
 492      9C0AE3C6 
 492      83E8
 493 00a1 F8E2D4C2 		.ascii	"\370\342\324\302\322\324\274\344\324x\003\003C\275d"
 493      D2D4BCE4 
 493      D4780303 
 493      43BD64
 494 00b0 06AE80FC 		.ascii	"\006\256\200\374\242\022\005\317\274\264|\006\000K\252"
 494      A21205CF 
 494      BCB47C06 
 494      004BAA
 495 00bf 48DC     		.ascii	"H\334"
 496              		.text
 497              		.section	.gnu.lto_rt_test_001_002.2b3accfbf533effa,"",%progbits
 498 0000 789C6361 		.ascii	"x\234ca`d\000\2016 vf\200\200\277L\214;w\276\271\315"
 498      60640081 
 498      36207666 
 498      8080BF4C 
 498      8C3B77BE 
 499 0016 5EFFB7A1 		.ascii	"^\377\267\241\243\241\341A\353*\311Vf\206\377L\020\231"
 499      A3A1E141 
 499      EB2AC956 
 499      6686FF4C 
 499      1099
 500 0028 69AD87CE 		.ascii	"i\255\207\316\263\177a\002\2120\202\270\177Z\317\352"
 500      B37F6102 
 500      8A3082B8 
 500      7F5ACFEA 
 501 0038 2B9ACF6F 		.ascii	"+\232\317o\230\241\320\312\014\026h\337;q.\037P\347"
 501      98A1D0CA 
 501      0C1668DF 
 501      3B712E1F 
 501      50E7
 502 004a 8C868603 		.ascii	"\214\206\206\003\273\270Z\231\231\030W2*\202u\236X\366"
 502      BBB85A99 
 502      99185732 
 502      2A82759E 
 502      58F6
 503 005c 96D5625B 		.ascii	"\226\325b[C\307\202\006\207Vf\346\177L\014\214\253\030"
 503      43C78206 
 503      875666E6 
 503      7F4C0C8C 
 503      AB18
ARM GAS  /tmp/ccWCK3xB.s 			page 40


 504 006e EBFF3131 		.ascii	"\353\377112\256`\224\371\307\304\004\241\230\031\227"
 504      32AE6094 
 504      F9C7C404 
 504      A1981997 
 505 007e 33D63330 		.ascii	"3\32630\256f\264`0\321\323\323\207\240\222\324\342\022"
 505      AE66B460 
 505      30D1D3D3 
 505      87A092D4 
 505      E212
 506 0090 FDA212FD 		.ascii	"\375\242\022\375\342\374\322\242\344T\0307\036D\307"
 506      E2FCD2A2 
 506      E4541837 
 506      1E44C7
 507 009f 17A71696 		.ascii	"\027\247\026\226\246\346%\247\306\033\030\030\352%3"
 507      A6E625A7 
 507      C61B1818 
 507      EA2533
 508 00ae F078A716 		.ascii	"\360x\247\026\345\245\346(x\346\245\3453\000\000p\263"
 508      E5A5E628 
 508      78E6A5E5 
 508      33000070 
 508      B3
 509 00bf 4783     		.ascii	"G\203"
 510              		.text
 511              		.section	.gnu.lto_rt_test_001_003.2b3accfbf533effa,"",%progbits
 512 0000 789C6361 		.ascii	"x\234ca`d\000\201v vg\200\200\277L\214;w\276\271\315"
 512      60640081 
 512      76207667 
 512      8080BF4C 
 512      8C3B77BE 
 513 0016 5EFFB7A1 		.ascii	"^\377\267\241\243\241\341\301\321\355R\255\314\014\377"
 513      A3A1E1C1 
 513      D1ED52AD 
 513      CC0CFF
 514 0025 992032D3 		.ascii	"\231 2\323Z\017\235g\377\302\004\024a\004q\217\266u"
 514      5A0F9D67 
 514      FFC20414 
 514      6104718F 
 514      B675
 515 0037 76722B9A 		.ascii	"vr+\232\317o\230\241\320\312\014\026\371\272\362\266"
 515      CF6F98A1 
 515      D0CA0C16 
 515      F9BAF2B6 
 516 0047 3550E78C 		.ascii	"5P\347\214\206\206\003\333\204[\231\231\030W2*\202u"
 516      868603DB 
 516      845B9999 
 516      1857322A 
 516      8275
 517 0059 2EDB3DE5 		.ascii	".\333=\345\017\227\305\266\206\216\005\015\016\255\314"
 517      0F97C5B6 
 517      868E050D 
 517      0EADCC
 518 0068 CCFF9818 		.ascii	"\314\377\230\030\030W1\326\377cbd\\\301(\363\217\211"
 518      185731D6 
 518      FF636264 
 518      5CC128F3 
 518      8F89
ARM GAS  /tmp/ccWCK3xB.s 			page 41


 519 007a 09423133 		.ascii	"\011B13.g\254g`\\\315h\301`\242\247\247\017A%\251\305"
 519      2E67AC67 
 519      605CCD68 
 519      C160A2A7 
 519      A70F4125 
 520 0090 25FA4525 		.ascii	"%\372E%\372\305\371\245E\311\2510n<\210\216/N-,M\315"
 520      FAC5F9A5 
 520      45C9A930 
 520      6E3C888E 
 520      2F4E2D2C 
 521 00a6 4B4E8D37 		.ascii	"KN\215700\324Kf\020\360N-\312K\315Q\010N-)\311\314K"
 521      3030D44B 
 521      6610F04E 
 521      2DCA4BCD 
 521      51084E2D 
 522 00be 2F660000 		.ascii	"/f\000\000J\367J^"
 522      4AF74A5E 
 523              		.text
 524              		.section	.gnu.lto_.symbol_nodes.2b3accfbf533effa,"",%progbits
 525 0000 789C5D94 		.ascii	"x\234]\224\333\252\032A\024D\367\354\326\200\232\247"
 525      DBAA1A41 
 525      1444F7EC 
 525      D6809AA7 
 526 0010 FC40F2A7 		.ascii	"\374@\362\247c`s\004\005\015\012\012\012\232\313|D\036"
 526      63607304 
 526      050D0A0A 
 526      0A9ACB7C 
 526      441E
 527 0022 1318C8FD 		.ascii	"\023\030\310\375\344\362\0051\016G\320\240\240\240\240"
 527      E4F20531 
 527      0E47D0A0 
 527      A0A0A0
 528 0031 44D3D35D 		.ascii	"D\323\323]\005\311y\352=U\272\326[U$\221\207\017DD?"
 528      05C979EA 
 528      3D55BAD6 
 528      5B552491 
 528      870F4444 
 529 0046 692AF2EC 		.ascii	"i*\362\354V\304?\257\237\277h:\221\352W\225'e\367A\323"
 529      56C43FAF 
 529      9FBF683A 
 529      91EA5795 
 529      2765F741 
 530 005b E45EA7EF 		.ascii	"\344^\247\3574\325\373\277\277\325\344\351#\377\207"
 530      34D5FBBF 
 530      BFD5E4E9 
 530      23FF87
 531 006a EA17D578 		.ascii	"\352\027\325x\274W\327\364\207\253~\324J<>k5\034\311"
 531      BC57D7F4 
 531      87AB7ED4 
 531      4A3C3E6B 
 531      351CC9
 532 007d 0F4D5D00 		.ascii	"\017M]\000\2104\233^\223|\327\264\362_\360M\323\352"
 532      88349B5E 
 532      937CD7B4 
 532      F25FF04D 
 532      D3EA
 533 008f BF819386 		.ascii	"\277\201\223\206\344?/\211\223\272\024\341\255\211\315"
ARM GAS  /tmp/ccWCK3xB.s 			page 42


 533      E43F2F89 
 533      93BA14E1 
 533      AD89CD
 534 009e CBB721D9 		.ascii	"\313\267!\331<\346\371<\346\005r\273\371\375\270\314"
 534      3CE6F93C 
 534      E60572BB 
 534      F9FDB8CC 
 535 00ae B3F0D624 		.ascii	"\263\360\326$\017oC\012\344\326\212y\326\212y\336\212"
 535      0F6F430A 
 535      E4D68A79 
 535      D68A79DE 
 535      8A
 536 00bf 7981DCDA 		.ascii	"y\201\334\3321\317\3321\317\3331/\220[\007\374\016\370"
 536      31CFDA31 
 536      CFDB312F 
 536      905B07FC 
 536      0EF8
 537 00d1 1DF0915B 		.ascii	"\035\360\221[\027\374.\370]\360\221[\017\374\036\370"
 537      17FC2EF8 
 537      5DF0915B 
 537      0FFC1EF8 
 538 00e1 3DF0915B 		.ascii	"=\360\221[\037\374>\370}\360\221\333\000\374\001\370"
 538      1FFC3EF8 
 538      7DF091DB 
 538      00FC01F8 
 539 00f1 03F091DB 		.ascii	"\003\360\221\333\020\374!\370C\360\221\333\010\374\021"
 539      10FC21F8 
 539      43F091DB 
 539      08FC11
 540 0100 F823F091 		.ascii	"\370#\360\221\333\030\3741\370c\360\221\333\004\374"
 540      DB18FC31 
 540      F863F091 
 540      DB04FC
 541 010f 09F813F0 		.ascii	"\011\370\023\360\221\333\024\374)\370S\360\221\333\014"
 541      91DB14FC 
 541      29F853F0 
 541      91DB0C
 542 011e FC19F833 		.ascii	"\374\031\3703\360\221\333\2577\177\\\020\304\303\033"
 542      F091DBAF 
 542      377F5C10 
 542      C4C31B
 543 012d E2E115AC 		.ascii	"\342\341\025\254l\201*[\240\312\027\250\012Vv\207*\273"
 543      6C812A5B 
 543      A0CA17A8 
 543      0A567687 
 543      2ABB
 544 013f 4395DFA1 		.ascii	"C\225\337\241*X\331\222\256%]K\272X\331\212\256\025"
 544      2A58D992 
 544      AE255D4B 
 544      BA58D98A 
 544      AE15
 545 0151 5D2BBA58 		.ascii	"]+\272X\331\232\2565]k\272X\331\206\256\015]\033\272"
 545      D99AAE35 
 545      5D6BBA58 
 545      D986AE0D 
 545      5D1BBA
 546 0164 58D996AE 		.ascii	"X\331\226\256-][\272X\331\216\256\035];\272X\331\236"
ARM GAS  /tmp/ccWCK3xB.s 			page 43


 546      2D5D5BBA 
 546      58D98EAE 
 546      1D5D3BBA 
 546      58D99E
 547 0177 AE3D5D7B 		.ascii	"\256=]{\272X\331\201\256\003]\007\272X\331\221\256#"
 547      BA58D981 
 547      AE035D07 
 547      BA58D991 
 547      AE23
 548 0189 5D47BA58 		.ascii	"]G\272X\331\211\256\023]'\272X\331\231\2563]g\272X\331"
 548      D989AE13 
 548      5D27BA58 
 548      D999AE33 
 548      5D67BA58 
 549 019e 85AE0B5D 		.ascii	"\205\256\013]\027\272X\331\225\256+]W\272X\331\313\267"
 549      17BA58D9 
 549      95AE2B5D 
 549      57BA58D9 
 549      CBB7
 550 01b0 70C5C3BB 		.ascii	"p\305\303\273\342\341]\254\354\025\252,\034Z\213+\243"
 550      E2E15DAC 
 550      EC15AA2C 
 550      1C5A8B2B 
 550      A3
 551 01c1 8DB8325A 		.ascii	"\215\2702Z\217+\343\363\2602>\317\361]\340;\254\214"
 551      8F2BE3F3 
 551      B0323ECF 
 551      F15DE03B 
 551      AC8C
 552 01d3 6265142B 		.ascii	"be\024+\243X\031\305\312(VF\2612\212\225Q\254\214\303"
 552      A35819C5 
 552      CA285646 
 552      B1328A95 
 552      51AC8CC3 
 553 01e7 BAB95AF4 		.ascii	"\272\271Z\364\372\357\340u\360:x\035\274\016\336\262"
 553      FAEFE075 
 553      F03A781D 
 553      BC0EDEB2 
 554 01f7 BFC1FFC3 		.ascii	"\277\301\377\303[\217^\237\007\257\317\203\327\347\301"
 554      5B8F5E9F 
 554      07AFCF83 
 554      D7E7C1
 555 0206 5BFE1F79 		.ascii	"[\376\037y\364\326\343\272\371\274\\7\371\013\242\313"
 555      F4D6E3BA 
 555      F9BC5C37 
 555      F90BA2CB 
 556 0216 F6C0     		.ascii	"\366\300"
 557              		.text
 558              		.section	.gnu.lto_.refs.2b3accfbf533effa,"",%progbits
 559 0000 789C15C4 		.ascii	"x\234\025\304\301\001\000 \010\003\261\366@a\024\367"
 559      C1010020 
 559      0803B1F6 
 559      406114F7 
 560 0010 9F50C823 		.ascii	"\237P\310#)\353I\263\007[l\311\211\303\245h_\302\005"
 560      29EB49B3 
 560      075B6CC9 
 560      89C3A568 
ARM GAS  /tmp/ccWCK3xB.s 			page 44


 560      5FC205
 561 0023 6EA40F0E 		.ascii	"n\244\017\016\233\000\221"
 561      9B0091
 562              		.text
 563              		.section	.gnu.lto_.decls.2b3accfbf533effa,"",%progbits
 564 0000 789CB558 		.ascii	"x\234\265XYP\024\353\025\356\323=\0038\014\340\005\023"
 564      595014EB 
 564      15EED33D 
 564      03380CE0 
 564      0513
 565 0012 AD14D758 		.ascii	"\255\024\327X\026F\362\000#b\362\222\227Te\255$\225"
 565      1646F200 
 565      2362F292 
 565      975465AD 
 565      2495
 566 0024 FB90DC5B 		.ascii	"\373\220\334[y\243F\234D\253\024\2750T\342S\332\221"
 566      79A3469C 
 566      44AB14BD 
 566      3054E253 
 566      DA91
 567 0036 80E0062E 		.ascii	"\200\340\006.WA\005\304\205QP@DY\034\034\021\221\305"
 567      574105C4 
 567      85515040 
 567      44591C1C 
 567      1191C5
 568 0049 05440641 		.ascii	"\005D\006A\021DYD\257\354\342\302\222\363/\315L\217"
 568      11445944 
 568      AFECE2C2 
 568      92F32FCD 
 568      4C8F
 569 005b 33989774 		.ascii	"3\230\227tq\246\373\374}\316w\276\263L\367?h\004\020"
 569      71A6FBFC 
 569      7DCE77BE 
 569      B34CF73F 
 569      680410
 570 006e C8F1C710 		.ascii	"\310\361\307\020A\370\233(\010\353$A\230\303c\021\256"
 570      41F89B28 
 570      08EB2441 
 570      98C36311 
 570      AE
 571 007f 7D83F205 		.ascii	"}\203\362\005J\021J1J\005J5\312u\224Z\224[(\215(M(\315"
 571      4A114A31 
 571      4A054A35 
 571      CA75945A 
 571      945B288D 
 572 0097 282D280E 		.ascii	"(-(\016\224v\224'(](\317Pz\005v\370\240\364\243\014"
 572      94769427 
 572      285D28CF 
 572      507A0576 
 572      F8A0F4A3 
 573 00ac A20CA18C 		.ascii	"\242\014\241\214\240L\240\274\345\367\336\241,C:\313"
 573      A04CA0BC 
 573      E5F7DEA1 
 573      2C433ACB 
 574 00bc 5156A0AC 		.ascii	"QV\240\254D\011\003Au\020\177=\347\266\012\357}\205"
 574      44090341 
 574      75107F3D 
ARM GAS  /tmp/ccWCK3xB.s 			page 45


 574      E7B60AEF 
 574      7D85
 575 00ce E79F8093 		.ascii	"\347\237\200\223\3270\312j`\\\307]\270\223C\303\375"
 575      D730CA6A 
 575      605CC75D 
 575      B89343C3 
 575      FD
 576 00df DFF2B824 		.ascii	"\337\362\270$>\360\270\256\007\341\267\330C\014%\327"
 576      3EF0B8AE 
 576      07E1B7D8 
 576      430C25D7 
 577 00ef 61973A78 		.ascii	"a\227:x\212\245\324F\2119\310c)q=\305$\365X\362\231"
 577      8AA5D446 
 577      8939C863 
 577      29713DC5 
 577      24F558F2 
 578 0104 BC945A2A 		.ascii	"\274\224Z*\265Uj\255\324~\241\274\207x|\245\346\236"
 578      B5556AAD 
 578      D47EA1BC 
 578      87787CA5 
 578      E69E
 579 0116 3890DA13 		.ascii	"8\220\332\023\333p<G\240D\242,E\301\261\020\276\300"
 579      DB703C47 
 579      A044A22C 
 579      45C1B110 
 579      BEC0
 580 0128 7308EF05 		.ascii	"s\010\357\0059-w\353\013\321qt\204\000`y|\351r\237\254"
 580      392D77EB 
 580      0BD17174 
 580      84006079 
 580      7CE9729F 
 581 013d 87F17EAE 		.ascii	"\207\361~\256p\363[\301c\316\272\344\245\347kZr&\270"
 581      70F35BC1 
 581      63CEBAE4 
 581      A5E76B5A 
 581      7226B8
 582 0150 283EC0E2 		.ascii	"(>\300\342\016\011\237\036+]0\024\336\013a\014z\300"
 582      0E099F1E 
 582      2B5D3014 
 582      DE0B610C 
 582      7AC0
 583 0162 0873C188 		.ascii	"\010s\301\210\302\353\265\237\301\350\367\2001#BKR\361"
 583      C2EBB59F 
 583      C1E8F780 
 583      3123424B 
 583      52F1
 584 0174 71694284 		.ascii	"qiB\204`\035hP\035\275\233\365<\020\325%:X\201j\331"
 584      601D6850 
 584      1DBD9BF5 
 584      3C10D525 
 584      3A58816A 
 585 0189 0947B6BF 		.ascii	"\011G\266\277n\227\214G\372N9\270>\220\330Y!\024\362"
 585      6E978C47 
 585      FA4E39B8 
 585      3E90D859 
 585      2114F2
 586 019c 211461CF 		.ascii	"!\024a\317\201\016?\015\241\370G\260\332\336\331>\350"
ARM GAS  /tmp/ccWCK3xB.s 			page 46


 586      810E3F0D 
 586      A1F847B0 
 586      DADED93E 
 586      E8
 587 01ad 2511F05A 		.ascii	"%\021\360ZSj\351>\031\010\341\241\200\306\240;K\021"
 587      536AE93E 
 587      1908E1A1 
 587      80C6A03B 
 587      4B11
 588 01bf 645914E0 		.ascii	"dY\024\340\"\350\340<H\012\205,\031\321G\376M\226\361"
 588      22E8E03C 
 588      480A852C 
 588      19D147FE 
 588      4D96F1
 589 01d2 DA8F9E71 		.ascii	"\332\217\236q\305\"\217\344\311>\313\004\210\016\205"
 589      C5228FE4 
 589      C93ECB04 
 589      880E85
 590 01e1 35A10214 		.ascii	"5\241\002\024@8\275%\300\005\004,\004\032\317Q\355\310"
 590      4038BD25 
 590      C005042C 
 590      041ACF51 
 590      EDC8
 591 01f3 80E07482 		.ascii	"\200\340t\202=b\221\177\011\024\2339\010P\004\301\012"
 591      3D62917F 
 591      09149B39 
 591      085004C1 
 591      0A
 592 0204 43AAA0FD 		.ascii	"C\252\240\375\316\374\276>\177}\032A\347\331\340\272"
 592      CEFCBE3E 
 592      7F7D1A41 
 592      E7D9E0BA 
 593 0214 4B3AC5A0 		.ascii	"K:\305\240\247\323\202g\264\356\252?W@*\263Z\007\344"
 593      A7D38267 
 593      B4EEAA3F 
 593      57402AB3 
 593      5A07E4
 594 0227 F912844B 		.ascii	"\371\022\204KE\257+\336\007\260%\022\277\373\275\365"
 594      45AF2BDE 
 594      07B02512 
 594      BFFBBDF5 
 595 0237 B791854A 		.ascii	"\267\221\205Jj\276\316\242>\330?v\332WZL\214\304\272"
 595      6ABECEA2 
 595      3ED83F76 
 595      DA575A4C 
 595      8CC4BA
 596 024a BDA597FC 		.ascii	"\275\245\227\374!\234\225\240g\352\264\276B\226\027"
 596      219C95A0 
 596      67EAB4BE 
 596      429617
 597 0259 C315647A 		.ascii	"\303\025dz\031$(\205H\022q5a\271\313IL\230g\005e\230"
 597      19242885 
 597      48127135 
 597      61B9CB49 
 597      4C986705 
 598 026f 39C62386 		.ascii	"9\306#\206p\011\027KX\356\347Ng\344\371H\251@cd^>?\245"
 598      7009174B 
ARM GAS  /tmp/ccWCK3xB.s 			page 47


 598      58EEE74E 
 598      67E4F948 
 598      A9406364 
 599 0287 9B8FD196 		.ascii	"\233\217\321\226\266\256\220\304\250\300\030W\2351\256"
 599      B6AE90C4 
 599      A8C01857 
 599      9D31AE
 600 0296 80F720E5 		.ascii	"\200\367 \345\036\202\020\177\014tl\274\353\345\"6 "
 600      1E82107F 
 600      0C746CBC 
 600      EBE52236 
 600      20
 601 02a7 E1A8BEDF 		.ascii	"\341\250\276\337\273\267S\353}\"\252\224\211\250d4?"
 601      BBB753EB 
 601      7D22AA94 
 601      89A86434 
 601      3F
 602 02b8 5474E569 		.ascii	"Tt\345i\230\367OQ\315I\257L\012`\343U/\222B\325\215"
 602      98F74F51 
 602      CD49AF4C 
 602      0A60E355 
 602      2F9242D5 
 603 02cd 5507B10E 		.ascii	"U\007\261\016\342\007\357\240\015\321\256Q\264j\332"
 603      E207EFA0 
 603      0DD1AE51 
 603      B46ADA
 604 02dc C32AD6C3 		.ascii	"\303*\326\303j\332\303\023\235C\0274\252\036V\253zx"
 604      6ADAC313 
 604      9D431734 
 604      AA1E56AB 
 604      7A78
 605 02ee 9DF7F03A 		.ascii	"\235\367\360:\355a\303\351\312i=\013\257E5{\177\371"
 605      ED61C3E9 
 605      CA693D0B 
 605      AF45357B 
 605      7FF9
 606 0300 199D77F2 		.ascii	"\031\235w\3627\024\362vF\376\305\307\013\225\201\314"
 606      3714F276 
 606      46FEC5C7 
 606      0B9581CC 
 607 0310 DB07D5AA 		.ascii	"\333\007\325\252\253\327\352\264\214\374\032T\207\236"
 607      ABD7EAB4 
 607      8CFC1A54 
 607      879E
 608 031e BD3CA877 		.ascii	"\275<\250w\347~\023\301j(X-\345~\203q\257\245\334\017"
 608      E77E13C1 
 608      6A28582D 
 608      E57E8371 
 608      AFA5DC0F 
 609 0332 5FBB54AC 		.ascii	"_\273T\254Sq\257Uq\277\305\271\337\242\334\313\372S"
 609      5371AF55 
 609      71BFC5B9 
 609      DFA2DCCB 
 609      FA53
 610 0344 E500167D 		.ascii	"\345\000\026}-\252oF\353m\340\235\373m\205{\035\343"
 610      2DAA6F46 
 610      EB6DE09D 
ARM GAS  /tmp/ccWCK3xB.s 			page 48


 610      FB6D857B 
 610      1DE3
 611 0356 7EE0D5F0 		.ascii	"~\340\325\360}_\346\035\215j\357\251\343w\202\030\367"
 611      7D5FE61D 
 611      8D6AEFA9 
 611      E3778218 
 611      F7
 612 0367 A312EA67 		.ascii	"\243\022\352g;w\336\020\335\3117 Z=Ek\244\344o3\362"
 612      3B77DE10 
 612      DDC93720 
 612      5A3D456B 
 612      A4E46F33 
 613 037c 8D947CDE 		.ascii	"\215\224|\336\300\215n?\025\371F\025\371&N\276\211\222"
 613      C08D6E3F 
 613      15F94615 
 613      F9264EBE 
 613      8992
 614 038e 1F9D3E71 		.ascii	"\037\235>q\225O\315\022Tm{\252\3734\336\311\337U\310"
 614      954FCD12 
 614      546D7BAA 
 614      FB34DEC9 
 614      DF55C8
 615 03a1 DF61E49F 		.ascii	"\337a\344\237\347\317\036\361a\336?@u\334z)\333\217"
 615      E7CF1EF1 
 615      61DE3F40 
 615      75DC7A29 
 615      DB8F
 616 03b3 91B702EA 		.ascii	"\221\267\002\352\366\361\326\001?w\362\367\021\355\036"
 616      F6F1D601 
 616      3F77F2F7 
 616      11ED1E
 617 03c2 456BA6E4 		.ascii	"Ek\246\344\3572\362\315\224\374\373\241\303\262\217"
 617      EF32F2CD 
 617      94FCFBA1 
 617      C3B28F
 618 03d1 8A7CB38A 		.ascii	"\212|\263\212|\013'\337B\311\037\357\256y\312\311\327"
 618      7C0B27DF 
 618      42C91FEF 
 618      AE79CAC9 
 618      D7
 619 03e2 123A1955 		.ascii	"\022:\031UC\207\365\336\331\267*\354\0370\366o\357\024"
 619      4387F5DE 
 619      D9B72AEC 
 619      1F30F66F 
 619      EF14
 620 03f4 3DE44377 		.ascii	"=\344Cw\213\350\315\345\266Q^{+y\306\216]\2715-\271"
 620      8BE8CDE5 
 620      B6515E7B 
 620      2B79C68E 
 620      5DB9352D 
 621 0409 D36F43B8 		.ascii	"\323oC\270\207\024\316A\351\2672\372\016J?\307\226\222"
 621      8714CE41 
 621      E9B732FA 
 621      0E4A3FC7 
 621      9692
 622 041b A3AEBD43 		.ascii	"\243\256\275CE\277\235\323o\247\364\013\256\234\251"
 622      45BF9DD3 
ARM GAS  /tmp/ccWCK3xB.s 			page 49


 622      6FA7F40B 
 622      AE9CA9
 623 042a 04167F11 		.ascii	"\004\026\177\021\252\0353y\271\013<\303;\024\366\217"
 623      AA1D3379 
 623      B90B3CC3 
 623      3B14F68F 
 624 043a 18FB9991 		.ascii	"\030\373\231\221\346\031\316\236|\375[\373O&\351\031"
 624      E619CE9E 
 624      7CFD5BFB 
 624      4F26E919 
 625 044a F96672DB 		.ascii	"\371fr\333r\364\362\324'\203\363\030\321:)\332\023J"
 625      72F4F2D4 
 625      2783F318 
 625      D13A29DA 
 625      134A
 626 045c BE83917F 		.ascii	"\276\203\221\177B\311\267u\024\274W\223\177\242\"\337"
 626      42C9B775 
 626      14BC5793 
 626      7FA222DF 
 627 046c C5C97751 		.ascii	"\305\311wQ\362YU\023\215Z\026\336\217|\201\307:\356"
 627      F2595513 
 627      8D5A16DE 
 627      8F7C81C7 
 627      3AEE
 628 047e 057827DF 		.ascii	"\005x'\337\255\220\177\312\310\357\276UV'\361\347\013"
 628      AD907FCA 
 628      C8EFBE55 
 628      5627F1E7 
 628      0B
 629 048f D10B0A1B 		.ascii	"\321\013\012\033{|\335\331\366\000KV\200g\224m7c\373"
 629      7B7CDDD9 
 629      F6004B56 
 629      8067946D 
 629      3763FB
 630 04a2 8CB2AD39 		.ascii	"\214\262\2559k\031\013R\261}\246b\333\313\331\366R\266"
 630      6B190B52 
 630      B17DA662 
 630      DBCBD9F6 
 630      52B6
 631 04b4 B6D68FF7 		.ascii	"\266\326\217\3674\2171_\334q\300b\372\370\007`\237@"
 631      348F315F 
 631      DC71C062 
 631      FAF80760 
 631      9F40
 632 04c6 45604255 		.ascii	"E`BU\274\020\005\3766V\226@1\344\272\250\\\012\363`"
 632      BC1005FE 
 632      36569640 
 632      31E4BAA8 
 632      5C0AF360 
 633 04da F48FFBD3 		.ascii	"\364\217\373\323\235.=(\210\023\035\270\023\323\271"
 633      9D2E3D28 
 633      88131DB8 
 633      13D3B9
 634 04e9 B3005C17 		.ascii	"\263\000\\\027\235\001\200\251\212\203\013\036\243\313"
 634      9D0180A9 
 634      8A830B1E 
 634      A3CB
ARM GAS  /tmp/ccWCK3xB.s 			page 50


 635 04f7 E19C9CE7 		.ascii	"\341\234\234\347s\002\345\355\226f-[.M\3227\017\314"
 635      7302E5ED 
 635      96662D5B 
 635      2E4DD237 
 635      0FCC
 636 0509 341CCB12 		.ascii	"4\034\313\022\227}\307\373\263B\003\337\374\320\245"
 636      977DC7FB 
 636      B34203DF 
 636      FCD0A5
 637 0518 587DB00C 		.ascii	"X}\260\014?\327k\230\337\241\263\275\375\201+se{\261"
 637      3FD76B98 
 637      DFA1B3BD 
 637      FD812B73 
 637      657BB1
 638 052b DC537520 		.ascii	"\334Su \346\301\251d9}\007v\205\332\301\013\347\233"
 638      E6C1A964 
 638      397D0776 
 638      85DAC10B 
 638      E79B
 639 053d EA05DD1E 		.ascii	"\352\005\335\036\300s\234+\001\372a%y\366\346?\317\366"
 639      C0739C2B 
 639      01FA6125 
 639      79F6E63F 
 639      CFF6
 640 054f 916AE8DE 		.ascii	"\221j\350\336\002\312\367\035K\011`@\366\316\333z\206"
 640      02CAF71D 
 640      4B096040 
 640      F6CEDB7A 
 640      86
 641 0560 4241069C 		.ascii	"BA\006\234 \003\256 \203\024\344h\361\344\033\255\324"
 641      2003AE20 
 641      8314E468 
 641      F1E41BAD 
 641      D4
 642 0571 C940DA1D 		.ascii	"\311@\332\0353\351\300A\336\231\344T\314@C1^:1^\272"
 642      33E9C041 
 642      DE99E454 
 642      CC404331 
 642      5E3A315E 
 643 0586 620C518C 		.ascii	"b\014Q\214\272\332\271|?i\214at\336\276\223\344\243"
 643      BADAB97C 
 643      3F698C61 
 643      74DEBE93 
 643      E4A3
 644 0598 E3DB95F4 		.ascii	"\343\333\225\364\317mW^\025\364;\002U\243\365\032\\"
 644      CF6D575E 
 644      15F43B02 
 644      55A3F51A 
 644      5C
 645 05a9 87F97B36 		.ascii	"\207\371{6Zd\352o6Y$\215\310\326H\375p-\331v\342\251"
 645      5A64EA6F 
 645      3659248D 
 645      C8D648FD 
 645      702DD976 
 646 05bf C66BA587 		.ascii	"\306k\245\207i\245\337\000/\265\345p\341\270/&\327\203"
 646      69A5DF00 
 646      2FB5E570 
ARM GAS  /tmp/ccWCK3xB.s 			page 51


 646      E1B82F26 
 646      D783
 647 05d1 DB81B9F6 		.ascii	"\333\201\271\366?\355<\225lO\007j\005\257\234\351\275"
 647      3FED3C95 
 647      6C4F076A 
 647      05AF9CE9 
 647      BD
 648 05e2 E2DB3018 		.ascii	"\342\3330\030\241\251\2458\346R$\351\270DSKy}\332!R"
 648      A1A9A538 
 648      E65224E9 
 648      B844534B 
 648      797DDA21 
 649 05f7 0A641BC1 		.ascii	"\012d\033\301(t8\362\242\2752\030\247\014\306\024\006"
 649      287438F2 
 649      A2BD3218 
 649      A70CC614 
 649      06
 650 0608 F5AF4A2D 		.ascii	"\365\257J-Z\306\300\236}O\217\341\211\005\214:\243\217"
 650      5AC6C09E 
 650      7D4F8FE1 
 650      89058C3A 
 650      A38F
 651 061a 2AD12768 		.ascii	"*\321'h\364\262\203\217\3135\222\225E\177\224\326{r"
 651      F4B2838F 
 651      CB359295 
 651      457F94D6 
 651      7B72
 652 062c 11F72E66 		.ascii	"\021\367.f\336\204\373\244\323{R\361~K\275\237d5\324"
 652      DE84FBA4 
 652      D37B52F1 
 652      7E4BBD9F 
 652      6435D4
 653 063f 8054CABC 		.ascii	"\200T\312\274\207\312\222\316\371\257:%\347Zd\373d\323"
 653      87CA92CE 
 653      F9AF3A25 
 653      E75A64FB 
 653      64D3
 654 0651 924CB946 		.ascii	"\222L\271F\003_\351`\212y\273p\236\" \360\016V\221\307"
 654      035FE960 
 654      8A79BB70 
 654      9E2220F0 
 654      0E5691C7 
 655 0665 D4A1DC63 		.ascii	"\324\241\334cZ\311\306\020\256\276)\270\312\367)vZ\317"
 655      5AC9C610 
 655      AEBE29B8 
 655      CAF72976 
 655      5ACF
 656 0677 DE2B0E90 		.ascii	"\336+\016\220\036\260\233\371\005#\207\264R;S^\265\265"
 656      1EB09BF9 
 656      052387B4 
 656      523B535E 
 656      B5B5
 657 0689 0CFA495D 		.ascii	"\014\372I]L\371\330W4\240Wu\230\014\2243\336\354|\207"
 657      4CF9D857 
 657      34A05775 
 657      980C9433 
 657      DEEC7C87 
ARM GAS  /tmp/ccWCK3xB.s 			page 52


 658 069d 8FDC4D2D 		.ascii	"\217\334M-\027\245~\346\366`\344\316\011\177\366\314"
 658      17A57EE6 
 658      F660E4CE 
 658      097FF6CC 
 659 06ad 5B8CEA95 		.ascii	"[\214\352\225\376\206:\035\013.\223\327]\333\354\231"
 659      FE863A1D 
 659      0B2E93D7 
 659      5DDBEC99 
 660 06bd A640E935 		.ascii	"\246@\3515\265\365\331;p\343\261\037\204\341\021\036"
 660      B5F5D93B 
 660      70E3B11F 
 660      84E1111E 
 661 06cd 924702D9 		.ascii	"\222G\002\331s\222\0032e{\222D\320a\006s\334%\2068w"
 661      73920332 
 661      657B9244 
 661      D0610673 
 661      DC258638 
 662 06e2 764F69E0 		.ascii	"vOi\340(\374\020\230\371\361:\374\302\030\251\361\234"
 662      28FC1098 
 662      F9F13AFC 
 662      C218A9F1 
 662      9C
 663 06f3 BBB181D8 		.ascii	"\273\261\201\330Z\301i|\254.\210a\2239\374\350\321\334"
 663      5AC1697C 
 663      AC2E8861 
 663      9339FCE8 
 663      D1DC
 664 0705 05BAC495 		.ascii	"\005\272\304\225\211E\364\310\204\241\323\215\252=\023"
 664      8945F4C8 
 664      84A1D38D 
 664      AA3D13
 665 0714 A9E0961F 		.ascii	"\251\340\226\037\255\004\336Vrd\360\247\265\014f\001"
 665      AD04DE56 
 665      7264F0A7 
 665      B50C6601 
 666 0724 7688A120 		.ascii	"v\210\241 \213\304\221`\221\356\245\210\341\360\037"
 666      8BC49160 
 666      91EEA588 
 666      E1F01F
 667 0733 310C9250 		.ascii	"1\014\222Pv\242$\213a\312\203\251\303\372\350\205$M"
 667      76A2248B 
 667      61CA83A9 
 667      C3FAE885 
 667      244D
 668 0745 D04289F7 		.ascii	"\320B\211\367?<\274\211?@BX\250\322: \241v#H\2528?D"
 668      3F3CBC89 
 668      3F404258 
 668      A8D23A20 
 668      A1762348 
 669 075d 24B29780 		.ascii	"$\262\227\200\220\206q\376\207\230-\223m\367}C8\204"
 669      908671FE 
 669      87982D93 
 669      6DF77D43 
 669      3884
 670 076f DD2B84E0 		.ascii	"\335+\204\340\315\277`\317\371F\365Ca\217K\321\004\330"
 670      CDBF60CF 
 670      F946F543 
ARM GAS  /tmp/ccWCK3xB.s 			page 53


 670      618F4BD1 
 670      04D8
 671 0781 2B2A2363 		.ascii	"+*#c{km\361U,\323\027\262|Z\322\237\251~\207\355\023"
 671      7B6B6DF1 
 671      552CD317 
 671      B27C5AD2 
 671      9FA97E87 
 672 0797 F52E96FB 		.ascii	"\365.\226\373\025KMO\335\307\\-\204\204\205\207\261"
 672      154B4D4F 
 672      DDC75C2D 
 672      84848587 
 672      B1
 673 07a8 0CECAC08 		.ascii	"\014\354\254\010\037 \224\267+\235W\340\000\246\222"
 673      1F2094B7 
 673      2B9D57E0 
 673      00A692
 674 07b7 81CC0F72 		.ascii	"\201\314\017r\346\254\341\327\223\227\252\307#\335\363"
 674      E6ACE1D7 
 674      9397AAC7 
 674      23DDF3
 675 07c6 78B01ED8 		.ascii	"x\260\036\330X\273\323\325\355f"
 675      58BBD3D5 
 675      ED66
 676 07d0 482DC93F 		.ascii	"H-\311?fH\310\015\246=\"\261\311!{\313\242\264\373A"
 676      6648C80D 
 676      A63D22B1 
 676      C9217BCB 
 676      A2B4FB41 
 677 07e4 D21C6BB3 		.ascii	"\322\034k\263\255\247\304\0320\337\346V\326\346\357"
 677      ADA7C41A 
 677      30DFE656 
 677      D6E6EF
 678 07f3 D0F990B3 		.ascii	"\320\371\220\263\315\351.mv\313\020\016cb\336\222$["
 678      CDE92E6D 
 678      76CB100E 
 678      6362DE92 
 678      245B
 679 0805 CFDCA1EC 		.ascii	"\317\334\241\354 \336^\273\335\253\253\340\356\367\350"
 679      20DE5EBB 
 679      DDABABE0 
 679      EEF7E8
 680 0814 EA8E5C09 		.ascii	"\352\216\\\011\037A\305\271\344]\367\233\2763\350\017"
 680      1F41C5B9 
 680      E45DF79B 
 680      BE33E80F 
 681 0824 7004ADDF 		.ascii	"p\004\255\337\363\247\220\263\306d\345\257\27038*\222"
 681      F3A790B3 
 681      C664E5AF 
 681      B833382A 
 681      92
 682 0835 E7D044CE 		.ascii	"\347\320D\316\013[\200\264OC\237\0145c\305\371|3Fv\355"
 682      0B5B80B4 
 682      4F439F0C 
 682      3563C5F9 
 682      7C334676 
 683 084a C35379A9 		.ascii	"\303Sy\251~\336wC\307D\276\033\312\022\351\013'\345"
 683      7EDE7743 
ARM GAS  /tmp/ccWCK3xB.s 			page 54


 683      C744BE1B 
 683      CA12E90B 
 683      27E5
 684 085c 5159AFCB 		.ascii	"QY\257\313>\331LF\304\345\033u\\\014V\234\210uI\323"
 684      3ED94C46 
 684      C4E51B75 
 684      5C0C569C 
 684      887549D3 
 685 0870 EE5FB81A 		.ascii	"\356_\270\032\357[\310\270\264\333b\001\314o\004_\240"
 685      EF5BC8B8 
 685      B4DB6201 
 685      CC6F045F 
 685      A0
 686 0881 A307BFDC 		.ascii	"\243\007\277\334!\3335pB\014\206LVu\027G\262B\262\313"
 686      21DB3570 
 686      420C864C 
 686      56751747 
 686      B242B2CB 
 687 0895 A6D975F4 		.ascii	"\246\331u\364f\235\324K\347Xv\337\337<:\246G\220f\004"
 687      669DD44B 
 687      E75876DF 
 687      DF3C3AA6 
 687      47906604 
 688 08a9 39723B94 		.ascii	"9r;\224\202\220\231\316\371\004$\207\203\344R\220\312"
 688      829099CE 
 688      F9042487 
 688      83E45290 
 688      CA
 689 08ba A4BAD7A2 		.ascii	"\244\272\327\242T\301@\012kZ\345@\016R\376\007Re\002"
 689      54C1400A 
 689      6B5AE540 
 689      0E52FE07 
 689      526502
 690 08cd 71F21388 		.ascii	"q\362\023\210\223\034\"\217B\314e\317\246\006I\015\014"
 690      931C228F 
 690      42CC65CF 
 690      A606490D 
 690      0C
 691 08de A269D70D 		.ascii	"\242i\327\015d\307 .\377E\2018\365\011\304)\016q\232"
 691      64C7202E 
 691      FF458138 
 691      F509C429 
 691      0E719A
 692 08f1 424C7F78 		.ascii	"BL\177x\332\241\376o\302W\256\3158\303\276d\344Lv\012"
 692      DAA1FE6F 
 692      C257AECD 
 692      38C3BE64 
 692      E44C760A 
 693 0905 55E5CFD4 		.ascii	"U\345\317\324_\311a\325\233\341,\267>K\255\367\274\354"
 693      5FC961D5 
 693      9BE12CB7 
 693      3E4BADF7 
 693      BCEC
 694 0917 3BA35559 		.ascii	";\243UY\217\253\254\363\271u>\265n\260\354\376\275\312"
 694      8FABACF3 
 694      B9753EB5 
 694      6EB0ECFE 
ARM GAS  /tmp/ccWCK3xB.s 			page 55


 694      BDCA
 695 0929 9834C269 		.ascii	"\2304\302il\345\306Vj\334\336\221T\301\177\034\370\223"
 695      6CE5C656 
 695      6ADCDE91 
 695      54C17F1C 
 695      F893
 696 093b 7F893C9E 		.ascii	"\177\211<\236\255\011\362>Q\347\225\211:\307&\352\343"
 696      AD09F23E 
 696      51E79589 
 696      3AC726EA 
 696      E3
 697 094c E0A10EEE 		.ascii	"\340\241\016\356M\300,U\035\031\374\227M\017\271\275"
 697      4DC02C55 
 697      1D19FC97 
 697      4D0FB9BD 
 698 095c 534E9901 		.ascii	"SN\231\001\367\355v!\326\257\200\326\357\002\235!\212"
 698      F7ED7621 
 698      D6AF80D6 
 698      EF029D21 
 698      8A
 699 096d 4915F4A8 		.ascii	"I\025\364\250\355y\364\320WE\376\202\212\374EN\376\""
 699      ED79F4D0 
 699      5745FE82 
 699      8AFC454E 
 699      FE22
 700 097f 257F716C 		.ascii	"%\177ql\342\"\377]H\376\035\323_?:\275\300/\233b\205"
 700      E222FF5D 
 700      48FE1DD3 
 700      5F3F3ABD 
 700      C02F9B62 
 701 0994 7C11239F 		.ascii	"|\021#\237;\324Y\244qg\347\354n\011eW\314\330\225Pv"
 701      3BD459A4 
 701      7167E7EC 
 701      6E096557 
 701      CCD89550 
 702 09a9 2D83B303 		.ascii	"-\203\263\003\352\026\227\250\330]\342\354\310Y\023"
 702      EA1697A8 
 702      D85DE2EC 
 702      C85913
 703 09b8 BBD118EF 		.ascii	"\273\321\030\357\367\273?\177\275\342WQQ\202.&&qS\234"
 703      F7BB3F7F 
 703      BDE25751 
 703      51822E26 
 703      2671539C 
 704 09cc 397A6D8C 		.ascii	"9zm\214y\213a\343\326-&\2031\316h\370\365\326\330\304"
 704      798B61E3 
 704      D62D2683 
 704      31CE68F8 
 704      F5D6D8C4 
 705 09e0 2DA63873 		.ascii	"-\2468s\202!v\343\246m\021\333\342\267F$\340\375\177"
 705      822176E3 
 705      A66D11DB 
 705      E2B74624 
 705      E0FD7F
 706 09f3 C4C64618 		.ascii	"\304\306F\030\343\267D\304m\2153E\230\214\3537E\374"
 706      E3B744C4 
 706      6D8D3345 
ARM GAS  /tmp/ccWCK3xB.s 			page 56


 706      988CEB37 
 706      45FC
 707 0a05 2C665DC4 		.ascii	",f]\304\3325Q?\3776\332\240\272a\330\024\027\2739q\203"
 707      DA35513F 
 707      FF36DAA0 
 707      BA61D814 
 707      17BB3971 
 708 0a1a C9B0C588 		.ascii	"\311\260\305\210\010q&C\314\006\323\337\215\211\233"
 708      08712643 
 708      CC06D3DF 
 708      8D899B
 709 0a29 CD31E6ED 		.ascii	"\3151\346\355\333L\011\221\033\005?%\354\372\377G\330"
 709      DB4C0991 
 709      1B053F25 
 709      ECFAFF47 
 709      D8
 710 0a3a 84ED0986 		.ascii	"\204\355\011\206\230\004\363\006\214\201\261\226\306"
 710      9804F306 
 710      8C81B196 
 710      C6
 711 0a47 635C5382 		.ascii	"c\\S\2029f\315\232(\224\350\030\323\277L\261\211f\323"
 711      3966CD9A 
 711      2894E818 
 711      D3BF4CB1 
 711      8966D3
 712 0a5a BAC84803 		.ascii	"\272\310H\003\373#w\015\361fC\302\326\304\370X\223\242"
 712      FB23770D 
 712      F16643C2 
 712      D6C4F858 
 712      93A2
 713 0a6c 32A704D3 		.ascii	"2\247\004\323\267\211\246\270X\023\361\216\214u\007"
 713      B789A6B8 
 713      5813F18E 
 713      8C7507
 714 0a7b 5BAB80B9 		.ascii	"[\253\200\271\255G)\353z\272\270-\036\251l\216\013U"
 714      AD4729EB 
 714      7ABAB82D 
 714      1EA96C8E 
 714      0B55
 715 0a8d 47DCBC69 		.ascii	"G\334\274i=\246J\335\220\246\277\3232N\347\274^\304"
 715      3DA64ADD 
 715      90A6BFD3 
 715      324EE7BC 
 715      5EC4
 716 0a9f 58984DDB 		.ascii	"X\230M\333\226x\242\244\2113n1ic\215\011\246\004?\263"
 716      9678A2A4 
 716      89336E31 
 716      69638D09 
 716      A6043FB3 
 717 0ab3 C918BF61 		.ascii	"\311\030\277a\353?\343\264\011&s\3426_\316\200b\021"
 717      EB3FE3B4 
 717      092673E2 
 717      365FCE80 
 717      6211
 718 0ac5 83187320 		.ascii	"\203\030s \271\234\3676\377\310\023`\2141>\336\270="
 718      B99CF736 
 718      FFC81360 
ARM GAS  /tmp/ccWCK3xB.s 			page 57


 718      8C313EDE 
 718      B83D
 719 0ad7 C82D1D37 		.ascii	"\310-\0357}\255\233\036\375_Yf\233\302"
 719      7DAD9B1E 
 719      FD5F5966 
 719      9BC2
 720              		.text
 721              		.section	.gnu.lto_.symtab.2b3accfbf533effa,"",%progbits
 722 0000 72745F74 		.ascii	"rt_test_sequence_001\000"
 722      6573745F 
 722      73657175 
 722      656E6365 
 722      5F303031 
 723 0015 00       		.ascii	"\000"
 724 0016 00       		.ascii	"\000"
 725 0017 00       		.ascii	"\000"
 726 0018 00000000 		.ascii	"\000\000\000\000\000\000\000\000"
 726      00000000 
 727 0020 18010000 		.ascii	"\030\001\000\000"
 728 0024 72745F74 		.ascii	"rt_test_sequence_001_array\000"
 728      6573745F 
 728      73657175 
 728      656E6365 
 728      5F303031 
 729 003f 00       		.ascii	"\000"
 730 0040 00       		.ascii	"\000"
 731 0041 00       		.ascii	"\000"
 732 0042 00000000 		.ascii	"\000\000\000\000\000\000\000\000"
 732      00000000 
 733 004a 1E010000 		.ascii	"\036\001\000\000"
 734 004e 74657374 		.ascii	"test_step\000"
 734      5F737465 
 734      7000
 735 0058 00       		.ascii	"\000"
 736 0059 02       		.ascii	"\002"
 737 005a 00       		.ascii	"\000"
 738 005b 00000000 		.ascii	"\000\000\000\000\000\000\000\000"
 738      00000000 
 739 0063 F8000000 		.ascii	"\370\000\000\000"
 740 0067 74657374 		.ascii	"test_println\000"
 740      5F707269 
 740      6E746C6E 
 740      00
 741 0074 00       		.ascii	"\000"
 742 0075 02       		.ascii	"\002"
 743 0076 00       		.ascii	"\000"
 744 0077 00000000 		.ascii	"\000\000\000\000\000\000\000\000"
 744      00000000 
 745 007f F0000000 		.ascii	"\360\000\000\000"
 746 0083 74657374 		.ascii	"test_printn\000"
 746      5F707269 
 746      6E746E00 
 747 008f 00       		.ascii	"\000"
 748 0090 02       		.ascii	"\002"
 749 0091 00       		.ascii	"\000"
 750 0092 00000000 		.ascii	"\000\000\000\000\000\000\000\000"
 750      00000000 
ARM GAS  /tmp/ccWCK3xB.s 			page 58


 751 009a F4000000 		.ascii	"\364\000\000\000"
 752 009e 74657374 		.ascii	"test_print\000"
 752      5F707269 
 752      6E7400
 753 00a9 00       		.ascii	"\000"
 754 00aa 02       		.ascii	"\002"
 755 00ab 00       		.ascii	"\000"
 756 00ac 00000000 		.ascii	"\000\000\000\000\000\000\000\000"
 756      00000000 
 757 00b4 F6000000 		.ascii	"\366\000\000\000"
 758              		.text
 759              		.section	.gnu.lto_.opts,"",%progbits
 760 0000 272D666D 		.ascii	"'-fmath-errno' '-fsigned-zeros' '-ftrapping-math' '"
 760      6174682D 
 760      6572726E 
 760      6F272027 
 760      2D667369 
 761 0033 2D666E6F 		.ascii	"-fno-trapv' '-fno-openmp' '-fno-openacc' '-mcpu=cor"
 761      2D747261 
 761      70762720 
 761      272D666E 
 761      6F2D6F70 
 762 0066 7465782D 		.ascii	"tex-m4' '-mthumb' '-ggdb' '-O2' '-fomit-frame-point"
 762      6D342720 
 762      272D6D74 
 762      68756D62 
 762      2720272D 
 763 0099 65722720 		.ascii	"er' '-falign-functions=16' '-ffunction-sections' '-"
 763      272D6661 
 763      6C69676E 
 763      2D66756E 
 763      6374696F 
 764 00cc 66646174 		.ascii	"fdata-sections' '-fno-common' '-flto'\000"
 764      612D7365 
 764      6374696F 
 764      6E732720 
 764      272D666E 
 765              		.text
 766              		.comm	__gnu_lto_v1,1,1
 767              		.comm	__gnu_lto_slim,1,1
 768              		.ident	"GCC: (GNU Tools for ARM Embedded Processors) 5.4.1 20160919 (release) [ARM/embedded-5-bran
ARM GAS  /tmp/ccWCK3xB.s 			page 59


DEFINED SYMBOLS
                            *ABS*:00000000 rt_test_sequence_001.c
                            *COM*:00000001 __gnu_lto_v1
                            *COM*:00000001 __gnu_lto_slim

NO UNDEFINED SYMBOLS
