ARM GAS  /tmp/cctpHrbX.s 			page 1


   1              		.syntax unified
   2              		.cpu cortex-m4
   3              		.fpu softvfp
   4              		.eabi_attribute 20, 1
   5              		.eabi_attribute 21, 1
   6              		.eabi_attribute 23, 3
   7              		.eabi_attribute 24, 1
   8              		.eabi_attribute 25, 1
   9              		.eabi_attribute 26, 1
  10              		.eabi_attribute 30, 2
  11              		.eabi_attribute 34, 1
  12              		.eabi_attribute 18, 4
  13              		.thumb
  14              		.syntax unified
  15              		.file	"stm32_isr.c"
  16              		.text
  17              	.Ltext0:
  18              		.section	.gnu.lto_.profile.8fdc8b39f8b67588,"",%progbits
  19 0000 789C6361 		.ascii	"x\234ca`d`e`\000\222K\031U\001\002\224\000\327"
  19      60646065 
  19      6000924B 
  19      19550102 
  19      9400D7
  20              		.text
  21              		.section	.gnu.lto_.icf.8fdc8b39f8b67588,"",%progbits
  22 0000 789C6361 		.ascii	"x\234ca`d\000\001>\006\004`bx1c\357GF\306W/?^aa\000"
  22      60640001 
  22      3E060460 
  22      62783163 
  22      EF4746C6 
  23 001b 0033F506 		.ascii	"\0003\365\006\342"
  23      E2
  24              		.text
  25              		.section	.gnu.lto_.jmpfuncs.8fdc8b39f8b67588,"",%progbits
  26 0000 789C6361 		.ascii	"x\234ca`d\000\001!\010\005\006L@\314\302\370\227\211"
  26      60640001 
  26      21080506 
  26      4C40CCC2 
  26      F89789
  27 0013 71EBE903 		.ascii	"q\353\351\003\267\330\2770\265230j0.g\224a`\000\211"
  27      B7D8BF30 
  27      B5323330 
  27      6A302E67 
  27      94616000 
  28 0028 3E5D71F8 		.ascii	">]q\3701\027D\224\215q\005H\024\254\370\361\314\247"
  28      31174494 
  28      8D710548 
  28      14ACF8F1 
  28      CCA7
  29 003a BBB821C2 		.ascii	"\273\270!\302\342\214+\301\212\221d\317.\\s\216\015"
  29      E28C2BC1 
  29      8A9164CF 
  29      2E5C738E 
  29      0D
  30 004b 22CBC5B8 		.ascii	"\"\313\305\270\012]v\332\331\211\273\240\262\234\214"
  30      0A5D76DA 
  30      D989BBA0 
ARM GAS  /tmp/cctpHrbX.s 			page 2


  30      B29C8C
  31 005a ABD165BB 		.ascii	"\253\321e\273~]\357\343\200\310r0\256A\227=yj\372\012"
  31      7E5DEFE3 
  31      80C87230 
  31      AE41973D 
  31      796AFA0A 
  32 006e 1E882C3B 		.ascii	"\036\210,;\343Z\024Y\010\015\243\200\036c\204\370\002"
  32      E35A1459 
  32      080DA380 
  32      1E6384F8 
  32      02
  33 007f 48AF84D2 		.ascii	"H\257\204\322\253\240\364j(\275\006J\257\205\322`\255"
  33      ABA0F46A 
  33      28BD064A 
  33      AF85D260 
  33      AD
  34 0090 0C006333 		.ascii	"\014\000c37\212"
  34      378A
  35              		.text
  36              		.section	.gnu.lto_.inline.8fdc8b39f8b67588,"",%progbits
  37 0000 789C6361 		.ascii	"x\234ca`d\000\201f\006\004`b`\220\270\006\024\007\322"
  37      60640081 
  37      66060460 
  37      626090B8 
  37      061407D2 
  38 0014 0C6C0BE4 		.ascii	"\014l\013\344A\024\0033\017X\234x\212\221A\360<\232"
  38      41140333 
  38      0F589C78 
  38      8A9141F0 
  38      3C9A
  39 0026 194CDC20 		.ascii	"\031L\334 abH\006\000\256\316\004\307"
  39      61624806 
  39      00AECE04 
  39      C7
  40              		.text
  41              		.section	.gnu.lto_.pureconst.8fdc8b39f8b67588,"",%progbits
  42 0000 789C6361 		.ascii	"x\234ca`d`e```b\220`\224\000\000\000\345\000>"
  42      60646065 
  42      60606062 
  42      90609400 
  42      0000E500 
  43              		.text
  44              		.section	.gnu.lto_irqInit.8fdc8b39f8b67588,"",%progbits
  45 0000 789C7DD1 		.ascii	"x\234}\321\315/\003A\024\000\360\367f\245\335\026\341"
  45      CD2F0341 
  45      1400F0F7 
  45      66A5DD16 
  45      E1
  46 0011 E6C0C18D 		.ascii	"\346\300\301\215^\272\264\375\033\334\032\011\356\""
  46      5EBAB4FD 
  46      1BDC1A09 
  46      EE22
  47 001f 2E24A4D2 		.ascii	".$\244\322\355\241\267\035\037\033\342 \034(\"\022\247"
  47      EDA1B71D 
  47      1F1BE220 
  47      1C282212 
  47      A7
ARM GAS  /tmp/cctpHrbX.s 			page 3


  48 0030 2E4A3F28 		.ascii	".J?(iO\033NH\353(\364\"\232\212\210C\011\027I\325LG"
  48      694F1B4E 
  48      48EB28F4 
  48      229A8A88 
  48      43091749 
  49 0047 227BD997 		.ascii	"\"{\331\227y3\223\2747\2779\274&@\340\021$\000\001v"
  49      793393BC 
  49      37BF39BC 
  49      2640E011 
  49      24000176 
  50 005b 76B24409 		.ascii	"v\262D\011\220\254\026\001fe\202\310/TF\320\010j\370"
  50      90AC1601 
  50      666582C8 
  50      2F5446D0 
  50      086AF8
  51 006e 456A042F 		.ascii	"Ej\004/\026\237s\304\023\247,\036\365\217~j\230\250"
  51      169F73C4 
  51      13A72C1E 
  51      F58F7E6A 
  51      98A8
  52 0080 4B0075D2 		.ascii	"K\000u\322\220\000\343\350\001\326\366\224\376You,\360"
  52      9000E3E8 
  52      01D6F694 
  52      FE596F75 
  52      2CF0
  53 0092 B66E5144 		.ascii	"\266nQD\003\035\374\273\344\220I\353\365yJ\357\373J"
  53      031DFCBB 
  53      E49049EB 
  53      F5794AEF 
  53      FB4A
  54 00a4 3D2E802A 		.ascii	"=.\200*+\362o\336\011\341\247\364\202\272\031\273E\336"
  54      2BF26FDE 
  54      09E1A7F4 
  54      82BA19BB 
  54      45DE
  55 00b6 CEA15CEE 		.ascii	"\316\241\\\356\255\344\324jt\211\322v]\302:a\006\356"
  55      ADE4D46A 
  55      7489D276 
  55      5DC23A61 
  55      06EE
  56 00c8 A3C66B15 		.ascii	"\243\306k\025\343\262\354\376$\272D\030}\200]<uI\002"
  56      E3B2ECFE 
  56      24BA4418 
  56      7D805D3C 
  56      754902
  57 00db 4E6CB6D9 		.ascii	"Nl\266\331\012\207B\270\272\216\031-Bpb\302*l\333\013"
  57      0A8742B8 
  57      BA8E192D 
  57      427062C2 
  57      2A6CDB0B 
  58 00ef 474258FE 		.ascii	"GBX\376\276[\221\205 \343\261U\330\261\027\222B\330"
  58      BE5B9185 
  58      20E3B155 
  58      D8B11792 
  58      42D8
  59 0101 28ACE51D 		.ascii	"(\254\345\035Bpa\312*\354\332\013i!\024\366\022\305"
  59      427061CA 
ARM GAS  /tmp/cctpHrbX.s 			page 4


  59      2AECDA0B 
  59      692114F6 
  59      12C5
  60 0113 3FC18D19 		.ascii	"?\301\215\031\253\220\262\027N\204P\336\252\344\233"
  60      AB90B217 
  60      4E8450DE 
  60      AAE49B
  61 0122 85D081A7 		.ascii	"\205\320\201\247V!c/d\205\220\2751\037\234B\350\305"
  61      5621632F 
  61      648590BD 
  61      311F9C42 
  61      E8C5
  62 0134 B37FE115 		.ascii	"\263\177\341\025\347\314\363\301\206\300\243\312\336"
  62      E7CCF3C1 
  62      86C0A3CA 
  62      DE
  63 0141 B029B399 		.ascii	"\260)\263\231\373\274^E\254\220\252L\214M)3\241pDU\206"
  63      FBBC5E45 
  63      AC90AA4C 
  63      8C4D2933 
  63      A1704455 
  64 0156 47827E9F 		.ascii	"G\202~\237\330\007\002\321\250\242F\246\375\276\321"
  64      D80702D1 
  64      A8A246A6 
  64      FDBED1
  65 0165 4935EC1D 		.ascii	"I5\354\035\207_\005[\327\261"
  65      875F055B 
  65      D7B1
  66              		.text
  67              		.section	.gnu.lto_irqDeinit.8fdc8b39f8b67588,"",%progbits
  68 0000 789C7DD1 		.ascii	"x\234}\321\315/\003A\024\000\360\367f\245\335\026\341"
  68      CD2F0341 
  68      1400F0F7 
  68      66A5DD16 
  68      E1
  69 0011 E6C0C18D 		.ascii	"\346\300\301\215^\272\372\3617\270\211\004w\021\027"
  69      5EBAFAF1 
  69      37B88904 
  69      771117
  70 0020 1252E9F6 		.ascii	"\022R\351\366\320\333\016\272!\016\302\001qt\352\242"
  70      D0DB0EBA 
  70      210EC201 
  70      7174EAA2 
  71 0030 5451497B 		.ascii	"TQI{\332\020\007\244u\224(\"\232\212\210CI9Tj\315\030"
  71      DA1007A4 
  71      75942822 
  71      9A8A8843 
  71      4939546A 
  72 0046 C9DEF665 		.ascii	"\311\336\366ef\336$\357\375\336\034\246\011\020x\004"
  72      66DE24EF 
  72      FDDE1CA6 
  72      09107804 
  73 0056 084098E5 		.ascii	"\010@\230\345N\266Q\002$+E\200Y\231 \362\013\225\021"
  73      4EB65102 
  73      242B4580 
  73      599920F2 
  73      0B9511
ARM GAS  /tmp/cctpHrbX.s 			page 5


  74 0069 34821A7E 		.ascii	"4\202\032~\222\006\301\323\205\347\034\361%)\213\307"
  74      9206C1D3 
  74      85E71CF1 
  74      25298BC7 
  75 0079 F37A801A 		.ascii	"\363z\200\032&\352\022\200E\376&\001&\321\007\254\355"
  75      26EA1280 
  75      45FE2601 
  75      26D107AC 
  75      ED
  76 008a 29F3B3D6 		.ascii	")\363\263\326\352J\360\266nQD\003]\374\271\364\220I"
  76      EA4AF0B6 
  76      6E514403 
  76      5DFCB9F4 
  76      9049
  77 009c 2D6B9ED2 		.ascii	"-k\236\322\373\276F\217\007\240\312\212\374\231wBx\226"
  77      FBBE468F 
  77      07A0CA8A 
  77      FC997742 
  77      7896
  78 00ae 5E306196 		.ascii	"^0a\226\256\221\267\363A\271\334[\311\2555\350\"\245"
  78      AE91B7F3 
  78      41B9DC5B 
  78      C9AD35E8 
  78      22A5
  79 00c0 EDBA8416 		.ascii	"\355\272\204\026a3p\0335^\253\030geo\215\350\022a\243"
  79      6133701B 
  79      355EAB18 
  79      67656F8D 
  79      E81261A3 
  80 00d4 77B04B97 		.ascii	"w\260K\227$\340\374\256\315Q\357\012}q\271a\264\010"
  80      24E0FCAE 
  80      CD51EF0A 
  80      7D71B961 
  80      B408
  81 00e6 EDC694AD 		.ascii	"\355\306\224\255\037\234\365\236\320K\365\233eYh\031"
  81      1F9CF59E 
  81      D04BF59B 
  81      65596819 
  82 00f6 F76D5D75 		.ascii	"\367m]u\326i\241\327\013\253y\227\320\036<\260\365\207"
  82      D669A1D7 
  82      0BAB7997 
  82      D01E3CB0 
  82      F587
  83 0108 B3CE085D 		.ascii	"\263\316\010]\330J\025\377\265\027\017m]s\326GB\227"
  83      D84A15FF 
  83      B5170F6D 
  83      5D73D647 
  83      4297
  84 011a 372BF966 		.ascii	"7+\371f\241;\360\330\326_\316:+t\366\312\274u\013\335"
  84      A13BF0D8 
  84      D65FCE3A 
  84      2B74F6CA 
  84      BC750BDD 
  85 012e 8B2742BF 		.ascii	"\213'B\277\342\234\371=\370\247yTY?\373I\366\257A\277"
  85      E29CF93D 
  85      F8A77954 
  85      593FFB49 
ARM GAS  /tmp/cctpHrbX.s 			page 6


  85      F6AF41BF 
  86 0142 5F112BA2 		.ascii	"_\021+\242*\023cS\312L$\032S\225\341\221\201PP\234\375"
  86      2A136353 
  86      CA4C241A 
  86      5395E191 
  86      8150509C 
  87 0157 E1785C51 		.ascii	"\341x\\Qc\323\241\340\350\244\032\365\217\303/\210\245"
  87      63D3A1E0 
  87      E8A41AF5 
  87      8FC32F88 
  87      A5
  88 0168 D4C4     		.ascii	"\324\304"
  89              		.text
  90              		.section	.gnu.lto_.symbol_nodes.8fdc8b39f8b67588,"",%progbits
  91 0000 789C55CB 		.ascii	"x\234U\313\315\015\2000\010\206\341\017\352 :)=t\000"
  91      CD0D8030 
  91      0886E10F 
  91      EA203A29 
  91      3D7400
  92 0013 87E810C6 		.ascii	"\207\350\020\3063\211?\007g\320\244s\030\251b\242\\"
  92      33893F07 
  92      67D0A473 
  92      18A962A2 
  92      5C
  93 0024 1EF2121A 		.ascii	"\036\362\022\032\020\006\330\360\304\002\364\033`\214"
  93      1006D8F0 
  93      C402F41B 
  93      608C
  94 0032 B1B332B3 		.ascii	"\261\2632\263\320\257\320\302\302w\001bl-\254,\341\033"
  94      D0AFD0C2 
  94      C2770162 
  94      6C2DAC2C 
  94      E11B
  95 0044 0218793F 		.ascii	"\002\030y?\251\252nq\323\361\230]uK\325\266\373\317"
  95      A9AA6E71 
  95      D3F1985D 
  95      754BD5B6 
  95      FBCF
  96 0056 54B7B8E9 		.ascii	"T\267\270\351\275\273\352\326?\\P\3346\""
  96      BDBBEAD6 
  96      3F5C50DC 
  96      3622
  97              		.text
  98              		.section	.gnu.lto_.refs.8fdc8b39f8b67588,"",%progbits
  99 0000 789C6361 		.ascii	"x\234ca`\004B \000\000\0009\000\007"
  99      60044220 
  99      00000039 
  99      0007
 100              		.text
 101              		.section	.gnu.lto_.decls.8fdc8b39f8b67588,"",%progbits
 102 0000 789CB552 		.ascii	"x\234\265R[H\024Q\030>\377\314\2266mi\022\341C\017\322"
 102      5B481451 
 102      183EFFCC 
 102      96366D69 
 102      12E1430F 
 103 0015 4B41EC4E 		.ascii	"KA\354N^\352\271H\215\036,\350\342\353\262\216S\016"
 103      5EEAB948 
ARM GAS  /tmp/cctpHrbX.s 			page 7


 103      8D1E2CE8 
 103      E2EBB28E 
 103      530E
 104 0027 B833B6B3 		.ascii	"\2703\266\263\206\276\2352J-\321\210\354b\201\250\225"
 104      86BE9D32 
 104      4A2DD188 
 104      EC6281A8 
 104      95
 105 0038 A69559B6 		.ascii	"\246\225Y\266\231\232k\017bAEW\020\313\244\014\272\370"
 105      999A6B0F 
 105      62414557 
 105      10CBA40C 
 105      BAF8
 106 004a 50D2050B 		.ascii	"P\322\005\013\251\377\234\231\335Qr\037;\314\271\375"
 106      A9FF9C99 
 106      DD51721F 
 106      3BCCB9FD 
 107 005a E7FF2EFF 		.ascii	"\347\377.\377\231\343\"@X\313q\021R\201\313V\\\377\301"
 107      99E32240 
 107      58CB7111 
 107      5281CB56 
 107      5CFFC1
 108 006d 26E29C8F 		.ascii	"&\342\234\217\235\235^'V\303\024\322\215=\214\275\017"
 108      9D9D5E27 
 108      56C314D2 
 108      8D3D8CBD 
 108      0F
 109 007e 7B84FCDB 		.ascii	"{\204\374\333\272\355<\206\035\264\261\275\366\231`"
 109      BAED3C86 
 109      1DB4B1BD 
 109      F69960
 110 008d 9FF7CD83 		.ascii	"\237\367\315\203\013\317\302\335\263q\003\263p\3418"
 110      0BCFC2DD 
 110      B37103B3 
 110      70E138
 111 009c 7A3302BC 		.ascii	"z3\002\274\036nk\027\277\011\260Z\002\346<\011C\327"
 111      1E6E6B17 
 111      BF09B05A 
 111      02E63C09 
 111      43D7
 112 00ae 267BA697 		.ascii	"&{\246\227X!\226\361f\2725\327\333A\261\325Q*\010\016"
 112      582196F1 
 112      66BA35D7 
 112      DB41B1D5 
 112      512A080E 
 113 00c2 F469ED54 		.ascii	"\364i\355TK\202\270\230'=9\324y\216\321\244H\340\302"
 113      4B82B898 
 113      273D39D4 
 113      798ED1A4 
 113      48E0C2
 114 00d5 EDD78767 		.ascii	"\355\327\207g\337-\305\355r\011\322f\004a\250\346F\327"
 114      DF2DC5ED 
 114      7209D266 
 114      0461A8E6 
 114      46D7
 115 00e7 6258235D 		.ascii	"bX#]d,\343\257[\334=\224&\303U\220\3402\210\320\006"
 115      642CE3AF 
ARM GAS  /tmp/cctpHrbX.s 			page 8


 115      5BDC3D94 
 115      26C35590 
 115      E03288D0 
 116 00fc 5E7657AB 		.ascii	"^vW\253%\034+)=H\353*h\312\360R\002\035\260\022\332"
 116      251C2B29 
 116      3D48EB2A 
 116      68CAF052 
 116      021DB012 
 117 0111 6125812B 		.ascii	"a%\201+\260\206\271a\211\320\212\301K\030D\225\266\226"
 117      B086B961 
 117      89D08AC1 
 117      4B184495 
 117      B696
 118 0123 E34D0BC5 		.ascii	"\343M\013\305C\300\034\010gn^\376)\3054z\253\263:\230"
 118      43C01C08 
 118      676E5EFE 
 118      29C5347A 
 118      ABB33A98 
 119 0137 C675D4B8 		.ascii	"\306u\324\270\346h\240d\\\221\316yD\030\036\205\372"
 119      E668A064 
 119      5C91CE79 
 119      44181E85 
 119      FA
 120 0148 9FFD7EE4 		.ascii	"\237\375~\344\032\205\021\300\352!\231\327\017`\215"
 120      1A8511C0 
 120      EA2199D7 
 120      0F608D
 121 0157 C03BB13A 		.ascii	"\300;\261:\337\342B\340#qB\020M\264\367BtIbd\374\263"
 121      DFE242E0 
 121      23714210 
 121      4DB4F742 
 121      74496264 
 122 016d F1FC11F1 		.ascii	"\361\374\021\361\306I\034v\260A\326\336\006\023\260"
 122      C6491C76 
 122      B041D6DE 
 122      0613B0
 123 017c F7822300 		.ascii	"\367\202#\000\3266\012\230\305g\331\265\351\034\317"
 123      D6360A98 
 123      C567D9B5 
 123      E91CCF
 124 018b B19A20FA 		.ascii	"\261\232 \372{\217~\376U\013\342\027~\2730s\277\341"
 124      7B8F7EFE 
 124      550BE217 
 124      7EBB3073 
 124      BFE1
 125 019d AC905ACF 		.ascii	"\254\220Z\317_A\005MsA\376\212\330\315\021\270\011\251"
 125      5F41054D 
 125      7341FE8A 
 125      D8CD11B8 
 125      09A9
 126 01af 3816B82C 		.ascii	"8\026\270,\340\330\247\306\323\213V5\322\306N:\376\265"
 126      E0D8A7C6 
 126      D38B5635 
 126      D2C64E3A 
 126      FEB5
 127 01c1 B6F05D17 		.ascii	"\266\360]\027\245U\210s\2614\270\341\374\014\\\262\251"
 127      A5558873 
ARM GAS  /tmp/cctpHrbX.s 			page 9


 127      B134B8E1 
 127      FC0C5CB2 
 127      A9
 128 01d2 0B46D141 		.ascii	"\013F\321A7\254B\350\207\211\037\337$\261]\340\232\325"
 128      37AC42E8 
 128      87891FDF 
 128      24B15DE0 
 128      9AD5
 129 01e4 87CFD42C 		.ascii	"\207\317\324,\260x\"\317\037\273i\335\001J7r\222[\016"
 129      B07822CF 
 129      1FBB69DD 
 129      014A3772 
 129      925B0E
 130 01f7 C9ADD924 		.ascii	"\311\255\331$aN\322\360\374m\263 v[$G&[^\012.\366\337"
 130      614ED2F0 
 130      FC6DB320 
 130      765B2447 
 130      265B5E0A 
 131 020e D853408B 		.ascii	"\330S@\213\030\233x58\222\024\213\365\000\017\236\252"
 131      189B7835 
 131      3892148B 
 131      F5000F9E 
 131      AA
 132 021f 3FF93D21 		.ascii	"?\371=!n\205\275\274\302;`\2278UU\371\200\2258\216O"
 132      6E85BDBC 
 132      C23B6097 
 132      385555F9 
 132      8095388E 
 133 0234 ED7CFDF6 		.ascii	"\355|\375\366\003\315\207#u\300\263\340\266\343\355"
 133      03CD8723 
 133      75C0B3E0 
 133      B6E3ED
 134 0243 36F7868B 		.ascii	"6\367\206\213>\356\353\305X\377\027Q\234\212\357k\344"
 134      3EEEEBC5 
 134      58FF1751 
 134      9C8AEF6B 
 134      E4
 135 0254 6553665C 		.ascii	"eSf\\\007\003\334\301\335\250\203\312\252\023\015\242"
 135      0703DCC1 
 135      DDA883CA 
 135      AA130DA2 
 136 0264 E5207277 		.ascii	"\345 rw\310\215\362,\003\372\035\365\376\250z\204\253"
 136      C88DF22C 
 136      03FA1DF5 
 136      FEA87A84 
 136      AB
 137 0275 8FD74C86 		.ascii	"\217\327L\206\223\334\325\316\323\347n\035\376Ap\363"
 137      93DCD5CE 
 137      D3E76E1D 
 137      FE4170F3 
 138 0285 6C9C31FB 		.ascii	"l\2341\373\330\307\367\027\026\314\311\036\230\223}"
 138      D8C7F717 
 138      16CCC91E 
 138      98937D
 139 0294 CFCE6673 		.ascii	"\317\316fs\342\226m\273\3236\247\247\023\311\347+\325"
 139      E2966DBB 
 139      D336A7A7 
ARM GAS  /tmp/cctpHrbX.s 			page 10


 139      13C9E72B 
 139      D5
 140 02a5 F4506686 		.ascii	"\364Pf\206/\024\220\213\214\200*\373u\277\234m(\245"
 140      2F14908B 
 140      8C802AFB 
 140      75BF9C6D 
 140      28A5
 141 02b7 01550F99 		.ascii	"\001U\017\231\262R\244\225xJ\202\206\307\304\363\275"
 141      B252A495 
 141      784A8286 
 141      C7C4F3BD 
 142 02c7 8AE2F107 		.ascii	"\212\342\361\007\003\036\335\320U\217\352/\320<\353"
 142      031EDDD0 
 142      558FEA2F 
 142      D03CEB
 143 02d6 7D599E8C 		.ascii	"}Y\236\214u\351\033\366e\312s\016dMW\212K\013U9\340"
 143      75E91BF6 
 143      65CA730E 
 143      644D578A 
 143      4B0B5539 
 144 02eb 47065D95 		.ascii	"G\006]\225}\205\352\036\177iq\310\027*/QMo\021I\214"
 144      7D85EA1E 
 144      7F6971C8 
 144      172A2F51 
 144      4D6F1149 
 145 0300 CA16FC0F 		.ascii	"\312\026\374\017Y\263\334\224}f\250\0205P+A\013\356"
 145      59B3DC94 
 145      7D66A810 
 145      35502B41 
 145      0BEE
 146 0312 DBAA6BA1 		.ascii	"\333\252k\241\014\257W\266>\303\224\213\374\305r\211"
 146      0CAF57B6 
 146      3EC3948B 
 146      FCC57289 
 147 0322 1144B19D 		.ascii	"\021D\261\235\273\36223\25417\253\254LFM4\246\231A\257"
 147      BBF23233 
 147      AC3137AB 
 147      AC4C464D 
 147      34A69941 
 148 0337 42162134 		.ascii	"B\026!4[\325\020\234\254\357\327\224\034\335_P\254\346"
 148      5BD5109C 
 148      ACEFD794 
 148      1CDD5F50 
 148      ACE6
 149 0349 AB4AC808 		.ascii	"\253J\310\010\256\235\237M1\002\001C\2277\355\310\333"
 149      AE9D9F4D 
 149      31020143 
 149      9737EDC8 
 149      DB
 150 035a 9C572633 		.ascii	"\234W&3\020:X\306\346l\315t\320\177\001\261.\254\374"
 150      103A58C6 
 150      E66CCD74 
 150      D07F01B1 
 150      2EACFC
 151              		.text
 152              		.section	.gnu.lto_.symtab.8fdc8b39f8b67588,"",%progbits
 153 0000 69727149 		.ascii	"irqInit\000"
ARM GAS  /tmp/cctpHrbX.s 			page 11


 153      6E697400 
 154 0008 00       		.ascii	"\000"
 155 0009 00       		.ascii	"\000"
 156 000a 00       		.ascii	"\000"
 157 000b 00000000 		.ascii	"\000\000\000\000\000\000\000\000"
 157      00000000 
 158 0013 B5000000 		.ascii	"\265\000\000\000"
 159 0017 69727144 		.ascii	"irqDeinit\000"
 159      65696E69 
 159      7400
 160 0021 00       		.ascii	"\000"
 161 0022 00       		.ascii	"\000"
 162 0023 00       		.ascii	"\000"
 163 0024 00000000 		.ascii	"\000\000\000\000\000\000\000\000"
 163      00000000 
 164 002c B7000000 		.ascii	"\267\000\000\000"
 165 0030 6E766963 		.ascii	"nvicEnableVector\000"
 165      456E6162 
 165      6C655665 
 165      63746F72 
 165      00
 166 0041 00       		.ascii	"\000"
 167 0042 02       		.ascii	"\002"
 168 0043 00       		.ascii	"\000"
 169 0044 00000000 		.ascii	"\000\000\000\000\000\000\000\000"
 169      00000000 
 170 004c BC000000 		.ascii	"\274\000\000\000"
 171 0050 6E766963 		.ascii	"nvicDisableVector\000"
 171      44697361 
 171      626C6556 
 171      6563746F 
 171      7200
 172 0062 00       		.ascii	"\000"
 173 0063 02       		.ascii	"\002"
 174 0064 00       		.ascii	"\000"
 175 0065 00000000 		.ascii	"\000\000\000\000\000\000\000\000"
 175      00000000 
 176 006d C0000000 		.ascii	"\300\000\000\000"
 177              		.text
 178              		.section	.gnu.lto_.opts,"",%progbits
 179 0000 272D666D 		.ascii	"'-fmath-errno' '-fsigned-zeros' '-ftrapping-math' '"
 179      6174682D 
 179      6572726E 
 179      6F272027 
 179      2D667369 
 180 0033 2D666E6F 		.ascii	"-fno-trapv' '-fno-openmp' '-fno-openacc' '-mcpu=cor"
 180      2D747261 
 180      70762720 
 180      272D666E 
 180      6F2D6F70 
 181 0066 7465782D 		.ascii	"tex-m4' '-mthumb' '-ggdb' '-O2' '-fomit-frame-point"
 181      6D342720 
 181      272D6D74 
 181      68756D62 
 181      2720272D 
 182 0099 65722720 		.ascii	"er' '-falign-functions=16' '-ffunction-sections' '-"
 182      272D6661 
ARM GAS  /tmp/cctpHrbX.s 			page 12


 182      6C69676E 
 182      2D66756E 
 182      6374696F 
 183 00cc 66646174 		.ascii	"fdata-sections' '-fno-common' '-flto'\000"
 183      612D7365 
 183      6374696F 
 183      6E732720 
 183      272D666E 
 184              		.text
 185              		.comm	__gnu_lto_v1,1,1
 186              		.comm	__gnu_lto_slim,1,1
 187              		.ident	"GCC: (GNU Tools for ARM Embedded Processors) 5.4.1 20160919 (release) [ARM/embedded-5-bran
ARM GAS  /tmp/cctpHrbX.s 			page 13


DEFINED SYMBOLS
                            *ABS*:00000000 stm32_isr.c
                            *COM*:00000001 __gnu_lto_v1
                            *COM*:00000001 __gnu_lto_slim

NO UNDEFINED SYMBOLS
