ARM GAS  /tmp/cc6udcVC.s 			page 1


   1              		.cpu cortex-m4
   2              		.eabi_attribute 20, 1
   3              		.eabi_attribute 21, 1
   4              		.eabi_attribute 23, 3
   5              		.eabi_attribute 24, 1
   6              		.eabi_attribute 25, 1
   7              		.eabi_attribute 26, 1
   8              		.eabi_attribute 30, 2
   9              		.eabi_attribute 34, 1
  10              		.eabi_attribute 18, 4
  11              		.file	"chcond.c"
  12              		.text
  13              	.Ltext0:
  14              		.section	.gnu.lto_.profile.aa01a0fbeaf2693a,"",%progbits
  15 0000 789C6365 		.ascii	"x\234ce`b`e```dx\317X\010\000\003\326\001o"
  15      60626065 
  15      60606064 
  15      78CF5808 
  15      0003D601 
  16              		.text
  17              		.section	.gnu.lto_.icf.aa01a0fbeaf2693a,"",%progbits
  18 0000 789C6365 		.ascii	"x\234ce`b0g@\000N\206\305\323w\\\345fl|\365|\0113\323"
  18      60623067 
  18      40004E86 
  18      C5D3775C 
  18      E5666C7C 
  19 0019 8CCF0BED 		.ascii	"\214\317\013\355\231w\364\334led\331\267{\301W\036\326"
  19      9977F4DC 
  19      6C6564D9 
  19      B77BC157 
  19      1ED6
  20 002b 97D336B4 		.ascii	"\227\3236\2643\261\267l\234w\210\221c\365\267\357\363"
  20      33B1B76C 
  20      9C778891 
  20      63F5B7EF 
  20      F3
  21 003c 1939FFBE 		.ascii	"\0319\377\276\177\260\206\231\001\000\332\333\032c"
  21      7FB08699 
  21      0100DADB 
  21      1A63
  22              		.text
  23              		.section	.gnu.lto_.jmpfuncs.aa01a0fbeaf2693a,"",%progbits
  24 0000 789C458D 		.ascii	"x\234E\215+\016\303@\014Dg\354]%\013z\203\\t\321\242"
  24      2B0EC340 
  24      0C4467EC 
  24      5D250B7A 
  24      835C74D1 
  25 0015 9282D2C2 		.ascii	"\222\202\322\302\204\265*\011\316\235\002#Ee\265\343"
  25      84B52A09 
  25      CE9D0223 
  25      4565B5E3 
  26 0025 5631B03C 		.ascii	"V1\260<\037=g\010\3368\247\200d\243\257d\222\017\345"
  26      1F3D6708 
  26      DE38A780 
  26      64A3AF64 
  26      920FE5
  27 0038 BC2E9FCB 		.ascii	"\274.\237\313]G\005\301'\007@<\026kNr\030\352\332@@"
ARM GAS  /tmp/cc6udcVC.s 			page 2


  27      5D4705C1 
  27      2707403C 
  27      166B4E72 
  27      18EADA40 
  28 004d 8A04C8FF 		.ascii	"\212\004\310\377C\034\261\335\256\273:\202\354\370:"
  28      431CB1DD 
  28      AEBB3A82 
  28      ECF83A
  29 005c 101675FE 		.ascii	"\020\026u\376F\244\372\337\336\230\332\370cD\245\022"
  29      46A4FADF 
  29      DE98DAF8 
  29      6344A512 
  30 006c 512C1E92 		.ascii	"Q,\036\222)\252\341\343\013\\\316\024H"
  30      29AAE1E3 
  30      0B5CCE14 
  30      48
  31              		.text
  32              		.section	.gnu.lto_.inline.aa01a0fbeaf2693a,"",%progbits
  33 0000 789C6365 		.ascii	"x\234ce`b\360ad\200\003N\006\006V\026FF\006\005\240"
  33      6062F061 
  33      6480034E 
  33      06065616 
  33      46460605 
  34 0015 1813D305 		.ascii	"\030\023\323\005~\006\216\017zL \011F\006>a\2308\337"
  34      7E068E0F 
  34      7A4C2009 
  34      46063E61 
  34      9838DF
  35 0028 E714068E 		.ascii	"\347\024\006\216\351\272`qf\036\240\300\004?\2401<\202"
  35      E9BA6071 
  35      661EA0C0 
  35      043FA031 
  35      3C82
  36 003a 8C4C6079 		.ascii	"\214L`y\020\301\314\300\312\376R\213\201}\275*\023\003"
  36      10C1CCC0 
  36      CAFE528B 
  36      817DBD2A 
  36      1303
  37 004c E30B760E 		.ascii	"\343\013v\016\010\311\300\262@\236\007\244\213\211\033"
  37      08C9C0B2 
  37      409E07A4 
  37      8B891B
  38 005b 68E2043F 		.ascii	"h\342\004?f\006\201\213\2140S\005\346\374bg\340h;\312"
  38      6606818B 
  38      8C305305 
  38      E6FC6267 
  38      E0683BCA 
  39 006f 08B18F0B 		.ascii	"\010\261\217\013l8#H\031\013\003\357Q\2702\236?\267"
  39      6C382348 
  39      190B03EF 
  39      51B8329E 
  39      3FB7
  40 0081 90944155 		.ascii	"\220\224AU\2602H\376d\200\251P8t\234\213\201m\201<\023"
  40      B03248FE 
  40      6480A950 
  40      38749C8B 
  40      816D813C 
ARM GAS  /tmp/cc6udcVC.s 			page 3


  41 0096 924D600A 		.ascii	"\222M`\012\306\001\352\027\000r\200\216\201+\003y\003"
  41      C601EA17 
  41      0072808E 
  41      812B0379 
  41      03
  42 00a7 28C3C120 		.ascii	"(\303\301 \2130G\345\3213\014sXx\201L\006\250y\023\374"
  42      8B3047E5 
  42      D1330C73 
  42      5878814C 
  42      06A87913 
  43 00bc 38193805 		.ascii	"8\0318\005\321L\002\253\230\340\007\014\022\000\213"
  43      D14C02AB 
  43      98E0070C 
  43      12008B
  44 00cb 2928BD   		.ascii	")(\275"
  45              		.text
  46              		.section	.gnu.lto_.pureconst.aa01a0fbeaf2693a,"",%progbits
  47 0000 789C6365 		.ascii	"x\234ce`b\020g``\340d\220b\334\305\310$\305\274\213"
  47      60621067 
  47      6060E064 
  47      9062DCC5 
  47      C824C5BC 
  48 0015 91458A55 		.ascii	"\221E\212U\212}\027#\207\024\347.F\000*L\003\275"
  48      8A7D1723 
  48      8714E72E 
  48      46002A4C 
  48      03BD
  49              		.text
  50              		.section	.gnu.lto_chCondObjectInit.aa01a0fbeaf2693a,"",%progbits
  51 0000 789C8D52 		.ascii	"x\234\215RKO\023Q\024>\337=eZce\253\321&6FB\330t\376"
  51      4B4F1351 
  51      143EDF3D 
  51      655A6365 
  51      ABD12636 
  52 0019 057F646A 		.ascii	"\005\177djR\023\003H\353\272\303\244\265\006\342cCK"
  52      52130348 
  52      EBBAC3A4 
  52      B506E263 
  52      434B
  53 002b C1669A94 		.ascii	"\301f\232\224\207/\240\005E\211b\012\306\230\030\304"
  53      872FA005 
  53      4589620A 
  53      C69818C4 
  54 003b 54971A42 		.ascii	"T\227\032B|\206\004\027\256\214&T\317\275-$\310\206"
  54      7C860417 
  54      AE8C2654 
  54      CFBD2D24 
  54      C886
  55 004d 9BB9B98F 		.ascii	"\233\271\271\217\363\235\357\234\357\273\323A\212\362"
  55      F39DEF9C 
  55      EFBBD341 
  55      8AF2
  56 005b 8AA89788 		.ascii	"\212\250\227\210\316\310\004\023\324\255\015\242\241"
  56      CEC80413 
  56      D4AD0DA2 
  56      A1
  57 0068 9002F4C6 		.ascii	"\220\002\364\306\015\201\322\012i\334\344\002c-\367"
ARM GAS  /tmp/cc6udcVC.s 			page 4


  57      0D81D20A 
  57      69DCE402 
  57      632DF7
  58 0077 6D59F5CC 		.ascii	"mY\365\314\2702\352\205%\353\252\233=\3453QQ\246\036"
  58      B832EA85 
  58      25EBAA9B 
  58      3DE53351 
  58      51A61E
  59 008a 98418FA0 		.ascii	"\230A\217\240\032\231\352m\276\301>\003\0019\376|3\376"
  59      1A99EA6D 
  59      BEC13E03 
  59      0139FE7C 
  59      33FE
  60 009c B9531F15 		.ascii	"\271S\037\025\242r|\377=\277\022\342\263 \331\257\254"
  60      A2727CFF 
  60      3DBF12E2 
  60      B320D9AF 
  60      AC
  61 00ad 570B81EE 		.ascii	"W\013\201\356)\327\365\334\372\316(\273\347}f\334\003"
  61      29D7F5DC 
  61      FACE28BB 
  61      E77D66DC 
  61      03
  62 00be 0B21EE22 		.ascii	"\013!\356\"\202;\210\220\\\021\356\243[\343?\325\232"
  62      823B8890 
  62      5C11EEA3 
  62      5BE33FD5 
  62      9A
  63 00cf A327AC40 		.ascii	"\243'\254@e\257&\036\300\202\254\363\357Pw\233\177s"
  63      65AF261E 
  63      C082ACF3 
  63      EF50779B 
  63      7F73
  64 00e1 6E7D7D1A 		.ascii	"n}}\032\215^\013\320\031Jr\003D\303\202\324RFX\351\225"
  64      8D5E0BD0 
  64      194A7203 
  64      44C382D4 
  64      524658E9 
  65 00f6 B7E1FDC9 		.ascii	"\267\341\375\311\355.\206ur\211\225\320\346\263ko\203"
  65      ED2E8675 
  65      728995D0 
  65      E6B36B6F 
  65      83
  66 0107 BA43365D 		.ascii	"\272C6]\375z\365\372Z\330GiHd\226\247!,\035%\3212+\315"
  66      FD7AF5FA 
  66      5AD84769 
  66      486496A7 
  66      212C1D25 
  67 011f E8F0D417 		.ascii	"\350\360\324\027o.h\317j\023\242>[\230\203\2171\343"
  67      6F2E68CF 
  67      6A13A23E 
  67      5B98838F 
  67      31E3
  68 0131 80043F4C 		.ascii	"\200\004?L\256N\036O\357\352`\271S\312c\036\266\364"
  68      AE4E1E4F 
  68      EFEA60B9 
  68      53CA631E 
ARM GAS  /tmp/cc6udcVC.s 			page 5


  68      B6F4
  69 0143 59459ABE 		.ascii	"YE\232\276\302\213\352\232\202\3728\261\331<\306\347"
  69      C28BEA9A 
  69      82FA38B1 
  69      D93CC6E7 
  70 0153 4CB517D9 		.ascii	"L\265\027\331U/\330U1\036l\026\303E\267\236\211\352"
  70      552FD855 
  70      311E6C16 
  70      C345B79E 
  70      89EA
  71 0165 C4DA411B 		.ascii	"\304\332A\033\214\277\013\350\222\216I\024\214\377\336"
  71      8CBF0BE8 
  71      928E4914 
  71      8CFFDE
  72 0174 D879D9E0 		.ascii	"\330y\331\340}O2\2557yn\261\006\031c\212-5m\317\010"
  72      7D4F32AD 
  72      37796EB1 
  72      0619638A 
  72      2D356DCF 
  73 0189 8BB084E2 		.ascii	"\213\260\204\342\241i`_q\340\200b\210\036-\365\321a"
  73      A169605F 
  73      71E08062 
  73      881E2DF5 
  73      D161
  74 019b A95B4F17 		.ascii	"\251[O\027N\216\205}\016b\311\350E\213\020\217a\357"
  74      4E8E857D 
  74      0E62C9E8 
  74      458B108F 
  74      61EF
  75 01ad B5B4FDAC 		.ascii	"\265\264\375\254\226j\363\037\201\260|Z\223=1d\252M"
  75      966AF31F 
  75      81B07C5A 
  75      933D3164 
  75      AA4D
  76 01bf B6DC2213 		.ascii	"\266\334\"\023\247\266F|\307\274\256VC?\340\225+\327"
  76      A7B6467C 
  76      C7BCAE56 
  76      433FE095 
  76      2BD7
  77 01d1 A12F8C11 		.ascii	"\241/\214\021\303R^\236R\376\334H,f\267\276\376\244"
  77      C3525E9E 
  77      52FEDC48 
  77      2C66B7BE 
  77      FEA4
  78 01e3 3D98B293 		.ascii	"=\230\262\223\203\216\355$\234\376\276x\314!\345\014"
  78      838EED24 
  78      9CFEBE78 
  78      CC21E50C 
  79 01f3 70EAF240 		.ascii	"p\352\362@\364?\314\305>\347\322\225\370\005\301%\235"
  79      F43FCCC5 
  79      3EE7D295 
  79      F805C125 
  79      9D
  80 0204 443C96A0 		.ascii	"D<\226\240\177\350\255\350\327"
  80      7FE8ADE8 
  80      D7
  81              		.text
ARM GAS  /tmp/cc6udcVC.s 			page 6


  82              		.section	.gnu.lto_chCondSignal.aa01a0fbeaf2693a,"",%progbits
  83 0000 789C8554 		.ascii	"x\234\205TmL[e\024~\317}o{\013-\210\377\234!YQ\311\\"
  83      6D4C5B65 
  83      147ECF7D 
  83      6F7B0B2D 
  83      88FF9C21 
  84 0018 32B9C62C 		.ascii	"2\271\306,1N\367\303\360c\331\017\0223\376\370\303\204"
  84      314EF7C3 
  84      F063D90F 
  84      1233FEF8 
  84      C384
  85 002a 68214262 		.ascii	"h!Bb)\266h\266_\\*\210\0312\311\014P\326\325Kdd8\204"
  85      29B668B6 
  85      5F5C2A88 
  85      1932C90C 
  85      50D6D54B 
  86 0042 F2E1C760 		.ascii	"\362\341\307`\002\345K\004\0318\330\227v\2729>\024\305"
  86      02E54B04 
  86      1938D897 
  86      76BA393E 
  86      14C5
  87 0054 44E7DC57 		.ascii	"D\347\334Wf\3479o/\330\226:o\332\333\336\367|<\347y"
  87      66E7396F 
  87      2FD8963A 
  87      6FDADBDE 
  87      F77C3CE7 
  88 0069 CEB9C7C4 		.ascii	"\316\271\307\304$\266Ga\354\006cl'~\301\304@\252\237"
  88      24B64761 
  88      EC06636C 
  88      277EC1C4 
  88      40AA9F
  89 007c 65ACD222 		.ascii	"e\254\322\"I\334\277\233i\251\362_\031L\263q\220\243"
  89      49DCBF9B 
  89      69A9F25F 
  89      194CB371 
  89      90A3
  90 008e C73200FD 		.ascii	"\3072\000\375\321,\300*$.C\005\274\307\2338\214\326"
  90      D12CC02A 
  90      242E4305 
  90      BCC79B38 
  90      8CD6
  91 00a0 ACF44BDB 		.ascii	"\254\364K\333\217kx\205\232\256\231\337\326\252\037"
  91      8F6B7885 
  91      9AAE99DF 
  91      D6AA1F
  92 00af D23963CD 		.ascii	"\3229c\315\370\245\013\216\303v\364:S\325}\224\037\342"
  92      F8A50B8E 
  92      C376F43A 
  92      53D57D94 
  92      1FE2
  93 00c1 3A0790F1 		.ascii	":\007\220\361\361\217\323G\026\323\351Q\002;>.\374\324"
  93      F18FD347 
  93      16D3E951 
  93      023B3E2E 
  93      FCD4
  94 00d3 3868E15B 		.ascii	"8h\341[\201\341\377\301\231\356&y[\233\246y\265\320"
  94      81E1FFC1 
ARM GAS  /tmp/cc6udcVC.s 			page 7


  94      99EE2679 
  94      5B9BA679 
  94      B5D0
  95 00e5 4C03D71E 		.ascii	"L\003\327\036\3239\207\023\3001!|\004\231\320\016\231"
  95      D3398713 
  95      C031217C 
  95      0499D00E 
  95      99
  96 00f6 0C8F1874 		.ascii	"\014\217\030t\3006\362\277\332\023iH3\313\255\353\230"
  96      C036F2BF 
  96      DA136948 
  96      33CBADEB 
  96      98
  97 0107 F0319801 		.ascii	"\3601\230\001\177\203\363\020\322\"\367j\264\320Z\033"
  97      7F83F310 
  97      D222F76A 
  97      B4D05A1B 
  98 0117 34EC411E 		.ascii	"4\354A\036\024!c\254l\302\233I\241\033c\0071\206h\325"
  98      142163AC 
  98      6CC29B49 
  98      A11B6307 
  98      318668D5 
  99 012b 72897EF9 		.ascii	"r\211~\3712H\224\265mz~\330\312\037\021\025]\367\365"
  99      324894B5 
  99      6D7A7ED8 
  99      CA1F1115 
  99      5DF7F5
 100 013e B4A764B7 		.ascii	"\264\247d\267\212\212.L\3444_\\\322\264\303\032\350"
 100      8A8A2E4C 
 100      E4345F5C 
 100      D2B4C31A 
 100      E8
 101 014f DC0C9DF1 		.ascii	"\334\014\235\361u\011\302]\220\215A5\253\332\240L\014"
 101      7509C25D 
 101      908D4135 
 101      ABDAA04C 
 101      0C
 102 0160 CD608720 		.ascii	"\315`\207 \332~\001\357\325\305\272\201\313\260Qs\225"
 102      DA7E01EF 
 102      D5C5BA81 
 102      CBB05173 
 102      95
 103 0171 D0ECFD3B 		.ascii	"\320\354\375;fQs3\007\226`\012\237\330\361\022\203n"
 103      66517333 
 103      0796600A 
 103      9FD8F112 
 103      836E
 104 0183 B24989B6 		.ascii	"\262I\211\266\205\211\247\266\020\024\203\036\262\363"
 104      8589A7B6 
 104      1014831E 
 104      B2F3
 105 0191 182918F4 		.ascii	"\030)\030\364\202\031\013\351#!\200\365\021\342\207"
 105      82190BE9 
 105      232180F5 
 105      11E287
 106 01a0 7AEFADD4 		.ascii	"z\357\255\324\254q\3205\237]\347\012yw.\236\322,\262"
 106      AC71D035 
ARM GAS  /tmp/cc6udcVC.s 			page 8


 106      9F5DE70A 
 106      79772E9E 
 106      D22CB2
 107 01b3 848E9F40 		.ascii	"\204\216\237@\026\243\223\337\327\316\206%<\201OA\026"
 107      16A393DF 
 107      D7CE8625 
 107      3C814F41 
 107      16
 108 01c4 3533F84C 		.ascii	"53\370L\264\253}hl\331\2265iD[\310\367ZW\3579\253\210"
 108      B4AB7D68 
 108      6CD99635 
 108      69445BC8 
 108      F75A57EF 
 109 01db FE9CA2E1 		.ascii	"\376\234\242\341$\310l\031\274v\301\237\261U\360\336"
 109      24C86C19 
 109      BC76C19F 
 109      B155F0DE 
 110 01eb A909DEAA 		.ascii	"\251\011\336\252\313!j\001NI\032\253G\347\024R$J\364"
 110      CB216A01 
 110      4E491AAB 
 110      47E71452 
 110      244AF4
 111 01fe E6E4F43B 		.ascii	"\346\344\364;6\035\002\225\310\246e\005\260\033)\001"
 111      361D0295 
 111      C8A66505 
 111      B01B2901 
 112 020e 34F5132C 		.ascii	"4\365\023,5`\311\333\245\250\235\304\025!Sa\000t\360"
 112      3560C9DB 
 112      A5A89DC4 
 112      15215361 
 112      0074F0
 113 0221 89994263 		.ascii	"\211\231Bc\370\330\3101k\305\337dlA\003\016\343)P\261"
 113      F8D8C831 
 113      6BC5DF64 
 113      6C41030E 
 113      E32950B1 
 114 0235 882FA042 		.ascii	"\210/\240B\024A\240\350v\311\377C$\205\317\201\300\033"
 114      1441A0E8 
 114      76C9FF43 
 114      2485CF81 
 114      C01B
 115 0247 AB1EF12A 		.ascii	"\253\036\361*F\027g\375\266f-T\205\211\2550\230\244"
 115      461767FD 
 115      B6662D54 
 115      8589AD30 
 115      98A4
 116 0259 8543908D 		.ascii	"\205C\220\2155\023\211\201\333\03557}/&\210\337t\327"
 116      35138981 
 116      DB1D3537 
 116      7D2F2688 
 116      DF74D7
 117 026c AC9093D1 		.ascii	"\254\220\223\32189N\374a!~\210h\233bi[\343hc\3256\342"
 117      38394EFC 
 117      61217E88 
 117      689B6269 
 117      5BE36863 
 118 0283 3B62F0FD 		.ascii	";b\360\375\300w\362\317t\344[\257iW\202\201\314CoYu"
ARM GAS  /tmp/cc6udcVC.s 			page 9


 118      C077F2CF 
 118      74E45BAF 
 118      69578281 
 118      CC436F59 
 119 0298 9E06A382 		.ascii	"\236\006\243\2025D\223\302\030\222DzWj\207\026A\214"
 119      354493C2 
 119      1892447A 
 119      576A8716 
 119      418C
 120 02aa 3995C096 		.ascii	"9\225\300\226\240*<\266\323\3209@3\315h\2349\363\357"
 120      A02A3CB6 
 120      D3D03940 
 120      33CD689C 
 120      39F3EF
 121 02bd C669F6B6 		.ascii	"\306i\366\266\334\2533\031z$\227@N*\301xT\002\202\013"
 121      DCAB3319 
 121      7A249740 
 121      4E2AC178 
 121      5402820B 
 122 02d1 06222B3F 		.ascii	"\006\"+?'\216mS\304l\"'C\002\023q\030_\276;o\345\327"
 122      278E6D53 
 122      C46C2227 
 122      43021371 
 122      185FBE3B 
 123 02e8 A37A5776 		.ascii	"\243zWv\370\217\332\014\260\313\003\317\371['\337\325"
 123      F88FDA0C 
 123      B0CB03CF 
 123      F95B27DF 
 123      D5
 124 02f9 5ABC19F8 		.ascii	"Z\274\031\370\322\301\227\233\361\376\025\020&)\351"
 124      D2C1979B 
 124      F1FE1510 
 124      2629E9
 125 0308 8410F12B 		.ascii	"\204\020\361+\3448I\205\230D/V\247\372\272%:\014p%V"
 125      E4384985 
 125      98442F56 
 125      A7FABA25 
 125      3A0C7025 
 126 031d 5953A2B2 		.ascii	"YS\242\262\351\030\001S\233'\251\345\006\320,M\013U"
 126      E9180153 
 126      9B27A9E5 
 126      06D02C4D 
 126      0B55
 127 032f A5280AAD 		.ascii	"\245(\012\255\237z\315\007\206G\257D\371\276\006U\310"
 127      9F7ACD07 
 127      8647AF44 
 127      F9BE0655 
 127      C8
 128 0340 4E0E3083 		.ascii	"N\0160\203\262#|\343\3243\204\035\013,'\002\247RKO'"
 128      B2237CE3 
 128      D433841D 
 128      0B2C2702 
 128      A7524B4F 
 129 0355 017E98B2 		.ascii	"\001~\230\262\316\256wS\244\235\003\025yP\346#\253\323"
 129      CEAE7753 
 129      A49D0315 
 129      7950E623 
ARM GAS  /tmp/cc6udcVC.s 			page 10


 129      ABD3
 130 0367 7D4B6024 		.ascii	"}K`$\217\247\241$\245\341&\026\337\334\207E\027\020"
 130      8FA7A124 
 130      A5E12616 
 130      DFDC8745 
 130      1710
 131 0379 DE1962C1 		.ascii	"\336\031b\301\015\270y\202\2136\264v\2705:?\324\277"
 131      0DB87982 
 131      8B36B476 
 131      B8353A3F 
 131      D4BF
 132 038b 8D174608 		.ascii	"\215\027F\010\317~\205j\361D\031\373\373\327\302\012"
 132      CF7E856A 
 132      F14419FB 
 132      FBD7C20A 
 133 039b BE66169D 		.ascii	"\276f\026\235?\320\314\251!\013\370\202E\307:\270\326"
 133      3FD0CCA9 
 133      210BF882 
 133      45C73AB8 
 133      D6
 134 03ac 7F3B8D34 		.ascii	"\177;\2154\310@>g!S\347\017\212\261\223c\267h\374\346"
 134      C8403E67 
 134      2153E70F 
 134      8AB19363 
 134      B768FCE6 
 135 03c0 DCF57F9B 		.ascii	"\334\365\177\233\363\234\330\234\033\352\322\366:\177"
 135      F39CD89C 
 135      1BEAD2F6 
 135      3A7F
 136 03ce BFCD7958 		.ascii	"\277\315yX1\246O\211{\001/\320\354lZ\245\217\0270\270"
 136      31A64F89 
 136      7B012FD0 
 136      EC6C5AA5 
 136      8F1730B8 
 137 03e2 48CE964D 		.ascii	"H\316\226M\253\264\355\331-\204\315\340\333\315\253"
 137      ABB4EDD9 
 137      2D84CDE0 
 137      DBCDAB
 138 03f1 F43B3188 		.ascii	"\364;1\210\341\230U\032\321\177\034\262\256o\311\363"
 138      E198551A 
 138      D17F1CB2 
 138      AE6FC9F3 
 139 0401 624B5E12 		.ascii	"bK^\022[2q%~\277\261\022)9\373\215\224\237~T\210K\327"
 139      5B327125 
 139      7EBFB112 
 139      2939FB8D 
 139      949F7E54 
 140 0418 419C04D4 		.ascii	"A\234\004\324\012\3753sr\324\350\307\345Q\335\345\252"
 140      0AFD3373 
 140      72D4E8C7 
 140      E551DDE5 
 140      AA
 141 0429 C7ED501D 		.ascii	"\307\355P\035\305\016Wia\216\203I\2162\345\225\227="
 141      C50E5769 
 141      618E8349 
 141      8E32E595 
 141      973D
ARM GAS  /tmp/cc6udcVC.s 			page 11


 142 043b 452FB84B 		.ascii	"E/\270K\236\210\365s\270\234NW\251Z\346r\227{\324\347"
 142      9E88F573 
 142      B89C4E57 
 142      A95AE672 
 142      977BD4E7 
 143 044f F7E5E5E6 		.ascii	"\367\345\345\346\355\027A\356\242\2027\237v\346\024"
 143      ED1741EE 
 143      A282379F 
 143      76E614
 144 045e B35D49BC 		.ascii	"\263]I\274\213\366\227\223\257\232\233\227\2777_\315"
 144      8BF69793 
 144      AF9A9B97 
 144      BF375FCD 
 145 046e 4567756F 		.ascii	"Eguo\251\343\2657\012\213T\207\323S\342)x\325\341\300"
 145      A9E3B537 
 145      0A8B5487 
 145      D353E229 
 145      78D5E1C0 
 146 0482 D0AD0905 		.ascii	"\320\255\011\005\225\254\373\024{\016x\320\236\221\227"
 146      95ACFB14 
 146      7B0E78D0 
 146      9E9197
 147 0491 BFCF4E45 		.ascii	"\277\317NE\225\271Kv\330\263\237d\222\233)\316\"\247"
 147      95B94B76 
 147      D8B39F64 
 147      929B29CE 
 147      22A7
 148 04a3 CB7D80F1 		.ascii	"\313}\200\361\362\327\313\354\377\035\357(.\304\004"
 148      F2D7CBEC 
 148      FF1DEF28 
 148      2EC404
 149 04b2 5279D93F 		.ascii	"Ry\331?\351\236\240s"
 149      E99EA073 
 150              		.text
 151              		.section	.gnu.lto_chCondSignalI.aa01a0fbeaf2693a,"",%progbits
 152 0000 789C8554 		.ascii	"x\234\205T]O\024I\024\255\323\325M\2670\240\217f\203"
 152      5D4F1449 
 152      14ADD3D5 
 152      4DB730A0 
 152      8F6683
 153 0013 4A8CC698 		.ascii	"J\214\306\230\030\372\305\027\037|6\373\017|\037L\320"
 153      18FAC517 
 153      1F7C36FB 
 153      0F7C1F4C 
 153      D0
 154 0024 1845C067 		.ascii	"\030E\300g\212\311 F\022A\023\201\021g{\022 ~\003\212"
 154      8AC92046 
 154      12411381 
 154      11677B12 
 154      207E038A 
 155 0038 0A33383A 		.ascii	"\01238:\200\212\240h\374x0b\214\221\361\203\210&\256"
 155      808AA068 
 155      FC783062 
 155      8C91F183 
 155      8826AE
 156 004b 5F71E3B2 		.ascii	"_q\343\262{ou\253\303\210\332\231\351\356\252\276u\356"
 156      7B6F75AB 
ARM GAS  /tmp/cc6udcVC.s 			page 12


 156      C388DA99 
 156      E9EEAABE 
 156      75EE
 157 005d 39E7DE2A 		.ascii	"9\347\336*K\030\242\323\022\342O!\304z\372\303\0220"
 157      4B18A2D3 
 157      12E24F21 
 157      C47AFAC3 
 157      1230
 158 006f 5A6E0951 		.ascii	"Zn\011Q\357\030\206\354\330(T\241\371a\211P!\011\323"
 158      EF1886EC 
 158      D82854A1 
 158      F9618950 
 158      2109D3
 159 0082 9F36017E 		.ascii	"\2376\001~Q\016D\235!M\324\241Y\266I\2144>O\032k\217"
 159      510E449D 
 159      214DD4A1 
 159      59B6498C 
 159      343E4F1A 
 160 0098 2ABA326D 		.ascii	"*\2722m\227\354=\252a\251'\205\210\321\237/\034\305"
 160      97EC3DAA 
 160      61A92785 
 160      88D19F2F 
 160      1CC5
 161 00aa 5A8ABA13 		.ascii	"Z\212\272\023\355;\"\367KO\002&\015\337N\036\236.\341"
 161      ED3B22F7 
 161      4B4F0226 
 161      0DDF4E1E 
 161      9E2EE1
 162 00bd A181321A 		.ascii	"\241\2012\032\336{\321\232v\344\012\010zO\337\354k3"
 162      DE7BD19A 
 162      76E40A08 
 162      7A4FDFEC 
 162      6B33
 163 00cf D7742B15 		.ascii	"\327t+\025Q\231\373\207\244Z\345I\211\023\220\004\210"
 163      5199FB87 
 163      A45AE549 
 163      89139004 
 163      88
 164 00e0 E328C531 		.ascii	"\343(\3051\224\012\232\0228\2115\034\377\364\314\334"
 164      940A9A12 
 164      3889351C 
 164      FFF4CCDC 
 165 00f0 A1E202B3 		.ascii	"\241\342\002\263\363kN\234B\001\350\331{\027\0315\367"
 165      F36B4E9C 
 165      4201E8D9 
 165      7B171935 
 165      F7
 166 0101 5FA3CABC 		.ascii	"_\243\312\274\357\306\273ME\006x\205\244\265\246E7\313"
 166      EFC6BB4D 
 166      45067885 
 166      A4B5A645 
 166      37CB
 167 0113 E19B10FB 		.ascii	"\341\233\020\373h\015\313j\222\006?\345\014\"\3774N"
 167      680DCB6A 
 167      92063FE5 
 167      0C22FF34 
 167      4E
ARM GAS  /tmp/cc6udcVC.s 			page 13


 168 0124 A607C138 		.ascii	"\246\007\3018q\311\012[\033Fn\333LVj\202\237\306&\366"
 168      71C90A5B 
 168      1B466EDB 
 168      4C566A82 
 168      9FC626F6 
 169 0138 863CC4EB 		.ascii	"\206<\304\353Iq\3429\010\206\342\014\234&^\374\271;"
 169      4971E239 
 169      0886E20C 
 169      9C265EFC 
 169      B93B
 170 014a 1BE9B1DD 		.ascii	"\033\351\261\335\323\354G\231'm\364\300C\2736\203>N"
 170      D3EC4799 
 170      276DF4C0 
 170      43BB3683 
 170      3E4E
 171 015c 750D7715 		.ascii	"u\015w\025\325\375\313\037\023)\020\025\364\302%\316"
 171      D5FDCB1F 
 171      13291015 
 171      F4C225CE 
 172 016c 7DA813CF 		.ascii	"}\250\023\317\020)\343\244\024\366\250\343\361\334\""
 172      1029E3A4 
 172      14F6A8E3 
 172      F1DC22
 173 017b B952A71B 		.ascii	"\271R\247\033m\030\216\330\253;\265\037s\361PLe\242"
 173      6D188ED8 
 173      AB3BB51F 
 173      73F1504C 
 173      65A2
 174 018d 84EBE0CC 		.ascii	"\204\353\340\314|K\264\327g\261\232(\013\322\220\372"
 174      7C4BB4D7 
 174      67B19A28 
 174      0BD290FA 
 175 019d 7C6B706C 		.ascii	"|kpl\330\372\346O\324\257\317\003\333\346 mR\314\227"
 175      D8FAE64F 
 175      D4AFCF03 
 175      DBE6206D 
 175      52CC97
 176 01b0 13F827D0 		.ascii	"\023\370'\320\217\002\2028\307\252\255\\\325\316<\325"
 176      8F028238 
 176      C7AAAD5C 
 176      D5CE3CD5 
 177 01c0 447A11CB 		.ascii	"Dz\021\313=\037\310\375\253}\360]\011\311mQ\352\311"
 177      3D1FC8FD 
 177      AB7DF05D 
 177      09C96D51 
 177      EAC9
 178 01d2 D0D365ED 		.ascii	"\320\323e\355\233=Y\210\013Z3|L\014\220D\022\367\244"
 178      9B3D5988 
 178      0B5A337C 
 178      4C0C9044 
 178      12F7A4
 179 01e5 69765ABB 		.ascii	"ivZ\273\252\031\210,\242S\243\353\003\227\343\\\012"
 179      AA19882C 
 179      A253A3EB 
 179      0397E35C 
 179      0A
 180 01f6 C15590A2 		.ascii	"\301U\220\242c\243\244\350\304@\363:\202\277\362\354"
ARM GAS  /tmp/cc6udcVC.s 			page 14


 180      63A3A4E8 
 180      C440F33A 
 180      82BFF2EC 
 181 0206 CBDD22B9 		.ascii	"\313\335\"\271IS\250?\331q$\0248\361\345\200T]\312\240"
 181      4953A83F 
 181      D9712414 
 181      38F1E580 
 181      545DCAA0 
 182 021a 1262F047 		.ascii	"\022b\360G#\276\313B2PK\322R\332\333\205\3754\027\364"
 182      23BECB42 
 182      32504BD2 
 182      52DADB85 
 182      FD3417F4 
 183 022e 73C8F793 		.ascii	"s\310\367\223\311\017\375=p\255$\337\316\207\366\012"
 183      C90FFD3D 
 183      70AD24DF 
 183      CE87F60A 
 184 023e 8ED1D031 		.ascii	"\216\321\3201j\240<\222\237\262n,\225U\352\240\302\357"
 184      6AA03C92 
 184      9FB26E2C 
 184      9555EAA0 
 184      C2EF
 185 0250 89A619E7 		.ascii	"\211\246\031\347\242&z\211<JsjK\227rf\274\277\317\340"
 185      A2267A89 
 185      3C4A736A 
 185      4B977266 
 185      BCBFCFE0 
 186 0264 C9B87472 		.ascii	"\311\270tr\013c\345\027\246\210V\340\362\217}\230\370"
 186      0B63E517 
 186      A68856E0 
 186      F28F7D98 
 186      F8
 187 0275 08EEC48C 		.ascii	"\010\356\304\214\256\212\341g\341]\327\242\332\021D"
 187      AE8AE167 
 187      E15DD7A2 
 187      DA1144
 188 0284 9CD5560E 		.ascii	"\234\325V\016\303\325e\343\000\214P\331(}\353\370\006"
 188      C3D565E3 
 188      008C50D9 
 188      287DEBF8 
 188      06
 189 0295 CE9D9BD8 		.ascii	"\316\235\233\330\314OlsG\214.\220\370\017F\275\362\265"
 189      CC4F6C73 
 189      478C2E90 
 189      F80F46BD 
 189      F2B5
 190 02a7 1B34EC55 		.ascii	"\0334\354U\270\244\203\221\017\317L\364g\021\200\317"
 190      B8A48391 
 190      0FCF4CF4 
 190      671180CF 
 191 02b7 97E12C28 		.ascii	"\227\341,(\243\232U\\\373\205\212\036\355\363\030\253"
 191      A39A555C 
 191      FB858A1E 
 191      EDF318AB 
 192 02c7 9041BAEB 		.ascii	"\220A\272\353\234\316/a\323\353i\233+\245K\346o\267"
 192      9CCE2F61 
 192      D3EB699B 
ARM GAS  /tmp/cc6udcVC.s 			page 15


 192      2BA54BE6 
 192      6FB7
 193 02d9 94EF74CE 		.ascii	"\224\357t\316\210\373\205\311\275\177\371f\2640h\231"
 193      88FB85C9 
 193      BD7FF966 
 193      B4306899 
 194 02e9 793B7EF9 		.ascii	"y;~\371\317}\246>\012a\\\3633\375\342\346\222\333\346"
 194      CF7DA63E 
 194      0A615CF3 
 194      33FDE2E6 
 194      92DBE6
 195 02fc C9624C30 		.ascii	"\311bL07\356u\334\200K\001\275\263\311\317\305\354i"
 195      37EE75DC 
 195      804B01BD 
 195      B3C9CFC5 
 195      EC69
 196 030e 09F97393 		.ascii	"\011\371s\223 _!\232\270\334lqf\006H&g\247l:0\034O."
 196      205F219A 
 196      B8DC6C71 
 196      66064826 
 196      67A76C3A 
 197 0326 8E910E81 		.ascii	"\216\221\016\201I:*(\277'\227\350\375b\352S\3535m\230"
 197      493A2A28 
 197      BF2797E8 
 197      FD62EA53 
 197      EB356D98 
 198 033a 17CDF01B 		.ascii	"\027\315\360\033]\360\251\006\2367\204(-/w\375\337\316"
 198      5DF0A906 
 198      9E378428 
 198      2D2F77FD 
 198      DFCE
 199 034c 1AB7BAD6 		.ascii	"\032\267\272\326\255\251\016\273\341\312\360\316\035"
 199      ADA90EBB 
 199      E1CAF0CE 
 199      1D
 200 0359 15E56161 		.ascii	"\025\345aa\204\253d\355\256\252\262\274\230\255;\302"
 200      84AB64ED 
 200      AEAAB2BC 
 200      98AD3BC2 
 201 0369 DB77576C 		.ascii	"\333wWl\241\270\232peEy\2450j\253\376\007\024\310\343"
 201      A1B89A70 
 201      654579A5 
 201      306AABFE 
 201      0714C8E3 
 202 037d F3       		.ascii	"\363"
 203              		.text
 204              		.section	.gnu.lto_chCondBroadcast.aa01a0fbeaf2693a,"",%progbits
 205 0000 789C8555 		.ascii	"x\234\205Ukl\024U\024\276g\356\314\316v\267\024PL\204"
 205      6B6C1455 
 205      14BE67EE 
 205      CCCE76B7 
 205      14504C84 
 206 0014 34616B6C 		.ascii	"4akl\220\004;\306?F\364\217\341\207\301\244\211\201"
 206      90043BC6 
 206      3F46F48F 
 206      E187C1A4 
 206      8981
ARM GAS  /tmp/cc6udcVC.s 			page 16


 207 0026 3F9A9810 		.ascii	"?\232\230\020]\032\332\304m\353n5\340\017;,[k( Q\332"
 207      5D1ADAC4 
 207      6DEB6E35 
 207      E00F3B2C 
 207      5B6B2820 
 208 003c EE52CA34 		.ascii	"\356R\3124B\245\266\366\255B\013-\333\027\205\312C\312"
 208      42A5B6F6 
 208      AD420B2D 
 208      DB1785CA 
 208      43CA
 209 004e 539747A1 		.ascii	"S\227G\241[\264\212\250H@\011\256\236sg\266\351n\227"
 209      5BB48AA8 
 209      484009AE 
 209      9E7367B6 
 209      E96E97
 210 0061 3AD9C7CC 		.ascii	":\331\307\314\275\347\361}\347|w\216\302$\366\272\235"
 210      BDE7F17D 
 210      E77C778E 
 210      C224F6BA 
 210      9D
 211 0072 B1BB8CB1 		.ascii	"\261\273\214\261\227\361\0136\006\322\366\223\214m\264"
 211      97F10B36 
 211      06D2F693 
 211      8C6DB4
 212 0081 4B209B37 		.ascii	"K \2337\334\274\351\263\313\022\3372\314\230\356P\002"
 212      DCBCE9B3 
 212      CB12DF32 
 212      CC98EE50 
 212      02
 213 0092 2AD3D315 		.ascii	"*\323\323\025\000Z\327\355\300J%.+P*\311\314\274>\346"
 213      005AD7ED 
 213      C04A252E 
 213      2B502AC9 
 213      CCBC3EE6 
 214 00a6 D51CFACB 		.ascii	"\325\034\372\313otIK\367\351x\205\253w8>\324\313\036"
 214      6F74494B 
 214      F7E97885 
 214      AB77383E 
 214      D4CB1E
 215 00b9 37386321 		.ascii	"78c!n\332\300>X\212V\247\003m\273\3706np\000\031\037"
 215      6EDAC03E 
 215      588A56A7 
 215      036DBBF8 
 215      366E7000 
 216 00cf FF38B173 		.ascii	"\3778\261s<\203\036%p\341\343\231\037\253z\354|10\274"
 216      3C831E25 
 216      70E1E399 
 216      1FAB7AEC 
 216      7C3130BC 
 217 00e3 EF39DE56 		.ascii	"\3579\336V-/\251\327u\277\036\216Vr\375I\203sh\004\216"
 217      2D2FA9D7 
 217      75BF1E8E 
 217      5672FD49 
 217      83736804 
 218 00f8 01E10BC8 		.ascii	"\001\341\013\310\204\006\310d\270\304\240\011\226\220"
 218      8406C864 
 218      B8C4A009 
ARM GAS  /tmp/cc6udcVC.s 			page 17


 218      9690
 219 0106 FDF5F658 		.ascii	"\375\365\366X\345\034\233l&\204/\301\006\370\337:\012"
 219      E51C9B6C 
 219      26842FC1 
 219      06F8DF3A 
 219      0A
 220 0117 613DF66F 		.ascii	"a=\366o\271\036\036\374\034\332_\231+\001\231\313\350"
 220      B91E1EFC 
 220      1CDA5F99 
 220      2B0199CB 
 220      E8
 221 0128 282BF463 		.ascii	"(+\364c\303\037E\245;\3066\243#2\255\340\022\376\361"
 221      C31F45A5 
 221      3BC636A3 
 221      2332ADE0 
 221      12FEF1
 222 013b 0990286A 		.ascii	"\011\220(j\375\310\350a'\177B \272\023loH\313\336#\020"
 222      FDC8E861 
 222      277F4220 
 222      BA136C6F 
 222      48CBDE23 
 223 0150 5D18CA09 		.ascii	"]\030\312\011]\214\352\372':\030\334\006\315\211\270"
 223      5D8CEAFA 
 223      273A18DC 
 223      06CD89B8 
 224 0160 04E116C8 		.ascii	"\004\341\026\310F\247\362I\275G&\2066pA+\356\375\014"
 224      46A7F249 
 224      BD472686 
 224      3670412B 
 224      EEFD0C
 225 0173 FEEBE35B 		.ascii	"\376\353\343[\273\257\302\024\346\200\250\331\247A\207"
 225      BBAFC214 
 225      E680A8D9 
 225      A74187
 226 0182 801DE2C0 		.ascii	"\200\035\342\300\222\266\"\215\313\336`\320F{R\362\336"
 226      92B6228D 
 226      CBDE60D0 
 226      467B52F2 
 226      DE
 227 0193 99A16717 		.ascii	"\231\241g\027R*\006\355\264\317\247\227\002:\260\301"
 227      522A06ED 
 227      B4CFA797 
 227      023AB0C1 
 228 01a3 0C3AA916 		.ascii	"\014:\251\026\300:)\343gF\307_\216\254A0\364\240\313"
 228      C03A29E3 
 228      6746C75F 
 228      8EAC4130 
 228      F4A0CB
 229 01b6 E02A5937 		.ascii	"\340*Y7\217\037\324\261\331h\370\025d1Z\371\375\346"
 229      8F1FD4B1 
 229      D968F815 
 229      64315AF9 
 229      FDE6
 230 01c8 D988842B 		.ascii	"\331\210\204+\3605\310\0023\203oD\273\032z\007&\322"
 230      F035C802 
 230      33836F44 
 230      BB1A7A07 
ARM GAS  /tmp/cc6udcVC.s 			page 18


 230      26D2
 231 01da B3862D6F 		.ascii	"\263\206-o;\331\336n\3518\347\024\336\373\311\033\016"
 231      3BD9DE6E 
 231      E938E714 
 231      DEFBC91B 
 231      0E
 232 01eb 80CC26C0 		.ascii	"\200\314&\300\357\022\374\251\016\025\210\011u\204\005"
 232      EF12FCA9 
 232      0E158809 
 232      758405
 233 01fa F58F55F4 		.ascii	"\365\217U\364\326\023\210\312\337\216T\202U\310\363"
 233      D61388CA 
 233      DF8E5482 
 233      55C8F3
 234 0209 0DE9213D 		.ascii	"\015\351!=\034p\245\350.]Ilo5\330\240\213\310\212B\311"
 234      1C70A5E8 
 234      2E5D496C 
 234      6F35D8A0 
 234      8BC88A42 
 235 021e 0964BB05 		.ascii	"\011d\273\005\331\203`\303\305K5Wbi\374\024\210R\016"
 235      D98360C3 
 235      C54B3557 
 235      6269FC14 
 235      88520E
 236 0231 94F5F955 		.ascii	"\224\365\371U+\335\255\306x:\005\016\245hZ\017d\327"
 236      2BDDADC6 
 236      783A050E 
 236      A5685A0F 
 236      64D7
 237 0243 721B3118 		.ascii	"r\0331\030k\255\215\335\370)\271K\325\017\034\012\031"
 237      6BAD8DDD 
 237      F829B94B 
 237      D50F1C0A 
 237      19
 238 0254 894421AE 		.ascii	"\211D!\256P\374\301\211\007\243N~\307L\266\261\251f"
 238      50FCC189 
 238      07A34E7E 
 238      C74CB6B1 
 238      A966
 239 0266 57BA95EC 		.ascii	"W\272\225\354j\367\2135{\206\267\350u\376y\25008<\013"
 239      6AF78B35 
 239      7B86B7E8 
 239      75FE79A8 
 239      30383C0B 
 240 027a 3D19C214 		.ascii	"=\031\302\024\264Wp\350\303\206\205\011\210\314&\301"
 240      B45770E8 
 240      C3868509 
 240      88CC26C1 
 241 028a DF3D79AC 		.ascii	"\337=y\254\263M\242\305Z\256\240CUY\377)\225\024%\213"
 241      B34DA2C5 
 241      5AAEA043 
 241      5559FF29 
 241      9514258B 
 242 029e 84F78647 		.ascii	"\204\367\206G>J7\240\026u\230\206\036\320O\241I\271"
 242      3E4A37A0 
 242      16759886 
 242      1ED04FA1 
ARM GAS  /tmp/cc6udcVC.s 			page 19


 242      49B9
 243 02b0 517F8BAA 		.ascii	"Q\177\213\2525\023\352\272\273\270\351\200\0010 \210"
 243      3513EABA 
 243      BBB8E980 
 243      01302088 
 244 02c0 221759E8 		.ascii	"\"\027Y\350\264m\327\203`YtH\024o\020\264 \312O\030"
 244      B46DD783 
 244      60597448 
 244      146F10B4 
 244      20CA4F18 
 245 02d4 C0106894 		.ascii	"\300\020h\224\276\352\330\363\224{zb%9\261\243\026\017"
 245      BEEAD8F3 
 245      947B7A62 
 245      2539B1A3 
 245      160F
 246 02e6 F0911489 		.ascii	"\360\221\024\211\027Q\324a\2217\036\366(h\310\203\""
 246      1751D461 
 246      91371EF6 
 246      2868C883 
 246      22
 247 02f7 EF9C1CE9 		.ascii	"\357\234\034\351\214\202\025<\221\206\222\222\206\227"
 247      8C82153C 
 247      91869292 
 247      8697
 248 0305 581C9B85 		.ascii	"X\034\233\205E\013P\276\021b!Y\351\276\245tfCI}\324"
 248      450B50BE 
 248      11622159 
 248      E9BEA574 
 248      6643497D 
 249 031a 36D13F21 		.ascii	"6\321?!R\361D\205g\277@@<\325r\025cvu\335\214\250\245"
 249      52F14485 
 249      67BF4040 
 249      3CD57215 
 249      637675DD 
 250 0331 FFE87683 		.ascii	"\377\350v\203;CxrIZp\034J\031\026\330\340\351\004\376"
 250      3B437872 
 250      495A701C 
 250      4A1916D8 
 250      E0E904FE 
 251 0345 CED1F72D 		.ascii	"\316\321\367-\255%\"WS\"\217ay\347\300\011\001\235\233"
 251      AD252257 
 251      53228F61 
 251      79E7C009 
 251      019D9B
 252 0358 524D82DE 		.ascii	"RM\202\336\210u\315\200\223\004\335\3222\234\002\015"
 252      8875CD80 
 252      9304DDD2 
 252      329C020D 
 253 0368 8D0E756C 		.ascii	"\215\016ul\275\007T\365\271\360\001|'tS\201&\370.\346"
 253      BD0754F5 
 253      B9F0017C 
 253      27745381 
 253      26F82EE6 
 254 037c 08E37EF9 		.ascii	"\010\343~\371\345\013Q0\221'\364\210'\367h\036\365\350"
 254      E50B5130 
 254      9127F488 
 254      27F7681E 
ARM GAS  /tmp/cc6udcVC.s 			page 20


 254      F5E8
 255 038e 740A6CB7 		.ascii	"t\012l\267\2058F\0056e\012[do\337^'\226\200,n\000\365"
 255      85384605 
 255      36650A5B 
 255      646FDF5E 
 255      2796802C 
 256 03a5 FC0C6826 		.ascii	"\374\014h&\256\263X\210x\365\036z\274\346\247<^\347"
 256      AEB35888 
 256      78F51E7A 
 256      BCE6A73C 
 256      5EE7
 257 03b7 CCE345AA 		.ascii	"\314\343E\252\376\273\251\374^\360\265\344\343u\337"
 257      FEBBA9FC 
 257      5EF0B5E4 
 257      E375DF
 258 03c6 B1888CAC 		.ascii	"\261\210\214\254\343\245&\034\360\363\342p\\ \252\362"
 258      E3A5261C 
 258      F0F3E270 
 258      5C20AAF2 
 259 03d6 74AAF393 		.ascii	"t\252\363\223\251>BT/ZTw\007\017\374\231\201T\267\353"
 259      A93E4254 
 259      2F5A5477 
 259      070FFC99 
 259      8154B7EB 
 260 03ea 3A1EE9CC 		.ascii	":\036\351\314m\233\234\006\177\024\276\217k\222\202"
 260      6D9B9C06 
 260      7F14BE8F 
 260      6B9282
 261 03f9 C20F2875 		.ascii	"\302\017(u\241\220\236!\233\320\004A`Q\010D\006\216"
 261      A1909E21 
 261      9BD00441 
 261      60510844 
 261      068E
 262 040b 5BC59509 		.ascii	"[\305\225\011\267\371>S\314\371\340\257\333\277\203"
 262      B7F93E53 
 262      CCF9E0AF 
 262      DBBF83
 263 041a 8B41D365 		.ascii	"\213A\323e*hS]\327\002zf\211\012Z\020\3027%\203\010"
 263      2A68535D 
 263      D7027A66 
 263      890A5A10 
 263      C2372583 
 264 042f 56CDE08F 		.ascii	"V\315\340\2171k\260$\016\223\345\3777L.\211a2E\231^"
 264      316BB024 
 264      0E93E5FF 
 264      374C2E89 
 264      61324599 
 265 0444 E897671B 		.ascii	"\350\227g\033&\273\343\303$-\241\204W\250\2043\246\313"
 265      26BBE3C3 
 265      242DA184 
 265      57A88433 
 265      A6CB
 266 0456 536B185C 		.ascii	"Sk\030\\%c\307\214\351R\377\302B\312\315`l\346t\271"
 266      2563C78C 
 266      E952FFC2 
 266      42CACD60 
 266      6CE674B9 
ARM GAS  /tmp/cc6udcVC.s 			page 21


 267 046a 26FA717D 		.ascii	"&\372q}\332t\211\031\327z\235\361\301qY\014\216q18\222"
 267      DA748919 
 267      D77A9DF1 
 267      C171590C 
 267      8E713138 
 268 047f A744746A 		.ascii	"\247DtjJPp\366+\325>\230-\212G\327f\354L@E\363\314\234"
 268      4A5070F6 
 268      2BD53E98 
 268      2D8A47D7 
 268      66EC4C40 
 269 0497 1CCDFC14 		.ascii	"\034\315\374\024\3714o\211\346\363\2725w\276\273\250"
 269      F9346F89 
 269      E6F3BA35 
 269      77BEBBA8 
 270 04a7 706D8E9B 		.ascii	"pm\216\233I\356b\365\2557}y\257z\013\236\236n\347.\362"
 270      49EE62F5 
 270      AD377D79 
 270      AF7A0B9E 
 270      9E6EE72E 
 271 04bc 788A0AB5 		.ascii	"x\212\012\265\342\"o\211O{iU\356\212\334\365\302\311"
 271      E2226F89 
 271      4F7B6955 
 271      EE8ADCF5 
 271      C2C9
 272 04ce 9BB7E6BD 		.ascii	"\233\267\346\275\347<9\371ly\012\353\274\365%d\253\255"
 272      E73C39F9 
 272      6C790AEB 
 272      BCF52564 
 272      ABAD
 273 04e0 C85DBD72 		.ascii	"\310]\275r\265\266\002\215\265\225\205\356\267\337]"
 273      B5B6028D 
 273      B59585EE 
 273      B7DF5D
 274 04ef 9BA7B93D 		.ascii	"\233\247\271=\276\002\337\232un7\272.N\002T\020\267"
 274      BE02DF9A 
 274      756E37BA 
 274      2E4E0254 
 274      10B7
 275 0501 C9F76DF0 		.ascii	"\311\367m\360\341\376\274\334\325\253\\\004\252\330"
 275      E1FEBCDC 
 275      D5AB5C04 
 275      AAD8
 276 050f 5BB0CC95 		.ascii	"[\260\314\225\375\014\223\274L\365\344y\212\274\033"
 276      FD0C93BC 
 276      4CF5E479 
 276      8ABC1B
 277 051e 182F79A7 		.ascii	"\030/y\247\330\365p\177w\376Z\014 \225\024\377\007t"
 277      D8F5707F 
 277      77FE5A0C 
 277      209514FF 
 277      0774
 278 0530 E6F773   		.ascii	"\346\367s"
 279              		.text
 280              		.section	.gnu.lto_chCondBroadcastI.aa01a0fbeaf2693a,"",%progbits
 281 0000 789C7D54 		.ascii	"x\234}TMo\023W\024\275g\336\214g\354\030\227%B\251\032"
 281      4D6F1357 
 281      14BD67DE 
ARM GAS  /tmp/cc6udcVC.s 			page 22


 281      8C67EC18 
 281      972542A9 
 282 0015 A122C426 		.ascii	"\241\"\304&\263\356/@\250\177\200\025\033\247R\220*"
 282      B3EE2F40 
 282      A87F8015 
 282      1BA75290 
 282      2A
 283 0026 0849BA61 		.ascii	"\010I\272a\321\274XNS%|\204JIl\300\030)\244\264\001"
 283      D1BC584E 
 283      53257C84 
 283      4A496CC0 
 283      1829A4B4 
 284 003b 423E28E4 		.ascii	"B>(\344\203P;\001B\322\224\012X \021\250\020\030P\004"
 284      83503B01 
 284      42D2940A 
 284      582011A8 
 284      10185004 
 285 004f 542A548D 		.ascii	"T*T\215Ji\340\3367v\353\244n-{<\357\315}\347\234{\356"
 285      4A69E0DE 
 285      3776EBA4 
 285      6E2D7B3C 
 285      EFCD7DE7 
 286 0066 BDE39045 		.ascii	"\275\343\220E;\035\242\355D\264\215\177\010\021\254"
 286      3B1DA2ED 
 286      44B48D7F 
 286      0811AC
 287 0075 AE1B44AD 		.ascii	"\256\033D\255\236\005;\270Q\301M\336\263-\265\177\226"
 287      9E053BB8 
 287      51C14DDE 
 287      B32DB57F 
 287      96
 288 0086 48479CA4 		.ascii	"HG\234\244K:\352\000\262\257=P\213\245l\007-\226M\301"
 288      4B3AEA00 
 288      B2AF3D50 
 288      8BA56C07 
 288      2D964DC1 
 289 009a E790EA55 		.ascii	"\347\220\352U\230n\1772nm=\245\371\223\353\275\033\371"
 289      986E7F32 
 289      6E6D3DA5 
 289      F993EBBD 
 289      1BF9
 290 00ac 42B76DC8 		.ascii	"B\267m\310*\242\264\012bp\012[9\352fr\350\230:\250\262"
 290      2AA2B40A 
 290      62700A5B 
 290      39EA6672 
 290      E8983AA8 
 291 00c1 0AB079F9 		.ascii	"\012\260y\371\353\217G\036\305di\241\206\227\267\237"
 291      EB8F471E 
 291      C56469A1 
 291      8697B79F 
 292 00d1 F64C79EA 		.ascii	"\366Ly\352\003\020\337O-\014\365\332[\372\265N\350\334"
 292      0310DF4F 
 292      2D0CF5DA 
 292      5BFAB54E 
 292      E8DC
 293 00e3 F36EA53F 		.ascii	"\363n\245?\314*\205\001(\006\304\267\250\3067\250&\336"
 293      CC2A8501 
ARM GAS  /tmp/cc6udcVC.s 			page 23


 293      2806C4B7 
 293      A8C637A8 
 293      26DE
 294 00f5 229CC616 		.ascii	"\"\234\306\026\211\1778\274\322\275.d\367\2258q\006"
 294      897F38BC 
 294      D2BD2E64 
 294      F7953871 
 294      06
 295 0106 21F0FFB9 		.ascii	"!\360\377\271[\310\351\225\267\355:\267\3605\016\177"
 295      5BC8E995 
 295      B7ED3AB7 
 295      F0350E7F 
 296 0116 1C65663E 		.ascii	"\034ef>a\363Y;\304\027\307\223KX.D\035|\220\223\355"
 296      61F3593B 
 296      C417C793 
 296      4B582E44 
 296      1D7C9093 
 297 012b 5016FFA9 		.ascii	"P\026\377\251NFg\007\324c$N\374\331\355\010 \363\334"
 297      4E466707 
 297      D463244E 
 297      FCD9ED08 
 297      20F3DC
 298 013e 3BFAF34A 		.ascii	";\372\363JXm2\032g\332\362\011ws\237\321\370\313@4\255"
 298      586D321A 
 298      67DAF209 
 298      77739FD1 
 298      F8CB4034 
 299 0153 73C91AC6 		.ascii	"s\311\032\306\305\331\3252M\376\203\330\234Q61\330\203"
 299      C5D9D532 
 299      4DFE83D8 
 299      9C513631 
 299      D883
 300 0165 C99717AF 		.ascii	"\311\227\027\257\305\376\226\234\014,{\023q$\306\350"
 300      C5FE969C 
 300      0C2C7B13 
 300      7124C6E8 
 301 0175 4E2B037F 		.ascii	"N+\003\177\345\361\233[Uj\233\271o=}\364X\264H\265\\"
 301      E5F19B5B 
 301      556A9BB9 
 301      6F3D7DF4 
 301      58B448B5 
 302 018a F0D31305 		.ascii	"\360\323\023\005\255\277\322`\331\030\3727\333?~`X0"
 302      ADBFD260 
 302      D918FA37 
 302      DB3F7E60 
 302      5830
 303 019c CF71A509 		.ascii	"\317q\245\011#\354\310\260\310\010\323\022\022\023K"
 303      23ECC8B0 
 303      C808D312 
 303      12134B
 304 01ab 73A34396 		.ascii	"s\243C\226lf\224\307\007z\332\246\177r\245\026\216!"
 304      6C6694C7 
 304      077ADAA6 
 304      7F72A516 
 304      8E21
 305 01bd 5C9E9DFF 		.ascii	"\\\236\235\3772\232E\206)8 \214Q\201\346\375\376Bb\320"
 305      329A4586 
ARM GAS  /tmp/cc6udcVC.s 			page 24


 305      2938208C 
 305      5181E6FD 
 305      FE4262D0 
 306 01d1 F5CF8AE8 		.ascii	"\365\317\212\350\023\277\363C\027\347\221E\212\2353"
 306      13BFF343 
 306      17E79145 
 306      8A9D33
 307 01e0 2C52C52E 		.ascii	",R\305.\235B1b\304\022\274\357\340\2478%\023\200\013"
 307      9D423162 
 307      C412BCEF 
 307      E0A73825 
 307      13800B
 308 01f3 F085BE67 		.ascii	"\360\205\276g\356#\341.'\266\327\022\273\031\256\371"
 308      EE23E12E 
 308      27B6D712 
 308      BB19AEF9 
 309 0203 C50AC41B 		.ascii	"\305\012\304\033\005u\314\360\226`\307\341s\036\202"
 309      0575CCF0 
 309      9660C7E1 
 309      731E82
 310 0212 7C64697E 		.ascii	"|di~\264\200\"\370\3524\274\212i4J\026\023\377\223\305"
 310      B48022F8 
 310      EA34BC8A 
 310      69344A16 
 310      13FF93C5 
 311 0226 A0F17952 		.ascii	"\240\361yR\262\260\212t\227\204.(g\347\345~\230n\223"
 311      B2B08A74 
 311      97842E28 
 311      67E7E57E 
 311      986E93
 312 0239 F2C94E8D 		.ascii	"\362\311N\215Y\211\361\364\014I\263\312(\0213>\376|"
 312      5989F1F4 
 312      0C49B3CA 
 312      2811333E 
 312      FE7C
 313 024b D16DF94B 		.ascii	"\321m\371K{Y\345\245\031\2120\205\026bw\263AI~\273\276"
 313      7B59E5A5 
 313      198A3085 
 313      166277B3 
 313      41497EBB 
 314 0260 AFD86525 		.ascii	"\257\330e%\331\255B\277b\221Q\037\252\244\236\033.\202"
 314      D9AD42BF 
 314      6291511F 
 314      AAA49E1B 
 314      2E82
 315 0272 CB46BC0A 		.ascii	"\313F\274\012*_\256|\200m\255\302\367\242\\\246\025"
 315      2A5FAE7C 
 315      806DADC2 
 315      F7A25CA6 
 315      15
 316 0283 39F81C71 		.ascii	"9\370\034qi\344\3002\304\361(>G\336\364L'?\347\371V"
 316      69E4C032 
 316      C4F1283E 
 316      47DEF44C 
 316      273FE7F9 
 317 0298 ACE275FB 		.ascii	"\254\342u\373\375;\005\004\252\355\362\372\250U\365"
 317      FD3B0504 
ARM GAS  /tmp/cc6udcVC.s 			page 25


 317      AAEDF2FA 
 317      A855F5
 318 02a7 31D25E82 		.ascii	"1\322^\202\245\255\2232MW\224\346b\306Hs\002i\213'\363"
 318      A5AD9332 
 318      4D5794E6 
 318      62C64873 
 318      02698B27 
 319 02bc 27ABD800 		.ascii	"'\253\330\0009\372\004R\361+\334\015\204\253lC\311\270"
 319      39FA0452 
 319      F12BDC0D 
 319      84AB6C43 
 319      C9B8
 320 02ce FF9CAB58 		.ascii	"\377\234\253X\305\271\272\026\314\2254\364\0377\306"
 320      C5B9BA16 
 320      CC9534F4 
 320      1F37C6
 321 02dd 66F3CEDA 		.ascii	"f\363\316\332\301z\035\331(A\305\301Re\263A\2305sq]"
 321      C17A1DD9 
 321      2841C5C1 
 321      5265B341 
 321      98357371 
 322 02f2 320D9767 		.ascii	"2\015\227g\032[\333\211\357I\212s\305\024\217\247\306"
 322      1A5BDB89 
 322      EF498A73 
 322      C5148FA7 
 322      C6
 323 0303 5EC538C5 		.ascii	"^\3058\305.\255\037L>|?\265#\253\326c\276\324\215\202"
 323      2EAD1F4C 
 323      3E7C3FB5 
 323      23ABD663 
 323      BED48D82 
 324 0317 891F382D 		.ascii	"\211\0378-\323\033SWC\246\033D\001\025\220\\\234Y(Y"
 324      D31B5357 
 324      43A61B44 
 324      0115905C 
 324      9C592859 
 325 032b 2B7348C6 		.ascii	"+sH\306zG^7/\3705\323\327c\036\232\355\016\006K\272"
 325      7A475E37 
 325      2FF835D3 
 325      D7631E9A 
 325      ED0E064B 
 326 0340 DC24D5B5 		.ascii	"\334$\325\265\265~\360\335\323\34476\373M\215q?^\037"
 326      B57EF0DD 
 326      D3E43736 
 326      FB4D8D71 
 326      3F5E1F
 327 0353 DFB3BBAE 		.ascii	"\337\263\273\2566NV\274A5\357m\250Y\023\263kw\374\323"
 327      364E56BC 
 327      4135EF6D 
 327      A85913B3 
 327      6B77FCD3 
 328 0367 CFEA3EE1 		.ascii	"\317\352>\341\270\246x}]m=Y\315\015\357\000\352\240"
 328      B8A6787D 
 328      5D6D3D59 
 328      CD0DEF00 
 328      EAA0
 329 0379 CDFD     		.ascii	"\315\375"
ARM GAS  /tmp/cc6udcVC.s 			page 26


 330              		.text
 331              		.section	.gnu.lto_chCondWaitS.aa01a0fbeaf2693a,"",%progbits
 332 0000 789C9556 		.ascii	"x\234\225V\355STe\024\177\316}\356\336\273o,\205\346"
 332      ED535465 
 332      147FCE7D 
 332      EEDEBB6F 
 332      2C85E6
 333 0013 380C26D3 		.ascii	"8\014&\323D\014_\330\257}j\352[\177A\177@KI3\201\010"
 333      440C5FD8 
 333      AF7D6AEA 
 333      5B7F417F 
 333      404B4933 
 334 0029 D4F8292E 		.ascii	"\324\370).\010\201\300\2305\303\313\252\270\333\240"
 334      0881C098 
 334      35C3CBAA 
 334      B8DBA0
 335 0038 A1088862 		.ascii	"\241\010\210b\305\242\"\312\233\320\002\211\031)j\204"
 335      C5A222CA 
 335      9BD00289 
 335      19296A84 
 336 0048 8B2B1165 		.ascii	"\213+\021eS\212\231\255\235\363<\027\273\300\362\322"
 336      538A99AD 
 336      9DF33C17 
 336      BBC0F2D2 
 337 0058 9DDDBBF7 		.ascii	"\235\335\273\367y9\347\367;\277\347\234s\327\306\024"
 337      7939E7F7 
 337      3BBFE79C 
 337      73D7C614 
 338 0068 36E760AC 		.ascii	"6\347`\254\2201\366\026~Ag\240\354\037e\254\330\256"
 338      9031F616 
 338      7E4167A0 
 338      EC1F65AC 
 338      D8AE
 339 007a 00970F5C 		.ascii	"\000\227\017\\QG\207\0313\234\266K\234\031nU\321\254"
 339      51478719 
 339      339CB64B 
 339      9C196E55 
 339      D1AC
 340 008c 434D6E7B 		.ascii	"CMn{\303\006@\277\206\035X\221\302U\315\006\370\303"
 340      C30640BF 
 340      861D5891 
 340      C255CD06 
 340      F8C3
 341 009e E4F509AF 		.ascii	"\344\365\011\257\343p\245\264\375\020\337\307\003\234"
 341      E370A5B4 
 341      FD10DFC7 
 341      039C
 342 00ac 818AC3DF 		.ascii	"\201\212\303\337G\016\334\361\320\020 \025\207\221\320"
 342      470EDCF1 
 342      D0102015 
 342      8791D0
 343 00bb C7F36A46 		.ascii	"\307\363jF\223\201WO]\227\247nO\331\233\001\2560?\356"
 343      9381574F 
 343      5D97A76E 
 343      4FD99B01 
 343      AE303FEE 
 344 00cf 3E0629D0 		.ascii	">\006)\320\004)\304\3568d\340\336\253\321\332\363v\276"
ARM GAS  /tmp/cc6udcVC.s 			page 27


 344      0429C4EE 
 344      3864E0DE 
 344      ABD1DAF3 
 344      76BE
 345 00e1 1D183E9F 		.ascii	"\035\030>\237\017\267\327\251\351G\015\243\304\350\011"
 345      0FB7D7A9 
 345      E9470DA3 
 345      C4E809
 346 00f0 D770E3E5 		.ascii	"\327p\343\345\000\347\320\014\334j\210S\014N@:\355\017"
 346      00E7D00C 
 346      DC6A8853 
 346      0C4E403A 
 346      ED0F
 347 0102 B7872654 		.ascii	"\267\207&T\376\222\260\255y<\361\271+\255Q`\016t%}\272"
 347      FE92B0AD 
 347      793CF1B9 
 347      2BAD5160 
 347      0E74257D 
 348 0117 C7B86CA8 		.ascii	"\307\270l\250\210\012-K\355\351\302\355\367:\007*\354"
 348      880A2D4B 
 348      EDE9C2ED 
 348      F73A072A 
 348      EC
 349 0128 FC1561DA 		.ascii	"\374\025a\332]\021\254\263\221)\302\306B[\027MUh\213"
 349      5D11ACB3 
 349      9129C2C6 
 349      425B174D 
 349      55688B
 350 013b 6B1A8E9D 		.ascii	"k\032\216\235\031s\362\014a\3322\337\377D3M\037\206"
 350      1973F20C 
 350      61DA32DF 
 350      FF44334D 
 350      1F86
 351 014d 92174D6D 		.ascii	"\222\027Mm\320\036\327t\372T\254&AS\341\024\244\301"
 351      D01ED774 
 351      FA54AC26 
 351      4153E114 
 351      A4C1
 352 015f 49FCB642 		.ascii	"I\374\266BZ#\352\352'm\3414h\300\030\027\213\270@1\375"
 352      5A23EAEA 
 352      276DE134 
 352      68C01817 
 352      8BB84031 
 353 0174 365003A6 		.ascii	"6P\003\246\367\271\262t\377i\303\330\373:yo^\351\035"
 353      F7B9B274 
 353      FF69C3D8 
 353      FB3A796F 
 353      5EE91D
 354 0187 3A20EDE4 		.ascii	": \355\3448\364\030\261\247\345\250zr\250kv8}\263\302"
 354      38F418B1 
 354      A7E5A87A 
 354      72A86B76 
 354      387DB3C2 
 355 019b C81D17AB 		.ascii	"\310\035\027\253x\250\250\233\216\012j\016F\010.1\355"
 355      78A8A89B 
 355      8E0A6A0E 
 355      46082E31 
ARM GAS  /tmp/cc6udcVC.s 			page 28


 355      ED
 356 01ac C6093D81 		.ascii	"\306\011=\201n\036\274\331\022\361\2462V\211\224\356"
 356      6E1EBCD9 
 356      12F1A632 
 356      568994EE 
 357 01bc 6BAC0A8F 		.ascii	"k\254\012\217\355\276\306g\241\244k\366p\223N\034\033"
 357      EDBEC667 
 357      A1A46BF6 
 357      70934E1C 
 357      1B
 358 01cd B882D46A 		.ascii	"\270\202\324j\313.\215\351t\342v\241C(\364\313\244^"
 358      CB2E8DE9 
 358      74E276A1 
 358      4328F4CB 
 358      A45E
 359 01df F48F61C7 		.ascii	"\364\217a\307\211F\016\"\330\237\303\327\372\234\001"
 359      89460E22 
 359      D89FC3D7 
 359      FA9C01
 360 01ee 68800077 		.ascii	"h\200\000w\300\227P\004g\210*.\354\353l\337k\367\266"
 360      C0975004 
 360      67882A2E 
 360      ECEB6CDF 
 360      6BF7B6
 361 0201 D25105DB 		.ascii	"\322Q\005\333p\325\011_A\000\352\271)R\177\365\225#"
 361      70D5095F 
 361      4100EAB9 
 361      29527FF5 
 361      9523
 362 0213 E6722A05 		.ascii	"\346r*\005\3735x\353\311%\203N\360\262\031(\011~(\264"
 362      FB3578EB 
 362      C925834E 
 362      F0B21928 
 362      097E28B4 
 363 0227 C2C0900B 		.ascii	"\302\300\220\013#n\177\035\356\215|\246?\023\270Tf^"
 363      236E7F1D 
 363      EE8D7CA6 
 363      3F13B854 
 363      665E
 364 0239 B72745A8 		.ascii	"\267'E\250\352\347`\021\237A\0104t\326E\241$ZC\261\211"
 364      EAE76011 
 364      9F410834 
 364      74D645A1 
 364      245A43B1 
 365 024e 6D0B83C3 		.ascii	"m\013\203\303\025nI\333\205\376\341\254\311\372h\244"
 365      156E49DB 
 365      85FEE1AC 
 365      C9FA68A4 
 366 025e A44D97B4 		.ascii	"\244M\227\264\246\376\256Nj\311\017p7\234\023\304\025"
 366      A6FEAE4E 
 366      6AC90F70 
 366      379C13C4 
 366      15
 367 026f E913CE4B 		.ascii	"\351\023\316K~SU\201r!\025\2351csP\032\274\320\300i"
 367      7E535581 
 367      7221159D 
 367      31637350 
ARM GAS  /tmp/cc6udcVC.s 			page 29


 367      1ABCD0C0 
 368 0284 62995409 		.ascii	"b\231T\011~4e\320\015E\014\251\004\270\207\20290{\266"
 368      7E3465D0 
 368      0D450CA9 
 368      04B88782 
 368      39307BB6 
 369 0298 C9499B2D 		.ascii	"\311I\233-\\\212I\252\344\325\011\241N\211pAp\341R\304"
 369      5C8A49AA 
 369      E4D509A1 
 369      4E897041 
 369      70E152C4 
 370 02ac FA9968BF 		.ascii	"\372\231h\277\333\324\370\335\000\177\016zHE\225T\274"
 370      DBD4F8DD 
 370      007F0E7A 
 370      48459554 
 370      BC
 371 02bd 08DE066E 		.ascii	"\010\336\006n#\250\307\345#\013ny\246\272U\010\276D"
 371      23A8C7E5 
 371      230B6E79 
 371      A6BA5508 
 371      BE44
 372 02cf 0801FE10 		.ascii	"\010\001\376\0200/\236G;\270\024\027>\011z\005\274M"
 372      302F9E47 
 372      3BB81417 
 372      3E097A05 
 372      BC4D
 373 02e1 C24F1EB9 		.ascii	"\302O\036\271x\304\205A\222\251\007\023\016\372P\032"
 373      78C48541 
 373      92A90713 
 373      0EFA501A 
 374 02f1 06FD1829 		.ascii	"\006\375\030)\012\224j\206\3277\363d\334\305s\005Z\361"
 374      0A946A86 
 374      D737F364 
 374      DCC57305 
 374      5AF1
 375 0303 898387DC 		.ascii	"\211\203\207\334f\256\377\032\362\370\215\236Rq\372"
 375      66AEFF1A 
 375      F2F88D9E 
 375      5271FA
 376 0312 0371527D 		.ascii	"\003qR}P\236<\245\302\037RXtp\363\340\355\230\203\357"
 376      509E3CA5 
 376      C21F5258 
 376      7470F3E0 
 376      ED9883EF 
 377 0326 12CE7ACB 		.ascii	"\022\316z\313.\226\350+\234ip9\216\263!r\246\343S\025"
 377      2E96E82B 
 377      9C697039 
 377      8EB32172 
 377      A6E35315 
 378 033a 6A875D8F 		.ascii	"j\207]\217\317\200\"\012\243\001\307\"\271n=\012\027"
 378      CF80220A 
 378      A301C722 
 378      B96E3D0A 
 378      17
 379 034b F3E5C9F5 		.ascii	"\363\345\311\365\310\303\311\224\270\230I\306\255\025"
 379      C8C3C994 
 379      B89849C6 
ARM GAS  /tmp/cc6udcVC.s 			page 30


 379      AD15
 380 0359 DE41D3C3 		.ascii	"\336A\323\303\"\321\276!}]+2\213\307\315\254\205\351"
 380      22D1BE21 
 380      7D5D2B32 
 380      8BC7CDAC 
 380      85E9
 381 036b 4DFE5749 		.ascii	"M\376WI\316\260\220S\223N\250O\3567\352\301R46\030\241"
 381      CEB09053 
 381      934EA84F 
 381      EE37EAC1 
 381      52343618 
 382 0380 13D5E506 		.ascii	"\023\325\345\006\0305K\343m\202\223\354],\002\245\223"
 382      18354BE3 
 382      6D8293EC 
 382      5D2C02A5 
 382      93
 383 0391 BD31BF4F 		.ascii	"\2751\277OR\320i\012\257\007\300q\240\034\210Vo\303"
 383      52D0690A 
 383      AF07C071 
 383      A01C8856 
 383      6FC3
 384 03a3 19ED46B4 		.ascii	"\031\355F\264z+\306\2562|\021\310B\017t\334S\244\211"
 384      7A2BC6AE 
 384      327C11C8 
 384      420F74DC 
 384      53A489
 385 03b6 7B056BD7 		.ascii	"{\005k\327*\351\267\011\306\004a\273\311\347[\344C\316"
 385      2AE9B709 
 385      C60461BB 
 385      C9E75BE4 
 385      43CE
 386 03c8 8672A5A7 		.ascii	"\206r\245\247\204\215U\226\360te\211\247q\364\204\201"
 386      848D5596 
 386      F0746589 
 386      A771F484 
 386      81
 387 03d9 5CEF8DA8 		.ascii	"\\\357\215\250&)\364&\216\256\022\345\011\0162\250\302"
 387      2629F426 
 387      8EAE12E5 
 387      090E32A8 
 387      C2
 388 03ea AC934DAA 		.ascii	"\254\223M\252v\366X\307#\240m\033\203\013n!\251\257"
 388      76F658C7 
 388      23A06D1B 
 388      830B6E21 
 388      A9AF
 389 03fc AE21753E 		.ascii	"\256!u>)\375\235U\351kT>.\021\334\354\361\216\210\251"
 389      29FD9D55 
 389      E96B543E 
 389      2E11DCEC 
 389      F18E88A9 
 390 0410 9467634A 		.ascii	"\224gcJ\005\233\025B\374~\015\304\273\012AN\020\244"
 390      059B1542 
 390      FC7E0DC4 
 390      BB0A414E 
 390      10A4
 391 0422 C384FC41 		.ascii	"\303\204\374A\212Y;\364\332\377\015\355\372z\241\335"
ARM GAS  /tmp/cc6udcVC.s 			page 31


 391      8A593BF4 
 391      DAFF0DED 
 391      FA7AA1DD 
 392 0432 B0E24C52 		.ascii	"\260\342LRhf\023j^MHO\\\264/\200\340n\256\0017-\222"
 392      6866136A 
 392      5E4D484F 
 392      5CB42F80 
 392      E06EAE01 
 393 0449 F69655CA 		.ascii	"\366\226U\312\333\204\247H\274\023\253\341\305\327Q"
 393      DB84A748 
 393      BC13ABE1 
 393      C5D751
 394 0458 44F7E37A 		.ascii	"D\367\343z\321MY\243\373I\242\211\006}n\207\350\317"
 394      D14D59A3 
 394      FB49A289 
 394      067D6E87 
 394      E8CF
 395 046a 54BCCF1A 		.ascii	"T\274\317\032\022\225\263e\324\261\330\273\037l\213"
 395      1295B365 
 395      D4B1D8BB 
 395      1F6C8B
 396 0479 D3BA37FB 		.ascii	"\323\2727\373\251\231\302464\\\370\263\262lA\374\035"
 396      A999C234 
 396      36345CF8 
 396      B3B26C41 
 396      FC1D
 397 048b 7A0174B8 		.ascii	"z\001t\270\003)\001\276E&Hw\024d\177u,o\250\371l\235"
 397      032901BE 
 397      45264877 
 397      14647F75 
 397      2C6FA8F9 
 398 04a1 761EB1B6 		.ascii	"v\036\261\266skd\037\321\277\232\031\212\314I\375\353"
 398      736B641F 
 398      D1BF9A19 
 398      8ACC49FD 
 398      EB
 399 04b2 AE59F92F 		.ascii	"\256Y\371/\012\326\255T\371\016\301\373\351j\357\034"
 399      0AD6AD54 
 399      F90EC1FB 
 399      E96AEF1C 
 400 04c2 ECD110FD 		.ascii	"\354\321\020\375\357\2353\217\306M\207\223M\236\262"
 400      EF9D338F 
 400      C64D8793 
 400      4D9EB2
 401 04d1 B0000B0A 		.ascii	"\260\000\013\012_M)\231\231^\371\331Y\340\315/\364\026"
 401      5F4D2999 
 401      995EF9D9 
 401      59E0CD2F 
 401      F416
 402 04e3 E4FBBCBE 		.ascii	"\344\373\274\276l\337\316\334\254L\037S|y<\247`\207"
 402      6CDFCEDC 
 402      AC4C1F53 
 402      7C793CA7 
 402      6087
 403 04f5 9293C77D 		.ascii	"\222\223\307}\205y\251\313\266\276\227\353{\377\203"
 403      8579A9CB 
 403      B6BE97EB 
ARM GAS  /tmp/cc6udcVC.s 			page 32


 403      7BFF83
 404 0504 AC77707B 		.ascii	"\254wp{\201/;+3\233m_uCN\341n\\W\012\363x\341\256\274"
 404      812F3B2B 
 404      339B6D5F 
 404      75434EE1 
 404      6E5C570A 
 405 051d 7F0195A2 		.ascii	"\177\001\225\242R\023"
 405      5213
 406              		.text
 407              		.section	.gnu.lto_chCondWait.aa01a0fbeaf2693a,"",%progbits
 408 0000 789C8592 		.ascii	"x\234\205\222[HTQ\024\206\327:\373835\025\341\233$8"
 408      5B485451 
 408      1486D73A 
 408      FB383335 
 408      15E19B24 
 409 0015 466682CD 		.ascii	"Ff\202\315\211^\002{\012_\362A\010}\015\244\216\203"
 409      895E027B 
 409      0A5FF241 
 409      087D0DA4 
 409      8E83
 410 0027 0A8D2373 		.ascii	"\012\215#s,\364\311\235Z\202\322\035o\221\034*D\263"
 410      2CF4C99D 
 410      5A82D21D 
 410      6F911C2A 
 410      44B3
 411 0039 BC66D968 		.ascii	"\274f\331h\243\223\027\220\262\"\273\030(e\352\024\225"
 411      A3931790 
 411      B222BB18 
 411      2865EA14 
 411      95
 412 004a 9265D00D 		.ascii	"\222e\320\015\255\265\267\027\274D\035f8g\357\365\377"
 412      ADB5B717 
 412      BC441D66 
 412      3867EFF5 
 412      FF
 413 005b 7BADF5AD 		.ascii	"{\255\365\255\035\002\012\3643\200A\000\330B\177d\200"
 413      1D020AF4 
 413      33804100 
 413      D8427F64 
 413      80
 414 006c CAD94700 		.ascii	"\312\331G\000\307m\012\242\370\3406\204<\005\363\360"
 414      C76D0AA2 
 414      F8E03684 
 414      3C05F3F0 
 415 007c 0C2B67F8 		.ascii	"\014+g\370\244\260\351\022;\315L\222\251\264\374\374"
 415      A4B0E912 
 415      3BCD4C92 
 415      A9B4FCFC 
 416 008c F0E2F826 		.ascii	"\360\342\370&\261Dt\320r\302wrJ\215\251\341\364\004"
 416      B14474D0 
 416      72C27772 
 416      4A8DA9E1 
 416      F404
 417 009e CA5FD8CB 		.ascii	"\312_\330\313\013N\3547\231\002\225\244\256\305p\254"
 417      0B4EEC37 
 417      990295A4 
 417      AEC570AC 
ARM GAS  /tmp/cc6udcVC.s 			page 33


 418 00ae C17091E2 		.ascii	"\301p\221\342\032\306\220\366\351\2732\277\215E \320"
 418      1AC690F6 
 418      E9BB32BF 
 418      8D4520D0 
 419 00be B77FA0A9 		.ascii	"\267\177\240\251\\\215\256\346<\237\007zK\031\337f2"
 419      5C8DAEE6 
 419      3C9F077A 
 419      4B19DF66 
 419      32
 420 00cf 8675C896 		.ascii	"\206u\310\226\033i\013\360:F\013\375@\223oHe[\245\267"
 420      1B690BF0 
 420      3A460BFD 
 420      40936F48 
 420      655BA5B7 
 421 00e3 F4E7D065 		.ascii	"\364\347\320e{\324U\231\363mC\350\271\002\336\317U\312"
 421      7BD45599 
 421      F36D43E8 
 421      B902DECF 
 421      55CA
 422 00f5 8A3756FA 		.ascii	"\2127V\372\305C\362\261\346\271\322\215\026\025\353"
 422      C543F2B1 
 422      E6B9D28D 
 422      1615EB
 423 0104 314AD445 		.ascii	"1J\324E\3454\240\005\351%v\032\0071\300\347~\027\361"
 423      E534A005 
 423      E925761A 
 423      0731C0E7 
 423      7E17F1
 424 0117 C02BE748 		.ascii	"\300+\347H\353l\250\225\030PJ\025\244\034\212I/\220"
 424      EB6CA895 
 424      18504A15 
 424      A41C8A49 
 424      2F90
 425 0129 94504FF4 		.ascii	"\224PO\364fAT\304\221\325\367\007\273\354l\273\254\346"
 425      664154C4 
 425      91D5F707 
 425      BBEC6CBB 
 425      ACE6
 426 013b 6B4573ED 		.ascii	"kEs\355:Q\015u\362\255\317Y\371r\202\363\363\034M\246"
 426      3A510D75 
 426      F2ADCF59 
 426      F97282F3 
 426      F31C4DA6 
 427 014f 62E3DA7A 		.ascii	"b\343\332z\260\011\243\310T\364\236\373UAQE\0076S\354"
 427      B009A3C8 
 427      54F49EFB 
 427      55415145 
 427      073653EC 
 428 0163 03E68FCD 		.ascii	"\003\346\217\315\234j\177\215K\005\027\312\376.\214"
 428      9C6A7F8D 
 428      4B0517CA 
 428      FE2E8C
 429 0172 D865BD95 		.ascii	"\330e\275\225\014aU\350W]\354A\300\026\021SV\307f\372"
 429      0C6155E8 
 429      575DEC41 
 429      C0161153 
 429      56C766FA 
ARM GAS  /tmp/cc6udcVC.s 			page 34


 430 0186 76878954 		.ascii	"v\207\211T\2007E\234-\343\000\330\212\026*\344\226\200"
 430      8037459C 
 430      2DE300D8 
 430      8A162AE4 
 430      9680
 431 0198 80D02632 		.ascii	"\200\320&2^1[\276\257\217\354G\223W8L\026\"\324\365"
 431      5E315BBE 
 431      AF8FEC47 
 431      9357384C 
 431      1622D4F5 
 432 01ac E31DDCA6 		.ascii	"\343\035\334\246*$\274\215\221\222\343\364\344\263a"
 432      2A24BC8D 
 432      9192E3F4 
 432      E4B361
 433 01bb 8576B00D 		.ascii	"\205v\260\015UY3\340\035y%j;{\202\033\"\037,\270-B\373"
 433      555933E0 
 433      1D79256A 
 433      3B7B821B 
 433      221F2CB8 
 434 01d2 A5A1E5B9 		.ascii	"\245\241\345\271]\272}\302\215\355\250B\020\363\035"
 434      5DBA7DC2 
 434      8DEDA842 
 434      10F31D
 435 01e1 B27F808F 		.ascii	"\262\177\200\217X8Z\362)\210\242\263*&\316\360\371&"
 435      58385AF2 
 435      2988A2B3 
 435      2A26CEF0 
 435      F926
 436 01f3 87AD79B3 		.ascii	"\207\255y\263\334f2k%S\311\322\201yP\305\024\223\331"
 436      DC66326B 
 436      2553C9D2 
 436      817950C5 
 436      1493D9
 437 0206 A4530E8D 		.ascii	"\244S\016\215fBrX\230\302J\362q\377#\177W\222/;\321"
 437      66427258 
 437      98C24AF2 
 437      71FF237F 
 437      57922F3B 
 438 021b FDD83A4F 		.ascii	"\375\330:O\036\320\377/\362\323\213\344CV\320\353\024"
 438      1ED0FF2F 
 438      F2D38BE4 
 438      4356D0EB 
 438      14
 439 022c F4D68C62 		.ascii	"\364\326\214bG\012`\227\020[\326\214\242zo\230\310\015"
 439      470A6097 
 439      105BD68C 
 439      A27A6F98 
 439      C80D
 440 023e 18583B8A 		.ascii	"\030X;\212{r\024\335\313F1g\276\351\264/R\366K\312="
 440      7B7214DD 
 440      CB463167 
 440      BEE9B42F 
 440      52F64BCA 
 441 0253 92F26AA4 		.ascii	"\222\362j\244\275KH\305\3410\205\371\243%?\372,\013"
 441      BD4B48C5 
 441      E13085F9 
 441      A3253FFA 
ARM GAS  /tmp/cc6udcVC.s 			page 35


 441      2C0B
 442 0265 4845C7C5 		.ascii	"HE\307\305tg\350\322\222%\334\351\324\346\177\036C\363"
 442      7467E8D2 
 442      9225DCE9 
 442      D4E67F1E 
 442      43F3
 443 0277 666B8657 		.ascii	"fk\206W\327\364t\335\223\231\352\324A\321\263\230\333"
 443      D7F474DD 
 443      9399EAD4 
 443      41D1B398 
 443      DB
 444 0288 48B31E3E 		.ascii	"H\263\036>d\270\016x3v.\327\352\036\267\333\223\251"
 444      64B80E78 
 444      33762ED7 
 444      EA1EB7DB 
 444      93A9
 445 029a 6579BCD9 		.ascii	"ey\274\331\206\266/)1>1G\032\275\256\224c{\334\316t"
 445      86B62F29 
 445      313E3147 
 445      1ABDAE94 
 445      637BDCCE 
 446 02af 88FB8BDA 		.ascii	"\210\373\213\332\225\223-\264Z|brB\262\026Ob-!S?r4\325"
 446      95932DB4 
 446      5A7C6272 
 446      42B2164F 
 446      622D2153 
 447 02c7 A5E96E23 		.ascii	"\245\351n#\303HI\323u\262F\254**cQ\223n\344\032\024"
 447      C34849D3 
 447      75B246AC 
 447      2A2A6351 
 447      936EE41A 
 448 02dc DF9C989C 		.ascii	"\337\234\230\234\344\020Eey3b\035Q\273@\361\202\325"
 448      E4104565 
 448      7933621D 
 448      51BB40F1 
 448      82D5
 449 02ee ED727BBC 		.ascii	"\355r{\274\271\360\007^.tI"
 449      B9F0075E 
 449      2E7449
 450              		.text
 451              		.section	.gnu.lto_chCondWaitTimeoutS.aa01a0fbeaf2693a,"",%progbits
 452 0000 789C9556 		.ascii	"x\234\225V\353OTG\024\237s\347\276\226eW\004\253\246"
 452      EB4F5447 
 452      149F73E7 
 452      BE966557 
 452      04ABA6
 453 0013 C14A5A09 		.ascii	"\301JZ\011\261M\330~\350\007?5\351\267\376\031\255\213"
 453      B14DD87E 
 453      E8073F35 
 453      E9B7FE19 
 453      AD8B
 454 0025 2926E551 		.ascii	")&\345QX\223~\343\362\364\201\265\326T`\325\365n\003"
 454      58937EE3 
 454      F2F481B5 
 454      D65460D5 
 454      F56E03
 455 0038 76057C60 		.ascii	"v\005|`iU\260Z\024\344\325\005\353\253>PKe\021\327w"
ARM GAS  /tmp/cc6udcVC.s 			page 36


 455      6955B05A 
 455      14E4D505 
 455      EBAB3E50 
 455      4B6511D7 
 456 004d 9B365AD3 		.ascii	"\2336Z\323b\317\231\271\325\005v\325\336\300\315\314"
 456      62CF99B9 
 456      D50576D5 
 456      DEC0CDCC 
 457 005d DC73CEEF 		.ascii	"\334s\316\357\374~3\347\314jLa\037\2441\266\2031V\202"
 457      FC7E33E7 
 457      CC6A4C61 
 457      1FA431B6 
 457      83315682 
 458 0071 FFE062A0 		.ascii	"\377\340b\240l\036e\254\322T\200\313\001W\324\321a\306"
 458      6C1E65AC 
 458      D25480CB 
 458      0157D4D1 
 458      61C6
 459 0083 AC34ED04 		.ascii	"\2544\355\004gV\272\252\230\211SS\232\275\247)\372\340"
 459      6756BAAA 
 459      98895353 
 459      9ABDA729 
 459      FAE0
 460 0095 DBB86A0C 		.ascii	"\333\270j\014.\301U\035\014\351l\000\320\3002\201U("
 460      2EC1551D 
 460      0CE96C00 
 460      D0C03281 
 460      5528
 461 00a7 5C3535DD 		.ascii	"\\55\335\000\0340\371|\316\0339\234\256\351\330\301"
 461      001C30F9 
 461      7CCE1B39 
 461      9CAEE9D8 
 461      C1
 462 00b8 37719B33 		.ascii	"7q\2333Pq\372\333\310\266\011/M\001rp\032\353\252\273"
 462      5071FADB 
 462      C8B6092F 
 462      4D017270 
 462      1AEBAABB 
 463 00cc AB2E8F58 		.ascii	"\253.\217X\370\3644\356\314j\254\256}\337\346\012\013"
 463      F8F434EE 
 463      CC6AACAE 
 463      7DDFE60A 
 463      0B
 464 00dd A2F56EC8 		.ascii	"\242\365n\310\206\010dS\332\255\260\034m\317N5\0345"
 464      86086453 
 464      DAADB01C 
 464      6DCF4E35 
 464      1C35
 465 00ef F9526038 		.ascii	"\371R`8>\032\355hT\363vYV\225\325\323\327\300\255e6"
 465      3E1AED68 
 465      54F37659 
 465      5695D5D3 
 465      D7C0AD65 
 466 0104 E7D0063C 		.ascii	"\347\320\006<\321\021\227\030\264C\036\232_\331\364"
 466      D1119718 
 466      B4431E9A 
 466      5FD9F4
ARM GAS  /tmp/cc6udcVC.s 			page 37


 467 0113 E5A497BF 		.ascii	"\345\244\227\277.\\\177?v\257\316t\\\317-\016Z=\252"
 467      2E5C7F3F 
 467      76AFCE74 
 467      5CCF2D0E 
 467      5A3DAA
 468 0126 CD55D833 		.ascii	"\315U\3303\333We\260\027\362\310!\332\321uA\345o\012"
 468      DB5765B0 
 468      17F2C821 
 468      DAD17541 
 468      E56F0A
 469 0139 E7AD8F2F 		.ascii	"\347\255\217/|\345\316m\026\371\216\216d~Qm\015Z\350"
 469      7CE5CE6D 
 469      16F98E8E 
 469      647E516D 
 469      0D5AE8
 470 014c AFC0BE99 		.ascii	"\257\300\276\231\376\364\240\371\315\303\375\353L\236"
 470      FEF4A0F9 
 470      CDC3FDEB 
 470      4C9E
 471 015a 2F5C8FAD 		.ascii	"/\\\217\255\0137j\344\212\270\375#\213\377s\325\240"
 471      0B376AE4 
 471      8AB8FD23 
 471      8BFF73D5 
 471      A0
 472 016b 23A9EBF5 		.ascii	"#\251\353\365\003\323[=\272\012\007 \027\366Cn3\212"
 472      03D35B3D 
 472      BA0A0720 
 472      17F6436E 
 472      338A
 473 017d 1A2461E1 		.ascii	"\032$a\341\033\320\2011\205\026)\241\373\375[\301\211"
 473      1BD08131 
 473      851629A1 
 473      FBFD5BC1 
 473      89
 474 018e 7AAA2E2F 		.ascii	"z\252./\330\035\263\254-\026\330\\\237-\007=\320\011"
 474      D81DB3AC 
 474      2D16D85C 
 474      9F2D073D 
 474      D009
 475 01a0 B9FBCF40 		.ascii	"\271\373\317@\2175\375d-\012\376Z\364`\335\210\255-"
 475      8F35FD64 
 475      2D0AFE5A 
 475      F460DD88 
 475      AD2D
 476 01b2 E2E28386 		.ascii	"\342\342\203\206\254u\035H2\023\207\206\013H\0017#$"
 476      AC751D48 
 476      32138786 
 476      0B480137 
 476      2324
 477 01c4 8FB0F0E2 		.ascii	"\217\260\360\342\2629\217^\031d;\237^\231\370\322\030"
 477      B2398F5E 
 477      19643B9F 
 477      5E99F8D2 
 477      18
 478 01d5 DB80B93D 		.ascii	"\333\200\271=\320Y=n\336\003\235\307\241\252\373\257"
 478      D0593D6E 
 478      DE039DC7 
ARM GAS  /tmp/cc6udcVC.s 			page 38


 478      A1AAFBAF 
 479 01e5 B6EAF32D 		.ascii	"\266\352\363-\332S&5r\217;\262\262\005\205 \207\004"
 479      DA532635 
 479      728F3BB2 
 479      B2058520 
 479      8704
 480 01f7 960CBE05 		.ascii	"\226\014\276\005=\201\2664~\270s\331\236w\030|G\326"
 480      3D81B634 
 480      7EB873D9 
 480      9E77187C 
 480      47D6
 481 0209 CA0CEB83 		.ascii	"\312\014\353\203d\015\207@\017\361\371\270\336P{\342"
 481      640D8740 
 481      0FF1F9B8 
 481      DE507BE2 
 482 0219 944187CA 		.ascii	"\224A\207\312%\202vu\335\0313*\376\261L\\hF\034Z\273"
 482      25827675 
 482      DD19332A 
 482      FEB14C5C 
 482      68461C5A 
 483 022e 153DDF97 		.ascii	"\025=\337\227fC\010\225I\203.\250\200\303$\011~\330"
 483      66430895 
 483      49832EA8 
 483      80C32409 
 483      7ED8
 484 0240 74B863BD 		.ascii	"t\270c\275\351\333K\200\343\355\237-\030^as7t\203\015"
 484      E9DB4B80 
 484      E3ED9F2D 
 484      185E6173 
 484      3774830D 
 485 0254 4DC84800 		.ascii	"M\310H\000\241\321\311\215\247[\034\243p\233\020\367"
 485      A1D1C98D 
 485      A75B1CA3 
 485      709B10F7 
 486 0264 08F89A30 		.ascii	"\010\370\2320\2640\200\357\301\307\004\345{\275\261"
 486      B43080EF 
 486      C1C704E5 
 486      7BBDB1
 487 0273 2D06251C 		.ascii	"-\006%\034\342\231\211y\351\"\257\207\003\303\353\322"
 487      E2998979 
 487      E922AF87 
 487      03C3EBD2 
 488 0283 650EE998 		.ascii	"e\016\351\2308\034uR\330\025\253\332g\310\35096\367"
 488      381C7552 
 488      D815ABDA 
 488      67C8E839 
 488      36F7
 489 0295 C03181AE 		.ascii	"\3001\201\256HQ\340\007\014>\011U\343\365\027\327\033"
 489      4851E007 
 489      0C3E0955 
 489      E3F517D7 
 489      1B
 490 02a6 62F3F144 		.ascii	"b\363\361D0v\033j\302\315\021N\013\263({\203\2342\357"
 490      30761B6A 
 490      C2CD114E 
 490      0BB3287B 
 490      839C32EF 
ARM GAS  /tmp/cc6udcVC.s 			page 39


 491 02ba 810A8659 		.ascii	"\201\012\206Y\330|\236H\255\365\216\213lC\\{\031\201"
 491      D87C9E48 
 491      ADF58E8B 
 491      6C435C7B 
 491      1981
 492 02cc 8E271728 		.ascii	"\216'\027(\207\2649\341h\303f\011\223C4{\245,\210\337"
 492      87B439E1 
 492      68C36609 
 492      9343347B 
 492      A52C88DF 
 493 02e0 2735D936 		.ascii	"'5\3316\364\026\341&\260\257$\021W2\241\201\226B\203"
 493      F416E126 
 493      B0AF2411 
 493      5732A181 
 493      964283
 494 02f3 0C382950 		.ascii	"\0148)P\270Di\232\234:\231\356\310_l\243r\375\004\243"
 494      B844699A 
 494      9C3A99EE 
 494      C85F6CA3 
 494      72FD04A3 
 495 0307 12CC00F8 		.ascii	"\022\314\000\370B\\'\244\307k\257\206<\222\243\231\250"
 495      425C27A4 
 495      C76BAF86 
 495      3C92A399 
 495      A8
 496 0318 3D9FA1BD 		.ascii	"=\237\241\275@\237\006\204\317D?\030L\012\237\005C\002"
 496      409F0684 
 496      CF443F18 
 496      4C0A9F05 
 496      4302
 497 032a 5E93F063 		.ascii	"^\223\360c-\307[\334(\027\271z\2610`\030\2711\370\021"
 497      2DC75BDC 
 497      2817B97A 
 497      B1306018 
 497      B931F811 
 498 033e 15C68DC9 		.ascii	"\025\306\215\311q\370\365M\376}\306\315\033@\300U\266"
 498      71F8F54D 
 498      FE7DC6CD 
 498      1B40C055 
 498      B6
 499 034f 6FDF91EE 		.ascii	"o\337\221\356\224\345t\324\213]\246F\350\023MR\223#"
 499      94E574D4 
 499      8B5DA646 
 499      E8134D52 
 499      9323
 500 0361 908B4A50 		.ascii	"\220\213JP\250\360!\271\243\324\261\266_\233v\361\240"
 500      A8F021B9 
 500      A3D4B1B6 
 500      5F9B76F1 
 500      A0
 501 0372 8CD65B7B 		.ascii	"\214\326[{\274\312\230\023\315\200\321$\321NQ4\023G"
 501      BCCA9813 
 501      CD80D124 
 501      D14E5134 
 501      1347
 502 0384 F5A81E36 		.ascii	"\365\250\0366g>\011\212(\336\020\316\305!\215?\212V"
 502      673E098A 
ARM GAS  /tmp/cc6udcVC.s 			page 40


 502      28DE10CE 
 502      C5218D3F 
 502      8A56
 503 0396 F2D97579 		.ascii	"\362\331uy9\213\223+%\343\324\247\232\330\205:i\371"
 503      398B932B 
 503      25E3D4A7 
 503      9AD8853A 
 503      69F9
 504 03a8 275175A7 		.ascii	"'Qu\247Ia\317\234\343\314\223m\345xd\"+\270\202\004"
 504      4961CF9C 
 504      E3CC936D 
 504      E5786422 
 504      2BB88204 
 505 03bc 3D2304D5 		.ascii	"=#\004\325e\020j\346\233\255&p\266t\237\250\250\263"
 505      65106AE6 
 505      9BAD2670 
 505      B6749FA8 
 505      A8B3
 506 03ce B4A78634 		.ascii	"\264\247\2064\200s\362\320\207W\022\234\314\336\303"
 506      8073F2D0 
 506      8757129C 
 506      CCDEC3
 507 03dd 625033D6 		.ascii	"bP3\326;\035\364\313\024LZ\302\347O\3408Q\266Mm\\\202"
 507      3B1DF4CB 
 507      144C5AC2 
 507      E74FE038 
 507      51B64D6D 
 508 03f3 2BE6E5A9 		.ascii	"+\346\345\251\215\213\221\273\312\360\032\023}(nw\336"
 508      8D8B91BB 
 508      CAF01A13 
 508      7D286E77 
 508      DE
 509 0404 54A48B77 		.ascii	"T\244\213wN\326\236\024\007p\001\234\027\011\233N>?"
 509      4ED69E14 
 509      0770019C 
 509      17099B4E 
 509      3E3F
 510 0416 3B153E54 		.ascii	";\025>T,#\315\233\023)\325Q^\000\027fD\272\210\221\220"
 510      2C23CD9B 
 510      1329D551 
 510      5E001766 
 510      44BA8891 
 511 042b C8A5DE98 		.ascii	"\310\245\336\230\352$\205\321\304\326m@\233\360\000"
 511      EA2485D1 
 511      C4D66D40 
 511      9BF000
 512 043a 837A3C0C 		.ascii	"\203z<\014\262\2076\304ww>\0022{9\270\360B\222\372\322"
 512      B28736C4 
 512      77773E02 
 512      327B39B8 
 512      F04292FA 
 513 044f 73A42E23 		.ascii	"s\244.#\245/'*=F\005\344\021\344\342\255\2351G\251\214"
 513      A52F272A 
 513      3D4605E4 
 513      11E4E2AD 
 513      9D3147A9 
 514 0464 97532ADC 		.ascii	"\227S*\334\246\020\342\225\347 \336P\010\362*A\272\034"
ARM GAS  /tmp/cc6udcVC.s 			page 41


 514      A610E295 
 514      E720DE50 
 514      08F22A41 
 514      BA1C
 515 0476 C86B52CC 		.ascii	"\310kR\314\206\241w\377/\265_^Dm<\021\347W\242\226!"
 515      86A177FF 
 515      2FB55F5E 
 515      446D3C11 
 515      E757A296 
 516 048b BA50BC2D 		.ascii	"\272P\274-\225\220\031I\321\276\006\202\273\376\034"
 516      95901949 
 516      D1BE0682 
 516      BBFE1C
 517 049a B8EBE2D0 		.ascii	"\270\353\342\320N$J\031#<M\342\265\247\302K\256\243"
 517      4E244A19 
 517      233C4DE2 
 517      B5A7C24B 
 517      AEA3
 518 04ac 6037F922 		.ascii	"`7\371\"v7\022\331MI4q5\334]-n\006*\336\247-\211\312"
 518      763712D9 
 518      4D493471 
 518      35DC5D2D 
 518      6E062ADE 
 519 04c4 3961D629 		.ascii	"9a\326)o\215\332\360\221\210!\273\244{\346M\360J\220"
 519      6F8DDAF0 
 519      918821BB 
 519      A47BE64D 
 519      F04A90
 520 04d7 FA1DDCC4 		.ascii	"\372\035\334\304\256\206\037\376\330P\373P\374l[\010"
 520      AE861FFE 
 520      D850FB50 
 520      FC6C5B08 
 521 04e7 06C4213B 		.ascii	"\006\304!;\304]6_\364,\334~*I\267S\222\243\351\317\""
 521      C45D365F 
 521      F42CDC7E 
 521      2A49B753 
 521      92A3E9CF 
 522 04fc 3E69BDD7 		.ascii	">i\275\327\255\223\243\202w\310-\247+\325#\253f\225"
 522      AD93A382 
 522      77C82DA7 
 522      2BD523AB 
 522      6695
 523 050e D3A53511 		.ascii	"\323\2455\021\321\222_Z\324[n?\273\264\310\311\240:"
 523      D1925F5A 
 523      D45B6E3F 
 523      BBB4C8C9 
 523      A03A
 524 0520 B88B6DE0 		.ascii	"\270\213m\340~\344U\007A\026\012\340\007\205\261\354"
 524      7EE45507 
 524      41160AE0 
 524      0785B1EC 
 525 0530 FC7C9FFC 		.ascii	"\374|\237\374+)\367\225\005|\345e~\237\277\320_R\\\220"
 525      2B29F795 
 525      057CE565 
 525      7E9FBFD0 
 525      5F525C90 
 526 0544 EF678ABF 		.ascii	"\357g\212\277\324\010\254.ZU\262&\300\213\312?R\212"
ARM GAS  /tmp/cc6udcVC.s 			page 42


 526      D408AC2E 
 526      5A55B226 
 526      C08BCA3F 
 526      528A
 527 0556 4A736699 		.ascii	"Jsf\231\257.\366\177\274\246`\025\272\224\373\013\013"
 527      AF2EF67F 
 527      BCA66015 
 527      BA94FB0B 
 527      0B
 528 0567 F20BD91B 		.ascii	"\362\013\331\033)\015\002\205e\253>,(G\233\245)m\212"
 528      290D0285 
 528      65AB3E2C 
 528      28479BA5 
 528      296D8A
 529 057a 029FE277 		.ascii	"\002\237\342w%P\312\003\237\224\376\013\005\245\206"
 529      2550CA03 
 529      9F94FE0B 
 529      05A586
 530 0589 C5       		.ascii	"\305"
 531              		.text
 532              		.section	.gnu.lto_chCondWaitTimeout.aa01a0fbeaf2693a,"",%progbits
 533 0000 789C8552 		.ascii	"x\234\205R[HTQ\024\335\373\236;\017\263$\374*\022\034"
 533      5B485451 
 533      14DDFB9E 
 533      3B0FB324 
 533      FC2A121C 
 534 0014 2331A3E6 		.ascii	"#1\243\346F?A}\205?\3711\020\371\033H]\207\034h\034"
 534      463F417D 
 534      853FF931 
 534      10F91B48 
 534      5D871C68 
 535 0029 B9778AFA 		.ascii	"\271w\212\372\3624fB\222=mf\"\271T\230\226=|\364\232"
 535      F2346642 
 535      923D6D66 
 535      22B95498 
 535      963D7CF4 
 536 003e 6A74CA92 		.ascii	"jt\312\222\012\263wF\005=L\302\322\350\005E\017k\237"
 536      0AB37746 
 536      053D4CC2 
 536      D2E80545 
 536      0F6B9F
 537 0051 D3183A46 		.ascii	"\323\030:F]f\270\367\234\275\326\331k\257ul\240@\206"
 537      5D66B8F7 
 537      9CBDD6D9 
 537      6BAF756C 
 537      A04086
 538 0064 0AF00800 		.ascii	"\012\360\010\000f\320\037\031\240\262\275\027`\243S"
 538      66D01F19 
 538      A0B2BD17 
 538      60A353
 539 0073 41141FDC 		.ascii	"A\024\037\334\211P\241`\005nca\206\2677\265\354c\265"
 539      8950A160 
 539      056E6361 
 539      86B737B5 
 539      EC63B5
 540 0086 CC22984A 		.ascii	"\314\"\230J\313\3677\366\366g\210%\242\213\226/c\233"
 540      CBF737F6 
ARM GAS  /tmp/cc6udcVC.s 			page 43


 540      F6678825 
 540      A28B962F 
 540      639B
 541 0098 87D5FC46 		.ascii	"\207\325\374FNO\"\27433\\Y\265\324b\012D\011\335\204"
 541      4E4F22BC 
 541      33335C59 
 541      B5D4620A 
 541      4409DD84 
 542 00ac 59D88859 		.ascii	"Y\330\210Y\242\305a\314'\354\335W{\342N\226\215@\337"
 542      A2C561CC 
 542      27ECDD57 
 542      7BE24E96 
 542      8D40DF
 543 00bf F19E96B0 		.ascii	"\361\236\226\260\232\327\300y\210'\276\3271>\313b\014"
 543      9AD7C079 
 543      8827BED7 
 543      313ECB62 
 543      0C
 544 00d0 8F201B4B 		.ascii	"\217 \033K\244-\300f\314#\370\223\332\335\003\031l\246"
 544      A42DC066 
 544      CC23F893 
 544      DADD0319 
 544      6CA6
 545 00e2 A47EE878 		.ascii	"\244~\350x\273\331\231\244\366L\213\362\204j1\025\217"
 545      BBD999A4 
 545      F64C8BF2 
 545      846A3115 
 545      8F
 546 00f3 A67255C0 		.ascii	"\246rU\300c\230'\010=-\261>\225\315\221\344\272\257"
 546      63982708 
 546      3D2DB13E 
 546      95CD91E4 
 546      BAAF
 547 0105 7DFBD373 		.ascii	"}\373\323s\017J\275\017\256f\356\250\344W9\361\025<"
 547      0F4ABD0F 
 547      AE66EEA8 
 547      E45739F1 
 547      153C
 548 0117 3E9E2F1E 		.ascii	">\236/\036\202\277h\035\251\233bW\361\004\346\212\231"
 548      82BF681D 
 548      A99B6257 
 548      F104E68A 
 548      99
 549 0128 689416B4 		.ascii	"h\224\026\264#\275\304\316\211;\230\340#?\253y\242w"
 549      23BDC4CE 
 549      893B98E0 
 549      233FAB79 
 549      A277
 550 013a E9DEAEDE 		.ascii	"\351\336\256\336k\2120\220\364\2225\324\331\006\222"
 550      6B8A3090 
 550      F49235D4 
 550      D90692
 551 0149 055B8826 		.ascii	"\005[\210&\\\255![\350\315\006P\021'7\\\277\323\231"
 551      5CAD215B 
 551      E8CD0650 
 551      1127375C 
 551      BFD399
ARM GAS  /tmp/cc6udcVC.s 			page 44


 552 015c CEDC52D4 		.ascii	"\316\334R\324\247HkS\232\020E\023}\356vG\037\276\344"
 552      A7486B53 
 552      9A104513 
 552      7DEE7647 
 552      1FBEE4
 553 016f 7C27478B 		.ascii	"|'G\213\331\260u\242,l\303\\\"U\017\362\270*\202\260"
 553      D9B075A2 
 553      2C6CC35C 
 553      22550FF2 
 553      B82A82B0 
 554 0183 A10BDBA9 		.ascii	"\241\013\333\251\366\032C/\332k\317=\305?\2727\3111"
 554      F61A432F 
 554      DA6BCF3D 
 554      C53FBA37 
 554      C931
 555 0195 774532A5 		.ascii	"wE2\245\354(CH)}k\236\273\002\360\244\250)\251\265\217"
 555      EC284348 
 555      297D6B9E 
 555      BB02F0A4 
 555      A829A9B5 
 556 01aa DD0BA68B 		.ascii	"\335\013\246\213V\200\247D\235\215\261\003\3604\332"
 556      5680A744 
 556      9D8DB103 
 556      F034DA
 557 01b9 49C819E1 		.ascii	"I\310\031\341\005B\247\350x\300j\3732)\347\026Z<\342"
 557      0542A7E8 
 557      78C06AFB 
 557      3229E716 
 557      5A3CE2
 558 01cc B2985DA0 		.ascii	"\262\230]\240\217\365\237\347NU!\340Y\314\221v\276\033"
 558      8FF59FE7 
 558      4E5521E0 
 558      59CC9176 
 558      BE1B
 559 01de BAF758A1 		.ascii	"\272\367X\241\035\214\241*5\003\236\223\267\252\251"
 559      1D8CA12A 
 559      35039E93 
 559      B7AAA9
 560 01ed A36B6072 		.ascii	"\243k`r\316\335$\333!c>\336v?]\262\317\0136^@\025\006"
 560      CEDD24DB 
 560      21633EDE 
 560      763F5DB2 
 560      CF0B365E 
 561 0204 30E492F3 		.ascii	"0\344\222\363\003\274\301\252g5[\007QLV\317lD\210\305"
 561      03BCC1AA 
 561      67355B07 
 561      514C56CF 
 561      6C4488C5 
 562 0218 861E3B2A 		.ascii	"\206\036;*~p\247\305\234Q\212\0370\216\025P\317\224"
 562      7E70A7C5 
 562      9C518A1F 
 562      308E1550 
 562      CF94
 563 022a 7A462EA5 		.ascii	"zF.\245I\262\214\217b!\006$\203\030o\376\242\377\231"
 563      49B28C8F 
 563      62210624 
 563      83186FFE 
ARM GAS  /tmp/cc6udcVC.s 			page 45


 563      A2FF99
 564 023d DF21CDDF 		.ascii	"\337!\315\337Su\351\246\343\267\371\200\235\3772\177"
 564      5375E9A6 
 564      E3B7F980 
 564      9DFF327F 
 565 024d DFA8F9B6 		.ascii	"\337\250\371\266q\006&\204\201\023\322\230]\014xQ\200"
 565      71062684 
 565      8113D298 
 565      5D0C7851 
 565      80
 566 025e ED13D238 		.ascii	"\355\023\3228\264x\272\350\015xib\032]2\215\313c\322"
 566      B478BAE8 
 566      0D786962 
 566      1A5D328D 
 566      CB63D2
 567 0271 18B19E77 		.ascii	"\030\261\236w\244\217\032\335)\215\276\"\215Nu\265\373"
 567      A48F1ADD 
 567      298DBE22 
 567      8D4E75B5 
 567      FB
 568 0282 8FABE270 		.ascii	"\217\253\342p\030\306\320\263\232\3105{\322U1\361\026"
 568      18C6D0B3 
 568      9AC8357B 
 568      D25531F1 
 568      16
 569 0293 BA36746F 		.ascii	"\2726to\211\222\345vk\277\177\001S3\202\232i\350\232"
 569      8992E576 
 569      6BBF7F01 
 569      5333829A 
 569      69E89A
 570 02a6 5EAA07CA 		.ascii	"^\252\007\312J\334:(z\271#\350\363{\003k\203\314o\256"
 570      4ADC3A28 
 570      7AB923E8 
 570      F37B036B 
 570      83CC6FAE 
 571 02ba 76AC5A69 		.ascii	"v\254Ziz\227\031\276yc9z\300\357\017\224i\345\001#h"
 571      7A9719BE 
 571      7963397A 
 571      C0EF0F94 
 571      69E50123 
 572 02cf 6A4B967B 		.ascii	"jK\226{\012<\353\345\001\206\267x\335B\277\273\024\026"
 572      0A3CEBE5 
 572      0186B778 
 572      DD42BFBB 
 572      1416
 573 02e1 FD05ED5D 		.ascii	"\375\005\355]\037\024X\255\300STX\244\025\020X+,\323"
 573      1F1458AD 
 573      C0535458 
 573      A4151058 
 573      2B2CD3
 574 02f4 D7AC2DF1 		.ascii	"\327\254-\361j\272\337\364\231\305\253u\235\250\331"
 574      6ABADFF4 
 574      99C5AB75 
 574      9DA8D9
 575 0303 29E27CA3 		.ascii	")\342|\243\230Rs\203I\365\251\236\242\345.!\252\334"
 575      98527383 
 575      49F5A99E 
ARM GAS  /tmp/cc6udcVC.s 			page 46


 575      A2E52E21 
 575      AADC
 576 0315 F0CD75E5 		.ascii	"\360\315u\345\316\007\305\000\207\337\353\017\030\033"
 576      CE07C500 
 576      87DFEB0F 
 576      181B
 577 0323 E0174AFA 		.ascii	"\340\027J\372\212 "
 577      8A20
 578              		.text
 579              		.section	.gnu.lto_.symbol_nodes.aa01a0fbeaf2693a,"",%progbits
 580 0000 789C55CD 		.ascii	"x\234U\315Kj\002Q\020\205\341sOy\265\265\325\316T\020"
 580      4B6A0251 
 580      1085E173 
 580      4F79B5B5 
 580      D5CE5410 
 581 0014 7429BAB2 		.ascii	"t)\272\262j\244G\201\250\213\220$>\021D|\220\314D!\203"
 581      6AA44781 
 581      A88B9024 
 581      3E11447C 
 581      90CC4421 
 582 0029 B88680C3 		.ascii	"\270\206\200\303\340\022\022\257\235Ij\364\303w\012"
 582      E01212AF 
 582      9D496AF4 
 582      C3770A
 583 0038 CA837872 		.ascii	"\312\203xr\000\370L\005\206\237@\310>\355\006y\241:"
 583      00F84C05 
 583      869F40C8 
 583      3EED0679 
 583      A13A
 584 004a 2BAF545A 		.ascii	"+\257TZ\031S\305\312\204Z\2602\243z#~C\264\357?\247"
 584      1953C5CA 
 584      845AB032 
 584      A37A237E 
 584      43B4EF3F 
 585 005f D4A2BD5D 		.ascii	"\324\242\275]PKV\346\324\310\210[R\313\271\000i\332"
 585      504B56E6 
 585      D4C8885B 
 585      52CBB900 
 585      69DA
 586 0071 09B0A256 		.ascii	"\011\260\242V\014\254\251\261\201=\265j`G\255\031\330"
 586      0CACA9B1 
 586      813DB56A 
 586      6047AD19 
 586      D8
 587 0082 52EB06DE 		.ascii	"R\353\006\336\250\311\177\020WA\366qn\012c\\N\241\022"
 587      A8C97F10 
 587      5741F671 
 587      6E0A635C 
 587      4EA112
 588 0095 7AFC7DF7 		.ascii	"z\374}\367\"U\\\036\277[R\210\221\345\340\023\214\276"
 588      22555C1E 
 588      BF5B5288 
 588      91E5E013 
 588      8CBE
 589 00a7 7E9CF83A 		.ascii	"~\234\370:\016\3750\370\032F\203\320\222G\357\356Q\202"
 589      0EFD30F8 
 589      1A4683D0 
ARM GAS  /tmp/cc6udcVC.s 			page 47


 589      9247EFEE 
 589      5182
 590 00b9 2CEFC3DF 		.ascii	",\357\303\337\036\205\375|mH9\312w\334\000\302:gY"
 590      1E85FD7C 
 590      6D4839CA 
 590      77DC00C2 
 590      3A6759
 591              		.text
 592              		.section	.gnu.lto_.refs.aa01a0fbeaf2693a,"",%progbits
 593 0000 789C6365 		.ascii	"x\234ce`b\340c```de`cd\342\000\022\014l\254\014\000"
 593      6062E063 
 593      60606064 
 593      65606364 
 593      E200120C 
 594 0018 02DA003F 		.ascii	"\002\332\000?"
 595              		.text
 596              		.section	.gnu.lto_.decls.aa01a0fbeaf2693a,"",%progbits
 597 0000 789CB57B 		.ascii	"x\234\265{\011T\024Y\232n\336\274A\002\311f\251\323"
 597      09541459 
 597      9A6EDEBC 
 597      4102C966 
 597      A9D3
 598 0012 5D3363F7 		.ascii	"]3c\367\324\253\261\247\351\231W\242U]]\325\263\235"
 598      D4ABB1A7 
 598      E99957A2 
 598      555D5DD5 
 598      B39D
 599 0024 EAAE37AF 		.ascii	"\352\2567\257\3139]\335}\332\252\356~\347\315\233\034"
 599      CB395DDD 
 599      7DDAAAEE 
 599      7EE7CD9B 
 599      1C
 600 0035 C454E962 		.ascii	"\304T\351b\233$\265t\316\314\231d\023\004\221\305\005"
 600      9B24B574 
 600      CECC9964 
 600      130491C5 
 600      05
 601 0046 64511417 		.ascii	"dQ\024\027\220UP\221Ee\023\331AVYdSQP\221E\001\021a"
 601      90555091 
 601      456513D9 
 601      41565964 
 601      53515091 
 602 005e FEBB4446 		.ascii	"\376\273DFd\220\251\325\347\314\313\303\237\0317\342"
 602      6490A9D5 
 602      E7CCCBC3 
 602      9F1937E2 
 603 006e BFFFFFFD 		.ascii	"\277\377\377\375\313\375\357\215\033\201\235J\255\362"
 603      CBFDEF8D 
 603      1B819D4A 
 603      ADF2
 604 007c FC3B95AA 		.ascii	"\374;\225\252\331^\245J\261S\251\226\341\243U\251T9"
 604      D95EA54A 
 604      B153A996 
 604      E1A355A9 
 604      5439
 605 008e 406A200D 		.ascii	"@j \015\320:\025\373\254\002\212D*\325\001\240\203@"
 605      D03A15FB 
ARM GAS  /tmp/cc6udcVC.s 			page 48


 605      AC028A44 
 605      2AD501A0 
 605      8340
 606 00a0 B140F140 		.ascii	"\261@\361@G\201\022\201\322\200N\001\235\003\312\002"
 606      47811281 
 606      D2804E01 
 606      9D03CA02 
 607 00b0 CA052A00 		.ascii	"\312\005*\000\272\014t\005\350*\020\374\251\376X\255"
 607      BA0C7405 
 607      E82A10FC 
 607      A9FE58AD 
 608 00c0 B2F8FC11 		.ascii	"\262\370\374\021V\251\034\340\3677@\253\201\326\002"
 608      56A91CE0 
 608      F73740AB 
 608      81D602
 609 00cf ED03C63F 		.ascii	"\355\003\306?\001\2760\370\335\002\364K `S\005\301\357"
 609      01BE30F8 
 609      DD02F44B 
 609      20605305 
 609      C1EF
 610 00e1 6F80BE40 		.ascii	"o\200\276@\014\037\301\363]5\223\373\027\012\271\177"
 610      0C1FC1F3 
 610      5D3593FB 
 610      170AB97F 
 611 00f1 8C993C6B 		.ascii	"\214\231<kr\211\274Rh\273\303\361{2=\036p\274\001h#"
 611      7289BC52 
 611      68BBC3F1 
 611      7B323D1E 
 611      70BC0168 
 612 0106 D0AFA0BD 		.ascii	"\320\257\240\275I\315|p\026\216\005\231\376\177\343"
 612      49CD7C70 
 612      168E0599 
 612      FE7FE3
 613 0115 181C55CC 		.ascii	"\030\034U\314\037\037\000\337\207@\177\003\364\277\200"
 613      1F1F00DF 
 613      87407F03 
 613      F4BF80
 614 0124 3E53333F 		.ascii	">S3?\374#\374\376\234\343\333\242\300\367\035\300\367"
 614      FC23FCFE 
 614      9CE3DBA2 
 614      C0F71DC0 
 614      F7
 615 0135 D66BF0D9 		.ascii	"\326k\360\331\302\364/@\017xl\276\200s\347\021;Vb\323"
 615      C2F42F40 
 615      0F786CBE 
 615      8073E711 
 615      3B5662D3 
 616 0149 010570DC 		.ascii	"\001\005p\334$^\"\256,\036\207\377\253\300\363?\000"
 616      245E22AE 
 616      2C1E87FF 
 616      ABC0F33F 
 616      00
 617 015a CFB7ACE0 		.ascii	"\317\267\254\340\371%\307$\367\327\25786Q\277\034S\230"
 617      F925C724 
 617      F7D7AF38 
 617      3651BF1C 
 617      5398
ARM GAS  /tmp/cc6udcVC.s 			page 49


 618 016c 02F33F01 		.ascii	"\002\363?\001\345p\214\377&\213\237\210\217\340vR\261"
 618      E5708CFF 
 618      268B9F88 
 618      8FE07652 
 618      B1
 619 017d 7C92FB91 		.ascii	"|\222\373\221\344\226\210\227`\317\225\371S\371\371"
 619      E4968897 
 619      60CF95F9 
 619      53F9F9
 620 018c DE1B7CF9 		.ascii	"\336\033|\371\207\340}\035N\342K%.\342\313\177V`z\017"
 620      87E07D1D 
 620      4EE24B25 
 620      2EE2CB7F 
 620      56607A0F 
 621 01a0 F07C5B86 		.ascii	"\360|[\206\345\001\307\363s\231?\277\017\347t\360\373"
 621      E501C7F3 
 621      73993FBF 
 621      0FE774F0 
 621      FB
 622 01b1 6D2283FB 		.ascii	"m\"\203\373t3\301\006\307\0278\306/UR\036\\\203cO5\033"
 622      7433C106 
 622      C71738C6 
 622      2F55521E 
 622      5C83634F 
 623 01c7 8F97B8CF 		.ascii	"\217\227\270\317\326B\373\005\301\303q\372q\234\"\376"
 623      D642FB05 
 623      C1C371FA 
 623      719C22FE 
 624 01d7 BDDC8600 		.ascii	"\275\334\206\000\356\1772V\267\251\331x\364V\263\261"
 624      EE7F3256 
 624      B7A9D978 
 624      F456B3B1 
 625 01e7 59C0C792 		.ascii	"Y\300\307\222\277z\345\330\334\204Y\216+\355\220\347"
 625      BF7AE5D8 
 625      DC84598E 
 625      2BED90E7 
 626 01f7 4200D011 		.ascii	"B\000\320\021\304\370\241\214\320Z \217\343\321\327"
 626      C4F8A18C 
 626      D05A208F 
 626      E3D1D7
 627 0206 C4ED2720 		.ascii	"\304\355' \377m+\362S\376\033|\365\257\334We\320\326"
 627      FF6D2BF2 
 627      53FE1B7C 
 627      F5AFDC57 
 627      65D0D6
 628 0219 FE01BE22 		.ascii	"\376\001\276\"6\244q?\031e\276\272*\363\325\277[\361"
 628      36A4713F 
 628      1965BEBA 
 628      2AF3D5BF 
 628      5BF1
 629 022b D53F60A6 		.ascii	"\325?`\246\307\232-r\177\375\007\320\011\231\277N)\374"
 629      C79A2D72 
 629      7FFD07D0 
 629      0999BF4E 
 629      29FC
 630 023d 95F61A7F 		.ascii	"\225\366\032\177%`t9\272\372\252z\000\365\0237\240U"
 630      25607439 
ARM GAS  /tmp/cc6udcVC.s 			page 50


 630      BAFAAA7A 
 630      00F51337 
 630      A055
 631 024f F42C42EC 		.ascii	"\364,B\354\033Q\242\315e\361\203\020=O\335\306\007\276"
 631      1B51A2CD 
 631      65F18310 
 631      3D4FDDC6 
 631      07BE
 632 0261 780A893D 		.ascii	"x\012\211=x[\315\233j.\222\376\361\316H&\221]f\232\304"
 632      785BCD9B 
 632      6A2E92FE 
 632      F1CE4826 
 632      915D669A 
 633 0276 8F8AB133 		.ascii	"\217\212\2613$**\235\365FjI\001B\362\0162\201\0146\277"
 633      242A2A9D 
 633      F5466A49 
 633      0142F20E 
 633      32810C36 
 634 028b 6EC6A792 		.ascii	"n\306\247\222\214C\242\365S\307\032G\265\203\350\016"
 634      8C43A2F5 
 634      53C71A47 
 634      B583E80E 
 635 029b 399BF609 		.ascii	"9\233\366\011\242\347\256\0147\356\301jD\016\007_d\374"
 635      A2E7AE0C 
 635      37EEC16A 
 635      440E075F 
 635      64FC
 636 02ad EF0DD926 		.ascii	"\357\015\331&\366q\370+\311k\267B\363S\360A\214Vk\221"
 636      F671F82B 
 636      C96BB742 
 636      F353F041 
 636      8C566B91 
 637 02c1 40C43425 		.ascii	"@\3044%\335u\205\346Z-z\007\232I\245\317\352\355\330"
 637      DD7585E6 
 637      5A2D7A07 
 637      9A49A5CF 
 637      EAEDD8
 638 02d4 55076816 		.ascii	"U\007h\026Md\025\271\260\253\345\244scht\233\026\257"
 638      4D6415B9 
 638      B0ABE5A4 
 638      73636874 
 638      9B16AF
 639 02e7 A31A160E 		.ascii	"\243\032\026\016\025_r\302\036\3648\266\377E\231\023"
 639      155F72C2 
 639      1EF438B6 
 639      FF459913 
 640 02f7 FE901E8B 		.ascii	"\376\220\036\213}V\363>\031\243)\007\235Y\373chv\264"
 640      7D56F33E 
 640      19A32907 
 640      9D59FB63 
 640      6876B4
 641 030a 0E9CC1F8 		.ascii	"\016\234\301\370\257)\353\235\332\314,\202\345\373Z"
 641      AF29EB9D 
 641      DACC2C82 
 641      E5FB5A
 642 0319 44CC7783 		.ascii	"D\314w\203Sy\217\213_\270\260S\204\243-f\372\264=\376"
 642      53798F8B 
ARM GAS  /tmp/cc6udcVC.s 			page 51


 642      5FB8B053 
 642      84A32D66 
 642      FAB43DFE 
 643 032d 941CAB8F 		.ascii	"\224\034\253\217\325wW\012\310]{\226\230T>w\354/\022"
 643      D577570A 
 643      C85D7B96 
 643      98543E77 
 643      EC2F12
 644 0340 A74DA677 		.ascii	"\247M\246wP1\322\242\"\204\321y\264\201\370\347\373"
 644      5031D2A2 
 644      2284D179 
 644      B481F8E7 
 644      FB
 645 0351 24F3224C 		.ascii	"$\363\"L\246`Sl\210\311\3613\025\312F\353P\026Z\247"
 645      A660536C 
 645      88C9F133 
 645      15CA46EB 
 645      50165AA7 
 646 0365 4257903B 		.ascii	"BW\220;\021K\370\320e8y\011N\202\212\314\323q\2474\370"
 646      114BF8D0 
 646      65387909 
 646      4E828ACC 
 646      D371A734 
 647 037a DFA98A9A 		.ascii	"\337\251\212\232k}\267\005\244u\267\332\277\314J\177"
 647      6B7DB705 
 647      A475B7DA 
 647      BFCC4A7F 
 648 038a 86E569C6 		.ascii	"\206\345i\306\2735a&\223\032\225\002\226\022\011\013"
 648      BB356126 
 648      931A9502 
 648      9612090B 
 649 039a 40634E37 		.ascii	"@cN7\035~y\302\005g \252\304t\377\306}\265-%\327m*\271"
 649      1D7E79C2 
 649      056720AA 
 649      C474FFC6 
 649      7DB52D25 
 650 03b2 99FB7167 		.ascii	"\231\373qg8Qr\015\224\\\225\224\224\212J\372\013\243"
 650      3851720D 
 650      945C9594 
 650      948A4AFA 
 650      0BA3
 651 03c4 AB1CF018 		.ascii	"\253\034\360\030U\202\262\346B/\271\341)\326\250x\325"
 651      5582B2E6 
 651      422FB9E1 
 651      29D6A878 
 651      D5
 652 03d5 93A2C573 		.ascii	"\223\242\305s\254\3216\331\230\352\304\342\261\212\214"
 652      ACD136D9 
 652      98EAC4E2 
 652      B18A8C
 653 03e4 A2D1BA1A 		.ascii	"\242\321\272\032-\013\261\011A{\361L\313m\007\274\314"
 653      2D0BB109 
 653      417BF14C 
 653      CB6D07BC 
 653      CC
 654 03f5 784B8BCA 		.ascii	"xK\213\312jx:l\204f\310\275\324aW\034\3012\254&&\364"
 654      6A783A6C 
ARM GAS  /tmp/cc6udcVC.s 			page 52


 654      8466C8BD 
 654      D461571C 
 654      C132AC26 
 655 040b 8016C7D1 		.ascii	"\200\026\307\321\206:+:\342\261M\307\325\333\264\251"
 655      863A2B3A 
 655      E2B14DC7 
 655      D5DBB4A9 
 656 041b 5EF309AA 		.ascii	"^\363\011\252\003sj\255\230\223<sg\314\221\351v'a*\231"
 656      03736AAD 
 656      98933C73 
 656      67CC91E9 
 656      7627612A 
 657 0430 39A3C1A9 		.ascii	"9\243\301\251L\367\310\362\322\357\361Yv\274?{\177\215"
 657      4CF7C8F2 
 657      D2EFF159 
 657      76BC3F7B 
 657      7F8D
 658 0442 2BCE658D 		.ascii	"+\316e\215S\327K\037\333\343k\254!\346\366j\226\333"
 658      53D74B1F 
 658      DBE36BAC 
 658      21E6F66A 
 658      96DB
 659 0454 19E3838B 		.ascii	"\031\343\203\213\0307\261k\303\3757\363]q\013k\224\316"
 659      1837B16B 
 659      C3FD37F3 
 659      5D710B6B 
 659      94CE
 660 0466 2597BAE1 		.ascii	"%\227\272\341.\326h\272\273<\255\305wX\243(i\251\\\300"
 660      2ED668BA 
 660      BB3CADC5 
 660      7758A328 
 660      69A95CC0 
 661 047a F758232C 		.ascii	"\367X#,:'\201\270J\303\322\325\036N\335\233\\\270,\260"
 661      3A2781B8 
 661      4AC3D2D5 
 661      1E4EDD9B 
 661      5CB82CB0 
 662 048e 53C4A03D 		.ascii	"S\304\240=p*\365X\377\005W\374\220\371\345\361\360\376"
 662      702AF558 
 662      FF0557FC 
 662      90F9E5F1 
 662      F0FE
 663 04a0 480759CE 		.ascii	"H\007Y\316\376}8\015a/\330|[\262Y\303s\326\264\302u"
 663      FE7D380D 
 663      612FD87C 
 663      5BB259C3 
 663      73D6B4C2 
 664 04b5 3DE03A0D 		.ascii	"=\340:\015w]7\234\354b9;\375b\362\242\200\247\231\216"
 664      775D379C 
 664      EC62393B 
 664      FD62F2A2 
 664      80A7998E 
 665 04c9 C8E1E957 		.ascii	"\310\341\351Wn\314\367+\005\334\261\"@L\332\367/\321"
 665      6ECCF72B 
 665      05DCB122 
 665      404CDAF7 
 665      2FD1
ARM GAS  /tmp/cc6udcVC.s 			page 53


 666 04db A4ED0730 		.ascii	"\244\355\0070}\022\230^1\000\303\246\227\307\234\361"
 666      7D12985E 
 666      3100C3A6 
 666      97C79CF1 
 667 04eb 0253529A 		.ascii	"\002SR\232\223\036\2415\033r3\367\177vQC\206\240\357"
 667      931EA135 
 667      1B7233F7 
 667      7F765143 
 667      86A0EF
 668 04fe 80D4B71F 		.ascii	"\200\324\267\037\331\264d\320\272%QG\236\234u\305&L"
 668      D9B464D0 
 668      BA255147 
 668      9E9C75C5 
 668      264C
 669 0510 1DFCF2E1 		.ascii	"\035\374\362\341\341\036\304\002\346\014\315\340\322"
 669      E11EC402 
 669      E60CCDE0 
 669      D2
 670 051d 9E383796 		.ascii	"\23687\226\232C4s\027\"\226\004\034\315x\273\017\264"
 670      9A433473 
 670      17229604 
 670      1CCD78BB 
 670      0FB4
 671 052f F769F011 		.ascii	"\367i\360\021\332P\277\030\257\315q2\243[\260\373\004"
 671      DA50BF18 
 671      AFCD7132 
 671      A35BB0FB 
 671      04
 672 0540 3D0060F7 		.ascii	"=\000`\367\277\021\260Q\353\300jZ\322f\034p2SV\034\027"
 672      BF11B051 
 672      EBC06A5A 
 672      D2661C70 
 672      3253561C 
 673 0555 FFC4019F 		.ascii	"\377\304\001\237d\215\201\304\250R'|\2215\256\305L_"
 673      648D81C4 
 673      A852277C 
 673      9135AEC5 
 673      4C5F
 674 0567 71C4A5AC 		.ascii	"q\304\245\254\021>?\222\357\206\253\261\3058[\313\306"
 674      113E3F92 
 674      EF86ABB1 
 674      C5385BCB 
 674      C6
 675 0578 D97848F9 		.ascii	"\331xH\371\260\200\033\330\265\274\260{\231\016pm\035"
 675      B0801BD8 
 675      B5BCB07B 
 675      990E706D 
 675      1D
 676 0589 64129255 		.ascii	"d\022\222U\275u\254\352],\237\311\021p+\263\355\362"
 676      BD75ACEA 
 676      5D2C9FC9 
 676      11702BB3 
 676      EDF2
 677 059b C57B495A 		.ascii	"\305{IZY\012\375(\204z~\006\014\234\222\014\\g.{\223"
 677      590AFD28 
 677      847A7E06 
 677      0C9C920C 
ARM GAS  /tmp/cc6udcVC.s 			page 54


 677      5C672E7B 
 678 05b0 A74CF86D 		.ascii	"\247L\370m\025\372`\035\332\010\326M\203u\353\270u\223"
 678      15FA601D 
 678      DA08D64D 
 678      8375EBB8 
 678      7593
 679 05c2 60DD535E 		.ascii	"`\335S^\364NdT\273\340^\246\341\330\221\212\213\256"
 679      F44E6454 
 679      BBE05EA6 
 679      E1D8918A 
 679      8BAE
 680 05d4 660D50CC 		.ascii	"f\015P\314\012i^\314\202\206g\222\206\031dC\305s\353"
 680      0A695ECC 
 680      82866792 
 680      86196443 
 680      C573EB
 681 05e7 2A820FB5 		.ascii	"*\202\017\265g;\342\021\246b\270\274*\036\313\322g#"
 681      673BE211 
 681      A662B8BC 
 681      2A1ECBD2 
 681      6723
 682 05f9 2B652F40 		.ascii	"+e/@\305\234\244b\326\226\212y\353*\216$\215\276\215"
 682      C59CA462 
 682      D6968A79 
 682      EB2A8E24 
 682      8DBE8D
 683 060c C7994BA3 		.ascii	"\307\231K\243\016,\345a<\311\324\245^[\210\221,j\203"
 683      0E2CE561 
 683      3CC9D4A5 
 683      5E5B8891 
 683      2C6A83
 684 061f 7C78059A 		.ascii	"|x\005\232^~\003M\213\3265\335I}:#\340y\246\352tU\336"
 684      5E7E034D 
 684      8BD635DD 
 684      497D3A23 
 684      E079A6EA 
 685 0636 2D7BBCC4 		.ascii	"-{\274\304T\335\035+\230w1\253\352\005UAj\022\3257\253"
 685      54DD1D2B 
 685      987731AB 
 685      EA055541 
 685      6A12D537 
 686 064b 32A9ADAA 		.ascii	"2\251\255\252\232\010\275?\304\353\363\333d\232=\234"
 686      9A08BD3F 
 686      C4EBF3DB 
 686      649A3D9C 
 687 065b F8010E17 		.ascii	"\370\001\016\027\250\342'g\232\013HIt\327\242\377\224"
 687      A8E22767 
 687      9A0B4849 
 687      74D7A2FF 
 687      94
 688 066c 658D3BCB 		.ascii	"e\215;\313\232\224\270\221\004G|\220\262\252\217?\276"
 688      9A94B891 
 688      04477C90 
 688      B2AA8F3F 
 688      BE
 689 067d 1DE222CB 		.ascii	"\035\342\"\313\232\015\311t\262\214\000l\373\324fl\356"
 689      9A0DC974 
ARM GAS  /tmp/cc6udcVC.s 			page 55


 689      B28C006C 
 689      FBD4666C 
 689      EE
 690 068e 66686921 		.ascii	"fhi!\246\267\2026\251P.\000\311!\303\"\034\320\271s"
 690      A6B78236 
 690      A9502E00 
 690      C921C322 
 690      1CD0B973 
 691 06a2 7461EA75 		.ascii	"ta\352u(TM\321\205\207f\3048\341cL\311\215\276}\273"
 691      28544DD1 
 691      858766C4 
 691      38E1634C 
 691      C98DBE7D 
 692 06b7 6579F3FE 		.ascii	"ey\363\376M\2327Q\240c\277\244\003T\332T\022i]\311@"
 692      4D9A3751 
 692      A063BFA4 
 692      0354DA54 
 692      12695DC9 
 693 06cc 5E5FB580 		.ascii	"^_\265\200O1%m\011\373\236\332IZ\242\361\235\252H\223"
 693      4F31256D 
 693      09FB9EDA 
 693      495AA2F1 
 693      9DAA4893 
 694 06e0 49400741 		.ascii	"I@\007A\315\001IM\324k\324D[W\223\361t\254\316\3259"
 694      CD01494D 
 694      D46BD444 
 694      5B5793F1 
 694      74ACCED5 
 695 06f5 D23C6551 		.ascii	"\322<eQ\221b]P\241\030\2653_3\005\217\\\356B\270\233"
 695      91625D50 
 695      A118B533 
 695      5F33058F 
 695      5CEE42B8 
 696 070a 05A173FE 		.ascii	"\005\241s\376\352\2023\356\247\015a(}\372\221\006\271"
 696      EA8233EE 
 696      A70D6128 
 696      7DFA9106 
 696      B9
 697 071b AF43480B 		.ascii	"\257CH\013tV\\o\251\320a\020\025\247\306\342r5\311\004"
 697      74565C6F 
 697      A9D06110 
 697      15A7C6E2 
 697      7235C904 
 698 072f C826FF93 		.ascii	"\310&\377\223\234\266\226\012\361\000\220\\R\241#\000"
 698      9CB6960A 
 698      F100905C 
 698      52A12300 
 699 073f EF10C04B 		.ascii	"\357\020\300K29\3203dq\325t2\331Q\313{E\274\266\027"
 699      3239D033 
 699      6471D574 
 699      32D951CB 
 699      7B45BCB6 
 700 0754 704FCEF4 		.ascii	"pO\316\364w\250\345F\035\2650*\301lTESH\246\023\036"
 700      77A8E546 
 700      1DB5302A 
 700      C16C5445 
 700      5348A613 
ARM GAS  /tmp/cc6udcVC.s 			page 56


 701 0769 66468DBC 		.ascii	"fF\215\274:y\317\036?`\215\371\304\272\323.\370\011"
 701      3A79CF1E 
 701      3F608DF9 
 701      C4BAD32E 
 701      F809
 702 077b 6BC467B7 		.ascii	"k\304g\267vk\360\024k\014\344.\225i\3603\3268\321?\225"
 702      766BF014 
 702      6B0CE42E 
 702      9569F033 
 702      D638D13F 
 703 0790 638FE758 		.ascii	"c\217\347X\224*:Of\272 gw\231\342\337|K*\262'\000\352"
 703      942A3A4F 
 703      66BA2067 
 703      7799E2DF 
 703      7C4B2AB2 
 704 07a7 97CE3C56 		.ascii	"\227\316<V,\222\023)\337\0152\231\020:\256vF\251R\034"
 704      2C921329 
 704      DF0D3299 
 704      103AAE76 
 704      46A9521C 
 705 07bb BF7466F0 		.ascii	"\277tf\360\206\202k\332\035\260\311\216\315\344\023"
 705      86826BDA 
 705      1DB0C98E 
 705      CDE413
 706 07ca 1D8B2E38 		.ascii	"\035\213.8\2245"
 706      9435
 707 07d0 4C2FAEF5 		.ascii	"L/\256\365jp\004k\364\035\231\037r\304Q\254Q\333\031"
 707      6A70046B 
 707      F41D991F 
 707      72C451AC 
 707      51DB19
 708 07e3 755DC007 		.ascii	"u]\300\007Y\343\\\303\220\311\016\307\261FYd\303\242"
 708      59E35CC3 
 708      90C90EC7 
 708      B1465964 
 708      C3A2
 709 07f5 033ECC1A 		.ascii	"\003>\314\032I%\341\301Z\234\300\032Y\31331\3168\211"
 709      4925E1C1 
 709      5A9CC01A 
 709      59CB3331 
 709      CE3889
 710 0808 35E6CB6E 		.ascii	"5\346\313n\235R\263\261\267\036\232\347\313\243j1+\341"
 710      9D52B3B1 
 710      B71E9AE7 
 710      CBA36A31 
 710      2BE1
 711 081a 69EA04EC 		.ascii	"i\352\004\354t\344\324\245jW\264\236}\326\254w_\177"
 711      74E4D4A5 
 711      6A57B49E 
 711      7DD6AC77 
 711      5F7F
 712 082c 8A585B3E 		.ascii	"\212X[>\227\215\307\262\352\017\230\322*\2315\247\300"
 712      978DC7B2 
 712      EA0F98D2 
 712      2A9935A7 
 712      C0
 713 083d 9A02F51A 		.ascii	"\232\002\365\032\311\372*\352\372l\362\255b]\332\376"
ARM GAS  /tmp/cc6udcVC.s 			page 57


 713      C9FA2AEA 
 713      FA6CF2AD 
 713      625DDAFE 
 714 084d F998A93C 		.ascii	"\371\230\251<\024S\366\223J\366`5a\337$qW\312\270\323"
 714      1453F693 
 714      4AF66035 
 714      61DF2471 
 714      57CAB8D3 
 715 0861 AD0B9771 		.ascii	"\255\013\227q\217\310\270S\224\334\255+\270\377\237"
 715      8FC8B853 
 715      94DCAD2B 
 715      B8FF9F
 716 0870 C47D4EC9 		.ascii	"\304}N\311\355\241`\036\2271\237\265\312,7rA\306}Z\311"
 716      EDA1601E 
 716      97319FB5 
 716      CA2C3772 
 716      41C67D5A 
 717 0885 9D23F349 		.ascii	"\235#\363I\034\235\227M\246O\004\025:\017\251\234\011"
 717      1C9D974D 
 717      A64F0415 
 717      3A0FA99C 
 717      09
 718 0896 0E4019BC 		.ascii	"\016@\031\274\007\344\005\272\010\351\223\247^\217\362"
 718      07E405BA 
 718      08E993A7 
 718      5E8FF2
 719 08a5 810A812E 		.ascii	"\201\012\201.\000\345\000e\001e\003]\002\312U\257\247"
 719      00E50065 
 719      0165035D 
 719      02CA55AF 
 719      A7
 720 08b6 438DE99E 		.ascii	"C\215\351\236\226\351>c]7\265\213\345bs\337*\232\213"
 720      96E93E63 
 720      5D37B58B 
 720      E56273DF 
 720      2A9A8B
 721 08c9 C0A5E289 		.ascii	"\300\245\342\211(\211\032\030X\035\037b\252\335He\245"
 721      28891A18 
 721      581D1F62 
 721      AADD4865 
 721      A5
 722 08da 590F16B3 		.ascii	"Y\017\026\263\003R\346P\375\241\203\202|\370\311\231"
 722      0352E650 
 722      FDA18382 
 722      7CF8C999 
 723 08ea 61F96B1E 		.ascii	"a\371k\036~\003e\247\346\\p\007\315;\334\3624\245\314"
 723      7E0365A7 
 723      E65C7007 
 723      CD3BDCF2 
 723      34A5CC
 724 08fd 19AD5FE3 		.ascii	"\031\255_\343\3164B\221K\272\337\300\022\012z\240dP"
 724      CE344291 
 724      4BBADFC0 
 724      120A7AA0 
 724      6450
 725 090f 5A6C3D2E 		.ascii	"Zl=.q|IC\\g\276\\\304\371\211\353J\300uW\270k\270\261"
 725      717C4943 
ARM GAS  /tmp/cc6udcVC.s 			page 58


 725      5C67BE5C 
 725      C4F989EB 
 725      4AC07557 
 726 0927 99CCD862 		.ascii	"\231\314\330bKc\311X\010~\360\004\343a6\026\036\215"
 726      4B63C958 
 726      087EF004 
 726      E3613616 
 726      1E8D
 727 0939 6675A9F1 		.ascii	"fu\251\361(k\244\014V\016\360\305x5\275\367\036<\274"
 727      286BA40C 
 727      560EF0C5 
 727      7835BDF7 
 727      1E3CBC
 728 094c DF998F0C 		.ascii	"\337\231\217\014r\033\371`v\266K\203'\031s\341r\346"
 728      721BF960 
 728      76B64B83 
 728      271973E1 
 728      72E6
 729 095e 3E8C6759 		.ascii	">\214gY\243\372n{\255\035^f\215\264\312\341\367p\254"
 729      A3FA6E7B 
 729      AD1D5E66 
 729      8DB4CAE1 
 729      F770AC
 730 0971 861E971C 		.ascii	"\206\036\227\034)\2035\325\021\332\370\333\341\310s"
 730      298335D5 
 730      11DAF8DB 
 730      E1C873
 731 0980 491A7000 		.ascii	"I\032p\000\214+\3475\374\017Z0\306\334\311\017|\257"
 731      8C2BE735 
 731      FC0F5A30 
 731      C6DCC90F 
 731      7CAF
 732 0992 659760D0 		.ascii	"e\227`\320\255wv\206/r\300?p\325]\364\\#n\274\321\314"
 732      AD777686 
 732      2F72C03F 
 732      70D55DF4 
 732      5C236EBC 
 733 09a8 3C07F51B 		.ascii	"<\007\365\033\205\200'n\330\012\227<\355\256A\332]%"
 733      8580276E 
 733      D80A973C 
 733      EDAE41DA 
 733      5D25
 734 09ba 6957C67B 		.ascii	"iW\306{\020\337\275\004\337-@j\275\000\232\007\232\003"
 734      10DFBD04 
 734      DF2D406A 
 734      BD009A07 
 734      9A03
 735 09cc 9A057A0E 		.ascii	"\232\005z\016T\015\364\014h\006h\032h\020\250\007\250"
 735      540DF40C 
 735      6806681A 
 735      6810A807 
 735      A8
 736 09dd 0DE81650 		.ascii	"\015\350\026P-\320M\240\032\313\264\3749KK\250\205\327"
 736      2DD04DA0 
 736      1ACBB4FC 
 736      394B4BA8 
 736      85D7
ARM GAS  /tmp/cc6udcVC.s 			page 59


 737 09ef 95D00A94 		.ascii	"\225\320\012\224Cs\251a\365!\232x\344\216\357\"R\260"
 737      4373A961 
 737      F5219A78 
 737      E48EEF22 
 737      52B0
 738 0a01 17AE282A 		.ascii	"\027\256(*\003\015k\031\177\035X^n\235\237\212\227\245"
 738      030D6B19 
 738      7F1D585E 
 738      6E9D9F8A 
 738      97A5
 739 0a13 67BD457A 		.ascii	"g\275Ez\326\261\364\224;\246\032.\222\022\203n\200\300"
 739      D6B1F494 
 739      3BA61A2E 
 739      9212836E 
 739      80C0
 740 0a25 7AEE9825 		.ascii	"z\356\230%p\314+0\256\031\250\301\302\300\231\333x\251"
 740      70CC2B30 
 740      AE19A8C1 
 740      C2C099DB 
 740      78A9
 741 0a37 C064DAAF 		.ascii	"\300d\332\257A\215\000\342\002\357cu\324\313P4Y\240"
 741      418D00E2 
 741      02EF6375 
 741      D4CB5034 
 741      59A0
 742 0a49 687C0D8A 		.ascii	"h|\015\212e\320\374f\024#\011\330t\372m\324\002\020"
 742      65D0FC66 
 742      142309D8 
 742      74FA6DD4 
 742      0210
 743 0a5b 2AAC4350 		.ascii	"*\254CP\372\241\325\002\001\351\310F\206\325\034Y\004"
 743      FAA1D502 
 743      01E9C846 
 743      86D51C59 
 743      04
 744 0a6c C5FFFF72 		.ascii	"\305\377\377r\004r8;\223\3470\2719\276\251\214d\215"
 744      0472383B 
 744      93E730B9 
 744      39BEA98C 
 744      648D
 745 0a7e 65E46148 		.ascii	"e\344aHOo\016\242i\325\016l\215\234\335\274\372i\260"
 745      4F6F0EA2 
 745      69D50E6C 
 745      8D9CDDBC 
 745      FA69B0
 746 0a91 5169CD0C 		.ascii	"Qi\315\014\267\301\204NnN7\034w\001\244\016\013H\023"
 746      B7C1844E 
 746      6E4E371C 
 746      7701A40E 
 746      0B4813
 747 0aa4 193CB388 		.ascii	"\031<\263\210c*!q;m\024~\253\362+x\007\333\362G\334"
 747      632A2171 
 747      3B6D147E 
 747      ABF22B78 
 747      07DBF247 
 748 0ab9 D9B068E1 		.ascii	"\331\260h\3419\263R\274\254X\017d\260\372\325iY\277"
 748      39B352BC 
ARM GAS  /tmp/cc6udcVC.s 			page 60


 748      AC580F64 
 748      B0FAD569 
 748      59BF
 749 0acb F84AB71F 		.ascii	"\370J\267\037G\247\307\223\365!\361E\225\264\256 \334"
 749      47A7C793 
 749      F521F145 
 749      95B4AE20 
 749      DC
 750 0adc A2BBC0C3 		.ascii	"\242\273\300\303\211\242\207{\201\255I\351\341\006\364"
 750      89A2877B 
 750      81AD49E9 
 750      E106F4
 751 0aeb FA023B00 		.ascii	"\372\002;\000V\364s\213\356\300q\237\245\267N\310\274"
 751      56F4738B 
 751      EEC0719F 
 751      A5B74EC8 
 751      BC
 752 0afc 45CCE9FF 		.ascii	"E\314\351\377\003jw3\347W\212f\346\215\236`\266\367"
 752      036A7733 
 752      E7578A66 
 752      E68D9E60 
 752      B6F7
 753 0b0e DBB07D29 		.ascii	"\333\260})6\010V\371\304\246\026\331\315\257\245\351"
 753      360856F9 
 753      C4A616D9 
 753      CDAFA5E9 
 754 0b1e 51A2E943 		.ascii	"Q\242\351C\352\265\350\226\322\364VY\266\304[\001\250"
 754      EAB5E896 
 754      D2F45659 
 754      B6C45B01 
 754      A8
 755 0b2f A2DD08BA 		.ascii	"\242\335\010\272)@7\011\241|\0124\0014\0164\006t\027"
 755      29403709 
 755      A17C0A34 
 755      01340E34 
 755      067417
 756 0b42 680468D8 		.ascii	"h\004h\330\302)\365\237\261\020\223\214n\003\245D\212"
 756      C229F59F 
 756      B110938C 
 756      6E03A544 
 756      8A
 757 0b53 CD7546F3 		.ascii	"\315uF\363uY%k\177\023w\345\3373\321\367\200\271\303"
 757      7559256B 
 757      7F1377E5 
 757      DF33D1F7 
 757      80B9C3
 758 0b66 36B36CB4 		.ascii	"6\263l\264\337\267\030\355\367V\326\233\273pq\204t\037"
 758      DFB718ED 
 758      F756D69B 
 758      BB707184 
 758      741F
 759 0b78 0679F779 		.ascii	"\006y\367y8\036\202\301\017\300\260Q\3110\360\350\340"
 759      381E82C1 
 759      0FC0B051 
 759      C930F0E8 
 759      E0
 760 0b89 187E3A7D 		.ascii	"\030~:}\317d\212w\246\273!\235\274\203\265z\303:\214"
ARM GAS  /tmp/cc6udcVC.s 			page 61


 760      CF648A77 
 760      A6BB219D 
 760      BC83B57A 
 760      C33A8C
 761 0b9c 7F8BD426 		.ascii	"\177\213\324&\222\236\371\234\327<R\224\251>\272\317"
 761      929EF99C 
 761      D73C5294 
 761      A93EBACF 
 762 0bac 0EEE2608 		.ascii	"\016\356&\010\217bY\302\"\331r\216G\222\354v\334{\223"
 762      8F6259C2 
 762      22D9728E 
 762      4792EC76 
 762      DC7B93
 763 0bbf 9BBACAB8 		.ascii	"\233\272\312\270S\037\201\237\036~#?=\006N\311O\217"
 763      531F819F 
 763      1E7E233F 
 763      3D064EC9 
 763      4F8F
 764 0bd1 989F6C54 		.ascii	"\230\237lTM\364\004\334#\025NsJ\276\270Mn<\211\2441"
 764      4DF404DC 
 764      23154E73 
 764      4ABEB84D 
 764      6E3C89A4 
 765 0be6 29255BA8 		.ascii	")%[\250(s\275+\275\311\015\201yq\374\265v\020\247\224"
 765      2873BD2B 
 765      BDC90D81 
 765      7971FCB5 
 765      7610A794 
 766 0bfa F0699158 		.ascii	"\360i\221X\375\350M\334\343?f\311A\230\037\333ffpg\257"
 766      FDE84DDC 
 766      E33F66C9 
 766      41981FDB 
 766      66667067 
 767 0c0f 6888BF81 		.ascii	"h\210\277\201g\3452\260+w\365L\260)q#\335\264\230\340"
 767      67E532B0 
 767      2B77F54C 
 767      B0297123 
 767      DDB498E0 
 768 0c23 C386DF89 		.ascii	"\303\206\337\211\261A\363D6\027\217\277\227`*\017\302"
 768      B141F344 
 768      36178FBF 
 768      97602A0F 
 768      C2
 769 0c34 74DF61C1 		.ascii	"t\337a\301\032\363\007\022o=\347%\033\007K\326xeA\034"
 769      1AF30712 
 769      6F3DE725 
 769      1B074BD6 
 769      7865411C 
 770 0c48 C8E24184 		.ascii	"\310\342A\204\0339\024k}u#_\335\377\245TX\023\225\334"
 770      1B39146B 
 770      7D75235F 
 770      DDFFA554 
 770      581395DC 
 771 0c5c 2B6F4B7A 		.ascii	"+oKze\354\307\254\263\313\\\333|\236\007\202\2545\223"
 771      65ECC7AC 
 771      B3CB5CDB 
 771      7C9E0782 
ARM GAS  /tmp/cc6udcVC.s 			page 62


 771      AC3593
 772 0c6f 94EC392B 		.ascii	"\224\3549+\244Wr\351d9Sj\235]&}\341\007\322\234\226"
 772      A45772E9 
 772      6439536A 
 772      9D5D267D 
 772      E107D29C 
 773 0c84 AF9CD356 		.ascii	"\257\234\323V\004\216\257io\330\250\213\217\237\221"
 773      048EAF69 
 773      6FD8A88B 
 773      8F9F91
 774 0c93 2424E95A 		.ascii	"$$\351Z.M\0117duq\3566^\230\016\245\243XTX\377:\205"
 774      2E4D0937 
 774      647571EE 
 774      365E980E 
 774      A5A35854 
 775 0cab CDE19864 		.ascii	"\315\341\230dJ\2755}\243G\355\3115\262\250\251\224R"
 775      4ABD357D 
 775      A347EDC9 
 775      35B2A8A9 
 775      9452
 776 0cbd BE9E6A83 		.ascii	"\276\236j\203\305~\357tu<F\260\264\265:Y\346A\017\023"
 776      C57EEF74 
 776      753C46B0 
 776      B4B53A59 
 776      E6410F13 
 777 0cd1 66052718 		.ascii	"f\005'\030\273\243 ,/6}O\360b0]^\211(\011\257M\224\003"
 777      BBA3202C 
 777      2F367D4F 
 777      F062305D 
 777      5E892809 
 778 0ce9 E1B47E00 		.ascii	"\341\264~\000\217b\245\337\220p\370\231\0067\332\323"
 778      8F62A5DF 
 778      9070F899 
 778      0637DAD3 
 779 0cf9 7BF7F1E3 		.ascii	"{\367\361\343\013Q\316\310}\015w\345G\244K\030\210\015"
 779      0B51CEC8 
 779      7D0D77E5 
 779      47A44B18 
 779      880D
 780 0d0b C166F044 		.ascii	"\301f\360D\202\215\331=\024@Z\003\014Z^\264g7k\3447"
 780      828DD93D 
 780      14405A03 
 780      0C5A5EB4 
 780      67376BE4 
 781 0d20 4344AA54 		.ascii	"CD\252TO\366a\361f\350A\314X\232\203\240f\347\320V\201"
 781      4FF661F1 
 781      66E841CC 
 781      589A83A0 
 781      66E7D056 
 782 0d35 9CBBB13C 		.ascii	"\234\273\261<W\356\306n9\340\336\033\235\231\356vz\373"
 782      57EEC66E 
 782      39E0DE1B 
 782      9D99EE76 
 782      7AFB
 783 0d47 28DD5E09 		.ascii	"(\335^\0111\255R\223\335\005\030o(\002\023I\373\361"
 783      31AD5293 
 783      DD05186F 
ARM GAS  /tmp/cc6udcVC.s 			page 63


 783      28021349 
 783      FBF1
 784 0d59 DBF01D8E 		.ascii	"\333\360\035\216\005&\356\304h\3211\315\273i\246\264"
 784      0526EEC4 
 784      68D131CD 
 784      BB69A6B4 
 785 0d69 215379CB 		.ascii	"!Sy\313\"N\256\272o2i\005\302\2052\245\200\300!|g\240"
 785      224EAEBA 
 785      6F326905 
 785      C28532A5 
 785      80C0217C 
 786 0d7f 4184CEA1 		.ascii	"A\204\316\241\001\244B\221\370]\362\214\353\\\337\234"
 786      01A44291 
 786      F85DF28C 
 786      EB5CDF9C 
 787 0d8f 1B5EA2AE 		.ascii	"\033^\242\256A\267_\235{\356\306%\325\377)\244/8\337"
 787      41B75F9D 
 787      7BEEC625 
 787      D5FF29A4 
 787      2F38DF
 788 0da2 A4A692A2 		.ascii	"\244\246\222\242$\357\300\241\245\244\003TR\305lr\244"
 788      24EFC0A1 
 788      A5A40354 
 788      52C56C72 
 788      A4
 789 0db3 138E7260 		.ascii	"\023\216r`\317\030\216\2379\355\310%-|\307BR\264$)Z"
 789      CF188E9F 
 789      39EDC825 
 789      2D7CC742 
 789      52B42429 
 790 0dc8 29E92095 		.ascii	")\351 \225t\371\336\345\012;|\214I\312i\015\273\202"
 790      74F9DEE5 
 790      0A3B7C8C 
 790      49CA690D 
 790      BB82
 791 0dda B8A43677 		.ascii	"\270\2446w\013I1\222\244\030\245\244X*)\250\3438\334"
 791      0B493192 
 791      A418A5A4 
 791      582A29A8 
 791      E338DC
 792 0ded C266724C 		.ascii	"\302frL\227\346\256\271\200\244!\2204\376\227LR\020"
 792      97E6AEB9 
 792      80A42190 
 792      34FE974C 
 792      5210
 793 0dff 93142749 		.ascii	"\223\024'I\212SJ\212\247\222\2023*\202\265\270\204I"
 793      8A534A8A 
 793      A7928233 
 793      2A82B5B8 
 793      8449
 794 0e11 B216C0C2 		.ascii	"\262\026\300\302\007}\245.\362\220\221\022,\305\354"
 794      077DA52E 
 794      F2909112 
 794      2CC5EC
 795 0e20 088DD961 		.ascii	"\010\215\331a1f\011Ya#\016\034\313D\261\253\331,`C\207"
 795      31660959 
 795      61230E1C 
ARM GAS  /tmp/cc6udcVC.s 			page 64


 795      CB44B1AB 
 795      D92C6043 
 796 0e35 24308794 		.ascii	"$0\207\224`\216R0\317\363*\276\215k\030\226\216\342"
 796      608E5230 
 796      CFF32ABE 
 796      8D6B1896 
 796      8EE2
 797 0e47 F377B5DC 		.ascii	"\363w\265\334?\275\033,\004%H\202\022\224\202\022\251"
 797      3FBD1B2C 
 797      04254882 
 797      12948212 
 797      A9
 798 0e58 A01B6DE1 		.ascii	"\240\033m\341p\013|\213I\232\255K\310r\301\367hC\335"
 798      700B7C8B 
 798      499AAD4B 
 798      C872C1F7 
 798      6843DD
 799 0e6b B45432ED 		.ascii	"\264T2\355h\336\207\354>n\367\202\355C\246`-J\302\212"
 799      68DE87EC 
 799      3E6EF782 
 799      ED43A660 
 799      2D4AC28A 
 800 0e7f E757569F 		.ascii	"\347WV\237\203%c\253\017 \323\302\253\012\034\251\357"
 800      832563AB 
 800      0F20D3C2 
 800      AB0A1CA9 
 800      EF
 801 0e90 8828E6BB 		.ascii	"\210(\346\273ES\303Qd\366g*\246'OL\034/r\262\355\320"
 801      4553C351 
 801      64F6672A 
 801      A6274F4C 
 801      1C2F72B2 
 802 0ea6 13D4A1C7 		.ascii	"\023\324\241\307E\207\026\207e\266\"\356P\030\004-c"
 802      45871687 
 802      65B622EE 
 802      5018042D 
 802      63
 803 0eb7 6C100017 		.ascii	"l\020\000\027:&\301=\246tC\032uC\345\375\203\221.\370"
 803      3A26C13D 
 803      A674431A 
 803      7543E5FD 
 803      83912EF8 
 804 0ecb 90237543 		.ascii	"\220#uCkrl\275\2538\010>3;\224H:)I:\251\224t\212J\212"
 804      6B726CBD 
 804      AB38083E 
 804      333B9448 
 804      3A29493A 
 805 0ee5 CACB1ED5 		.ascii	"\312\313\036\325\3423L\322\343Gq\317\265\324,\002\235"
 805      E2334CD2 
 805      E34771CF 
 805      B5D42C02 
 805      9D
 806 0ef6 997A31B8 		.ascii	"\231z1\270\263\324\215\236#\263\316if\352\221\344K9"
 806      B3D48D9E 
 806      23B3CE69 
 806      66EA91E4 
 806      4B39
ARM GAS  /tmp/cc6udcVC.s 			page 65


 807 0f08 C8E6703F 		.ascii	"\310\346p?K-=#Zz\344h\303\260\232X\312VE915\007L'\021"
 807      4B2D3D23 
 807      5A7AE468 
 807      C3B09A58 
 807      CA564539 
 808 0f22 6543E912 		.ascii	"eC\351\022\300t\314\266c\3219\012\354\226\251|\031\343"
 808      C074CCB6 
 808      63D1390A 
 808      EC96A97C 
 808      19E3
 809 0f34 0206AC61 		.ascii	"\002\006\254a\370X\202\004\202\001\233\251kn\022\344"
 809      F8588204 
 809      82019BA9 
 809      6B6E12E4 
 810 0f44 18C82509 		.ascii	"\030\310%\011\304y\012\"S\004\021Wg\032v\343 \232\027"
 810      C4790A22 
 810      53041157 
 810      671A76E3 
 810      209A17
 811 0f57 FE242E24 		.ascii	"\376$.$\315\235\260\240\014\011@\206\010 \213\0028}"
 811      CD9DB0A0 
 811      0C094086 
 811      08208B02 
 811      387D
 812 0f69 78F117F8 		.ascii	"x\361\027\370\032\323?\037\324Y\241\265io\016U\265\225"
 812      1AD33F1F 
 812      D459A1B5 
 812      696F0E55 
 812      B595
 813 0f7b 6B8A6E2E 		.ascii	"k\212n.\232\322pM\263\013\253\250&\340@\331\222\246"
 813      9AD2704D 
 813      B30BABA8 
 813      26E040D9 
 813      92A6
 814 0f8d 6C51532E 		.ascii	"lQS.\325T\0257\325 \340\026\246\352\356\211[\221,"
 814      D5541537 
 814      D520E016 
 814      A6EAEE89 
 814      5B912C
 815 0fa0 B51ACDA6 		.ascii	"\265\032\315\246\266\224Uw\251m\252\277@\325\347\213"
 815      B6945577 
 815      A96DAABF 
 815      40D5E78B 
 816 0fb0 96F69E1D 		.ascii	"\226\366\236\035Jv\342\372\341v\377v\372\276\362_Q&"
 816      4A76E2FA 
 816      E176FF76 
 816      FABEF25F 
 816      5126
 817 0fc2 942721C8 		.ascii	"\224'!\310\023\021\0240g?\271Z\346\204{\031\202\302"
 817      13111430 
 817      673FB95A 
 817      E6847B19 
 817      82C2
 818 0fd4 BEC36B28 		.ascii	"\276\303k(\000\262\340a\000:\332\322mW\367KT\377EQ\177"
 818      00B2E061 
 818      003ADAD2 
 818      6D57F74B 
ARM GAS  /tmp/cc6udcVC.s 			page 66


 818      54FF4551 
 819 0fe9 DFF58E04 		.ascii	"\337\365\216\004W\256\377Q#\316\312\243\372\201\011"
 819      57AEFF51 
 819      23CECAA3 
 819      FA8109
 820 0ff8 154AFA0B 		.ascii	"\025J\372\013E\375\227\251"
 820      45FD97A9 
 821 1000 FE89DE88 		.ascii	"\376\211\336\210\373v\370!\323\337\231\360*\032K\006"
 821      FB76F821 
 821      D3DF99F0 
 821      2A1A4B06 
 822 1010 F44B0614 		.ascii	"\364K\006\024I\002\212D\001W\250\200\232\321\362L\015"
 822      49028A44 
 822      0157A880 
 822      9AD1F24C 
 822      0D
 823 1021 7ECE0458 		.ascii	"~\316\004X\033\261%\245\317\213\325f\253JX\032\0377"
 823      1BB125A5 
 823      CF8BD566 
 823      AB4A581A 
 823      1F37
 824 1033 8D1F116C 		.ascii	"\215\037\021l\217\3302jX\251hXt\377\211\203X\312\343"
 824      8FD8326A 
 824      58A96858 
 824      74FF8983 
 824      58CAE3
 825 1046 EC3C9EC7 		.ascii	"\354<\236\307\300\206\212%d\305\"\262\253\024Y\367\263"
 825      C0868A25 
 825      64C522B2 
 825      AB1459F7 
 825      B3
 826 1057 B94A2D8E 		.ascii	"\271J-\216d\317\200\"\206\303\333\265l\322\234\247;"
 826      64CF8022 
 826      86C3DBB5 
 826      6CD29CA7 
 826      3B
 827 1068 7AE92FE7 		.ascii	"z\351/\347\354\370\013\034\344y\365\362XO:\337\307\233"
 827      ECF80B1C 
 827      E479F5F2 
 827      584F3ADF 
 827      C79B
 828 107a 24D78F8E 		.ascii	"$\327\217\2166M;\342h\326\371\351p\310i7\234\310\032"
 828      364D3BE2 
 828      68D6F9E9 
 828      70C86937 
 828      9CC81A
 829 108d 690D11CD 		.ascii	"i\015\021\315\2168\2055\362c\203\2020\316f\215\272g"
 829      8E388535 
 829      F2638382 
 829      30CE668D 
 829      BA67
 830 109f FB27E813 		.ascii	"\373'\350\023\206\220\327?a\300G\212\262a%a^\350(nt"
 830      8690D73F 
 830      61C0478A 
 830      B2612561 
 830      5EE8286E 
 831 10b4 ABC1A29B 		.ascii	"\253\301\242\233|\335P\007\225\261\326\274\320\011\015"
ARM GAS  /tmp/cc6udcVC.s 			page 67


 831      7CDD5007 
 831      95B1D6BC 
 831      D0090D
 832 10c3 3195D70C 		.ascii	"1\225\327\014\276}\230\256-k\240\376\335\340\2546\327"
 832      BE7D98AE 
 832      2D6BA0FE 
 832      DDE0AC36 
 832      D7
 833 10d4 ED35036C 		.ascii	"\3555\003l\371ws\305Bgx\377\363<\001_\246\310\325\217"
 833      F97773C5 
 833      426778FF 
 833      F33C015F 
 833      A6C8D58F 
 834 10e8 C6475A5C 		.ascii	"\306GZ\\\315\013\035X\026\326\206\320\255\202F\220]"
 834      CD0B1D58 
 834      16D686D0 
 834      AD824690 
 834      5D
 835 10f9 2F39F8A6 		.ascii	"/9\370\246l\261\243\000\335\000@\255\201&\213\235\304"
 835      6CB1A300 
 835      DD0040AD 
 835      81268B9D 
 835      C4
 836 110a B1FD2EF8 		.ascii	"\261\375.\370\006\363\321\303\332\331\373\016\270\221"
 836      06F3D1C3 
 836      DAD9FB0E 
 836      B891
 837 1118 3586B32B 		.ascii	"5\206\263+\367kp\033k\344f\277\314g%\360Kq\364=.l<\203"
 837      F76B701B 
 837      6BE466BF 
 837      CC6725F0 
 837      4B71F43D 
 838 1130 6D66FF2D 		.ascii	"mf\377-\232$\255b\222\\\314kL\325\312\327T\267\310\320"
 838      9A24AD62 
 838      925CCC6B 
 838      4CD5CAD7 
 838      54B7C8D0 
 839 1144 377BBF0D 		.ascii	"7{\277\015\2137`\344\001W\321\341,'\334\315\214\037"
 839      8B3760E4 
 839      0157D1E1 
 839      2C27DCCD 
 839      8C1F
 840 1156 BC593AE2 		.ascii	"\274Y:\342d\371\204F\336\025u\2029Ro\276\312MZ\025L"
 840      64F98446 
 840      DE157582 
 840      39526FBE 
 840      CA4D5A15 
 841 116b FCDA01E7 		.ascii	"\374\332\001\347\333%\007\265a\376\220\246\374bI\241"
 841      DB2507B5 
 841      61FE90A6 
 841      FC6249A1 
 842 117b 331E6296 		.ascii	"3\036b\226M-\246\026\361\334Z\013\315W\203\261\261\366"
 842      4D2DA616 
 842      F1DC5A0B 
 842      CD5783B1 
 842      B1F6
 843 118d 7C8B983C 		.ascii	"|\213\230<\343\316I\233I\305x\212\361\226\277\274\322"
ARM GAS  /tmp/cc6udcVC.s 			page 68


 843      E3CE499B 
 843      49C5788A 
 843      F196BFBC 
 843      D2
 844 119e E78C9FD3 		.ascii	"\347\214\237\323\2066\265!)\024\2415tWw\275\373\232"
 844      8636B521 
 844      2914A135 
 844      745777BD 
 844      FB9A
 845 11b0 F5F265E6 		.ascii	"\365\362e\346m\274\016uc\362\"\003\300\273\313=?\002"
 845      6DBC0E75 
 845      63F22203 
 845      C0BBCB3D 
 845      3F02
 846 11c2 C703783D 		.ascii	"\307\003x=\032\006\272\0074\0104\304#!3\257\317b\265"
 846      1A06BA07 
 846      340834C4 
 846      232133AF 
 846      CF62B5
 847 11d5 D9CF569B 		.ascii	"\331\317V\233|\221\233\264:\224\030FXz%\303\356\342"
 847      7C919BB4 
 847      3A941846 
 847      587A25C3 
 847      EEE2
 848 11e7 35F2DBD2 		.ascii	"5\362\333\322\205:~[\012}\351F\316]\353I\310\267}Z\370"
 848      853A7E5B 
 848      0A7DE946 
 848      CE5DEB49 
 848      C8B77D5A 
 849 11fc ED10F156 		.ascii	"\355\020\361V\013Vp\257\274\035Zj\341\267r\220\010="
 849      0B5670AF 
 849      BC1D5A6A 
 849      E1B77290 
 849      083D
 850 120e 4AF6154F 		.ascii	"J\366\025Ouz\177\311n\236\010\024\262\003\267\022\012"
 850      757A7FC9 
 850      6E9E0814 
 850      B203B712 
 850      0A
 851 121f 93CD03D7 		.ascii	"\223\315\003\327\302\006\304]\313\001a\325\263]\\\367"
 851      C206C45D 
 851      CB0161D5 
 851      B35D5CF7 
 852 122f 9B3CCB70 		.ascii	"\233<\313p\214\212V\222\322\327l\335\312M\374a\310\231"
 852      8C8A5692 
 852      D2D76CDD 
 852      CA4DFC61 
 852      C899
 853 1241 8AD9722D 		.ascii	"\212\331r-\016s\242!_,\310Y\324\340\024\326\210\271"
 853      0E73A221 
 853      5F2CC859 
 853      D4E014D6 
 853      88B9
 854 1253 D4B7E886 		.ascii	"\324\267\350\206\317\320\206:)\357\344\014\266\365\362"
 854      CFD0863A 
 854      29EFE40C 
 854      B6F5F2
ARM GAS  /tmp/cc6udcVC.s 			page 69


 855 1262 D0989545 		.ascii	"\320\230\225E\223y\011\306\037\005?\004(\017\224K\260"
 855      937909C6 
 855      1F053F04 
 855      280F944B 
 855      B0
 856 1273 04AC294F 		.ascii	"\004\254)O(\312@\244\000A^Y\335M\276\017\235\306\271"
 856      28CA40A4 
 856      00415E59 
 856      DD4DBE0F 
 856      9DC6B9
 857 1286 E98F41D1 		.ascii	"\351\217A\321#0\367\011\320S\240\011\254\330\224MjP"
 857      2330F709 
 857      D053A009 
 857      ACD8944D 
 857      6A50
 858 1298 64C3F8EB 		.ascii	"d\303\370\353JRs\017\213\3008\266\362Hi\264\207\207"
 858      4A52730F 
 858      8BC038B6 
 858      F24869B4 
 858      8787
 859 12aa 5E8CE64A 		.ascii	"^\214\346JQ\362L\231\355\345>'\206\216b\005\373\312"
 859      51F24C99 
 859      EDE53E27 
 859      868E6205 
 859      FBCA
 860 12bc CC9AFE3F 		.ascii	"\314\232\376?,W\304\020Ya\027Ct\250\276`\334\036\347"
 860      2C57C410 
 860      59611743 
 860      74A8BE60 
 860      DC1EE7
 861 12cf B140DC4A 		.ascii	"\261@\334J-\210pEk\334\255\372j\032\374\363&_\231\013"
 861      2D887045 
 861      6BDCADFA 
 861      6A1AFCF3 
 861      265F990B 
 862 12e3 6B69C851 		.ascii	"ki\310Q\022\230)\340\237\224\0023\216\331-0\272r\365"
 862      129829E0 
 862      9F940233 
 862      8ED92D30 
 862      BA72F5
 863 12f6 C9FBAC52 		.ascii	"\311\373\254R\254#S\347\235\251r\376\246\314\020\251"
 863      AC2353E7 
 863      9DA972FE 
 863      A6CC10A9 
 864 1306 14F9CD07 		.ascii	"\024\371\315\007S\240\222\262L\311\211\013:\244\306"
 864      53A092B2 
 864      4CC9890B 
 864      3AA4C6
 865 1315 0DACD113 		.ascii	"\015\254\321\023\376\254\336\016\367\320\206CEaP\004"
 865      FEACDE0E 
 865      F7D08643 
 865      45615004 
 866 1325 E64F63DD 		.ascii	"\346Oc\335\327\230\303T\233\305\303$n3,\333\260\236"
 866      D798C354 
 866      9BC5C324 
 866      6E332CDB 
 866      B09E
ARM GAS  /tmp/cc6udcVC.s 			page 70


 867 1337 6F35DE91 		.ascii	"o5\336\221m\326\316a\005\273\345\206\012\330\326\325"
 867      6DD6CE61 
 867      05BBE586 
 867      0AD8D6D5 
 868 1347 AFD8F3B0 		.ascii	"\257\330\363\260\"]\036\212\211~\231\370cJ\376\025["
 868      225D1E8A 
 868      897E99F8 
 868      634AFE15 
 868      5B
 869 1358 2A4B7DAB 		.ascii	"*K}\253\017\231\010\273x{\277l\375\366\236\347\205\\"
 869      0F9908BB 
 869      787BBF6C 
 869      FDF69EE7 
 869      855C
 870 136a 78A275E1 		.ascii	"x\242u\341\362\2520\313\037s.\333\256\012\317\240*\314"
 870      F2AA30CB 
 870      1F732EDB 
 870      AE0ACFA0 
 870      2ACC
 871 137c 90AA30CB 		.ascii	"\220\2520\313]A\037\264@\270\027!\314\363@\013@/\201"
 871      5D411FB4 
 871      40B81721 
 871      CCF3400B 
 871      402F81
 872 138f 5E01BD90 		.ascii	"^\001\275\220f\277{O\217\216\011x\230\345\321`g{\265"
 872      66BF7B4F 
 872      8F8E0978 
 872      98E5D160 
 872      677BB5
 873 13a2 8B228FCC 		.ascii	"\213\"\217\314\202\203\005\367o,\330\234O)U1$\237\202"
 873      828305F7 
 873      6F2CD89C 
 873      4F295531 
 873      249F82
 874 13b5 8435C824 		.ascii	"\2045\310$\230\363iY\314\247\326g\3510\303N\260$\251"
 874      98F36959 
 874      CCA7D667 
 874      E930C34E 
 874      B024A9
 875 13c8 4C2BF90E 		.ascii	"L+\371\016\236g\307\317\016\365\016\272\342\227\254"
 875      9E67C7CF 
 875      0EF50EBA 
 875      E297AC
 876 13d7 3196D30E 		.ascii	"1\226\323\016\223X\2603{c1\254\265X-{#\351o;\350\033"
 876      9358B033 
 876      7B6331AC 
 876      B5582D7B 
 876      23E96F3B 
 877 13ed 49118216 		.ascii	"I\021\202\026\355\023\276\311\335\\\270`\355n\016g'"
 877      ED13BEC9 
 877      DD5CB860 
 877      ED6E0E67 
 877      27
 878 13fe B66F46EE 		.ascii	"\266oF\356\353\371\032\243{\277\375|\001\331z\212\022"
 878      EBF91AA3 
 878      7BBFFD7C 
 878      01D97A8A 
ARM GAS  /tmp/cc6udcVC.s 			page 71


 878      12
 879 140f AC958104 		.ascii	"\254\225\201\004{6P\211\3260\320\012\\\337\364A\201"
 879      7B365089 
 879      D630D00A 
 879      5CDFF441 
 879      81
 880 1420 8A321327 		.ascii	"\2122\023'\356\007 \221\2029\022S\351\017;58\223Y\371"
 880      EE072091 
 880      82391253 
 880      E90F3B35 
 880      389359F9 
 881 1434 B0F06694 		.ascii	"\260\360f\224\024\011\305b\346 t\264&\204\277\237A\367"
 881      1409C562 
 881      E62074B4 
 881      2684BF9F 
 881      41F7
 882 1446 81A2E1FA 		.ascii	"\201\242\341\372\001\311\037\304\014\242\305\276\372"
 882      01C91FC4 
 882      0CA2C5BE 
 882      FA
 883 1453 6A64959A 		.ascii	"jd\225\232>\260\205\342j\336\220n\312\341c\217t\013"
 883      3EB085E2 
 883      6ADE906E 
 883      CAE1638F 
 883      740B
 884 1465 856EB172 		.ascii	"\205n\261r\203*\260\365\007E\345\220\032\327Ij\204\360"
 884      832AB0F5 
 884      0745E590 
 884      1AD7496A 
 884      84F0
 885 1477 1E04D021 		.ascii	"\036\004\320!\000tXX\217\342\201\216\000\305\001\305"
 885      00745858 
 885      8FE2818E 
 885      00C501C5 
 886 1487 08F2BDB0 		.ascii	"\010\362\275\260J\037\266AHv\365*1\353i~DW\243\034Y"
 886      4A1FB641 
 886      4876F52A 
 886      31EB697E 
 886      4457A31C 
 887 149c 955F316E 		.ascii	"\225_1nR\222\2328\267\271\266\311\237\012\363\025\345"
 887      52929A38 
 887      B7B9B6C9 
 887      9F0AF315 
 887      E5
 888 14ad 381B2AB1 		.ascii	"8\033*\261+\342F6\370\306\371(%\371\370\234\0133'\270"
 888      2BE24636 
 888      F8C6F928 
 888      25F9F89C 
 888      0B3327B8 
 889 14c1 72077AE4 		.ascii	"r\007z\344+\026d\262\312\254\302\012\237\310\037\316"
 889      2B1664B2 
 889      CAACC20A 
 889      9FC81FCE 
 890 14d1 41F0AE86 		.ascii	"A\360\256\206\205\316\272\340\022\026\274\352\353Q\011"
 890      85CEBAE0 
 890      1216BCEA 
 890      EB5109
ARM GAS  /tmp/cc6udcVC.s 			page 72


 891 14e0 5AC53032 		.ascii	"Z\30502\373*\021\374\363M|e\036BMU\007\311\020J\200"
 891      FB2A11FC 
 891      F34D7C65 
 891      1E424D55 
 891      07C9104A 
 892 14f5 3E47A580 		.ascii	">G\245\200\306\362\200\242\374\233\265\203.\337K\027"
 892      C6F280A2 
 892      FC9BB583 
 892      2EDF4B17 
 893 1505 6F3E6262 		.ascii	"o>bb\032L\246\223j\312~\215Up\263n\0259C\366\016\204"
 893      1A4CA693 
 893      6ACA7E8D 
 893      5570B36E 
 893      153943F6 
 894 151b EF919A3C 		.ascii	"\357\221\232<\277\374O\362\365h\273\305\263\225$\201"
 894      BFFC4FF2 
 894      F568BBC5 
 894      B3952481 
 895 152b AEBAC82F 		.ascii	"\256\272\310/\360\036\036\033O\301\270\206\232\207\022"
 895      F01E1E1B 
 895      4FC1B886 
 895      9A8712
 896 153a 4FC797B1 		.ascii	"O\307\227\261{n\270\310\227\302\321\371\025\251v6\227"
 896      7B6EB8C8 
 896      97C2D1F9 
 896      15A97636 
 896      97
 897 154b C2A90259 		.ascii	"\302\251\002Y\012\247\010|)\234\233{\271\210\334\010"
 897      0AA7087C 
 897      299C9B7B 
 897      B988DC08 
 898 155b 96937D89 		.ascii	"\226\223}\211(\3146&\0003\260\241d\311D8\264\334\230"
 898      28CC3626 
 898      0033B0A1 
 898      64C94438 
 898      B4DC98
 899 156e 382E90FB 		.ascii	"8.\220\373\246\241\007\317\2134\370\026\303\022qs\240"
 899      A6A107CF 
 899      8B34F816 
 899      C3127173 
 899      A0
 900 157f 93BF79FA 		.ascii	"\223\277y\372\0264\263\233n\366\363\027\177\"\310\214"
 900      1634B39B 
 900      6EF6F317 
 900      7F22C88C 
 901 158f 74B269E6 		.ascii	"t\262i\346\250\026\0172\336\013g\227\372]\265\322\273"
 901      A8160F32 
 901      DE0B6797 
 901      FA5DB5D2 
 901      BB
 902 15a0 A4A49364 		.ascii	"\244\244\223dp\272@^\310\362`\211\005\334my}\261\216"
 902      70BA405E 
 902      C8F26089 
 902      05DC6D79 
 902      7DB18E
 903 15b3 AB637908 		.ascii	"\253cy\010\337A\364\315\260\223\302:\224&\020\366\323"
 903      DF41F4CD 
ARM GAS  /tmp/cc6udcVC.s 			page 73


 903      B093C23A 
 903      942610F6 
 903      D3
 904 15c4 C26AB113 		.ascii	"\302j\261\023\341~~\375\340s\215\234\373\350\353\270"
 904      E17E7EFD 
 904      E0738D9C 
 904      FBE8EBB8 
 905 15d4 1B0BE30A 		.ascii	"\033\013\343\0120\304\254\265\234n\361\244\336\0155"
 905      30C4ACB5 
 905      9C6EF1A4 
 905      DE0D35
 906 15e3 05ED83A4 		.ascii	"\005\355\203\244=#\254F\247\300\001\221\370]Y\347\023"
 906      3D23AC46 
 906      A7C00191 
 906      F85D59E7 
 906      13
 907 15f4 70E60BB5 		.ascii	"p\346\013\265\012\235\245a\213\274\334> \330\264\342"
 907      0A9DA561 
 907      8BBCDC3E 
 907      20D8B4E2 
 908 1604 9C68C546 		.ascii	"\234h\305Fj\304\201'\267\022\235\225FHq\311\240\260"
 908      6AC48127 
 908      B7129D95 
 908      464871C9 
 908      A0B0
 909 1616 681FDA20 		.ascii	"h\037\332 \363\301\313\234\022\376\356\265\006\232s"
 909      F3C1CB9C 
 909      12FEEEB5 
 909      069A73
 910 1625 7969CD2E 		.ascii	"yi\315.6\265\235\027\265e\012T\335\263\310\2609\376"
 910      36B59D17 
 910      B5650A54 
 910      DDB3C8B0 
 910      39FE
 911 1637 3F0AE4A6 		.ascii	"?\012\344\246U\374\017\202\265\354?\010\372Z\263k\\"
 911      55FC0F82 
 911      B5EC3F08 
 911      FA5AB36B 
 911      5C
 912 1648 9460B2C1 		.ascii	"\224`\262\301\314,jf\016\005s\236\201\311\241`\232{"
 912      CC2C6A66 
 912      0E05739E 
 912      81C9A160 
 912      9A7B
 913 165a CEDEC16B 		.ascii	"\316\336\301k\3700\212\260\365\354[e\361`\032\272M\017"
 913      F8308AB0 
 913      F5EC5B65 
 913      F1601ABA 
 913      4D0F
 914 166c DD8AB397 		.ascii	"\335\212\263\227\247v\256 O\355<\236\332y4\265\353{"
 914      A776AE20 
 914      4FED3C9E 
 914      DA7934B5 
 914      EB7B
 915 167e E2EB90C8 		.ascii	"\342\353\220\310\034\361\2327\012P>\345\237*\035\276"
 915      1CF19A37 
 915      0A503EE5 
ARM GAS  /tmp/cc6udcVC.s 			page 74


 915      9F2A1DBE 
 916 168e EC22177E 		.ascii	"\354\"\027~\326\342>\356\002\027~\2012\037\010;\037"
 916      D6E23EEE 
 916      02177E81 
 916      321F083B 
 916      1F
 917 169f 648F1FB2 		.ascii	"d\217\037\262\374\253;|\366\2603O\373\356\343\366uQ"
 917      FCAB3B7C 
 917      F6B0334F 
 917      FBEEE3F6 
 917      7551
 918 16b1 E44DA120 		.ascii	"\344M\241 \323'\237\321]\240\002)\361\013\224\211_H"
 918      D3279FD1 
 918      5DA00229 
 918      F10B9489 
 918      5F48
 919 16c3 13FFECDC 		.ascii	"\023\377\354\334|\224+\216wa\357\264\277\232\036\022"
 919      7C942B8E 
 919      7761EFB4 
 919      BF9A1E12 
 920 16d3 C7D04C36 		.ascii	"\307\320L6.)\274g2\001\250P$Pi\027%i\027\225\322.Qi"
 920      2E29BC67 
 920      3201A850 
 920      24506917 
 920      25691795 
 921 16eb DDA395DB 		.ascii	"\335\243\225\333p\012\023v>\347x\276+>\317\032Q\225"
 921      700A1376 
 921      3EE778BE 
 921      2B3ECF1A 
 921      5195
 922 16fd 55291A18 		.ascii	"U)\032\030\336\250\210t\244\023\363\213\301Ut\274\227"
 922      DEA88874 
 922      A413F38B 
 922      C15574BC 
 922      97
 923 170e 9A37FFAA 		.ascii	"\2327\377\252\363\263^\271\332\034\357%t\274\027\213"
 923      F3B35EB9 
 923      DA1CEF25 
 923      74BC178B 
 924 171e E37D34F9 		.ascii	"\343}4\371h\276\023\307z3\317\276\357i33\274VM8\321"
 924      68BE13C7 
 924      7A33CFBE 
 924      EF693333 
 924      BC564D38 
 925 1733 65112BBA 		.ascii	"e\021+\272\"\010\244e\011\267\224\031_=\361\020\341"
 925      2208A465 
 925      09B79419 
 925      5F3DF110 
 925      E1
 926 1744 1906B1E7 		.ascii	"\031\006\261\347\370\342)W\212(\317\\\201\232n\264'"
 926      F8E22957 
 926      8A28CF5C 
 926      819A6EB4 
 926      27
 927 1755 DAE36057 		.ascii	"\332\343`W\372z\347\303\353\323j@C\376\034\335\311+"
 927      FA7AE7C3 
 927      EBD36A40 
ARM GAS  /tmp/cc6udcVC.s 			page 75


 927      43FE1CDD 
 927      C92B
 928 1767 99158223 		.ascii	"\231\025\202#{\227s\025=\014\247/e\006\307\256B\346"
 928      7B977315 
 928      3D0CA72F 
 928      6506C7AE 
 928      42E6
 929 1779 97322BA1 		.ascii	"\2272+\241\026\223K*t\035R\262\\\340w+&\372V(\\@\327"
 929      16934B2A 
 929      741D52B2 
 929      5CE0772B 
 929      26FA5628 
 930 1790 04F35BA1 		.ascii	"\004\363[\241d\233%&u\330b\347\215\260H\036\250\242"
 930      649B2526 
 930      75D862E7 
 930      8DB0481E 
 930      A8A2
 931 17a2 1EB82A7A 		.ascii	"\036\270*z`\341\374\262\350\000\250\321\217/\344\327"
 931      60E1FCB2 
 931      E800A8D1 
 931      8F2FE4D7 
 932 17b2 0599D686 		.ascii	"\005\231\326\206n&l\250L\012U\231\322\366jj{P\315\271"
 932      6E266CA8 
 932      4C0A5599 
 932      D2F66A6A 
 932      7B50CDB9 
 933 17c6 107B1CE1 		.ascii	"\020{\034\341j\263\372\216\264_"
 933      6AB3FA8E 
 933      B45F
 934 17d0 0B77B3BD 		.ascii	"\013w\263\275\343y\223\202\251\021\301\244\016\327N"
 934      E3799382 
 934      A911C1A4 
 934      0ED74E
 935 17df 081CCD6C 		.ascii	"\010\034\315l2.\206uN\230\311T)\020>tCBsC\211\246\226"
 935      322E8675 
 935      4E98C954 
 935      29103E74 
 935      43427343 
 936 17f6 A2699D28 		.ascii	"\242i\235(=\340\204\223\030\232\214\320\203\313\032"
 936      3DE08493 
 936      189A8CD0 
 936      83CB1A
 937 1805 29A7EF58 		.ascii	")\247\357X\346t\235$\254N)\254\236\025\363\023\017\016"
 937      E6749D24 
 937      AC4E29AC 
 937      9E15F313 
 937      0F0E
 938 1817 B9E0B34C 		.ascii	"\271\340\263LX\303\265\364N;)\247\307\0259\335 IkPJ"
 938      58C3B5F4 
 938      4E3B29A7 
 938      C71539DD 
 938      20496B50 
 939 182c 6BA4D2AE 		.ascii	"k\244\322\256\364\227\205c\\\300\244\245\217\027W\361"
 939      F4978563 
 939      5CC0A4A5 
 939      8F1757F1 
 940 183c FF817181 		.ascii	"\377\201q\201f\377\251\303g\004V\214\036\222\313U\217"
ARM GAS  /tmp/cc6udcVC.s 			page 76


 940      66FFA9C3 
 940      6704568C 
 940      1E92CB55 
 940      8F
 941 184d 2FCEB9D9 		.ascii	"/\316\271\331\254l\255be\033a\263\301\225\326\342d'"
 941      AC6CAD62 
 941      651B61B3 
 941      C195D6E2 
 941      6427
 942 185f 65ED6A81 		.ascii	"e\355j\201Di\246\265\353\026\255]\255b}/\354\331\227"
 942      4469A6B5 
 942      EB16AD5D 
 942      AD627D2F 
 942      ECD997
 943 1872 E8A89C0D 		.ascii	"\350\250\234\015lr_=w`\321I\232\015J\305\331\240\215"
 943      6C725F3D 
 943      7760D149 
 943      9A0D4AC5 
 943      D9A08D
 944 1885 CF060760 		.ascii	"\317\006\007`6\220:7\361\331\240\235\316\006Q\027\236"
 944      36903A37 
 944      F1D9A09D 
 944      CE065117 
 944      9E
 945 1896 2539CAAB 		.ascii	"%9\312\253\321y\213j\324\301\253Q\007\255F\271\251M"
 945      D1798B6A 
 945      D4C1AB51 
 945      07AD46B9 
 945      A94D
 946 18a8 4D6EB89C 		.ascii	"Mn\270\234\271\347U\177\320\022\177e\326U\266\301\270"
 946      B9E7557F 
 946      D0127F65 
 946      D655B6C1 
 946      B8
 947 18b9 966F302E 		.ascii	"\226o0.UOv\333.\374\267E\3674\263\302\037\323}'x\305"
 947      554F76DB 
 947      2EFCB745 
 947      F734B3C2 
 947      1FD37D27 
 948 18cf 64D90D98 		.ascii	"d\331\015\230\273(\346\036j\360m\321\340\352\216\320"
 948      BB28E61E 
 948      6AF06DD1 
 948      E0EA8ED0 
 949 18df 3EAC748F 		.ascii	">\254t\217M\356G\303#\007\264\334=m\337\015J+\017z\007"
 949      4DEE47C3 
 949      2307B4DC 
 949      3D6DDF0D 
 949      4A2B0F7A 
 950 18f4 F572D71C 		.ascii	"\365r\327\034\004\327H\035;\271k\372\250k\006\347\273"
 950      04D7481D 
 950      3BB96BFA 
 950      A86B06E7 
 950      BB
 951 1905 079CE5AE 		.ascii	"\007\234\345\256\311\261pM?wM?uMSfW\246\023nf\256\031"
 951      C9B1704D 
 951      3F774D3F 
 951      754D5366 
ARM GAS  /tmp/cc6udcVC.s 			page 77


 951      57A6136E 
 952 191c 7BD0D76F 		.ascii	"{\320\327o\3175V\376\025\323(N\315\361\026S\363\035"
 952      CF3556FE 
 952      15D3284E 
 952      CDF11653 
 952      F31D
 953 192e AE71806A 		.ascii	"\256q\200j\254n+/\266\330\342K\260\230w\006\271\306"
 953      AC6E2B2F 
 953      B6D8E24B 
 953      B0987706 
 953      B9C6
 954 1940 41AA7134 		.ascii	"A\252q4\357j\230\305\013\247\027,\340\015q\346!\312"
 954      EF6A98C5 
 954      0BA7172C 
 954      E00D71E6 
 954      21CA
 955 1952 9C56D8F5 		.ascii	"\234V\330\365\310M\316|\311\202y\2303\017S\346\033\015"
 955      C84DCE7C 
 955      C9827998 
 955      330F53E6 
 955      1B0D
 956 1964 A74F62DC 		.ascii	"\247Ob\334\317ly\032y>\325Y^\032\032-J\303]A\376\204"
 956      CF6C791A 
 956      793ED559 
 956      5E1A1A2D 
 956      4AC35D41 
 957 197a C2543FD8 		.ascii	"\302T?\330\256\345\003p\3566\276\036&\026j\2010\242"
 957      AEE50370 
 957      EE36BE1E 
 957      26166A81 
 957      30A2
 958 198c 1169008E 		.ascii	"\021i\000\216(\007\340=:\000\3175\326\234\326\340\247"
 958      2807E03D 
 958      3A00CF35 
 958      D69CD6E0 
 958      A7
 959 199d B62BD59D 		.ascii	"\266+\325\235\266\226A\301\374\274fT`O\222f/\027\272"
 959      B69641C1 
 959      FCBC6654 
 959      604F9266 
 959      2F17BA
 960 19b0 D89C4C1E 		.ascii	"\330\234L\036R\210\017\304\352\325Qw>X\220jiR!\253\245"
 960      52880FC4 
 960      EAD55177 
 960      3E58906A 
 960      695221AB 
 961 19c5 8E840FDD 		.ascii	"\216\204\017\335\227\020\336W\"\034\243\010\033\247"
 961      9710DE57 
 961      221CA308 
 961      1BA7
 962 19d3 BA825D71 		.ascii	"\272\202]q\220\033\373_\244\236\320b\276zt\202fl\303"
 962      901BFB5F 
 962      A49ED062 
 962      BE7A7482 
 962      666CC3
 963 19e6 E0EF6CA6 		.ascii	"\340\357l\246\374c1\345\037\261\224\017\232I\177\264"
 963      FC6331E5 
ARM GAS  /tmp/cc6udcVC.s 			page 78


 963      1FB1940F 
 963      9A497FB4 
 964 19f6 623523BE 		.ascii	"b5#\276~\244BOh\022?\026\223\270;\355A\265\2632\345"
 964      7EA4424F 
 964      68123F16 
 964      93B83BED 
 964      41B5B332 
 965 1a0b 6D724F45 		.ascii	"mrOE\232\316\"\251\"d=\340\025a\202'\341QHB\251\363"
 965      9ACE22A9 
 965      22643DE0 
 965      15618227 
 965      E1514842 
 966 1a21 384FC2A7 		.ascii	"8O\302\2474\011\273\373\"\272-*\302\021\213T\231\344"
 966      3409BBFB 
 966      22BA2D2A 
 966      C2118B54 
 966      99E4
 967 1a33 A9324953 		.ascii	"\2512IS\245\366\311\344m\213$,\263`\236\342\314Sl\245"
 967      A5F6C9E4 
 967      6D8B242C 
 967      B3609EE2 
 967      CC536CA5 
 968 1a47 147F6AD9 		.ascii	"\024\177j\331\021\3070\327-\025G\025:\333\236rf,\362"
 968      11C730D7 
 968      2D154715 
 968      3ADB9E72 
 968      662CF2
 969 1a5a AA3F3F39 		.ascii	"\252??9\334<\377=\262\317\310\224\362\012\030\321\264"
 969      DC3CFF3D 
 969      B2CFC894 
 969      F20A18D1 
 969      B4
 970 1a6b 14B56965 		.ascii	"\024\265ie\324\236\321\250u\245\267$\273\340\012\246"
 970      D49ED1A8 
 970      75A5B724 
 970      BBE00AA6 
 971 1a7b FA59F1BE 		.ascii	"\372Y\361\276\005\276D]C\226U\301\321\347\370*3\221"
 971      05BE445D 
 971      439655C1 
 971      D1E7F82A 
 971      3391
 972 1a8d ACF92F0C 		.ascii	"\254\371/\014-\226\011\3542YC\216\345V\227\330^\365"
 972      2D9609EC 
 972      3259438E 
 972      E55697D8 
 972      5EF5
 973 1a9f BF10A33A 		.ascii	"\277\020\243:\317\242z\264\2537F\255\214\352\034\214"
 973      CFA27AB4 
 973      AB3746AD 
 973      8CEA1C8C 
 974 1aaf F7593ADE 		.ascii	"\367Y:\336\027h\234^\210q\352\350|\224\341\246\214\252"
 974      17689C5E 
 974      8871EAE8 
 974      7C94E1A6 
 974      8CAA
 975 1ac1 4DEE136D 		.ascii	"M\356\023m\313%\262U\177\377\030\217\352K\036\3254\210"
 975      CB25B255 
ARM GAS  /tmp/cc6udcVC.s 			page 79


 975      7FFF188F 
 975      EA4B1ED5 
 975      3488
 976 1ad3 AAD4F939 		.ascii	"\252\324\3719\217\352\"\215jIn\330\244\305\177\207\234"
 976      8FEA228D 
 976      6A496ED8 
 976      A4C57F87 
 976      9C
 977 1ae4 B008D42B 		.ascii	"\260\010\324+\036(\362\273\312k\347\247\376~\333~\271"
 977      1E28F2BB 
 977      CA6BE7A7 
 977      FE7EDB7E 
 977      B9
 978 1af5 F5F77A2F 		.ascii	"\365\367z/\343f?o\243\303\317~\361\345;\237n\332\244"
 978      E3663F6F 
 978      A3C3CF7E 
 978      F1E53B9F 
 978      6EDAA4
 979 1b08 5AED05E7 		.ascii	"Z\355\005\347\275\215\336\376~\272\335\236\006o\317"
 979      BD8DDEFE 
 979      7EBADD9E 
 979      066FCF
 980 1b17 AD3E7ABB 		.ascii	"\255>z\273\177\335\245\337\245\027\374\364{\214\016"
 980      7FDDA5DF 
 980      A517FCF4 
 980      7B8C0E
 981 1b26 06BDA74F 		.ascii	"\006\275\247O\200\301\333_\253\323\355\362\3663~\360"
 981      80C1DB5F 
 981      ABD3EDF2 
 981      F6337EF0 
 982 1b36 BECEF89E 		.ascii	"\276\316\370\236\307\256@\203\207\267\237\227\317\256"
 982      C7AE4083 
 982      87B79F97 
 982      CFAE
 983 1b44 6D7A0F3F 		.ascii	"mz\017?\375\327>\336[=|=\275vz\373\351=t\333\364\333"
 983      FDD73EDE 
 983      5B3D7C3D 
 983      BD767AFB 
 983      E93D74DB 
 984 1b5a 3D77F918 		.ascii	"=w\371\030u\306\275\001\372\300\015;U\016b\267w\255"
 984      75C6BD01 
 984      FAC00D3B 
 984      550E62B7 
 984      77AD
 985 1b6c 750BDC1B 		.ascii	"u\013\334\033\350\241\0134n\003\036\340\2657\022U:\343"
 985      E8A10B34 
 985      6E031EE0 
 985      B5371255 
 985      3AE3
 986 1b7e C71B3678 		.ascii	"\307\0336x\260?\377@\017/\177__\177?\217\000\177\203"
 986      B03FFF40 
 986      0F2F7F5F 
 986      5F7F3F8F 
 986      007F83
 987 1b91 31D0E327 		.ascii	"1\320\343'\277\376\374\323\317\367\220s\001\336>zC\240"
 987      BFFEFCD3 
 987      CFF79073 
ARM GAS  /tmp/cc6udcVC.s 			page 80


 987      01DE3E7A 
 987      43A0
 988 1ba3 C7CF3EFD 		.ascii	"\307\317>\375\324\303k\247\250\314\336\327\270\307\307"
 988      D4C36BA7 
 988      A8CCDED7 
 988      B8C7C7
 989 1bb2 3BD068E7 		.ascii	";\320h\347\377\265\237\336`\357\273\313\250\337\243"
 989      FFB59FDE 
 989      60EFBBCB 
 989      A8DFA3
 990 1bc1 333A78ED 		.ascii	"3:x\355\324\321C\007}\200\036\214\365\333\341\244\337"
 990      D4D14307 
 990      7D801E8C 
 990      F5DBE1A4 
 990      DF
 991 1bd2 ADF733FA 		.ascii	"\255\3673\372z\006~\005W}\003wP\203\355\277\366\004"
 991      7A067E05 
 991      577D0377 
 991      5083EDBF 
 991      F604
 992 1be4 3FF8ED70 		.ascii	"?\370\355p\003v\343N0|[\240\216\010s\2257tF\264K\243"
 992      0376E34E 
 992      307C5BA0 
 992      8E087395 
 992      377446B4 
 993 1bfa FF9A74D5 		.ascii	"\377\232t\325|m\004u\001\360\023\250\367\015\300^~F"
 993      7C6D0475 
 993      01F013A8 
 993      F70DC05E 
 993      7E46
 994 1c0c 479D8E1B 		.ascii	"G\235\216\033k\317\177\355\340\254\316\350\014\022\201"
 994      6BCF7FED 
 994      E0ACCEE8 
 994      0C1281
 995 1c1b C73360A7 		.ascii	"\3073`\247\277Ao\037HT\007\356\260\003\002\206\257\215"
 995      BF416F1F 
 995      485407EE 
 995      B0030286 
 995      AF8D
 996 1c2d 4643C06A 		.ascii	"FC\300j\246Bg\320o\327\033\364~^z\235\021\304\372o\375"
 996      A64267D0 
 996      6FD71BF4 
 996      7E5E7A9D 
 996      11C4FA6F 
 997 1c42 7D80837E 		.ascii	"}\200\203~\217\267\321\313\177\233^c\330\266\027z\010"
 997      8FB7D1CB 
 997      7F9B5E63 
 997      D8B6177A 
 997      08
 998 1c53 C012E8C8 		.ascii	"\300\022\350\310\202\3611\350\021\177\215\344<\210\333"
 998      82F131E8 
 998      117F8DE4 
 998      3C88DB
 999 1c62 EEE3B923 		.ascii	"\356\343\271#\320\336\350\013=\240\025h\3644\352\035"
 999      D0DEE80B 
 999      3DA01568 
 999      F434EA1D 
ARM GAS  /tmp/cc6udcVC.s 			page 81


 1000 1c72 8CF48788 		.ascii	"\214\364\207\210\364\334\352\031\250\347\241\374\321"
 1000      F4DCEA19 
 1000      A8E7A1FC 
 1000      D1
 1001 1c7f 0FC176F1 		.ascii	"\017\301v\361@\033h\374\312\323\307{\207\237\316\370"
 1001      401B68FC 
 1001      CAD3C77B 
 1001      879FCEF8 
 1002 1c8f 83373A7F 		.ascii	"\2037:\177\247\027\230\001\336\026\374<}\365\202\327"
 1002      A7179801 
 1002      DE16FC3C 
 1002      7DF582D7 
 1003 1c9f 4E4F839D 		.ascii	"NO\203\235\277\3176\275\301\016\202\2527`/\343\036u"
 1003      BFCF36BD 
 1003      C10E82AA 
 1003      37602FE3 
 1003      1E75
 1004 1cb1 6080DAC7 		.ascii	"`\200\332\307\000\311\263\303\323\340\2533b\303\246"
 1004      00C9B3C3 
 1004      D3E0AB33 
 1004      62C3A6
 1005 1cc0 4D401BD5 		.ascii	"M@\033\325\206\037\253\015\037\253\015\037\251\015?"
 1005      861FAB0D 
 1005      1FAB0D1F 
 1005      A90D3F
 1006 1ccf 521B3E54 		.ascii	"R\033>T\033~\350D$\023\247A\247\367\276\231b\335\356"
 1006      1B7EE844 
 1006      2413A741 
 1006      A7F7BE99 
 1006      62DDEE
 1007 1ce2 8F7C41B9 		.ascii	"\217|A\2713\355\011\311\013q5\012$o\034\315q\263\363"
 1007      33ED09C9 
 1007      0B71350A 
 1007      246F1CCD 
 1007      71B3F3
 1008 1cf5 0DF0F7F7 		.ascii	"\015\360\367\367q\340N5\256\222\005\224\245v\200A\277"
 1008      71E04E35 
 1008      AE920594 
 1008      A5768041 
 1008      BF
 1009 1d06 DBCDE294 		.ascii	"\333\315\342\224\316\370\216\\\275\301h\316T\257\235"
 1009      CEF88E5C 
 1009      BDC168CE 
 1009      54AF9D
 1010 1d15 815E3BB7 		.ascii	"\201^;\267\201\306?\263\311\000i\000\327\327\333\026"
 1010      81C63FB3 
 1010      C9006900 
 1010      D7D7DB16 
 1011 1d25 B03750CC 		.ascii	"\2607P\314P\333B A\340\272m\024d\234\002\303\332\225"
 1011      50DB4220 
 1011      41E0BA6D 
 1011      14649C02 
 1011      C3DA95
 1012 1d38 E355675C 		.ascii	"\343Ug\\\247\350\025h\360\022{x\251\234\331\330\337"
 1012      A7E81568 
 1012      F0127B78 
 1012      A99CD9D8 
ARM GAS  /tmp/cc6udcVC.s 			page 82


 1012      DF
 1013 1d49 02D1F5F4 		.ascii	"\002\321\365\364q\22176\273\261\326O\015\376\236\333"
 1013      71913736 
 1013      BBB1D64F 
 1013      0DFE9EDB 
 1014 1d59 BC3C038D 		.ascii	"\274<\003\215\253\024\355\315N\354\304oadl\321J\307"
 1014      AB14EDCD 
 1014      4EECC46F 
 1014      61646CD1 
 1014      4AC7
 1015 1d6b ABA5C32F 		.ascii	"\253\245\303/\274}\365\376\273\214[\\\300H\210\243\336"
 1015      BC7DF5FE 
 1015      BB8C5B5C 
 1015      C04888A3 
 1015      DE
 1016 1d7c B0DBD3E7 		.ascii	"\260\333\323\347u\3164\002?\230\361\326\012\011\000"
 1016      75CE3402 
 1016      3F98F1D6 
 1016      0A0900
 1017 1d8b 738BD7CE 		.ascii	"s\213\327\316\337z~\245\337\025\260\305\2116~\015\361"
 1017      DF7A7EA5 
 1017      DF15B0C5 
 1017      89367E0D 
 1017      F1
 1018 1d9c D9BB7915 		.ascii	"\331\273y\025?\2060\350\267\355\362\321\023 \237\033"
 1018      3F8630E8 
 1018      B7EDF2D1 
 1018      13209F1B 
 1019 1dac F7FCDCDF 		.ascii	"\367\374\334\337\353\253-.\364\332\317\374\267\370\350"
 1019      EBAB2D2E 
 1019      F4DACFFC 
 1019      B7F8E8
 1020 1dbb F5015B9C 		.ascii	"\365\001[\234\351\205/\375|\310\245\265\362K\"J\265"
 1020      E9852FFD 
 1020      7CC8A5B5 
 1020      F24B224A 
 1020      B5
 1021 1dcc D74EADAF 		.ascii	"\327N\255\257'\340\244\261\307\333\266\322\321N\342"
 1021      27E0A4B1 
 1021      C7DBB6D2 
 1021      D14EE2
 1022 1ddb A3F785D2 		.ascii	"\243\367\205\322\265u\327\016\307\000O?o/\035\0145W"
 1022      B575D70E 
 1022      C7004F3F 
 1022      6F2F1D0C 
 1022      3557
 1023 1ded F969183D 		.ascii	"\371i\030=\273\215\264\264l\323\373\030=\205\355\273"
 1023      BB8DB4B4 
 1023      6CD3FB18 
 1023      3D85EDBB 
 1024 1dfd FCBC1C76 		.ascii	"\374\274\034v\033\311\017K\260\335\336\006\343.b:h2"
 1024      1BC90F4B 
 1024      B0DDDE06 
 1024      E32E623A 
 1024      6832
 1025 1e0f E0004F83 		.ascii	"\340\000O\203\233\305\031\235\361[J&VP\034|\300\317"
 1025      9BC5199D 
ARM GAS  /tmp/cc6udcVC.s 			page 83


 1025      F15B4A26 
 1025      56501C7C 
 1025      C0CF
 1026 1e21 A4ED48D4 		.ascii	"\244\355H\324\301\257\316\370GV\330`0\033\310/\030\254"
 1026      C1AFCEF8 
 1026      4756D860 
 1026      301BC82F 
 1026      18AC
 1027 1e33 23D0F7D2 		.ascii	"#\320\367\322\263\366^\273\014P/\214\316\322)\235\321"
 1027      B3F65EBB 
 1027      0C502F8C 
 1027      CED2299D 
 1027      D1
 1028 1e44 D16C91DA 		.ascii	"\321l\221\332\350\253\361\337\276=Po\2647\030i%\372"
 1028      E8ABF1DF 
 1028      BE3D506F 
 1028      B4371869 
 1028      25FA
 1029 1e56 AEEDB890 		.ascii	"\256\355\270\220\354[e\364\325yA\035\330j\360\244\031"
 1029      EC5B65F4 
 1029      D579411D 
 1029      D86AF0A4 
 1029      19
 1030 1e67 667492BC 		.ascii	"ft\222\274c\324\262\201\342\015\263\207\213NG-\327m"
 1030      63D4B281 
 1030      E20DB387 
 1030      8B4E472D 
 1030      D76D
 1031 1e79 F868E3C6 		.ascii	"\370h\343\306\017\035\304\026h\336\2627\220\004\346"
 1031      0F1DC416 
 1031      68DEB237 
 1031      9004E6
 1032 1e88 3569BE97 		.ascii	"5i\276\227\014\003G:zI\234@\024\340\323\375\364'[\376"
 1032      0C03473A 
 1032      7A499C40 
 1032      14E0D3FD 
 1032      F4275BFE 
 1033 1e9c E157BFDE 		.ascii	"\341W\277\336\354\342\351\363\265\347\336@P\342\003"
 1033      ECE2E9F3 
 1033      B5E7DE40 
 1033      50E203
 1034 1eab B3C95F5B 		.ascii	"\263\311_[\251\0100\332I=\360\370\364\363-\233\267x"
 1034      A90830DA 
 1034      493DF0F8 
 1034      F4F32D9B 
 1034      B778
 1035 1ebd 7C0A05C1 		.ascii	"|\012\005\301c\263(\3347\320;P\267\303\313\013\024\270"
 1035      63B328DC 
 1035      37D03B50 
 1035      B7C3CB0B 
 1035      14B8
 1036 1ecf 32B07EFE 		.ascii	"2\260~\376\000=\300\270\327N\367S\250\010o\261\223\333"
 1036      003DC0B8 
 1036      D74EF753 
 1036      A8086FB1 
 1036      93DB
 1037 1ee1 BDB7FB83 		.ascii	"\275\267\373\203\023}\375w\353\235(b\2261\254\026\355"
ARM GAS  /tmp/cc6udcVC.s 			page 84


 1037      137DFD77 
 1037      EB9D2862 
 1037      9631AC16 
 1037      ED
 1038 1ef2 F2E3A824 		.ascii	"\362\343\250$\003\177,om\372@\336z\177\323j\232s?\323"
 1038      037F2C6F 
 1038      6DFA40DE 
 1038      7A7FD36A 
 1038      9A733FD3 
 1039 1f06 1B7F01C8 		.ascii	"\033\177\001\310>'\263\314\357\270\032:\227y\373\005"
 1039      3E27B3CC 
 1039      EFB81A3A 
 1039      9779FB05 
 1040 1f16 EA0D16FE 		.ascii	"\352\015\026\376\372\340C\210\341\027;\267A\227-z\237"
 1040      FAE04388 
 1040      E1173BB7 
 1040      41972D7A 
 1040      9F
 1041 1f27 EDBFFB73 		.ascii	"\355\277\373s\333!a\005\012\254\221\367\377\341G\377"
 1041      DB216105 
 1041      0AAC91F7 
 1041      FFE147FF 
 1042 1f37 0514127A 		.ascii	"\005\024\022z^"
 1042      5E
 1043              		.text
 1044              		.section	.gnu.lto_.symtab.aa01a0fbeaf2693a,"",%progbits
 1045 0000 6368436F 		.ascii	"chCondObjectInit\000"
 1045      6E644F62 
 1045      6A656374 
 1045      496E6974 
 1045      00
 1046 0011 00       		.ascii	"\000"
 1047 0012 00       		.ascii	"\000"
 1048 0013 00       		.ascii	"\000"
 1049 0014 00000000 		.ascii	"\000\000\000\000\000\000\000\000"
 1049      00000000 
 1050 001c 8A010000 		.ascii	"\212\001\000\000"
 1051 0020 6368436F 		.ascii	"chCondSignal\000"
 1051      6E645369 
 1051      676E616C 
 1051      00
 1052 002d 00       		.ascii	"\000"
 1053 002e 00       		.ascii	"\000"
 1054 002f 00       		.ascii	"\000"
 1055 0030 00000000 		.ascii	"\000\000\000\000\000\000\000\000"
 1055      00000000 
 1056 0038 8C010000 		.ascii	"\214\001\000\000"
 1057 003c 6368436F 		.ascii	"chCondSignalI\000"
 1057      6E645369 
 1057      676E616C 
 1057      4900
 1058 004a 00       		.ascii	"\000"
 1059 004b 00       		.ascii	"\000"
 1060 004c 00       		.ascii	"\000"
 1061 004d 00000000 		.ascii	"\000\000\000\000\000\000\000\000"
 1061      00000000 
 1062 0055 8E010000 		.ascii	"\216\001\000\000"
ARM GAS  /tmp/cc6udcVC.s 			page 85


 1063 0059 6368436F 		.ascii	"chCondBroadcast\000"
 1063      6E644272 
 1063      6F616463 
 1063      61737400 
 1064 0069 00       		.ascii	"\000"
 1065 006a 00       		.ascii	"\000"
 1066 006b 00       		.ascii	"\000"
 1067 006c 00000000 		.ascii	"\000\000\000\000\000\000\000\000"
 1067      00000000 
 1068 0074 90010000 		.ascii	"\220\001\000\000"
 1069 0078 6368436F 		.ascii	"chCondBroadcastI\000"
 1069      6E644272 
 1069      6F616463 
 1069      61737449 
 1069      00
 1070 0089 00       		.ascii	"\000"
 1071 008a 00       		.ascii	"\000"
 1072 008b 00       		.ascii	"\000"
 1073 008c 00000000 		.ascii	"\000\000\000\000\000\000\000\000"
 1073      00000000 
 1074 0094 92010000 		.ascii	"\222\001\000\000"
 1075 0098 6368436F 		.ascii	"chCondWaitS\000"
 1075      6E645761 
 1075      69745300 
 1076 00a4 00       		.ascii	"\000"
 1077 00a5 00       		.ascii	"\000"
 1078 00a6 00       		.ascii	"\000"
 1079 00a7 00000000 		.ascii	"\000\000\000\000\000\000\000\000"
 1079      00000000 
 1080 00af 96010000 		.ascii	"\226\001\000\000"
 1081 00b3 6368436F 		.ascii	"chCondWait\000"
 1081      6E645761 
 1081      697400
 1082 00be 00       		.ascii	"\000"
 1083 00bf 00       		.ascii	"\000"
 1084 00c0 00       		.ascii	"\000"
 1085 00c1 00000000 		.ascii	"\000\000\000\000\000\000\000\000"
 1085      00000000 
 1086 00c9 98010000 		.ascii	"\230\001\000\000"
 1087 00cd 6368436F 		.ascii	"chCondWaitTimeoutS\000"
 1087      6E645761 
 1087      69745469 
 1087      6D656F75 
 1087      745300
 1088 00e0 00       		.ascii	"\000"
 1089 00e1 00       		.ascii	"\000"
 1090 00e2 00       		.ascii	"\000"
 1091 00e3 00000000 		.ascii	"\000\000\000\000\000\000\000\000"
 1091      00000000 
 1092 00eb A0010000 		.ascii	"\240\001\000\000"
 1093 00ef 6368436F 		.ascii	"chCondWaitTimeout\000"
 1093      6E645761 
 1093      69745469 
 1093      6D656F75 
 1093      7400
 1094 0101 00       		.ascii	"\000"
 1095 0102 00       		.ascii	"\000"
ARM GAS  /tmp/cc6udcVC.s 			page 86


 1096 0103 00       		.ascii	"\000"
 1097 0104 00000000 		.ascii	"\000\000\000\000\000\000\000\000"
 1097      00000000 
 1098 010c A2010000 		.ascii	"\242\001\000\000"
 1099 0110 636800   		.ascii	"ch\000"
 1100 0113 00       		.ascii	"\000"
 1101 0114 02       		.ascii	"\002"
 1102 0115 00       		.ascii	"\000"
 1103 0116 00000000 		.ascii	"\000\000\000\000\000\000\000\000"
 1103      00000000 
 1104 011e 19020000 		.ascii	"\031\002\000\000"
 1105 0122 63685363 		.ascii	"chSchWakeupS\000"
 1105      6857616B 
 1105      65757053 
 1105      00
 1106 012f 00       		.ascii	"\000"
 1107 0130 02       		.ascii	"\002"
 1108 0131 00       		.ascii	"\000"
 1109 0132 00000000 		.ascii	"\000\000\000\000\000\000\000\000"
 1109      00000000 
 1110 013a A7010000 		.ascii	"\247\001\000\000"
 1111 013e 63685363 		.ascii	"chSchReadyI\000"
 1111      68526561 
 1111      64794900 
 1112 014a 00       		.ascii	"\000"
 1113 014b 02       		.ascii	"\002"
 1114 014c 00       		.ascii	"\000"
 1115 014d 00000000 		.ascii	"\000\000\000\000\000\000\000\000"
 1115      00000000 
 1116 0155 AB010000 		.ascii	"\253\001\000\000"
 1117 0159 63685363 		.ascii	"chSchRescheduleS\000"
 1117      68526573 
 1117      63686564 
 1117      756C6553 
 1117      00
 1118 016a 00       		.ascii	"\000"
 1119 016b 02       		.ascii	"\002"
 1120 016c 00       		.ascii	"\000"
 1121 016d 00000000 		.ascii	"\000\000\000\000\000\000\000\000"
 1121      00000000 
 1122 0175 AE010000 		.ascii	"\256\001\000\000"
 1123 0179 63684D74 		.ascii	"chMtxLockS\000"
 1123      784C6F63 
 1123      6B5300
 1124 0184 00       		.ascii	"\000"
 1125 0185 02       		.ascii	"\002"
 1126 0186 00       		.ascii	"\000"
 1127 0187 00000000 		.ascii	"\000\000\000\000\000\000\000\000"
 1127      00000000 
 1128 018f B2010000 		.ascii	"\262\001\000\000"
 1129 0193 63685363 		.ascii	"chSchGoSleepS\000"
 1129      68476F53 
 1129      6C656570 
 1129      5300
 1130 01a1 00       		.ascii	"\000"
 1131 01a2 02       		.ascii	"\002"
 1132 01a3 00       		.ascii	"\000"
ARM GAS  /tmp/cc6udcVC.s 			page 87


 1133 01a4 00000000 		.ascii	"\000\000\000\000\000\000\000\000"
 1133      00000000 
 1134 01ac B6010000 		.ascii	"\266\001\000\000"
 1135 01b0 63684D74 		.ascii	"chMtxUnlockS\000"
 1135      78556E6C 
 1135      6F636B53 
 1135      00
 1136 01bd 00       		.ascii	"\000"
 1137 01be 02       		.ascii	"\002"
 1138 01bf 00       		.ascii	"\000"
 1139 01c0 00000000 		.ascii	"\000\000\000\000\000\000\000\000"
 1139      00000000 
 1140 01c8 B8010000 		.ascii	"\270\001\000\000"
 1141 01cc 63685363 		.ascii	"chSchGoSleepTimeoutS\000"
 1141      68476F53 
 1141      6C656570 
 1141      54696D65 
 1141      6F757453 
 1142 01e1 00       		.ascii	"\000"
 1143 01e2 02       		.ascii	"\002"
 1144 01e3 00       		.ascii	"\000"
 1145 01e4 00000000 		.ascii	"\000\000\000\000\000\000\000\000"
 1145      00000000 
 1146 01ec BD010000 		.ascii	"\275\001\000\000"
 1147              		.text
 1148              		.section	.gnu.lto_.opts,"",%progbits
 1149 0000 272D666D 		.ascii	"'-fmath-errno' '-fsigned-zeros' '-ftrapping-math' '"
 1149      6174682D 
 1149      6572726E 
 1149      6F272027 
 1149      2D667369 
 1150 0033 2D666E6F 		.ascii	"-fno-trapv' '-fno-openmp' '-fno-openacc' '-mcpu=cor"
 1150      2D747261 
 1150      70762720 
 1150      272D666E 
 1150      6F2D6F70 
 1151 0066 7465782D 		.ascii	"tex-m4' '-mthumb' '-ggdb' '-O2' '-fomit-frame-point"
 1151      6D342720 
 1151      272D6D74 
 1151      68756D62 
 1151      2720272D 
 1152 0099 65722720 		.ascii	"er' '-falign-functions=16' '-ffunction-sections' '-"
 1152      272D6661 
 1152      6C69676E 
 1152      2D66756E 
 1152      6374696F 
 1153 00cc 66646174 		.ascii	"fdata-sections' '-fno-common' '-flto'\000"
 1153      612D7365 
 1153      6374696F 
 1153      6E732720 
 1153      272D666E 
 1154              		.text
 1155              		.comm	__gnu_lto_v1,1,1
 1156              		.comm	__gnu_lto_slim,1,1
 1157              		.ident	"GCC: (15:6.3.1+svn253039-1build1) 6.3.1 20170620"
ARM GAS  /tmp/cc6udcVC.s 			page 88


DEFINED SYMBOLS
                            *ABS*:0000000000000000 chcond.c
                            *COM*:0000000000000001 __gnu_lto_v1
                            *COM*:0000000000000001 __gnu_lto_slim

NO UNDEFINED SYMBOLS
