ARM GAS  /tmp/ccp7elkE.s 			page 1


   1              		.cpu cortex-m4
   2              		.eabi_attribute 20, 1
   3              		.eabi_attribute 21, 1
   4              		.eabi_attribute 23, 3
   5              		.eabi_attribute 24, 1
   6              		.eabi_attribute 25, 1
   7              		.eabi_attribute 26, 1
   8              		.eabi_attribute 30, 2
   9              		.eabi_attribute 34, 1
  10              		.eabi_attribute 18, 4
  11              		.file	"hal_st.c"
  12              		.text
  13              	.Ltext0:
  14              		.section	.gnu.lto_.profile.e068387f6793ac5f,"",%progbits
  15 0000 789C6365 		.ascii	"x\234ce`b`a```d\220\342\001\000\000\300\0003"
  15      60626061 
  15      60606064 
  15      90E20100 
  15      00C00033 
  16              		.text
  17              		.section	.gnu.lto_.icf.e068387f6793ac5f,"",%progbits
  18 0000 789C6365 		.ascii	"x\234ce`bP`@\000V\206\205??\354\345a\274\366\357\375"
  18      60625060 
  18      40005686 
  18      853F3FEC 
  18      E561BCF6 
  19 0016 136EA67D 		.ascii	"\023n\246}\027\036\254ga\276\263\265\373\0203\313\261"
  19      171EAC67 
  19      61BEB3B5 
  19      FB1033CB 
  19      B1
  20 0027 BFE7B7B3 		.ascii	"\277\347\267\2631\000\000\032\271\020\215"
  20      3100001A 
  20      B9108D
  21              		.text
  22              		.section	.gnu.lto_.jmpfuncs.e068387f6793ac5f,"",%progbits
  23 0000 789C6365 		.ascii	"x\234ce`b\020c@\000V\020\301\010\004\365L\014\014\314"
  23      60621063 
  23      40005610 
  23      C10804F5 
  23      4C0C0CCC 
  24 0014 209A0528 		.ascii	" \232\005(\000\000\016\012\0011"
  24      00000E0A 
  24      0131
  25              		.text
  26              		.section	.gnu.lto_.inline.e068387f6793ac5f,"",%progbits
  27 0000 789C6365 		.ascii	"x\234ce`bHe@\000V\006\006\026\036F\240 \003\003\333"
  27      60624865 
  27      40005606 
  27      06161E46 
  27      A0200303 
  28 0015 027910C5 		.ascii	"\002y\020\305\300\310\005\"\030\330X\201\302l\037\364"
  28      C0C80522 
  28      18D85881 
  28      C26C1FF4 
  29 0025 E0E24C0C 		.ascii	"\340\342L\014,\314@!\246\013\374p!fL!\026L!\006\000"
  29      2CCC4021 
ARM GAS  /tmp/ccp7elkE.s 			page 2


  29      A60BFC70 
  29      21664C21 
  29      164C2106 
  30 003a 9CEB0870 		.ascii	"\234\353\010p"
  31              		.text
  32              		.section	.gnu.lto_.pureconst.e068387f6793ac5f,"",%progbits
  33 0000 789C6365 		.ascii	"x\234ce`b\340f```e\220`\224b\222b\226b\221\002\000\004"
  33      6062E066 
  33      60606065 
  33      90609462 
  33      92629662 
  34 0018 1000A2   		.ascii	"\020\000\242"
  35              		.text
  36              		.section	.gnu.lto_stInit.e068387f6793ac5f,"",%progbits
  37 0000 789C254D 		.ascii	"x\234%M\273\012\302@\020\334\271\363\021\020?@D\254"
  37      BB0AC240 
  37      10DCB9F3 
  37      11103F40 
  37      44AC
  38 0012 D3249F24 		.ascii	"\323$\237$\222\306B\020\214}N-\002Zh#b\025\321\"\261"
  38      92C64210 
  38      8C7D4E2D 
  38      025A6823 
  38      6215D122 
  39 0027 12CB74C1 		.ascii	"\022\313t\301\017\260\260\325\312\302F\355\0051q\317"
  39      0FB0B0D5 
  39      CAC246ED 
  39      053171CF 
  40 0037 0C3BCCB2 		.ascii	"\014;\314\262;;[$A[\"j2\353LH\202\230\237\210\206\206"
  40      3B3B5B24 
  40      415B226A 
  40      32EB4C48 
  40      82989F88 
  41 004d 0074A30C 		.ascii	"\000t\243\014\220'\340a&\227\022G\377\036\0133T\214"
  41      9027E061 
  41      26971247 
  41      FF1E0B33 
  41      548C
  42 005f 64F9AEA9 		.ascii	"d\371\256\251(A \211VL\015\2040\211m\267C\272\250\226"
  42      28412089 
  42      564C0D84 
  42      30896DB7 
  42      43BAA896 
  43 0073 0AF91C11 		.ascii	"\012\371\034\021J`\335\237\221\2504\363Ur\335 +\362"
  43      4A60DD9F 
  43      91A834F3 
  43      5572DD20 
  43      2BF2
  44 0085 6AC2D43F 		.ascii	"j\302\324?\246Rh\225\017\214\327\237\272\366\353\220"
  44      A6526895 
  44      0F8CD79F 
  44      BAF6EB90 
  45 0095 387E5ECA 		.ascii	"8~^\312\336W\031\201\304Jr\002v\360(`\357\013\243uV"
  45      DE571981 
  45      C44A7202 
  45      76F02860 
  45      EF0BA375 
ARM GAS  /tmp/ccp7elkE.s 			page 3


  46 00aa F9FB3426 		.ascii	"\371\3734&\274\344sA\324\260,;\257\236kw\332]\333\355"
  46      BCE47341 
  46      D4B02C3B 
  46      AF9E6B77 
  46      DA5DDBED 
  47 00be 3B5A5BEE 		.ascii	";Z[\356\300r\350\007S\311@E"
  47      C072E807 
  47      53C94045 
  48              		.text
  49              		.section	.gnu.lto_stStartAlarm.e068387f6793ac5f,"",%progbits
  50 0000 789C9D52 		.ascii	"x\234\235RMkSA\024\2353\223\276\204\240u\253\030!\013"
  50      4D6B5341 
  50      149D3393 
  50      BE84A075 
  50      AB18210B 
  51 0014 4BAD8B3C 		.ascii	"K\255\213<b7\376\000\021\204ve\367\265F\241B\244\322"
  51      6237FE00 
  51      11847665 
  51      F7B546A1 
  51      42A4D2
  52 0027 0497761A 		.ascii	"\004\227v\032\222\026S\277\250\230\232by\201TjR\323"
  52      921653BF 
  52      A8989A62 
  52      7981546A 
  52      52D3
  53 0039 2455ABA9 		.ascii	"$U\253\251\202\217 \010J+\026\334Y\010J\245B\025?\202"
  53      828F2008 
  53      4A2B16DC 
  53      59084AA5 
  53      42153F82 
  54 004d 4584D63B 		.ascii	"E\204\326;\223\247TW\342\360\346\315\334;\347\236{\356"
  54      93A75457 
  54      E2F0E6CD 
  54      DC3BE79E 
  54      7BEE
  55 005f 9D69629C 		.ascii	"\235ib\234U8c\307\030c\273iB0\360+\213\214\015z8\240"
  55      553863C7 
  55      1863BB69 
  55      4230F02B 
  55      8B8C0D7A 
  56 0075 36D20336 		.ascii	"6\322\0036\3001\200\313bL\240:\374\256\302\333\246$"
  56      C03180CB 
  56      624CA03A 
  56      FCAEC2DB 
  56      A624
  57 0087 0D7B6CDE 		.ascii	"\015{l\336\030\222\211\235\226`,MS\015L\241\215P/\343"
  57      1892899D 
  57      96602C4D 
  57      530D4CA1 
  57      8D502FE3 
  58 009b A51BE292 		.ascii	"\245\033\342\222\260\004\340\"\363\363\302\370\333f"
  58      B004E022 
  58      F3F3C2F8 
  58      DB66
  59 00a9 6572F8C9 		.ascii	"er\370\311\374\221/\275\336!\374`\264_}\\\033E\353M"
  59      FC912FBD 
  59      DE21FC60 
ARM GAS  /tmp/ccp7elkE.s 			page 4


  59      B45F7D5C 
  59      1B45EB4D 
  60 00bd 2963D25E 		.ascii	")c\322^\273*\344^K\010\344!\210\0209\370p\013>F.\206"
  60      BB2AE45E 
  60      4B08E421 
  60      881039F8 
  60      700B3E46 
  61 00d3 69B42AFC 		.ascii	"i\264*\374\233\362\306\265\355\206+\373+'n\303\000\255"
  61      9BF2C6B5 
  61      ED862BFB 
  61      2B276EC3 
  61      00AD
  62 00e5 C525D872 		.ascii	"\305%\330rcsX\332\365I\274:l\220x\025\301\222\004RU"
  62      637358DA 
  62      F549BC3A 
  62      6C907815 
  62      C1920452 
  63 00fa 8C08AE56 		.ascii	"\214\010\256V\261\002\256h\316\333\311'^\261OK\260\362"
  63      B102AE68 
  63      CEDBC927 
  63      5EB14F4B 
  63      B0F2
  64 010c 736B68C9 		.ascii	"skh\311j\011\037\323\333\322\322\216\373\225\212\302"
  64      6A091FD3 
  64      DBD2D28E 
  64      FB958AC2 
  65 011c 9F2A7479 		.ascii	"\237*ty3h\231 \246\367\250\216\177_\236L\035\374\255"
  65      33689920 
  65      A6F7A88E 
  65      7F5F9E4C 
  65      1DFCAD
  66 012f 28DEE8C8 		.ascii	"(\336\350\310\222!\024F\313J\013lQ\314P\204A\014%\030"
  66      92211446 
  66      CB4A0B6C 
  66      51CC5084 
  66      410C2518 
  67 0143 E44C25AA 		.ascii	"\344L%\252/\334\252#.\215Y,\254\177\3626L\305\243z\226"
  67      2FDCAA23 
  67      2E8D592C 
  67      AC7FF236 
  67      4CC5A37A 
  68 0158 9DF9F6D4 		.ascii	"\235\371\366\324ca\002\226h\302,i(+\015t\220_\250\177"
  68      63610296 
  68      68C22C69 
  68      282B0D74 
  68      905FA87F 
  69 016c 759B0519 		.ascii	"u\233\005\031\037\224\265\365\321]_(\312\300\035X\270"
  69      1F94B5F5 
  69      D15D5F28 
  69      CAC01D58 
  69      B8
  70 017d 4EA5EA24 		.ascii	"N\245\352$\004\332L\225\227\215`Q\2012\263D\341\306"
  70      04DA4C95 
  70      978D6051 
  70      8132B344 
  70      E1C6
  71 018f 5D98D8EF 		.ascii	"]\230\330\357s\020\270\207\240SG}\365Y\242\331Q\365"
ARM GAS  /tmp/ccp7elkE.s 			page 5


  71      7310B887 
  71      A053477D 
  71      F559A2D9 
  71      51F5
  72 01a1 2F3933E7 		.ascii	"/93\347\024\333\234\316\007\207\355>\314\2555\271\311"
  72      14DB9CCE 
  72      0787ED3E 
  72      CCAD35B9 
  72      C9
  73 01b2 FF802235 		.ascii	"\377\200\"5\373\363\377`\257hv\356\260\317k\366G\326"
  73      FBF3FF60 
  73      AF6876EE 
  73      B0CF6BF6 
  73      47D6
  74 01c4 859CB7C1 		.ascii	"\205\234\267\301\316\361\220\"W\020\253\215\344B\372"
  74      CEF19022 
  74      5710AB8D 
  74      E442FA
  75 01d3 01A896B3 		.ascii	"\001\250\226\263\017\210e\246/B9\364e%I\037]9=\356="
  75      0F8865A6 
  75      2F4239F4 
  75      6525491F 
  75      5D393DEE 
  76 01e8 8180D9F8 		.ascii	"\201\200\331\370\372\"foO\330\214\364\207\324\332\035"
  76      FA22666F 
  76      4FD88CF4 
  76      87D4DA1D 
  77 01f8 890642CC 		.ascii	"\211\006B\314\335s<\022=u\372\244K\375\332\377\206\236"
  77      DD733C12 
  77      3D75FAA4 
  77      4BFDDAFF 
  77      869E
  78 020a E9EB8F46 		.ascii	"\351\353\217F\314\243]\235\355\007\314\216\216Cf\327"
  78      CCA35D9D 
  78      ED07CC8E 
  78      8E4366D7 
  79 021a 91CEB341 		.ascii	"\221\316\263A'\270;\034>\021\350e?\001\301\257\376c"
  79      27B83B1C 
  79      3E11E865 
  79      3F01C1AF 
  79      FE63
  80              		.text
  81              		.section	.gnu.lto_stStopAlarm.e068387f6793ac5f,"",%progbits
  82 0000 789C5D50 		.ascii	"x\234]PAK\002Q\020\236o\237\255\022t\017\264S'/\373"
  82      414B0251 
  82      109E6F9F 
  82      AD12740F 
  82      B453272F 
  83 0015 28FF4204 		.ascii	"(\377B\004\201\236\364.a\007\017\202\341JW\327\320\004"
  83      819EF42E 
  83      61070F82 
  83      E14A57D7 
  83      D004
  84 0027 85EA92E6 		.ascii	"\205\352\222\346!\366\340\241\262T:v\011\221\240.\031"
  84      21F6E0A1 
  84      B2543A76 
  84      0991A02E 
ARM GAS  /tmp/ccp7elkE.s 			page 6


  84      19
  85 0038 F80BA443 		.ascii	"\370\013\244C\320!\210\022\213 k\336n\2044\274a\346"
  85      D0218812 
  85      8B206BDE 
  85      6E8434BC 
  85      61E6
  86 004a CD7CF37D 		.ascii	"\315|\363}\363\336\014id\200(JD~v\010\202\266\337'\312"
  86      F3DE0C69 
  86      6480284A 
  86      447E7608 
  86      82B6DF27 
  87 005f FB344025 		.ascii	"\3734@%\226\017\224\323\220\303\236\250\011\364J\217"
  87      960F94D3 
  87      90C39EA8 
  87      09F44A8F 
  88 006f 975AF0D8 		.ascii	"\227Z\360\330b\353\326\306\372\216U\234\267\005Q\235"
  88      62EBD6C6 
  88      FA8E559C 
  88      B705519D 
  89 007f 5D198E11 		.ascii	"]\031\216\021$\206=\\L\016\346t\217[\307\011t\226\240"
  89      24863D5C 
  89      4C0EE674 
  89      8F5BC709 
  89      7496A0
  90 0092 CE005D6B 		.ascii	"\316\000]k\362]\262\272\327\015|\255r\253\314\2564*"
  90      F25DB2BA 
  90      D70D7CAD 
  90      72ABCCAE 
  90      342A
  91 00a4 4253513C 		.ascii	"BSQ<\2417\372\270\035U\215?\212\202\253\364\251\013"
  91      A137FAB8 
  91      1D558D3F 
  91      8A82ABF4 
  91      A90B
  92 00b6 87A62E30 		.ascii	"\207\246.0M\217S\350\314\337\204\316\305j\261w\357\335"
  92      4D8F53E8 
  92      CCDF84CE 
  92      C56AB177 
  92      EFDD
  93 00c8 15B68083 		.ascii	"\025\266\200\203\351\267\336_f\335\253\342\360p\251"
  93      E9B7DE5F 
  93      66DDABE2 
  93      F070A9
  94 00d7 D11EDFF8 		.ascii	"\321\036\337\370l\034\301\026\032\316\021\300\031\002"
  94      6C1CC116 
  94      1ACE11C0 
  94      1902
  95 00e5 A4B0CDBB 		.ascii	"\244\260\315\273\321\233W\266\254B\336\0326\006\376"
  95      D19B57B6 
  95      AC42DE1A 
  95      3606FE
  96 00f4 579E1268 		.ascii	"W\236\022h\301\306!/\350\210\240\0159\255\301{\240\303"
  96      C1C6212F 
  96      E888A00D 
  96      39ADC17B 
  96      A0C3
  97 0106 D3CFD81E 		.ascii	"\323\317\330\036V\256\026\325n\316\007\224\271\301/"
ARM GAS  /tmp/ccp7elkE.s 			page 7


  97      56AE16D5 
  97      6ECE0794 
  97      B9C12F
  98 0115 D188160C 		.ascii	"\321\210\026\014C\272'm\312\344zJ\232\231\204\212q3"
  98      43BA276D 
  98      CAE47A4A 
  98      9A99848A 
  98      7133
  99 0127 6B2428F4 		.ascii	"k$(\364\277\273\231\316dM\031\215EB\3132\034^\221\261"
  99      BFBB99CE 
  99      644D198D 
  99      4542CB32 
  99      1C5E91B1 
 100 013b B5C8D6D2 		.ascii	"\265\310\326\322/>\236Jm\030I\372\001/[\177S"
 100      2F3E9E4A 
 100      6D1849FA 
 100      012F5B7F 
 100      53
 101              		.text
 102              		.section	.gnu.lto_stSetAlarm.e068387f6793ac5f,"",%progbits
 103 0000 789C5D90 		.ascii	"x\234]\220\317k\023A\024\307\337wg\273\033\212?\256"
 103      CF6B1341 
 103      14C7DF77 
 103      67BB1B8A 
 103      3FAE
 104 0012 821173B0 		.ascii	"\202\021s\260\324z\310\022{\361\017\020DhO\366^k\024"
 104      D47AC812 
 104      7BF10F10 
 104      44684FF6 
 104      5E6B14
 105 0025 2A442ADD 		.ascii	"*D*\335\340\265\323\220ZL\241J\305\306\024\303\026\242"
 105      E0B5D390 
 105      5A4CA14A 
 105      C5C614C3 
 105      16A2
 106 0037 54A3697E 		.ascii	"T\243i~\370\003\024\304%\010\236\032\321s\003A[QP\320"
 106      F80314C4 
 106      25089E1A 
 106      D1730341 
 106      5B5150D0 
 107 004b 2A1629B6 		.ascii	"*\026)\266\276\267\251\242\016;;\363\336|\347;\237\367"
 107      BEB7A9A2 
 107      0E3B3BF3 
 107      DE7CE73B 
 107      9FF7
 108 005d 3AC8A09F 		.ascii	":\310\240\237 :ID{yB\021\214+\015\242\361\220\001\310"
 108      203A4944 
 108      7B794211 
 108      8C2B0DA2 
 108      F19001C8 
 109 0071 46874063 		.ascii	"F\207@c\006\306pYe\025\352\223\357\036\033=\013\232"
 109      06C67059 
 109      6515EA93 
 109      EF1E1B3D 
 109      0B9A
 110 0083 879FADD9 		.ascii	"\207\237\255\331\027\365\304\036O\021\345x\312\300\002"
 110      17F5C41E 
ARM GAS  /tmp/ccp7elkE.s 			page 8


 110      4F11E578 
 110      CAC002
 111 0092 7A58F52A 		.ascii	"zX\365*]\271\241\246\225\247\000\223\303/KsowIh \302"
 111      5DB9A1A6 
 111      95A70093 
 111      C32F4B73 
 111      6F774968 
 112 00a8 E146B1B2 		.ascii	"\341F\261\262\274[E@\274\177\377\2545\203\356[Z\247"
 112      BC5B4540 
 112      BC7FFFAC 
 112      3583EE5B 
 112      5AA7
 113 00ba B4BF7C55 		.ascii	"\264\277|U\351\003\236R(B\261!\356 \214\333\010\023"
 113      E9039E52 
 113      2842B121 
 113      EE208CDB 
 113      0813
 114 00cc A70877D1 		.ascii	"\247\010w\321-\3727\325\315k;-\263\360\373M\334\203"
 114      2DFA37D5 
 114      CD6B3B2D 
 114      B3F0FB4D 
 114      DC83
 115 00de C5F8547E 		.ascii	"\305\370T~\015_onMj\177\345&\236\0363\031^nP\206ER\305"
 115      0D5F6F6E 
 115      4D6A7FE5 
 115      269E1E33 
 115      195E6E50 
 116 00f6 94326455 		.ascii	"\2242dU\2530\304\346\222\237y\336\251\016\006\010^\361"
 116      AB30C4E6 
 116      929F79DE 
 116      A90E0608 
 116      5EF1
 117 0108 D1477415 		.ascii	"\321Gt\025\002\204F~GN\373\351\210P\224\376\245\010"
 117      0284467E 
 117      474EFBE9 
 117      885094FE 
 117      A508
 118 011a CA5B4457 		.ascii	"\312[DW\236\235>\240>\367\243\271\222=\362\207(\335"
 118      9E9D3EA0 
 118      3EF7A3B9 
 118      923DF287 
 118      28DD
 119 012c EEC8135B 		.ascii	"\356\310\023[\211&\300\312)\374EL(\303b\207\012,N\316"
 119      8926C0CA 
 119      29FC454C 
 119      28C36287 
 119      0A2C4ECE 
 120 0140 4ED45FDA 		.ascii	"N\324_\332\322\0213\3204J\353\237;\333\241\370H\317"
 120      D21133D0 
 120      344AEB9F 
 120      3BDBA1F8 
 120      48CF
 121 0152 0A8BDF5F 		.ascii	"\012\213\337_\204<\344\341\251\016\324\230\241*\014"
 121      843CE4E1 
 121      A90ED498 
 121      A12A0C
 122 0161 7C505CFA 		.ascii	"|P\\\372\366\325vJ:=\256[\3533\373\327\370\226\205\373"
ARM GAS  /tmp/ccp7elkE.s 			page 9


 122      F6D5764A 
 122      3A3DAE5B 
 122      EB33FBD7 
 122      F89685FB 
 123 0175 F0709D4B 		.ascii	"\360p\235K\015\036a\321\326l\265i\305\312\"\232\257"
 123      0D1E61D1 
 123      D66CB569 
 123      C5CA229A 
 123      AF
 124 0186 B1858D07 		.ascii	"\261\205\215\007pp(\274\255\300C\304\244\216U\244ZS"
 124      707028BC 
 124      ADC043C4 
 124      A48E55A4 
 124      5A53
 125 0198 CD78D044 		.ascii	"\315x\320D\301\246OH\315oLC\022A\301\031\256\201\333"
 125      C1A64F48 
 125      CD6F4C43 
 125      1241C119 
 125      AE81DB
 126 01ab 6610ED8B 		.ascii	"f\020\355\213F\235\3667\342:\303C\011\307\035\215\313"
 126      469DF637 
 126      E23AC343 
 126      09C71D8D 
 126      CB
 127 01bc 3AE826A3 		.ascii	":\350&\243q\262\207N\271\311\263\347\316\230\362\353"
 127      71B2874E 
 127      B9C9B3E7 
 127      CE98F2EB 
 128 01cc FD5F7A7E 		.ascii	"\375_z~d4\351:'\006\372{\017;}}G\235\201\343\375\027"
 128      6434E93A 
 128      2706FA7B 
 128      0F3B7D7D 
 128      479D81E3 
 129 01e2 62DB9707 		.ascii	"b\333\227\007\023\211\323\321a\372\005\000X\3023"
 129      1389D3D1 
 129      61FA0500 
 129      58C233
 130              		.text
 131              		.section	.gnu.lto_stGetAlarm.e068387f6793ac5f,"",%progbits
 132 0000 789C5D8F 		.ascii	"x\234]\217\313KBA\024\306\317wG\357\265\240\240m\031"
 132      CB4B4241 
 132      14C6CF77 
 132      47EFB5A0 
 132      A06D19
 133 0013 B4B58517 		.ascii	"\264\265\205\027\363_\010\"\260\225\356#j\321B02\332"
 133      F35F0822 
 133      B095EE23 
 133      6AD14230 
 133      32DA
 134 0025 36851125 		.ascii	"6\205\021%T Y\246r\003\027=M\215V-BjQ\233^\356\003\251"
 134      542059A6 
 134      7203173D 
 134      4D8D562D 
 134      426A519B 
 135 003d 362D825E 		.ascii	"6-\202^\024\005Zg4\"\032f\2309\347\374\346\234\357\263"
 135      14055A67 
 135      34221A66 
ARM GAS  /tmp/ccp7elkE.s 			page 10


 135      9839E7FC 
 135      E69CEFB3 
 136 0051 93462110 		.ascii	"\223F!\020\371\211\250\215\017\004A[<'\232th\200zH\007"
 136      F989A88D 
 136      0F04415B 
 136      3C279A74 
 136      68807A48 
 137 0066 6842C304 		.ascii	"hB\303\004\026\304\262\300U$\237\022\363\302b\314\306"
 137      16C4B2C0 
 137      55249F12 
 137      F3C262CC 
 137      C6
 138 0077 E1D3D9EA 		.ascii	"\341\323\331\352m\263\012\201\016\016\223\2624k\270"
 138      6DB30A81 
 138      0E0E93B2 
 138      346BB8
 139 0086 D6A59C92 		.ascii	"\326\245\234\222\305\345g#\271w)\033,\241Q\202\361\015"
 139      C5E56723 
 139      B977291B 
 139      2CA15182 
 139      F10D
 140 0098 38B10EA7 		.ascii	"8\261\016\247\232\261\011\0271}S\250.5\351\266\214 "
 140      9AB10917 
 140      317D53A8 
 140      2E35E9B6 
 140      8C20
 141 00aa 05707E0B 		.ascii	"\005p~\013:K\241\\\011EY\375\232\221\305\273\014*=\374"
 141      3A4BA15C 
 141      094559FD 
 141      9A91C5BB 
 141      0C2A3DFC 
 142 00be DF125C9F 		.ascii	"\337\022\\\237\343\243\004E9\301\267\270\307\321\341"
 142      E3A30445 
 142      39C1B7B8 
 142      C7D1E1
 143 00cd C7E97EAA 		.ascii	"\307\351~\252\365\267UD\362*\306>\215Z\253\204\300\237"
 143      F5B75544 
 143      F22AC63E 
 143      8D5AAB84 
 143      C09F
 144 00df 29846DE8 		.ascii	")\204m\350<c\007zZh\234\217O\037]\030J\272\255\206\235"
 144      3C63077A 
 144      5A689C8F 
 144      4F1F5D18 
 144      4ABAAD86 
 145 00f4 67DF1F1B 		.ascii	"g\337\037\033\353\241\352\242\314ev\337N\034\026\322"
 145      EBA1EAA2 
 145      CC6576DF 
 145      4E1C16D2 
 146 0104 B0841DBB 		.ascii	"\260\204\035\273,?\253\344sa\353\354\365\3050\26322"
 146      2C3FABE4 
 146      7361EBEC 
 146      F5C530B3 
 146      3232
 147 0116 29CB9952 		.ascii	")\313\231RK\214=\352\310\301\302\012K\254\315a\350+"
 147      4B8C3DEA 
 147      C8C1C20A 
ARM GAS  /tmp/ccp7elkE.s 			page 11


 147      4BACCD61 
 147      E82B
 148 0128 5EB8D63D 		.ascii	"^\270\326=9\005\255\035h\2260\220\207\211N\347\017\201"
 148      3905AD1D 
 148      68963090 
 148      87894EE7 
 148      0F81
 149 013a 023CF480 		.ascii	"\002<\364\200\251r\264r\254+\271\254\212\275\263K(w"
 149      A972B472 
 149      AC2BB9AC 
 149      8ABDB34B 
 149      2877
 150 014c FC6E77BB 		.ascii	"\374nw\273\315\372\016\205\315\341\201\240\031\036\035"
 150      CDFA0E85 
 150      CDE181A0 
 150      191E1D
 151 015b 54777F78 		.ascii	"Tw\177x\314=H\336\377\325\221\320\350X\330\364\007\372"
 151      CC3D48DE 
 151      FFD591D0 
 151      E858D8F4 
 151      07FA
 152 016d BC5DA6CF 		.ascii	"\274]\246\317\327m\006z\373\306=?|\17708\344\036\246"
 152      D76D067A 
 152      FBC63D3F 
 152      7C7F3038 
 152      E41EA6
 153 0180 6FCFC993 		.ascii	"o\317\311\223m"
 153      6D
 154              		.text
 155              		.section	.gnu.lto_.symbol_nodes.e068387f6793ac5f,"",%progbits
 156 0000 789C55C8 		.ascii	"x\234U\310K\015\200@\014\006\341\351\277\254/\020\305"
 156      4B0D8040 
 156      0C06E1E9 
 156      BFAC2F10 
 156      C5
 157 0011 B92B0111 		.ascii	"\271+\001\021\250\300\000\317\240\001%\204\206[\347"
 157      A8C000CF 
 157      A0012584 
 157      865BE7
 158 0020 32C95711 		.ascii	"2\311W\021#\221V9L7\304\2266\204lr\313\262\313\225\345"
 158      23915639 
 158      4C37C496 
 158      36846C72 
 158      CBB2CB95 
 159 0035 90972CA7 		.ascii	"\220\227,\247\274Kb\227\274\376\002\255\365P\250\314"
 159      BC4B6297 
 159      BCFE02AD 
 159      F550A8CC 
 160 0045 CF6B7C1B 		.ascii	"\317k|\033\340\0367"
 160      E01E37
 161              		.text
 162              		.section	.gnu.lto_.refs.e068387f6793ac5f,"",%progbits
 163 0000 789C6365 		.ascii	"x\234ce`b`d\000\002\000\000I\000\011"
 163      60626064 
 163      00020000 
 163      490009
 164              		.text
ARM GAS  /tmp/ccp7elkE.s 			page 12


 165              		.section	.gnu.lto_.decls.e068387f6793ac5f,"",%progbits
 166 0000 789CB557 		.ascii	"x\234\265W{P\024\311\031\237\236^\020\026V\274\325\262"
 166      7B5014C9 
 166      199F9E5E 
 166      101656BC 
 166      D5B2
 167 0012 4CC54B2C 		.ascii	"L\305K,\013\003\225\272\260\242)\315U%Wz\350\031\253"
 167      0B0395BA 
 167      B0A229CD 
 167      5525577A 
 167      E819AB
 168 0025 CEBBD46A 		.ascii	"\316\273\324j\256\362\317\325\026\207\\\244\012\321"
 168      AEF2CFD5 
 168      16875CA4 
 168      0AD1
 169 0033 62D74BDD 		.ascii	"b\327K\335?q\004T\340\024E\005\005\365x\011\342\001"
 169      3F710454 
 169      E0144505 
 169      05F57809 
 169      E201
 170 0045 F2501044 		.ascii	"\362P\020Dd\005]\021\001\021\037\310KPQD\015\342\372"
 170      64055D11 
 170      01111FC8 
 170      4B505144 
 170      0DE2FA
 171 0058 00F141BE 		.ascii	"\000\361A\276~\0143\214\213\361\237LmO\367\327\375\373"
 171      7E0C338C 
 171      8BF19F4C 
 171      6D4FF7D7 
 171      FDFB
 172 006a 7EFD3DBA 		.ascii	"~\375=\272{z\335\004Q\260\177$\010_\210\202p\010\011"
 172      7B7ADD04 
 172      51B07F24 
 172      085F8882 
 172      700809
 173 007d C2283CEE 		.ascii	"\302(<\356\202 \024\010\312C\344\243P\252\241\234\201"
 173      82201408 
 173      CA43E4A3 
 173      50AAA19C 
 173      81
 174 008e 520BC501 		.ascii	"R\013\305\001\245Nx\367\371\02680\324\337@\271\240\342"
 174      A54E78F7 
 174      F9163830 
 174      D4DF40B9 
 174      A0E2
 175 00a0 1139872B 		.ascii	"\0219\207+\235\215\240\343\301u\214P\246A\251\204b\200"
 175      9D8DA0E3 
 175      C1758C50 
 175      A641A984 
 175      6280
 176 00b2 7E6F285D 		.ascii	"~o(]\320\276$0^O\220G\240~\3039\211M>\320\007?\3417"
 176      D0BE2430 
 176      5E4F9047 
 176      A07EC339 
 176      894D3ED0 
 177 00ca 683C6F34 		.ascii	"h<o4\310:\316+s\021\036\244\322'\376\314\322\350\221"
 177      C83ACE2B 
ARM GAS  /tmp/ccp7elkE.s 			page 13


 177      73111EA4 
 177      D227FECC 
 177      D2E891
 178 00dd 67EB07DA 		.ascii	"g\353\007\332\204\270M\"\217\313ln\313\3575\234\333"
 178      84B84D22 
 178      8FCB6C6E 
 178      CBEF359C 
 178      DB
 179 00ee 399F9ACB 		.ascii	"9\237\232\313\357\177\360\221\030\177\302\371\0024|"
 179      EF7FF091 
 179      187FC2F9 
 179      02347C
 180 00fd 7B312ADB 		.ascii	"{1*\333~\266J\274\211:\021`\321\024\332\213\020{#Z\250"
 180      7EB64ABC 
 180      893A1160 
 180      D114DA8B 
 180      107B235A 
 181 0112 382A3F08 		.ascii	"8*?\010\321~\350\025\005N*w!Y\203\313\"\027ENI\177\\"
 181      D17EE815 
 181      054E2A77 
 181      215983CB 
 181      2217454E 
 182 0129 19A918D9 		.ascii	"\031\251\030\3310\233I~\230\017\254A\325dm$*\023 \244"
 182      309B497E 
 182      980FAC41 
 182      D5646D24 
 182      2A1320A4 
 183 013d 56501132 		.ascii	"VP\0212\263\371\370\230}\202\342\034\222\275\177\222"
 183      B3F9F898 
 183      7D82E21C 
 183      92BD7F92 
 184 014d D2704FDF 		.ascii	"\322pO\337\215\272Ho\372\"D\373\266\226\014t\273a\021"
 184      8DBA486F 
 184      FA2244FB 
 184      B6960C74 
 184      BB6111
 185 0160 9176F7CB 		.ascii	"\221v\367\313\334/\002\362%\366x\374J\011\333\271\321"
 185      DC2F02F2 
 185      25F678FC 
 185      4A09DBB9 
 185      D1
 186 0171 21BB4F02 		.ascii	"!\273O\002FF=\022Al\031l8\350\005\3424=\232\002\342"
 186      46463D12 
 186      416C196C 
 186      38E805E2 
 186      343D9A02 
 187 0186 F0A66B67 		.ascii	"\360\246kg\3643\222\251V\2644ED\337LG\371h&\312C3a\362"
 187      F43392A9 
 187      56B43445 
 187      44DF4C47 
 187      F96826CA 
 188 019e 023403DE 		.ascii	"\0024\003\336\337\351\030\223=jw\301\244\331\351Rz\217"
 188      DFE91893 
 188      3D6A77C1 
 188      A4D9E952 
 188      7A8F
 189 01b0 646F8DFA 		.ascii	"do\215\372mr\264\224\013Z\263\010\012\035A\030\375\202"
ARM GAS  /tmp/ccp7elkE.s 			page 14


 189      6D72B494 
 189      0B5AB308 
 189      0A1D4118 
 189      FD82
 190 01c2 0288C5D0 		.ascii	"\002\210\305\320\204w.\352F\3500\272\011\376\034E\263"
 190      84772EEA 
 190      46E830BA 
 190      09FE1C45 
 190      B3
 191 01d3 413B3ABF 		.ascii	"A;:\277=\336\015\317\245\306v\325\035\311\303`\204\237"
 191      3DDE0DCF 
 191      A5C676D5 
 191      1DC9C360 
 191      849F
 192 01e5 1E9138F8 		.ascii	"\036\2218\370@W\341\243\212\227\006\326E\020-;\234\207"
 192      4057E1A3 
 192      8A9706D6 
 192      45102D3B 
 192      9C87
 193 01f7 26E1BFD0 		.ascii	"&\341\277\320\366\345\230\242\003\230y\240#\221hL\275"
 193      F6E598A2 
 193      039879A0 
 193      2391684C 
 193      BD
 194 0208 33997930 		.ascii	"3\231y0k/\026S\352[kt\310_\237C\\\260\237O\371\335>"
 194      6B2F1653 
 194      EA5B6B74 
 194      C85F9F43 
 194      5CB09F4F 
 195 021f 2731AA0C 		.ascii	"'1\252\014\351Q\211b\224\237\036\336\261\222\024%\355"
 195      E9518962 
 195      949F1EDE 
 195      B1921425 
 195      ED
 196 0230 8C963CFF 		.ascii	"\214\226<\377*\240\343\340\3441p\022\225\"\1772)\301"
 196      2AA0E3E0 
 196      E4317012 
 196      95227F32 
 196      29C1
 197 0242 A162E82C 		.ascii	"\241b\350,\202N\230\345\310\241\304Lw\374\0031@t\234"
 197      824E98E5 
 197      C8A1C44C 
 197      77FC0331 
 197      40749C
 198 0255 EEB8A143 		.ascii	"\356\270\241Cz\177\227\372\025.\364\231-\243i\263\035"
 198      7A7F97FA 
 198      152EF499 
 198      2DA369B3 
 198      1D
 199 0266 9B254944 		.ascii	"\233%ID\345`\313\011\305\0260\215\005tGi\307k\037\234"
 199      E560CB09 
 199      C516308D 
 199      05744769 
 199      C76B1F9C 
 200 027a 89E824A9 		.ascii	"\211\350$\251\205\031O\361D\223\234\232p\222\276\202"
 200      85194FF1 
 200      44939C9A 
ARM GAS  /tmp/ccp7elkE.s 			page 15


 200      7092BE82 
 201 028a 3F1EBC4A 		.ascii	"?\036\274J\034\256\204IN*\223\224\313\223\234N\033>"
 201      1CAE8449 
 201      4E2A9394 
 201      CB939C4E 
 201      1B3E
 202 029c 2EEAC89E 		.ascii	".\352\310\236!\010\310%\364\325U\214\364\342\011\263"
 202      2108C825 
 202      F4D5558C 
 202      F4E209B3 
 203 02ac 7E9A66BD 		.ascii	"~\232f\275\012\361\264\357\314(\221DH{\017I{\246\337"
 203      0AF1B4EF 
 203      CC289144 
 203      487B0F49 
 203      7BA6DF
 204 02bf AD124902 		.ascii	"\255\022I\002\257$\035\301\241Be\306Bm\336\253i\336"
 204      AF241DC1 
 204      A14265C6 
 204      426DDEAB 
 204      69DE
 205 02d1 2FBC2A99 		.ascii	"/\274*\231\214\033\251\217\250*\357\322\267\234\251"
 205      8C1BA98F 
 205      A82AEFD2 
 205      B79CA9
 206 02e0 FDD72992 		.ascii	"\375\327)\222=J\"\341!\353\307\256\360\330\265<g(\317"
 206      3D4A22E1 
 206      21EBC7AE 
 206      F0D8B53C 
 206      6728CF
 207 02f3 AE634369 		.ascii	"\256cCin\270\215\0215\234\270\337\352\316\231\352?\036"
 207      6EB88D11 
 207      359CB8DF 
 207      EACE99EA 
 207      3F1E
 208 0305 632216D5 		.ascii	"c\"\026\325(L5Z\246Z\312\224\377\254\271\304\200{\031"
 208      284C355A 
 208      A65ACA94 
 208      FFACB9C4 
 208      807B19
 209 0318 D39DA2A6 		.ascii	"\323\235\242\246>Q\035\012\022%%\026\347\306\355\200"
 209      3E511D0A 
 209      12252516 
 209      E7C6ED80 
 210 0328 C2E2EC85 		.ascii	"\302\342\354\205|\326\246\264\351\211\362\006\000\020"
 210      7CD6A6B4 
 210      E989F206 
 210      0010
 211 0336 3AAB4C7B 		.ascii	":\253L{V;\255\203N\373d\333\343t\037\374\230M\233v,"
 211      563BAD83 
 211      4EFB64DB 
 211      E3741FFC 
 211      984D9B76 
 212 034b 61878150 		.ascii	"a\207\201PA\012\273\253}s\213z\245X=\335p\350\274\302"
 212      410ABBAB 
 212      7D738B7A 
 212      A5583DDD 
 212      70E8BCC2 
ARM GAS  /tmp/ccp7elkE.s 			page 16


 213 035f 749E3091 		.ascii	"t\2360\221F\035e\350\036n\275\351\355\035?\266@(\\^"
 213      461D65E8 
 213      1E6EBDE9 
 213      ED1D3FB6 
 213      40285C5E 
 214 0373 2302BA80 		.ascii	"#\002\272\200\274)\030j\000\237\270\225T\355\311v\315"
 214      BC29186A 
 214      009FB895 
 214      54EDC976 
 214      CD
 215 0384 0D32636A 		.ascii	"\0152cj\345\263z7&{\220\341\201\274\023\006\266\213"
 215      E5B37A37 
 215      267B90E1 
 215      81BC1306 
 215      B68B
 216 0396 EC64F8CA 		.ascii	"\354d\370\312\275\214\030o6\334L\344\332\353\347\007"
 216      BD8C186F 
 216      36DC4CE4 
 216      DAEBE707 
 217 03a6 75B8901D 		.ascii	"u\270\220\035.\261\371\011\265X\037K\"\364!\313\237"
 217      2EB1F909 
 217      B5581F4B 
 217      22F421CB 
 217      9F
 218 03b7 24A8E155 		.ascii	"$\250\341U\243\033.e\352?\235+u\360\015\\G\344='k+\275"
 218      A31B2E65 
 218      EA3F9D2B 
 218      75F00D5C 
 218      47E43D27 
 219 03ce 70391BBC 		.ascii	"p9\033\274\023\177\273\326\035W1A\266\312\310\255J\353"
 219      137FBBD6 
 219      1D573141 
 219      B6CAC8AD 
 219      4AEB
 220 03e0 785E8FF0 		.ascii	"x^\217\360\0316Xy\342\224\203{0Wu\222\031\331IVv\357"
 220      19365879 
 220      E294837B 
 220      30577592 
 220      19D94956 
 221 03f6 8243CF1C 		.ascii	"\202C\317\034\222\020Yk-\235\213\260\203i\3268\213\016"
 221      9210596B 
 221      2D9D8BB0 
 221      8369D638 
 221      8B0E
 222 0408 73E73071 		.ascii	"s\3470q'\305\331\354C\334\221x\034\241_\011c\007\331"
 222      27C5D9EC 
 222      43DC9178 
 222      1CA15F09 
 222      6307D9
 223 041b 39C83413 		.ascii	"9\3104\023\2653W\332\206\317\265\273\031wR4d[G\267\363"
 223      B53357DA 
 223      86CFB5BB 
 223      19775234 
 223      645B47B7 
 224 0430 0D80B752 		.ascii	"\015\200\267Rx'2\312J\364\270M\032\230\254\006_z\037"
 224      782732CA 
 224      4AF4B84D 
ARM GAS  /tmp/ccp7elkE.s 			page 17


 224      1A98AC06 
 224      5F7A1F
 225 0443 F86856F6 		.ascii	"\370hV\366^=\256gF\356\177\332\325\317\023\346\017b"
 225      5E3DAE67 
 225      46EE7FDA 
 225      D5CF13E6 
 225      0F62
 226 0455 CE8BCA68 		.ascii	"\316\213\312h\017\334\304\306v\237>\3308\011\2670A>"
 226      0FDCC4C6 
 226      769F3ED8 
 226      3809B730 
 226      413E
 227 0467 008DF400 		.ascii	"\000\215\364\000DQ\255\237\343\353l\244:qW\027\302\355"
 227      4451AD9F 
 227      E3EB6CA4 
 227      3A715717 
 227      C2ED
 228 0479 4C1888B9 		.ascii	"L\030\210\271\333\303\3433\003\304\244\213\017\375p"
 228      DBC3E333 
 228      03C4A48B 
 228      0FFD70
 229 0488 371B7A5B 		.ascii	"7\033z[W\353\207\357\262\266\243,\3670\302\017\231\340"
 229      57EB87EF 
 229      B2B6A32C 
 229      F730C20F 
 229      99E0
 230 049a 4C753CD4 		.ascii	"Lu<\324\343\307LHo9P\356\201\235L\310\031N\316\361\306"
 230      E3C74C48 
 230      6F3950EE 
 230      819D4CC8 
 230      194ECEF1 
 231 04af 434CB85A 		.ascii	"CL\270Zq-\326\013\277\346\213\243\270x\237\027\2260"
 231      712DD60B 
 231      BFE68BA3 
 231      B8789F17 
 231      9630
 232 04c1 15A22ADB 		.ascii	"\025\242*\333\022\371\327\246\207\310\275\331\275\351"
 232      12F9D7A6 
 232      87C8BDD9 
 232      BDE9
 233 04cf 9E3C2BEE 		.ascii	"\236<+\356 \307\2674\014!\034\303\300\361eWn\352&\314"
 233      20C7B734 
 233      0C211CC3 
 233      C0F16557 
 233      6EEA26CC 
 234 04e3 C313390F 		.ascii	"\303\0239\017si\032\222\252\222J'k\323\320\000\350\213"
 234      73691A92 
 234      AA924A27 
 234      6BD3D000 
 234      E88B
 235 04f5 14EDA491 		.ascii	"\024\355\244\221}\"G\266\371nV\266N\233\207\211\320"
 235      7D2247B6 
 235      F96E56B6 
 235      4E9B8789 
 235      D0
 236 0506 D31FC79F 		.ascii	"\323\037\307\237yn@\276\276\276S}U\217?}gJ1\321\222"
 236      796E40BE 
ARM GAS  /tmp/ccp7elkE.s 			page 18


 236      BEBE537D 
 236      558F3F7D 
 236      674A31D1 
 237 051b FD52FFDC 		.ascii	"\375R\377\334\330\254\246mRz\015\242T\327`\223\016\241"
 237      D8ACA66D 
 237      527A0DA2 
 237      54D76093 
 237      0EA1
 238 052d A9CA3EB8 		.ascii	"\251\312>\270Jy\217\223\267\300Tj\3420\034L\340*\301"
 238      4A798F93 
 238      B7C0546A 
 238      E2301C4C 
 238      E02AC1
 239 0540 3769F18D 		.ascii	"7i\361\215\357\340\037\304\252\360W\264\370\313\024"
 239      EFE01FC4 
 239      AAF057B4 
 239      F8CB14
 240 054f 1F48E089 		.ascii	"\037H\340\211\334\253E:\001=\206\361\001:D\320\260\013"
 240      DCAB453A 
 240      013D86F1 
 240      013A44D0 
 240      B00B
 241 0561 518CE88F 		.ascii	"Q\214\350\217^\"_4\014E\022}\321\033\250G\240\304B\373"
 241      5E225F34 
 241      0C45127D 
 241      D11BA847 
 241      A0C442FB 
 242 0575 35D4D150 		.ascii	"5\324\321P\277\205z\023\324\233\241l\2012\012r\034\324"
 242      BF857A13 
 242      D49BA16C 
 242      81320A72 
 242      1CD4
 243 0587 CFA07E01 		.ascii	"\317\240~\001%\012\332\257\240~\016e\253\350K\317 f"
 243      250ADAAF 
 243      A07E0E65 
 243      ABE84BCF 
 243      2066
 244 0599 E4C8BF15 		.ascii	"\344\310\277\025\033\037im4i]r\252\320\377q\211\016"
 244      1B1F696D 
 244      34695D72 
 244      AAD0FF71 
 244      890E
 245 05ab 54C02D1B 		.ascii	"T\300-\033\025p\277\026\334\2124\350\021u\264\232]G"
 245      1570BF16 
 245      DC8A34E8 
 245      1175B49A 
 245      5D47
 246 05bd 5705BFAD 		.ascii	"W\005\277\255\"\357\323\242\357j\321\365*\364\003-\372"
 246      22EFD3A2 
 246      EF6AD1F5 
 246      2AF4032D 
 246      FA
 247 05ce E23B9973 		.ascii	"\342;\231s\252\340\275Z\370m-y\213\332\362\233Z\370"
 247      AAE0BD5A 
 247      F86D2D79 
 247      8BDAF29B 
 247      5AF8
ARM GAS  /tmp/ccp7elkE.s 			page 19


 248 05e0 752DBC46 		.ascii	"u-\274FE\376\320\265-\352\260\250\320w\\\2332\316r\265"
 248      45FED0B5 
 248      2DEAB0A8 
 248      D0775C9B 
 248      32CE72B5 
 249 05f4 2D2DAED7 		.ascii	"--\256\327\334\2705\252\242\277\347:\214\014\316.'\003"
 249      DCB835AA 
 249      A2BFE73A 
 249      8C0CCE2E 
 249      2703
 250 0606 6F8D9B24 		.ascii	"o\215\233$\011\021\230\300\277i\312Rr\304\342\012\270"
 250      091198C0 
 250      BF69CA52 
 250      72C4E20A 
 250      B8
 251 0617 4BC4B953 		.ascii	"K\304\271S\266[Z\266\356w\222\242\266\265\3075|\314"
 251      B65B5AB6 
 251      EE7792A2 
 251      B6B5C735 
 251      7CCC
 252 0629 D64D808F 		.ascii	"\326M\200\217\303\233(\376)2\242A\216\227\217\000T\257"
 252      C39B28FE 
 252      2932A241 
 252      8E978F00 
 252      54AF
 253 063b A56F57B9 		.ascii	"\245oW\271v\337\365\362S\263\267\307r\366.`o\343x\371"
 253      76DFF5F2 
 253      53B3B7C7 
 253      72F62E60 
 253      6FE378F9 
 254 064f A0E75964 		.ascii	"\240\347Ydxr\337m\270\236;\031\237\242\247\236X\363"
 254      7872DF6D 
 254      B89E3B19 
 254      9FA2A79E 
 254      58F3
 255 0661 F3A914B8 		.ascii	"\363\251\024\270\260Ne!\272\036\207\243I\210\266\211"
 255      B04E6521 
 255      BA1E87A3 
 255      4988B689 
 256 0671 5351BC38 		.ascii	"SQ\2748\366\345'\021s\275\323\321O\260\301\377\337\233"
 256      F6E52711 
 256      73BDD3D1 
 256      4FB0C1FF 
 256      DF9B
 257 0683 9D7C23FA 		.ascii	"\235|#\372w\334\022\325\227\015b\241r:o\027\331e\003"
 257      77DC12D5 
 257      970D62A1 
 257      723A6F17 
 257      D96503
 258 0696 6A00671C 		.ascii	"j\000g\034{\226j\300u\354X/\271|>a2\334m\354=\344n\363"
 258      7B966AC0 
 258      75EC582F 
 258      B97C3E61 
 258      32DC6DEC 
 259 06ae E7BC1BBD 		.ascii	"\347\274\033\275\222\004<1\210]\031\023\024/\2419\376"
 259      92043C31 
 259      885D1913 
ARM GAS  /tmp/ccp7elkE.s 			page 20


 259      142FA139 
 259      FE
 260 06bf A6B44324 		.ascii	"\246\264C$\367\234\276\312\321\315\356\270\203\261e"
 260      F79CBECA 
 260      D1CDEEB8 
 260      83B165
 261 06ce 3DA8A8E5 		.ascii	"=\250\250\345_}\003\210\235\231{\262u\354\203r\237\014"
 261      5F7D0388 
 261      9D997BB2 
 261      75EC8372 
 261      9F0C
 262 06e0 67343E4D 		.ascii	"g4>M\326\343~\206}u\177O\033bXbU\355\243\343C\023\177"
 262      D6E37E86 
 262      7D757F4F 
 262      1B625862 
 262      55EDA3E3 
 263 06f7 E79344FE 		.ascii	"\347\223D\376}\331#\322\017\314\265\341\252\021o\354"
 263      7DD923D2 
 263      0FCCB5E1 
 263      AA116FEC 
 264 0707 A44CBA9E 		.ascii	"\244L\272\236,\347Cw\344?\023!=\224\034\371\177\225"
 264      2CE74377 
 264      E43F1321 
 264      3D941CF9 
 264      7F95
 265 0719 8052443D 		.ascii	"\200RD=J\026\261\374\2774U\002\372\301\215\244\233\375"
 265      4A16B1FC 
 265      BF345502 
 265      FAC18DA4 
 265      9BFD
 266 072b BD18CC94 		.ascii	"\275\030\314\224\360\014\001\315\247\237-\264\027\362"
 266      F00C01CD 
 266      A79F2DB4 
 266      17F2
 267 0739 9342E749 		.ascii	"\223B\347I\025g\242}0Q\252\344A{`\302\362\346\212\375"
 267      1567A27D 
 267      3051AAE4 
 267      417B60C2 
 267      F2E68AFD 
 268 074d 5ECA370A 		.ascii	"^\3127\012Q\356]\200K\024\211}\373E\243l%\275\2067f"
 268      51EE5D80 
 268      4B14897D 
 268      FB45A36C 
 268      25BD8637 
 269 0762 ECF7D4F3 		.ascii	"\354\367\324\3639b\337;\007\240\217\265m\331\347\251"
 269      3962DF3B 
 269      07A08FB5 
 269      6DD9E7A9 
 270 0772 E63EF03E 		.ascii	"\346>\360>\356\327\027\2667M\232\223%5\333\341\212\177"
 270      EED717B6 
 270      374D9A93 
 270      2535DBE1 
 270      8A7F
 271 0784 DBAF38CA 		.ascii	"\333\2578\312.E/B\007E#\332\015\311\202{\274Ju'\364"
 271      2E452F42 
 271      074523DA 
 271      0DC9827B 
ARM GAS  /tmp/ccp7elkE.s 			page 21


 271      BC4A7527 
 272 0799 AC82BFD4 		.ascii	"\254\202\277\324?\213s@\263c\264\"\335\200\207X\370"
 272      3F8B7340 
 272      B363B422 
 272      DD808758 
 272      F8
 273 07aa B7C44715 		.ascii	"\267\304G\025\273\217%\376\223\002U\342\311M5MI|\232"
 273      BB8F25FE 
 273      930255E2 
 273      C94D354D 
 273      497C9A
 274 07bd 36F1E934 		.ascii	"6\361\3514\361\325\375\207Ru8NG\331F:\267\305\371"
 274      F1D5FD87 
 274      5275384E 
 274      47D9463A 
 274      B7C5F9
 275 07d0 70B69100 		.ascii	"p\266\221\000v\307\317`w\374\014\205)C\313\224I\231"
 275      76C7CF60 
 275      77FC0C85 
 275      2943CB94 
 275      4999
 276 07e2 4A1DB17D 		.ascii	"J\035\261}n8\2251\265\266\305T\360e\341\245\272\031"
 276      6E389531 
 276      B5B6C554 
 276      F065E1A5 
 276      BA19
 277 07f4 4FE337E3 		.ascii	"O\3437\3437\203\315o\370\355P\017\342\311\250\242n\267"
 277      3783CD6F 
 277      F8ED500F 
 277      E2C9A8A2 
 277      6EB7
 278 0806 0957CD61 		.ascii	"\011W\315ay\325\344\260@\267%\274\350\324i\223\230\015"
 278      79D5E4B0 
 278      40B725BC 
 278      E8D46993 
 278      980D
 279 0818 D13A44A3 		.ascii	"\321:D\243\225K\003}X\016tm\333\263S\006mZ&D_\276\030"
 279      954B037D 
 279      580E746D 
 279      DBB35306 
 279      6D5A2644 
 280 082f 53AE1F4B 		.ascii	"S\256\037K\313\002\236\226#<-\360gF\245\232\305\323"
 280      CB029E96 
 280      233C2DF0 
 280      6746A59A 
 280      C5D3
 281 0841 F20B4D4B 		.ascii	"\362\013MK\331\336\244\317p.\363~g_b\262\207\222\225"
 281      D9DEA4CF 
 281      702EF37E 
 281      675F62B2 
 281      879295
 282 0854 72A79215 		.ascii	"r\247\222\025\362\307%O\211e\2366\226\3714\226\251\366"
 282      F2C7254F 
 282      89659E36 
 282      96F93496 
 282      A9F6
 283 0866 C11E03AE 		.ascii	"\301\036\003\256`l\217\316^\255\364\034\263\3513\215"
ARM GAS  /tmp/ccp7elkE.s 			page 22


 283      606C8FCE 
 283      5EADF41C 
 283      B3E9338D 
 284 0876 4D8E7136 		.ascii	"M\216q6\025p\233\216\212s\004w\253myD\230\315c\331W"
 284      15709B8E 
 284      8A730477 
 284      AB6D7944 
 284      98CD63D9 
 285 088b 7F9F1514 		.ascii	"\177\237\025\024\030(|\034\020`b\277uV\323\232\340p"
 285      18287C1C 
 285      106062BF 
 285      7556D39A 
 285      E070
 286 089d 93353284 		.ascii	"\22352\204\324\026\253- D\360\266\332V\332\202#m\213"
 286      D416AB2D 
 286      2044F0B6 
 286      DA56DA82 
 286      236D8B
 287 08b0 C38323D7 		.ascii	"\303\203#\327\352-\226\015a\021\266\371\363,\266?\230"
 287      EA2D960D 
 287      6111B6F9 
 287      F32CB63F 
 287      98
 288 08c1 3658234D 		.ascii	"6X#Ma\021!\341\033V\207\232\"B\377\025\036\366\235i"
 288      611121E1 
 288      1B56879A 
 288      2242FF15 
 288      1EF69D69 
 289 08d5 6D70C89A 		.ascii	"mp\310\232\260\210P\223eu\350\367\301\033\302m\026\333"
 289      B0885093 
 289      6575E8F7 
 289      C11BC26D 
 289      16DB
 290 08e7 8FEB43AD 		.ascii	"\217\353C\255\001k\004\017Ym\266+5\353\217V\023\314"
 290      016B040F 
 290      596DB62B 
 290      35EB8F56 
 290      13CC
 291 08f9 B61A3080 		.ascii	"\266\0320\200\365\004\321\026\2666\324b\233\245\266"
 291      F504D116 
 291      B636D462 
 291      9BA5B6
 292 0908 2CD236A6 		.ascii	",\3226\246\026\262\206\214\003\324\213\030\267n=\263"
 292      16B2868C 
 292      03D48B18 
 292      B76E3DB3 
 293 0918 0DDAA136 		.ascii	"\015\332\2416\271\271\2147\001a\011\017_m\011\003\217"
 293      B9B98C37 
 293      0161090F 
 293      5F6D0903 
 293      8F
 294 0929 E76B1D5D 		.ascii	"\347k\035]\277.\322f5\255\\\265b\376<\323\227_.1\255"
 294      BF2ED266 
 294      35AD5CB5 
 294      62FE3CD3 
 294      975F2E31 
 295 093e 5ABEE287 		.ascii	"Z\276\342\207@\356:\321\202\031\334\202\202V\230\347"
ARM GAS  /tmp/ccp7elkE.s 			page 23


 295      40EE3AD1 
 295      8219DC82 
 295      825698E7 
 296 094e 8B5F9B75 		.ascii	"\213_\233uKV,6\343%Af\335\347KV\231qP\220\031\233\241"
 296      4B562C36 
 296      E3254166 
 296      DDE74B56 
 296      99715090 
 297 0965 2C369BF1 		.ascii	",6\233\361\337V\006\341\240\257V\351\202\202\226\232"
 297      DF5606E1 
 297      A0AF56E9 
 297      8282969A 
 298 0975 297E1E7D 		.ascii	")~\036}\007\342\245\313\314\342J\320\\\276\324\254["
 298      07E2A5CB 
 298      CCE24AD0 
 298      5CBED4AC 
 298      5B
 299 0986 B902D041 		.ascii	"\271\002\320A\346yP\002\001\371\017\363\274\017\263"
 299      E6795002 
 299      01F90FF3 
 299      BC0FB3
 300 0995 C66A5B4B 		.ascii	"\306j[K\342\026\266\226\271\313\005\213\315\310\035"
 300      E216B696 
 300      B9CB058B 
 300      CDC81D
 301 09a4 B392E458 		.ascii	"\263\222\344X\202\211\257\006\213\345\373\015\021!\026"
 301      8289AF06 
 301      8BE5FB0D 
 301      112116
 302 09b3 4BC0C205 		.ascii	"K\300\302\005\013?\365\220%]\310\232\340\310\217\306"
 302      0B3FF590 
 302      255DC89A 
 302      E0C88FC6 
 303 09c3 E0EBD633 		.ascii	"\340\353\3263\364\024\271'\324\205\372\237\026\310\303"
 303      F414B927 
 303      D485FA9F 
 303      16C8C3
 304 09d2 FF7435FC 		.ascii	"\377t5\374\351\334\377\002\346\005\330\204"
 304      E9DCFF02 
 304      E605D884 
 305              		.text
 306              		.section	.gnu.lto_.symtab.e068387f6793ac5f,"",%progbits
 307 0000 7374496E 		.ascii	"stInit\000"
 307      697400
 308 0007 00       		.ascii	"\000"
 309 0008 00       		.ascii	"\000"
 310 0009 00       		.ascii	"\000"
 311 000a 00000000 		.ascii	"\000\000\000\000\000\000\000\000"
 311      00000000 
 312 0012 AE000000 		.ascii	"\256\000\000\000"
 313 0016 73745374 		.ascii	"stStartAlarm\000"
 313      61727441 
 313      6C61726D 
 313      00
 314 0023 00       		.ascii	"\000"
 315 0024 00       		.ascii	"\000"
 316 0025 00       		.ascii	"\000"
ARM GAS  /tmp/ccp7elkE.s 			page 24


 317 0026 00000000 		.ascii	"\000\000\000\000\000\000\000\000"
 317      00000000 
 318 002e BF000000 		.ascii	"\277\000\000\000"
 319 0032 73745374 		.ascii	"stStopAlarm\000"
 319      6F70416C 
 319      61726D00 
 320 003e 00       		.ascii	"\000"
 321 003f 00       		.ascii	"\000"
 322 0040 00       		.ascii	"\000"
 323 0041 00000000 		.ascii	"\000\000\000\000\000\000\000\000"
 323      00000000 
 324 0049 C1000000 		.ascii	"\301\000\000\000"
 325 004d 73745365 		.ascii	"stSetAlarm\000"
 325      74416C61 
 325      726D00
 326 0058 00       		.ascii	"\000"
 327 0059 00       		.ascii	"\000"
 328 005a 00       		.ascii	"\000"
 329 005b 00000000 		.ascii	"\000\000\000\000\000\000\000\000"
 329      00000000 
 330 0063 C3000000 		.ascii	"\303\000\000\000"
 331 0067 73744765 		.ascii	"stGetAlarm\000"
 331      74416C61 
 331      726D00
 332 0072 00       		.ascii	"\000"
 333 0073 00       		.ascii	"\000"
 334 0074 00       		.ascii	"\000"
 335 0075 00000000 		.ascii	"\000\000\000\000\000\000\000\000"
 335      00000000 
 336 007d C6000000 		.ascii	"\306\000\000\000"
 337 0081 73745F6C 		.ascii	"st_lld_init\000"
 337      6C645F69 
 337      6E697400 
 338 008d 00       		.ascii	"\000"
 339 008e 02       		.ascii	"\002"
 340 008f 00       		.ascii	"\000"
 341 0090 00000000 		.ascii	"\000\000\000\000\000\000\000\000"
 341      00000000 
 342 0098 C8000000 		.ascii	"\310\000\000\000"
 343              		.text
 344              		.section	.gnu.lto_.opts,"",%progbits
 345 0000 272D666D 		.ascii	"'-fmath-errno' '-fsigned-zeros' '-ftrapping-math' '"
 345      6174682D 
 345      6572726E 
 345      6F272027 
 345      2D667369 
 346 0033 2D666E6F 		.ascii	"-fno-trapv' '-fno-openmp' '-fno-openacc' '-mcpu=cor"
 346      2D747261 
 346      70762720 
 346      272D666E 
 346      6F2D6F70 
 347 0066 7465782D 		.ascii	"tex-m4' '-mthumb' '-ggdb' '-O2' '-fomit-frame-point"
 347      6D342720 
 347      272D6D74 
 347      68756D62 
 347      2720272D 
 348 0099 65722720 		.ascii	"er' '-falign-functions=16' '-ffunction-sections' '-"
ARM GAS  /tmp/ccp7elkE.s 			page 25


 348      272D6661 
 348      6C69676E 
 348      2D66756E 
 348      6374696F 
 349 00cc 66646174 		.ascii	"fdata-sections' '-fno-common' '-flto'\000"
 349      612D7365 
 349      6374696F 
 349      6E732720 
 349      272D666E 
 350              		.text
 351              		.comm	__gnu_lto_v1,1,1
 352              		.comm	__gnu_lto_slim,1,1
 353              		.ident	"GCC: (15:6.3.1+svn253039-1build1) 6.3.1 20170620"
ARM GAS  /tmp/ccp7elkE.s 			page 26


DEFINED SYMBOLS
                            *ABS*:0000000000000000 hal_st.c
                            *COM*:0000000000000001 __gnu_lto_v1
                            *COM*:0000000000000001 __gnu_lto_slim

NO UNDEFINED SYMBOLS
