ARM GAS  /tmp/ccBdzYwS.s 			page 1


   1              		.cpu cortex-m4
   2              		.eabi_attribute 20, 1
   3              		.eabi_attribute 21, 1
   4              		.eabi_attribute 23, 3
   5              		.eabi_attribute 24, 1
   6              		.eabi_attribute 25, 1
   7              		.eabi_attribute 26, 1
   8              		.eabi_attribute 30, 2
   9              		.eabi_attribute 34, 1
  10              		.eabi_attribute 18, 4
  11              		.file	"rt_test_sequence_002.c"
  12              		.text
  13              	.Ltext0:
  14              		.section	.gnu.lto_.profile.f15c8bee5951bf88,"",%progbits
  15 0000 789C6365 		.ascii	"x\234ce`b`c```d8\312\324\305\010\000\004\335\001a"
  15      60626063 
  15      60606064 
  15      38CAD4C5 
  15      080004DD 
  16              		.text
  17              		.section	.gnu.lto_.icf.f15c8bee5951bf88,"",%progbits
  18 0000 789C6365 		.ascii	"x\234ce`b\360c@\000^\206\363\267\236~cf\372\330\370"
  18      6062F063 
  18      40005E86 
  18      F3B79E7E 
  18      6366FAD8 
  19 0015 EC3E07F3 		.ascii	"\354>\007\363\352?\247\253X\2666>\357\345g=s|\335iN"
  19      EA3FA7AB 
  19      58B6363E 
  19      EFE5673D 
  19      737CDD69 
  20 002a B6B7FF2F 		.ascii	"\266\267\377/\2642\262\357\350y\363\227\217\243\347"
  20      B432B2EF 
  20      E879F397 
  20      8FA3E7
  21 0039 DB96EFEC 		.ascii	"\333\226\357\354\234\253Z^\271p=\334\372\364;7\367\214"
  21      9CAB5A5E 
  21      B9703DDC 
  21      FAF43B37 
  21      F78C
  22 004b 5DBDFB78 		.ascii	"]\275\373xy\376N\275\365\212\217w\356\261\205s8\030"
  22      79FE4EBD 
  22      F58A8F77 
  22      EEB18573 
  22      3818
  23 005d 006D1128 		.ascii	"\000m\021(}"
  23      7D
  24              		.text
  25              		.section	.gnu.lto_.jmpfuncs.f15c8bee5951bf88,"",%progbits
  26 0000 789C6D90 		.ascii	"x\234m\220\313J\303@\024\206\317\231\244ml\301\202\270"
  26      CB4AC340 
  26      1486CF99 
  26      A46D6CC1 
  26      82B8
  27 0012 10EC2279 		.ascii	"\020\354\"y\001\3615|\214\320F\015F\2244\012YUPt#\212"
  27      01F1357C 
  27      8CD0460D 
ARM GAS  /tmp/ccBdzYwS.s 			page 2


  27      4694340A 
  27      59555074 
  28 0028 ABA854A2 		.ascii	"\253\250T\242+\357\367kq\343B)\212\012.\304\205\270"
  28      2BEFF76B 
  28      71E34229 
  28      8A0A2EC4 
  28      85B8
  29 003a 9682E2A6 		.ascii	"\226\202\342\246 \305\353\231\031\013\021:\2203\314"
  29      20C5EB99 
  29      190B113A 
  29      9033CC
  30 0049 39F37FF3 		.ascii	"9\363\177\363\221\0300\2103\200Q\220+A\037\035\025D"
  30      91183088 
  30      33805190 
  30      2B411F1D 
  30      1544
  31 005b B103A82A 		.ascii	"\261\003\250*\322J\027\250h\314\347\035\346\243\250"
  31      D24A17A8 
  31      68CCE71D 
  31      E6A3A8
  32 006a 4C548557 		.ascii	"LT\205W\032P/F\267\351\204\201\202\2573\325\007f`82"
  32      1A502F46 
  32      B7E98481 
  32      82AF33D5 
  32      07666038 
  33 007f AB877483 		.ascii	"\253\207t\203:\265\275\247q\265\3605\322\026\022{\031"
  33      3AB5BDA7 
  33      71B5F035 
  33      D216127B 
  33      19
  34 0090 0DBAB782 		.ascii	"\015\272\267\202\005@\025\030\017\334,m\334\306\247"
  34      05401518 
  34      0FDC2C6D 
  34      DCC6A7
  35 009f 94506198 		.ascii	"\224Pa\230\304U\314\000h\300\207|v8q\275\233\2243\304"
  35      C455CC00 
  35      68C0877C 
  35      763871BD 
  35      9B9433C4 
  36 00b3 353EE3DD 		.ascii	"5>\343\335R\351\3451A@-T\2249n\201\353\304\003\304\216"
  36      52E9E531 
  36      41402D54 
  36      94396E81 
  36      EBC403C4 
  37 00c8 0CA026E5 		.ascii	"\014\240&\345E\211\203|\342nl\247\250p\214\212*npL\335"
  37      4589837C 
  37      E26E6CA7 
  37      A8708C8A 
  37      2A6E704C 
  38 00dd 7621F82E 		.ascii	"v!\370.\253F\253\264\215q\333\311\373j\220\222\266q"
  38      AB46ABB4 
  38      8D71DBC9 
  38      FB6A9092 
  38      B671
  39 00ef DC14B65B 		.ascii	"\334\024\266[\021\333\371\323\352UL\2424\334\216\242"
  39      11DBF9D3 
  39      EA554CA2 
ARM GAS  /tmp/ccBdzYwS.s 			page 3


  39      34DC8EA2 
  40 00ff 82EB8F69 		.ascii	"\202\353\217i\315\350\224\250\004G=o\027k\315\022\245"
  40      CDE894A8 
  40      04473D6F 
  40      176BCD12 
  40      A5
  41 0110 E18E40ED 		.ascii	"\341\216@\355J\024\377\327\365\\\345\265RD\243K\346"
  41      4A14FFD7 
  41      F55CE5B5 
  41      5244A34B 
  41      E6
  42 0121 9A78EEED 		.ascii	"\232x\356\355\363\262\362\247\220\304=\221\333\217("
  42      F3B2F2A7 
  42      90C43D91 
  42      DB8F28
  43 0130 5CFCBC9F 		.ascii	"\\\374\274\237\245\245\002\303\203\250Bey\361$e\364"
  43      A5A502C3 
  43      83A84265 
  43      79F12465 
  43      F4
  44 0141 4514AAA5 		.ascii	"E\024\252\245\242S78\024\244\243\010\351\340\274<\256"
  44      A2533738 
  44      14A4A308 
  44      E9E0BC3C 
  44      AE
  45 0152 4912E231 		.ascii	"I\022\3421'A\213g\367[\256\236\367l\307\321M\267\337"
  45      27418B67 
  45      F75BAE9E 
  45      F76CC7D1 
  45      4DB7DF
  46 0165 CA41BB6B 		.ascii	"\312A\273k\365\330y\317\365u\2076=\333ke\373\364n\323"
  46      F5D879CF 
  46      F5758736 
  46      3DDB6B65 
  46      FBF46ED3 
  47 0179 7668D636 		.ascii	"vh\32668\340z\272c\372\224\37170\206m\327\0332\035]"
  47      38E07ABA 
  47      63FA94F9 
  47      3730866D 
  47      D71B321D 
  48 018e F0F28DA2 		.ascii	"\360\362\215\242\256e\346\0321\177\001\033m\247\341"
  48      AE65E61A 
  48      317F011B 
  48      6DA7E1
  49              		.text
  50              		.section	.gnu.lto_.inline.f15c8bee5951bf88,"",%progbits
  51 0000 789C6365 		.ascii	"x\234ce`b\020gd\200\003v\006\006n.F\006&\201\206Z\006"
  51      60621067 
  51      64800376 
  51      06066E2E 
  51      46062681 
  52 0017 B605F24C 		.ascii	"\266\005\362L 1&\006\016U\240\020W\327\012\026\270\030"
  52      20312606 
  52      0E55A010 
  52      57D70A16 
  52      B818
  53 0029 3303B70C 		.ascii	"3\003\267\014P\214\343\200\035B\0317\003\003\343\004"
ARM GAS  /tmp/ccBdzYwS.s 			page 4


  53      508CE380 
  53      1D421937 
  53      0303E304 
  54 0039 3F10C5C0 		.ascii	"?\020\305\300\302\300\013\222f\355Pg`\357P\007K\263"
  54      C2C00B92 
  54      66ED5067 
  54      60EF5007 
  54      4BB3
  55 004b F2018527 		.ascii	"\362\001\205'\370A T-\253\210\351G\006\240:\207=\327"
  55      F8412054 
  55      2DAB88E9 
  55      4706A03A 
  55      873DD7
  56 005e 981146F3 		.ascii	"\230\021F\363\000\315\232\340\0071\017\242\015\335x"
  56      00CD9AE0 
  56      07310FA2 
  56      0DDD78
  57 006d 64361B83 		.ascii	"d6\033\203\224\016\320\010\221\2162\024\023\030\031"
  57      940ED008 
  57      918E3214 
  57      131819
  58 007c 587821E6 		.ascii	"Xx!\346@x0S\331\031\344\364\201\312%\34641\302\3253"
  58      40783053 
  58      D919E4F4 
  58      81CA25E6 
  58      3431C2D5 
  59 0091 72819C8C 		.ascii	"r\201\234\214\242\034\225\307\000\000\012\305\034\304"
  59      A21C95C7 
  59      00000AC5 
  59      1CC4
  60              		.text
  61              		.section	.gnu.lto_.pureconst.f15c8bee5951bf88,"",%progbits
  62 0000 789C6365 		.ascii	"x\234ce`b\020a```g\330\305\310$\305\274\213\221E\222"
  62      60621061 
  62      60606067 
  62      D8C5C824 
  62      C5BC8B91 
  63 0016 751723DB 		.ascii	"u\027#\333.F\366]\214\000(9\004\030"
  63      2E46F65D 
  63      8C002839 
  63      0418
  64              		.text
  65              		.section	.gnu.lto_rt_test_002_003_execute.f15c8bee5951bf88,"",%progbits
  66 0000 789C8594 		.ascii	"x\234\205\224\375KSQ\030\307\317s\357\335K\263\244\237"
  66      FD4B5351 
  66      18C7CF73 
  66      EFDD4BB3 
  66      A49F
  67 0012 57D08424 		.ascii	"W\320\204$\204\332\025\013\002\177*\374\311\037\244"
  67      84DA150B 
  67      027F2AFC 
  67      C91FA4
  68 0021 C83F60D4 		.ascii	"\310?`\324\365\242\203\346lw\206\375\344iX\243\004\213"
  68      F5A283E6 
  68      6C7786FD 
  68      E46958A3 
  68      048B
ARM GAS  /tmp/ccBdzYwS.s 			page 5


  69 0033 A2AC2806 		.ascii	"\242\254(\006\211h\345\353z\235\225-_\232Z63+E\241\362"
  69      8968E5EB 
  69      7A9D952D 
  69      5F9A5A36 
  69      332B45A1 
  70 0048 A5370A4A 		.ascii	"\2457\012Jz\243\027\3539g:\3466\335e\333\275\347<\317"
  70      7AA317EB 
  70      39673AE6 
  70      36DD65DB 
  70      BDE73CCF 
  71 005c 73BEDFF3 		.ascii	"s\276\337\3639\317\256\216\010dVG\3107B\310\032\374"
  71      39CFAE8E 
  71      08645647 
  71      C83742C8 
  71      1AFC
  72 006e 82484038 		.ascii	"\202H@8\376\230\220\203F\001\200=P#\220J\001*\341\230"
  72      FE989083 
  72      4601803D 
  72      5023904A 
  72      012AE198 
  73 0082 582B4297 		.ascii	"X+B\227\367M@\310j\240x\005k'\322/\320!*\372DB\316\342"
  73      F74D40C8 
  73      6AA07805 
  73      6B27D22F 
  73      D0212AFA 
  74 009a 975DD000 		.ascii	"\227]\320\000Y\004\363&\333\347N\255\322K\221yh\004"
  74      5904F326 
  74      DBE74EAD 
  74      D24B9179 
  74      6804
  75 00ac 3DE0BD75 		.ascii	"=\340\275u\030\202t\356\237\227\006'\352\341\344\016"
  75      188274EE 
  75      9F970627 
  75      EAE1E40E 
  76 00bc 13214731 		.ascii	"\023!G1\314D\252E\201\335\305\367\340\371\372\256\243"
  76      CC44AA45 
  76      81DDC5F7 
  76      E0F9FAAE 
  76      A3
  77 00cd 9815E022 		.ascii	"\230\025\340\"\247\017u\205\0155\270>\000[3\020\370"
  77      A70F7585 
  77      0D35B83E 
  77      005B3310 
  77      F8
  78 00de 386EA8FC 		.ascii	"8n\250\374K\2158Q\307\326\305\271\352\317#WM>\270\000"
  78      4B8D3851 
  78      C7D6C5B9 
  78      EACF2357 
  78      4D3EB800 
  79 00f2 3E5180CB 		.ascii	">Q\200\313\350\362\022\254E\301+\340\003\214^\353\011"
  79      E8F212AC 
  79      45C12BE0 
  79      038C5EEB 
  79      09
  80 0103 1D36B205 		.ascii	"\0356\262\005p/\320\204\221\031\020X\325\223\252\266"
  80      702FD084 
  80      91191058 
ARM GAS  /tmp/ccBdzYwS.s 			page 6


  80      D593AAB6 
  81 0113 F3229B17 		.ascii	"\363\"\233\027A\302\341\227\301sS\351l(\201\005\207"
  81      41C2E197 
  81      C17353E9 
  81      6C288105 
  81      87
  82 0124 F503C3F7 		.ascii	"\365\003\303\367\322\304\255\\\363\353\231\366\306\025"
  82      D2C4AD5C 
  82      F3EB99F6 
  82      C615
  83 0132 9975947A 		.ascii	"\231u\224zh\360\2377\347\334\3504\245'(\252\351\240"
  83      68F09F37 
  83      E7DCE834 
  83      A52728AA 
  83      E9A0
  84 0144 1544DC1D 		.ascii	"\025D\334\035\264\300Zhf\242l\243m\220\211E\336\367"
  84      B4C05A68 
  84      66A26CA3 
  84      6D908945 
  84      DEF7
  85 0156 F4AEC4D6 		.ascii	"\364\256\304\326\323\201\005\3321\366\001<\223?j:^B"
  85      D38105DA 
  85      31F6013C 
  85      933F6A3A 
  85      5E42
  86 0168 944C5584 		.ascii	"\224LU\204\340\317t\035\247sV\004\022\027\0135\257\037"
  86      E0CF741D 
  86      A7735604 
  86      12170B35 
  86      AF1F
  87 017a D313F0B3 		.ascii	"\323\023\360\263\240\020\037\374\3756\307\314\304\010"
  87      A0101FFC 
  87      FD36C7CC 
  87      C408
  88 0188 5C657131 		.ascii	"\\eq1\0269\\\003=Z\271\316\230\003\351c\232\027}\376"
  88      16395C03 
  88      3D5AB9CE 
  88      9803E963 
  88      9A177DFE 
  89 019c 9FA68C31 		.ascii	"\237\246\2141\360\3213\026\237\250g\331\315S\267\251"
  89      F0D13316 
  89      9FA867D9 
  89      CD53B7A9 
  90 01ac 511230F1 		.ascii	"Q\0220\361\006dp\224\237?\216\214\0138\0037A\342\256"
  90      06647094 
  90      9F3F8E8C 
  90      0B380337 
  90      41E2AE
  91 01bf 09DCE278 		.ascii	"\011\334\342x\032;\273gVfL\314W\033X\356l\213\377Y\032"
  91      1A3BBB67 
  91      56664CCC 
  91      571B58EE 
  91      6C8BFF59 
  92 01d4 AF0EB06A 		.ascii	"\257\016\260j\350\000\011\331z,\234\000\301\375\036"
  92      E80009D9 
  92      7A2C9C00 
  92      C1FD1E
ARM GAS  /tmp/ccBdzYwS.s 			page 7


  93 01e3 9CFC5673 		.ascii	"\234\374Vs\332\024\357\332\273\331<\357XZ\344\3706w"
  93      DA14EFDA 
  93      BBD93CEF 
  93      585AE4F8 
  93      3677
  94 01f5 7C87FF92 		.ascii	"|\207\377\222iH\245y\227kv\242fD\350N\274P\355\257("
  94      6948A579 
  94      976B76A2 
  94      6644E84E 
  94      BC50EDAF 
  95 020a 575D2257 		.ascii	"W]\"WK\030\271\336cA}\002W\257\025\035\006Y\314\260"
  95      4B18B9DE 
  95      63417D02 
  95      57AF151D 
  95      0659CCB0 
  96 021e C8E17DEE 		.ascii	"\310\341}\356\255+\342\360SJ\207\335\334a\017\247\""
  96      AD2BE2F0 
  96      534A87DD 
  96      DC610FA7 
  96      22
  97 022f C4F7D183 		.ascii	"\304\367\321\203&\261\311O\351\221mKuQ/d.\3376\177R"
  97      26B1C94F 
  97      E9916D4B 
  97      75512F64 
  97      2EDF367F 
  98 0244 B6CD83A5 		.ascii	"\266\315\203\245\333\246\227\265M(\261m\372\370\346"
  98      DBA697B5 
  98      4D28B16D 
  98      FAF8E6
  99 0253 FA63DA26 		.ascii	"\372c\332&IG\014\360\216\210?\376\207\321\343\357My"
  99      49470CF0 
  99      8E883FFE 
  99      87D1E3EF 
  99      4D79
 100 0265 FCA1C4E3 		.ascii	"\374\241\304\343\177\304\225\007c\216?\376\254\037'"
 100      7FC49507 
 100      638E3FFE 
 100      AC1F27
 101 0274 27F9BD39 		.ascii	"'\371\2759\005\3110\377?F\337#:\334\332\320r`\347\242"
 101      05C930FF 
 101      3F46DF23 
 101      3ADCDAD0 
 101      7260E7A2 
 102 0288 608D49C0 		.ascii	"`\215I\300\216#\330',\270\"\001lC\256\231\211\021\030"
 102      8E23D827 
 102      2CB82201 
 102      6C43AE99 
 102      891118
 103 029b 4E04FB94 		.ascii	"N\004\373\224ol$\006\354\234\357ug\332\002\330!\016"
 103      6F6C2406 
 103      EC9CEF75 
 103      67DA02D8 
 103      210E
 104 02ad F65952B0 		.ascii	"\366YR\260\317\243`\303\313\201}\233k\236W^\014\366"
 104      CFA360C3 
 104      CB817D9B 
 104      6B9E575E 
ARM GAS  /tmp/ccBdzYwS.s 			page 8


 104      0CF6
 105 02bf 05571E5D 		.ascii	"\005W\036]\006\354\030\012|\002\317\253\352\376\015"
 105      06EC180A 
 105      7C02CFAB 
 105      EAFE0D
 106 02ce 6CDF9CDA 		.ascii	"l\337\234\332Q\354*|\031c\322\026\253U\216|\334\252"
 106      51EC2A7C 
 106      1963D216 
 106      AB558E7C 
 106      DCAA
 107 02e0 E6965D6E 		.ascii	"\346\226]nYs\226\273\024uahcw\233\246\356+WK\025\325"
 107      597396BB 
 107      14756168 
 107      63779BA6 
 107      EE2B574B 
 108 02f6 969D9D63 		.ascii	"\226\235\235cU\210a\317nM\335\351\262o\212\026;5Yq:"
 108      558861CF 
 108      6E4DDDE9 
 108      B26F8A16 
 108      3B355971 
 109 030b 1CCE52B9 		.ascii	"\034\316R\271\314\351rk\362\366]\005y\005\025\262R\242"
 109      CCE9726B 
 109      F2F65D05 
 109      790515B2 
 109      52A2
 110 031d 385DAA6D 		.ascii	"8]\252m\377V\207\265\204\344&\311V+\334,W\316+(\314"
 110      FF5687B5 
 110      84E426C9 
 110      562BDC2C 
 110      57CE2B28 
 111 0332 2F94F330 		.ascii	"/\224\3630Y\316/U\366\226\027\251\262\342\320\354\232"
 111      59CE2F55 
 111      F69617A9 
 111      B2E2D0EC 
 111      9A
 112 0343 AD5851B0 		.ascii	"\255XQ\260t]l)z\264/\344\224h\0074\214\257.(\334ea\246"
 112      745D6C29 
 112      7AB42FE4 
 112      94680734 
 112      8CAF2E28 
 113 035b CA5CF68D 		.ascii	"\312\\\366\215\226\314l\"\270\210\301\241:\234\256\003"
 113      96CC6C22 
 113      B888C1A1 
 113      3A9CAE03 
 114 036b C4A89469 		.ascii	"\304\250\224iv\325b\217<\024\341\303\177W(7\346"
 114      76D5628F 
 114      3C14E1C3 
 114      7F572837 
 114      E6
 115              		.text
 116              		.section	.gnu.lto_rt_test_002_004_execute.f15c8bee5951bf88,"",%progbits
 117 0000 789C9553 		.ascii	"x\234\225S\337K\024Q\024\276\337\334\331\037.\231O\275"
 117      DF4B1451 
 117      14BEDFDC 
 117      D91F2E99 
 117      4FBD
 118 0012 84852F3E 		.ascii	"\204\205/>\010\262c\352\037\240\024A\340\276\230\357"
ARM GAS  /tmp/ccBdzYwS.s 			page 9


 118      08B263EA 
 118      1FA01441 
 118      E0BE98EF 
 119 0022 4BAC434A 		.ascii	"K\254CJ\253[\273\253\364\346u\331\022\335\250\010l3"
 119      AB5BBBAB 
 119      F4E675D9 
 119      12DDA808 
 119      6C33
 120 0034 B2092C4C 		.ascii	"\262\011,L\363\267f\255\225.&\354\223\232\321S\371 "
 120      F3B766AD 
 120      952E26EC 
 120      939AD153 
 120      F920
 121 0046 FD168C8C 		.ascii	"\375\026\214\214\244\037V\326\2713\032\203A\321ev\316"
 121      A41F56D6 
 121      B9331A83 
 121      41D16576 
 121      CE
 122 0057 DEF39DFB 		.ascii	"\336\363\235\373\235\363}3\343`\012\313\347\214M2\306"
 122      9DF37D33 
 122      E3600ACB 
 122      E78C4D32 
 122      C6
 123 0068 0ED20F4E 		.ascii	"\016\322\017N\006\345\374\034c\315n\005\334\372\303"
 123      06E5FC1C 
 123      63CD6E05 
 123      DCFAC3
 124 0077 15C7990C 		.ascii	"\025\307\231\014c\302\243\306]L\354pX\371r\025\220Q"
 124      63C2A3C6 
 124      5D4CEC70 
 124      58F97215 
 124      9051
 125 0089 B8C19A14 		.ascii	"\270\301\232\024\356PAwf\255s<\3111\335\362:\245\024"
 125      EE504177 
 125      66AD733C 
 125      C931DDF2 
 125      3AA514
 126 009c 740B5AE9 		.ascii	"t\013Z\351\344bN\247x$\270A\025\035\233U\350F\001\243"
 126      E4624EA7 
 126      7824B841 
 126      151D9B55 
 126      E84601A3 
 127 00b0 BAE7C31B 		.ascii	"\272\347\303\033\355\331N\325\312\343&\234\2408\370"
 127      EDD94ED5 
 127      CAE3269C 
 127      A038F8
 128 00bf 1869B1F1 		.ascii	"\030i\261\361\263E\244\027o YI\260\301\341\2207\306"
 128      B345A417 
 128      6F205949 
 128      B0C1E190 
 128      37C6
 129 00d1 DAA89026 		.ascii	"\332\250\220&Ip\205\002_Fl\355\355\372Qy\220\310.\236"
 129      49708502 
 129      5F466CED 
 129      EDFA5179 
 129      90C82E9E 
 130 00e5 9A9E779D 		.ascii	"\232\236w\235\245>\012$w*\265\362\314\325\364C\270)"
ARM GAS  /tmp/ccBdzYwS.s 			page 10


 130      A53E0A24 
 130      772AB5F2 
 130      CCD5F443 
 130      B829
 131 00f7 D125F929 		.ascii	"\321%\371)\227X}2\3521\320\011\203s\364\242\011=\310"
 131      97587D32 
 131      EA31D009 
 131      8373F4A2 
 131      093DC8
 132 010a A5C6B760 		.ascii	"\245\306\267`\200\320\261\231\314i\267$\340\000\372"
 132      80D0B199 
 132      CC69B724 
 132      E000FA
 133 0119 0859C6F4 		.ascii	"\010Y\306\364\304\327\367}\355\273\011\\\210\017]\341"
 133      C4D7F77D 
 133      EDBB095C 
 133      880F5DE1 
 134 0129 1254A1D2 		.ascii	"\022T\241\322\366\303\354\345\027;\345\326\201<\332"
 134      F6C3ECE5 
 134      173BE5D6 
 134      813CDA
 135 0138 B6A6DB66 		.ascii	"\266\246\333f<\374\230\331\330\350\035_A~\227\0201\022"
 135      3CFC98D9 
 135      D8E81D5F 
 135      417E9710 
 135      3112
 136 014a FF25C718 		.ascii	"\377%\307\030\021\242\265\314\340N\014\202\223P\014"
 136      11A2B5CC 
 136      E04E0C82 
 136      93500C
 137 0159 2017FDB2 		.ascii	" \027\375\262\2575\323\246\007\030B\276i\201-\031\227"
 137      AF35D3A6 
 137      071842BE 
 137      69812D19 
 137      97
 138 016a 0696310C 		.ascii	"\006\2261\014\303\331\301\261-\237\316\\\3153J\031F"
 138      C3D9C1B1 
 138      2D9FCE5C 
 138      CD334A19 
 138      46
 139 017b 24A86C07 		.ascii	"$\250l\007\277\365\024\356a\030\225\030\267;\2151\331"
 139      BFF514EE 
 139      61189518 
 139      B73B8D31 
 139      D9
 140 018c 01B7E1EC 		.ascii	"\001\267\341\354\344\252\3354\227\311?\327\377y\325"
 140      E4AADD34 
 140      97C93FD7 
 140      FF79D5
 141 019b 636D258D 		.ascii	"cm%\215\254\350\032\370\224q[\236\271q\207f\037\227"
 141      ACE81AF8 
 141      94715B9E 
 141      B9718766 
 141      1F97
 142 01ad B313D03B 		.ascii	"\263\023\320;\273\366\321\245\365\213x\263X\232\032"
 142      BBF6D1A5 
 142      F58B78B3 
ARM GAS  /tmp/ccBdzYwS.s 			page 11


 142      589A1A
 143 01bc DD7521CB 		.ascii	"\335u!\313\340Y\270KV^\"\267\315>HAc\257\020[J|\177"
 143      E059B84B 
 143      565E22B7 
 143      CD3E4841 
 143      63AF105B 
 144 01d3 E3922A4C 		.ascii	"\343\222*L\221\264\0224\024\275@\334n\260}\372\344z"
 144      91B41234 
 144      14BD40DC 
 144      6EB07DFA 
 144      E47A
 145 01e5 4EE13F64 		.ascii	"N\341?dO\374E\366\275?e\3377e?\220\262\035\377-jrK\224"
 145      4FFC45F6 
 145      BD3F65DF 
 145      37653F90 
 145      B21DFF2D 
 146 01fd 64C11489 		.ascii	"d\301\024\211z\211\370\323\207\311\365\371l9$9I\254"
 146      7A89F8D3 
 146      87C9F5F9 
 146      6C392439 
 146      49AC
 147 020f E6F36CA3 		.ascii	"\346\363l\243H\037\014\022\\\225/\350;\304\256\015^"
 147      481F0C12 
 147      5C952FE8 
 147      3BC4AE0D 
 147      5E
 148 0220 87F5584D 		.ascii	"\207\365XM\030\224V\030+\365z5\353\212\352\221\250\026"
 148      18945618 
 148      2BF57A35 
 148      EB8AEA91 
 148      A816
 149 0232 8E6A9150 		.ascii	"\216j\221PC8\240om\3752\372#\372\211\006\275>\240\373"
 149      4338A06F 
 149      6DFD32FA 
 149      23FA8906 
 149      BD3EA0FB 
 150 0246 8B8A8ABD 		.ascii	"\213\212\212\275\001V\362\373P(\242\325\034\011j\307"
 150      0156F2FB 
 150      5028A2D5 
 150      1C096AC7 
 151 0256 43E16844 		.ascii	"C\341hD;\\\345+)\326**\016hU\207|\215\373$\342\247\303"
 151      3B5CE52B 
 151      29D62A2A 
 151      0E685587 
 151      7C8DFB24 
 152 026d C160B5B7 		.ascii	"\301`\265\267\206\251\321\332:}\257\375 \365\252\255"
 152      86A9D1DA 
 152      3A7DAFFD 
 152      20F5AAAD 
 153 027d 0F041BAA 		.ascii	"\017\004\033\252u-P\323\030\245\032\315\016\007Buu\241"
 153      752D50D3 
 153      18A51ACD 
 153      0E074275 
 153      75A1
 154 028f FA4DEAF2 		.ascii	"\372M\352\362J\337~\337I\252\013\204\302\272_R\205\251"
 154      4ADF7EDF 
 154      49AA0B84 
ARM GAS  /tmp/ccBdzYwS.s 			page 12


 154      C2BA5F52 
 154      85A9
 155 02a1 FE1795EA 		.ascii	"\376\027\225\352K\351"
 155      4BE9
 156              		.text
 157              		.section	.gnu.lto_vtcb.f15c8bee5951bf88,"",%progbits
 158 0000 789C8594 		.ascii	"x\234\205\224\357kSW\030\307\237\347\2364I\033\247\276"
 158      EF6B5357 
 158      18C79FE7 
 158      9E34491B 
 158      A7BE
 159 0012 14144CC5 		.ascii	"\024\024L\305\340\204\332[\206\242\016\006\033}\345"
 159      E084DA5B 
 159      86A20E06 
 159      1B7DE5
 160 0021 8B82D83F 		.ascii	"\213\202\330? \270\273\213\015\230\246\346\246C_\365"
 160      20B8BB8B 
 160      0D98A6E6 
 160      A6435FF5 
 161 0031 185B8A76 		.ascii	"\030[\212v\314\201lm\246\353\025E\254\233\265\266Sg"
 161      CC816C6D 
 161      A6EB1545 
 161      AC9BB5B6 
 161      5367
 162 0043 ABADB1D5 		.ascii	"\253\255\261\325\272\331_\032m\021tk\255T\360\307\230"
 162      BAD95F1A 
 162      6D11746B 
 162      AD54F0C7 
 162      98
 163 0054 4E1932B1 		.ascii	"N\0312\261\333\363\234\266!&izH\270\367\234\347\373"
 163      DBF39CB6 
 163      2126697A 
 163      48B8F79C 
 163      E7FB
 164 0066 3DF79B4F 		.ascii	"=\367\233O\236s\363@\203UN\200'\000\260\234\276(\000"
 164      9E73F340 
 164      83554E80 
 164      2700B09C 
 164      BE2800
 165 0079 B56F8601 		.ascii	"\265o\206\001\366\2725D\276\221n\204\032\015k\360\240"
 165      F6BA3544 
 165      BE916E84 
 165      1A0D6BF0 
 165      A0
 166 008a 6814D85B 		.ascii	"h\024\330[\377\270S[{R\322\2107\336\332\260W\326-\263"
 166      FFB8535B 
 166      7B52D288 
 166      37DEDAB0 
 166      57D62DB3 
 167 009e 05408CBE 		.ascii	"\005@\214\276<\360$\256%\325\355\332\263G\304\327\302"
 167      3CF024AE 
 167      25D5EDDA 
 167      B347C4D7 
 167      C2
 168 00af 16880E9A 		.ascii	"\026\210\016\232\276\034\372\376\321b\236j\350\245\351"
 168      BE1CFAFE 
 168      D1629E6A 
ARM GAS  /tmp/ccBdzYwS.s 			page 13


 168      E8A5E9
 169 00be 607C7F5B 		.ascii	"`|\177[\201\330\210@\367\023v\327P\376\232\023RFe\374"
 169      81D88840 
 169      F71376D7 
 169      50FE9A13 
 169      524665FC 
 170 00d2 DA212157 		.ascii	"\332!!W\333B\340\217(hC<\205+\260\005W\000-\001\376"
 170      DB42E08F 
 170      2868433C 
 170      852BB005 
 170      57002D01 
 171 00e7 846B587F 		.ascii	"\204kX\177\257\361\367\204KlV\336\346\276\177\336-\361"
 171      AFF1F784 
 171      4B6C56DE 
 171      E6BE7FDE 
 171      2DF1
 172 00f9 1D57DEE1 		.ascii	"\035W\336\341~\021\223\361Z\257-\034x\372};\017RO\266"
 172      7E1193F1 
 172      5AAF2D1C 
 172      78FA7D3B 
 172      0F524FB6 
 173 010d 4F7FFB81 		.ascii	"O\177\373\201\323\201\255\350\233\211\213g\320\211t"
 173      D381ADE8 
 173      9B898B67 
 173      D08974
 174 011c E195B604 		.ascii	"\341\225\266\004\306\345\364\177\3652\336\177\001\217"
 174      C6E5F47F 
 174      F532DE7F 
 174      018F
 175 012a BFF5E493 		.ascii	"\277\365\344\223\237\205p\200\224L\241Ah|\025S\250\361"
 175      9F857080 
 175      944CA141 
 175      687C1553 
 175      A8F1
 176 013c 66276E26 		.ascii	"f'n&\256x\304'*\306\353\246\366\226\374\331\030\177"
 176      AE78C427 
 176      2AC6EBA6 
 176      F696FCD9 
 176      187F
 177 014e 357D7878 		.ascii	"5}xx\337\300W\362ht\251-\362\260-3\011\236E\037\231"
 177      DFC057F2 
 177      6874A92D 
 177      F2B02D33 
 177      099E451F 
 178 0163 EA9FC86E 		.ascii	"\352\237\310n\007#\311C/\266S\355)F'\333\016v\215c2"
 178      0723C943 
 178      2FB653ED 
 178      294627DB 
 178      0E768D63 
 179 0178 6AAD827C 		.ascii	"j\255\202|\350\001\252\2441\201\220Vz\325Z\024\000\354"
 179      E801AAA4 
 179      31819056 
 179      7AD55A14 
 179      00EC
 180 018a E09A965E 		.ascii	"\340\232\226^{\326T\324BO\376\231\213\"\275\2308\"8"
 180      7BD654D4 
 180      424FFE99 
ARM GAS  /tmp/ccBdzYwS.s 			page 14


 180      8B22BD98 
 180      382238
 181 019d 06E0392E 		.ascii	"\006\3409.;R\350\000\236G\352\006\274\300h\020\2069"
 181      3B52E800 
 181      9E47EA06 
 181      BCC06810 
 181      8639
 182 01af CD31BBE3 		.ascii	"\3151\273\343MA\3418\332\262\211\360:Y\335\372\350\222"
 182      4D41E138 
 182      DAB289F0 
 182      3A59DDFA 
 182      E892
 183 01c1 743B3412 		.ascii	"t;4\022\376\202\205\212\356\213\347w\357k\264\202\027"
 183      FE82858A 
 183      EE8BE777 
 183      EF6BB482 
 183      17
 184 01d2 D1A17E0F 		.ascii	"\321\241~\017`\247\372\357[z\372\246\026\025N\316\272"
 184      60A7FAEF 
 184      5B7AFAA6 
 184      16154ECE 
 184      BA
 185 01e3 5DACFDFB 		.ascii	"]\254\375\373L\307\250G\271\273\330\215\227\320\001"
 185      4CC7A847 
 185      B9BBD88D 
 185      97D001
 186 01f2 5318F52A 		.ascii	"S\030\365*6\000\263\210S\261\2165\213\323\035R\356\377"
 186      3600B388 
 186      53B18E35 
 186      8BD31D52 
 186      EEFF
 187 0204 743EA897 		.ascii	"t>\250\227\025\324\357\352zG\\3P\001\273sA\375c\016"
 187      15D4EFEA 
 187      7A475C33 
 187      5001BB73 
 187      41FD630E 
 188 0218 6A5E26D4 		.ascii	"j^&\324\325;\001{\270\346\314\204\272\351\024=\371\012"
 188      D53B017B 
 188      B8E6CC84 
 188      BAE9143D 
 188      F90A
 189 022a 175DE9C5 		.ascii	"\027]\351\305\247\315\202c\000\3063\241^UP{S\240N\333"
 189      A7CD8263 
 189      00C633A1 
 189      5E55507B 
 189      53A04EDB 
 190 023e 0F7B3C73 		.ascii	"\017{<s\274\272\025\257>\305+\035\316\265$\234\313\363"
 190      BCBA15AF 
 190      3EC52B1D 
 190      CEB5249C 
 190      CBF3
 191 0250 C139BC00 		.ascii	"\3019\274\000\234\353\350\313\335b\257\027h\261\376"
 191      9CEBE8CB 
 191      DD62AF17 
 191      68B1FE
 192 025f 5C2D7663 		.ascii	"\\-vc\336\026\273\3164~\315\244\361\233\242q3\205F\226"
 192      DE16BBCE 
ARM GAS  /tmp/ccBdzYwS.s 			page 15


 192      347ECDA4 
 192      F19BA271 
 192      33854696 
 193 0273 EE19C84A 		.ascii	"\356\031\310Jc0I\2037\207g\270o\242\341\355b\016\377"
 193      63304983 
 193      378767B8 
 193      6FA2E1ED 
 193      620EFF
 194 0286 83E0D753 		.ascii	"\203\340\327Sg\347\363\373\256\232w\322m\013wL\270\311"
 194      67E7F3FB 
 194      AE9A77D2 
 194      6D0B774C 
 194      B8C9
 195 0298 318435F4 		.ascii	"1\2045\364\002\311W.u\342\351X\223\226\254\265G_-\347"
 195      02C9572E 
 195      75E2E958 
 195      9396ACB5 
 195      475F2DE7 
 196 02ac 1578DF57 		.ascii	"\025x\337W\020#5\3400\371Hg\013O6\346t\316\233\0278"
 196      102335E0 
 196      30F94867 
 196      0B4F36E6 
 196      74CE9B17 
 197 02c1 E723443D 		.ascii	"\347#D=g\017\376\273@\017\336\312\325\203\267\347\355"
 197      670FFEBB 
 197      400FDECA 
 197      D583B7E7 
 197      ED
 198 02d2 C111A69E 		.ascii	"\301\021\246\236\310\244~GQ\277\233\273\007G\263R\037"
 198      C8A47E47 
 198      51BF9BBB 
 198      0747B352 
 198      1F
 199 02e3 4B52E7CD 		.ascii	"KR\347\315\341O\214N4Lk\212\035\217\003\3247\364n$\375"
 199      E14F8C4E 
 199      344C6B8A 
 199      1D8F03D4 
 199      37F46E24 
 200 02f8 FAE2627D 		.ascii	"\372\342b}\346\0231\255\210\036\216\350V\250:l\230s"
 200      E61331AD 
 200      881E8EE8 
 200      56A83A6C 
 200      9873
 201 030a 533F5FFD 		.ascii	"S?_\375\226\271\253\332\2544L\177I\311G\305\006`\225"
 201      96B9ABDA 
 201      AC344C7F 
 201      49C947C5 
 201      066095
 202 031d B02296EB 		.ascii	"\260\"\226\353\363\355\226\2715\034X\227\334\"d\351"
 202      F3ED96B9 
 202      351C5897 
 202      DC2264E9 
 203 032d 4628180C 		.ascii	"F(\030\014U\352U\241p\304\322?\333VVZ\266[7*\214P\330"
 203      55EA55A1 
 203      70C4D23F 
 203      DB56565A 
 203      B65B372A 
ARM GAS  /tmp/ccBdzYwS.s 			page 16


 204 0344 F47FB931 		.ascii	"\364\177\2711X\\\001\037gQ\233\273#\254\325K\313\312"
 204      585C011F 
 204      67519BBB 
 204      23ACD54B 
 204      CBCA
 205 0356 B794EBA5 		.ascii	"\267\224\353\245$\326\267T\032;\253\2770u#h\005,\377"
 205      24D6B754 
 205      1A3BABBF 
 205      30752368 
 205      052CFF
 206 0369 0EC320EB 		.ascii	"\016\303 \353\312T+%\015\314i*\254=\026\325\227\226"
 206      CA542B25 
 206      0DCC692A 
 206      AC3D16D5 
 206      9796
 207 037b 956FF372 		.ascii	"\225o\363r\250\252p\240\310\353+\001-\014\256\240\031"
 207      A8AA70A0 
 207      C8EB2B01 
 207      2D0CAEA0 
 207      19
 208 038c 0C85F7C0 		.ascii	"\014\205\367\300\377\215A@\240"
 208      FF8D4140 
 208      A0
 209              		.text
 210              		.section	.gnu.lto_chVTSetI.f15c8bee5951bf88,"",%progbits
 211 0000 789C6D92 		.ascii	"x\234m\222\357K\223Q\024\307\317y\316\263\037\316\271"
 211      EF4B9351 
 211      14C7CF79 
 211      CEB31FCE 
 211      B9
 212 0011 F92A7C21 		.ascii	"\371*|!Q\320\020-\234\210o\205^\366\027\364Vl.,D\315"
 212      51D0102D 
 212      9C886F85 
 212      5EF617F4 
 212      566C2E2C 
 213 0027 6D42AF76 		.ascii	"mB\257v\233\223\221BJ\376j\331x\206e\323\232\2513\263"
 213      9B939142 
 213      4AFE6AD9 
 213      788665D3 
 213      9AA933B3 
 214 003b 95D8508A 		.ascii	"\225\330P\212\242_*\201\226\257\312_\204\026\364\213"
 214      A25F2A81 
 214      96AFCA5F 
 214      8416F48B 
 215 004b 20C83AF7 		.ascii	" \310:\367\331\224\032^\236\207\373\234\373\234\317"
 215      D9941A5E 
 215      9E87FB9C 
 215      FB9CCF
 216 005a F79EEFB9 		.ascii	"\367\236\357\271\327\000\012\234\"\200\263\000P\301"
 216      D7000A9C 
 216      2280B300 
 216      50C1
 217 0068 2F1A0095 		.ascii	"/\032\000\225\316W\000\027\314\212B\375\225 ,\352\217"
 217      CE570017 
 217      CC8A42FD 
 217      95202CEA 
 217      8F
ARM GAS  /tmp/ccBdzYwS.s 			page 17


 218 0079 7C105642 		.ascii	"|\020VB5\275\254\"\312\017aF\360+\244\242\037;\250\217"
 218      35BDAC22 
 218      CA0F6146 
 218      F02BA4A2 
 218      1F3BA88F 
 219 008d 7036B491 		.ascii	"p6\264\221T\212c\202G\252\357\312\201\270\230\027\244"
 219      548A6382 
 219      47AAEFCA 
 219      81B89817 
 219      A4
 220 009e B170985F 		.ascii	"\261p\230_90\206\305\234\266\020\034\273F\227\370\017"
 220      393086C5 
 220      9CB6101C 
 220      BB4697F8 
 220      0F
 221 00af A2CAE197 		.ascii	"\242\312\341\227\227WWm2T\360\020\207\261\265\215%\023"
 221      9757576D 
 221      3254F010 
 221      87B1B58D 
 221      2513
 222 00c1 1D46E0EF 		.ascii	"\035F\340\357\341\231\344\343\234\242A!\002\"\365\275"
 222      E199E4E3 
 222      9CA24121 
 222      0222F5BD 
 223 00d1 87C4118D 		.ascii	"\207\304\021\215\010o!\261 \016c!\016a!\360\022\340"
 223      086F21B1 
 223      200E6321 
 223      0E6121F0 
 223      12E0
 224 00e3 6D2CE2F4 		.ascii	"m,\342\364\226\304\366\264\205\034:\332\021M%l\031\364"
 224      96C4F6B4 
 224      851C3ADA 
 224      114D256C 
 224      19F4
 225 00f5 454158A4 		.ascii	"EAX\244T\215\013\215g\263*\340\210\316\366\177\275\361"
 225      548D0B8D 
 225      67B32AE0 
 225      88CEF67F 
 225      BDF1
 226 0107 CE4E4775 		.ascii	"\316NGuv\340\331\233V{\206\375\274\\\330\335\"Nhd\300"
 226      76E0D99B 
 226      567B86FD 
 226      BC5CD8DD 
 226      224E6864 
 227 011c 3BD930F7 		.ascii	";\3310\367iT\207G\242\337\"D\345:<9\025\352\334\205"
 227      69548747 
 227      A2DF2244 
 227      E53A3C39 
 227      15EADC85 
 228 0130 D77AF59A 		.ascii	"\327z\365\232\2158\226\215\032\001\307\261H\346\177"
 228      8D38968D 
 228      1A01C7B1 
 228      48E67F
 229 013f 18DFE9C9 		.ascii	"\030\337\351\3113\252\351&a\002\215\310\363\350\"\246"
 229      33AAE926 
 229      61028DC8 
 229      F3E822A6 
ARM GAS  /tmp/ccBdzYwS.s 			page 18


 230 014f C4CE9F10 		.ascii	"\304\316\237\020\327\036\303\211\223\026\005\245En\030"
 230      D71EC389 
 230      931605A5 
 230      456E18
 231 015e 17CBCDE7 		.ascii	"\027\313\315\347]\015(\005L,e\002hcV\036H;)r\246uT\244"
 231      5D0D2805 
 231      4C2C6502 
 231      6863561E 
 231      483B2972 
 232 0176 F4FC4AA8 		.ascii	"\364\374J\250+\327q]/ec\271\340r\213x*\324}Z\250\237"
 232      2BD7715D 
 232      2F6563B9 
 232      E0728B78 
 232      2AD47D5A 
 233 018c CD043A22 		.ascii	"\315\004:\"\214\177\304\300/\013D\310$\3739\367v\334"
 233      8C7FC4C0 
 233      2F0B44C8 
 233      24FB39F7 
 233      76DC
 234 019e 2C4FC68C 		.ascii	",O\306\214V\016#3\013\325\032FP\243\034\316\304\273"
 234      560E2333 
 234      0BD51A46 
 234      50A31CCE 
 234      C4BB
 235 01b0 92C449D4 		.ascii	"\222\304I\324\020\3261\020]\0354\355\271\011\352W`g"
 235      10D63110 
 235      5D1D34ED 
 235      B909EA57 
 235      6067
 236 01c2 D9285575 		.ascii	"\331(UuSa\302\177\315\342=42<\205F^\\\032\230\351\262"
 236      5361C27F 
 236      CDE23D34 
 236      323C8546 
 236      5E5C1A98 
 237 01d8 950CE9CC 		.ascii	"\225\014\351\314\317\233\345\335\211T\276F\026\310\334"
 237      CF9BE5DD 
 237      8954BE46 
 237      16C8DC
 238 01e7 99FB5822 		.ascii	"\231\373X\"\353\332\307R\337\242=\236\020\342\342q\316"
 238      EBDAC752 
 238      DFA23D9E 
 238      10E2E271 
 238      CE
 239 01f8 4E5BC2FF 		.ascii	"N[\302\377-%\321!qX\303\340\312\334\223\347V\271_\332"
 239      2D25D121 
 239      7158C3E0 
 239      CADC93E7 
 239      56B95FDA 
 240 020c 596FEBEC 		.ascii	"Yo\353\354k\223t\226\213\200\0172\371\355|\223\372+"
 240      6B937496 
 240      8B800F32 
 240      F9ED7C93 
 240      FA2B
 241 021e 690B83D1 		.ascii	"i\013\203\321\315A\203L\226;&\223\333+&\377oa\326\310"
 241      CD41834C 
 241      963B2693 
 241      DB2B26FF 
ARM GAS  /tmp/ccBdzYwS.s 			page 19


 241      6F61D6C8 
 242 0232 1A66DBB2 		.ascii	"\032f\333\262r|\210~\356\221\242Q\236\316\251\231\256"
 242      727C887E 
 242      EE91A251 
 242      9ECEA999 
 242      AE
 243 0243 07A28FE2 		.ascii	"\007\242\217\342\244\237\241\364\015[\030\212\276?&"
 243      A49FA1F4 
 243      0D5B188A 
 243      BE3F26
 244 0252 E32C215B 		.ascii	"\343,![\230\267\002\234N\253\360\325\211\220\032!\203"
 244      98B7029C 
 244      4EABF0D5 
 244      89901A21 
 244      83
 245 0263 4676F8C4 		.ascii	"Fv\370\304\"\233q\324!9\332\270q,\256\000\034,-u\246"
 245      229B71D4 
 245      2139DAB8 
 245      712CAE00 
 245      1C2C2D75 
 246 0278 9F068FB3 		.ascii	"\237\006\217\263\311\353<S\357\252\363\325\270\235\256"
 246      C9EB3C53 
 246      EFAAF3D5 
 246      B89DAE
 247 0287 DA666F69 		.ascii	"\332foi-P\263\267\321P\343\256\253>ol\366\236\366\325"
 247      2D50B3B7 
 247      D150E3AE 
 247      AB3E6F6C 
 247      F69EF6D5 
 248 029b BBA8B1BA 		.ascii	"\273\250\261\272\251b\217\361\272=^Iy\032|M.\367nX%"
 248      A9628FF1 
 248      BA3D5E49 
 248      791A7C4D 
 248      2EF76E58 
 249 02b0 E72A8FFB 		.ascii	"\347*\217\373\234\317]\357rW\225\225\225\227\272\340"
 249      9CCF5DEF 
 249      72579595 
 249      9597BAE0 
 250 02c0 2FE94D31 		.ascii	"/\351M1\034"
 250      1C
 251              		.text
 252              		.section	.gnu.lto_rt_test_002_002_execute.f15c8bee5951bf88,"",%progbits
 253 0000 789CA559 		.ascii	"x\234\245YkP\024W\026\276\347\366\274!\370L4\211k\240"
 253      6B501457 
 253      16BEE7F6 
 253      BC21F84C 
 253      34896BA0 
 254 0014 6AAD9894 		.ascii	"j\255\230\224\353P\273V\305Je\267v+\177v\177X\273\025"
 254      EB50BB56 
 254      C54A65B7 
 254      762B7F76 
 254      7F58BB15 
 255 0028 FFA6CA32 		.ascii	"\377\246\3122dvc\225\210;3Z\311\217-:\200B\304\0305"
 255      64766395 
 255      883B335A 
 255      C98F2D3A 
 255      8042C418 
ARM GAS  /tmp/ccBdzYwS.s 			page 20


 256 003d 11248243 		.ascii	"\021$\202C|D%\221(*\010(!\240\"Q\211\022\343\013\024"
 256      7C442591 
 256      282A0828 
 256      21A02251 
 256      8912E30B 
 257 0052 0431BE06 		.ascii	"\0041\276\006T\210\370B\367\234\333=\315\364tOc\314"
 257      5488F842 
 257      F79CDB3D 
 257      CDF4744F 
 257      63CC
 258 0064 948EDED7 		.ascii	"\224\216\336\3279\367~\337w\316\271\335cg\2349'3\366"
 258      39F77EDF 
 258      77CEB9DD 
 258      63679C39 
 258      2733F6
 259 0077 4F602C93 		.ascii	"O`,\2231\006\011\014\370\312\026\306>tq.\345\275\314"
 259      3106090C 
 259      F8CA16C6 
 259      3E74712E 
 259      E5BDCC
 260 008a 648F8DBE 		.ascii	"d\217\215\276\023%\260)\3356n\027\335\016\321m\007\207"
 260      1325B029 
 260      DD366E17 
 260      DD0ED16D 
 260      0787
 261 009c D2EDE04E 		.ascii	"\322\355\340N\321\355\022\335Np)\335.\356>\351\305n"
 261      D1ED12DD 
 261      4E7029DD 
 261      2EEE3EE9 
 261      C56E
 262 00ae CFBEC9D8 		.ascii	"\317\276\311\330\355\006\217\322\355\001\240\377\310"
 262      ED068FD2 
 262      ED01A0FF 
 262      C8
 263 00bb 2E60995C 		.ascii	".`\231\\\262\331\035N\227\333\003\231\360\211T(AC\356"
 263      B2D91D4E 
 263      97DB0399 
 263      F0895428 
 263      4143EE
 264 00ce E56AFECA 		.ascii	"\345j\376\312\026\031?\365\205\247<%\362qY\012I\214"
 264      16193FF5 
 264      85A73C25 
 264      F271590A 
 264      498C
 265 00e0 15E15FFA 		.ascii	"\025\341_\372\300\026x\205\341\274[\017K\252\334+p\010"
 265      C0167885 
 265      E1BC5B0F 
 265      4BAADC2B 
 265      7008
 266 00f2 603C3687 		.ascii	"`<6\207:V\256tR\223C)`{\340\300\255\007n\3515\240\251"
 266      3A56AE74 
 266      52934329 
 266      607BE0C0 
 266      AD076EE9 
 267 0109 6B7B961D 		.ascii	"k{\226\035pM\331(\327\243\311\336\262\347V\313\362a"
 267      704DD928 
 267      D7A3C9DE 
ARM GAS  /tmp/ccBdzYwS.s 			page 21


 267      B2E756CB 
 267      F261
 268 011b D9169224 		.ascii	"\331\026\222$(\003\011\315\3026\230\004[a\2220\217\323"
 268      280309CD 
 268      C2369804 
 268      5B619230 
 268      8FD3
 269 012d 4FE4EC28 		.ascii	"O\344\354(\226\024\3136rt\354\363\356$\305r26\317\024"
 269      9614CB36 
 269      7274ECF3 
 269      EE24C572 
 269      3236CF14 
 270 0141 9E6F754A 		.ascii	"\236ouJ\257\013\303\353\033\357\014\215B\303r\226\\"
 270      AF0BC3EB 
 270      1BEF0C8D 
 270      42C37296 
 270      5C
 271 0152 7FB96CE2 		.ascii	"\177\271l\342\252l\305\260\015\312\025\303\333\321\360"
 271      AA6CC5B0 
 271      0DCA15C3 
 271      DBD1F0
 272 0161 D7C386BB 		.ascii	"\327\303\206\273v>Z\363\214\303\006\337\300\024\370"
 272      763E5AF3 
 272      8CC306DF 
 272      C014F8
 273 0170 0AA62847 		.ascii	"\012\246(G\202\035\340@\370\035\221^\234w9\377`\235"
 273      821DE040 
 273      F81D915E 
 273      9C7739FF 
 273      609D
 274 0182 53FA8B70 		.ascii	"S\372\213p\321\374\360\343\356\210\213\353k\337\270"
 274      D1FCF0E3 
 274      EE888BEB 
 274      6BDFB8
 275 0191 5721CB1F 		.ascii	"W!\313\037\3755$\331a\247\321\005T\210\345\321K\016"
 275      FD3524D9 
 275      61A7D105 
 275      5488E5D1 
 275      4B0E
 276 01a3 83D891F9 		.ascii	"\203\330\221\371\364]\277n\372\356_7}\017L\371\246\025"
 276      F45DBF6E 
 276      FAEE5F37 
 276      7D0F4CF9 
 276      A615
 277 01b5 EAE5478F 		.ascii	"\352\345G\217s\221\311\347\312*\257.{y\252\215\3219"
 277      7391C9E7 
 277      CA2AAF2E 
 277      7B79AA8D 
 277      D139
 278 01c7 5DE23B89 		.ascii	"]\342;\211\205$\307\030\374r\216\025[\037'v4^8zV\254"
 278      8524C718 
 278      FC728E15 
 278      5B1F2776 
 278      345E387A 
 279 01dd 676C1942 		.ascii	"gl\031BDZ\311\2278\375+]\205\254\201+\325>\002\015\367"
 279      445AC997 
 279      38FD2B5D 
ARM GAS  /tmp/ccBdzYwS.s 			page 22


 279      85AC812B 
 279      D53E020D 
 280 01f2 52B0A4E1 		.ascii	"R\260\244\341\007A\272K`U]}\243\315\2319$\273\260c\243"
 280      0741BA4B 
 280      60555D7D 
 280      A3CD9939 
 280      24BBB063 
 281 0207 A4609E7F 		.ascii	"\244`\236\177\363\344.O\010J $\271\241\012EVI\373\203"
 281      F3E42E4F 
 281      084A2024 
 281      B9A10A45 
 281      5649FB83 
 282 021b BD102295 		.ascii	"\275\020\"\225\354>\320\264\324E\006\334\000P\215#\327"
 282      EC3ED0B4 
 282      D44506DC 
 282      00508D23 
 282      D7
 283 022c 21BBB46F 		.ascii	"!\273\264o\315\363d\277D\262\351mz\212$$\012j \023\367"
 283      CDF364BF 
 283      44B2E96D 
 283      7A8A2424 
 283      0A6A2013 
 284 0241 9CC07A20 		.ascii	"\234\300z +Y\220\207G\301\271\2704\247\264\177\215\235"
 284      2B599087 
 284      47C1B9B8 
 284      34A7B47F 
 284      8D9D
 285 0253 BA623693 		.ascii	"\272b6\223X\204\273gP\213\013qbHz\206\211c4G\2161\342"
 285      5884BB67 
 285      508B0B71 
 285      62487A86 
 285      89633447 
 286 026a BEF769FB 		.ascii	"\276\367i\373\336\257\354\373\340\343\301\372Q\312\276"
 286      DEAFECFB 
 286      E0E3C1FA 
 286      51CABE
 287 0279 39D4E148 		.ascii	"9\324\341H\017pZ\265\371\373\326o\023$\031\004\034\003"
 287      0F705AB5 
 287      F9FBD66F 
 287      13241904 
 287      1C03
 288 028b 6B776E75 		.ascii	"kwnu\253L5m\233\272.\373\310r\2714k4\361\365\255\011"
 288      AB4C356D 
 288      9BBA2EFB 
 288      C872B934 
 288      6B34F1F5 
 289 02a1 5FF582DE 		.ascii	"_\365\202\336\334\253\362~\033Y\266C2|\207c\327 \253"
 289      DCABF27E 
 289      1B59B643 
 289      327C8763 
 289      D720AB
 290 02b4 AB6A794D 		.ascii	"\253jyM\007h\002\316Qb\263 \301.\304[$I,fl\260|Z\273"
 290      076802CE 
 290      5162B320 
 290      C12EC45B 
 290      24492C66 
 291 02cd 8341030D 		.ascii	"\203A\003\015\332b\007\033\267M-\226\310\033\203F\232"
ARM GAS  /tmp/ccBdzYwS.s 			page 23


 291      DA62071B 
 291      B74D2D96 
 291      C81B8346 
 291      9A
 292 02de 608F0A0D 		.ascii	"`\217\012\015\006\007\020=\006\007)&\200\235\"\247\033"
 292      0607103D 
 292      06072926 
 292      809D22A7 
 292      1B
 293 02ef 4215773D 		.ascii	"B\025w=)?CH^\233\034\222\222h\366\366\356Z\031S\021"
 293      293F4348 
 293      5E9B1C92 
 293      9268F6F6 
 293      EE5A1953 
 294 0304 4E3C0429 		.ascii	"N<\004)\002\256\2337N\266q\354\201&\260\211m38,\242"
 294      02AE9B37 
 294      4EB671EC 
 294      8126B089 
 294      6D33382C 
 295 0319 776B5D63 		.ascii	"wk]cOb\3125u\365(\232{\273\274\342\247\004\261\272\231"
 295      4F62CA35 
 295      75F5289A 
 295      7BBBBCE2 
 295      A704B1BA 
 296 032e 56C3F760 		.ascii	"V\303\367`\023d\012\010\030I\2403\377\350f\207\242\001"
 296      13640A08 
 296      1849A033 
 296      FFE86687 
 296      A201
 297 0340 97A9068E 		.ascii	"\227\251\006\216\230j\300%4PU`\241\201\243B\003.\322"
 297      986AC025 
 297      34505560 
 297      A181A342 
 297      032ED2
 298 0353 804A590C 		.ascii	"\200JY\014K\353G`\351\230`I\023\276\035aj\261b\251X"
 298      4BEB4760 
 298      E9986049 
 298      13BE1D61 
 298      6AB162A9 
 299 0368 63C9A1C3 		.ascii	"c\311\241\303\371\007\302\331@\333\324\016\244\3558"
 299      F907C2D9 
 299      40DBD40E 
 299      A4ED38
 300 0377 CD761A69 		.ascii	"\315v\032i\233\261^\"\367\014N\030ik\025\264\375\030"
 300      9BB15E22 
 300      F70C4E18 
 300      696B15B4 
 300      FD18
 301 0389 45DBA3D0 		.ascii	"E\333\243\320\305\272\204\010#-\202\221\223\202\221"
 301      C5BA8408 
 301      232D8291 
 301      938291
 302 0398 58F87FD2 		.ascii	"X\370\177\322\340'\343\"4\3666T\302\223\306\306)-6N"
 302      E027E322 
 302      34F63654 
 302      C293C6C6 
 302      292D364E 
ARM GAS  /tmp/ccBdzYwS.s 			page 24


 303 03ac 2BB1D170 		.ascii	"+\261\321p{\307\226D%60[\013l>\354\332\263\274ur,4{"
 303      7BC79644 
 303      2536305B 
 303      0B6C3EEC 
 303      DAB3BC75 
 304 03c4 35685CBA 		.ascii	"5h\\\272\263\2345\205fF8\211\3019\232\355\216M\375M"
 304      B39C3585 
 304      66463889 
 304      C1399AED 
 304      8E4DFD4D 
 305 03d8 DB667C9C 		.ascii	"\333f|\234\335\244\3226R\362o'\004\333L\\\034Z\201\240"
 305      DDA4D236 
 305      52F26F27 
 305      04DB4C5C 
 305      1C5A81A0 
 306 03ec C379F2E0 		.ascii	"\303y\362\340\211^@y\020.\010|;\360\033\345w\233\216"
 306      895E4079 
 306      102E087C 
 306      3BF01BE5 
 306      779B8E
 307 03ff 59B0A220 		.ascii	"Y\260\242 dK\311\346\212\260G\323\212\241\256%\335n"
 307      644BC9E6 
 307      8AB047D3 
 307      8AA1AE25 
 307      DD6E
 308 0411 816CA71A 		.ascii	"\201l\247\032\026\207\272v\3258\210\204\213`+\221\236"
 308      1687BA76 
 308      D5388884 
 308      8B602B91 
 308      9E
 309 0422 C5912E05 		.ascii	"\305\221.\005\355\316\252\345\255\027\200\014\222}\032"
 309      EDCEAAE5 
 309      AD17800C 
 309      927D1A
 310 0431 A2CEEECF 		.ascii	"\242\316\356\317\216w\317\244-(\311W\250\233Z\355j\253"
 310      8E77CFA4 
 310      2D28C957 
 310      A89B5AED 
 310      6AAB
 311 0443 B3BAB0E6 		.ascii	"\263\272\260\346E\002!j\374\234\240)\032\216\013\341"
 311      4502216A 
 311      FC9CA029 
 311      1A8E0BE1 
 312 0453 89ABF595 		.ascii	"\211\253\365\225\320\245\327p\267\272\270t\260\322)"
 312      D0A5D770 
 312      B7BAB874 
 312      B0D229
 313 0462 AC898E4B 		.ascii	"\254\211\216K\220s\256q\006\265q;\321\032\267\241\246"
 313      9073AE71 
 313      06B5713B 
 313      D11AB7A1 
 313      A6
 314 0473 2EA96BF3 		.ascii	".\251k\3631\331\344\275,\231\307\316H\031\256\007+\254"
 314      31D9E4BD 
 314      2C99C7CE 
 314      4819AE07 
 314      2BAC
ARM GAS  /tmp/ccBdzYwS.s 			page 25


 315 0485 554A1B2C 		.ascii	"UJ\033,\237\031\366\250$\033r\332\005\312h\227-2Z\017"
 315      9F19F6A8 
 315      241B72DA 
 315      05CA6897 
 315      2D325A0F 
 316 0499 F1F4B331 		.ascii	"\361\364\26314\256\010\352\256F\205\206I\262\272f\032"
 316      34AE08EA 
 316      AE468586 
 316      49B2BA66 
 316      1A
 317 04aa 1AD7B5D0 		.ascii	"\032\327\265\320 \343\342\3706Q\006\211\213\374\366"
 317      20E3E2F8 
 317      36510689 
 317      8BFCF6
 318 04b9 CD224814 		.ascii	"\315\"H\024.H\344\202\323X\225\327\304Q\371\215\370"
 318      2E48E482 
 318      D35895D7 
 318      C451F98D 
 318      F8
 319 04ca 2A0FFF76 		.ascii	"*\017\377v\225\367\021\030\275qU~\323\240\362\335\264"
 319      95F71118 
 319      BD71557E 
 319      D3A0F2DD 
 319      B4
 320 04db E09680EA 		.ascii	"\340\226\200\352v\224\312\365\002\036\217\243\375:\001"
 320      7694CAF5 
 320      021E8FA3 
 320      FD3A01
 321 04ea E35C5A4A 		.ascii	"\343\\ZJC\303\002\276\251t\252\002\245V\237N\300a\335"
 321      43C302BE 
 321      A974AA02 
 321      A5569F4E 
 321      C061DD
 322 04fd 78382240 		.ascii	"x8\"@}K\225c\230\3448>J\177\366\247\327\337\300\223"
 322      7D4B9563 
 322      98E4383E 
 322      4A7FF6A7 
 322      D7DFC093 
 323 0511 E92F1C5F 		.ascii	"\351/\034_\177\277X\350o\200\020\274c\324\337\240\000"
 323      7FBF58E8 
 323      6F8010BC 
 323      63D4DFA0 
 323      00
 324 0522 F5AEB5FE 		.ascii	"\365\256\265\376\356\231\352\357\276\246\277\201\210"
 324      EE99EAEF 
 324      BEA6BF81 
 324      88
 325 052f FE1CC3FA 		.ascii	"\376\034\303\372;\257\352O\205\362i\252\331\003D\304"
 325      3BAFEA4F 
 325      85F269AA 
 325      D90344C4 
 326 053f B27CED8B 		.ascii	"\262|\355\213S\276\036\306/_C\026\345\353\001a\364\310"
 326      53BE1EC6 
 326      2F5F4316 
 326      E5EB0161 
 326      F4C8
 327 0551 88D16381 		.ascii	"\210\321c\201\221\314-\313\327\207\334\014\243,\036"
ARM GAS  /tmp/ccBdzYwS.s 			page 26


 327      91CC2DCB 
 327      D787DC0C 
 327      A32C1E
 328 0560 C1E8C170 		.ascii	"\301\350\301p\371\252y\342\362\225\315#\345+\207\213"
 328      F9AA79E2 
 328      F295CD23 
 328      E52B878B 
 329 0570 F2A53D7D 		.ascii	"\362\245=}\270\321\361\022>)\016\262#im)\267\326Z\341"
 329      B8D1F112 
 329      3E290EB2 
 329      23696D29 
 329      B7D65AE1 
 330 0584 9911AF6F 		.ascii	"\231\021\257o\271<\276\330\320<\203<n\000\362#N@.\343"
 330      B93CBED8 
 330      D03C833C 
 330      6E00F223 
 330      4E402EE3 
 331 0598 9662CB37 		.ascii	"\226b\3137\005r\271\006$\031\217[\265\317i\373N\320"
 331      0572B906 
 331      24198F5B 
 331      B5CF69FB 
 331      4ED0
 332 05aa 79FE989B 		.ascii	"y\376\230\233)bZ_*\203\025\3747\347\263\225t\336OL\\"
 332      29625A5F 
 332      2A8315FC 
 332      37E7B395 
 332      74DE4F4C 
 333 05bf 28F96C15 		.ascii	"(\371l\025\217\315g\273Hi\253\005\032\237\362x\371l"
 333      8FCD67BB 
 333      4869AB05 
 333      1A9FF278 
 333      F96C
 334 05d1 1C8E7EC6 		.ascii	"\034\216~\306\243\363\031\316\245\24544\234\317V)\235"
 334      A3F319CE 
 334      A5A53434 
 334      9CCF5629 
 334      9D
 335 05e2 6A86A216 		.ascii	"j\206\242\026mGL\250-\274\263.\221\016\0305\001[1Gm"
 335      6D474CA8 
 335      2DBCB32E 
 335      910E1835 
 335      015B3147 
 336 05f7 E98BADC8 		.ascii	"\351\213\255\310\011z\265\254Q\355\225\366UM\024\326"
 336      097AB5AC 
 336      51ED95F6 
 336      554D14D6 
 337 0607 4407A6C0 		.ascii	"D\007\246\3006L\201\330\306\375D\245@g\374\0248R\300"
 337      364C81D8 
 337      C6FD44A5 
 337      4067FC14 
 337      3852C0
 338 061a 1770EB80 		.ascii	"\027p\353\200\037,O\355\363\250\214\351#\276\320\004"
 338      1F2C4FED 
 338      F3A88CE9 
 338      23BED004 
 339 062a FC5314EF 		.ascii	"\374S\024\357ky\374x/ \332\212\2142\375\\\020\263\316"
 339      6B79FC78 
ARM GAS  /tmp/ccBdzYwS.s 			page 27


 339      2F20DA8A 
 339      8C32FD5C 
 339      10B3CE
 340 063d 3ADE8B4D 		.ascii	":\336\213MeZ\242\311\224\214\013<\\\30391\254\346\304"
 340      655AA2C9 
 340      948C0B3C 
 340      5CC33931 
 340      ACE6C4
 341 0650 5D9635B9 		.ascii	"]\2265\271=\216\206\327\307\327p\350\267k\370\013\002"
 341      3D8E86D7 
 341      C7D770E8 
 341      B76BF80B 
 341      02
 342 0661 A334AE86 		.ascii	"\2434\256\2067\0304\\A\032\336(\240\332\024W\303cqt"
 342      3718345C 
 342      411ADE28 
 342      A0DA1457 
 342      C3637174 
 343 0675 B34EC338 		.ascii	"\263N\3038\227\226\322\320\260\2067(\235\252D\251\365"
 343      9796D2D0 
 343      B0863728 
 343      9DAA44A9 
 343      F5
 344 0686 855EC321 		.ascii	"\205^\303!\335\204PD\203\372\226\252\310\020)rl\224"
 344      DD845044 
 344      83FA96AA 
 344      C8102972 
 344      6C94
 345 0698 22DDECA4 		.ascii	"\"\335\354\244\367)\025\371\345\223)2dT\344\226x\212"
 345      F72915F9 
 345      E5932932 
 345      6454E496 
 345      788A
 346 06aa DC6AA1C8 		.ascii	"\334j\241\310/\211\204mFE\226\011\230\277\262V\344\327"
 346      2F89846D 
 346      46459609 
 346      98BFB256 
 346      E4D7
 347 06bc A68ADCAE 		.ascii	"\246\212\334\256)\362\313\210\"=\303\212\354U\025Y\021"
 347      29F2CB88 
 347      223DC38A 
 347      EC551559 
 347      11
 348 06cd A94E57EE 		.ascii	"\251NW\356?\361{\207r\2558}\243\024\247\346M5\017\325"
 348      3FF17B87 
 348      72AD387D 
 348      A314A7E6 
 348      4D350FD5 
 349 06e1 672B7CC8 		.ascii	"g+|\310\025\305)\253\264\277\320\256\032<\275\241\356"
 349      15C529AB 
 349      B4BFD0AE 
 349      1A3CBDA1 
 349      EE
 350 06f2 D3A457B7 		.ascii	"\323\244W\267\212\343\266\034\345E\245hy\014S\337\333"
 350      8AE3B61C 
 350      E545A568 
 350      790C53DF 
ARM GAS  /tmp/ccBdzYwS.s 			page 28


 350      DB
 351 0703 EDE4AFD2 		.ascii	"\355\344\257\322\243{\323\343B\027\372\304\017-\304"
 351      A37BD3E3 
 351      4217FAC4 
 351      0F2DC4
 352 0712 717AE925 		.ascii	"qz\351%\036\230\241\202gF\252\335\226K\227O;\245\\."
 352      1E98A182 
 352      6746AADD 
 352      964B974F 
 352      3BA55C2E 
 353 0726 5E641C6F 		.ascii	"^d\034o\313\3754Ae\264\243\371\367\305g.\311\362j\031"
 353      CBFD3441 
 353      65B4A3F9 
 353      F7C5672E 
 353      C9F26A19 
 354 073a 68ED2E6E 		.ascii	"h\355.n\362\236\012\031Eg\312a\217lt\306F\337\335\004"
 354      F29E0A19 
 354      4567CA61 
 354      8F6C74C6 
 354      46DFDD04 
 355 074e 3BCD5123 		.ascii	";\315Q#0QG\303\036AC\245\310\240\331\215gw\212\227C"
 355      305147C3 
 355      1E4143A5 
 355      C8A0D98D 
 355      67778A97 
 356 0763 632151DB 		.ascii	"c!Q\333\371\377\324\035\013\260\262\177\274\3778A\001"
 356      F9FFD41D 
 356      0BB0B27F 
 356      BCFF3841 
 356      01
 357 0774 6B1CEC45 		.ascii	"k\034\354E\260\2528\201U\255\200\245=\300\214CNk\024"
 357      B0AA3881 
 357      55AD80A5 
 357      3DC08C43 
 357      4E6B14
 358 0787 B09255A4 		.ascii	"\260\222U\244\242\217t\241\354\205\310\233C\363\003"
 358      A28F74A1 
 358      EC85C89B 
 358      43F303
 359 0796 D5F22931 		.ascii	"\325\362)1\310\015\306 \267O \227Uzk\202j?\273\342\306"
 359      C80DC620 
 359      B74F2097 
 359      557A6B82 
 359      6A3FBBE2 
 360 07ab 3E8F54A6 		.ascii	">\217T\246\340w\367b\367\241QFg\343a\277\211\263:\341"
 360      E077F762 
 360      F7A15146 
 360      67E361BF 
 360      89B33AE1 
 361 07bf 6C4FEED1 		.ascii	"lO\356\321\235\036\332\373x\000\370\326@\364\272\333"
 361      9D1EDAFB 
 361      7800F8D6 
 361      40F4BADB 
 362 07cf 9B       		.ascii	"\233"
 363 07d0 CE8D9276 		.ascii	"\316\215\222v(\346\227\037\272\272\304c4?\016\352M\314"
 363      28E6971F 
 363      BABAC463 
ARM GAS  /tmp/ccBdzYwS.s 			page 29


 363      343F0EEA 
 363      4DCC
 364 07e2 7F27CC47 		.ascii	"\177'\314G\224\227\0279\213\263HzF9JC\354Q\266\227\366"
 364      94971739 
 364      8BB3487A 
 364      46394A43 
 364      EC51B697 
 365 07f7 97485295 		.ascii	"\227HR\225\342k\357\305\207\225n\243\257g\241\321\304"
 365      E26BEFC5 
 365      87956EA3 
 365      AF67A1D1 
 365      C4
 366 0808 D70114C2 		.ascii	"\327\001\024\302\364\247\275@\035\034\351\002u\037e"
 366      F4A7BD40 
 366      1D1CE902 
 366      751F65
 367 0817 441EF044 		.ascii	"D\036\360D\004\032\261\244J*I'\251C&i\242\2439\225n"
 367      041AB1A4 
 367      4A2A4927 
 367      A9432669 
 367      A2A33995 
 368 082c 584DDCEC 		.ascii	"XM\334\354\372\325_>\355m\006\207-n_\007\311U\2631\211"
 368      FAD55F3E 
 368      ED6D0687 
 368      2D6E5F07 
 368      C955B331 
 369 0841 7C2FD47B 		.ascii	"|/\324{\304\372\366u\3244\211\034\323\222\010\031g\327"
 369      C4FAF675 
 369      D434891C 
 369      D3920819 
 369      67D7
 370 0853 21B733BC 		.ascii	"!\2673\274\351\363\011\264\305\2307Y\317\025I\243\304"
 370      E9F309B4 
 370      C5983759 
 370      CF1549A3 
 370      C4
 371 0864 A1A005A9 		.ascii	"\241\240\005\251\322\013\2633\177\310\256W\346\017\030"
 371      D20BB333 
 371      7FC8AE57 
 371      E60F18
 372 0873 15A81F3D 		.ascii	"\025\250\037=\347\311\321\204\037\307\031\323'\205\244"
 372      E7C9D184 
 372      1FC719D3 
 372      2785A4
 373 0882 094FF90C 		.ascii	"\011O\371\014qb\204\004\336\326<\363m\025j}\376n5!\246"
 373      71628404 
 373      DED63CF3 
 373      6D156A7D 
 373      FE6E3521 
 374 0897 BF7CEA1C 		.ascii	"\277|\352\034\006?Z$\360\023\204\375I#\366?\011\354"
 374      063F5A24 
 374      F01384FD 
 374      4923F63F 
 374      09EC
 375 08a9 4F5927F0 		.ascii	"OY'\360\323\246\330\237\321\260?\021\251\211\371Cj\332"
 375      D3A6D89F 
 375      D1B03F11 
ARM GAS  /tmp/ccBdzYwS.s 			page 30


 375      A989F943 
 375      6ADA
 376 08bb AED58A20 		.ascii	"\256\325\212 \265\352t\255\357t\255\003\012o9\245\367"
 376      B5EA74AD 
 376      EF74AD03 
 376      0A6F39A5 
 376      F7
 377 08cc 2698BC7F 		.ascii	"&\230\274\177\234X$\215FWg\025\312\216}\361u\213C\011"
 377      9C58248D 
 377      46576715 
 377      CA8E7DF1 
 377      758B4309 
 378 08e0 6F0F9CE3 		.ascii	"o\017\234\343\210\376\363O\220\235^0\315Nm\206\354\264"
 378      88FEF34F 
 378      909D5E30 
 378      CD4E6D86 
 378      ECB4
 379 08f2 B158AF81 		.ascii	"\261X\257\201\366\341\274\376+\203\360\374HA\2702\311"
 379      F6E1BCFE 
 379      2B83F0FC 
 379      4841B832 
 379      C9
 380 0903 4E1B5003 		.ascii	"N\033P\003o\014\271(^Z\326#I\265J\2768\370\360l\223"
 380      6F0CB928 
 380      5E5AD623 
 380      49B54ABE 
 380      38F8F06C 
 381 0918 472B1DD3 		.ascii	"G+\035\323\016\357h\227\345\245T:\034\320\241\234\345"
 381      0EEF6897 
 381      E5A5543A 
 381      1CD0A19C 
 381      E5
 382 0929 4F9320D5 		.ascii	"O\223 \325pU\352$\223\027L\364\321{\030\317s\321\"l"
 382      7055EA24 
 382      93174CF4 
 382      D17B18CF 
 382      73D1226C 
 383 093d BB2CC2F6 		.ascii	"\273,\302\366<Y\3556J\347\222\220N\217u\330^6\225\316"
 383      3C59ED36 
 383      4AE79290 
 383      4E8F75D8 
 383      5E3695CE 
 384 0951 CF9A74C8 		.ascii	"\317\232t\3108\225\274\373\036V\"\215\211._/F\225/5"
 384      3895BCFB 
 384      1E56228D 
 384      892E5F2F 
 384      46952F35 
 385 0965 4AF39C3A 		.ascii	"J\363\234:\206\364\245l\022\\\305\220\274\"J\3315,e"
 385      86F4A56C 
 385      125CC590 
 385      BC224AD9 
 385      352C65
 386 0978 4290E14D 		.ascii	"B\220\341M\305c\351\3401U\276p\365\270U\3319\270\350"
 386      C563E9E0 
 386      3155BE70 
 386      F5B855D9 
 386      39B8E8
ARM GAS  /tmp/ccBdzYwS.s 			page 31


 387 098b 854899BF 		.ascii	"\205H\231\277n(\363\261r\2701,\207\230\312^\247Uvs\251"
 387      6E28F3B1 
 387      72B8312C 
 387      8798CA5E 
 387      A7557673 
 388 09a0 85510E68 		.ascii	"\205Q\016h_\324\207\332Mv\332\217\240\352)3G\357\210"
 388      5FD487DA 
 388      4D76DA8F 
 388      A0EA2933 
 388      47EF88
 389 09b3 99E38DBF 		.ascii	"\231\343\215\277\253l\3533G_\334\314q\323\"s\364\022"
 389      AB6CEB33 
 389      475FDCCC 
 389      71D32273 
 389      F412
 390 09c5 FDB78CF4 		.ascii	"\375\267\214\364\337\026\364\367[g\216\001S\372\177"
 390      DF16F4F7 
 390      5B678E01 
 390      53FA7F
 391 09d4 D1E8EFD5 		.ascii	"\321\350\357\3252G\336\026%s\264)\202\310\336\235\013"
 391      3247DE16 
 391      2573B429 
 391      82C8DE9D 
 391      0B
 392 09e5 CA4F1949 		.ascii	"\312O\031I\212.\264k\311\357\320\337\035N\277y-I6\311"
 392      8A2EB46B 
 392      C9EFD0DF 
 392      1D4EBF79 
 392      2D4936C9 
 393 09f9 18938BC4 		.ascii	"\030\223\213\304\335~\220\323/\026I8\026^5p\232\247"
 393      DD7E90D3 
 393      2F164938 
 393      165E3570 
 393      9AA7
 394 0a0b EC57DF38 		.ascii	"\354W\3378\277D\323\357U\234_j\303\351kENO\206\273<"
 394      BF44D3EF 
 394      559C5F6A 
 394      C3E96B45 
 394      4E4F86BB 
 395 0a20 45E1F81E 		.ascii	"E\341\370\036\317\014I)\350\276\241\335-v\243\374\262"
 395      CF0C4929 
 395      E8BEA1DD 
 395      2D76A3FC 
 395      B2
 396 0a31 59D459BF 		.ascii	"Y\324Y\277\332>\263R\316C\212\221\215\373|&\013#u\342"
 396      DA3EB352 
 396      CE438A91 
 396      8DFB7C26 
 396      0B2375E2 
 397 0a45 B34C02BA 		.ascii	"\263L\002\272\265bk\306\364\351^\345O\320\027\010z\375"
 397      B5626BC6 
 397      F4E95EE5 
 397      4FD01708 
 397      7AFD
 398 0a57 416F2063 		.ascii	"Ao c\221?\315\027i\316\241\177\347\004|\377]\344[\220"
 398      913FCD17 
 398      69CEA17F 
ARM GAS  /tmp/ccBdzYwS.s 			page 32


 398      E7047CFF 
 398      5DE45B90 
 399 0a6b E69B939A 		.ascii	"\346\233\223\232\372\307\351i\214/\016J\201`\300\341"
 399      FAC7E969 
 399      8C2F0E4A 
 399      8160C0E1 
 400 0a7b F70516CD 		.ascii	"\367\005\026\315\017\276\256\231\310\010x\3232\322\323"
 400      0FBEAE99 
 400      C80878D3 
 400      32D2D3
 401 0a8a 3316787D 		.ascii	"3\026x}\357\007\275\177{k\226\367\315Y\263\3771\333"
 401      EF07BD7F 
 401      7B6B96F7 
 401      CD59B3FF 
 401      31DB
 402 0a9c FB6686DF 		.ascii	"\373f\206\337\347\375\307\202\264\371\213\336\365y\323"
 402      E7FDC782 
 402      B4F98BDE 
 402      F579D3
 403 0aab D203F302 		.ascii	"\322\003\363\002s\376\223\2266\375=\346|gn\300\367/"
 403      73FE9396 
 403      36FD3DE6 
 403      7C676EC0 
 403      F72F
 404 0abd FFBC3F98 		.ascii	"\377\274?\230\230X\230\341\017\006\310\310\233\263\336"
 404      985898E1 
 404      0F06C8C8 
 404      9BB3DE
 405 0acc F7A6BD97 		.ascii	"\367\246\275\227\2066\346,~-\035W\275\024=\033w</b\371"
 405      8636E62C 
 405      7E2D1D57 
 405      BD143D1B 
 405      773C2F62 
 406 0ae1 BDC00701 		.ascii	"\275\300\007\001\034\037=k\366[\311dy\241\177\336\264"
 406      1C1F3D6B 
 406      F65BC964 
 406      79A17FDE 
 406      B4
 407 0af2 E429A98C 		.ascii	"\344)\251\214\373\2313\335\227\236\341\377\000\307\336"
 407      FB9933DD 
 407      979EE1FF 
 407      00C7DE
 408 0b01 9A8D5DD3 		.ascii	"\232\215]\323\"\343L\372\263\237I\213\203\013'\3075"
 408      22E34CFA 
 408      B39F498B 
 408      830B27C7 
 408      35
 409 0b12 BA388836 		.ascii	"\2728\2106\355\357\372\346\317\375\300\2618\370\357"
 409      EDEFFAE6 
 409      CFFDC0B1 
 409      38F8EF
 410 0b21 450BD2A4 		.ascii	"E\013\322\244\205s\375\360\316\330\340\274t\237?9\020"
 410      8573FDF0 
 410      CED8E0BC 
 410      749F3F39 
 410      10
 411 0b32 9C377F7E 		.ascii	"\2347\177~\362\\\177\272\357]\366\177\365&\014\307"
ARM GAS  /tmp/ccBdzYwS.s 			page 33


 411      F25C7FBA 
 411      EF5DF67F 
 411      F5260CC7 
 412              		.text
 413              		.section	.gnu.lto_rt_test_002_001_execute.part.2.f15c8bee5951bf88,"",%progbits
 414 0000 789C9D55 		.ascii	"x\234\235U\335O\024W\024\277g\356\314\356\012Hi\237"
 414      DD4F1457 
 414      14BF67EE 
 414      CCEE0A48 
 414      699F
 415 0012 9A94E8EC 		.ascii	"\232\224\350\354\003\011&\226!\255\211I\323\2304<\371"
 415      03092696 
 415      21AD8949 
 415      D398343C 
 415      F9
 416 0023 40D2C81F 		.ascii	"@\322\310\037@\3508\225MY\326\316,\215<q\273bI\300H"
 416      40E83895 
 416      4D59D6CE 
 416      2C8D3C71 
 416      BB6249C0 
 417 0038 5FDA5D28 		.ascii	"_\332](8MM\003\255E\276Z-\213\"\305Z+*(\345C\013-(\205"
 417      384D4D03 
 417      AD45BE5A 
 417      2D8B22C5 
 417      5A2B2A28 
 418 0052 56D1442D 		.ascii	"V\321D-Im\232b\317\275\303\216|,K\322\311\356\336\271"
 418      496D9A62 
 418      CFBDC38E 
 418      7C2C4BD2 
 418      C9EEDEB9 
 419 0066 E7EB9EFB 		.ascii	"\347\353\236\373\373\235_V!\0229\351%d;\020\362:!\004"
 419      FB9D5F56 
 419      211239E9 
 419      25643B10 
 419      F23A2104 
 420 007a 3C04940F 		.ascii	"<\004\224\017\207\360E\001I\254\222$\217k\204\245\321"
 420      87F04501 
 420      49AC9224 
 420      8F6B84A5 
 420      D1
 421 008b F836C232 		.ascii	"\3706\3022(\310\334\372\276O\006\340/\314\007\244J\221"
 421      28C8DCFA 
 421      BE4F06E0 
 421      2FCC07A4 
 421      4A91
 422 009d A80C5550 		.ascii	"\250\014UPO\243\024\006j\346{\244\035-\014\237\376\350"
 422      4FA31406 
 422      6AE67BA4 
 422      1D2D0C9F 
 422      FEE8
 423 00af B8A7995D 		.ascii	"\270\247\231]g\324\246\2044\340\227?\320\002;\010\306"
 423      67D4A684 
 423      34E0973F 
 423      D0023B08 
 423      C6
 424 00c0 CDD75DEC 		.ascii	"\315\327]\354\363\322\335\300\337\317\\\036\252UrN0"
 424      F3D2DDC0 
ARM GAS  /tmp/ccBdzYwS.s 			page 34


 424      DFCF5C1E 
 424      AA55724E 
 424      30
 425 00d1 1661FDF3 		.ascii	"\026a\375\363\215Y\217\",\306d\233\002\264\002\305<"
 425      8D598F22 
 425      2CC6649B 
 425      02B402C5 
 425      3C
 426 00e2 78351BF2 		.ascii	"x5\033\362\263E6\006\337\351\\\372h\253G\206/ \307)"
 426      B3453606 
 426      DFE95CFA 
 426      68AB4786 
 426      2F20C729 
 427 00f6 0A5F8207 		.ascii	"\012_\202\007\273\007ni\037\001\306\226\236\3260\026"
 427      BB076E69 
 427      1F01C696 
 427      9ED63016 
 428 0106 DFF3FC0B 		.ascii	"\337\363\374\013@\270M\"X\212\362\037Y\354\025\376J"
 428      40B84D22 
 428      588AF21F 
 428      59EC15FE 
 428      4A
 429 0117 482DE6F2 		.ascii	"H-\346\362\033\324R\205\257\264\216Jb\275\013\221\305"
 429      1BD45285 
 429      AFB48E4A 
 429      62BD0B91 
 429      C5
 430 0128 3F6EE9BC 		.ascii	"?n\351\274*\236\366\361\221\201a\3571\274\201$:\355"
 430      2A9EF6F1 
 430      918161EF 
 430      31BC8124 
 430      3AED
 431 013a E9B93FE9 		.ascii	"\351\271?\351\255\372\227\371\320p\202:\015\325=\034"
 431      ADFA97F9 
 431      D070823A 
 431      0DD53D1C 
 432 014a ED4EB3A1 		.ascii	"\355N\263\241\031lJ\341+\304\341$`\263\320\0066p<\036"
 432      196C4AE1 
 432      2BC4E124 
 432      60B3D006 
 432      36703C1E 
 433 015e 77B464F0 		.ascii	"w\264d\360\002\330\003\234B\317\034H<\353FuG\023\345"
 433      02D8039C 
 433      42CF1C48 
 433      3CEB4675 
 433      4713E5
 434 0171 761964DC 		.ascii	"v\031d\334>\272\3268\233\311\267\012\250\270\375|p\344"
 434      3EBAD638 
 434      9BC9B70A 
 434      A8B8FD7C 
 434      70E4
 435 0183 7C3ADD23 		.ascii	"|:\335#\316\\\214u\266nYF\347\257X\356'\207\257\034"
 435      CE5C8C75 
 435      B66E5946 
 435      E7AF58EE 
 435      2787AF1C 
 436 0197 659F46B2 		.ascii	"e\237F\262l\352\201N\007\237\016\310\206vp\020\202."
ARM GAS  /tmp/ccBdzYwS.s 			page 35


 436      6CEA814E 
 436      079F0EC8 
 436      86767010 
 436      822E
 437 01a9 C8C1A49A 		.ascii	"\310\301\244\232\273\354\234\314\353y@\205n\364\335"
 437      BBEC9CCC 
 437      EB794085 
 437      6EF4DD
 438 01b8 83C89DEE 		.ascii	"\203\310\235\356\372\3704\270\020V;\034\235\366*\002"
 438      FAF834B8 
 438      10563B1C 
 438      9DF62A02 
 439 01c8 C2060A64 		.ascii	"\302\006\012d\215\357i\333\316)\234\207\257\271SZ\353"
 439      8DEF69DB 
 439      CE299C87 
 439      AFB9535A 
 439      EB
 440 01d9 FC3396DB 		.ascii	"\3743\226\333D\371i\004\276\341\001t\0059\004N\343 "
 440      44F96904 
 440      BEE10174 
 440      0539044E 
 440      E320
 441 01eb 1138C399 		.ascii	"\0218\303\231\0012\314\017\375\314\356z\222\346\237"
 441      0132CC0F 
 441      FDCCEE7A 
 441      92E69F
 442 01fa 019BC554 		.ascii	"\001\233\305T\233zyt\333l/\363\311\022\006~\013~\201"
 442      9B7A7974 
 442      DB6C2FF3 
 442      C912067E 
 442      0B7E81
 443 020d E5C3FBA3 		.ascii	"\345\303\373\243\223\022Z\240\007d\3216\201\270\300"
 443      93125AA0 
 443      0764D136 
 443      81B8C0
 444 021c A7B5EFC2 		.ascii	"\247\265\357\302\\\206\177v9\333\307c\037\237\352\032"
 444      5C867F76 
 444      39DBC763 
 444      1F9FEA1A 
 445 022c 4B17D9BD 		.ascii	"K\027\331\275<\033\316\"\277s\020Q\005\004\204,@\365"
 445      3C1BCE22 
 445      BF731051 
 445      0504842C 
 445      40F5
 446 023e 4CDDD461 		.ascii	"L\335\324a/\277[3\205\325\344mi\2402\246\234\203\252"
 446      2FBF5B33 
 446      85D5E46D 
 446      69A032A6 
 446      9C83AA
 447 0251 555CE088 		.ascii	"U\\\340\210@\037d\3334MT\022\223\205\023\203\351\011"
 447      401F64DB 
 447      344D5412 
 447      93851383 
 447      E909
 448 0263 DAD69071 		.ascii	"\332\326\220q|\0232\316\0132\334!\342h\364\247\"#\356"
 448      7C1332CE 
 448      0B32DC21 
ARM GAS  /tmp/ccBdzYwS.s 			page 36


 448      E268F4A7 
 448      2223EE
 449 0276 92A1AC82 		.ascii	"\222\241\254\202\363;\016\347:vr\247\221\235\001\036"
 449      F33B0EE7 
 449      3A7672A7 
 449      919D011E 
 450 0286 ED59CFCE 		.ascii	"\355Y\317\316\256\343\224\037O\340\302zv\276\027\354"
 450      AEE3941F 
 450      4FE0C27A 
 450      76BE17EC 
 451 0296 5C5CC1CE 		.ascii	"\\\\\301\316\222}\273/=\001|\277\000\376\007\001\374"
 451      927DBB2F 
 451      3D017CBF 
 451      00FE0701 
 451      FC
 452 02a7 5A942FB9 		.ascii	"Z\224/\271(\363\342\004\325\262\364A\373\223c\212\003"
 452      28F3E204 
 452      D5B2F441 
 452      FB93638A 
 452      03
 453 02b8 B3C4A15A 		.ascii	"\263\304\241Z\200#\252\263\245\253QOo@\336\011\374\210"
 453      8023AAB3 
 453      A5AB514F 
 453      6F40DE09 
 453      FC88
 454 02ca A86328FA 		.ascii	"\250c(\372\232\243K\227d\377\3022\253\031\274\307\243"
 454      9AA34B97 
 454      64FFC232 
 454      AB19BCC7 
 454      A3
 455 02db 638BD174 		.ascii	"c\213\321t\014\2171\206\246\255p\031\374\274\026\201"
 455      0C8F3186 
 455      A6AD7019 
 455      FCBC1681 
 456 02eb 41A8B269 		.ascii	"A\250\262i&\371\015\252'\013\236Uw\241\005\274\312\225"
 456      26F90DAA 
 456      270B9E55 
 456      77A105BC 
 456      CA95
 457 02fd 65D8EBF0 		.ascii	"e\330\353\360\272\361m\216\222\357%\224\274\251t\257"
 457      BAF16D8E 
 457      92EF2594 
 457      BCA974AF 
 458 030d BAD2BD86 		.ascii	"\272\322\275\206\322\345s\260\001\351\233)p\010rRK\356"
 458      D2E573B0 
 458      01E99B29 
 458      70087252 
 458      4BEE
 459 031f E6A6921B 		.ascii	"\346\246\222\033N!\271!N\352\365\365\244\336\020\244"
 459      4E21B921 
 459      4EEAF5F5 
 459      A4DE10A4 
 460 032f 8EAC2035 		.ascii	"\216\254 5\211\232~JJ\352\250K\352\220+\235\007\011"
 460      899A7E4A 
 460      4AEAA84B 
 460      EA902B9D 
 460      0709
ARM GAS  /tmp/ccBdzYwS.s 			page 37


 461 0341 E9C849A5 		.ascii	"\351\310I\2453\346H\247\261wqPq\244\343\203\361d\322"
 461      33E648A7 
 461      B1777150 
 461      71A4E383 
 461      F164D2
 462 0354 91FFA774 		.ascii	"\221\377\247t&\020\305\224Z\231\332@+77\326\312\255"
 462      2610C594 
 462      5A99DA40 
 462      2B3737D6 
 462      CAAD
 463 0366 145A99E0 		.ascii	"\024Z\231\340\260\376\274\036\326I\001\353Tj\255\374"
 463      B0FEBC1E 
 463      D64901EB 
 463      546AADFC 
 464 0376 9214D65F 		.ascii	"\222\024\326_]X'\236i\345l\375\262V\024\216MB+$\251"
 464      5D58279E 
 464      69E56CFD 
 464      B256148E 
 464      4D422B24 
 465 038b 52A68552 		.ascii	"R\246\205R\024\364E\257\376S\357\363\327H\216R\236\343"
 465      14F445AF 
 465      FE53EFF3 
 465      D7488E52 
 465      9EE3
 466 039d E1BFB737 		.ascii	"\341\277\2677\375\235\351*%\013f\022J\271\355(\205\353"
 466      FD9DE92A 
 466      250B6612 
 466      4AB9ED28 
 466      85EB
 467 03af 40167F69 		.ascii	"@\026\177i\017\220\000\361\324\342\300\241\001w\273"
 467      0F9000F1 
 467      D4E2C0A1 
 467      0177BB
 468 03be F2F234E7 		.ascii	"\362\3624\347\0236\254\260f\2065+Ta\352Fb[\314\327b"
 468      1336ACB0 
 468      6686352B 
 468      5461EA46 
 468      625BCCD7 
 469 03d3 CB78B7C2 		.ascii	"\313x\267\302(\327\215\342\374\374W\362t\3421\015\253"
 469      28D78DE2 
 469      FCFC57F2 
 469      74E2310D 
 469      AB
 470 03e4 A22CEC7D 		.ascii	"\242,\354}\253\3042\3364\003/\2735B\226\246\207\202"
 470      ABC432DE 
 470      34032FBB 
 470      354296A6 
 470      8782
 471 03f6 C150B976 		.ascii	"\301P\271v0d\206-\355\215}\205\005\205\2074\275T\017"
 471      3064862D 
 471      ED8D7D85 
 471      05858734 
 471      BD540F
 472 0409 9946F17B 		.ascii	"\231F\361{\273\203y\245\344\265$\321\306\2410\217\325"
 472      BB8379A5 
 472      E4B524D1 
 472      C6A1308F 
ARM GAS  /tmp/ccBdzYwS.s 			page 38


 472      D5
 473 041a 0A0A8BF6 		.ascii	"\012\012\213\366\026i\005\030\254\355-\327\313*\366"
 473      16690518 
 473      ACED2DD7 
 473      CB2AF6
 474 0429 1B9A1EB4 		.ascii	"\033\232\036\264\002V\361\001]\307\324\355+S\261\325"
 474      0256F101 
 474      5DC7D4ED 
 474      2B53B1D5 
 475 0439 4022A6D4 		.ascii	"@\"\246\324\252\264\320\237UX\264O\345M\0354\003;\325"
 475      AAB4D09F 
 475      5558B44F 
 475      E54D1D34 
 475      033BD5
 476 044c 9C7C2299 		.ascii	"\234|\"\231\304\0334\202!\263\222\274d\032\007\002V"
 476      C41B3482 
 476      21B392BC 
 476      641A0702 
 476      56
 477 045d D8AC54CB 		.ascii	"\330\254T\313pQ\365RC\177G}\273$Pf\354'/\362n\325\262"
 477      7051F552 
 477      437F477D 
 477      BB245066 
 477      EC272FF2 
 478 0474 924AC35C 		.ascii	"\222J\303\\\355\370\017tv\312\300"
 478      EDF80F74 
 478      76CAC0
 479              		.text
 480              		.section	.gnu.lto_rt_test_002_001_execute.f15c8bee5951bf88,"",%progbits
 481 0000 789C9D95 		.ascii	"x\234\235\225\337O\024W\024\307\357\231;\263\273\260"
 481      DF4F1457 
 481      14C7EF99 
 481      3BB3BBB0 
 482 0010 8B60D387 		.ascii	"\213`\323\207\246!v\367a\023L\224!\326\304\244\017M"
 482      A62176F7 
 482      61134C94 
 482      21D6C4A4 
 482      0F4D
 483 0022 5A9E7C20 		.ascii	"Z\236| i\344\017 t\230\226MwY;\263\030yb\272\242$\320"
 483      69E40F20 
 483      7498964D 
 483      77593BB3 
 483      187962BA 
 484 0039 6A1FDABA 		.ascii	"j\037\332\272XpLM\003\375\201\310\217V\301\012[\224"
 484      58704C4D 
 484      03FD81C8 
 484      8F56C10A 
 484      5B94
 485 004b 2A524011 		.ascii	"*R@\021\351\017,\240TR\212F\264\244\366\301B\317\275"
 485      E90F2CA0 
 485      54528A46 
 485      B4A4F6C1 
 485      42CFBD
 486 005e B3BBFCD8 		.ascii	"\263\273\374\330\355\222v\002;{\356=\347\334{?\337\373"
 486      ED927602 
 486      3B7BEE3D 
 486      E7DC7B3F 
ARM GAS  /tmp/ccBdzYwS.s 			page 39


 486      DFFB
 487 0070 05890864 		.ascii	"\005\211\010d\312N\210\027\010y\225\020\0026\002\302"
 487      CA4E8817 
 487      08799510 
 487      023602C2 
 488 0080 FB2384BC 		.ascii	"\373#\204\274\343\020\004iB&F&\355\331F\014\027\215"
 488      E3100469 
 488      42264626 
 488      EDD9460C 
 488      178D
 489 0092 45228F44 		.ascii	"E\"\217D\220X\022H\000\354m8\200T\013T\224\240\032\216"
 489      90581248 
 489      00EC6D38 
 489      80540B54 
 489      94A01A8E 
 490 00a6 D1E314FA 		.ascii	"\321\343\024\372k\347\272\205\355\315\006>\321\343\023"
 490      6BE7BA85 
 490      EDCD063E 
 490      D1E313
 491 00b5 B626E3BA 		.ascii	"\266&\343\272AMJH\003\376\262\007\232a;\301\274\271"
 491      414D4A48 
 491      03FEB207 
 491      9A613BC1 
 491      BCB9
 492 00c7 FA815E3B 		.ascii	"\372\201^;\335\003\354\373\271\301\221:\311{\3320\302"
 492      DD03ECFB 
 492      B9C1913A 
 492      C97BDA30 
 492      C2
 493 00d8 4674EE44 		.ascii	"Ft\356D\316\243\260\0211D\223\002\264\000\305:x1\027"
 493      CEA3B011 
 493      31449302 
 493      B400C53A 
 493      783117
 494 00eb 0A727935 		.ascii	"\012ry5&\337m_\3760\313&\302g\340\265\232\302\347`\303"
 494      26DF6D5F 
 494      FE30CB26 
 494      C267E0B5 
 494      9AC2E760 
 495 0100 33001B69 		.ascii	"3\000\033i\033\203\250\261\274RkD\247\236\237\\z\272"
 495      1B83A8B1 
 495      BC526B44 
 495      A79E9F5C 
 495      7ABA
 496 0112 F55991B0 		.ascii	"\365Y\221\260a\033\301n\031\354\303\305\343,\3665\233"
 496      611BC16E 
 496      19ECC3C5 
 496      E32CF635 
 496      9B
 497 0123 7D105287 		.ascii	"}\020R\207=\330I\352\251\300\336t\036\302K\277\265)"
 497      3DD849EA 
 497      A9C0DE74 
 497      1EC24BBF 
 497      B529
 498 0135 AC2BAEF6 		.ascii	"\254+\256\366\321\341\376Q\373Q<\201\300w\332\335}\177"
 498      D1E1FE51 
 498      FB513C81 
ARM GAS  /tmp/ccBdzYwS.s 			page 40


 498      C077DADD 
 498      7D7F
 499 0147 D25EFDB7 		.ascii	"\322^\375\267\341\300\201\323\324\332P\375\342xg\246"
 499      E1C081D3 
 499      D4DA50FD 
 499      E27867A6 
 500 0157 094D6052 		.ascii	"\011M`R\012_\"\207/\0007\013\255`\002\316v]\276r\304"
 500      0A5F2287 
 500      2F00370B 
 500      AD6002CE 
 500      765DBE72 
 501 016c C11AE071 		.ascii	"\301\032\340q\340\014\316\334\003\201U\335\2509\333"
 501      E00CCEDC 
 501      038155DD 
 501      A839DB
 502 017b 48D9B808 		.ascii	"H\331\270\010\"\206\217\206O\314na\241\004n\014?\275"
 502      22868F86 
 502      4FCC6E61 
 502      A1046E0C 
 502      3FBD
 503 018d 36D6E7A4 		.ascii	"6\326\347\244/\3635\227\"\355-\0311:O\"y\037\037\032"
 503      2FF33597 
 503      22ED2D19 
 503      313A4F22 
 503      791F1F1A 
 504 01a1 7AD73815 		.ascii	"z\3278\025\3161\251\015\332->g!\027\332\300\"\004\035"
 504      CE31A90D 
 504      DA2D3E67 
 504      2117DAC0 
 504      22041D
 505 01b4 E0C5A2DA 		.ascii	"\340\305\242\332y\343\242\310\372\331\300\015\2358\367"
 505      79E3A2C8 
 505      FAD9C00D 
 505      9D38F7
 506 01c3 3B84EF76 		.ascii	";\204\357v\036\353\231\206\004\302\032K\243\3076\211"
 506      1EEB9986 
 506      04C21A4B 
 506      A3C73689 
 507 01d3 236CA040 		.ascii	"#l\240@6\314\255\264\356\270\215\267\242\213M\012\033"
 507      36CCADB4 
 507      EEB88DB7 
 507      A28B4D0A 
 507      1B
 508 01e4 27FF88E4 		.ascii	"'\377\210\3445R\266\032\201\257X\002]#\016\201\257\361"
 508      3552B61A 
 508      81AF5802 
 508      5D230E81 
 508      AFF1
 509 01f6 3A1138C7 		.ascii	":\0218\307\224\0012\312\026\375\304\354\370+\3233\003"
 509      940132CA 
 509      16FDC4EC 
 509      F82BD333 
 509      03
 510 0207 A611719B 		.ascii	"\246\021q\233\324\316\262[g/\030\016Q\300\304\363\340"
 510      D4CEB25B 
 510      672F180E 
 510      51C0C4F3 
ARM GAS  /tmp/ccBdzYwS.s 			page 41


 510      E0
 511 0218 E12C17EF 		.ascii	"\341,\027\357\217O\0128\002\335 \362m\023\350\341|Z"
 511      8F4F0A38 
 511      02DD20F2 
 511      6D13E8E1 
 511      7C5A
 512 022a 7A2FDD73 		.ascii	"z/\335syfc\325\016\226\373\370L\307-'\257\276\300\252"
 512      796663D5 
 512      0E96FBF8 
 512      4CC72D27 
 512      AFBEC0AA 
 513 023e E11B1011 		.ascii	"\341\033\020\021n\330\315\021\020\262\00053\365=\207"
 513      6ED8CD11 
 513      10B20035 
 513      33F53D87 
 514 024e ECEC6C4D 		.ascii	"\354\354lMT\\/^F\003\025\261\344\"T\023&\212I3y)\277"
 514      545C2F5E 
 514      460315B1 
 514      E4225413 
 514      268A4933 
 515 0265 4A783F30 		.ascii	"Jx?0?\256\323\006\372'7\241\337\313\351'n\015;~_:\372"
 515      3FAED306 
 515      FA2737A1 
 515      DFCBE927 
 515      6E0D3B7E 
 516 027c 7F26E84B 		.ascii	"\177&\350K\353\370E\031\277$9\362\246Q\216oY\266-Y\216"
 516      EBF84519 
 516      BF2439F2 
 516      A6518E6F 
 516      59B62D59 
 517 0291 DD27295B 		.ascii	"\335')[\236@\177\262\034\227\270\034\227\327\310\261"
 517      9E407FB2 
 517      1C97B81C 
 517      97D7C8B1 
 518 02a1 6CDEE975 		.ascii	"l\336\351u\306I\367q\322\003\234\364F\254\337%\260\262"
 518      C649F771 
 518      D2039CF4 
 518      46ACDF25 
 518      B0B2
 519 02b3 E604EDB1 		.ascii	"\346\004\355\261|\244m\361=\311\342\312\320\"\352\303"
 519      7CA46DF1 
 519      3DC9E2CA 
 519      D022EAC3 
 520 02c3 6E2BCC58 		.ascii	"n+\314X\217\331\331\200B\023\270\202\2301\025\347\346"
 520      8FD9D980 
 520      4213B882 
 520      983115E7 
 520      E6
 521 02d4 9B4F9D77 		.ascii	"\233O\235wz\026b2\2728\340\356F?fG\014\003G\262\340"
 521      7A166232 
 521      BA38E0EE 
 521      463F6647 
 521      0C0347B2 
 522 02e9 2A78582B 		.ascii	"*xX+\002\203Pm\322-\344W\250\231,\\m\236 \013x\222k"
 522      0283506D 
 522      D22DE457 
 522      A8992C5C 
ARM GAS  /tmp/ccBdzYwS.s 			page 42


 522      6D9E200B 
 523 0300 31EAF578 		.ascii	"1\352\365x\332\236m\226s\257\306\235\273\251U\207\022"
 523      DA9E6D96 
 523      73AFC69D 
 523      BBA95587 
 523      12
 524 0311 56FDDEB2 		.ascii	"V\375\336\262\352\300\312\223h\266eU\001\206W\255\372"
 524      EAC0CA93 
 524      68B66555 
 524      018657AD 
 524      FA
 525 0322 1F0D3802 		.ascii	"\037\0158\002\336\364\216\373\300\276\231\343F\3238"
 525      DEF48EFB 
 525      C0BE99E3 
 525      46D338
 526 0331 6E84497C 		.ascii	"n\204I|=Y\342\033\\\342\2615\022\2470\323\315\224\022"
 526      3D59E21B 
 526      5CE2B135 
 526      12A730D3 
 526      CD9412
 527 0344 8F27241E 		.ascii	"\217'$\036I8g(\356\034WJ\347\334b\316\031N\345\034\327"
 527      49386728 
 527      EE1C574A 
 527      E7DC62CE 
 527      194EE51C 
 528 0359 FF74CE04 		.ascii	"\377t\316\004bKk\225\210=\265U~\370w\253\374\230\306"
 528      624B6B95 
 528      883DB555 
 528      7EF877AB 
 528      FC98C6
 529 036c 2A138CE3 		.ascii	"*\023\214\343O\311\034\177\346\034'\323[\345vJ\216\277"
 529      4FC91C7F 
 529      E61C27D3 
 529      5BE5764A 
 529      8EBF
 530 037e 24384EAC 		.ascii	"$8N\254Z\245\353h\314*Y\214\315\252U\262SZe\212[%\213"
 530      5AA5EB68 
 530      CC2A598C 
 530      CDAA55B2 
 530      535A658A 
 531 0395 59E5C17C 		.ascii	"Y\345\301|#xj\004\313*\331l\217\017\237\016\316;\023"
 531      23786A04 
 531      CB2AD96C 
 531      8F0F9F0E 
 531      CE3B13
 532 03a8 5EC981E9 		.ascii	"^\311\201\351\270Wf\222\274\222\275\306\034\"y\350\244"
 532      B8576692 
 532      BC92BDC6 
 532      1C2279E8 
 532      A4
 533 03b9 0B4079EE 		.ascii	"\013@y\356\372U\2676\340\337R\002wpU\223>\303\263%\376"
 533      FA55B736 
 533      E0DF5202 
 533      77705593 
 533      3EC3B325 
 534 03ce 5FF0016A 		.ascii	"_\360\001j\310\237:\274\2448\200\321\356\374|\331\372"
 534      C89F3ABC 
ARM GAS  /tmp/ccBdzYwS.s 			page 43


 534      A43880D1 
 534      EEFC7CD9 
 534      FA
 535 03df 09A97A48 		.ascii	"\011\251zH\326B\262\036\254\324\0245\036\226\260w\211"
 535      D642B21E 
 535      ACD41435 
 535      1E96B077 
 535      89
 536 03f0 AEBE5DA9 		.ascii	"\256\276]\251V(jIA\301\256|\205\3304U\257\364\207\354"
 536      56286A49 
 536      41C1AE7C 
 536      85D83455 
 536      AFF487EC 
 537 0404 AF97EAEA 		.ascii	"\257\227\352\352k\232og\242GP\227\225` \020\254\220"
 537      6B9A6F67 
 537      A2475097 
 537      95602010 
 537      AC90
 538 0416 F707B590 		.ascii	"\367\007\265\220.\277\262\257\250\260\350\240\254\224"
 538      2EBFB2AF 
 538      A8B0E8A0 
 538      AC94
 539 0424 2B414D2D 		.ascii	"+AM-9\260'\220_N^J\221\255\036\014\261\\\271\260\250"
 539      39B02790 
 539      5F4E5E4A 
 539      91AD1E0C 
 539      B15CB9B0 
 540 0439 786FB15C 		.ascii	"xo\261\\\210\311\362\336\012\305_Y\246\312J@\367\351"
 540      88C9F2DE 
 540      0AC55F59 
 540      A6CA4A40 
 540      F7E9
 541 044b 256F2A0A 		.ascii	"%o*\012\226\276\260\266\024\267\352\213\347\224\353"
 541      96BEB0B6 
 541      14B7EA8B 
 541      E794EB
 542 045a 553ACEE7 		.ascii	"U:\316\347\024\025\357s\263M\355\327|;\334\336\002\""
 542      1415EF73 
 542      B34DEDD7 
 542      7C3BDCDE 
 542      0222
 543 046c 68C41E50 		.ascii	"h\304\036P\003A\255\212<\247\251\245eUn\277O\017\271"
 543      0341AD8A 
 543      3CA7A9A5 
 543      65556EBF 
 543      4F0FB9
 544 047f 95725579 		.ascii	"\225rUy\313\375F\251\317\257\226\021\317\001\237\026"
 544      CBFD46A9 
 544      CFAF9611 
 544      CF019F16 
 545 048f AA2CF5BB 		.ascii	"\252,\365\273C\276\200\252\351)2\376\001\331T\336\211"
 545      43BE80AA 
 545      E92932FE 
 545      01D954DE 
 545      89
 546              		.text
 547              		.section	.gnu.lto_rt_test_sequence_002.f15c8bee5951bf88,"",%progbits
ARM GAS  /tmp/ccBdzYwS.s 			page 44


 548 0000 789C6365 		.ascii	"x\234ce`b\310a``\010g\200\200\351\314\214\315\277\366"
 548      6062C861 
 548      60600867 
 548      8080E9CC 
 548      8CCDBFF6 
 549 0014 7FE6ABFF 		.ascii	"\177\346\253\377\3330\243\241\341A\367\011N\346\371"
 549      DB30A3A1 
 549      E141F709 
 549      4EE6F9
 550 0023 CC0C8B99 		.ascii	"\314\014\213\231!R\013\272\016~\346V4\237\3370Ca>3#"
 550      21520BBA 
 550      0E7EE656 
 550      349FDF30 
 550      43613E33 
 551 0038 48E4EBFF 		.ascii	"H\344\353\377?\323y!\212\027\374U\235\317\314\304\270"
 551      3FD37921 
 551      8A17FC55 
 551      9DCFCCC4 
 551      B8
 552 0049 825111AC 		.ascii	"\202Q\021\254v\327\313I\273\371,\2665t,h\000*f\236\301"
 552      76D7CB49 
 552      BBF92CB6 
 552      35742C68 
 552      002A669E 
 553 005e CCC0B892 		.ascii	"\314\300\270\222\261~\0063#\343r\306z\006\306U\214\026"
 553      B17E0633 
 553      23E372C6 
 553      7A06C655 
 553      8C16
 554 0070 0C267A7A 		.ascii	"\014&zz\372\020T\222Z\\\242_T\242_\234_Z\224\234\012"
 554      FA105492 
 554      5A5CA25F 
 554      54A25F9C 
 554      5F5A949C 
 555 0085 E3C683E8 		.ascii	"\343\306\203\350\370\342\324\302\322\324\274\344\324"
 555      F8E2D4C2 
 555      D2D4BCE4 
 555      D4
 556 0092 78030323 		.ascii	"x\003\003#\275d\006\205\340\312\342\222\324\\\205\234"
 556      BD640685 
 556      E0CAE292 
 556      D45C859C 
 557 00a2 C4CAD422 		.ascii	"\304\312\324\"\205\304\274\024\205\202\374\242\022\205"
 557      85C4BC14 
 557      8582FCA2 
 557      1285
 558 00b0 CCBC92D4 		.ascii	"\314\274\222\324\242\264\304\344T\006\000z\201F\233"
 558      A2B4C4E4 
 558      5406007A 
 558      81469B
 559              		.text
 560              		.section	.gnu.lto_rt_test_sequence_002_array.f15c8bee5951bf88,"",%progbits
 561 0000 789C6365 		.ascii	"x\234ce`b\270\317\300\300`\306\000\001\323\231\031\247"
 561      6062B8CF 
 561      C0C060C6 
 561      0001D399 
 561      19A7
ARM GAS  /tmp/ccBdzYwS.s 			page 45


 562 0012 B51E3ACF 		.ascii	"\265\036:\317\336\307<\237\231\201\021\304\275\330\262"
 562      DEC73C9F 
 562      998111C4 
 562      BDD8B2
 563 0021 610E3388 		.ascii	"a\0163\210\313\310\310\002\3446\377\332\377\231\257"
 563      CBC8C802 
 563      E436FFDA 
 563      FF99AF
 564 0030 FE6FC38C 		.ascii	"\376o\303\214\206\206\007\335\3539A\312\0263C4\036\372"
 564      868607DD 
 564      EB3941CA 
 564      16334334 
 564      1EFA
 565 0042 B461390F 		.ascii	"\264a9\017D%3\252\312\005;U\301\352\030\301\352\216"
 565      442533AA 
 565      CA053B55 
 565      C1EA18C1 
 565      EA8E
 566 0054 FEFF7E80 		.ascii	"\376\377~\200\037\242\216\011M\335V\210:&\260:d\211"
 566      1FA28E09 
 566      4DDD5688 
 566      3A26B03A 
 566      6489
 567 0066 8D100966 		.ascii	"\215\020\011f\260\304\374\331S\277qXlk\350X\320\020"
 567      B0C4FCD9 
 567      53BF7158 
 567      6C6BE858 
 567      D010
 568 0078 309F9989 		.ascii	"0\237\231\211\321P\206q\035c=\243\221\014\343Z \265"
 568      D1508671 
 568      1D633DA3 
 568      910CE35A 
 568      20B5
 569 008a 86518671 		.ascii	"\206Q\206q5\220^\005\244W\002\351\025@z9\243\014\003"
 569      35905E05 
 569      A45702E9 
 569      15407A39 
 569      A30C03
 570 009d E37A460B 		.ascii	"\343zF\013\006\023==}\010*I-.\321/*\321/\316/-JN\205"
 570      06133D3D 
 570      7D082A49 
 570      2D2ED12F 
 570      2AD12FCE 
 571 00b6 71E34174 		.ascii	"q\343At|qjaij^rj\274\201\201\221^2\003\0001\020`V"
 571      7C716A61 
 571      696A5E72 
 571      6ABC8181 
 571      915E3203 
 572              		.text
 573              		.section	.gnu.lto_rt_test_002_001.f15c8bee5951bf88,"",%progbits
 574 0000 789C6365 		.ascii	"x\234ce`b\350d``\010c\200\200\351\314\214;w\276\271"
 574      6062E864 
 574      60600863 
 574      8080E9CC 
 574      8C3B77BE 
 575 0015 CD5EFFB7 		.ascii	"\315^\377\267\241\243\241\341A\367\177f\346\371\314"
 575      A1A3A1E1 
ARM GAS  /tmp/ccBdzYwS.s 			page 46


 575      41F77F66 
 575      E6F9CC
 576 0024 0C339921 		.ascii	"\0143\231!R\323Z\017\235g\357\003\2110\202\270\373\227"
 576      52D35A0F 
 576      9D67EF03 
 576      893082B8 
 576      FB97
 577 0036 1FF8CAA5 		.ascii	"\037\370\312\245h>\277a\206\302|f\260\310\365\211\207"
 577      683EBF61 
 577      86C27C66 
 577      B0C8F589 
 577      87
 578 0047 CFF302F5 		.ascii	"\317\363\002\365\316hhX\360\221\177>3\023\343JFE\260"
 578      CE686858 
 578      F0917F3E 
 578      3313E34A 
 578      4645B0
 579 005a D6894D0B 		.ascii	"\326\211M\013\027pZlk\350X\320\3400\237\231y\006\320"
 579      17705A6C 
 579      6BE858D0 
 579      E0309F99 
 579      7906D0
 580 006d 88558CF5 		.ascii	"\210U\214\3653\230\031\031W0\312\314\000*\004S\314\214"
 580      33981919 
 580      5730CACC 
 580      002A0453 
 580      CC8C
 581 007f CB19EB19 		.ascii	"\313\031\353\031\030W3Z0\230\350\351\351CPIjq\211~Q"
 581      1857335A 
 581      3098E8E9 
 581      E9435049 
 581      6A71897E 
 582 0094 897E717E 		.ascii	"\211~q~iQr*\214\033\017\242\343\213S\013KS\363\222S"
 582      6951722A 
 582      8C1B0FA2 
 582      E38B530B 
 582      4B53F392 
 583 00a9 E30D0C8C 		.ascii	"\343\015\014\214\364\222\031\344\203+\213KRs\0252\363"
 583      F49219E4 
 583      832B8B4B 
 583      52731532 
 583      F3
 584 00ba 4A52D38B 		.ascii	"JR\323\2132K*\025\322J\363\222K2\363\363\022s\200<\006"
 584      324B2A15 
 584      D24AF392 
 584      4B32F3F3 
 584      1273803C 
 585 00cf 0032844D 		.ascii	"\0002\204M\212"
 585      8A
 586              		.text
 587              		.section	.gnu.lto_rt_test_002_002.f15c8bee5951bf88,"",%progbits
 588 0000 789C6365 		.ascii	"x\234ce`b\350d``\010a\200\200\351\314\214;w\276\271"
 588      6062E864 
 588      60600861 
 588      8080E9CC 
 588      8C3B77BE 
 589 0015 CD5EFFB7 		.ascii	"\315^\377\267\241\243\241\341A\367\014v\346\371\314"
ARM GAS  /tmp/ccBdzYwS.s 			page 47


 589      A1A3A1E1 
 589      41F70C76 
 589      E6F9CC
 590 0024 0C339921 		.ascii	"\0143\231!R\323Z\017\235g\357\003\2110\202\270\273\356"
 590      52D35A0F 
 590      9D67EF03 
 590      893082B8 
 590      BBEE
 591 0036 BF3EC6AF 		.ascii	"\277>\306\257h>\277a\206\302|f\260\310\217\323\313~"
 591      683EBF61 
 591      86C27C66 
 591      B0C88FD3 
 591      CB7E
 592 0048 7203F5CE 		.ascii	"r\003\365\316hhX\260Uf>3\023\343JFE\260\326\251\023"
 592      686858B0 
 592      55663E33 
 592      13E34A46 
 592      45B0D6A9 
 593 005d A7CEE1B0 		.ascii	"\247\316\341\260\330\326\320\261\240\301a>3\363\014"
 593      D8D6D0B1 
 593      A0C1613E 
 593      33F30C
 594 006c A011AB18 		.ascii	"\240\021\253\030\353g032\256`\224\231\001T\010\246\230"
 594      EB673033 
 594      32AE6094 
 594      99015408 
 594      A698
 595 007e 199733D6 		.ascii	"\031\2273\32630\256f\264`0\321\323\323\207\240\222\324"
 595      3330AE66 
 595      B46030D1 
 595      D3D387A0 
 595      92D4
 596 0090 E212FDA2 		.ascii	"\342\022\375\242\022\375\342\374\322\242\344T\0307\036"
 596      12FDE2FC 
 596      D2A2E454 
 596      18371E
 597 009f 44C717A7 		.ascii	"D\307\027\247\026\226\246\346%\247\306\033\030\030\351"
 597      1696A6E6 
 597      25A7C61B 
 597      1818E9
 598 00ae 2533C83A 		.ascii	"%3\310:\027e\226d&'\346(T\345\347\245\026+\244\225\346"
 598      17659664 
 598      2627E628 
 598      54E5E7A5 
 598      162BA495 
 599 00c3 259764E6 		.ascii	"%\227d\346\347%\346d\226T2\000\000\211cL\206"
 599      E725E664 
 599      96543200 
 599      0089634C 
 599      86
 600              		.text
 601              		.section	.gnu.lto_rt_test_002_003.f15c8bee5951bf88,"",%progbits
 602 0000 789C6365 		.ascii	"x\234ce`b\350d``\210d\200\200\351\314\214;w\276\271"
 602      6062E864 
 602      60608864 
 602      8080E9CC 
 602      8C3B77BE 
ARM GAS  /tmp/ccBdzYwS.s 			page 48


 603 0015 CD5EFFB7 		.ascii	"\315^\377\267\241\243\241\341A\367yv\346\371\314\014"
 603      A1A3A1E1 
 603      41F77976 
 603      E6F9CC0C 
 604 0025 33992152 		.ascii	"3\231!R\323Z\017\235g\357\003\2110\202\270m\017\226"
 604      D35A0F9D 
 604      67EF0389 
 604      3082B86D 
 604      0F96
 605 0037 6EE55034 		.ascii	"n\345P4\237\3370Ca>3Xdk\363\256\235,@\2753\032\032\026"
 605      9FDF3043 
 605      613E3358 
 605      646BF3AE 
 605      9D2C40BD 
 606 004f 6C949BCF 		.ascii	"l\224\233\317\314\304\270\222Q\021\254\365\313\326\356"
 606      CCC4B892 
 606      5111ACF5 
 606      CBD6EE
 607 005e A7CC16DB 		.ascii	"\247\314\026\333\032:\02648\314gf\236\0014b\025c\375"
 607      1A3A1634 
 607      38CC6766 
 607      9E013462 
 607      1563FD
 608 0071 0C6646C6 		.ascii	"\014fF\306\025\21423\200\012\301\0243\343r\306z\006"
 608      158C3233 
 608      800AC114 
 608      33E372C6 
 608      7A06
 609 0083 C6D58C16 		.ascii	"\306\325\214\026\014&zz\372\020T\222Z\\\242_T\242_\234"
 609      0C267A7A 
 609      FA105492 
 609      5A5CA25F 
 609      54A25F9C 
 610 0097 5F5A949C 		.ascii	"_Z\224\234\012\343\306\203\350\370\342\324\302\322\324"
 610      0AE3C683 
 610      E8F8E2D4 
 610      C2D2D4
 611 00a6 BCE4D478 		.ascii	"\274\344\324x\003\003#\275d\006%\317\274\222\324\242"
 611      030323BD 
 611      640625CF 
 611      BC92D4A2 
 612 00b6 A2D28292 		.ascii	"\242\322\202\222b\205\214\304\274\224\234\314\274t\205"
 612      62858CC4 
 612      BC949CCC 
 612      BC7485
 613 00c5 B4D2BCE4 		.ascii	"\264\322\274\344\222\314\374\274\304\234\314\222J\006"
 613      92CCFCBC 
 613      C49CCC92 
 613      4A06
 614 00d3 00CCE54E 		.ascii	"\000\314\345N^"
 614      5E
 615              		.text
 616              		.section	.gnu.lto_rt_test_002_004.f15c8bee5951bf88,"",%progbits
 617 0000 789C6365 		.ascii	"x\234ce`b\350d``\210d\200\200\351\314\214;w\276\271"
 617      6062E864 
 617      60608864 
 617      8080E9CC 
ARM GAS  /tmp/ccBdzYwS.s 			page 49


 617      8C3B77BE 
 618 0015 CD5EFFB7 		.ascii	"\315^\377\267\241\243\241\341A\367LN\346\371\314\014"
 618      A1A3A1E1 
 618      41F74C4E 
 618      E6F9CC0C 
 619 0025 33992152 		.ascii	"3\231!R\323Z\017\235g\357\003\2110\202\270\013N\036"
 619      D35A0F9D 
 619      67EF0389 
 619      3082B80B 
 619      4E1E
 620 0037 FEC9A168 		.ascii	"\376\311\241h>\277a\206\302|f\260\310\365\343\323'\361"
 620      3EBF6186 
 620      C27C66B0 
 620      C8F5E3D3 
 620      27F1
 621 0049 01F5CE68 		.ascii	"\001\365\316hhX\260Se>3\023\343JFE\260\326\223+\377"
 621      6858B053 
 621      653E3313 
 621      E34A4645 
 621      B0D6932B 
 622 005e EF65B5D8 		.ascii	"\357e\265\330\326\320\261\240\301a>3\363\014\240\021"
 622      D6D0B1A0 
 622      C1613E33 
 622      F30CA011 
 623 006e AB18EB67 		.ascii	"\253\030\353g032\256`\224\231\001T\010\246\230\031\227"
 623      303332AE 
 623      60949901 
 623      5408A698 
 623      1997
 624 0080 33D63330 		.ascii	"3\32630\256f\264`0\321\323\323\207\240\222\324\342\022"
 624      AE66B460 
 624      30D1D3D3 
 624      87A092D4 
 624      E212
 625 0092 FDA212FD 		.ascii	"\375\242\022\375\342\374\322\242\344T\0307\036D\307"
 625      E2FCD2A2 
 625      E4541837 
 625      1E44C7
 626 00a1 17A71696 		.ascii	"\027\247\026\226\246\346%\247\306\033\030\030\351%3"
 626      A6E625A7 
 626      C61B1818 
 626      E92533
 627 00b0 28055716 		.ascii	"(\005W\026\227\244\346*\204d&g+8\347\227\346\225\244"
 627      97A4E62A 
 627      84642667 
 627      2B38E797 
 627      E695A4
 628 00c3 1629A495 		.ascii	"\026)\244\225\346%\227d\346\347%\346d\226T2\000\000"
 628      E6259764 
 628      E6E725E6 
 628      64965432 
 628      0000
 629 00d5 09354E65 		.ascii	"\0115Ne"
 630              		.text
 631              		.section	.gnu.lto_.symbol_nodes.f15c8bee5951bf88,"",%progbits
 632 0000 789C5D8E 		.ascii	"x\234]\216KN\303@\020Dk\252=c\276\011\030\366 N\302"
 632      4B4EC340 
ARM GAS  /tmp/ccBdzYwS.s 			page 50


 632      10446BAA 
 632      3D63BE09 
 632      18F6204E 
 633 0015 CDDA4816 		.ascii	"\315\332H\026ls\004\204r\010\330\001\262\200$\020\376"
 633      6C730484 
 633      7208D801 
 633      B2802410 
 633      FE
 634 0026 DF154816 		.ascii	"\337\025H\026\013\204X\262\"\210\031\333\221\260WU\375"
 634      0B8458B2 
 634      228819DB 
 634      91B05755 
 634      FD
 635 0037 AABB662C 		.ascii	"\252\273f,\210w\003\200\347T\203\336\030P`\177\367("
 635      88770380 
 635      E75483DE 
 635      1850607F 
 635      F728
 636 0049 7580BD21 		.ascii	"u\200\275!\326C6\246\262\225\361\224~h\261\201Q\231"
 636      D64336A6 
 636      B295F194 
 636      7E68B181 
 636      5199
 637 005b B283B462 		.ascii	"\262\203\264bCj\324\336\373\241\332\232\231\260\267"
 637      436AD4DE 
 637      FBA1DA9A 
 637      99B0B7
 638 006a E9D919D5 		.ascii	"\351\331\031\325\265\337\277\246\331\332\360\037\260"
 638      B5DFBFA6 
 638      D9DAF01F 
 638      B0
 639 0077 57646506 		.ascii	"Wde\006\224\324\033\261#F\225\271\240\255\314%]i\314"
 639      94D41BB1 
 639      234695B9 
 639      A0ADCC25 
 639      5D69CC
 640 008a 1D352E9B 		.ascii	"\0355.\233\2004T\233[\352L\003<Qg\033\340\231:\327\000"
 640      8034549B 
 640      5BEA4C03 
 640      3C51671B 
 640      E0993AD7 
 641 009f 0FD4F906 		.ascii	"\017\324\371\006\270\247.4\300\013u\361?\020\351\"\337"
 641      B8A72E34 
 641      C00B75F1 
 641      3F10E922 
 641      DF
 642 00b0 FE5C13E9 		.ascii	"\376\\\023\351 \333\361\032-#\237\024F\242%d\201[\237"
 642      20DBF11A 
 642      2D239F14 
 642      46A22564 
 642      815B9F
 643 00c3 BFFE1AB1 		.ascii	"\277\376\032\261>\177\013\332E\277\344\035\024\245F"
 643      3E7F0BDA 
 643      45BFE41D 
 643      14A546
 644 00d2 38FE389C 		.ascii	"8\3768\234\210\330\025\344_\245I\220}\007\343\022\024"
 644      88D815E4 
ARM GAS  /tmp/ccBdzYwS.s 			page 51


 644      5FA54990 
 644      7D07E312 
 644      14
 645 00e3 A313276E 		.ascii	"\243\023'n\025\375a\320\244:\011s\250\212\247Z\363\270"
 645      15FD61D0 
 645      A43A0973 
 645      A88AA75A 
 645      F3B8
 646 00f5 DE8BEBBB 		.ascii	"\336\213\353\273\330ao\374H\374\001\275f\204\022"
 646      D8616FFC 
 646      48FC01BD 
 646      668412
 647              		.text
 648              		.section	.gnu.lto_.refs.f15c8bee5951bf88,"",%progbits
 649 0000 789C258A 		.ascii	"x\234%\212\311\015\2000\020\003\355\201\004r\211BR\014"
 649      C90D8030 
 649      1003ED81 
 649      04728942 
 649      520C
 650 0012 65F3A722 		.ascii	"e\363\247\"\026\260\344C#'\241S\222\345\020\341\234"
 650      16B0E443 
 650      2327A153 
 650      92E510E1 
 650      9C
 651 0023 DEE5C8C3 		.ascii	"\336\345\310\303\236\366%\226[\344\217\016\266\277\275"
 651      9EF62596 
 651      5BE48F0E 
 651      B6BFBD
 652 0032 53D642A5 		.ascii	"S\326B\245\321\031\256\301\033\311\035\305\007=\227"
 652      D119AEC1 
 652      1BC91DC5 
 652      073D97
 653 0041 FC0328   		.ascii	"\374\003("
 654              		.text
 655              		.section	.gnu.lto_.decls.f15c8bee5951bf88,"",%progbits
 656 0000 789CB55A 		.ascii	"x\234\265Z{TU\327\231\277\373\354\313\373e\320Im\207"
 656      7B5455D7 
 656      99BFFBEC 
 656      CBFB65D0 
 656      496D87
 657 0013 A6A94357 		.ascii	"\246\251CW\350\232V\324d\332L\327\254N\022\222&\316"
 657      E89A56D4 
 657      64DA4CD7 
 657      AC4E1292 
 657      26CE
 658 0025 AAB545D3 		.ascii	"\252\265E\323\311\2325\263\356\020\270\215L\021,\\L"
 658      C99A35B3 
 658      EE10B88D 
 658      4C112C5C 
 658      4C
 659 0036 F34F7B79 		.ascii	"\363O{y\210\340\003\021E\345\245\010*(\202\240\"(\""
 659      88E00311 
 659      45E5A508 
 659      2A2882A0 
 659      222822
 660 0049 088A3C05 		.ascii	"\010\212<\005Q\2207\010\310[T \200(0\337~\234{\036\336"
 660      51903708 
ARM GAS  /tmp/ccBdzYwS.s 			page 52


 660      C85B5420 
 660      802830DF 
 660      7E9C7B1E 
 661 005e 6BD23F7A 		.ascii	"k\322?z\227\237\347\354}\276\375\373~\337\267\277\275"
 661      979FE7EC 
 661      7DBEFDFB 
 661      7EDFB7BF 
 661      BD
 662 006f CFDEFB60 		.ascii	"\317\336\373`\245\0214?^\243\321 \033\215f\332J\243"
 662      A511343F 
 662      5EA3D120 
 662      1B8D66DA 
 662      4AA3
 663 0081 59829FB3 		.ascii	"Y\202\237\263F\243\311\001q\0009\017r\001\244\024\344"
 663      46A3C901 
 663      7100390F 
 663      7201A414 
 663      E4
 664 0092 06C84690 		.ascii	"\006\310F\220j\220\032\220\006\220F\220f\220\026\015"
 664      6A901A90 
 664      06904690 
 664      6690160D 
 665 00a2 FB91B6ED 		.ascii	"\373\221\266\355 ] = \213\244\022i4\030\304\012\304"
 665      205D203D 
 665      208BA412 
 665      693418C4 
 665      0AC4
 666 00b4 11C405E4 		.ascii	"\021\304\005\3445\220\177\000\371!\310\217@~\014\002"
 666      35907F00 
 666      F921C88F 
 666      407E0C02 
 667 00c4 1434FF0C 		.ascii	"\0244\377\014\327\377\000\331\010\362;\220M \237\202"
 667      D7FF00D9 
 667      08F23B90 
 667      4D209F82 
 668 00d4 FC27D228 		.ascii	"\374'\322(~\305P\266\205\353\357A>C\214\227+\310\012"
 668      7EC550B6 
 668      85EBEF41 
 668      3E438C97 
 668      2BC80A
 669 00e7 F20CE4BF 		.ascii	"\362\014\344\277\240N\307\333\330s>>P\366\005\361\007"
 669      A04EC7DB 
 669      D8733E3E 
 669      50F605F1 
 669      07
 670 00f8 09000904 		.ascii	"\011\000\011\004\331\006\022\002\022\012\362%\242T)"
 670      D9061202 
 670      120AF225 
 670      A25429
 671 0107 07F9AF14 		.ascii	"\007\371\257\0241\014b\353-3\366\276\202r!\310%\220"
 671      310C62EB 
 671      2D33F6BE 
 671      827221C8 
 671      2590
 672 0119 BF708C6C 		.ascii	"\277p\214l\370O\313cp\005\356\257\202\\\263\200_@\342"
 672      F84FCB63 
 672      7005EEAF 
ARM GAS  /tmp/ccBdzYwS.s 			page 53


 672      825CB380 
 672      5F40E2
 673 012c C2F145CC 		.ascii	"\302\361E\314OA\354\220\322\027\302\303\031\244\014"
 673      4F41EC90 
 673      D217C2C3 
 673      19A40C
 674 013b C441E61B 		.ascii	"\304A\346\033\211w9\224o\200Tr\377\252@j@\352x\274\035"
 674      89773994 
 674      6F805472 
 674      FFAA406A 
 674      40EA78BC 
 675 0150 5536C96F 		.ascii	"U6\311o\001\352\226\251\354N\361\276\356\347\034H\237"
 675      01EA96A9 
 675      EC4EF1BE 
 675      EEE71C48 
 675      9F
 676 0161 D783DE6D 		.ascii	"\327\203\336m\220F\220; M +@\356\202,p,-\357\353f\336"
 676      9046903B 
 676      204D202B 
 676      40EE822C 
 676      702C2DEF 
 677 0178 AFAF99B1 		.ascii	"\257\257\231\261\207\004\215f\225\312\336\244\314\317"
 677      87048D66 
 677      95CADEA4 
 677      CCCF
 678 0186 EF23664F 		.ascii	"\357#fO\214\257\332_1\016\255\210\361lC\214g)\347*\362"
 678      8CAFDA5F 
 678      310EAD88 
 678      F16C438C 
 678      6729E72A 
 679 019b 6987AB3B 		.ascii	"i\207\253;\347+r'\274;\220\224\317or~\313)1)F]\262\030"
 679      E72B7227 
 679      BC3B9094 
 679      CF6F727E 
 679      CB293129 
 680 01b3 F6F0F83D 		.ascii	"\366\360\370= v@\206@F@\306\020\213\371#\304|&\371\373"
 680      20764086 
 680      404640C6 
 680      108BF923 
 680      C47C26F9 
 681 01c8 94E7B2B9 		.ascii	"\224\347\262\271\376\265\001\277_\343~\023\037_\225"
 681      FEB501BF 
 681      5FE37E13 
 681      1F5F95
 682 01d7 AF93201E 		.ascii	"\257\223 \036\234\2538\316\010Wq\254\221\037\311{\254"
 682      9CAB38CE 
 682      085771AC 
 682      911FC97B 
 682      AC
 683 01e8 E2FA6319 		.ascii	"\342\372c\031_K<\034\004\346\357\337\312C\264Mx\210"
 683      5F4B3C1C 
 683      04E6EFDF 
 683      CA43B44D 
 683      7888
 684 01fa 637D0AEE 		.ascii	"c}\012\356\005\216o\247ac\373U|\260\005N\011\002\313"
 684      058E6FA7 
 684      6163FB55 
ARM GAS  /tmp/ccBdzYwS.s 			page 54


 684      7CB0054E 
 684      0902CB
 685 020d 9D69A89F 		.ascii	"\235i\250\237\003y\006\262\236`C\335Gp\365\342\372\344"
 685      037906B2 
 685      9E6043DD 
 685      4770F5E2 
 685      FAE4
 686 021f B251D5F6 		.ascii	"\262Q\325\366\030(a\270\376;b\374\177#{N0\311\234A\346"
 686      182861B8 
 686      FE3B62FC 
 686      7F237B4E 
 686      30C99C41 
 687 0234 0E3287FC 		.ascii	"\0162\207\374N\3256\203\333]\213\3308X\004\371%bu\377"
 687      4ED53683 
 687      DB5D8BD8 
 687      385804F9 
 687      256275FF 
 688 0248 0AD79F81 		.ascii	"\012\327\237\201\374\013\310\3179o+3\371\234)\303\300"
 688      FC0BC8CF 
 688      396F2B33 
 688      F99C29C3 
 688      C0
 689 0259 E45E7835 		.ascii	"\344^x5\206\306\014F\266\014\303\026\356\355\276\001"
 689      86C60C46 
 689      B60CC316 
 689      EEEDBE01 
 690 0269 A3EB6508 		.ascii	"\243\353e\010\315\271\277\021\243\307\014\306a\214\242"
 690      CDB9BF11 
 690      A3C70CC6 
 690      618CA2
 691 0278 6F7537A3 		.ascii	"ou7\243X\214\\\355\321kP\274\023\231\227\202YQ\013\305"
 691      588C5CED 
 691      D16B50BC 
 691      13999782 
 691      59510BC5 
 692 028c A7F549FD 		.ascii	"\247\365I\375\316P\\a\217\336\204\342\251k5\263\366"
 692      CE505C61 
 692      8FDE84E2 
 692      A96B35B3 
 692      F6
 693 029d F6D146F8 		.ascii	"\366\321F\370\305E\030\355>!j\247\221\033\312Bn`\344"
 693      C54518ED 
 693      3E216AA7 
 693      911BCA42 
 693      6E60E4
 694 02b0 0C827909 		.ascii	"\014\202y\011y\272\241L(\202v~\357\213\253Z\206\345"
 694      79BAA14C 
 694      2882767E 
 694      EF8BAB5A 
 694      86E5
 695 02c2 0AC5A91B 		.ascii	"\012\305\251\033YS.\014+\016A\271y\256d\336\021C:\035"
 695      59532E0C 
 695      2B0E41B9 
 695      79AE64DE 
 695      11433A1D 
 696 02d6 C6DADE8C 		.ascii	"\306\332\336\214\3111k\344\341\206\220=\310)#\373\331"
 696      C9316BE4 
ARM GAS  /tmp/ccBdzYwS.s 			page 55


 696      E186903D 
 696      C82923FB 
 696      D9
 697 02e7 6A501EB2 		.ascii	"jP\036\262G9\010\213\204\223\214`\374\311_I\265\006"
 697      4739088B 
 697      84938C60 
 697      FCC95F49 
 697      B506
 698 02f9 EEC28D4F 		.ascii	"\356\302\215O\322\215x\245\006\275\355\206\326\270i"
 698      D28D78A5 
 698      06BDED86 
 698      D6B869
 699 0308 502EF2A0 		.ascii	"P.\362\240\2174(\037X\235\003\032IF[Z\003\366fkR\263"
 699      8F34281F 
 699      589D031A 
 699      49465B5A 
 699      03F6666B 
 700 031e 9D5CE328 		.ascii	"\235\\\343(y\243\361MD\261\317\202^6e\177\036\271\212"
 700      79A3F14D 
 700      44B1CF82 
 700      5E36657F 
 700      1EB98A
 701 0331 3ED002B4 		.ascii	">\320\002\2648\236}\277\310\305q\027\261\303\334\205"
 701      389E7DBF 
 701      C8C57117 
 701      B1C3DC85 
 702 0341 6A99BF17 		.ascii	"j\231\277\027\220#\355_\270\202rW\325\351l\022\271\267"
 702      9023ED5F 
 702      B8827257 
 702      D5E96C12 
 702      B9B7
 703 0353 EC11799D 		.ascii	"\354\021y\235\272@\325\271\361\313\317\234X\025!\320"
 703      BA40D5B9 
 703      F1CBCF9C 
 703      581521D0 
 704 0363 F32CEB57 		.ascii	"\363,\353W\253\317\212\276\331H}\320\264o\362\204\015"
 704      ABCF8ABE 
 704      D9487DD0 
 704      B46FF284 
 704      0D
 705 0374 5E469484 		.ascii	"^F\224\204\304\232\373\345Z\344aOcP\326sa\325\376\235"
 705      C49AFBE5 
 705      5AE4614F 
 705      6350D673 
 705      61D5FE9D 
 706 0388 46A3802E 		.ascii	"F\243\200.\003\327B\204\321%\264\232\230|\213\260\214"
 706      03D74284 
 706      D125B49A 
 706      987C8BB0 
 706      8C
 707 0399 3611D398 		.ascii	"6\021\323\230X\241\"\010\001\330#z\250\000*/\262\276"
 707      58A12208 
 707      01D8237A 
 707      A8002A2F 
 707      B2BE
 708 03ab 387D627F 		.ascii	"8}b\177\2725^OMT^\353h\325\"{\017\263\355\257\232i\317"
 708      BA355E4F 
ARM GAS  /tmp/ccBdzYwS.s 			page 56


 708      4D545EEB 
 708      68D5227B 
 708      0FB3EDAF 
 709 03c2 B8DC4F5A 		.ascii	"\270\334OZU\271\203p)\006.W$.\227i\310\300\306L\365"
 709      55B98370 
 709      29062E57 
 709      242E9769 
 709      C8C0C64C 
 710 03d7 E16C271C 		.ascii	"\341l'\034Jm\324/^\231\264\223\334\310r?v\217\304\274"
 710      4A6DD42F 
 710      5E99B493 
 710      DCC8723F 
 710      768FC4BC 
 711 03eb 149A9648 		.ascii	"\024\232\226HM\213\221E?\256\231\341A\232\203\235\334"
 711      4D8B9145 
 711      3FAE99E1 
 711      419A839D 
 711      DC
 712 03fc B3CFF3EC 		.ascii	"\263\317\363\354\311\260C\237:\242\317\265\304\364\315"
 712      C9B0439F 
 712      3AA2CFB5 
 712      C4F4CD
 713 040b A5D93217 		.ascii	"\245\3312\027\226j\002\011\350\223\272T\007\226j\313"
 713      966A0209 
 713      E893BA54 
 713      07966ACB 
 714 041b A0387EA1 		.ascii	"\2408~\241\356$^y\210\306=\302\270L@\277\177\035\225"
 714      EE245E79 
 714      88C63DC2 
 714      B84C40BF 
 714      7F1D95
 715 042e 03E675DA 		.ascii	"\003\346u\332\215\025h%\374_\206\264\314\213\213\347"
 715      8D156825 
 715      FC5F86B4 
 715      CC8B8BE7 
 716 043e EA52EDE5 		.ascii	"\352R\355\345\235\016\317e\235~\0039\212\354o\320~\037"
 716      9D0ECF65 
 716      9D7E0339 
 716      8AEC6FD0 
 716      7E1F
 717 0450 1A3A7ED0 		.ascii	"\032:~\320\221\231\376\036\311\362\274]\2716\026\207"
 717      9199FE1E 
 717      C9F2BC5D 
 717      B9361687 
 718 0460 48A53844 		.ascii	"H\2458Dn\262n\311\272Y^\310G\337?\022\333Q\307\3529"
 718      6EB26EC9 
 718      BA595EC8 
 718      47DF3F12 
 718      DB51C7EA 
 719 0475 EF563244 		.ascii	"\357V2DN\316\245\357F\352\224\255\002\264[\024\255\232"
 719      4ECEA5EF 
 719      46EA94AD 
 719      02B45B14 
 719      AD9A
 720 0487 A66C254B 		.ascii	"\246l%K\331j\232\262\203\235\225\313\345\344\253\025"
 720      D96A9AB2 
 720      839D95CB 
ARM GAS  /tmp/ccBdzYwS.s 			page 57


 720      E5E4AB15 
 721 0497 195BC333 		.ascii	"\031[\3033\266\2062\237:\274#\306\226\031\377\016\024"
 721      B686329F 
 721      3ABC23C6 
 721      9619FF0E 
 721      14
 722 04a8 AB9253DE 		.ascii	"\253\222S\336\260H\274N$^\313\210OD>\354u`mWB1\357j"
 722      B048BC4E 
 722      245ECB88 
 722      4F443EEC 
 722      75606D57 
 723 04c0 E4233E4F 		.ascii	"\344#>O\224\021\342\273\232\363s]\324\304o\003Z=Ek\240"
 723      9411E2BB 
 723      9AF3735D 
 723      D4C46F03 
 723      5A3D456B 
 724 04d5 C4EB18F1 		.ascii	"\304\353\030\361\006J\274g\357\320\242\203\234y\203"
 724      064ABC67 
 724      EFD0A283 
 724      9C7983
 725 04e4 82792367 		.ascii	"\202y#g\336H\231\213\323\222+\233\226\236\357\311.\262"
 725      DE48998B 
 725      D3922B9B 
 725      969EEFC9 
 725      2EB2
 726 04f6 B248BD49 		.ascii	"\262H\275I\244~\207Q\217\356\030\237\346\035\366C(V"
 726      A47E8751 
 726      8FEE189F 
 726      E61DF643 
 726      2856
 727 0508 0CCE8DD9 		.ascii	"\014\316\215\3312\352\321$w\016\034<|\334AM\375\036"
 727      32EAD124 
 727      770E1C3C 
 727      7CDC414D 
 727      FD1E
 728 051a A0DDA568 		.ascii	"\240\335\245h\315\224z\023\243\336L\251\317_\034\276"
 728      CD947A13 
 728      A3DE4CA9 
 728      CF5F1CBE 
 729 052a 662DA7DE 		.ascii	"f-\247\336\254\240\336\302\251\267P\352\227\366\336"
 729      ACA0DEC2 
 729      A9B750EA 
 729      97F6DE
 730 0539 2811BA51 		.ascii	"(\021\272Q'Y\026\241et\006@\3545\001\027\"\264\270$"
 730      275916A1 
 730      65740640 
 730      EC350117 
 730      22B4B824 
 731 054d FE10A2F5 		.ascii	"\376\020\242\365t\031\305'r\261\012\211-xY\340E\201"
 731      7419C527 
 731      72B10A89 
 731      2D7859E0 
 731      4581
 732 055f 43D27FBC 		.ascii	"C\322\177\2741\222!\262\307\314\222\370c\257)vC\233"
 732      319221B2 
 732      C7CC92F8 
 732      63AF2976 
ARM GAS  /tmp/ccBdzYwS.s 			page 58


 732      439B
 733 0571 89AD9120 		.ascii	"\211\255\221 \031@H\336@\006\310h\363\347&~\032\311"
 733      194048DE 
 733      4006C868 
 733      F3E7267E 
 733      1AC9
 734 0583 3924CE74 		.ascii	"9$\316tO\023\353\006\355{P\027\251M{\017\321\272\352"
 734      4F13EB06 
 734      ED7B5017 
 734      A94D7B0F 
 734      D1BAEA
 735 0596 AE88C7D6 		.ascii	"\256\210\307\326\370\004\242s\344\241\250\232N\355\252"
 735      F804A273 
 735      E4A1A89A 
 735      4EEDAA
 736 05a5 346359AF 		.ascii	"4cY\257\261\254!\347\315\226\214(c#\364\304{t\230\242"
 736      B1AC21E7 
 736      CD968C28 
 736      6323F4C4 
 736      7B7498A2 
 737 05b9 3669EA68 		.ascii	"6i\352h#/\005\030%=\010\335G\335`\257\035\255\"}QW\032"
 737      232F0518 
 737      253D08DD 
 737      47DD60AF 
 737      1DAD227D 
 738 05d0 EE80BB19 		.ascii	"\356\200\273\031\330\\X\363u{\213\343\276\223\216\373"
 738      D85C58F3 
 738      757B8BE3 
 738      BE938EFB 
 739 05e0 CFF9B0BF 		.ascii	"\317\371\260\277?\335\267\212\333\235\374E\242\261,"
 739      3FDDB78A 
 739      DB9DFC45 
 739      A2B12C
 740 05ef DC48A63A 		.ascii	"\334H\246:\320A\035\222\321\016\265\321.j\364b]\341"
 740      D0411D92 
 740      D10EB5D1 
 740      2E6AF462 
 740      5DE1
 741 0601 231B3CC3 		.ascii	"#\033<\303\214\316O_\254\263\023\221~\251@\352\226\220"
 741      8CCE4F5F 
 741      ACB31391 
 741      7EA940EA 
 741      9690
 742 0613 BAD5483D 		.ascii	"\272\325H=\024)s\341^\237\023\216\245/Es\363\\V\341"
 742      142973E1 
 742      5E9F138E 
 742      A52F4573 
 742      F35C56E1 
 743 0627 C16C077C 		.ascii	"\301l\007|\230>\027zn\025\3679 G\017\013s\025\032\200"
 743      983E177A 
 743      6E15F739 
 743      20470F0B 
 743      73151A80 
 744 063b 29549AAE 		.ascii	")T\232\256\330L|\253\316=\251\221\244u?<\350\223\370"
 744      D84C7CAB 
 744      CE3DA991 
 744      A4753F3C 
ARM GAS  /tmp/ccBdzYwS.s 			page 59


 744      E893F8
 745 064e DCA0490A 		.ascii	"\334\240I\012\026F:\252\375\250M\242\360\000Q\253\325"
 745      16463AAA 
 745      FDA84DA2 
 745      F00051AB 
 745      D5
 746 065f 17872E58 		.ascii	"\027\207.X\321J2\177?d\225\342\034\353\312\346\330\244"
 746      D14A327F 
 746      3F6495E2 
 746      1CEBCAE6 
 746      D8A4
 747 0671 E2E91A2B 		.ascii	"\342\351\032+V\264\205\342\203\263\3451\326\370&sd\270"
 747      56B485E2 
 747      83B3E531 
 747      D6F82673 
 747      64B8
 748 0683 6AE6A12D 		.ascii	"j\346\241-\256a\205\264\362\007?\305\215\354>\256\363"
 748      AE6185B4 
 748      F2073FC5 
 748      8DEC3EAE 
 748      F3
 749 0694 D95507DC 		.ascii	"\331U\007\334\314\012e\027\257\\p\304\355\254\360\364"
 749      CC0A6517 
 749      AF5C70C4 
 749      EDACF0F4 
 750 06a4 456AA11D 		.ascii	"Ej\241\035\203[\001\305\205\236\2708\0336H\323\310\374"
 750      835B01C5 
 750      859EB838 
 750      1B3648D3 
 750      C8FC
 751 06b6 92933695 		.ascii	"\222\2236\225\212\361\030o\370\274\250\303\021?\246"
 751      8AF1186F 
 751      F8BCA8C3 
 751      113FA6
 752 06c5 05FBD4DA 		.ascii	"\005\373\324\332\244H\204\226;z\270\303\317c\271\373"
 752      A4488496 
 752      3B7AB8C3 
 752      CF63B9FB 
 753 06d5 7E3E90DF 		.ascii	"~>\220\337\323j\320c\210\314\004\211\3144Df\036-'\316"
 753      D36AD063 
 753      88CC0489 
 753      CC344466 
 753      1E2D27CE 
 754 06e9 A36770FF 		.ascii	"\243gp\3775rGs \317Af@f\221;\315XYd'A]\032\323SlL\263"
 754      35724773 
 754      20CF4166 
 754      4066913B 
 754      CD585964 
 755 0706 98CE24B9 		.ascii	"\230\316$\271F\032\215\210\252<\225B\012\006\340\222"
 755      461A8D88 
 755      AA3C9542 
 755      0A06E092 
 756 0716 4E20CA96 		.ascii	"N \312\226z<\032\246\007\214\306xG\322\024\215\203\326"
 756      7A3C1AA6 
 756      078CC678 
 756      47D2148D 
 756      83D6
ARM GAS  /tmp/ccBdzYwS.s 			page 60


 757 0728 BC0C1066 		.ascii	"\274\014\020f'h\260\326\315\244?\321\340z \302X\265"
 757      2768B0D6 
 757      CDA43FD1 
 757      E07A20C2 
 757      58B5
 758 073a 86F6C288 		.ascii	"\206\366\302\210Z{\230r8\215$\375\305\206\025L\0372"
 758      5A7B9872 
 758      388D24FD 
 758      C586154C 
 758      1F32
 759 074c E5895A7D 		.ascii	"\345\211Z}\010\251\320\3337BZFbJe\314,\025\206\315\334"
 759      08A9D0DB 
 759      37425A46 
 759      624A65CC 
 759      2C1586CD 
 760 0761 BBDDB02C 		.ascii	"\273\335\260,\214\270G\374\341\276\221\237\331\300>"
 760      8CB847FC 
 760      E1BE919F 
 760      D9C03E
 761 0770 E268DF14 		.ascii	"\342h\337\024X\306cP\364\222\244\325\250y/)m\350\344"
 761      58C66350 
 761      F492A4D5 
 761      A8792F29 
 761      6DE8E4
 762 0783 A5F1BC18 		.ascii	"\245\361\274\030k\232\203\204\365 \313\301\372\206\204"
 762      6B9A8384 
 762      F520CBC1 
 762      FA8684
 763 0792 1C3B8B03 		.ascii	"\034;\213\003|\201\016\360\027\342\213='\255\247\337"
 763      7C810EF0 
 763      17E28B3D 
 763      27ADA7DF 
 764 07a2 850FCC5B 		.ascii	"\205\017\314[\343kZ[\241?\240\203\215HK4Q\257\324s\275"
 764      E36B5A5B 
 764      A13FA083 
 764      8D484B34 
 764      51AFD473 
 765 07b7 EAC1B948 		.ascii	"\352\301\271H\007\347\310\354p\2663.\3054\351\232\013"
 765      07E7C8EC 
 765      70B6332E 
 765      C534E99A 
 765      0B
 766 07c8 3A5A9169 		.ascii	":Z\221i\242\372\311\231"
 766      A2FAC999 
 767 07d0 2B8066AF 		.ascii	"+\200f\257\245\303|IBZR#\031\005\202\324m\314\354\266"
 767      A5C37C49 
 767      425A5223 
 767      190582D4 
 767      6DCCECB6 
 768 07e4 C6F7F1B7 		.ascii	"\306\367\361\267\230\245\302\005\371,\365\340\366\310"
 768      98A5C205 
 768      F92CF5E0 
 768      F6C8
 769 07f2 A815B7DA 		.ascii	"\250\025\267\332\376\275\3044:\271`\242\204\302\004"
 769      FEBDC434 
 769      3AB960A2 
 769      84C204
ARM GAS  /tmp/ccBdzYwS.s 			page 61


 770 0801 9355B855 		.ascii	"\223U\270UZ\215\240V\3633\206\236\271\340\031f\365\342"
 770      5A8DA056 
 770      F333869E 
 770      B9E01966 
 770      F5E2
 771 0813 EC488A38 		.ascii	"\354H\2128MU\241,\350\3127)\371H\011&R\015\263\203\302"
 771      4D55A12C 
 771      E8CA3729 
 771      F9480926 
 771      520DB383 
 772 0828 2457F6A6 		.ascii	"$W\366\246\"\034\253\2450C\015\341\025v8\235\026\204"
 772      221CABA5 
 772      30430DE1 
 772      1576389D 
 772      1684
 773 083a B1E99DB7 		.ascii	"\261\351\235\267ek\327\275\270m\236L51\202=\332)|\233"
 773      656BD7BD 
 773      B86D9E4C 
 773      3531823D 
 773      DA297C9B 
 774 084e 455FB460 		.ascii	"E_\264`v\361\332T\367\365N\033\332\367\004\212\257\370"
 774      76F1DA54 
 774      F7F54E1B 
 774      DAF7048A 
 774      AFF8
 775 0860 8617265D 		.ascii	"\206\027&],Fm7\215\332.\201\207-\342n\331y\022\266^"
 775      2C466D37 
 775      8DDA2E81 
 775      872DE26E 
 775      D97912B6 
 776 0875 A0359482 		.ascii	"\2405\224\202\253c*\367\030\217#\252\206\242$fQ\002"
 776      AB632AF7 
 776      188F23AA 
 776      86A22466 
 776      5102
 777 0887 DB68A03D 		.ascii	"\333h\240=\324\321\304\264\302\024\027\034iE\035\335"
 777      D4D1C4B4 
 777      C214171C 
 777      69451DDD 
 778 0897 5D1D7741 		.ascii	"]\035wA\221j\204\212d0V\321M\2757j\007D{\225u+\367G"
 778      916A848A 
 778      643056D1 
 778      4DBD376A 
 778      07447B95 
 779 08af A479100D 		.ascii	"\244y\020\015\264W\262\265W\264\265\217\332\312+\211"
 779      B457B2B5 
 779      57B4B58F 
 779      DACA2B89 
 780 08bf 6CB0C1C9 		.ascii	"l\260\301\311\314V]\334\365\005\033\336\374\326\370"
 780      CC565DDC 
 780      F5051BDE 
 780      FCD6F8
 781 08ce 4F12F306 		.ascii	"O\022\363\006\214\321\3664\237Q\234\204\020'\"\354\247"
 781      8CD1F634 
 781      9F519C84 
 781      102722EC 
 781      A7
ARM GAS  /tmp/ccBdzYwS.s 			page 62


 782 08df 087DC325 		.ascii	"\010}\303%\243\266\370\024Ch\277\335\225`g\032-,b-\331"
 782      A3B6F814 
 782      4368BFDD 
 782      9560671A 
 782      2D2C622D 
 783 08f4 3B96590C 		.ascii	";\226Y\014\330A\312\377\200\030\260\375\365\023\261"
 783      D841CAFF 
 783      8018B0FD 
 783      F513B1
 784 0903 026730FA 		.ascii	"\002g0\372\335Dc\271@4P\274d=^\264\236@\255_\0338\263"
 784      DD4463B9 
 784      403450BC 
 784      643D5EB4 
 784      9E40AD5F 
 785 091a CF115F60 		.ascii	"\317\021_`\326\343\352\217'\333\331\363\375Y\364+\367"
 785      D6E3EA8F 
 785      27DBD9F3 
 785      FD59F42B 
 785      F7
 786 092b 67A0FD64 		.ascii	"g\240\375d\252\363\236 _>\035\026\344\313\267#\202#"
 786      AAF39E20 
 786      5F3E1D16 
 786      E4CBB723 
 786      8223
 787 093d 5F3C4CA4 		.ascii	"_<L\2444F\261\367!\324q\247\352o\336=b\203\313\250]"
 787      3446B1F7 
 787      21D471A7 
 787      EA6FDE3D 
 787      6283CBA8 
 788 0952 ED70E9A4 		.ascii	"\355p\351\244\000\355\310?;\017\262\363K\025\354\330"
 788      00EDC83F 
 788      3B0FB2F3 
 788      4B15ECD8 
 789 0962 967119BD 		.ascii	"\226q\031\275\335I\031\205\307\301NKdt\0242\216<\322"
 789      DD491985 
 789      C7C14E4B 
 789      64741432 
 789      8E3CD2
 790 0975 A064C10D 		.ascii	"\240d\301\015\245\010|\263\3036\237\360\000%\011\246"
 790      A5087CB3 
 790      C3369FF0 
 790      002509A6 
 791 0985 CD2779B9 		.ascii	"\315'y\2717\245f\261L$\317\022\005\312\341Nt\333\264"
 791      37A566B1 
 791      4C24CF12 
 791      05CAE14E 
 791      74DBB4
 792 0998 933CB2E4 		.ascii	"\223<\262\344\231\024\3324\032\332cbh\037\346\215M\331"
 792      9914DA34 
 792      1ADA6362 
 792      681FE68D 
 792      4DD9
 793 09aa F3D04E15 		.ascii	"\363\320N\025\341]\231Qe\277\245J\350\220\024\335Cb"
 793      E15D9951 
 793      65BFA54A 
 793      E89014DD 
 793      4362
ARM GAS  /tmp/ccBdzYwS.s 			page 63


 794 09bc 748FD3E8 		.ascii	"t\217\323\350&\305\305T9\343~\026\335\264\235\025\347"
 794      26C5C554 
 794      39E37E16 
 794      DDB49D15 
 794      E7
 795 09cd ED4C6F63 		.ascii	"\355Loc\026\206\324\221\352p'\213\235{\2022\310\020"
 795      1686D491 
 795      EA70278B 
 795      9D7B8232 
 795      C810
 796 09df 19344E0E 		.ascii	"\0314N\016\335\263\023\031\224\340\005\306\000\224P"
 796      DDB31319 
 796      94E005C6 
 796      009450
 797 09ee BAC4205D 		.ascii	"\272\304 ]dp\2222\330\1773\371\2425\216\267V-L6\212"
 797      64709232 
 797      D87F33F9 
 797      A2358EB7 
 797      562D4C36 
 798 0a03 044E541F 		.ascii	"\004NT\037\355v\260\034\203,\312 Sd0\275\353V\2728>"
 798      ED76B01C 
 798      832CCA20 
 798      536430BD 
 798      EB56BA38 
 799 0a18 FA53F0B5 		.ascii	"\372S\360\265\323\224\001(\241S\022\203S\"\203\323\224"
 799      D3940128 
 799      A1531283 
 799      532283D3 
 799      94
 800 0a29 41675275 		.ascii	"AgRu9\302\231\214\301hA\344i\207\037e\030\323\340-2"
 800      39C2998C 
 800      C16841E4 
 800      69871F65 
 800      18D3E02D 
 801 0a3e 5B84E74F 		.ascii	"[\204\347O\326\300\200\026\010\2353\014@~,A\247\261"
 801      D6C08016 
 801      089D330C 
 801      407E2C41 
 801      A7B1
 802 0a50 6CE147D0 		.ascii	"l\341G\320\2564,'\301\012\3473\220\302\211\354B'\276"
 802      AE342C27 
 802      C10AE733 
 802      90C289EC 
 802      4227BE
 803 0a63 6921E5F0 		.ascii	"i!\345\360\276K-\010W\262\207\231\331O\016Z\341ZV\030"
 803      BE4B2D08 
 803      57B28799 
 803      D94F0E5A 
 803      E15A5618 
 804 0a77 6BBE336C 		.ascii	"k\2763l\213\357\260B\317\334\375nGy\276v*6\210\371\246"
 804      8BEFB042 
 804      CFDCFD6E 
 804      4779BE76 
 804      2A3688F9 
 805 0a8c 7C3D5C1F 		.ascii	"|=\\\037S$\340v\326\352\322`u\245=3f\244\247\037\213"
 805      5324E076 
 805      D6EAD260 
ARM GAS  /tmp/ccBdzYwS.s 			page 64


 805      75A53D33 
 805      66A4A71F 
 806 0aa1 276B9D71 		.ascii	"'k\235q/}h}3\266\265C\213\310\202\305}9\177\241\037"
 806      2F7D687D 
 806      33B6B543 
 806      8BC882C5 
 806      7D397FA1 
 807 0ab6 59B19FBE 		.ascii	"Y\261\237\276\032\001\016\345\201OW\004\363\257F\246"
 807      1A010EE5 
 807      814F5704 
 807      F3AF46A6 
 808 0ac6 3EB992BD 		.ascii	">\271\222\275\321\211\366y\265\266\247z\265P\376]I\373"
 808      D189F679 
 808      B5B6A77A 
 808      B550FE5D 
 808      49FB
 809 0ad8 A2796CF9 		.ascii	"\242yl\371\002`\360\210+]\000\200\232|\001\300W*G\336"
 809      0260F088 
 809      2B5D0080 
 809      9A7C01C0 
 809      572A47DE 
 810 0aec 6044C998 		.ascii	"`D\311\230\3145k\232\362\224/\027.\300Pc\213\022\242"
 810      CC356B9A 
 810      F2942F17 
 810      2EC05063 
 810      8B12A2
 811 0aff 4C7AAB08 		.ascii	"Lz\253\010\206\341e\301\035]\002)\000)\024\334\305!"
 811      86E165C1 
 811      1D5D0229 
 811      002914DC 
 811      C521
 812 0b11 D796D53A 		.ascii	"\327\226\325:\200\3610\015\224\220{\252k\217\026-\367"
 812      80F1300D 
 812      94907BAA 
 812      6B8F162D 
 812      F7
 813 0b22 3087864A 		.ascii	"0\207\206J\000\344\233\000\371\222&\321\032\0068\272"
 813      00E49B00 
 813      F99226D1 
 813      1A0638BA 
 814 0b32 0ACAC552 		.ascii	"\012\312\305R\302\021\377\250\311\314\351\331%\347\345"
 814      C211FFA8 
 814      C9CCE9D9 
 814      25E7E5
 815 0b41 DC46B425 		.ascii	"\334F\264%\033\032K\214G\302\017%:\311\023\344\232 "
 815      1B1A4B8C 
 815      47C20F25 
 815      3AC913E4 
 815      9A20
 816 0b53 5F3B969A 		.ascii	"_;\226\232\022$\365j\331>\223b\364+\0243/$\364*\020"
 816      1224F56A 
 816      D93E9362 
 816      F42B1433 
 816      2F24F42A 
 817 0b68 CB20D892 		.ascii	"\313 \330\222\342uQQ{\275v\246\302\001-\207<\222G(\007"
 817      E2755151 
 817      7BBD76A6 
ARM GAS  /tmp/ccBdzYwS.s 			page 65


 817      C2012D87 
 817      3C924728 
 818 0b7d D8B36E2D 		.ascii	"\330\263n-\347\341\271\001n\334\004\326\025\202|=V\231"
 818      E7E1B901 
 818      6EDC04D6 
 818      15827C3D 
 818      5699
 819 0b8f E4C6D663 		.ascii	"\344\306\326c\000\210\316A`\312-\244\021_\367&\262\274"
 819      0088CE41 
 819      60CA2DA4 
 819      115FF726 
 819      B2BC
 820 0ba1 28379717 		.ascii	"(7\227\027\213\211n\361\212\274x\031K\\\332==\267\253"
 820      8B896EF1 
 820      8ABC7819 
 820      4B5CDA3D 
 820      3DB7AB
 821 0bb4 C1054FB1 		.ascii	"\301\005O\261\036N\012K\350wR\365\260\310\037U\001m"
 821      1E4E0A4B 
 821      E87752F5 
 821      B0C81F55 
 821      016D
 822 0bc6 4B2EF09E 		.ascii	"K.\360\236M\242={\013\224*\245\236-\027{\266\356\326"
 822      4DA23D7B 
 822      0B942AA5 
 822      9E2D177B 
 822      B6EED6
 823 0bd9 9D36A4E8 		.ascii	"\2356\244\350Ys\330\032\00509`\250\333cD0\335\344\225"
 823      5973D81A 
 823      05303960 
 823      A8DB6344 
 823      30DDE495 
 824 0bed 91C5DEBB 		.ascii	"\221\305\336\273\265\235\260\336wE\325\240}\226O7R\210"
 824      B59DB0DE 
 824      7745D5A0 
 824      7D964F37 
 824      5288
 825 0bff 49CD66D8 		.ascii	"I\315f\330\254\327\320\011g\347\330\3219-\016\267\241"
 825      ACD7D009 
 825      67E7D8D1 
 825      392D0EB7 
 825      A1
 826 0c10 73C08BDD 		.ascii	"s\300\213\335%\211\326\226\217X\004~N\221\305\336\213"
 826      2589D696 
 826      8F58047E 
 826      4E91C5DE 
 826      8B
 827 0c21 ADD1F1E9 		.ascii	"\255\321\361\351\326\322A\204\226\344\203i\245\255A"
 827      D6D24184 
 827      96E48369 
 827      A5AD41
 828 0c30 F582ABD8 		.ascii	"\365\202\253\330\210\316J\2037\322\005\271v\331\253"
 828      88CE4A83 
 828      37D205B9 
 828      76D9AB
 829 0c3f B40BEAE2 		.ascii	"\264\013\352\342w\333\201CO\300\241\356\232\025\007"
 829      77DB8143 
ARM GAS  /tmp/ccBdzYwS.s 			page 66


 829      4FC0A1EE 
 829      9A1507
 830 0c4e 8CC64FD0 		.ascii	"\214\306O\320m\301\025\325rw\244\206\265\334\235\006"
 830      6DC115D5 
 830      7277A486 
 830      B5DC9D06 
 831 0c5e EACEADD6 		.ascii	"\352\316\255\326\2054\007\234\312\334\311\351\313\334"
 831      8534079C 
 831      CADCC9E9 
 831      CBDC
 832 0c6c 8501A491 		.ascii	"\205\001\244\221\200\034s\245 $\203\0339\2104\314\033"
 832      801C73A5 
 832      2024831B 
 832      398834CC 
 832      1B
 833 0c7d 39C81D0A 		.ascii	"9\310\035\012\222p\2672\303\012\3470\220\373\207/^\025"
 833      9270B732 
 833      C30AE730 
 833      90FB872F 
 833      5E15
 834 0c8f 41FADE0D 		.ascii	"A\372\336\0153\226i)F\323K\030M\034\343.\305\2308|$"
 834      33966929 
 834      46D34B18 
 834      4D1CE32E 
 834      C598387C 
 835 0ca4 D5059730 		.ascii	"\325\005\2270\214\352\342\263\361\316\034\243\375\337"
 835      8CEAE2B3 
 835      F1CE1CA3 
 835      FDDF
 836 0cb2 4C18F75E 		.ascii	"L\030\367^\302\270\3071\232)\306\324\351+\355\216\270"
 836      C2B8C731 
 836      9A29C6D4 
 836      E92BED8E 
 836      B8
 837 0cc3 9E619CBD 		.ascii	"\236a\234\275\275x\306\236c\214~b\302hy\011\243\205"
 837      BD78C69E 
 837      638C7E62 
 837      C2687909 
 837      A385
 838 0cd5 63DCA718 		.ascii	"c\334\247\0305\005\017\263\254\344#s\243\274K[\331\300"
 838      35050FB3 
 838      ACE42373 
 838      A3BC4B5B 
 838      D9C0
 839 0ce7 24577228 		.ascii	"$Wr(v\351n\267\326b\367\267\211\335\277\206\366\376"
 839      76E96EB7 
 839      D662F7B7 
 839      89DDBF86 
 839      F6FE
 840 0cf9 9E47778E 		.ascii	"\236Gw\2168\252\217\241\244\027j;\355O\332\206\026\240"
 840      38AA8FA1 
 840      A4176A3B 
 840      ED4FDA86 
 840      16A0
 841 0d0b C5C0F39C 		.ascii	"\305\300\363\234+\374P\314\032\212\263\347\322n;Y\264"
 841      2BFC50CC 
 841      1A8AB3E7 
ARM GAS  /tmp/ccBdzYwS.s 			page 67


 841      D26E3B59 
 841      B4
 842 0d1c D6295AEB 		.ascii	"\326)Z\353\020\334\330\033y\307,?\367\267!\347\014\203"
 842      10DCD81B 
 842      79C72C3F 
 842      F7B721E7 
 842      0C83
 843 0d2e 29B18EEC 		.ascii	")\261\216\354m\365.\024;\032\317V\276tt\336\015!\351"
 843      6DF52E14 
 843      3B1ACF56 
 843      BE7474DE 
 843      0D21E9
 844 0d41 1208580F 		.ascii	"\022\010X\017%\323\311\310\364P2\221\207\016\2679\343"
 844      25D3C9C8 
 844      F4503291 
 844      870EB739 
 844      E3
 845 0d52 2E16DBD1 		.ascii	".\026\333\321\335\013\335\316|\257\001\313\357}\273"
 845      DD0BDDCE 
 845      7CAF01CB 
 845      EF7DBB
 846 0d61 6BF718D3 		.ascii	"k\367\030\323\302\214\357\261Wg\2574N{\325;\216\007"
 846      C28CEFB1 
 846      5767AF34 
 846      4E7BD53B 
 846      8E07
 847 0d73 F4D5FF38 		.ascii	"\364\325\3778rv\320\001\2172\260\372\250c'\0349\330"
 847      7276D001 
 847      8F32B0FA 
 847      A863271C 
 847      39D8
 848 0d85 F3455C55 		.ascii	"\363E\\U\300\266q\221\210m\276\372$\264>5Z?E\273?X\356"
 848      C0B67191 
 848      886DBEFA 
 848      24B43E35 
 848      5A3F45BB 
 849 0d9c 874FDA52 		.ascii	"\207O\332R\26039G\363\234\361\005V\330]^\221B\266\230"
 849      B0333947 
 849      F39CF105 
 849      56D85D5E 
 849      9142B698 
 850 0db0 E8215D79 		.ascii	"\350!]y@M\371\263\236et\235SlZi\335\310\313^p\266\270"
 850      404DF9B3 
 850      9E65749D 
 850      536C5A69 
 850      DDC8CB5E 
 851 0dc7 D21AA6EB 		.ascii	"\322\032\246\353\234!q\2353\230|(\317A\334$\036\261"
 851      9C21719D 
 851      33987C28 
 851      CF41DC24 
 851      1EB1
 852 0dd9 EA787C9B 		.ascii	"\352x|\2339^%\020M4 rE\203\202\226\224\224tG(\335\314"
 852      395E2510 
 852      4D342072 
 852      45838296 
 852      94947447 
 853 0df0 07B1276C 		.ascii	"\007\261'l\360\013K\024O^\037\376\031\267P\343\301N"
ARM GAS  /tmp/ccBdzYwS.s 			page 68


 853      F00B4B14 
 853      4F5E1FFE 
 853      19B750E3 
 853      C14E
 854 0e02 9B8EDBD3 		.ascii	"\233\216\333\323H\214\232\320\307\000}T\215>N\321\007"
 854      488C9AD0 
 854      C7007D54 
 854      8D3E4ED1 
 854      07
 855 0e13 8CF9C508 		.ascii	"\214\371\305\010\307\330Q\364\207\261\235{\354\244~"
 855      C7D851F4 
 855      87B19D7B 
 855      ECA47E
 856 0e22 9A8851F4 		.ascii	"\232\210Q\364\323#)\262\217\324`\023\024,bh\272\321"
 856      D32329B2 
 856      8FD46013 
 856      142C6268 
 856      BAD1
 857 0e34 0A1F6260 		.ascii	"\012\037b`\231Y#\017\254\245~\312U\365\323c\011\355"
 857      9959230F 
 857      ACA57ECA 
 857      55F5D363 
 857      09ED
 858 0e46 B11AED09 		.ascii	"\261\032\355\011E\233\016;p\316\026g\330Yp|\350l\344"
 858      459B0E3B 
 858      70CE1667 
 858      D859707C 
 858      E86CE4
 859 0e59 FF4AA14D 		.ascii	"\377J\241My(\205\226\300?59?\011\316?U[\230\242\026"
 859      79288596 
 859      C03F3539 
 859      3F09CE3F 
 859      555B98A2 
 860 0e6e EE1E3D1F 		.ascii	"\356\036=\037\356\204\363\231\205s\227\037G8J\316\347"
 860      EE84F399 
 860      8573971F 
 860      47384ACE 
 860      E7
 861 0e7f 2A93745A 		.ascii	"*\223tZ\242;\255\006\373\232\255\321+cW\341\022\206"
 861      A23BAD06 
 861      FB9AADD1 
 861      2B6357E1 
 861      1286
 862 0e91 5558DA34 		.ascii	"UX\3324\202$\337\273U\276\317H`3j\260Y\012\266\257\240"
 862      8224DFBB 
 862      55BECF48 
 862      60336AB0 
 862      590AB6AF 
 863 0ea6 E3850BAE 		.ascii	"\343\205\013\256\266c\257\304s\307\247\260\245\3575"
 863      B663AFC4 
 863      73C7A7B0 
 863      A5EF35
 864 0eb5 F366B6CC 		.ascii	"\363f\266\314\342G\227wR\351G\227g\260\237\232S\357"
 864      E2479777 
 864      52E94797 
 864      67B09F9A 
 864      53EF
ARM GAS  /tmp/ccBdzYwS.s 			page 69


 865 0ec7 BF492D61 		.ascii	"\277I-a\372 \241\224\237\263\265\022\346w\007\217G\362"
 865      FA20A194 
 865      9FB3B512 
 865      E677078F 
 865      47F2
 866 0ed9 C3F14652 		.ascii	"\303\361FR\256h\271\365D\213\3572\267\242\317\306V`"
 866      AE68B9F5 
 866      448BEF32 
 866      B7A2CFC6 
 866      5660
 867 0eeb 32A5447C 		.ascii	"2\245D|\253\317F\344}[\367\274\336\012\267\361>\274"
 867      ABCF46E4 
 867      7D5BF7BC 
 867      DE0AB7F1 
 867      3EBC
 868 0efd 5950C9E7 		.ascii	"YP\311\347\230*R>x\245\242\330\001w\262\207\375\273"
 868      982A523E 
 868      78A5A2D8 
 868      0177B287 
 868      FDBB
 869 0f0f FA2AACF1 		.ascii	"\372*\254\361\003;\305\312\334\225\257\314\217u|]\203"
 869      033BC5CA 
 869      DC95AFCC 
 869      8F757C5D 
 869      83
 870 0f20 F043F6B0 		.ascii	"\360C\366\260\270\360j%?i\\\003\305\222\246\316\367"
 870      B8F06A25 
 870      3F695C03 
 870      C592A6CE 
 870      F7
 871 0f31 F0287B54 		.ascii	"\360({T>\231\227\311\331c\3027q\262\321\305\342\024"
 871      3E9997C9 
 871      D963C237 
 871      71B2D1C5 
 871      E214
 872 0f43 188DF914 		.ascii	"\030\215\371\024\270\023S\256ms7\333\255\344oP2\350"
 872      B81353AE 
 872      6D7337DB 
 872      ADE46F50 
 872      32E8
 873 0f55 A5793F06 		.ascii	"\245y?\006\273\212\215\350\371C\302\204\263\\yQx\205"
 873      BB8A8DE8 
 873      F943C284 
 873      B35C7951 
 873      7885
 874 0f67 726EC6C9 		.ascii	"rn\306\311\303\366x\202\221L\236\352\032\341!\367\200"
 874      C3F67882 
 874      914C9EEA 
 874      1AE121F7 
 874      80
 875 0f78 E2A999E2 		.ascii	"\342\251\231\342\010[<\311\236\035\270\226Zo\203gX!"
 875      085B3CC9 
 875      9E1DB896 
 875      5A6F8367 
 875      5821
 876 0f8a FCFE0778 		.ascii	"\374\376\007x\236\335\226\356\217\357Bx\221\025\022"
 876      9EDD96EE 
ARM GAS  /tmp/ccBdzYwS.s 			page 70


 876      8FEF4278 
 876      911512
 877 0f99 6AC7DEC2 		.ascii	"j\307\336\302\021\354\233"
 877      11EC9B
 878 0fa0 E26255C5 		.ascii	"\342bU\305[8\206\335W^\312\312Dx\037+L&U\216\331\343"
 878      5B3886DD 
 878      575ECACA 
 878      44781F2B 
 878      4C26558E 
 879 0fb6 03AC90D6 		.ascii	"\003\254\220\326\224Rd\213\017\261\302\251\271C\247"
 879      9452648B 
 879      0FB1C2A9 
 879      B943A7
 880 0fc5 1C71322B 		.ascii	"\034q2+\334\273\334\034\355\200\323X!:?\377\210\003"
 880      DCBBDC1C 
 880      ED80D358 
 880      213A3FFF 
 880      8803
 881 0fd7 3EC10AE1 		.ascii	">\301\012\341\305m\373\371'\265^R\03689\220f\30770\344"
 881      C56DFBF9 
 881      27B55E52 
 881      1E383990 
 881      66C73730 
 882 0fec FDB2ABA9 		.ascii	"\375\262\253\251n\026\341,\246\234P\222P\340\254\216"
 882      6E16E12C 
 882      A69C5092 
 882      50E0AC8E 
 883 0ffc 9DB4264A 		.ascii	"\235\264&J"
 884 1000 C1D2DB8A 		.ascii	"\301\322\333\212l@\037f\234\324\252\203gI\373\365\307"
 884      6C401F66 
 884      9CD4AA83 
 884      6749FBF5 
 884      C7
 885 1011 BBAE7FED 		.ascii	"\273\256\177\355D6G\313\335e?z\276\353\236n\214\214"
 885      443647CB 
 885      DD653F7A 
 885      BEEB9E6E 
 885      8C8C
 886 1023 30963DAE 		.ascii	"0\226=\256\267\332\223?P\035f<\261\222BEb\214\216c\331"
 886      B7DA933F 
 886      501D663C 
 886      B1924245 
 886      628C8E63 
 887 1038 723302CB 		.ascii	"r3\002\313\267@\244Iy\014f{ \242\277 \250\364_\010j"
 887      B740A449 
 887      790C667B 
 887      20A2BF20 
 887      A8F45F08 
 888 104d FDD16899 		.ascii	"\375\321h\231~\270\032\337\210\315\356s\222\260\033"
 888      7EB81ADF 
 888      88CDEE73 
 888      92B01B
 889 105c 4AA48F88 		.ascii	"J\244\217\2106YF\344b\017\224\201\335Q:\310\031\220"
 889      365946E4 
 889      620F9481 
 889      DD513AC8 
 889      1990
ARM GAS  /tmp/ccBdzYwS.s 			page 71


 890 106e 4C901320 		.ascii	"L\220\023 \347AN\201\344\200d\201d\203\234\003\311\003"
 890      E7414E81 
 890      E4806481 
 890      64839C03 
 890      C903
 891 1080 390D7201 		.ascii	"9\015r\001\344(H\032\310Y\220\223 \307@\362\261\270"
 891      E428481A 
 891      C8599093 
 891      20C740F2 
 891      B1B8
 892 1092 7E2724E7 		.ascii	"~'$\347\377\"q<\254\346\350\251viR\246}\304\254\366"
 892      FF22713C 
 892      ACE6E8A9 
 892      766952A6 
 892      7DC4ACF6 
 893 10a6 5A49B9E9 		.ascii	"ZI\271\351\257\222\362A\265\262\342\200\231\022\221"
 893      AF92F241 
 893      B5B2E280 
 893      991291
 894 10b5 476BC97C 		.ascii	"Gk\311|te\352}2\360x5x\275\032\274F\246\235\240\326"
 894      7465EA7D 
 894      32F07835 
 894      78BD1ABC 
 894      46A69DA0 
 895 10ca 561E8D53 		.ascii	"V\036\215S7e\352qj\365;j\360&9\363\335j\365\035X\245"
 895      3765EA71 
 895      6AF53B6A 
 895      F02639F3 
 895      DD6AF51D 
 896 10e0 5E2E033F 		.ascii	"^.\003?d\236\213<,2\355}\346\251(\230\313\271\204\231"
 896      649E8B3C 
 896      2C32ED7D 
 896      E6A92898 
 896      CBB98499 
 897 10f4 CF39458E 		.ascii	"\3179E\216\312\340\367\233\017\243|\3736\261\310\266"
 897      CAE0F79B 
 897      0FA37CFB 
 897      36B1C8B6 
 898 1104 6FA0A6DC 		.ascii	"o\240\246\334\276\021\254\312h|\371\274\321\030cM\321"
 898      BE11ACCA 
 898      687CF9BC 
 898      D118634D 
 898      D1
 899 1115 62D5687B 		.ascii	"b\325h{\324\201\250\221s\335k^\335\304\025V\327518\214"
 899      D481A891 
 899      73DD6B5E 
 899      DDC41556 
 899      D7353138 
 900 112a EAA76257 		.ascii	"\352\247bW\224\314\365M{\261\347\352\014i\227\271v\300"
 900      94CCF54D 
 900      7BB1E7EA 
 900      0C6997B9 
 900      76C0
 901 113c 7CFAC9D1 		.ascii	"|\372\311\321\333\2439\372.@\217\342\372\246=\374\016"
 901      DBA339FA 
 901      2E408FE2 
 901      FAA63DFC 
ARM GAS  /tmp/ccBdzYwS.s 			page 72


 901      0E
 902 114d 191B988D 		.ascii	"\031\033\230\215\272\352Z\262\234q/\235\310\204\362"
 902      BAEA5AB2 
 902      9C712F9D 
 902      C884F2
 903 115c A35713B5 		.ascii	"\243W\023\265\310c9\013QK\014\216 !\272\004\315/b\323"
 903      C863390B 
 903      514B0C8E 
 903      2021BA04 
 903      CD2F62D3 
 904 1170 1B9444CC 		.ascii	"\033\224D\314\374HG\0050\300\377\336\203\235L\373#\373"
 904      FC484705 
 904      30C0FFDE 
 904      839D4CFB 
 904      23FB
 905 1182 1E28CE4C 		.ascii	"\036(\316L/a\371\311A!f\373\016\270\202\362pZX\2033"
 905      2F61F9C9 
 905      412166FB 
 905      0EB882F2 
 905      705A5883 
 906 1197 1E673375 		.ascii	"\036g3u\177\336\355!A\276~}\2468\307\276\214\345\347"
 906      7FDEED21 
 906      41BE7E7D 
 906      A638C7BE 
 906      8CE5E7
 907 11aa D867C76A 		.ascii	"\330g\307j\253\004\323'\223\237\034\235\224\3261\240"
 907      AB04D327 
 907      939F1C9D 
 907      94D631A0 
 908 11ba 888AA490 		.ascii	"\210\212\244\220\300\255r\035s\005\223u\314d\342\245"
 908      C0AD721D 
 908      73059375 
 908      CC64E2A5 
 909 11ca 2127BCC4 		.ascii	"!'\274\304L\017\366%\305\211\037/:F\255\332\330\267"
 909      4C0FF625 
 909      C5891F2F 
 909      3A46ADDA 
 909      D8B7
 910 11dc DDB44FA8 		.ascii	"\335\264O\250UT,\201\025\253\301\256R\260g\307\316\274"
 910      55542C81 
 910      15ABC1AE 
 910      52B067C7 
 910      CEBC
 911 11ee 70C2150E 		.ascii	"p\302\025\016\024\254&\265/[\\bM\315[\235>\251\000+"
 911      14AC26B5 
 911      2F5B5C62 
 911      4DCD5B9D 
 911      3EA9002B 
 912 1202 91C04AD4 		.ascii	"\221\300J\324`\327(X|\364\336\373\212\217\366\344|^"
 912      60D72858 
 912      7CF4DEFB 
 912      8A8FF6E4 
 912      7C5E
 913 1214 76F6C223 		.ascii	"v\366\302#XJ#\230\222\376\374\206\342\310o\267B\271"
 913      584A2398 
 913      92FEFC86 
 913      E2C86FB7 
ARM GAS  /tmp/ccBdzYwS.s 			page 73


 913      42B9
 914 1226 8C2B9751 		.ascii	"\214+\227Q\345'3\2650\372v9R\232\307k\316\364ciU\231"
 914      E52733B5 
 914      30FA7639 
 914      529AC76B 
 914      CEF46369 
 915 123c B857B1AA 		.ascii	"\270W\261\252\274.\321\274\256\246YNiV\314\264\344\330"
 915      BC2ED1BC 
 915      AEA6594E 
 915      6956CCB4 
 915      E4D8
 916 124e E0640616 		.ascii	"\340d\006\026u\360\364\242\225\264\254\214Q-++$\264"
 916      75F0F4A2 
 916      95B4AC8C 
 916      512D2B2B 
 916      24B4
 917 1260 0A35DA0D 		.ascii	"\0125\332\015\212vjvn\2673\316eh;\026&{\305]YS2\346"
 917      8A766A76 
 917      6EB733CE 
 917      65683B16 
 917      267BC55D 
 918 1278 7B07B67C 		.ascii	"{\007\266|\276)A\335TCUR\250\203'o\305hq\021\203\252"
 918      BE2941DD 
 918      54435552 
 918      A883276F 
 918      C5687111 
 919 128e 2E9DCF15 		.ascii	".\235\317\025\211\365\247\340\222\034Sg\020\260[\022"
 919      89F5A7E0 
 919      921C5367 
 919      10B05B12 
 920 129e D82D3558 		.ascii	"\330-5X\025\005\253\036\310)w\306\265\014,\261}\354"
 920      1505AB1E 
 920      C82977C6 
 920      B50C2CB1 
 920      7DEC
 921 12b0 889DE465 		.ascii	"\210\235\344e\212\312\313j\011\255Z\215VC\321z\217\015"
 921      8ACACB6A 
 921      09AD5A8D 
 921      5643D17A 
 921      8F0D
 922 12c2 1D70C2BD 		.ascii	"\035p\302\275\014\255\366ZF\263H\255\351\250\322\313"
 922      0CADF65A 
 922      46B348AD 
 922      E9A8D2CB 
 923 12d2 5A09AA56 		.ascii	"Z\011\252V\015UG\241\206\232\213\366\332\312;\236|O"
 923      0D5547A1 
 923      869A8BF6 
 923      DACA3B9E 
 923      7C4F
 924 12e4 973ABE9E 		.ascii	"\227:\276\236w|=\355\370\2573J\023l\344\307y\026\377"
 924      777C3DED 
 924      F8AF334A 
 924      136CE4C7 
 924      7916FF
 925 12f7 72E836D5 		.ascii	"r\3506\325\277pa\336((\016\243\314}\240\326X\374\210"
 925      BF7061DE 
 925      28280EA3 
ARM GAS  /tmp/ccBdzYwS.s 			page 74


 925      CC7DA0D6 
 925      58FC88
 926 130a 0A10E351 		.ascii	"\012\020\343Q\373\212\025\007\203\015\212y\240\221\363"
 926      FB8A1507 
 926      830D8A79 
 926      A091F3
 927 1319 6BA4F6EA 		.ascii	"k\244\366\352\026\215S\026\371\251\376Z\000\335\241"
 927      168D5316 
 927      F9A9FE5A 
 927      00DDA1
 928 1328 4DC24B5B 		.ascii	"M\302K[g\220\034\377\240\"\361\2338~\023U^H\236\037"
 928      67901CFF 
 928      A022F19B 
 928      387E1355 
 928      5E489E1F 
 929 133c 51FCE5D4 		.ascii	"Q\374\345\324\202\302\377\273\\\371.U\2767s9\317\006"
 929      82C2FFBB 
 929      5CF92E55 
 929      BE377339 
 929      CF06
 930 134e 8FB34ECA 		.ascii	"\217\263N\312\030i\336%\356\275*\306\337\255\2017\317"
 930      1869DE25 
 930      EEBD2AC6 
 930      DFAD8137 
 930      CF
 931 135f 0EA3B15C 		.ascii	"\016\243\261\\K\315\335\223z\351\236\272\227\232i/\025"
 931      4BCDDD93 
 931      7AE99EBA 
 931      979A692F 
 931      15
 932 1370 3E4D8DC2 		.ascii	">M\215\302\026\327\371-\342:\377:R\374\351\322\012\366"
 932      16D7F92D 
 932      E23AFF3A 
 932      52FCE9D2 
 932      0AF6
 933 1382 A74B7173 		.ascii	"\247Kqs9Q\326\352\263\215\373\230m\013\300\030]\214"
 933      3951D6EA 
 933      B38DFB98 
 933      6D0BC018 
 933      5D8C
 934 1394 520C5A20 		.ascii	"R\014Z I1Y\020\257\230:\372\025I\321\306\375l\243~\356"
 934      49315910 
 934      AF983AFA 
 934      1549D1C6 
 934      FD6CA37E 
 935 13a9 DC7560BF 		.ascii	"\334u`\277\263\\\371\204\"\202\355\\\271\235*\247\325"
 935      B35CF984 
 935      2282ED5C 
 935      B99D2AA7 
 935      D5
 936 13ba F6562BE6 		.ascii	"\366V+\346\2314\205r\007W\356\240\312{v\234\011\263"
 936      99348572 
 936      0757EEA0 
 936      CA7B769C 
 936      09B3
 937 13cc C1B37C04 		.ascii	"\301\263|\004\036<u\320Q\032\201\325\331\212\021\330"
 937      1E3C75D0 
ARM GAS  /tmp/ccBdzYwS.s 			page 75


 937      511A81D5 
 937      D98A11D8 
 938 13dc 2985B053 		.ascii	")\205\260S\035\302.\032\302\306\211\342=\0168\314\211"
 938      1DC22E1A 
 938      C2C689E2 
 938      3D0E38CC 
 938      89
 939 13ed 826545C6 		.ascii	"\202eE\306.\211[\367\321\377Q\014\231n\011\251[\215"
 939      2E895BF7 
 939      D1FF510C 
 939      996E09A9 
 939      5B8D
 940 13ff D443910E 		.ascii	"\324C\221\016\335{\266\001\357e@\267\373\037\305\333"
 940      DD7BB601 
 940      EF6540B7 
 940      FB1FC5DB 
 941 140f 889FABB7 		.ascii	"\210\237\253\267*\200z%\240^5\320\003\012\224~\376\321"
 941      2A807A25 
 941      A05E35D0 
 941      030A947E 
 941      FED1
 942 1421 5E2D3EC1 		.ascii	"^->\301\220\006\316W\305\210HK\213\2703\277\027\226"
 942      9006CE57 
 942      C588484B 
 942      8BB833BF 
 942      1796
 943 1433 FB2B22ED 		.ascii	"\373+\"\355\350\264\335'a\365\251\261\372)V\314b~\266"
 943      E8B4DD27 
 943      61F5A9B1 
 943      FA2956CC 
 943      627EB6
 944 1446 1D2E72B2 		.ascii	"\035.r\262p\226P\2249\224\253\370|V\2548l\033T\274\024"
 944      70965094 
 944      3994ABF8 
 944      7C56AC38 
 944      6C1B54BC 
 945 145b CF5D4F9E 		.ascii	"\317]O\236\022\347\315\206#V\251\217\033L'\017\240\210"
 945      12E7CD86 
 945      2356A98F 
 945      1B4C270F 
 945      A088
 946 146d 064432E8 		.ascii	"\006D2\350!\326\222\222\222\317\020\013\367\315\202"
 946      21D69292 
 946      92CF100B 
 946      F7CD82
 947 147c 267B5CC9 		.ascii	"&{\\\311\370\244\345\305?\026\244w\3043\345;bXrnX\015"
 947      F8A4E5C5 
 947      3F16A477 
 947      C433E53B 
 947      6258726E 
 948 1492 3642C1C2 		.ascii	"6B\301\302Z\023\0168\343\036\006\366\350\372\342\250"
 948      5A130E38 
 948      E31E06F6 
 948      E8FAE2A8 
 949 14a2 836928B9 		.ascii	"\203i(\271\247(\206\322\250\2045\252\306\032\243XO\316"
 949      A72886D2 
 949      A88435AA 
ARM GAS  /tmp/ccBdzYwS.s 			page 76


 949      C61AA358 
 949      4FCE
 950 14b4 565F75C4 		.ascii	"V_u\304\023\014\353b\306\243^\361\345U\363\337\246\356"
 950      130CEB62 
 950      C6A35EF1 
 950      E555F3DF 
 950      A6EE
 951 14c6 23C37A5C 		.ascii	"#\303z\\B\032W#=\242H\005S\207b\005<\303\2202j\237\264"
 951      421A5723 
 951      3DA24805 
 951      53876205 
 951      3CC39032 
 952 14dd B0EFA630 		.ascii	"\260\357\2460\025\361\223\264\356\250\033\305\310\362"
 952      15F193B4 
 952      EEA81BC5 
 952      C8F2
 953 14eb 27C32734 		.ascii	"'\303'4\350\2171\217z\302\374\\\263\230\223M\237\230"
 953      E88F318F 
 953      7AC2FC5C 
 953      B398934D 
 953      9F98
 954 14fd B880169A 		.ascii	"\270\200\026\232\220\270L\250\271<\245\\\256\245\267"
 954      90B84CA8 
 954      B93CA55C 
 954      AEA5B7
 955 150c 3E540CC2 		.ascii	">T\014\302,\305\270\232\344\343j\222\216\253\227\276"
 955      2CC5B89A 
 955      E4E36A92 
 955      8EAB97BE 
 956 151c EF852B94 		.ascii	"\357\205+\224\247\270\362\024\033\336\217#\033\265r"
 956      A7B8F214 
 956      1BDE8F23 
 956      1BB572
 957 152b 65728A2E 		.ascii	"er\212.)Os\345i\252|\340D\356e~\254\361\003(\316\304"
 957      294F73E5 
 957      69AA7CE0 
 957      44EE657E 
 957      ACF10328 
 958 1541 54AEB338 		.ascii	"T\256\2638k\315\210\263\326\327\354t\"w\2704E\374~H"
 958      6BCD88B3 
 958      D6D7EC74 
 958      2277B834 
 958      45FC7E48 
 959 1555 FE4C31E1 		.ascii	"\376L1\341L\303\275\227\216dg\261\033\337G\314\321i"
 959      4CC3BD97 
 959      8E6467B1 
 959      1BDF47CC 
 959      D169
 960 1567 6B864D5B 		.ascii	"k\206M[st\332\212Y:\221\257x\227A\265\314\3403N\365"
 960      7374DA8A 
 960      593A91AF 
 960      789741B5 
 960      CCE0334E 
 961 157c 19A57A25 		.ascii	"\031\245z%\";\217S}\003\212/\236\324\236\263\374\207"
 961      223B8F53 
 961      7D038A2F 
 961      9ED49EB3 
ARM GAS  /tmp/ccBdzYwS.s 			page 77


 961      FC87
 962 158e DFCF45AE 		.ascii	"\337\317E\256\363\214\353S\343\336\235\374\364x\216"
 962      F38CEB53 
 962      E3DE9DFC 
 962      F4788E
 963 159d 7CEB2CAE 		.ascii	"|\353,\256\034=\364\022\327\027\230\371\246A\013\224"
 963      1C3DF412 
 963      D71798F9 
 963      A6410B94 
 964 15ad EB73C675 		.ascii	"\353s\306u\201r\235\213\334\235\254\370k\320\005\005"
 964      81729D8B 
 964      DC9DACF8 
 964      6BD00505 
 965 15bd D745CE75 		.ascii	"\327E\316u\221r-*y\264\216Qu\203\322\235\243I}\310\""
 965      91722D2A 
 965      79B48E51 
 965      7583D29D 
 965      A3497DC8 
 966 15d2 55A39653 		.ascii	"U\243\226S]bT\323\207\353\253\371a\322\367\241\330|"
 966      5D6254D3 
 966      87EBABF9 
 966      61D2F7A1 
 966      D87C
 967 15e4 603C1631 		.ascii	"`<\0261\346\303\204\371\231\331S'm\325\314\303\265n"
 967      E6C384F9 
 967      99D95327 
 967      6DD5CCC3 
 967      B56E
 968 15f6 284C4BD0 		.ascii	"(LK\320\"\264\256\"&-@\213\274\233\321\312\017\002P"
 968      22B4AE22 
 968      262D408B 
 968      BC9BD1CA 
 968      0F0250
 969 1609 2DB31FA9 		.ascii	"-\263\037\251e\314\341JV*K}\225\216\026\271\356\020"
 969      65CCE14A 
 969      562A4B7D 
 969      958E16B9 
 969      EE10
 970 161b B9DE652F 		.ascii	"\271\336e/\256\370\330\302x\201q%I]|\374|.\377|\035"
 970      AEF8D8C2 
 970      78817125 
 970      495D7CFC 
 970      7C2EFF7C 
 971 1630 4732E27A 		.ascii	"G2\342zW\353\355\227\376Xx'p\215\242\\\243)\327\035"
 971      57EBED97 
 971      FE587827 
 971      708DA25C 
 971      A329D71D 
 972 1644 8C6B34E5 		.ascii	"\214k4\345\3322}y\207\342\205\035\255\340\032\303\271"
 972      DA327D79 
 972      87E2851D 
 972      ADE01AC3 
 972      B9
 973 1655 92ABD677 		.ascii	"\222\253\326w\213O\260\355\307\277\371\364M\257\265"
 973      8B4FB0ED 
 973      C7BFF9F4 
 973      4DAFB5
ARM GAS  /tmp/ccBdzYwS.s 			page 78


 974 1664 6B35F63A 		.ascii	"k5\366:]\250\177\240\341\355u:\303O=CC\202=\375\003"
 974      5DA87FA0 
 974      E1ED753A 
 974      C34F3D43 
 974      43823DFD 
 975 1679 7D0342FD 		.ascii	"}\003B\375\364\236\201\372/\003\374?\367\334\352\343"
 975      F49E81FA 
 975      2F03FC3F 
 975      F7DCEAE3 
 976 1689 BBC53F50 		.ascii	"\273\305?P\357\251\363\323\377\301'4\300\2403|\265M"
 976      EFA9F3D3 
 976      FFC12734 
 976      C0A0337C 
 976      B54D
 977 169b 1FB27A8B 		.ascii	"\037\262z\213\306Vl\266\312\\\263\220\257B<u!\006?\320"
 977      C6566CB6 
 977      CA5CB390 
 977      AF423C75 
 977      21063FD0 
 978 16af 015D2728 		.ascii	"\001]'(\302\235>x\273O\200\316\360\346\352\325\236\354"
 978      C29D3E78 
 978      BB4F80CE 
 978      F0E6EAD5 
 978      9EEC
 979 16c1 5F508867 		.ascii	"_P\210g\260\301\324\324w\213\301\177\253\036\324\265"
 979      B0C1D4D4 
 979      778BC17F 
 979      AB1ED4B5 
 980 16d1 DB0DBE9F 		.ascii	"\333\015\276\237\277c\3222\350C\014D/$(4\330W/\026u"
 980      BF63D232 
 980      E8430C44 
 980      2F242834 
 980      D8572F16 
 981 16e6 E4AA0BD1 		.ascii	"\344\252\013\321\377)T\037\350\253\327\255Y\263n\265"
 981      FF29541F 
 981      E8ABD7AD 
 981      59B36EB5 
 982 16f6 AFE63B62 		.ascii	"\257\346;b=\024A\336\326\351\377\254\367\0155\350U\365"
 982      3D1441DE 
 982      D6E9FFAC 
 982      F70D35E8 
 982      55F5
 983 1708 EF88F5B6 		.ascii	"\357\210\365\266\276[~\277y\223\336\260\336v\273\341"
 983      BE5B7EBF 
 983      7993DEB0 
 983      DE76BBE1 
 984 1718 0FA181BE 		.ascii	"\017\241\201\276:\203\273Er\340\203\350\273\226\350"
 984      3A83BB45 
 984      72E083E8 
 984      BB96E8
 985 1727 5AF9E903 		.ascii	"Z\371\351\003\014>\332m\301\372\355\332@\375\237\015"
 985      0C3EDA6D 
 985      C1FAEDDA 
 985      40FD9F0D 
 986 1737 CB7CB7E8 		.ascii	"\313|\267\350\266\373\007\033B\211\217\340H0\336\346"
 986      B6FB071B 
 986      42898FE0 
ARM GAS  /tmp/ccBdzYwS.s 			page 79


 986      4830DEE6 
 987 1747 13ECA2A8 		.ascii	"\023\354\242\250y\225\357!\276[\374\000\372\015\213"
 987      7995EF21 
 987      BE5BFC00 
 987      FA0D8B
 988 1756 0ADB4924 		.ascii	"\012\333I$U\216\254\023\035yCY\277V\254_\015\034\014"
 988      558EAC13 
 988      1D794359 
 988      BF56AC5F 
 988      0D1C0C
 989 1769 ABD77DC7 		.ascii	"\253\327}\307\302\343\345\276[6}\025\342\015O\202\202"
 989      C2E3E5BE 
 989      5B367D15 
 989      E20D4F82 
 989      82
 990 177a F59B0C3E 		.ascii	"\365\233\014>\206\320\220\317l\301\321\020C\210\316"
 990      86D090CF 
 990      6CC1D110 
 990      4388CE
 991 1789 F0AE9C8A 		.ascii	"\360\256\234\212o\320\326\255A\201\236\333\202\202\015"
 991      6FD0D6AD 
 991      41819EDB 
 991      82820D
 992 1798 219EEF7B 		.ascii	"!\236\357{o\360\332\360gR\267\315?@\037\034\342\371"
 992      6FF0DAF0 
 992      6752B7CD 
 992      3F401F1C 
 992      E2F9
 993 17aa B19717E9 		.ascii	"\261\227\027\351>\036\236\037\274*\206\360\374uj\365"
 993      3E1E9E1F 
 993      BC2A86F0 
 993      FC756AF5 
 994 17ba 63BD8159 		.ascii	"c\275\201Y|?\320\357\327A\276\177\374\314\236t\306\207"
 994      7C3FD0EF 
 994      D741BE7F 
 994      FCCC9E74 
 994      C687
 995 17cc 41A43B1C 		.ascii	"A\244;\034"
 996 17d0 D92D1023 		.ascii	"\331-\020#\005F\335'$D\037l\260\322}\020\024\024\340"
 996      0546DD27 
 996      24441F6C 
 996      B0D27D10 
 996      1414E0
 997 17e3 A64C0E92 		.ascii	"\246L\016\222q\020}r\017\360\200\263y\213\337\246\000"
 997      71107D72 
 997      0FF080B3 
 997      798BDFA6 
 997      00
 998 17f4 BD7EDB3F 		.ascii	"\275~\333?YN\265-\301z\037?\302f\005e\263\036\322\363"
 998      594EB52D 
 998      C17A1F3F 
 998      C2660565 
 998      B31ED2F3 
 999 1808 8B607FC3 		.ascii	"\213`\177\303W^[\364\276\177\\o\307\262\313\240\337"
 999      575E5BF4 
 999      BE7F5C6F 
 999      C7B2CBA0 
ARM GAS  /tmp/ccBdzYwS.s 			page 80


 999      DF
 1000 1819 B6C25CAA 		.ascii	"\266\302\\\252i\003}\266\352\255|}B\364!\266\006\275"
 1000      69037DB6 
 1000      EAAD7C7D 
 1000      42F421B6 
 1000      06BD
 1001 182b 4FB05FD0 		.ascii	"O\260_\320\227\201V\3005t\233\015\217\254=iC\024t\006"
 1001      978156C0 
 1001      35749B0D 
 1001      8FAC3D69 
 1001      43147406 
 1002 183f 67726B6A 		.ascii	"grkjm\370\2369@\235Op\260\317W.\252nR\225\327\251\312"
 1002      6DF89E39 
 1002      409D4F70 
 1002      B0CF572E 
 1002      AA6E5295 
 1003 1856 6FABCAEF 		.ascii	"o\253\312\3578RW6\205\206l\323\007\3729\222\276\322"
 1003      38525736 
 1003      85866CD3 
 1003      07FA3992 
 1003      BED2
 1004 1868 85B0C24F 		.ascii	"\205\260\302O\277\261/\267\370B\012\350\266\377|+\031"
 1004      BFB12FB7 
 1004      F8420AE8 
 1004      B6FF7C2B 
 1004      19
 1005 1879 AF3A2067 		.ascii	"\257: g\320}\360\376\246\217~\353\275\336\311'\340K"
 1005      D07DF0FE 
 1005      A68F7EEB 
 1005      BDDEC927 
 1005      E04B
 1006 188b 9FAF4274 		.ascii	"\237\257Bt\376\201\0010\023\374\302\014\022d?\301\361"
 1006      FE810130 
 1006      13FCC20C 
 1006      12643FC1 
 1006      F1
 1007 189c F4DAB069 		.ascii	"\364\332\260i\375&O/\000\362\\/Fzk\210\177\210\356\013"
 1007      FD264F2F 
 1007      00F25C2F 
 1007      467A6B88 
 1007      7F88EE0B 
 1008 18b0 5F5F8075 		.ascii	"__\200u\324\351\364\201>\237\007\350u\376\301\177b\\"
 1008      D4E9F481 
 1008      3E9F07E8 
 1008      75FEC17F 
 1008      625C
 1009 18c2 3FF40F21 		.ascii	"?\364\017!\025\214\253\037+\200u~G\364\034\250\336G"
 1009      158CAB1F 
 1009      2B80757E 
 1009      47F41CA8 
 1009      DE47
 1010 18d4 B49D0355 		.ascii	"\264\235\003Uc\030vd<\302\240\322\031\254\274\2746x"
 1010      63187664 
 1010      3CC2A0D2 
 1010      19ACBCBC 
 1010      3678
 1011 18e6 BF2D6CF4 		.ascii	"\277-l\364\326~\270\341}o\374\241\227\267\366\203\017"
ARM GAS  /tmp/ccBdzYwS.s 			page 81


 1011      D67EB8E1 
 1011      7D6FFCA1 
 1011      97B7F683 
 1011      0F
 1012 18f7 377B632F 		.ascii	"7{c//o\354\015\362\276\2677\376\355&/\354\365\233\315"
 1012      2F6FEC0D 
 1012      F2BEB737 
 1012      FEED262F 
 1012      ECF59BCD 
 1013 190b 5A2FAF8F 		.ascii	"Z/\257\217\274\251\376:\372\377Z\374\321\307\336\302"
 1013      BCA9FE3A 
 1013      FAFF5AFC 
 1013      D1C7DEC2 
 1014 191b 2668B9FE 		.ascii	"&h\271\376#o\355\246\015\240\355\345\275\016d-h~\346"
 1014      236FEDA6 
 1014      0DA0EDE5 
 1014      BD0E642D 
 1014      687EE6
 1015 192e BD4EEEEB 		.ascii	"\275N\356\353\026\237\000\036\262M\2337\274\275\316"
 1015      169F001E 
 1015      B24D9B37 
 1015      BCBDCE
 1016 193d F3D7BFFE 		.ascii	"\363\327\277\376\320s\363\372\015\333\327z\206\030\266"
 1016      D073F3FA 
 1016      0DDBD77A 
 1016      8618B6
 1017 194c 9289D09F 		.ascii	"\222\211\320\237\204\316\301T\320\031\\I\026\2234\007"
 1017      84CEC154 
 1017      D0195C49 
 1017      16933407 
 1018 195c A6FAAD9B 		.ascii	"\246\372\255\233\201\354g\313\251\007l2\370B\317\356"
 1018      81EC67CB 
 1018      A9076C32 
 1018      F842CFEE 
 1019 196c 3CBF65DF 		.ascii	"<\277e\337\320V`\302\025:< \300\217\266\367\015\012"
 1019      D05660C2 
 1019      153A3C20 
 1019      C08FB6F7 
 1019      0D0A
 1020 197e 25F3EADB 		.ascii	"%\363\352\333\337\216(<\321\261\306\000\263\214\006"
 1020      DF8E283C 
 1020      D1B1C600 
 1020      B38C06
 1021 198d 968CBC5F 		.ascii	"\226\214\274_\005\007m]\277\311\333\225r\013\200\012"
 1021      05076D5D 
 1021      BFC9DB95 
 1021      720B800A 
 1022 199d DD1FA046 		.ascii	"\335\037\240F\347\037\022lg\252r\245\332\237\006\006"
 1022      E71F126C 
 1022      67AA72A5 
 1022      DA9F0606 
 1023 19ad 48FA2BE8 		.ascii	"H\372+\350\303\320@E\013\007Y%\035\320l\014\333\231"
 1023      C3D04045 
 1023      0B075925 
 1023      1DD06C0C 
 1023      DB99
 1024 19bf 8C39C880 		.ascii	"\2149\310\200^\347\367\276A\201~\376\006\377\240@\237"
ARM GAS  /tmp/ccBdzYwS.s 			page 82


 1024      5EE7F7BE 
 1024      41817EFE 
 1024      06FFA040 
 1024      9F
 1025 19d0 00A2C282 		.ascii	"\000\242\302\202D\334\203\376\007\302d\222\200\244\370"
 1025      44DC83FE 
 1025      07C26492 
 1025      80A4F8
 1026 19df 424AC995 		.ascii	"BJ\311\225/7d\210\316\304\344\306\317\377O\357kX\037"
 1026      2F376488 
 1026      CEC4E4C6 
 1026      CFFF4FEF 
 1026      6B581F
 1027 19f2 E86FB0E1 		.ascii	"\350o\260\341\363\273\003\271\256\017y?x\253\336\357"
 1027      F3BB03B9 
 1027      AE0F793F 
 1027      78ABDEEF 
 1028 1a02 FF01C1F7 		.ascii	"\377\001\301\367\322\257"
 1028      D2AF
 1029              		.text
 1030              		.section	.gnu.lto_.symtab.f15c8bee5951bf88,"",%progbits
 1031 0000 72745F74 		.ascii	"rt_test_sequence_002\000"
 1031      6573745F 
 1031      73657175 
 1031      656E6365 
 1031      5F303032 
 1032 0015 00       		.ascii	"\000"
 1033 0016 00       		.ascii	"\000"
 1034 0017 00       		.ascii	"\000"
 1035 0018 00000000 		.ascii	"\000\000\000\000\000\000\000\000"
 1035      00000000 
 1036 0020 4A010000 		.ascii	"J\001\000\000"
 1037 0024 72745F74 		.ascii	"rt_test_sequence_002_array\000"
 1037      6573745F 
 1037      73657175 
 1037      656E6365 
 1037      5F303032 
 1038 003f 00       		.ascii	"\000"
 1039 0040 00       		.ascii	"\000"
 1040 0041 00       		.ascii	"\000"
 1041 0042 00000000 		.ascii	"\000\000\000\000\000\000\000\000"
 1041      00000000 
 1042 004a 4F010000 		.ascii	"O\001\000\000"
 1043 004e 74657374 		.ascii	"test_step\000"
 1043      5F737465 
 1043      7000
 1044 0058 00       		.ascii	"\000"
 1045 0059 02       		.ascii	"\002"
 1046 005a 00       		.ascii	"\000"
 1047 005b 00000000 		.ascii	"\000\000\000\000\000\000\000\000"
 1047      00000000 
 1048 0063 2B010000 		.ascii	"+\001\000\000"
 1049 0067 63685379 		.ascii	"chSysRestoreStatusX\000"
 1049      73526573 
 1049      746F7265 
 1049      53746174 
 1049      75735800 
ARM GAS  /tmp/ccBdzYwS.s 			page 83


 1050 007b 00       		.ascii	"\000"
 1051 007c 02       		.ascii	"\002"
 1052 007d 00       		.ascii	"\000"
 1053 007e 00000000 		.ascii	"\000\000\000\000\000\000\000\000"
 1053      00000000 
 1054 0086 0C010000 		.ascii	"\014\001\000\000"
 1055 008a 63685379 		.ascii	"chSysGetStatusAndLockX\000"
 1055      73476574 
 1055      53746174 
 1055      7573416E 
 1055      644C6F63 
 1056 00a1 00       		.ascii	"\000"
 1057 00a2 02       		.ascii	"\002"
 1058 00a3 00       		.ascii	"\000"
 1059 00a4 00000000 		.ascii	"\000\000\000\000\000\000\000\000"
 1059      00000000 
 1060 00ac 0F010000 		.ascii	"\017\001\000\000"
 1061 00b0 63685654 		.ascii	"chVTDoSetI\000"
 1061      446F5365 
 1061      744900
 1062 00bb 00       		.ascii	"\000"
 1063 00bc 02       		.ascii	"\002"
 1064 00bd 00       		.ascii	"\000"
 1065 00be 00000000 		.ascii	"\000\000\000\000\000\000\000\000"
 1065      00000000 
 1066 00c6 11010000 		.ascii	"\021\001\000\000"
 1067 00ca 63685654 		.ascii	"chVTDoResetI\000"
 1067      446F5265 
 1067      73657449 
 1067      00
 1068 00d7 00       		.ascii	"\000"
 1069 00d8 02       		.ascii	"\002"
 1070 00d9 00       		.ascii	"\000"
 1071 00da 00000000 		.ascii	"\000\000\000\000\000\000\000\000"
 1071      00000000 
 1072 00e2 15010000 		.ascii	"\025\001\000\000"
 1073 00e6 5F746573 		.ascii	"_test_assert\000"
 1073      745F6173 
 1073      73657274 
 1073      00
 1074 00f3 00       		.ascii	"\000"
 1075 00f4 02       		.ascii	"\002"
 1076 00f5 00       		.ascii	"\000"
 1077 00f6 00000000 		.ascii	"\000\000\000\000\000\000\000\000"
 1077      00000000 
 1078 00fe 21010000 		.ascii	"!\001\000\000"
 1079 0102 63685468 		.ascii	"chThdSleep\000"
 1079      64536C65 
 1079      657000
 1080 010d 00       		.ascii	"\000"
 1081 010e 02       		.ascii	"\002"
 1082 010f 00       		.ascii	"\000"
 1083 0110 00000000 		.ascii	"\000\000\000\000\000\000\000\000"
 1083      00000000 
 1084 0118 25010000 		.ascii	"%\001\000\000"
 1085 011c 63685379 		.ascii	"chSysIntegrityCheckI\000"
 1085      73496E74 
ARM GAS  /tmp/ccBdzYwS.s 			page 84


 1085      65677269 
 1085      74794368 
 1085      65636B49 
 1086 0131 00       		.ascii	"\000"
 1087 0132 02       		.ascii	"\002"
 1088 0133 00       		.ascii	"\000"
 1089 0134 00000000 		.ascii	"\000\000\000\000\000\000\000\000"
 1089      00000000 
 1090 013c 29010000 		.ascii	")\001\000\000"
 1091              		.text
 1092              		.section	.gnu.lto_.opts,"",%progbits
 1093 0000 272D666D 		.ascii	"'-fmath-errno' '-fsigned-zeros' '-ftrapping-math' '"
 1093      6174682D 
 1093      6572726E 
 1093      6F272027 
 1093      2D667369 
 1094 0033 2D666E6F 		.ascii	"-fno-trapv' '-fno-openmp' '-fno-openacc' '-mcpu=cor"
 1094      2D747261 
 1094      70762720 
 1094      272D666E 
 1094      6F2D6F70 
 1095 0066 7465782D 		.ascii	"tex-m4' '-mthumb' '-ggdb' '-O2' '-fomit-frame-point"
 1095      6D342720 
 1095      272D6D74 
 1095      68756D62 
 1095      2720272D 
 1096 0099 65722720 		.ascii	"er' '-falign-functions=16' '-ffunction-sections' '-"
 1096      272D6661 
 1096      6C69676E 
 1096      2D66756E 
 1096      6374696F 
 1097 00cc 66646174 		.ascii	"fdata-sections' '-fno-common' '-flto'\000"
 1097      612D7365 
 1097      6374696F 
 1097      6E732720 
 1097      272D666E 
 1098              		.text
 1099              		.comm	__gnu_lto_v1,1,1
 1100              		.comm	__gnu_lto_slim,1,1
 1101              		.ident	"GCC: (15:6.3.1+svn253039-1build1) 6.3.1 20170620"
ARM GAS  /tmp/ccBdzYwS.s 			page 85


DEFINED SYMBOLS
                            *ABS*:0000000000000000 rt_test_sequence_002.c
                            *COM*:0000000000000001 __gnu_lto_v1
                            *COM*:0000000000000001 __gnu_lto_slim

NO UNDEFINED SYMBOLS
